{
  "_format": "hh-sol-artifact-1",
  "contractName": "ArfERC721V2",
  "sourceName": "contracts/ARF/ArfERC721V2.sol",
  "abi": [
    {
      "anonymous": false,
      "inputs": [
        {
          "indexed": false,
          "internalType": "address",
          "name": "Owner",
          "type": "address"
        },
        {
          "indexed": false,
          "internalType": "uint256",
          "name": "EpochId",
          "type": "uint256"
        },
        {
          "indexed": false,
          "internalType": "uint256[]",
          "name": "ARC_TokenId",
          "type": "uint256[]"
        },
        {
          "indexed": false,
          "internalType": "uint256[]",
          "name": "ARF_TokenId",
          "type": "uint256[]"
        },
        {
          "indexed": false,
          "internalType": "uint256[]",
          "name": "JoePeg_TokenId",
          "type": "uint256[]"
        }
      ],
      "name": "ARC_ARF_Minted_Multiple",
      "type": "event"
    },
    {
      "anonymous": false,
      "inputs": [
        {
          "indexed": false,
          "internalType": "address",
          "name": "Owner",
          "type": "address"
        },
        {
          "indexed": false,
          "internalType": "uint256",
          "name": "TokenId",
          "type": "uint256"
        },
        {
          "indexed": false,
          "internalType": "uint256",
          "name": "EpochId",
          "type": "uint256"
        }
      ],
      "name": "ARC_Internal_Minted",
      "type": "event"
    },
    {
      "anonymous": false,
      "inputs": [
        {
          "indexed": false,
          "internalType": "address",
          "name": "Owner",
          "type": "address"
        },
        {
          "indexed": false,
          "internalType": "uint256",
          "name": "TokenId",
          "type": "uint256"
        },
        {
          "indexed": false,
          "internalType": "uint256",
          "name": "EpochId",
          "type": "uint256"
        }
      ],
      "name": "ARCminted",
      "type": "event"
    },
    {
      "anonymous": false,
      "inputs": [
        {
          "indexed": false,
          "internalType": "address",
          "name": "Owner",
          "type": "address"
        },
        {
          "indexed": false,
          "internalType": "uint256",
          "name": "TokenId",
          "type": "uint256"
        },
        {
          "indexed": false,
          "internalType": "uint256",
          "name": "EpochId",
          "type": "uint256"
        }
      ],
      "name": "ARF_Internal_Minted",
      "type": "event"
    },
    {
      "anonymous": false,
      "inputs": [
        {
          "indexed": false,
          "internalType": "address",
          "name": "Owner",
          "type": "address"
        },
        {
          "indexed": false,
          "internalType": "uint256",
          "name": "TokenId",
          "type": "uint256"
        },
        {
          "indexed": false,
          "internalType": "uint256",
          "name": "EpochId",
          "type": "uint256"
        }
      ],
      "name": "ARFminted",
      "type": "event"
    },
    {
      "anonymous": false,
      "inputs": [
        {
          "indexed": true,
          "internalType": "address",
          "name": "owner",
          "type": "address"
        },
        {
          "indexed": true,
          "internalType": "address",
          "name": "approved",
          "type": "address"
        },
        {
          "indexed": true,
          "internalType": "uint256",
          "name": "tokenId",
          "type": "uint256"
        }
      ],
      "name": "Approval",
      "type": "event"
    },
    {
      "anonymous": false,
      "inputs": [
        {
          "indexed": true,
          "internalType": "address",
          "name": "owner",
          "type": "address"
        },
        {
          "indexed": true,
          "internalType": "address",
          "name": "operator",
          "type": "address"
        },
        {
          "indexed": false,
          "internalType": "bool",
          "name": "approved",
          "type": "bool"
        }
      ],
      "name": "ApprovalForAll",
      "type": "event"
    },
    {
      "anonymous": false,
      "inputs": [
        {
          "indexed": false,
          "internalType": "address",
          "name": "Owner",
          "type": "address"
        },
        {
          "indexed": false,
          "internalType": "uint256",
          "name": "EpochId",
          "type": "uint256"
        },
        {
          "indexed": false,
          "internalType": "uint256",
          "name": "ARC_TokenIds",
          "type": "uint256"
        },
        {
          "indexed": false,
          "internalType": "uint256",
          "name": "ARF_TokenIds",
          "type": "uint256"
        }
      ],
      "name": "Eggnite_Minted",
      "type": "event"
    },
    {
      "anonymous": false,
      "inputs": [
        {
          "indexed": false,
          "internalType": "uint8",
          "name": "version",
          "type": "uint8"
        }
      ],
      "name": "Initialized",
      "type": "event"
    },
    {
      "anonymous": false,
      "inputs": [
        {
          "indexed": true,
          "internalType": "address",
          "name": "previousOwner",
          "type": "address"
        },
        {
          "indexed": true,
          "internalType": "address",
          "name": "newOwner",
          "type": "address"
        }
      ],
      "name": "OwnershipTransferred",
      "type": "event"
    },
    {
      "anonymous": false,
      "inputs": [
        {
          "indexed": false,
          "internalType": "address",
          "name": "User",
          "type": "address"
        },
        {
          "indexed": false,
          "internalType": "uint256[]",
          "name": "TokenIds",
          "type": "uint256[]"
        },
        {
          "indexed": false,
          "internalType": "uint256",
          "name": "EpochId",
          "type": "uint256"
        },
        {
          "indexed": false,
          "internalType": "uint256",
          "name": "PoolId",
          "type": "uint256"
        },
        {
          "indexed": false,
          "internalType": "uint256",
          "name": "AvaxPrice",
          "type": "uint256"
        },
        {
          "indexed": false,
          "internalType": "uint256",
          "name": "NiozPrice",
          "type": "uint256"
        },
        {
          "indexed": false,
          "internalType": "bool",
          "name": "IsLimited",
          "type": "bool"
        },
        {
          "indexed": false,
          "internalType": "string",
          "name": "NFTtype",
          "type": "string"
        }
      ],
      "name": "PrinterMinted",
      "type": "event"
    },
    {
      "anonymous": false,
      "inputs": [
        {
          "indexed": false,
          "internalType": "address",
          "name": "PreviousOwner",
          "type": "address"
        },
        {
          "indexed": false,
          "internalType": "address",
          "name": "NewOwner",
          "type": "address"
        },
        {
          "indexed": false,
          "internalType": "uint256",
          "name": "Price",
          "type": "uint256"
        },
        {
          "indexed": false,
          "internalType": "uint256",
          "name": "TokenId",
          "type": "uint256"
        },
        {
          "indexed": false,
          "internalType": "string",
          "name": "TokenType",
          "type": "string"
        }
      ],
      "name": "TokenPurchased",
      "type": "event"
    },
    {
      "anonymous": false,
      "inputs": [
        {
          "indexed": false,
          "internalType": "address",
          "name": "PreviousOwner",
          "type": "address"
        },
        {
          "indexed": false,
          "internalType": "address",
          "name": "NewOwner",
          "type": "address"
        },
        {
          "indexed": false,
          "internalType": "uint256",
          "name": "Price",
          "type": "uint256"
        },
        {
          "indexed": false,
          "internalType": "uint256",
          "name": "TokenId",
          "type": "uint256"
        }
      ],
      "name": "TokenPurchasedOffChain",
      "type": "event"
    },
    {
      "anonymous": false,
      "inputs": [
        {
          "indexed": true,
          "internalType": "address",
          "name": "from",
          "type": "address"
        },
        {
          "indexed": true,
          "internalType": "address",
          "name": "to",
          "type": "address"
        },
        {
          "indexed": true,
          "internalType": "uint256",
          "name": "tokenId",
          "type": "uint256"
        }
      ],
      "name": "Transfer",
      "type": "event"
    },
    {
      "anonymous": false,
      "inputs": [
        {
          "indexed": false,
          "internalType": "address[]",
          "name": "Addresses",
          "type": "address[]"
        },
        {
          "indexed": false,
          "internalType": "bool",
          "name": "Status",
          "type": "bool"
        }
      ],
      "name": "WhitelistedARCAddress",
      "type": "event"
    },
    {
      "anonymous": false,
      "inputs": [
        {
          "indexed": false,
          "internalType": "address[]",
          "name": "Addresses",
          "type": "address[]"
        },
        {
          "indexed": false,
          "internalType": "bool",
          "name": "Status",
          "type": "bool"
        }
      ],
      "name": "WhitelistedARCAlloyTeams",
      "type": "event"
    },
    {
      "anonymous": false,
      "inputs": [
        {
          "indexed": false,
          "internalType": "address[]",
          "name": "Addresses",
          "type": "address[]"
        },
        {
          "indexed": false,
          "internalType": "bool",
          "name": "Status",
          "type": "bool"
        }
      ],
      "name": "WhitelistedARCReserves",
      "type": "event"
    },
    {
      "anonymous": false,
      "inputs": [
        {
          "indexed": false,
          "internalType": "address[]",
          "name": "Addresses",
          "type": "address[]"
        },
        {
          "indexed": false,
          "internalType": "bool",
          "name": "Status",
          "type": "bool"
        }
      ],
      "name": "WhitelistedARFAddress",
      "type": "event"
    },
    {
      "anonymous": false,
      "inputs": [
        {
          "indexed": false,
          "internalType": "address[]",
          "name": "Addresses",
          "type": "address[]"
        },
        {
          "indexed": false,
          "internalType": "bool",
          "name": "Status",
          "type": "bool"
        }
      ],
      "name": "WhitelistedARFAlloyTeams",
      "type": "event"
    },
    {
      "anonymous": false,
      "inputs": [
        {
          "indexed": false,
          "internalType": "address[]",
          "name": "Addresses",
          "type": "address[]"
        },
        {
          "indexed": false,
          "internalType": "bool",
          "name": "Status",
          "type": "bool"
        }
      ],
      "name": "WhitelistedARFReserves",
      "type": "event"
    },
    {
      "anonymous": false,
      "inputs": [
        {
          "indexed": false,
          "internalType": "address[]",
          "name": "Addresses",
          "type": "address[]"
        },
        {
          "indexed": false,
          "internalType": "bool",
          "name": "Status",
          "type": "bool"
        }
      ],
      "name": "WhitelistedAddressEggnite",
      "type": "event"
    },
    {
      "inputs": [],
      "name": "ARCAddress",
      "outputs": [
        {
          "internalType": "contract Mintpeg",
          "name": "",
          "type": "address"
        }
      ],
      "stateMutability": "view",
      "type": "function"
    },
    {
      "inputs": [],
      "name": "ConstructTokenAddress",
      "outputs": [
        {
          "internalType": "contract Mintpeg",
          "name": "",
          "type": "address"
        }
      ],
      "stateMutability": "view",
      "type": "function"
    },
    {
      "inputs": [
        {
          "internalType": "uint256",
          "name": "",
          "type": "uint256"
        },
        {
          "internalType": "uint256",
          "name": "",
          "type": "uint256"
        }
      ],
      "name": "FactoryPools",
      "outputs": [
        {
          "internalType": "uint256",
          "name": "poolId",
          "type": "uint256"
        },
        {
          "internalType": "uint256",
          "name": "totalQuantityARC",
          "type": "uint256"
        },
        {
          "internalType": "uint256",
          "name": "quantityCounterARC",
          "type": "uint256"
        },
        {
          "internalType": "uint256",
          "name": "NiozPriceARC",
          "type": "uint256"
        },
        {
          "internalType": "uint256",
          "name": "avaxPriceARC",
          "type": "uint256"
        },
        {
          "internalType": "uint256",
          "name": "totalQuantityARF",
          "type": "uint256"
        },
        {
          "internalType": "uint256",
          "name": "quantityCounterARF",
          "type": "uint256"
        },
        {
          "internalType": "uint256",
          "name": "NiozPriceARF",
          "type": "uint256"
        },
        {
          "internalType": "uint256",
          "name": "avaxPriceARF",
          "type": "uint256"
        }
      ],
      "stateMutability": "view",
      "type": "function"
    },
    {
      "inputs": [
        {
          "internalType": "uint256[]",
          "name": "_token_id",
          "type": "uint256[]"
        }
      ],
      "name": "JoepegsMultiple",
      "outputs": [],
      "stateMutability": "nonpayable",
      "type": "function"
    },
    {
      "inputs": [],
      "name": "JoepegsTokenAddress",
      "outputs": [
        {
          "internalType": "contract Mintpeg",
          "name": "",
          "type": "address"
        }
      ],
      "stateMutability": "view",
      "type": "function"
    },
    {
      "inputs": [],
      "name": "MerchantWallet",
      "outputs": [
        {
          "internalType": "address",
          "name": "",
          "type": "address"
        }
      ],
      "stateMutability": "view",
      "type": "function"
    },
    {
      "inputs": [
        {
          "internalType": "uint256",
          "name": "",
          "type": "uint256"
        }
      ],
      "name": "NFTtypes",
      "outputs": [
        {
          "internalType": "string",
          "name": "",
          "type": "string"
        }
      ],
      "stateMutability": "view",
      "type": "function"
    },
    {
      "inputs": [],
      "name": "NiozERC20Address",
      "outputs": [
        {
          "internalType": "contract IERC20Upgradeable",
          "name": "",
          "type": "address"
        }
      ],
      "stateMutability": "view",
      "type": "function"
    },
    {
      "inputs": [],
      "name": "allowedPrinters",
      "outputs": [
        {
          "internalType": "uint256",
          "name": "",
          "type": "uint256"
        }
      ],
      "stateMutability": "view",
      "type": "function"
    },
    {
      "inputs": [
        {
          "internalType": "address",
          "name": "to",
          "type": "address"
        },
        {
          "internalType": "uint256",
          "name": "tokenId",
          "type": "uint256"
        }
      ],
      "name": "approve",
      "outputs": [],
      "stateMutability": "nonpayable",
      "type": "function"
    },
    {
      "inputs": [
        {
          "internalType": "address",
          "name": "owner",
          "type": "address"
        }
      ],
      "name": "balanceOf",
      "outputs": [
        {
          "internalType": "uint256",
          "name": "",
          "type": "uint256"
        }
      ],
      "stateMutability": "view",
      "type": "function"
    },
    {
      "inputs": [
        {
          "components": [
            {
              "internalType": "uint256",
              "name": "Id",
              "type": "uint256"
            },
            {
              "internalType": "uint256",
              "name": "amount",
              "type": "uint256"
            },
            {
              "internalType": "bytes32",
              "name": "messageHash",
              "type": "bytes32"
            }
          ],
          "internalType": "struct ArfERC721V2.SellOrder",
          "name": "_order",
          "type": "tuple"
        },
        {
          "internalType": "bytes",
          "name": "_signature",
          "type": "bytes"
        }
      ],
      "name": "buy",
      "outputs": [],
      "stateMutability": "payable",
      "type": "function"
    },
    {
      "inputs": [
        {
          "components": [
            {
              "internalType": "uint256",
              "name": "Id",
              "type": "uint256"
            },
            {
              "internalType": "address",
              "name": "previousOwner",
              "type": "address"
            },
            {
              "internalType": "uint256",
              "name": "amount",
              "type": "uint256"
            },
            {
              "internalType": "bytes32",
              "name": "messageHash",
              "type": "bytes32"
            }
          ],
          "internalType": "struct ArfERC721V2.SellOrderOffChain",
          "name": "_order",
          "type": "tuple"
        },
        {
          "internalType": "bytes",
          "name": "_signature",
          "type": "bytes"
        }
      ],
      "name": "buyOffChain",
      "outputs": [],
      "stateMutability": "payable",
      "type": "function"
    },
    {
      "inputs": [
        {
          "internalType": "uint256",
          "name": "",
          "type": "uint256"
        }
      ],
      "name": "checkEpochStatus",
      "outputs": [
        {
          "internalType": "bool",
          "name": "",
          "type": "bool"
        }
      ],
      "stateMutability": "view",
      "type": "function"
    },
    {
      "inputs": [
        {
          "internalType": "uint256",
          "name": "",
          "type": "uint256"
        }
      ],
      "name": "epochDetails",
      "outputs": [
        {
          "internalType": "uint256",
          "name": "totalQuantityARF",
          "type": "uint256"
        },
        {
          "internalType": "uint256",
          "name": "quantityCounterARF",
          "type": "uint256"
        },
        {
          "internalType": "uint256",
          "name": "totalQuantityARC",
          "type": "uint256"
        },
        {
          "internalType": "uint256",
          "name": "quantityCounterARC",
          "type": "uint256"
        }
      ],
      "stateMutability": "view",
      "type": "function"
    },
    {
      "inputs": [
        {
          "internalType": "uint256",
          "name": "_total_amount",
          "type": "uint256"
        }
      ],
      "name": "feeCalculation",
      "outputs": [
        {
          "internalType": "uint256",
          "name": "Fee",
          "type": "uint256"
        }
      ],
      "stateMutability": "view",
      "type": "function"
    },
    {
      "inputs": [
        {
          "internalType": "uint256",
          "name": "tokenId",
          "type": "uint256"
        }
      ],
      "name": "getApproved",
      "outputs": [
        {
          "internalType": "address",
          "name": "",
          "type": "address"
        }
      ],
      "stateMutability": "view",
      "type": "function"
    },
    {
      "inputs": [],
      "name": "initialize",
      "outputs": [],
      "stateMutability": "nonpayable",
      "type": "function"
    },
    {
      "inputs": [
        {
          "internalType": "address",
          "name": "owner",
          "type": "address"
        },
        {
          "internalType": "address",
          "name": "operator",
          "type": "address"
        }
      ],
      "name": "isApprovedForAll",
      "outputs": [
        {
          "internalType": "bool",
          "name": "",
          "type": "bool"
        }
      ],
      "stateMutability": "view",
      "type": "function"
    },
    {
      "inputs": [
        {
          "internalType": "bytes",
          "name": "",
          "type": "bytes"
        }
      ],
      "name": "isVerified",
      "outputs": [
        {
          "internalType": "bool",
          "name": "",
          "type": "bool"
        }
      ],
      "stateMutability": "view",
      "type": "function"
    },
    {
      "inputs": [],
      "name": "mintARC",
      "outputs": [],
      "stateMutability": "nonpayable",
      "type": "function"
    },
    {
      "inputs": [],
      "name": "mintARF",
      "outputs": [],
      "stateMutability": "nonpayable",
      "type": "function"
    },
    {
      "inputs": [],
      "name": "mintEggnite",
      "outputs": [],
      "stateMutability": "nonpayable",
      "type": "function"
    },
    {
      "inputs": [
        {
          "internalType": "uint256",
          "name": "epoch_id",
          "type": "uint256"
        }
      ],
      "name": "mintInternalARC",
      "outputs": [],
      "stateMutability": "nonpayable",
      "type": "function"
    },
    {
      "inputs": [
        {
          "internalType": "uint256",
          "name": "epoch_id",
          "type": "uint256"
        }
      ],
      "name": "mintInternalARF",
      "outputs": [],
      "stateMutability": "nonpayable",
      "type": "function"
    },
    {
      "inputs": [
        {
          "components": [
            {
              "internalType": "uint256",
              "name": "epoch_id",
              "type": "uint256"
            },
            {
              "internalType": "uint256",
              "name": "pool_id",
              "type": "uint256"
            },
            {
              "internalType": "uint256",
              "name": "quantity",
              "type": "uint256"
            },
            {
              "internalType": "bytes32",
              "name": "message_hash",
              "type": "bytes32"
            }
          ],
          "internalType": "struct ArfERC721V2.Order",
          "name": "_order",
          "type": "tuple"
        },
        {
          "internalType": "bytes",
          "name": "_signature",
          "type": "bytes"
        },
        {
          "internalType": "bool",
          "name": "isLimited",
          "type": "bool"
        }
      ],
      "name": "mintPrinterARF",
      "outputs": [],
      "stateMutability": "payable",
      "type": "function"
    },
    {
      "inputs": [],
      "name": "name",
      "outputs": [
        {
          "internalType": "string",
          "name": "",
          "type": "string"
        }
      ],
      "stateMutability": "view",
      "type": "function"
    },
    {
      "inputs": [],
      "name": "owner",
      "outputs": [
        {
          "internalType": "address",
          "name": "",
          "type": "address"
        }
      ],
      "stateMutability": "view",
      "type": "function"
    },
    {
      "inputs": [
        {
          "internalType": "uint256",
          "name": "tokenId",
          "type": "uint256"
        }
      ],
      "name": "ownerOf",
      "outputs": [
        {
          "internalType": "address",
          "name": "",
          "type": "address"
        }
      ],
      "stateMutability": "view",
      "type": "function"
    },
    {
      "inputs": [],
      "name": "renounceOwnership",
      "outputs": [],
      "stateMutability": "nonpayable",
      "type": "function"
    },
    {
      "inputs": [
        {
          "internalType": "address",
          "name": "from",
          "type": "address"
        },
        {
          "internalType": "address",
          "name": "to",
          "type": "address"
        },
        {
          "internalType": "uint256",
          "name": "tokenId",
          "type": "uint256"
        }
      ],
      "name": "safeTransferFrom",
      "outputs": [],
      "stateMutability": "nonpayable",
      "type": "function"
    },
    {
      "inputs": [
        {
          "internalType": "address",
          "name": "from",
          "type": "address"
        },
        {
          "internalType": "address",
          "name": "to",
          "type": "address"
        },
        {
          "internalType": "uint256",
          "name": "tokenId",
          "type": "uint256"
        },
        {
          "internalType": "bytes",
          "name": "data",
          "type": "bytes"
        }
      ],
      "name": "safeTransferFrom",
      "outputs": [],
      "stateMutability": "nonpayable",
      "type": "function"
    },
    {
      "inputs": [
        {
          "internalType": "address",
          "name": "operator",
          "type": "address"
        },
        {
          "internalType": "bool",
          "name": "approved",
          "type": "bool"
        }
      ],
      "name": "setApprovalForAll",
      "outputs": [],
      "stateMutability": "nonpayable",
      "type": "function"
    },
    {
      "inputs": [
        {
          "internalType": "bytes4",
          "name": "interfaceId",
          "type": "bytes4"
        }
      ],
      "name": "supportsInterface",
      "outputs": [
        {
          "internalType": "bool",
          "name": "",
          "type": "bool"
        }
      ],
      "stateMutability": "view",
      "type": "function"
    },
    {
      "inputs": [],
      "name": "symbol",
      "outputs": [
        {
          "internalType": "string",
          "name": "",
          "type": "string"
        }
      ],
      "stateMutability": "view",
      "type": "function"
    },
    {
      "inputs": [],
      "name": "tokenCounter",
      "outputs": [
        {
          "internalType": "uint256",
          "name": "",
          "type": "uint256"
        }
      ],
      "stateMutability": "view",
      "type": "function"
    },
    {
      "inputs": [
        {
          "internalType": "uint256",
          "name": "_tokenId",
          "type": "uint256"
        }
      ],
      "name": "tokenURI",
      "outputs": [
        {
          "internalType": "string",
          "name": "",
          "type": "string"
        }
      ],
      "stateMutability": "view",
      "type": "function"
    },
    {
      "inputs": [
        {
          "internalType": "address",
          "name": "from",
          "type": "address"
        },
        {
          "internalType": "address",
          "name": "to",
          "type": "address"
        },
        {
          "internalType": "uint256",
          "name": "tokenId",
          "type": "uint256"
        }
      ],
      "name": "transferFrom",
      "outputs": [],
      "stateMutability": "nonpayable",
      "type": "function"
    },
    {
      "inputs": [
        {
          "internalType": "address",
          "name": "newOwner",
          "type": "address"
        }
      ],
      "name": "transferOwnership",
      "outputs": [],
      "stateMutability": "nonpayable",
      "type": "function"
    },
    {
      "inputs": [
        {
          "internalType": "string",
          "name": "_baseuri",
          "type": "string"
        },
        {
          "internalType": "string",
          "name": "_extension",
          "type": "string"
        }
      ],
      "name": "upadateDefaultUri",
      "outputs": [],
      "stateMutability": "nonpayable",
      "type": "function"
    },
    {
      "inputs": [
        {
          "internalType": "uint256",
          "name": "_epoch_id",
          "type": "uint256"
        },
        {
          "internalType": "uint256[]",
          "name": "_pool_id",
          "type": "uint256[]"
        },
        {
          "internalType": "uint256[]",
          "name": "_quantity_arf",
          "type": "uint256[]"
        },
        {
          "internalType": "uint256[]",
          "name": "_avax_price",
          "type": "uint256[]"
        },
        {
          "internalType": "uint256[]",
          "name": "_Nioz_price",
          "type": "uint256[]"
        }
      ],
      "name": "updateARCPoolDetails",
      "outputs": [],
      "stateMutability": "nonpayable",
      "type": "function"
    },
    {
      "inputs": [
        {
          "internalType": "uint256",
          "name": "_epoch_id",
          "type": "uint256"
        },
        {
          "internalType": "uint256[]",
          "name": "_pool_id",
          "type": "uint256[]"
        },
        {
          "internalType": "uint256[]",
          "name": "_quantity_arf",
          "type": "uint256[]"
        },
        {
          "internalType": "uint256[]",
          "name": "_avax_price",
          "type": "uint256[]"
        },
        {
          "internalType": "uint256[]",
          "name": "_Nioz_price",
          "type": "uint256[]"
        }
      ],
      "name": "updateARFPoolDetails",
      "outputs": [],
      "stateMutability": "nonpayable",
      "type": "function"
    },
    {
      "inputs": [
        {
          "internalType": "uint256",
          "name": "epoch_id",
          "type": "uint256"
        },
        {
          "internalType": "uint256",
          "name": "pool_id",
          "type": "uint256"
        },
        {
          "internalType": "uint256",
          "name": "quantity",
          "type": "uint256"
        }
      ],
      "name": "updateCounter",
      "outputs": [],
      "stateMutability": "nonpayable",
      "type": "function"
    },
    {
      "inputs": [
        {
          "internalType": "uint256[]",
          "name": "_epoch_id",
          "type": "uint256[]"
        },
        {
          "internalType": "uint256[]",
          "name": "_quantity_arc",
          "type": "uint256[]"
        },
        {
          "internalType": "uint256[]",
          "name": "_quantity_arf",
          "type": "uint256[]"
        }
      ],
      "name": "updateEpochDetails",
      "outputs": [],
      "stateMutability": "nonpayable",
      "type": "function"
    },
    {
      "inputs": [
        {
          "internalType": "uint256[]",
          "name": "_epoch_id",
          "type": "uint256[]"
        },
        {
          "internalType": "bool",
          "name": "_status",
          "type": "bool"
        }
      ],
      "name": "updateEpochStatus",
      "outputs": [],
      "stateMutability": "nonpayable",
      "type": "function"
    },
    {
      "inputs": [
        {
          "internalType": "address",
          "name": "_joepeg_address",
          "type": "address"
        },
        {
          "internalType": "address",
          "name": "_arc_address",
          "type": "address"
        },
        {
          "internalType": "address",
          "name": "_merchant_address",
          "type": "address"
        },
        {
          "internalType": "address",
          "name": "_Nioz_address",
          "type": "address"
        },
        {
          "internalType": "address",
          "name": "_construct_address",
          "type": "address"
        },
        {
          "internalType": "uint256",
          "name": "_num_allowed",
          "type": "uint256"
        }
      ],
      "name": "updateWallets",
      "outputs": [],
      "stateMutability": "nonpayable",
      "type": "function"
    },
    {
      "inputs": [
        {
          "internalType": "address[]",
          "name": "_address",
          "type": "address[]"
        },
        {
          "internalType": "bool",
          "name": "_status",
          "type": "bool"
        }
      ],
      "name": "whitelistARCAddresses",
      "outputs": [],
      "stateMutability": "nonpayable",
      "type": "function"
    },
    {
      "inputs": [
        {
          "internalType": "address[]",
          "name": "_address",
          "type": "address[]"
        },
        {
          "internalType": "bool",
          "name": "_status",
          "type": "bool"
        }
      ],
      "name": "whitelistARCAlloyTeam",
      "outputs": [],
      "stateMutability": "nonpayable",
      "type": "function"
    },
    {
      "inputs": [
        {
          "internalType": "address[]",
          "name": "_address",
          "type": "address[]"
        },
        {
          "internalType": "bool",
          "name": "_status",
          "type": "bool"
        }
      ],
      "name": "whitelistARCReserves",
      "outputs": [],
      "stateMutability": "nonpayable",
      "type": "function"
    },
    {
      "inputs": [
        {
          "internalType": "address[]",
          "name": "_address",
          "type": "address[]"
        },
        {
          "internalType": "bool",
          "name": "_status",
          "type": "bool"
        }
      ],
      "name": "whitelistARFAddresses",
      "outputs": [],
      "stateMutability": "nonpayable",
      "type": "function"
    },
    {
      "inputs": [
        {
          "internalType": "address[]",
          "name": "_address",
          "type": "address[]"
        },
        {
          "internalType": "bool",
          "name": "_status",
          "type": "bool"
        }
      ],
      "name": "whitelistARFAlloyTeam",
      "outputs": [],
      "stateMutability": "nonpayable",
      "type": "function"
    },
    {
      "inputs": [
        {
          "internalType": "address[]",
          "name": "_address",
          "type": "address[]"
        },
        {
          "internalType": "bool",
          "name": "_status",
          "type": "bool"
        }
      ],
      "name": "whitelistARFReserves",
      "outputs": [],
      "stateMutability": "nonpayable",
      "type": "function"
    },
    {
      "inputs": [
        {
          "internalType": "address[]",
          "name": "_address",
          "type": "address[]"
        },
        {
          "internalType": "bool",
          "name": "_status",
          "type": "bool"
        }
      ],
      "name": "whitelistAddressesEggnite",
      "outputs": [],
      "stateMutability": "nonpayable",
      "type": "function"
    },
    {
      "inputs": [
        {
          "internalType": "address",
          "name": "",
          "type": "address"
        }
      ],
      "name": "whitelistedARCAddress",
      "outputs": [
        {
          "internalType": "bool",
          "name": "",
          "type": "bool"
        }
      ],
      "stateMutability": "view",
      "type": "function"
    },
    {
      "inputs": [
        {
          "internalType": "address",
          "name": "",
          "type": "address"
        }
      ],
      "name": "whitelistedARCAlloyTeam",
      "outputs": [
        {
          "internalType": "bool",
          "name": "",
          "type": "bool"
        }
      ],
      "stateMutability": "view",
      "type": "function"
    },
    {
      "inputs": [
        {
          "internalType": "address",
          "name": "",
          "type": "address"
        }
      ],
      "name": "whitelistedARCReserve",
      "outputs": [
        {
          "internalType": "bool",
          "name": "",
          "type": "bool"
        }
      ],
      "stateMutability": "view",
      "type": "function"
    },
    {
      "inputs": [
        {
          "internalType": "address",
          "name": "",
          "type": "address"
        }
      ],
      "name": "whitelistedARFAddress",
      "outputs": [
        {
          "internalType": "bool",
          "name": "",
          "type": "bool"
        }
      ],
      "stateMutability": "view",
      "type": "function"
    },
    {
      "inputs": [
        {
          "internalType": "address",
          "name": "",
          "type": "address"
        }
      ],
      "name": "whitelistedARFAlloyTeam",
      "outputs": [
        {
          "internalType": "bool",
          "name": "",
          "type": "bool"
        }
      ],
      "stateMutability": "view",
      "type": "function"
    },
    {
      "inputs": [
        {
          "internalType": "address",
          "name": "",
          "type": "address"
        }
      ],
      "name": "whitelistedARFReserve",
      "outputs": [
        {
          "internalType": "bool",
          "name": "",
          "type": "bool"
        }
      ],
      "stateMutability": "view",
      "type": "function"
    },
    {
      "inputs": [
        {
          "internalType": "address",
          "name": "",
          "type": "address"
        }
      ],
      "name": "whitelistedAddressEggnite",
      "outputs": [
        {
          "internalType": "bool",
          "name": "",
          "type": "bool"
        }
      ],
      "stateMutability": "view",
      "type": "function"
    }
  ],
  "bytecode": "0x60806040523480156200001157600080fd5b5061b28880620000226000396000f3fe6080604052600436106103965760003560e01c80637ebededb116101dc578063c3e50abb11610102578063db0a4882116100a0578063ec4370381161006f578063ec43703814610dab578063ecc228ce14610de8578063edda705914610dff578063f2fde38b14610e2857610396565b8063db0a488214610cdc578063e329cf7b14610d05578063e561084f14610d45578063e985e9c514610d6e57610396565b8063c9941806116100dc578063c994180614610c0c578063cb73bff114610c49578063d082e38114610c74578063d87df9e214610c9f57610396565b8063c3e50abb14610b69578063c87b56dd14610ba6578063c8d5c0e214610be357610396565b806395d89b411161017a578063a7397c2e11610149578063a7397c2e14610ad2578063b3af1f2614610afb578063b88d4fde14610b24578063be6d6a6f14610b4d57610396565b806395d89b4114610a2c57806397c04edb14610a575780639ddb234c14610a80578063a22cb46514610aa957610396565b80638e6b86cb116101b65780638e6b86cb1461099357806393709109146109d05780639401c1e4146109e75780639533d57314610a0357610396565b80637ebededb146109285780638129fc1c146109515780638da5cb5b1461096857610396565b806335643681116102c157806363a205f71161025f5780636ef1eee41161022e5780636ef1eee41461087e57806370a08231146108a9578063715018a6146108e65780637dd12d15146108fd57610396565b806363a205f71461079e5780636c7b7f6c146107c75780636d998f01146108045780636eda504e1461084157610396565b806342842e0e1161029b57806342842e0e146106e65780635d952d251461070f57806361ffc012146107385780636352211e1461076157610396565b80633564368114610653578063399b37981461067e5780633a988498146106a957610396565b806310a6d134116103395780631a924fd5116103085780631a924fd51461057f57806323b872dd146105c45780632c7d077e146105ed57806332a5b0aa1461062a57610396565b806310a6d134146104d957806313de306a146105025780631424f9361461051957806319d17e511461054257610396565b806306fdde031161037557806306fdde031461041d578063081812fc14610448578063095ea7b3146104855780630c53efe6146104ae57610396565b80621640c21461039b57806301ffc9a7146103c457806303ecaa9514610401575b600080fd5b3480156103a757600080fd5b506103c260048036038101906103bd91906185e1565b610e51565b005b3480156103d057600080fd5b506103eb60048036038101906103e69190618735565b6110b6565b6040516103f8919061877d565b60405180910390f35b61041b60048036038101906104169190618929565b611198565b005b34801561042957600080fd5b50610432611f32565b60405161043f9190618a17565b60405180910390f35b34801561045457600080fd5b5061046f600480360381019061046a9190618a39565b611fc4565b60405161047c9190618aa7565b60405180910390f35b34801561049157600080fd5b506104ac60048036038101906104a79190618aee565b61200a565b005b3480156104ba57600080fd5b506104c3612121565b6040516104d09190618b3d565b60405180910390f35b3480156104e557600080fd5b5061050060048036038101906104fb9190618b58565b612128565b005b34801561050e57600080fd5b50610517612a6b565b005b34801561052557600080fd5b50610540600480360381019061053b9190618bfb565b612f42565b005b34801561054e57600080fd5b5061056960048036038101906105649190618c5b565b6130cb565b604051610576919061877d565b60405180910390f35b34801561058b57600080fd5b506105a660048036038101906105a19190618c88565b6130ec565b6040516105bb99989796959493929190618cc8565b60405180910390f35b3480156105d057600080fd5b506105eb60048036038101906105e69190618d55565b613148565b005b3480156105f957600080fd5b50610614600480360381019061060f9190618a39565b6131a8565b6040516106219190618b3d565b60405180910390f35b34801561063657600080fd5b50610651600480360381019061064c9190618a39565b613283565b005b34801561065f57600080fd5b506106686138c9565b6040516106759190618e07565b60405180910390f35b34801561068a57600080fd5b506106936138f0565b6040516106a09190618e07565b60405180910390f35b3480156106b557600080fd5b506106d060048036038101906106cb9190618a39565b613917565b6040516106dd919061877d565b60405180910390f35b3480156106f257600080fd5b5061070d60048036038101906107089190618d55565b613937565b005b34801561071b57600080fd5b5061073660048036038101906107319190618bfb565b613957565b005b34801561074457600080fd5b5061075f600480360381019061075a91906185e1565b613ae0565b005b34801561076d57600080fd5b5061078860048036038101906107839190618a39565b613d45565b6040516107959190618aa7565b60405180910390f35b3480156107aa57600080fd5b506107c560048036038101906107c09190618a39565b613dcb565b005b3480156107d357600080fd5b506107ee60048036038101906107e99190618c5b565b614371565b6040516107fb919061877d565b60405180910390f35b34801561081057600080fd5b5061082b60048036038101906108269190618a39565b614392565b6040516108389190618a17565b60405180910390f35b34801561084d57600080fd5b5061086860048036038101906108639190618c5b565b614433565b604051610875919061877d565b60405180910390f35b34801561088a57600080fd5b50610893614454565b6040516108a09190618e07565b60405180910390f35b3480156108b557600080fd5b506108d060048036038101906108cb9190618c5b565b61447b565b6040516108dd9190618b3d565b60405180910390f35b3480156108f257600080fd5b506108fb614532565b005b34801561090957600080fd5b50610912614546565b60405161091f9190618aa7565b60405180910390f35b34801561093457600080fd5b5061094f600480360381019061094a9190618e22565b61456d565b005b34801561095d57600080fd5b506109666146c5565b005b34801561097457600080fd5b5061097d614d78565b60405161098a9190618aa7565b60405180910390f35b34801561099f57600080fd5b506109ba60048036038101906109b59190618c5b565b614da2565b6040516109c7919061877d565b60405180910390f35b3480156109dc57600080fd5b506109e5614dc3565b005b610a0160048036038101906109fc9190618f75565b6151b8565b005b348015610a0f57600080fd5b50610a2a6004803603810190610a259190618bfb565b61574f565b005b348015610a3857600080fd5b50610a416158d8565b604051610a4e9190618a17565b60405180910390f35b348015610a6357600080fd5b50610a7e6004803603810190610a799190619072565b61596a565b005b348015610a8c57600080fd5b50610aa76004803603810190610aa29190618bfb565b6159fa565b005b348015610ab557600080fd5b50610ad06004803603810190610acb91906190ea565b615b83565b005b348015610ade57600080fd5b50610af96004803603810190610af49190618bfb565b615b99565b005b348015610b0757600080fd5b50610b226004803603810190610b1d919061912a565b615d22565b005b348015610b3057600080fd5b50610b4b6004803603810190610b4691906191b7565b615f38565b005b610b676004803603810190610b6291906192b2565b615f9a565b005b348015610b7557600080fd5b50610b906004803603810190610b8b9190618c5b565b6164a3565b604051610b9d919061877d565b60405180910390f35b348015610bb257600080fd5b50610bcd6004803603810190610bc89190618a39565b6164c4565b604051610bda9190618a17565b60405180910390f35b348015610bef57600080fd5b50610c0a6004803603810190610c059190618bfb565b6165cf565b005b348015610c1857600080fd5b50610c336004803603810190610c2e919061930e565b616758565b604051610c40919061877d565b60405180910390f35b348015610c5557600080fd5b50610c5e61678f565b604051610c6b9190619378565b60405180910390f35b348015610c8057600080fd5b50610c896167b6565b604051610c969190618b3d565b60405180910390f35b348015610cab57600080fd5b50610cc66004803603810190610cc19190618c5b565b6167bc565b604051610cd3919061877d565b60405180910390f35b348015610ce857600080fd5b50610d036004803603810190610cfe9190618bfb565b6167dd565b005b348015610d1157600080fd5b50610d2c6004803603810190610d279190618a39565b616966565b604051610d3c9493929190619393565b60405180910390f35b348015610d5157600080fd5b50610d6c6004803603810190610d6791906193d8565b616996565b005b348015610d7a57600080fd5b50610d956004803603810190610d90919061942b565b616b24565b604051610da2919061877d565b60405180910390f35b348015610db757600080fd5b50610dd26004803603810190610dcd9190618c5b565b616bb8565b604051610ddf919061877d565b60405180910390f35b348015610df457600080fd5b50610dfd616bd9565b005b348015610e0b57600080fd5b50610e266004803603810190610e21919061946b565b616f2d565b005b348015610e3457600080fd5b50610e4f6004803603810190610e4a9190618c5b565b617018565b005b610e6567cc7ec2a30cb5b2a360c01b61709b565b610e6d61709e565b610e816741973bd226d807a160c01b61709b565b610e95674aa54c6904fb88a460c01b61709b565b610ea9672c5297635967d51860c01b61709b565b610ebd6721ad4b3456a93b1260c01b61709b565b60005b888890508110156110aa57610edf672ca3eeb0f6ca2b9760c01b61709b565b888882818110610ef257610ef16194cb565b5b9050602002013561010960008c815260200190815260200160002060008b8b85818110610f2257610f216194cb565b5b90506020020135815260200190815260200160002060000181905550610f526754359b0233c51c8060c01b61709b565b868682818110610f6557610f646194cb565b5b9050602002013561010960008c815260200190815260200160002060008b8b85818110610f9557610f946194cb565b5b90506020020135815260200190815260200160002060010181905550610fc567d578d52025b1da3b60c01b61709b565b848482818110610fd857610fd76194cb565b5b9050602002013561010960008c815260200190815260200160002060008b8b85818110611008576110076194cb565b5b905060200201358152602001908152602001600020600401819055506110386759cc07159806543360c01b61709b565b82828281811061104b5761104a6194cb565b5b9050602002013561010960008c815260200190815260200160002060008b8b8581811061107b5761107a6194cb565b5b9050602002013581526020019081526020016000206003018190555080806110a290619529565b915050610ec0565b50505050505050505050565b60007f80ac58cd000000000000000000000000000000000000000000000000000000007bffffffffffffffffffffffffffffffffffffffffffffffffffffffff1916827bffffffffffffffffffffffffffffffffffffffffffffffffffffffff1916148061118157507f5b5e139f000000000000000000000000000000000000000000000000000000007bffffffffffffffffffffffffffffffffffffffffffffffffffffffff1916827bffffffffffffffffffffffffffffffffffffffffffffffffffffffff1916145b8061119157506111908261711c565b5b9050919050565b6111ac67681c0dca96523a7460c01b61709b565b6111b4617186565b6111c8678b6975a30919839960c01b61709b565b6111dc67c553c74600a1f83a60c01b61709b565b6111f06738d1861abb7c178b60c01b61709b565b61120467c1efef9b5deb175060c01b61709b565b611218678973839573713c7960c01b61709b565b61122e611223614d78565b8460600135846171d5565b8015611264575061010b8260405161124691906195b8565b908152602001604051809103902060009054906101000a900460ff16155b801561130a575061010d60009054906101000a900473ffffffffffffffffffffffffffffffffffffffff1673ffffffffffffffffffffffffffffffffffffffff1663c9941806836040518263ffffffff1660e01b81526004016112c79190619619565b602060405180830381865afa1580156112e4573d6000803e3d6000fd5b505050506040513d601f19601f820116820180604052508101906113089190619650565b155b80156113b0575061010160009054906101000a900473ffffffffffffffffffffffffffffffffffffffff1673ffffffffffffffffffffffffffffffffffffffff1663c9941806836040518263ffffffff1660e01b815260040161136d9190619619565b602060405180830381865afa15801561138a573d6000803e3d6000fd5b505050506040513d601f19601f820116820180604052508101906113ae9190619650565b155b6113ef576040517f08c379a00000000000000000000000000000000000000000000000000000000081526004016113e6906196c9565b60405180910390fd5b61140367b6d4812df5cdc46760c01b61709b565b61141767db85e45aafa4b40160c01b61709b565b61142b67f4ae43eb8f73e71360c01b61709b565b61143f67fc848806049dbbe760c01b61709b565b60ff60008460000135815260200190815260200160002060009054906101000a900460ff1680156114b35750826040013560fe6000856000013581526020019081526020016000206001015461149591906196e9565b60fe6000856000013581526020019081526020016000206000015410155b80156115515750600683600001351480156114de57506114dd673be6a93fbb99428b60c01b61739b565b5b806115255750600783600001351480156115085750611507675e116e9a88d0b10b60c01b61739b565b5b8015611524575061152367b8ead7905200413b60c01b61739b565b5b5b8061155057506008836000013514801561154f575061154e670fbeaa51bf2fe19060c01b61739b565b5b5b5b80156115bd5750610109600084600001358152602001908152602001600020600084602001358152602001908152602001600020600601546101096000856000013581526020019081526020016000206000856020013581526020019081526020016000206005015410155b6115fc576040517f08c379a00000000000000000000000000000000000000000000000000000000081526004016115f39061978f565b60405180910390fd5b611610672aa672335ed17d7b60c01b61709b565b61162467aff8092f8b946bc960c01b61709b565b611638671cbdf1e9cbfdde3960c01b61709b565b61164c675469763ff44f852360c01b61709b565b3483604001356101096000866000013581526020019081526020016000206000866020013581526020019081526020016000206008015461168d91906197af565b146116cd576040517f08c379a00000000000000000000000000000000000000000000000000000000081526004016116c490619855565b60405180910390fd5b6116e167858508d1ecd1b73160c01b61709b565b6116f567791c4912a5d06b8460c01b61709b565b611709670b7365ce2488a61160c01b61709b565b606061171f671efcfa7ef61728b960c01b61709b565b6117336743ac06d8aa8f8a0f60c01b61709b565b6117476749d6062097adc2d060c01b61709b565b61010c5484604001351115611791576040517f08c379a0000000000000000000000000000000000000000000000000000000008152600401611788906198c1565b60405180910390fd5b6117a567ce6666729d09614260c01b61709b565b6117b96722932fdd59c14a6460c01b61709b565b836040013567ffffffffffffffff8111156117d7576117d66187d2565b5b6040519080825280602002602001820160405280156118055781602001602082028036833780820191505090505b50905061181c672c8bcc30aebb170260c01b61709b565b61183067933a89a55f1dc90d60c01b61709b565b60005b846040013581101561195757611853678a11bfe6f9b5866960c01b61709b565b600160fb600082825461186691906196e9565b9250508190555061188167e315cdd5c68079b160c01b61709b565b6040518060400160405280600781526020017f5052494e5445520000000000000000000000000000000000000000000000000081525061010a600060fb54815260200190815260200160002090816118d99190619ae3565b506118ee67e49eda4f0c089b6460c01b61709b565b611902678057b4f8ae7d6ef460c01b61709b565b61190e3360fb546173a6565b611922676def481f2fd0196260c01b61709b565b60fb54828281518110611938576119376194cb565b5b602002602001018181525050808061194f90619529565b915050611833565b5061196c675ce9726888cee04060c01b61709b565b61198067e86249574bda80e160c01b61709b565b61010e60009054906101000a900473ffffffffffffffffffffffffffffffffffffffff1673ffffffffffffffffffffffffffffffffffffffff166108fc349081150290604051600060405180830381858888f193505050501580156119e9573d6000803e3d6000fd5b506119fe672756e8a6e4f544c460c01b61709b565b611a1267545948fb9336af0b60c01b61709b565b6000610109600086600001358152602001908152602001600020600086602001358152602001908152602001600020600301541115611d7857611a5f675aa249496837738560c01b61709b565b611a7367b1ba8f98e7907f8d60c01b61709b565b611a8767131402bd2dc7996960c01b61709b565b61010d60009054906101000a900473ffffffffffffffffffffffffffffffffffffffff1673ffffffffffffffffffffffffffffffffffffffff1663d1660f993330610109600089600001358152602001908152602001600020600089602001358152602001908152602001600020600701546040518463ffffffff1660e01b8152600401611b1793929190619bb5565b600060405180830381600087803b158015611b3157600080fd5b505af1158015611b45573d6000803e3d6000fd5b50505050611b5d676d6ad4a5560048b160c01b61709b565b611b7167b8203ac42b49057b60c01b61709b565b61010d60009054906101000a900473ffffffffffffffffffffffffffffffffffffffff1673ffffffffffffffffffffffffffffffffffffffff1663095ea7b361010e60009054906101000a900473ffffffffffffffffffffffffffffffffffffffff16610109600088600001358152602001908152602001600020600088602001358152602001908152602001600020600701546040518363ffffffff1660e01b8152600401611c22929190619bec565b6020604051808303816000875af1158015611c41573d6000803e3d6000fd5b505050506040513d601f19601f82011682018060405250810190611c659190619650565b50611c7a676162ed1d67fb852560c01b61709b565b611c8e67cbbbc726c3df222b60c01b61709b565b61010d60009054906101000a900473ffffffffffffffffffffffffffffffffffffffff1673ffffffffffffffffffffffffffffffffffffffff1663d1660f993061010e60009054906101000a900473ffffffffffffffffffffffffffffffffffffffff16610109600089600001358152602001908152602001600020600089602001358152602001908152602001600020600301546040518463ffffffff1660e01b8152600401611d4193929190619bb5565b600060405180830381600087803b158015611d5b57600080fd5b505af1158015611d6f573d6000803e3d6000fd5b50505050611d8d565b611d8c6752b81ea2bbba670360c01b61709b565b5b611da1676d215539c488b8b860c01b61709b565b836040013560fe6000866000013581526020019081526020016000206003016000828254611dcf91906196e9565b92505081905550611dea6797f79d7d9d5036d260c01b61709b565b83604001356101096000866000013581526020019081526020016000206000866020013581526020019081526020016000206006016000828254611e2e91906196e9565b92505081905550611e49676c15427f2bbfeb2a60c01b61709b565b600161010b84604051611e5c91906195b8565b908152602001604051809103902060006101000a81548160ff021916908315150217905550611e95671a6f099e5546c85260c01b61709b565b611ea96770381f2c4338589860c01b61709b565b7f51648125ce33694873381e0c4ad7f8ef183c08887969bef55995f6feb91f56733382866000013587602001353461010960008b60000135815260200190815260200160002060008b6020013581526020019081526020016000206003015488604051611f1c9796959493929190619d1f565b60405180910390a150611f2d6173c4565b505050565b606060658054611f4190619910565b80601f0160208091040260200160405190810160405280929190818152602001828054611f6d90619910565b8015611fba5780601f10611f8f57610100808354040283529160200191611fba565b820191906000526020600020905b815481529060010190602001808311611f9d57829003601f168201915b5050505050905090565b6000611fcf826173ce565b6069600083815260200190815260200160002060009054906101000a900473ffffffffffffffffffffffffffffffffffffffff169050919050565b600061201582613d45565b90508073ffffffffffffffffffffffffffffffffffffffff168373ffffffffffffffffffffffffffffffffffffffff1603612085576040517f08c379a000000000000000000000000000000000000000000000000000000000815260040161207c90619e1b565b60405180910390fd5b8073ffffffffffffffffffffffffffffffffffffffff166120a4617419565b73ffffffffffffffffffffffffffffffffffffffff1614806120d357506120d2816120cd617419565b616b24565b5b612112576040517f08c379a000000000000000000000000000000000000000000000000000000000815260040161210990619ead565b60405180910390fd5b61211c8383617421565b505050565b61010c5481565b61213c67321a0cf1ed7a7ffc60c01b61709b565b612144617186565b61215867f3ed626055d35d9260c01b61709b565b61216c67ada45b6dd1a1e4d860c01b61709b565b61218067527969bc7e5efdd060c01b61709b565b612194675ad3b35a361b55d160c01b61709b565b6121a867998afb64b21fa8b060c01b61709b565b60ff60006005815260200190815260200160002060009054906101000a900460ff168015612212575060fe600060058152602001908152602001600020600001548282905060fe6000600581526020019081526020016000206001015461220f91906196e9565b11155b801561225a575060fe600060058152602001908152602001600020600201548282905060fe6000600581526020019081526020016000206003015461225791906196e9565b11155b612299576040517f08c379a000000000000000000000000000000000000000000000000000000000815260040161229090619f3f565b60405180910390fd5b6122ad6765688371c108892960c01b61709b565b6122c167ca7857776c560b1f60c01b61709b565b6122d5675c6a75b99f03111960c01b61709b565b60008282905067ffffffffffffffff8111156122f4576122f36187d2565b5b6040519080825280602002602001820160405280156123225781602001602082028036833780820191505090505b509050612339676faf084b36b98a3060c01b61709b565b61234d6799a8b1e878cf811060c01b61709b565b60008383905067ffffffffffffffff81111561236c5761236b6187d2565b5b60405190808252806020026020018201604052801561239a5781602001602082028036833780820191505090505b5090506123b167cc4e5acf460613f360c01b61709b565b6123c56717bfb4b4423c0edc60c01b61709b565b60005b848490508110156129f2576123e767a009b4d9cf689e3260c01b61709b565b6123fb676ef1c3b58c008ce960c01b61709b565b61240f67c285e83c2b093b5560c01b61709b565b3373ffffffffffffffffffffffffffffffffffffffff1661010060009054906101000a900473ffffffffffffffffffffffffffffffffffffffff1673ffffffffffffffffffffffffffffffffffffffff16636352211e878785818110612478576124776194cb565b5b905060200201356040518263ffffffff1660e01b815260040161249b9190618b3d565b602060405180830381865afa1580156124b8573d6000803e3d6000fd5b505050506040513d601f19601f820116820180604052508101906124dc9190619f74565b73ffffffffffffffffffffffffffffffffffffffff1614612532576040517f08c379a000000000000000000000000000000000000000000000000000000000815260040161252990619fed565b60405180910390fd5b6125466783d681c1f8a6452a60c01b61709b565b61255a671cd1dfaa54f61d2760c01b61709b565b61256e673869047c35c85e6e60c01b61709b565b61010060009054906101000a900473ffffffffffffffffffffffffffffffffffffffff1673ffffffffffffffffffffffffffffffffffffffff166323b872dd33308888868181106125c2576125c16194cb565b5b905060200201356040518463ffffffff1660e01b81526004016125e793929190619bb5565b600060405180830381600087803b15801561260157600080fd5b505af1158015612615573d6000803e3d6000fd5b5050505061262d67bcf57c3dc7b8695960c01b61709b565b612641679f04e1ddd0387adc60c01b61709b565b61010060009054906101000a900473ffffffffffffffffffffffffffffffffffffffff1673ffffffffffffffffffffffffffffffffffffffff1663095ea7b361dead878785818110612696576126956194cb565b5b905060200201356040518363ffffffff1660e01b81526004016126ba929190619bec565b600060405180830381600087803b1580156126d457600080fd5b505af11580156126e8573d6000803e3d6000fd5b5050505061270067f69a248ad6f18a7d60c01b61709b565b61271467eab13c6061e00adc60c01b61709b565b61010060009054906101000a900473ffffffffffffffffffffffffffffffffffffffff1673ffffffffffffffffffffffffffffffffffffffff166323b872dd3061dead88888681811061276a576127696194cb565b5b905060200201356040518463ffffffff1660e01b815260040161278f93929190619bb5565b600060405180830381600087803b1580156127a957600080fd5b505af11580156127bd573d6000803e3d6000fd5b505050506127d5674667154dbe3b8eca60c01b61709b565b6127e967af3c08fe1ac3a9f260c01b61709b565b600061010160009054906101000a900473ffffffffffffffffffffffffffffffffffffffff1673ffffffffffffffffffffffffffffffffffffffff166358f5f8be336040518263ffffffff1660e01b81526004016128479190618aa7565b6020604051808303816000875af1158015612866573d6000803e3d6000fd5b505050506040513d601f19601f8201168201806040525081019061288a919061a022565b90506128a06799b79154f5b1dd3060c01b61709b565b600160fb60008282546128b391906196e9565b925050819055506128ce67f7be70c31818ca9560c01b61709b565b60fb548483815181106128e4576128e36194cb565b5b60200260200101818152505061290467ad9bcbfc0c66ad2160c01b61709b565b80838381518110612918576129176194cb565b5b60200260200101818152505061293867758c3816832d6b9a60c01b61709b565b61294c672cc854fcd889616260c01b61709b565b6129583360fb546174da565b61296c672450cf20a473ee4660c01b61709b565b600160fe600060058152602001908152602001600020600301600082825461299491906196e9565b925050819055506129af67e0a968da5778113560c01b61709b565b600160fe60006005815260200190815260200160002060010160008282546129d791906196e9565b925050819055505080806129ea90619529565b9150506123c8565b50612a07670c85e3e241708cf160c01b61709b565b612a1b67fb3910feeb322aa760c01b61709b565b7fbed2ea4cc61a5f3d97bf656e6a36da515575612249452e8dbf3d972b675e314333600583858888604051612a559695949392919061a0f4565b60405180910390a15050612a676173c4565b5050565b612a7f676bbd491bdcd03c1360c01b61709b565b612a87617186565b612a9b67dce7c4fb9aba036e60c01b61709b565b612aaf6779e9fe738977589b60c01b61709b565b612ac3677c8b903548cfb18f60c01b61709b565b612ad767ee1ae0bf9b4c07c060c01b61709b565b612aeb67ea95319cc496df3560c01b61709b565b60ff60006004815260200190815260200160002060009054906101000a900460ff168015612b46575060fe6000600481526020019081526020016000206000015460fe60006004815260200190815260200160002060010154105b8015612b7f575060fe6000600481526020019081526020016000206002015460fe60006004815260200190815260200160002060030154105b612bbe576040517f08c379a0000000000000000000000000000000000000000000000000000000008152600401612bb590619f3f565b60405180910390fd5b612bd26747fce5f84ed719d460c01b61709b565b612be66799c24fd0fdb73c5b60c01b61709b565b612bfa677b6f25bfefa1d20a60c01b61709b565b612c0e6745f8c2aefd85283060c01b61709b565b61010460003373ffffffffffffffffffffffffffffffffffffffff1673ffffffffffffffffffffffffffffffffffffffff16815260200190815260200160002060009054906101000a900460ff16612c9b576040517f08c379a0000000000000000000000000000000000000000000000000000000008152600401612c929061a1aa565b60405180910390fd5b612caf67f69d805b105fc8ea60c01b61709b565b612cc36756c8430e79919cd260c01b61709b565b612cd7670d89a8abaff64c4460c01b61709b565b600061010160009054906101000a900473ffffffffffffffffffffffffffffffffffffffff1673ffffffffffffffffffffffffffffffffffffffff166358f5f8be336040518263ffffffff1660e01b8152600401612d359190618aa7565b6020604051808303816000875af1158015612d54573d6000803e3d6000fd5b505050506040513d601f19601f82011682018060405250810190612d78919061a022565b9050612d8e67431140c7a51d30de60c01b61709b565b600160fe6000600481526020019081526020016000206003016000828254612db691906196e9565b92505081905550612dd167334ecfab217b7a6760c01b61709b565b600160fb6000828254612de491906196e9565b92505081905550612dff67b56c56e7e205b6f060c01b61709b565b612e1367c7536ac70fc4351960c01b61709b565b612e1f3360fb546174da565b612e33677bd9d4df689b14fe60c01b61709b565b600160fe6000600481526020019081526020016000206001016000828254612e5b91906196e9565b92505081905550612e76673f36c1c59f6c2b1360c01b61709b565b600061010460003373ffffffffffffffffffffffffffffffffffffffff1673ffffffffffffffffffffffffffffffffffffffff16815260200190815260200160002060006101000a81548160ff021916908315150217905550612ee367e14b33fb157a5ffd60c01b61709b565b612ef76775e61f6bcd476ae660c01b61709b565b7f04523983e24616f78ff12ff843803430d32341b84760bd1fff8bc9b9def153893360048360fb54604051612f2f949392919061a205565b60405180910390a150612f406173c4565b565b612f5667c3af10f14808035a60c01b61709b565b612f5e61709e565b612f726724f79b595f53f48e60c01b61709b565b612f8667842da76b91d277a460c01b61709b565b612f9a670ccc4674ccb773f460c01b61709b565b612fae67471b5668bc279b9a60c01b61709b565b60005b8383905081101561306257612fd067eb70d690540660f760c01b61709b565b816101036000868685818110612fe957612fe86194cb565b5b9050602002016020810190612ffe9190618c5b565b73ffffffffffffffffffffffffffffffffffffffff1673ffffffffffffffffffffffffffffffffffffffff16815260200190815260200160002060006101000a81548160ff021916908315150217905550808061305a90619529565b915050612fb1565b50613077671e14f5b8bd91247c60c01b61709b565b61308b671fcd5347ab0c67b260c01b61709b565b7f4c8368746583e40765156b70aa8a680beb42868327860b5d1fd1bd4a5a0d2a698383836040516130be9392919061a30d565b60405180910390a1505050565b6101026020528060005260406000206000915054906101000a900460ff1681565b610109602052816000526040600020602052806000526040600020600091509150508060000154908060010154908060020154908060030154908060040154908060050154908060060154908060070154908060080154905089565b613159613153617419565b826176f7565b613198576040517f08c379a000000000000000000000000000000000000000000000000000000000815260040161318f9061a3b1565b60405180910390fd5b6131a383838361778c565b505050565b60006131be67d7138d62b67c64f060c01b61709b565b6131d2674a2c363bab323edd60c01b61709b565b6103e88261010160009054906101000a900473ffffffffffffffffffffffffffffffffffffffff1673ffffffffffffffffffffffffffffffffffffffff16636fb1eb0c6040518163ffffffff1660e01b8152600401602060405180830381865afa158015613244573d6000803e3d6000fd5b505050506040513d601f19601f82011682018060405250810190613268919061a022565b61327291906197af565b61327c919061a400565b9050919050565b6132976753579739a2f0596160c01b61709b565b61329f617186565b6132b367f319c89d0e43475160c01b61709b565b6132c7672a152d044c62bc3860c01b61709b565b6132db67d0921eb3a37364b760c01b61709b565b6132ef6715e32313e127236f60c01b61709b565b6133036727fc956b0935997a60c01b61709b565b60ff600082815260200190815260200160002060009054906101000a900460ff16801561335b575060fe60008281526020019081526020016000206002015460fe600083815260200190815260200160002060030154105b80156133aa575060018114801561338257506133816738ea5f94a5bc888760c01b61739b565b5b806133a957506002811480156133a857506133a76786d425d9d3977c7360c01b61739b565b5b5b5b6133e9576040517f08c379a00000000000000000000000000000000000000000000000000000000081526004016133e090619f3f565b60405180910390fd5b6133fd6741a40928e87ba49f60c01b61709b565b61341167f35c47875e4b232860c01b61709b565b61342567e136288d54374f1860c01b61709b565b600181036135905761344167a0121d4c62946a4e60c01b61709b565b61345567b369825208cc3fee60c01b61709b565b61346967fa70225e9911ad8460c01b61709b565b61347d676f194f2cfec0626d60c01b61709b565b61010660003373ffffffffffffffffffffffffffffffffffffffff1673ffffffffffffffffffffffffffffffffffffffff16815260200190815260200160002060009054906101000a900460ff1661350a576040517f08c379a00000000000000000000000000000000000000000000000000000000081526004016135019061a4a3565b60405180910390fd5b61351e67b23cc67c9c29c50b60c01b61709b565b61353267c4d6e93383bdca8760c01b61709b565b600061010660003373ffffffffffffffffffffffffffffffffffffffff1673ffffffffffffffffffffffffffffffffffffffff16815260200190815260200160002060006101000a81548160ff0219169083151502179055506135a5565b6135a46766bce03c8f2846e460c01b61709b565b5b6135b967594420e1ea76688760c01b61709b565b6135cd6795c0d55b7844374a60c01b61709b565b60028103613738576135e96769ec0dbeb004cb3f60c01b61709b565b6135fd67031a6285279fae4c60c01b61709b565b61361167ac5c07180d3f310360c01b61709b565b6136256725bd89496b328b4d60c01b61709b565b61010860003373ffffffffffffffffffffffffffffffffffffffff1673ffffffffffffffffffffffffffffffffffffffff16815260200190815260200160002060009054906101000a900460ff166136b2576040517f08c379a00000000000000000000000000000000000000000000000000000000081526004016136a99061a4a3565b60405180910390fd5b6136c667db1a3f1e13bea2e360c01b61709b565b6136da67bd2b2acf05144dd860c01b61709b565b600061010860003373ffffffffffffffffffffffffffffffffffffffff1673ffffffffffffffffffffffffffffffffffffffff16815260200190815260200160002060006101000a81548160ff02191690831515021790555061374d565b61374c67574bcc050ec4697460c01b61709b565b5b613761679f156d8070f95e4060c01b61709b565b600160fe6000838152602001908152602001600020600301600082825461378891906196e9565b925050819055506137a3674cd705ef16c93c9b60c01b61709b565b6137b7678c69b1ebe3c99ec760c01b61709b565b600061010160009054906101000a900473ffffffffffffffffffffffffffffffffffffffff1673ffffffffffffffffffffffffffffffffffffffff166358f5f8be336040518263ffffffff1660e01b81526004016138159190618aa7565b6020604051808303816000875af1158015613834573d6000803e3d6000fd5b505050506040513d601f19601f82011682018060405250810190613858919061a022565b905061386e67ab0c8f9e7c3ebd0660c01b61709b565b6138826753c1a40bbbfbb1b560c01b61709b565b7f2e9e0784b8b9603d5dfcd027dd92455b08d1f69b95710bd5d145c962ad1117da3382846040516138b59392919061a4c3565b60405180910390a1506138c66173c4565b50565b61010f60009054906101000a900473ffffffffffffffffffffffffffffffffffffffff1681565b61010060009054906101000a900473ffffffffffffffffffffffffffffffffffffffff1681565b60ff6020528060005260406000206000915054906101000a900460ff1681565b61395283838360405180602001604052806000815250615f38565b505050565b61396b67f4f2a0c5547ada4e60c01b61709b565b61397361709e565b6139876757a9ccfed0026e7b60c01b61709b565b61399b67c3526eba7781d55660c01b61709b565b6139af67937935338e4e659160c01b61709b565b6139c367c216641bbdb44dbb60c01b61709b565b60005b83839050811015613a77576139e567c0810c805e4a186260c01b61709b565b8161010260008686858181106139fe576139fd6194cb565b5b9050602002016020810190613a139190618c5b565b73ffffffffffffffffffffffffffffffffffffffff1673ffffffffffffffffffffffffffffffffffffffff16815260200190815260200160002060006101000a81548160ff0219169083151502179055508080613a6f90619529565b9150506139c6565b50613a8c67e7cb4e8938fed83460c01b61709b565b613aa067ee1d107a100b861b60c01b61709b565b7f074182baf39a64f81a9dfd5c4224b63af9fe2d0c8396bbcf57743387418379e1838383604051613ad39392919061a30d565b60405180910390a1505050565b613af46720fb9954feab420b60c01b61709b565b613afc61709e565b613b10675caec94ba81557a060c01b61709b565b613b2467987c96fc8ddd457f60c01b61709b565b613b38670cccdd443651dd1c60c01b61709b565b613b4c678ea493c35978fbe160c01b61709b565b60005b88889050811015613d3957613b6e67c196048d1b1ddd3360c01b61709b565b888882818110613b8157613b806194cb565b5b9050602002013561010960008c815260200190815260200160002060008b8b85818110613bb157613bb06194cb565b5b90506020020135815260200190815260200160002060000181905550613be167ff4cab4399e12b9460c01b61709b565b868682818110613bf457613bf36194cb565b5b9050602002013561010960008c815260200190815260200160002060008b8b85818110613c2457613c236194cb565b5b90506020020135815260200190815260200160002060050181905550613c5467039d4d0b5d19d29f60c01b61709b565b848482818110613c6757613c666194cb565b5b9050602002013561010960008c815260200190815260200160002060008b8b85818110613c9757613c966194cb565b5b90506020020135815260200190815260200160002060080181905550613cc76726f5774544ece82960c01b61709b565b828282818110613cda57613cd96194cb565b5b9050602002013561010960008c815260200190815260200160002060008b8b85818110613d0a57613d096194cb565b5b905060200201358152602001908152602001600020600701819055508080613d3190619529565b915050613b4f565b50505050505050505050565b600080613d5183617a85565b9050600073ffffffffffffffffffffffffffffffffffffffff168173ffffffffffffffffffffffffffffffffffffffff1603613dc2576040517f08c379a0000000000000000000000000000000000000000000000000000000008152600401613db99061a546565b60405180910390fd5b80915050919050565b613ddf6721a3a45d43362fb360c01b61709b565b613df367fec8722caf720b3860c01b61709b565b613e07674de2c4d7c3065cc060c01b61709b565b613e1b674abccdb857d7474660c01b61709b565b60ff600082815260200190815260200160002060009054906101000a900460ff168015613e73575060fe60008281526020019081526020016000206000015460fe600083815260200190815260200160002060010154105b8015613ec25750600181148015613e9a5750613e996790ace6f2d7d2052960c01b61739b565b5b80613ec15750600281148015613ec05750613ebf6729032fe095650bc460c01b61739b565b5b5b5b613f01576040517f08c379a0000000000000000000000000000000000000000000000000000000008152600401613ef890619f3f565b60405180910390fd5b613f1567e0d373f51a57727160c01b61709b565b613f296742d7e749acf32b1360c01b61709b565b613f3d67cf80d00f39eddb2960c01b61709b565b600181036140a857613f59674b59d5571f5c998660c01b61709b565b613f6d672d8879201d4059a060c01b61709b565b613f8167165242f9ac48d45460c01b61709b565b613f956703aba487da1a117e60c01b61709b565b61010560003373ffffffffffffffffffffffffffffffffffffffff1673ffffffffffffffffffffffffffffffffffffffff16815260200190815260200160002060009054906101000a900460ff16614022576040517f08c379a00000000000000000000000000000000000000000000000000000000081526004016140199061a4a3565b60405180910390fd5b6140366783aa3e504460674860c01b61709b565b61404a67be5c48d9484673b160c01b61709b565b600061010560003373ffffffffffffffffffffffffffffffffffffffff1673ffffffffffffffffffffffffffffffffffffffff16815260200190815260200160002060006101000a81548160ff0219169083151502179055506140bd565b6140bc671370bf93960d503860c01b61709b565b5b6140d167eba968e227589bc960c01b61709b565b6140e567d132d67a3604f36060c01b61709b565b600281036142505761410167ac4ebf36688f683c60c01b61709b565b6141156730eac8ae9a6f789360c01b61709b565b614129677428aa5f8dc4edf860c01b61709b565b61413d678724f219b8e7309860c01b61709b565b61010760003373ffffffffffffffffffffffffffffffffffffffff1673ffffffffffffffffffffffffffffffffffffffff16815260200190815260200160002060009054906101000a900460ff166141ca576040517f08c379a00000000000000000000000000000000000000000000000000000000081526004016141c19061a4a3565b60405180910390fd5b6141de675a6d61c5dbd4cec960c01b61709b565b6141f26772b81e12f147f01460c01b61709b565b600061010760003373ffffffffffffffffffffffffffffffffffffffff1673ffffffffffffffffffffffffffffffffffffffff16815260200190815260200160002060006101000a81548160ff021916908315150217905550614265565b614264670abb6212b7d6a45160c01b61709b565b5b614279675707de17073324df60c01b61709b565b600160fe600083815260200190815260200160002060010160008282546142a091906196e9565b925050819055506142bb67f2125c844805a71960c01b61709b565b600160fb60008282546142ce91906196e9565b925050819055506142e9674329c910150687bc60c01b61709b565b6142fd6738e60fc6d241ff4d60c01b61709b565b6143093360fb546174da565b61431d674093df2456b96ad860c01b61709b565b61433167f5f92344eca387ff60c01b61709b565b7f6b31e785e40ea595c823d38323157461d86f76a74c76faa41190de60912863e73360fb54836040516143669392919061a4c3565b60405180910390a150565b6101056020528060005260406000206000915054906101000a900460ff1681565b61010a60205280600052604060002060009150905080546143b290619910565b80601f01602080910402602001604051908101604052809291908181526020018280546143de90619910565b801561442b5780601f106144005761010080835404028352916020019161442b565b820191906000526020600020905b81548152906001019060200180831161440e57829003601f168201915b505050505081565b6101086020528060005260406000206000915054906101000a900460ff1681565b61010160009054906101000a900473ffffffffffffffffffffffffffffffffffffffff1681565b60008073ffffffffffffffffffffffffffffffffffffffff168273ffffffffffffffffffffffffffffffffffffffff16036144eb576040517f08c379a00000000000000000000000000000000000000000000000000000000081526004016144e29061a5d8565b60405180910390fd5b606860008373ffffffffffffffffffffffffffffffffffffffff1673ffffffffffffffffffffffffffffffffffffffff168152602001908152602001600020549050919050565b61453a61709e565b6145446000617ac2565b565b61010e60009054906101000a900473ffffffffffffffffffffffffffffffffffffffff1681565b614581674b45f5fb7511479260c01b61709b565b61458961709e565b61459d6799430cd98222031b60c01b61709b565b6145b1674ceed4215043a9d060c01b61709b565b6145c56792741058e6f7d64c60c01b61709b565b6145d96775f938c45536db8f60c01b61709b565b60005b868690508110156146bc576145fb6758d43b26f2a3bf3a60c01b61709b565b84848281811061460e5761460d6194cb565b5b9050602002013560fe600089898581811061462c5761462b6194cb565b5b9050602002013581526020019081526020016000206002018190555061465c67e2d98801cd34ce4460c01b61709b565b82828281811061466f5761466e6194cb565b5b9050602002013560fe600089898581811061468d5761468c6194cb565b5b9050602002013581526020019081526020016000206000018190555080806146b490619529565b9150506145dc565b50505050505050565b6146d967e600399a9bdbea3c60c01b61709b565b60008060019054906101000a900460ff1615905080801561470a5750600160008054906101000a900460ff1660ff16105b80614737575061471930617b88565b1580156147365750600160008054906101000a900460ff1660ff16145b5b614776576040517f08c379a000000000000000000000000000000000000000000000000000000000815260040161476d9061a66a565b60405180910390fd5b60016000806101000a81548160ff021916908360ff16021790555080156147b3576001600060016101000a81548160ff0219169083151502179055505b6147c7671565997094a386a360c01b61709b565b6147db67a1e6ba1e53c3c41660c01b61709b565b6147ef6703eb8fbed5992a8460c01b61709b565b614803672a5f977a86c23be260c01b61709b565b6148776040518060400160405280600f81526020017f416c6c6f792053706163652041524600000000000000000000000000000000008152506040518060400160405280600381526020017f4152460000000000000000000000000000000000000000000000000000000000815250617bab565b61488b67a64c54302d46870860c01b61709b565b61489f67d97f6c4747d2917460c01b61709b565b6148a7617c08565b6148bb67b450c400d33fcd6760c01b61709b565b6148cf671e429899a428b1b260c01b61709b565b6148d7617c61565b6148eb6762cd6ef33fc99f0a60c01b61709b565b60405180606001604052806028815260200161b22b6028913960fc90816149129190619ae3565b5061492767195728ca5cbdfa6060c01b61709b565b6040518060400160405280600f81526020017f2d746f6b656e2d7572692e6a736f6e000000000000000000000000000000000081525060fd908161496b9190619ae3565b506149806721b5bea2bbc1cc3e60c01b61709b565b600060fb8190555061499c67a99426c2b50b632a60c01b61709b565b6149b067a7bb6d2c9272507d60c01b61709b565b600060405180610100016040528061022161ffff168152602001606561ffff16815260200160fa61ffff16815260200160fa61ffff1681526020016107d561ffff1681526020016103ea61ffff1681526020016103e961ffff16815260200161019161ffff168152509050614a2f678258eb626bd1128060c01b61709b565b614a436787d8cd61aa96542e60c01b61709b565b60006040518061010001604052806105e161ffff1681526020016101f961ffff168152602001600061ffff16815260200160fa61ffff1681526020016107d561ffff1681526020016107d461ffff1681526020016107d361ffff1681526020016107d361ffff168152509050614ac367a5387b88a3063d4560c01b61709b565b614ad7671989982790497ed260c01b61709b565b60005b6008811015614bdb57614af767bb19f64f5c5eaec860c01b61709b565b614b0b67c40b7b65ffcd385d60c01b61709b565b60006040518060800160405280858460088110614b2b57614b2a6194cb565b5b602002015161ffff16815260200160008152602001848460088110614b5357614b526194cb565b5b602002015161ffff16815260200160008152509050614b7c676bbb99909fd58fcb60c01b61709b565b8060fe6000600185614b8e91906196e9565b815260200190815260200160002060008201518160000155602082015181600101556040820151816002015560608201518160030155905050508080614bd390619529565b915050614ada565b50614bf0675ec5596a31a0f7a960c01b61709b565b736bc174805568608e7092d554ba5fefd5461b519461010160006101000a81548173ffffffffffffffffffffffffffffffffffffffff021916908373ffffffffffffffffffffffffffffffffffffffff160217905550614c5a67927dd6714a03eeed60c01b61709b565b7307b057133d28d44fc1c917d8f77a5a8099f01a9761010d60006101000a81548173ffffffffffffffffffffffffffffffffffffffff021916908373ffffffffffffffffffffffffffffffffffffffff160217905550614cc46780e5851e1ce8787f60c01b61709b565b734f68437579a7077010290e6b713076495fee37e661010e60006101000a81548173ffffffffffffffffffffffffffffffffffffffff021916908373ffffffffffffffffffffffffffffffffffffffff16021790555050508015614d755760008060016101000a81548160ff0219169083151502179055507f7f26b83ff96e1f2b6a682f133852f6798a09c465da95921460cefb38474024986001604051614d6c919061a6d2565b60405180910390a15b50565b6000609760009054906101000a900473ffffffffffffffffffffffffffffffffffffffff16905090565b6101066020528060005260406000206000915054906101000a900460ff1681565b614dd76722aecb9646358f9260c01b61709b565b614ddf617186565b614df367fad96add1d0ad6a260c01b61709b565b614e0767749f9cd75172d40e60c01b61709b565b614e1b672299110407f919fd60c01b61709b565b614e2f67c0e9b88873865a4960c01b61709b565b614e4367030bc61dc0e759d460c01b61709b565b60ff60006003815260200190815260200160002060009054906101000a900460ff168015614e9e575060fe6000600381526020019081526020016000206002015460fe60006003815260200190815260200160002060030154105b614edd576040517f08c379a0000000000000000000000000000000000000000000000000000000008152600401614ed490619f3f565b60405180910390fd5b614ef167d317c76f7950d7ce60c01b61709b565b614f0567614c2a3204d45c9c60c01b61709b565b614f1967776d84da2424a9a860c01b61709b565b614f2d678add65eef7a8499960c01b61709b565b61010360003373ffffffffffffffffffffffffffffffffffffffff1673ffffffffffffffffffffffffffffffffffffffff16815260200190815260200160002060009054906101000a900460ff16614fba576040517f08c379a0000000000000000000000000000000000000000000000000000000008152600401614fb19061a4a3565b60405180910390fd5b614fce6754c78fcf9e3fed7260c01b61709b565b614fe267b2d032122478063260c01b61709b565b600061010360003373ffffffffffffffffffffffffffffffffffffffff1673ffffffffffffffffffffffffffffffffffffffff16815260200190815260200160002060006101000a81548160ff02191690831515021790555061504f67a9365a6fef11d70960c01b61709b565b600160fe600060038152602001908152602001600020600301600082825461507791906196e9565b925050819055506150926734bcc69f2fd2f26960c01b61709b565b6150a667cb628c567b9d3dff60c01b61709b565b600061010160009054906101000a900473ffffffffffffffffffffffffffffffffffffffff1673ffffffffffffffffffffffffffffffffffffffff166358f5f8be336040518263ffffffff1660e01b81526004016151049190618aa7565b6020604051808303816000875af1158015615123573d6000803e3d6000fd5b505050506040513d601f19601f82011682018060405250810190615147919061a022565b905061515d6720387630bb91dd4460c01b61709b565b6151716711d1b50d829ee7a760c01b61709b565b7f44eb92b6f9778e6790811c1ff3f8535ffb7145fb366595580e36fbd5b35f05c8338260036040516151a59392919061a728565b60405180910390a1506151b66173c4565b565b6151cc67f448171ef5015c6460c01b61709b565b6151d4617186565b6151e86761ce49414b415ba460c01b61709b565b6151fc67833e81a5492ad19b60c01b61709b565b615210675f537fb3a1f227c560c01b61709b565b615224672bab42014b62a85c60c01b61709b565b60006152338360000151613d45565b90506152496707ae2dfdd7be165860c01b61709b565b61525d67915eb346f9a1785b60c01b61709b565b61527167884e3d967efda75e60c01b61709b565b615280818460400151846171d5565b80156152b6575061010b8260405161529891906195b8565b908152602001604051809103902060009054906101000a900460ff16155b801561535c575061010d60009054906101000a900473ffffffffffffffffffffffffffffffffffffffff1673ffffffffffffffffffffffffffffffffffffffff1663c9941806836040518263ffffffff1660e01b81526004016153199190619619565b602060405180830381865afa158015615336573d6000803e3d6000fd5b505050506040513d601f19601f8201168201806040525081019061535a9190619650565b155b8015615402575061010160009054906101000a900473ffffffffffffffffffffffffffffffffffffffff1673ffffffffffffffffffffffffffffffffffffffff1663c9941806836040518263ffffffff1660e01b81526004016153bf9190619619565b602060405180830381865afa1580156153dc573d6000803e3d6000fd5b505050506040513d601f19601f820116820180604052508101906154009190619650565b155b615441576040517f08c379a00000000000000000000000000000000000000000000000000000000081526004016154389061a7ab565b60405180910390fd5b61545567103ba2e73a95a1eb60c01b61709b565b615469675a8cc7f58e5fb45c60c01b61709b565b61547d6703574e00f5a6aa1360c01b61709b565b615491671c49cc7d541224d360c01b61709b565b348360200151146154d7576040517f08c379a00000000000000000000000000000000000000000000000000000000081526004016154ce9061a83d565b60405180910390fd5b6154eb67d3217ffcc59c880060c01b61709b565b6154ff6728835a11b12bf64e60c01b61709b565b61551367de72168dd11139ae60c01b61709b565b6155328133856000015160405180602001604052806000815250617cba565b61554667d49a2994f80d4fcf60c01b61709b565b600161010b8360405161555991906195b8565b908152602001604051809103902060006101000a81548160ff021916908315150217905550615592673e8929127bf16f8f60c01b61709b565b6155a667a08823bcc4ba2a1160c01b61709b565b60006155b1346131a8565b90506155c767a6f2afcc62434e1660c01b61709b565b6155db674a05c40250cf73b560c01b61709b565b61010e60009054906101000a900473ffffffffffffffffffffffffffffffffffffffff1673ffffffffffffffffffffffffffffffffffffffff166108fc829081150290604051600060405180830381858888f19350505050158015615644573d6000803e3d6000fd5b50615659671bd373c73092e65660c01b61709b565b61566d67f51f4d3913b3944b60c01b61709b565b8173ffffffffffffffffffffffffffffffffffffffff166108fc8234615693919061a85d565b9081150290604051600060405180830381858888f193505050501580156156be573d6000803e3d6000fd5b506156d3679bee17d0dc1550e960c01b61709b565b6156e7678f91d6cfd2c67b6560c01b61709b565b7f80cf10dac1b681dc583a2a6ab3d1e5279e026d3fb3c9001157fc290c9a1bed69823334876000015161010a60008a60000151815260200190815260200160002060405161573995949392919061a915565b60405180910390a1505061574b6173c4565b5050565b6157636732ecf31797a1b89f60c01b61709b565b61576b61709e565b61577f67baaf56ba2db2c78f60c01b61709b565b61579367b2b287cfb1f4f87560c01b61709b565b6157a76763f3beb5ad48ad3c60c01b61709b565b6157bb67b4abc52be359e6b260c01b61709b565b60005b8383905081101561586f576157dd67c33fd82d20cd910660c01b61709b565b8161010460008686858181106157f6576157f56194cb565b5b905060200201602081019061580b9190618c5b565b73ffffffffffffffffffffffffffffffffffffffff1673ffffffffffffffffffffffffffffffffffffffff16815260200190815260200160002060006101000a81548160ff021916908315150217905550808061586790619529565b9150506157be565b50615884678253eb50b5d7be9d60c01b61709b565b6158986745ed80398bcdc80f60c01b61709b565b7f55d7a640169ee4a6157c88413d657e05aeb41f8fa2d6ef0b1cc82997f39c5b538383836040516158cb9392919061a30d565b60405180910390a1505050565b6060606680546158e790619910565b80601f016020809104026020016040519081016040528092919081815260200182805461591390619910565b80156159605780601f1061593557610100808354040283529160200191615960565b820191906000526020600020905b81548152906001019060200180831161594357829003601f168201915b5050505050905090565b61597e675d3a78a9dc37e10c60c01b61709b565b61598661709e565b61599a6722e50b8904da009260c01b61709b565b6159ae673ee9223fa690a65d60c01b61709b565b6159c267ec98d54915660c3e60c01b61709b565b8160fc90816159d19190619ae3565b506159e6677e74b14259118a5e60c01b61709b565b8060fd90816159f59190619ae3565b505050565b615a0e675b8929b8699d17de60c01b61709b565b615a1661709e565b615a2a67ff269ace29a13c7c60c01b61709b565b615a3e677afe9a640de5bb2a60c01b61709b565b615a526747e65594a88ad2f360c01b61709b565b615a6667fe0fcdefa416ac8b60c01b61709b565b60005b83839050811015615b1a57615a8867c24eef1aa45f45ff60c01b61709b565b816101066000868685818110615aa157615aa06194cb565b5b9050602002016020810190615ab69190618c5b565b73ffffffffffffffffffffffffffffffffffffffff1673ffffffffffffffffffffffffffffffffffffffff16815260200190815260200160002060006101000a81548160ff0219169083151502179055508080615b1290619529565b915050615a69565b50615b2f677b0219109554017e60c01b61709b565b615b4367cf911b2ac977f3fe60c01b61709b565b7f26f546175866cdae536ed9010787f6f5bc9992c35f6cc805f0d7992a322f74fc838383604051615b769392919061a30d565b60405180910390a1505050565b615b95615b8e617419565b8383617d16565b5050565b615bad67f6bb5798edba805560c01b61709b565b615bb561709e565b615bc967fe55daf14af9c08b60c01b61709b565b615bdd6769fe1ad19b2c292360c01b61709b565b615bf1674f442544443c1d8d60c01b61709b565b615c05675542f7c5783e45a060c01b61709b565b60005b83839050811015615cb957615c276754b8d9b6390cf0af60c01b61709b565b816101056000868685818110615c4057615c3f6194cb565b5b9050602002016020810190615c559190618c5b565b73ffffffffffffffffffffffffffffffffffffffff1673ffffffffffffffffffffffffffffffffffffffff16815260200190815260200160002060006101000a81548160ff0219169083151502179055508080615cb190619529565b915050615c08565b50615cce67ae2a5184029ed59e60c01b61709b565b615ce267ac2d5f8b8d672a8660c01b61709b565b7f103875dca1d7ded84af45916324c49fb7322c1ba16e25088174b6975caa0dfd5838383604051615d159392919061a30d565b60405180910390a1505050565b615d3667eb3db3245e3e949660c01b61709b565b615d3e61709e565b615d5267d6d99bc2f05c3e2960c01b61709b565b615d6667743275a4554e18b960c01b61709b565b615d7a6774d48a5fcc5ad31260c01b61709b565b8561010060006101000a81548173ffffffffffffffffffffffffffffffffffffffff021916908373ffffffffffffffffffffffffffffffffffffffff160217905550615dd067bc9bbb8b35461ea960c01b61709b565b8461010160006101000a81548173ffffffffffffffffffffffffffffffffffffffff021916908373ffffffffffffffffffffffffffffffffffffffff160217905550615e26674b9df0edb6713a3960c01b61709b565b8361010e60006101000a81548173ffffffffffffffffffffffffffffffffffffffff021916908373ffffffffffffffffffffffffffffffffffffffff160217905550615e7c67896ca5108ffdedf360c01b61709b565b8261010d60006101000a81548173ffffffffffffffffffffffffffffffffffffffff021916908373ffffffffffffffffffffffffffffffffffffffff160217905550615ed267a66eeb53f2bd1a0060c01b61709b565b8061010c81905550615eee67e893fdb4821e1b6760c01b61709b565b8161010f60006101000a81548173ffffffffffffffffffffffffffffffffffffffff021916908373ffffffffffffffffffffffffffffffffffffffff160217905550505050505050565b615f49615f43617419565b836176f7565b615f88576040517f08c379a0000000000000000000000000000000000000000000000000000000008152600401615f7f9061a3b1565b60405180910390fd5b615f9484848484617cba565b50505050565b615fae67c347276e0cf419fa60c01b61709b565b615fb6617186565b615fca676e9226183854e95960c01b61709b565b615fde67ae1eef63077b379c60c01b61709b565b615ff267c74e15f5c850bba860c01b61709b565b6160066783e765be7df316dc60c01b61709b565b61601a6732172350c2396a9560c01b61709b565b61602d82602001518360600151836171d5565b8015616063575061010b8160405161604591906195b8565b908152602001604051809103902060009054906101000a900460ff16155b8015616109575061010d60009054906101000a900473ffffffffffffffffffffffffffffffffffffffff1673ffffffffffffffffffffffffffffffffffffffff1663c9941806826040518263ffffffff1660e01b81526004016160c69190619619565b602060405180830381865afa1580156160e3573d6000803e3d6000fd5b505050506040513d601f19601f820116820180604052508101906161079190619650565b155b80156161af575061010160009054906101000a900473ffffffffffffffffffffffffffffffffffffffff1673ffffffffffffffffffffffffffffffffffffffff1663c9941806826040518263ffffffff1660e01b815260040161616c9190619619565b602060405180830381865afa158015616189573d6000803e3d6000fd5b505050506040513d601f19601f820116820180604052508101906161ad9190619650565b155b6161ee576040517f08c379a00000000000000000000000000000000000000000000000000000000081526004016161e59061a7ab565b60405180910390fd5b616202676ca76c63c8317ab660c01b61709b565b61621667455d3b049cc0a1f260c01b61709b565b61622a67c16b9e92796ec7e560c01b61709b565b61623e671a6c0712cb8edc3b60c01b61709b565b34826040015114616284576040517f08c379a000000000000000000000000000000000000000000000000000000000815260040161627b9061a83d565b60405180910390fd5b61629867347b9092a8498e6660c01b61709b565b6162ac673d56b22ebd3b9db160c01b61709b565b600161010b826040516162bf91906195b8565b908152602001604051809103902060006101000a81548160ff0219169083151502179055506162f867226677248ba26f7a60c01b61709b565b61630c677f5591a13242917060c01b61709b565b6000616317346131a8565b905061632d67a0ff83f610bbf2a560c01b61709b565b61634167509b47d83029468260c01b61709b565b61010e60009054906101000a900473ffffffffffffffffffffffffffffffffffffffff1673ffffffffffffffffffffffffffffffffffffffff166108fc829081150290604051600060405180830381858888f193505050501580156163aa573d6000803e3d6000fd5b506163bf67f503a4bcb30a545660c01b61709b565b6163d367f18619c959215d8260c01b61709b565b826020015173ffffffffffffffffffffffffffffffffffffffff166108fc82346163fd919061a85d565b9081150290604051600060405180830381858888f19350505050158015616428573d6000803e3d6000fd5b5061643d6792d8a57e309466f460c01b61709b565b6164516704750fc4ecc4d1d860c01b61709b565b7f91de634c87827dc4e98a7f57ac10d591089a715f405b87eda6e699a038aab12883602001513334866000015160405161648e949392919061a96f565b60405180910390a15061649f6173c4565b5050565b6101046020528060005260406000206000915054906101000a900460ff1681565b60606164da6766542971fd7f312760c01b61709b565b6164ee67c9eed6cd47251ce260c01b61709b565b6165026723a50798d32efc5160c01b61709b565b61651667f6cc78ec310c708160c01b61709b565b61651f82617e82565b61655e576040517f08c379a00000000000000000000000000000000000000000000000000000000081526004016165559061aa26565b60405180910390fd5b6165726708cdc6850302960560c01b61709b565b616586671c0ebbac8ba4633f60c01b61709b565b61659a67d85d21147f0f659c60c01b61709b565b60fc6165a583617ec3565b60fd6040516020016165b99392919061ab05565b6040516020818303038152906040529050919050565b6165e367d8d2e2ab1c84b94360c01b61709b565b6165eb61709e565b6165ff679fcb26bac6203d2f60c01b61709b565b616613677b39e61f70b43e5660c01b61709b565b61662767361cc4994844b0f360c01b61709b565b61663b674a9b01590930294b60c01b61709b565b60005b838390508110156166ef5761665d671574728384ffee4c60c01b61709b565b816101086000868685818110616676576166756194cb565b5b905060200201602081019061668b9190618c5b565b73ffffffffffffffffffffffffffffffffffffffff1673ffffffffffffffffffffffffffffffffffffffff16815260200190815260200160002060006101000a81548160ff02191690831515021790555080806166e790619529565b91505061663e565b5061670467b843c193a4f864a660c01b61709b565b61671867522d49c2f37c7d8960c01b61709b565b7f1f04ad3d20df24c03595d847aee0ff273316ea1ed4ff072eb68155a1d5623cb383838360405161674b9392919061a30d565b60405180910390a1505050565b61010b818051602081018201805184825260208301602085012081835280955050505050506000915054906101000a900460ff1681565b61010d60009054906101000a900473ffffffffffffffffffffffffffffffffffffffff1681565b60fb5481565b6101036020528060005260406000206000915054906101000a900460ff1681565b6167f167119935a182e6ee4a60c01b61709b565b6167f961709e565b61680d67536b2a172db3dc0b60c01b61709b565b616821672377746916d5262660c01b61709b565b616835675780b1314e1b497f60c01b61709b565b6168496744c01a745aac4e4360c01b61709b565b60005b838390508110156168fd5761686b67b9b083a04a5590d160c01b61709b565b816101076000868685818110616884576168836194cb565b5b90506020020160208101906168999190618c5b565b73ffffffffffffffffffffffffffffffffffffffff1673ffffffffffffffffffffffffffffffffffffffff16815260200190815260200160002060006101000a81548160ff02191690831515021790555080806168f590619529565b91505061684c565b50616912676e45cd90804d029d60c01b61709b565b6169266785c1734a5ebe4fdd60c01b61709b565b7ff76067476381edc28fa06f8043230469676e53a6027cb3550ecc3d2e7dfb1bbf8383836040516169599392919061a30d565b60405180910390a1505050565b60fe6020528060005260406000206000915090508060000154908060010154908060020154908060030154905084565b6169aa67f79e998745b9198560c01b61709b565b6169be670b2571b551eb38f560c01b61709b565b6169d267e9f5996f5f197d0560c01b61709b565b6169e6671c537030dfeff4a060c01b61709b565b61010160009054906101000a900473ffffffffffffffffffffffffffffffffffffffff1673ffffffffffffffffffffffffffffffffffffffff163373ffffffffffffffffffffffffffffffffffffffff1614616a77576040517f08c379a0000000000000000000000000000000000000000000000000000000008152600401616a6e9061ab82565b60405180910390fd5b616a8b677e819027220e051460c01b61709b565b616a9f6788609e5216e0642e60c01b61709b565b8060fe60008581526020019081526020016000206003016000828254616ac591906196e9565b92505081905550616ae0673fabfbb8a35cb41060c01b61709b565b80610109600085815260200190815260200160002060008481526020019081526020016000206002016000828254616b1891906196e9565b92505081905550505050565b6000606a60008473ffffffffffffffffffffffffffffffffffffffff1673ffffffffffffffffffffffffffffffffffffffff16815260200190815260200160002060008373ffffffffffffffffffffffffffffffffffffffff1673ffffffffffffffffffffffffffffffffffffffff16815260200190815260200160002060009054906101000a900460ff16905092915050565b6101076020528060005260406000206000915054906101000a900460ff1681565b616bed67cfc352a11e8424ea60c01b61709b565b616c0167fea45e04c2b0219160c01b61709b565b616c1567279092de98f7c73860c01b61709b565b616c2967085da8aa4fdd86d260c01b61709b565b60ff60006003815260200190815260200160002060009054906101000a900460ff168015616c84575060fe6000600381526020019081526020016000206000015460fe60006003815260200190815260200160002060010154105b616cc3576040517f08c379a0000000000000000000000000000000000000000000000000000000008152600401616cba90619f3f565b60405180910390fd5b616cd767766274a198aea2ce60c01b61709b565b616ceb67447421b4c0cab0d360c01b61709b565b616cff67693a5b1cf09b879460c01b61709b565b616d1367803eff4e7fb2cdf760c01b61709b565b61010260003373ffffffffffffffffffffffffffffffffffffffff1673ffffffffffffffffffffffffffffffffffffffff16815260200190815260200160002060009054906101000a900460ff16616da0576040517f08c379a0000000000000000000000000000000000000000000000000000000008152600401616d979061a4a3565b60405180910390fd5b616db4672e8618c21c6d941c60c01b61709b565b616dc867b474fdb5dff28ca960c01b61709b565b600061010260003373ffffffffffffffffffffffffffffffffffffffff1673ffffffffffffffffffffffffffffffffffffffff16815260200190815260200160002060006101000a81548160ff021916908315150217905550616e3466d97393880d2c3b60c01b61709b565b600160fb6000828254616e4791906196e9565b92505081905550616e6267aecf7e5011dd843960c01b61709b565b616e76673f3e9cd2a87686de60c01b61709b565b616e823360fb546174da565b616e966794b39f8abbea860f60c01b61709b565b600160fe6000600381526020019081526020016000206001016000828254616ebe91906196e9565b92505081905550616ed9670bf320b13391ee2360c01b61709b565b616eed67090390606eb86ee560c01b61709b565b7fc4fe32de0c7e52993d2f984dee4a064f2bed825d11dc584cd80d7e5980d463043360fb546003604051616f239392919061a728565b60405180910390a1565b616f41678b0ad48dd586790560c01b61709b565b616f4961709e565b616f5d67294dfe6a691e1e6e60c01b61709b565b616f7167ed8370a811fdabad60c01b61709b565b616f8567f2ea348c7daa3a8860c01b61709b565b616f996763ce0191f436ba3260c01b61709b565b60005b8383905081101561701257616fbb675875a56ff1139a3660c01b61709b565b8160ff6000868685818110616fd357616fd26194cb565b5b90506020020135815260200190815260200160002060006101000a81548160ff021916908315150217905550808061700a90619529565b915050616f9c565b50505050565b61702061709e565b600073ffffffffffffffffffffffffffffffffffffffff168173ffffffffffffffffffffffffffffffffffffffff160361708f576040517f08c379a00000000000000000000000000000000000000000000000000000000081526004016170869061ac14565b60405180910390fd5b61709881617ac2565b50565b50565b6170a6617419565b73ffffffffffffffffffffffffffffffffffffffff166170c4614d78565b73ffffffffffffffffffffffffffffffffffffffff161461711a576040517f08c379a00000000000000000000000000000000000000000000000000000000081526004016171119061ac80565b60405180910390fd5b565b60007f01ffc9a7000000000000000000000000000000000000000000000000000000007bffffffffffffffffffffffffffffffffffffffffffffffffffffffff1916827bffffffffffffffffffffffffffffffffffffffffffffffffffffffff1916149050919050565b600260c954036171cb576040517f08c379a00000000000000000000000000000000000000000000000000000000081526004016171c29061acec565b60405180910390fd5b600260c981905550565b60008060006171e48585617f91565b91509150600060048111156171fc576171fb61ad0c565b5b81600481111561720f5761720e61ad0c565b5b14801561724757508573ffffffffffffffffffffffffffffffffffffffff168273ffffffffffffffffffffffffffffffffffffffff16145b1561725757600192505050617394565b6000808773ffffffffffffffffffffffffffffffffffffffff16631626ba7e60e01b888860405160240161728c92919061ad4a565b604051602081830303815290604052907bffffffffffffffffffffffffffffffffffffffffffffffffffffffff19166020820180517bffffffffffffffffffffffffffffffffffffffffffffffffffffffff83818316178352505050506040516172f691906195b8565b600060405180830381855afa9150503d8060008114617331576040519150601f19603f3d011682016040523d82523d6000602084013e617336565b606091505b5091509150818015617349575060208151145b801561738d5750631626ba7e60e01b7bffffffffffffffffffffffffffffffffffffffffffffffffffffffff19168180602001905181019061738b919061ad8f565b145b9450505050505b9392505050565b600060019050919050565b6173c0828260405180602001604052806000815250617fe2565b5050565b600160c981905550565b6173d781617e82565b617416576040517f08c379a000000000000000000000000000000000000000000000000000000000815260040161740d9061a546565b60405180910390fd5b50565b600033905090565b816069600083815260200190815260200160002060006101000a81548173ffffffffffffffffffffffffffffffffffffffff021916908373ffffffffffffffffffffffffffffffffffffffff160217905550808273ffffffffffffffffffffffffffffffffffffffff1661749483613d45565b73ffffffffffffffffffffffffffffffffffffffff167f8c5be1e5ebec7d5bd14f71427d1e84f3dd0314c0f7b2291e5b200ac8c7c3b92560405160405180910390a45050565b600073ffffffffffffffffffffffffffffffffffffffff168273ffffffffffffffffffffffffffffffffffffffff1603617549576040517f08c379a00000000000000000000000000000000000000000000000000000000081526004016175409061ae08565b60405180910390fd5b61755281617e82565b15617592576040517f08c379a00000000000000000000000000000000000000000000000000000000081526004016175899061ae74565b60405180910390fd5b6175a060008383600161803d565b6175a981617e82565b156175e9576040517f08c379a00000000000000000000000000000000000000000000000000000000081526004016175e09061ae74565b60405180910390fd5b6001606860008473ffffffffffffffffffffffffffffffffffffffff1673ffffffffffffffffffffffffffffffffffffffff16815260200190815260200160002060008282540192505081905550816067600083815260200190815260200160002060006101000a81548173ffffffffffffffffffffffffffffffffffffffff021916908373ffffffffffffffffffffffffffffffffffffffff160217905550808273ffffffffffffffffffffffffffffffffffffffff16600073ffffffffffffffffffffffffffffffffffffffff167fddf252ad1be2c89b69c2b068fc378daa952ba7f163c4a11628f55a4df523b3ef60405160405180910390a46176f3600083836001618043565b5050565b60008061770383613d45565b90508073ffffffffffffffffffffffffffffffffffffffff168473ffffffffffffffffffffffffffffffffffffffff16148061774557506177448185616b24565b5b8061778357508373ffffffffffffffffffffffffffffffffffffffff1661776b84611fc4565b73ffffffffffffffffffffffffffffffffffffffff16145b91505092915050565b8273ffffffffffffffffffffffffffffffffffffffff166177ac82613d45565b73ffffffffffffffffffffffffffffffffffffffff1614617802576040517f08c379a00000000000000000000000000000000000000000000000000000000081526004016177f99061af06565b60405180910390fd5b600073ffffffffffffffffffffffffffffffffffffffff168273ffffffffffffffffffffffffffffffffffffffff1603617871576040517f08c379a00000000000000000000000000000000000000000000000000000000081526004016178689061af98565b60405180910390fd5b61787e838383600161803d565b8273ffffffffffffffffffffffffffffffffffffffff1661789e82613d45565b73ffffffffffffffffffffffffffffffffffffffff16146178f4576040517f08c379a00000000000000000000000000000000000000000000000000000000081526004016178eb9061af06565b60405180910390fd5b6069600082815260200190815260200160002060006101000a81549073ffffffffffffffffffffffffffffffffffffffff02191690556001606860008573ffffffffffffffffffffffffffffffffffffffff1673ffffffffffffffffffffffffffffffffffffffff168152602001908152602001600020600082825403925050819055506001606860008473ffffffffffffffffffffffffffffffffffffffff1673ffffffffffffffffffffffffffffffffffffffff16815260200190815260200160002060008282540192505081905550816067600083815260200190815260200160002060006101000a81548173ffffffffffffffffffffffffffffffffffffffff021916908373ffffffffffffffffffffffffffffffffffffffff160217905550808273ffffffffffffffffffffffffffffffffffffffff168473ffffffffffffffffffffffffffffffffffffffff167fddf252ad1be2c89b69c2b068fc378daa952ba7f163c4a11628f55a4df523b3ef60405160405180910390a4617a808383836001618043565b505050565b60006067600083815260200190815260200160002060009054906101000a900473ffffffffffffffffffffffffffffffffffffffff169050919050565b6000609760009054906101000a900473ffffffffffffffffffffffffffffffffffffffff16905081609760006101000a81548173ffffffffffffffffffffffffffffffffffffffff021916908373ffffffffffffffffffffffffffffffffffffffff1602179055508173ffffffffffffffffffffffffffffffffffffffff168173ffffffffffffffffffffffffffffffffffffffff167f8be0079c531659141344cd1fd0a4f28419497f9722a3daafe3b4186f6b6457e060405160405180910390a35050565b6000808273ffffffffffffffffffffffffffffffffffffffff163b119050919050565b600060019054906101000a900460ff16617bfa576040517f08c379a0000000000000000000000000000000000000000000000000000000008152600401617bf19061b02a565b60405180910390fd5b617c048282618049565b5050565b600060019054906101000a900460ff16617c57576040517f08c379a0000000000000000000000000000000000000000000000000000000008152600401617c4e9061b02a565b60405180910390fd5b617c5f6180bc565b565b600060019054906101000a900460ff16617cb0576040517f08c379a0000000000000000000000000000000000000000000000000000000008152600401617ca79061b02a565b60405180910390fd5b617cb861811d565b565b617cc584848461778c565b617cd184848484618176565b617d10576040517f08c379a0000000000000000000000000000000000000000000000000000000008152600401617d079061b0bc565b60405180910390fd5b50505050565b8173ffffffffffffffffffffffffffffffffffffffff168373ffffffffffffffffffffffffffffffffffffffff1603617d84576040517f08c379a0000000000000000000000000000000000000000000000000000000008152600401617d7b9061b128565b60405180910390fd5b80606a60008573ffffffffffffffffffffffffffffffffffffffff1673ffffffffffffffffffffffffffffffffffffffff16815260200190815260200160002060008473ffffffffffffffffffffffffffffffffffffffff1673ffffffffffffffffffffffffffffffffffffffff16815260200190815260200160002060006101000a81548160ff0219169083151502179055508173ffffffffffffffffffffffffffffffffffffffff168373ffffffffffffffffffffffffffffffffffffffff167f17307eab39ab6107e8899845ad3d59bd9653f200f220920489ca2b5937696c3183604051617e75919061877d565b60405180910390a3505050565b60008073ffffffffffffffffffffffffffffffffffffffff16617ea483617a85565b73ffffffffffffffffffffffffffffffffffffffff1614159050919050565b606060006001617ed2846182fd565b01905060008167ffffffffffffffff811115617ef157617ef06187d2565b5b6040519080825280601f01601f191660200182016040528015617f235781602001600182028036833780820191505090505b509050600082602001820190505b600115617f86578080600190039150507f3031323334353637383961626364656600000000000000000000000000000000600a86061a8153600a8581617f7a57617f7961a3d1565b5b04945060008503617f31575b819350505050919050565b6000806041835103617fd25760008060006020860151925060408601519150606086015160001a9050617fc687828585618450565b94509450505050617fdb565b60006002915091505b9250929050565b617fec83836174da565b617ff96000848484618176565b618038576040517f08c379a000000000000000000000000000000000000000000000000000000000815260040161802f9061b0bc565b60405180910390fd5b505050565b50505050565b50505050565b600060019054906101000a900460ff16618098576040517f08c379a000000000000000000000000000000000000000000000000000000000815260040161808f9061b02a565b60405180910390fd5b81606590816180a79190619ae3565b5080606690816180b79190619ae3565b505050565b600060019054906101000a900460ff1661810b576040517f08c379a00000000000000000000000000000000000000000000000000000000081526004016181029061b02a565b60405180910390fd5b61811b618116617419565b617ac2565b565b600060019054906101000a900460ff1661816c576040517f08c379a00000000000000000000000000000000000000000000000000000000081526004016181639061b02a565b60405180910390fd5b600160c981905550565b60006181978473ffffffffffffffffffffffffffffffffffffffff16617b88565b156182f0578373ffffffffffffffffffffffffffffffffffffffff1663150b7a026181c0617419565b8786866040518563ffffffff1660e01b81526004016181e2949392919061b148565b6020604051808303816000875af192505050801561821e57506040513d601f19601f8201168201806040525081019061821b919061b1a9565b60015b6182a0573d806000811461824e576040519150601f19603f3d011682016040523d82523d6000602084013e618253565b606091505b506000815103618298576040517f08c379a000000000000000000000000000000000000000000000000000000000815260040161828f9061b0bc565b60405180910390fd5b805181602001fd5b63150b7a0260e01b7bffffffffffffffffffffffffffffffffffffffffffffffffffffffff1916817bffffffffffffffffffffffffffffffffffffffffffffffffffffffff1916149150506182f5565b600190505b949350505050565b600080600090507a184f03e93ff9f4daa797ed6e38ed64bf6a1f010000000000000000831061835b577a184f03e93ff9f4daa797ed6e38ed64bf6a1f01000000000000000083816183515761835061a3d1565b5b0492506040810190505b6d04ee2d6d415b85acef81000000008310618398576d04ee2d6d415b85acef8100000000838161838e5761838d61a3d1565b5b0492506020810190505b662386f26fc1000083106183c757662386f26fc1000083816183bd576183bc61a3d1565b5b0492506010810190505b6305f5e10083106183f0576305f5e10083816183e6576183e561a3d1565b5b0492506008810190505b612710831061841557612710838161840b5761840a61a3d1565b5b0492506004810190505b60648310618438576064838161842e5761842d61a3d1565b5b0492506002810190505b600a8310618447576001810190505b80915050919050565b6000807f7fffffffffffffffffffffffffffffff5d576e7357a4501ddfe92f46681b20a08360001c111561848b576000600391509150618529565b6000600187878787604051600081526020016040526040516184b0949392919061b1e5565b6020604051602081039080840390855afa1580156184d2573d6000803e3d6000fd5b505050602060405103519050600073ffffffffffffffffffffffffffffffffffffffff168173ffffffffffffffffffffffffffffffffffffffff160361852057600060019250925050618529565b80600092509250505b94509492505050565b6000604051905090565b600080fd5b600080fd5b6000819050919050565b61855981618546565b811461856457600080fd5b50565b60008135905061857681618550565b92915050565b600080fd5b600080fd5b600080fd5b60008083601f8401126185a1576185a061857c565b5b8235905067ffffffffffffffff8111156185be576185bd618581565b5b6020830191508360208202830111156185da576185d9618586565b5b9250929050565b600080600080600080600080600060a08a8c0312156186035761860261853c565b5b60006186118c828d01618567565b99505060208a013567ffffffffffffffff81111561863257618631618541565b5b61863e8c828d0161858b565b985098505060408a013567ffffffffffffffff81111561866157618660618541565b5b61866d8c828d0161858b565b965096505060608a013567ffffffffffffffff8111156186905761868f618541565b5b61869c8c828d0161858b565b945094505060808a013567ffffffffffffffff8111156186bf576186be618541565b5b6186cb8c828d0161858b565b92509250509295985092959850929598565b60007fffffffff0000000000000000000000000000000000000000000000000000000082169050919050565b618712816186dd565b811461871d57600080fd5b50565b60008135905061872f81618709565b92915050565b60006020828403121561874b5761874a61853c565b5b600061875984828501618720565b91505092915050565b60008115159050919050565b61877781618762565b82525050565b6000602082019050618792600083018461876e565b92915050565b600080fd5b6000608082840312156187b3576187b2618798565b5b81905092915050565b600080fd5b6000601f19601f8301169050919050565b7f4e487b7100000000000000000000000000000000000000000000000000000000600052604160045260246000fd5b61880a826187c1565b810181811067ffffffffffffffff82111715618829576188286187d2565b5b80604052505050565b600061883c618532565b90506188488282618801565b919050565b600067ffffffffffffffff821115618868576188676187d2565b5b618871826187c1565b9050602081019050919050565b82818337600083830152505050565b60006188a061889b8461884d565b618832565b9050828152602081018484840111156188bc576188bb6187bc565b5b6188c784828561887e565b509392505050565b600082601f8301126188e4576188e361857c565b5b81356188f484826020860161888d565b91505092915050565b61890681618762565b811461891157600080fd5b50565b600081359050618923816188fd565b92915050565b600080600060c084860312156189425761894161853c565b5b60006189508682870161879d565b935050608084013567ffffffffffffffff81111561897157618970618541565b5b61897d868287016188cf565b92505060a061898e86828701618914565b9150509250925092565b600081519050919050565b600082825260208201905092915050565b60005b838110156189d25780820151818401526020810190506189b7565b60008484015250505050565b60006189e982618998565b6189f381856189a3565b9350618a038185602086016189b4565b618a0c816187c1565b840191505092915050565b60006020820190508181036000830152618a3181846189de565b905092915050565b600060208284031215618a4f57618a4e61853c565b5b6000618a5d84828501618567565b91505092915050565b600073ffffffffffffffffffffffffffffffffffffffff82169050919050565b6000618a9182618a66565b9050919050565b618aa181618a86565b82525050565b6000602082019050618abc6000830184618a98565b92915050565b618acb81618a86565b8114618ad657600080fd5b50565b600081359050618ae881618ac2565b92915050565b60008060408385031215618b0557618b0461853c565b5b6000618b1385828601618ad9565b9250506020618b2485828601618567565b9150509250929050565b618b3781618546565b82525050565b6000602082019050618b526000830184618b2e565b92915050565b60008060208385031215618b6f57618b6e61853c565b5b600083013567ffffffffffffffff811115618b8d57618b8c618541565b5b618b998582860161858b565b92509250509250929050565b60008083601f840112618bbb57618bba61857c565b5b8235905067ffffffffffffffff811115618bd857618bd7618581565b5b602083019150836020820283011115618bf457618bf3618586565b5b9250929050565b600080600060408486031215618c1457618c1361853c565b5b600084013567ffffffffffffffff811115618c3257618c31618541565b5b618c3e86828701618ba5565b93509350506020618c5186828701618914565b9150509250925092565b600060208284031215618c7157618c7061853c565b5b6000618c7f84828501618ad9565b91505092915050565b60008060408385031215618c9f57618c9e61853c565b5b6000618cad85828601618567565b9250506020618cbe85828601618567565b9150509250929050565b600061012082019050618cde600083018c618b2e565b618ceb602083018b618b2e565b618cf8604083018a618b2e565b618d056060830189618b2e565b618d126080830188618b2e565b618d1f60a0830187618b2e565b618d2c60c0830186618b2e565b618d3960e0830185618b2e565b618d47610100830184618b2e565b9a9950505050505050505050565b600080600060608486031215618d6e57618d6d61853c565b5b6000618d7c86828701618ad9565b9350506020618d8d86828701618ad9565b9250506040618d9e86828701618567565b9150509250925092565b6000819050919050565b6000618dcd618dc8618dc384618a66565b618da8565b618a66565b9050919050565b6000618ddf82618db2565b9050919050565b6000618df182618dd4565b9050919050565b618e0181618de6565b82525050565b6000602082019050618e1c6000830184618df8565b92915050565b60008060008060008060608789031215618e3f57618e3e61853c565b5b600087013567ffffffffffffffff811115618e5d57618e5c618541565b5b618e6989828a0161858b565b9650965050602087013567ffffffffffffffff811115618e8c57618e8b618541565b5b618e9889828a0161858b565b9450945050604087013567ffffffffffffffff811115618ebb57618eba618541565b5b618ec789828a0161858b565b92509250509295509295509295565b600080fd5b6000819050919050565b618eee81618edb565b8114618ef957600080fd5b50565b600081359050618f0b81618ee5565b92915050565b600060608284031215618f2757618f26618ed6565b5b618f316060618832565b90506000618f4184828501618567565b6000830152506020618f5584828501618567565b6020830152506040618f6984828501618efc565b60408301525092915050565b60008060808385031215618f8c57618f8b61853c565b5b6000618f9a85828601618f11565b925050606083013567ffffffffffffffff811115618fbb57618fba618541565b5b618fc7858286016188cf565b9150509250929050565b600067ffffffffffffffff821115618fec57618feb6187d2565b5b618ff5826187c1565b9050602081019050919050565b600061901561901084618fd1565b618832565b905082815260208101848484011115619031576190306187bc565b5b61903c84828561887e565b509392505050565b600082601f8301126190595761905861857c565b5b8135619069848260208601619002565b91505092915050565b600080604083850312156190895761908861853c565b5b600083013567ffffffffffffffff8111156190a7576190a6618541565b5b6190b385828601619044565b925050602083013567ffffffffffffffff8111156190d4576190d3618541565b5b6190e085828601619044565b9150509250929050565b600080604083850312156191015761910061853c565b5b600061910f85828601618ad9565b925050602061912085828601618914565b9150509250929050565b60008060008060008060c087890312156191475761914661853c565b5b600061915589828a01618ad9565b965050602061916689828a01618ad9565b955050604061917789828a01618ad9565b945050606061918889828a01618ad9565b935050608061919989828a01618ad9565b92505060a06191aa89828a01618567565b9150509295509295509295565b600080600080608085870312156191d1576191d061853c565b5b60006191df87828801618ad9565b94505060206191f087828801618ad9565b935050604061920187828801618567565b925050606085013567ffffffffffffffff81111561922257619221618541565b5b61922e878288016188cf565b91505092959194509250565b6000608082840312156192505761924f618ed6565b5b61925a6080618832565b9050600061926a84828501618567565b600083015250602061927e84828501618ad9565b602083015250604061929284828501618567565b60408301525060606192a684828501618efc565b60608301525092915050565b60008060a083850312156192c9576192c861853c565b5b60006192d78582860161923a565b925050608083013567ffffffffffffffff8111156192f8576192f7618541565b5b619304858286016188cf565b9150509250929050565b6000602082840312156193245761932361853c565b5b600082013567ffffffffffffffff81111561934257619341618541565b5b61934e848285016188cf565b91505092915050565b600061936282618dd4565b9050919050565b61937281619357565b82525050565b600060208201905061938d6000830184619369565b92915050565b60006080820190506193a86000830187618b2e565b6193b56020830186618b2e565b6193c26040830185618b2e565b6193cf6060830184618b2e565b95945050505050565b6000806000606084860312156193f1576193f061853c565b5b60006193ff86828701618567565b935050602061941086828701618567565b925050604061942186828701618567565b9150509250925092565b600080604083850312156194425761944161853c565b5b600061945085828601618ad9565b925050602061946185828601618ad9565b9150509250929050565b6000806000604084860312156194845761948361853c565b5b600084013567ffffffffffffffff8111156194a2576194a1618541565b5b6194ae8682870161858b565b935093505060206194c186828701618914565b9150509250925092565b7f4e487b7100000000000000000000000000000000000000000000000000000000600052603260045260246000fd5b7f4e487b7100000000000000000000000000000000000000000000000000000000600052601160045260246000fd5b600061953482618546565b91507fffffffffffffffffffffffffffffffffffffffffffffffffffffffffffffffff8203619566576195656194fa565b5b600182019050919050565b600081519050919050565b600081905092915050565b600061959282619571565b61959c818561957c565b93506195ac8185602086016189b4565b80840191505092915050565b60006195c48284619587565b915081905092915050565b600082825260208201905092915050565b60006195eb82619571565b6195f581856195cf565b93506196058185602086016189b4565b61960e816187c1565b840191505092915050565b6000602082019050818103600083015261963381846195e0565b905092915050565b60008151905061964a816188fd565b92915050565b6000602082840312156196665761966561853c565b5b60006196748482850161963b565b91505092915050565b7f41726645524337323156313a204e6f7420616c6c6f7765640000000000000000600082015250565b60006196b36018836189a3565b91506196be8261967d565b602082019050919050565b600060208201905081810360008301526196e2816196a6565b9050919050565b60006196f482618546565b91506196ff83618546565b9250828201905080821115619717576197166194fa565b5b92915050565b7f41726645524337323156313a20546869732065706f636820697320636c6f736560008201527f64206f72207072696e746572206973206f7574206f662073746f636b00000000602082015250565b6000619779603c836189a3565b91506197848261971d565b604082019050919050565b600060208201905081810360008301526197a88161976c565b9050919050565b60006197ba82618546565b91506197c583618546565b9250817fffffffffffffffffffffffffffffffffffffffffffffffffffffffffffffffff04831182151516156197fe576197fd6194fa565b5b828202905092915050565b7f41726645524337323156313a20496e76616c6964207072696365000000000000600082015250565b600061983f601a836189a3565b915061984a82619809565b602082019050919050565b6000602082019050818103600083015261986e81619832565b9050919050565b7f41726645524337323156313a20496e76616c6964207175616e74697479000000600082015250565b60006198ab601d836189a3565b91506198b682619875565b602082019050919050565b600060208201905081810360008301526198da8161989e565b9050919050565b7f4e487b7100000000000000000000000000000000000000000000000000000000600052602260045260246000fd5b6000600282049050600182168061992857607f821691505b60208210810361993b5761993a6198e1565b5b50919050565b60008190508160005260206000209050919050565b60006020601f8301049050919050565b600082821b905092915050565b6000600883026199a37fffffffffffffffffffffffffffffffffffffffffffffffffffffffffffffffff82619966565b6199ad8683619966565b95508019841693508086168417925050509392505050565b60006199e06199db6199d684618546565b618da8565b618546565b9050919050565b6000819050919050565b6199fa836199c5565b619a0e619a06826199e7565b848454619973565b825550505050565b600090565b619a23619a16565b619a2e8184846199f1565b505050565b5b81811015619a5257619a47600082619a1b565b600181019050619a34565b5050565b601f821115619a9757619a6881619941565b619a7184619956565b81016020851015619a80578190505b619a94619a8c85619956565b830182619a33565b50505b505050565b600082821c905092915050565b6000619aba60001984600802619a9c565b1980831691505092915050565b6000619ad38383619aa9565b9150826002028217905092915050565b619aec82618998565b67ffffffffffffffff811115619b0557619b046187d2565b5b619b0f8254619910565b619b1a828285619a56565b600060209050601f831160018114619b4d5760008415619b3b578287015190505b619b458582619ac7565b865550619bad565b601f198416619b5b86619941565b60005b82811015619b8357848901518255600182019150602085019450602081019050619b5e565b86831015619ba05784890151619b9c601f891682619aa9565b8355505b6001600288020188555050505b505050505050565b6000606082019050619bca6000830186618a98565b619bd76020830185618a98565b619be46040830184618b2e565b949350505050565b6000604082019050619c016000830185618a98565b619c0e6020830184618b2e565b9392505050565b600081519050919050565b600082825260208201905092915050565b6000819050602082019050919050565b619c4a81618546565b82525050565b6000619c5c8383619c41565b60208301905092915050565b6000602082019050919050565b6000619c8082619c15565b619c8a8185619c20565b9350619c9583619c31565b8060005b83811015619cc6578151619cad8882619c50565b9750619cb883619c68565b925050600181019050619c99565b5085935050505092915050565b7f5052494e54455200000000000000000000000000000000000000000000000000600082015250565b6000619d096007836189a3565b9150619d1482619cd3565b602082019050919050565b600061010082019050619d35600083018a618a98565b8181036020830152619d478189619c75565b9050619d566040830188618b2e565b619d636060830187618b2e565b619d706080830186618b2e565b619d7d60a0830185618b2e565b619d8a60c083018461876e565b81810360e0830152619d9b81619cfc565b905098975050505050505050565b7f4552433732313a20617070726f76616c20746f2063757272656e74206f776e6560008201527f7200000000000000000000000000000000000000000000000000000000000000602082015250565b6000619e056021836189a3565b9150619e1082619da9565b604082019050919050565b60006020820190508181036000830152619e3481619df8565b9050919050565b7f4552433732313a20617070726f76652063616c6c6572206973206e6f7420746f60008201527f6b656e206f776e6572206f7220617070726f76656420666f7220616c6c000000602082015250565b6000619e97603d836189a3565b9150619ea282619e3b565b604082019050919050565b60006020820190508181036000830152619ec681619e8a565b9050919050565b7f41726645524337323156313a20496e76616c69642065706f6368206964206f7260008201527f206e6f7420656e6f756768207175616e74697479000000000000000000000000602082015250565b6000619f296034836189a3565b9150619f3482619ecd565b604082019050919050565b60006020820190508181036000830152619f5881619f1c565b9050919050565b600081519050619f6e81618ac2565b92915050565b600060208284031215619f8a57619f8961853c565b5b6000619f9884828501619f5f565b91505092915050565b7f4172664552433732313a204e6f742061206f776e657200000000000000000000600082015250565b6000619fd76016836189a3565b9150619fe282619fa1565b602082019050919050565b6000602082019050818103600083015261a00681619fca565b9050919050565b60008151905061a01c81618550565b92915050565b60006020828403121561a0385761a03761853c565b5b600061a0468482850161a00d565b91505092915050565b6000819050919050565b600061a07461a06f61a06a8461a04f565b618da8565b618546565b9050919050565b61a0848161a059565b82525050565b600080fd5b82818337505050565b600061a0a48385619c20565b93507f07ffffffffffffffffffffffffffffffffffffffffffffffffffffffffffffff83111561a0d75761a0d661a08a565b5b60208302925061a0e883858461a08f565b82840190509392505050565b600060a08201905061a1096000830189618a98565b61a116602083018861a07b565b818103604083015261a1288187619c75565b9050818103606083015261a13c8186619c75565b9050818103608083015261a15181848661a098565b9050979650505050505050565b7f4172664552433732313a204e6f742077686974656c6973746564000000000000600082015250565b600061a194601a836189a3565b915061a19f8261a15e565b602082019050919050565b6000602082019050818103600083015261a1c38161a187565b9050919050565b6000819050919050565b600061a1ef61a1ea61a1e58461a1ca565b618da8565b618546565b9050919050565b61a1ff8161a1d4565b82525050565b600060808201905061a21a6000830187618a98565b61a227602083018661a1f6565b61a2346040830185618b2e565b61a2416060830184618b2e565b95945050505050565b600082825260208201905092915050565b6000819050919050565b61a26e81618a86565b82525050565b600061a280838361a265565b60208301905092915050565b600061a29b6020840184618ad9565b905092915050565b6000602082019050919050565b600061a2bc838561a24a565b935061a2c78261a25b565b8060005b8581101561a3005761a2dd828461a28c565b61a2e7888261a274565b975061a2f28361a2a3565b92505060018101905061a2cb565b5085925050509392505050565b6000604082019050818103600083015261a32881858761a2b0565b905061a337602083018461876e565b949350505050565b7f4552433732313a2063616c6c6572206973206e6f7420746f6b656e206f776e6560008201527f72206f7220617070726f76656400000000000000000000000000000000000000602082015250565b600061a39b602d836189a3565b915061a3a68261a33f565b604082019050919050565b6000602082019050818103600083015261a3ca8161a38e565b9050919050565b7f4e487b7100000000000000000000000000000000000000000000000000000000600052601260045260246000fd5b600061a40b82618546565b915061a41683618546565b92508261a4265761a42561a3d1565b5b828204905092915050565b7f41726645524337323156313a204e6f742077686974656c69737465642075736560008201527f7200000000000000000000000000000000000000000000000000000000000000602082015250565b600061a48d6021836189a3565b915061a4988261a431565b604082019050919050565b6000602082019050818103600083015261a4bc8161a480565b9050919050565b600060608201905061a4d86000830186618a98565b61a4e56020830185618b2e565b61a4f26040830184618b2e565b949350505050565b7f4552433732313a20696e76616c696420746f6b656e2049440000000000000000600082015250565b600061a5306018836189a3565b915061a53b8261a4fa565b602082019050919050565b6000602082019050818103600083015261a55f8161a523565b9050919050565b7f4552433732313a2061646472657373207a65726f206973206e6f74206120766160008201527f6c6964206f776e65720000000000000000000000000000000000000000000000602082015250565b600061a5c26029836189a3565b915061a5cd8261a566565b604082019050919050565b6000602082019050818103600083015261a5f18161a5b5565b9050919050565b7f496e697469616c697a61626c653a20636f6e747261637420697320616c72656160008201527f647920696e697469616c697a6564000000000000000000000000000000000000602082015250565b600061a654602e836189a3565b915061a65f8261a5f8565b604082019050919050565b6000602082019050818103600083015261a6838161a647565b9050919050565b6000819050919050565b600060ff82169050919050565b600061a6bc61a6b761a6b28461a68a565b618da8565b61a694565b9050919050565b61a6cc8161a6a1565b82525050565b600060208201905061a6e7600083018461a6c3565b92915050565b6000819050919050565b600061a71261a70d61a7088461a6ed565b618da8565b618546565b9050919050565b61a7228161a6f7565b82525050565b600060608201905061a73d6000830186618a98565b61a74a6020830185618b2e565b61a757604083018461a719565b949350505050565b7f41726645524337323156313a204e6f74206c6973746564000000000000000000600082015250565b600061a7956017836189a3565b915061a7a08261a75f565b602082019050919050565b6000602082019050818103600083015261a7c48161a788565b9050919050565b7f41726645524337323156313a205072697a6520697320696e636f72726563742060008201527f6f7220696e76616c696400000000000000000000000000000000000000000000602082015250565b600061a827602a836189a3565b915061a8328261a7cb565b604082019050919050565b6000602082019050818103600083015261a8568161a81a565b9050919050565b600061a86882618546565b915061a87383618546565b925082820390508181111561a88b5761a88a6194fa565b5b92915050565b6000815461a89e81619910565b61a8a881866189a3565b9450600182166000811461a8c3576001811461a8d95761a90c565b60ff19831686528115156020028601935061a90c565b61a8e285619941565b60005b8381101561a9045781548189015260018201915060208101905061a8e5565b808801955050505b50505092915050565b600060a08201905061a92a6000830188618a98565b61a9376020830187618a98565b61a9446040830186618b2e565b61a9516060830185618b2e565b818103608083015261a963818461a891565b90509695505050505050565b600060808201905061a9846000830187618a98565b61a9916020830186618a98565b61a99e6040830185618b2e565b61a9ab6060830184618b2e565b95945050505050565b7f41726645524337323156313a2055524920717565727920666f72206e6f6e657860008201527f697374656e7420746f6b656e0000000000000000000000000000000000000000602082015250565b600061aa10602c836189a3565b915061aa1b8261a9b4565b604082019050919050565b6000602082019050818103600083015261aa3f8161aa03565b9050919050565b600081905092915050565b6000815461aa5e81619910565b61aa68818661aa46565b9450600182166000811461aa83576001811461aa985761aacb565b60ff198316865281151582028601935061aacb565b61aaa185619941565b60005b8381101561aac35781548189015260018201915060208101905061aaa4565b838801955050505b50505092915050565b600061aadf82618998565b61aae9818561aa46565b935061aaf98185602086016189b4565b80840191505092915050565b600061ab11828661aa51565b915061ab1d828561aad4565b915061ab29828461aa51565b9150819050949350505050565b7f41726645524337323156313a204e6f74207065726d6974746564000000000000600082015250565b600061ab6c601a836189a3565b915061ab778261ab36565b602082019050919050565b6000602082019050818103600083015261ab9b8161ab5f565b9050919050565b7f4f776e61626c653a206e6577206f776e657220697320746865207a65726f206160008201527f6464726573730000000000000000000000000000000000000000000000000000602082015250565b600061abfe6026836189a3565b915061ac098261aba2565b604082019050919050565b6000602082019050818103600083015261ac2d8161abf1565b9050919050565b7f4f776e61626c653a2063616c6c6572206973206e6f7420746865206f776e6572600082015250565b600061ac6a6020836189a3565b915061ac758261ac34565b602082019050919050565b6000602082019050818103600083015261ac998161ac5d565b9050919050565b7f5265656e7472616e637947756172643a207265656e7472616e742063616c6c00600082015250565b600061acd6601f836189a3565b915061ace18261aca0565b602082019050919050565b6000602082019050818103600083015261ad058161acc9565b9050919050565b7f4e487b7100000000000000000000000000000000000000000000000000000000600052602160045260246000fd5b61ad4481618edb565b82525050565b600060408201905061ad5f600083018561ad3b565b818103602083015261ad7181846195e0565b90509392505050565b60008151905061ad8981618ee5565b92915050565b60006020828403121561ada55761ada461853c565b5b600061adb38482850161ad7a565b91505092915050565b7f4552433732313a206d696e7420746f20746865207a65726f2061646472657373600082015250565b600061adf26020836189a3565b915061adfd8261adbc565b602082019050919050565b6000602082019050818103600083015261ae218161ade5565b9050919050565b7f4552433732313a20746f6b656e20616c7265616479206d696e74656400000000600082015250565b600061ae5e601c836189a3565b915061ae698261ae28565b602082019050919050565b6000602082019050818103600083015261ae8d8161ae51565b9050919050565b7f4552433732313a207472616e736665722066726f6d20696e636f72726563742060008201527f6f776e6572000000000000000000000000000000000000000000000000000000602082015250565b600061aef06025836189a3565b915061aefb8261ae94565b604082019050919050565b6000602082019050818103600083015261af1f8161aee3565b9050919050565b7f4552433732313a207472616e7366657220746f20746865207a65726f2061646460008201527f7265737300000000000000000000000000000000000000000000000000000000602082015250565b600061af826024836189a3565b915061af8d8261af26565b604082019050919050565b6000602082019050818103600083015261afb18161af75565b9050919050565b7f496e697469616c697a61626c653a20636f6e7472616374206973206e6f74206960008201527f6e697469616c697a696e67000000000000000000000000000000000000000000602082015250565b600061b014602b836189a3565b915061b01f8261afb8565b604082019050919050565b6000602082019050818103600083015261b0438161b007565b9050919050565b7f4552433732313a207472616e7366657220746f206e6f6e20455243373231526560008201527f63656976657220696d706c656d656e7465720000000000000000000000000000602082015250565b600061b0a66032836189a3565b915061b0b18261b04a565b604082019050919050565b6000602082019050818103600083015261b0d58161b099565b9050919050565b7f4552433732313a20617070726f766520746f2063616c6c657200000000000000600082015250565b600061b1126019836189a3565b915061b11d8261b0dc565b602082019050919050565b6000602082019050818103600083015261b1418161b105565b9050919050565b600060808201905061b15d6000830187618a98565b61b16a6020830186618a98565b61b1776040830185618b2e565b818103606083015261b18981846195e0565b905095945050505050565b60008151905061b1a381618709565b92915050565b60006020828403121561b1bf5761b1be61853c565b5b600061b1cd8482850161b194565b91505092915050565b61b1df8161a694565b82525050565b600060808201905061b1fa600083018761ad3b565b61b207602083018661b1d6565b61b214604083018561ad3b565b61b221606083018461ad3b565b9594505050505056fe68747470733a2f2f6173736574732e616c6c6f792e73706163652f746f6b656e2d7572692d73322fa2646970667358221220a21b66ea3d2ce9d0ddfe7e2241756d98d8b4404fb1f8c23f68349e31ea72e91264736f6c63430008100033",
  "linkReferences": {},
  "deployedLinkReferences": {}
}