{"contracts/NIOZ/ERC20Upgradeable.sol":{"ERC20Upgradeable":{"abi":[{"anonymous":false,"inputs":[{"indexed":true,"internalType":"address","name":"owner","type":"address"},{"indexed":true,"internalType":"address","name":"spender","type":"address"},{"indexed":false,"internalType":"uint256","name":"value","type":"uint256"}],"name":"Approval","type":"event"},{"anonymous":false,"inputs":[{"indexed":false,"internalType":"uint8","name":"version","type":"uint8"}],"name":"Initialized","type":"event"},{"anonymous":false,"inputs":[{"indexed":true,"internalType":"address","name":"from","type":"address"},{"indexed":true,"internalType":"address","name":"to","type":"address"},{"indexed":false,"internalType":"uint256","name":"value","type":"uint256"}],"name":"Transfer","type":"event"},{"inputs":[{"internalType":"address","name":"owner","type":"address"},{"internalType":"address","name":"spender","type":"address"}],"name":"allowance","outputs":[{"internalType":"uint256","name":"","type":"uint256"}],"stateMutability":"view","type":"function"},{"inputs":[{"internalType":"address","name":"spender","type":"address"},{"internalType":"uint256","name":"amount","type":"uint256"}],"name":"approve","outputs":[{"internalType":"bool","name":"","type":"bool"}],"stateMutability":"nonpayable","type":"function"},{"inputs":[{"internalType":"address","name":"account","type":"address"}],"name":"balanceOf","outputs":[{"internalType":"uint256","name":"","type":"uint256"}],"stateMutability":"view","type":"function"},{"inputs":[{"internalType":"address","name":"","type":"address"}],"name":"blacklistAddresses","outputs":[{"internalType":"bool","name":"","type":"bool"}],"stateMutability":"view","type":"function"},{"inputs":[],"name":"decimals","outputs":[{"internalType":"uint8","name":"","type":"uint8"}],"stateMutability":"view","type":"function"},{"inputs":[{"internalType":"address","name":"spender","type":"address"},{"internalType":"uint256","name":"subtractedValue","type":"uint256"}],"name":"decreaseAllowance","outputs":[{"internalType":"bool","name":"","type":"bool"}],"stateMutability":"nonpayable","type":"function"},{"inputs":[{"internalType":"address","name":"spender","type":"address"},{"internalType":"uint256","name":"addedValue","type":"uint256"}],"name":"increaseAllowance","outputs":[{"internalType":"bool","name":"","type":"bool"}],"stateMutability":"nonpayable","type":"function"},{"inputs":[],"name":"name","outputs":[{"internalType":"string","name":"","type":"string"}],"stateMutability":"view","type":"function"},{"inputs":[],"name":"symbol","outputs":[{"internalType":"string","name":"","type":"string"}],"stateMutability":"view","type":"function"},{"inputs":[],"name":"totalSupply","outputs":[{"internalType":"uint256","name":"","type":"uint256"}],"stateMutability":"view","type":"function"},{"inputs":[{"internalType":"address","name":"to","type":"address"},{"internalType":"uint256","name":"amount","type":"uint256"}],"name":"transfer","outputs":[{"internalType":"bool","name":"","type":"bool"}],"stateMutability":"nonpayable","type":"function"},{"inputs":[{"internalType":"address","name":"from","type":"address"},{"internalType":"address","name":"to","type":"address"},{"internalType":"uint256","name":"amount","type":"uint256"}],"name":"transferFrom","outputs":[{"internalType":"bool","name":"","type":"bool"}],"stateMutability":"nonpayable","type":"function"}],"evm":{"bytecode":{"linkReferences":{},"object":"608060405234801561001057600080fd5b50611d3f806100206000396000f3fe608060405234801561001057600080fd5b50600436106100b45760003560e01c806370a082311161007157806370a08231146101a35780638e77fe2f146101d357806395d89b4114610203578063a457c2d714610221578063a9059cbb14610251578063dd62ed3e14610281576100b4565b806306fdde03146100b9578063095ea7b3146100d757806318160ddd1461010757806323b872dd14610125578063313ce567146101555780633950935114610173575b600080fd5b6100c16102b1565b6040516100ce91906115b0565b60405180910390f35b6100f160048036038101906100ec919061166b565b61037f565b6040516100fe91906116c6565b60405180910390f35b61010f61042f565b60405161011c91906116f0565b60405180910390f35b61013f600480360381019061013a919061170b565b610475565b60405161014c91906116c6565b60405180910390f35b61015d610559565b60405161016a919061177a565b60405180910390f35b61018d6004803603810190610188919061166b565b61059e565b60405161019a91906116c6565b60405180910390f35b6101bd60048036038101906101b89190611795565b610662565b6040516101ca91906116f0565b60405180910390f35b6101ed60048036038101906101e89190611795565b6106e7565b6040516101fa91906116c6565b60405180910390f35b61020b610707565b60405161021891906115b0565b60405180910390f35b61023b6004803603810190610236919061166b565b6107d5565b60405161024891906116c6565b60405180910390f35b61026b6004803603810190610266919061166b565b610965565b60405161027891906116c6565b60405180910390f35b61029b600480360381019061029691906117c2565b610a15565b6040516102a891906116f0565b60405180910390f35b60606102c767f552a8c32271017560c01b610ad8565b6102db67048dfca8d666a31360c01b610ad8565b6102ef67d227f20ff73c7fc860c01b610ad8565b603680546102fc90611831565b80601f016020809104026020016040519081016040528092919081815260200182805461032890611831565b80156103755780601f1061034a57610100808354040283529160200191610375565b820191906000526020600020905b81548152906001019060200180831161035857829003601f168201915b5050505050905090565b60006103956704b5e613afe656b660c01b610ad8565b6103a9676e26b852637b4f2e60c01b610ad8565b6103bd67c6d001af3927838660c01b610ad8565b60006103c7610adb565b90506103dd67d63183bd5256866d60c01b610ad8565b6103f167eb72a745dc8dc8ce60c01b610ad8565b6103fc818585610ae3565b610410677c85e3c9da63418360c01b610ad8565b610424674d2512ddc0a5ee0c60c01b610ad8565b600191505092915050565b600061044567fb3d51ee3210080c60c01b610ad8565b6104596731809c2ec202aee360c01b610ad8565b61046d67b1056caac5701b4e60c01b610ad8565b603554905090565b600061048b67aa8b4ceef303403c60c01b610ad8565b61049f674f72b00035e4c23660c01b610ad8565b6104b367596e850968ff484160c01b610ad8565b60006104bd610adb565b90506104d367f604a98374250b6c60c01b610ad8565b6104e767b15dc635d19c2b1e60c01b610ad8565b6104f2858285610d9c565b61050667c40550a8cd4c4c0c60c01b610ad8565b61051a67079b66a8ae9f911860c01b610ad8565b610525858585610f45565b610539670775d1e7642967d960c01b610ad8565b61054d672747e83febf57d9f60c01b610ad8565b60019150509392505050565b600061056f67fd4c4dfd102ddd0760c01b610ad8565b6105836735f35634068e7a8060c01b610ad8565b6105976704cfb95bb1096fb460c01b610ad8565b6012905090565b60006105b46783a9197de04cb54960c01b610ad8565b6105c867a2545b1098d8abe060c01b610ad8565b6105dc6715eb0959fa02365f60c01b610ad8565b60006105e6610adb565b90506105fc67bf1fca71c165472560c01b610ad8565b61061067dc616f2f3d90e97e60c01b610ad8565b61062f8185856106208589610a15565b61062a9190611891565b610ae3565b61064367cf0c2b3d0df530ef60c01b610ad8565b61065767e7c79e7b275ff3a060c01b610ad8565b600191505092915050565b600061067867cf6cfd6f3c7af27460c01b610ad8565b61068c6791415c8f5f91bc2560c01b610ad8565b6106a06776ee22d0bae7532060c01b610ad8565b603360008373ffffffffffffffffffffffffffffffffffffffff1673ffffffffffffffffffffffffffffffffffffffff168152602001908152602001600020549050919050565b60386020528060005260406000206000915054906101000a900460ff1681565b606061071d673dc54305972e17ea60c01b610ad8565b61073167fb9d13dc6e588a5860c01b610ad8565b610745673be019c921453ff660c01b610ad8565b6037805461075290611831565b80601f016020809104026020016040519081016040528092919081815260200182805461077e90611831565b80156107cb5780601f106107a0576101008083540402835291602001916107cb565b820191906000526020600020905b8154815290600101906020018083116107ae57829003601f168201915b5050505050905090565b60006107eb67a873271e6ad3848160c01b610ad8565b6107ff67cfe918a45701de5160c01b610ad8565b6108136784a5b39da8a871b260c01b610ad8565b600061081d610adb565b9050610833676682a132f458a0f960c01b610ad8565b6108476744618e53f61c11a060c01b610ad8565b60006108538286610a15565b90506108696717b9fb5b9762aa1e60c01b610ad8565b61087d674306b5ee4f89f5f860c01b610ad8565b610891670a5a9620d306e56560c01b610ad8565b838110156108d4576040517f08c379a00000000000000000000000000000000000000000000000000000000081526004016108cb90611937565b60405180910390fd5b6108e867f46d481eb7c4576060c01b610ad8565b6108fc67727d438bc81971bb60c01b610ad8565b61091067d8ada52a3aae0e3160c01b610ad8565b610924670ba4b43a44f1eb0060c01b610ad8565b6109318286868403610ae3565b61094567f23e17121efcdd9d60c01b610ad8565b61095967fe93e3667119fce560c01b610ad8565b60019250505092915050565b600061097b671a059d41d4a80a8760c01b610ad8565b61098f67b300f9590bcfcbd960c01b610ad8565b6109a367bd32cd2354358d6460c01b610ad8565b60006109ad610adb565b90506109c36774b5ef077310842660c01b610ad8565b6109d76712fcbcea2f54bc9760c01b610ad8565b6109e2818585610f45565b6109f6676bae913c4001d87060c01b610ad8565b610a0a67ee3a671c1a061fd260c01b610ad8565b600191505092915050565b6000610a2b67c2f816634474a7ae60c01b610ad8565b610a3f6731e2b61681827ad560c01b610ad8565b610a5367e95cfbb3a68540c960c01b610ad8565b603460008473ffffffffffffffffffffffffffffffffffffffff1673ffffffffffffffffffffffffffffffffffffffff16815260200190815260200160002060008373ffffffffffffffffffffffffffffffffffffffff1673ffffffffffffffffffffffffffffffffffffffff16815260200190815260200160002054905092915050565b50565b600033905090565b610af7674b88d485f6e76b9560c01b610ad8565b610b0b6793606422f413e36660c01b610ad8565b610b1f67f61947ad80db280560c01b610ad8565b610b336783c5c766e31a745b60c01b610ad8565b600073ffffffffffffffffffffffffffffffffffffffff168373ffffffffffffffffffffffffffffffffffffffff1603610ba2576040517f08c379a0000000000000000000000000000000000000000000000000000000008152600401610b99906119c9565b60405180910390fd5b610bb667dfb9d976b400069a60c01b610ad8565b610bca67331cf4800ff77f4260c01b610ad8565b610bde6763c9257b187f29b460c01b610ad8565b610bf2677f4953d0e5300eab60c01b610ad8565b600073ffffffffffffffffffffffffffffffffffffffff168273ffffffffffffffffffffffffffffffffffffffff1603610c61576040517f08c379a0000000000000000000000000000000000000000000000000000000008152600401610c5890611a5b565b60405180910390fd5b610c7567b61c7d27c32e0b7160c01b610ad8565b610c896776ad9f179cd6468b60c01b610ad8565b80603460008573ffffffffffffffffffffffffffffffffffffffff1673ffffffffffffffffffffffffffffffffffffffff16815260200190815260200160002060008473ffffffffffffffffffffffffffffffffffffffff1673ffffffffffffffffffffffffffffffffffffffff16815260200190815260200160002081905550610d1e67ea6818da5dd4de0560c01b610ad8565b610d326753df8f353c68c32560c01b610ad8565b8173ffffffffffffffffffffffffffffffffffffffff168373ffffffffffffffffffffffffffffffffffffffff167f8c5be1e5ebec7d5bd14f71427d1e84f3dd0314c0f7b2291e5b200ac8c7c3b92583604051610d8f91906116f0565b60405180910390a3505050565b610db067321ef60c190ba46760c01b610ad8565b610dc467e4ed714f179da9fd60c01b610ad8565b610dd867d74a59f4e27685ab60c01b610ad8565b6000610de48484610a15565b9050610dfa67ecb2651b42ddd16260c01b610ad8565b610e0e67e86535689db8819760c01b610ad8565b7fffffffffffffffffffffffffffffffffffffffffffffffffffffffffffffffff8114610f2a57610e49671b4116d119fed99060c01b610ad8565b610e5d679c14f1482ebd3f0360c01b610ad8565b610e7167d145e9f104d95df760c01b610ad8565b610e8567c5b6c10d3c73b8c060c01b610ad8565b81811015610ec8576040517f08c379a0000000000000000000000000000000000000000000000000000000008152600401610ebf90611ac7565b60405180910390fd5b610edc676adae15a164c1d4160c01b610ad8565b610ef067a27da2e601a0a24060c01b610ad8565b610f046757d26c6d4d17e11860c01b610ad8565b610f1867465a6ade2c65928760c01b610ad8565b610f258484848403610ae3565b610f3f565b610f3e6742503d4feced536f60c01b610ad8565b5b50505050565b610f5967da5313f878b2a56060c01b610ad8565b610f6d67e7c676e32934131960c01b610ad8565b610f8167ef7fdafcdbd5899f60c01b610ad8565b610f9567ba544287eb6b716b60c01b610ad8565b600073ffffffffffffffffffffffffffffffffffffffff168373ffffffffffffffffffffffffffffffffffffffff1603611004576040517f08c379a0000000000000000000000000000000000000000000000000000000008152600401610ffb90611b59565b60405180910390fd5b6110186780c1595c0274fbe960c01b610ad8565b61102c673f4f718c38c375fe60c01b610ad8565b61104067bf3bf3f712daf56360c01b610ad8565b61105467e823d7d6caae29ff60c01b610ad8565b600073ffffffffffffffffffffffffffffffffffffffff168273ffffffffffffffffffffffffffffffffffffffff16036110c3576040517f08c379a00000000000000000000000000000000000000000000000000000000081526004016110ba90611beb565b60405180910390fd5b6110d767e576c5b51c8b528060c01b610ad8565b6110eb67ebe817e0272c9eb660c01b610ad8565b6110ff676b423680e18fb11660c01b610ad8565b61110a8383836113a7565b61111e67e51fbd5231ac066760c01b610ad8565b611132676b00924884a2206c60c01b610ad8565b6000603360008573ffffffffffffffffffffffffffffffffffffffff1673ffffffffffffffffffffffffffffffffffffffff16815260200190815260200160002054905061118a67f2cb39a5978ae8f360c01b610ad8565b61119e67a42fa0770bab288a60c01b610ad8565b6111b26784e7ce63f3ec7b5b60c01b610ad8565b818110156111f5576040517f08c379a00000000000000000000000000000000000000000000000000000000081526004016111ec90611c7d565b60405180910390fd5b6112096790f03ff30b6be67c60c01b610ad8565b61121d671004286e65991a8c60c01b610ad8565b61123167f4340c34f2e122b360c01b610ad8565b818103603360008673ffffffffffffffffffffffffffffffffffffffff1673ffffffffffffffffffffffffffffffffffffffff1681526020019081526020016000208190555061128b671aebf4c4b494d3c860c01b610ad8565b81603360008573ffffffffffffffffffffffffffffffffffffffff1673ffffffffffffffffffffffffffffffffffffffff16815260200190815260200160002060008282546112da9190611891565b925050819055506112f567aa50e6f7f3bdb75160c01b610ad8565b611309677cbc950fdcb9db2760c01b610ad8565b8273ffffffffffffffffffffffffffffffffffffffff168473ffffffffffffffffffffffffffffffffffffffff167fddf252ad1be2c89b69c2b068fc378daa952ba7f163c4a11628f55a4df523b3ef8460405161136691906116f0565b60405180910390a361138267c9ba652c062c32e060c01b610ad8565b6113966736e246612345295560c01b610ad8565b6113a1848484611507565b50505050565b6113bb671b437cd840361fc560c01b610ad8565b6113cf67c568186ef9c5559a60c01b610ad8565b6113e36723a773af8fb0064660c01b610ad8565b6113f767c2d6deca9ed9a07860c01b610ad8565b603860008473ffffffffffffffffffffffffffffffffffffffff1673ffffffffffffffffffffffffffffffffffffffff16815260200190815260200160002060009054906101000a900460ff1615801561149b5750603860008373ffffffffffffffffffffffffffffffffffffffff1673ffffffffffffffffffffffffffffffffffffffff16815260200190815260200160002060009054906101000a900460ff16155b6114da576040517f08c379a00000000000000000000000000000000000000000000000000000000081526004016114d190611ce9565b60405180910390fd5b6114ee67ff4c715cd3506d7960c01b610ad8565b61150267ac7faee281cc04a660c01b610ad8565b505050565b61151b676594d24c77ea8b3460c01b610ad8565b505050565b600081519050919050565b600082825260208201905092915050565b60005b8381101561155a57808201518184015260208101905061153f565b60008484015250505050565b6000601f19601f8301169050919050565b600061158282611520565b61158c818561152b565b935061159c81856020860161153c565b6115a581611566565b840191505092915050565b600060208201905081810360008301526115ca8184611577565b905092915050565b600080fd5b600073ffffffffffffffffffffffffffffffffffffffff82169050919050565b6000611602826115d7565b9050919050565b611612816115f7565b811461161d57600080fd5b50565b60008135905061162f81611609565b92915050565b6000819050919050565b61164881611635565b811461165357600080fd5b50565b6000813590506116658161163f565b92915050565b60008060408385031215611682576116816115d2565b5b600061169085828601611620565b92505060206116a185828601611656565b9150509250929050565b60008115159050919050565b6116c0816116ab565b82525050565b60006020820190506116db60008301846116b7565b92915050565b6116ea81611635565b82525050565b600060208201905061170560008301846116e1565b92915050565b600080600060608486031215611724576117236115d2565b5b600061173286828701611620565b935050602061174386828701611620565b925050604061175486828701611656565b9150509250925092565b600060ff82169050919050565b6117748161175e565b82525050565b600060208201905061178f600083018461176b565b92915050565b6000602082840312156117ab576117aa6115d2565b5b60006117b984828501611620565b91505092915050565b600080604083850312156117d9576117d86115d2565b5b60006117e785828601611620565b92505060206117f885828601611620565b9150509250929050565b7f4e487b7100000000000000000000000000000000000000000000000000000000600052602260045260246000fd5b6000600282049050600182168061184957607f821691505b60208210810361185c5761185b611802565b5b50919050565b7f4e487b7100000000000000000000000000000000000000000000000000000000600052601160045260246000fd5b600061189c82611635565b91506118a783611635565b92508282019050808211156118bf576118be611862565b5b92915050565b7f45524332303a2064656372656173656420616c6c6f77616e63652062656c6f7760008201527f207a65726f000000000000000000000000000000000000000000000000000000602082015250565b600061192160258361152b565b915061192c826118c5565b604082019050919050565b6000602082019050818103600083015261195081611914565b9050919050565b7f45524332303a20617070726f76652066726f6d20746865207a65726f2061646460008201527f7265737300000000000000000000000000000000000000000000000000000000602082015250565b60006119b360248361152b565b91506119be82611957565b604082019050919050565b600060208201905081810360008301526119e2816119a6565b9050919050565b7f45524332303a20617070726f766520746f20746865207a65726f20616464726560008201527f7373000000000000000000000000000000000000000000000000000000000000602082015250565b6000611a4560228361152b565b9150611a50826119e9565b604082019050919050565b60006020820190508181036000830152611a7481611a38565b9050919050565b7f45524332303a20696e73756666696369656e7420616c6c6f77616e6365000000600082015250565b6000611ab1601d8361152b565b9150611abc82611a7b565b602082019050919050565b60006020820190508181036000830152611ae081611aa4565b9050919050565b7f45524332303a207472616e736665722066726f6d20746865207a65726f20616460008201527f6472657373000000000000000000000000000000000000000000000000000000602082015250565b6000611b4360258361152b565b9150611b4e82611ae7565b604082019050919050565b60006020820190508181036000830152611b7281611b36565b9050919050565b7f45524332303a207472616e7366657220746f20746865207a65726f206164647260008201527f6573730000000000000000000000000000000000000000000000000000000000602082015250565b6000611bd560238361152b565b9150611be082611b79565b604082019050919050565b60006020820190508181036000830152611c0481611bc8565b9050919050565b7f45524332303a207472616e7366657220616d6f756e742065786365656473206260008201527f616c616e63650000000000000000000000000000000000000000000000000000602082015250565b6000611c6760268361152b565b9150611c7282611c0b565b604082019050919050565b60006020820190508181036000830152611c9681611c5a565b9050919050565b7f45524332303a20426c61636b6c69737465642061646472657373000000000000600082015250565b6000611cd3601a8361152b565b9150611cde82611c9d565b602082019050919050565b60006020820190508181036000830152611d0281611cc6565b905091905056fea2646970667358221220fcf603f8eea280afd137c4bedc0132efd8652757e861dbb4c9011361a7f283e464736f6c63430008100033","opcodes":"PUSH1 0x80 PUSH1 0x40 MSTORE CALLVALUE DUP1 ISZERO PUSH2 0x10 JUMPI PUSH1 0x0 DUP1 REVERT JUMPDEST POP PUSH2 0x1D3F DUP1 PUSH2 0x20 PUSH1 0x0 CODECOPY PUSH1 0x0 RETURN INVALID PUSH1 0x80 PUSH1 0x40 MSTORE CALLVALUE DUP1 ISZERO PUSH2 0x10 JUMPI PUSH1 0x0 DUP1 REVERT JUMPDEST POP PUSH1 0x4 CALLDATASIZE LT PUSH2 0xB4 JUMPI PUSH1 0x0 CALLDATALOAD PUSH1 0xE0 SHR DUP1 PUSH4 0x70A08231 GT PUSH2 0x71 JUMPI DUP1 PUSH4 0x70A08231 EQ PUSH2 0x1A3 JUMPI DUP1 PUSH4 0x8E77FE2F EQ PUSH2 0x1D3 JUMPI DUP1 PUSH4 0x95D89B41 EQ PUSH2 0x203 JUMPI DUP1 PUSH4 0xA457C2D7 EQ PUSH2 0x221 JUMPI DUP1 PUSH4 0xA9059CBB EQ PUSH2 0x251 JUMPI DUP1 PUSH4 0xDD62ED3E EQ PUSH2 0x281 JUMPI PUSH2 0xB4 JUMP JUMPDEST DUP1 PUSH4 0x6FDDE03 EQ PUSH2 0xB9 JUMPI DUP1 PUSH4 0x95EA7B3 EQ PUSH2 0xD7 JUMPI DUP1 PUSH4 0x18160DDD EQ PUSH2 0x107 JUMPI DUP1 PUSH4 0x23B872DD EQ PUSH2 0x125 JUMPI DUP1 PUSH4 0x313CE567 EQ PUSH2 0x155 JUMPI DUP1 PUSH4 0x39509351 EQ PUSH2 0x173 JUMPI JUMPDEST PUSH1 0x0 DUP1 REVERT JUMPDEST PUSH2 0xC1 PUSH2 0x2B1 JUMP JUMPDEST PUSH1 0x40 MLOAD PUSH2 0xCE SWAP2 SWAP1 PUSH2 0x15B0 JUMP JUMPDEST PUSH1 0x40 MLOAD DUP1 SWAP2 SUB SWAP1 RETURN JUMPDEST PUSH2 0xF1 PUSH1 0x4 DUP1 CALLDATASIZE SUB DUP2 ADD SWAP1 PUSH2 0xEC SWAP2 SWAP1 PUSH2 0x166B JUMP JUMPDEST PUSH2 0x37F JUMP JUMPDEST PUSH1 0x40 MLOAD PUSH2 0xFE SWAP2 SWAP1 PUSH2 0x16C6 JUMP JUMPDEST PUSH1 0x40 MLOAD DUP1 SWAP2 SUB SWAP1 RETURN JUMPDEST PUSH2 0x10F PUSH2 0x42F JUMP JUMPDEST PUSH1 0x40 MLOAD PUSH2 0x11C SWAP2 SWAP1 PUSH2 0x16F0 JUMP JUMPDEST PUSH1 0x40 MLOAD DUP1 SWAP2 SUB SWAP1 RETURN JUMPDEST PUSH2 0x13F PUSH1 0x4 DUP1 CALLDATASIZE SUB DUP2 ADD SWAP1 PUSH2 0x13A SWAP2 SWAP1 PUSH2 0x170B JUMP JUMPDEST PUSH2 0x475 JUMP JUMPDEST PUSH1 0x40 MLOAD PUSH2 0x14C SWAP2 SWAP1 PUSH2 0x16C6 JUMP JUMPDEST PUSH1 0x40 MLOAD DUP1 SWAP2 SUB SWAP1 RETURN JUMPDEST PUSH2 0x15D PUSH2 0x559 JUMP JUMPDEST PUSH1 0x40 MLOAD PUSH2 0x16A SWAP2 SWAP1 PUSH2 0x177A JUMP JUMPDEST PUSH1 0x40 MLOAD DUP1 SWAP2 SUB SWAP1 RETURN JUMPDEST PUSH2 0x18D PUSH1 0x4 DUP1 CALLDATASIZE SUB DUP2 ADD SWAP1 PUSH2 0x188 SWAP2 SWAP1 PUSH2 0x166B JUMP JUMPDEST PUSH2 0x59E JUMP JUMPDEST PUSH1 0x40 MLOAD PUSH2 0x19A SWAP2 SWAP1 PUSH2 0x16C6 JUMP JUMPDEST PUSH1 0x40 MLOAD DUP1 SWAP2 SUB SWAP1 RETURN JUMPDEST PUSH2 0x1BD PUSH1 0x4 DUP1 CALLDATASIZE SUB DUP2 ADD SWAP1 PUSH2 0x1B8 SWAP2 SWAP1 PUSH2 0x1795 JUMP JUMPDEST PUSH2 0x662 JUMP JUMPDEST PUSH1 0x40 MLOAD PUSH2 0x1CA SWAP2 SWAP1 PUSH2 0x16F0 JUMP JUMPDEST PUSH1 0x40 MLOAD DUP1 SWAP2 SUB SWAP1 RETURN JUMPDEST PUSH2 0x1ED PUSH1 0x4 DUP1 CALLDATASIZE SUB DUP2 ADD SWAP1 PUSH2 0x1E8 SWAP2 SWAP1 PUSH2 0x1795 JUMP JUMPDEST PUSH2 0x6E7 JUMP JUMPDEST PUSH1 0x40 MLOAD PUSH2 0x1FA SWAP2 SWAP1 PUSH2 0x16C6 JUMP JUMPDEST PUSH1 0x40 MLOAD DUP1 SWAP2 SUB SWAP1 RETURN JUMPDEST PUSH2 0x20B PUSH2 0x707 JUMP JUMPDEST PUSH1 0x40 MLOAD PUSH2 0x218 SWAP2 SWAP1 PUSH2 0x15B0 JUMP JUMPDEST PUSH1 0x40 MLOAD DUP1 SWAP2 SUB SWAP1 RETURN JUMPDEST PUSH2 0x23B PUSH1 0x4 DUP1 CALLDATASIZE SUB DUP2 ADD SWAP1 PUSH2 0x236 SWAP2 SWAP1 PUSH2 0x166B JUMP JUMPDEST PUSH2 0x7D5 JUMP JUMPDEST PUSH1 0x40 MLOAD PUSH2 0x248 SWAP2 SWAP1 PUSH2 0x16C6 JUMP JUMPDEST PUSH1 0x40 MLOAD DUP1 SWAP2 SUB SWAP1 RETURN JUMPDEST PUSH2 0x26B PUSH1 0x4 DUP1 CALLDATASIZE SUB DUP2 ADD SWAP1 PUSH2 0x266 SWAP2 SWAP1 PUSH2 0x166B JUMP JUMPDEST PUSH2 0x965 JUMP JUMPDEST PUSH1 0x40 MLOAD PUSH2 0x278 SWAP2 SWAP1 PUSH2 0x16C6 JUMP JUMPDEST PUSH1 0x40 MLOAD DUP1 SWAP2 SUB SWAP1 RETURN JUMPDEST PUSH2 0x29B PUSH1 0x4 DUP1 CALLDATASIZE SUB DUP2 ADD SWAP1 PUSH2 0x296 SWAP2 SWAP1 PUSH2 0x17C2 JUMP JUMPDEST PUSH2 0xA15 JUMP JUMPDEST PUSH1 0x40 MLOAD PUSH2 0x2A8 SWAP2 SWAP1 PUSH2 0x16F0 JUMP JUMPDEST PUSH1 0x40 MLOAD DUP1 SWAP2 SUB SWAP1 RETURN JUMPDEST PUSH1 0x60 PUSH2 0x2C7 PUSH8 0xF552A8C322710175 PUSH1 0xC0 SHL PUSH2 0xAD8 JUMP JUMPDEST PUSH2 0x2DB PUSH8 0x48DFCA8D666A313 PUSH1 0xC0 SHL PUSH2 0xAD8 JUMP JUMPDEST PUSH2 0x2EF PUSH8 0xD227F20FF73C7FC8 PUSH1 0xC0 SHL PUSH2 0xAD8 JUMP JUMPDEST PUSH1 0x36 DUP1 SLOAD PUSH2 0x2FC SWAP1 PUSH2 0x1831 JUMP JUMPDEST DUP1 PUSH1 0x1F ADD PUSH1 0x20 DUP1 SWAP2 DIV MUL PUSH1 0x20 ADD PUSH1 0x40 MLOAD SWAP1 DUP2 ADD PUSH1 0x40 MSTORE DUP1 SWAP3 SWAP2 SWAP1 DUP2 DUP2 MSTORE PUSH1 0x20 ADD DUP3 DUP1 SLOAD PUSH2 0x328 SWAP1 PUSH2 0x1831 JUMP JUMPDEST DUP1 ISZERO PUSH2 0x375 JUMPI DUP1 PUSH1 0x1F LT PUSH2 0x34A JUMPI PUSH2 0x100 DUP1 DUP4 SLOAD DIV MUL DUP4 MSTORE SWAP2 PUSH1 0x20 ADD SWAP2 PUSH2 0x375 JUMP JUMPDEST DUP3 ADD SWAP2 SWAP1 PUSH1 0x0 MSTORE PUSH1 0x20 PUSH1 0x0 KECCAK256 SWAP1 JUMPDEST DUP2 SLOAD DUP2 MSTORE SWAP1 PUSH1 0x1 ADD SWAP1 PUSH1 0x20 ADD DUP1 DUP4 GT PUSH2 0x358 JUMPI DUP3 SWAP1 SUB PUSH1 0x1F AND DUP3 ADD SWAP2 JUMPDEST POP POP POP POP POP SWAP1 POP SWAP1 JUMP JUMPDEST PUSH1 0x0 PUSH2 0x395 PUSH8 0x4B5E613AFE656B6 PUSH1 0xC0 SHL PUSH2 0xAD8 JUMP JUMPDEST PUSH2 0x3A9 PUSH8 0x6E26B852637B4F2E PUSH1 0xC0 SHL PUSH2 0xAD8 JUMP JUMPDEST PUSH2 0x3BD PUSH8 0xC6D001AF39278386 PUSH1 0xC0 SHL PUSH2 0xAD8 JUMP JUMPDEST PUSH1 0x0 PUSH2 0x3C7 PUSH2 0xADB JUMP JUMPDEST SWAP1 POP PUSH2 0x3DD PUSH8 0xD63183BD5256866D PUSH1 0xC0 SHL PUSH2 0xAD8 JUMP JUMPDEST PUSH2 0x3F1 PUSH8 0xEB72A745DC8DC8CE PUSH1 0xC0 SHL PUSH2 0xAD8 JUMP JUMPDEST PUSH2 0x3FC DUP2 DUP6 DUP6 PUSH2 0xAE3 JUMP JUMPDEST PUSH2 0x410 PUSH8 0x7C85E3C9DA634183 PUSH1 0xC0 SHL PUSH2 0xAD8 JUMP JUMPDEST PUSH2 0x424 PUSH8 0x4D2512DDC0A5EE0C PUSH1 0xC0 SHL PUSH2 0xAD8 JUMP JUMPDEST PUSH1 0x1 SWAP2 POP POP SWAP3 SWAP2 POP POP JUMP JUMPDEST PUSH1 0x0 PUSH2 0x445 PUSH8 0xFB3D51EE3210080C PUSH1 0xC0 SHL PUSH2 0xAD8 JUMP JUMPDEST PUSH2 0x459 PUSH8 0x31809C2EC202AEE3 PUSH1 0xC0 SHL PUSH2 0xAD8 JUMP JUMPDEST PUSH2 0x46D PUSH8 0xB1056CAAC5701B4E PUSH1 0xC0 SHL PUSH2 0xAD8 JUMP JUMPDEST PUSH1 0x35 SLOAD SWAP1 POP SWAP1 JUMP JUMPDEST PUSH1 0x0 PUSH2 0x48B PUSH8 0xAA8B4CEEF303403C PUSH1 0xC0 SHL PUSH2 0xAD8 JUMP JUMPDEST PUSH2 0x49F PUSH8 0x4F72B00035E4C236 PUSH1 0xC0 SHL PUSH2 0xAD8 JUMP JUMPDEST PUSH2 0x4B3 PUSH8 0x596E850968FF4841 PUSH1 0xC0 SHL PUSH2 0xAD8 JUMP JUMPDEST PUSH1 0x0 PUSH2 0x4BD PUSH2 0xADB JUMP JUMPDEST SWAP1 POP PUSH2 0x4D3 PUSH8 0xF604A98374250B6C PUSH1 0xC0 SHL PUSH2 0xAD8 JUMP JUMPDEST PUSH2 0x4E7 PUSH8 0xB15DC635D19C2B1E PUSH1 0xC0 SHL PUSH2 0xAD8 JUMP JUMPDEST PUSH2 0x4F2 DUP6 DUP3 DUP6 PUSH2 0xD9C JUMP JUMPDEST PUSH2 0x506 PUSH8 0xC40550A8CD4C4C0C PUSH1 0xC0 SHL PUSH2 0xAD8 JUMP JUMPDEST PUSH2 0x51A PUSH8 0x79B66A8AE9F9118 PUSH1 0xC0 SHL PUSH2 0xAD8 JUMP JUMPDEST PUSH2 0x525 DUP6 DUP6 DUP6 PUSH2 0xF45 JUMP JUMPDEST PUSH2 0x539 PUSH8 0x775D1E7642967D9 PUSH1 0xC0 SHL PUSH2 0xAD8 JUMP JUMPDEST PUSH2 0x54D PUSH8 0x2747E83FEBF57D9F PUSH1 0xC0 SHL PUSH2 0xAD8 JUMP JUMPDEST PUSH1 0x1 SWAP2 POP POP SWAP4 SWAP3 POP POP POP JUMP JUMPDEST PUSH1 0x0 PUSH2 0x56F PUSH8 0xFD4C4DFD102DDD07 PUSH1 0xC0 SHL PUSH2 0xAD8 JUMP JUMPDEST PUSH2 0x583 PUSH8 0x35F35634068E7A80 PUSH1 0xC0 SHL PUSH2 0xAD8 JUMP JUMPDEST PUSH2 0x597 PUSH8 0x4CFB95BB1096FB4 PUSH1 0xC0 SHL PUSH2 0xAD8 JUMP JUMPDEST PUSH1 0x12 SWAP1 POP SWAP1 JUMP JUMPDEST PUSH1 0x0 PUSH2 0x5B4 PUSH8 0x83A9197DE04CB549 PUSH1 0xC0 SHL PUSH2 0xAD8 JUMP JUMPDEST PUSH2 0x5C8 PUSH8 0xA2545B1098D8ABE0 PUSH1 0xC0 SHL PUSH2 0xAD8 JUMP JUMPDEST PUSH2 0x5DC PUSH8 0x15EB0959FA02365F PUSH1 0xC0 SHL PUSH2 0xAD8 JUMP JUMPDEST PUSH1 0x0 PUSH2 0x5E6 PUSH2 0xADB JUMP JUMPDEST SWAP1 POP PUSH2 0x5FC PUSH8 0xBF1FCA71C1654725 PUSH1 0xC0 SHL PUSH2 0xAD8 JUMP JUMPDEST PUSH2 0x610 PUSH8 0xDC616F2F3D90E97E PUSH1 0xC0 SHL PUSH2 0xAD8 JUMP JUMPDEST PUSH2 0x62F DUP2 DUP6 DUP6 PUSH2 0x620 DUP6 DUP10 PUSH2 0xA15 JUMP JUMPDEST PUSH2 0x62A SWAP2 SWAP1 PUSH2 0x1891 JUMP JUMPDEST PUSH2 0xAE3 JUMP JUMPDEST PUSH2 0x643 PUSH8 0xCF0C2B3D0DF530EF PUSH1 0xC0 SHL PUSH2 0xAD8 JUMP JUMPDEST PUSH2 0x657 PUSH8 0xE7C79E7B275FF3A0 PUSH1 0xC0 SHL PUSH2 0xAD8 JUMP JUMPDEST PUSH1 0x1 SWAP2 POP POP SWAP3 SWAP2 POP POP JUMP JUMPDEST PUSH1 0x0 PUSH2 0x678 PUSH8 0xCF6CFD6F3C7AF274 PUSH1 0xC0 SHL PUSH2 0xAD8 JUMP JUMPDEST PUSH2 0x68C PUSH8 0x91415C8F5F91BC25 PUSH1 0xC0 SHL PUSH2 0xAD8 JUMP JUMPDEST PUSH2 0x6A0 PUSH8 0x76EE22D0BAE75320 PUSH1 0xC0 SHL PUSH2 0xAD8 JUMP JUMPDEST PUSH1 0x33 PUSH1 0x0 DUP4 PUSH20 0xFFFFFFFFFFFFFFFFFFFFFFFFFFFFFFFFFFFFFFFF AND PUSH20 0xFFFFFFFFFFFFFFFFFFFFFFFFFFFFFFFFFFFFFFFF AND DUP2 MSTORE PUSH1 0x20 ADD SWAP1 DUP2 MSTORE PUSH1 0x20 ADD PUSH1 0x0 KECCAK256 SLOAD SWAP1 POP SWAP2 SWAP1 POP JUMP JUMPDEST PUSH1 0x38 PUSH1 0x20 MSTORE DUP1 PUSH1 0x0 MSTORE PUSH1 0x40 PUSH1 0x0 KECCAK256 PUSH1 0x0 SWAP2 POP SLOAD SWAP1 PUSH2 0x100 EXP SWAP1 DIV PUSH1 0xFF AND DUP2 JUMP JUMPDEST PUSH1 0x60 PUSH2 0x71D PUSH8 0x3DC54305972E17EA PUSH1 0xC0 SHL PUSH2 0xAD8 JUMP JUMPDEST PUSH2 0x731 PUSH8 0xFB9D13DC6E588A58 PUSH1 0xC0 SHL PUSH2 0xAD8 JUMP JUMPDEST PUSH2 0x745 PUSH8 0x3BE019C921453FF6 PUSH1 0xC0 SHL PUSH2 0xAD8 JUMP JUMPDEST PUSH1 0x37 DUP1 SLOAD PUSH2 0x752 SWAP1 PUSH2 0x1831 JUMP JUMPDEST DUP1 PUSH1 0x1F ADD PUSH1 0x20 DUP1 SWAP2 DIV MUL PUSH1 0x20 ADD PUSH1 0x40 MLOAD SWAP1 DUP2 ADD PUSH1 0x40 MSTORE DUP1 SWAP3 SWAP2 SWAP1 DUP2 DUP2 MSTORE PUSH1 0x20 ADD DUP3 DUP1 SLOAD PUSH2 0x77E SWAP1 PUSH2 0x1831 JUMP JUMPDEST DUP1 ISZERO PUSH2 0x7CB JUMPI DUP1 PUSH1 0x1F LT PUSH2 0x7A0 JUMPI PUSH2 0x100 DUP1 DUP4 SLOAD DIV MUL DUP4 MSTORE SWAP2 PUSH1 0x20 ADD SWAP2 PUSH2 0x7CB JUMP JUMPDEST DUP3 ADD SWAP2 SWAP1 PUSH1 0x0 MSTORE PUSH1 0x20 PUSH1 0x0 KECCAK256 SWAP1 JUMPDEST DUP2 SLOAD DUP2 MSTORE SWAP1 PUSH1 0x1 ADD SWAP1 PUSH1 0x20 ADD DUP1 DUP4 GT PUSH2 0x7AE JUMPI DUP3 SWAP1 SUB PUSH1 0x1F AND DUP3 ADD SWAP2 JUMPDEST POP POP POP POP POP SWAP1 POP SWAP1 JUMP JUMPDEST PUSH1 0x0 PUSH2 0x7EB PUSH8 0xA873271E6AD38481 PUSH1 0xC0 SHL PUSH2 0xAD8 JUMP JUMPDEST PUSH2 0x7FF PUSH8 0xCFE918A45701DE51 PUSH1 0xC0 SHL PUSH2 0xAD8 JUMP JUMPDEST PUSH2 0x813 PUSH8 0x84A5B39DA8A871B2 PUSH1 0xC0 SHL PUSH2 0xAD8 JUMP JUMPDEST PUSH1 0x0 PUSH2 0x81D PUSH2 0xADB JUMP JUMPDEST SWAP1 POP PUSH2 0x833 PUSH8 0x6682A132F458A0F9 PUSH1 0xC0 SHL PUSH2 0xAD8 JUMP JUMPDEST PUSH2 0x847 PUSH8 0x44618E53F61C11A0 PUSH1 0xC0 SHL PUSH2 0xAD8 JUMP JUMPDEST PUSH1 0x0 PUSH2 0x853 DUP3 DUP7 PUSH2 0xA15 JUMP JUMPDEST SWAP1 POP PUSH2 0x869 PUSH8 0x17B9FB5B9762AA1E PUSH1 0xC0 SHL PUSH2 0xAD8 JUMP JUMPDEST PUSH2 0x87D PUSH8 0x4306B5EE4F89F5F8 PUSH1 0xC0 SHL PUSH2 0xAD8 JUMP JUMPDEST PUSH2 0x891 PUSH8 0xA5A9620D306E565 PUSH1 0xC0 SHL PUSH2 0xAD8 JUMP JUMPDEST DUP4 DUP2 LT ISZERO PUSH2 0x8D4 JUMPI PUSH1 0x40 MLOAD PUSH32 0x8C379A000000000000000000000000000000000000000000000000000000000 DUP2 MSTORE PUSH1 0x4 ADD PUSH2 0x8CB SWAP1 PUSH2 0x1937 JUMP JUMPDEST PUSH1 0x40 MLOAD DUP1 SWAP2 SUB SWAP1 REVERT JUMPDEST PUSH2 0x8E8 PUSH8 0xF46D481EB7C45760 PUSH1 0xC0 SHL PUSH2 0xAD8 JUMP JUMPDEST PUSH2 0x8FC PUSH8 0x727D438BC81971BB PUSH1 0xC0 SHL PUSH2 0xAD8 JUMP JUMPDEST PUSH2 0x910 PUSH8 0xD8ADA52A3AAE0E31 PUSH1 0xC0 SHL PUSH2 0xAD8 JUMP JUMPDEST PUSH2 0x924 PUSH8 0xBA4B43A44F1EB00 PUSH1 0xC0 SHL PUSH2 0xAD8 JUMP JUMPDEST PUSH2 0x931 DUP3 DUP7 DUP7 DUP5 SUB PUSH2 0xAE3 JUMP JUMPDEST PUSH2 0x945 PUSH8 0xF23E17121EFCDD9D PUSH1 0xC0 SHL PUSH2 0xAD8 JUMP JUMPDEST PUSH2 0x959 PUSH8 0xFE93E3667119FCE5 PUSH1 0xC0 SHL PUSH2 0xAD8 JUMP JUMPDEST PUSH1 0x1 SWAP3 POP POP POP SWAP3 SWAP2 POP POP JUMP JUMPDEST PUSH1 0x0 PUSH2 0x97B PUSH8 0x1A059D41D4A80A87 PUSH1 0xC0 SHL PUSH2 0xAD8 JUMP JUMPDEST PUSH2 0x98F PUSH8 0xB300F9590BCFCBD9 PUSH1 0xC0 SHL PUSH2 0xAD8 JUMP JUMPDEST PUSH2 0x9A3 PUSH8 0xBD32CD2354358D64 PUSH1 0xC0 SHL PUSH2 0xAD8 JUMP JUMPDEST PUSH1 0x0 PUSH2 0x9AD PUSH2 0xADB JUMP JUMPDEST SWAP1 POP PUSH2 0x9C3 PUSH8 0x74B5EF0773108426 PUSH1 0xC0 SHL PUSH2 0xAD8 JUMP JUMPDEST PUSH2 0x9D7 PUSH8 0x12FCBCEA2F54BC97 PUSH1 0xC0 SHL PUSH2 0xAD8 JUMP JUMPDEST PUSH2 0x9E2 DUP2 DUP6 DUP6 PUSH2 0xF45 JUMP JUMPDEST PUSH2 0x9F6 PUSH8 0x6BAE913C4001D870 PUSH1 0xC0 SHL PUSH2 0xAD8 JUMP JUMPDEST PUSH2 0xA0A PUSH8 0xEE3A671C1A061FD2 PUSH1 0xC0 SHL PUSH2 0xAD8 JUMP JUMPDEST PUSH1 0x1 SWAP2 POP POP SWAP3 SWAP2 POP POP JUMP JUMPDEST PUSH1 0x0 PUSH2 0xA2B PUSH8 0xC2F816634474A7AE PUSH1 0xC0 SHL PUSH2 0xAD8 JUMP JUMPDEST PUSH2 0xA3F PUSH8 0x31E2B61681827AD5 PUSH1 0xC0 SHL PUSH2 0xAD8 JUMP JUMPDEST PUSH2 0xA53 PUSH8 0xE95CFBB3A68540C9 PUSH1 0xC0 SHL PUSH2 0xAD8 JUMP JUMPDEST PUSH1 0x34 PUSH1 0x0 DUP5 PUSH20 0xFFFFFFFFFFFFFFFFFFFFFFFFFFFFFFFFFFFFFFFF AND PUSH20 0xFFFFFFFFFFFFFFFFFFFFFFFFFFFFFFFFFFFFFFFF AND DUP2 MSTORE PUSH1 0x20 ADD SWAP1 DUP2 MSTORE PUSH1 0x20 ADD PUSH1 0x0 KECCAK256 PUSH1 0x0 DUP4 PUSH20 0xFFFFFFFFFFFFFFFFFFFFFFFFFFFFFFFFFFFFFFFF AND PUSH20 0xFFFFFFFFFFFFFFFFFFFFFFFFFFFFFFFFFFFFFFFF AND DUP2 MSTORE PUSH1 0x20 ADD SWAP1 DUP2 MSTORE PUSH1 0x20 ADD PUSH1 0x0 KECCAK256 SLOAD SWAP1 POP SWAP3 SWAP2 POP POP JUMP JUMPDEST POP JUMP JUMPDEST PUSH1 0x0 CALLER SWAP1 POP SWAP1 JUMP JUMPDEST PUSH2 0xAF7 PUSH8 0x4B88D485F6E76B95 PUSH1 0xC0 SHL PUSH2 0xAD8 JUMP JUMPDEST PUSH2 0xB0B PUSH8 0x93606422F413E366 PUSH1 0xC0 SHL PUSH2 0xAD8 JUMP JUMPDEST PUSH2 0xB1F PUSH8 0xF61947AD80DB2805 PUSH1 0xC0 SHL PUSH2 0xAD8 JUMP JUMPDEST PUSH2 0xB33 PUSH8 0x83C5C766E31A745B PUSH1 0xC0 SHL PUSH2 0xAD8 JUMP JUMPDEST PUSH1 0x0 PUSH20 0xFFFFFFFFFFFFFFFFFFFFFFFFFFFFFFFFFFFFFFFF AND DUP4 PUSH20 0xFFFFFFFFFFFFFFFFFFFFFFFFFFFFFFFFFFFFFFFF AND SUB PUSH2 0xBA2 JUMPI PUSH1 0x40 MLOAD PUSH32 0x8C379A000000000000000000000000000000000000000000000000000000000 DUP2 MSTORE PUSH1 0x4 ADD PUSH2 0xB99 SWAP1 PUSH2 0x19C9 JUMP JUMPDEST PUSH1 0x40 MLOAD DUP1 SWAP2 SUB SWAP1 REVERT JUMPDEST PUSH2 0xBB6 PUSH8 0xDFB9D976B400069A PUSH1 0xC0 SHL PUSH2 0xAD8 JUMP JUMPDEST PUSH2 0xBCA PUSH8 0x331CF4800FF77F42 PUSH1 0xC0 SHL PUSH2 0xAD8 JUMP JUMPDEST PUSH2 0xBDE PUSH8 0x63C9257B187F29B4 PUSH1 0xC0 SHL PUSH2 0xAD8 JUMP JUMPDEST PUSH2 0xBF2 PUSH8 0x7F4953D0E5300EAB PUSH1 0xC0 SHL PUSH2 0xAD8 JUMP JUMPDEST PUSH1 0x0 PUSH20 0xFFFFFFFFFFFFFFFFFFFFFFFFFFFFFFFFFFFFFFFF AND DUP3 PUSH20 0xFFFFFFFFFFFFFFFFFFFFFFFFFFFFFFFFFFFFFFFF AND SUB PUSH2 0xC61 JUMPI PUSH1 0x40 MLOAD PUSH32 0x8C379A000000000000000000000000000000000000000000000000000000000 DUP2 MSTORE PUSH1 0x4 ADD PUSH2 0xC58 SWAP1 PUSH2 0x1A5B JUMP JUMPDEST PUSH1 0x40 MLOAD DUP1 SWAP2 SUB SWAP1 REVERT JUMPDEST PUSH2 0xC75 PUSH8 0xB61C7D27C32E0B71 PUSH1 0xC0 SHL PUSH2 0xAD8 JUMP JUMPDEST PUSH2 0xC89 PUSH8 0x76AD9F179CD6468B PUSH1 0xC0 SHL PUSH2 0xAD8 JUMP JUMPDEST DUP1 PUSH1 0x34 PUSH1 0x0 DUP6 PUSH20 0xFFFFFFFFFFFFFFFFFFFFFFFFFFFFFFFFFFFFFFFF AND PUSH20 0xFFFFFFFFFFFFFFFFFFFFFFFFFFFFFFFFFFFFFFFF AND DUP2 MSTORE PUSH1 0x20 ADD SWAP1 DUP2 MSTORE PUSH1 0x20 ADD PUSH1 0x0 KECCAK256 PUSH1 0x0 DUP5 PUSH20 0xFFFFFFFFFFFFFFFFFFFFFFFFFFFFFFFFFFFFFFFF AND PUSH20 0xFFFFFFFFFFFFFFFFFFFFFFFFFFFFFFFFFFFFFFFF AND DUP2 MSTORE PUSH1 0x20 ADD SWAP1 DUP2 MSTORE PUSH1 0x20 ADD PUSH1 0x0 KECCAK256 DUP2 SWAP1 SSTORE POP PUSH2 0xD1E PUSH8 0xEA6818DA5DD4DE05 PUSH1 0xC0 SHL PUSH2 0xAD8 JUMP JUMPDEST PUSH2 0xD32 PUSH8 0x53DF8F353C68C325 PUSH1 0xC0 SHL PUSH2 0xAD8 JUMP JUMPDEST DUP2 PUSH20 0xFFFFFFFFFFFFFFFFFFFFFFFFFFFFFFFFFFFFFFFF AND DUP4 PUSH20 0xFFFFFFFFFFFFFFFFFFFFFFFFFFFFFFFFFFFFFFFF AND PUSH32 0x8C5BE1E5EBEC7D5BD14F71427D1E84F3DD0314C0F7B2291E5B200AC8C7C3B925 DUP4 PUSH1 0x40 MLOAD PUSH2 0xD8F SWAP2 SWAP1 PUSH2 0x16F0 JUMP JUMPDEST PUSH1 0x40 MLOAD DUP1 SWAP2 SUB SWAP1 LOG3 POP POP POP JUMP JUMPDEST PUSH2 0xDB0 PUSH8 0x321EF60C190BA467 PUSH1 0xC0 SHL PUSH2 0xAD8 JUMP JUMPDEST PUSH2 0xDC4 PUSH8 0xE4ED714F179DA9FD PUSH1 0xC0 SHL PUSH2 0xAD8 JUMP JUMPDEST PUSH2 0xDD8 PUSH8 0xD74A59F4E27685AB PUSH1 0xC0 SHL PUSH2 0xAD8 JUMP JUMPDEST PUSH1 0x0 PUSH2 0xDE4 DUP5 DUP5 PUSH2 0xA15 JUMP JUMPDEST SWAP1 POP PUSH2 0xDFA PUSH8 0xECB2651B42DDD162 PUSH1 0xC0 SHL PUSH2 0xAD8 JUMP JUMPDEST PUSH2 0xE0E PUSH8 0xE86535689DB88197 PUSH1 0xC0 SHL PUSH2 0xAD8 JUMP JUMPDEST PUSH32 0xFFFFFFFFFFFFFFFFFFFFFFFFFFFFFFFFFFFFFFFFFFFFFFFFFFFFFFFFFFFFFFFF DUP2 EQ PUSH2 0xF2A JUMPI PUSH2 0xE49 PUSH8 0x1B4116D119FED990 PUSH1 0xC0 SHL PUSH2 0xAD8 JUMP JUMPDEST PUSH2 0xE5D PUSH8 0x9C14F1482EBD3F03 PUSH1 0xC0 SHL PUSH2 0xAD8 JUMP JUMPDEST PUSH2 0xE71 PUSH8 0xD145E9F104D95DF7 PUSH1 0xC0 SHL PUSH2 0xAD8 JUMP JUMPDEST PUSH2 0xE85 PUSH8 0xC5B6C10D3C73B8C0 PUSH1 0xC0 SHL PUSH2 0xAD8 JUMP JUMPDEST DUP2 DUP2 LT ISZERO PUSH2 0xEC8 JUMPI PUSH1 0x40 MLOAD PUSH32 0x8C379A000000000000000000000000000000000000000000000000000000000 DUP2 MSTORE PUSH1 0x4 ADD PUSH2 0xEBF SWAP1 PUSH2 0x1AC7 JUMP JUMPDEST PUSH1 0x40 MLOAD DUP1 SWAP2 SUB SWAP1 REVERT JUMPDEST PUSH2 0xEDC PUSH8 0x6ADAE15A164C1D41 PUSH1 0xC0 SHL PUSH2 0xAD8 JUMP JUMPDEST PUSH2 0xEF0 PUSH8 0xA27DA2E601A0A240 PUSH1 0xC0 SHL PUSH2 0xAD8 JUMP JUMPDEST PUSH2 0xF04 PUSH8 0x57D26C6D4D17E118 PUSH1 0xC0 SHL PUSH2 0xAD8 JUMP JUMPDEST PUSH2 0xF18 PUSH8 0x465A6ADE2C659287 PUSH1 0xC0 SHL PUSH2 0xAD8 JUMP JUMPDEST PUSH2 0xF25 DUP5 DUP5 DUP5 DUP5 SUB PUSH2 0xAE3 JUMP JUMPDEST PUSH2 0xF3F JUMP JUMPDEST PUSH2 0xF3E PUSH8 0x42503D4FECED536F PUSH1 0xC0 SHL PUSH2 0xAD8 JUMP JUMPDEST JUMPDEST POP POP POP POP JUMP JUMPDEST PUSH2 0xF59 PUSH8 0xDA5313F878B2A560 PUSH1 0xC0 SHL PUSH2 0xAD8 JUMP JUMPDEST PUSH2 0xF6D PUSH8 0xE7C676E329341319 PUSH1 0xC0 SHL PUSH2 0xAD8 JUMP JUMPDEST PUSH2 0xF81 PUSH8 0xEF7FDAFCDBD5899F PUSH1 0xC0 SHL PUSH2 0xAD8 JUMP JUMPDEST PUSH2 0xF95 PUSH8 0xBA544287EB6B716B PUSH1 0xC0 SHL PUSH2 0xAD8 JUMP JUMPDEST PUSH1 0x0 PUSH20 0xFFFFFFFFFFFFFFFFFFFFFFFFFFFFFFFFFFFFFFFF AND DUP4 PUSH20 0xFFFFFFFFFFFFFFFFFFFFFFFFFFFFFFFFFFFFFFFF AND SUB PUSH2 0x1004 JUMPI PUSH1 0x40 MLOAD PUSH32 0x8C379A000000000000000000000000000000000000000000000000000000000 DUP2 MSTORE PUSH1 0x4 ADD PUSH2 0xFFB SWAP1 PUSH2 0x1B59 JUMP JUMPDEST PUSH1 0x40 MLOAD DUP1 SWAP2 SUB SWAP1 REVERT JUMPDEST PUSH2 0x1018 PUSH8 0x80C1595C0274FBE9 PUSH1 0xC0 SHL PUSH2 0xAD8 JUMP JUMPDEST PUSH2 0x102C PUSH8 0x3F4F718C38C375FE PUSH1 0xC0 SHL PUSH2 0xAD8 JUMP JUMPDEST PUSH2 0x1040 PUSH8 0xBF3BF3F712DAF563 PUSH1 0xC0 SHL PUSH2 0xAD8 JUMP JUMPDEST PUSH2 0x1054 PUSH8 0xE823D7D6CAAE29FF PUSH1 0xC0 SHL PUSH2 0xAD8 JUMP JUMPDEST PUSH1 0x0 PUSH20 0xFFFFFFFFFFFFFFFFFFFFFFFFFFFFFFFFFFFFFFFF AND DUP3 PUSH20 0xFFFFFFFFFFFFFFFFFFFFFFFFFFFFFFFFFFFFFFFF AND SUB PUSH2 0x10C3 JUMPI PUSH1 0x40 MLOAD PUSH32 0x8C379A000000000000000000000000000000000000000000000000000000000 DUP2 MSTORE PUSH1 0x4 ADD PUSH2 0x10BA SWAP1 PUSH2 0x1BEB JUMP JUMPDEST PUSH1 0x40 MLOAD DUP1 SWAP2 SUB SWAP1 REVERT JUMPDEST PUSH2 0x10D7 PUSH8 0xE576C5B51C8B5280 PUSH1 0xC0 SHL PUSH2 0xAD8 JUMP JUMPDEST PUSH2 0x10EB PUSH8 0xEBE817E0272C9EB6 PUSH1 0xC0 SHL PUSH2 0xAD8 JUMP JUMPDEST PUSH2 0x10FF PUSH8 0x6B423680E18FB116 PUSH1 0xC0 SHL PUSH2 0xAD8 JUMP JUMPDEST PUSH2 0x110A DUP4 DUP4 DUP4 PUSH2 0x13A7 JUMP JUMPDEST PUSH2 0x111E PUSH8 0xE51FBD5231AC0667 PUSH1 0xC0 SHL PUSH2 0xAD8 JUMP JUMPDEST PUSH2 0x1132 PUSH8 0x6B00924884A2206C PUSH1 0xC0 SHL PUSH2 0xAD8 JUMP JUMPDEST PUSH1 0x0 PUSH1 0x33 PUSH1 0x0 DUP6 PUSH20 0xFFFFFFFFFFFFFFFFFFFFFFFFFFFFFFFFFFFFFFFF AND PUSH20 0xFFFFFFFFFFFFFFFFFFFFFFFFFFFFFFFFFFFFFFFF AND DUP2 MSTORE PUSH1 0x20 ADD SWAP1 DUP2 MSTORE PUSH1 0x20 ADD PUSH1 0x0 KECCAK256 SLOAD SWAP1 POP PUSH2 0x118A PUSH8 0xF2CB39A5978AE8F3 PUSH1 0xC0 SHL PUSH2 0xAD8 JUMP JUMPDEST PUSH2 0x119E PUSH8 0xA42FA0770BAB288A PUSH1 0xC0 SHL PUSH2 0xAD8 JUMP JUMPDEST PUSH2 0x11B2 PUSH8 0x84E7CE63F3EC7B5B PUSH1 0xC0 SHL PUSH2 0xAD8 JUMP JUMPDEST DUP2 DUP2 LT ISZERO PUSH2 0x11F5 JUMPI PUSH1 0x40 MLOAD PUSH32 0x8C379A000000000000000000000000000000000000000000000000000000000 DUP2 MSTORE PUSH1 0x4 ADD PUSH2 0x11EC SWAP1 PUSH2 0x1C7D JUMP JUMPDEST PUSH1 0x40 MLOAD DUP1 SWAP2 SUB SWAP1 REVERT JUMPDEST PUSH2 0x1209 PUSH8 0x90F03FF30B6BE67C PUSH1 0xC0 SHL PUSH2 0xAD8 JUMP JUMPDEST PUSH2 0x121D PUSH8 0x1004286E65991A8C PUSH1 0xC0 SHL PUSH2 0xAD8 JUMP JUMPDEST PUSH2 0x1231 PUSH8 0xF4340C34F2E122B3 PUSH1 0xC0 SHL PUSH2 0xAD8 JUMP JUMPDEST DUP2 DUP2 SUB PUSH1 0x33 PUSH1 0x0 DUP7 PUSH20 0xFFFFFFFFFFFFFFFFFFFFFFFFFFFFFFFFFFFFFFFF AND PUSH20 0xFFFFFFFFFFFFFFFFFFFFFFFFFFFFFFFFFFFFFFFF AND DUP2 MSTORE PUSH1 0x20 ADD SWAP1 DUP2 MSTORE PUSH1 0x20 ADD PUSH1 0x0 KECCAK256 DUP2 SWAP1 SSTORE POP PUSH2 0x128B PUSH8 0x1AEBF4C4B494D3C8 PUSH1 0xC0 SHL PUSH2 0xAD8 JUMP JUMPDEST DUP2 PUSH1 0x33 PUSH1 0x0 DUP6 PUSH20 0xFFFFFFFFFFFFFFFFFFFFFFFFFFFFFFFFFFFFFFFF AND PUSH20 0xFFFFFFFFFFFFFFFFFFFFFFFFFFFFFFFFFFFFFFFF AND DUP2 MSTORE PUSH1 0x20 ADD SWAP1 DUP2 MSTORE PUSH1 0x20 ADD PUSH1 0x0 KECCAK256 PUSH1 0x0 DUP3 DUP3 SLOAD PUSH2 0x12DA SWAP2 SWAP1 PUSH2 0x1891 JUMP JUMPDEST SWAP3 POP POP DUP2 SWAP1 SSTORE POP PUSH2 0x12F5 PUSH8 0xAA50E6F7F3BDB751 PUSH1 0xC0 SHL PUSH2 0xAD8 JUMP JUMPDEST PUSH2 0x1309 PUSH8 0x7CBC950FDCB9DB27 PUSH1 0xC0 SHL PUSH2 0xAD8 JUMP JUMPDEST DUP3 PUSH20 0xFFFFFFFFFFFFFFFFFFFFFFFFFFFFFFFFFFFFFFFF AND DUP5 PUSH20 0xFFFFFFFFFFFFFFFFFFFFFFFFFFFFFFFFFFFFFFFF AND PUSH32 0xDDF252AD1BE2C89B69C2B068FC378DAA952BA7F163C4A11628F55A4DF523B3EF DUP5 PUSH1 0x40 MLOAD PUSH2 0x1366 SWAP2 SWAP1 PUSH2 0x16F0 JUMP JUMPDEST PUSH1 0x40 MLOAD DUP1 SWAP2 SUB SWAP1 LOG3 PUSH2 0x1382 PUSH8 0xC9BA652C062C32E0 PUSH1 0xC0 SHL PUSH2 0xAD8 JUMP JUMPDEST PUSH2 0x1396 PUSH8 0x36E2466123452955 PUSH1 0xC0 SHL PUSH2 0xAD8 JUMP JUMPDEST PUSH2 0x13A1 DUP5 DUP5 DUP5 PUSH2 0x1507 JUMP JUMPDEST POP POP POP POP JUMP JUMPDEST PUSH2 0x13BB PUSH8 0x1B437CD840361FC5 PUSH1 0xC0 SHL PUSH2 0xAD8 JUMP JUMPDEST PUSH2 0x13CF PUSH8 0xC568186EF9C5559A PUSH1 0xC0 SHL PUSH2 0xAD8 JUMP JUMPDEST PUSH2 0x13E3 PUSH8 0x23A773AF8FB00646 PUSH1 0xC0 SHL PUSH2 0xAD8 JUMP JUMPDEST PUSH2 0x13F7 PUSH8 0xC2D6DECA9ED9A078 PUSH1 0xC0 SHL PUSH2 0xAD8 JUMP JUMPDEST PUSH1 0x38 PUSH1 0x0 DUP5 PUSH20 0xFFFFFFFFFFFFFFFFFFFFFFFFFFFFFFFFFFFFFFFF AND PUSH20 0xFFFFFFFFFFFFFFFFFFFFFFFFFFFFFFFFFFFFFFFF AND DUP2 MSTORE PUSH1 0x20 ADD SWAP1 DUP2 MSTORE PUSH1 0x20 ADD PUSH1 0x0 KECCAK256 PUSH1 0x0 SWAP1 SLOAD SWAP1 PUSH2 0x100 EXP SWAP1 DIV PUSH1 0xFF AND ISZERO DUP1 ISZERO PUSH2 0x149B JUMPI POP PUSH1 0x38 PUSH1 0x0 DUP4 PUSH20 0xFFFFFFFFFFFFFFFFFFFFFFFFFFFFFFFFFFFFFFFF AND PUSH20 0xFFFFFFFFFFFFFFFFFFFFFFFFFFFFFFFFFFFFFFFF AND DUP2 MSTORE PUSH1 0x20 ADD SWAP1 DUP2 MSTORE PUSH1 0x20 ADD PUSH1 0x0 KECCAK256 PUSH1 0x0 SWAP1 SLOAD SWAP1 PUSH2 0x100 EXP SWAP1 DIV PUSH1 0xFF AND ISZERO JUMPDEST PUSH2 0x14DA JUMPI PUSH1 0x40 MLOAD PUSH32 0x8C379A000000000000000000000000000000000000000000000000000000000 DUP2 MSTORE PUSH1 0x4 ADD PUSH2 0x14D1 SWAP1 PUSH2 0x1CE9 JUMP JUMPDEST PUSH1 0x40 MLOAD DUP1 SWAP2 SUB SWAP1 REVERT JUMPDEST PUSH2 0x14EE PUSH8 0xFF4C715CD3506D79 PUSH1 0xC0 SHL PUSH2 0xAD8 JUMP JUMPDEST PUSH2 0x1502 PUSH8 0xAC7FAEE281CC04A6 PUSH1 0xC0 SHL PUSH2 0xAD8 JUMP JUMPDEST POP POP POP JUMP JUMPDEST PUSH2 0x151B PUSH8 0x6594D24C77EA8B34 PUSH1 0xC0 SHL PUSH2 0xAD8 JUMP JUMPDEST POP POP POP JUMP JUMPDEST PUSH1 0x0 DUP2 MLOAD SWAP1 POP SWAP2 SWAP1 POP JUMP JUMPDEST PUSH1 0x0 DUP3 DUP3 MSTORE PUSH1 0x20 DUP3 ADD SWAP1 POP SWAP3 SWAP2 POP POP JUMP JUMPDEST PUSH1 0x0 JUMPDEST DUP4 DUP2 LT ISZERO PUSH2 0x155A JUMPI DUP1 DUP3 ADD MLOAD DUP2 DUP5 ADD MSTORE PUSH1 0x20 DUP2 ADD SWAP1 POP PUSH2 0x153F JUMP JUMPDEST PUSH1 0x0 DUP5 DUP5 ADD MSTORE POP POP POP POP JUMP JUMPDEST PUSH1 0x0 PUSH1 0x1F NOT PUSH1 0x1F DUP4 ADD AND SWAP1 POP SWAP2 SWAP1 POP JUMP JUMPDEST PUSH1 0x0 PUSH2 0x1582 DUP3 PUSH2 0x1520 JUMP JUMPDEST PUSH2 0x158C DUP2 DUP6 PUSH2 0x152B JUMP JUMPDEST SWAP4 POP PUSH2 0x159C DUP2 DUP6 PUSH1 0x20 DUP7 ADD PUSH2 0x153C JUMP JUMPDEST PUSH2 0x15A5 DUP2 PUSH2 0x1566 JUMP JUMPDEST DUP5 ADD SWAP2 POP POP SWAP3 SWAP2 POP POP JUMP JUMPDEST PUSH1 0x0 PUSH1 0x20 DUP3 ADD SWAP1 POP DUP2 DUP2 SUB PUSH1 0x0 DUP4 ADD MSTORE PUSH2 0x15CA DUP2 DUP5 PUSH2 0x1577 JUMP JUMPDEST SWAP1 POP SWAP3 SWAP2 POP POP JUMP JUMPDEST PUSH1 0x0 DUP1 REVERT JUMPDEST PUSH1 0x0 PUSH20 0xFFFFFFFFFFFFFFFFFFFFFFFFFFFFFFFFFFFFFFFF DUP3 AND SWAP1 POP SWAP2 SWAP1 POP JUMP JUMPDEST PUSH1 0x0 PUSH2 0x1602 DUP3 PUSH2 0x15D7 JUMP JUMPDEST SWAP1 POP SWAP2 SWAP1 POP JUMP JUMPDEST PUSH2 0x1612 DUP2 PUSH2 0x15F7 JUMP JUMPDEST DUP2 EQ PUSH2 0x161D JUMPI PUSH1 0x0 DUP1 REVERT JUMPDEST POP JUMP JUMPDEST PUSH1 0x0 DUP2 CALLDATALOAD SWAP1 POP PUSH2 0x162F DUP2 PUSH2 0x1609 JUMP JUMPDEST SWAP3 SWAP2 POP POP JUMP JUMPDEST PUSH1 0x0 DUP2 SWAP1 POP SWAP2 SWAP1 POP JUMP JUMPDEST PUSH2 0x1648 DUP2 PUSH2 0x1635 JUMP JUMPDEST DUP2 EQ PUSH2 0x1653 JUMPI PUSH1 0x0 DUP1 REVERT JUMPDEST POP JUMP JUMPDEST PUSH1 0x0 DUP2 CALLDATALOAD SWAP1 POP PUSH2 0x1665 DUP2 PUSH2 0x163F JUMP JUMPDEST SWAP3 SWAP2 POP POP JUMP JUMPDEST PUSH1 0x0 DUP1 PUSH1 0x40 DUP4 DUP6 SUB SLT ISZERO PUSH2 0x1682 JUMPI PUSH2 0x1681 PUSH2 0x15D2 JUMP JUMPDEST JUMPDEST PUSH1 0x0 PUSH2 0x1690 DUP6 DUP3 DUP7 ADD PUSH2 0x1620 JUMP JUMPDEST SWAP3 POP POP PUSH1 0x20 PUSH2 0x16A1 DUP6 DUP3 DUP7 ADD PUSH2 0x1656 JUMP JUMPDEST SWAP2 POP POP SWAP3 POP SWAP3 SWAP1 POP JUMP JUMPDEST PUSH1 0x0 DUP2 ISZERO ISZERO SWAP1 POP SWAP2 SWAP1 POP JUMP JUMPDEST PUSH2 0x16C0 DUP2 PUSH2 0x16AB JUMP JUMPDEST DUP3 MSTORE POP POP JUMP JUMPDEST PUSH1 0x0 PUSH1 0x20 DUP3 ADD SWAP1 POP PUSH2 0x16DB PUSH1 0x0 DUP4 ADD DUP5 PUSH2 0x16B7 JUMP JUMPDEST SWAP3 SWAP2 POP POP JUMP JUMPDEST PUSH2 0x16EA DUP2 PUSH2 0x1635 JUMP JUMPDEST DUP3 MSTORE POP POP JUMP JUMPDEST PUSH1 0x0 PUSH1 0x20 DUP3 ADD SWAP1 POP PUSH2 0x1705 PUSH1 0x0 DUP4 ADD DUP5 PUSH2 0x16E1 JUMP JUMPDEST SWAP3 SWAP2 POP POP JUMP JUMPDEST PUSH1 0x0 DUP1 PUSH1 0x0 PUSH1 0x60 DUP5 DUP7 SUB SLT ISZERO PUSH2 0x1724 JUMPI PUSH2 0x1723 PUSH2 0x15D2 JUMP JUMPDEST JUMPDEST PUSH1 0x0 PUSH2 0x1732 DUP7 DUP3 DUP8 ADD PUSH2 0x1620 JUMP JUMPDEST SWAP4 POP POP PUSH1 0x20 PUSH2 0x1743 DUP7 DUP3 DUP8 ADD PUSH2 0x1620 JUMP JUMPDEST SWAP3 POP POP PUSH1 0x40 PUSH2 0x1754 DUP7 DUP3 DUP8 ADD PUSH2 0x1656 JUMP JUMPDEST SWAP2 POP POP SWAP3 POP SWAP3 POP SWAP3 JUMP JUMPDEST PUSH1 0x0 PUSH1 0xFF DUP3 AND SWAP1 POP SWAP2 SWAP1 POP JUMP JUMPDEST PUSH2 0x1774 DUP2 PUSH2 0x175E JUMP JUMPDEST DUP3 MSTORE POP POP JUMP JUMPDEST PUSH1 0x0 PUSH1 0x20 DUP3 ADD SWAP1 POP PUSH2 0x178F PUSH1 0x0 DUP4 ADD DUP5 PUSH2 0x176B JUMP JUMPDEST SWAP3 SWAP2 POP POP JUMP JUMPDEST PUSH1 0x0 PUSH1 0x20 DUP3 DUP5 SUB SLT ISZERO PUSH2 0x17AB JUMPI PUSH2 0x17AA PUSH2 0x15D2 JUMP JUMPDEST JUMPDEST PUSH1 0x0 PUSH2 0x17B9 DUP5 DUP3 DUP6 ADD PUSH2 0x1620 JUMP JUMPDEST SWAP2 POP POP SWAP3 SWAP2 POP POP JUMP JUMPDEST PUSH1 0x0 DUP1 PUSH1 0x40 DUP4 DUP6 SUB SLT ISZERO PUSH2 0x17D9 JUMPI PUSH2 0x17D8 PUSH2 0x15D2 JUMP JUMPDEST JUMPDEST PUSH1 0x0 PUSH2 0x17E7 DUP6 DUP3 DUP7 ADD PUSH2 0x1620 JUMP JUMPDEST SWAP3 POP POP PUSH1 0x20 PUSH2 0x17F8 DUP6 DUP3 DUP7 ADD PUSH2 0x1620 JUMP JUMPDEST SWAP2 POP POP SWAP3 POP SWAP3 SWAP1 POP JUMP JUMPDEST PUSH32 0x4E487B7100000000000000000000000000000000000000000000000000000000 PUSH1 0x0 MSTORE PUSH1 0x22 PUSH1 0x4 MSTORE PUSH1 0x24 PUSH1 0x0 REVERT JUMPDEST PUSH1 0x0 PUSH1 0x2 DUP3 DIV SWAP1 POP PUSH1 0x1 DUP3 AND DUP1 PUSH2 0x1849 JUMPI PUSH1 0x7F DUP3 AND SWAP2 POP JUMPDEST PUSH1 0x20 DUP3 LT DUP2 SUB PUSH2 0x185C JUMPI PUSH2 0x185B PUSH2 0x1802 JUMP JUMPDEST JUMPDEST POP SWAP2 SWAP1 POP JUMP JUMPDEST PUSH32 0x4E487B7100000000000000000000000000000000000000000000000000000000 PUSH1 0x0 MSTORE PUSH1 0x11 PUSH1 0x4 MSTORE PUSH1 0x24 PUSH1 0x0 REVERT JUMPDEST PUSH1 0x0 PUSH2 0x189C DUP3 PUSH2 0x1635 JUMP JUMPDEST SWAP2 POP PUSH2 0x18A7 DUP4 PUSH2 0x1635 JUMP JUMPDEST SWAP3 POP DUP3 DUP3 ADD SWAP1 POP DUP1 DUP3 GT ISZERO PUSH2 0x18BF JUMPI PUSH2 0x18BE PUSH2 0x1862 JUMP JUMPDEST JUMPDEST SWAP3 SWAP2 POP POP JUMP JUMPDEST PUSH32 0x45524332303A2064656372656173656420616C6C6F77616E63652062656C6F77 PUSH1 0x0 DUP3 ADD MSTORE PUSH32 0x207A65726F000000000000000000000000000000000000000000000000000000 PUSH1 0x20 DUP3 ADD MSTORE POP JUMP JUMPDEST PUSH1 0x0 PUSH2 0x1921 PUSH1 0x25 DUP4 PUSH2 0x152B JUMP JUMPDEST SWAP2 POP PUSH2 0x192C DUP3 PUSH2 0x18C5 JUMP JUMPDEST PUSH1 0x40 DUP3 ADD SWAP1 POP SWAP2 SWAP1 POP JUMP JUMPDEST PUSH1 0x0 PUSH1 0x20 DUP3 ADD SWAP1 POP DUP2 DUP2 SUB PUSH1 0x0 DUP4 ADD MSTORE PUSH2 0x1950 DUP2 PUSH2 0x1914 JUMP JUMPDEST SWAP1 POP SWAP2 SWAP1 POP JUMP JUMPDEST PUSH32 0x45524332303A20617070726F76652066726F6D20746865207A65726F20616464 PUSH1 0x0 DUP3 ADD MSTORE PUSH32 0x7265737300000000000000000000000000000000000000000000000000000000 PUSH1 0x20 DUP3 ADD MSTORE POP JUMP JUMPDEST PUSH1 0x0 PUSH2 0x19B3 PUSH1 0x24 DUP4 PUSH2 0x152B JUMP JUMPDEST SWAP2 POP PUSH2 0x19BE DUP3 PUSH2 0x1957 JUMP JUMPDEST PUSH1 0x40 DUP3 ADD SWAP1 POP SWAP2 SWAP1 POP JUMP JUMPDEST PUSH1 0x0 PUSH1 0x20 DUP3 ADD SWAP1 POP DUP2 DUP2 SUB PUSH1 0x0 DUP4 ADD MSTORE PUSH2 0x19E2 DUP2 PUSH2 0x19A6 JUMP JUMPDEST SWAP1 POP SWAP2 SWAP1 POP JUMP JUMPDEST PUSH32 0x45524332303A20617070726F766520746F20746865207A65726F206164647265 PUSH1 0x0 DUP3 ADD MSTORE PUSH32 0x7373000000000000000000000000000000000000000000000000000000000000 PUSH1 0x20 DUP3 ADD MSTORE POP JUMP JUMPDEST PUSH1 0x0 PUSH2 0x1A45 PUSH1 0x22 DUP4 PUSH2 0x152B JUMP JUMPDEST SWAP2 POP PUSH2 0x1A50 DUP3 PUSH2 0x19E9 JUMP JUMPDEST PUSH1 0x40 DUP3 ADD SWAP1 POP SWAP2 SWAP1 POP JUMP JUMPDEST PUSH1 0x0 PUSH1 0x20 DUP3 ADD SWAP1 POP DUP2 DUP2 SUB PUSH1 0x0 DUP4 ADD MSTORE PUSH2 0x1A74 DUP2 PUSH2 0x1A38 JUMP JUMPDEST SWAP1 POP SWAP2 SWAP1 POP JUMP JUMPDEST PUSH32 0x45524332303A20696E73756666696369656E7420616C6C6F77616E6365000000 PUSH1 0x0 DUP3 ADD MSTORE POP JUMP JUMPDEST PUSH1 0x0 PUSH2 0x1AB1 PUSH1 0x1D DUP4 PUSH2 0x152B JUMP JUMPDEST SWAP2 POP PUSH2 0x1ABC DUP3 PUSH2 0x1A7B JUMP JUMPDEST PUSH1 0x20 DUP3 ADD SWAP1 POP SWAP2 SWAP1 POP JUMP JUMPDEST PUSH1 0x0 PUSH1 0x20 DUP3 ADD SWAP1 POP DUP2 DUP2 SUB PUSH1 0x0 DUP4 ADD MSTORE PUSH2 0x1AE0 DUP2 PUSH2 0x1AA4 JUMP JUMPDEST SWAP1 POP SWAP2 SWAP1 POP JUMP JUMPDEST PUSH32 0x45524332303A207472616E736665722066726F6D20746865207A65726F206164 PUSH1 0x0 DUP3 ADD MSTORE PUSH32 0x6472657373000000000000000000000000000000000000000000000000000000 PUSH1 0x20 DUP3 ADD MSTORE POP JUMP JUMPDEST PUSH1 0x0 PUSH2 0x1B43 PUSH1 0x25 DUP4 PUSH2 0x152B JUMP JUMPDEST SWAP2 POP PUSH2 0x1B4E DUP3 PUSH2 0x1AE7 JUMP JUMPDEST PUSH1 0x40 DUP3 ADD SWAP1 POP SWAP2 SWAP1 POP JUMP JUMPDEST PUSH1 0x0 PUSH1 0x20 DUP3 ADD SWAP1 POP DUP2 DUP2 SUB PUSH1 0x0 DUP4 ADD MSTORE PUSH2 0x1B72 DUP2 PUSH2 0x1B36 JUMP JUMPDEST SWAP1 POP SWAP2 SWAP1 POP JUMP JUMPDEST PUSH32 0x45524332303A207472616E7366657220746F20746865207A65726F2061646472 PUSH1 0x0 DUP3 ADD MSTORE PUSH32 0x6573730000000000000000000000000000000000000000000000000000000000 PUSH1 0x20 DUP3 ADD MSTORE POP JUMP JUMPDEST PUSH1 0x0 PUSH2 0x1BD5 PUSH1 0x23 DUP4 PUSH2 0x152B JUMP JUMPDEST SWAP2 POP PUSH2 0x1BE0 DUP3 PUSH2 0x1B79 JUMP JUMPDEST PUSH1 0x40 DUP3 ADD SWAP1 POP SWAP2 SWAP1 POP JUMP JUMPDEST PUSH1 0x0 PUSH1 0x20 DUP3 ADD SWAP1 POP DUP2 DUP2 SUB PUSH1 0x0 DUP4 ADD MSTORE PUSH2 0x1C04 DUP2 PUSH2 0x1BC8 JUMP JUMPDEST SWAP1 POP SWAP2 SWAP1 POP JUMP JUMPDEST PUSH32 0x45524332303A207472616E7366657220616D6F756E7420657863656564732062 PUSH1 0x0 DUP3 ADD MSTORE PUSH32 0x616C616E63650000000000000000000000000000000000000000000000000000 PUSH1 0x20 DUP3 ADD MSTORE POP JUMP JUMPDEST PUSH1 0x0 PUSH2 0x1C67 PUSH1 0x26 DUP4 PUSH2 0x152B JUMP JUMPDEST SWAP2 POP PUSH2 0x1C72 DUP3 PUSH2 0x1C0B JUMP JUMPDEST PUSH1 0x40 DUP3 ADD SWAP1 POP SWAP2 SWAP1 POP JUMP JUMPDEST PUSH1 0x0 PUSH1 0x20 DUP3 ADD SWAP1 POP DUP2 DUP2 SUB PUSH1 0x0 DUP4 ADD MSTORE PUSH2 0x1C96 DUP2 PUSH2 0x1C5A JUMP JUMPDEST SWAP1 POP SWAP2 SWAP1 POP JUMP JUMPDEST PUSH32 0x45524332303A20426C61636B6C69737465642061646472657373000000000000 PUSH1 0x0 DUP3 ADD MSTORE POP JUMP JUMPDEST PUSH1 0x0 PUSH2 0x1CD3 PUSH1 0x1A DUP4 PUSH2 0x152B JUMP JUMPDEST SWAP2 POP PUSH2 0x1CDE DUP3 PUSH2 0x1C9D JUMP JUMPDEST PUSH1 0x20 DUP3 ADD SWAP1 POP SWAP2 SWAP1 POP JUMP JUMPDEST PUSH1 0x0 PUSH1 0x20 DUP3 ADD SWAP1 POP DUP2 DUP2 SUB PUSH1 0x0 DUP4 ADD MSTORE PUSH2 0x1D02 DUP2 PUSH2 0x1CC6 JUMP JUMPDEST SWAP1 POP SWAP2 SWAP1 POP JUMP INVALID LOG2 PUSH5 0x6970667358 0x22 SLT KECCAK256 0xFC 0xF6 SUB 0xF8 0xEE LOG2 DUP1 0xAF 0xD1 CALLDATACOPY 0xC4 0xBE 0xDC ADD ORIGIN 0xEF 0xD8 PUSH6 0x2757E861DBB4 0xC9 ADD SGT PUSH2 0xA7F2 DUP4 0xE4 PUSH5 0x736F6C6343 STOP ADDMOD LT STOP CALLER "},"methodIdentifiers":{"allowance(address,address)":"dd62ed3e","approve(address,uint256)":"095ea7b3","balanceOf(address)":"70a08231","blacklistAddresses(address)":"8e77fe2f","decimals()":"313ce567","decreaseAllowance(address,uint256)":"a457c2d7","increaseAllowance(address,uint256)":"39509351","name()":"06fdde03","symbol()":"95d89b41","totalSupply()":"18160ddd","transfer(address,uint256)":"a9059cbb","transferFrom(address,address,uint256)":"23b872dd"}},"storageLayout":{"storage":[{"astId":152,"contract":"contracts/NIOZ/ERC20Upgradeable.sol:ERC20Upgradeable","label":"_initialized","offset":0,"slot":"0","type":"t_uint8"},{"astId":155,"contract":"contracts/NIOZ/ERC20Upgradeable.sol:ERC20Upgradeable","label":"_initializing","offset":1,"slot":"0","type":"t_bool"},{"astId":815,"contract":"contracts/NIOZ/ERC20Upgradeable.sol:ERC20Upgradeable","label":"__gap","offset":0,"slot":"1","type":"t_array(t_uint256)50_storage"},{"astId":2403,"contract":"contracts/NIOZ/ERC20Upgradeable.sol:ERC20Upgradeable","label":"_balances","offset":0,"slot":"51","type":"t_mapping(t_address,t_uint256)"},{"astId":2409,"contract":"contracts/NIOZ/ERC20Upgradeable.sol:ERC20Upgradeable","label":"_allowances","offset":0,"slot":"52","type":"t_mapping(t_address,t_mapping(t_address,t_uint256))"},{"astId":2411,"contract":"contracts/NIOZ/ERC20Upgradeable.sol:ERC20Upgradeable","label":"_totalSupply","offset":0,"slot":"53","type":"t_uint256"},{"astId":2413,"contract":"contracts/NIOZ/ERC20Upgradeable.sol:ERC20Upgradeable","label":"_name","offset":0,"slot":"54","type":"t_string_storage"},{"astId":2415,"contract":"contracts/NIOZ/ERC20Upgradeable.sol:ERC20Upgradeable","label":"_symbol","offset":0,"slot":"55","type":"t_string_storage"},{"astId":2419,"contract":"contracts/NIOZ/ERC20Upgradeable.sol:ERC20Upgradeable","label":"blacklistAddresses","offset":0,"slot":"56","type":"t_mapping(t_address,t_bool)"},{"astId":3654,"contract":"contracts/NIOZ/ERC20Upgradeable.sol:ERC20Upgradeable","label":"__gap","offset":0,"slot":"57","type":"t_array(t_uint256)45_storage"}],"types":{"t_address":{"encoding":"inplace","label":"address","numberOfBytes":"20"},"t_array(t_uint256)45_storage":{"base":"t_uint256","encoding":"inplace","label":"uint256[45]","numberOfBytes":"1440"},"t_array(t_uint256)50_storage":{"base":"t_uint256","encoding":"inplace","label":"uint256[50]","numberOfBytes":"1600"},"t_bool":{"encoding":"inplace","label":"bool","numberOfBytes":"1"},"t_mapping(t_address,t_bool)":{"encoding":"mapping","key":"t_address","label":"mapping(address => bool)","numberOfBytes":"32","value":"t_bool"},"t_mapping(t_address,t_mapping(t_address,t_uint256))":{"encoding":"mapping","key":"t_address","label":"mapping(address => mapping(address => uint256))","numberOfBytes":"32","value":"t_mapping(t_address,t_uint256)"},"t_mapping(t_address,t_uint256)":{"encoding":"mapping","key":"t_address","label":"mapping(address => uint256)","numberOfBytes":"32","value":"t_uint256"},"t_string_storage":{"encoding":"bytes","label":"string","numberOfBytes":"32"},"t_uint256":{"encoding":"inplace","label":"uint256","numberOfBytes":"32"},"t_uint8":{"encoding":"inplace","label":"uint8","numberOfBytes":"1"}}}}}}