{"contracts/NIOZ/NiozERC20V2.sol":{"NiozERC20V2":{"abi":[{"anonymous":false,"inputs":[{"indexed":true,"internalType":"address","name":"owner","type":"address"},{"indexed":true,"internalType":"address","name":"spender","type":"address"},{"indexed":false,"internalType":"uint256","name":"value","type":"uint256"}],"name":"Approval","type":"event"},{"anonymous":false,"inputs":[{"indexed":false,"internalType":"address","name":"User","type":"address"},{"indexed":false,"internalType":"uint256","name":"Amount","type":"uint256"}],"name":"Bought","type":"event"},{"anonymous":false,"inputs":[{"indexed":false,"internalType":"address","name":"Address","type":"address"},{"indexed":false,"internalType":"uint256","name":"Amount","type":"uint256"}],"name":"BurnTokens","type":"event"},{"anonymous":false,"inputs":[{"indexed":false,"internalType":"address","name":"User","type":"address"},{"indexed":false,"internalType":"uint256","name":"Amount","type":"uint256"}],"name":"Claim","type":"event"},{"anonymous":false,"inputs":[{"indexed":false,"internalType":"address","name":"User","type":"address"},{"indexed":false,"internalType":"uint256","name":"Amount","type":"uint256"}],"name":"ExtractionReward","type":"event"},{"anonymous":false,"inputs":[{"indexed":false,"internalType":"uint8","name":"version","type":"uint8"}],"name":"Initialized","type":"event"},{"anonymous":false,"inputs":[{"indexed":false,"internalType":"address","name":"Address","type":"address"},{"indexed":false,"internalType":"uint256","name":"Amount","type":"uint256"},{"indexed":false,"internalType":"uint256","name":"Id","type":"uint256"}],"name":"MintWeeklyTokens","type":"event"},{"anonymous":false,"inputs":[{"indexed":true,"internalType":"address","name":"previousOwner","type":"address"},{"indexed":true,"internalType":"address","name":"newOwner","type":"address"}],"name":"OwnershipTransferred","type":"event"},{"anonymous":false,"inputs":[{"indexed":false,"internalType":"address","name":"Owner","type":"address"},{"indexed":false,"internalType":"uint256","name":"TokenId","type":"uint256"},{"indexed":false,"internalType":"uint256","name":"ArcId","type":"uint256"},{"indexed":false,"internalType":"uint256","name":"Amount","type":"uint256"}],"name":"PrinterRefurbished","type":"event"},{"anonymous":false,"inputs":[{"indexed":false,"internalType":"address","name":"User","type":"address"},{"indexed":false,"internalType":"uint256","name":"PartId","type":"uint256"},{"indexed":false,"internalType":"uint256","name":"Amount","type":"uint256"}],"name":"Sold","type":"event"},{"anonymous":false,"inputs":[{"indexed":false,"internalType":"address","name":"User","type":"address"},{"indexed":false,"internalType":"uint256","name":"TokenId","type":"uint256"},{"indexed":false,"internalType":"uint256","name":"PrinterId","type":"uint256"},{"indexed":false,"internalType":"uint256","name":"Amount","type":"uint256"}],"name":"Stake","type":"event"},{"anonymous":false,"inputs":[{"indexed":false,"internalType":"address","name":"Address","type":"address"},{"indexed":false,"internalType":"uint256","name":"Amount","type":"uint256"}],"name":"StakeInFoundary","type":"event"},{"anonymous":false,"inputs":[{"indexed":true,"internalType":"address","name":"from","type":"address"},{"indexed":true,"internalType":"address","name":"to","type":"address"},{"indexed":false,"internalType":"uint256","name":"value","type":"uint256"}],"name":"Transfer","type":"event"},{"inputs":[],"name":"ARFtokenAddress","outputs":[{"internalType":"contract IERC721Upgradeable","name":"","type":"address"}],"stateMutability":"view","type":"function"},{"inputs":[],"name":"ConstructTokenAddress","outputs":[{"internalType":"contract IERC721Upgradeable","name":"","type":"address"}],"stateMutability":"view","type":"function"},{"inputs":[],"name":"ERC721TokenAddress","outputs":[{"internalType":"contract IERC721Upgradeable","name":"","type":"address"}],"stateMutability":"view","type":"function"},{"inputs":[],"name":"MaxSupply","outputs":[{"internalType":"uint256","name":"","type":"uint256"}],"stateMutability":"view","type":"function"},{"inputs":[],"name":"MerchantWallet","outputs":[{"internalType":"address","name":"","type":"address"}],"stateMutability":"view","type":"function"},{"inputs":[{"internalType":"uint256","name":"","type":"uint256"}],"name":"MintData","outputs":[{"internalType":"uint256","name":"id","type":"uint256"},{"internalType":"address","name":"walletAddress","type":"address"},{"internalType":"uint256","name":"weeklyAmt","type":"uint256"},{"internalType":"uint256","name":"timeDiff","type":"uint256"},{"internalType":"uint256","name":"lastTimestamp","type":"uint256"}],"stateMutability":"view","type":"function"},{"inputs":[{"internalType":"address","name":"owner","type":"address"},{"internalType":"address","name":"spender","type":"address"}],"name":"allowance","outputs":[{"internalType":"uint256","name":"","type":"uint256"}],"stateMutability":"view","type":"function"},{"inputs":[{"internalType":"address","name":"spender","type":"address"},{"internalType":"uint256","name":"amount","type":"uint256"}],"name":"approve","outputs":[{"internalType":"bool","name":"","type":"bool"}],"stateMutability":"nonpayable","type":"function"},{"inputs":[{"internalType":"address","name":"account","type":"address"}],"name":"balanceOf","outputs":[{"internalType":"uint256","name":"","type":"uint256"}],"stateMutability":"view","type":"function"},{"inputs":[{"internalType":"address[]","name":"_addresses","type":"address[]"},{"internalType":"bool","name":"_status","type":"bool"}],"name":"blacklist","outputs":[],"stateMutability":"nonpayable","type":"function"},{"inputs":[{"internalType":"address","name":"","type":"address"}],"name":"blacklistAddresses","outputs":[{"internalType":"bool","name":"","type":"bool"}],"stateMutability":"view","type":"function"},{"inputs":[{"internalType":"uint256","name":"_amount","type":"uint256"}],"name":"burnTokens","outputs":[],"stateMutability":"nonpayable","type":"function"},{"inputs":[{"internalType":"address","name":"_address","type":"address"},{"internalType":"uint256","name":"_amount","type":"uint256"}],"name":"burnTokensAuth","outputs":[],"stateMutability":"nonpayable","type":"function"},{"inputs":[{"components":[{"internalType":"uint256","name":"amount","type":"uint256"},{"internalType":"bytes32","name":"messageHash","type":"bytes32"}],"internalType":"struct NiozERC20V2.Reward","name":"_order","type":"tuple"},{"internalType":"bytes","name":"_signature","type":"bytes"}],"name":"claim","outputs":[],"stateMutability":"nonpayable","type":"function"},{"inputs":[],"name":"decimals","outputs":[{"internalType":"uint8","name":"","type":"uint8"}],"stateMutability":"view","type":"function"},{"inputs":[{"internalType":"address","name":"spender","type":"address"},{"internalType":"uint256","name":"subtractedValue","type":"uint256"}],"name":"decreaseAllowance","outputs":[{"internalType":"bool","name":"","type":"bool"}],"stateMutability":"nonpayable","type":"function"},{"inputs":[{"internalType":"address","name":"spender","type":"address"},{"internalType":"uint256","name":"addedValue","type":"uint256"}],"name":"increaseAllowance","outputs":[{"internalType":"bool","name":"","type":"bool"}],"stateMutability":"nonpayable","type":"function"},{"inputs":[],"name":"initialize","outputs":[],"stateMutability":"nonpayable","type":"function"},{"inputs":[{"internalType":"uint256","name":"","type":"uint256"}],"name":"isUnProcessedPartSold","outputs":[{"internalType":"bool","name":"","type":"bool"}],"stateMutability":"view","type":"function"},{"inputs":[{"internalType":"bytes","name":"","type":"bytes"}],"name":"isVerified","outputs":[{"internalType":"bool","name":"","type":"bool"}],"stateMutability":"view","type":"function"},{"inputs":[{"internalType":"address","name":"_who","type":"address"},{"internalType":"uint256","name":"_amount","type":"uint256"}],"name":"mint","outputs":[],"stateMutability":"nonpayable","type":"function"},{"inputs":[{"internalType":"uint256","name":"id","type":"uint256"}],"name":"mintWeeklyTokens","outputs":[],"stateMutability":"nonpayable","type":"function"},{"inputs":[],"name":"name","outputs":[{"internalType":"string","name":"","type":"string"}],"stateMutability":"view","type":"function"},{"inputs":[],"name":"owner","outputs":[{"internalType":"address","name":"","type":"address"}],"stateMutability":"view","type":"function"},{"inputs":[],"name":"pairAddress","outputs":[{"internalType":"contract IERC20Upgradeable","name":"","type":"address"}],"stateMutability":"view","type":"function"},{"inputs":[{"internalType":"bytes32","name":"ethSignedMessageHash","type":"bytes32"},{"internalType":"bytes","name":"signature","type":"bytes"}],"name":"recoverSigner","outputs":[{"internalType":"address","name":"","type":"address"}],"stateMutability":"pure","type":"function"},{"inputs":[{"components":[{"internalType":"uint256","name":"id","type":"uint256"},{"internalType":"uint256","name":"tokenId","type":"uint256"},{"internalType":"uint256","name":"amount","type":"uint256"},{"internalType":"bytes32","name":"messageHash","type":"bytes32"}],"internalType":"struct NiozERC20V2.SellOrder","name":"_order","type":"tuple"},{"internalType":"bytes","name":"_signature","type":"bytes"}],"name":"refurbished","outputs":[],"stateMutability":"nonpayable","type":"function"},{"inputs":[],"name":"renounceOwnership","outputs":[],"stateMutability":"nonpayable","type":"function"},{"inputs":[{"internalType":"address","name":"_from","type":"address"},{"internalType":"address","name":"_to","type":"address"},{"internalType":"uint256","name":"_amount","type":"uint256"}],"name":"safeTransfer","outputs":[],"stateMutability":"nonpayable","type":"function"},{"inputs":[{"components":[{"internalType":"uint256","name":"amount","type":"uint256"},{"internalType":"uint256","name":"partId","type":"uint256"},{"internalType":"bytes32","name":"messageHash","type":"bytes32"}],"internalType":"struct NiozERC20V2.Order","name":"_order","type":"tuple"},{"internalType":"bytes","name":"_signature","type":"bytes"}],"name":"sellUnprocessedPart","outputs":[],"stateMutability":"nonpayable","type":"function"},{"inputs":[{"internalType":"uint256","name":"_tokenId","type":"uint256"},{"internalType":"uint256","name":"_printerId","type":"uint256"},{"internalType":"uint256","name":"_amount","type":"uint256"}],"name":"stake","outputs":[],"stateMutability":"nonpayable","type":"function"},{"inputs":[{"internalType":"uint256","name":"_amount","type":"uint256"}],"name":"stakeInFoundary","outputs":[],"stateMutability":"nonpayable","type":"function"},{"inputs":[],"name":"symbol","outputs":[{"internalType":"string","name":"","type":"string"}],"stateMutability":"view","type":"function"},{"inputs":[],"name":"tokenPrice","outputs":[{"internalType":"uint256","name":"","type":"uint256"}],"stateMutability":"view","type":"function"},{"inputs":[],"name":"totalSupply","outputs":[{"internalType":"uint256","name":"","type":"uint256"}],"stateMutability":"view","type":"function"},{"inputs":[{"internalType":"address","name":"to","type":"address"},{"internalType":"uint256","name":"amount","type":"uint256"}],"name":"transfer","outputs":[{"internalType":"bool","name":"","type":"bool"}],"stateMutability":"nonpayable","type":"function"},{"inputs":[{"internalType":"address","name":"from","type":"address"},{"internalType":"address","name":"to","type":"address"},{"internalType":"uint256","name":"amount","type":"uint256"}],"name":"transferFrom","outputs":[{"internalType":"bool","name":"","type":"bool"}],"stateMutability":"nonpayable","type":"function"},{"inputs":[{"internalType":"address","name":"newOwner","type":"address"}],"name":"transferOwnership","outputs":[],"stateMutability":"nonpayable","type":"function"},{"inputs":[{"internalType":"address","name":"_address","type":"address"},{"internalType":"address","name":"_pair_address","type":"address"},{"internalType":"address","name":"_erc721_address","type":"address"},{"internalType":"address","name":"_Arf_address","type":"address"},{"internalType":"address","name":"_construct_address","type":"address"}],"name":"updateAddresses","outputs":[],"stateMutability":"nonpayable","type":"function"},{"inputs":[{"internalType":"uint256[]","name":"_ids","type":"uint256[]"},{"internalType":"address[]","name":"_address","type":"address[]"},{"internalType":"uint256[]","name":"_weekly_amts","type":"uint256[]"},{"internalType":"uint256[]","name":"_time_diff","type":"uint256[]"}],"name":"updateMintData","outputs":[],"stateMutability":"nonpayable","type":"function"},{"inputs":[{"internalType":"address[]","name":"_address","type":"address[]"}],"name":"updatePlatformWallets","outputs":[],"stateMutability":"nonpayable","type":"function"},{"inputs":[{"internalType":"address","name":"_user","type":"address"}],"name":"viewSharePercent","outputs":[{"internalType":"address","name":"User","type":"address"},{"internalType":"uint256","name":"TotalSupply","type":"uint256"},{"internalType":"uint256","name":"UserTokenBalance","type":"uint256"},{"internalType":"uint256","name":"SharePercentage","type":"uint256"}],"stateMutability":"view","type":"function"}],"evm":{"bytecode":{"linkReferences":{},"object":"608060405234801561001057600080fd5b5061791680620000216000396000f3fe608060405234801561001057600080fd5b506004361061025e5760003560e01c8063790d1d4511610146578063a638f2e2116100c3578063c997eb8d11610087578063c997eb8d1461072a578063d1660f9914610746578063dd62ed3e14610762578063f15b40ef14610792578063f2fde38b146107ae578063f76b09e9146107ca5761025e565b8063a638f2e214610672578063a8b089821461068e578063a9059cbb146106ac578063b36c1284146106dc578063c9941806146106fa5761025e565b80638e77fe2f1161010a5780638e77fe2f146105915780639382226c146105c157806395d89b41146105f457806397aba7f914610612578063a457c2d7146106425761025e565b8063790d1d45146105115780637dd12d151461052d5780637ff9b5961461054b5780638129fc1c146105695780638da5cb5b146105735761025e565b806335643681116101df57806340c10f19116101a357806340c10f191461046757806358ed8061146104835780636d1b229d1461049f57806370a08231146104bb578063715018a6146104eb57806376d40744146104f55761025e565b806335643681146103c557806336b15e9c146103e357806339509351146103ff5780633d5afa161461042f5780633e0bb0ae1461044b5761025e565b80631a74af29116102265780631a74af29146103095780631d3a78be1461032557806323b872dd146103435780632e84ee7414610373578063313ce567146103a75761025e565b806304a4362e1461026357806306fdde0314610281578063095ea7b31461029f5780630c3a1e40146102cf57806318160ddd146102eb575b600080fd5b61026b6107fa565b6040516102789190615a73565b60405180910390f35b610289610820565b6040516102969190615b1e565b60405180910390f35b6102b960048036038101906102b49190615bc8565b6108ee565b6040516102c69190615c23565b60405180910390f35b6102e960048036038101906102e49190615c3e565b61099e565b005b6102f3610c0b565b6040516103009190615c7a565b60405180910390f35b610323600480360381019061031e9190615d50565b610c51565b005b61032d610e8d565b60405161033a9190615a73565b60405180910390f35b61035d60048036038101906103589190615e39565b610eb3565b60405161036a9190615c23565b60405180910390f35b61038d60048036038101906103889190615c3e565b610f97565b60405161039e959493929190615e9b565b60405180910390f35b6103af610fed565b6040516103bc9190615f0a565b60405180910390f35b6103cd611032565b6040516103da9190615a73565b60405180910390f35b6103fd60048036038101906103f89190615f25565b611058565b005b61041960048036038101906104149190615bc8565b6111be565b6040516104269190615c23565b60405180910390f35b610449600480360381019061044491906160c6565b611282565b005b61046560048036038101906104609190615bc8565b61163b565b005b610481600480360381019061047c9190615bc8565b6117b1565b005b61049d60048036038101906104989190615c3e565b6119bb565b005b6104b960048036038101906104b49190615c3e565b611a65565b005b6104d560048036038101906104d09190616122565b611baa565b6040516104e29190615c7a565b60405180910390f35b6104f3611c2f565b005b61050f600480360381019061050a91906161ee565b611c43565b005b61052b6004803603810190610526919061624a565b612109565b005b6105356122fd565b60405161054291906162c5565b60405180910390f35b610553612323565b6040516105609190615c7a565b60405180910390f35b610571612329565b005b61057b612aa3565b60405161058891906162c5565b60405180910390f35b6105ab60048036038101906105a69190616122565b612acd565b6040516105b89190615c23565b60405180910390f35b6105db60048036038101906105d69190616122565b612aed565b6040516105eb94939291906162e0565b60405180910390f35b6105fc612e2b565b6040516106099190615b1e565b60405180910390f35b61062c60048036038101906106279190616325565b612ef9565b60405161063991906162c5565b60405180910390f35b61065c60048036038101906106579190615bc8565b6133fe565b6040516106699190615c23565b60405180910390f35b61068c60048036038101906106879190616381565b61358e565b005b610696613797565b6040516106a391906163f5565b60405180910390f35b6106c660048036038101906106c19190615bc8565b6137bd565b6040516106d39190615c23565b60405180910390f35b6106e461386d565b6040516106f19190615c7a565b60405180910390f35b610714600480360381019061070f9190616410565b613873565b6040516107219190615c23565b60405180910390f35b610744600480360381019061073f9190616485565b6138a9565b005b610760600480360381019061075b9190615e39565b613ab2565b005b61077c600480360381019061077791906164e5565b613cf1565b6040516107899190615c7a565b60405180910390f35b6107ac60048036038101906107a7919061659d565b613db4565b005b6107c860048036038101906107c39190616122565b61423f565b005b6107e460048036038101906107df9190615c3e565b6142c2565b6040516107f19190615c23565b60405180910390f35b60a060009054906101000a900473ffffffffffffffffffffffffffffffffffffffff1681565b606061083667f552a8c32271017560c01b6142e2565b61084a67048dfca8d666a31360c01b6142e2565b61085e67d227f20ff73c7fc860c01b6142e2565b6036805461086b90616628565b80601f016020809104026020016040519081016040528092919081815260200182805461089790616628565b80156108e45780601f106108b9576101008083540402835291602001916108e4565b820191906000526020600020905b8154815290600101906020018083116108c757829003601f168201915b5050505050905090565b60006109046704b5e613afe656b660c01b6142e2565b610918676e26b852637b4f2e60c01b6142e2565b61092c67c6d001af3927838660c01b6142e2565b60006109366142e5565b905061094c67d63183bd5256866d60c01b6142e2565b61096067eb72a745dc8dc8ce60c01b6142e2565b61096b8185856142ed565b61097f677c85e3c9da63418360c01b6142e2565b610993674d2512ddc0a5ee0c60c01b6142e2565b600191505092915050565b6109b267bda359ef03e2c9be60c01b6145a6565b6109ba6145a9565b6109ce6726f01ae8415f4e2760c01b6145a6565b6109e2678506238e2e13673360c01b6145a6565b6109f667f657e421fab0926360c01b6145a6565b610a0a67e777262f4a988d1560c01b6145a6565b610a1e67f8d9fc62f194705660c01b6145a6565b42609f600083815260200190815260200160002060030154609f600084815260200190815260200160002060040154610a579190616688565b1115610a98576040517f08c379a0000000000000000000000000000000000000000000000000000000008152600401610a8f90616708565b60405180910390fd5b610aac672fa3c9b6c274786360c01b6145a6565b610ac0675429e7f64a872d7160c01b6145a6565b610ad4675e1359f7aa3e220860c01b6145a6565b610b2a609f600083815260200190815260200160002060010160009054906101000a900473ffffffffffffffffffffffffffffffffffffffff16609f600084815260200190815260200160002060020154614627565b610b3e67f58183184adc9c7460c01b6145a6565b42609f600083815260200190815260200160002060040181905550610b6d6760846fe93255c58c60c01b6145a6565b610b81673c8824b6346844f760c01b6145a6565b7f7f5b1ce5933fb0434392b9ded7d1628124e2c43eda45d46ad675cde2d6b6b226609f600083815260200190815260200160002060010160009054906101000a900473ffffffffffffffffffffffffffffffffffffffff16609f60008481526020019081526020016000206002015483604051610c0093929190616728565b60405180910390a150565b6000610c2167fb3d51ee3210080c60c01b6142e2565b610c356731809c2ec202aee360c01b6142e2565b610c4967b1056caac5701b4e60c01b6142e2565b603554905090565b610c6567b4ba46157179402c60c01b6145a6565b610c6d6145a9565b610c8167c7d70b57fa44822760c01b6145a6565b610c9567703c2c96273410b560c01b6145a6565b610ca967fb1d92116d07e6ef60c01b6145a6565b610cbd6729e929ae318a300960c01b6145a6565b60005b88889050811015610e8257610cdf67b7caeede3ea3a25360c01b6145a6565b610cf2661e8ae306c7266460c01b6145a6565b60006040518060a001604052808b8b85818110610d1257610d1161675f565b5b905060200201358152602001898985818110610d3157610d3061675f565b5b9050602002016020810190610d469190616122565b73ffffffffffffffffffffffffffffffffffffffff168152602001878785818110610d7457610d7361675f565b5b905060200201358152602001858585818110610d9357610d9261675f565b5b905060200201358152602001609f6000858152602001908152602001600020600401548152509050610dcf679c3b058669ee658960c01b6145a6565b80609f60008c8c86818110610de757610de661675f565b5b9050602002013581526020019081526020016000206000820151816000015560208201518160010160006101000a81548173ffffffffffffffffffffffffffffffffffffffff021916908373ffffffffffffffffffffffffffffffffffffffff160217905550604082015181600201556060820151816003015560808201518160040155905050508080610e7a9061678e565b915050610cc0565b505050505050505050565b609b60009054906101000a900473ffffffffffffffffffffffffffffffffffffffff1681565b6000610ec967aa8b4ceef303403c60c01b6142e2565b610edd674f72b00035e4c23660c01b6142e2565b610ef167596e850968ff484160c01b6142e2565b6000610efb6142e5565b9050610f1167f604a98374250b6c60c01b6142e2565b610f2567b15dc635d19c2b1e60c01b6142e2565b610f3085828561488b565b610f4467c40550a8cd4c4c0c60c01b6142e2565b610f5867079b66a8ae9f911860c01b6142e2565b610f63858585614a34565b610f77670775d1e7642967d960c01b6142e2565b610f8b672747e83febf57d9f60c01b6142e2565b60019150509392505050565b609f6020528060005260406000206000915090508060000154908060010160009054906101000a900473ffffffffffffffffffffffffffffffffffffffff16908060020154908060030154908060040154905085565b600061100367fd4c4dfd102ddd0760c01b6142e2565b6110176735f35634068e7a8060c01b6142e2565b61102b6704cfb95bb1096fb460c01b6142e2565b6012905090565b60a260009054906101000a900473ffffffffffffffffffffffffffffffffffffffff1681565b61106c674a8eb46497eb671f60c01b6145a6565b6110746145a9565b6110886721563f5fb541dd5b60c01b6145a6565b61109c678d431b831c2faaf360c01b6145a6565b6110b06739d70855d560dc7d60c01b6145a6565b609e60006110be91906159b6565b6110d26788f756ee2bb8038660c01b6145a6565b6110e667c4f02d41827760b660c01b6145a6565b60005b828290508110156111b95761110867e17e467fbfded94b60c01b6145a6565b61111c67ed55c83de975db4260c01b6145a6565b609e8383838181106111315761113061675f565b5b90506020020160208101906111469190616122565b9080600181540180825580915050600190039060005260206000200160009091909190916101000a81548173ffffffffffffffffffffffffffffffffffffffff021916908373ffffffffffffffffffffffffffffffffffffffff16021790555080806111b19061678e565b9150506110e9565b505050565b60006111d46783a9197de04cb54960c01b6142e2565b6111e867a2545b1098d8abe060c01b6142e2565b6111fc6715eb0959fa02365f60c01b6142e2565b60006112066142e5565b905061121c67bf1fca71c165472560c01b6142e2565b61123067dc616f2f3d90e97e60c01b6142e2565b61124f8185856112408589613cf1565b61124a9190616688565b6142ed565b61126367cf0c2b3d0df530ef60c01b6142e2565b61127767e7c79e7b275ff3a060c01b6142e2565b600191505092915050565b61129667756e6e0855115c9c60c01b6145a6565b6112aa6765eead1ce2fbf7e760c01b6145a6565b6112be672748e94569f8b78060c01b6145a6565b6112d26776b0047296609a0360c01b6145a6565b6112e86112dd612aa3565b836020013583614e96565b801561131d5750609c816040516112ff919061681d565b908152602001604051809103902060009054906101000a900460ff16155b80156113c25750609b60009054906101000a900473ffffffffffffffffffffffffffffffffffffffff1673ffffffffffffffffffffffffffffffffffffffff1663c9941806826040518263ffffffff1660e01b815260040161137f919061687e565b602060405180830381865afa15801561139c573d6000803e3d6000fd5b505050506040513d601f19601f820116820180604052508101906113c091906168b5565b155b8015611467575060a060009054906101000a900473ffffffffffffffffffffffffffffffffffffffff1673ffffffffffffffffffffffffffffffffffffffff1663c9941806826040518263ffffffff1660e01b8152600401611424919061687e565b602060405180830381865afa158015611441573d6000803e3d6000fd5b505050506040513d601f19601f8201168201806040525081019061146591906168b5565b155b6114a6576040517f08c379a000000000000000000000000000000000000000000000000000000000815260040161149d9061692e565b60405180910390fd5b6114ba6714f4762769ff439460c01b6145a6565b6114ce676ef7124e0555782360c01b6145a6565b6114e267367942ea9f54d0ee60c01b6145a6565b6114f667c5877d2510e8c96360c01b6145a6565b600082600001351161153d576040517f08c379a00000000000000000000000000000000000000000000000000000000081526004016115349061699a565b60405180910390fd5b611551675f5a8d0d4a56cd6960c01b6145a6565b61156567b016bd9f7ec30a1660c01b6145a6565b61157967077cf4c8cadf14b160c01b6145a6565b611587338360000135614627565b61159b670a0b2f236611e2b360c01b6145a6565b6001609c826040516115ad919061681d565b908152602001604051809103902060006101000a81548160ff0219169083151502179055506115e667d9e0a5e31215753460c01b6145a6565b6115fa6740c4ca646786baad60c01b6145a6565b7f47cee97cb7acd717b3c0aa1435d004cd5b3c8c57d70dbceb4e4458bbd60e39d433836000013560405161162f9291906169ba565b60405180910390a15050565b61164f6756c8fcf0475ed77860c01b6145a6565b6116576145a9565b61166b67402c669b19bc980960c01b6145a6565b61167f671123880beadb3d8a60c01b6145a6565b611693674e9f63f2d01726e760c01b6145a6565b6116a767f5aaa715f5fa6ba860c01b6145a6565b6116bb67dac16d4040c0318d60c01b6145a6565b806116c583611baa565b1015611706576040517f08c379a00000000000000000000000000000000000000000000000000000000081526004016116fd90616a55565b60405180910390fd5b61171a6707ebc9cedb346edd60c01b6145a6565b61172e672a31f00240a5f6df60c01b6145a6565b6117426799303416ba9feb9b60c01b6145a6565b61174c828261505c565b611760671262ab0f2db476da60c01b6145a6565b61177467b059baedb4cc125660c01b6145a6565b7f388d6102a0230861b4e9646fb5acda1c5ec15d39df2b619d39c25d16a126849082826040516117a59291906169ba565b60405180910390a15050565b6117c567f5248b2ce572723860c01b6145a6565b6117d967a0f066806c6c0bb660c01b6145a6565b6117ed671d414c0a9e9f0d4d60c01b6145a6565b61180167b5b423120e08c8ed60c01b6145a6565b611815676bfc075ff09ea1c960c01b6145a6565b609b60009054906101000a900473ffffffffffffffffffffffffffffffffffffffff1673ffffffffffffffffffffffffffffffffffffffff163373ffffffffffffffffffffffffffffffffffffffff161480156118825750611881670aa34b9dc2c3b8b960c01b6153c4565b5b806118f6575060a260009054906101000a900473ffffffffffffffffffffffffffffffffffffffff1673ffffffffffffffffffffffffffffffffffffffff163373ffffffffffffffffffffffffffffffffffffffff161480156118f557506118f467cd5a22034dbf93b960c01b6153c4565b5b5b611935576040517f08c379a000000000000000000000000000000000000000000000000000000000815260040161192c9061692e565b60405180910390fd5b61194967a4813fd187769fc760c01b6145a6565b61195d6724d99a14c9f8dc1460c01b6145a6565b611971679c230cc11a46615260c01b6145a6565b61198567e83308d83e18f80160c01b6145a6565b61199967b6ec25a6ae6939df60c01b6145a6565b6119ad6796b5754a29edc69c60c01b6145a6565b6119b78282614627565b5050565b6119cf679edad5129aa82c4d60c01b6145a6565b6119e367f3883aadaaa0492260c01b6145a6565b6119f767f939bee64c07317360c01b6145a6565b611a01338261505c565b611a1567ac68d85b9cc85b6460c01b6145a6565b611a29671e1759f8a356722f60c01b6145a6565b7f0a51dd6b87f28d93a5c4bf39be76f7d455a5a2544df19bd5c9ef0559bff4aaed3382604051611a5a9291906169ba565b60405180910390a150565b611a7967c1d42f52fd90a39e60c01b6145a6565b611a8d676b6d5f7b444f3b3660c01b6145a6565b611aa167889e098a8ac456fc60c01b6145a6565b611ab567fa43abd1c67fa89d60c01b6145a6565b80611abf33611baa565b1015611b00576040517f08c379a0000000000000000000000000000000000000000000000000000000008152600401611af790616a55565b60405180910390fd5b611b1467439fd20c4dca462660c01b6145a6565b611b286774181d88b407319b60c01b6145a6565b611b3c6761e5348dde6caa6360c01b6145a6565b611b46338261505c565b611b5a67c811e24fbb0fc53360c01b6145a6565b611b6e6789bf4ba37b2eebb260c01b6145a6565b7f388d6102a0230861b4e9646fb5acda1c5ec15d39df2b619d39c25d16a12684903382604051611b9f9291906169ba565b60405180910390a150565b6000611bc067cf6cfd6f3c7af27460c01b6142e2565b611bd46791415c8f5f91bc2560c01b6142e2565b611be86776ee22d0bae7532060c01b6142e2565b603360008373ffffffffffffffffffffffffffffffffffffffff1673ffffffffffffffffffffffffffffffffffffffff168152602001908152602001600020549050919050565b611c376145a9565b611c4160006153cf565b565b611c576712e3d13b41c408b160c01b6145a6565b611c6b671dc69664c5e3bae060c01b6145a6565b611c7f67f90bf43b12b9cf5560c01b6145a6565b611c9367fad8fa4997c03f7960c01b6145a6565b611ca9611c9e612aa3565b836040015183614e96565b8015611cde5750609c81604051611cc0919061681d565b908152602001604051809103902060009054906101000a900460ff16155b8015611d835750609b60009054906101000a900473ffffffffffffffffffffffffffffffffffffffff1673ffffffffffffffffffffffffffffffffffffffff1663c9941806826040518263ffffffff1660e01b8152600401611d40919061687e565b602060405180830381865afa158015611d5d573d6000803e3d6000fd5b505050506040513d601f19601f82011682018060405250810190611d8191906168b5565b155b8015611e28575060a060009054906101000a900473ffffffffffffffffffffffffffffffffffffffff1673ffffffffffffffffffffffffffffffffffffffff1663c9941806826040518263ffffffff1660e01b8152600401611de5919061687e565b602060405180830381865afa158015611e02573d6000803e3d6000fd5b505050506040513d601f19601f82011682018060405250810190611e2691906168b5565b155b8015611ecd575060a260009054906101000a900473ffffffffffffffffffffffffffffffffffffffff1673ffffffffffffffffffffffffffffffffffffffff1663c9941806826040518263ffffffff1660e01b8152600401611e8a919061687e565b602060405180830381865afa158015611ea7573d6000803e3d6000fd5b505050506040513d601f19601f82011682018060405250810190611ecb91906168b5565b155b611f0c576040517f08c379a0000000000000000000000000000000000000000000000000000000008152600401611f039061692e565b60405180910390fd5b611f20673dd7dd9a31cba50660c01b6145a6565b611f34671219322b9eec205060c01b6145a6565b611f486716d1ab136055d2f360c01b6145a6565b611f5c67bbfb72fb597903f260c01b6145a6565b60a160008360200151815260200190815260200160002060009054906101000a900460ff1615611fc1576040517f08c379a0000000000000000000000000000000000000000000000000000000008152600401611fb890616ac1565b60405180910390fd5b611fd567bc2e49954d413fa860c01b6145a6565b611fe967256ab73a54e9cabd60c01b6145a6565b611ffd6791f5b7833404a31f60c01b6145a6565b61200b338360000151614627565b61201f6743ae92ac6b67749060c01b6145a6565b6001609c82604051612031919061681d565b908152602001604051809103902060006101000a81548160ff02191690831515021790555061206a67d5cb2c2caa176e9a60c01b6145a6565b600160a160008460200151815260200190815260200160002060006101000a81548160ff0219169083151502179055506120ae67496f7a76a07104a960c01b6145a6565b6120c267c3119be041d5d67060c01b6145a6565b7fbac9694ac0daa55169abd117086fe32c89401d9a3b15dd1d34e55e0aa4e47a9d33836020015184600001516040516120fd93929190616728565b60405180910390a15050565b61211d67ae190854c9029bf460c01b6145a6565b6121256145a9565b61213967a5c3dd7c2651fe5860c01b6145a6565b61214d67112acd614854332860c01b6145a6565b6121616731c6acb584ef70b960c01b6145a6565b84609a60006101000a81548173ffffffffffffffffffffffffffffffffffffffff021916908373ffffffffffffffffffffffffffffffffffffffff1602179055506121b667280527145ee28db060c01b6145a6565b8160a060006101000a81548173ffffffffffffffffffffffffffffffffffffffff021916908373ffffffffffffffffffffffffffffffffffffffff16021790555061220b6781e8a808037fa2ec60c01b6145a6565b83609d60006101000a81548173ffffffffffffffffffffffffffffffffffffffff021916908373ffffffffffffffffffffffffffffffffffffffff16021790555061226067905b88dee53e227660c01b6145a6565b82609b60006101000a81548173ffffffffffffffffffffffffffffffffffffffff021916908373ffffffffffffffffffffffffffffffffffffffff1602179055506122b5677652f74882a3755760c01b6145a6565b8060a260006101000a81548173ffffffffffffffffffffffffffffffffffffffff021916908373ffffffffffffffffffffffffffffffffffffffff1602179055505050505050565b609a60009054906101000a900473ffffffffffffffffffffffffffffffffffffffff1681565b60995481565b61233d674d65d60266fd008460c01b6145a6565b60008060019054906101000a900460ff1615905080801561236e5750600160008054906101000a900460ff1660ff16105b8061239b575061237d30615495565b15801561239a5750600160008054906101000a900460ff1660ff16145b5b6123da576040517f08c379a00000000000000000000000000000000000000000000000000000000081526004016123d190616b53565b60405180910390fd5b60016000806101000a81548160ff021916908360ff1602179055508015612417576001600060016101000a81548160ff0219169083151502179055505b61242b6798a9f390d1a507f760c01b6145a6565b61243f67cf23264abcb686c060c01b6145a6565b612453673bf7385ff75b23eb60c01b6145a6565b6124676715c32c9b7de1e39860c01b6145a6565b6124db6040518060400160405280600481526020017f4e696f7a000000000000000000000000000000000000000000000000000000008152506040518060400160405280600481526020017f4e494f5a000000000000000000000000000000000000000000000000000000008152506154b8565b6124ef6762c662898cf1337860c01b6145a6565b6125036734f232aa0d76b32e60c01b6145a6565b61250b615579565b61251f6743ffa3be3944da5c60c01b6145a6565b734f68437579a7077010290e6b713076495fee37e6609a60006101000a81548173ffffffffffffffffffffffffffffffffffffffff021916908373ffffffffffffffffffffffffffffffffffffffff16021790555061258867a0701e06883b1e7160c01b6145a6565b61259c67e5b5aa1ac3983bae60c01b6145a6565b6125b0336991b08e0303c64e000000614627565b6125c4673bd8adba5fba9a4160c01b6145a6565b6125d86795bb3fbe34100f7b60c01b6145a6565b60006040518060800160405280600160ff168152602001600260ff168152602001600360ff168152602001600460ff16815250905061262167f46ab4e959fe491d60c01b6145a6565b61263567c9f0fa8a2bc5dc6f60c01b6145a6565b60006040518060800160405280690a2e0ae4ae547984000069ffffffffffffffffffff1681526020016920940224a0f53a18000069ffffffffffffffffffff1681526020016928bddcbda9018e14000069ffffffffffffffffffff16815260200169145c76ee5b9286c4000069ffffffffffffffffffff1681525090506126c667b5101a98d1d130b560c01b6145a6565b6126da676aa4f5ddcc38935d60c01b6145a6565b6000604051806080016040528062093a8062ffffff16815260200162093a8062ffffff16815260200162093a8062ffffff16815260200162093a8062ffffff168152509050612733672a17fe9ecbcb807a60c01b6145a6565b612747673c0d646c600bb1e460c01b6145a6565b6000604051806080016040528073a18d7c869598d79bc4b9404ccb37d3b88cb9fead73ffffffffffffffffffffffffffffffffffffffff1673ffffffffffffffffffffffffffffffffffffffff1681526020017341d3b7837d84f9992632fe98bfff05ef68c7efc273ffffffffffffffffffffffffffffffffffffffff1673ffffffffffffffffffffffffffffffffffffffff16815260200173bef9bf48c8b3b3c62bab79e3dc7726bf8b1a7bbe73ffffffffffffffffffffffffffffffffffffffff1673ffffffffffffffffffffffffffffffffffffffff1681526020017310de5afcf09f5a150adffd7623bcd0ddef75836073ffffffffffffffffffffffffffffffffffffffff1673ffffffffffffffffffffffffffffffffffffffff16815250905061288067bcf6255c9e6bd69d60c01b6145a6565b61289467bfdd8d06fb9457b960c01b6145a6565b60005b6004811015612a42576128b467bd8fbdc46b340ceb60c01b6145a6565b6128c867b66ec164d7b512c360c01b6145a6565b60006040518060a001604052808784600481106128e8576128e761675f565b5b602002015160ff1681526020018484600481106129085761290761675f565b5b602002015173ffffffffffffffffffffffffffffffffffffffff16815260200186846004811061293b5761293a61675f565b5b602002015169ffffffffffffffffffff1681526020018584600481106129645761296361675f565b5b602002015162ffffff1681526020016000815250905061298e67c5a70c75711d1cd860c01b6145a6565b80609f60008885600481106129a6576129a561675f565b5b602002015160ff1681526020019081526020016000206000820151816000015560208201518160010160006101000a81548173ffffffffffffffffffffffffffffffffffffffff021916908373ffffffffffffffffffffffffffffffffffffffff160217905550604082015181600201556060820151816003015560808201518160040155905050508080612a3a9061678e565b915050612897565b50505050508015612aa05760008060016101000a81548160ff0219169083151502179055507f7f26b83ff96e1f2b6a682f133852f6798a09c465da95921460cefb38474024986001604051612a979190616bae565b60405180910390a15b50565b6000606660009054906101000a900473ffffffffffffffffffffffffffffffffffffffff16905090565b60386020528060005260406000206000915054906101000a900460ff1681565b600080600080612b0767f9dbe6af42133f3c60c01b6145a6565b612b1b67d18d0f12f84ddf2d60c01b6145a6565b612b2f6798dda8666c69753a60c01b6145a6565b6000612b45674bdf2108048afe2360c01b6145a6565b612b5967137cfe15870845ff60c01b6145a6565b60005b609e80549050811015612c7757612b7d678aaade53230620de60c01b6145a6565b609d60009054906101000a900473ffffffffffffffffffffffffffffffffffffffff1673ffffffffffffffffffffffffffffffffffffffff166370a08231609e8381548110612bcf57612bce61675f565b5b9060005260206000200160009054906101000a900473ffffffffffffffffffffffffffffffffffffffff166040518263ffffffff1660e01b8152600401612c1691906162c5565b602060405180830381865afa158015612c33573d6000803e3d6000fd5b505050506040513d601f19601f82011682018060405250810190612c579190616bde565b82612c629190616688565b91508080612c6f9061678e565b915050612b5c565b50612c8c67cd91864c3eab683760c01b6145a6565b859450612ca3672b4eebe5a762376960c01b6145a6565b80609d60009054906101000a900473ffffffffffffffffffffffffffffffffffffffff1673ffffffffffffffffffffffffffffffffffffffff166318160ddd6040518163ffffffff1660e01b8152600401602060405180830381865afa158015612d11573d6000803e3d6000fd5b505050506040513d601f19601f82011682018060405250810190612d359190616bde565b612d3f9190616c0b565b9350612d5567d183c7ae65d3f7c960c01b6145a6565b609d60009054906101000a900473ffffffffffffffffffffffffffffffffffffffff1673ffffffffffffffffffffffffffffffffffffffff166370a08231876040518263ffffffff1660e01b8152600401612db091906162c5565b602060405180830381865afa158015612dcd573d6000803e3d6000fd5b505050506040513d601f19601f82011682018060405250810190612df19190616bde565b9250612e0767be9a0dece3f4ed8d60c01b6145a6565b83620186a084612e179190616c3f565b612e219190616cc8565b9150509193509193565b6060612e41673dc54305972e17ea60c01b6142e2565b612e5567fb9d13dc6e588a5860c01b6142e2565b612e69673be019c921453ff660c01b6142e2565b60378054612e7690616628565b80601f0160208091040260200160405190810160405280929190818152602001828054612ea290616628565b8015612eef5780601f10612ec457610100808354040283529160200191612eef565b820191906000526020600020905b815481529060010190602001808311612ed257829003601f168201915b5050505050905090565b6000612f0f671c4e032218fdad6860c01b6145a6565b612f2367da55c44742b2d13c60c01b6145a6565b612f376758d8c2d1f12aafa060c01b6145a6565b6000612f4d67815954cacebf266260c01b6145a6565b612f616794baeb33f2d1b58960c01b6145a6565b6000612f77672193a5124019e65060c01b6145a6565b612f8b67dbf79fc057b44c0d60c01b6145a6565b6000612fa167ef420600adeb114760c01b6145a6565b612fb567d15d4b38d1176f9c60c01b6145a6565b604185510361315d57612fd267be0da4dc91947cd760c01b6145a6565b612fe6674801c7c5d8c5608a60c01b6145a6565b6020850151925060408501519150606085015160001a905061301267af074c3ac27ae02d60c01b6145a6565b613026671cfff8bcefb9c55160c01b6145a6565b60008160ff16036130625761304567b321521a336ac2d260c01b6145a6565b61305967c6a43e3967e0d4e460c01b6145a6565b601b90506130dc565b61307667282f11f8cfaa5e4060c01b6145a6565b61308a671f41d1a07cba237860c01b6145a6565b60018160ff16036130c6576130a9675dc806461613f2f560c01b6145a6565b6130bd67db0eeed77d7c2b9f60c01b6145a6565b601c90506130db565b6130da67cc66cdaf438e188f60c01b6145a6565b5b5b6130f067f0369bf263300e5c60c01b6145a6565b613104671d5c74141040fa0b60c01b6145a6565b600186828585604051600081526020016040526040516131279493929190616d08565b6020604051602081039080840390855afa158015613149573d6000803e3d6000fd5b5050506020604051035193505050506133f8565b61317167d07c6e683da9122860c01b6145a6565b613185673269ea9462a9da0860c01b6145a6565b60408551036133b4576131a2678104f4ba17ad1cfb60c01b6145a6565b6131b6679159cfe5cec9dcb260c01b6145a6565b6131ca67376fa583f6c083ab60c01b6145a6565b60006131e0678c7cd7a9539ce62360c01b6145a6565b60208601519350604086015190506132026725afd2b7340cba2b60c01b6145a6565b7f7fffffffffffffffffffffffffffffffffffffffffffffffffffffffffffffff60001b8116925061323e67158648ec275fec2660c01b6145a6565b601b60ff8260001c901c6132529190616688565b91506132686725dc4a75e98d897960c01b6145a6565b61327c67bc1beef9d22df05760c01b6145a6565b60008260ff16036132b85761329b67c03271601dd0941d60c01b6145a6565b6132af67b0c2bf782ad56abd60c01b6145a6565b601b9150613332565b6132cc674703cd451082a7ad60c01b6145a6565b6132e067100b674f9f1f18a860c01b6145a6565b60018260ff160361331c576132ff671ef82a7cc87cab0460c01b6145a6565b613313671ce1ae06ddf5167160c01b6145a6565b601c9150613331565b61333067d8529b066d8314fa60c01b6145a6565b5b5b61334667b70dc10f2183bb0360c01b6145a6565b61335a675503cea81563cca860c01b6145a6565b6001878386866040516000815260200160405260405161337d9493929190616d08565b6020604051602081039080840390855afa15801561339f573d6000803e3d6000fd5b505050602060405103519450505050506133f8565b6133c8670444a4de35109f2760c01b6145a6565b6133dc67b6ae4b579723d88d60c01b6145a6565b6133f06752985570b007356460c01b6145a6565b600093505050505b92915050565b600061341467a873271e6ad3848160c01b6142e2565b61342867cfe918a45701de5160c01b6142e2565b61343c6784a5b39da8a871b260c01b6142e2565b60006134466142e5565b905061345c676682a132f458a0f960c01b6142e2565b6134706744618e53f61c11a060c01b6142e2565b600061347c8286613cf1565b90506134926717b9fb5b9762aa1e60c01b6142e2565b6134a6674306b5ee4f89f5f860c01b6142e2565b6134ba670a5a9620d306e56560c01b6142e2565b838110156134fd576040517f08c379a00000000000000000000000000000000000000000000000000000000081526004016134f490616dbf565b60405180910390fd5b61351167f46d481eb7c4576060c01b6142e2565b61352567727d438bc81971bb60c01b6142e2565b61353967d8ada52a3aae0e3160c01b6142e2565b61354d670ba4b43a44f1eb0060c01b6142e2565b61355a82868684036142ed565b61356e67f23e17121efcdd9d60c01b6142e2565b61358267fe93e3667119fce560c01b6142e2565b60019250505092915050565b6135a2676bff5d7e0bc567a660c01b6145a6565b6135b667320858d8c0c22dd860c01b6145a6565b6135ca67d7edb5b8dbdd1dbc60c01b6145a6565b6135de677d0e0c2dde0a736e60c01b6145a6565b3373ffffffffffffffffffffffffffffffffffffffff16609b60009054906101000a900473ffffffffffffffffffffffffffffffffffffffff1673ffffffffffffffffffffffffffffffffffffffff16636352211e856040518263ffffffff1660e01b81526004016136509190615c7a565b602060405180830381865afa15801561366d573d6000803e3d6000fd5b505050506040513d601f19601f820116820180604052508101906136919190616df4565b73ffffffffffffffffffffffffffffffffffffffff16146136e7576040517f08c379a00000000000000000000000000000000000000000000000000000000081526004016136de90616e6d565b60405180910390fd5b6136fb67d7804d589dd13b8760c01b6145a6565b61370f670d36c5c2450e9a3460c01b6145a6565b613723672479e94a63fbf7b460c01b6145a6565b61372d338261505c565b61374167feef54094f49bd5660c01b6145a6565b613755670f8d858fa46072bd60c01b6145a6565b7ff556991011e831bcfac4f406d547e5e32cdd98267efab83935230d5f8d02c4463384848460405161378a94939291906162e0565b60405180910390a1505050565b609d60009054906101000a900473ffffffffffffffffffffffffffffffffffffffff1681565b60006137d3671a059d41d4a80a8760c01b6142e2565b6137e767b300f9590bcfcbd960c01b6142e2565b6137fb67bd32cd2354358d6460c01b6142e2565b60006138056142e5565b905061381b6774b5ef077310842660c01b6142e2565b61382f6712fcbcea2f54bc9760c01b6142e2565b61383a818585614a34565b61384e676bae913c4001d87060c01b6142e2565b61386267ee3a671c1a061fd260c01b6142e2565b600191505092915050565b60985481565b609c818051602081018201805184825260208301602085012081835280955050505050506000915054906101000a900460ff1681565b6138bd67c5e4f2680838f89e60c01b6145a6565b6138c56145a9565b6138d96760bd1763e28a664060c01b6145a6565b6138ed67c4c6f2478bb1823060c01b6145a6565b61390167ba47c270ec6dcafe60c01b6145a6565b613915670eeb4c4f8775d1f960c01b6145a6565b60005b83839050811015613aac576139376746547aaf17db038f60c01b6145a6565b816038600086868581811061394f5761394e61675f565b5b90506020020160208101906139649190616122565b73ffffffffffffffffffffffffffffffffffffffff1673ffffffffffffffffffffffffffffffffffffffff16815260200190815260200160002060006101000a81548160ff0219169083151502179055506139c96799d93d69052b0cf760c01b6145a6565b6139dd67da388933414aab5a60c01b6145a6565b8115613a84576139f7670e438afc83a4734760c01b6145a6565b613a0b67ad36b37643a2de8660c01b6145a6565b613a1f674e9520e47498040360c01b6145a6565b613a7f848483818110613a3557613a3461675f565b5b9050602002016020810190613a4a9190616122565b613a7a868685818110613a6057613a5f61675f565b5b9050602002016020810190613a759190616122565b611baa565b61505c565b613a99565b613a9867f02d7a1927eb1d8b60c01b6145a6565b5b8080613aa49061678e565b915050613918565b50505050565b613ac66760e8f73eda0f934160c01b6145a6565b613ada67a0f066806c6c0bb660c01b6145a6565b613aee671d414c0a9e9f0d4d60c01b6145a6565b613b0267b5b423120e08c8ed60c01b6145a6565b613b16676bfc075ff09ea1c960c01b6145a6565b609b60009054906101000a900473ffffffffffffffffffffffffffffffffffffffff1673ffffffffffffffffffffffffffffffffffffffff163373ffffffffffffffffffffffffffffffffffffffff16148015613b835750613b82670aa34b9dc2c3b8b960c01b6153c4565b5b80613bf7575060a260009054906101000a900473ffffffffffffffffffffffffffffffffffffffff1673ffffffffffffffffffffffffffffffffffffffff163373ffffffffffffffffffffffffffffffffffffffff16148015613bf65750613bf567cd5a22034dbf93b960c01b6153c4565b5b5b613c36576040517f08c379a0000000000000000000000000000000000000000000000000000000008152600401613c2d9061692e565b60405180910390fd5b613c4a67a4813fd187769fc760c01b6145a6565b613c5e6724d99a14c9f8dc1460c01b6145a6565b613c7267350d2e94852dbd3560c01b6145a6565b613c86672f24955a145f648960c01b6145a6565b613c9a6722ab1b68e91caaa860c01b6145a6565b613cae6739ad0dd03f45c0bb60c01b6145a6565b613cb983838361488b565b613ccd67ee5f2d6f9cd6bf3060c01b6145a6565b613ce167be4b27fb23dd1e0160c01b6145a6565b613cec838383614a34565b505050565b6000613d0767c2f816634474a7ae60c01b6142e2565b613d1b6731e2b61681827ad560c01b6142e2565b613d2f67e95cfbb3a68540c960c01b6142e2565b603460008473ffffffffffffffffffffffffffffffffffffffff1673ffffffffffffffffffffffffffffffffffffffff16815260200190815260200160002060008373ffffffffffffffffffffffffffffffffffffffff1673ffffffffffffffffffffffffffffffffffffffff16815260200190815260200160002054905092915050565b613dc867c17398495fb9a7d260c01b6145a6565b613ddc6713f56dc52190169d60c01b6145a6565b613df067aff6c767bd7e271d60c01b6145a6565b613e0467de1d4b8ab257baea60c01b6145a6565b613e1a613e0f612aa3565b836060015183614e96565b8015613e4f5750609c81604051613e31919061681d565b908152602001604051809103902060009054906101000a900460ff16155b8015613ef45750609b60009054906101000a900473ffffffffffffffffffffffffffffffffffffffff1673ffffffffffffffffffffffffffffffffffffffff1663c9941806826040518263ffffffff1660e01b8152600401613eb1919061687e565b602060405180830381865afa158015613ece573d6000803e3d6000fd5b505050506040513d601f19601f82011682018060405250810190613ef291906168b5565b155b8015613f99575060a060009054906101000a900473ffffffffffffffffffffffffffffffffffffffff1673ffffffffffffffffffffffffffffffffffffffff1663c9941806826040518263ffffffff1660e01b8152600401613f56919061687e565b602060405180830381865afa158015613f73573d6000803e3d6000fd5b505050506040513d601f19601f82011682018060405250810190613f9791906168b5565b155b613fd8576040517f08c379a0000000000000000000000000000000000000000000000000000000008152600401613fcf9061692e565b60405180910390fd5b613fec67eff01c9414fe8c7c60c01b6145a6565b61400067218cbc4192e8e09160c01b6145a6565b61401467d997025ba215d2dc60c01b6145a6565b61402867e11a8fee8c764f6860c01b6145a6565b3373ffffffffffffffffffffffffffffffffffffffff16609b60009054906101000a900473ffffffffffffffffffffffffffffffffffffffff1673ffffffffffffffffffffffffffffffffffffffff16636352211e84602001516040518263ffffffff1660e01b815260040161409e9190615c7a565b602060405180830381865afa1580156140bb573d6000803e3d6000fd5b505050506040513d601f19601f820116820180604052508101906140df9190616df4565b73ffffffffffffffffffffffffffffffffffffffff1614614135576040517f08c379a000000000000000000000000000000000000000000000000000000000815260040161412c90616ed9565b60405180910390fd5b61414967f99b4107f4a8fce460c01b6145a6565b61415d673f6917e5c750729b60c01b6145a6565b614171674eefbb1c4f75de0b60c01b6145a6565b61417f33836040015161505c565b61419367ff969efac3715ad460c01b6145a6565b6001609c826040516141a5919061681d565b908152602001604051809103902060006101000a81548160ff0219169083151502179055506141de672ce227762351a70a60c01b6145a6565b6141f267846747d667594c9860c01b6145a6565b7fc02f575e81455b4c23297b24a8d0fa6faa0dfb2913e7e65fb48e286090d99d363383602001518460000151856040015160405161423394939291906162e0565b60405180910390a15050565b6142476145a9565b600073ffffffffffffffffffffffffffffffffffffffff168173ffffffffffffffffffffffffffffffffffffffff16036142b6576040517f08c379a00000000000000000000000000000000000000000000000000000000081526004016142ad90616f6b565b60405180910390fd5b6142bf816153cf565b50565b60a16020528060005260406000206000915054906101000a900460ff1681565b50565b600033905090565b614301674b88d485f6e76b9560c01b6142e2565b6143156793606422f413e36660c01b6142e2565b61432967f61947ad80db280560c01b6142e2565b61433d6783c5c766e31a745b60c01b6142e2565b600073ffffffffffffffffffffffffffffffffffffffff168373ffffffffffffffffffffffffffffffffffffffff16036143ac576040517f08c379a00000000000000000000000000000000000000000000000000000000081526004016143a390616ffd565b60405180910390fd5b6143c067dfb9d976b400069a60c01b6142e2565b6143d467331cf4800ff77f4260c01b6142e2565b6143e86763c9257b187f29b460c01b6142e2565b6143fc677f4953d0e5300eab60c01b6142e2565b600073ffffffffffffffffffffffffffffffffffffffff168273ffffffffffffffffffffffffffffffffffffffff160361446b576040517f08c379a00000000000000000000000000000000000000000000000000000000081526004016144629061708f565b60405180910390fd5b61447f67b61c7d27c32e0b7160c01b6142e2565b6144936776ad9f179cd6468b60c01b6142e2565b80603460008573ffffffffffffffffffffffffffffffffffffffff1673ffffffffffffffffffffffffffffffffffffffff16815260200190815260200160002060008473ffffffffffffffffffffffffffffffffffffffff1673ffffffffffffffffffffffffffffffffffffffff1681526020019081526020016000208190555061452867ea6818da5dd4de0560c01b6142e2565b61453c6753df8f353c68c32560c01b6142e2565b8173ffffffffffffffffffffffffffffffffffffffff168373ffffffffffffffffffffffffffffffffffffffff167f8c5be1e5ebec7d5bd14f71427d1e84f3dd0314c0f7b2291e5b200ac8c7c3b925836040516145999190615c7a565b60405180910390a3505050565b50565b6145b16142e5565b73ffffffffffffffffffffffffffffffffffffffff166145cf612aa3565b73ffffffffffffffffffffffffffffffffffffffff1614614625576040517f08c379a000000000000000000000000000000000000000000000000000000000815260040161461c906170fb565b60405180910390fd5b565b61463b67287a47dff4b3f6ce60c01b6142e2565b61464f671dd61082f97fe7a560c01b6142e2565b61466367dc4bb6ff329fc11b60c01b6142e2565b61467767a3ab49c4af91656f60c01b6142e2565b600073ffffffffffffffffffffffffffffffffffffffff168273ffffffffffffffffffffffffffffffffffffffff16036146e6576040517f08c379a00000000000000000000000000000000000000000000000000000000081526004016146dd90617167565b60405180910390fd5b6146fa67a68e6789e789a54e60c01b6142e2565b61470e673934735c5ab6d35160c01b6142e2565b614722670125da76cc93db9060c01b6142e2565b61472e600083836155d2565b614742672df4be57c556fd5c60c01b6142e2565b80603560008282546147549190616688565b9250508190555061476f6707b913821b806c5760c01b6142e2565b80603360008473ffffffffffffffffffffffffffffffffffffffff1673ffffffffffffffffffffffffffffffffffffffff16815260200190815260200160002060008282546147be9190616688565b925050819055506147d9677d80fc90d662980e60c01b6142e2565b6147ed679668b7b23b47861760c01b6142e2565b8173ffffffffffffffffffffffffffffffffffffffff16600073ffffffffffffffffffffffffffffffffffffffff167fddf252ad1be2c89b69c2b068fc378daa952ba7f163c4a11628f55a4df523b3ef8360405161484b9190615c7a565b60405180910390a361486767bf680af0ad68b64d60c01b6142e2565b61487b67c0c447c3e695d31c60c01b6142e2565b61488760008383615732565b5050565b61489f67321ef60c190ba46760c01b6142e2565b6148b367e4ed714f179da9fd60c01b6142e2565b6148c767d74a59f4e27685ab60c01b6142e2565b60006148d38484613cf1565b90506148e967ecb2651b42ddd16260c01b6142e2565b6148fd67e86535689db8819760c01b6142e2565b7fffffffffffffffffffffffffffffffffffffffffffffffffffffffffffffffff8114614a1957614938671b4116d119fed99060c01b6142e2565b61494c679c14f1482ebd3f0360c01b6142e2565b61496067d145e9f104d95df760c01b6142e2565b61497467c5b6c10d3c73b8c060c01b6142e2565b818110156149b7576040517f08c379a00000000000000000000000000000000000000000000000000000000081526004016149ae906171d3565b60405180910390fd5b6149cb676adae15a164c1d4160c01b6142e2565b6149df67a27da2e601a0a24060c01b6142e2565b6149f36757d26c6d4d17e11860c01b6142e2565b614a0767465a6ade2c65928760c01b6142e2565b614a1484848484036142ed565b614a2e565b614a2d6742503d4feced536f60c01b6142e2565b5b50505050565b614a4867da5313f878b2a56060c01b6142e2565b614a5c67e7c676e32934131960c01b6142e2565b614a7067ef7fdafcdbd5899f60c01b6142e2565b614a8467ba544287eb6b716b60c01b6142e2565b600073ffffffffffffffffffffffffffffffffffffffff168373ffffffffffffffffffffffffffffffffffffffff1603614af3576040517f08c379a0000000000000000000000000000000000000000000000000000000008152600401614aea90617265565b60405180910390fd5b614b076780c1595c0274fbe960c01b6142e2565b614b1b673f4f718c38c375fe60c01b6142e2565b614b2f67bf3bf3f712daf56360c01b6142e2565b614b4367e823d7d6caae29ff60c01b6142e2565b600073ffffffffffffffffffffffffffffffffffffffff168273ffffffffffffffffffffffffffffffffffffffff1603614bb2576040517f08c379a0000000000000000000000000000000000000000000000000000000008152600401614ba9906172f7565b60405180910390fd5b614bc667e576c5b51c8b528060c01b6142e2565b614bda67ebe817e0272c9eb660c01b6142e2565b614bee676b423680e18fb11660c01b6142e2565b614bf98383836155d2565b614c0d67e51fbd5231ac066760c01b6142e2565b614c21676b00924884a2206c60c01b6142e2565b6000603360008573ffffffffffffffffffffffffffffffffffffffff1673ffffffffffffffffffffffffffffffffffffffff168152602001908152602001600020549050614c7967f2cb39a5978ae8f360c01b6142e2565b614c8d67a42fa0770bab288a60c01b6142e2565b614ca16784e7ce63f3ec7b5b60c01b6142e2565b81811015614ce4576040517f08c379a0000000000000000000000000000000000000000000000000000000008152600401614cdb90617389565b60405180910390fd5b614cf86790f03ff30b6be67c60c01b6142e2565b614d0c671004286e65991a8c60c01b6142e2565b614d2067f4340c34f2e122b360c01b6142e2565b818103603360008673ffffffffffffffffffffffffffffffffffffffff1673ffffffffffffffffffffffffffffffffffffffff16815260200190815260200160002081905550614d7a671aebf4c4b494d3c860c01b6142e2565b81603360008573ffffffffffffffffffffffffffffffffffffffff1673ffffffffffffffffffffffffffffffffffffffff1681526020019081526020016000206000828254614dc99190616688565b92505081905550614de467aa50e6f7f3bdb75160c01b6142e2565b614df8677cbc950fdcb9db2760c01b6142e2565b8273ffffffffffffffffffffffffffffffffffffffff168473ffffffffffffffffffffffffffffffffffffffff167fddf252ad1be2c89b69c2b068fc378daa952ba7f163c4a11628f55a4df523b3ef84604051614e559190615c7a565b60405180910390a3614e7167c9ba652c062c32e060c01b6142e2565b614e856736e246612345295560c01b6142e2565b614e90848484615732565b50505050565b6000806000614ea5858561574b565b9150915060006004811115614ebd57614ebc6173a9565b5b816004811115614ed057614ecf6173a9565b5b148015614f0857508573ffffffffffffffffffffffffffffffffffffffff168273ffffffffffffffffffffffffffffffffffffffff16145b15614f1857600192505050615055565b6000808773ffffffffffffffffffffffffffffffffffffffff16631626ba7e60e01b8888604051602401614f4d9291906173d8565b604051602081830303815290604052907bffffffffffffffffffffffffffffffffffffffffffffffffffffffff19166020820180517bffffffffffffffffffffffffffffffffffffffffffffffffffffffff8381831617835250505050604051614fb7919061681d565b600060405180830381855afa9150503d8060008114614ff2576040519150601f19603f3d011682016040523d82523d6000602084013e614ff7565b606091505b509150915081801561500a575060208151145b801561504e5750631626ba7e60e01b7bffffffffffffffffffffffffffffffffffffffffffffffffffffffff19168180602001905181019061504c919061741d565b145b9450505050505b9392505050565b61507067ac5fee09f554f40860c01b6142e2565b61508467508762e43645964060c01b6142e2565b61509867da7ced7a6ca6724a60c01b6142e2565b6150ac6731416c661633205a60c01b6142e2565b600073ffffffffffffffffffffffffffffffffffffffff168273ffffffffffffffffffffffffffffffffffffffff160361511b576040517f08c379a0000000000000000000000000000000000000000000000000000000008152600401615112906174bc565b60405180910390fd5b61512f67b27da3bc1e057ceb60c01b6142e2565b61514367fd99199e4eb9e58b60c01b6142e2565b61515767b21a2f30dff7a92b60c01b6142e2565b615163826000836155d2565b615177674990f874a49a789960c01b6142e2565b61518b677f9c071f12acc5c860c01b6142e2565b6000603360008473ffffffffffffffffffffffffffffffffffffffff1673ffffffffffffffffffffffffffffffffffffffff1681526020019081526020016000205490506151e3678eacfe866e08a9fb60c01b6142e2565b6151f767c23bf79e2dbae3d260c01b6142e2565b61520b678c96478acaffd25960c01b6142e2565b8181101561524e576040517f08c379a00000000000000000000000000000000000000000000000000000000081526004016152459061754e565b60405180910390fd5b6152626733ddf41f383a75ef60c01b6142e2565b61527667bbe2555e4f7fb5c660c01b6142e2565b61528a67481818188c2ccf9460c01b6142e2565b818103603360008573ffffffffffffffffffffffffffffffffffffffff1673ffffffffffffffffffffffffffffffffffffffff168152602001908152602001600020819055506152e46794c7015a06bcaa6060c01b6142e2565b81603560008282546152f69190616c0b565b9250508190555061531167be0ce65cb13c00a760c01b6142e2565b615325673fe0e200aa76a2d260c01b6142e2565b600073ffffffffffffffffffffffffffffffffffffffff168373ffffffffffffffffffffffffffffffffffffffff167fddf252ad1be2c89b69c2b068fc378daa952ba7f163c4a11628f55a4df523b3ef846040516153839190615c7a565b60405180910390a361539f6793dfbc259449a3c660c01b6142e2565b6153b367872296d5a5ff357060c01b6142e2565b6153bf83600084615732565b505050565b600060019050919050565b6000606660009054906101000a900473ffffffffffffffffffffffffffffffffffffffff16905081606660006101000a81548173ffffffffffffffffffffffffffffffffffffffff021916908373ffffffffffffffffffffffffffffffffffffffff1602179055508173ffffffffffffffffffffffffffffffffffffffff168173ffffffffffffffffffffffffffffffffffffffff167f8be0079c531659141344cd1fd0a4f28419497f9722a3daafe3b4186f6b6457e060405160405180910390a35050565b6000808273ffffffffffffffffffffffffffffffffffffffff163b119050919050565b6154cc670f0c6b3d63be556860c01b6142e2565b600060019054906101000a900460ff1661551b576040517f08c379a0000000000000000000000000000000000000000000000000000000008152600401615512906175e0565b60405180910390fd5b61552f677dd271b6e458590d60c01b6142e2565b615543676ab6df4a3012f03960c01b6142e2565b61555767d88968175eaeb08c60c01b6142e2565b61556b673446e87ff6d1569460c01b6142e2565b615575828261579c565b5050565b600060019054906101000a900460ff166155c8576040517f08c379a00000000000000000000000000000000000000000000000000000000081526004016155bf906175e0565b60405180910390fd5b6155d0615873565b565b6155e6671b437cd840361fc560c01b6142e2565b6155fa67c568186ef9c5559a60c01b6142e2565b61560e6723a773af8fb0064660c01b6142e2565b61562267c2d6deca9ed9a07860c01b6142e2565b603860008473ffffffffffffffffffffffffffffffffffffffff1673ffffffffffffffffffffffffffffffffffffffff16815260200190815260200160002060009054906101000a900460ff161580156156c65750603860008373ffffffffffffffffffffffffffffffffffffffff1673ffffffffffffffffffffffffffffffffffffffff16815260200190815260200160002060009054906101000a900460ff16155b615705576040517f08c379a00000000000000000000000000000000000000000000000000000000081526004016156fc9061764c565b60405180910390fd5b61571967ff4c715cd3506d7960c01b6142e2565b61572d67ac7faee281cc04a660c01b6142e2565b505050565b615746676594d24c77ea8b3460c01b6142e2565b505050565b600080604183510361578c5760008060006020860151925060408601519150606086015160001a9050615780878285856158d4565b94509450505050615795565b60006002915091505b9250929050565b6157b06725306d7a08a9c3a460c01b6142e2565b600060019054906101000a900460ff166157ff576040517f08c379a00000000000000000000000000000000000000000000000000000000081526004016157f6906175e0565b60405180910390fd5b61581367a3a58ca4de9d8c9260c01b6142e2565b615827670a5a041356cb553a60c01b6142e2565b61583b67cd304845b6b8164660c01b6142e2565b816036908161584a919061780e565b5061585f672778e1a5aacb726e60c01b6142e2565b806037908161586e919061780e565b505050565b600060019054906101000a900460ff166158c2576040517f08c379a00000000000000000000000000000000000000000000000000000000081526004016158b9906175e0565b60405180910390fd5b6158d26158cd6142e5565b6153cf565b565b6000807f7fffffffffffffffffffffffffffffff5d576e7357a4501ddfe92f46681b20a08360001c111561590f5760006003915091506159ad565b6000600187878787604051600081526020016040526040516159349493929190616d08565b6020604051602081039080840390855afa158015615956573d6000803e3d6000fd5b505050602060405103519050600073ffffffffffffffffffffffffffffffffffffffff168173ffffffffffffffffffffffffffffffffffffffff16036159a4576000600192509250506159ad565b80600092509250505b94509492505050565b50805460008255906000526020600020908101906159d491906159d7565b50565b5b808211156159f05760008160009055506001016159d8565b5090565b600073ffffffffffffffffffffffffffffffffffffffff82169050919050565b6000819050919050565b6000615a39615a34615a2f846159f4565b615a14565b6159f4565b9050919050565b6000615a4b82615a1e565b9050919050565b6000615a5d82615a40565b9050919050565b615a6d81615a52565b82525050565b6000602082019050615a886000830184615a64565b92915050565b600081519050919050565b600082825260208201905092915050565b60005b83811015615ac8578082015181840152602081019050615aad565b60008484015250505050565b6000601f19601f8301169050919050565b6000615af082615a8e565b615afa8185615a99565b9350615b0a818560208601615aaa565b615b1381615ad4565b840191505092915050565b60006020820190508181036000830152615b388184615ae5565b905092915050565b6000604051905090565b600080fd5b600080fd5b6000615b5f826159f4565b9050919050565b615b6f81615b54565b8114615b7a57600080fd5b50565b600081359050615b8c81615b66565b92915050565b6000819050919050565b615ba581615b92565b8114615bb057600080fd5b50565b600081359050615bc281615b9c565b92915050565b60008060408385031215615bdf57615bde615b4a565b5b6000615bed85828601615b7d565b9250506020615bfe85828601615bb3565b9150509250929050565b60008115159050919050565b615c1d81615c08565b82525050565b6000602082019050615c386000830184615c14565b92915050565b600060208284031215615c5457615c53615b4a565b5b6000615c6284828501615bb3565b91505092915050565b615c7481615b92565b82525050565b6000602082019050615c8f6000830184615c6b565b92915050565b600080fd5b600080fd5b600080fd5b60008083601f840112615cba57615cb9615c95565b5b8235905067ffffffffffffffff811115615cd757615cd6615c9a565b5b602083019150836020820283011115615cf357615cf2615c9f565b5b9250929050565b60008083601f840112615d1057615d0f615c95565b5b8235905067ffffffffffffffff811115615d2d57615d2c615c9a565b5b602083019150836020820283011115615d4957615d48615c9f565b5b9250929050565b6000806000806000806000806080898b031215615d7057615d6f615b4a565b5b600089013567ffffffffffffffff811115615d8e57615d8d615b4f565b5b615d9a8b828c01615ca4565b9850985050602089013567ffffffffffffffff811115615dbd57615dbc615b4f565b5b615dc98b828c01615cfa565b9650965050604089013567ffffffffffffffff811115615dec57615deb615b4f565b5b615df88b828c01615ca4565b9450945050606089013567ffffffffffffffff811115615e1b57615e1a615b4f565b5b615e278b828c01615ca4565b92509250509295985092959890939650565b600080600060608486031215615e5257615e51615b4a565b5b6000615e6086828701615b7d565b9350506020615e7186828701615b7d565b9250506040615e8286828701615bb3565b9150509250925092565b615e9581615b54565b82525050565b600060a082019050615eb06000830188615c6b565b615ebd6020830187615e8c565b615eca6040830186615c6b565b615ed76060830185615c6b565b615ee46080830184615c6b565b9695505050505050565b600060ff82169050919050565b615f0481615eee565b82525050565b6000602082019050615f1f6000830184615efb565b92915050565b60008060208385031215615f3c57615f3b615b4a565b5b600083013567ffffffffffffffff811115615f5a57615f59615b4f565b5b615f6685828601615cfa565b92509250509250929050565b600080fd5b600060408284031215615f8d57615f8c615f72565b5b81905092915050565b600080fd5b7f4e487b7100000000000000000000000000000000000000000000000000000000600052604160045260246000fd5b615fd382615ad4565b810181811067ffffffffffffffff82111715615ff257615ff1615f9b565b5b80604052505050565b6000616005615b40565b90506160118282615fca565b919050565b600067ffffffffffffffff82111561603157616030615f9b565b5b61603a82615ad4565b9050602081019050919050565b82818337600083830152505050565b600061606961606484616016565b615ffb565b90508281526020810184848401111561608557616084615f96565b5b616090848285616047565b509392505050565b600082601f8301126160ad576160ac615c95565b5b81356160bd848260208601616056565b91505092915050565b600080606083850312156160dd576160dc615b4a565b5b60006160eb85828601615f77565b925050604083013567ffffffffffffffff81111561610c5761610b615b4f565b5b61611885828601616098565b9150509250929050565b60006020828403121561613857616137615b4a565b5b600061614684828501615b7d565b91505092915050565b600080fd5b6000819050919050565b61616781616154565b811461617257600080fd5b50565b6000813590506161848161615e565b92915050565b6000606082840312156161a05761619f61614f565b5b6161aa6060615ffb565b905060006161ba84828501615bb3565b60008301525060206161ce84828501615bb3565b60208301525060406161e284828501616175565b60408301525092915050565b6000806080838503121561620557616204615b4a565b5b60006162138582860161618a565b925050606083013567ffffffffffffffff81111561623457616233615b4f565b5b61624085828601616098565b9150509250929050565b600080600080600060a0868803121561626657616265615b4a565b5b600061627488828901615b7d565b955050602061628588828901615b7d565b945050604061629688828901615b7d565b93505060606162a788828901615b7d565b92505060806162b888828901615b7d565b9150509295509295909350565b60006020820190506162da6000830184615e8c565b92915050565b60006080820190506162f56000830187615e8c565b6163026020830186615c6b565b61630f6040830185615c6b565b61631c6060830184615c6b565b95945050505050565b6000806040838503121561633c5761633b615b4a565b5b600061634a85828601616175565b925050602083013567ffffffffffffffff81111561636b5761636a615b4f565b5b61637785828601616098565b9150509250929050565b60008060006060848603121561639a57616399615b4a565b5b60006163a886828701615bb3565b93505060206163b986828701615bb3565b92505060406163ca86828701615bb3565b9150509250925092565b60006163df82615a40565b9050919050565b6163ef816163d4565b82525050565b600060208201905061640a60008301846163e6565b92915050565b60006020828403121561642657616425615b4a565b5b600082013567ffffffffffffffff81111561644457616443615b4f565b5b61645084828501616098565b91505092915050565b61646281615c08565b811461646d57600080fd5b50565b60008135905061647f81616459565b92915050565b60008060006040848603121561649e5761649d615b4a565b5b600084013567ffffffffffffffff8111156164bc576164bb615b4f565b5b6164c886828701615cfa565b935093505060206164db86828701616470565b9150509250925092565b600080604083850312156164fc576164fb615b4a565b5b600061650a85828601615b7d565b925050602061651b85828601615b7d565b9150509250929050565b60006080828403121561653b5761653a61614f565b5b6165456080615ffb565b9050600061655584828501615bb3565b600083015250602061656984828501615bb3565b602083015250604061657d84828501615bb3565b604083015250606061659184828501616175565b60608301525092915050565b60008060a083850312156165b4576165b3615b4a565b5b60006165c285828601616525565b925050608083013567ffffffffffffffff8111156165e3576165e2615b4f565b5b6165ef85828601616098565b9150509250929050565b7f4e487b7100000000000000000000000000000000000000000000000000000000600052602260045260246000fd5b6000600282049050600182168061664057607f821691505b602082108103616653576166526165f9565b5b50919050565b7f4e487b7100000000000000000000000000000000000000000000000000000000600052601160045260246000fd5b600061669382615b92565b915061669e83615b92565b92508282019050808211156166b6576166b5616659565b5b92915050565b7f4e696f7a45524332303a2054696d65206973206e6f7420757000000000000000600082015250565b60006166f2601983615a99565b91506166fd826166bc565b602082019050919050565b60006020820190508181036000830152616721816166e5565b9050919050565b600060608201905061673d6000830186615e8c565b61674a6020830185615c6b565b6167576040830184615c6b565b949350505050565b7f4e487b7100000000000000000000000000000000000000000000000000000000600052603260045260246000fd5b600061679982615b92565b91507fffffffffffffffffffffffffffffffffffffffffffffffffffffffffffffffff82036167cb576167ca616659565b5b600182019050919050565b600081519050919050565b600081905092915050565b60006167f7826167d6565b61680181856167e1565b9350616811818560208601615aaa565b80840191505092915050565b600061682982846167ec565b915081905092915050565b600082825260208201905092915050565b6000616850826167d6565b61685a8185616834565b935061686a818560208601615aaa565b61687381615ad4565b840191505092915050565b600060208201905081810360008301526168988184616845565b905092915050565b6000815190506168af81616459565b92915050565b6000602082840312156168cb576168ca615b4a565b5b60006168d9848285016168a0565b91505092915050565b7f4e696f7a45524332303a204e6f7420616c6c6f77656400000000000000000000600082015250565b6000616918601683615a99565b9150616923826168e2565b602082019050919050565b600060208201905081810360008301526169478161690b565b9050919050565b7f4e696f7a45524332303a20416d6f756e74206973207a65726f00000000000000600082015250565b6000616984601983615a99565b915061698f8261694e565b602082019050919050565b600060208201905081810360008301526169b381616977565b9050919050565b60006040820190506169cf6000830185615e8c565b6169dc6020830184615c6b565b9392505050565b7f4e696f7a45524332303a20457863656564732062616c616e636520616d6f756e60008201527f7400000000000000000000000000000000000000000000000000000000000000602082015250565b6000616a3f602183615a99565b9150616a4a826169e3565b604082019050919050565b60006020820190508181036000830152616a6e81616a32565b9050919050565b7f4e696f7a45524332303a20416c726561647920736f6c64000000000000000000600082015250565b6000616aab601783615a99565b9150616ab682616a75565b602082019050919050565b60006020820190508181036000830152616ada81616a9e565b9050919050565b7f496e697469616c697a61626c653a20636f6e747261637420697320616c72656160008201527f647920696e697469616c697a6564000000000000000000000000000000000000602082015250565b6000616b3d602e83615a99565b9150616b4882616ae1565b604082019050919050565b60006020820190508181036000830152616b6c81616b30565b9050919050565b6000819050919050565b6000616b98616b93616b8e84616b73565b615a14565b615eee565b9050919050565b616ba881616b7d565b82525050565b6000602082019050616bc36000830184616b9f565b92915050565b600081519050616bd881615b9c565b92915050565b600060208284031215616bf457616bf3615b4a565b5b6000616c0284828501616bc9565b91505092915050565b6000616c1682615b92565b9150616c2183615b92565b9250828203905081811115616c3957616c38616659565b5b92915050565b6000616c4a82615b92565b9150616c5583615b92565b9250817fffffffffffffffffffffffffffffffffffffffffffffffffffffffffffffffff0483118215151615616c8e57616c8d616659565b5b828202905092915050565b7f4e487b7100000000000000000000000000000000000000000000000000000000600052601260045260246000fd5b6000616cd382615b92565b9150616cde83615b92565b925082616cee57616ced616c99565b5b828204905092915050565b616d0281616154565b82525050565b6000608082019050616d1d6000830187616cf9565b616d2a6020830186615efb565b616d376040830185616cf9565b616d446060830184616cf9565b95945050505050565b7f45524332303a2064656372656173656420616c6c6f77616e63652062656c6f7760008201527f207a65726f000000000000000000000000000000000000000000000000000000602082015250565b6000616da9602583615a99565b9150616db482616d4d565b604082019050919050565b60006020820190508181036000830152616dd881616d9c565b9050919050565b600081519050616dee81615b66565b92915050565b600060208284031215616e0a57616e09615b4a565b5b6000616e1884828501616ddf565b91505092915050565b7f4e696f7a45524332303a204e6f7420616e206f776e6572000000000000000000600082015250565b6000616e57601783615a99565b9150616e6282616e21565b602082019050919050565b60006020820190508181036000830152616e8681616e4a565b9050919050565b7f4e696f7a45524332303a204e6f742061206f776e657200000000000000000000600082015250565b6000616ec3601683615a99565b9150616ece82616e8d565b602082019050919050565b60006020820190508181036000830152616ef281616eb6565b9050919050565b7f4f776e61626c653a206e6577206f776e657220697320746865207a65726f206160008201527f6464726573730000000000000000000000000000000000000000000000000000602082015250565b6000616f55602683615a99565b9150616f6082616ef9565b604082019050919050565b60006020820190508181036000830152616f8481616f48565b9050919050565b7f45524332303a20617070726f76652066726f6d20746865207a65726f2061646460008201527f7265737300000000000000000000000000000000000000000000000000000000602082015250565b6000616fe7602483615a99565b9150616ff282616f8b565b604082019050919050565b6000602082019050818103600083015261701681616fda565b9050919050565b7f45524332303a20617070726f766520746f20746865207a65726f20616464726560008201527f7373000000000000000000000000000000000000000000000000000000000000602082015250565b6000617079602283615a99565b91506170848261701d565b604082019050919050565b600060208201905081810360008301526170a88161706c565b9050919050565b7f4f776e61626c653a2063616c6c6572206973206e6f7420746865206f776e6572600082015250565b60006170e5602083615a99565b91506170f0826170af565b602082019050919050565b60006020820190508181036000830152617114816170d8565b9050919050565b7f45524332303a206d696e7420746f20746865207a65726f206164647265737300600082015250565b6000617151601f83615a99565b915061715c8261711b565b602082019050919050565b6000602082019050818103600083015261718081617144565b9050919050565b7f45524332303a20696e73756666696369656e7420616c6c6f77616e6365000000600082015250565b60006171bd601d83615a99565b91506171c882617187565b602082019050919050565b600060208201905081810360008301526171ec816171b0565b9050919050565b7f45524332303a207472616e736665722066726f6d20746865207a65726f20616460008201527f6472657373000000000000000000000000000000000000000000000000000000602082015250565b600061724f602583615a99565b915061725a826171f3565b604082019050919050565b6000602082019050818103600083015261727e81617242565b9050919050565b7f45524332303a207472616e7366657220746f20746865207a65726f206164647260008201527f6573730000000000000000000000000000000000000000000000000000000000602082015250565b60006172e1602383615a99565b91506172ec82617285565b604082019050919050565b60006020820190508181036000830152617310816172d4565b9050919050565b7f45524332303a207472616e7366657220616d6f756e742065786365656473206260008201527f616c616e63650000000000000000000000000000000000000000000000000000602082015250565b6000617373602683615a99565b915061737e82617317565b604082019050919050565b600060208201905081810360008301526173a281617366565b9050919050565b7f4e487b7100000000000000000000000000000000000000000000000000000000600052602160045260246000fd5b60006040820190506173ed6000830185616cf9565b81810360208301526173ff8184616845565b90509392505050565b6000815190506174178161615e565b92915050565b60006020828403121561743357617432615b4a565b5b600061744184828501617408565b91505092915050565b7f45524332303a206275726e2066726f6d20746865207a65726f2061646472657360008201527f7300000000000000000000000000000000000000000000000000000000000000602082015250565b60006174a6602183615a99565b91506174b18261744a565b604082019050919050565b600060208201905081810360008301526174d581617499565b9050919050565b7f45524332303a206275726e20616d6f756e7420657863656564732062616c616e60008201527f6365000000000000000000000000000000000000000000000000000000000000602082015250565b6000617538602283615a99565b9150617543826174dc565b604082019050919050565b600060208201905081810360008301526175678161752b565b9050919050565b7f496e697469616c697a61626c653a20636f6e7472616374206973206e6f74206960008201527f6e697469616c697a696e67000000000000000000000000000000000000000000602082015250565b60006175ca602b83615a99565b91506175d58261756e565b604082019050919050565b600060208201905081810360008301526175f9816175bd565b9050919050565b7f45524332303a20426c61636b6c69737465642061646472657373000000000000600082015250565b6000617636601a83615a99565b915061764182617600565b602082019050919050565b6000602082019050818103600083015261766581617629565b9050919050565b60008190508160005260206000209050919050565b60006020601f8301049050919050565b600082821b905092915050565b6000600883026176ce7fffffffffffffffffffffffffffffffffffffffffffffffffffffffffffffffff82617691565b6176d88683617691565b95508019841693508086168417925050509392505050565b600061770b61770661770184615b92565b615a14565b615b92565b9050919050565b6000819050919050565b617725836176f0565b61773961773182617712565b84845461769e565b825550505050565b600090565b61774e617741565b61775981848461771c565b505050565b5b8181101561777d57617772600082617746565b60018101905061775f565b5050565b601f8211156177c2576177938161766c565b61779c84617681565b810160208510156177ab578190505b6177bf6177b785617681565b83018261775e565b50505b505050565b600082821c905092915050565b60006177e5600019846008026177c7565b1980831691505092915050565b60006177fe83836177d4565b9150826002028217905092915050565b61781782615a8e565b67ffffffffffffffff8111156178305761782f615f9b565b5b61783a8254616628565b617845828285617781565b600060209050601f8311600181146178785760008415617866578287015190505b61787085826177f2565b8655506178d8565b601f1984166178868661766c565b60005b828110156178ae57848901518255600182019150602085019450602081019050617889565b868310156178cb57848901516178c7601f8916826177d4565b8355505b6001600288020188555050505b50505050505056fea26469706673582212208debf7e65d132b616ec9aa4a45965dc74d5e716144d0cefaa5edd226cbedae1564736f6c63430008100033","opcodes":"PUSH1 0x80 PUSH1 0x40 MSTORE CALLVALUE DUP1 ISZERO PUSH2 0x10 JUMPI PUSH1 0x0 DUP1 REVERT JUMPDEST POP PUSH2 0x7916 DUP1 PUSH3 0x21 PUSH1 0x0 CODECOPY PUSH1 0x0 RETURN INVALID PUSH1 0x80 PUSH1 0x40 MSTORE CALLVALUE DUP1 ISZERO PUSH2 0x10 JUMPI PUSH1 0x0 DUP1 REVERT JUMPDEST POP PUSH1 0x4 CALLDATASIZE LT PUSH2 0x25E JUMPI PUSH1 0x0 CALLDATALOAD PUSH1 0xE0 SHR DUP1 PUSH4 0x790D1D45 GT PUSH2 0x146 JUMPI DUP1 PUSH4 0xA638F2E2 GT PUSH2 0xC3 JUMPI DUP1 PUSH4 0xC997EB8D GT PUSH2 0x87 JUMPI DUP1 PUSH4 0xC997EB8D EQ PUSH2 0x72A JUMPI DUP1 PUSH4 0xD1660F99 EQ PUSH2 0x746 JUMPI DUP1 PUSH4 0xDD62ED3E EQ PUSH2 0x762 JUMPI DUP1 PUSH4 0xF15B40EF EQ PUSH2 0x792 JUMPI DUP1 PUSH4 0xF2FDE38B EQ PUSH2 0x7AE JUMPI DUP1 PUSH4 0xF76B09E9 EQ PUSH2 0x7CA JUMPI PUSH2 0x25E JUMP JUMPDEST DUP1 PUSH4 0xA638F2E2 EQ PUSH2 0x672 JUMPI DUP1 PUSH4 0xA8B08982 EQ PUSH2 0x68E JUMPI DUP1 PUSH4 0xA9059CBB EQ PUSH2 0x6AC JUMPI DUP1 PUSH4 0xB36C1284 EQ PUSH2 0x6DC JUMPI DUP1 PUSH4 0xC9941806 EQ PUSH2 0x6FA JUMPI PUSH2 0x25E JUMP JUMPDEST DUP1 PUSH4 0x8E77FE2F GT PUSH2 0x10A JUMPI DUP1 PUSH4 0x8E77FE2F EQ PUSH2 0x591 JUMPI DUP1 PUSH4 0x9382226C EQ PUSH2 0x5C1 JUMPI DUP1 PUSH4 0x95D89B41 EQ PUSH2 0x5F4 JUMPI DUP1 PUSH4 0x97ABA7F9 EQ PUSH2 0x612 JUMPI DUP1 PUSH4 0xA457C2D7 EQ PUSH2 0x642 JUMPI PUSH2 0x25E JUMP JUMPDEST DUP1 PUSH4 0x790D1D45 EQ PUSH2 0x511 JUMPI DUP1 PUSH4 0x7DD12D15 EQ PUSH2 0x52D JUMPI DUP1 PUSH4 0x7FF9B596 EQ PUSH2 0x54B JUMPI DUP1 PUSH4 0x8129FC1C EQ PUSH2 0x569 JUMPI DUP1 PUSH4 0x8DA5CB5B EQ PUSH2 0x573 JUMPI PUSH2 0x25E JUMP JUMPDEST DUP1 PUSH4 0x35643681 GT PUSH2 0x1DF JUMPI DUP1 PUSH4 0x40C10F19 GT PUSH2 0x1A3 JUMPI DUP1 PUSH4 0x40C10F19 EQ PUSH2 0x467 JUMPI DUP1 PUSH4 0x58ED8061 EQ PUSH2 0x483 JUMPI DUP1 PUSH4 0x6D1B229D EQ PUSH2 0x49F JUMPI DUP1 PUSH4 0x70A08231 EQ PUSH2 0x4BB JUMPI DUP1 PUSH4 0x715018A6 EQ PUSH2 0x4EB JUMPI DUP1 PUSH4 0x76D40744 EQ PUSH2 0x4F5 JUMPI PUSH2 0x25E JUMP JUMPDEST DUP1 PUSH4 0x35643681 EQ PUSH2 0x3C5 JUMPI DUP1 PUSH4 0x36B15E9C EQ PUSH2 0x3E3 JUMPI DUP1 PUSH4 0x39509351 EQ PUSH2 0x3FF JUMPI DUP1 PUSH4 0x3D5AFA16 EQ PUSH2 0x42F JUMPI DUP1 PUSH4 0x3E0BB0AE EQ PUSH2 0x44B JUMPI PUSH2 0x25E JUMP JUMPDEST DUP1 PUSH4 0x1A74AF29 GT PUSH2 0x226 JUMPI DUP1 PUSH4 0x1A74AF29 EQ PUSH2 0x309 JUMPI DUP1 PUSH4 0x1D3A78BE EQ PUSH2 0x325 JUMPI DUP1 PUSH4 0x23B872DD EQ PUSH2 0x343 JUMPI DUP1 PUSH4 0x2E84EE74 EQ PUSH2 0x373 JUMPI DUP1 PUSH4 0x313CE567 EQ PUSH2 0x3A7 JUMPI PUSH2 0x25E JUMP JUMPDEST DUP1 PUSH4 0x4A4362E EQ PUSH2 0x263 JUMPI DUP1 PUSH4 0x6FDDE03 EQ PUSH2 0x281 JUMPI DUP1 PUSH4 0x95EA7B3 EQ PUSH2 0x29F JUMPI DUP1 PUSH4 0xC3A1E40 EQ PUSH2 0x2CF JUMPI DUP1 PUSH4 0x18160DDD EQ PUSH2 0x2EB JUMPI JUMPDEST PUSH1 0x0 DUP1 REVERT JUMPDEST PUSH2 0x26B PUSH2 0x7FA JUMP JUMPDEST PUSH1 0x40 MLOAD PUSH2 0x278 SWAP2 SWAP1 PUSH2 0x5A73 JUMP JUMPDEST PUSH1 0x40 MLOAD DUP1 SWAP2 SUB SWAP1 RETURN JUMPDEST PUSH2 0x289 PUSH2 0x820 JUMP JUMPDEST PUSH1 0x40 MLOAD PUSH2 0x296 SWAP2 SWAP1 PUSH2 0x5B1E JUMP JUMPDEST PUSH1 0x40 MLOAD DUP1 SWAP2 SUB SWAP1 RETURN JUMPDEST PUSH2 0x2B9 PUSH1 0x4 DUP1 CALLDATASIZE SUB DUP2 ADD SWAP1 PUSH2 0x2B4 SWAP2 SWAP1 PUSH2 0x5BC8 JUMP JUMPDEST PUSH2 0x8EE JUMP JUMPDEST PUSH1 0x40 MLOAD PUSH2 0x2C6 SWAP2 SWAP1 PUSH2 0x5C23 JUMP JUMPDEST PUSH1 0x40 MLOAD DUP1 SWAP2 SUB SWAP1 RETURN JUMPDEST PUSH2 0x2E9 PUSH1 0x4 DUP1 CALLDATASIZE SUB DUP2 ADD SWAP1 PUSH2 0x2E4 SWAP2 SWAP1 PUSH2 0x5C3E JUMP JUMPDEST PUSH2 0x99E JUMP JUMPDEST STOP JUMPDEST PUSH2 0x2F3 PUSH2 0xC0B JUMP JUMPDEST PUSH1 0x40 MLOAD PUSH2 0x300 SWAP2 SWAP1 PUSH2 0x5C7A JUMP JUMPDEST PUSH1 0x40 MLOAD DUP1 SWAP2 SUB SWAP1 RETURN JUMPDEST PUSH2 0x323 PUSH1 0x4 DUP1 CALLDATASIZE SUB DUP2 ADD SWAP1 PUSH2 0x31E SWAP2 SWAP1 PUSH2 0x5D50 JUMP JUMPDEST PUSH2 0xC51 JUMP JUMPDEST STOP JUMPDEST PUSH2 0x32D PUSH2 0xE8D JUMP JUMPDEST PUSH1 0x40 MLOAD PUSH2 0x33A SWAP2 SWAP1 PUSH2 0x5A73 JUMP JUMPDEST PUSH1 0x40 MLOAD DUP1 SWAP2 SUB SWAP1 RETURN JUMPDEST PUSH2 0x35D PUSH1 0x4 DUP1 CALLDATASIZE SUB DUP2 ADD SWAP1 PUSH2 0x358 SWAP2 SWAP1 PUSH2 0x5E39 JUMP JUMPDEST PUSH2 0xEB3 JUMP JUMPDEST PUSH1 0x40 MLOAD PUSH2 0x36A SWAP2 SWAP1 PUSH2 0x5C23 JUMP JUMPDEST PUSH1 0x40 MLOAD DUP1 SWAP2 SUB SWAP1 RETURN JUMPDEST PUSH2 0x38D PUSH1 0x4 DUP1 CALLDATASIZE SUB DUP2 ADD SWAP1 PUSH2 0x388 SWAP2 SWAP1 PUSH2 0x5C3E JUMP JUMPDEST PUSH2 0xF97 JUMP JUMPDEST PUSH1 0x40 MLOAD PUSH2 0x39E SWAP6 SWAP5 SWAP4 SWAP3 SWAP2 SWAP1 PUSH2 0x5E9B JUMP JUMPDEST PUSH1 0x40 MLOAD DUP1 SWAP2 SUB SWAP1 RETURN JUMPDEST PUSH2 0x3AF PUSH2 0xFED JUMP JUMPDEST PUSH1 0x40 MLOAD PUSH2 0x3BC SWAP2 SWAP1 PUSH2 0x5F0A JUMP JUMPDEST PUSH1 0x40 MLOAD DUP1 SWAP2 SUB SWAP1 RETURN JUMPDEST PUSH2 0x3CD PUSH2 0x1032 JUMP JUMPDEST PUSH1 0x40 MLOAD PUSH2 0x3DA SWAP2 SWAP1 PUSH2 0x5A73 JUMP JUMPDEST PUSH1 0x40 MLOAD DUP1 SWAP2 SUB SWAP1 RETURN JUMPDEST PUSH2 0x3FD PUSH1 0x4 DUP1 CALLDATASIZE SUB DUP2 ADD SWAP1 PUSH2 0x3F8 SWAP2 SWAP1 PUSH2 0x5F25 JUMP JUMPDEST PUSH2 0x1058 JUMP JUMPDEST STOP JUMPDEST PUSH2 0x419 PUSH1 0x4 DUP1 CALLDATASIZE SUB DUP2 ADD SWAP1 PUSH2 0x414 SWAP2 SWAP1 PUSH2 0x5BC8 JUMP JUMPDEST PUSH2 0x11BE JUMP JUMPDEST PUSH1 0x40 MLOAD PUSH2 0x426 SWAP2 SWAP1 PUSH2 0x5C23 JUMP JUMPDEST PUSH1 0x40 MLOAD DUP1 SWAP2 SUB SWAP1 RETURN JUMPDEST PUSH2 0x449 PUSH1 0x4 DUP1 CALLDATASIZE SUB DUP2 ADD SWAP1 PUSH2 0x444 SWAP2 SWAP1 PUSH2 0x60C6 JUMP JUMPDEST PUSH2 0x1282 JUMP JUMPDEST STOP JUMPDEST PUSH2 0x465 PUSH1 0x4 DUP1 CALLDATASIZE SUB DUP2 ADD SWAP1 PUSH2 0x460 SWAP2 SWAP1 PUSH2 0x5BC8 JUMP JUMPDEST PUSH2 0x163B JUMP JUMPDEST STOP JUMPDEST PUSH2 0x481 PUSH1 0x4 DUP1 CALLDATASIZE SUB DUP2 ADD SWAP1 PUSH2 0x47C SWAP2 SWAP1 PUSH2 0x5BC8 JUMP JUMPDEST PUSH2 0x17B1 JUMP JUMPDEST STOP JUMPDEST PUSH2 0x49D PUSH1 0x4 DUP1 CALLDATASIZE SUB DUP2 ADD SWAP1 PUSH2 0x498 SWAP2 SWAP1 PUSH2 0x5C3E JUMP JUMPDEST PUSH2 0x19BB JUMP JUMPDEST STOP JUMPDEST PUSH2 0x4B9 PUSH1 0x4 DUP1 CALLDATASIZE SUB DUP2 ADD SWAP1 PUSH2 0x4B4 SWAP2 SWAP1 PUSH2 0x5C3E JUMP JUMPDEST PUSH2 0x1A65 JUMP JUMPDEST STOP JUMPDEST PUSH2 0x4D5 PUSH1 0x4 DUP1 CALLDATASIZE SUB DUP2 ADD SWAP1 PUSH2 0x4D0 SWAP2 SWAP1 PUSH2 0x6122 JUMP JUMPDEST PUSH2 0x1BAA JUMP JUMPDEST PUSH1 0x40 MLOAD PUSH2 0x4E2 SWAP2 SWAP1 PUSH2 0x5C7A JUMP JUMPDEST PUSH1 0x40 MLOAD DUP1 SWAP2 SUB SWAP1 RETURN JUMPDEST PUSH2 0x4F3 PUSH2 0x1C2F JUMP JUMPDEST STOP JUMPDEST PUSH2 0x50F PUSH1 0x4 DUP1 CALLDATASIZE SUB DUP2 ADD SWAP1 PUSH2 0x50A SWAP2 SWAP1 PUSH2 0x61EE JUMP JUMPDEST PUSH2 0x1C43 JUMP JUMPDEST STOP JUMPDEST PUSH2 0x52B PUSH1 0x4 DUP1 CALLDATASIZE SUB DUP2 ADD SWAP1 PUSH2 0x526 SWAP2 SWAP1 PUSH2 0x624A JUMP JUMPDEST PUSH2 0x2109 JUMP JUMPDEST STOP JUMPDEST PUSH2 0x535 PUSH2 0x22FD JUMP JUMPDEST PUSH1 0x40 MLOAD PUSH2 0x542 SWAP2 SWAP1 PUSH2 0x62C5 JUMP JUMPDEST PUSH1 0x40 MLOAD DUP1 SWAP2 SUB SWAP1 RETURN JUMPDEST PUSH2 0x553 PUSH2 0x2323 JUMP JUMPDEST PUSH1 0x40 MLOAD PUSH2 0x560 SWAP2 SWAP1 PUSH2 0x5C7A JUMP JUMPDEST PUSH1 0x40 MLOAD DUP1 SWAP2 SUB SWAP1 RETURN JUMPDEST PUSH2 0x571 PUSH2 0x2329 JUMP JUMPDEST STOP JUMPDEST PUSH2 0x57B PUSH2 0x2AA3 JUMP JUMPDEST PUSH1 0x40 MLOAD PUSH2 0x588 SWAP2 SWAP1 PUSH2 0x62C5 JUMP JUMPDEST PUSH1 0x40 MLOAD DUP1 SWAP2 SUB SWAP1 RETURN JUMPDEST PUSH2 0x5AB PUSH1 0x4 DUP1 CALLDATASIZE SUB DUP2 ADD SWAP1 PUSH2 0x5A6 SWAP2 SWAP1 PUSH2 0x6122 JUMP JUMPDEST PUSH2 0x2ACD JUMP JUMPDEST PUSH1 0x40 MLOAD PUSH2 0x5B8 SWAP2 SWAP1 PUSH2 0x5C23 JUMP JUMPDEST PUSH1 0x40 MLOAD DUP1 SWAP2 SUB SWAP1 RETURN JUMPDEST PUSH2 0x5DB PUSH1 0x4 DUP1 CALLDATASIZE SUB DUP2 ADD SWAP1 PUSH2 0x5D6 SWAP2 SWAP1 PUSH2 0x6122 JUMP JUMPDEST PUSH2 0x2AED JUMP JUMPDEST PUSH1 0x40 MLOAD PUSH2 0x5EB SWAP5 SWAP4 SWAP3 SWAP2 SWAP1 PUSH2 0x62E0 JUMP JUMPDEST PUSH1 0x40 MLOAD DUP1 SWAP2 SUB SWAP1 RETURN JUMPDEST PUSH2 0x5FC PUSH2 0x2E2B JUMP JUMPDEST PUSH1 0x40 MLOAD PUSH2 0x609 SWAP2 SWAP1 PUSH2 0x5B1E JUMP JUMPDEST PUSH1 0x40 MLOAD DUP1 SWAP2 SUB SWAP1 RETURN JUMPDEST PUSH2 0x62C PUSH1 0x4 DUP1 CALLDATASIZE SUB DUP2 ADD SWAP1 PUSH2 0x627 SWAP2 SWAP1 PUSH2 0x6325 JUMP JUMPDEST PUSH2 0x2EF9 JUMP JUMPDEST PUSH1 0x40 MLOAD PUSH2 0x639 SWAP2 SWAP1 PUSH2 0x62C5 JUMP JUMPDEST PUSH1 0x40 MLOAD DUP1 SWAP2 SUB SWAP1 RETURN JUMPDEST PUSH2 0x65C PUSH1 0x4 DUP1 CALLDATASIZE SUB DUP2 ADD SWAP1 PUSH2 0x657 SWAP2 SWAP1 PUSH2 0x5BC8 JUMP JUMPDEST PUSH2 0x33FE JUMP JUMPDEST PUSH1 0x40 MLOAD PUSH2 0x669 SWAP2 SWAP1 PUSH2 0x5C23 JUMP JUMPDEST PUSH1 0x40 MLOAD DUP1 SWAP2 SUB SWAP1 RETURN JUMPDEST PUSH2 0x68C PUSH1 0x4 DUP1 CALLDATASIZE SUB DUP2 ADD SWAP1 PUSH2 0x687 SWAP2 SWAP1 PUSH2 0x6381 JUMP JUMPDEST PUSH2 0x358E JUMP JUMPDEST STOP JUMPDEST PUSH2 0x696 PUSH2 0x3797 JUMP JUMPDEST PUSH1 0x40 MLOAD PUSH2 0x6A3 SWAP2 SWAP1 PUSH2 0x63F5 JUMP JUMPDEST PUSH1 0x40 MLOAD DUP1 SWAP2 SUB SWAP1 RETURN JUMPDEST PUSH2 0x6C6 PUSH1 0x4 DUP1 CALLDATASIZE SUB DUP2 ADD SWAP1 PUSH2 0x6C1 SWAP2 SWAP1 PUSH2 0x5BC8 JUMP JUMPDEST PUSH2 0x37BD JUMP JUMPDEST PUSH1 0x40 MLOAD PUSH2 0x6D3 SWAP2 SWAP1 PUSH2 0x5C23 JUMP JUMPDEST PUSH1 0x40 MLOAD DUP1 SWAP2 SUB SWAP1 RETURN JUMPDEST PUSH2 0x6E4 PUSH2 0x386D JUMP JUMPDEST PUSH1 0x40 MLOAD PUSH2 0x6F1 SWAP2 SWAP1 PUSH2 0x5C7A JUMP JUMPDEST PUSH1 0x40 MLOAD DUP1 SWAP2 SUB SWAP1 RETURN JUMPDEST PUSH2 0x714 PUSH1 0x4 DUP1 CALLDATASIZE SUB DUP2 ADD SWAP1 PUSH2 0x70F SWAP2 SWAP1 PUSH2 0x6410 JUMP JUMPDEST PUSH2 0x3873 JUMP JUMPDEST PUSH1 0x40 MLOAD PUSH2 0x721 SWAP2 SWAP1 PUSH2 0x5C23 JUMP JUMPDEST PUSH1 0x40 MLOAD DUP1 SWAP2 SUB SWAP1 RETURN JUMPDEST PUSH2 0x744 PUSH1 0x4 DUP1 CALLDATASIZE SUB DUP2 ADD SWAP1 PUSH2 0x73F SWAP2 SWAP1 PUSH2 0x6485 JUMP JUMPDEST PUSH2 0x38A9 JUMP JUMPDEST STOP JUMPDEST PUSH2 0x760 PUSH1 0x4 DUP1 CALLDATASIZE SUB DUP2 ADD SWAP1 PUSH2 0x75B SWAP2 SWAP1 PUSH2 0x5E39 JUMP JUMPDEST PUSH2 0x3AB2 JUMP JUMPDEST STOP JUMPDEST PUSH2 0x77C PUSH1 0x4 DUP1 CALLDATASIZE SUB DUP2 ADD SWAP1 PUSH2 0x777 SWAP2 SWAP1 PUSH2 0x64E5 JUMP JUMPDEST PUSH2 0x3CF1 JUMP JUMPDEST PUSH1 0x40 MLOAD PUSH2 0x789 SWAP2 SWAP1 PUSH2 0x5C7A JUMP JUMPDEST PUSH1 0x40 MLOAD DUP1 SWAP2 SUB SWAP1 RETURN JUMPDEST PUSH2 0x7AC PUSH1 0x4 DUP1 CALLDATASIZE SUB DUP2 ADD SWAP1 PUSH2 0x7A7 SWAP2 SWAP1 PUSH2 0x659D JUMP JUMPDEST PUSH2 0x3DB4 JUMP JUMPDEST STOP JUMPDEST PUSH2 0x7C8 PUSH1 0x4 DUP1 CALLDATASIZE SUB DUP2 ADD SWAP1 PUSH2 0x7C3 SWAP2 SWAP1 PUSH2 0x6122 JUMP JUMPDEST PUSH2 0x423F JUMP JUMPDEST STOP JUMPDEST PUSH2 0x7E4 PUSH1 0x4 DUP1 CALLDATASIZE SUB DUP2 ADD SWAP1 PUSH2 0x7DF SWAP2 SWAP1 PUSH2 0x5C3E JUMP JUMPDEST PUSH2 0x42C2 JUMP JUMPDEST PUSH1 0x40 MLOAD PUSH2 0x7F1 SWAP2 SWAP1 PUSH2 0x5C23 JUMP JUMPDEST PUSH1 0x40 MLOAD DUP1 SWAP2 SUB SWAP1 RETURN JUMPDEST PUSH1 0xA0 PUSH1 0x0 SWAP1 SLOAD SWAP1 PUSH2 0x100 EXP SWAP1 DIV PUSH20 0xFFFFFFFFFFFFFFFFFFFFFFFFFFFFFFFFFFFFFFFF AND DUP2 JUMP JUMPDEST PUSH1 0x60 PUSH2 0x836 PUSH8 0xF552A8C322710175 PUSH1 0xC0 SHL PUSH2 0x42E2 JUMP JUMPDEST PUSH2 0x84A PUSH8 0x48DFCA8D666A313 PUSH1 0xC0 SHL PUSH2 0x42E2 JUMP JUMPDEST PUSH2 0x85E PUSH8 0xD227F20FF73C7FC8 PUSH1 0xC0 SHL PUSH2 0x42E2 JUMP JUMPDEST PUSH1 0x36 DUP1 SLOAD PUSH2 0x86B SWAP1 PUSH2 0x6628 JUMP JUMPDEST DUP1 PUSH1 0x1F ADD PUSH1 0x20 DUP1 SWAP2 DIV MUL PUSH1 0x20 ADD PUSH1 0x40 MLOAD SWAP1 DUP2 ADD PUSH1 0x40 MSTORE DUP1 SWAP3 SWAP2 SWAP1 DUP2 DUP2 MSTORE PUSH1 0x20 ADD DUP3 DUP1 SLOAD PUSH2 0x897 SWAP1 PUSH2 0x6628 JUMP JUMPDEST DUP1 ISZERO PUSH2 0x8E4 JUMPI DUP1 PUSH1 0x1F LT PUSH2 0x8B9 JUMPI PUSH2 0x100 DUP1 DUP4 SLOAD DIV MUL DUP4 MSTORE SWAP2 PUSH1 0x20 ADD SWAP2 PUSH2 0x8E4 JUMP JUMPDEST DUP3 ADD SWAP2 SWAP1 PUSH1 0x0 MSTORE PUSH1 0x20 PUSH1 0x0 KECCAK256 SWAP1 JUMPDEST DUP2 SLOAD DUP2 MSTORE SWAP1 PUSH1 0x1 ADD SWAP1 PUSH1 0x20 ADD DUP1 DUP4 GT PUSH2 0x8C7 JUMPI DUP3 SWAP1 SUB PUSH1 0x1F AND DUP3 ADD SWAP2 JUMPDEST POP POP POP POP POP SWAP1 POP SWAP1 JUMP JUMPDEST PUSH1 0x0 PUSH2 0x904 PUSH8 0x4B5E613AFE656B6 PUSH1 0xC0 SHL PUSH2 0x42E2 JUMP JUMPDEST PUSH2 0x918 PUSH8 0x6E26B852637B4F2E PUSH1 0xC0 SHL PUSH2 0x42E2 JUMP JUMPDEST PUSH2 0x92C PUSH8 0xC6D001AF39278386 PUSH1 0xC0 SHL PUSH2 0x42E2 JUMP JUMPDEST PUSH1 0x0 PUSH2 0x936 PUSH2 0x42E5 JUMP JUMPDEST SWAP1 POP PUSH2 0x94C PUSH8 0xD63183BD5256866D PUSH1 0xC0 SHL PUSH2 0x42E2 JUMP JUMPDEST PUSH2 0x960 PUSH8 0xEB72A745DC8DC8CE PUSH1 0xC0 SHL PUSH2 0x42E2 JUMP JUMPDEST PUSH2 0x96B DUP2 DUP6 DUP6 PUSH2 0x42ED JUMP JUMPDEST PUSH2 0x97F PUSH8 0x7C85E3C9DA634183 PUSH1 0xC0 SHL PUSH2 0x42E2 JUMP JUMPDEST PUSH2 0x993 PUSH8 0x4D2512DDC0A5EE0C PUSH1 0xC0 SHL PUSH2 0x42E2 JUMP JUMPDEST PUSH1 0x1 SWAP2 POP POP SWAP3 SWAP2 POP POP JUMP JUMPDEST PUSH2 0x9B2 PUSH8 0xBDA359EF03E2C9BE PUSH1 0xC0 SHL PUSH2 0x45A6 JUMP JUMPDEST PUSH2 0x9BA PUSH2 0x45A9 JUMP JUMPDEST PUSH2 0x9CE PUSH8 0x26F01AE8415F4E27 PUSH1 0xC0 SHL PUSH2 0x45A6 JUMP JUMPDEST PUSH2 0x9E2 PUSH8 0x8506238E2E136733 PUSH1 0xC0 SHL PUSH2 0x45A6 JUMP JUMPDEST PUSH2 0x9F6 PUSH8 0xF657E421FAB09263 PUSH1 0xC0 SHL PUSH2 0x45A6 JUMP JUMPDEST PUSH2 0xA0A PUSH8 0xE777262F4A988D15 PUSH1 0xC0 SHL PUSH2 0x45A6 JUMP JUMPDEST PUSH2 0xA1E PUSH8 0xF8D9FC62F1947056 PUSH1 0xC0 SHL PUSH2 0x45A6 JUMP JUMPDEST TIMESTAMP PUSH1 0x9F PUSH1 0x0 DUP4 DUP2 MSTORE PUSH1 0x20 ADD SWAP1 DUP2 MSTORE PUSH1 0x20 ADD PUSH1 0x0 KECCAK256 PUSH1 0x3 ADD SLOAD PUSH1 0x9F PUSH1 0x0 DUP5 DUP2 MSTORE PUSH1 0x20 ADD SWAP1 DUP2 MSTORE PUSH1 0x20 ADD PUSH1 0x0 KECCAK256 PUSH1 0x4 ADD SLOAD PUSH2 0xA57 SWAP2 SWAP1 PUSH2 0x6688 JUMP JUMPDEST GT ISZERO PUSH2 0xA98 JUMPI PUSH1 0x40 MLOAD PUSH32 0x8C379A000000000000000000000000000000000000000000000000000000000 DUP2 MSTORE PUSH1 0x4 ADD PUSH2 0xA8F SWAP1 PUSH2 0x6708 JUMP JUMPDEST PUSH1 0x40 MLOAD DUP1 SWAP2 SUB SWAP1 REVERT JUMPDEST PUSH2 0xAAC PUSH8 0x2FA3C9B6C2747863 PUSH1 0xC0 SHL PUSH2 0x45A6 JUMP JUMPDEST PUSH2 0xAC0 PUSH8 0x5429E7F64A872D71 PUSH1 0xC0 SHL PUSH2 0x45A6 JUMP JUMPDEST PUSH2 0xAD4 PUSH8 0x5E1359F7AA3E2208 PUSH1 0xC0 SHL PUSH2 0x45A6 JUMP JUMPDEST PUSH2 0xB2A PUSH1 0x9F PUSH1 0x0 DUP4 DUP2 MSTORE PUSH1 0x20 ADD SWAP1 DUP2 MSTORE PUSH1 0x20 ADD PUSH1 0x0 KECCAK256 PUSH1 0x1 ADD PUSH1 0x0 SWAP1 SLOAD SWAP1 PUSH2 0x100 EXP SWAP1 DIV PUSH20 0xFFFFFFFFFFFFFFFFFFFFFFFFFFFFFFFFFFFFFFFF AND PUSH1 0x9F PUSH1 0x0 DUP5 DUP2 MSTORE PUSH1 0x20 ADD SWAP1 DUP2 MSTORE PUSH1 0x20 ADD PUSH1 0x0 KECCAK256 PUSH1 0x2 ADD SLOAD PUSH2 0x4627 JUMP JUMPDEST PUSH2 0xB3E PUSH8 0xF58183184ADC9C74 PUSH1 0xC0 SHL PUSH2 0x45A6 JUMP JUMPDEST TIMESTAMP PUSH1 0x9F PUSH1 0x0 DUP4 DUP2 MSTORE PUSH1 0x20 ADD SWAP1 DUP2 MSTORE PUSH1 0x20 ADD PUSH1 0x0 KECCAK256 PUSH1 0x4 ADD DUP2 SWAP1 SSTORE POP PUSH2 0xB6D PUSH8 0x60846FE93255C58C PUSH1 0xC0 SHL PUSH2 0x45A6 JUMP JUMPDEST PUSH2 0xB81 PUSH8 0x3C8824B6346844F7 PUSH1 0xC0 SHL PUSH2 0x45A6 JUMP JUMPDEST PUSH32 0x7F5B1CE5933FB0434392B9DED7D1628124E2C43EDA45D46AD675CDE2D6B6B226 PUSH1 0x9F PUSH1 0x0 DUP4 DUP2 MSTORE PUSH1 0x20 ADD SWAP1 DUP2 MSTORE PUSH1 0x20 ADD PUSH1 0x0 KECCAK256 PUSH1 0x1 ADD PUSH1 0x0 SWAP1 SLOAD SWAP1 PUSH2 0x100 EXP SWAP1 DIV PUSH20 0xFFFFFFFFFFFFFFFFFFFFFFFFFFFFFFFFFFFFFFFF AND PUSH1 0x9F PUSH1 0x0 DUP5 DUP2 MSTORE PUSH1 0x20 ADD SWAP1 DUP2 MSTORE PUSH1 0x20 ADD PUSH1 0x0 KECCAK256 PUSH1 0x2 ADD SLOAD DUP4 PUSH1 0x40 MLOAD PUSH2 0xC00 SWAP4 SWAP3 SWAP2 SWAP1 PUSH2 0x6728 JUMP JUMPDEST PUSH1 0x40 MLOAD DUP1 SWAP2 SUB SWAP1 LOG1 POP JUMP JUMPDEST PUSH1 0x0 PUSH2 0xC21 PUSH8 0xFB3D51EE3210080C PUSH1 0xC0 SHL PUSH2 0x42E2 JUMP JUMPDEST PUSH2 0xC35 PUSH8 0x31809C2EC202AEE3 PUSH1 0xC0 SHL PUSH2 0x42E2 JUMP JUMPDEST PUSH2 0xC49 PUSH8 0xB1056CAAC5701B4E PUSH1 0xC0 SHL PUSH2 0x42E2 JUMP JUMPDEST PUSH1 0x35 SLOAD SWAP1 POP SWAP1 JUMP JUMPDEST PUSH2 0xC65 PUSH8 0xB4BA46157179402C PUSH1 0xC0 SHL PUSH2 0x45A6 JUMP JUMPDEST PUSH2 0xC6D PUSH2 0x45A9 JUMP JUMPDEST PUSH2 0xC81 PUSH8 0xC7D70B57FA448227 PUSH1 0xC0 SHL PUSH2 0x45A6 JUMP JUMPDEST PUSH2 0xC95 PUSH8 0x703C2C96273410B5 PUSH1 0xC0 SHL PUSH2 0x45A6 JUMP JUMPDEST PUSH2 0xCA9 PUSH8 0xFB1D92116D07E6EF PUSH1 0xC0 SHL PUSH2 0x45A6 JUMP JUMPDEST PUSH2 0xCBD PUSH8 0x29E929AE318A3009 PUSH1 0xC0 SHL PUSH2 0x45A6 JUMP JUMPDEST PUSH1 0x0 JUMPDEST DUP9 DUP9 SWAP1 POP DUP2 LT ISZERO PUSH2 0xE82 JUMPI PUSH2 0xCDF PUSH8 0xB7CAEEDE3EA3A253 PUSH1 0xC0 SHL PUSH2 0x45A6 JUMP JUMPDEST PUSH2 0xCF2 PUSH7 0x1E8AE306C72664 PUSH1 0xC0 SHL PUSH2 0x45A6 JUMP JUMPDEST PUSH1 0x0 PUSH1 0x40 MLOAD DUP1 PUSH1 0xA0 ADD PUSH1 0x40 MSTORE DUP1 DUP12 DUP12 DUP6 DUP2 DUP2 LT PUSH2 0xD12 JUMPI PUSH2 0xD11 PUSH2 0x675F JUMP JUMPDEST JUMPDEST SWAP1 POP PUSH1 0x20 MUL ADD CALLDATALOAD DUP2 MSTORE PUSH1 0x20 ADD DUP10 DUP10 DUP6 DUP2 DUP2 LT PUSH2 0xD31 JUMPI PUSH2 0xD30 PUSH2 0x675F JUMP JUMPDEST JUMPDEST SWAP1 POP PUSH1 0x20 MUL ADD PUSH1 0x20 DUP2 ADD SWAP1 PUSH2 0xD46 SWAP2 SWAP1 PUSH2 0x6122 JUMP JUMPDEST PUSH20 0xFFFFFFFFFFFFFFFFFFFFFFFFFFFFFFFFFFFFFFFF AND DUP2 MSTORE PUSH1 0x20 ADD DUP8 DUP8 DUP6 DUP2 DUP2 LT PUSH2 0xD74 JUMPI PUSH2 0xD73 PUSH2 0x675F JUMP JUMPDEST JUMPDEST SWAP1 POP PUSH1 0x20 MUL ADD CALLDATALOAD DUP2 MSTORE PUSH1 0x20 ADD DUP6 DUP6 DUP6 DUP2 DUP2 LT PUSH2 0xD93 JUMPI PUSH2 0xD92 PUSH2 0x675F JUMP JUMPDEST JUMPDEST SWAP1 POP PUSH1 0x20 MUL ADD CALLDATALOAD DUP2 MSTORE PUSH1 0x20 ADD PUSH1 0x9F PUSH1 0x0 DUP6 DUP2 MSTORE PUSH1 0x20 ADD SWAP1 DUP2 MSTORE PUSH1 0x20 ADD PUSH1 0x0 KECCAK256 PUSH1 0x4 ADD SLOAD DUP2 MSTORE POP SWAP1 POP PUSH2 0xDCF PUSH8 0x9C3B058669EE6589 PUSH1 0xC0 SHL PUSH2 0x45A6 JUMP JUMPDEST DUP1 PUSH1 0x9F PUSH1 0x0 DUP13 DUP13 DUP7 DUP2 DUP2 LT PUSH2 0xDE7 JUMPI PUSH2 0xDE6 PUSH2 0x675F JUMP JUMPDEST JUMPDEST SWAP1 POP PUSH1 0x20 MUL ADD CALLDATALOAD DUP2 MSTORE PUSH1 0x20 ADD SWAP1 DUP2 MSTORE PUSH1 0x20 ADD PUSH1 0x0 KECCAK256 PUSH1 0x0 DUP3 ADD MLOAD DUP2 PUSH1 0x0 ADD SSTORE PUSH1 0x20 DUP3 ADD MLOAD DUP2 PUSH1 0x1 ADD PUSH1 0x0 PUSH2 0x100 EXP DUP2 SLOAD DUP2 PUSH20 0xFFFFFFFFFFFFFFFFFFFFFFFFFFFFFFFFFFFFFFFF MUL NOT AND SWAP1 DUP4 PUSH20 0xFFFFFFFFFFFFFFFFFFFFFFFFFFFFFFFFFFFFFFFF AND MUL OR SWAP1 SSTORE POP PUSH1 0x40 DUP3 ADD MLOAD DUP2 PUSH1 0x2 ADD SSTORE PUSH1 0x60 DUP3 ADD MLOAD DUP2 PUSH1 0x3 ADD SSTORE PUSH1 0x80 DUP3 ADD MLOAD DUP2 PUSH1 0x4 ADD SSTORE SWAP1 POP POP POP DUP1 DUP1 PUSH2 0xE7A SWAP1 PUSH2 0x678E JUMP JUMPDEST SWAP2 POP POP PUSH2 0xCC0 JUMP JUMPDEST POP POP POP POP POP POP POP POP POP JUMP JUMPDEST PUSH1 0x9B PUSH1 0x0 SWAP1 SLOAD SWAP1 PUSH2 0x100 EXP SWAP1 DIV PUSH20 0xFFFFFFFFFFFFFFFFFFFFFFFFFFFFFFFFFFFFFFFF AND DUP2 JUMP JUMPDEST PUSH1 0x0 PUSH2 0xEC9 PUSH8 0xAA8B4CEEF303403C PUSH1 0xC0 SHL PUSH2 0x42E2 JUMP JUMPDEST PUSH2 0xEDD PUSH8 0x4F72B00035E4C236 PUSH1 0xC0 SHL PUSH2 0x42E2 JUMP JUMPDEST PUSH2 0xEF1 PUSH8 0x596E850968FF4841 PUSH1 0xC0 SHL PUSH2 0x42E2 JUMP JUMPDEST PUSH1 0x0 PUSH2 0xEFB PUSH2 0x42E5 JUMP JUMPDEST SWAP1 POP PUSH2 0xF11 PUSH8 0xF604A98374250B6C PUSH1 0xC0 SHL PUSH2 0x42E2 JUMP JUMPDEST PUSH2 0xF25 PUSH8 0xB15DC635D19C2B1E PUSH1 0xC0 SHL PUSH2 0x42E2 JUMP JUMPDEST PUSH2 0xF30 DUP6 DUP3 DUP6 PUSH2 0x488B JUMP JUMPDEST PUSH2 0xF44 PUSH8 0xC40550A8CD4C4C0C PUSH1 0xC0 SHL PUSH2 0x42E2 JUMP JUMPDEST PUSH2 0xF58 PUSH8 0x79B66A8AE9F9118 PUSH1 0xC0 SHL PUSH2 0x42E2 JUMP JUMPDEST PUSH2 0xF63 DUP6 DUP6 DUP6 PUSH2 0x4A34 JUMP JUMPDEST PUSH2 0xF77 PUSH8 0x775D1E7642967D9 PUSH1 0xC0 SHL PUSH2 0x42E2 JUMP JUMPDEST PUSH2 0xF8B PUSH8 0x2747E83FEBF57D9F PUSH1 0xC0 SHL PUSH2 0x42E2 JUMP JUMPDEST PUSH1 0x1 SWAP2 POP POP SWAP4 SWAP3 POP POP POP JUMP JUMPDEST PUSH1 0x9F PUSH1 0x20 MSTORE DUP1 PUSH1 0x0 MSTORE PUSH1 0x40 PUSH1 0x0 KECCAK256 PUSH1 0x0 SWAP2 POP SWAP1 POP DUP1 PUSH1 0x0 ADD SLOAD SWAP1 DUP1 PUSH1 0x1 ADD PUSH1 0x0 SWAP1 SLOAD SWAP1 PUSH2 0x100 EXP SWAP1 DIV PUSH20 0xFFFFFFFFFFFFFFFFFFFFFFFFFFFFFFFFFFFFFFFF AND SWAP1 DUP1 PUSH1 0x2 ADD SLOAD SWAP1 DUP1 PUSH1 0x3 ADD SLOAD SWAP1 DUP1 PUSH1 0x4 ADD SLOAD SWAP1 POP DUP6 JUMP JUMPDEST PUSH1 0x0 PUSH2 0x1003 PUSH8 0xFD4C4DFD102DDD07 PUSH1 0xC0 SHL PUSH2 0x42E2 JUMP JUMPDEST PUSH2 0x1017 PUSH8 0x35F35634068E7A80 PUSH1 0xC0 SHL PUSH2 0x42E2 JUMP JUMPDEST PUSH2 0x102B PUSH8 0x4CFB95BB1096FB4 PUSH1 0xC0 SHL PUSH2 0x42E2 JUMP JUMPDEST PUSH1 0x12 SWAP1 POP SWAP1 JUMP JUMPDEST PUSH1 0xA2 PUSH1 0x0 SWAP1 SLOAD SWAP1 PUSH2 0x100 EXP SWAP1 DIV PUSH20 0xFFFFFFFFFFFFFFFFFFFFFFFFFFFFFFFFFFFFFFFF AND DUP2 JUMP JUMPDEST PUSH2 0x106C PUSH8 0x4A8EB46497EB671F PUSH1 0xC0 SHL PUSH2 0x45A6 JUMP JUMPDEST PUSH2 0x1074 PUSH2 0x45A9 JUMP JUMPDEST PUSH2 0x1088 PUSH8 0x21563F5FB541DD5B PUSH1 0xC0 SHL PUSH2 0x45A6 JUMP JUMPDEST PUSH2 0x109C PUSH8 0x8D431B831C2FAAF3 PUSH1 0xC0 SHL PUSH2 0x45A6 JUMP JUMPDEST PUSH2 0x10B0 PUSH8 0x39D70855D560DC7D PUSH1 0xC0 SHL PUSH2 0x45A6 JUMP JUMPDEST PUSH1 0x9E PUSH1 0x0 PUSH2 0x10BE SWAP2 SWAP1 PUSH2 0x59B6 JUMP JUMPDEST PUSH2 0x10D2 PUSH8 0x88F756EE2BB80386 PUSH1 0xC0 SHL PUSH2 0x45A6 JUMP JUMPDEST PUSH2 0x10E6 PUSH8 0xC4F02D41827760B6 PUSH1 0xC0 SHL PUSH2 0x45A6 JUMP JUMPDEST PUSH1 0x0 JUMPDEST DUP3 DUP3 SWAP1 POP DUP2 LT ISZERO PUSH2 0x11B9 JUMPI PUSH2 0x1108 PUSH8 0xE17E467FBFDED94B PUSH1 0xC0 SHL PUSH2 0x45A6 JUMP JUMPDEST PUSH2 0x111C PUSH8 0xED55C83DE975DB42 PUSH1 0xC0 SHL PUSH2 0x45A6 JUMP JUMPDEST PUSH1 0x9E DUP4 DUP4 DUP4 DUP2 DUP2 LT PUSH2 0x1131 JUMPI PUSH2 0x1130 PUSH2 0x675F JUMP JUMPDEST JUMPDEST SWAP1 POP PUSH1 0x20 MUL ADD PUSH1 0x20 DUP2 ADD SWAP1 PUSH2 0x1146 SWAP2 SWAP1 PUSH2 0x6122 JUMP JUMPDEST SWAP1 DUP1 PUSH1 0x1 DUP2 SLOAD ADD DUP1 DUP3 SSTORE DUP1 SWAP2 POP POP PUSH1 0x1 SWAP1 SUB SWAP1 PUSH1 0x0 MSTORE PUSH1 0x20 PUSH1 0x0 KECCAK256 ADD PUSH1 0x0 SWAP1 SWAP2 SWAP1 SWAP2 SWAP1 SWAP2 PUSH2 0x100 EXP DUP2 SLOAD DUP2 PUSH20 0xFFFFFFFFFFFFFFFFFFFFFFFFFFFFFFFFFFFFFFFF MUL NOT AND SWAP1 DUP4 PUSH20 0xFFFFFFFFFFFFFFFFFFFFFFFFFFFFFFFFFFFFFFFF AND MUL OR SWAP1 SSTORE POP DUP1 DUP1 PUSH2 0x11B1 SWAP1 PUSH2 0x678E JUMP JUMPDEST SWAP2 POP POP PUSH2 0x10E9 JUMP JUMPDEST POP POP POP JUMP JUMPDEST PUSH1 0x0 PUSH2 0x11D4 PUSH8 0x83A9197DE04CB549 PUSH1 0xC0 SHL PUSH2 0x42E2 JUMP JUMPDEST PUSH2 0x11E8 PUSH8 0xA2545B1098D8ABE0 PUSH1 0xC0 SHL PUSH2 0x42E2 JUMP JUMPDEST PUSH2 0x11FC PUSH8 0x15EB0959FA02365F PUSH1 0xC0 SHL PUSH2 0x42E2 JUMP JUMPDEST PUSH1 0x0 PUSH2 0x1206 PUSH2 0x42E5 JUMP JUMPDEST SWAP1 POP PUSH2 0x121C PUSH8 0xBF1FCA71C1654725 PUSH1 0xC0 SHL PUSH2 0x42E2 JUMP JUMPDEST PUSH2 0x1230 PUSH8 0xDC616F2F3D90E97E PUSH1 0xC0 SHL PUSH2 0x42E2 JUMP JUMPDEST PUSH2 0x124F DUP2 DUP6 DUP6 PUSH2 0x1240 DUP6 DUP10 PUSH2 0x3CF1 JUMP JUMPDEST PUSH2 0x124A SWAP2 SWAP1 PUSH2 0x6688 JUMP JUMPDEST PUSH2 0x42ED JUMP JUMPDEST PUSH2 0x1263 PUSH8 0xCF0C2B3D0DF530EF PUSH1 0xC0 SHL PUSH2 0x42E2 JUMP JUMPDEST PUSH2 0x1277 PUSH8 0xE7C79E7B275FF3A0 PUSH1 0xC0 SHL PUSH2 0x42E2 JUMP JUMPDEST PUSH1 0x1 SWAP2 POP POP SWAP3 SWAP2 POP POP JUMP JUMPDEST PUSH2 0x1296 PUSH8 0x756E6E0855115C9C PUSH1 0xC0 SHL PUSH2 0x45A6 JUMP JUMPDEST PUSH2 0x12AA PUSH8 0x65EEAD1CE2FBF7E7 PUSH1 0xC0 SHL PUSH2 0x45A6 JUMP JUMPDEST PUSH2 0x12BE PUSH8 0x2748E94569F8B780 PUSH1 0xC0 SHL PUSH2 0x45A6 JUMP JUMPDEST PUSH2 0x12D2 PUSH8 0x76B0047296609A03 PUSH1 0xC0 SHL PUSH2 0x45A6 JUMP JUMPDEST PUSH2 0x12E8 PUSH2 0x12DD PUSH2 0x2AA3 JUMP JUMPDEST DUP4 PUSH1 0x20 ADD CALLDATALOAD DUP4 PUSH2 0x4E96 JUMP JUMPDEST DUP1 ISZERO PUSH2 0x131D JUMPI POP PUSH1 0x9C DUP2 PUSH1 0x40 MLOAD PUSH2 0x12FF SWAP2 SWAP1 PUSH2 0x681D JUMP JUMPDEST SWAP1 DUP2 MSTORE PUSH1 0x20 ADD PUSH1 0x40 MLOAD DUP1 SWAP2 SUB SWAP1 KECCAK256 PUSH1 0x0 SWAP1 SLOAD SWAP1 PUSH2 0x100 EXP SWAP1 DIV PUSH1 0xFF AND ISZERO JUMPDEST DUP1 ISZERO PUSH2 0x13C2 JUMPI POP PUSH1 0x9B PUSH1 0x0 SWAP1 SLOAD SWAP1 PUSH2 0x100 EXP SWAP1 DIV PUSH20 0xFFFFFFFFFFFFFFFFFFFFFFFFFFFFFFFFFFFFFFFF AND PUSH20 0xFFFFFFFFFFFFFFFFFFFFFFFFFFFFFFFFFFFFFFFF AND PUSH4 0xC9941806 DUP3 PUSH1 0x40 MLOAD DUP3 PUSH4 0xFFFFFFFF AND PUSH1 0xE0 SHL DUP2 MSTORE PUSH1 0x4 ADD PUSH2 0x137F SWAP2 SWAP1 PUSH2 0x687E JUMP JUMPDEST PUSH1 0x20 PUSH1 0x40 MLOAD DUP1 DUP4 SUB DUP2 DUP7 GAS STATICCALL ISZERO DUP1 ISZERO PUSH2 0x139C JUMPI RETURNDATASIZE PUSH1 0x0 DUP1 RETURNDATACOPY RETURNDATASIZE PUSH1 0x0 REVERT JUMPDEST POP POP POP POP PUSH1 0x40 MLOAD RETURNDATASIZE PUSH1 0x1F NOT PUSH1 0x1F DUP3 ADD AND DUP3 ADD DUP1 PUSH1 0x40 MSTORE POP DUP2 ADD SWAP1 PUSH2 0x13C0 SWAP2 SWAP1 PUSH2 0x68B5 JUMP JUMPDEST ISZERO JUMPDEST DUP1 ISZERO PUSH2 0x1467 JUMPI POP PUSH1 0xA0 PUSH1 0x0 SWAP1 SLOAD SWAP1 PUSH2 0x100 EXP SWAP1 DIV PUSH20 0xFFFFFFFFFFFFFFFFFFFFFFFFFFFFFFFFFFFFFFFF AND PUSH20 0xFFFFFFFFFFFFFFFFFFFFFFFFFFFFFFFFFFFFFFFF AND PUSH4 0xC9941806 DUP3 PUSH1 0x40 MLOAD DUP3 PUSH4 0xFFFFFFFF AND PUSH1 0xE0 SHL DUP2 MSTORE PUSH1 0x4 ADD PUSH2 0x1424 SWAP2 SWAP1 PUSH2 0x687E JUMP JUMPDEST PUSH1 0x20 PUSH1 0x40 MLOAD DUP1 DUP4 SUB DUP2 DUP7 GAS STATICCALL ISZERO DUP1 ISZERO PUSH2 0x1441 JUMPI RETURNDATASIZE PUSH1 0x0 DUP1 RETURNDATACOPY RETURNDATASIZE PUSH1 0x0 REVERT JUMPDEST POP POP POP POP PUSH1 0x40 MLOAD RETURNDATASIZE PUSH1 0x1F NOT PUSH1 0x1F DUP3 ADD AND DUP3 ADD DUP1 PUSH1 0x40 MSTORE POP DUP2 ADD SWAP1 PUSH2 0x1465 SWAP2 SWAP1 PUSH2 0x68B5 JUMP JUMPDEST ISZERO JUMPDEST PUSH2 0x14A6 JUMPI PUSH1 0x40 MLOAD PUSH32 0x8C379A000000000000000000000000000000000000000000000000000000000 DUP2 MSTORE PUSH1 0x4 ADD PUSH2 0x149D SWAP1 PUSH2 0x692E JUMP JUMPDEST PUSH1 0x40 MLOAD DUP1 SWAP2 SUB SWAP1 REVERT JUMPDEST PUSH2 0x14BA PUSH8 0x14F4762769FF4394 PUSH1 0xC0 SHL PUSH2 0x45A6 JUMP JUMPDEST PUSH2 0x14CE PUSH8 0x6EF7124E05557823 PUSH1 0xC0 SHL PUSH2 0x45A6 JUMP JUMPDEST PUSH2 0x14E2 PUSH8 0x367942EA9F54D0EE PUSH1 0xC0 SHL PUSH2 0x45A6 JUMP JUMPDEST PUSH2 0x14F6 PUSH8 0xC5877D2510E8C963 PUSH1 0xC0 SHL PUSH2 0x45A6 JUMP JUMPDEST PUSH1 0x0 DUP3 PUSH1 0x0 ADD CALLDATALOAD GT PUSH2 0x153D JUMPI PUSH1 0x40 MLOAD PUSH32 0x8C379A000000000000000000000000000000000000000000000000000000000 DUP2 MSTORE PUSH1 0x4 ADD PUSH2 0x1534 SWAP1 PUSH2 0x699A JUMP JUMPDEST PUSH1 0x40 MLOAD DUP1 SWAP2 SUB SWAP1 REVERT JUMPDEST PUSH2 0x1551 PUSH8 0x5F5A8D0D4A56CD69 PUSH1 0xC0 SHL PUSH2 0x45A6 JUMP JUMPDEST PUSH2 0x1565 PUSH8 0xB016BD9F7EC30A16 PUSH1 0xC0 SHL PUSH2 0x45A6 JUMP JUMPDEST PUSH2 0x1579 PUSH8 0x77CF4C8CADF14B1 PUSH1 0xC0 SHL PUSH2 0x45A6 JUMP JUMPDEST PUSH2 0x1587 CALLER DUP4 PUSH1 0x0 ADD CALLDATALOAD PUSH2 0x4627 JUMP JUMPDEST PUSH2 0x159B PUSH8 0xA0B2F236611E2B3 PUSH1 0xC0 SHL PUSH2 0x45A6 JUMP JUMPDEST PUSH1 0x1 PUSH1 0x9C DUP3 PUSH1 0x40 MLOAD PUSH2 0x15AD SWAP2 SWAP1 PUSH2 0x681D JUMP JUMPDEST SWAP1 DUP2 MSTORE PUSH1 0x20 ADD PUSH1 0x40 MLOAD DUP1 SWAP2 SUB SWAP1 KECCAK256 PUSH1 0x0 PUSH2 0x100 EXP DUP2 SLOAD DUP2 PUSH1 0xFF MUL NOT AND SWAP1 DUP4 ISZERO ISZERO MUL OR SWAP1 SSTORE POP PUSH2 0x15E6 PUSH8 0xD9E0A5E312157534 PUSH1 0xC0 SHL PUSH2 0x45A6 JUMP JUMPDEST PUSH2 0x15FA PUSH8 0x40C4CA646786BAAD PUSH1 0xC0 SHL PUSH2 0x45A6 JUMP JUMPDEST PUSH32 0x47CEE97CB7ACD717B3C0AA1435D004CD5B3C8C57D70DBCEB4E4458BBD60E39D4 CALLER DUP4 PUSH1 0x0 ADD CALLDATALOAD PUSH1 0x40 MLOAD PUSH2 0x162F SWAP3 SWAP2 SWAP1 PUSH2 0x69BA JUMP JUMPDEST PUSH1 0x40 MLOAD DUP1 SWAP2 SUB SWAP1 LOG1 POP POP JUMP JUMPDEST PUSH2 0x164F PUSH8 0x56C8FCF0475ED778 PUSH1 0xC0 SHL PUSH2 0x45A6 JUMP JUMPDEST PUSH2 0x1657 PUSH2 0x45A9 JUMP JUMPDEST PUSH2 0x166B PUSH8 0x402C669B19BC9809 PUSH1 0xC0 SHL PUSH2 0x45A6 JUMP JUMPDEST PUSH2 0x167F PUSH8 0x1123880BEADB3D8A PUSH1 0xC0 SHL PUSH2 0x45A6 JUMP JUMPDEST PUSH2 0x1693 PUSH8 0x4E9F63F2D01726E7 PUSH1 0xC0 SHL PUSH2 0x45A6 JUMP JUMPDEST PUSH2 0x16A7 PUSH8 0xF5AAA715F5FA6BA8 PUSH1 0xC0 SHL PUSH2 0x45A6 JUMP JUMPDEST PUSH2 0x16BB PUSH8 0xDAC16D4040C0318D PUSH1 0xC0 SHL PUSH2 0x45A6 JUMP JUMPDEST DUP1 PUSH2 0x16C5 DUP4 PUSH2 0x1BAA JUMP JUMPDEST LT ISZERO PUSH2 0x1706 JUMPI PUSH1 0x40 MLOAD PUSH32 0x8C379A000000000000000000000000000000000000000000000000000000000 DUP2 MSTORE PUSH1 0x4 ADD PUSH2 0x16FD SWAP1 PUSH2 0x6A55 JUMP JUMPDEST PUSH1 0x40 MLOAD DUP1 SWAP2 SUB SWAP1 REVERT JUMPDEST PUSH2 0x171A PUSH8 0x7EBC9CEDB346EDD PUSH1 0xC0 SHL PUSH2 0x45A6 JUMP JUMPDEST PUSH2 0x172E PUSH8 0x2A31F00240A5F6DF PUSH1 0xC0 SHL PUSH2 0x45A6 JUMP JUMPDEST PUSH2 0x1742 PUSH8 0x99303416BA9FEB9B PUSH1 0xC0 SHL PUSH2 0x45A6 JUMP JUMPDEST PUSH2 0x174C DUP3 DUP3 PUSH2 0x505C JUMP JUMPDEST PUSH2 0x1760 PUSH8 0x1262AB0F2DB476DA PUSH1 0xC0 SHL PUSH2 0x45A6 JUMP JUMPDEST PUSH2 0x1774 PUSH8 0xB059BAEDB4CC1256 PUSH1 0xC0 SHL PUSH2 0x45A6 JUMP JUMPDEST PUSH32 0x388D6102A0230861B4E9646FB5ACDA1C5EC15D39DF2B619D39C25D16A1268490 DUP3 DUP3 PUSH1 0x40 MLOAD PUSH2 0x17A5 SWAP3 SWAP2 SWAP1 PUSH2 0x69BA JUMP JUMPDEST PUSH1 0x40 MLOAD DUP1 SWAP2 SUB SWAP1 LOG1 POP POP JUMP JUMPDEST PUSH2 0x17C5 PUSH8 0xF5248B2CE5727238 PUSH1 0xC0 SHL PUSH2 0x45A6 JUMP JUMPDEST PUSH2 0x17D9 PUSH8 0xA0F066806C6C0BB6 PUSH1 0xC0 SHL PUSH2 0x45A6 JUMP JUMPDEST PUSH2 0x17ED PUSH8 0x1D414C0A9E9F0D4D PUSH1 0xC0 SHL PUSH2 0x45A6 JUMP JUMPDEST PUSH2 0x1801 PUSH8 0xB5B423120E08C8ED PUSH1 0xC0 SHL PUSH2 0x45A6 JUMP JUMPDEST PUSH2 0x1815 PUSH8 0x6BFC075FF09EA1C9 PUSH1 0xC0 SHL PUSH2 0x45A6 JUMP JUMPDEST PUSH1 0x9B PUSH1 0x0 SWAP1 SLOAD SWAP1 PUSH2 0x100 EXP SWAP1 DIV PUSH20 0xFFFFFFFFFFFFFFFFFFFFFFFFFFFFFFFFFFFFFFFF AND PUSH20 0xFFFFFFFFFFFFFFFFFFFFFFFFFFFFFFFFFFFFFFFF AND CALLER PUSH20 0xFFFFFFFFFFFFFFFFFFFFFFFFFFFFFFFFFFFFFFFF AND EQ DUP1 ISZERO PUSH2 0x1882 JUMPI POP PUSH2 0x1881 PUSH8 0xAA34B9DC2C3B8B9 PUSH1 0xC0 SHL PUSH2 0x53C4 JUMP JUMPDEST JUMPDEST DUP1 PUSH2 0x18F6 JUMPI POP PUSH1 0xA2 PUSH1 0x0 SWAP1 SLOAD SWAP1 PUSH2 0x100 EXP SWAP1 DIV PUSH20 0xFFFFFFFFFFFFFFFFFFFFFFFFFFFFFFFFFFFFFFFF AND PUSH20 0xFFFFFFFFFFFFFFFFFFFFFFFFFFFFFFFFFFFFFFFF AND CALLER PUSH20 0xFFFFFFFFFFFFFFFFFFFFFFFFFFFFFFFFFFFFFFFF AND EQ DUP1 ISZERO PUSH2 0x18F5 JUMPI POP PUSH2 0x18F4 PUSH8 0xCD5A22034DBF93B9 PUSH1 0xC0 SHL PUSH2 0x53C4 JUMP JUMPDEST JUMPDEST JUMPDEST PUSH2 0x1935 JUMPI PUSH1 0x40 MLOAD PUSH32 0x8C379A000000000000000000000000000000000000000000000000000000000 DUP2 MSTORE PUSH1 0x4 ADD PUSH2 0x192C SWAP1 PUSH2 0x692E JUMP JUMPDEST PUSH1 0x40 MLOAD DUP1 SWAP2 SUB SWAP1 REVERT JUMPDEST PUSH2 0x1949 PUSH8 0xA4813FD187769FC7 PUSH1 0xC0 SHL PUSH2 0x45A6 JUMP JUMPDEST PUSH2 0x195D PUSH8 0x24D99A14C9F8DC14 PUSH1 0xC0 SHL PUSH2 0x45A6 JUMP JUMPDEST PUSH2 0x1971 PUSH8 0x9C230CC11A466152 PUSH1 0xC0 SHL PUSH2 0x45A6 JUMP JUMPDEST PUSH2 0x1985 PUSH8 0xE83308D83E18F801 PUSH1 0xC0 SHL PUSH2 0x45A6 JUMP JUMPDEST PUSH2 0x1999 PUSH8 0xB6EC25A6AE6939DF PUSH1 0xC0 SHL PUSH2 0x45A6 JUMP JUMPDEST PUSH2 0x19AD PUSH8 0x96B5754A29EDC69C PUSH1 0xC0 SHL PUSH2 0x45A6 JUMP JUMPDEST PUSH2 0x19B7 DUP3 DUP3 PUSH2 0x4627 JUMP JUMPDEST POP POP JUMP JUMPDEST PUSH2 0x19CF PUSH8 0x9EDAD5129AA82C4D PUSH1 0xC0 SHL PUSH2 0x45A6 JUMP JUMPDEST PUSH2 0x19E3 PUSH8 0xF3883AADAAA04922 PUSH1 0xC0 SHL PUSH2 0x45A6 JUMP JUMPDEST PUSH2 0x19F7 PUSH8 0xF939BEE64C073173 PUSH1 0xC0 SHL PUSH2 0x45A6 JUMP JUMPDEST PUSH2 0x1A01 CALLER DUP3 PUSH2 0x505C JUMP JUMPDEST PUSH2 0x1A15 PUSH8 0xAC68D85B9CC85B64 PUSH1 0xC0 SHL PUSH2 0x45A6 JUMP JUMPDEST PUSH2 0x1A29 PUSH8 0x1E1759F8A356722F PUSH1 0xC0 SHL PUSH2 0x45A6 JUMP JUMPDEST PUSH32 0xA51DD6B87F28D93A5C4BF39BE76F7D455A5A2544DF19BD5C9EF0559BFF4AAED CALLER DUP3 PUSH1 0x40 MLOAD PUSH2 0x1A5A SWAP3 SWAP2 SWAP1 PUSH2 0x69BA JUMP JUMPDEST PUSH1 0x40 MLOAD DUP1 SWAP2 SUB SWAP1 LOG1 POP JUMP JUMPDEST PUSH2 0x1A79 PUSH8 0xC1D42F52FD90A39E PUSH1 0xC0 SHL PUSH2 0x45A6 JUMP JUMPDEST PUSH2 0x1A8D PUSH8 0x6B6D5F7B444F3B36 PUSH1 0xC0 SHL PUSH2 0x45A6 JUMP JUMPDEST PUSH2 0x1AA1 PUSH8 0x889E098A8AC456FC PUSH1 0xC0 SHL PUSH2 0x45A6 JUMP JUMPDEST PUSH2 0x1AB5 PUSH8 0xFA43ABD1C67FA89D PUSH1 0xC0 SHL PUSH2 0x45A6 JUMP JUMPDEST DUP1 PUSH2 0x1ABF CALLER PUSH2 0x1BAA JUMP JUMPDEST LT ISZERO PUSH2 0x1B00 JUMPI PUSH1 0x40 MLOAD PUSH32 0x8C379A000000000000000000000000000000000000000000000000000000000 DUP2 MSTORE PUSH1 0x4 ADD PUSH2 0x1AF7 SWAP1 PUSH2 0x6A55 JUMP JUMPDEST PUSH1 0x40 MLOAD DUP1 SWAP2 SUB SWAP1 REVERT JUMPDEST PUSH2 0x1B14 PUSH8 0x439FD20C4DCA4626 PUSH1 0xC0 SHL PUSH2 0x45A6 JUMP JUMPDEST PUSH2 0x1B28 PUSH8 0x74181D88B407319B PUSH1 0xC0 SHL PUSH2 0x45A6 JUMP JUMPDEST PUSH2 0x1B3C PUSH8 0x61E5348DDE6CAA63 PUSH1 0xC0 SHL PUSH2 0x45A6 JUMP JUMPDEST PUSH2 0x1B46 CALLER DUP3 PUSH2 0x505C JUMP JUMPDEST PUSH2 0x1B5A PUSH8 0xC811E24FBB0FC533 PUSH1 0xC0 SHL PUSH2 0x45A6 JUMP JUMPDEST PUSH2 0x1B6E PUSH8 0x89BF4BA37B2EEBB2 PUSH1 0xC0 SHL PUSH2 0x45A6 JUMP JUMPDEST PUSH32 0x388D6102A0230861B4E9646FB5ACDA1C5EC15D39DF2B619D39C25D16A1268490 CALLER DUP3 PUSH1 0x40 MLOAD PUSH2 0x1B9F SWAP3 SWAP2 SWAP1 PUSH2 0x69BA JUMP JUMPDEST PUSH1 0x40 MLOAD DUP1 SWAP2 SUB SWAP1 LOG1 POP JUMP JUMPDEST PUSH1 0x0 PUSH2 0x1BC0 PUSH8 0xCF6CFD6F3C7AF274 PUSH1 0xC0 SHL PUSH2 0x42E2 JUMP JUMPDEST PUSH2 0x1BD4 PUSH8 0x91415C8F5F91BC25 PUSH1 0xC0 SHL PUSH2 0x42E2 JUMP JUMPDEST PUSH2 0x1BE8 PUSH8 0x76EE22D0BAE75320 PUSH1 0xC0 SHL PUSH2 0x42E2 JUMP JUMPDEST PUSH1 0x33 PUSH1 0x0 DUP4 PUSH20 0xFFFFFFFFFFFFFFFFFFFFFFFFFFFFFFFFFFFFFFFF AND PUSH20 0xFFFFFFFFFFFFFFFFFFFFFFFFFFFFFFFFFFFFFFFF AND DUP2 MSTORE PUSH1 0x20 ADD SWAP1 DUP2 MSTORE PUSH1 0x20 ADD PUSH1 0x0 KECCAK256 SLOAD SWAP1 POP SWAP2 SWAP1 POP JUMP JUMPDEST PUSH2 0x1C37 PUSH2 0x45A9 JUMP JUMPDEST PUSH2 0x1C41 PUSH1 0x0 PUSH2 0x53CF JUMP JUMPDEST JUMP JUMPDEST PUSH2 0x1C57 PUSH8 0x12E3D13B41C408B1 PUSH1 0xC0 SHL PUSH2 0x45A6 JUMP JUMPDEST PUSH2 0x1C6B PUSH8 0x1DC69664C5E3BAE0 PUSH1 0xC0 SHL PUSH2 0x45A6 JUMP JUMPDEST PUSH2 0x1C7F PUSH8 0xF90BF43B12B9CF55 PUSH1 0xC0 SHL PUSH2 0x45A6 JUMP JUMPDEST PUSH2 0x1C93 PUSH8 0xFAD8FA4997C03F79 PUSH1 0xC0 SHL PUSH2 0x45A6 JUMP JUMPDEST PUSH2 0x1CA9 PUSH2 0x1C9E PUSH2 0x2AA3 JUMP JUMPDEST DUP4 PUSH1 0x40 ADD MLOAD DUP4 PUSH2 0x4E96 JUMP JUMPDEST DUP1 ISZERO PUSH2 0x1CDE JUMPI POP PUSH1 0x9C DUP2 PUSH1 0x40 MLOAD PUSH2 0x1CC0 SWAP2 SWAP1 PUSH2 0x681D JUMP JUMPDEST SWAP1 DUP2 MSTORE PUSH1 0x20 ADD PUSH1 0x40 MLOAD DUP1 SWAP2 SUB SWAP1 KECCAK256 PUSH1 0x0 SWAP1 SLOAD SWAP1 PUSH2 0x100 EXP SWAP1 DIV PUSH1 0xFF AND ISZERO JUMPDEST DUP1 ISZERO PUSH2 0x1D83 JUMPI POP PUSH1 0x9B PUSH1 0x0 SWAP1 SLOAD SWAP1 PUSH2 0x100 EXP SWAP1 DIV PUSH20 0xFFFFFFFFFFFFFFFFFFFFFFFFFFFFFFFFFFFFFFFF AND PUSH20 0xFFFFFFFFFFFFFFFFFFFFFFFFFFFFFFFFFFFFFFFF AND PUSH4 0xC9941806 DUP3 PUSH1 0x40 MLOAD DUP3 PUSH4 0xFFFFFFFF AND PUSH1 0xE0 SHL DUP2 MSTORE PUSH1 0x4 ADD PUSH2 0x1D40 SWAP2 SWAP1 PUSH2 0x687E JUMP JUMPDEST PUSH1 0x20 PUSH1 0x40 MLOAD DUP1 DUP4 SUB DUP2 DUP7 GAS STATICCALL ISZERO DUP1 ISZERO PUSH2 0x1D5D JUMPI RETURNDATASIZE PUSH1 0x0 DUP1 RETURNDATACOPY RETURNDATASIZE PUSH1 0x0 REVERT JUMPDEST POP POP POP POP PUSH1 0x40 MLOAD RETURNDATASIZE PUSH1 0x1F NOT PUSH1 0x1F DUP3 ADD AND DUP3 ADD DUP1 PUSH1 0x40 MSTORE POP DUP2 ADD SWAP1 PUSH2 0x1D81 SWAP2 SWAP1 PUSH2 0x68B5 JUMP JUMPDEST ISZERO JUMPDEST DUP1 ISZERO PUSH2 0x1E28 JUMPI POP PUSH1 0xA0 PUSH1 0x0 SWAP1 SLOAD SWAP1 PUSH2 0x100 EXP SWAP1 DIV PUSH20 0xFFFFFFFFFFFFFFFFFFFFFFFFFFFFFFFFFFFFFFFF AND PUSH20 0xFFFFFFFFFFFFFFFFFFFFFFFFFFFFFFFFFFFFFFFF AND PUSH4 0xC9941806 DUP3 PUSH1 0x40 MLOAD DUP3 PUSH4 0xFFFFFFFF AND PUSH1 0xE0 SHL DUP2 MSTORE PUSH1 0x4 ADD PUSH2 0x1DE5 SWAP2 SWAP1 PUSH2 0x687E JUMP JUMPDEST PUSH1 0x20 PUSH1 0x40 MLOAD DUP1 DUP4 SUB DUP2 DUP7 GAS STATICCALL ISZERO DUP1 ISZERO PUSH2 0x1E02 JUMPI RETURNDATASIZE PUSH1 0x0 DUP1 RETURNDATACOPY RETURNDATASIZE PUSH1 0x0 REVERT JUMPDEST POP POP POP POP PUSH1 0x40 MLOAD RETURNDATASIZE PUSH1 0x1F NOT PUSH1 0x1F DUP3 ADD AND DUP3 ADD DUP1 PUSH1 0x40 MSTORE POP DUP2 ADD SWAP1 PUSH2 0x1E26 SWAP2 SWAP1 PUSH2 0x68B5 JUMP JUMPDEST ISZERO JUMPDEST DUP1 ISZERO PUSH2 0x1ECD JUMPI POP PUSH1 0xA2 PUSH1 0x0 SWAP1 SLOAD SWAP1 PUSH2 0x100 EXP SWAP1 DIV PUSH20 0xFFFFFFFFFFFFFFFFFFFFFFFFFFFFFFFFFFFFFFFF AND PUSH20 0xFFFFFFFFFFFFFFFFFFFFFFFFFFFFFFFFFFFFFFFF AND PUSH4 0xC9941806 DUP3 PUSH1 0x40 MLOAD DUP3 PUSH4 0xFFFFFFFF AND PUSH1 0xE0 SHL DUP2 MSTORE PUSH1 0x4 ADD PUSH2 0x1E8A SWAP2 SWAP1 PUSH2 0x687E JUMP JUMPDEST PUSH1 0x20 PUSH1 0x40 MLOAD DUP1 DUP4 SUB DUP2 DUP7 GAS STATICCALL ISZERO DUP1 ISZERO PUSH2 0x1EA7 JUMPI RETURNDATASIZE PUSH1 0x0 DUP1 RETURNDATACOPY RETURNDATASIZE PUSH1 0x0 REVERT JUMPDEST POP POP POP POP PUSH1 0x40 MLOAD RETURNDATASIZE PUSH1 0x1F NOT PUSH1 0x1F DUP3 ADD AND DUP3 ADD DUP1 PUSH1 0x40 MSTORE POP DUP2 ADD SWAP1 PUSH2 0x1ECB SWAP2 SWAP1 PUSH2 0x68B5 JUMP JUMPDEST ISZERO JUMPDEST PUSH2 0x1F0C JUMPI PUSH1 0x40 MLOAD PUSH32 0x8C379A000000000000000000000000000000000000000000000000000000000 DUP2 MSTORE PUSH1 0x4 ADD PUSH2 0x1F03 SWAP1 PUSH2 0x692E JUMP JUMPDEST PUSH1 0x40 MLOAD DUP1 SWAP2 SUB SWAP1 REVERT JUMPDEST PUSH2 0x1F20 PUSH8 0x3DD7DD9A31CBA506 PUSH1 0xC0 SHL PUSH2 0x45A6 JUMP JUMPDEST PUSH2 0x1F34 PUSH8 0x1219322B9EEC2050 PUSH1 0xC0 SHL PUSH2 0x45A6 JUMP JUMPDEST PUSH2 0x1F48 PUSH8 0x16D1AB136055D2F3 PUSH1 0xC0 SHL PUSH2 0x45A6 JUMP JUMPDEST PUSH2 0x1F5C PUSH8 0xBBFB72FB597903F2 PUSH1 0xC0 SHL PUSH2 0x45A6 JUMP JUMPDEST PUSH1 0xA1 PUSH1 0x0 DUP4 PUSH1 0x20 ADD MLOAD DUP2 MSTORE PUSH1 0x20 ADD SWAP1 DUP2 MSTORE PUSH1 0x20 ADD PUSH1 0x0 KECCAK256 PUSH1 0x0 SWAP1 SLOAD SWAP1 PUSH2 0x100 EXP SWAP1 DIV PUSH1 0xFF AND ISZERO PUSH2 0x1FC1 JUMPI PUSH1 0x40 MLOAD PUSH32 0x8C379A000000000000000000000000000000000000000000000000000000000 DUP2 MSTORE PUSH1 0x4 ADD PUSH2 0x1FB8 SWAP1 PUSH2 0x6AC1 JUMP JUMPDEST PUSH1 0x40 MLOAD DUP1 SWAP2 SUB SWAP1 REVERT JUMPDEST PUSH2 0x1FD5 PUSH8 0xBC2E49954D413FA8 PUSH1 0xC0 SHL PUSH2 0x45A6 JUMP JUMPDEST PUSH2 0x1FE9 PUSH8 0x256AB73A54E9CABD PUSH1 0xC0 SHL PUSH2 0x45A6 JUMP JUMPDEST PUSH2 0x1FFD PUSH8 0x91F5B7833404A31F PUSH1 0xC0 SHL PUSH2 0x45A6 JUMP JUMPDEST PUSH2 0x200B CALLER DUP4 PUSH1 0x0 ADD MLOAD PUSH2 0x4627 JUMP JUMPDEST PUSH2 0x201F PUSH8 0x43AE92AC6B677490 PUSH1 0xC0 SHL PUSH2 0x45A6 JUMP JUMPDEST PUSH1 0x1 PUSH1 0x9C DUP3 PUSH1 0x40 MLOAD PUSH2 0x2031 SWAP2 SWAP1 PUSH2 0x681D JUMP JUMPDEST SWAP1 DUP2 MSTORE PUSH1 0x20 ADD PUSH1 0x40 MLOAD DUP1 SWAP2 SUB SWAP1 KECCAK256 PUSH1 0x0 PUSH2 0x100 EXP DUP2 SLOAD DUP2 PUSH1 0xFF MUL NOT AND SWAP1 DUP4 ISZERO ISZERO MUL OR SWAP1 SSTORE POP PUSH2 0x206A PUSH8 0xD5CB2C2CAA176E9A PUSH1 0xC0 SHL PUSH2 0x45A6 JUMP JUMPDEST PUSH1 0x1 PUSH1 0xA1 PUSH1 0x0 DUP5 PUSH1 0x20 ADD MLOAD DUP2 MSTORE PUSH1 0x20 ADD SWAP1 DUP2 MSTORE PUSH1 0x20 ADD PUSH1 0x0 KECCAK256 PUSH1 0x0 PUSH2 0x100 EXP DUP2 SLOAD DUP2 PUSH1 0xFF MUL NOT AND SWAP1 DUP4 ISZERO ISZERO MUL OR SWAP1 SSTORE POP PUSH2 0x20AE PUSH8 0x496F7A76A07104A9 PUSH1 0xC0 SHL PUSH2 0x45A6 JUMP JUMPDEST PUSH2 0x20C2 PUSH8 0xC3119BE041D5D670 PUSH1 0xC0 SHL PUSH2 0x45A6 JUMP JUMPDEST PUSH32 0xBAC9694AC0DAA55169ABD117086FE32C89401D9A3B15DD1D34E55E0AA4E47A9D CALLER DUP4 PUSH1 0x20 ADD MLOAD DUP5 PUSH1 0x0 ADD MLOAD PUSH1 0x40 MLOAD PUSH2 0x20FD SWAP4 SWAP3 SWAP2 SWAP1 PUSH2 0x6728 JUMP JUMPDEST PUSH1 0x40 MLOAD DUP1 SWAP2 SUB SWAP1 LOG1 POP POP JUMP JUMPDEST PUSH2 0x211D PUSH8 0xAE190854C9029BF4 PUSH1 0xC0 SHL PUSH2 0x45A6 JUMP JUMPDEST PUSH2 0x2125 PUSH2 0x45A9 JUMP JUMPDEST PUSH2 0x2139 PUSH8 0xA5C3DD7C2651FE58 PUSH1 0xC0 SHL PUSH2 0x45A6 JUMP JUMPDEST PUSH2 0x214D PUSH8 0x112ACD6148543328 PUSH1 0xC0 SHL PUSH2 0x45A6 JUMP JUMPDEST PUSH2 0x2161 PUSH8 0x31C6ACB584EF70B9 PUSH1 0xC0 SHL PUSH2 0x45A6 JUMP JUMPDEST DUP5 PUSH1 0x9A PUSH1 0x0 PUSH2 0x100 EXP DUP2 SLOAD DUP2 PUSH20 0xFFFFFFFFFFFFFFFFFFFFFFFFFFFFFFFFFFFFFFFF MUL NOT AND SWAP1 DUP4 PUSH20 0xFFFFFFFFFFFFFFFFFFFFFFFFFFFFFFFFFFFFFFFF AND MUL OR SWAP1 SSTORE POP PUSH2 0x21B6 PUSH8 0x280527145EE28DB0 PUSH1 0xC0 SHL PUSH2 0x45A6 JUMP JUMPDEST DUP2 PUSH1 0xA0 PUSH1 0x0 PUSH2 0x100 EXP DUP2 SLOAD DUP2 PUSH20 0xFFFFFFFFFFFFFFFFFFFFFFFFFFFFFFFFFFFFFFFF MUL NOT AND SWAP1 DUP4 PUSH20 0xFFFFFFFFFFFFFFFFFFFFFFFFFFFFFFFFFFFFFFFF AND MUL OR SWAP1 SSTORE POP PUSH2 0x220B PUSH8 0x81E8A808037FA2EC PUSH1 0xC0 SHL PUSH2 0x45A6 JUMP JUMPDEST DUP4 PUSH1 0x9D PUSH1 0x0 PUSH2 0x100 EXP DUP2 SLOAD DUP2 PUSH20 0xFFFFFFFFFFFFFFFFFFFFFFFFFFFFFFFFFFFFFFFF MUL NOT AND SWAP1 DUP4 PUSH20 0xFFFFFFFFFFFFFFFFFFFFFFFFFFFFFFFFFFFFFFFF AND MUL OR SWAP1 SSTORE POP PUSH2 0x2260 PUSH8 0x905B88DEE53E2276 PUSH1 0xC0 SHL PUSH2 0x45A6 JUMP JUMPDEST DUP3 PUSH1 0x9B PUSH1 0x0 PUSH2 0x100 EXP DUP2 SLOAD DUP2 PUSH20 0xFFFFFFFFFFFFFFFFFFFFFFFFFFFFFFFFFFFFFFFF MUL NOT AND SWAP1 DUP4 PUSH20 0xFFFFFFFFFFFFFFFFFFFFFFFFFFFFFFFFFFFFFFFF AND MUL OR SWAP1 SSTORE POP PUSH2 0x22B5 PUSH8 0x7652F74882A37557 PUSH1 0xC0 SHL PUSH2 0x45A6 JUMP JUMPDEST DUP1 PUSH1 0xA2 PUSH1 0x0 PUSH2 0x100 EXP DUP2 SLOAD DUP2 PUSH20 0xFFFFFFFFFFFFFFFFFFFFFFFFFFFFFFFFFFFFFFFF MUL NOT AND SWAP1 DUP4 PUSH20 0xFFFFFFFFFFFFFFFFFFFFFFFFFFFFFFFFFFFFFFFF AND MUL OR SWAP1 SSTORE POP POP POP POP POP POP JUMP JUMPDEST PUSH1 0x9A PUSH1 0x0 SWAP1 SLOAD SWAP1 PUSH2 0x100 EXP SWAP1 DIV PUSH20 0xFFFFFFFFFFFFFFFFFFFFFFFFFFFFFFFFFFFFFFFF AND DUP2 JUMP JUMPDEST PUSH1 0x99 SLOAD DUP2 JUMP JUMPDEST PUSH2 0x233D PUSH8 0x4D65D60266FD0084 PUSH1 0xC0 SHL PUSH2 0x45A6 JUMP JUMPDEST PUSH1 0x0 DUP1 PUSH1 0x1 SWAP1 SLOAD SWAP1 PUSH2 0x100 EXP SWAP1 DIV PUSH1 0xFF AND ISZERO SWAP1 POP DUP1 DUP1 ISZERO PUSH2 0x236E JUMPI POP PUSH1 0x1 PUSH1 0x0 DUP1 SLOAD SWAP1 PUSH2 0x100 EXP SWAP1 DIV PUSH1 0xFF AND PUSH1 0xFF AND LT JUMPDEST DUP1 PUSH2 0x239B JUMPI POP PUSH2 0x237D ADDRESS PUSH2 0x5495 JUMP JUMPDEST ISZERO DUP1 ISZERO PUSH2 0x239A JUMPI POP PUSH1 0x1 PUSH1 0x0 DUP1 SLOAD SWAP1 PUSH2 0x100 EXP SWAP1 DIV PUSH1 0xFF AND PUSH1 0xFF AND EQ JUMPDEST JUMPDEST PUSH2 0x23DA JUMPI PUSH1 0x40 MLOAD PUSH32 0x8C379A000000000000000000000000000000000000000000000000000000000 DUP2 MSTORE PUSH1 0x4 ADD PUSH2 0x23D1 SWAP1 PUSH2 0x6B53 JUMP JUMPDEST PUSH1 0x40 MLOAD DUP1 SWAP2 SUB SWAP1 REVERT JUMPDEST PUSH1 0x1 PUSH1 0x0 DUP1 PUSH2 0x100 EXP DUP2 SLOAD DUP2 PUSH1 0xFF MUL NOT AND SWAP1 DUP4 PUSH1 0xFF AND MUL OR SWAP1 SSTORE POP DUP1 ISZERO PUSH2 0x2417 JUMPI PUSH1 0x1 PUSH1 0x0 PUSH1 0x1 PUSH2 0x100 EXP DUP2 SLOAD DUP2 PUSH1 0xFF MUL NOT AND SWAP1 DUP4 ISZERO ISZERO MUL OR SWAP1 SSTORE POP JUMPDEST PUSH2 0x242B PUSH8 0x98A9F390D1A507F7 PUSH1 0xC0 SHL PUSH2 0x45A6 JUMP JUMPDEST PUSH2 0x243F PUSH8 0xCF23264ABCB686C0 PUSH1 0xC0 SHL PUSH2 0x45A6 JUMP JUMPDEST PUSH2 0x2453 PUSH8 0x3BF7385FF75B23EB PUSH1 0xC0 SHL PUSH2 0x45A6 JUMP JUMPDEST PUSH2 0x2467 PUSH8 0x15C32C9B7DE1E398 PUSH1 0xC0 SHL PUSH2 0x45A6 JUMP JUMPDEST PUSH2 0x24DB PUSH1 0x40 MLOAD DUP1 PUSH1 0x40 ADD PUSH1 0x40 MSTORE DUP1 PUSH1 0x4 DUP2 MSTORE PUSH1 0x20 ADD PUSH32 0x4E696F7A00000000000000000000000000000000000000000000000000000000 DUP2 MSTORE POP PUSH1 0x40 MLOAD DUP1 PUSH1 0x40 ADD PUSH1 0x40 MSTORE DUP1 PUSH1 0x4 DUP2 MSTORE PUSH1 0x20 ADD PUSH32 0x4E494F5A00000000000000000000000000000000000000000000000000000000 DUP2 MSTORE POP PUSH2 0x54B8 JUMP JUMPDEST PUSH2 0x24EF PUSH8 0x62C662898CF13378 PUSH1 0xC0 SHL PUSH2 0x45A6 JUMP JUMPDEST PUSH2 0x2503 PUSH8 0x34F232AA0D76B32E PUSH1 0xC0 SHL PUSH2 0x45A6 JUMP JUMPDEST PUSH2 0x250B PUSH2 0x5579 JUMP JUMPDEST PUSH2 0x251F PUSH8 0x43FFA3BE3944DA5C PUSH1 0xC0 SHL PUSH2 0x45A6 JUMP JUMPDEST PUSH20 0x4F68437579A7077010290E6B713076495FEE37E6 PUSH1 0x9A PUSH1 0x0 PUSH2 0x100 EXP DUP2 SLOAD DUP2 PUSH20 0xFFFFFFFFFFFFFFFFFFFFFFFFFFFFFFFFFFFFFFFF MUL NOT AND SWAP1 DUP4 PUSH20 0xFFFFFFFFFFFFFFFFFFFFFFFFFFFFFFFFFFFFFFFF AND MUL OR SWAP1 SSTORE POP PUSH2 0x2588 PUSH8 0xA0701E06883B1E71 PUSH1 0xC0 SHL PUSH2 0x45A6 JUMP JUMPDEST PUSH2 0x259C PUSH8 0xE5B5AA1AC3983BAE PUSH1 0xC0 SHL PUSH2 0x45A6 JUMP JUMPDEST PUSH2 0x25B0 CALLER PUSH10 0x91B08E0303C64E000000 PUSH2 0x4627 JUMP JUMPDEST PUSH2 0x25C4 PUSH8 0x3BD8ADBA5FBA9A41 PUSH1 0xC0 SHL PUSH2 0x45A6 JUMP JUMPDEST PUSH2 0x25D8 PUSH8 0x95BB3FBE34100F7B PUSH1 0xC0 SHL PUSH2 0x45A6 JUMP JUMPDEST PUSH1 0x0 PUSH1 0x40 MLOAD DUP1 PUSH1 0x80 ADD PUSH1 0x40 MSTORE DUP1 PUSH1 0x1 PUSH1 0xFF AND DUP2 MSTORE PUSH1 0x20 ADD PUSH1 0x2 PUSH1 0xFF AND DUP2 MSTORE PUSH1 0x20 ADD PUSH1 0x3 PUSH1 0xFF AND DUP2 MSTORE PUSH1 0x20 ADD PUSH1 0x4 PUSH1 0xFF AND DUP2 MSTORE POP SWAP1 POP PUSH2 0x2621 PUSH8 0xF46AB4E959FE491D PUSH1 0xC0 SHL PUSH2 0x45A6 JUMP JUMPDEST PUSH2 0x2635 PUSH8 0xC9F0FA8A2BC5DC6F PUSH1 0xC0 SHL PUSH2 0x45A6 JUMP JUMPDEST PUSH1 0x0 PUSH1 0x40 MLOAD DUP1 PUSH1 0x80 ADD PUSH1 0x40 MSTORE DUP1 PUSH10 0xA2E0AE4AE5479840000 PUSH10 0xFFFFFFFFFFFFFFFFFFFF AND DUP2 MSTORE PUSH1 0x20 ADD PUSH10 0x20940224A0F53A180000 PUSH10 0xFFFFFFFFFFFFFFFFFFFF AND DUP2 MSTORE PUSH1 0x20 ADD PUSH10 0x28BDDCBDA9018E140000 PUSH10 0xFFFFFFFFFFFFFFFFFFFF AND DUP2 MSTORE PUSH1 0x20 ADD PUSH10 0x145C76EE5B9286C40000 PUSH10 0xFFFFFFFFFFFFFFFFFFFF AND DUP2 MSTORE POP SWAP1 POP PUSH2 0x26C6 PUSH8 0xB5101A98D1D130B5 PUSH1 0xC0 SHL PUSH2 0x45A6 JUMP JUMPDEST PUSH2 0x26DA PUSH8 0x6AA4F5DDCC38935D PUSH1 0xC0 SHL PUSH2 0x45A6 JUMP JUMPDEST PUSH1 0x0 PUSH1 0x40 MLOAD DUP1 PUSH1 0x80 ADD PUSH1 0x40 MSTORE DUP1 PUSH3 0x93A80 PUSH3 0xFFFFFF AND DUP2 MSTORE PUSH1 0x20 ADD PUSH3 0x93A80 PUSH3 0xFFFFFF AND DUP2 MSTORE PUSH1 0x20 ADD PUSH3 0x93A80 PUSH3 0xFFFFFF AND DUP2 MSTORE PUSH1 0x20 ADD PUSH3 0x93A80 PUSH3 0xFFFFFF AND DUP2 MSTORE POP SWAP1 POP PUSH2 0x2733 PUSH8 0x2A17FE9ECBCB807A PUSH1 0xC0 SHL PUSH2 0x45A6 JUMP JUMPDEST PUSH2 0x2747 PUSH8 0x3C0D646C600BB1E4 PUSH1 0xC0 SHL PUSH2 0x45A6 JUMP JUMPDEST PUSH1 0x0 PUSH1 0x40 MLOAD DUP1 PUSH1 0x80 ADD PUSH1 0x40 MSTORE DUP1 PUSH20 0xA18D7C869598D79BC4B9404CCB37D3B88CB9FEAD PUSH20 0xFFFFFFFFFFFFFFFFFFFFFFFFFFFFFFFFFFFFFFFF AND PUSH20 0xFFFFFFFFFFFFFFFFFFFFFFFFFFFFFFFFFFFFFFFF AND DUP2 MSTORE PUSH1 0x20 ADD PUSH20 0x41D3B7837D84F9992632FE98BFFF05EF68C7EFC2 PUSH20 0xFFFFFFFFFFFFFFFFFFFFFFFFFFFFFFFFFFFFFFFF AND PUSH20 0xFFFFFFFFFFFFFFFFFFFFFFFFFFFFFFFFFFFFFFFF AND DUP2 MSTORE PUSH1 0x20 ADD PUSH20 0xBEF9BF48C8B3B3C62BAB79E3DC7726BF8B1A7BBE PUSH20 0xFFFFFFFFFFFFFFFFFFFFFFFFFFFFFFFFFFFFFFFF AND PUSH20 0xFFFFFFFFFFFFFFFFFFFFFFFFFFFFFFFFFFFFFFFF AND DUP2 MSTORE PUSH1 0x20 ADD PUSH20 0x10DE5AFCF09F5A150ADFFD7623BCD0DDEF758360 PUSH20 0xFFFFFFFFFFFFFFFFFFFFFFFFFFFFFFFFFFFFFFFF AND PUSH20 0xFFFFFFFFFFFFFFFFFFFFFFFFFFFFFFFFFFFFFFFF AND DUP2 MSTORE POP SWAP1 POP PUSH2 0x2880 PUSH8 0xBCF6255C9E6BD69D PUSH1 0xC0 SHL PUSH2 0x45A6 JUMP JUMPDEST PUSH2 0x2894 PUSH8 0xBFDD8D06FB9457B9 PUSH1 0xC0 SHL PUSH2 0x45A6 JUMP JUMPDEST PUSH1 0x0 JUMPDEST PUSH1 0x4 DUP2 LT ISZERO PUSH2 0x2A42 JUMPI PUSH2 0x28B4 PUSH8 0xBD8FBDC46B340CEB PUSH1 0xC0 SHL PUSH2 0x45A6 JUMP JUMPDEST PUSH2 0x28C8 PUSH8 0xB66EC164D7B512C3 PUSH1 0xC0 SHL PUSH2 0x45A6 JUMP JUMPDEST PUSH1 0x0 PUSH1 0x40 MLOAD DUP1 PUSH1 0xA0 ADD PUSH1 0x40 MSTORE DUP1 DUP8 DUP5 PUSH1 0x4 DUP2 LT PUSH2 0x28E8 JUMPI PUSH2 0x28E7 PUSH2 0x675F JUMP JUMPDEST JUMPDEST PUSH1 0x20 MUL ADD MLOAD PUSH1 0xFF AND DUP2 MSTORE PUSH1 0x20 ADD DUP5 DUP5 PUSH1 0x4 DUP2 LT PUSH2 0x2908 JUMPI PUSH2 0x2907 PUSH2 0x675F JUMP JUMPDEST JUMPDEST PUSH1 0x20 MUL ADD MLOAD PUSH20 0xFFFFFFFFFFFFFFFFFFFFFFFFFFFFFFFFFFFFFFFF AND DUP2 MSTORE PUSH1 0x20 ADD DUP7 DUP5 PUSH1 0x4 DUP2 LT PUSH2 0x293B JUMPI PUSH2 0x293A PUSH2 0x675F JUMP JUMPDEST JUMPDEST PUSH1 0x20 MUL ADD MLOAD PUSH10 0xFFFFFFFFFFFFFFFFFFFF AND DUP2 MSTORE PUSH1 0x20 ADD DUP6 DUP5 PUSH1 0x4 DUP2 LT PUSH2 0x2964 JUMPI PUSH2 0x2963 PUSH2 0x675F JUMP JUMPDEST JUMPDEST PUSH1 0x20 MUL ADD MLOAD PUSH3 0xFFFFFF AND DUP2 MSTORE PUSH1 0x20 ADD PUSH1 0x0 DUP2 MSTORE POP SWAP1 POP PUSH2 0x298E PUSH8 0xC5A70C75711D1CD8 PUSH1 0xC0 SHL PUSH2 0x45A6 JUMP JUMPDEST DUP1 PUSH1 0x9F PUSH1 0x0 DUP9 DUP6 PUSH1 0x4 DUP2 LT PUSH2 0x29A6 JUMPI PUSH2 0x29A5 PUSH2 0x675F JUMP JUMPDEST JUMPDEST PUSH1 0x20 MUL ADD MLOAD PUSH1 0xFF AND DUP2 MSTORE PUSH1 0x20 ADD SWAP1 DUP2 MSTORE PUSH1 0x20 ADD PUSH1 0x0 KECCAK256 PUSH1 0x0 DUP3 ADD MLOAD DUP2 PUSH1 0x0 ADD SSTORE PUSH1 0x20 DUP3 ADD MLOAD DUP2 PUSH1 0x1 ADD PUSH1 0x0 PUSH2 0x100 EXP DUP2 SLOAD DUP2 PUSH20 0xFFFFFFFFFFFFFFFFFFFFFFFFFFFFFFFFFFFFFFFF MUL NOT AND SWAP1 DUP4 PUSH20 0xFFFFFFFFFFFFFFFFFFFFFFFFFFFFFFFFFFFFFFFF AND MUL OR SWAP1 SSTORE POP PUSH1 0x40 DUP3 ADD MLOAD DUP2 PUSH1 0x2 ADD SSTORE PUSH1 0x60 DUP3 ADD MLOAD DUP2 PUSH1 0x3 ADD SSTORE PUSH1 0x80 DUP3 ADD MLOAD DUP2 PUSH1 0x4 ADD SSTORE SWAP1 POP POP POP DUP1 DUP1 PUSH2 0x2A3A SWAP1 PUSH2 0x678E JUMP JUMPDEST SWAP2 POP POP PUSH2 0x2897 JUMP JUMPDEST POP POP POP POP POP DUP1 ISZERO PUSH2 0x2AA0 JUMPI PUSH1 0x0 DUP1 PUSH1 0x1 PUSH2 0x100 EXP DUP2 SLOAD DUP2 PUSH1 0xFF MUL NOT AND SWAP1 DUP4 ISZERO ISZERO MUL OR SWAP1 SSTORE POP PUSH32 0x7F26B83FF96E1F2B6A682F133852F6798A09C465DA95921460CEFB3847402498 PUSH1 0x1 PUSH1 0x40 MLOAD PUSH2 0x2A97 SWAP2 SWAP1 PUSH2 0x6BAE JUMP JUMPDEST PUSH1 0x40 MLOAD DUP1 SWAP2 SUB SWAP1 LOG1 JUMPDEST POP JUMP JUMPDEST PUSH1 0x0 PUSH1 0x66 PUSH1 0x0 SWAP1 SLOAD SWAP1 PUSH2 0x100 EXP SWAP1 DIV PUSH20 0xFFFFFFFFFFFFFFFFFFFFFFFFFFFFFFFFFFFFFFFF AND SWAP1 POP SWAP1 JUMP JUMPDEST PUSH1 0x38 PUSH1 0x20 MSTORE DUP1 PUSH1 0x0 MSTORE PUSH1 0x40 PUSH1 0x0 KECCAK256 PUSH1 0x0 SWAP2 POP SLOAD SWAP1 PUSH2 0x100 EXP SWAP1 DIV PUSH1 0xFF AND DUP2 JUMP JUMPDEST PUSH1 0x0 DUP1 PUSH1 0x0 DUP1 PUSH2 0x2B07 PUSH8 0xF9DBE6AF42133F3C PUSH1 0xC0 SHL PUSH2 0x45A6 JUMP JUMPDEST PUSH2 0x2B1B PUSH8 0xD18D0F12F84DDF2D PUSH1 0xC0 SHL PUSH2 0x45A6 JUMP JUMPDEST PUSH2 0x2B2F PUSH8 0x98DDA8666C69753A PUSH1 0xC0 SHL PUSH2 0x45A6 JUMP JUMPDEST PUSH1 0x0 PUSH2 0x2B45 PUSH8 0x4BDF2108048AFE23 PUSH1 0xC0 SHL PUSH2 0x45A6 JUMP JUMPDEST PUSH2 0x2B59 PUSH8 0x137CFE15870845FF PUSH1 0xC0 SHL PUSH2 0x45A6 JUMP JUMPDEST PUSH1 0x0 JUMPDEST PUSH1 0x9E DUP1 SLOAD SWAP1 POP DUP2 LT ISZERO PUSH2 0x2C77 JUMPI PUSH2 0x2B7D PUSH8 0x8AAADE53230620DE PUSH1 0xC0 SHL PUSH2 0x45A6 JUMP JUMPDEST PUSH1 0x9D PUSH1 0x0 SWAP1 SLOAD SWAP1 PUSH2 0x100 EXP SWAP1 DIV PUSH20 0xFFFFFFFFFFFFFFFFFFFFFFFFFFFFFFFFFFFFFFFF AND PUSH20 0xFFFFFFFFFFFFFFFFFFFFFFFFFFFFFFFFFFFFFFFF AND PUSH4 0x70A08231 PUSH1 0x9E DUP4 DUP2 SLOAD DUP2 LT PUSH2 0x2BCF JUMPI PUSH2 0x2BCE PUSH2 0x675F JUMP JUMPDEST JUMPDEST SWAP1 PUSH1 0x0 MSTORE PUSH1 0x20 PUSH1 0x0 KECCAK256 ADD PUSH1 0x0 SWAP1 SLOAD SWAP1 PUSH2 0x100 EXP SWAP1 DIV PUSH20 0xFFFFFFFFFFFFFFFFFFFFFFFFFFFFFFFFFFFFFFFF AND PUSH1 0x40 MLOAD DUP3 PUSH4 0xFFFFFFFF AND PUSH1 0xE0 SHL DUP2 MSTORE PUSH1 0x4 ADD PUSH2 0x2C16 SWAP2 SWAP1 PUSH2 0x62C5 JUMP JUMPDEST PUSH1 0x20 PUSH1 0x40 MLOAD DUP1 DUP4 SUB DUP2 DUP7 GAS STATICCALL ISZERO DUP1 ISZERO PUSH2 0x2C33 JUMPI RETURNDATASIZE PUSH1 0x0 DUP1 RETURNDATACOPY RETURNDATASIZE PUSH1 0x0 REVERT JUMPDEST POP POP POP POP PUSH1 0x40 MLOAD RETURNDATASIZE PUSH1 0x1F NOT PUSH1 0x1F DUP3 ADD AND DUP3 ADD DUP1 PUSH1 0x40 MSTORE POP DUP2 ADD SWAP1 PUSH2 0x2C57 SWAP2 SWAP1 PUSH2 0x6BDE JUMP JUMPDEST DUP3 PUSH2 0x2C62 SWAP2 SWAP1 PUSH2 0x6688 JUMP JUMPDEST SWAP2 POP DUP1 DUP1 PUSH2 0x2C6F SWAP1 PUSH2 0x678E JUMP JUMPDEST SWAP2 POP POP PUSH2 0x2B5C JUMP JUMPDEST POP PUSH2 0x2C8C PUSH8 0xCD91864C3EAB6837 PUSH1 0xC0 SHL PUSH2 0x45A6 JUMP JUMPDEST DUP6 SWAP5 POP PUSH2 0x2CA3 PUSH8 0x2B4EEBE5A7623769 PUSH1 0xC0 SHL PUSH2 0x45A6 JUMP JUMPDEST DUP1 PUSH1 0x9D PUSH1 0x0 SWAP1 SLOAD SWAP1 PUSH2 0x100 EXP SWAP1 DIV PUSH20 0xFFFFFFFFFFFFFFFFFFFFFFFFFFFFFFFFFFFFFFFF AND PUSH20 0xFFFFFFFFFFFFFFFFFFFFFFFFFFFFFFFFFFFFFFFF AND PUSH4 0x18160DDD PUSH1 0x40 MLOAD DUP2 PUSH4 0xFFFFFFFF AND PUSH1 0xE0 SHL DUP2 MSTORE PUSH1 0x4 ADD PUSH1 0x20 PUSH1 0x40 MLOAD DUP1 DUP4 SUB DUP2 DUP7 GAS STATICCALL ISZERO DUP1 ISZERO PUSH2 0x2D11 JUMPI RETURNDATASIZE PUSH1 0x0 DUP1 RETURNDATACOPY RETURNDATASIZE PUSH1 0x0 REVERT JUMPDEST POP POP POP POP PUSH1 0x40 MLOAD RETURNDATASIZE PUSH1 0x1F NOT PUSH1 0x1F DUP3 ADD AND DUP3 ADD DUP1 PUSH1 0x40 MSTORE POP DUP2 ADD SWAP1 PUSH2 0x2D35 SWAP2 SWAP1 PUSH2 0x6BDE JUMP JUMPDEST PUSH2 0x2D3F SWAP2 SWAP1 PUSH2 0x6C0B JUMP JUMPDEST SWAP4 POP PUSH2 0x2D55 PUSH8 0xD183C7AE65D3F7C9 PUSH1 0xC0 SHL PUSH2 0x45A6 JUMP JUMPDEST PUSH1 0x9D PUSH1 0x0 SWAP1 SLOAD SWAP1 PUSH2 0x100 EXP SWAP1 DIV PUSH20 0xFFFFFFFFFFFFFFFFFFFFFFFFFFFFFFFFFFFFFFFF AND PUSH20 0xFFFFFFFFFFFFFFFFFFFFFFFFFFFFFFFFFFFFFFFF AND PUSH4 0x70A08231 DUP8 PUSH1 0x40 MLOAD DUP3 PUSH4 0xFFFFFFFF AND PUSH1 0xE0 SHL DUP2 MSTORE PUSH1 0x4 ADD PUSH2 0x2DB0 SWAP2 SWAP1 PUSH2 0x62C5 JUMP JUMPDEST PUSH1 0x20 PUSH1 0x40 MLOAD DUP1 DUP4 SUB DUP2 DUP7 GAS STATICCALL ISZERO DUP1 ISZERO PUSH2 0x2DCD JUMPI RETURNDATASIZE PUSH1 0x0 DUP1 RETURNDATACOPY RETURNDATASIZE PUSH1 0x0 REVERT JUMPDEST POP POP POP POP PUSH1 0x40 MLOAD RETURNDATASIZE PUSH1 0x1F NOT PUSH1 0x1F DUP3 ADD AND DUP3 ADD DUP1 PUSH1 0x40 MSTORE POP DUP2 ADD SWAP1 PUSH2 0x2DF1 SWAP2 SWAP1 PUSH2 0x6BDE JUMP JUMPDEST SWAP3 POP PUSH2 0x2E07 PUSH8 0xBE9A0DECE3F4ED8D PUSH1 0xC0 SHL PUSH2 0x45A6 JUMP JUMPDEST DUP4 PUSH3 0x186A0 DUP5 PUSH2 0x2E17 SWAP2 SWAP1 PUSH2 0x6C3F JUMP JUMPDEST PUSH2 0x2E21 SWAP2 SWAP1 PUSH2 0x6CC8 JUMP JUMPDEST SWAP2 POP POP SWAP2 SWAP4 POP SWAP2 SWAP4 JUMP JUMPDEST PUSH1 0x60 PUSH2 0x2E41 PUSH8 0x3DC54305972E17EA PUSH1 0xC0 SHL PUSH2 0x42E2 JUMP JUMPDEST PUSH2 0x2E55 PUSH8 0xFB9D13DC6E588A58 PUSH1 0xC0 SHL PUSH2 0x42E2 JUMP JUMPDEST PUSH2 0x2E69 PUSH8 0x3BE019C921453FF6 PUSH1 0xC0 SHL PUSH2 0x42E2 JUMP JUMPDEST PUSH1 0x37 DUP1 SLOAD PUSH2 0x2E76 SWAP1 PUSH2 0x6628 JUMP JUMPDEST DUP1 PUSH1 0x1F ADD PUSH1 0x20 DUP1 SWAP2 DIV MUL PUSH1 0x20 ADD PUSH1 0x40 MLOAD SWAP1 DUP2 ADD PUSH1 0x40 MSTORE DUP1 SWAP3 SWAP2 SWAP1 DUP2 DUP2 MSTORE PUSH1 0x20 ADD DUP3 DUP1 SLOAD PUSH2 0x2EA2 SWAP1 PUSH2 0x6628 JUMP JUMPDEST DUP1 ISZERO PUSH2 0x2EEF JUMPI DUP1 PUSH1 0x1F LT PUSH2 0x2EC4 JUMPI PUSH2 0x100 DUP1 DUP4 SLOAD DIV MUL DUP4 MSTORE SWAP2 PUSH1 0x20 ADD SWAP2 PUSH2 0x2EEF JUMP JUMPDEST DUP3 ADD SWAP2 SWAP1 PUSH1 0x0 MSTORE PUSH1 0x20 PUSH1 0x0 KECCAK256 SWAP1 JUMPDEST DUP2 SLOAD DUP2 MSTORE SWAP1 PUSH1 0x1 ADD SWAP1 PUSH1 0x20 ADD DUP1 DUP4 GT PUSH2 0x2ED2 JUMPI DUP3 SWAP1 SUB PUSH1 0x1F AND DUP3 ADD SWAP2 JUMPDEST POP POP POP POP POP SWAP1 POP SWAP1 JUMP JUMPDEST PUSH1 0x0 PUSH2 0x2F0F PUSH8 0x1C4E032218FDAD68 PUSH1 0xC0 SHL PUSH2 0x45A6 JUMP JUMPDEST PUSH2 0x2F23 PUSH8 0xDA55C44742B2D13C PUSH1 0xC0 SHL PUSH2 0x45A6 JUMP JUMPDEST PUSH2 0x2F37 PUSH8 0x58D8C2D1F12AAFA0 PUSH1 0xC0 SHL PUSH2 0x45A6 JUMP JUMPDEST PUSH1 0x0 PUSH2 0x2F4D PUSH8 0x815954CACEBF2662 PUSH1 0xC0 SHL PUSH2 0x45A6 JUMP JUMPDEST PUSH2 0x2F61 PUSH8 0x94BAEB33F2D1B589 PUSH1 0xC0 SHL PUSH2 0x45A6 JUMP JUMPDEST PUSH1 0x0 PUSH2 0x2F77 PUSH8 0x2193A5124019E650 PUSH1 0xC0 SHL PUSH2 0x45A6 JUMP JUMPDEST PUSH2 0x2F8B PUSH8 0xDBF79FC057B44C0D PUSH1 0xC0 SHL PUSH2 0x45A6 JUMP JUMPDEST PUSH1 0x0 PUSH2 0x2FA1 PUSH8 0xEF420600ADEB1147 PUSH1 0xC0 SHL PUSH2 0x45A6 JUMP JUMPDEST PUSH2 0x2FB5 PUSH8 0xD15D4B38D1176F9C PUSH1 0xC0 SHL PUSH2 0x45A6 JUMP JUMPDEST PUSH1 0x41 DUP6 MLOAD SUB PUSH2 0x315D JUMPI PUSH2 0x2FD2 PUSH8 0xBE0DA4DC91947CD7 PUSH1 0xC0 SHL PUSH2 0x45A6 JUMP JUMPDEST PUSH2 0x2FE6 PUSH8 0x4801C7C5D8C5608A PUSH1 0xC0 SHL PUSH2 0x45A6 JUMP JUMPDEST PUSH1 0x20 DUP6 ADD MLOAD SWAP3 POP PUSH1 0x40 DUP6 ADD MLOAD SWAP2 POP PUSH1 0x60 DUP6 ADD MLOAD PUSH1 0x0 BYTE SWAP1 POP PUSH2 0x3012 PUSH8 0xAF074C3AC27AE02D PUSH1 0xC0 SHL PUSH2 0x45A6 JUMP JUMPDEST PUSH2 0x3026 PUSH8 0x1CFFF8BCEFB9C551 PUSH1 0xC0 SHL PUSH2 0x45A6 JUMP JUMPDEST PUSH1 0x0 DUP2 PUSH1 0xFF AND SUB PUSH2 0x3062 JUMPI PUSH2 0x3045 PUSH8 0xB321521A336AC2D2 PUSH1 0xC0 SHL PUSH2 0x45A6 JUMP JUMPDEST PUSH2 0x3059 PUSH8 0xC6A43E3967E0D4E4 PUSH1 0xC0 SHL PUSH2 0x45A6 JUMP JUMPDEST PUSH1 0x1B SWAP1 POP PUSH2 0x30DC JUMP JUMPDEST PUSH2 0x3076 PUSH8 0x282F11F8CFAA5E40 PUSH1 0xC0 SHL PUSH2 0x45A6 JUMP JUMPDEST PUSH2 0x308A PUSH8 0x1F41D1A07CBA2378 PUSH1 0xC0 SHL PUSH2 0x45A6 JUMP JUMPDEST PUSH1 0x1 DUP2 PUSH1 0xFF AND SUB PUSH2 0x30C6 JUMPI PUSH2 0x30A9 PUSH8 0x5DC806461613F2F5 PUSH1 0xC0 SHL PUSH2 0x45A6 JUMP JUMPDEST PUSH2 0x30BD PUSH8 0xDB0EEED77D7C2B9F PUSH1 0xC0 SHL PUSH2 0x45A6 JUMP JUMPDEST PUSH1 0x1C SWAP1 POP PUSH2 0x30DB JUMP JUMPDEST PUSH2 0x30DA PUSH8 0xCC66CDAF438E188F PUSH1 0xC0 SHL PUSH2 0x45A6 JUMP JUMPDEST JUMPDEST JUMPDEST PUSH2 0x30F0 PUSH8 0xF0369BF263300E5C PUSH1 0xC0 SHL PUSH2 0x45A6 JUMP JUMPDEST PUSH2 0x3104 PUSH8 0x1D5C74141040FA0B PUSH1 0xC0 SHL PUSH2 0x45A6 JUMP JUMPDEST PUSH1 0x1 DUP7 DUP3 DUP6 DUP6 PUSH1 0x40 MLOAD PUSH1 0x0 DUP2 MSTORE PUSH1 0x20 ADD PUSH1 0x40 MSTORE PUSH1 0x40 MLOAD PUSH2 0x3127 SWAP5 SWAP4 SWAP3 SWAP2 SWAP1 PUSH2 0x6D08 JUMP JUMPDEST PUSH1 0x20 PUSH1 0x40 MLOAD PUSH1 0x20 DUP2 SUB SWAP1 DUP1 DUP5 SUB SWAP1 DUP6 GAS STATICCALL ISZERO DUP1 ISZERO PUSH2 0x3149 JUMPI RETURNDATASIZE PUSH1 0x0 DUP1 RETURNDATACOPY RETURNDATASIZE PUSH1 0x0 REVERT JUMPDEST POP POP POP PUSH1 0x20 PUSH1 0x40 MLOAD SUB MLOAD SWAP4 POP POP POP POP PUSH2 0x33F8 JUMP JUMPDEST PUSH2 0x3171 PUSH8 0xD07C6E683DA91228 PUSH1 0xC0 SHL PUSH2 0x45A6 JUMP JUMPDEST PUSH2 0x3185 PUSH8 0x3269EA9462A9DA08 PUSH1 0xC0 SHL PUSH2 0x45A6 JUMP JUMPDEST PUSH1 0x40 DUP6 MLOAD SUB PUSH2 0x33B4 JUMPI PUSH2 0x31A2 PUSH8 0x8104F4BA17AD1CFB PUSH1 0xC0 SHL PUSH2 0x45A6 JUMP JUMPDEST PUSH2 0x31B6 PUSH8 0x9159CFE5CEC9DCB2 PUSH1 0xC0 SHL PUSH2 0x45A6 JUMP JUMPDEST PUSH2 0x31CA PUSH8 0x376FA583F6C083AB PUSH1 0xC0 SHL PUSH2 0x45A6 JUMP JUMPDEST PUSH1 0x0 PUSH2 0x31E0 PUSH8 0x8C7CD7A9539CE623 PUSH1 0xC0 SHL PUSH2 0x45A6 JUMP JUMPDEST PUSH1 0x20 DUP7 ADD MLOAD SWAP4 POP PUSH1 0x40 DUP7 ADD MLOAD SWAP1 POP PUSH2 0x3202 PUSH8 0x25AFD2B7340CBA2B PUSH1 0xC0 SHL PUSH2 0x45A6 JUMP JUMPDEST PUSH32 0x7FFFFFFFFFFFFFFFFFFFFFFFFFFFFFFFFFFFFFFFFFFFFFFFFFFFFFFFFFFFFFFF PUSH1 0x0 SHL DUP2 AND SWAP3 POP PUSH2 0x323E PUSH8 0x158648EC275FEC26 PUSH1 0xC0 SHL PUSH2 0x45A6 JUMP JUMPDEST PUSH1 0x1B PUSH1 0xFF DUP3 PUSH1 0x0 SHR SWAP1 SHR PUSH2 0x3252 SWAP2 SWAP1 PUSH2 0x6688 JUMP JUMPDEST SWAP2 POP PUSH2 0x3268 PUSH8 0x25DC4A75E98D8979 PUSH1 0xC0 SHL PUSH2 0x45A6 JUMP JUMPDEST PUSH2 0x327C PUSH8 0xBC1BEEF9D22DF057 PUSH1 0xC0 SHL PUSH2 0x45A6 JUMP JUMPDEST PUSH1 0x0 DUP3 PUSH1 0xFF AND SUB PUSH2 0x32B8 JUMPI PUSH2 0x329B PUSH8 0xC03271601DD0941D PUSH1 0xC0 SHL PUSH2 0x45A6 JUMP JUMPDEST PUSH2 0x32AF PUSH8 0xB0C2BF782AD56ABD PUSH1 0xC0 SHL PUSH2 0x45A6 JUMP JUMPDEST PUSH1 0x1B SWAP2 POP PUSH2 0x3332 JUMP JUMPDEST PUSH2 0x32CC PUSH8 0x4703CD451082A7AD PUSH1 0xC0 SHL PUSH2 0x45A6 JUMP JUMPDEST PUSH2 0x32E0 PUSH8 0x100B674F9F1F18A8 PUSH1 0xC0 SHL PUSH2 0x45A6 JUMP JUMPDEST PUSH1 0x1 DUP3 PUSH1 0xFF AND SUB PUSH2 0x331C JUMPI PUSH2 0x32FF PUSH8 0x1EF82A7CC87CAB04 PUSH1 0xC0 SHL PUSH2 0x45A6 JUMP JUMPDEST PUSH2 0x3313 PUSH8 0x1CE1AE06DDF51671 PUSH1 0xC0 SHL PUSH2 0x45A6 JUMP JUMPDEST PUSH1 0x1C SWAP2 POP PUSH2 0x3331 JUMP JUMPDEST PUSH2 0x3330 PUSH8 0xD8529B066D8314FA PUSH1 0xC0 SHL PUSH2 0x45A6 JUMP JUMPDEST JUMPDEST JUMPDEST PUSH2 0x3346 PUSH8 0xB70DC10F2183BB03 PUSH1 0xC0 SHL PUSH2 0x45A6 JUMP JUMPDEST PUSH2 0x335A PUSH8 0x5503CEA81563CCA8 PUSH1 0xC0 SHL PUSH2 0x45A6 JUMP JUMPDEST PUSH1 0x1 DUP8 DUP4 DUP7 DUP7 PUSH1 0x40 MLOAD PUSH1 0x0 DUP2 MSTORE PUSH1 0x20 ADD PUSH1 0x40 MSTORE PUSH1 0x40 MLOAD PUSH2 0x337D SWAP5 SWAP4 SWAP3 SWAP2 SWAP1 PUSH2 0x6D08 JUMP JUMPDEST PUSH1 0x20 PUSH1 0x40 MLOAD PUSH1 0x20 DUP2 SUB SWAP1 DUP1 DUP5 SUB SWAP1 DUP6 GAS STATICCALL ISZERO DUP1 ISZERO PUSH2 0x339F JUMPI RETURNDATASIZE PUSH1 0x0 DUP1 RETURNDATACOPY RETURNDATASIZE PUSH1 0x0 REVERT JUMPDEST POP POP POP PUSH1 0x20 PUSH1 0x40 MLOAD SUB MLOAD SWAP5 POP POP POP POP POP PUSH2 0x33F8 JUMP JUMPDEST PUSH2 0x33C8 PUSH8 0x444A4DE35109F27 PUSH1 0xC0 SHL PUSH2 0x45A6 JUMP JUMPDEST PUSH2 0x33DC PUSH8 0xB6AE4B579723D88D PUSH1 0xC0 SHL PUSH2 0x45A6 JUMP JUMPDEST PUSH2 0x33F0 PUSH8 0x52985570B0073564 PUSH1 0xC0 SHL PUSH2 0x45A6 JUMP JUMPDEST PUSH1 0x0 SWAP4 POP POP POP POP JUMPDEST SWAP3 SWAP2 POP POP JUMP JUMPDEST PUSH1 0x0 PUSH2 0x3414 PUSH8 0xA873271E6AD38481 PUSH1 0xC0 SHL PUSH2 0x42E2 JUMP JUMPDEST PUSH2 0x3428 PUSH8 0xCFE918A45701DE51 PUSH1 0xC0 SHL PUSH2 0x42E2 JUMP JUMPDEST PUSH2 0x343C PUSH8 0x84A5B39DA8A871B2 PUSH1 0xC0 SHL PUSH2 0x42E2 JUMP JUMPDEST PUSH1 0x0 PUSH2 0x3446 PUSH2 0x42E5 JUMP JUMPDEST SWAP1 POP PUSH2 0x345C PUSH8 0x6682A132F458A0F9 PUSH1 0xC0 SHL PUSH2 0x42E2 JUMP JUMPDEST PUSH2 0x3470 PUSH8 0x44618E53F61C11A0 PUSH1 0xC0 SHL PUSH2 0x42E2 JUMP JUMPDEST PUSH1 0x0 PUSH2 0x347C DUP3 DUP7 PUSH2 0x3CF1 JUMP JUMPDEST SWAP1 POP PUSH2 0x3492 PUSH8 0x17B9FB5B9762AA1E PUSH1 0xC0 SHL PUSH2 0x42E2 JUMP JUMPDEST PUSH2 0x34A6 PUSH8 0x4306B5EE4F89F5F8 PUSH1 0xC0 SHL PUSH2 0x42E2 JUMP JUMPDEST PUSH2 0x34BA PUSH8 0xA5A9620D306E565 PUSH1 0xC0 SHL PUSH2 0x42E2 JUMP JUMPDEST DUP4 DUP2 LT ISZERO PUSH2 0x34FD JUMPI PUSH1 0x40 MLOAD PUSH32 0x8C379A000000000000000000000000000000000000000000000000000000000 DUP2 MSTORE PUSH1 0x4 ADD PUSH2 0x34F4 SWAP1 PUSH2 0x6DBF JUMP JUMPDEST PUSH1 0x40 MLOAD DUP1 SWAP2 SUB SWAP1 REVERT JUMPDEST PUSH2 0x3511 PUSH8 0xF46D481EB7C45760 PUSH1 0xC0 SHL PUSH2 0x42E2 JUMP JUMPDEST PUSH2 0x3525 PUSH8 0x727D438BC81971BB PUSH1 0xC0 SHL PUSH2 0x42E2 JUMP JUMPDEST PUSH2 0x3539 PUSH8 0xD8ADA52A3AAE0E31 PUSH1 0xC0 SHL PUSH2 0x42E2 JUMP JUMPDEST PUSH2 0x354D PUSH8 0xBA4B43A44F1EB00 PUSH1 0xC0 SHL PUSH2 0x42E2 JUMP JUMPDEST PUSH2 0x355A DUP3 DUP7 DUP7 DUP5 SUB PUSH2 0x42ED JUMP JUMPDEST PUSH2 0x356E PUSH8 0xF23E17121EFCDD9D PUSH1 0xC0 SHL PUSH2 0x42E2 JUMP JUMPDEST PUSH2 0x3582 PUSH8 0xFE93E3667119FCE5 PUSH1 0xC0 SHL PUSH2 0x42E2 JUMP JUMPDEST PUSH1 0x1 SWAP3 POP POP POP SWAP3 SWAP2 POP POP JUMP JUMPDEST PUSH2 0x35A2 PUSH8 0x6BFF5D7E0BC567A6 PUSH1 0xC0 SHL PUSH2 0x45A6 JUMP JUMPDEST PUSH2 0x35B6 PUSH8 0x320858D8C0C22DD8 PUSH1 0xC0 SHL PUSH2 0x45A6 JUMP JUMPDEST PUSH2 0x35CA PUSH8 0xD7EDB5B8DBDD1DBC PUSH1 0xC0 SHL PUSH2 0x45A6 JUMP JUMPDEST PUSH2 0x35DE PUSH8 0x7D0E0C2DDE0A736E PUSH1 0xC0 SHL PUSH2 0x45A6 JUMP JUMPDEST CALLER PUSH20 0xFFFFFFFFFFFFFFFFFFFFFFFFFFFFFFFFFFFFFFFF AND PUSH1 0x9B PUSH1 0x0 SWAP1 SLOAD SWAP1 PUSH2 0x100 EXP SWAP1 DIV PUSH20 0xFFFFFFFFFFFFFFFFFFFFFFFFFFFFFFFFFFFFFFFF AND PUSH20 0xFFFFFFFFFFFFFFFFFFFFFFFFFFFFFFFFFFFFFFFF AND PUSH4 0x6352211E DUP6 PUSH1 0x40 MLOAD DUP3 PUSH4 0xFFFFFFFF AND PUSH1 0xE0 SHL DUP2 MSTORE PUSH1 0x4 ADD PUSH2 0x3650 SWAP2 SWAP1 PUSH2 0x5C7A JUMP JUMPDEST PUSH1 0x20 PUSH1 0x40 MLOAD DUP1 DUP4 SUB DUP2 DUP7 GAS STATICCALL ISZERO DUP1 ISZERO PUSH2 0x366D JUMPI RETURNDATASIZE PUSH1 0x0 DUP1 RETURNDATACOPY RETURNDATASIZE PUSH1 0x0 REVERT JUMPDEST POP POP POP POP PUSH1 0x40 MLOAD RETURNDATASIZE PUSH1 0x1F NOT PUSH1 0x1F DUP3 ADD AND DUP3 ADD DUP1 PUSH1 0x40 MSTORE POP DUP2 ADD SWAP1 PUSH2 0x3691 SWAP2 SWAP1 PUSH2 0x6DF4 JUMP JUMPDEST PUSH20 0xFFFFFFFFFFFFFFFFFFFFFFFFFFFFFFFFFFFFFFFF AND EQ PUSH2 0x36E7 JUMPI PUSH1 0x40 MLOAD PUSH32 0x8C379A000000000000000000000000000000000000000000000000000000000 DUP2 MSTORE PUSH1 0x4 ADD PUSH2 0x36DE SWAP1 PUSH2 0x6E6D JUMP JUMPDEST PUSH1 0x40 MLOAD DUP1 SWAP2 SUB SWAP1 REVERT JUMPDEST PUSH2 0x36FB PUSH8 0xD7804D589DD13B87 PUSH1 0xC0 SHL PUSH2 0x45A6 JUMP JUMPDEST PUSH2 0x370F PUSH8 0xD36C5C2450E9A34 PUSH1 0xC0 SHL PUSH2 0x45A6 JUMP JUMPDEST PUSH2 0x3723 PUSH8 0x2479E94A63FBF7B4 PUSH1 0xC0 SHL PUSH2 0x45A6 JUMP JUMPDEST PUSH2 0x372D CALLER DUP3 PUSH2 0x505C JUMP JUMPDEST PUSH2 0x3741 PUSH8 0xFEEF54094F49BD56 PUSH1 0xC0 SHL PUSH2 0x45A6 JUMP JUMPDEST PUSH2 0x3755 PUSH8 0xF8D858FA46072BD PUSH1 0xC0 SHL PUSH2 0x45A6 JUMP JUMPDEST PUSH32 0xF556991011E831BCFAC4F406D547E5E32CDD98267EFAB83935230D5F8D02C446 CALLER DUP5 DUP5 DUP5 PUSH1 0x40 MLOAD PUSH2 0x378A SWAP5 SWAP4 SWAP3 SWAP2 SWAP1 PUSH2 0x62E0 JUMP JUMPDEST PUSH1 0x40 MLOAD DUP1 SWAP2 SUB SWAP1 LOG1 POP POP POP JUMP JUMPDEST PUSH1 0x9D PUSH1 0x0 SWAP1 SLOAD SWAP1 PUSH2 0x100 EXP SWAP1 DIV PUSH20 0xFFFFFFFFFFFFFFFFFFFFFFFFFFFFFFFFFFFFFFFF AND DUP2 JUMP JUMPDEST PUSH1 0x0 PUSH2 0x37D3 PUSH8 0x1A059D41D4A80A87 PUSH1 0xC0 SHL PUSH2 0x42E2 JUMP JUMPDEST PUSH2 0x37E7 PUSH8 0xB300F9590BCFCBD9 PUSH1 0xC0 SHL PUSH2 0x42E2 JUMP JUMPDEST PUSH2 0x37FB PUSH8 0xBD32CD2354358D64 PUSH1 0xC0 SHL PUSH2 0x42E2 JUMP JUMPDEST PUSH1 0x0 PUSH2 0x3805 PUSH2 0x42E5 JUMP JUMPDEST SWAP1 POP PUSH2 0x381B PUSH8 0x74B5EF0773108426 PUSH1 0xC0 SHL PUSH2 0x42E2 JUMP JUMPDEST PUSH2 0x382F PUSH8 0x12FCBCEA2F54BC97 PUSH1 0xC0 SHL PUSH2 0x42E2 JUMP JUMPDEST PUSH2 0x383A DUP2 DUP6 DUP6 PUSH2 0x4A34 JUMP JUMPDEST PUSH2 0x384E PUSH8 0x6BAE913C4001D870 PUSH1 0xC0 SHL PUSH2 0x42E2 JUMP JUMPDEST PUSH2 0x3862 PUSH8 0xEE3A671C1A061FD2 PUSH1 0xC0 SHL PUSH2 0x42E2 JUMP JUMPDEST PUSH1 0x1 SWAP2 POP POP SWAP3 SWAP2 POP POP JUMP JUMPDEST PUSH1 0x98 SLOAD DUP2 JUMP JUMPDEST PUSH1 0x9C DUP2 DUP1 MLOAD PUSH1 0x20 DUP2 ADD DUP3 ADD DUP1 MLOAD DUP5 DUP3 MSTORE PUSH1 0x20 DUP4 ADD PUSH1 0x20 DUP6 ADD KECCAK256 DUP2 DUP4 MSTORE DUP1 SWAP6 POP POP POP POP POP POP PUSH1 0x0 SWAP2 POP SLOAD SWAP1 PUSH2 0x100 EXP SWAP1 DIV PUSH1 0xFF AND DUP2 JUMP JUMPDEST PUSH2 0x38BD PUSH8 0xC5E4F2680838F89E PUSH1 0xC0 SHL PUSH2 0x45A6 JUMP JUMPDEST PUSH2 0x38C5 PUSH2 0x45A9 JUMP JUMPDEST PUSH2 0x38D9 PUSH8 0x60BD1763E28A6640 PUSH1 0xC0 SHL PUSH2 0x45A6 JUMP JUMPDEST PUSH2 0x38ED PUSH8 0xC4C6F2478BB18230 PUSH1 0xC0 SHL PUSH2 0x45A6 JUMP JUMPDEST PUSH2 0x3901 PUSH8 0xBA47C270EC6DCAFE PUSH1 0xC0 SHL PUSH2 0x45A6 JUMP JUMPDEST PUSH2 0x3915 PUSH8 0xEEB4C4F8775D1F9 PUSH1 0xC0 SHL PUSH2 0x45A6 JUMP JUMPDEST PUSH1 0x0 JUMPDEST DUP4 DUP4 SWAP1 POP DUP2 LT ISZERO PUSH2 0x3AAC JUMPI PUSH2 0x3937 PUSH8 0x46547AAF17DB038F PUSH1 0xC0 SHL PUSH2 0x45A6 JUMP JUMPDEST DUP2 PUSH1 0x38 PUSH1 0x0 DUP7 DUP7 DUP6 DUP2 DUP2 LT PUSH2 0x394F JUMPI PUSH2 0x394E PUSH2 0x675F JUMP JUMPDEST JUMPDEST SWAP1 POP PUSH1 0x20 MUL ADD PUSH1 0x20 DUP2 ADD SWAP1 PUSH2 0x3964 SWAP2 SWAP1 PUSH2 0x6122 JUMP JUMPDEST PUSH20 0xFFFFFFFFFFFFFFFFFFFFFFFFFFFFFFFFFFFFFFFF AND PUSH20 0xFFFFFFFFFFFFFFFFFFFFFFFFFFFFFFFFFFFFFFFF AND DUP2 MSTORE PUSH1 0x20 ADD SWAP1 DUP2 MSTORE PUSH1 0x20 ADD PUSH1 0x0 KECCAK256 PUSH1 0x0 PUSH2 0x100 EXP DUP2 SLOAD DUP2 PUSH1 0xFF MUL NOT AND SWAP1 DUP4 ISZERO ISZERO MUL OR SWAP1 SSTORE POP PUSH2 0x39C9 PUSH8 0x99D93D69052B0CF7 PUSH1 0xC0 SHL PUSH2 0x45A6 JUMP JUMPDEST PUSH2 0x39DD PUSH8 0xDA388933414AAB5A PUSH1 0xC0 SHL PUSH2 0x45A6 JUMP JUMPDEST DUP2 ISZERO PUSH2 0x3A84 JUMPI PUSH2 0x39F7 PUSH8 0xE438AFC83A47347 PUSH1 0xC0 SHL PUSH2 0x45A6 JUMP JUMPDEST PUSH2 0x3A0B PUSH8 0xAD36B37643A2DE86 PUSH1 0xC0 SHL PUSH2 0x45A6 JUMP JUMPDEST PUSH2 0x3A1F PUSH8 0x4E9520E474980403 PUSH1 0xC0 SHL PUSH2 0x45A6 JUMP JUMPDEST PUSH2 0x3A7F DUP5 DUP5 DUP4 DUP2 DUP2 LT PUSH2 0x3A35 JUMPI PUSH2 0x3A34 PUSH2 0x675F JUMP JUMPDEST JUMPDEST SWAP1 POP PUSH1 0x20 MUL ADD PUSH1 0x20 DUP2 ADD SWAP1 PUSH2 0x3A4A SWAP2 SWAP1 PUSH2 0x6122 JUMP JUMPDEST PUSH2 0x3A7A DUP7 DUP7 DUP6 DUP2 DUP2 LT PUSH2 0x3A60 JUMPI PUSH2 0x3A5F PUSH2 0x675F JUMP JUMPDEST JUMPDEST SWAP1 POP PUSH1 0x20 MUL ADD PUSH1 0x20 DUP2 ADD SWAP1 PUSH2 0x3A75 SWAP2 SWAP1 PUSH2 0x6122 JUMP JUMPDEST PUSH2 0x1BAA JUMP JUMPDEST PUSH2 0x505C JUMP JUMPDEST PUSH2 0x3A99 JUMP JUMPDEST PUSH2 0x3A98 PUSH8 0xF02D7A1927EB1D8B PUSH1 0xC0 SHL PUSH2 0x45A6 JUMP JUMPDEST JUMPDEST DUP1 DUP1 PUSH2 0x3AA4 SWAP1 PUSH2 0x678E JUMP JUMPDEST SWAP2 POP POP PUSH2 0x3918 JUMP JUMPDEST POP POP POP POP JUMP JUMPDEST PUSH2 0x3AC6 PUSH8 0x60E8F73EDA0F9341 PUSH1 0xC0 SHL PUSH2 0x45A6 JUMP JUMPDEST PUSH2 0x3ADA PUSH8 0xA0F066806C6C0BB6 PUSH1 0xC0 SHL PUSH2 0x45A6 JUMP JUMPDEST PUSH2 0x3AEE PUSH8 0x1D414C0A9E9F0D4D PUSH1 0xC0 SHL PUSH2 0x45A6 JUMP JUMPDEST PUSH2 0x3B02 PUSH8 0xB5B423120E08C8ED PUSH1 0xC0 SHL PUSH2 0x45A6 JUMP JUMPDEST PUSH2 0x3B16 PUSH8 0x6BFC075FF09EA1C9 PUSH1 0xC0 SHL PUSH2 0x45A6 JUMP JUMPDEST PUSH1 0x9B PUSH1 0x0 SWAP1 SLOAD SWAP1 PUSH2 0x100 EXP SWAP1 DIV PUSH20 0xFFFFFFFFFFFFFFFFFFFFFFFFFFFFFFFFFFFFFFFF AND PUSH20 0xFFFFFFFFFFFFFFFFFFFFFFFFFFFFFFFFFFFFFFFF AND CALLER PUSH20 0xFFFFFFFFFFFFFFFFFFFFFFFFFFFFFFFFFFFFFFFF AND EQ DUP1 ISZERO PUSH2 0x3B83 JUMPI POP PUSH2 0x3B82 PUSH8 0xAA34B9DC2C3B8B9 PUSH1 0xC0 SHL PUSH2 0x53C4 JUMP JUMPDEST JUMPDEST DUP1 PUSH2 0x3BF7 JUMPI POP PUSH1 0xA2 PUSH1 0x0 SWAP1 SLOAD SWAP1 PUSH2 0x100 EXP SWAP1 DIV PUSH20 0xFFFFFFFFFFFFFFFFFFFFFFFFFFFFFFFFFFFFFFFF AND PUSH20 0xFFFFFFFFFFFFFFFFFFFFFFFFFFFFFFFFFFFFFFFF AND CALLER PUSH20 0xFFFFFFFFFFFFFFFFFFFFFFFFFFFFFFFFFFFFFFFF AND EQ DUP1 ISZERO PUSH2 0x3BF6 JUMPI POP PUSH2 0x3BF5 PUSH8 0xCD5A22034DBF93B9 PUSH1 0xC0 SHL PUSH2 0x53C4 JUMP JUMPDEST JUMPDEST JUMPDEST PUSH2 0x3C36 JUMPI PUSH1 0x40 MLOAD PUSH32 0x8C379A000000000000000000000000000000000000000000000000000000000 DUP2 MSTORE PUSH1 0x4 ADD PUSH2 0x3C2D SWAP1 PUSH2 0x692E JUMP JUMPDEST PUSH1 0x40 MLOAD DUP1 SWAP2 SUB SWAP1 REVERT JUMPDEST PUSH2 0x3C4A PUSH8 0xA4813FD187769FC7 PUSH1 0xC0 SHL PUSH2 0x45A6 JUMP JUMPDEST PUSH2 0x3C5E PUSH8 0x24D99A14C9F8DC14 PUSH1 0xC0 SHL PUSH2 0x45A6 JUMP JUMPDEST PUSH2 0x3C72 PUSH8 0x350D2E94852DBD35 PUSH1 0xC0 SHL PUSH2 0x45A6 JUMP JUMPDEST PUSH2 0x3C86 PUSH8 0x2F24955A145F6489 PUSH1 0xC0 SHL PUSH2 0x45A6 JUMP JUMPDEST PUSH2 0x3C9A PUSH8 0x22AB1B68E91CAAA8 PUSH1 0xC0 SHL PUSH2 0x45A6 JUMP JUMPDEST PUSH2 0x3CAE PUSH8 0x39AD0DD03F45C0BB PUSH1 0xC0 SHL PUSH2 0x45A6 JUMP JUMPDEST PUSH2 0x3CB9 DUP4 DUP4 DUP4 PUSH2 0x488B JUMP JUMPDEST PUSH2 0x3CCD PUSH8 0xEE5F2D6F9CD6BF30 PUSH1 0xC0 SHL PUSH2 0x45A6 JUMP JUMPDEST PUSH2 0x3CE1 PUSH8 0xBE4B27FB23DD1E01 PUSH1 0xC0 SHL PUSH2 0x45A6 JUMP JUMPDEST PUSH2 0x3CEC DUP4 DUP4 DUP4 PUSH2 0x4A34 JUMP JUMPDEST POP POP POP JUMP JUMPDEST PUSH1 0x0 PUSH2 0x3D07 PUSH8 0xC2F816634474A7AE PUSH1 0xC0 SHL PUSH2 0x42E2 JUMP JUMPDEST PUSH2 0x3D1B PUSH8 0x31E2B61681827AD5 PUSH1 0xC0 SHL PUSH2 0x42E2 JUMP JUMPDEST PUSH2 0x3D2F PUSH8 0xE95CFBB3A68540C9 PUSH1 0xC0 SHL PUSH2 0x42E2 JUMP JUMPDEST PUSH1 0x34 PUSH1 0x0 DUP5 PUSH20 0xFFFFFFFFFFFFFFFFFFFFFFFFFFFFFFFFFFFFFFFF AND PUSH20 0xFFFFFFFFFFFFFFFFFFFFFFFFFFFFFFFFFFFFFFFF AND DUP2 MSTORE PUSH1 0x20 ADD SWAP1 DUP2 MSTORE PUSH1 0x20 ADD PUSH1 0x0 KECCAK256 PUSH1 0x0 DUP4 PUSH20 0xFFFFFFFFFFFFFFFFFFFFFFFFFFFFFFFFFFFFFFFF AND PUSH20 0xFFFFFFFFFFFFFFFFFFFFFFFFFFFFFFFFFFFFFFFF AND DUP2 MSTORE PUSH1 0x20 ADD SWAP1 DUP2 MSTORE PUSH1 0x20 ADD PUSH1 0x0 KECCAK256 SLOAD SWAP1 POP SWAP3 SWAP2 POP POP JUMP JUMPDEST PUSH2 0x3DC8 PUSH8 0xC17398495FB9A7D2 PUSH1 0xC0 SHL PUSH2 0x45A6 JUMP JUMPDEST PUSH2 0x3DDC PUSH8 0x13F56DC52190169D PUSH1 0xC0 SHL PUSH2 0x45A6 JUMP JUMPDEST PUSH2 0x3DF0 PUSH8 0xAFF6C767BD7E271D PUSH1 0xC0 SHL PUSH2 0x45A6 JUMP JUMPDEST PUSH2 0x3E04 PUSH8 0xDE1D4B8AB257BAEA PUSH1 0xC0 SHL PUSH2 0x45A6 JUMP JUMPDEST PUSH2 0x3E1A PUSH2 0x3E0F PUSH2 0x2AA3 JUMP JUMPDEST DUP4 PUSH1 0x60 ADD MLOAD DUP4 PUSH2 0x4E96 JUMP JUMPDEST DUP1 ISZERO PUSH2 0x3E4F JUMPI POP PUSH1 0x9C DUP2 PUSH1 0x40 MLOAD PUSH2 0x3E31 SWAP2 SWAP1 PUSH2 0x681D JUMP JUMPDEST SWAP1 DUP2 MSTORE PUSH1 0x20 ADD PUSH1 0x40 MLOAD DUP1 SWAP2 SUB SWAP1 KECCAK256 PUSH1 0x0 SWAP1 SLOAD SWAP1 PUSH2 0x100 EXP SWAP1 DIV PUSH1 0xFF AND ISZERO JUMPDEST DUP1 ISZERO PUSH2 0x3EF4 JUMPI POP PUSH1 0x9B PUSH1 0x0 SWAP1 SLOAD SWAP1 PUSH2 0x100 EXP SWAP1 DIV PUSH20 0xFFFFFFFFFFFFFFFFFFFFFFFFFFFFFFFFFFFFFFFF AND PUSH20 0xFFFFFFFFFFFFFFFFFFFFFFFFFFFFFFFFFFFFFFFF AND PUSH4 0xC9941806 DUP3 PUSH1 0x40 MLOAD DUP3 PUSH4 0xFFFFFFFF AND PUSH1 0xE0 SHL DUP2 MSTORE PUSH1 0x4 ADD PUSH2 0x3EB1 SWAP2 SWAP1 PUSH2 0x687E JUMP JUMPDEST PUSH1 0x20 PUSH1 0x40 MLOAD DUP1 DUP4 SUB DUP2 DUP7 GAS STATICCALL ISZERO DUP1 ISZERO PUSH2 0x3ECE JUMPI RETURNDATASIZE PUSH1 0x0 DUP1 RETURNDATACOPY RETURNDATASIZE PUSH1 0x0 REVERT JUMPDEST POP POP POP POP PUSH1 0x40 MLOAD RETURNDATASIZE PUSH1 0x1F NOT PUSH1 0x1F DUP3 ADD AND DUP3 ADD DUP1 PUSH1 0x40 MSTORE POP DUP2 ADD SWAP1 PUSH2 0x3EF2 SWAP2 SWAP1 PUSH2 0x68B5 JUMP JUMPDEST ISZERO JUMPDEST DUP1 ISZERO PUSH2 0x3F99 JUMPI POP PUSH1 0xA0 PUSH1 0x0 SWAP1 SLOAD SWAP1 PUSH2 0x100 EXP SWAP1 DIV PUSH20 0xFFFFFFFFFFFFFFFFFFFFFFFFFFFFFFFFFFFFFFFF AND PUSH20 0xFFFFFFFFFFFFFFFFFFFFFFFFFFFFFFFFFFFFFFFF AND PUSH4 0xC9941806 DUP3 PUSH1 0x40 MLOAD DUP3 PUSH4 0xFFFFFFFF AND PUSH1 0xE0 SHL DUP2 MSTORE PUSH1 0x4 ADD PUSH2 0x3F56 SWAP2 SWAP1 PUSH2 0x687E JUMP JUMPDEST PUSH1 0x20 PUSH1 0x40 MLOAD DUP1 DUP4 SUB DUP2 DUP7 GAS STATICCALL ISZERO DUP1 ISZERO PUSH2 0x3F73 JUMPI RETURNDATASIZE PUSH1 0x0 DUP1 RETURNDATACOPY RETURNDATASIZE PUSH1 0x0 REVERT JUMPDEST POP POP POP POP PUSH1 0x40 MLOAD RETURNDATASIZE PUSH1 0x1F NOT PUSH1 0x1F DUP3 ADD AND DUP3 ADD DUP1 PUSH1 0x40 MSTORE POP DUP2 ADD SWAP1 PUSH2 0x3F97 SWAP2 SWAP1 PUSH2 0x68B5 JUMP JUMPDEST ISZERO JUMPDEST PUSH2 0x3FD8 JUMPI PUSH1 0x40 MLOAD PUSH32 0x8C379A000000000000000000000000000000000000000000000000000000000 DUP2 MSTORE PUSH1 0x4 ADD PUSH2 0x3FCF SWAP1 PUSH2 0x692E JUMP JUMPDEST PUSH1 0x40 MLOAD DUP1 SWAP2 SUB SWAP1 REVERT JUMPDEST PUSH2 0x3FEC PUSH8 0xEFF01C9414FE8C7C PUSH1 0xC0 SHL PUSH2 0x45A6 JUMP JUMPDEST PUSH2 0x4000 PUSH8 0x218CBC4192E8E091 PUSH1 0xC0 SHL PUSH2 0x45A6 JUMP JUMPDEST PUSH2 0x4014 PUSH8 0xD997025BA215D2DC PUSH1 0xC0 SHL PUSH2 0x45A6 JUMP JUMPDEST PUSH2 0x4028 PUSH8 0xE11A8FEE8C764F68 PUSH1 0xC0 SHL PUSH2 0x45A6 JUMP JUMPDEST CALLER PUSH20 0xFFFFFFFFFFFFFFFFFFFFFFFFFFFFFFFFFFFFFFFF AND PUSH1 0x9B PUSH1 0x0 SWAP1 SLOAD SWAP1 PUSH2 0x100 EXP SWAP1 DIV PUSH20 0xFFFFFFFFFFFFFFFFFFFFFFFFFFFFFFFFFFFFFFFF AND PUSH20 0xFFFFFFFFFFFFFFFFFFFFFFFFFFFFFFFFFFFFFFFF AND PUSH4 0x6352211E DUP5 PUSH1 0x20 ADD MLOAD PUSH1 0x40 MLOAD DUP3 PUSH4 0xFFFFFFFF AND PUSH1 0xE0 SHL DUP2 MSTORE PUSH1 0x4 ADD PUSH2 0x409E SWAP2 SWAP1 PUSH2 0x5C7A JUMP JUMPDEST PUSH1 0x20 PUSH1 0x40 MLOAD DUP1 DUP4 SUB DUP2 DUP7 GAS STATICCALL ISZERO DUP1 ISZERO PUSH2 0x40BB JUMPI RETURNDATASIZE PUSH1 0x0 DUP1 RETURNDATACOPY RETURNDATASIZE PUSH1 0x0 REVERT JUMPDEST POP POP POP POP PUSH1 0x40 MLOAD RETURNDATASIZE PUSH1 0x1F NOT PUSH1 0x1F DUP3 ADD AND DUP3 ADD DUP1 PUSH1 0x40 MSTORE POP DUP2 ADD SWAP1 PUSH2 0x40DF SWAP2 SWAP1 PUSH2 0x6DF4 JUMP JUMPDEST PUSH20 0xFFFFFFFFFFFFFFFFFFFFFFFFFFFFFFFFFFFFFFFF AND EQ PUSH2 0x4135 JUMPI PUSH1 0x40 MLOAD PUSH32 0x8C379A000000000000000000000000000000000000000000000000000000000 DUP2 MSTORE PUSH1 0x4 ADD PUSH2 0x412C SWAP1 PUSH2 0x6ED9 JUMP JUMPDEST PUSH1 0x40 MLOAD DUP1 SWAP2 SUB SWAP1 REVERT JUMPDEST PUSH2 0x4149 PUSH8 0xF99B4107F4A8FCE4 PUSH1 0xC0 SHL PUSH2 0x45A6 JUMP JUMPDEST PUSH2 0x415D PUSH8 0x3F6917E5C750729B PUSH1 0xC0 SHL PUSH2 0x45A6 JUMP JUMPDEST PUSH2 0x4171 PUSH8 0x4EEFBB1C4F75DE0B PUSH1 0xC0 SHL PUSH2 0x45A6 JUMP JUMPDEST PUSH2 0x417F CALLER DUP4 PUSH1 0x40 ADD MLOAD PUSH2 0x505C JUMP JUMPDEST PUSH2 0x4193 PUSH8 0xFF969EFAC3715AD4 PUSH1 0xC0 SHL PUSH2 0x45A6 JUMP JUMPDEST PUSH1 0x1 PUSH1 0x9C DUP3 PUSH1 0x40 MLOAD PUSH2 0x41A5 SWAP2 SWAP1 PUSH2 0x681D JUMP JUMPDEST SWAP1 DUP2 MSTORE PUSH1 0x20 ADD PUSH1 0x40 MLOAD DUP1 SWAP2 SUB SWAP1 KECCAK256 PUSH1 0x0 PUSH2 0x100 EXP DUP2 SLOAD DUP2 PUSH1 0xFF MUL NOT AND SWAP1 DUP4 ISZERO ISZERO MUL OR SWAP1 SSTORE POP PUSH2 0x41DE PUSH8 0x2CE227762351A70A PUSH1 0xC0 SHL PUSH2 0x45A6 JUMP JUMPDEST PUSH2 0x41F2 PUSH8 0x846747D667594C98 PUSH1 0xC0 SHL PUSH2 0x45A6 JUMP JUMPDEST PUSH32 0xC02F575E81455B4C23297B24A8D0FA6FAA0DFB2913E7E65FB48E286090D99D36 CALLER DUP4 PUSH1 0x20 ADD MLOAD DUP5 PUSH1 0x0 ADD MLOAD DUP6 PUSH1 0x40 ADD MLOAD PUSH1 0x40 MLOAD PUSH2 0x4233 SWAP5 SWAP4 SWAP3 SWAP2 SWAP1 PUSH2 0x62E0 JUMP JUMPDEST PUSH1 0x40 MLOAD DUP1 SWAP2 SUB SWAP1 LOG1 POP POP JUMP JUMPDEST PUSH2 0x4247 PUSH2 0x45A9 JUMP JUMPDEST PUSH1 0x0 PUSH20 0xFFFFFFFFFFFFFFFFFFFFFFFFFFFFFFFFFFFFFFFF AND DUP2 PUSH20 0xFFFFFFFFFFFFFFFFFFFFFFFFFFFFFFFFFFFFFFFF AND SUB PUSH2 0x42B6 JUMPI PUSH1 0x40 MLOAD PUSH32 0x8C379A000000000000000000000000000000000000000000000000000000000 DUP2 MSTORE PUSH1 0x4 ADD PUSH2 0x42AD SWAP1 PUSH2 0x6F6B JUMP JUMPDEST PUSH1 0x40 MLOAD DUP1 SWAP2 SUB SWAP1 REVERT JUMPDEST PUSH2 0x42BF DUP2 PUSH2 0x53CF JUMP JUMPDEST POP JUMP JUMPDEST PUSH1 0xA1 PUSH1 0x20 MSTORE DUP1 PUSH1 0x0 MSTORE PUSH1 0x40 PUSH1 0x0 KECCAK256 PUSH1 0x0 SWAP2 POP SLOAD SWAP1 PUSH2 0x100 EXP SWAP1 DIV PUSH1 0xFF AND DUP2 JUMP JUMPDEST POP JUMP JUMPDEST PUSH1 0x0 CALLER SWAP1 POP SWAP1 JUMP JUMPDEST PUSH2 0x4301 PUSH8 0x4B88D485F6E76B95 PUSH1 0xC0 SHL PUSH2 0x42E2 JUMP JUMPDEST PUSH2 0x4315 PUSH8 0x93606422F413E366 PUSH1 0xC0 SHL PUSH2 0x42E2 JUMP JUMPDEST PUSH2 0x4329 PUSH8 0xF61947AD80DB2805 PUSH1 0xC0 SHL PUSH2 0x42E2 JUMP JUMPDEST PUSH2 0x433D PUSH8 0x83C5C766E31A745B PUSH1 0xC0 SHL PUSH2 0x42E2 JUMP JUMPDEST PUSH1 0x0 PUSH20 0xFFFFFFFFFFFFFFFFFFFFFFFFFFFFFFFFFFFFFFFF AND DUP4 PUSH20 0xFFFFFFFFFFFFFFFFFFFFFFFFFFFFFFFFFFFFFFFF AND SUB PUSH2 0x43AC JUMPI PUSH1 0x40 MLOAD PUSH32 0x8C379A000000000000000000000000000000000000000000000000000000000 DUP2 MSTORE PUSH1 0x4 ADD PUSH2 0x43A3 SWAP1 PUSH2 0x6FFD JUMP JUMPDEST PUSH1 0x40 MLOAD DUP1 SWAP2 SUB SWAP1 REVERT JUMPDEST PUSH2 0x43C0 PUSH8 0xDFB9D976B400069A PUSH1 0xC0 SHL PUSH2 0x42E2 JUMP JUMPDEST PUSH2 0x43D4 PUSH8 0x331CF4800FF77F42 PUSH1 0xC0 SHL PUSH2 0x42E2 JUMP JUMPDEST PUSH2 0x43E8 PUSH8 0x63C9257B187F29B4 PUSH1 0xC0 SHL PUSH2 0x42E2 JUMP JUMPDEST PUSH2 0x43FC PUSH8 0x7F4953D0E5300EAB PUSH1 0xC0 SHL PUSH2 0x42E2 JUMP JUMPDEST PUSH1 0x0 PUSH20 0xFFFFFFFFFFFFFFFFFFFFFFFFFFFFFFFFFFFFFFFF AND DUP3 PUSH20 0xFFFFFFFFFFFFFFFFFFFFFFFFFFFFFFFFFFFFFFFF AND SUB PUSH2 0x446B JUMPI PUSH1 0x40 MLOAD PUSH32 0x8C379A000000000000000000000000000000000000000000000000000000000 DUP2 MSTORE PUSH1 0x4 ADD PUSH2 0x4462 SWAP1 PUSH2 0x708F JUMP JUMPDEST PUSH1 0x40 MLOAD DUP1 SWAP2 SUB SWAP1 REVERT JUMPDEST PUSH2 0x447F PUSH8 0xB61C7D27C32E0B71 PUSH1 0xC0 SHL PUSH2 0x42E2 JUMP JUMPDEST PUSH2 0x4493 PUSH8 0x76AD9F179CD6468B PUSH1 0xC0 SHL PUSH2 0x42E2 JUMP JUMPDEST DUP1 PUSH1 0x34 PUSH1 0x0 DUP6 PUSH20 0xFFFFFFFFFFFFFFFFFFFFFFFFFFFFFFFFFFFFFFFF AND PUSH20 0xFFFFFFFFFFFFFFFFFFFFFFFFFFFFFFFFFFFFFFFF AND DUP2 MSTORE PUSH1 0x20 ADD SWAP1 DUP2 MSTORE PUSH1 0x20 ADD PUSH1 0x0 KECCAK256 PUSH1 0x0 DUP5 PUSH20 0xFFFFFFFFFFFFFFFFFFFFFFFFFFFFFFFFFFFFFFFF AND PUSH20 0xFFFFFFFFFFFFFFFFFFFFFFFFFFFFFFFFFFFFFFFF AND DUP2 MSTORE PUSH1 0x20 ADD SWAP1 DUP2 MSTORE PUSH1 0x20 ADD PUSH1 0x0 KECCAK256 DUP2 SWAP1 SSTORE POP PUSH2 0x4528 PUSH8 0xEA6818DA5DD4DE05 PUSH1 0xC0 SHL PUSH2 0x42E2 JUMP JUMPDEST PUSH2 0x453C PUSH8 0x53DF8F353C68C325 PUSH1 0xC0 SHL PUSH2 0x42E2 JUMP JUMPDEST DUP2 PUSH20 0xFFFFFFFFFFFFFFFFFFFFFFFFFFFFFFFFFFFFFFFF AND DUP4 PUSH20 0xFFFFFFFFFFFFFFFFFFFFFFFFFFFFFFFFFFFFFFFF AND PUSH32 0x8C5BE1E5EBEC7D5BD14F71427D1E84F3DD0314C0F7B2291E5B200AC8C7C3B925 DUP4 PUSH1 0x40 MLOAD PUSH2 0x4599 SWAP2 SWAP1 PUSH2 0x5C7A JUMP JUMPDEST PUSH1 0x40 MLOAD DUP1 SWAP2 SUB SWAP1 LOG3 POP POP POP JUMP JUMPDEST POP JUMP JUMPDEST PUSH2 0x45B1 PUSH2 0x42E5 JUMP JUMPDEST PUSH20 0xFFFFFFFFFFFFFFFFFFFFFFFFFFFFFFFFFFFFFFFF AND PUSH2 0x45CF PUSH2 0x2AA3 JUMP JUMPDEST PUSH20 0xFFFFFFFFFFFFFFFFFFFFFFFFFFFFFFFFFFFFFFFF AND EQ PUSH2 0x4625 JUMPI PUSH1 0x40 MLOAD PUSH32 0x8C379A000000000000000000000000000000000000000000000000000000000 DUP2 MSTORE PUSH1 0x4 ADD PUSH2 0x461C SWAP1 PUSH2 0x70FB JUMP JUMPDEST PUSH1 0x40 MLOAD DUP1 SWAP2 SUB SWAP1 REVERT JUMPDEST JUMP JUMPDEST PUSH2 0x463B PUSH8 0x287A47DFF4B3F6CE PUSH1 0xC0 SHL PUSH2 0x42E2 JUMP JUMPDEST PUSH2 0x464F PUSH8 0x1DD61082F97FE7A5 PUSH1 0xC0 SHL PUSH2 0x42E2 JUMP JUMPDEST PUSH2 0x4663 PUSH8 0xDC4BB6FF329FC11B PUSH1 0xC0 SHL PUSH2 0x42E2 JUMP JUMPDEST PUSH2 0x4677 PUSH8 0xA3AB49C4AF91656F PUSH1 0xC0 SHL PUSH2 0x42E2 JUMP JUMPDEST PUSH1 0x0 PUSH20 0xFFFFFFFFFFFFFFFFFFFFFFFFFFFFFFFFFFFFFFFF AND DUP3 PUSH20 0xFFFFFFFFFFFFFFFFFFFFFFFFFFFFFFFFFFFFFFFF AND SUB PUSH2 0x46E6 JUMPI PUSH1 0x40 MLOAD PUSH32 0x8C379A000000000000000000000000000000000000000000000000000000000 DUP2 MSTORE PUSH1 0x4 ADD PUSH2 0x46DD SWAP1 PUSH2 0x7167 JUMP JUMPDEST PUSH1 0x40 MLOAD DUP1 SWAP2 SUB SWAP1 REVERT JUMPDEST PUSH2 0x46FA PUSH8 0xA68E6789E789A54E PUSH1 0xC0 SHL PUSH2 0x42E2 JUMP JUMPDEST PUSH2 0x470E PUSH8 0x3934735C5AB6D351 PUSH1 0xC0 SHL PUSH2 0x42E2 JUMP JUMPDEST PUSH2 0x4722 PUSH8 0x125DA76CC93DB90 PUSH1 0xC0 SHL PUSH2 0x42E2 JUMP JUMPDEST PUSH2 0x472E PUSH1 0x0 DUP4 DUP4 PUSH2 0x55D2 JUMP JUMPDEST PUSH2 0x4742 PUSH8 0x2DF4BE57C556FD5C PUSH1 0xC0 SHL PUSH2 0x42E2 JUMP JUMPDEST DUP1 PUSH1 0x35 PUSH1 0x0 DUP3 DUP3 SLOAD PUSH2 0x4754 SWAP2 SWAP1 PUSH2 0x6688 JUMP JUMPDEST SWAP3 POP POP DUP2 SWAP1 SSTORE POP PUSH2 0x476F PUSH8 0x7B913821B806C57 PUSH1 0xC0 SHL PUSH2 0x42E2 JUMP JUMPDEST DUP1 PUSH1 0x33 PUSH1 0x0 DUP5 PUSH20 0xFFFFFFFFFFFFFFFFFFFFFFFFFFFFFFFFFFFFFFFF AND PUSH20 0xFFFFFFFFFFFFFFFFFFFFFFFFFFFFFFFFFFFFFFFF AND DUP2 MSTORE PUSH1 0x20 ADD SWAP1 DUP2 MSTORE PUSH1 0x20 ADD PUSH1 0x0 KECCAK256 PUSH1 0x0 DUP3 DUP3 SLOAD PUSH2 0x47BE SWAP2 SWAP1 PUSH2 0x6688 JUMP JUMPDEST SWAP3 POP POP DUP2 SWAP1 SSTORE POP PUSH2 0x47D9 PUSH8 0x7D80FC90D662980E PUSH1 0xC0 SHL PUSH2 0x42E2 JUMP JUMPDEST PUSH2 0x47ED PUSH8 0x9668B7B23B478617 PUSH1 0xC0 SHL PUSH2 0x42E2 JUMP JUMPDEST DUP2 PUSH20 0xFFFFFFFFFFFFFFFFFFFFFFFFFFFFFFFFFFFFFFFF AND PUSH1 0x0 PUSH20 0xFFFFFFFFFFFFFFFFFFFFFFFFFFFFFFFFFFFFFFFF AND PUSH32 0xDDF252AD1BE2C89B69C2B068FC378DAA952BA7F163C4A11628F55A4DF523B3EF DUP4 PUSH1 0x40 MLOAD PUSH2 0x484B SWAP2 SWAP1 PUSH2 0x5C7A JUMP JUMPDEST PUSH1 0x40 MLOAD DUP1 SWAP2 SUB SWAP1 LOG3 PUSH2 0x4867 PUSH8 0xBF680AF0AD68B64D PUSH1 0xC0 SHL PUSH2 0x42E2 JUMP JUMPDEST PUSH2 0x487B PUSH8 0xC0C447C3E695D31C PUSH1 0xC0 SHL PUSH2 0x42E2 JUMP JUMPDEST PUSH2 0x4887 PUSH1 0x0 DUP4 DUP4 PUSH2 0x5732 JUMP JUMPDEST POP POP JUMP JUMPDEST PUSH2 0x489F PUSH8 0x321EF60C190BA467 PUSH1 0xC0 SHL PUSH2 0x42E2 JUMP JUMPDEST PUSH2 0x48B3 PUSH8 0xE4ED714F179DA9FD PUSH1 0xC0 SHL PUSH2 0x42E2 JUMP JUMPDEST PUSH2 0x48C7 PUSH8 0xD74A59F4E27685AB PUSH1 0xC0 SHL PUSH2 0x42E2 JUMP JUMPDEST PUSH1 0x0 PUSH2 0x48D3 DUP5 DUP5 PUSH2 0x3CF1 JUMP JUMPDEST SWAP1 POP PUSH2 0x48E9 PUSH8 0xECB2651B42DDD162 PUSH1 0xC0 SHL PUSH2 0x42E2 JUMP JUMPDEST PUSH2 0x48FD PUSH8 0xE86535689DB88197 PUSH1 0xC0 SHL PUSH2 0x42E2 JUMP JUMPDEST PUSH32 0xFFFFFFFFFFFFFFFFFFFFFFFFFFFFFFFFFFFFFFFFFFFFFFFFFFFFFFFFFFFFFFFF DUP2 EQ PUSH2 0x4A19 JUMPI PUSH2 0x4938 PUSH8 0x1B4116D119FED990 PUSH1 0xC0 SHL PUSH2 0x42E2 JUMP JUMPDEST PUSH2 0x494C PUSH8 0x9C14F1482EBD3F03 PUSH1 0xC0 SHL PUSH2 0x42E2 JUMP JUMPDEST PUSH2 0x4960 PUSH8 0xD145E9F104D95DF7 PUSH1 0xC0 SHL PUSH2 0x42E2 JUMP JUMPDEST PUSH2 0x4974 PUSH8 0xC5B6C10D3C73B8C0 PUSH1 0xC0 SHL PUSH2 0x42E2 JUMP JUMPDEST DUP2 DUP2 LT ISZERO PUSH2 0x49B7 JUMPI PUSH1 0x40 MLOAD PUSH32 0x8C379A000000000000000000000000000000000000000000000000000000000 DUP2 MSTORE PUSH1 0x4 ADD PUSH2 0x49AE SWAP1 PUSH2 0x71D3 JUMP JUMPDEST PUSH1 0x40 MLOAD DUP1 SWAP2 SUB SWAP1 REVERT JUMPDEST PUSH2 0x49CB PUSH8 0x6ADAE15A164C1D41 PUSH1 0xC0 SHL PUSH2 0x42E2 JUMP JUMPDEST PUSH2 0x49DF PUSH8 0xA27DA2E601A0A240 PUSH1 0xC0 SHL PUSH2 0x42E2 JUMP JUMPDEST PUSH2 0x49F3 PUSH8 0x57D26C6D4D17E118 PUSH1 0xC0 SHL PUSH2 0x42E2 JUMP JUMPDEST PUSH2 0x4A07 PUSH8 0x465A6ADE2C659287 PUSH1 0xC0 SHL PUSH2 0x42E2 JUMP JUMPDEST PUSH2 0x4A14 DUP5 DUP5 DUP5 DUP5 SUB PUSH2 0x42ED JUMP JUMPDEST PUSH2 0x4A2E JUMP JUMPDEST PUSH2 0x4A2D PUSH8 0x42503D4FECED536F PUSH1 0xC0 SHL PUSH2 0x42E2 JUMP JUMPDEST JUMPDEST POP POP POP POP JUMP JUMPDEST PUSH2 0x4A48 PUSH8 0xDA5313F878B2A560 PUSH1 0xC0 SHL PUSH2 0x42E2 JUMP JUMPDEST PUSH2 0x4A5C PUSH8 0xE7C676E329341319 PUSH1 0xC0 SHL PUSH2 0x42E2 JUMP JUMPDEST PUSH2 0x4A70 PUSH8 0xEF7FDAFCDBD5899F PUSH1 0xC0 SHL PUSH2 0x42E2 JUMP JUMPDEST PUSH2 0x4A84 PUSH8 0xBA544287EB6B716B PUSH1 0xC0 SHL PUSH2 0x42E2 JUMP JUMPDEST PUSH1 0x0 PUSH20 0xFFFFFFFFFFFFFFFFFFFFFFFFFFFFFFFFFFFFFFFF AND DUP4 PUSH20 0xFFFFFFFFFFFFFFFFFFFFFFFFFFFFFFFFFFFFFFFF AND SUB PUSH2 0x4AF3 JUMPI PUSH1 0x40 MLOAD PUSH32 0x8C379A000000000000000000000000000000000000000000000000000000000 DUP2 MSTORE PUSH1 0x4 ADD PUSH2 0x4AEA SWAP1 PUSH2 0x7265 JUMP JUMPDEST PUSH1 0x40 MLOAD DUP1 SWAP2 SUB SWAP1 REVERT JUMPDEST PUSH2 0x4B07 PUSH8 0x80C1595C0274FBE9 PUSH1 0xC0 SHL PUSH2 0x42E2 JUMP JUMPDEST PUSH2 0x4B1B PUSH8 0x3F4F718C38C375FE PUSH1 0xC0 SHL PUSH2 0x42E2 JUMP JUMPDEST PUSH2 0x4B2F PUSH8 0xBF3BF3F712DAF563 PUSH1 0xC0 SHL PUSH2 0x42E2 JUMP JUMPDEST PUSH2 0x4B43 PUSH8 0xE823D7D6CAAE29FF PUSH1 0xC0 SHL PUSH2 0x42E2 JUMP JUMPDEST PUSH1 0x0 PUSH20 0xFFFFFFFFFFFFFFFFFFFFFFFFFFFFFFFFFFFFFFFF AND DUP3 PUSH20 0xFFFFFFFFFFFFFFFFFFFFFFFFFFFFFFFFFFFFFFFF AND SUB PUSH2 0x4BB2 JUMPI PUSH1 0x40 MLOAD PUSH32 0x8C379A000000000000000000000000000000000000000000000000000000000 DUP2 MSTORE PUSH1 0x4 ADD PUSH2 0x4BA9 SWAP1 PUSH2 0x72F7 JUMP JUMPDEST PUSH1 0x40 MLOAD DUP1 SWAP2 SUB SWAP1 REVERT JUMPDEST PUSH2 0x4BC6 PUSH8 0xE576C5B51C8B5280 PUSH1 0xC0 SHL PUSH2 0x42E2 JUMP JUMPDEST PUSH2 0x4BDA PUSH8 0xEBE817E0272C9EB6 PUSH1 0xC0 SHL PUSH2 0x42E2 JUMP JUMPDEST PUSH2 0x4BEE PUSH8 0x6B423680E18FB116 PUSH1 0xC0 SHL PUSH2 0x42E2 JUMP JUMPDEST PUSH2 0x4BF9 DUP4 DUP4 DUP4 PUSH2 0x55D2 JUMP JUMPDEST PUSH2 0x4C0D PUSH8 0xE51FBD5231AC0667 PUSH1 0xC0 SHL PUSH2 0x42E2 JUMP JUMPDEST PUSH2 0x4C21 PUSH8 0x6B00924884A2206C PUSH1 0xC0 SHL PUSH2 0x42E2 JUMP JUMPDEST PUSH1 0x0 PUSH1 0x33 PUSH1 0x0 DUP6 PUSH20 0xFFFFFFFFFFFFFFFFFFFFFFFFFFFFFFFFFFFFFFFF AND PUSH20 0xFFFFFFFFFFFFFFFFFFFFFFFFFFFFFFFFFFFFFFFF AND DUP2 MSTORE PUSH1 0x20 ADD SWAP1 DUP2 MSTORE PUSH1 0x20 ADD PUSH1 0x0 KECCAK256 SLOAD SWAP1 POP PUSH2 0x4C79 PUSH8 0xF2CB39A5978AE8F3 PUSH1 0xC0 SHL PUSH2 0x42E2 JUMP JUMPDEST PUSH2 0x4C8D PUSH8 0xA42FA0770BAB288A PUSH1 0xC0 SHL PUSH2 0x42E2 JUMP JUMPDEST PUSH2 0x4CA1 PUSH8 0x84E7CE63F3EC7B5B PUSH1 0xC0 SHL PUSH2 0x42E2 JUMP JUMPDEST DUP2 DUP2 LT ISZERO PUSH2 0x4CE4 JUMPI PUSH1 0x40 MLOAD PUSH32 0x8C379A000000000000000000000000000000000000000000000000000000000 DUP2 MSTORE PUSH1 0x4 ADD PUSH2 0x4CDB SWAP1 PUSH2 0x7389 JUMP JUMPDEST PUSH1 0x40 MLOAD DUP1 SWAP2 SUB SWAP1 REVERT JUMPDEST PUSH2 0x4CF8 PUSH8 0x90F03FF30B6BE67C PUSH1 0xC0 SHL PUSH2 0x42E2 JUMP JUMPDEST PUSH2 0x4D0C PUSH8 0x1004286E65991A8C PUSH1 0xC0 SHL PUSH2 0x42E2 JUMP JUMPDEST PUSH2 0x4D20 PUSH8 0xF4340C34F2E122B3 PUSH1 0xC0 SHL PUSH2 0x42E2 JUMP JUMPDEST DUP2 DUP2 SUB PUSH1 0x33 PUSH1 0x0 DUP7 PUSH20 0xFFFFFFFFFFFFFFFFFFFFFFFFFFFFFFFFFFFFFFFF AND PUSH20 0xFFFFFFFFFFFFFFFFFFFFFFFFFFFFFFFFFFFFFFFF AND DUP2 MSTORE PUSH1 0x20 ADD SWAP1 DUP2 MSTORE PUSH1 0x20 ADD PUSH1 0x0 KECCAK256 DUP2 SWAP1 SSTORE POP PUSH2 0x4D7A PUSH8 0x1AEBF4C4B494D3C8 PUSH1 0xC0 SHL PUSH2 0x42E2 JUMP JUMPDEST DUP2 PUSH1 0x33 PUSH1 0x0 DUP6 PUSH20 0xFFFFFFFFFFFFFFFFFFFFFFFFFFFFFFFFFFFFFFFF AND PUSH20 0xFFFFFFFFFFFFFFFFFFFFFFFFFFFFFFFFFFFFFFFF AND DUP2 MSTORE PUSH1 0x20 ADD SWAP1 DUP2 MSTORE PUSH1 0x20 ADD PUSH1 0x0 KECCAK256 PUSH1 0x0 DUP3 DUP3 SLOAD PUSH2 0x4DC9 SWAP2 SWAP1 PUSH2 0x6688 JUMP JUMPDEST SWAP3 POP POP DUP2 SWAP1 SSTORE POP PUSH2 0x4DE4 PUSH8 0xAA50E6F7F3BDB751 PUSH1 0xC0 SHL PUSH2 0x42E2 JUMP JUMPDEST PUSH2 0x4DF8 PUSH8 0x7CBC950FDCB9DB27 PUSH1 0xC0 SHL PUSH2 0x42E2 JUMP JUMPDEST DUP3 PUSH20 0xFFFFFFFFFFFFFFFFFFFFFFFFFFFFFFFFFFFFFFFF AND DUP5 PUSH20 0xFFFFFFFFFFFFFFFFFFFFFFFFFFFFFFFFFFFFFFFF AND PUSH32 0xDDF252AD1BE2C89B69C2B068FC378DAA952BA7F163C4A11628F55A4DF523B3EF DUP5 PUSH1 0x40 MLOAD PUSH2 0x4E55 SWAP2 SWAP1 PUSH2 0x5C7A JUMP JUMPDEST PUSH1 0x40 MLOAD DUP1 SWAP2 SUB SWAP1 LOG3 PUSH2 0x4E71 PUSH8 0xC9BA652C062C32E0 PUSH1 0xC0 SHL PUSH2 0x42E2 JUMP JUMPDEST PUSH2 0x4E85 PUSH8 0x36E2466123452955 PUSH1 0xC0 SHL PUSH2 0x42E2 JUMP JUMPDEST PUSH2 0x4E90 DUP5 DUP5 DUP5 PUSH2 0x5732 JUMP JUMPDEST POP POP POP POP JUMP JUMPDEST PUSH1 0x0 DUP1 PUSH1 0x0 PUSH2 0x4EA5 DUP6 DUP6 PUSH2 0x574B JUMP JUMPDEST SWAP2 POP SWAP2 POP PUSH1 0x0 PUSH1 0x4 DUP2 GT ISZERO PUSH2 0x4EBD JUMPI PUSH2 0x4EBC PUSH2 0x73A9 JUMP JUMPDEST JUMPDEST DUP2 PUSH1 0x4 DUP2 GT ISZERO PUSH2 0x4ED0 JUMPI PUSH2 0x4ECF PUSH2 0x73A9 JUMP JUMPDEST JUMPDEST EQ DUP1 ISZERO PUSH2 0x4F08 JUMPI POP DUP6 PUSH20 0xFFFFFFFFFFFFFFFFFFFFFFFFFFFFFFFFFFFFFFFF AND DUP3 PUSH20 0xFFFFFFFFFFFFFFFFFFFFFFFFFFFFFFFFFFFFFFFF AND EQ JUMPDEST ISZERO PUSH2 0x4F18 JUMPI PUSH1 0x1 SWAP3 POP POP POP PUSH2 0x5055 JUMP JUMPDEST PUSH1 0x0 DUP1 DUP8 PUSH20 0xFFFFFFFFFFFFFFFFFFFFFFFFFFFFFFFFFFFFFFFF AND PUSH4 0x1626BA7E PUSH1 0xE0 SHL DUP9 DUP9 PUSH1 0x40 MLOAD PUSH1 0x24 ADD PUSH2 0x4F4D SWAP3 SWAP2 SWAP1 PUSH2 0x73D8 JUMP JUMPDEST PUSH1 0x40 MLOAD PUSH1 0x20 DUP2 DUP4 SUB SUB DUP2 MSTORE SWAP1 PUSH1 0x40 MSTORE SWAP1 PUSH28 0xFFFFFFFFFFFFFFFFFFFFFFFFFFFFFFFFFFFFFFFFFFFFFFFFFFFFFFFF NOT AND PUSH1 0x20 DUP3 ADD DUP1 MLOAD PUSH28 0xFFFFFFFFFFFFFFFFFFFFFFFFFFFFFFFFFFFFFFFFFFFFFFFFFFFFFFFF DUP4 DUP2 DUP4 AND OR DUP4 MSTORE POP POP POP POP PUSH1 0x40 MLOAD PUSH2 0x4FB7 SWAP2 SWAP1 PUSH2 0x681D JUMP JUMPDEST PUSH1 0x0 PUSH1 0x40 MLOAD DUP1 DUP4 SUB DUP2 DUP6 GAS STATICCALL SWAP2 POP POP RETURNDATASIZE DUP1 PUSH1 0x0 DUP2 EQ PUSH2 0x4FF2 JUMPI PUSH1 0x40 MLOAD SWAP2 POP PUSH1 0x1F NOT PUSH1 0x3F RETURNDATASIZE ADD AND DUP3 ADD PUSH1 0x40 MSTORE RETURNDATASIZE DUP3 MSTORE RETURNDATASIZE PUSH1 0x0 PUSH1 0x20 DUP5 ADD RETURNDATACOPY PUSH2 0x4FF7 JUMP JUMPDEST PUSH1 0x60 SWAP2 POP JUMPDEST POP SWAP2 POP SWAP2 POP DUP2 DUP1 ISZERO PUSH2 0x500A JUMPI POP PUSH1 0x20 DUP2 MLOAD EQ JUMPDEST DUP1 ISZERO PUSH2 0x504E JUMPI POP PUSH4 0x1626BA7E PUSH1 0xE0 SHL PUSH28 0xFFFFFFFFFFFFFFFFFFFFFFFFFFFFFFFFFFFFFFFFFFFFFFFFFFFFFFFF NOT AND DUP2 DUP1 PUSH1 0x20 ADD SWAP1 MLOAD DUP2 ADD SWAP1 PUSH2 0x504C SWAP2 SWAP1 PUSH2 0x741D JUMP JUMPDEST EQ JUMPDEST SWAP5 POP POP POP POP POP JUMPDEST SWAP4 SWAP3 POP POP POP JUMP JUMPDEST PUSH2 0x5070 PUSH8 0xAC5FEE09F554F408 PUSH1 0xC0 SHL PUSH2 0x42E2 JUMP JUMPDEST PUSH2 0x5084 PUSH8 0x508762E436459640 PUSH1 0xC0 SHL PUSH2 0x42E2 JUMP JUMPDEST PUSH2 0x5098 PUSH8 0xDA7CED7A6CA6724A PUSH1 0xC0 SHL PUSH2 0x42E2 JUMP JUMPDEST PUSH2 0x50AC PUSH8 0x31416C661633205A PUSH1 0xC0 SHL PUSH2 0x42E2 JUMP JUMPDEST PUSH1 0x0 PUSH20 0xFFFFFFFFFFFFFFFFFFFFFFFFFFFFFFFFFFFFFFFF AND DUP3 PUSH20 0xFFFFFFFFFFFFFFFFFFFFFFFFFFFFFFFFFFFFFFFF AND SUB PUSH2 0x511B JUMPI PUSH1 0x40 MLOAD PUSH32 0x8C379A000000000000000000000000000000000000000000000000000000000 DUP2 MSTORE PUSH1 0x4 ADD PUSH2 0x5112 SWAP1 PUSH2 0x74BC JUMP JUMPDEST PUSH1 0x40 MLOAD DUP1 SWAP2 SUB SWAP1 REVERT JUMPDEST PUSH2 0x512F PUSH8 0xB27DA3BC1E057CEB PUSH1 0xC0 SHL PUSH2 0x42E2 JUMP JUMPDEST PUSH2 0x5143 PUSH8 0xFD99199E4EB9E58B PUSH1 0xC0 SHL PUSH2 0x42E2 JUMP JUMPDEST PUSH2 0x5157 PUSH8 0xB21A2F30DFF7A92B PUSH1 0xC0 SHL PUSH2 0x42E2 JUMP JUMPDEST PUSH2 0x5163 DUP3 PUSH1 0x0 DUP4 PUSH2 0x55D2 JUMP JUMPDEST PUSH2 0x5177 PUSH8 0x4990F874A49A7899 PUSH1 0xC0 SHL PUSH2 0x42E2 JUMP JUMPDEST PUSH2 0x518B PUSH8 0x7F9C071F12ACC5C8 PUSH1 0xC0 SHL PUSH2 0x42E2 JUMP JUMPDEST PUSH1 0x0 PUSH1 0x33 PUSH1 0x0 DUP5 PUSH20 0xFFFFFFFFFFFFFFFFFFFFFFFFFFFFFFFFFFFFFFFF AND PUSH20 0xFFFFFFFFFFFFFFFFFFFFFFFFFFFFFFFFFFFFFFFF AND DUP2 MSTORE PUSH1 0x20 ADD SWAP1 DUP2 MSTORE PUSH1 0x20 ADD PUSH1 0x0 KECCAK256 SLOAD SWAP1 POP PUSH2 0x51E3 PUSH8 0x8EACFE866E08A9FB PUSH1 0xC0 SHL PUSH2 0x42E2 JUMP JUMPDEST PUSH2 0x51F7 PUSH8 0xC23BF79E2DBAE3D2 PUSH1 0xC0 SHL PUSH2 0x42E2 JUMP JUMPDEST PUSH2 0x520B PUSH8 0x8C96478ACAFFD259 PUSH1 0xC0 SHL PUSH2 0x42E2 JUMP JUMPDEST DUP2 DUP2 LT ISZERO PUSH2 0x524E JUMPI PUSH1 0x40 MLOAD PUSH32 0x8C379A000000000000000000000000000000000000000000000000000000000 DUP2 MSTORE PUSH1 0x4 ADD PUSH2 0x5245 SWAP1 PUSH2 0x754E JUMP JUMPDEST PUSH1 0x40 MLOAD DUP1 SWAP2 SUB SWAP1 REVERT JUMPDEST PUSH2 0x5262 PUSH8 0x33DDF41F383A75EF PUSH1 0xC0 SHL PUSH2 0x42E2 JUMP JUMPDEST PUSH2 0x5276 PUSH8 0xBBE2555E4F7FB5C6 PUSH1 0xC0 SHL PUSH2 0x42E2 JUMP JUMPDEST PUSH2 0x528A PUSH8 0x481818188C2CCF94 PUSH1 0xC0 SHL PUSH2 0x42E2 JUMP JUMPDEST DUP2 DUP2 SUB PUSH1 0x33 PUSH1 0x0 DUP6 PUSH20 0xFFFFFFFFFFFFFFFFFFFFFFFFFFFFFFFFFFFFFFFF AND PUSH20 0xFFFFFFFFFFFFFFFFFFFFFFFFFFFFFFFFFFFFFFFF AND DUP2 MSTORE PUSH1 0x20 ADD SWAP1 DUP2 MSTORE PUSH1 0x20 ADD PUSH1 0x0 KECCAK256 DUP2 SWAP1 SSTORE POP PUSH2 0x52E4 PUSH8 0x94C7015A06BCAA60 PUSH1 0xC0 SHL PUSH2 0x42E2 JUMP JUMPDEST DUP2 PUSH1 0x35 PUSH1 0x0 DUP3 DUP3 SLOAD PUSH2 0x52F6 SWAP2 SWAP1 PUSH2 0x6C0B JUMP JUMPDEST SWAP3 POP POP DUP2 SWAP1 SSTORE POP PUSH2 0x5311 PUSH8 0xBE0CE65CB13C00A7 PUSH1 0xC0 SHL PUSH2 0x42E2 JUMP JUMPDEST PUSH2 0x5325 PUSH8 0x3FE0E200AA76A2D2 PUSH1 0xC0 SHL PUSH2 0x42E2 JUMP JUMPDEST PUSH1 0x0 PUSH20 0xFFFFFFFFFFFFFFFFFFFFFFFFFFFFFFFFFFFFFFFF AND DUP4 PUSH20 0xFFFFFFFFFFFFFFFFFFFFFFFFFFFFFFFFFFFFFFFF AND PUSH32 0xDDF252AD1BE2C89B69C2B068FC378DAA952BA7F163C4A11628F55A4DF523B3EF DUP5 PUSH1 0x40 MLOAD PUSH2 0x5383 SWAP2 SWAP1 PUSH2 0x5C7A JUMP JUMPDEST PUSH1 0x40 MLOAD DUP1 SWAP2 SUB SWAP1 LOG3 PUSH2 0x539F PUSH8 0x93DFBC259449A3C6 PUSH1 0xC0 SHL PUSH2 0x42E2 JUMP JUMPDEST PUSH2 0x53B3 PUSH8 0x872296D5A5FF3570 PUSH1 0xC0 SHL PUSH2 0x42E2 JUMP JUMPDEST PUSH2 0x53BF DUP4 PUSH1 0x0 DUP5 PUSH2 0x5732 JUMP JUMPDEST POP POP POP JUMP JUMPDEST PUSH1 0x0 PUSH1 0x1 SWAP1 POP SWAP2 SWAP1 POP JUMP JUMPDEST PUSH1 0x0 PUSH1 0x66 PUSH1 0x0 SWAP1 SLOAD SWAP1 PUSH2 0x100 EXP SWAP1 DIV PUSH20 0xFFFFFFFFFFFFFFFFFFFFFFFFFFFFFFFFFFFFFFFF AND SWAP1 POP DUP2 PUSH1 0x66 PUSH1 0x0 PUSH2 0x100 EXP DUP2 SLOAD DUP2 PUSH20 0xFFFFFFFFFFFFFFFFFFFFFFFFFFFFFFFFFFFFFFFF MUL NOT AND SWAP1 DUP4 PUSH20 0xFFFFFFFFFFFFFFFFFFFFFFFFFFFFFFFFFFFFFFFF AND MUL OR SWAP1 SSTORE POP DUP2 PUSH20 0xFFFFFFFFFFFFFFFFFFFFFFFFFFFFFFFFFFFFFFFF AND DUP2 PUSH20 0xFFFFFFFFFFFFFFFFFFFFFFFFFFFFFFFFFFFFFFFF AND PUSH32 0x8BE0079C531659141344CD1FD0A4F28419497F9722A3DAAFE3B4186F6B6457E0 PUSH1 0x40 MLOAD PUSH1 0x40 MLOAD DUP1 SWAP2 SUB SWAP1 LOG3 POP POP JUMP JUMPDEST PUSH1 0x0 DUP1 DUP3 PUSH20 0xFFFFFFFFFFFFFFFFFFFFFFFFFFFFFFFFFFFFFFFF AND EXTCODESIZE GT SWAP1 POP SWAP2 SWAP1 POP JUMP JUMPDEST PUSH2 0x54CC PUSH8 0xF0C6B3D63BE5568 PUSH1 0xC0 SHL PUSH2 0x42E2 JUMP JUMPDEST PUSH1 0x0 PUSH1 0x1 SWAP1 SLOAD SWAP1 PUSH2 0x100 EXP SWAP1 DIV PUSH1 0xFF AND PUSH2 0x551B JUMPI PUSH1 0x40 MLOAD PUSH32 0x8C379A000000000000000000000000000000000000000000000000000000000 DUP2 MSTORE PUSH1 0x4 ADD PUSH2 0x5512 SWAP1 PUSH2 0x75E0 JUMP JUMPDEST PUSH1 0x40 MLOAD DUP1 SWAP2 SUB SWAP1 REVERT JUMPDEST PUSH2 0x552F PUSH8 0x7DD271B6E458590D PUSH1 0xC0 SHL PUSH2 0x42E2 JUMP JUMPDEST PUSH2 0x5543 PUSH8 0x6AB6DF4A3012F039 PUSH1 0xC0 SHL PUSH2 0x42E2 JUMP JUMPDEST PUSH2 0x5557 PUSH8 0xD88968175EAEB08C PUSH1 0xC0 SHL PUSH2 0x42E2 JUMP JUMPDEST PUSH2 0x556B PUSH8 0x3446E87FF6D15694 PUSH1 0xC0 SHL PUSH2 0x42E2 JUMP JUMPDEST PUSH2 0x5575 DUP3 DUP3 PUSH2 0x579C JUMP JUMPDEST POP POP JUMP JUMPDEST PUSH1 0x0 PUSH1 0x1 SWAP1 SLOAD SWAP1 PUSH2 0x100 EXP SWAP1 DIV PUSH1 0xFF AND PUSH2 0x55C8 JUMPI PUSH1 0x40 MLOAD PUSH32 0x8C379A000000000000000000000000000000000000000000000000000000000 DUP2 MSTORE PUSH1 0x4 ADD PUSH2 0x55BF SWAP1 PUSH2 0x75E0 JUMP JUMPDEST PUSH1 0x40 MLOAD DUP1 SWAP2 SUB SWAP1 REVERT JUMPDEST PUSH2 0x55D0 PUSH2 0x5873 JUMP JUMPDEST JUMP JUMPDEST PUSH2 0x55E6 PUSH8 0x1B437CD840361FC5 PUSH1 0xC0 SHL PUSH2 0x42E2 JUMP JUMPDEST PUSH2 0x55FA PUSH8 0xC568186EF9C5559A PUSH1 0xC0 SHL PUSH2 0x42E2 JUMP JUMPDEST PUSH2 0x560E PUSH8 0x23A773AF8FB00646 PUSH1 0xC0 SHL PUSH2 0x42E2 JUMP JUMPDEST PUSH2 0x5622 PUSH8 0xC2D6DECA9ED9A078 PUSH1 0xC0 SHL PUSH2 0x42E2 JUMP JUMPDEST PUSH1 0x38 PUSH1 0x0 DUP5 PUSH20 0xFFFFFFFFFFFFFFFFFFFFFFFFFFFFFFFFFFFFFFFF AND PUSH20 0xFFFFFFFFFFFFFFFFFFFFFFFFFFFFFFFFFFFFFFFF AND DUP2 MSTORE PUSH1 0x20 ADD SWAP1 DUP2 MSTORE PUSH1 0x20 ADD PUSH1 0x0 KECCAK256 PUSH1 0x0 SWAP1 SLOAD SWAP1 PUSH2 0x100 EXP SWAP1 DIV PUSH1 0xFF AND ISZERO DUP1 ISZERO PUSH2 0x56C6 JUMPI POP PUSH1 0x38 PUSH1 0x0 DUP4 PUSH20 0xFFFFFFFFFFFFFFFFFFFFFFFFFFFFFFFFFFFFFFFF AND PUSH20 0xFFFFFFFFFFFFFFFFFFFFFFFFFFFFFFFFFFFFFFFF AND DUP2 MSTORE PUSH1 0x20 ADD SWAP1 DUP2 MSTORE PUSH1 0x20 ADD PUSH1 0x0 KECCAK256 PUSH1 0x0 SWAP1 SLOAD SWAP1 PUSH2 0x100 EXP SWAP1 DIV PUSH1 0xFF AND ISZERO JUMPDEST PUSH2 0x5705 JUMPI PUSH1 0x40 MLOAD PUSH32 0x8C379A000000000000000000000000000000000000000000000000000000000 DUP2 MSTORE PUSH1 0x4 ADD PUSH2 0x56FC SWAP1 PUSH2 0x764C JUMP JUMPDEST PUSH1 0x40 MLOAD DUP1 SWAP2 SUB SWAP1 REVERT JUMPDEST PUSH2 0x5719 PUSH8 0xFF4C715CD3506D79 PUSH1 0xC0 SHL PUSH2 0x42E2 JUMP JUMPDEST PUSH2 0x572D PUSH8 0xAC7FAEE281CC04A6 PUSH1 0xC0 SHL PUSH2 0x42E2 JUMP JUMPDEST POP POP POP JUMP JUMPDEST PUSH2 0x5746 PUSH8 0x6594D24C77EA8B34 PUSH1 0xC0 SHL PUSH2 0x42E2 JUMP JUMPDEST POP POP POP JUMP JUMPDEST PUSH1 0x0 DUP1 PUSH1 0x41 DUP4 MLOAD SUB PUSH2 0x578C JUMPI PUSH1 0x0 DUP1 PUSH1 0x0 PUSH1 0x20 DUP7 ADD MLOAD SWAP3 POP PUSH1 0x40 DUP7 ADD MLOAD SWAP2 POP PUSH1 0x60 DUP7 ADD MLOAD PUSH1 0x0 BYTE SWAP1 POP PUSH2 0x5780 DUP8 DUP3 DUP6 DUP6 PUSH2 0x58D4 JUMP JUMPDEST SWAP5 POP SWAP5 POP POP POP POP PUSH2 0x5795 JUMP JUMPDEST PUSH1 0x0 PUSH1 0x2 SWAP2 POP SWAP2 POP JUMPDEST SWAP3 POP SWAP3 SWAP1 POP JUMP JUMPDEST PUSH2 0x57B0 PUSH8 0x25306D7A08A9C3A4 PUSH1 0xC0 SHL PUSH2 0x42E2 JUMP JUMPDEST PUSH1 0x0 PUSH1 0x1 SWAP1 SLOAD SWAP1 PUSH2 0x100 EXP SWAP1 DIV PUSH1 0xFF AND PUSH2 0x57FF JUMPI PUSH1 0x40 MLOAD PUSH32 0x8C379A000000000000000000000000000000000000000000000000000000000 DUP2 MSTORE PUSH1 0x4 ADD PUSH2 0x57F6 SWAP1 PUSH2 0x75E0 JUMP JUMPDEST PUSH1 0x40 MLOAD DUP1 SWAP2 SUB SWAP1 REVERT JUMPDEST PUSH2 0x5813 PUSH8 0xA3A58CA4DE9D8C92 PUSH1 0xC0 SHL PUSH2 0x42E2 JUMP JUMPDEST PUSH2 0x5827 PUSH8 0xA5A041356CB553A PUSH1 0xC0 SHL PUSH2 0x42E2 JUMP JUMPDEST PUSH2 0x583B PUSH8 0xCD304845B6B81646 PUSH1 0xC0 SHL PUSH2 0x42E2 JUMP JUMPDEST DUP2 PUSH1 0x36 SWAP1 DUP2 PUSH2 0x584A SWAP2 SWAP1 PUSH2 0x780E JUMP JUMPDEST POP PUSH2 0x585F PUSH8 0x2778E1A5AACB726E PUSH1 0xC0 SHL PUSH2 0x42E2 JUMP JUMPDEST DUP1 PUSH1 0x37 SWAP1 DUP2 PUSH2 0x586E SWAP2 SWAP1 PUSH2 0x780E JUMP JUMPDEST POP POP POP JUMP JUMPDEST PUSH1 0x0 PUSH1 0x1 SWAP1 SLOAD SWAP1 PUSH2 0x100 EXP SWAP1 DIV PUSH1 0xFF AND PUSH2 0x58C2 JUMPI PUSH1 0x40 MLOAD PUSH32 0x8C379A000000000000000000000000000000000000000000000000000000000 DUP2 MSTORE PUSH1 0x4 ADD PUSH2 0x58B9 SWAP1 PUSH2 0x75E0 JUMP JUMPDEST PUSH1 0x40 MLOAD DUP1 SWAP2 SUB SWAP1 REVERT JUMPDEST PUSH2 0x58D2 PUSH2 0x58CD PUSH2 0x42E5 JUMP JUMPDEST PUSH2 0x53CF JUMP JUMPDEST JUMP JUMPDEST PUSH1 0x0 DUP1 PUSH32 0x7FFFFFFFFFFFFFFFFFFFFFFFFFFFFFFF5D576E7357A4501DDFE92F46681B20A0 DUP4 PUSH1 0x0 SHR GT ISZERO PUSH2 0x590F JUMPI PUSH1 0x0 PUSH1 0x3 SWAP2 POP SWAP2 POP PUSH2 0x59AD JUMP JUMPDEST PUSH1 0x0 PUSH1 0x1 DUP8 DUP8 DUP8 DUP8 PUSH1 0x40 MLOAD PUSH1 0x0 DUP2 MSTORE PUSH1 0x20 ADD PUSH1 0x40 MSTORE PUSH1 0x40 MLOAD PUSH2 0x5934 SWAP5 SWAP4 SWAP3 SWAP2 SWAP1 PUSH2 0x6D08 JUMP JUMPDEST PUSH1 0x20 PUSH1 0x40 MLOAD PUSH1 0x20 DUP2 SUB SWAP1 DUP1 DUP5 SUB SWAP1 DUP6 GAS STATICCALL ISZERO DUP1 ISZERO PUSH2 0x5956 JUMPI RETURNDATASIZE PUSH1 0x0 DUP1 RETURNDATACOPY RETURNDATASIZE PUSH1 0x0 REVERT JUMPDEST POP POP POP PUSH1 0x20 PUSH1 0x40 MLOAD SUB MLOAD SWAP1 POP PUSH1 0x0 PUSH20 0xFFFFFFFFFFFFFFFFFFFFFFFFFFFFFFFFFFFFFFFF AND DUP2 PUSH20 0xFFFFFFFFFFFFFFFFFFFFFFFFFFFFFFFFFFFFFFFF AND SUB PUSH2 0x59A4 JUMPI PUSH1 0x0 PUSH1 0x1 SWAP3 POP SWAP3 POP POP PUSH2 0x59AD JUMP JUMPDEST DUP1 PUSH1 0x0 SWAP3 POP SWAP3 POP POP JUMPDEST SWAP5 POP SWAP5 SWAP3 POP POP POP JUMP JUMPDEST POP DUP1 SLOAD PUSH1 0x0 DUP3 SSTORE SWAP1 PUSH1 0x0 MSTORE PUSH1 0x20 PUSH1 0x0 KECCAK256 SWAP1 DUP2 ADD SWAP1 PUSH2 0x59D4 SWAP2 SWAP1 PUSH2 0x59D7 JUMP JUMPDEST POP JUMP JUMPDEST JUMPDEST DUP1 DUP3 GT ISZERO PUSH2 0x59F0 JUMPI PUSH1 0x0 DUP2 PUSH1 0x0 SWAP1 SSTORE POP PUSH1 0x1 ADD PUSH2 0x59D8 JUMP JUMPDEST POP SWAP1 JUMP JUMPDEST PUSH1 0x0 PUSH20 0xFFFFFFFFFFFFFFFFFFFFFFFFFFFFFFFFFFFFFFFF DUP3 AND SWAP1 POP SWAP2 SWAP1 POP JUMP JUMPDEST PUSH1 0x0 DUP2 SWAP1 POP SWAP2 SWAP1 POP JUMP JUMPDEST PUSH1 0x0 PUSH2 0x5A39 PUSH2 0x5A34 PUSH2 0x5A2F DUP5 PUSH2 0x59F4 JUMP JUMPDEST PUSH2 0x5A14 JUMP JUMPDEST PUSH2 0x59F4 JUMP JUMPDEST SWAP1 POP SWAP2 SWAP1 POP JUMP JUMPDEST PUSH1 0x0 PUSH2 0x5A4B DUP3 PUSH2 0x5A1E JUMP JUMPDEST SWAP1 POP SWAP2 SWAP1 POP JUMP JUMPDEST PUSH1 0x0 PUSH2 0x5A5D DUP3 PUSH2 0x5A40 JUMP JUMPDEST SWAP1 POP SWAP2 SWAP1 POP JUMP JUMPDEST PUSH2 0x5A6D DUP2 PUSH2 0x5A52 JUMP JUMPDEST DUP3 MSTORE POP POP JUMP JUMPDEST PUSH1 0x0 PUSH1 0x20 DUP3 ADD SWAP1 POP PUSH2 0x5A88 PUSH1 0x0 DUP4 ADD DUP5 PUSH2 0x5A64 JUMP JUMPDEST SWAP3 SWAP2 POP POP JUMP JUMPDEST PUSH1 0x0 DUP2 MLOAD SWAP1 POP SWAP2 SWAP1 POP JUMP JUMPDEST PUSH1 0x0 DUP3 DUP3 MSTORE PUSH1 0x20 DUP3 ADD SWAP1 POP SWAP3 SWAP2 POP POP JUMP JUMPDEST PUSH1 0x0 JUMPDEST DUP4 DUP2 LT ISZERO PUSH2 0x5AC8 JUMPI DUP1 DUP3 ADD MLOAD DUP2 DUP5 ADD MSTORE PUSH1 0x20 DUP2 ADD SWAP1 POP PUSH2 0x5AAD JUMP JUMPDEST PUSH1 0x0 DUP5 DUP5 ADD MSTORE POP POP POP POP JUMP JUMPDEST PUSH1 0x0 PUSH1 0x1F NOT PUSH1 0x1F DUP4 ADD AND SWAP1 POP SWAP2 SWAP1 POP JUMP JUMPDEST PUSH1 0x0 PUSH2 0x5AF0 DUP3 PUSH2 0x5A8E JUMP JUMPDEST PUSH2 0x5AFA DUP2 DUP6 PUSH2 0x5A99 JUMP JUMPDEST SWAP4 POP PUSH2 0x5B0A DUP2 DUP6 PUSH1 0x20 DUP7 ADD PUSH2 0x5AAA JUMP JUMPDEST PUSH2 0x5B13 DUP2 PUSH2 0x5AD4 JUMP JUMPDEST DUP5 ADD SWAP2 POP POP SWAP3 SWAP2 POP POP JUMP JUMPDEST PUSH1 0x0 PUSH1 0x20 DUP3 ADD SWAP1 POP DUP2 DUP2 SUB PUSH1 0x0 DUP4 ADD MSTORE PUSH2 0x5B38 DUP2 DUP5 PUSH2 0x5AE5 JUMP JUMPDEST SWAP1 POP SWAP3 SWAP2 POP POP JUMP JUMPDEST PUSH1 0x0 PUSH1 0x40 MLOAD SWAP1 POP SWAP1 JUMP JUMPDEST PUSH1 0x0 DUP1 REVERT JUMPDEST PUSH1 0x0 DUP1 REVERT JUMPDEST PUSH1 0x0 PUSH2 0x5B5F DUP3 PUSH2 0x59F4 JUMP JUMPDEST SWAP1 POP SWAP2 SWAP1 POP JUMP JUMPDEST PUSH2 0x5B6F DUP2 PUSH2 0x5B54 JUMP JUMPDEST DUP2 EQ PUSH2 0x5B7A JUMPI PUSH1 0x0 DUP1 REVERT JUMPDEST POP JUMP JUMPDEST PUSH1 0x0 DUP2 CALLDATALOAD SWAP1 POP PUSH2 0x5B8C DUP2 PUSH2 0x5B66 JUMP JUMPDEST SWAP3 SWAP2 POP POP JUMP JUMPDEST PUSH1 0x0 DUP2 SWAP1 POP SWAP2 SWAP1 POP JUMP JUMPDEST PUSH2 0x5BA5 DUP2 PUSH2 0x5B92 JUMP JUMPDEST DUP2 EQ PUSH2 0x5BB0 JUMPI PUSH1 0x0 DUP1 REVERT JUMPDEST POP JUMP JUMPDEST PUSH1 0x0 DUP2 CALLDATALOAD SWAP1 POP PUSH2 0x5BC2 DUP2 PUSH2 0x5B9C JUMP JUMPDEST SWAP3 SWAP2 POP POP JUMP JUMPDEST PUSH1 0x0 DUP1 PUSH1 0x40 DUP4 DUP6 SUB SLT ISZERO PUSH2 0x5BDF JUMPI PUSH2 0x5BDE PUSH2 0x5B4A JUMP JUMPDEST JUMPDEST PUSH1 0x0 PUSH2 0x5BED DUP6 DUP3 DUP7 ADD PUSH2 0x5B7D JUMP JUMPDEST SWAP3 POP POP PUSH1 0x20 PUSH2 0x5BFE DUP6 DUP3 DUP7 ADD PUSH2 0x5BB3 JUMP JUMPDEST SWAP2 POP POP SWAP3 POP SWAP3 SWAP1 POP JUMP JUMPDEST PUSH1 0x0 DUP2 ISZERO ISZERO SWAP1 POP SWAP2 SWAP1 POP JUMP JUMPDEST PUSH2 0x5C1D DUP2 PUSH2 0x5C08 JUMP JUMPDEST DUP3 MSTORE POP POP JUMP JUMPDEST PUSH1 0x0 PUSH1 0x20 DUP3 ADD SWAP1 POP PUSH2 0x5C38 PUSH1 0x0 DUP4 ADD DUP5 PUSH2 0x5C14 JUMP JUMPDEST SWAP3 SWAP2 POP POP JUMP JUMPDEST PUSH1 0x0 PUSH1 0x20 DUP3 DUP5 SUB SLT ISZERO PUSH2 0x5C54 JUMPI PUSH2 0x5C53 PUSH2 0x5B4A JUMP JUMPDEST JUMPDEST PUSH1 0x0 PUSH2 0x5C62 DUP5 DUP3 DUP6 ADD PUSH2 0x5BB3 JUMP JUMPDEST SWAP2 POP POP SWAP3 SWAP2 POP POP JUMP JUMPDEST PUSH2 0x5C74 DUP2 PUSH2 0x5B92 JUMP JUMPDEST DUP3 MSTORE POP POP JUMP JUMPDEST PUSH1 0x0 PUSH1 0x20 DUP3 ADD SWAP1 POP PUSH2 0x5C8F PUSH1 0x0 DUP4 ADD DUP5 PUSH2 0x5C6B JUMP JUMPDEST SWAP3 SWAP2 POP POP JUMP JUMPDEST PUSH1 0x0 DUP1 REVERT JUMPDEST PUSH1 0x0 DUP1 REVERT JUMPDEST PUSH1 0x0 DUP1 REVERT JUMPDEST PUSH1 0x0 DUP1 DUP4 PUSH1 0x1F DUP5 ADD SLT PUSH2 0x5CBA JUMPI PUSH2 0x5CB9 PUSH2 0x5C95 JUMP JUMPDEST JUMPDEST DUP3 CALLDATALOAD SWAP1 POP PUSH8 0xFFFFFFFFFFFFFFFF DUP2 GT ISZERO PUSH2 0x5CD7 JUMPI PUSH2 0x5CD6 PUSH2 0x5C9A JUMP JUMPDEST JUMPDEST PUSH1 0x20 DUP4 ADD SWAP2 POP DUP4 PUSH1 0x20 DUP3 MUL DUP4 ADD GT ISZERO PUSH2 0x5CF3 JUMPI PUSH2 0x5CF2 PUSH2 0x5C9F JUMP JUMPDEST JUMPDEST SWAP3 POP SWAP3 SWAP1 POP JUMP JUMPDEST PUSH1 0x0 DUP1 DUP4 PUSH1 0x1F DUP5 ADD SLT PUSH2 0x5D10 JUMPI PUSH2 0x5D0F PUSH2 0x5C95 JUMP JUMPDEST JUMPDEST DUP3 CALLDATALOAD SWAP1 POP PUSH8 0xFFFFFFFFFFFFFFFF DUP2 GT ISZERO PUSH2 0x5D2D JUMPI PUSH2 0x5D2C PUSH2 0x5C9A JUMP JUMPDEST JUMPDEST PUSH1 0x20 DUP4 ADD SWAP2 POP DUP4 PUSH1 0x20 DUP3 MUL DUP4 ADD GT ISZERO PUSH2 0x5D49 JUMPI PUSH2 0x5D48 PUSH2 0x5C9F JUMP JUMPDEST JUMPDEST SWAP3 POP SWAP3 SWAP1 POP JUMP JUMPDEST PUSH1 0x0 DUP1 PUSH1 0x0 DUP1 PUSH1 0x0 DUP1 PUSH1 0x0 DUP1 PUSH1 0x80 DUP10 DUP12 SUB SLT ISZERO PUSH2 0x5D70 JUMPI PUSH2 0x5D6F PUSH2 0x5B4A JUMP JUMPDEST JUMPDEST PUSH1 0x0 DUP10 ADD CALLDATALOAD PUSH8 0xFFFFFFFFFFFFFFFF DUP2 GT ISZERO PUSH2 0x5D8E JUMPI PUSH2 0x5D8D PUSH2 0x5B4F JUMP JUMPDEST JUMPDEST PUSH2 0x5D9A DUP12 DUP3 DUP13 ADD PUSH2 0x5CA4 JUMP JUMPDEST SWAP9 POP SWAP9 POP POP PUSH1 0x20 DUP10 ADD CALLDATALOAD PUSH8 0xFFFFFFFFFFFFFFFF DUP2 GT ISZERO PUSH2 0x5DBD JUMPI PUSH2 0x5DBC PUSH2 0x5B4F JUMP JUMPDEST JUMPDEST PUSH2 0x5DC9 DUP12 DUP3 DUP13 ADD PUSH2 0x5CFA JUMP JUMPDEST SWAP7 POP SWAP7 POP POP PUSH1 0x40 DUP10 ADD CALLDATALOAD PUSH8 0xFFFFFFFFFFFFFFFF DUP2 GT ISZERO PUSH2 0x5DEC JUMPI PUSH2 0x5DEB PUSH2 0x5B4F JUMP JUMPDEST JUMPDEST PUSH2 0x5DF8 DUP12 DUP3 DUP13 ADD PUSH2 0x5CA4 JUMP JUMPDEST SWAP5 POP SWAP5 POP POP PUSH1 0x60 DUP10 ADD CALLDATALOAD PUSH8 0xFFFFFFFFFFFFFFFF DUP2 GT ISZERO PUSH2 0x5E1B JUMPI PUSH2 0x5E1A PUSH2 0x5B4F JUMP JUMPDEST JUMPDEST PUSH2 0x5E27 DUP12 DUP3 DUP13 ADD PUSH2 0x5CA4 JUMP JUMPDEST SWAP3 POP SWAP3 POP POP SWAP3 SWAP6 SWAP9 POP SWAP3 SWAP6 SWAP9 SWAP1 SWAP4 SWAP7 POP JUMP JUMPDEST PUSH1 0x0 DUP1 PUSH1 0x0 PUSH1 0x60 DUP5 DUP7 SUB SLT ISZERO PUSH2 0x5E52 JUMPI PUSH2 0x5E51 PUSH2 0x5B4A JUMP JUMPDEST JUMPDEST PUSH1 0x0 PUSH2 0x5E60 DUP7 DUP3 DUP8 ADD PUSH2 0x5B7D JUMP JUMPDEST SWAP4 POP POP PUSH1 0x20 PUSH2 0x5E71 DUP7 DUP3 DUP8 ADD PUSH2 0x5B7D JUMP JUMPDEST SWAP3 POP POP PUSH1 0x40 PUSH2 0x5E82 DUP7 DUP3 DUP8 ADD PUSH2 0x5BB3 JUMP JUMPDEST SWAP2 POP POP SWAP3 POP SWAP3 POP SWAP3 JUMP JUMPDEST PUSH2 0x5E95 DUP2 PUSH2 0x5B54 JUMP JUMPDEST DUP3 MSTORE POP POP JUMP JUMPDEST PUSH1 0x0 PUSH1 0xA0 DUP3 ADD SWAP1 POP PUSH2 0x5EB0 PUSH1 0x0 DUP4 ADD DUP9 PUSH2 0x5C6B JUMP JUMPDEST PUSH2 0x5EBD PUSH1 0x20 DUP4 ADD DUP8 PUSH2 0x5E8C JUMP JUMPDEST PUSH2 0x5ECA PUSH1 0x40 DUP4 ADD DUP7 PUSH2 0x5C6B JUMP JUMPDEST PUSH2 0x5ED7 PUSH1 0x60 DUP4 ADD DUP6 PUSH2 0x5C6B JUMP JUMPDEST PUSH2 0x5EE4 PUSH1 0x80 DUP4 ADD DUP5 PUSH2 0x5C6B JUMP JUMPDEST SWAP7 SWAP6 POP POP POP POP POP POP JUMP JUMPDEST PUSH1 0x0 PUSH1 0xFF DUP3 AND SWAP1 POP SWAP2 SWAP1 POP JUMP JUMPDEST PUSH2 0x5F04 DUP2 PUSH2 0x5EEE JUMP JUMPDEST DUP3 MSTORE POP POP JUMP JUMPDEST PUSH1 0x0 PUSH1 0x20 DUP3 ADD SWAP1 POP PUSH2 0x5F1F PUSH1 0x0 DUP4 ADD DUP5 PUSH2 0x5EFB JUMP JUMPDEST SWAP3 SWAP2 POP POP JUMP JUMPDEST PUSH1 0x0 DUP1 PUSH1 0x20 DUP4 DUP6 SUB SLT ISZERO PUSH2 0x5F3C JUMPI PUSH2 0x5F3B PUSH2 0x5B4A JUMP JUMPDEST JUMPDEST PUSH1 0x0 DUP4 ADD CALLDATALOAD PUSH8 0xFFFFFFFFFFFFFFFF DUP2 GT ISZERO PUSH2 0x5F5A JUMPI PUSH2 0x5F59 PUSH2 0x5B4F JUMP JUMPDEST JUMPDEST PUSH2 0x5F66 DUP6 DUP3 DUP7 ADD PUSH2 0x5CFA JUMP JUMPDEST SWAP3 POP SWAP3 POP POP SWAP3 POP SWAP3 SWAP1 POP JUMP JUMPDEST PUSH1 0x0 DUP1 REVERT JUMPDEST PUSH1 0x0 PUSH1 0x40 DUP3 DUP5 SUB SLT ISZERO PUSH2 0x5F8D JUMPI PUSH2 0x5F8C PUSH2 0x5F72 JUMP JUMPDEST JUMPDEST DUP2 SWAP1 POP SWAP3 SWAP2 POP POP JUMP JUMPDEST PUSH1 0x0 DUP1 REVERT JUMPDEST PUSH32 0x4E487B7100000000000000000000000000000000000000000000000000000000 PUSH1 0x0 MSTORE PUSH1 0x41 PUSH1 0x4 MSTORE PUSH1 0x24 PUSH1 0x0 REVERT JUMPDEST PUSH2 0x5FD3 DUP3 PUSH2 0x5AD4 JUMP JUMPDEST DUP2 ADD DUP2 DUP2 LT PUSH8 0xFFFFFFFFFFFFFFFF DUP3 GT OR ISZERO PUSH2 0x5FF2 JUMPI PUSH2 0x5FF1 PUSH2 0x5F9B JUMP JUMPDEST JUMPDEST DUP1 PUSH1 0x40 MSTORE POP POP POP JUMP JUMPDEST PUSH1 0x0 PUSH2 0x6005 PUSH2 0x5B40 JUMP JUMPDEST SWAP1 POP PUSH2 0x6011 DUP3 DUP3 PUSH2 0x5FCA JUMP JUMPDEST SWAP2 SWAP1 POP JUMP JUMPDEST PUSH1 0x0 PUSH8 0xFFFFFFFFFFFFFFFF DUP3 GT ISZERO PUSH2 0x6031 JUMPI PUSH2 0x6030 PUSH2 0x5F9B JUMP JUMPDEST JUMPDEST PUSH2 0x603A DUP3 PUSH2 0x5AD4 JUMP JUMPDEST SWAP1 POP PUSH1 0x20 DUP2 ADD SWAP1 POP SWAP2 SWAP1 POP JUMP JUMPDEST DUP3 DUP2 DUP4 CALLDATACOPY PUSH1 0x0 DUP4 DUP4 ADD MSTORE POP POP POP JUMP JUMPDEST PUSH1 0x0 PUSH2 0x6069 PUSH2 0x6064 DUP5 PUSH2 0x6016 JUMP JUMPDEST PUSH2 0x5FFB JUMP JUMPDEST SWAP1 POP DUP3 DUP2 MSTORE PUSH1 0x20 DUP2 ADD DUP5 DUP5 DUP5 ADD GT ISZERO PUSH2 0x6085 JUMPI PUSH2 0x6084 PUSH2 0x5F96 JUMP JUMPDEST JUMPDEST PUSH2 0x6090 DUP5 DUP3 DUP6 PUSH2 0x6047 JUMP JUMPDEST POP SWAP4 SWAP3 POP POP POP JUMP JUMPDEST PUSH1 0x0 DUP3 PUSH1 0x1F DUP4 ADD SLT PUSH2 0x60AD JUMPI PUSH2 0x60AC PUSH2 0x5C95 JUMP JUMPDEST JUMPDEST DUP2 CALLDATALOAD PUSH2 0x60BD DUP5 DUP3 PUSH1 0x20 DUP7 ADD PUSH2 0x6056 JUMP JUMPDEST SWAP2 POP POP SWAP3 SWAP2 POP POP JUMP JUMPDEST PUSH1 0x0 DUP1 PUSH1 0x60 DUP4 DUP6 SUB SLT ISZERO PUSH2 0x60DD JUMPI PUSH2 0x60DC PUSH2 0x5B4A JUMP JUMPDEST JUMPDEST PUSH1 0x0 PUSH2 0x60EB DUP6 DUP3 DUP7 ADD PUSH2 0x5F77 JUMP JUMPDEST SWAP3 POP POP PUSH1 0x40 DUP4 ADD CALLDATALOAD PUSH8 0xFFFFFFFFFFFFFFFF DUP2 GT ISZERO PUSH2 0x610C JUMPI PUSH2 0x610B PUSH2 0x5B4F JUMP JUMPDEST JUMPDEST PUSH2 0x6118 DUP6 DUP3 DUP7 ADD PUSH2 0x6098 JUMP JUMPDEST SWAP2 POP POP SWAP3 POP SWAP3 SWAP1 POP JUMP JUMPDEST PUSH1 0x0 PUSH1 0x20 DUP3 DUP5 SUB SLT ISZERO PUSH2 0x6138 JUMPI PUSH2 0x6137 PUSH2 0x5B4A JUMP JUMPDEST JUMPDEST PUSH1 0x0 PUSH2 0x6146 DUP5 DUP3 DUP6 ADD PUSH2 0x5B7D JUMP JUMPDEST SWAP2 POP POP SWAP3 SWAP2 POP POP JUMP JUMPDEST PUSH1 0x0 DUP1 REVERT JUMPDEST PUSH1 0x0 DUP2 SWAP1 POP SWAP2 SWAP1 POP JUMP JUMPDEST PUSH2 0x6167 DUP2 PUSH2 0x6154 JUMP JUMPDEST DUP2 EQ PUSH2 0x6172 JUMPI PUSH1 0x0 DUP1 REVERT JUMPDEST POP JUMP JUMPDEST PUSH1 0x0 DUP2 CALLDATALOAD SWAP1 POP PUSH2 0x6184 DUP2 PUSH2 0x615E JUMP JUMPDEST SWAP3 SWAP2 POP POP JUMP JUMPDEST PUSH1 0x0 PUSH1 0x60 DUP3 DUP5 SUB SLT ISZERO PUSH2 0x61A0 JUMPI PUSH2 0x619F PUSH2 0x614F JUMP JUMPDEST JUMPDEST PUSH2 0x61AA PUSH1 0x60 PUSH2 0x5FFB JUMP JUMPDEST SWAP1 POP PUSH1 0x0 PUSH2 0x61BA DUP5 DUP3 DUP6 ADD PUSH2 0x5BB3 JUMP JUMPDEST PUSH1 0x0 DUP4 ADD MSTORE POP PUSH1 0x20 PUSH2 0x61CE DUP5 DUP3 DUP6 ADD PUSH2 0x5BB3 JUMP JUMPDEST PUSH1 0x20 DUP4 ADD MSTORE POP PUSH1 0x40 PUSH2 0x61E2 DUP5 DUP3 DUP6 ADD PUSH2 0x6175 JUMP JUMPDEST PUSH1 0x40 DUP4 ADD MSTORE POP SWAP3 SWAP2 POP POP JUMP JUMPDEST PUSH1 0x0 DUP1 PUSH1 0x80 DUP4 DUP6 SUB SLT ISZERO PUSH2 0x6205 JUMPI PUSH2 0x6204 PUSH2 0x5B4A JUMP JUMPDEST JUMPDEST PUSH1 0x0 PUSH2 0x6213 DUP6 DUP3 DUP7 ADD PUSH2 0x618A JUMP JUMPDEST SWAP3 POP POP PUSH1 0x60 DUP4 ADD CALLDATALOAD PUSH8 0xFFFFFFFFFFFFFFFF DUP2 GT ISZERO PUSH2 0x6234 JUMPI PUSH2 0x6233 PUSH2 0x5B4F JUMP JUMPDEST JUMPDEST PUSH2 0x6240 DUP6 DUP3 DUP7 ADD PUSH2 0x6098 JUMP JUMPDEST SWAP2 POP POP SWAP3 POP SWAP3 SWAP1 POP JUMP JUMPDEST PUSH1 0x0 DUP1 PUSH1 0x0 DUP1 PUSH1 0x0 PUSH1 0xA0 DUP7 DUP9 SUB SLT ISZERO PUSH2 0x6266 JUMPI PUSH2 0x6265 PUSH2 0x5B4A JUMP JUMPDEST JUMPDEST PUSH1 0x0 PUSH2 0x6274 DUP9 DUP3 DUP10 ADD PUSH2 0x5B7D JUMP JUMPDEST SWAP6 POP POP PUSH1 0x20 PUSH2 0x6285 DUP9 DUP3 DUP10 ADD PUSH2 0x5B7D JUMP JUMPDEST SWAP5 POP POP PUSH1 0x40 PUSH2 0x6296 DUP9 DUP3 DUP10 ADD PUSH2 0x5B7D JUMP JUMPDEST SWAP4 POP POP PUSH1 0x60 PUSH2 0x62A7 DUP9 DUP3 DUP10 ADD PUSH2 0x5B7D JUMP JUMPDEST SWAP3 POP POP PUSH1 0x80 PUSH2 0x62B8 DUP9 DUP3 DUP10 ADD PUSH2 0x5B7D JUMP JUMPDEST SWAP2 POP POP SWAP3 SWAP6 POP SWAP3 SWAP6 SWAP1 SWAP4 POP JUMP JUMPDEST PUSH1 0x0 PUSH1 0x20 DUP3 ADD SWAP1 POP PUSH2 0x62DA PUSH1 0x0 DUP4 ADD DUP5 PUSH2 0x5E8C JUMP JUMPDEST SWAP3 SWAP2 POP POP JUMP JUMPDEST PUSH1 0x0 PUSH1 0x80 DUP3 ADD SWAP1 POP PUSH2 0x62F5 PUSH1 0x0 DUP4 ADD DUP8 PUSH2 0x5E8C JUMP JUMPDEST PUSH2 0x6302 PUSH1 0x20 DUP4 ADD DUP7 PUSH2 0x5C6B JUMP JUMPDEST PUSH2 0x630F PUSH1 0x40 DUP4 ADD DUP6 PUSH2 0x5C6B JUMP JUMPDEST PUSH2 0x631C PUSH1 0x60 DUP4 ADD DUP5 PUSH2 0x5C6B JUMP JUMPDEST SWAP6 SWAP5 POP POP POP POP POP JUMP JUMPDEST PUSH1 0x0 DUP1 PUSH1 0x40 DUP4 DUP6 SUB SLT ISZERO PUSH2 0x633C JUMPI PUSH2 0x633B PUSH2 0x5B4A JUMP JUMPDEST JUMPDEST PUSH1 0x0 PUSH2 0x634A DUP6 DUP3 DUP7 ADD PUSH2 0x6175 JUMP JUMPDEST SWAP3 POP POP PUSH1 0x20 DUP4 ADD CALLDATALOAD PUSH8 0xFFFFFFFFFFFFFFFF DUP2 GT ISZERO PUSH2 0x636B JUMPI PUSH2 0x636A PUSH2 0x5B4F JUMP JUMPDEST JUMPDEST PUSH2 0x6377 DUP6 DUP3 DUP7 ADD PUSH2 0x6098 JUMP JUMPDEST SWAP2 POP POP SWAP3 POP SWAP3 SWAP1 POP JUMP JUMPDEST PUSH1 0x0 DUP1 PUSH1 0x0 PUSH1 0x60 DUP5 DUP7 SUB SLT ISZERO PUSH2 0x639A JUMPI PUSH2 0x6399 PUSH2 0x5B4A JUMP JUMPDEST JUMPDEST PUSH1 0x0 PUSH2 0x63A8 DUP7 DUP3 DUP8 ADD PUSH2 0x5BB3 JUMP JUMPDEST SWAP4 POP POP PUSH1 0x20 PUSH2 0x63B9 DUP7 DUP3 DUP8 ADD PUSH2 0x5BB3 JUMP JUMPDEST SWAP3 POP POP PUSH1 0x40 PUSH2 0x63CA DUP7 DUP3 DUP8 ADD PUSH2 0x5BB3 JUMP JUMPDEST SWAP2 POP POP SWAP3 POP SWAP3 POP SWAP3 JUMP JUMPDEST PUSH1 0x0 PUSH2 0x63DF DUP3 PUSH2 0x5A40 JUMP JUMPDEST SWAP1 POP SWAP2 SWAP1 POP JUMP JUMPDEST PUSH2 0x63EF DUP2 PUSH2 0x63D4 JUMP JUMPDEST DUP3 MSTORE POP POP JUMP JUMPDEST PUSH1 0x0 PUSH1 0x20 DUP3 ADD SWAP1 POP PUSH2 0x640A PUSH1 0x0 DUP4 ADD DUP5 PUSH2 0x63E6 JUMP JUMPDEST SWAP3 SWAP2 POP POP JUMP JUMPDEST PUSH1 0x0 PUSH1 0x20 DUP3 DUP5 SUB SLT ISZERO PUSH2 0x6426 JUMPI PUSH2 0x6425 PUSH2 0x5B4A JUMP JUMPDEST JUMPDEST PUSH1 0x0 DUP3 ADD CALLDATALOAD PUSH8 0xFFFFFFFFFFFFFFFF DUP2 GT ISZERO PUSH2 0x6444 JUMPI PUSH2 0x6443 PUSH2 0x5B4F JUMP JUMPDEST JUMPDEST PUSH2 0x6450 DUP5 DUP3 DUP6 ADD PUSH2 0x6098 JUMP JUMPDEST SWAP2 POP POP SWAP3 SWAP2 POP POP JUMP JUMPDEST PUSH2 0x6462 DUP2 PUSH2 0x5C08 JUMP JUMPDEST DUP2 EQ PUSH2 0x646D JUMPI PUSH1 0x0 DUP1 REVERT JUMPDEST POP JUMP JUMPDEST PUSH1 0x0 DUP2 CALLDATALOAD SWAP1 POP PUSH2 0x647F DUP2 PUSH2 0x6459 JUMP JUMPDEST SWAP3 SWAP2 POP POP JUMP JUMPDEST PUSH1 0x0 DUP1 PUSH1 0x0 PUSH1 0x40 DUP5 DUP7 SUB SLT ISZERO PUSH2 0x649E JUMPI PUSH2 0x649D PUSH2 0x5B4A JUMP JUMPDEST JUMPDEST PUSH1 0x0 DUP5 ADD CALLDATALOAD PUSH8 0xFFFFFFFFFFFFFFFF DUP2 GT ISZERO PUSH2 0x64BC JUMPI PUSH2 0x64BB PUSH2 0x5B4F JUMP JUMPDEST JUMPDEST PUSH2 0x64C8 DUP7 DUP3 DUP8 ADD PUSH2 0x5CFA JUMP JUMPDEST SWAP4 POP SWAP4 POP POP PUSH1 0x20 PUSH2 0x64DB DUP7 DUP3 DUP8 ADD PUSH2 0x6470 JUMP JUMPDEST SWAP2 POP POP SWAP3 POP SWAP3 POP SWAP3 JUMP JUMPDEST PUSH1 0x0 DUP1 PUSH1 0x40 DUP4 DUP6 SUB SLT ISZERO PUSH2 0x64FC JUMPI PUSH2 0x64FB PUSH2 0x5B4A JUMP JUMPDEST JUMPDEST PUSH1 0x0 PUSH2 0x650A DUP6 DUP3 DUP7 ADD PUSH2 0x5B7D JUMP JUMPDEST SWAP3 POP POP PUSH1 0x20 PUSH2 0x651B DUP6 DUP3 DUP7 ADD PUSH2 0x5B7D JUMP JUMPDEST SWAP2 POP POP SWAP3 POP SWAP3 SWAP1 POP JUMP JUMPDEST PUSH1 0x0 PUSH1 0x80 DUP3 DUP5 SUB SLT ISZERO PUSH2 0x653B JUMPI PUSH2 0x653A PUSH2 0x614F JUMP JUMPDEST JUMPDEST PUSH2 0x6545 PUSH1 0x80 PUSH2 0x5FFB JUMP JUMPDEST SWAP1 POP PUSH1 0x0 PUSH2 0x6555 DUP5 DUP3 DUP6 ADD PUSH2 0x5BB3 JUMP JUMPDEST PUSH1 0x0 DUP4 ADD MSTORE POP PUSH1 0x20 PUSH2 0x6569 DUP5 DUP3 DUP6 ADD PUSH2 0x5BB3 JUMP JUMPDEST PUSH1 0x20 DUP4 ADD MSTORE POP PUSH1 0x40 PUSH2 0x657D DUP5 DUP3 DUP6 ADD PUSH2 0x5BB3 JUMP JUMPDEST PUSH1 0x40 DUP4 ADD MSTORE POP PUSH1 0x60 PUSH2 0x6591 DUP5 DUP3 DUP6 ADD PUSH2 0x6175 JUMP JUMPDEST PUSH1 0x60 DUP4 ADD MSTORE POP SWAP3 SWAP2 POP POP JUMP JUMPDEST PUSH1 0x0 DUP1 PUSH1 0xA0 DUP4 DUP6 SUB SLT ISZERO PUSH2 0x65B4 JUMPI PUSH2 0x65B3 PUSH2 0x5B4A JUMP JUMPDEST JUMPDEST PUSH1 0x0 PUSH2 0x65C2 DUP6 DUP3 DUP7 ADD PUSH2 0x6525 JUMP JUMPDEST SWAP3 POP POP PUSH1 0x80 DUP4 ADD CALLDATALOAD PUSH8 0xFFFFFFFFFFFFFFFF DUP2 GT ISZERO PUSH2 0x65E3 JUMPI PUSH2 0x65E2 PUSH2 0x5B4F JUMP JUMPDEST JUMPDEST PUSH2 0x65EF DUP6 DUP3 DUP7 ADD PUSH2 0x6098 JUMP JUMPDEST SWAP2 POP POP SWAP3 POP SWAP3 SWAP1 POP JUMP JUMPDEST PUSH32 0x4E487B7100000000000000000000000000000000000000000000000000000000 PUSH1 0x0 MSTORE PUSH1 0x22 PUSH1 0x4 MSTORE PUSH1 0x24 PUSH1 0x0 REVERT JUMPDEST PUSH1 0x0 PUSH1 0x2 DUP3 DIV SWAP1 POP PUSH1 0x1 DUP3 AND DUP1 PUSH2 0x6640 JUMPI PUSH1 0x7F DUP3 AND SWAP2 POP JUMPDEST PUSH1 0x20 DUP3 LT DUP2 SUB PUSH2 0x6653 JUMPI PUSH2 0x6652 PUSH2 0x65F9 JUMP JUMPDEST JUMPDEST POP SWAP2 SWAP1 POP JUMP JUMPDEST PUSH32 0x4E487B7100000000000000000000000000000000000000000000000000000000 PUSH1 0x0 MSTORE PUSH1 0x11 PUSH1 0x4 MSTORE PUSH1 0x24 PUSH1 0x0 REVERT JUMPDEST PUSH1 0x0 PUSH2 0x6693 DUP3 PUSH2 0x5B92 JUMP JUMPDEST SWAP2 POP PUSH2 0x669E DUP4 PUSH2 0x5B92 JUMP JUMPDEST SWAP3 POP DUP3 DUP3 ADD SWAP1 POP DUP1 DUP3 GT ISZERO PUSH2 0x66B6 JUMPI PUSH2 0x66B5 PUSH2 0x6659 JUMP JUMPDEST JUMPDEST SWAP3 SWAP2 POP POP JUMP JUMPDEST PUSH32 0x4E696F7A45524332303A2054696D65206973206E6F7420757000000000000000 PUSH1 0x0 DUP3 ADD MSTORE POP JUMP JUMPDEST PUSH1 0x0 PUSH2 0x66F2 PUSH1 0x19 DUP4 PUSH2 0x5A99 JUMP JUMPDEST SWAP2 POP PUSH2 0x66FD DUP3 PUSH2 0x66BC JUMP JUMPDEST PUSH1 0x20 DUP3 ADD SWAP1 POP SWAP2 SWAP1 POP JUMP JUMPDEST PUSH1 0x0 PUSH1 0x20 DUP3 ADD SWAP1 POP DUP2 DUP2 SUB PUSH1 0x0 DUP4 ADD MSTORE PUSH2 0x6721 DUP2 PUSH2 0x66E5 JUMP JUMPDEST SWAP1 POP SWAP2 SWAP1 POP JUMP JUMPDEST PUSH1 0x0 PUSH1 0x60 DUP3 ADD SWAP1 POP PUSH2 0x673D PUSH1 0x0 DUP4 ADD DUP7 PUSH2 0x5E8C JUMP JUMPDEST PUSH2 0x674A PUSH1 0x20 DUP4 ADD DUP6 PUSH2 0x5C6B JUMP JUMPDEST PUSH2 0x6757 PUSH1 0x40 DUP4 ADD DUP5 PUSH2 0x5C6B JUMP JUMPDEST SWAP5 SWAP4 POP POP POP POP JUMP JUMPDEST PUSH32 0x4E487B7100000000000000000000000000000000000000000000000000000000 PUSH1 0x0 MSTORE PUSH1 0x32 PUSH1 0x4 MSTORE PUSH1 0x24 PUSH1 0x0 REVERT JUMPDEST PUSH1 0x0 PUSH2 0x6799 DUP3 PUSH2 0x5B92 JUMP JUMPDEST SWAP2 POP PUSH32 0xFFFFFFFFFFFFFFFFFFFFFFFFFFFFFFFFFFFFFFFFFFFFFFFFFFFFFFFFFFFFFFFF DUP3 SUB PUSH2 0x67CB JUMPI PUSH2 0x67CA PUSH2 0x6659 JUMP JUMPDEST JUMPDEST PUSH1 0x1 DUP3 ADD SWAP1 POP SWAP2 SWAP1 POP JUMP JUMPDEST PUSH1 0x0 DUP2 MLOAD SWAP1 POP SWAP2 SWAP1 POP JUMP JUMPDEST PUSH1 0x0 DUP2 SWAP1 POP SWAP3 SWAP2 POP POP JUMP JUMPDEST PUSH1 0x0 PUSH2 0x67F7 DUP3 PUSH2 0x67D6 JUMP JUMPDEST PUSH2 0x6801 DUP2 DUP6 PUSH2 0x67E1 JUMP JUMPDEST SWAP4 POP PUSH2 0x6811 DUP2 DUP6 PUSH1 0x20 DUP7 ADD PUSH2 0x5AAA JUMP JUMPDEST DUP1 DUP5 ADD SWAP2 POP POP SWAP3 SWAP2 POP POP JUMP JUMPDEST PUSH1 0x0 PUSH2 0x6829 DUP3 DUP5 PUSH2 0x67EC JUMP JUMPDEST SWAP2 POP DUP2 SWAP1 POP SWAP3 SWAP2 POP POP JUMP JUMPDEST PUSH1 0x0 DUP3 DUP3 MSTORE PUSH1 0x20 DUP3 ADD SWAP1 POP SWAP3 SWAP2 POP POP JUMP JUMPDEST PUSH1 0x0 PUSH2 0x6850 DUP3 PUSH2 0x67D6 JUMP JUMPDEST PUSH2 0x685A DUP2 DUP6 PUSH2 0x6834 JUMP JUMPDEST SWAP4 POP PUSH2 0x686A DUP2 DUP6 PUSH1 0x20 DUP7 ADD PUSH2 0x5AAA JUMP JUMPDEST PUSH2 0x6873 DUP2 PUSH2 0x5AD4 JUMP JUMPDEST DUP5 ADD SWAP2 POP POP SWAP3 SWAP2 POP POP JUMP JUMPDEST PUSH1 0x0 PUSH1 0x20 DUP3 ADD SWAP1 POP DUP2 DUP2 SUB PUSH1 0x0 DUP4 ADD MSTORE PUSH2 0x6898 DUP2 DUP5 PUSH2 0x6845 JUMP JUMPDEST SWAP1 POP SWAP3 SWAP2 POP POP JUMP JUMPDEST PUSH1 0x0 DUP2 MLOAD SWAP1 POP PUSH2 0x68AF DUP2 PUSH2 0x6459 JUMP JUMPDEST SWAP3 SWAP2 POP POP JUMP JUMPDEST PUSH1 0x0 PUSH1 0x20 DUP3 DUP5 SUB SLT ISZERO PUSH2 0x68CB JUMPI PUSH2 0x68CA PUSH2 0x5B4A JUMP JUMPDEST JUMPDEST PUSH1 0x0 PUSH2 0x68D9 DUP5 DUP3 DUP6 ADD PUSH2 0x68A0 JUMP JUMPDEST SWAP2 POP POP SWAP3 SWAP2 POP POP JUMP JUMPDEST PUSH32 0x4E696F7A45524332303A204E6F7420616C6C6F77656400000000000000000000 PUSH1 0x0 DUP3 ADD MSTORE POP JUMP JUMPDEST PUSH1 0x0 PUSH2 0x6918 PUSH1 0x16 DUP4 PUSH2 0x5A99 JUMP JUMPDEST SWAP2 POP PUSH2 0x6923 DUP3 PUSH2 0x68E2 JUMP JUMPDEST PUSH1 0x20 DUP3 ADD SWAP1 POP SWAP2 SWAP1 POP JUMP JUMPDEST PUSH1 0x0 PUSH1 0x20 DUP3 ADD SWAP1 POP DUP2 DUP2 SUB PUSH1 0x0 DUP4 ADD MSTORE PUSH2 0x6947 DUP2 PUSH2 0x690B JUMP JUMPDEST SWAP1 POP SWAP2 SWAP1 POP JUMP JUMPDEST PUSH32 0x4E696F7A45524332303A20416D6F756E74206973207A65726F00000000000000 PUSH1 0x0 DUP3 ADD MSTORE POP JUMP JUMPDEST PUSH1 0x0 PUSH2 0x6984 PUSH1 0x19 DUP4 PUSH2 0x5A99 JUMP JUMPDEST SWAP2 POP PUSH2 0x698F DUP3 PUSH2 0x694E JUMP JUMPDEST PUSH1 0x20 DUP3 ADD SWAP1 POP SWAP2 SWAP1 POP JUMP JUMPDEST PUSH1 0x0 PUSH1 0x20 DUP3 ADD SWAP1 POP DUP2 DUP2 SUB PUSH1 0x0 DUP4 ADD MSTORE PUSH2 0x69B3 DUP2 PUSH2 0x6977 JUMP JUMPDEST SWAP1 POP SWAP2 SWAP1 POP JUMP JUMPDEST PUSH1 0x0 PUSH1 0x40 DUP3 ADD SWAP1 POP PUSH2 0x69CF PUSH1 0x0 DUP4 ADD DUP6 PUSH2 0x5E8C JUMP JUMPDEST PUSH2 0x69DC PUSH1 0x20 DUP4 ADD DUP5 PUSH2 0x5C6B JUMP JUMPDEST SWAP4 SWAP3 POP POP POP JUMP JUMPDEST PUSH32 0x4E696F7A45524332303A20457863656564732062616C616E636520616D6F756E PUSH1 0x0 DUP3 ADD MSTORE PUSH32 0x7400000000000000000000000000000000000000000000000000000000000000 PUSH1 0x20 DUP3 ADD MSTORE POP JUMP JUMPDEST PUSH1 0x0 PUSH2 0x6A3F PUSH1 0x21 DUP4 PUSH2 0x5A99 JUMP JUMPDEST SWAP2 POP PUSH2 0x6A4A DUP3 PUSH2 0x69E3 JUMP JUMPDEST PUSH1 0x40 DUP3 ADD SWAP1 POP SWAP2 SWAP1 POP JUMP JUMPDEST PUSH1 0x0 PUSH1 0x20 DUP3 ADD SWAP1 POP DUP2 DUP2 SUB PUSH1 0x0 DUP4 ADD MSTORE PUSH2 0x6A6E DUP2 PUSH2 0x6A32 JUMP JUMPDEST SWAP1 POP SWAP2 SWAP1 POP JUMP JUMPDEST PUSH32 0x4E696F7A45524332303A20416C726561647920736F6C64000000000000000000 PUSH1 0x0 DUP3 ADD MSTORE POP JUMP JUMPDEST PUSH1 0x0 PUSH2 0x6AAB PUSH1 0x17 DUP4 PUSH2 0x5A99 JUMP JUMPDEST SWAP2 POP PUSH2 0x6AB6 DUP3 PUSH2 0x6A75 JUMP JUMPDEST PUSH1 0x20 DUP3 ADD SWAP1 POP SWAP2 SWAP1 POP JUMP JUMPDEST PUSH1 0x0 PUSH1 0x20 DUP3 ADD SWAP1 POP DUP2 DUP2 SUB PUSH1 0x0 DUP4 ADD MSTORE PUSH2 0x6ADA DUP2 PUSH2 0x6A9E JUMP JUMPDEST SWAP1 POP SWAP2 SWAP1 POP JUMP JUMPDEST PUSH32 0x496E697469616C697A61626C653A20636F6E747261637420697320616C726561 PUSH1 0x0 DUP3 ADD MSTORE PUSH32 0x647920696E697469616C697A6564000000000000000000000000000000000000 PUSH1 0x20 DUP3 ADD MSTORE POP JUMP JUMPDEST PUSH1 0x0 PUSH2 0x6B3D PUSH1 0x2E DUP4 PUSH2 0x5A99 JUMP JUMPDEST SWAP2 POP PUSH2 0x6B48 DUP3 PUSH2 0x6AE1 JUMP JUMPDEST PUSH1 0x40 DUP3 ADD SWAP1 POP SWAP2 SWAP1 POP JUMP JUMPDEST PUSH1 0x0 PUSH1 0x20 DUP3 ADD SWAP1 POP DUP2 DUP2 SUB PUSH1 0x0 DUP4 ADD MSTORE PUSH2 0x6B6C DUP2 PUSH2 0x6B30 JUMP JUMPDEST SWAP1 POP SWAP2 SWAP1 POP JUMP JUMPDEST PUSH1 0x0 DUP2 SWAP1 POP SWAP2 SWAP1 POP JUMP JUMPDEST PUSH1 0x0 PUSH2 0x6B98 PUSH2 0x6B93 PUSH2 0x6B8E DUP5 PUSH2 0x6B73 JUMP JUMPDEST PUSH2 0x5A14 JUMP JUMPDEST PUSH2 0x5EEE JUMP JUMPDEST SWAP1 POP SWAP2 SWAP1 POP JUMP JUMPDEST PUSH2 0x6BA8 DUP2 PUSH2 0x6B7D JUMP JUMPDEST DUP3 MSTORE POP POP JUMP JUMPDEST PUSH1 0x0 PUSH1 0x20 DUP3 ADD SWAP1 POP PUSH2 0x6BC3 PUSH1 0x0 DUP4 ADD DUP5 PUSH2 0x6B9F JUMP JUMPDEST SWAP3 SWAP2 POP POP JUMP JUMPDEST PUSH1 0x0 DUP2 MLOAD SWAP1 POP PUSH2 0x6BD8 DUP2 PUSH2 0x5B9C JUMP JUMPDEST SWAP3 SWAP2 POP POP JUMP JUMPDEST PUSH1 0x0 PUSH1 0x20 DUP3 DUP5 SUB SLT ISZERO PUSH2 0x6BF4 JUMPI PUSH2 0x6BF3 PUSH2 0x5B4A JUMP JUMPDEST JUMPDEST PUSH1 0x0 PUSH2 0x6C02 DUP5 DUP3 DUP6 ADD PUSH2 0x6BC9 JUMP JUMPDEST SWAP2 POP POP SWAP3 SWAP2 POP POP JUMP JUMPDEST PUSH1 0x0 PUSH2 0x6C16 DUP3 PUSH2 0x5B92 JUMP JUMPDEST SWAP2 POP PUSH2 0x6C21 DUP4 PUSH2 0x5B92 JUMP JUMPDEST SWAP3 POP DUP3 DUP3 SUB SWAP1 POP DUP2 DUP2 GT ISZERO PUSH2 0x6C39 JUMPI PUSH2 0x6C38 PUSH2 0x6659 JUMP JUMPDEST JUMPDEST SWAP3 SWAP2 POP POP JUMP JUMPDEST PUSH1 0x0 PUSH2 0x6C4A DUP3 PUSH2 0x5B92 JUMP JUMPDEST SWAP2 POP PUSH2 0x6C55 DUP4 PUSH2 0x5B92 JUMP JUMPDEST SWAP3 POP DUP2 PUSH32 0xFFFFFFFFFFFFFFFFFFFFFFFFFFFFFFFFFFFFFFFFFFFFFFFFFFFFFFFFFFFFFFFF DIV DUP4 GT DUP3 ISZERO ISZERO AND ISZERO PUSH2 0x6C8E JUMPI PUSH2 0x6C8D PUSH2 0x6659 JUMP JUMPDEST JUMPDEST DUP3 DUP3 MUL SWAP1 POP SWAP3 SWAP2 POP POP JUMP JUMPDEST PUSH32 0x4E487B7100000000000000000000000000000000000000000000000000000000 PUSH1 0x0 MSTORE PUSH1 0x12 PUSH1 0x4 MSTORE PUSH1 0x24 PUSH1 0x0 REVERT JUMPDEST PUSH1 0x0 PUSH2 0x6CD3 DUP3 PUSH2 0x5B92 JUMP JUMPDEST SWAP2 POP PUSH2 0x6CDE DUP4 PUSH2 0x5B92 JUMP JUMPDEST SWAP3 POP DUP3 PUSH2 0x6CEE JUMPI PUSH2 0x6CED PUSH2 0x6C99 JUMP JUMPDEST JUMPDEST DUP3 DUP3 DIV SWAP1 POP SWAP3 SWAP2 POP POP JUMP JUMPDEST PUSH2 0x6D02 DUP2 PUSH2 0x6154 JUMP JUMPDEST DUP3 MSTORE POP POP JUMP JUMPDEST PUSH1 0x0 PUSH1 0x80 DUP3 ADD SWAP1 POP PUSH2 0x6D1D PUSH1 0x0 DUP4 ADD DUP8 PUSH2 0x6CF9 JUMP JUMPDEST PUSH2 0x6D2A PUSH1 0x20 DUP4 ADD DUP7 PUSH2 0x5EFB JUMP JUMPDEST PUSH2 0x6D37 PUSH1 0x40 DUP4 ADD DUP6 PUSH2 0x6CF9 JUMP JUMPDEST PUSH2 0x6D44 PUSH1 0x60 DUP4 ADD DUP5 PUSH2 0x6CF9 JUMP JUMPDEST SWAP6 SWAP5 POP POP POP POP POP JUMP JUMPDEST PUSH32 0x45524332303A2064656372656173656420616C6C6F77616E63652062656C6F77 PUSH1 0x0 DUP3 ADD MSTORE PUSH32 0x207A65726F000000000000000000000000000000000000000000000000000000 PUSH1 0x20 DUP3 ADD MSTORE POP JUMP JUMPDEST PUSH1 0x0 PUSH2 0x6DA9 PUSH1 0x25 DUP4 PUSH2 0x5A99 JUMP JUMPDEST SWAP2 POP PUSH2 0x6DB4 DUP3 PUSH2 0x6D4D JUMP JUMPDEST PUSH1 0x40 DUP3 ADD SWAP1 POP SWAP2 SWAP1 POP JUMP JUMPDEST PUSH1 0x0 PUSH1 0x20 DUP3 ADD SWAP1 POP DUP2 DUP2 SUB PUSH1 0x0 DUP4 ADD MSTORE PUSH2 0x6DD8 DUP2 PUSH2 0x6D9C JUMP JUMPDEST SWAP1 POP SWAP2 SWAP1 POP JUMP JUMPDEST PUSH1 0x0 DUP2 MLOAD SWAP1 POP PUSH2 0x6DEE DUP2 PUSH2 0x5B66 JUMP JUMPDEST SWAP3 SWAP2 POP POP JUMP JUMPDEST PUSH1 0x0 PUSH1 0x20 DUP3 DUP5 SUB SLT ISZERO PUSH2 0x6E0A JUMPI PUSH2 0x6E09 PUSH2 0x5B4A JUMP JUMPDEST JUMPDEST PUSH1 0x0 PUSH2 0x6E18 DUP5 DUP3 DUP6 ADD PUSH2 0x6DDF JUMP JUMPDEST SWAP2 POP POP SWAP3 SWAP2 POP POP JUMP JUMPDEST PUSH32 0x4E696F7A45524332303A204E6F7420616E206F776E6572000000000000000000 PUSH1 0x0 DUP3 ADD MSTORE POP JUMP JUMPDEST PUSH1 0x0 PUSH2 0x6E57 PUSH1 0x17 DUP4 PUSH2 0x5A99 JUMP JUMPDEST SWAP2 POP PUSH2 0x6E62 DUP3 PUSH2 0x6E21 JUMP JUMPDEST PUSH1 0x20 DUP3 ADD SWAP1 POP SWAP2 SWAP1 POP JUMP JUMPDEST PUSH1 0x0 PUSH1 0x20 DUP3 ADD SWAP1 POP DUP2 DUP2 SUB PUSH1 0x0 DUP4 ADD MSTORE PUSH2 0x6E86 DUP2 PUSH2 0x6E4A JUMP JUMPDEST SWAP1 POP SWAP2 SWAP1 POP JUMP JUMPDEST PUSH32 0x4E696F7A45524332303A204E6F742061206F776E657200000000000000000000 PUSH1 0x0 DUP3 ADD MSTORE POP JUMP JUMPDEST PUSH1 0x0 PUSH2 0x6EC3 PUSH1 0x16 DUP4 PUSH2 0x5A99 JUMP JUMPDEST SWAP2 POP PUSH2 0x6ECE DUP3 PUSH2 0x6E8D JUMP JUMPDEST PUSH1 0x20 DUP3 ADD SWAP1 POP SWAP2 SWAP1 POP JUMP JUMPDEST PUSH1 0x0 PUSH1 0x20 DUP3 ADD SWAP1 POP DUP2 DUP2 SUB PUSH1 0x0 DUP4 ADD MSTORE PUSH2 0x6EF2 DUP2 PUSH2 0x6EB6 JUMP JUMPDEST SWAP1 POP SWAP2 SWAP1 POP JUMP JUMPDEST PUSH32 0x4F776E61626C653A206E6577206F776E657220697320746865207A65726F2061 PUSH1 0x0 DUP3 ADD MSTORE PUSH32 0x6464726573730000000000000000000000000000000000000000000000000000 PUSH1 0x20 DUP3 ADD MSTORE POP JUMP JUMPDEST PUSH1 0x0 PUSH2 0x6F55 PUSH1 0x26 DUP4 PUSH2 0x5A99 JUMP JUMPDEST SWAP2 POP PUSH2 0x6F60 DUP3 PUSH2 0x6EF9 JUMP JUMPDEST PUSH1 0x40 DUP3 ADD SWAP1 POP SWAP2 SWAP1 POP JUMP JUMPDEST PUSH1 0x0 PUSH1 0x20 DUP3 ADD SWAP1 POP DUP2 DUP2 SUB PUSH1 0x0 DUP4 ADD MSTORE PUSH2 0x6F84 DUP2 PUSH2 0x6F48 JUMP JUMPDEST SWAP1 POP SWAP2 SWAP1 POP JUMP JUMPDEST PUSH32 0x45524332303A20617070726F76652066726F6D20746865207A65726F20616464 PUSH1 0x0 DUP3 ADD MSTORE PUSH32 0x7265737300000000000000000000000000000000000000000000000000000000 PUSH1 0x20 DUP3 ADD MSTORE POP JUMP JUMPDEST PUSH1 0x0 PUSH2 0x6FE7 PUSH1 0x24 DUP4 PUSH2 0x5A99 JUMP JUMPDEST SWAP2 POP PUSH2 0x6FF2 DUP3 PUSH2 0x6F8B JUMP JUMPDEST PUSH1 0x40 DUP3 ADD SWAP1 POP SWAP2 SWAP1 POP JUMP JUMPDEST PUSH1 0x0 PUSH1 0x20 DUP3 ADD SWAP1 POP DUP2 DUP2 SUB PUSH1 0x0 DUP4 ADD MSTORE PUSH2 0x7016 DUP2 PUSH2 0x6FDA JUMP JUMPDEST SWAP1 POP SWAP2 SWAP1 POP JUMP JUMPDEST PUSH32 0x45524332303A20617070726F766520746F20746865207A65726F206164647265 PUSH1 0x0 DUP3 ADD MSTORE PUSH32 0x7373000000000000000000000000000000000000000000000000000000000000 PUSH1 0x20 DUP3 ADD MSTORE POP JUMP JUMPDEST PUSH1 0x0 PUSH2 0x7079 PUSH1 0x22 DUP4 PUSH2 0x5A99 JUMP JUMPDEST SWAP2 POP PUSH2 0x7084 DUP3 PUSH2 0x701D JUMP JUMPDEST PUSH1 0x40 DUP3 ADD SWAP1 POP SWAP2 SWAP1 POP JUMP JUMPDEST PUSH1 0x0 PUSH1 0x20 DUP3 ADD SWAP1 POP DUP2 DUP2 SUB PUSH1 0x0 DUP4 ADD MSTORE PUSH2 0x70A8 DUP2 PUSH2 0x706C JUMP JUMPDEST SWAP1 POP SWAP2 SWAP1 POP JUMP JUMPDEST PUSH32 0x4F776E61626C653A2063616C6C6572206973206E6F7420746865206F776E6572 PUSH1 0x0 DUP3 ADD MSTORE POP JUMP JUMPDEST PUSH1 0x0 PUSH2 0x70E5 PUSH1 0x20 DUP4 PUSH2 0x5A99 JUMP JUMPDEST SWAP2 POP PUSH2 0x70F0 DUP3 PUSH2 0x70AF JUMP JUMPDEST PUSH1 0x20 DUP3 ADD SWAP1 POP SWAP2 SWAP1 POP JUMP JUMPDEST PUSH1 0x0 PUSH1 0x20 DUP3 ADD SWAP1 POP DUP2 DUP2 SUB PUSH1 0x0 DUP4 ADD MSTORE PUSH2 0x7114 DUP2 PUSH2 0x70D8 JUMP JUMPDEST SWAP1 POP SWAP2 SWAP1 POP JUMP JUMPDEST PUSH32 0x45524332303A206D696E7420746F20746865207A65726F206164647265737300 PUSH1 0x0 DUP3 ADD MSTORE POP JUMP JUMPDEST PUSH1 0x0 PUSH2 0x7151 PUSH1 0x1F DUP4 PUSH2 0x5A99 JUMP JUMPDEST SWAP2 POP PUSH2 0x715C DUP3 PUSH2 0x711B JUMP JUMPDEST PUSH1 0x20 DUP3 ADD SWAP1 POP SWAP2 SWAP1 POP JUMP JUMPDEST PUSH1 0x0 PUSH1 0x20 DUP3 ADD SWAP1 POP DUP2 DUP2 SUB PUSH1 0x0 DUP4 ADD MSTORE PUSH2 0x7180 DUP2 PUSH2 0x7144 JUMP JUMPDEST SWAP1 POP SWAP2 SWAP1 POP JUMP JUMPDEST PUSH32 0x45524332303A20696E73756666696369656E7420616C6C6F77616E6365000000 PUSH1 0x0 DUP3 ADD MSTORE POP JUMP JUMPDEST PUSH1 0x0 PUSH2 0x71BD PUSH1 0x1D DUP4 PUSH2 0x5A99 JUMP JUMPDEST SWAP2 POP PUSH2 0x71C8 DUP3 PUSH2 0x7187 JUMP JUMPDEST PUSH1 0x20 DUP3 ADD SWAP1 POP SWAP2 SWAP1 POP JUMP JUMPDEST PUSH1 0x0 PUSH1 0x20 DUP3 ADD SWAP1 POP DUP2 DUP2 SUB PUSH1 0x0 DUP4 ADD MSTORE PUSH2 0x71EC DUP2 PUSH2 0x71B0 JUMP JUMPDEST SWAP1 POP SWAP2 SWAP1 POP JUMP JUMPDEST PUSH32 0x45524332303A207472616E736665722066726F6D20746865207A65726F206164 PUSH1 0x0 DUP3 ADD MSTORE PUSH32 0x6472657373000000000000000000000000000000000000000000000000000000 PUSH1 0x20 DUP3 ADD MSTORE POP JUMP JUMPDEST PUSH1 0x0 PUSH2 0x724F PUSH1 0x25 DUP4 PUSH2 0x5A99 JUMP JUMPDEST SWAP2 POP PUSH2 0x725A DUP3 PUSH2 0x71F3 JUMP JUMPDEST PUSH1 0x40 DUP3 ADD SWAP1 POP SWAP2 SWAP1 POP JUMP JUMPDEST PUSH1 0x0 PUSH1 0x20 DUP3 ADD SWAP1 POP DUP2 DUP2 SUB PUSH1 0x0 DUP4 ADD MSTORE PUSH2 0x727E DUP2 PUSH2 0x7242 JUMP JUMPDEST SWAP1 POP SWAP2 SWAP1 POP JUMP JUMPDEST PUSH32 0x45524332303A207472616E7366657220746F20746865207A65726F2061646472 PUSH1 0x0 DUP3 ADD MSTORE PUSH32 0x6573730000000000000000000000000000000000000000000000000000000000 PUSH1 0x20 DUP3 ADD MSTORE POP JUMP JUMPDEST PUSH1 0x0 PUSH2 0x72E1 PUSH1 0x23 DUP4 PUSH2 0x5A99 JUMP JUMPDEST SWAP2 POP PUSH2 0x72EC DUP3 PUSH2 0x7285 JUMP JUMPDEST PUSH1 0x40 DUP3 ADD SWAP1 POP SWAP2 SWAP1 POP JUMP JUMPDEST PUSH1 0x0 PUSH1 0x20 DUP3 ADD SWAP1 POP DUP2 DUP2 SUB PUSH1 0x0 DUP4 ADD MSTORE PUSH2 0x7310 DUP2 PUSH2 0x72D4 JUMP JUMPDEST SWAP1 POP SWAP2 SWAP1 POP JUMP JUMPDEST PUSH32 0x45524332303A207472616E7366657220616D6F756E7420657863656564732062 PUSH1 0x0 DUP3 ADD MSTORE PUSH32 0x616C616E63650000000000000000000000000000000000000000000000000000 PUSH1 0x20 DUP3 ADD MSTORE POP JUMP JUMPDEST PUSH1 0x0 PUSH2 0x7373 PUSH1 0x26 DUP4 PUSH2 0x5A99 JUMP JUMPDEST SWAP2 POP PUSH2 0x737E DUP3 PUSH2 0x7317 JUMP JUMPDEST PUSH1 0x40 DUP3 ADD SWAP1 POP SWAP2 SWAP1 POP JUMP JUMPDEST PUSH1 0x0 PUSH1 0x20 DUP3 ADD SWAP1 POP DUP2 DUP2 SUB PUSH1 0x0 DUP4 ADD MSTORE PUSH2 0x73A2 DUP2 PUSH2 0x7366 JUMP JUMPDEST SWAP1 POP SWAP2 SWAP1 POP JUMP JUMPDEST PUSH32 0x4E487B7100000000000000000000000000000000000000000000000000000000 PUSH1 0x0 MSTORE PUSH1 0x21 PUSH1 0x4 MSTORE PUSH1 0x24 PUSH1 0x0 REVERT JUMPDEST PUSH1 0x0 PUSH1 0x40 DUP3 ADD SWAP1 POP PUSH2 0x73ED PUSH1 0x0 DUP4 ADD DUP6 PUSH2 0x6CF9 JUMP JUMPDEST DUP2 DUP2 SUB PUSH1 0x20 DUP4 ADD MSTORE PUSH2 0x73FF DUP2 DUP5 PUSH2 0x6845 JUMP JUMPDEST SWAP1 POP SWAP4 SWAP3 POP POP POP JUMP JUMPDEST PUSH1 0x0 DUP2 MLOAD SWAP1 POP PUSH2 0x7417 DUP2 PUSH2 0x615E JUMP JUMPDEST SWAP3 SWAP2 POP POP JUMP JUMPDEST PUSH1 0x0 PUSH1 0x20 DUP3 DUP5 SUB SLT ISZERO PUSH2 0x7433 JUMPI PUSH2 0x7432 PUSH2 0x5B4A JUMP JUMPDEST JUMPDEST PUSH1 0x0 PUSH2 0x7441 DUP5 DUP3 DUP6 ADD PUSH2 0x7408 JUMP JUMPDEST SWAP2 POP POP SWAP3 SWAP2 POP POP JUMP JUMPDEST PUSH32 0x45524332303A206275726E2066726F6D20746865207A65726F20616464726573 PUSH1 0x0 DUP3 ADD MSTORE PUSH32 0x7300000000000000000000000000000000000000000000000000000000000000 PUSH1 0x20 DUP3 ADD MSTORE POP JUMP JUMPDEST PUSH1 0x0 PUSH2 0x74A6 PUSH1 0x21 DUP4 PUSH2 0x5A99 JUMP JUMPDEST SWAP2 POP PUSH2 0x74B1 DUP3 PUSH2 0x744A JUMP JUMPDEST PUSH1 0x40 DUP3 ADD SWAP1 POP SWAP2 SWAP1 POP JUMP JUMPDEST PUSH1 0x0 PUSH1 0x20 DUP3 ADD SWAP1 POP DUP2 DUP2 SUB PUSH1 0x0 DUP4 ADD MSTORE PUSH2 0x74D5 DUP2 PUSH2 0x7499 JUMP JUMPDEST SWAP1 POP SWAP2 SWAP1 POP JUMP JUMPDEST PUSH32 0x45524332303A206275726E20616D6F756E7420657863656564732062616C616E PUSH1 0x0 DUP3 ADD MSTORE PUSH32 0x6365000000000000000000000000000000000000000000000000000000000000 PUSH1 0x20 DUP3 ADD MSTORE POP JUMP JUMPDEST PUSH1 0x0 PUSH2 0x7538 PUSH1 0x22 DUP4 PUSH2 0x5A99 JUMP JUMPDEST SWAP2 POP PUSH2 0x7543 DUP3 PUSH2 0x74DC JUMP JUMPDEST PUSH1 0x40 DUP3 ADD SWAP1 POP SWAP2 SWAP1 POP JUMP JUMPDEST PUSH1 0x0 PUSH1 0x20 DUP3 ADD SWAP1 POP DUP2 DUP2 SUB PUSH1 0x0 DUP4 ADD MSTORE PUSH2 0x7567 DUP2 PUSH2 0x752B JUMP JUMPDEST SWAP1 POP SWAP2 SWAP1 POP JUMP JUMPDEST PUSH32 0x496E697469616C697A61626C653A20636F6E7472616374206973206E6F742069 PUSH1 0x0 DUP3 ADD MSTORE PUSH32 0x6E697469616C697A696E67000000000000000000000000000000000000000000 PUSH1 0x20 DUP3 ADD MSTORE POP JUMP JUMPDEST PUSH1 0x0 PUSH2 0x75CA PUSH1 0x2B DUP4 PUSH2 0x5A99 JUMP JUMPDEST SWAP2 POP PUSH2 0x75D5 DUP3 PUSH2 0x756E JUMP JUMPDEST PUSH1 0x40 DUP3 ADD SWAP1 POP SWAP2 SWAP1 POP JUMP JUMPDEST PUSH1 0x0 PUSH1 0x20 DUP3 ADD SWAP1 POP DUP2 DUP2 SUB PUSH1 0x0 DUP4 ADD MSTORE PUSH2 0x75F9 DUP2 PUSH2 0x75BD JUMP JUMPDEST SWAP1 POP SWAP2 SWAP1 POP JUMP JUMPDEST PUSH32 0x45524332303A20426C61636B6C69737465642061646472657373000000000000 PUSH1 0x0 DUP3 ADD MSTORE POP JUMP JUMPDEST PUSH1 0x0 PUSH2 0x7636 PUSH1 0x1A DUP4 PUSH2 0x5A99 JUMP JUMPDEST SWAP2 POP PUSH2 0x7641 DUP3 PUSH2 0x7600 JUMP JUMPDEST PUSH1 0x20 DUP3 ADD SWAP1 POP SWAP2 SWAP1 POP JUMP JUMPDEST PUSH1 0x0 PUSH1 0x20 DUP3 ADD SWAP1 POP DUP2 DUP2 SUB PUSH1 0x0 DUP4 ADD MSTORE PUSH2 0x7665 DUP2 PUSH2 0x7629 JUMP JUMPDEST SWAP1 POP SWAP2 SWAP1 POP JUMP JUMPDEST PUSH1 0x0 DUP2 SWAP1 POP DUP2 PUSH1 0x0 MSTORE PUSH1 0x20 PUSH1 0x0 KECCAK256 SWAP1 POP SWAP2 SWAP1 POP JUMP JUMPDEST PUSH1 0x0 PUSH1 0x20 PUSH1 0x1F DUP4 ADD DIV SWAP1 POP SWAP2 SWAP1 POP JUMP JUMPDEST PUSH1 0x0 DUP3 DUP3 SHL SWAP1 POP SWAP3 SWAP2 POP POP JUMP JUMPDEST PUSH1 0x0 PUSH1 0x8 DUP4 MUL PUSH2 0x76CE PUSH32 0xFFFFFFFFFFFFFFFFFFFFFFFFFFFFFFFFFFFFFFFFFFFFFFFFFFFFFFFFFFFFFFFF DUP3 PUSH2 0x7691 JUMP JUMPDEST PUSH2 0x76D8 DUP7 DUP4 PUSH2 0x7691 JUMP JUMPDEST SWAP6 POP DUP1 NOT DUP5 AND SWAP4 POP DUP1 DUP7 AND DUP5 OR SWAP3 POP POP POP SWAP4 SWAP3 POP POP POP JUMP JUMPDEST PUSH1 0x0 PUSH2 0x770B PUSH2 0x7706 PUSH2 0x7701 DUP5 PUSH2 0x5B92 JUMP JUMPDEST PUSH2 0x5A14 JUMP JUMPDEST PUSH2 0x5B92 JUMP JUMPDEST SWAP1 POP SWAP2 SWAP1 POP JUMP JUMPDEST PUSH1 0x0 DUP2 SWAP1 POP SWAP2 SWAP1 POP JUMP JUMPDEST PUSH2 0x7725 DUP4 PUSH2 0x76F0 JUMP JUMPDEST PUSH2 0x7739 PUSH2 0x7731 DUP3 PUSH2 0x7712 JUMP JUMPDEST DUP5 DUP5 SLOAD PUSH2 0x769E JUMP JUMPDEST DUP3 SSTORE POP POP POP POP JUMP JUMPDEST PUSH1 0x0 SWAP1 JUMP JUMPDEST PUSH2 0x774E PUSH2 0x7741 JUMP JUMPDEST PUSH2 0x7759 DUP2 DUP5 DUP5 PUSH2 0x771C JUMP JUMPDEST POP POP POP JUMP JUMPDEST JUMPDEST DUP2 DUP2 LT ISZERO PUSH2 0x777D JUMPI PUSH2 0x7772 PUSH1 0x0 DUP3 PUSH2 0x7746 JUMP JUMPDEST PUSH1 0x1 DUP2 ADD SWAP1 POP PUSH2 0x775F JUMP JUMPDEST POP POP JUMP JUMPDEST PUSH1 0x1F DUP3 GT ISZERO PUSH2 0x77C2 JUMPI PUSH2 0x7793 DUP2 PUSH2 0x766C JUMP JUMPDEST PUSH2 0x779C DUP5 PUSH2 0x7681 JUMP JUMPDEST DUP2 ADD PUSH1 0x20 DUP6 LT ISZERO PUSH2 0x77AB JUMPI DUP2 SWAP1 POP JUMPDEST PUSH2 0x77BF PUSH2 0x77B7 DUP6 PUSH2 0x7681 JUMP JUMPDEST DUP4 ADD DUP3 PUSH2 0x775E JUMP JUMPDEST POP POP JUMPDEST POP POP POP JUMP JUMPDEST PUSH1 0x0 DUP3 DUP3 SHR SWAP1 POP SWAP3 SWAP2 POP POP JUMP JUMPDEST PUSH1 0x0 PUSH2 0x77E5 PUSH1 0x0 NOT DUP5 PUSH1 0x8 MUL PUSH2 0x77C7 JUMP JUMPDEST NOT DUP1 DUP4 AND SWAP2 POP POP SWAP3 SWAP2 POP POP JUMP JUMPDEST PUSH1 0x0 PUSH2 0x77FE DUP4 DUP4 PUSH2 0x77D4 JUMP JUMPDEST SWAP2 POP DUP3 PUSH1 0x2 MUL DUP3 OR SWAP1 POP SWAP3 SWAP2 POP POP JUMP JUMPDEST PUSH2 0x7817 DUP3 PUSH2 0x5A8E JUMP JUMPDEST PUSH8 0xFFFFFFFFFFFFFFFF DUP2 GT ISZERO PUSH2 0x7830 JUMPI PUSH2 0x782F PUSH2 0x5F9B JUMP JUMPDEST JUMPDEST PUSH2 0x783A DUP3 SLOAD PUSH2 0x6628 JUMP JUMPDEST PUSH2 0x7845 DUP3 DUP3 DUP6 PUSH2 0x7781 JUMP JUMPDEST PUSH1 0x0 PUSH1 0x20 SWAP1 POP PUSH1 0x1F DUP4 GT PUSH1 0x1 DUP2 EQ PUSH2 0x7878 JUMPI PUSH1 0x0 DUP5 ISZERO PUSH2 0x7866 JUMPI DUP3 DUP8 ADD MLOAD SWAP1 POP JUMPDEST PUSH2 0x7870 DUP6 DUP3 PUSH2 0x77F2 JUMP JUMPDEST DUP7 SSTORE POP PUSH2 0x78D8 JUMP JUMPDEST PUSH1 0x1F NOT DUP5 AND PUSH2 0x7886 DUP7 PUSH2 0x766C JUMP JUMPDEST PUSH1 0x0 JUMPDEST DUP3 DUP2 LT ISZERO PUSH2 0x78AE JUMPI DUP5 DUP10 ADD MLOAD DUP3 SSTORE PUSH1 0x1 DUP3 ADD SWAP2 POP PUSH1 0x20 DUP6 ADD SWAP5 POP PUSH1 0x20 DUP2 ADD SWAP1 POP PUSH2 0x7889 JUMP JUMPDEST DUP7 DUP4 LT ISZERO PUSH2 0x78CB JUMPI DUP5 DUP10 ADD MLOAD PUSH2 0x78C7 PUSH1 0x1F DUP10 AND DUP3 PUSH2 0x77D4 JUMP JUMPDEST DUP4 SSTORE POP JUMPDEST PUSH1 0x1 PUSH1 0x2 DUP9 MUL ADD DUP9 SSTORE POP POP POP JUMPDEST POP POP POP POP POP POP JUMP INVALID LOG2 PUSH5 0x6970667358 0x22 SLT KECCAK256 DUP14 0xEB 0xF7 0xE6 0x5D SGT 0x2B PUSH2 0x6EC9 0xAA 0x4A GASLIMIT SWAP7 0x5D 0xC7 0x4D 0x5E PUSH18 0x6144D0CEFAA5EDD226CBEDAE1564736F6C63 NUMBER STOP ADDMOD LT STOP CALLER "},"methodIdentifiers":{"ARFtokenAddress()":"04a4362e","ConstructTokenAddress()":"35643681","ERC721TokenAddress()":"1d3a78be","MaxSupply()":"b36c1284","MerchantWallet()":"7dd12d15","MintData(uint256)":"2e84ee74","allowance(address,address)":"dd62ed3e","approve(address,uint256)":"095ea7b3","balanceOf(address)":"70a08231","blacklist(address[],bool)":"c997eb8d","blacklistAddresses(address)":"8e77fe2f","burnTokens(uint256)":"6d1b229d","burnTokensAuth(address,uint256)":"3e0bb0ae","claim((uint256,bytes32),bytes)":"3d5afa16","decimals()":"313ce567","decreaseAllowance(address,uint256)":"a457c2d7","increaseAllowance(address,uint256)":"39509351","initialize()":"8129fc1c","isUnProcessedPartSold(uint256)":"f76b09e9","isVerified(bytes)":"c9941806","mint(address,uint256)":"40c10f19","mintWeeklyTokens(uint256)":"0c3a1e40","name()":"06fdde03","owner()":"8da5cb5b","pairAddress()":"a8b08982","recoverSigner(bytes32,bytes)":"97aba7f9","refurbished((uint256,uint256,uint256,bytes32),bytes)":"f15b40ef","renounceOwnership()":"715018a6","safeTransfer(address,address,uint256)":"d1660f99","sellUnprocessedPart((uint256,uint256,bytes32),bytes)":"76d40744","stake(uint256,uint256,uint256)":"a638f2e2","stakeInFoundary(uint256)":"58ed8061","symbol()":"95d89b41","tokenPrice()":"7ff9b596","totalSupply()":"18160ddd","transfer(address,uint256)":"a9059cbb","transferFrom(address,address,uint256)":"23b872dd","transferOwnership(address)":"f2fde38b","updateAddresses(address,address,address,address,address)":"790d1d45","updateMintData(uint256[],address[],uint256[],uint256[])":"1a74af29","updatePlatformWallets(address[])":"36b15e9c","viewSharePercent(address)":"9382226c"}},"storageLayout":{"storage":[{"astId":152,"contract":"contracts/NIOZ/NiozERC20V2.sol:NiozERC20V2","label":"_initialized","offset":0,"slot":"0","type":"t_uint8"},{"astId":155,"contract":"contracts/NIOZ/NiozERC20V2.sol:NiozERC20V2","label":"_initializing","offset":1,"slot":"0","type":"t_bool"},{"astId":815,"contract":"contracts/NIOZ/NiozERC20V2.sol:NiozERC20V2","label":"__gap","offset":0,"slot":"1","type":"t_array(t_uint256)50_storage"},{"astId":2403,"contract":"contracts/NIOZ/NiozERC20V2.sol:NiozERC20V2","label":"_balances","offset":0,"slot":"51","type":"t_mapping(t_address,t_uint256)"},{"astId":2409,"contract":"contracts/NIOZ/NiozERC20V2.sol:NiozERC20V2","label":"_allowances","offset":0,"slot":"52","type":"t_mapping(t_address,t_mapping(t_address,t_uint256))"},{"astId":2411,"contract":"contracts/NIOZ/NiozERC20V2.sol:NiozERC20V2","label":"_totalSupply","offset":0,"slot":"53","type":"t_uint256"},{"astId":2413,"contract":"contracts/NIOZ/NiozERC20V2.sol:NiozERC20V2","label":"_name","offset":0,"slot":"54","type":"t_string_storage"},{"astId":2415,"contract":"contracts/NIOZ/NiozERC20V2.sol:NiozERC20V2","label":"_symbol","offset":0,"slot":"55","type":"t_string_storage"},{"astId":2419,"contract":"contracts/NIOZ/NiozERC20V2.sol:NiozERC20V2","label":"blacklistAddresses","offset":0,"slot":"56","type":"t_mapping(t_address,t_bool)"},{"astId":3654,"contract":"contracts/NIOZ/NiozERC20V2.sol:NiozERC20V2","label":"__gap","offset":0,"slot":"57","type":"t_array(t_uint256)45_storage"},{"astId":10,"contract":"contracts/NIOZ/NiozERC20V2.sol:NiozERC20V2","label":"_owner","offset":0,"slot":"102","type":"t_address"},{"astId":130,"contract":"contracts/NIOZ/NiozERC20V2.sol:NiozERC20V2","label":"__gap","offset":0,"slot":"103","type":"t_array(t_uint256)49_storage"},{"astId":4020,"contract":"contracts/NIOZ/NiozERC20V2.sol:NiozERC20V2","label":"MaxSupply","offset":0,"slot":"152","type":"t_uint256"},{"astId":4022,"contract":"contracts/NIOZ/NiozERC20V2.sol:NiozERC20V2","label":"tokenPrice","offset":0,"slot":"153","type":"t_uint256"},{"astId":4024,"contract":"contracts/NIOZ/NiozERC20V2.sol:NiozERC20V2","label":"MerchantWallet","offset":0,"slot":"154","type":"t_address"},{"astId":4027,"contract":"contracts/NIOZ/NiozERC20V2.sol:NiozERC20V2","label":"ERC721TokenAddress","offset":0,"slot":"155","type":"t_contract(IERC721Upgradeable)3810"},{"astId":4047,"contract":"contracts/NIOZ/NiozERC20V2.sol:NiozERC20V2","label":"isVerified","offset":0,"slot":"156","type":"t_mapping(t_bytes_memory_ptr,t_bool)"},{"astId":4055,"contract":"contracts/NIOZ/NiozERC20V2.sol:NiozERC20V2","label":"pairAddress","offset":0,"slot":"157","type":"t_contract(IERC20Upgradeable)465"},{"astId":4058,"contract":"contracts/NIOZ/NiozERC20V2.sol:NiozERC20V2","label":"platformWalletAddress","offset":0,"slot":"158","type":"t_array(t_address)dyn_storage"},{"astId":4083,"contract":"contracts/NIOZ/NiozERC20V2.sol:NiozERC20V2","label":"MintData","offset":0,"slot":"159","type":"t_mapping(t_uint256,t_struct(MintingData)4078_storage)"},{"astId":4086,"contract":"contracts/NIOZ/NiozERC20V2.sol:NiozERC20V2","label":"ARFtokenAddress","offset":0,"slot":"160","type":"t_contract(IERC721Upgradeable)3810"},{"astId":4090,"contract":"contracts/NIOZ/NiozERC20V2.sol:NiozERC20V2","label":"isUnProcessedPartSold","offset":0,"slot":"161","type":"t_mapping(t_uint256,t_bool)"},{"astId":4093,"contract":"contracts/NIOZ/NiozERC20V2.sol:NiozERC20V2","label":"ConstructTokenAddress","offset":0,"slot":"162","type":"t_contract(IERC721Upgradeable)3810"}],"types":{"t_address":{"encoding":"inplace","label":"address","numberOfBytes":"20"},"t_array(t_address)dyn_storage":{"base":"t_address","encoding":"dynamic_array","label":"address[]","numberOfBytes":"32"},"t_array(t_uint256)45_storage":{"base":"t_uint256","encoding":"inplace","label":"uint256[45]","numberOfBytes":"1440"},"t_array(t_uint256)49_storage":{"base":"t_uint256","encoding":"inplace","label":"uint256[49]","numberOfBytes":"1568"},"t_array(t_uint256)50_storage":{"base":"t_uint256","encoding":"inplace","label":"uint256[50]","numberOfBytes":"1600"},"t_bool":{"encoding":"inplace","label":"bool","numberOfBytes":"1"},"t_bytes_memory_ptr":{"encoding":"bytes","label":"bytes","numberOfBytes":"32"},"t_contract(IERC20Upgradeable)465":{"encoding":"inplace","label":"contract IERC20Upgradeable","numberOfBytes":"20"},"t_contract(IERC721Upgradeable)3810":{"encoding":"inplace","label":"contract IERC721Upgradeable","numberOfBytes":"20"},"t_mapping(t_address,t_bool)":{"encoding":"mapping","key":"t_address","label":"mapping(address => bool)","numberOfBytes":"32","value":"t_bool"},"t_mapping(t_address,t_mapping(t_address,t_uint256))":{"encoding":"mapping","key":"t_address","label":"mapping(address => mapping(address => uint256))","numberOfBytes":"32","value":"t_mapping(t_address,t_uint256)"},"t_mapping(t_address,t_uint256)":{"encoding":"mapping","key":"t_address","label":"mapping(address => uint256)","numberOfBytes":"32","value":"t_uint256"},"t_mapping(t_bytes_memory_ptr,t_bool)":{"encoding":"mapping","key":"t_bytes_memory_ptr","label":"mapping(bytes => bool)","numberOfBytes":"32","value":"t_bool"},"t_mapping(t_uint256,t_bool)":{"encoding":"mapping","key":"t_uint256","label":"mapping(uint256 => bool)","numberOfBytes":"32","value":"t_bool"},"t_mapping(t_uint256,t_struct(MintingData)4078_storage)":{"encoding":"mapping","key":"t_uint256","label":"mapping(uint256 => struct NiozERC20V2.MintingData)","numberOfBytes":"32","value":"t_struct(MintingData)4078_storage"},"t_string_storage":{"encoding":"bytes","label":"string","numberOfBytes":"32"},"t_struct(MintingData)4078_storage":{"encoding":"inplace","label":"struct NiozERC20V2.MintingData","members":[{"astId":4069,"contract":"contracts/NIOZ/NiozERC20V2.sol:NiozERC20V2","label":"id","offset":0,"slot":"0","type":"t_uint256"},{"astId":4071,"contract":"contracts/NIOZ/NiozERC20V2.sol:NiozERC20V2","label":"walletAddress","offset":0,"slot":"1","type":"t_address"},{"astId":4073,"contract":"contracts/NIOZ/NiozERC20V2.sol:NiozERC20V2","label":"weeklyAmt","offset":0,"slot":"2","type":"t_uint256"},{"astId":4075,"contract":"contracts/NIOZ/NiozERC20V2.sol:NiozERC20V2","label":"timeDiff","offset":0,"slot":"3","type":"t_uint256"},{"astId":4077,"contract":"contracts/NIOZ/NiozERC20V2.sol:NiozERC20V2","label":"lastTimestamp","offset":0,"slot":"4","type":"t_uint256"}],"numberOfBytes":"160"},"t_uint256":{"encoding":"inplace","label":"uint256","numberOfBytes":"32"},"t_uint8":{"encoding":"inplace","label":"uint8","numberOfBytes":"1"}}}}}}