{"contracts/EXTRACONSTRACTS/Joepegs.sol":{"Joepegs":{"abi":[{"anonymous":false,"inputs":[{"indexed":true,"internalType":"address","name":"owner","type":"address"},{"indexed":true,"internalType":"address","name":"approved","type":"address"},{"indexed":true,"internalType":"uint256","name":"tokenId","type":"uint256"}],"name":"Approval","type":"event"},{"anonymous":false,"inputs":[{"indexed":true,"internalType":"address","name":"owner","type":"address"},{"indexed":true,"internalType":"address","name":"operator","type":"address"},{"indexed":false,"internalType":"bool","name":"approved","type":"bool"}],"name":"ApprovalForAll","type":"event"},{"anonymous":false,"inputs":[{"indexed":false,"internalType":"uint8","name":"version","type":"uint8"}],"name":"Initialized","type":"event"},{"anonymous":false,"inputs":[{"indexed":true,"internalType":"address","name":"previousOwner","type":"address"},{"indexed":true,"internalType":"address","name":"newOwner","type":"address"}],"name":"OwnershipTransferred","type":"event"},{"anonymous":false,"inputs":[{"indexed":true,"internalType":"address","name":"from","type":"address"},{"indexed":true,"internalType":"address","name":"to","type":"address"},{"indexed":true,"internalType":"uint256","name":"tokenId","type":"uint256"}],"name":"Transfer","type":"event"},{"inputs":[{"internalType":"address","name":"to","type":"address"},{"internalType":"uint256","name":"tokenId","type":"uint256"}],"name":"approve","outputs":[],"stateMutability":"nonpayable","type":"function"},{"inputs":[{"internalType":"address","name":"owner","type":"address"}],"name":"balanceOf","outputs":[{"internalType":"uint256","name":"","type":"uint256"}],"stateMutability":"view","type":"function"},{"inputs":[{"internalType":"uint256","name":"tokenId","type":"uint256"}],"name":"getApproved","outputs":[{"internalType":"address","name":"","type":"address"}],"stateMutability":"view","type":"function"},{"inputs":[],"name":"initialize","outputs":[],"stateMutability":"nonpayable","type":"function"},{"inputs":[{"internalType":"address","name":"owner","type":"address"},{"internalType":"address","name":"operator","type":"address"}],"name":"isApprovedForAll","outputs":[{"internalType":"bool","name":"","type":"bool"}],"stateMutability":"view","type":"function"},{"inputs":[],"name":"mint","outputs":[{"internalType":"uint256","name":"","type":"uint256"}],"stateMutability":"nonpayable","type":"function"},{"inputs":[],"name":"name","outputs":[{"internalType":"string","name":"","type":"string"}],"stateMutability":"view","type":"function"},{"inputs":[],"name":"owner","outputs":[{"internalType":"address","name":"","type":"address"}],"stateMutability":"view","type":"function"},{"inputs":[{"internalType":"uint256","name":"tokenId","type":"uint256"}],"name":"ownerOf","outputs":[{"internalType":"address","name":"","type":"address"}],"stateMutability":"view","type":"function"},{"inputs":[],"name":"renounceOwnership","outputs":[],"stateMutability":"nonpayable","type":"function"},{"inputs":[{"internalType":"address","name":"from","type":"address"},{"internalType":"address","name":"to","type":"address"},{"internalType":"uint256","name":"tokenId","type":"uint256"}],"name":"safeTransferFrom","outputs":[],"stateMutability":"nonpayable","type":"function"},{"inputs":[{"internalType":"address","name":"from","type":"address"},{"internalType":"address","name":"to","type":"address"},{"internalType":"uint256","name":"tokenId","type":"uint256"},{"internalType":"bytes","name":"data","type":"bytes"}],"name":"safeTransferFrom","outputs":[],"stateMutability":"nonpayable","type":"function"},{"inputs":[{"internalType":"address","name":"operator","type":"address"},{"internalType":"bool","name":"approved","type":"bool"}],"name":"setApprovalForAll","outputs":[],"stateMutability":"nonpayable","type":"function"},{"inputs":[{"internalType":"bytes4","name":"interfaceId","type":"bytes4"}],"name":"supportsInterface","outputs":[{"internalType":"bool","name":"","type":"bool"}],"stateMutability":"view","type":"function"},{"inputs":[],"name":"symbol","outputs":[{"internalType":"string","name":"","type":"string"}],"stateMutability":"view","type":"function"},{"inputs":[],"name":"tokenCounter","outputs":[{"internalType":"uint256","name":"","type":"uint256"}],"stateMutability":"view","type":"function"},{"inputs":[{"internalType":"uint256","name":"tokenId","type":"uint256"}],"name":"tokenURI","outputs":[{"internalType":"string","name":"","type":"string"}],"stateMutability":"view","type":"function"},{"inputs":[{"internalType":"address","name":"from","type":"address"},{"internalType":"address","name":"to","type":"address"},{"internalType":"uint256","name":"tokenId","type":"uint256"}],"name":"transferFrom","outputs":[],"stateMutability":"nonpayable","type":"function"},{"inputs":[{"internalType":"address","name":"newOwner","type":"address"}],"name":"transferOwnership","outputs":[],"stateMutability":"nonpayable","type":"function"}],"evm":{"bytecode":{"linkReferences":{},"object":"608060405234801561001057600080fd5b506130d5806100206000396000f3fe608060405234801561001057600080fd5b50600436106101215760003560e01c8063715018a6116100ad578063b88d4fde11610071578063b88d4fde146102e2578063c87b56dd146102fe578063d082e3811461032e578063e985e9c51461034c578063f2fde38b1461037c57610121565b8063715018a6146102765780638129fc1c146102805780638da5cb5b1461028a57806395d89b41146102a8578063a22cb465146102c657610121565b80631249c58b116100f45780631249c58b146101c057806323b872dd146101de57806342842e0e146101fa5780636352211e1461021657806370a082311461024657610121565b806301ffc9a71461012657806306fdde0314610156578063081812fc14610174578063095ea7b3146101a4575b600080fd5b610140600480360381019061013b9190611e6b565b610398565b60405161014d9190611eb3565b60405180910390f35b61015e61047a565b60405161016b9190611f5e565b60405180910390f35b61018e60048036038101906101899190611fb6565b61050c565b60405161019b9190612024565b60405180910390f35b6101be60048036038101906101b9919061206b565b610552565b005b6101c8610669565b6040516101d591906120ba565b60405180910390f35b6101f860048036038101906101f391906120d5565b610711565b005b610214600480360381019061020f91906120d5565b610771565b005b610230600480360381019061022b9190611fb6565b610791565b60405161023d9190612024565b60405180910390f35b610260600480360381019061025b9190612128565b610817565b60405161026d91906120ba565b60405180910390f35b61027e6108ce565b005b6102886108e2565b005b610292610b20565b60405161029f9190612024565b60405180910390f35b6102b0610b4a565b6040516102bd9190611f5e565b60405180910390f35b6102e060048036038101906102db9190612181565b610bdc565b005b6102fc60048036038101906102f791906122f6565b610bf2565b005b61031860048036038101906103139190611fb6565b610c54565b6040516103259190611f5e565b60405180910390f35b610336610cbc565b60405161034391906120ba565b60405180910390f35b61036660048036038101906103619190612379565b610cc2565b6040516103739190611eb3565b60405180910390f35b61039660048036038101906103919190612128565b610d56565b005b60007f80ac58cd000000000000000000000000000000000000000000000000000000007bffffffffffffffffffffffffffffffffffffffffffffffffffffffff1916827bffffffffffffffffffffffffffffffffffffffffffffffffffffffff1916148061046357507f5b5e139f000000000000000000000000000000000000000000000000000000007bffffffffffffffffffffffffffffffffffffffffffffffffffffffff1916827bffffffffffffffffffffffffffffffffffffffffffffffffffffffff1916145b80610473575061047282610dd9565b5b9050919050565b606060658054610489906123e8565b80601f01602080910402602001604051908101604052809291908181526020018280546104b5906123e8565b80156105025780601f106104d757610100808354040283529160200191610502565b820191906000526020600020905b8154815290600101906020018083116104e557829003601f168201915b5050505050905090565b600061051782610e43565b6069600083815260200190815260200160002060009054906101000a900473ffffffffffffffffffffffffffffffffffffffff169050919050565b600061055d82610791565b90508073ffffffffffffffffffffffffffffffffffffffff168373ffffffffffffffffffffffffffffffffffffffff16036105cd576040517f08c379a00000000000000000000000000000000000000000000000000000000081526004016105c49061248b565b60405180910390fd5b8073ffffffffffffffffffffffffffffffffffffffff166105ec610e8e565b73ffffffffffffffffffffffffffffffffffffffff16148061061b575061061a81610615610e8e565b610cc2565b5b61065a576040517f08c379a00000000000000000000000000000000000000000000000000000000081526004016106519061251d565b60405180910390fd5b6106648383610e96565b505050565b600061067f6735c89e6ed558d27560c01b610f4f565b6106936710baabf2bba3152460c01b610f4f565b600160c960008282546106a6919061256c565b925050819055506106c167347f415a6fba163860c01b610f4f565b6106d567893277e721adf5f360c01b610f4f565b6106e13360c954610f52565b6106f56786bd5df94bdaa31e60c01b610f4f565b61070967d27f4dbc5a37e49e60c01b610f4f565b60c954905090565b61072261071c610e8e565b8261116f565b610761576040517f08c379a000000000000000000000000000000000000000000000000000000000815260040161075890612612565b60405180910390fd5b61076c838383611204565b505050565b61078c83838360405180602001604052806000815250610bf2565b505050565b60008061079d836114fd565b9050600073ffffffffffffffffffffffffffffffffffffffff168173ffffffffffffffffffffffffffffffffffffffff160361080e576040517f08c379a00000000000000000000000000000000000000000000000000000000081526004016108059061267e565b60405180910390fd5b80915050919050565b60008073ffffffffffffffffffffffffffffffffffffffff168273ffffffffffffffffffffffffffffffffffffffff1603610887576040517f08c379a000000000000000000000000000000000000000000000000000000000815260040161087e90612710565b60405180910390fd5b606860008373ffffffffffffffffffffffffffffffffffffffff1673ffffffffffffffffffffffffffffffffffffffff168152602001908152602001600020549050919050565b6108d661153a565b6108e060006115b8565b565b6108f66721413986721d228760c01b610f4f565b60008060019054906101000a900460ff161590508080156109275750600160008054906101000a900460ff1660ff16105b8061095457506109363061167e565b1580156109535750600160008054906101000a900460ff1660ff16145b5b610993576040517f08c379a000000000000000000000000000000000000000000000000000000000815260040161098a906127a2565b60405180910390fd5b60016000806101000a81548160ff021916908360ff16021790555080156109d0576001600060016101000a81548160ff0219169083151502179055505b6109e46766dd23ecafe385ea60c01b610f4f565b6109f8670908e731263cc5f160c01b610f4f565b610a0c67eea126d56c655e2160c01b610f4f565b610a206768b1eb0b7c4a250460c01b610f4f565b610a946040518060400160405280600781526020017f4a6f6570656773000000000000000000000000000000000000000000000000008152506040518060400160405280600781526020017f4a4f4550454753000000000000000000000000000000000000000000000000008152506116a1565b610aa86782e44929df836e4860c01b610f4f565b610abc67aaeb4575b4c0a1f260c01b610f4f565b610ac46116fe565b8015610b1d5760008060016101000a81548160ff0219169083151502179055507f7f26b83ff96e1f2b6a682f133852f6798a09c465da95921460cefb38474024986001604051610b149190612814565b60405180910390a15b50565b6000609760009054906101000a900473ffffffffffffffffffffffffffffffffffffffff16905090565b606060668054610b59906123e8565b80601f0160208091040260200160405190810160405280929190818152602001828054610b85906123e8565b8015610bd25780601f10610ba757610100808354040283529160200191610bd2565b820191906000526020600020905b815481529060010190602001808311610bb557829003601f168201915b5050505050905090565b610bee610be7610e8e565b8383611757565b5050565b610c03610bfd610e8e565b8361116f565b610c42576040517f08c379a0000000000000000000000000000000000000000000000000000000008152600401610c3990612612565b60405180910390fd5b610c4e848484846118c3565b50505050565b6060610c5f82610e43565b6000610c6961191f565b90506000815111610c895760405180602001604052806000815250610cb4565b80610c9384611936565b604051602001610ca492919061286b565b6040516020818303038152906040525b915050919050565b60c95481565b6000606a60008473ffffffffffffffffffffffffffffffffffffffff1673ffffffffffffffffffffffffffffffffffffffff16815260200190815260200160002060008373ffffffffffffffffffffffffffffffffffffffff1673ffffffffffffffffffffffffffffffffffffffff16815260200190815260200160002060009054906101000a900460ff16905092915050565b610d5e61153a565b600073ffffffffffffffffffffffffffffffffffffffff168173ffffffffffffffffffffffffffffffffffffffff1603610dcd576040517f08c379a0000000000000000000000000000000000000000000000000000000008152600401610dc490612901565b60405180910390fd5b610dd6816115b8565b50565b60007f01ffc9a7000000000000000000000000000000000000000000000000000000007bffffffffffffffffffffffffffffffffffffffffffffffffffffffff1916827bffffffffffffffffffffffffffffffffffffffffffffffffffffffff1916149050919050565b610e4c81611a04565b610e8b576040517f08c379a0000000000000000000000000000000000000000000000000000000008152600401610e829061267e565b60405180910390fd5b50565b600033905090565b816069600083815260200190815260200160002060006101000a81548173ffffffffffffffffffffffffffffffffffffffff021916908373ffffffffffffffffffffffffffffffffffffffff160217905550808273ffffffffffffffffffffffffffffffffffffffff16610f0983610791565b73ffffffffffffffffffffffffffffffffffffffff167f8c5be1e5ebec7d5bd14f71427d1e84f3dd0314c0f7b2291e5b200ac8c7c3b92560405160405180910390a45050565b50565b600073ffffffffffffffffffffffffffffffffffffffff168273ffffffffffffffffffffffffffffffffffffffff1603610fc1576040517f08c379a0000000000000000000000000000000000000000000000000000000008152600401610fb89061296d565b60405180910390fd5b610fca81611a04565b1561100a576040517f08c379a0000000000000000000000000000000000000000000000000000000008152600401611001906129d9565b60405180910390fd5b611018600083836001611a45565b61102181611a04565b15611061576040517f08c379a0000000000000000000000000000000000000000000000000000000008152600401611058906129d9565b60405180910390fd5b6001606860008473ffffffffffffffffffffffffffffffffffffffff1673ffffffffffffffffffffffffffffffffffffffff16815260200190815260200160002060008282540192505081905550816067600083815260200190815260200160002060006101000a81548173ffffffffffffffffffffffffffffffffffffffff021916908373ffffffffffffffffffffffffffffffffffffffff160217905550808273ffffffffffffffffffffffffffffffffffffffff16600073ffffffffffffffffffffffffffffffffffffffff167fddf252ad1be2c89b69c2b068fc378daa952ba7f163c4a11628f55a4df523b3ef60405160405180910390a461116b600083836001611a4b565b5050565b60008061117b83610791565b90508073ffffffffffffffffffffffffffffffffffffffff168473ffffffffffffffffffffffffffffffffffffffff1614806111bd57506111bc8185610cc2565b5b806111fb57508373ffffffffffffffffffffffffffffffffffffffff166111e38461050c565b73ffffffffffffffffffffffffffffffffffffffff16145b91505092915050565b8273ffffffffffffffffffffffffffffffffffffffff1661122482610791565b73ffffffffffffffffffffffffffffffffffffffff161461127a576040517f08c379a000000000000000000000000000000000000000000000000000000000815260040161127190612a6b565b60405180910390fd5b600073ffffffffffffffffffffffffffffffffffffffff168273ffffffffffffffffffffffffffffffffffffffff16036112e9576040517f08c379a00000000000000000000000000000000000000000000000000000000081526004016112e090612afd565b60405180910390fd5b6112f68383836001611a45565b8273ffffffffffffffffffffffffffffffffffffffff1661131682610791565b73ffffffffffffffffffffffffffffffffffffffff161461136c576040517f08c379a000000000000000000000000000000000000000000000000000000000815260040161136390612a6b565b60405180910390fd5b6069600082815260200190815260200160002060006101000a81549073ffffffffffffffffffffffffffffffffffffffff02191690556001606860008573ffffffffffffffffffffffffffffffffffffffff1673ffffffffffffffffffffffffffffffffffffffff168152602001908152602001600020600082825403925050819055506001606860008473ffffffffffffffffffffffffffffffffffffffff1673ffffffffffffffffffffffffffffffffffffffff16815260200190815260200160002060008282540192505081905550816067600083815260200190815260200160002060006101000a81548173ffffffffffffffffffffffffffffffffffffffff021916908373ffffffffffffffffffffffffffffffffffffffff160217905550808273ffffffffffffffffffffffffffffffffffffffff168473ffffffffffffffffffffffffffffffffffffffff167fddf252ad1be2c89b69c2b068fc378daa952ba7f163c4a11628f55a4df523b3ef60405160405180910390a46114f88383836001611a4b565b505050565b60006067600083815260200190815260200160002060009054906101000a900473ffffffffffffffffffffffffffffffffffffffff169050919050565b611542610e8e565b73ffffffffffffffffffffffffffffffffffffffff16611560610b20565b73ffffffffffffffffffffffffffffffffffffffff16146115b6576040517f08c379a00000000000000000000000000000000000000000000000000000000081526004016115ad90612b69565b60405180910390fd5b565b6000609760009054906101000a900473ffffffffffffffffffffffffffffffffffffffff16905081609760006101000a81548173ffffffffffffffffffffffffffffffffffffffff021916908373ffffffffffffffffffffffffffffffffffffffff1602179055508173ffffffffffffffffffffffffffffffffffffffff168173ffffffffffffffffffffffffffffffffffffffff167f8be0079c531659141344cd1fd0a4f28419497f9722a3daafe3b4186f6b6457e060405160405180910390a35050565b6000808273ffffffffffffffffffffffffffffffffffffffff163b119050919050565b600060019054906101000a900460ff166116f0576040517f08c379a00000000000000000000000000000000000000000000000000000000081526004016116e790612bfb565b60405180910390fd5b6116fa8282611a51565b5050565b600060019054906101000a900460ff1661174d576040517f08c379a000000000000000000000000000000000000000000000000000000000815260040161174490612bfb565b60405180910390fd5b611755611ac4565b565b8173ffffffffffffffffffffffffffffffffffffffff168373ffffffffffffffffffffffffffffffffffffffff16036117c5576040517f08c379a00000000000000000000000000000000000000000000000000000000081526004016117bc90612c67565b60405180910390fd5b80606a60008573ffffffffffffffffffffffffffffffffffffffff1673ffffffffffffffffffffffffffffffffffffffff16815260200190815260200160002060008473ffffffffffffffffffffffffffffffffffffffff1673ffffffffffffffffffffffffffffffffffffffff16815260200190815260200160002060006101000a81548160ff0219169083151502179055508173ffffffffffffffffffffffffffffffffffffffff168373ffffffffffffffffffffffffffffffffffffffff167f17307eab39ab6107e8899845ad3d59bd9653f200f220920489ca2b5937696c31836040516118b69190611eb3565b60405180910390a3505050565b6118ce848484611204565b6118da84848484611b25565b611919576040517f08c379a000000000000000000000000000000000000000000000000000000000815260040161191090612cf9565b60405180910390fd5b50505050565b606060405180602001604052806000815250905090565b60606000600161194584611cac565b01905060008167ffffffffffffffff811115611964576119636121cb565b5b6040519080825280601f01601f1916602001820160405280156119965781602001600182028036833780820191505090505b509050600082602001820190505b6001156119f9578080600190039150507f3031323334353637383961626364656600000000000000000000000000000000600a86061a8153600a85816119ed576119ec612d19565b5b049450600085036119a4575b819350505050919050565b60008073ffffffffffffffffffffffffffffffffffffffff16611a26836114fd565b73ffffffffffffffffffffffffffffffffffffffff1614159050919050565b50505050565b50505050565b600060019054906101000a900460ff16611aa0576040517f08c379a0000000000000000000000000000000000000000000000000000000008152600401611a9790612bfb565b60405180910390fd5b8160659081611aaf9190612eea565b508060669081611abf9190612eea565b505050565b600060019054906101000a900460ff16611b13576040517f08c379a0000000000000000000000000000000000000000000000000000000008152600401611b0a90612bfb565b60405180910390fd5b611b23611b1e610e8e565b6115b8565b565b6000611b468473ffffffffffffffffffffffffffffffffffffffff1661167e565b15611c9f578373ffffffffffffffffffffffffffffffffffffffff1663150b7a02611b6f610e8e565b8786866040518563ffffffff1660e01b8152600401611b919493929190613011565b6020604051808303816000875af1925050508015611bcd57506040513d601f19601f82011682018060405250810190611bca9190613072565b60015b611c4f573d8060008114611bfd576040519150601f19603f3d011682016040523d82523d6000602084013e611c02565b606091505b506000815103611c47576040517f08c379a0000000000000000000000000000000000000000000000000000000008152600401611c3e90612cf9565b60405180910390fd5b805181602001fd5b63150b7a0260e01b7bffffffffffffffffffffffffffffffffffffffffffffffffffffffff1916817bffffffffffffffffffffffffffffffffffffffffffffffffffffffff191614915050611ca4565b600190505b949350505050565b600080600090507a184f03e93ff9f4daa797ed6e38ed64bf6a1f0100000000000000008310611d0a577a184f03e93ff9f4daa797ed6e38ed64bf6a1f0100000000000000008381611d0057611cff612d19565b5b0492506040810190505b6d04ee2d6d415b85acef81000000008310611d47576d04ee2d6d415b85acef81000000008381611d3d57611d3c612d19565b5b0492506020810190505b662386f26fc100008310611d7657662386f26fc100008381611d6c57611d6b612d19565b5b0492506010810190505b6305f5e1008310611d9f576305f5e1008381611d9557611d94612d19565b5b0492506008810190505b6127108310611dc4576127108381611dba57611db9612d19565b5b0492506004810190505b60648310611de75760648381611ddd57611ddc612d19565b5b0492506002810190505b600a8310611df6576001810190505b80915050919050565b6000604051905090565b600080fd5b600080fd5b60007fffffffff0000000000000000000000000000000000000000000000000000000082169050919050565b611e4881611e13565b8114611e5357600080fd5b50565b600081359050611e6581611e3f565b92915050565b600060208284031215611e8157611e80611e09565b5b6000611e8f84828501611e56565b91505092915050565b60008115159050919050565b611ead81611e98565b82525050565b6000602082019050611ec86000830184611ea4565b92915050565b600081519050919050565b600082825260208201905092915050565b60005b83811015611f08578082015181840152602081019050611eed565b60008484015250505050565b6000601f19601f8301169050919050565b6000611f3082611ece565b611f3a8185611ed9565b9350611f4a818560208601611eea565b611f5381611f14565b840191505092915050565b60006020820190508181036000830152611f788184611f25565b905092915050565b6000819050919050565b611f9381611f80565b8114611f9e57600080fd5b50565b600081359050611fb081611f8a565b92915050565b600060208284031215611fcc57611fcb611e09565b5b6000611fda84828501611fa1565b91505092915050565b600073ffffffffffffffffffffffffffffffffffffffff82169050919050565b600061200e82611fe3565b9050919050565b61201e81612003565b82525050565b60006020820190506120396000830184612015565b92915050565b61204881612003565b811461205357600080fd5b50565b6000813590506120658161203f565b92915050565b6000806040838503121561208257612081611e09565b5b600061209085828601612056565b92505060206120a185828601611fa1565b9150509250929050565b6120b481611f80565b82525050565b60006020820190506120cf60008301846120ab565b92915050565b6000806000606084860312156120ee576120ed611e09565b5b60006120fc86828701612056565b935050602061210d86828701612056565b925050604061211e86828701611fa1565b9150509250925092565b60006020828403121561213e5761213d611e09565b5b600061214c84828501612056565b91505092915050565b61215e81611e98565b811461216957600080fd5b50565b60008135905061217b81612155565b92915050565b6000806040838503121561219857612197611e09565b5b60006121a685828601612056565b92505060206121b78582860161216c565b9150509250929050565b600080fd5b600080fd5b7f4e487b7100000000000000000000000000000000000000000000000000000000600052604160045260246000fd5b61220382611f14565b810181811067ffffffffffffffff82111715612222576122216121cb565b5b80604052505050565b6000612235611dff565b905061224182826121fa565b919050565b600067ffffffffffffffff821115612261576122606121cb565b5b61226a82611f14565b9050602081019050919050565b82818337600083830152505050565b600061229961229484612246565b61222b565b9050828152602081018484840111156122b5576122b46121c6565b5b6122c0848285612277565b509392505050565b600082601f8301126122dd576122dc6121c1565b5b81356122ed848260208601612286565b91505092915050565b600080600080608085870312156123105761230f611e09565b5b600061231e87828801612056565b945050602061232f87828801612056565b935050604061234087828801611fa1565b925050606085013567ffffffffffffffff81111561236157612360611e0e565b5b61236d878288016122c8565b91505092959194509250565b600080604083850312156123905761238f611e09565b5b600061239e85828601612056565b92505060206123af85828601612056565b9150509250929050565b7f4e487b7100000000000000000000000000000000000000000000000000000000600052602260045260246000fd5b6000600282049050600182168061240057607f821691505b602082108103612413576124126123b9565b5b50919050565b7f4552433732313a20617070726f76616c20746f2063757272656e74206f776e6560008201527f7200000000000000000000000000000000000000000000000000000000000000602082015250565b6000612475602183611ed9565b915061248082612419565b604082019050919050565b600060208201905081810360008301526124a481612468565b9050919050565b7f4552433732313a20617070726f76652063616c6c6572206973206e6f7420746f60008201527f6b656e206f776e6572206f7220617070726f76656420666f7220616c6c000000602082015250565b6000612507603d83611ed9565b9150612512826124ab565b604082019050919050565b60006020820190508181036000830152612536816124fa565b9050919050565b7f4e487b7100000000000000000000000000000000000000000000000000000000600052601160045260246000fd5b600061257782611f80565b915061258283611f80565b925082820190508082111561259a5761259961253d565b5b92915050565b7f4552433732313a2063616c6c6572206973206e6f7420746f6b656e206f776e6560008201527f72206f7220617070726f76656400000000000000000000000000000000000000602082015250565b60006125fc602d83611ed9565b9150612607826125a0565b604082019050919050565b6000602082019050818103600083015261262b816125ef565b9050919050565b7f4552433732313a20696e76616c696420746f6b656e2049440000000000000000600082015250565b6000612668601883611ed9565b915061267382612632565b602082019050919050565b600060208201905081810360008301526126978161265b565b9050919050565b7f4552433732313a2061646472657373207a65726f206973206e6f74206120766160008201527f6c6964206f776e65720000000000000000000000000000000000000000000000602082015250565b60006126fa602983611ed9565b91506127058261269e565b604082019050919050565b60006020820190508181036000830152612729816126ed565b9050919050565b7f496e697469616c697a61626c653a20636f6e747261637420697320616c72656160008201527f647920696e697469616c697a6564000000000000000000000000000000000000602082015250565b600061278c602e83611ed9565b915061279782612730565b604082019050919050565b600060208201905081810360008301526127bb8161277f565b9050919050565b6000819050919050565b600060ff82169050919050565b6000819050919050565b60006127fe6127f96127f4846127c2565b6127d9565b6127cc565b9050919050565b61280e816127e3565b82525050565b60006020820190506128296000830184612805565b92915050565b600081905092915050565b600061284582611ece565b61284f818561282f565b935061285f818560208601611eea565b80840191505092915050565b6000612877828561283a565b9150612883828461283a565b91508190509392505050565b7f4f776e61626c653a206e6577206f776e657220697320746865207a65726f206160008201527f6464726573730000000000000000000000000000000000000000000000000000602082015250565b60006128eb602683611ed9565b91506128f68261288f565b604082019050919050565b6000602082019050818103600083015261291a816128de565b9050919050565b7f4552433732313a206d696e7420746f20746865207a65726f2061646472657373600082015250565b6000612957602083611ed9565b915061296282612921565b602082019050919050565b600060208201905081810360008301526129868161294a565b9050919050565b7f4552433732313a20746f6b656e20616c7265616479206d696e74656400000000600082015250565b60006129c3601c83611ed9565b91506129ce8261298d565b602082019050919050565b600060208201905081810360008301526129f2816129b6565b9050919050565b7f4552433732313a207472616e736665722066726f6d20696e636f72726563742060008201527f6f776e6572000000000000000000000000000000000000000000000000000000602082015250565b6000612a55602583611ed9565b9150612a60826129f9565b604082019050919050565b60006020820190508181036000830152612a8481612a48565b9050919050565b7f4552433732313a207472616e7366657220746f20746865207a65726f2061646460008201527f7265737300000000000000000000000000000000000000000000000000000000602082015250565b6000612ae7602483611ed9565b9150612af282612a8b565b604082019050919050565b60006020820190508181036000830152612b1681612ada565b9050919050565b7f4f776e61626c653a2063616c6c6572206973206e6f7420746865206f776e6572600082015250565b6000612b53602083611ed9565b9150612b5e82612b1d565b602082019050919050565b60006020820190508181036000830152612b8281612b46565b9050919050565b7f496e697469616c697a61626c653a20636f6e7472616374206973206e6f74206960008201527f6e697469616c697a696e67000000000000000000000000000000000000000000602082015250565b6000612be5602b83611ed9565b9150612bf082612b89565b604082019050919050565b60006020820190508181036000830152612c1481612bd8565b9050919050565b7f4552433732313a20617070726f766520746f2063616c6c657200000000000000600082015250565b6000612c51601983611ed9565b9150612c5c82612c1b565b602082019050919050565b60006020820190508181036000830152612c8081612c44565b9050919050565b7f4552433732313a207472616e7366657220746f206e6f6e20455243373231526560008201527f63656976657220696d706c656d656e7465720000000000000000000000000000602082015250565b6000612ce3603283611ed9565b9150612cee82612c87565b604082019050919050565b60006020820190508181036000830152612d1281612cd6565b9050919050565b7f4e487b7100000000000000000000000000000000000000000000000000000000600052601260045260246000fd5b60008190508160005260206000209050919050565b60006020601f8301049050919050565b600082821b905092915050565b600060088302612daa7fffffffffffffffffffffffffffffffffffffffffffffffffffffffffffffffff82612d6d565b612db48683612d6d565b95508019841693508086168417925050509392505050565b6000612de7612de2612ddd84611f80565b6127d9565b611f80565b9050919050565b6000819050919050565b612e0183612dcc565b612e15612e0d82612dee565b848454612d7a565b825550505050565b600090565b612e2a612e1d565b612e35818484612df8565b505050565b5b81811015612e5957612e4e600082612e22565b600181019050612e3b565b5050565b601f821115612e9e57612e6f81612d48565b612e7884612d5d565b81016020851015612e87578190505b612e9b612e9385612d5d565b830182612e3a565b50505b505050565b600082821c905092915050565b6000612ec160001984600802612ea3565b1980831691505092915050565b6000612eda8383612eb0565b9150826002028217905092915050565b612ef382611ece565b67ffffffffffffffff811115612f0c57612f0b6121cb565b5b612f1682546123e8565b612f21828285612e5d565b600060209050601f831160018114612f545760008415612f42578287015190505b612f4c8582612ece565b865550612fb4565b601f198416612f6286612d48565b60005b82811015612f8a57848901518255600182019150602085019450602081019050612f65565b86831015612fa75784890151612fa3601f891682612eb0565b8355505b6001600288020188555050505b505050505050565b600081519050919050565b600082825260208201905092915050565b6000612fe382612fbc565b612fed8185612fc7565b9350612ffd818560208601611eea565b61300681611f14565b840191505092915050565b60006080820190506130266000830187612015565b6130336020830186612015565b61304060408301856120ab565b81810360608301526130528184612fd8565b905095945050505050565b60008151905061306c81611e3f565b92915050565b60006020828403121561308857613087611e09565b5b60006130968482850161305d565b9150509291505056fea2646970667358221220d1bc49084a7f85b191dbcc8f81b144c2cb2f02bba7d442115de0cb399f23257e64736f6c63430008100033","opcodes":"PUSH1 0x80 PUSH1 0x40 MSTORE CALLVALUE DUP1 ISZERO PUSH2 0x10 JUMPI PUSH1 0x0 DUP1 REVERT JUMPDEST POP PUSH2 0x30D5 DUP1 PUSH2 0x20 PUSH1 0x0 CODECOPY PUSH1 0x0 RETURN INVALID PUSH1 0x80 PUSH1 0x40 MSTORE CALLVALUE DUP1 ISZERO PUSH2 0x10 JUMPI PUSH1 0x0 DUP1 REVERT JUMPDEST POP PUSH1 0x4 CALLDATASIZE LT PUSH2 0x121 JUMPI PUSH1 0x0 CALLDATALOAD PUSH1 0xE0 SHR DUP1 PUSH4 0x715018A6 GT PUSH2 0xAD JUMPI DUP1 PUSH4 0xB88D4FDE GT PUSH2 0x71 JUMPI DUP1 PUSH4 0xB88D4FDE EQ PUSH2 0x2E2 JUMPI DUP1 PUSH4 0xC87B56DD EQ PUSH2 0x2FE JUMPI DUP1 PUSH4 0xD082E381 EQ PUSH2 0x32E JUMPI DUP1 PUSH4 0xE985E9C5 EQ PUSH2 0x34C JUMPI DUP1 PUSH4 0xF2FDE38B EQ PUSH2 0x37C JUMPI PUSH2 0x121 JUMP JUMPDEST DUP1 PUSH4 0x715018A6 EQ PUSH2 0x276 JUMPI DUP1 PUSH4 0x8129FC1C EQ PUSH2 0x280 JUMPI DUP1 PUSH4 0x8DA5CB5B EQ PUSH2 0x28A JUMPI DUP1 PUSH4 0x95D89B41 EQ PUSH2 0x2A8 JUMPI DUP1 PUSH4 0xA22CB465 EQ PUSH2 0x2C6 JUMPI PUSH2 0x121 JUMP JUMPDEST DUP1 PUSH4 0x1249C58B GT PUSH2 0xF4 JUMPI DUP1 PUSH4 0x1249C58B EQ PUSH2 0x1C0 JUMPI DUP1 PUSH4 0x23B872DD EQ PUSH2 0x1DE JUMPI DUP1 PUSH4 0x42842E0E EQ PUSH2 0x1FA JUMPI DUP1 PUSH4 0x6352211E EQ PUSH2 0x216 JUMPI DUP1 PUSH4 0x70A08231 EQ PUSH2 0x246 JUMPI PUSH2 0x121 JUMP JUMPDEST DUP1 PUSH4 0x1FFC9A7 EQ PUSH2 0x126 JUMPI DUP1 PUSH4 0x6FDDE03 EQ PUSH2 0x156 JUMPI DUP1 PUSH4 0x81812FC EQ PUSH2 0x174 JUMPI DUP1 PUSH4 0x95EA7B3 EQ PUSH2 0x1A4 JUMPI JUMPDEST PUSH1 0x0 DUP1 REVERT JUMPDEST PUSH2 0x140 PUSH1 0x4 DUP1 CALLDATASIZE SUB DUP2 ADD SWAP1 PUSH2 0x13B SWAP2 SWAP1 PUSH2 0x1E6B JUMP JUMPDEST PUSH2 0x398 JUMP JUMPDEST PUSH1 0x40 MLOAD PUSH2 0x14D SWAP2 SWAP1 PUSH2 0x1EB3 JUMP JUMPDEST PUSH1 0x40 MLOAD DUP1 SWAP2 SUB SWAP1 RETURN JUMPDEST PUSH2 0x15E PUSH2 0x47A JUMP JUMPDEST PUSH1 0x40 MLOAD PUSH2 0x16B SWAP2 SWAP1 PUSH2 0x1F5E JUMP JUMPDEST PUSH1 0x40 MLOAD DUP1 SWAP2 SUB SWAP1 RETURN JUMPDEST PUSH2 0x18E PUSH1 0x4 DUP1 CALLDATASIZE SUB DUP2 ADD SWAP1 PUSH2 0x189 SWAP2 SWAP1 PUSH2 0x1FB6 JUMP JUMPDEST PUSH2 0x50C JUMP JUMPDEST PUSH1 0x40 MLOAD PUSH2 0x19B SWAP2 SWAP1 PUSH2 0x2024 JUMP JUMPDEST PUSH1 0x40 MLOAD DUP1 SWAP2 SUB SWAP1 RETURN JUMPDEST PUSH2 0x1BE PUSH1 0x4 DUP1 CALLDATASIZE SUB DUP2 ADD SWAP1 PUSH2 0x1B9 SWAP2 SWAP1 PUSH2 0x206B JUMP JUMPDEST PUSH2 0x552 JUMP JUMPDEST STOP JUMPDEST PUSH2 0x1C8 PUSH2 0x669 JUMP JUMPDEST PUSH1 0x40 MLOAD PUSH2 0x1D5 SWAP2 SWAP1 PUSH2 0x20BA JUMP JUMPDEST PUSH1 0x40 MLOAD DUP1 SWAP2 SUB SWAP1 RETURN JUMPDEST PUSH2 0x1F8 PUSH1 0x4 DUP1 CALLDATASIZE SUB DUP2 ADD SWAP1 PUSH2 0x1F3 SWAP2 SWAP1 PUSH2 0x20D5 JUMP JUMPDEST PUSH2 0x711 JUMP JUMPDEST STOP JUMPDEST PUSH2 0x214 PUSH1 0x4 DUP1 CALLDATASIZE SUB DUP2 ADD SWAP1 PUSH2 0x20F SWAP2 SWAP1 PUSH2 0x20D5 JUMP JUMPDEST PUSH2 0x771 JUMP JUMPDEST STOP JUMPDEST PUSH2 0x230 PUSH1 0x4 DUP1 CALLDATASIZE SUB DUP2 ADD SWAP1 PUSH2 0x22B SWAP2 SWAP1 PUSH2 0x1FB6 JUMP JUMPDEST PUSH2 0x791 JUMP JUMPDEST PUSH1 0x40 MLOAD PUSH2 0x23D SWAP2 SWAP1 PUSH2 0x2024 JUMP JUMPDEST PUSH1 0x40 MLOAD DUP1 SWAP2 SUB SWAP1 RETURN JUMPDEST PUSH2 0x260 PUSH1 0x4 DUP1 CALLDATASIZE SUB DUP2 ADD SWAP1 PUSH2 0x25B SWAP2 SWAP1 PUSH2 0x2128 JUMP JUMPDEST PUSH2 0x817 JUMP JUMPDEST PUSH1 0x40 MLOAD PUSH2 0x26D SWAP2 SWAP1 PUSH2 0x20BA JUMP JUMPDEST PUSH1 0x40 MLOAD DUP1 SWAP2 SUB SWAP1 RETURN JUMPDEST PUSH2 0x27E PUSH2 0x8CE JUMP JUMPDEST STOP JUMPDEST PUSH2 0x288 PUSH2 0x8E2 JUMP JUMPDEST STOP JUMPDEST PUSH2 0x292 PUSH2 0xB20 JUMP JUMPDEST PUSH1 0x40 MLOAD PUSH2 0x29F SWAP2 SWAP1 PUSH2 0x2024 JUMP JUMPDEST PUSH1 0x40 MLOAD DUP1 SWAP2 SUB SWAP1 RETURN JUMPDEST PUSH2 0x2B0 PUSH2 0xB4A JUMP JUMPDEST PUSH1 0x40 MLOAD PUSH2 0x2BD SWAP2 SWAP1 PUSH2 0x1F5E JUMP JUMPDEST PUSH1 0x40 MLOAD DUP1 SWAP2 SUB SWAP1 RETURN JUMPDEST PUSH2 0x2E0 PUSH1 0x4 DUP1 CALLDATASIZE SUB DUP2 ADD SWAP1 PUSH2 0x2DB SWAP2 SWAP1 PUSH2 0x2181 JUMP JUMPDEST PUSH2 0xBDC JUMP JUMPDEST STOP JUMPDEST PUSH2 0x2FC PUSH1 0x4 DUP1 CALLDATASIZE SUB DUP2 ADD SWAP1 PUSH2 0x2F7 SWAP2 SWAP1 PUSH2 0x22F6 JUMP JUMPDEST PUSH2 0xBF2 JUMP JUMPDEST STOP JUMPDEST PUSH2 0x318 PUSH1 0x4 DUP1 CALLDATASIZE SUB DUP2 ADD SWAP1 PUSH2 0x313 SWAP2 SWAP1 PUSH2 0x1FB6 JUMP JUMPDEST PUSH2 0xC54 JUMP JUMPDEST PUSH1 0x40 MLOAD PUSH2 0x325 SWAP2 SWAP1 PUSH2 0x1F5E JUMP JUMPDEST PUSH1 0x40 MLOAD DUP1 SWAP2 SUB SWAP1 RETURN JUMPDEST PUSH2 0x336 PUSH2 0xCBC JUMP JUMPDEST PUSH1 0x40 MLOAD PUSH2 0x343 SWAP2 SWAP1 PUSH2 0x20BA JUMP JUMPDEST PUSH1 0x40 MLOAD DUP1 SWAP2 SUB SWAP1 RETURN JUMPDEST PUSH2 0x366 PUSH1 0x4 DUP1 CALLDATASIZE SUB DUP2 ADD SWAP1 PUSH2 0x361 SWAP2 SWAP1 PUSH2 0x2379 JUMP JUMPDEST PUSH2 0xCC2 JUMP JUMPDEST PUSH1 0x40 MLOAD PUSH2 0x373 SWAP2 SWAP1 PUSH2 0x1EB3 JUMP JUMPDEST PUSH1 0x40 MLOAD DUP1 SWAP2 SUB SWAP1 RETURN JUMPDEST PUSH2 0x396 PUSH1 0x4 DUP1 CALLDATASIZE SUB DUP2 ADD SWAP1 PUSH2 0x391 SWAP2 SWAP1 PUSH2 0x2128 JUMP JUMPDEST PUSH2 0xD56 JUMP JUMPDEST STOP JUMPDEST PUSH1 0x0 PUSH32 0x80AC58CD00000000000000000000000000000000000000000000000000000000 PUSH28 0xFFFFFFFFFFFFFFFFFFFFFFFFFFFFFFFFFFFFFFFFFFFFFFFFFFFFFFFF NOT AND DUP3 PUSH28 0xFFFFFFFFFFFFFFFFFFFFFFFFFFFFFFFFFFFFFFFFFFFFFFFFFFFFFFFF NOT AND EQ DUP1 PUSH2 0x463 JUMPI POP PUSH32 0x5B5E139F00000000000000000000000000000000000000000000000000000000 PUSH28 0xFFFFFFFFFFFFFFFFFFFFFFFFFFFFFFFFFFFFFFFFFFFFFFFFFFFFFFFF NOT AND DUP3 PUSH28 0xFFFFFFFFFFFFFFFFFFFFFFFFFFFFFFFFFFFFFFFFFFFFFFFFFFFFFFFF NOT AND EQ JUMPDEST DUP1 PUSH2 0x473 JUMPI POP PUSH2 0x472 DUP3 PUSH2 0xDD9 JUMP JUMPDEST JUMPDEST SWAP1 POP SWAP2 SWAP1 POP JUMP JUMPDEST PUSH1 0x60 PUSH1 0x65 DUP1 SLOAD PUSH2 0x489 SWAP1 PUSH2 0x23E8 JUMP JUMPDEST DUP1 PUSH1 0x1F ADD PUSH1 0x20 DUP1 SWAP2 DIV MUL PUSH1 0x20 ADD PUSH1 0x40 MLOAD SWAP1 DUP2 ADD PUSH1 0x40 MSTORE DUP1 SWAP3 SWAP2 SWAP1 DUP2 DUP2 MSTORE PUSH1 0x20 ADD DUP3 DUP1 SLOAD PUSH2 0x4B5 SWAP1 PUSH2 0x23E8 JUMP JUMPDEST DUP1 ISZERO PUSH2 0x502 JUMPI DUP1 PUSH1 0x1F LT PUSH2 0x4D7 JUMPI PUSH2 0x100 DUP1 DUP4 SLOAD DIV MUL DUP4 MSTORE SWAP2 PUSH1 0x20 ADD SWAP2 PUSH2 0x502 JUMP JUMPDEST DUP3 ADD SWAP2 SWAP1 PUSH1 0x0 MSTORE PUSH1 0x20 PUSH1 0x0 KECCAK256 SWAP1 JUMPDEST DUP2 SLOAD DUP2 MSTORE SWAP1 PUSH1 0x1 ADD SWAP1 PUSH1 0x20 ADD DUP1 DUP4 GT PUSH2 0x4E5 JUMPI DUP3 SWAP1 SUB PUSH1 0x1F AND DUP3 ADD SWAP2 JUMPDEST POP POP POP POP POP SWAP1 POP SWAP1 JUMP JUMPDEST PUSH1 0x0 PUSH2 0x517 DUP3 PUSH2 0xE43 JUMP JUMPDEST PUSH1 0x69 PUSH1 0x0 DUP4 DUP2 MSTORE PUSH1 0x20 ADD SWAP1 DUP2 MSTORE PUSH1 0x20 ADD PUSH1 0x0 KECCAK256 PUSH1 0x0 SWAP1 SLOAD SWAP1 PUSH2 0x100 EXP SWAP1 DIV PUSH20 0xFFFFFFFFFFFFFFFFFFFFFFFFFFFFFFFFFFFFFFFF AND SWAP1 POP SWAP2 SWAP1 POP JUMP JUMPDEST PUSH1 0x0 PUSH2 0x55D DUP3 PUSH2 0x791 JUMP JUMPDEST SWAP1 POP DUP1 PUSH20 0xFFFFFFFFFFFFFFFFFFFFFFFFFFFFFFFFFFFFFFFF AND DUP4 PUSH20 0xFFFFFFFFFFFFFFFFFFFFFFFFFFFFFFFFFFFFFFFF AND SUB PUSH2 0x5CD JUMPI PUSH1 0x40 MLOAD PUSH32 0x8C379A000000000000000000000000000000000000000000000000000000000 DUP2 MSTORE PUSH1 0x4 ADD PUSH2 0x5C4 SWAP1 PUSH2 0x248B JUMP JUMPDEST PUSH1 0x40 MLOAD DUP1 SWAP2 SUB SWAP1 REVERT JUMPDEST DUP1 PUSH20 0xFFFFFFFFFFFFFFFFFFFFFFFFFFFFFFFFFFFFFFFF AND PUSH2 0x5EC PUSH2 0xE8E JUMP JUMPDEST PUSH20 0xFFFFFFFFFFFFFFFFFFFFFFFFFFFFFFFFFFFFFFFF AND EQ DUP1 PUSH2 0x61B JUMPI POP PUSH2 0x61A DUP2 PUSH2 0x615 PUSH2 0xE8E JUMP JUMPDEST PUSH2 0xCC2 JUMP JUMPDEST JUMPDEST PUSH2 0x65A JUMPI PUSH1 0x40 MLOAD PUSH32 0x8C379A000000000000000000000000000000000000000000000000000000000 DUP2 MSTORE PUSH1 0x4 ADD PUSH2 0x651 SWAP1 PUSH2 0x251D JUMP JUMPDEST PUSH1 0x40 MLOAD DUP1 SWAP2 SUB SWAP1 REVERT JUMPDEST PUSH2 0x664 DUP4 DUP4 PUSH2 0xE96 JUMP JUMPDEST POP POP POP JUMP JUMPDEST PUSH1 0x0 PUSH2 0x67F PUSH8 0x35C89E6ED558D275 PUSH1 0xC0 SHL PUSH2 0xF4F JUMP JUMPDEST PUSH2 0x693 PUSH8 0x10BAABF2BBA31524 PUSH1 0xC0 SHL PUSH2 0xF4F JUMP JUMPDEST PUSH1 0x1 PUSH1 0xC9 PUSH1 0x0 DUP3 DUP3 SLOAD PUSH2 0x6A6 SWAP2 SWAP1 PUSH2 0x256C JUMP JUMPDEST SWAP3 POP POP DUP2 SWAP1 SSTORE POP PUSH2 0x6C1 PUSH8 0x347F415A6FBA1638 PUSH1 0xC0 SHL PUSH2 0xF4F JUMP JUMPDEST PUSH2 0x6D5 PUSH8 0x893277E721ADF5F3 PUSH1 0xC0 SHL PUSH2 0xF4F JUMP JUMPDEST PUSH2 0x6E1 CALLER PUSH1 0xC9 SLOAD PUSH2 0xF52 JUMP JUMPDEST PUSH2 0x6F5 PUSH8 0x86BD5DF94BDAA31E PUSH1 0xC0 SHL PUSH2 0xF4F JUMP JUMPDEST PUSH2 0x709 PUSH8 0xD27F4DBC5A37E49E PUSH1 0xC0 SHL PUSH2 0xF4F JUMP JUMPDEST PUSH1 0xC9 SLOAD SWAP1 POP SWAP1 JUMP JUMPDEST PUSH2 0x722 PUSH2 0x71C PUSH2 0xE8E JUMP JUMPDEST DUP3 PUSH2 0x116F JUMP JUMPDEST PUSH2 0x761 JUMPI PUSH1 0x40 MLOAD PUSH32 0x8C379A000000000000000000000000000000000000000000000000000000000 DUP2 MSTORE PUSH1 0x4 ADD PUSH2 0x758 SWAP1 PUSH2 0x2612 JUMP JUMPDEST PUSH1 0x40 MLOAD DUP1 SWAP2 SUB SWAP1 REVERT JUMPDEST PUSH2 0x76C DUP4 DUP4 DUP4 PUSH2 0x1204 JUMP JUMPDEST POP POP POP JUMP JUMPDEST PUSH2 0x78C DUP4 DUP4 DUP4 PUSH1 0x40 MLOAD DUP1 PUSH1 0x20 ADD PUSH1 0x40 MSTORE DUP1 PUSH1 0x0 DUP2 MSTORE POP PUSH2 0xBF2 JUMP JUMPDEST POP POP POP JUMP JUMPDEST PUSH1 0x0 DUP1 PUSH2 0x79D DUP4 PUSH2 0x14FD JUMP JUMPDEST SWAP1 POP PUSH1 0x0 PUSH20 0xFFFFFFFFFFFFFFFFFFFFFFFFFFFFFFFFFFFFFFFF AND DUP2 PUSH20 0xFFFFFFFFFFFFFFFFFFFFFFFFFFFFFFFFFFFFFFFF AND SUB PUSH2 0x80E JUMPI PUSH1 0x40 MLOAD PUSH32 0x8C379A000000000000000000000000000000000000000000000000000000000 DUP2 MSTORE PUSH1 0x4 ADD PUSH2 0x805 SWAP1 PUSH2 0x267E JUMP JUMPDEST PUSH1 0x40 MLOAD DUP1 SWAP2 SUB SWAP1 REVERT JUMPDEST DUP1 SWAP2 POP POP SWAP2 SWAP1 POP JUMP JUMPDEST PUSH1 0x0 DUP1 PUSH20 0xFFFFFFFFFFFFFFFFFFFFFFFFFFFFFFFFFFFFFFFF AND DUP3 PUSH20 0xFFFFFFFFFFFFFFFFFFFFFFFFFFFFFFFFFFFFFFFF AND SUB PUSH2 0x887 JUMPI PUSH1 0x40 MLOAD PUSH32 0x8C379A000000000000000000000000000000000000000000000000000000000 DUP2 MSTORE PUSH1 0x4 ADD PUSH2 0x87E SWAP1 PUSH2 0x2710 JUMP JUMPDEST PUSH1 0x40 MLOAD DUP1 SWAP2 SUB SWAP1 REVERT JUMPDEST PUSH1 0x68 PUSH1 0x0 DUP4 PUSH20 0xFFFFFFFFFFFFFFFFFFFFFFFFFFFFFFFFFFFFFFFF AND PUSH20 0xFFFFFFFFFFFFFFFFFFFFFFFFFFFFFFFFFFFFFFFF AND DUP2 MSTORE PUSH1 0x20 ADD SWAP1 DUP2 MSTORE PUSH1 0x20 ADD PUSH1 0x0 KECCAK256 SLOAD SWAP1 POP SWAP2 SWAP1 POP JUMP JUMPDEST PUSH2 0x8D6 PUSH2 0x153A JUMP JUMPDEST PUSH2 0x8E0 PUSH1 0x0 PUSH2 0x15B8 JUMP JUMPDEST JUMP JUMPDEST PUSH2 0x8F6 PUSH8 0x21413986721D2287 PUSH1 0xC0 SHL PUSH2 0xF4F JUMP JUMPDEST PUSH1 0x0 DUP1 PUSH1 0x1 SWAP1 SLOAD SWAP1 PUSH2 0x100 EXP SWAP1 DIV PUSH1 0xFF AND ISZERO SWAP1 POP DUP1 DUP1 ISZERO PUSH2 0x927 JUMPI POP PUSH1 0x1 PUSH1 0x0 DUP1 SLOAD SWAP1 PUSH2 0x100 EXP SWAP1 DIV PUSH1 0xFF AND PUSH1 0xFF AND LT JUMPDEST DUP1 PUSH2 0x954 JUMPI POP PUSH2 0x936 ADDRESS PUSH2 0x167E JUMP JUMPDEST ISZERO DUP1 ISZERO PUSH2 0x953 JUMPI POP PUSH1 0x1 PUSH1 0x0 DUP1 SLOAD SWAP1 PUSH2 0x100 EXP SWAP1 DIV PUSH1 0xFF AND PUSH1 0xFF AND EQ JUMPDEST JUMPDEST PUSH2 0x993 JUMPI PUSH1 0x40 MLOAD PUSH32 0x8C379A000000000000000000000000000000000000000000000000000000000 DUP2 MSTORE PUSH1 0x4 ADD PUSH2 0x98A SWAP1 PUSH2 0x27A2 JUMP JUMPDEST PUSH1 0x40 MLOAD DUP1 SWAP2 SUB SWAP1 REVERT JUMPDEST PUSH1 0x1 PUSH1 0x0 DUP1 PUSH2 0x100 EXP DUP2 SLOAD DUP2 PUSH1 0xFF MUL NOT AND SWAP1 DUP4 PUSH1 0xFF AND MUL OR SWAP1 SSTORE POP DUP1 ISZERO PUSH2 0x9D0 JUMPI PUSH1 0x1 PUSH1 0x0 PUSH1 0x1 PUSH2 0x100 EXP DUP2 SLOAD DUP2 PUSH1 0xFF MUL NOT AND SWAP1 DUP4 ISZERO ISZERO MUL OR SWAP1 SSTORE POP JUMPDEST PUSH2 0x9E4 PUSH8 0x66DD23ECAFE385EA PUSH1 0xC0 SHL PUSH2 0xF4F JUMP JUMPDEST PUSH2 0x9F8 PUSH8 0x908E731263CC5F1 PUSH1 0xC0 SHL PUSH2 0xF4F JUMP JUMPDEST PUSH2 0xA0C PUSH8 0xEEA126D56C655E21 PUSH1 0xC0 SHL PUSH2 0xF4F JUMP JUMPDEST PUSH2 0xA20 PUSH8 0x68B1EB0B7C4A2504 PUSH1 0xC0 SHL PUSH2 0xF4F JUMP JUMPDEST PUSH2 0xA94 PUSH1 0x40 MLOAD DUP1 PUSH1 0x40 ADD PUSH1 0x40 MSTORE DUP1 PUSH1 0x7 DUP2 MSTORE PUSH1 0x20 ADD PUSH32 0x4A6F657065677300000000000000000000000000000000000000000000000000 DUP2 MSTORE POP PUSH1 0x40 MLOAD DUP1 PUSH1 0x40 ADD PUSH1 0x40 MSTORE DUP1 PUSH1 0x7 DUP2 MSTORE PUSH1 0x20 ADD PUSH32 0x4A4F455045475300000000000000000000000000000000000000000000000000 DUP2 MSTORE POP PUSH2 0x16A1 JUMP JUMPDEST PUSH2 0xAA8 PUSH8 0x82E44929DF836E48 PUSH1 0xC0 SHL PUSH2 0xF4F JUMP JUMPDEST PUSH2 0xABC PUSH8 0xAAEB4575B4C0A1F2 PUSH1 0xC0 SHL PUSH2 0xF4F JUMP JUMPDEST PUSH2 0xAC4 PUSH2 0x16FE JUMP JUMPDEST DUP1 ISZERO PUSH2 0xB1D JUMPI PUSH1 0x0 DUP1 PUSH1 0x1 PUSH2 0x100 EXP DUP2 SLOAD DUP2 PUSH1 0xFF MUL NOT AND SWAP1 DUP4 ISZERO ISZERO MUL OR SWAP1 SSTORE POP PUSH32 0x7F26B83FF96E1F2B6A682F133852F6798A09C465DA95921460CEFB3847402498 PUSH1 0x1 PUSH1 0x40 MLOAD PUSH2 0xB14 SWAP2 SWAP1 PUSH2 0x2814 JUMP JUMPDEST PUSH1 0x40 MLOAD DUP1 SWAP2 SUB SWAP1 LOG1 JUMPDEST POP JUMP JUMPDEST PUSH1 0x0 PUSH1 0x97 PUSH1 0x0 SWAP1 SLOAD SWAP1 PUSH2 0x100 EXP SWAP1 DIV PUSH20 0xFFFFFFFFFFFFFFFFFFFFFFFFFFFFFFFFFFFFFFFF AND SWAP1 POP SWAP1 JUMP JUMPDEST PUSH1 0x60 PUSH1 0x66 DUP1 SLOAD PUSH2 0xB59 SWAP1 PUSH2 0x23E8 JUMP JUMPDEST DUP1 PUSH1 0x1F ADD PUSH1 0x20 DUP1 SWAP2 DIV MUL PUSH1 0x20 ADD PUSH1 0x40 MLOAD SWAP1 DUP2 ADD PUSH1 0x40 MSTORE DUP1 SWAP3 SWAP2 SWAP1 DUP2 DUP2 MSTORE PUSH1 0x20 ADD DUP3 DUP1 SLOAD PUSH2 0xB85 SWAP1 PUSH2 0x23E8 JUMP JUMPDEST DUP1 ISZERO PUSH2 0xBD2 JUMPI DUP1 PUSH1 0x1F LT PUSH2 0xBA7 JUMPI PUSH2 0x100 DUP1 DUP4 SLOAD DIV MUL DUP4 MSTORE SWAP2 PUSH1 0x20 ADD SWAP2 PUSH2 0xBD2 JUMP JUMPDEST DUP3 ADD SWAP2 SWAP1 PUSH1 0x0 MSTORE PUSH1 0x20 PUSH1 0x0 KECCAK256 SWAP1 JUMPDEST DUP2 SLOAD DUP2 MSTORE SWAP1 PUSH1 0x1 ADD SWAP1 PUSH1 0x20 ADD DUP1 DUP4 GT PUSH2 0xBB5 JUMPI DUP3 SWAP1 SUB PUSH1 0x1F AND DUP3 ADD SWAP2 JUMPDEST POP POP POP POP POP SWAP1 POP SWAP1 JUMP JUMPDEST PUSH2 0xBEE PUSH2 0xBE7 PUSH2 0xE8E JUMP JUMPDEST DUP4 DUP4 PUSH2 0x1757 JUMP JUMPDEST POP POP JUMP JUMPDEST PUSH2 0xC03 PUSH2 0xBFD PUSH2 0xE8E JUMP JUMPDEST DUP4 PUSH2 0x116F JUMP JUMPDEST PUSH2 0xC42 JUMPI PUSH1 0x40 MLOAD PUSH32 0x8C379A000000000000000000000000000000000000000000000000000000000 DUP2 MSTORE PUSH1 0x4 ADD PUSH2 0xC39 SWAP1 PUSH2 0x2612 JUMP JUMPDEST PUSH1 0x40 MLOAD DUP1 SWAP2 SUB SWAP1 REVERT JUMPDEST PUSH2 0xC4E DUP5 DUP5 DUP5 DUP5 PUSH2 0x18C3 JUMP JUMPDEST POP POP POP POP JUMP JUMPDEST PUSH1 0x60 PUSH2 0xC5F DUP3 PUSH2 0xE43 JUMP JUMPDEST PUSH1 0x0 PUSH2 0xC69 PUSH2 0x191F JUMP JUMPDEST SWAP1 POP PUSH1 0x0 DUP2 MLOAD GT PUSH2 0xC89 JUMPI PUSH1 0x40 MLOAD DUP1 PUSH1 0x20 ADD PUSH1 0x40 MSTORE DUP1 PUSH1 0x0 DUP2 MSTORE POP PUSH2 0xCB4 JUMP JUMPDEST DUP1 PUSH2 0xC93 DUP5 PUSH2 0x1936 JUMP JUMPDEST PUSH1 0x40 MLOAD PUSH1 0x20 ADD PUSH2 0xCA4 SWAP3 SWAP2 SWAP1 PUSH2 0x286B JUMP JUMPDEST PUSH1 0x40 MLOAD PUSH1 0x20 DUP2 DUP4 SUB SUB DUP2 MSTORE SWAP1 PUSH1 0x40 MSTORE JUMPDEST SWAP2 POP POP SWAP2 SWAP1 POP JUMP JUMPDEST PUSH1 0xC9 SLOAD DUP2 JUMP JUMPDEST PUSH1 0x0 PUSH1 0x6A PUSH1 0x0 DUP5 PUSH20 0xFFFFFFFFFFFFFFFFFFFFFFFFFFFFFFFFFFFFFFFF AND PUSH20 0xFFFFFFFFFFFFFFFFFFFFFFFFFFFFFFFFFFFFFFFF AND DUP2 MSTORE PUSH1 0x20 ADD SWAP1 DUP2 MSTORE PUSH1 0x20 ADD PUSH1 0x0 KECCAK256 PUSH1 0x0 DUP4 PUSH20 0xFFFFFFFFFFFFFFFFFFFFFFFFFFFFFFFFFFFFFFFF AND PUSH20 0xFFFFFFFFFFFFFFFFFFFFFFFFFFFFFFFFFFFFFFFF AND DUP2 MSTORE PUSH1 0x20 ADD SWAP1 DUP2 MSTORE PUSH1 0x20 ADD PUSH1 0x0 KECCAK256 PUSH1 0x0 SWAP1 SLOAD SWAP1 PUSH2 0x100 EXP SWAP1 DIV PUSH1 0xFF AND SWAP1 POP SWAP3 SWAP2 POP POP JUMP JUMPDEST PUSH2 0xD5E PUSH2 0x153A JUMP JUMPDEST PUSH1 0x0 PUSH20 0xFFFFFFFFFFFFFFFFFFFFFFFFFFFFFFFFFFFFFFFF AND DUP2 PUSH20 0xFFFFFFFFFFFFFFFFFFFFFFFFFFFFFFFFFFFFFFFF AND SUB PUSH2 0xDCD JUMPI PUSH1 0x40 MLOAD PUSH32 0x8C379A000000000000000000000000000000000000000000000000000000000 DUP2 MSTORE PUSH1 0x4 ADD PUSH2 0xDC4 SWAP1 PUSH2 0x2901 JUMP JUMPDEST PUSH1 0x40 MLOAD DUP1 SWAP2 SUB SWAP1 REVERT JUMPDEST PUSH2 0xDD6 DUP2 PUSH2 0x15B8 JUMP JUMPDEST POP JUMP JUMPDEST PUSH1 0x0 PUSH32 0x1FFC9A700000000000000000000000000000000000000000000000000000000 PUSH28 0xFFFFFFFFFFFFFFFFFFFFFFFFFFFFFFFFFFFFFFFFFFFFFFFFFFFFFFFF NOT AND DUP3 PUSH28 0xFFFFFFFFFFFFFFFFFFFFFFFFFFFFFFFFFFFFFFFFFFFFFFFFFFFFFFFF NOT AND EQ SWAP1 POP SWAP2 SWAP1 POP JUMP JUMPDEST PUSH2 0xE4C DUP2 PUSH2 0x1A04 JUMP JUMPDEST PUSH2 0xE8B JUMPI PUSH1 0x40 MLOAD PUSH32 0x8C379A000000000000000000000000000000000000000000000000000000000 DUP2 MSTORE PUSH1 0x4 ADD PUSH2 0xE82 SWAP1 PUSH2 0x267E JUMP JUMPDEST PUSH1 0x40 MLOAD DUP1 SWAP2 SUB SWAP1 REVERT JUMPDEST POP JUMP JUMPDEST PUSH1 0x0 CALLER SWAP1 POP SWAP1 JUMP JUMPDEST DUP2 PUSH1 0x69 PUSH1 0x0 DUP4 DUP2 MSTORE PUSH1 0x20 ADD SWAP1 DUP2 MSTORE PUSH1 0x20 ADD PUSH1 0x0 KECCAK256 PUSH1 0x0 PUSH2 0x100 EXP DUP2 SLOAD DUP2 PUSH20 0xFFFFFFFFFFFFFFFFFFFFFFFFFFFFFFFFFFFFFFFF MUL NOT AND SWAP1 DUP4 PUSH20 0xFFFFFFFFFFFFFFFFFFFFFFFFFFFFFFFFFFFFFFFF AND MUL OR SWAP1 SSTORE POP DUP1 DUP3 PUSH20 0xFFFFFFFFFFFFFFFFFFFFFFFFFFFFFFFFFFFFFFFF AND PUSH2 0xF09 DUP4 PUSH2 0x791 JUMP JUMPDEST PUSH20 0xFFFFFFFFFFFFFFFFFFFFFFFFFFFFFFFFFFFFFFFF AND PUSH32 0x8C5BE1E5EBEC7D5BD14F71427D1E84F3DD0314C0F7B2291E5B200AC8C7C3B925 PUSH1 0x40 MLOAD PUSH1 0x40 MLOAD DUP1 SWAP2 SUB SWAP1 LOG4 POP POP JUMP JUMPDEST POP JUMP JUMPDEST PUSH1 0x0 PUSH20 0xFFFFFFFFFFFFFFFFFFFFFFFFFFFFFFFFFFFFFFFF AND DUP3 PUSH20 0xFFFFFFFFFFFFFFFFFFFFFFFFFFFFFFFFFFFFFFFF AND SUB PUSH2 0xFC1 JUMPI PUSH1 0x40 MLOAD PUSH32 0x8C379A000000000000000000000000000000000000000000000000000000000 DUP2 MSTORE PUSH1 0x4 ADD PUSH2 0xFB8 SWAP1 PUSH2 0x296D JUMP JUMPDEST PUSH1 0x40 MLOAD DUP1 SWAP2 SUB SWAP1 REVERT JUMPDEST PUSH2 0xFCA DUP2 PUSH2 0x1A04 JUMP JUMPDEST ISZERO PUSH2 0x100A JUMPI PUSH1 0x40 MLOAD PUSH32 0x8C379A000000000000000000000000000000000000000000000000000000000 DUP2 MSTORE PUSH1 0x4 ADD PUSH2 0x1001 SWAP1 PUSH2 0x29D9 JUMP JUMPDEST PUSH1 0x40 MLOAD DUP1 SWAP2 SUB SWAP1 REVERT JUMPDEST PUSH2 0x1018 PUSH1 0x0 DUP4 DUP4 PUSH1 0x1 PUSH2 0x1A45 JUMP JUMPDEST PUSH2 0x1021 DUP2 PUSH2 0x1A04 JUMP JUMPDEST ISZERO PUSH2 0x1061 JUMPI PUSH1 0x40 MLOAD PUSH32 0x8C379A000000000000000000000000000000000000000000000000000000000 DUP2 MSTORE PUSH1 0x4 ADD PUSH2 0x1058 SWAP1 PUSH2 0x29D9 JUMP JUMPDEST PUSH1 0x40 MLOAD DUP1 SWAP2 SUB SWAP1 REVERT JUMPDEST PUSH1 0x1 PUSH1 0x68 PUSH1 0x0 DUP5 PUSH20 0xFFFFFFFFFFFFFFFFFFFFFFFFFFFFFFFFFFFFFFFF AND PUSH20 0xFFFFFFFFFFFFFFFFFFFFFFFFFFFFFFFFFFFFFFFF AND DUP2 MSTORE PUSH1 0x20 ADD SWAP1 DUP2 MSTORE PUSH1 0x20 ADD PUSH1 0x0 KECCAK256 PUSH1 0x0 DUP3 DUP3 SLOAD ADD SWAP3 POP POP DUP2 SWAP1 SSTORE POP DUP2 PUSH1 0x67 PUSH1 0x0 DUP4 DUP2 MSTORE PUSH1 0x20 ADD SWAP1 DUP2 MSTORE PUSH1 0x20 ADD PUSH1 0x0 KECCAK256 PUSH1 0x0 PUSH2 0x100 EXP DUP2 SLOAD DUP2 PUSH20 0xFFFFFFFFFFFFFFFFFFFFFFFFFFFFFFFFFFFFFFFF MUL NOT AND SWAP1 DUP4 PUSH20 0xFFFFFFFFFFFFFFFFFFFFFFFFFFFFFFFFFFFFFFFF AND MUL OR SWAP1 SSTORE POP DUP1 DUP3 PUSH20 0xFFFFFFFFFFFFFFFFFFFFFFFFFFFFFFFFFFFFFFFF AND PUSH1 0x0 PUSH20 0xFFFFFFFFFFFFFFFFFFFFFFFFFFFFFFFFFFFFFFFF AND PUSH32 0xDDF252AD1BE2C89B69C2B068FC378DAA952BA7F163C4A11628F55A4DF523B3EF PUSH1 0x40 MLOAD PUSH1 0x40 MLOAD DUP1 SWAP2 SUB SWAP1 LOG4 PUSH2 0x116B PUSH1 0x0 DUP4 DUP4 PUSH1 0x1 PUSH2 0x1A4B JUMP JUMPDEST POP POP JUMP JUMPDEST PUSH1 0x0 DUP1 PUSH2 0x117B DUP4 PUSH2 0x791 JUMP JUMPDEST SWAP1 POP DUP1 PUSH20 0xFFFFFFFFFFFFFFFFFFFFFFFFFFFFFFFFFFFFFFFF AND DUP5 PUSH20 0xFFFFFFFFFFFFFFFFFFFFFFFFFFFFFFFFFFFFFFFF AND EQ DUP1 PUSH2 0x11BD JUMPI POP PUSH2 0x11BC DUP2 DUP6 PUSH2 0xCC2 JUMP JUMPDEST JUMPDEST DUP1 PUSH2 0x11FB JUMPI POP DUP4 PUSH20 0xFFFFFFFFFFFFFFFFFFFFFFFFFFFFFFFFFFFFFFFF AND PUSH2 0x11E3 DUP5 PUSH2 0x50C JUMP JUMPDEST PUSH20 0xFFFFFFFFFFFFFFFFFFFFFFFFFFFFFFFFFFFFFFFF AND EQ JUMPDEST SWAP2 POP POP SWAP3 SWAP2 POP POP JUMP JUMPDEST DUP3 PUSH20 0xFFFFFFFFFFFFFFFFFFFFFFFFFFFFFFFFFFFFFFFF AND PUSH2 0x1224 DUP3 PUSH2 0x791 JUMP JUMPDEST PUSH20 0xFFFFFFFFFFFFFFFFFFFFFFFFFFFFFFFFFFFFFFFF AND EQ PUSH2 0x127A JUMPI PUSH1 0x40 MLOAD PUSH32 0x8C379A000000000000000000000000000000000000000000000000000000000 DUP2 MSTORE PUSH1 0x4 ADD PUSH2 0x1271 SWAP1 PUSH2 0x2A6B JUMP JUMPDEST PUSH1 0x40 MLOAD DUP1 SWAP2 SUB SWAP1 REVERT JUMPDEST PUSH1 0x0 PUSH20 0xFFFFFFFFFFFFFFFFFFFFFFFFFFFFFFFFFFFFFFFF AND DUP3 PUSH20 0xFFFFFFFFFFFFFFFFFFFFFFFFFFFFFFFFFFFFFFFF AND SUB PUSH2 0x12E9 JUMPI PUSH1 0x40 MLOAD PUSH32 0x8C379A000000000000000000000000000000000000000000000000000000000 DUP2 MSTORE PUSH1 0x4 ADD PUSH2 0x12E0 SWAP1 PUSH2 0x2AFD JUMP JUMPDEST PUSH1 0x40 MLOAD DUP1 SWAP2 SUB SWAP1 REVERT JUMPDEST PUSH2 0x12F6 DUP4 DUP4 DUP4 PUSH1 0x1 PUSH2 0x1A45 JUMP JUMPDEST DUP3 PUSH20 0xFFFFFFFFFFFFFFFFFFFFFFFFFFFFFFFFFFFFFFFF AND PUSH2 0x1316 DUP3 PUSH2 0x791 JUMP JUMPDEST PUSH20 0xFFFFFFFFFFFFFFFFFFFFFFFFFFFFFFFFFFFFFFFF AND EQ PUSH2 0x136C JUMPI PUSH1 0x40 MLOAD PUSH32 0x8C379A000000000000000000000000000000000000000000000000000000000 DUP2 MSTORE PUSH1 0x4 ADD PUSH2 0x1363 SWAP1 PUSH2 0x2A6B JUMP JUMPDEST PUSH1 0x40 MLOAD DUP1 SWAP2 SUB SWAP1 REVERT JUMPDEST PUSH1 0x69 PUSH1 0x0 DUP3 DUP2 MSTORE PUSH1 0x20 ADD SWAP1 DUP2 MSTORE PUSH1 0x20 ADD PUSH1 0x0 KECCAK256 PUSH1 0x0 PUSH2 0x100 EXP DUP2 SLOAD SWAP1 PUSH20 0xFFFFFFFFFFFFFFFFFFFFFFFFFFFFFFFFFFFFFFFF MUL NOT AND SWAP1 SSTORE PUSH1 0x1 PUSH1 0x68 PUSH1 0x0 DUP6 PUSH20 0xFFFFFFFFFFFFFFFFFFFFFFFFFFFFFFFFFFFFFFFF AND PUSH20 0xFFFFFFFFFFFFFFFFFFFFFFFFFFFFFFFFFFFFFFFF AND DUP2 MSTORE PUSH1 0x20 ADD SWAP1 DUP2 MSTORE PUSH1 0x20 ADD PUSH1 0x0 KECCAK256 PUSH1 0x0 DUP3 DUP3 SLOAD SUB SWAP3 POP POP DUP2 SWAP1 SSTORE POP PUSH1 0x1 PUSH1 0x68 PUSH1 0x0 DUP5 PUSH20 0xFFFFFFFFFFFFFFFFFFFFFFFFFFFFFFFFFFFFFFFF AND PUSH20 0xFFFFFFFFFFFFFFFFFFFFFFFFFFFFFFFFFFFFFFFF AND DUP2 MSTORE PUSH1 0x20 ADD SWAP1 DUP2 MSTORE PUSH1 0x20 ADD PUSH1 0x0 KECCAK256 PUSH1 0x0 DUP3 DUP3 SLOAD ADD SWAP3 POP POP DUP2 SWAP1 SSTORE POP DUP2 PUSH1 0x67 PUSH1 0x0 DUP4 DUP2 MSTORE PUSH1 0x20 ADD SWAP1 DUP2 MSTORE PUSH1 0x20 ADD PUSH1 0x0 KECCAK256 PUSH1 0x0 PUSH2 0x100 EXP DUP2 SLOAD DUP2 PUSH20 0xFFFFFFFFFFFFFFFFFFFFFFFFFFFFFFFFFFFFFFFF MUL NOT AND SWAP1 DUP4 PUSH20 0xFFFFFFFFFFFFFFFFFFFFFFFFFFFFFFFFFFFFFFFF AND MUL OR SWAP1 SSTORE POP DUP1 DUP3 PUSH20 0xFFFFFFFFFFFFFFFFFFFFFFFFFFFFFFFFFFFFFFFF AND DUP5 PUSH20 0xFFFFFFFFFFFFFFFFFFFFFFFFFFFFFFFFFFFFFFFF AND PUSH32 0xDDF252AD1BE2C89B69C2B068FC378DAA952BA7F163C4A11628F55A4DF523B3EF PUSH1 0x40 MLOAD PUSH1 0x40 MLOAD DUP1 SWAP2 SUB SWAP1 LOG4 PUSH2 0x14F8 DUP4 DUP4 DUP4 PUSH1 0x1 PUSH2 0x1A4B JUMP JUMPDEST POP POP POP JUMP JUMPDEST PUSH1 0x0 PUSH1 0x67 PUSH1 0x0 DUP4 DUP2 MSTORE PUSH1 0x20 ADD SWAP1 DUP2 MSTORE PUSH1 0x20 ADD PUSH1 0x0 KECCAK256 PUSH1 0x0 SWAP1 SLOAD SWAP1 PUSH2 0x100 EXP SWAP1 DIV PUSH20 0xFFFFFFFFFFFFFFFFFFFFFFFFFFFFFFFFFFFFFFFF AND SWAP1 POP SWAP2 SWAP1 POP JUMP JUMPDEST PUSH2 0x1542 PUSH2 0xE8E JUMP JUMPDEST PUSH20 0xFFFFFFFFFFFFFFFFFFFFFFFFFFFFFFFFFFFFFFFF AND PUSH2 0x1560 PUSH2 0xB20 JUMP JUMPDEST PUSH20 0xFFFFFFFFFFFFFFFFFFFFFFFFFFFFFFFFFFFFFFFF AND EQ PUSH2 0x15B6 JUMPI PUSH1 0x40 MLOAD PUSH32 0x8C379A000000000000000000000000000000000000000000000000000000000 DUP2 MSTORE PUSH1 0x4 ADD PUSH2 0x15AD SWAP1 PUSH2 0x2B69 JUMP JUMPDEST PUSH1 0x40 MLOAD DUP1 SWAP2 SUB SWAP1 REVERT JUMPDEST JUMP JUMPDEST PUSH1 0x0 PUSH1 0x97 PUSH1 0x0 SWAP1 SLOAD SWAP1 PUSH2 0x100 EXP SWAP1 DIV PUSH20 0xFFFFFFFFFFFFFFFFFFFFFFFFFFFFFFFFFFFFFFFF AND SWAP1 POP DUP2 PUSH1 0x97 PUSH1 0x0 PUSH2 0x100 EXP DUP2 SLOAD DUP2 PUSH20 0xFFFFFFFFFFFFFFFFFFFFFFFFFFFFFFFFFFFFFFFF MUL NOT AND SWAP1 DUP4 PUSH20 0xFFFFFFFFFFFFFFFFFFFFFFFFFFFFFFFFFFFFFFFF AND MUL OR SWAP1 SSTORE POP DUP2 PUSH20 0xFFFFFFFFFFFFFFFFFFFFFFFFFFFFFFFFFFFFFFFF AND DUP2 PUSH20 0xFFFFFFFFFFFFFFFFFFFFFFFFFFFFFFFFFFFFFFFF AND PUSH32 0x8BE0079C531659141344CD1FD0A4F28419497F9722A3DAAFE3B4186F6B6457E0 PUSH1 0x40 MLOAD PUSH1 0x40 MLOAD DUP1 SWAP2 SUB SWAP1 LOG3 POP POP JUMP JUMPDEST PUSH1 0x0 DUP1 DUP3 PUSH20 0xFFFFFFFFFFFFFFFFFFFFFFFFFFFFFFFFFFFFFFFF AND EXTCODESIZE GT SWAP1 POP SWAP2 SWAP1 POP JUMP JUMPDEST PUSH1 0x0 PUSH1 0x1 SWAP1 SLOAD SWAP1 PUSH2 0x100 EXP SWAP1 DIV PUSH1 0xFF AND PUSH2 0x16F0 JUMPI PUSH1 0x40 MLOAD PUSH32 0x8C379A000000000000000000000000000000000000000000000000000000000 DUP2 MSTORE PUSH1 0x4 ADD PUSH2 0x16E7 SWAP1 PUSH2 0x2BFB JUMP JUMPDEST PUSH1 0x40 MLOAD DUP1 SWAP2 SUB SWAP1 REVERT JUMPDEST PUSH2 0x16FA DUP3 DUP3 PUSH2 0x1A51 JUMP JUMPDEST POP POP JUMP JUMPDEST PUSH1 0x0 PUSH1 0x1 SWAP1 SLOAD SWAP1 PUSH2 0x100 EXP SWAP1 DIV PUSH1 0xFF AND PUSH2 0x174D JUMPI PUSH1 0x40 MLOAD PUSH32 0x8C379A000000000000000000000000000000000000000000000000000000000 DUP2 MSTORE PUSH1 0x4 ADD PUSH2 0x1744 SWAP1 PUSH2 0x2BFB JUMP JUMPDEST PUSH1 0x40 MLOAD DUP1 SWAP2 SUB SWAP1 REVERT JUMPDEST PUSH2 0x1755 PUSH2 0x1AC4 JUMP JUMPDEST JUMP JUMPDEST DUP2 PUSH20 0xFFFFFFFFFFFFFFFFFFFFFFFFFFFFFFFFFFFFFFFF AND DUP4 PUSH20 0xFFFFFFFFFFFFFFFFFFFFFFFFFFFFFFFFFFFFFFFF AND SUB PUSH2 0x17C5 JUMPI PUSH1 0x40 MLOAD PUSH32 0x8C379A000000000000000000000000000000000000000000000000000000000 DUP2 MSTORE PUSH1 0x4 ADD PUSH2 0x17BC SWAP1 PUSH2 0x2C67 JUMP JUMPDEST PUSH1 0x40 MLOAD DUP1 SWAP2 SUB SWAP1 REVERT JUMPDEST DUP1 PUSH1 0x6A PUSH1 0x0 DUP6 PUSH20 0xFFFFFFFFFFFFFFFFFFFFFFFFFFFFFFFFFFFFFFFF AND PUSH20 0xFFFFFFFFFFFFFFFFFFFFFFFFFFFFFFFFFFFFFFFF AND DUP2 MSTORE PUSH1 0x20 ADD SWAP1 DUP2 MSTORE PUSH1 0x20 ADD PUSH1 0x0 KECCAK256 PUSH1 0x0 DUP5 PUSH20 0xFFFFFFFFFFFFFFFFFFFFFFFFFFFFFFFFFFFFFFFF AND PUSH20 0xFFFFFFFFFFFFFFFFFFFFFFFFFFFFFFFFFFFFFFFF AND DUP2 MSTORE PUSH1 0x20 ADD SWAP1 DUP2 MSTORE PUSH1 0x20 ADD PUSH1 0x0 KECCAK256 PUSH1 0x0 PUSH2 0x100 EXP DUP2 SLOAD DUP2 PUSH1 0xFF MUL NOT AND SWAP1 DUP4 ISZERO ISZERO MUL OR SWAP1 SSTORE POP DUP2 PUSH20 0xFFFFFFFFFFFFFFFFFFFFFFFFFFFFFFFFFFFFFFFF AND DUP4 PUSH20 0xFFFFFFFFFFFFFFFFFFFFFFFFFFFFFFFFFFFFFFFF AND PUSH32 0x17307EAB39AB6107E8899845AD3D59BD9653F200F220920489CA2B5937696C31 DUP4 PUSH1 0x40 MLOAD PUSH2 0x18B6 SWAP2 SWAP1 PUSH2 0x1EB3 JUMP JUMPDEST PUSH1 0x40 MLOAD DUP1 SWAP2 SUB SWAP1 LOG3 POP POP POP JUMP JUMPDEST PUSH2 0x18CE DUP5 DUP5 DUP5 PUSH2 0x1204 JUMP JUMPDEST PUSH2 0x18DA DUP5 DUP5 DUP5 DUP5 PUSH2 0x1B25 JUMP JUMPDEST PUSH2 0x1919 JUMPI PUSH1 0x40 MLOAD PUSH32 0x8C379A000000000000000000000000000000000000000000000000000000000 DUP2 MSTORE PUSH1 0x4 ADD PUSH2 0x1910 SWAP1 PUSH2 0x2CF9 JUMP JUMPDEST PUSH1 0x40 MLOAD DUP1 SWAP2 SUB SWAP1 REVERT JUMPDEST POP POP POP POP JUMP JUMPDEST PUSH1 0x60 PUSH1 0x40 MLOAD DUP1 PUSH1 0x20 ADD PUSH1 0x40 MSTORE DUP1 PUSH1 0x0 DUP2 MSTORE POP SWAP1 POP SWAP1 JUMP JUMPDEST PUSH1 0x60 PUSH1 0x0 PUSH1 0x1 PUSH2 0x1945 DUP5 PUSH2 0x1CAC JUMP JUMPDEST ADD SWAP1 POP PUSH1 0x0 DUP2 PUSH8 0xFFFFFFFFFFFFFFFF DUP2 GT ISZERO PUSH2 0x1964 JUMPI PUSH2 0x1963 PUSH2 0x21CB JUMP JUMPDEST JUMPDEST PUSH1 0x40 MLOAD SWAP1 DUP1 DUP3 MSTORE DUP1 PUSH1 0x1F ADD PUSH1 0x1F NOT AND PUSH1 0x20 ADD DUP3 ADD PUSH1 0x40 MSTORE DUP1 ISZERO PUSH2 0x1996 JUMPI DUP2 PUSH1 0x20 ADD PUSH1 0x1 DUP3 MUL DUP1 CALLDATASIZE DUP4 CALLDATACOPY DUP1 DUP3 ADD SWAP2 POP POP SWAP1 POP JUMPDEST POP SWAP1 POP PUSH1 0x0 DUP3 PUSH1 0x20 ADD DUP3 ADD SWAP1 POP JUMPDEST PUSH1 0x1 ISZERO PUSH2 0x19F9 JUMPI DUP1 DUP1 PUSH1 0x1 SWAP1 SUB SWAP2 POP POP PUSH32 0x3031323334353637383961626364656600000000000000000000000000000000 PUSH1 0xA DUP7 MOD BYTE DUP2 MSTORE8 PUSH1 0xA DUP6 DUP2 PUSH2 0x19ED JUMPI PUSH2 0x19EC PUSH2 0x2D19 JUMP JUMPDEST JUMPDEST DIV SWAP5 POP PUSH1 0x0 DUP6 SUB PUSH2 0x19A4 JUMPI JUMPDEST DUP2 SWAP4 POP POP POP POP SWAP2 SWAP1 POP JUMP JUMPDEST PUSH1 0x0 DUP1 PUSH20 0xFFFFFFFFFFFFFFFFFFFFFFFFFFFFFFFFFFFFFFFF AND PUSH2 0x1A26 DUP4 PUSH2 0x14FD JUMP JUMPDEST PUSH20 0xFFFFFFFFFFFFFFFFFFFFFFFFFFFFFFFFFFFFFFFF AND EQ ISZERO SWAP1 POP SWAP2 SWAP1 POP JUMP JUMPDEST POP POP POP POP JUMP JUMPDEST POP POP POP POP JUMP JUMPDEST PUSH1 0x0 PUSH1 0x1 SWAP1 SLOAD SWAP1 PUSH2 0x100 EXP SWAP1 DIV PUSH1 0xFF AND PUSH2 0x1AA0 JUMPI PUSH1 0x40 MLOAD PUSH32 0x8C379A000000000000000000000000000000000000000000000000000000000 DUP2 MSTORE PUSH1 0x4 ADD PUSH2 0x1A97 SWAP1 PUSH2 0x2BFB JUMP JUMPDEST PUSH1 0x40 MLOAD DUP1 SWAP2 SUB SWAP1 REVERT JUMPDEST DUP2 PUSH1 0x65 SWAP1 DUP2 PUSH2 0x1AAF SWAP2 SWAP1 PUSH2 0x2EEA JUMP JUMPDEST POP DUP1 PUSH1 0x66 SWAP1 DUP2 PUSH2 0x1ABF SWAP2 SWAP1 PUSH2 0x2EEA JUMP JUMPDEST POP POP POP JUMP JUMPDEST PUSH1 0x0 PUSH1 0x1 SWAP1 SLOAD SWAP1 PUSH2 0x100 EXP SWAP1 DIV PUSH1 0xFF AND PUSH2 0x1B13 JUMPI PUSH1 0x40 MLOAD PUSH32 0x8C379A000000000000000000000000000000000000000000000000000000000 DUP2 MSTORE PUSH1 0x4 ADD PUSH2 0x1B0A SWAP1 PUSH2 0x2BFB JUMP JUMPDEST PUSH1 0x40 MLOAD DUP1 SWAP2 SUB SWAP1 REVERT JUMPDEST PUSH2 0x1B23 PUSH2 0x1B1E PUSH2 0xE8E JUMP JUMPDEST PUSH2 0x15B8 JUMP JUMPDEST JUMP JUMPDEST PUSH1 0x0 PUSH2 0x1B46 DUP5 PUSH20 0xFFFFFFFFFFFFFFFFFFFFFFFFFFFFFFFFFFFFFFFF AND PUSH2 0x167E JUMP JUMPDEST ISZERO PUSH2 0x1C9F JUMPI DUP4 PUSH20 0xFFFFFFFFFFFFFFFFFFFFFFFFFFFFFFFFFFFFFFFF AND PUSH4 0x150B7A02 PUSH2 0x1B6F PUSH2 0xE8E JUMP JUMPDEST DUP8 DUP7 DUP7 PUSH1 0x40 MLOAD DUP6 PUSH4 0xFFFFFFFF AND PUSH1 0xE0 SHL DUP2 MSTORE PUSH1 0x4 ADD PUSH2 0x1B91 SWAP5 SWAP4 SWAP3 SWAP2 SWAP1 PUSH2 0x3011 JUMP JUMPDEST PUSH1 0x20 PUSH1 0x40 MLOAD DUP1 DUP4 SUB DUP2 PUSH1 0x0 DUP8 GAS CALL SWAP3 POP POP POP DUP1 ISZERO PUSH2 0x1BCD JUMPI POP PUSH1 0x40 MLOAD RETURNDATASIZE PUSH1 0x1F NOT PUSH1 0x1F DUP3 ADD AND DUP3 ADD DUP1 PUSH1 0x40 MSTORE POP DUP2 ADD SWAP1 PUSH2 0x1BCA SWAP2 SWAP1 PUSH2 0x3072 JUMP JUMPDEST PUSH1 0x1 JUMPDEST PUSH2 0x1C4F JUMPI RETURNDATASIZE DUP1 PUSH1 0x0 DUP2 EQ PUSH2 0x1BFD JUMPI PUSH1 0x40 MLOAD SWAP2 POP PUSH1 0x1F NOT PUSH1 0x3F RETURNDATASIZE ADD AND DUP3 ADD PUSH1 0x40 MSTORE RETURNDATASIZE DUP3 MSTORE RETURNDATASIZE PUSH1 0x0 PUSH1 0x20 DUP5 ADD RETURNDATACOPY PUSH2 0x1C02 JUMP JUMPDEST PUSH1 0x60 SWAP2 POP JUMPDEST POP PUSH1 0x0 DUP2 MLOAD SUB PUSH2 0x1C47 JUMPI PUSH1 0x40 MLOAD PUSH32 0x8C379A000000000000000000000000000000000000000000000000000000000 DUP2 MSTORE PUSH1 0x4 ADD PUSH2 0x1C3E SWAP1 PUSH2 0x2CF9 JUMP JUMPDEST PUSH1 0x40 MLOAD DUP1 SWAP2 SUB SWAP1 REVERT JUMPDEST DUP1 MLOAD DUP2 PUSH1 0x20 ADD REVERT JUMPDEST PUSH4 0x150B7A02 PUSH1 0xE0 SHL PUSH28 0xFFFFFFFFFFFFFFFFFFFFFFFFFFFFFFFFFFFFFFFFFFFFFFFFFFFFFFFF NOT AND DUP2 PUSH28 0xFFFFFFFFFFFFFFFFFFFFFFFFFFFFFFFFFFFFFFFFFFFFFFFFFFFFFFFF NOT AND EQ SWAP2 POP POP PUSH2 0x1CA4 JUMP JUMPDEST PUSH1 0x1 SWAP1 POP JUMPDEST SWAP5 SWAP4 POP POP POP POP JUMP JUMPDEST PUSH1 0x0 DUP1 PUSH1 0x0 SWAP1 POP PUSH27 0x184F03E93FF9F4DAA797ED6E38ED64BF6A1F010000000000000000 DUP4 LT PUSH2 0x1D0A JUMPI PUSH27 0x184F03E93FF9F4DAA797ED6E38ED64BF6A1F010000000000000000 DUP4 DUP2 PUSH2 0x1D00 JUMPI PUSH2 0x1CFF PUSH2 0x2D19 JUMP JUMPDEST JUMPDEST DIV SWAP3 POP PUSH1 0x40 DUP2 ADD SWAP1 POP JUMPDEST PUSH14 0x4EE2D6D415B85ACEF8100000000 DUP4 LT PUSH2 0x1D47 JUMPI PUSH14 0x4EE2D6D415B85ACEF8100000000 DUP4 DUP2 PUSH2 0x1D3D JUMPI PUSH2 0x1D3C PUSH2 0x2D19 JUMP JUMPDEST JUMPDEST DIV SWAP3 POP PUSH1 0x20 DUP2 ADD SWAP1 POP JUMPDEST PUSH7 0x2386F26FC10000 DUP4 LT PUSH2 0x1D76 JUMPI PUSH7 0x2386F26FC10000 DUP4 DUP2 PUSH2 0x1D6C JUMPI PUSH2 0x1D6B PUSH2 0x2D19 JUMP JUMPDEST JUMPDEST DIV SWAP3 POP PUSH1 0x10 DUP2 ADD SWAP1 POP JUMPDEST PUSH4 0x5F5E100 DUP4 LT PUSH2 0x1D9F JUMPI PUSH4 0x5F5E100 DUP4 DUP2 PUSH2 0x1D95 JUMPI PUSH2 0x1D94 PUSH2 0x2D19 JUMP JUMPDEST JUMPDEST DIV SWAP3 POP PUSH1 0x8 DUP2 ADD SWAP1 POP JUMPDEST PUSH2 0x2710 DUP4 LT PUSH2 0x1DC4 JUMPI PUSH2 0x2710 DUP4 DUP2 PUSH2 0x1DBA JUMPI PUSH2 0x1DB9 PUSH2 0x2D19 JUMP JUMPDEST JUMPDEST DIV SWAP3 POP PUSH1 0x4 DUP2 ADD SWAP1 POP JUMPDEST PUSH1 0x64 DUP4 LT PUSH2 0x1DE7 JUMPI PUSH1 0x64 DUP4 DUP2 PUSH2 0x1DDD JUMPI PUSH2 0x1DDC PUSH2 0x2D19 JUMP JUMPDEST JUMPDEST DIV SWAP3 POP PUSH1 0x2 DUP2 ADD SWAP1 POP JUMPDEST PUSH1 0xA DUP4 LT PUSH2 0x1DF6 JUMPI PUSH1 0x1 DUP2 ADD SWAP1 POP JUMPDEST DUP1 SWAP2 POP POP SWAP2 SWAP1 POP JUMP JUMPDEST PUSH1 0x0 PUSH1 0x40 MLOAD SWAP1 POP SWAP1 JUMP JUMPDEST PUSH1 0x0 DUP1 REVERT JUMPDEST PUSH1 0x0 DUP1 REVERT JUMPDEST PUSH1 0x0 PUSH32 0xFFFFFFFF00000000000000000000000000000000000000000000000000000000 DUP3 AND SWAP1 POP SWAP2 SWAP1 POP JUMP JUMPDEST PUSH2 0x1E48 DUP2 PUSH2 0x1E13 JUMP JUMPDEST DUP2 EQ PUSH2 0x1E53 JUMPI PUSH1 0x0 DUP1 REVERT JUMPDEST POP JUMP JUMPDEST PUSH1 0x0 DUP2 CALLDATALOAD SWAP1 POP PUSH2 0x1E65 DUP2 PUSH2 0x1E3F JUMP JUMPDEST SWAP3 SWAP2 POP POP JUMP JUMPDEST PUSH1 0x0 PUSH1 0x20 DUP3 DUP5 SUB SLT ISZERO PUSH2 0x1E81 JUMPI PUSH2 0x1E80 PUSH2 0x1E09 JUMP JUMPDEST JUMPDEST PUSH1 0x0 PUSH2 0x1E8F DUP5 DUP3 DUP6 ADD PUSH2 0x1E56 JUMP JUMPDEST SWAP2 POP POP SWAP3 SWAP2 POP POP JUMP JUMPDEST PUSH1 0x0 DUP2 ISZERO ISZERO SWAP1 POP SWAP2 SWAP1 POP JUMP JUMPDEST PUSH2 0x1EAD DUP2 PUSH2 0x1E98 JUMP JUMPDEST DUP3 MSTORE POP POP JUMP JUMPDEST PUSH1 0x0 PUSH1 0x20 DUP3 ADD SWAP1 POP PUSH2 0x1EC8 PUSH1 0x0 DUP4 ADD DUP5 PUSH2 0x1EA4 JUMP JUMPDEST SWAP3 SWAP2 POP POP JUMP JUMPDEST PUSH1 0x0 DUP2 MLOAD SWAP1 POP SWAP2 SWAP1 POP JUMP JUMPDEST PUSH1 0x0 DUP3 DUP3 MSTORE PUSH1 0x20 DUP3 ADD SWAP1 POP SWAP3 SWAP2 POP POP JUMP JUMPDEST PUSH1 0x0 JUMPDEST DUP4 DUP2 LT ISZERO PUSH2 0x1F08 JUMPI DUP1 DUP3 ADD MLOAD DUP2 DUP5 ADD MSTORE PUSH1 0x20 DUP2 ADD SWAP1 POP PUSH2 0x1EED JUMP JUMPDEST PUSH1 0x0 DUP5 DUP5 ADD MSTORE POP POP POP POP JUMP JUMPDEST PUSH1 0x0 PUSH1 0x1F NOT PUSH1 0x1F DUP4 ADD AND SWAP1 POP SWAP2 SWAP1 POP JUMP JUMPDEST PUSH1 0x0 PUSH2 0x1F30 DUP3 PUSH2 0x1ECE JUMP JUMPDEST PUSH2 0x1F3A DUP2 DUP6 PUSH2 0x1ED9 JUMP JUMPDEST SWAP4 POP PUSH2 0x1F4A DUP2 DUP6 PUSH1 0x20 DUP7 ADD PUSH2 0x1EEA JUMP JUMPDEST PUSH2 0x1F53 DUP2 PUSH2 0x1F14 JUMP JUMPDEST DUP5 ADD SWAP2 POP POP SWAP3 SWAP2 POP POP JUMP JUMPDEST PUSH1 0x0 PUSH1 0x20 DUP3 ADD SWAP1 POP DUP2 DUP2 SUB PUSH1 0x0 DUP4 ADD MSTORE PUSH2 0x1F78 DUP2 DUP5 PUSH2 0x1F25 JUMP JUMPDEST SWAP1 POP SWAP3 SWAP2 POP POP JUMP JUMPDEST PUSH1 0x0 DUP2 SWAP1 POP SWAP2 SWAP1 POP JUMP JUMPDEST PUSH2 0x1F93 DUP2 PUSH2 0x1F80 JUMP JUMPDEST DUP2 EQ PUSH2 0x1F9E JUMPI PUSH1 0x0 DUP1 REVERT JUMPDEST POP JUMP JUMPDEST PUSH1 0x0 DUP2 CALLDATALOAD SWAP1 POP PUSH2 0x1FB0 DUP2 PUSH2 0x1F8A JUMP JUMPDEST SWAP3 SWAP2 POP POP JUMP JUMPDEST PUSH1 0x0 PUSH1 0x20 DUP3 DUP5 SUB SLT ISZERO PUSH2 0x1FCC JUMPI PUSH2 0x1FCB PUSH2 0x1E09 JUMP JUMPDEST JUMPDEST PUSH1 0x0 PUSH2 0x1FDA DUP5 DUP3 DUP6 ADD PUSH2 0x1FA1 JUMP JUMPDEST SWAP2 POP POP SWAP3 SWAP2 POP POP JUMP JUMPDEST PUSH1 0x0 PUSH20 0xFFFFFFFFFFFFFFFFFFFFFFFFFFFFFFFFFFFFFFFF DUP3 AND SWAP1 POP SWAP2 SWAP1 POP JUMP JUMPDEST PUSH1 0x0 PUSH2 0x200E DUP3 PUSH2 0x1FE3 JUMP JUMPDEST SWAP1 POP SWAP2 SWAP1 POP JUMP JUMPDEST PUSH2 0x201E DUP2 PUSH2 0x2003 JUMP JUMPDEST DUP3 MSTORE POP POP JUMP JUMPDEST PUSH1 0x0 PUSH1 0x20 DUP3 ADD SWAP1 POP PUSH2 0x2039 PUSH1 0x0 DUP4 ADD DUP5 PUSH2 0x2015 JUMP JUMPDEST SWAP3 SWAP2 POP POP JUMP JUMPDEST PUSH2 0x2048 DUP2 PUSH2 0x2003 JUMP JUMPDEST DUP2 EQ PUSH2 0x2053 JUMPI PUSH1 0x0 DUP1 REVERT JUMPDEST POP JUMP JUMPDEST PUSH1 0x0 DUP2 CALLDATALOAD SWAP1 POP PUSH2 0x2065 DUP2 PUSH2 0x203F JUMP JUMPDEST SWAP3 SWAP2 POP POP JUMP JUMPDEST PUSH1 0x0 DUP1 PUSH1 0x40 DUP4 DUP6 SUB SLT ISZERO PUSH2 0x2082 JUMPI PUSH2 0x2081 PUSH2 0x1E09 JUMP JUMPDEST JUMPDEST PUSH1 0x0 PUSH2 0x2090 DUP6 DUP3 DUP7 ADD PUSH2 0x2056 JUMP JUMPDEST SWAP3 POP POP PUSH1 0x20 PUSH2 0x20A1 DUP6 DUP3 DUP7 ADD PUSH2 0x1FA1 JUMP JUMPDEST SWAP2 POP POP SWAP3 POP SWAP3 SWAP1 POP JUMP JUMPDEST PUSH2 0x20B4 DUP2 PUSH2 0x1F80 JUMP JUMPDEST DUP3 MSTORE POP POP JUMP JUMPDEST PUSH1 0x0 PUSH1 0x20 DUP3 ADD SWAP1 POP PUSH2 0x20CF PUSH1 0x0 DUP4 ADD DUP5 PUSH2 0x20AB JUMP JUMPDEST SWAP3 SWAP2 POP POP JUMP JUMPDEST PUSH1 0x0 DUP1 PUSH1 0x0 PUSH1 0x60 DUP5 DUP7 SUB SLT ISZERO PUSH2 0x20EE JUMPI PUSH2 0x20ED PUSH2 0x1E09 JUMP JUMPDEST JUMPDEST PUSH1 0x0 PUSH2 0x20FC DUP7 DUP3 DUP8 ADD PUSH2 0x2056 JUMP JUMPDEST SWAP4 POP POP PUSH1 0x20 PUSH2 0x210D DUP7 DUP3 DUP8 ADD PUSH2 0x2056 JUMP JUMPDEST SWAP3 POP POP PUSH1 0x40 PUSH2 0x211E DUP7 DUP3 DUP8 ADD PUSH2 0x1FA1 JUMP JUMPDEST SWAP2 POP POP SWAP3 POP SWAP3 POP SWAP3 JUMP JUMPDEST PUSH1 0x0 PUSH1 0x20 DUP3 DUP5 SUB SLT ISZERO PUSH2 0x213E JUMPI PUSH2 0x213D PUSH2 0x1E09 JUMP JUMPDEST JUMPDEST PUSH1 0x0 PUSH2 0x214C DUP5 DUP3 DUP6 ADD PUSH2 0x2056 JUMP JUMPDEST SWAP2 POP POP SWAP3 SWAP2 POP POP JUMP JUMPDEST PUSH2 0x215E DUP2 PUSH2 0x1E98 JUMP JUMPDEST DUP2 EQ PUSH2 0x2169 JUMPI PUSH1 0x0 DUP1 REVERT JUMPDEST POP JUMP JUMPDEST PUSH1 0x0 DUP2 CALLDATALOAD SWAP1 POP PUSH2 0x217B DUP2 PUSH2 0x2155 JUMP JUMPDEST SWAP3 SWAP2 POP POP JUMP JUMPDEST PUSH1 0x0 DUP1 PUSH1 0x40 DUP4 DUP6 SUB SLT ISZERO PUSH2 0x2198 JUMPI PUSH2 0x2197 PUSH2 0x1E09 JUMP JUMPDEST JUMPDEST PUSH1 0x0 PUSH2 0x21A6 DUP6 DUP3 DUP7 ADD PUSH2 0x2056 JUMP JUMPDEST SWAP3 POP POP PUSH1 0x20 PUSH2 0x21B7 DUP6 DUP3 DUP7 ADD PUSH2 0x216C JUMP JUMPDEST SWAP2 POP POP SWAP3 POP SWAP3 SWAP1 POP JUMP JUMPDEST PUSH1 0x0 DUP1 REVERT JUMPDEST PUSH1 0x0 DUP1 REVERT JUMPDEST PUSH32 0x4E487B7100000000000000000000000000000000000000000000000000000000 PUSH1 0x0 MSTORE PUSH1 0x41 PUSH1 0x4 MSTORE PUSH1 0x24 PUSH1 0x0 REVERT JUMPDEST PUSH2 0x2203 DUP3 PUSH2 0x1F14 JUMP JUMPDEST DUP2 ADD DUP2 DUP2 LT PUSH8 0xFFFFFFFFFFFFFFFF DUP3 GT OR ISZERO PUSH2 0x2222 JUMPI PUSH2 0x2221 PUSH2 0x21CB JUMP JUMPDEST JUMPDEST DUP1 PUSH1 0x40 MSTORE POP POP POP JUMP JUMPDEST PUSH1 0x0 PUSH2 0x2235 PUSH2 0x1DFF JUMP JUMPDEST SWAP1 POP PUSH2 0x2241 DUP3 DUP3 PUSH2 0x21FA JUMP JUMPDEST SWAP2 SWAP1 POP JUMP JUMPDEST PUSH1 0x0 PUSH8 0xFFFFFFFFFFFFFFFF DUP3 GT ISZERO PUSH2 0x2261 JUMPI PUSH2 0x2260 PUSH2 0x21CB JUMP JUMPDEST JUMPDEST PUSH2 0x226A DUP3 PUSH2 0x1F14 JUMP JUMPDEST SWAP1 POP PUSH1 0x20 DUP2 ADD SWAP1 POP SWAP2 SWAP1 POP JUMP JUMPDEST DUP3 DUP2 DUP4 CALLDATACOPY PUSH1 0x0 DUP4 DUP4 ADD MSTORE POP POP POP JUMP JUMPDEST PUSH1 0x0 PUSH2 0x2299 PUSH2 0x2294 DUP5 PUSH2 0x2246 JUMP JUMPDEST PUSH2 0x222B JUMP JUMPDEST SWAP1 POP DUP3 DUP2 MSTORE PUSH1 0x20 DUP2 ADD DUP5 DUP5 DUP5 ADD GT ISZERO PUSH2 0x22B5 JUMPI PUSH2 0x22B4 PUSH2 0x21C6 JUMP JUMPDEST JUMPDEST PUSH2 0x22C0 DUP5 DUP3 DUP6 PUSH2 0x2277 JUMP JUMPDEST POP SWAP4 SWAP3 POP POP POP JUMP JUMPDEST PUSH1 0x0 DUP3 PUSH1 0x1F DUP4 ADD SLT PUSH2 0x22DD JUMPI PUSH2 0x22DC PUSH2 0x21C1 JUMP JUMPDEST JUMPDEST DUP2 CALLDATALOAD PUSH2 0x22ED DUP5 DUP3 PUSH1 0x20 DUP7 ADD PUSH2 0x2286 JUMP JUMPDEST SWAP2 POP POP SWAP3 SWAP2 POP POP JUMP JUMPDEST PUSH1 0x0 DUP1 PUSH1 0x0 DUP1 PUSH1 0x80 DUP6 DUP8 SUB SLT ISZERO PUSH2 0x2310 JUMPI PUSH2 0x230F PUSH2 0x1E09 JUMP JUMPDEST JUMPDEST PUSH1 0x0 PUSH2 0x231E DUP8 DUP3 DUP9 ADD PUSH2 0x2056 JUMP JUMPDEST SWAP5 POP POP PUSH1 0x20 PUSH2 0x232F DUP8 DUP3 DUP9 ADD PUSH2 0x2056 JUMP JUMPDEST SWAP4 POP POP PUSH1 0x40 PUSH2 0x2340 DUP8 DUP3 DUP9 ADD PUSH2 0x1FA1 JUMP JUMPDEST SWAP3 POP POP PUSH1 0x60 DUP6 ADD CALLDATALOAD PUSH8 0xFFFFFFFFFFFFFFFF DUP2 GT ISZERO PUSH2 0x2361 JUMPI PUSH2 0x2360 PUSH2 0x1E0E JUMP JUMPDEST JUMPDEST PUSH2 0x236D DUP8 DUP3 DUP9 ADD PUSH2 0x22C8 JUMP JUMPDEST SWAP2 POP POP SWAP3 SWAP6 SWAP2 SWAP5 POP SWAP3 POP JUMP JUMPDEST PUSH1 0x0 DUP1 PUSH1 0x40 DUP4 DUP6 SUB SLT ISZERO PUSH2 0x2390 JUMPI PUSH2 0x238F PUSH2 0x1E09 JUMP JUMPDEST JUMPDEST PUSH1 0x0 PUSH2 0x239E DUP6 DUP3 DUP7 ADD PUSH2 0x2056 JUMP JUMPDEST SWAP3 POP POP PUSH1 0x20 PUSH2 0x23AF DUP6 DUP3 DUP7 ADD PUSH2 0x2056 JUMP JUMPDEST SWAP2 POP POP SWAP3 POP SWAP3 SWAP1 POP JUMP JUMPDEST PUSH32 0x4E487B7100000000000000000000000000000000000000000000000000000000 PUSH1 0x0 MSTORE PUSH1 0x22 PUSH1 0x4 MSTORE PUSH1 0x24 PUSH1 0x0 REVERT JUMPDEST PUSH1 0x0 PUSH1 0x2 DUP3 DIV SWAP1 POP PUSH1 0x1 DUP3 AND DUP1 PUSH2 0x2400 JUMPI PUSH1 0x7F DUP3 AND SWAP2 POP JUMPDEST PUSH1 0x20 DUP3 LT DUP2 SUB PUSH2 0x2413 JUMPI PUSH2 0x2412 PUSH2 0x23B9 JUMP JUMPDEST JUMPDEST POP SWAP2 SWAP1 POP JUMP JUMPDEST PUSH32 0x4552433732313A20617070726F76616C20746F2063757272656E74206F776E65 PUSH1 0x0 DUP3 ADD MSTORE PUSH32 0x7200000000000000000000000000000000000000000000000000000000000000 PUSH1 0x20 DUP3 ADD MSTORE POP JUMP JUMPDEST PUSH1 0x0 PUSH2 0x2475 PUSH1 0x21 DUP4 PUSH2 0x1ED9 JUMP JUMPDEST SWAP2 POP PUSH2 0x2480 DUP3 PUSH2 0x2419 JUMP JUMPDEST PUSH1 0x40 DUP3 ADD SWAP1 POP SWAP2 SWAP1 POP JUMP JUMPDEST PUSH1 0x0 PUSH1 0x20 DUP3 ADD SWAP1 POP DUP2 DUP2 SUB PUSH1 0x0 DUP4 ADD MSTORE PUSH2 0x24A4 DUP2 PUSH2 0x2468 JUMP JUMPDEST SWAP1 POP SWAP2 SWAP1 POP JUMP JUMPDEST PUSH32 0x4552433732313A20617070726F76652063616C6C6572206973206E6F7420746F PUSH1 0x0 DUP3 ADD MSTORE PUSH32 0x6B656E206F776E6572206F7220617070726F76656420666F7220616C6C000000 PUSH1 0x20 DUP3 ADD MSTORE POP JUMP JUMPDEST PUSH1 0x0 PUSH2 0x2507 PUSH1 0x3D DUP4 PUSH2 0x1ED9 JUMP JUMPDEST SWAP2 POP PUSH2 0x2512 DUP3 PUSH2 0x24AB JUMP JUMPDEST PUSH1 0x40 DUP3 ADD SWAP1 POP SWAP2 SWAP1 POP JUMP JUMPDEST PUSH1 0x0 PUSH1 0x20 DUP3 ADD SWAP1 POP DUP2 DUP2 SUB PUSH1 0x0 DUP4 ADD MSTORE PUSH2 0x2536 DUP2 PUSH2 0x24FA JUMP JUMPDEST SWAP1 POP SWAP2 SWAP1 POP JUMP JUMPDEST PUSH32 0x4E487B7100000000000000000000000000000000000000000000000000000000 PUSH1 0x0 MSTORE PUSH1 0x11 PUSH1 0x4 MSTORE PUSH1 0x24 PUSH1 0x0 REVERT JUMPDEST PUSH1 0x0 PUSH2 0x2577 DUP3 PUSH2 0x1F80 JUMP JUMPDEST SWAP2 POP PUSH2 0x2582 DUP4 PUSH2 0x1F80 JUMP JUMPDEST SWAP3 POP DUP3 DUP3 ADD SWAP1 POP DUP1 DUP3 GT ISZERO PUSH2 0x259A JUMPI PUSH2 0x2599 PUSH2 0x253D JUMP JUMPDEST JUMPDEST SWAP3 SWAP2 POP POP JUMP JUMPDEST PUSH32 0x4552433732313A2063616C6C6572206973206E6F7420746F6B656E206F776E65 PUSH1 0x0 DUP3 ADD MSTORE PUSH32 0x72206F7220617070726F76656400000000000000000000000000000000000000 PUSH1 0x20 DUP3 ADD MSTORE POP JUMP JUMPDEST PUSH1 0x0 PUSH2 0x25FC PUSH1 0x2D DUP4 PUSH2 0x1ED9 JUMP JUMPDEST SWAP2 POP PUSH2 0x2607 DUP3 PUSH2 0x25A0 JUMP JUMPDEST PUSH1 0x40 DUP3 ADD SWAP1 POP SWAP2 SWAP1 POP JUMP JUMPDEST PUSH1 0x0 PUSH1 0x20 DUP3 ADD SWAP1 POP DUP2 DUP2 SUB PUSH1 0x0 DUP4 ADD MSTORE PUSH2 0x262B DUP2 PUSH2 0x25EF JUMP JUMPDEST SWAP1 POP SWAP2 SWAP1 POP JUMP JUMPDEST PUSH32 0x4552433732313A20696E76616C696420746F6B656E2049440000000000000000 PUSH1 0x0 DUP3 ADD MSTORE POP JUMP JUMPDEST PUSH1 0x0 PUSH2 0x2668 PUSH1 0x18 DUP4 PUSH2 0x1ED9 JUMP JUMPDEST SWAP2 POP PUSH2 0x2673 DUP3 PUSH2 0x2632 JUMP JUMPDEST PUSH1 0x20 DUP3 ADD SWAP1 POP SWAP2 SWAP1 POP JUMP JUMPDEST PUSH1 0x0 PUSH1 0x20 DUP3 ADD SWAP1 POP DUP2 DUP2 SUB PUSH1 0x0 DUP4 ADD MSTORE PUSH2 0x2697 DUP2 PUSH2 0x265B JUMP JUMPDEST SWAP1 POP SWAP2 SWAP1 POP JUMP JUMPDEST PUSH32 0x4552433732313A2061646472657373207A65726F206973206E6F742061207661 PUSH1 0x0 DUP3 ADD MSTORE PUSH32 0x6C6964206F776E65720000000000000000000000000000000000000000000000 PUSH1 0x20 DUP3 ADD MSTORE POP JUMP JUMPDEST PUSH1 0x0 PUSH2 0x26FA PUSH1 0x29 DUP4 PUSH2 0x1ED9 JUMP JUMPDEST SWAP2 POP PUSH2 0x2705 DUP3 PUSH2 0x269E JUMP JUMPDEST PUSH1 0x40 DUP3 ADD SWAP1 POP SWAP2 SWAP1 POP JUMP JUMPDEST PUSH1 0x0 PUSH1 0x20 DUP3 ADD SWAP1 POP DUP2 DUP2 SUB PUSH1 0x0 DUP4 ADD MSTORE PUSH2 0x2729 DUP2 PUSH2 0x26ED JUMP JUMPDEST SWAP1 POP SWAP2 SWAP1 POP JUMP JUMPDEST PUSH32 0x496E697469616C697A61626C653A20636F6E747261637420697320616C726561 PUSH1 0x0 DUP3 ADD MSTORE PUSH32 0x647920696E697469616C697A6564000000000000000000000000000000000000 PUSH1 0x20 DUP3 ADD MSTORE POP JUMP JUMPDEST PUSH1 0x0 PUSH2 0x278C PUSH1 0x2E DUP4 PUSH2 0x1ED9 JUMP JUMPDEST SWAP2 POP PUSH2 0x2797 DUP3 PUSH2 0x2730 JUMP JUMPDEST PUSH1 0x40 DUP3 ADD SWAP1 POP SWAP2 SWAP1 POP JUMP JUMPDEST PUSH1 0x0 PUSH1 0x20 DUP3 ADD SWAP1 POP DUP2 DUP2 SUB PUSH1 0x0 DUP4 ADD MSTORE PUSH2 0x27BB DUP2 PUSH2 0x277F JUMP JUMPDEST SWAP1 POP SWAP2 SWAP1 POP JUMP JUMPDEST PUSH1 0x0 DUP2 SWAP1 POP SWAP2 SWAP1 POP JUMP JUMPDEST PUSH1 0x0 PUSH1 0xFF DUP3 AND SWAP1 POP SWAP2 SWAP1 POP JUMP JUMPDEST PUSH1 0x0 DUP2 SWAP1 POP SWAP2 SWAP1 POP JUMP JUMPDEST PUSH1 0x0 PUSH2 0x27FE PUSH2 0x27F9 PUSH2 0x27F4 DUP5 PUSH2 0x27C2 JUMP JUMPDEST PUSH2 0x27D9 JUMP JUMPDEST PUSH2 0x27CC JUMP JUMPDEST SWAP1 POP SWAP2 SWAP1 POP JUMP JUMPDEST PUSH2 0x280E DUP2 PUSH2 0x27E3 JUMP JUMPDEST DUP3 MSTORE POP POP JUMP JUMPDEST PUSH1 0x0 PUSH1 0x20 DUP3 ADD SWAP1 POP PUSH2 0x2829 PUSH1 0x0 DUP4 ADD DUP5 PUSH2 0x2805 JUMP JUMPDEST SWAP3 SWAP2 POP POP JUMP JUMPDEST PUSH1 0x0 DUP2 SWAP1 POP SWAP3 SWAP2 POP POP JUMP JUMPDEST PUSH1 0x0 PUSH2 0x2845 DUP3 PUSH2 0x1ECE JUMP JUMPDEST PUSH2 0x284F DUP2 DUP6 PUSH2 0x282F JUMP JUMPDEST SWAP4 POP PUSH2 0x285F DUP2 DUP6 PUSH1 0x20 DUP7 ADD PUSH2 0x1EEA JUMP JUMPDEST DUP1 DUP5 ADD SWAP2 POP POP SWAP3 SWAP2 POP POP JUMP JUMPDEST PUSH1 0x0 PUSH2 0x2877 DUP3 DUP6 PUSH2 0x283A JUMP JUMPDEST SWAP2 POP PUSH2 0x2883 DUP3 DUP5 PUSH2 0x283A JUMP JUMPDEST SWAP2 POP DUP2 SWAP1 POP SWAP4 SWAP3 POP POP POP JUMP JUMPDEST PUSH32 0x4F776E61626C653A206E6577206F776E657220697320746865207A65726F2061 PUSH1 0x0 DUP3 ADD MSTORE PUSH32 0x6464726573730000000000000000000000000000000000000000000000000000 PUSH1 0x20 DUP3 ADD MSTORE POP JUMP JUMPDEST PUSH1 0x0 PUSH2 0x28EB PUSH1 0x26 DUP4 PUSH2 0x1ED9 JUMP JUMPDEST SWAP2 POP PUSH2 0x28F6 DUP3 PUSH2 0x288F JUMP JUMPDEST PUSH1 0x40 DUP3 ADD SWAP1 POP SWAP2 SWAP1 POP JUMP JUMPDEST PUSH1 0x0 PUSH1 0x20 DUP3 ADD SWAP1 POP DUP2 DUP2 SUB PUSH1 0x0 DUP4 ADD MSTORE PUSH2 0x291A DUP2 PUSH2 0x28DE JUMP JUMPDEST SWAP1 POP SWAP2 SWAP1 POP JUMP JUMPDEST PUSH32 0x4552433732313A206D696E7420746F20746865207A65726F2061646472657373 PUSH1 0x0 DUP3 ADD MSTORE POP JUMP JUMPDEST PUSH1 0x0 PUSH2 0x2957 PUSH1 0x20 DUP4 PUSH2 0x1ED9 JUMP JUMPDEST SWAP2 POP PUSH2 0x2962 DUP3 PUSH2 0x2921 JUMP JUMPDEST PUSH1 0x20 DUP3 ADD SWAP1 POP SWAP2 SWAP1 POP JUMP JUMPDEST PUSH1 0x0 PUSH1 0x20 DUP3 ADD SWAP1 POP DUP2 DUP2 SUB PUSH1 0x0 DUP4 ADD MSTORE PUSH2 0x2986 DUP2 PUSH2 0x294A JUMP JUMPDEST SWAP1 POP SWAP2 SWAP1 POP JUMP JUMPDEST PUSH32 0x4552433732313A20746F6B656E20616C7265616479206D696E74656400000000 PUSH1 0x0 DUP3 ADD MSTORE POP JUMP JUMPDEST PUSH1 0x0 PUSH2 0x29C3 PUSH1 0x1C DUP4 PUSH2 0x1ED9 JUMP JUMPDEST SWAP2 POP PUSH2 0x29CE DUP3 PUSH2 0x298D JUMP JUMPDEST PUSH1 0x20 DUP3 ADD SWAP1 POP SWAP2 SWAP1 POP JUMP JUMPDEST PUSH1 0x0 PUSH1 0x20 DUP3 ADD SWAP1 POP DUP2 DUP2 SUB PUSH1 0x0 DUP4 ADD MSTORE PUSH2 0x29F2 DUP2 PUSH2 0x29B6 JUMP JUMPDEST SWAP1 POP SWAP2 SWAP1 POP JUMP JUMPDEST PUSH32 0x4552433732313A207472616E736665722066726F6D20696E636F727265637420 PUSH1 0x0 DUP3 ADD MSTORE PUSH32 0x6F776E6572000000000000000000000000000000000000000000000000000000 PUSH1 0x20 DUP3 ADD MSTORE POP JUMP JUMPDEST PUSH1 0x0 PUSH2 0x2A55 PUSH1 0x25 DUP4 PUSH2 0x1ED9 JUMP JUMPDEST SWAP2 POP PUSH2 0x2A60 DUP3 PUSH2 0x29F9 JUMP JUMPDEST PUSH1 0x40 DUP3 ADD SWAP1 POP SWAP2 SWAP1 POP JUMP JUMPDEST PUSH1 0x0 PUSH1 0x20 DUP3 ADD SWAP1 POP DUP2 DUP2 SUB PUSH1 0x0 DUP4 ADD MSTORE PUSH2 0x2A84 DUP2 PUSH2 0x2A48 JUMP JUMPDEST SWAP1 POP SWAP2 SWAP1 POP JUMP JUMPDEST PUSH32 0x4552433732313A207472616E7366657220746F20746865207A65726F20616464 PUSH1 0x0 DUP3 ADD MSTORE PUSH32 0x7265737300000000000000000000000000000000000000000000000000000000 PUSH1 0x20 DUP3 ADD MSTORE POP JUMP JUMPDEST PUSH1 0x0 PUSH2 0x2AE7 PUSH1 0x24 DUP4 PUSH2 0x1ED9 JUMP JUMPDEST SWAP2 POP PUSH2 0x2AF2 DUP3 PUSH2 0x2A8B JUMP JUMPDEST PUSH1 0x40 DUP3 ADD SWAP1 POP SWAP2 SWAP1 POP JUMP JUMPDEST PUSH1 0x0 PUSH1 0x20 DUP3 ADD SWAP1 POP DUP2 DUP2 SUB PUSH1 0x0 DUP4 ADD MSTORE PUSH2 0x2B16 DUP2 PUSH2 0x2ADA JUMP JUMPDEST SWAP1 POP SWAP2 SWAP1 POP JUMP JUMPDEST PUSH32 0x4F776E61626C653A2063616C6C6572206973206E6F7420746865206F776E6572 PUSH1 0x0 DUP3 ADD MSTORE POP JUMP JUMPDEST PUSH1 0x0 PUSH2 0x2B53 PUSH1 0x20 DUP4 PUSH2 0x1ED9 JUMP JUMPDEST SWAP2 POP PUSH2 0x2B5E DUP3 PUSH2 0x2B1D JUMP JUMPDEST PUSH1 0x20 DUP3 ADD SWAP1 POP SWAP2 SWAP1 POP JUMP JUMPDEST PUSH1 0x0 PUSH1 0x20 DUP3 ADD SWAP1 POP DUP2 DUP2 SUB PUSH1 0x0 DUP4 ADD MSTORE PUSH2 0x2B82 DUP2 PUSH2 0x2B46 JUMP JUMPDEST SWAP1 POP SWAP2 SWAP1 POP JUMP JUMPDEST PUSH32 0x496E697469616C697A61626C653A20636F6E7472616374206973206E6F742069 PUSH1 0x0 DUP3 ADD MSTORE PUSH32 0x6E697469616C697A696E67000000000000000000000000000000000000000000 PUSH1 0x20 DUP3 ADD MSTORE POP JUMP JUMPDEST PUSH1 0x0 PUSH2 0x2BE5 PUSH1 0x2B DUP4 PUSH2 0x1ED9 JUMP JUMPDEST SWAP2 POP PUSH2 0x2BF0 DUP3 PUSH2 0x2B89 JUMP JUMPDEST PUSH1 0x40 DUP3 ADD SWAP1 POP SWAP2 SWAP1 POP JUMP JUMPDEST PUSH1 0x0 PUSH1 0x20 DUP3 ADD SWAP1 POP DUP2 DUP2 SUB PUSH1 0x0 DUP4 ADD MSTORE PUSH2 0x2C14 DUP2 PUSH2 0x2BD8 JUMP JUMPDEST SWAP1 POP SWAP2 SWAP1 POP JUMP JUMPDEST PUSH32 0x4552433732313A20617070726F766520746F2063616C6C657200000000000000 PUSH1 0x0 DUP3 ADD MSTORE POP JUMP JUMPDEST PUSH1 0x0 PUSH2 0x2C51 PUSH1 0x19 DUP4 PUSH2 0x1ED9 JUMP JUMPDEST SWAP2 POP PUSH2 0x2C5C DUP3 PUSH2 0x2C1B JUMP JUMPDEST PUSH1 0x20 DUP3 ADD SWAP1 POP SWAP2 SWAP1 POP JUMP JUMPDEST PUSH1 0x0 PUSH1 0x20 DUP3 ADD SWAP1 POP DUP2 DUP2 SUB PUSH1 0x0 DUP4 ADD MSTORE PUSH2 0x2C80 DUP2 PUSH2 0x2C44 JUMP JUMPDEST SWAP1 POP SWAP2 SWAP1 POP JUMP JUMPDEST PUSH32 0x4552433732313A207472616E7366657220746F206E6F6E204552433732315265 PUSH1 0x0 DUP3 ADD MSTORE PUSH32 0x63656976657220696D706C656D656E7465720000000000000000000000000000 PUSH1 0x20 DUP3 ADD MSTORE POP JUMP JUMPDEST PUSH1 0x0 PUSH2 0x2CE3 PUSH1 0x32 DUP4 PUSH2 0x1ED9 JUMP JUMPDEST SWAP2 POP PUSH2 0x2CEE DUP3 PUSH2 0x2C87 JUMP JUMPDEST PUSH1 0x40 DUP3 ADD SWAP1 POP SWAP2 SWAP1 POP JUMP JUMPDEST PUSH1 0x0 PUSH1 0x20 DUP3 ADD SWAP1 POP DUP2 DUP2 SUB PUSH1 0x0 DUP4 ADD MSTORE PUSH2 0x2D12 DUP2 PUSH2 0x2CD6 JUMP JUMPDEST SWAP1 POP SWAP2 SWAP1 POP JUMP JUMPDEST PUSH32 0x4E487B7100000000000000000000000000000000000000000000000000000000 PUSH1 0x0 MSTORE PUSH1 0x12 PUSH1 0x4 MSTORE PUSH1 0x24 PUSH1 0x0 REVERT JUMPDEST PUSH1 0x0 DUP2 SWAP1 POP DUP2 PUSH1 0x0 MSTORE PUSH1 0x20 PUSH1 0x0 KECCAK256 SWAP1 POP SWAP2 SWAP1 POP JUMP JUMPDEST PUSH1 0x0 PUSH1 0x20 PUSH1 0x1F DUP4 ADD DIV SWAP1 POP SWAP2 SWAP1 POP JUMP JUMPDEST PUSH1 0x0 DUP3 DUP3 SHL SWAP1 POP SWAP3 SWAP2 POP POP JUMP JUMPDEST PUSH1 0x0 PUSH1 0x8 DUP4 MUL PUSH2 0x2DAA PUSH32 0xFFFFFFFFFFFFFFFFFFFFFFFFFFFFFFFFFFFFFFFFFFFFFFFFFFFFFFFFFFFFFFFF DUP3 PUSH2 0x2D6D JUMP JUMPDEST PUSH2 0x2DB4 DUP7 DUP4 PUSH2 0x2D6D JUMP JUMPDEST SWAP6 POP DUP1 NOT DUP5 AND SWAP4 POP DUP1 DUP7 AND DUP5 OR SWAP3 POP POP POP SWAP4 SWAP3 POP POP POP JUMP JUMPDEST PUSH1 0x0 PUSH2 0x2DE7 PUSH2 0x2DE2 PUSH2 0x2DDD DUP5 PUSH2 0x1F80 JUMP JUMPDEST PUSH2 0x27D9 JUMP JUMPDEST PUSH2 0x1F80 JUMP JUMPDEST SWAP1 POP SWAP2 SWAP1 POP JUMP JUMPDEST PUSH1 0x0 DUP2 SWAP1 POP SWAP2 SWAP1 POP JUMP JUMPDEST PUSH2 0x2E01 DUP4 PUSH2 0x2DCC JUMP JUMPDEST PUSH2 0x2E15 PUSH2 0x2E0D DUP3 PUSH2 0x2DEE JUMP JUMPDEST DUP5 DUP5 SLOAD PUSH2 0x2D7A JUMP JUMPDEST DUP3 SSTORE POP POP POP POP JUMP JUMPDEST PUSH1 0x0 SWAP1 JUMP JUMPDEST PUSH2 0x2E2A PUSH2 0x2E1D JUMP JUMPDEST PUSH2 0x2E35 DUP2 DUP5 DUP5 PUSH2 0x2DF8 JUMP JUMPDEST POP POP POP JUMP JUMPDEST JUMPDEST DUP2 DUP2 LT ISZERO PUSH2 0x2E59 JUMPI PUSH2 0x2E4E PUSH1 0x0 DUP3 PUSH2 0x2E22 JUMP JUMPDEST PUSH1 0x1 DUP2 ADD SWAP1 POP PUSH2 0x2E3B JUMP JUMPDEST POP POP JUMP JUMPDEST PUSH1 0x1F DUP3 GT ISZERO PUSH2 0x2E9E JUMPI PUSH2 0x2E6F DUP2 PUSH2 0x2D48 JUMP JUMPDEST PUSH2 0x2E78 DUP5 PUSH2 0x2D5D JUMP JUMPDEST DUP2 ADD PUSH1 0x20 DUP6 LT ISZERO PUSH2 0x2E87 JUMPI DUP2 SWAP1 POP JUMPDEST PUSH2 0x2E9B PUSH2 0x2E93 DUP6 PUSH2 0x2D5D JUMP JUMPDEST DUP4 ADD DUP3 PUSH2 0x2E3A JUMP JUMPDEST POP POP JUMPDEST POP POP POP JUMP JUMPDEST PUSH1 0x0 DUP3 DUP3 SHR SWAP1 POP SWAP3 SWAP2 POP POP JUMP JUMPDEST PUSH1 0x0 PUSH2 0x2EC1 PUSH1 0x0 NOT DUP5 PUSH1 0x8 MUL PUSH2 0x2EA3 JUMP JUMPDEST NOT DUP1 DUP4 AND SWAP2 POP POP SWAP3 SWAP2 POP POP JUMP JUMPDEST PUSH1 0x0 PUSH2 0x2EDA DUP4 DUP4 PUSH2 0x2EB0 JUMP JUMPDEST SWAP2 POP DUP3 PUSH1 0x2 MUL DUP3 OR SWAP1 POP SWAP3 SWAP2 POP POP JUMP JUMPDEST PUSH2 0x2EF3 DUP3 PUSH2 0x1ECE JUMP JUMPDEST PUSH8 0xFFFFFFFFFFFFFFFF DUP2 GT ISZERO PUSH2 0x2F0C JUMPI PUSH2 0x2F0B PUSH2 0x21CB JUMP JUMPDEST JUMPDEST PUSH2 0x2F16 DUP3 SLOAD PUSH2 0x23E8 JUMP JUMPDEST PUSH2 0x2F21 DUP3 DUP3 DUP6 PUSH2 0x2E5D JUMP JUMPDEST PUSH1 0x0 PUSH1 0x20 SWAP1 POP PUSH1 0x1F DUP4 GT PUSH1 0x1 DUP2 EQ PUSH2 0x2F54 JUMPI PUSH1 0x0 DUP5 ISZERO PUSH2 0x2F42 JUMPI DUP3 DUP8 ADD MLOAD SWAP1 POP JUMPDEST PUSH2 0x2F4C DUP6 DUP3 PUSH2 0x2ECE JUMP JUMPDEST DUP7 SSTORE POP PUSH2 0x2FB4 JUMP JUMPDEST PUSH1 0x1F NOT DUP5 AND PUSH2 0x2F62 DUP7 PUSH2 0x2D48 JUMP JUMPDEST PUSH1 0x0 JUMPDEST DUP3 DUP2 LT ISZERO PUSH2 0x2F8A JUMPI DUP5 DUP10 ADD MLOAD DUP3 SSTORE PUSH1 0x1 DUP3 ADD SWAP2 POP PUSH1 0x20 DUP6 ADD SWAP5 POP PUSH1 0x20 DUP2 ADD SWAP1 POP PUSH2 0x2F65 JUMP JUMPDEST DUP7 DUP4 LT ISZERO PUSH2 0x2FA7 JUMPI DUP5 DUP10 ADD MLOAD PUSH2 0x2FA3 PUSH1 0x1F DUP10 AND DUP3 PUSH2 0x2EB0 JUMP JUMPDEST DUP4 SSTORE POP JUMPDEST PUSH1 0x1 PUSH1 0x2 DUP9 MUL ADD DUP9 SSTORE POP POP POP JUMPDEST POP POP POP POP POP POP JUMP JUMPDEST PUSH1 0x0 DUP2 MLOAD SWAP1 POP SWAP2 SWAP1 POP JUMP JUMPDEST PUSH1 0x0 DUP3 DUP3 MSTORE PUSH1 0x20 DUP3 ADD SWAP1 POP SWAP3 SWAP2 POP POP JUMP JUMPDEST PUSH1 0x0 PUSH2 0x2FE3 DUP3 PUSH2 0x2FBC JUMP JUMPDEST PUSH2 0x2FED DUP2 DUP6 PUSH2 0x2FC7 JUMP JUMPDEST SWAP4 POP PUSH2 0x2FFD DUP2 DUP6 PUSH1 0x20 DUP7 ADD PUSH2 0x1EEA JUMP JUMPDEST PUSH2 0x3006 DUP2 PUSH2 0x1F14 JUMP JUMPDEST DUP5 ADD SWAP2 POP POP SWAP3 SWAP2 POP POP JUMP JUMPDEST PUSH1 0x0 PUSH1 0x80 DUP3 ADD SWAP1 POP PUSH2 0x3026 PUSH1 0x0 DUP4 ADD DUP8 PUSH2 0x2015 JUMP JUMPDEST PUSH2 0x3033 PUSH1 0x20 DUP4 ADD DUP7 PUSH2 0x2015 JUMP JUMPDEST PUSH2 0x3040 PUSH1 0x40 DUP4 ADD DUP6 PUSH2 0x20AB JUMP JUMPDEST DUP2 DUP2 SUB PUSH1 0x60 DUP4 ADD MSTORE PUSH2 0x3052 DUP2 DUP5 PUSH2 0x2FD8 JUMP JUMPDEST SWAP1 POP SWAP6 SWAP5 POP POP POP POP POP JUMP JUMPDEST PUSH1 0x0 DUP2 MLOAD SWAP1 POP PUSH2 0x306C DUP2 PUSH2 0x1E3F JUMP JUMPDEST SWAP3 SWAP2 POP POP JUMP JUMPDEST PUSH1 0x0 PUSH1 0x20 DUP3 DUP5 SUB SLT ISZERO PUSH2 0x3088 JUMPI PUSH2 0x3087 PUSH2 0x1E09 JUMP JUMPDEST JUMPDEST PUSH1 0x0 PUSH2 0x3096 DUP5 DUP3 DUP6 ADD PUSH2 0x305D JUMP JUMPDEST SWAP2 POP POP SWAP3 SWAP2 POP POP JUMP INVALID LOG2 PUSH5 0x6970667358 0x22 SLT KECCAK256 0xD1 0xBC 0x49 ADDMOD 0x4A PUSH32 0x85B191DBCC8F81B144C2CB2F02BBA7D442115DE0CB399F23257E64736F6C6343 STOP ADDMOD LT STOP CALLER "},"methodIdentifiers":{"approve(address,uint256)":"095ea7b3","balanceOf(address)":"70a08231","getApproved(uint256)":"081812fc","initialize()":"8129fc1c","isApprovedForAll(address,address)":"e985e9c5","mint()":"1249c58b","name()":"06fdde03","owner()":"8da5cb5b","ownerOf(uint256)":"6352211e","renounceOwnership()":"715018a6","safeTransferFrom(address,address,uint256)":"42842e0e","safeTransferFrom(address,address,uint256,bytes)":"b88d4fde","setApprovalForAll(address,bool)":"a22cb465","supportsInterface(bytes4)":"01ffc9a7","symbol()":"95d89b41","tokenCounter()":"d082e381","tokenURI(uint256)":"c87b56dd","transferFrom(address,address,uint256)":"23b872dd","transferOwnership(address)":"f2fde38b"}},"storageLayout":{"storage":[{"astId":138,"contract":"contracts/EXTRACONSTRACTS/Joepegs.sol:Joepegs","label":"_initialized","offset":0,"slot":"0","type":"t_uint8"},{"astId":141,"contract":"contracts/EXTRACONSTRACTS/Joepegs.sol:Joepegs","label":"_initializing","offset":1,"slot":"0","type":"t_bool"},{"astId":1738,"contract":"contracts/EXTRACONSTRACTS/Joepegs.sol:Joepegs","label":"__gap","offset":0,"slot":"1","type":"t_array(t_uint256)50_storage"},{"astId":1957,"contract":"contracts/EXTRACONSTRACTS/Joepegs.sol:Joepegs","label":"__gap","offset":0,"slot":"51","type":"t_array(t_uint256)50_storage"},{"astId":329,"contract":"contracts/EXTRACONSTRACTS/Joepegs.sol:Joepegs","label":"_name","offset":0,"slot":"101","type":"t_string_storage"},{"astId":331,"contract":"contracts/EXTRACONSTRACTS/Joepegs.sol:Joepegs","label":"_symbol","offset":0,"slot":"102","type":"t_string_storage"},{"astId":335,"contract":"contracts/EXTRACONSTRACTS/Joepegs.sol:Joepegs","label":"_owners","offset":0,"slot":"103","type":"t_mapping(t_uint256,t_address)"},{"astId":339,"contract":"contracts/EXTRACONSTRACTS/Joepegs.sol:Joepegs","label":"_balances","offset":0,"slot":"104","type":"t_mapping(t_address,t_uint256)"},{"astId":343,"contract":"contracts/EXTRACONSTRACTS/Joepegs.sol:Joepegs","label":"_tokenApprovals","offset":0,"slot":"105","type":"t_mapping(t_uint256,t_address)"},{"astId":349,"contract":"contracts/EXTRACONSTRACTS/Joepegs.sol:Joepegs","label":"_operatorApprovals","offset":0,"slot":"106","type":"t_mapping(t_address,t_mapping(t_address,t_bool))"},{"astId":1251,"contract":"contracts/EXTRACONSTRACTS/Joepegs.sol:Joepegs","label":"__gap","offset":0,"slot":"107","type":"t_array(t_uint256)44_storage"},{"astId":10,"contract":"contracts/EXTRACONSTRACTS/Joepegs.sol:Joepegs","label":"_owner","offset":0,"slot":"151","type":"t_address"},{"astId":130,"contract":"contracts/EXTRACONSTRACTS/Joepegs.sol:Joepegs","label":"__gap","offset":0,"slot":"152","type":"t_array(t_uint256)49_storage"},{"astId":2913,"contract":"contracts/EXTRACONSTRACTS/Joepegs.sol:Joepegs","label":"tokenCounter","offset":0,"slot":"201","type":"t_uint256"}],"types":{"t_address":{"encoding":"inplace","label":"address","numberOfBytes":"20"},"t_array(t_uint256)44_storage":{"base":"t_uint256","encoding":"inplace","label":"uint256[44]","numberOfBytes":"1408"},"t_array(t_uint256)49_storage":{"base":"t_uint256","encoding":"inplace","label":"uint256[49]","numberOfBytes":"1568"},"t_array(t_uint256)50_storage":{"base":"t_uint256","encoding":"inplace","label":"uint256[50]","numberOfBytes":"1600"},"t_bool":{"encoding":"inplace","label":"bool","numberOfBytes":"1"},"t_mapping(t_address,t_bool)":{"encoding":"mapping","key":"t_address","label":"mapping(address => bool)","numberOfBytes":"32","value":"t_bool"},"t_mapping(t_address,t_mapping(t_address,t_bool))":{"encoding":"mapping","key":"t_address","label":"mapping(address => mapping(address => bool))","numberOfBytes":"32","value":"t_mapping(t_address,t_bool)"},"t_mapping(t_address,t_uint256)":{"encoding":"mapping","key":"t_address","label":"mapping(address => uint256)","numberOfBytes":"32","value":"t_uint256"},"t_mapping(t_uint256,t_address)":{"encoding":"mapping","key":"t_uint256","label":"mapping(uint256 => address)","numberOfBytes":"32","value":"t_address"},"t_string_storage":{"encoding":"bytes","label":"string","numberOfBytes":"32"},"t_uint256":{"encoding":"inplace","label":"uint256","numberOfBytes":"32"},"t_uint8":{"encoding":"inplace","label":"uint8","numberOfBytes":"1"}}}}}}