{"contracts/ARF/ArfERC721V1.sol":{"ArfERC721V1":{"abi":[{"anonymous":false,"inputs":[{"indexed":false,"internalType":"address","name":"Owner","type":"address"},{"indexed":false,"internalType":"uint256","name":"EpochId","type":"uint256"},{"indexed":false,"internalType":"uint256","name":"ARC_TokenId","type":"uint256"},{"indexed":false,"internalType":"uint256","name":"ARF_TokenId","type":"uint256"},{"indexed":false,"internalType":"uint256","name":"JoePeg_TokenId","type":"uint256"}],"name":"ARC_ARF_Minted","type":"event"},{"anonymous":false,"inputs":[{"indexed":false,"internalType":"address","name":"Owner","type":"address"},{"indexed":false,"internalType":"uint256","name":"EpochId","type":"uint256"},{"indexed":false,"internalType":"uint256[]","name":"ARC_TokenId","type":"uint256[]"},{"indexed":false,"internalType":"uint256[]","name":"ARF_TokenId","type":"uint256[]"},{"indexed":false,"internalType":"uint256[]","name":"JoePeg_TokenId","type":"uint256[]"}],"name":"ARC_ARF_Minted_Multiple","type":"event"},{"anonymous":false,"inputs":[{"indexed":false,"internalType":"address","name":"Owner","type":"address"},{"indexed":false,"internalType":"uint256","name":"TokenId","type":"uint256"},{"indexed":false,"internalType":"uint256","name":"EpochId","type":"uint256"}],"name":"ARC_Internal_Minted","type":"event"},{"anonymous":false,"inputs":[{"indexed":false,"internalType":"address","name":"Owner","type":"address"},{"indexed":false,"internalType":"uint256","name":"TokenId","type":"uint256"},{"indexed":false,"internalType":"uint256","name":"EpochId","type":"uint256"}],"name":"ARCminted","type":"event"},{"anonymous":false,"inputs":[{"indexed":false,"internalType":"address","name":"Owner","type":"address"},{"indexed":false,"internalType":"uint256","name":"TokenId","type":"uint256"},{"indexed":false,"internalType":"uint256","name":"EpochId","type":"uint256"}],"name":"ARF_Internal_Minted","type":"event"},{"anonymous":false,"inputs":[{"indexed":false,"internalType":"address","name":"Owner","type":"address"},{"indexed":false,"internalType":"uint256","name":"TokenId","type":"uint256"},{"indexed":false,"internalType":"uint256","name":"EpochId","type":"uint256"}],"name":"ARFminted","type":"event"},{"anonymous":false,"inputs":[{"indexed":true,"internalType":"address","name":"owner","type":"address"},{"indexed":true,"internalType":"address","name":"approved","type":"address"},{"indexed":true,"internalType":"uint256","name":"tokenId","type":"uint256"}],"name":"Approval","type":"event"},{"anonymous":false,"inputs":[{"indexed":true,"internalType":"address","name":"owner","type":"address"},{"indexed":true,"internalType":"address","name":"operator","type":"address"},{"indexed":false,"internalType":"bool","name":"approved","type":"bool"}],"name":"ApprovalForAll","type":"event"},{"anonymous":false,"inputs":[{"indexed":false,"internalType":"address","name":"Owner","type":"address"},{"indexed":false,"internalType":"uint256","name":"EpochId","type":"uint256"},{"indexed":false,"internalType":"uint256","name":"ARC_TokenIds","type":"uint256"},{"indexed":false,"internalType":"uint256","name":"ARF_TokenIds","type":"uint256"}],"name":"Eggnite_Minted","type":"event"},{"anonymous":false,"inputs":[{"indexed":false,"internalType":"uint8","name":"version","type":"uint8"}],"name":"Initialized","type":"event"},{"anonymous":false,"inputs":[{"indexed":true,"internalType":"address","name":"previousOwner","type":"address"},{"indexed":true,"internalType":"address","name":"newOwner","type":"address"}],"name":"OwnershipTransferred","type":"event"},{"anonymous":false,"inputs":[{"indexed":false,"internalType":"address","name":"User","type":"address"},{"indexed":false,"internalType":"uint256[]","name":"TokenIds","type":"uint256[]"},{"indexed":false,"internalType":"uint256","name":"EpochId","type":"uint256"},{"indexed":false,"internalType":"uint256","name":"PoolId","type":"uint256"},{"indexed":false,"internalType":"uint256","name":"AvaxPrice","type":"uint256"},{"indexed":false,"internalType":"uint256","name":"NiozPrice","type":"uint256"},{"indexed":false,"internalType":"bool","name":"IsLimited","type":"bool"},{"indexed":false,"internalType":"string","name":"NFTtype","type":"string"}],"name":"PrinterMinted","type":"event"},{"anonymous":false,"inputs":[{"indexed":false,"internalType":"address","name":"PreviousOwner","type":"address"},{"indexed":false,"internalType":"address","name":"NewOwner","type":"address"},{"indexed":false,"internalType":"uint256","name":"Price","type":"uint256"},{"indexed":false,"internalType":"uint256","name":"TokenId","type":"uint256"},{"indexed":false,"internalType":"string","name":"TokenType","type":"string"}],"name":"TokenPurchased","type":"event"},{"anonymous":false,"inputs":[{"indexed":true,"internalType":"address","name":"from","type":"address"},{"indexed":true,"internalType":"address","name":"to","type":"address"},{"indexed":true,"internalType":"uint256","name":"tokenId","type":"uint256"}],"name":"Transfer","type":"event"},{"anonymous":false,"inputs":[{"indexed":false,"internalType":"address[]","name":"Addresses","type":"address[]"},{"indexed":false,"internalType":"bool","name":"Status","type":"bool"}],"name":"WhitelistedARCAddress","type":"event"},{"anonymous":false,"inputs":[{"indexed":false,"internalType":"address[]","name":"Addresses","type":"address[]"},{"indexed":false,"internalType":"bool","name":"Status","type":"bool"}],"name":"WhitelistedARCAlloyTeams","type":"event"},{"anonymous":false,"inputs":[{"indexed":false,"internalType":"address[]","name":"Addresses","type":"address[]"},{"indexed":false,"internalType":"bool","name":"Status","type":"bool"}],"name":"WhitelistedARCReserves","type":"event"},{"anonymous":false,"inputs":[{"indexed":false,"internalType":"address[]","name":"Addresses","type":"address[]"},{"indexed":false,"internalType":"bool","name":"Status","type":"bool"}],"name":"WhitelistedARFAddress","type":"event"},{"anonymous":false,"inputs":[{"indexed":false,"internalType":"address[]","name":"Addresses","type":"address[]"},{"indexed":false,"internalType":"bool","name":"Status","type":"bool"}],"name":"WhitelistedARFAlloyTeams","type":"event"},{"anonymous":false,"inputs":[{"indexed":false,"internalType":"address[]","name":"Addresses","type":"address[]"},{"indexed":false,"internalType":"bool","name":"Status","type":"bool"}],"name":"WhitelistedARFReserves","type":"event"},{"anonymous":false,"inputs":[{"indexed":false,"internalType":"address[]","name":"Addresses","type":"address[]"},{"indexed":false,"internalType":"bool","name":"Status","type":"bool"}],"name":"WhitelistedAddressEggnite","type":"event"},{"inputs":[],"name":"ARCAddress","outputs":[{"internalType":"contract Mintpeg","name":"","type":"address"}],"stateMutability":"view","type":"function"},{"inputs":[{"internalType":"uint256","name":"","type":"uint256"},{"internalType":"uint256","name":"","type":"uint256"}],"name":"FactoryPools","outputs":[{"internalType":"uint256","name":"poolId","type":"uint256"},{"internalType":"uint256","name":"totalQuantityARC","type":"uint256"},{"internalType":"uint256","name":"quantityCounterARC","type":"uint256"},{"internalType":"uint256","name":"NiozPriceARC","type":"uint256"},{"internalType":"uint256","name":"avaxPriceARC","type":"uint256"},{"internalType":"uint256","name":"totalQuantityARF","type":"uint256"},{"internalType":"uint256","name":"quantityCounterARF","type":"uint256"},{"internalType":"uint256","name":"NiozPriceARF","type":"uint256"},{"internalType":"uint256","name":"avaxPriceARF","type":"uint256"}],"stateMutability":"view","type":"function"},{"inputs":[{"internalType":"uint256","name":"_token_id","type":"uint256"}],"name":"Joepegs","outputs":[],"stateMutability":"nonpayable","type":"function"},{"inputs":[{"internalType":"uint256[]","name":"_token_id","type":"uint256[]"}],"name":"JoepegsMultiple","outputs":[],"stateMutability":"nonpayable","type":"function"},{"inputs":[],"name":"JoepegsTokenAddress","outputs":[{"internalType":"contract Mintpeg","name":"","type":"address"}],"stateMutability":"view","type":"function"},{"inputs":[],"name":"MerchantWallet","outputs":[{"internalType":"address","name":"","type":"address"}],"stateMutability":"view","type":"function"},{"inputs":[{"internalType":"uint256","name":"","type":"uint256"}],"name":"NFTtypes","outputs":[{"internalType":"string","name":"","type":"string"}],"stateMutability":"view","type":"function"},{"inputs":[],"name":"NiozERC20Address","outputs":[{"internalType":"contract IERC20Upgradeable","name":"","type":"address"}],"stateMutability":"view","type":"function"},{"inputs":[],"name":"allowedPrinters","outputs":[{"internalType":"uint256","name":"","type":"uint256"}],"stateMutability":"view","type":"function"},{"inputs":[{"internalType":"address","name":"to","type":"address"},{"internalType":"uint256","name":"tokenId","type":"uint256"}],"name":"approve","outputs":[],"stateMutability":"nonpayable","type":"function"},{"inputs":[{"internalType":"address","name":"owner","type":"address"}],"name":"balanceOf","outputs":[{"internalType":"uint256","name":"","type":"uint256"}],"stateMutability":"view","type":"function"},{"inputs":[{"components":[{"internalType":"uint256","name":"Id","type":"uint256"},{"internalType":"uint256","name":"amount","type":"uint256"},{"internalType":"bytes32","name":"messageHash","type":"bytes32"}],"internalType":"struct ArfERC721V1.SellOrder","name":"_order","type":"tuple"},{"internalType":"bytes","name":"_signature","type":"bytes"}],"name":"buy","outputs":[],"stateMutability":"payable","type":"function"},{"inputs":[{"internalType":"uint256","name":"","type":"uint256"}],"name":"checkEpochStatus","outputs":[{"internalType":"bool","name":"","type":"bool"}],"stateMutability":"view","type":"function"},{"inputs":[{"internalType":"uint256","name":"","type":"uint256"}],"name":"epochDetails","outputs":[{"internalType":"uint256","name":"totalQuantityARF","type":"uint256"},{"internalType":"uint256","name":"quantityCounterARF","type":"uint256"},{"internalType":"uint256","name":"totalQuantityARC","type":"uint256"},{"internalType":"uint256","name":"quantityCounterARC","type":"uint256"}],"stateMutability":"view","type":"function"},{"inputs":[{"internalType":"uint256","name":"_total_amount","type":"uint256"}],"name":"feeCalculation","outputs":[{"internalType":"uint256","name":"Fee","type":"uint256"}],"stateMutability":"view","type":"function"},{"inputs":[{"internalType":"uint256","name":"tokenId","type":"uint256"}],"name":"getApproved","outputs":[{"internalType":"address","name":"","type":"address"}],"stateMutability":"view","type":"function"},{"inputs":[],"name":"initialize","outputs":[],"stateMutability":"nonpayable","type":"function"},{"inputs":[{"internalType":"address","name":"owner","type":"address"},{"internalType":"address","name":"operator","type":"address"}],"name":"isApprovedForAll","outputs":[{"internalType":"bool","name":"","type":"bool"}],"stateMutability":"view","type":"function"},{"inputs":[{"internalType":"bytes","name":"","type":"bytes"}],"name":"isVerified","outputs":[{"internalType":"bool","name":"","type":"bool"}],"stateMutability":"view","type":"function"},{"inputs":[],"name":"mintARC","outputs":[],"stateMutability":"nonpayable","type":"function"},{"inputs":[],"name":"mintARF","outputs":[],"stateMutability":"nonpayable","type":"function"},{"inputs":[],"name":"mintEggnite","outputs":[],"stateMutability":"nonpayable","type":"function"},{"inputs":[{"internalType":"uint256","name":"epoch_id","type":"uint256"}],"name":"mintInternalARC","outputs":[],"stateMutability":"nonpayable","type":"function"},{"inputs":[{"internalType":"uint256","name":"epoch_id","type":"uint256"}],"name":"mintInternalARF","outputs":[],"stateMutability":"nonpayable","type":"function"},{"inputs":[{"components":[{"internalType":"uint256","name":"epoch_id","type":"uint256"},{"internalType":"uint256","name":"pool_id","type":"uint256"},{"internalType":"uint256","name":"quantity","type":"uint256"},{"internalType":"bytes32","name":"message_hash","type":"bytes32"}],"internalType":"struct ArfERC721V1.Order","name":"_order","type":"tuple"},{"internalType":"bytes","name":"_signature","type":"bytes"},{"internalType":"bool","name":"isLimited","type":"bool"}],"name":"mintPrinterARF","outputs":[],"stateMutability":"payable","type":"function"},{"inputs":[],"name":"name","outputs":[{"internalType":"string","name":"","type":"string"}],"stateMutability":"view","type":"function"},{"inputs":[],"name":"owner","outputs":[{"internalType":"address","name":"","type":"address"}],"stateMutability":"view","type":"function"},{"inputs":[{"internalType":"uint256","name":"tokenId","type":"uint256"}],"name":"ownerOf","outputs":[{"internalType":"address","name":"","type":"address"}],"stateMutability":"view","type":"function"},{"inputs":[],"name":"renounceOwnership","outputs":[],"stateMutability":"nonpayable","type":"function"},{"inputs":[{"internalType":"address","name":"from","type":"address"},{"internalType":"address","name":"to","type":"address"},{"internalType":"uint256","name":"tokenId","type":"uint256"}],"name":"safeTransferFrom","outputs":[],"stateMutability":"nonpayable","type":"function"},{"inputs":[{"internalType":"address","name":"from","type":"address"},{"internalType":"address","name":"to","type":"address"},{"internalType":"uint256","name":"tokenId","type":"uint256"},{"internalType":"bytes","name":"data","type":"bytes"}],"name":"safeTransferFrom","outputs":[],"stateMutability":"nonpayable","type":"function"},{"inputs":[{"internalType":"address","name":"operator","type":"address"},{"internalType":"bool","name":"approved","type":"bool"}],"name":"setApprovalForAll","outputs":[],"stateMutability":"nonpayable","type":"function"},{"inputs":[{"internalType":"bytes4","name":"interfaceId","type":"bytes4"}],"name":"supportsInterface","outputs":[{"internalType":"bool","name":"","type":"bool"}],"stateMutability":"view","type":"function"},{"inputs":[],"name":"symbol","outputs":[{"internalType":"string","name":"","type":"string"}],"stateMutability":"view","type":"function"},{"inputs":[],"name":"tokenCounter","outputs":[{"internalType":"uint256","name":"","type":"uint256"}],"stateMutability":"view","type":"function"},{"inputs":[{"internalType":"uint256","name":"_tokenId","type":"uint256"}],"name":"tokenURI","outputs":[{"internalType":"string","name":"","type":"string"}],"stateMutability":"view","type":"function"},{"inputs":[{"internalType":"address","name":"from","type":"address"},{"internalType":"address","name":"to","type":"address"},{"internalType":"uint256","name":"tokenId","type":"uint256"}],"name":"transferFrom","outputs":[],"stateMutability":"nonpayable","type":"function"},{"inputs":[{"internalType":"address","name":"newOwner","type":"address"}],"name":"transferOwnership","outputs":[],"stateMutability":"nonpayable","type":"function"},{"inputs":[{"internalType":"string","name":"_baseuri","type":"string"},{"internalType":"string","name":"_extension","type":"string"}],"name":"upadateDefaultUri","outputs":[],"stateMutability":"nonpayable","type":"function"},{"inputs":[{"internalType":"uint256","name":"_epoch_id","type":"uint256"},{"internalType":"uint256[]","name":"_pool_id","type":"uint256[]"},{"internalType":"uint256[]","name":"_quantity_arf","type":"uint256[]"},{"internalType":"uint256[]","name":"_avax_price","type":"uint256[]"},{"internalType":"uint256[]","name":"_Nioz_price","type":"uint256[]"}],"name":"updateARCPoolDetails","outputs":[],"stateMutability":"nonpayable","type":"function"},{"inputs":[{"internalType":"uint256","name":"_epoch_id","type":"uint256"},{"internalType":"uint256[]","name":"_pool_id","type":"uint256[]"},{"internalType":"uint256[]","name":"_quantity_arf","type":"uint256[]"},{"internalType":"uint256[]","name":"_avax_price","type":"uint256[]"},{"internalType":"uint256[]","name":"_Nioz_price","type":"uint256[]"}],"name":"updateARFPoolDetails","outputs":[],"stateMutability":"nonpayable","type":"function"},{"inputs":[{"internalType":"uint256","name":"epoch_id","type":"uint256"},{"internalType":"uint256","name":"pool_id","type":"uint256"},{"internalType":"uint256","name":"quantity","type":"uint256"}],"name":"updateCounter","outputs":[],"stateMutability":"nonpayable","type":"function"},{"inputs":[{"internalType":"uint256[]","name":"_epoch_id","type":"uint256[]"},{"internalType":"uint256[]","name":"_quantity_arc","type":"uint256[]"},{"internalType":"uint256[]","name":"_quantity_arf","type":"uint256[]"}],"name":"updateEpochDetails","outputs":[],"stateMutability":"nonpayable","type":"function"},{"inputs":[{"internalType":"uint256[]","name":"_epoch_id","type":"uint256[]"},{"internalType":"bool","name":"_status","type":"bool"}],"name":"updateEpochStatus","outputs":[],"stateMutability":"nonpayable","type":"function"},{"inputs":[{"internalType":"address","name":"_joepeg_address","type":"address"},{"internalType":"address","name":"_arc_address","type":"address"},{"internalType":"address","name":"_merchant_address","type":"address"},{"internalType":"address","name":"_Nioz_address","type":"address"},{"internalType":"uint256","name":"_num_allowed","type":"uint256"}],"name":"updateWallets","outputs":[],"stateMutability":"nonpayable","type":"function"},{"inputs":[{"internalType":"address[]","name":"_address","type":"address[]"},{"internalType":"bool","name":"_status","type":"bool"}],"name":"whitelistARCAddresses","outputs":[],"stateMutability":"nonpayable","type":"function"},{"inputs":[{"internalType":"address[]","name":"_address","type":"address[]"},{"internalType":"bool","name":"_status","type":"bool"}],"name":"whitelistARCAlloyTeam","outputs":[],"stateMutability":"nonpayable","type":"function"},{"inputs":[{"internalType":"address[]","name":"_address","type":"address[]"},{"internalType":"bool","name":"_status","type":"bool"}],"name":"whitelistARCReserves","outputs":[],"stateMutability":"nonpayable","type":"function"},{"inputs":[{"internalType":"address[]","name":"_address","type":"address[]"},{"internalType":"bool","name":"_status","type":"bool"}],"name":"whitelistARFAddresses","outputs":[],"stateMutability":"nonpayable","type":"function"},{"inputs":[{"internalType":"address[]","name":"_address","type":"address[]"},{"internalType":"bool","name":"_status","type":"bool"}],"name":"whitelistARFAlloyTeam","outputs":[],"stateMutability":"nonpayable","type":"function"},{"inputs":[{"internalType":"address[]","name":"_address","type":"address[]"},{"internalType":"bool","name":"_status","type":"bool"}],"name":"whitelistARFReserves","outputs":[],"stateMutability":"nonpayable","type":"function"},{"inputs":[{"internalType":"address[]","name":"_address","type":"address[]"},{"internalType":"bool","name":"_status","type":"bool"}],"name":"whitelistAddressesEggnite","outputs":[],"stateMutability":"nonpayable","type":"function"},{"inputs":[{"internalType":"address","name":"","type":"address"}],"name":"whitelistedARCAddress","outputs":[{"internalType":"bool","name":"","type":"bool"}],"stateMutability":"view","type":"function"},{"inputs":[{"internalType":"address","name":"","type":"address"}],"name":"whitelistedARCAlloyTeam","outputs":[{"internalType":"bool","name":"","type":"bool"}],"stateMutability":"view","type":"function"},{"inputs":[{"internalType":"address","name":"","type":"address"}],"name":"whitelistedARCReserve","outputs":[{"internalType":"bool","name":"","type":"bool"}],"stateMutability":"view","type":"function"},{"inputs":[{"internalType":"address","name":"","type":"address"}],"name":"whitelistedARFAddress","outputs":[{"internalType":"bool","name":"","type":"bool"}],"stateMutability":"view","type":"function"},{"inputs":[{"internalType":"address","name":"","type":"address"}],"name":"whitelistedARFAlloyTeam","outputs":[{"internalType":"bool","name":"","type":"bool"}],"stateMutability":"view","type":"function"},{"inputs":[{"internalType":"address","name":"","type":"address"}],"name":"whitelistedARFReserve","outputs":[{"internalType":"bool","name":"","type":"bool"}],"stateMutability":"view","type":"function"},{"inputs":[{"internalType":"address","name":"","type":"address"}],"name":"whitelistedAddressEggnite","outputs":[{"internalType":"bool","name":"","type":"bool"}],"stateMutability":"view","type":"function"}],"evm":{"bytecode":{"linkReferences":{},"object":"60806040523480156200001157600080fd5b5061af9780620000226000396000f3fe60806040526004361061038b5760003560e01c80637ebededb116101dc578063c87b56dd11610102578063dbd419ed116100a0578063ec4370381161006f578063ec43703814610d82578063ecc228ce14610dbf578063edda705914610dd6578063f2fde38b14610dff5761038b565b8063dbd419ed14610cb3578063e329cf7b14610cdc578063e561084f14610d1c578063e985e9c514610d455761038b565b8063cb73bff1116100dc578063cb73bff114610bf7578063d082e38114610c22578063d87df9e214610c4d578063db0a488214610c8a5761038b565b8063c87b56dd14610b54578063c8d5c0e214610b91578063c994180614610bba5761038b565b806395d89b411161017a578063a22cb46511610149578063a22cb46514610a9c578063a7397c2e14610ac5578063b88d4fde14610aee578063c3e50abb14610b175761038b565b806395d89b41146109f657806397c04edb14610a2157806399c37a1f14610a4a5780639ddb234c14610a735761038b565b80638e6b86cb116101b65780638e6b86cb1461095d578063937091091461099a5780639401c1e4146109b15780639533d573146109cd5761038b565b80637ebededb146108f25780638129fc1c1461091b5780638da5cb5b146109325761038b565b806332a5b0aa116102c157806363a205f71161025f5780636ef1eee41161022e5780636ef1eee41461084857806370a0823114610873578063715018a6146108b05780637dd12d15146108c75761038b565b806363a205f7146107685780636c7b7f6c146107915780636d998f01146107ce5780636eda504e1461080b5761038b565b806342842e0e1161029b57806342842e0e146106b05780635d952d25146106d957806361ffc012146107025780636352211e1461072b5761038b565b806332a5b0aa1461061f578063399b3798146106485780633a988498146106735761038b565b806310a6d1341161032e57806319d17e511161030857806319d17e51146105375780631a924fd51461057457806323b872dd146105b95780632c7d077e146105e25761038b565b806310a6d134146104ce57806313de306a146104f75780631424f9361461050e5761038b565b806306fdde031161036a57806306fdde0314610412578063081812fc1461043d578063095ea7b31461047a5780630c53efe6146104a35761038b565b80621640c21461039057806301ffc9a7146103b957806303ecaa95146103f6575b600080fd5b34801561039c57600080fd5b506103b760048036038101906103b29190618434565b610e28565b005b3480156103c557600080fd5b506103e060048036038101906103db9190618588565b61108d565b6040516103ed91906185d0565b60405180910390f35b610410600480360381019061040b919061877c565b61116f565b005b34801561041e57600080fd5b50610427611e37565b604051610434919061886a565b60405180910390f35b34801561044957600080fd5b50610464600480360381019061045f919061888c565b611ec9565b60405161047191906188fa565b60405180910390f35b34801561048657600080fd5b506104a1600480360381019061049c9190618941565b611f0f565b005b3480156104af57600080fd5b506104b8612026565b6040516104c59190618990565b60405180910390f35b3480156104da57600080fd5b506104f560048036038101906104f091906189ab565b61202d565b005b34801561050357600080fd5b5061050c61285f565b005b34801561051a57600080fd5b5061053560048036038101906105309190618a4e565b612cfe565b005b34801561054357600080fd5b5061055e60048036038101906105599190618aae565b612e87565b60405161056b91906185d0565b60405180910390f35b34801561058057600080fd5b5061059b60048036038101906105969190618adb565b612ea8565b6040516105b099989796959493929190618b1b565b60405180910390f35b3480156105c557600080fd5b506105e060048036038101906105db9190618ba8565b612f04565b005b3480156105ee57600080fd5b506106096004803603810190610604919061888c565b612f64565b6040516106169190618990565b60405180910390f35b34801561062b57600080fd5b506106466004803603810190610641919061888c565b61303f565b005b34801561065457600080fd5b5061065d61364e565b60405161066a9190618c5a565b60405180910390f35b34801561067f57600080fd5b5061069a6004803603810190610695919061888c565b613675565b6040516106a791906185d0565b60405180910390f35b3480156106bc57600080fd5b506106d760048036038101906106d29190618ba8565b613695565b005b3480156106e557600080fd5b5061070060048036038101906106fb9190618a4e565b6136b5565b005b34801561070e57600080fd5b5061072960048036038101906107249190618434565b61383e565b005b34801561073757600080fd5b50610752600480360381019061074d919061888c565b613aa3565b60405161075f91906188fa565b60405180910390f35b34801561077457600080fd5b5061078f600480360381019061078a919061888c565b613b29565b005b34801561079d57600080fd5b506107b860048036038101906107b39190618aae565b6140cf565b6040516107c591906185d0565b60405180910390f35b3480156107da57600080fd5b506107f560048036038101906107f0919061888c565b6140f0565b604051610802919061886a565b60405180910390f35b34801561081757600080fd5b50610832600480360381019061082d9190618aae565b614191565b60405161083f91906185d0565b60405180910390f35b34801561085457600080fd5b5061085d6141b2565b60405161086a9190618c5a565b60405180910390f35b34801561087f57600080fd5b5061089a60048036038101906108959190618aae565b6141d9565b6040516108a79190618990565b60405180910390f35b3480156108bc57600080fd5b506108c5614290565b005b3480156108d357600080fd5b506108dc6142a4565b6040516108e991906188fa565b60405180910390f35b3480156108fe57600080fd5b5061091960048036038101906109149190618c75565b6142cb565b005b34801561092757600080fd5b50610930614423565b005b34801561093e57600080fd5b50610947614b40565b60405161095491906188fa565b60405180910390f35b34801561096957600080fd5b50610984600480360381019061097f9190618aae565b614b6a565b60405161099191906185d0565b60405180910390f35b3480156109a657600080fd5b506109af614b8b565b005b6109cb60048036038101906109c69190618dc8565b614f48565b005b3480156109d957600080fd5b506109f460048036038101906109ef9190618a4e565b6154df565b005b348015610a0257600080fd5b50610a0b615668565b604051610a18919061886a565b60405180910390f35b348015610a2d57600080fd5b50610a486004803603810190610a439190618ec5565b6156fa565b005b348015610a5657600080fd5b50610a716004803603810190610a6c9190618f3d565b61578a565b005b348015610a7f57600080fd5b50610a9a6004803603810190610a959190618a4e565b615949565b005b348015610aa857600080fd5b50610ac36004803603810190610abe9190618fb8565b615ad2565b005b348015610ad157600080fd5b50610aec6004803603810190610ae79190618a4e565b615ae8565b005b348015610afa57600080fd5b50610b156004803603810190610b109190618ff8565b615c71565b005b348015610b2357600080fd5b50610b3e6004803603810190610b399190618aae565b615cd3565b604051610b4b91906185d0565b60405180910390f35b348015610b6057600080fd5b50610b7b6004803603810190610b76919061888c565b615cf4565b604051610b88919061886a565b60405180910390f35b348015610b9d57600080fd5b50610bb86004803603810190610bb39190618a4e565b615dff565b005b348015610bc657600080fd5b50610be16004803603810190610bdc919061907b565b615f88565b604051610bee91906185d0565b60405180910390f35b348015610c0357600080fd5b50610c0c615fbf565b604051610c1991906190e5565b60405180910390f35b348015610c2e57600080fd5b50610c37615fe6565b604051610c449190618990565b60405180910390f35b348015610c5957600080fd5b50610c746004803603810190610c6f9190618aae565b615fec565b604051610c8191906185d0565b60405180910390f35b348015610c9657600080fd5b50610cb16004803603810190610cac9190618a4e565b61600d565b005b348015610cbf57600080fd5b50610cda6004803603810190610cd5919061888c565b616196565b005b348015610ce857600080fd5b50610d036004803603810190610cfe919061888c565b6167b8565b604051610d139493929190619100565b60405180910390f35b348015610d2857600080fd5b50610d436004803603810190610d3e9190619145565b6167e8565b005b348015610d5157600080fd5b50610d6c6004803603810190610d679190619198565b616976565b604051610d7991906185d0565b60405180910390f35b348015610d8e57600080fd5b50610da96004803603810190610da49190618aae565b616a0a565b604051610db691906185d0565b60405180910390f35b348015610dcb57600080fd5b50610dd4616a2b565b005b348015610de257600080fd5b50610dfd6004803603810190610df891906191d8565b616d80565b005b348015610e0b57600080fd5b50610e266004803603810190610e219190618aae565b616e6b565b005b610e3c67f460618a769d82f460c01b616eee565b610e44616ef1565b610e5867786236b3a5779d1e60c01b616eee565b610e6c67f589009373053c0d60c01b616eee565b610e80670d95bde4b89a9bf060c01b616eee565b610e9467c15065507d35a7a460c01b616eee565b60005b8888905081101561108157610eb6670b17834eb62453f460c01b616eee565b888882818110610ec957610ec8619238565b5b9050602002013561010960008c815260200190815260200160002060008b8b85818110610ef957610ef8619238565b5b90506020020135815260200190815260200160002060000181905550610f2967fcf8d62d58b9fc3560c01b616eee565b868682818110610f3c57610f3b619238565b5b9050602002013561010960008c815260200190815260200160002060008b8b85818110610f6c57610f6b619238565b5b90506020020135815260200190815260200160002060010181905550610f9c67eae0954207c0a50460c01b616eee565b848482818110610faf57610fae619238565b5b9050602002013561010960008c815260200190815260200160002060008b8b85818110610fdf57610fde619238565b5b9050602002013581526020019081526020016000206004018190555061100f6780f25a8e341ef82a60c01b616eee565b82828281811061102257611021619238565b5b9050602002013561010960008c815260200190815260200160002060008b8b8581811061105257611051619238565b5b90506020020135815260200190815260200160002060030181905550808061107990619296565b915050610e97565b50505050505050505050565b60007f80ac58cd000000000000000000000000000000000000000000000000000000007bffffffffffffffffffffffffffffffffffffffffffffffffffffffff1916827bffffffffffffffffffffffffffffffffffffffffffffffffffffffff1916148061115857507f5b5e139f000000000000000000000000000000000000000000000000000000007bffffffffffffffffffffffffffffffffffffffffffffffffffffffff1916827bffffffffffffffffffffffffffffffffffffffffffffffffffffffff1916145b80611168575061116782616f6f565b5b9050919050565b61118367d69dccebfbf220d960c01b616eee565b61118b616fd9565b61119f6721ffd2181bc9e94b60c01b616eee565b6111b26649bd3b1836b8bd60c01b616eee565b6111c6670fe9d27cfe505b0d60c01b616eee565b6111da67c0889d2932af7e7960c01b616eee565b6111ee67d8ae535435b3aa7460c01b616eee565b6112046111f9614b40565b846060013584617028565b801561123a575061010b8260405161121c9190619325565b908152602001604051809103902060009054906101000a900460ff16155b80156112e0575061010d60009054906101000a900473ffffffffffffffffffffffffffffffffffffffff1673ffffffffffffffffffffffffffffffffffffffff1663c9941806836040518263ffffffff1660e01b815260040161129d9190619386565b602060405180830381865afa1580156112ba573d6000803e3d6000fd5b505050506040513d601f19601f820116820180604052508101906112de91906193bd565b155b8015611386575061010160009054906101000a900473ffffffffffffffffffffffffffffffffffffffff1673ffffffffffffffffffffffffffffffffffffffff1663c9941806836040518263ffffffff1660e01b81526004016113439190619386565b602060405180830381865afa158015611360573d6000803e3d6000fd5b505050506040513d601f19601f8201168201806040525081019061138491906193bd565b155b6113c5576040517f08c379a00000000000000000000000000000000000000000000000000000000081526004016113bc90619436565b60405180910390fd5b6113d9677abb46932096052c60c01b616eee565b6113ed67d79886a16959fe1860c01b616eee565b61140167ba7494dfb877332360c01b616eee565b61141567a965d8c65fd8ba1060c01b616eee565b60ff60008460000135815260200190815260200160002060009054906101000a900460ff1680156114895750826040013560fe6000856000013581526020019081526020016000206001015461146b9190619456565b60fe6000856000013581526020019081526020016000206000015410155b80156115275750600683600001351480156114b457506114b3670cf4910eaa1b3f9e60c01b6171ee565b5b806114fb5750600783600001351480156114de57506114dd6712635277c999b14f60c01b6171ee565b5b80156114fa57506114f9677d0eb805f261f9bc60c01b6171ee565b5b5b80611526575060088360000135148015611525575061152467b76b0d7de96b115d60c01b6171ee565b5b5b5b80156115935750610109600084600001358152602001908152602001600020600084602001358152602001908152602001600020600601546101096000856000013581526020019081526020016000206000856020013581526020019081526020016000206005015410155b6115d2576040517f08c379a00000000000000000000000000000000000000000000000000000000081526004016115c9906194fc565b60405180910390fd5b6115e66751b16e75798a819560c01b616eee565b6115fa67d49eb49266f7bc6f60c01b616eee565b61160e673c8053d67521d5e660c01b616eee565b606061162467bc17a95006fee79a60c01b616eee565b611638676f79deedbc40db7a60c01b616eee565b61164c6788ede41194baef7860c01b616eee565b61010c5484604001351115611696576040517f08c379a000000000000000000000000000000000000000000000000000000000815260040161168d90619568565b60405180910390fd5b6116aa67fedd81b5c7200d5660c01b616eee565b6116be676ec5a4b66b9b913160c01b616eee565b836040013567ffffffffffffffff8111156116dc576116db618625565b5b60405190808252806020026020018201604052801561170a5781602001602082028036833780820191505090505b5090506117216740b662fb05fcbca260c01b616eee565b61173567afdebcfea51ed5c860c01b616eee565b60005b846040013581101561185c5761175867f9a6da5ed974c18560c01b616eee565b600160fb600082825461176b9190619456565b925050819055506117866703ef4a7c9c33677560c01b616eee565b6040518060400160405280600781526020017f5052494e5445520000000000000000000000000000000000000000000000000081525061010a600060fb54815260200190815260200160002090816117de919061978a565b506117f367b3f5cfc9586524b760c01b616eee565b61180767b7879f32a947d1bd60c01b616eee565b6118133360fb546171f9565b61182767742f93212885d6dc60c01b616eee565b60fb5482828151811061183d5761183c619238565b5b602002602001018181525050808061185490619296565b915050611738565b50611871670a9f964f69a3c5a460c01b616eee565b61188567343848ee4cf5126960c01b616eee565b61010e60009054906101000a900473ffffffffffffffffffffffffffffffffffffffff1673ffffffffffffffffffffffffffffffffffffffff166108fc349081150290604051600060405180830381858888f193505050501580156118ee573d6000803e3d6000fd5b5061190367b988e3d26c2536df60c01b616eee565b6119176781962001491ca2d560c01b616eee565b6000610109600086600001358152602001908152602001600020600086602001358152602001908152602001600020600301541115611c7d5761196467fe0f64c70b0713fc60c01b616eee565b61197867b7872ecb2655b90a60c01b616eee565b61198c67322431d1b0f96b7a60c01b616eee565b61010d60009054906101000a900473ffffffffffffffffffffffffffffffffffffffff1673ffffffffffffffffffffffffffffffffffffffff1663d1660f993330610109600089600001358152602001908152602001600020600089602001358152602001908152602001600020600701546040518463ffffffff1660e01b8152600401611a1c9392919061985c565b600060405180830381600087803b158015611a3657600080fd5b505af1158015611a4a573d6000803e3d6000fd5b50505050611a6267e372c9e551e4ac9860c01b616eee565b611a766780bdfd8d72651c7e60c01b616eee565b61010d60009054906101000a900473ffffffffffffffffffffffffffffffffffffffff1673ffffffffffffffffffffffffffffffffffffffff1663095ea7b361010e60009054906101000a900473ffffffffffffffffffffffffffffffffffffffff16610109600088600001358152602001908152602001600020600088602001358152602001908152602001600020600701546040518363ffffffff1660e01b8152600401611b27929190619893565b6020604051808303816000875af1158015611b46573d6000803e3d6000fd5b505050506040513d601f19601f82011682018060405250810190611b6a91906193bd565b50611b7f67e3deabf9e0eb988560c01b616eee565b611b93670255802ac8473ac760c01b616eee565b61010d60009054906101000a900473ffffffffffffffffffffffffffffffffffffffff1673ffffffffffffffffffffffffffffffffffffffff1663d1660f993061010e60009054906101000a900473ffffffffffffffffffffffffffffffffffffffff16610109600089600001358152602001908152602001600020600089602001358152602001908152602001600020600301546040518463ffffffff1660e01b8152600401611c469392919061985c565b600060405180830381600087803b158015611c6057600080fd5b505af1158015611c74573d6000803e3d6000fd5b50505050611c92565b611c916718a8eb7a97c7216a60c01b616eee565b5b611ca6672f044e59dd88473260c01b616eee565b836040013560fe6000866000013581526020019081526020016000206003016000828254611cd49190619456565b92505081905550611cef670d5ea373bb13602760c01b616eee565b83604001356101096000866000013581526020019081526020016000206000866020013581526020019081526020016000206006016000828254611d339190619456565b92505081905550611d4e67d2e1e1f612bf930060c01b616eee565b600161010b84604051611d619190619325565b908152602001604051809103902060006101000a81548160ff021916908315150217905550611d9a67a6fbc027df3c5ffa60c01b616eee565b611dae671612c3b4740b952b60c01b616eee565b7f51648125ce33694873381e0c4ad7f8ef183c08887969bef55995f6feb91f56733382866000013587602001353461010960008b60000135815260200190815260200160002060008b6020013581526020019081526020016000206003015488604051611e2197969594939291906199c6565b60405180910390a150611e32617217565b505050565b606060658054611e46906195b7565b80601f0160208091040260200160405190810160405280929190818152602001828054611e72906195b7565b8015611ebf5780601f10611e9457610100808354040283529160200191611ebf565b820191906000526020600020905b815481529060010190602001808311611ea257829003601f168201915b5050505050905090565b6000611ed482617221565b6069600083815260200190815260200160002060009054906101000a900473ffffffffffffffffffffffffffffffffffffffff169050919050565b6000611f1a82613aa3565b90508073ffffffffffffffffffffffffffffffffffffffff168373ffffffffffffffffffffffffffffffffffffffff1603611f8a576040517f08c379a0000000000000000000000000000000000000000000000000000000008152600401611f8190619ac2565b60405180910390fd5b8073ffffffffffffffffffffffffffffffffffffffff16611fa961726c565b73ffffffffffffffffffffffffffffffffffffffff161480611fd85750611fd781611fd261726c565b616976565b5b612017576040517f08c379a000000000000000000000000000000000000000000000000000000000815260040161200e90619b54565b60405180910390fd5b6120218383617274565b505050565b61010c5481565b61204167d54ed0c4b0eed86860c01b616eee565b612055675ff01bbf809fb61b60c01b616eee565b61206967bd78b2d313f3a8f360c01b616eee565b61207d6725e9a67861b2eaf760c01b616eee565b60ff60006005815260200190815260200160002060009054906101000a900460ff1680156120e7575060fe600060058152602001908152602001600020600001548282905060fe600060058152602001908152602001600020600101546120e49190619456565b11155b801561212f575060fe600060058152602001908152602001600020600201548282905060fe6000600581526020019081526020016000206003015461212c9190619456565b11155b61216e576040517f08c379a000000000000000000000000000000000000000000000000000000000815260040161216590619be6565b60405180910390fd5b61218267af59b59d7c3e894760c01b616eee565b6121966743a1499e679685ce60c01b616eee565b6121aa67d8fe0ffd953296bf60c01b616eee565b60008282905067ffffffffffffffff8111156121c9576121c8618625565b5b6040519080825280602002602001820160405280156121f75781602001602082028036833780820191505090505b50905061220e676567548b4511d78660c01b616eee565b612222675969833f396312d060c01b616eee565b60008383905067ffffffffffffffff81111561224157612240618625565b5b60405190808252806020026020018201604052801561226f5781602001602082028036833780820191505090505b5090506122866760b5fc252d650d2f60c01b616eee565b61229a675ebb725a7c6ca05760c01b616eee565b60005b848490508110156127ee576122bc6785d084d9a21a8d6560c01b616eee565b6122d0674c9d1c45cfdf789a60c01b616eee565b6122e467cec574007f76545a60c01b616eee565b3373ffffffffffffffffffffffffffffffffffffffff1661010060009054906101000a900473ffffffffffffffffffffffffffffffffffffffff1673ffffffffffffffffffffffffffffffffffffffff16636352211e87878581811061234d5761234c619238565b5b905060200201356040518263ffffffff1660e01b81526004016123709190618990565b602060405180830381865afa15801561238d573d6000803e3d6000fd5b505050506040513d601f19601f820116820180604052508101906123b19190619c1b565b73ffffffffffffffffffffffffffffffffffffffff1614612407576040517f08c379a00000000000000000000000000000000000000000000000000000000081526004016123fe90619c94565b60405180910390fd5b61241b67bcc2fa3b8626e1b860c01b616eee565b61242f6787819dd06c0d9ebb60c01b616eee565b61244367ce177d5c1679a6d260c01b616eee565b61010060009054906101000a900473ffffffffffffffffffffffffffffffffffffffff1673ffffffffffffffffffffffffffffffffffffffff166323b872dd333088888681811061249757612496619238565b5b905060200201356040518463ffffffff1660e01b81526004016124bc9392919061985c565b600060405180830381600087803b1580156124d657600080fd5b505af11580156124ea573d6000803e3d6000fd5b5050505061250267a37ca635c642f9cc60c01b616eee565b612516679abd896843babf9a60c01b616eee565b61010060009054906101000a900473ffffffffffffffffffffffffffffffffffffffff1673ffffffffffffffffffffffffffffffffffffffff166342966c6886868481811061256857612567619238565b5b905060200201356040518263ffffffff1660e01b815260040161258b9190618990565b600060405180830381600087803b1580156125a557600080fd5b505af11580156125b9573d6000803e3d6000fd5b505050506125d1674abd6aebf11dd4cd60c01b616eee565b6125e5673997d2a22180fd6760c01b616eee565b600061010160009054906101000a900473ffffffffffffffffffffffffffffffffffffffff1673ffffffffffffffffffffffffffffffffffffffff166358f5f8be336040518263ffffffff1660e01b815260040161264391906188fa565b6020604051808303816000875af1158015612662573d6000803e3d6000fd5b505050506040513d601f19601f820116820180604052508101906126869190619cc9565b905061269c67e951feca18aceb0260c01b616eee565b600160fb60008282546126af9190619456565b925050819055506126ca67f50aafe27bfe489860c01b616eee565b60fb548483815181106126e0576126df619238565b5b60200260200101818152505061270067315ad0a92105131260c01b616eee565b8083838151811061271457612713619238565b5b60200260200101818152505061273467078048ffa71250e160c01b616eee565b6127486733ae5ec13e08007860c01b616eee565b6127543360fb5461732d565b61276867184ff00e4b9d016c60c01b616eee565b600160fe60006005815260200190815260200160002060030160008282546127909190619456565b925050819055506127ab67d8cab32bf3c393bb60c01b616eee565b600160fe60006005815260200190815260200160002060010160008282546127d39190619456565b925050819055505080806127e690619296565b91505061229d565b50612803670fbe163f230eb7d560c01b616eee565b6128176779f6653ecf92ad6960c01b616eee565b7fbed2ea4cc61a5f3d97bf656e6a36da515575612249452e8dbf3d972b675e31433360058385888860405161285196959493929190619d9b565b60405180910390a150505050565b612873679f97fe4343af98dd60c01b616eee565b61288767f67666f056c26b8360c01b616eee565b61289b67d3573d93e9cf7a6b60c01b616eee565b6128af67e1c067e70aae29ac60c01b616eee565b60ff60006004815260200190815260200160002060009054906101000a900460ff16801561290a575060fe6000600481526020019081526020016000206000015460fe60006004815260200190815260200160002060010154105b8015612943575060fe6000600481526020019081526020016000206002015460fe60006004815260200190815260200160002060030154105b612982576040517f08c379a000000000000000000000000000000000000000000000000000000000815260040161297990619be6565b60405180910390fd5b61299667f41ec863ae4f675b60c01b616eee565b6129aa67ab4bd9986bbeaf7b60c01b616eee565b6129be67ca73cce4d92555ba60c01b616eee565b6129d267d1a31d25fb57197e60c01b616eee565b61010460003373ffffffffffffffffffffffffffffffffffffffff1673ffffffffffffffffffffffffffffffffffffffff16815260200190815260200160002060009054906101000a900460ff16612a5f576040517f08c379a0000000000000000000000000000000000000000000000000000000008152600401612a5690619e51565b60405180910390fd5b612a73673fa2aa871a072bb860c01b616eee565b612a8767a064e2c6ffbae65760c01b616eee565b612a9b67bc7261f2c53098c160c01b616eee565b600061010160009054906101000a900473ffffffffffffffffffffffffffffffffffffffff1673ffffffffffffffffffffffffffffffffffffffff166358f5f8be336040518263ffffffff1660e01b8152600401612af991906188fa565b6020604051808303816000875af1158015612b18573d6000803e3d6000fd5b505050506040513d601f19601f82011682018060405250810190612b3c9190619cc9565b9050612b526722d8f2f47f18082f60c01b616eee565b600160fe6000600481526020019081526020016000206003016000828254612b7a9190619456565b92505081905550612b9567f730af9ea19982a360c01b616eee565b600160fb6000828254612ba89190619456565b92505081905550612bc3676c70040a6943c6c760c01b616eee565b612bd767b291df90b2c1702460c01b616eee565b612be33360fb5461732d565b612bf767ac1d77a30a8284d160c01b616eee565b600160fe6000600481526020019081526020016000206001016000828254612c1f9190619456565b92505081905550612c3a67ca1a19723b46477360c01b616eee565b600061010460003373ffffffffffffffffffffffffffffffffffffffff1673ffffffffffffffffffffffffffffffffffffffff16815260200190815260200160002060006101000a81548160ff021916908315150217905550612ca76729553b9eccb98c0260c01b616eee565b612cbb67431e61a83648897660c01b616eee565b7f04523983e24616f78ff12ff843803430d32341b84760bd1fff8bc9b9def153893360048360fb54604051612cf39493929190619eac565b60405180910390a150565b612d126744854b0e47d0464760c01b616eee565b612d1a616ef1565b612d2e67118b433a9ed8259560c01b616eee565b612d426721e779725f5a58b760c01b616eee565b612d566799f08cf498de4ab160c01b616eee565b612d6a67db5f091a953769cb60c01b616eee565b60005b83839050811015612e1e57612d8c67434b6933a91a30bf60c01b616eee565b816101036000868685818110612da557612da4619238565b5b9050602002016020810190612dba9190618aae565b73ffffffffffffffffffffffffffffffffffffffff1673ffffffffffffffffffffffffffffffffffffffff16815260200190815260200160002060006101000a81548160ff0219169083151502179055508080612e1690619296565b915050612d6d565b50612e3367b4a693c965781a8960c01b616eee565b612e4767e2f5f5963b5490f760c01b616eee565b7f4c8368746583e40765156b70aa8a680beb42868327860b5d1fd1bd4a5a0d2a69838383604051612e7a93929190619fb4565b60405180910390a1505050565b6101026020528060005260406000206000915054906101000a900460ff1681565b610109602052816000526040600020602052806000526040600020600091509150508060000154908060010154908060020154908060030154908060040154908060050154908060060154908060070154908060080154905089565b612f15612f0f61726c565b8261754a565b612f54576040517f08c379a0000000000000000000000000000000000000000000000000000000008152600401612f4b9061a058565b60405180910390fd5b612f5f8383836175df565b505050565b6000612f7a67c72120ee343f2f7e60c01b616eee565b612f8e6792213f12a601cab060c01b616eee565b6103e88261010160009054906101000a900473ffffffffffffffffffffffffffffffffffffffff1673ffffffffffffffffffffffffffffffffffffffff16636fb1eb0c6040518163ffffffff1660e01b8152600401602060405180830381865afa158015613000573d6000803e3d6000fd5b505050506040513d601f19601f820116820180604052508101906130249190619cc9565b61302e919061a078565b613038919061a101565b9050919050565b613053674392721d3a09517c60c01b616eee565b61306767c58f84d422d6195960c01b616eee565b61307b67b6b38703172f709160c01b616eee565b61308f6776ca1f63ad47c93b60c01b616eee565b60ff600082815260200190815260200160002060009054906101000a900460ff1680156130e7575060fe60008281526020019081526020016000206002015460fe600083815260200190815260200160002060030154105b8015613136575060018114801561310e575061310d675f0ce45b2be2eeba60c01b6171ee565b5b806131355750600281148015613134575061313367927d0b211dead9b060c01b6171ee565b5b5b5b613175576040517f08c379a000000000000000000000000000000000000000000000000000000000815260040161316c90619be6565b60405180910390fd5b6131896768445bd400e927f560c01b616eee565b61319d676f59affc6b58971060c01b616eee565b6131b167eeca32627adcccb160c01b616eee565b6001810361331c576131cd675f51b375e8880b1b60c01b616eee565b6131e167e1460cb879753d9c60c01b616eee565b6131f5673bf83c19b34608f560c01b616eee565b61320967dc8efeed491b9f8160c01b616eee565b61010660003373ffffffffffffffffffffffffffffffffffffffff1673ffffffffffffffffffffffffffffffffffffffff16815260200190815260200160002060009054906101000a900460ff16613296576040517f08c379a000000000000000000000000000000000000000000000000000000000815260040161328d9061a1a4565b60405180910390fd5b6132aa67aa158785d4f0f55b60c01b616eee565b6132be67f558573ca8cd743760c01b616eee565b600061010660003373ffffffffffffffffffffffffffffffffffffffff1673ffffffffffffffffffffffffffffffffffffffff16815260200190815260200160002060006101000a81548160ff021916908315150217905550613331565b6133306777b237e9a1e7363660c01b616eee565b5b61334567311bf5366b41ccdf60c01b616eee565b61335967a6b0e5b3097ad59c60c01b616eee565b600281036134c457613375678e11ee199827655b60c01b616eee565b61338967d2155d42f22ca71460c01b616eee565b61339d67e2b86c30730c3ff460c01b616eee565b6133b16759fdaa27c8d4002b60c01b616eee565b61010860003373ffffffffffffffffffffffffffffffffffffffff1673ffffffffffffffffffffffffffffffffffffffff16815260200190815260200160002060009054906101000a900460ff1661343e576040517f08c379a00000000000000000000000000000000000000000000000000000000081526004016134359061a1a4565b60405180910390fd5b61345267fbc9fe8bde1b4e9d60c01b616eee565b6134666786fe66b3a9da662660c01b616eee565b600061010860003373ffffffffffffffffffffffffffffffffffffffff1673ffffffffffffffffffffffffffffffffffffffff16815260200190815260200160002060006101000a81548160ff0219169083151502179055506134d9565b6134d867a247bd0fb8312ac560c01b616eee565b5b6134ed67b23d20b7b97266d960c01b616eee565b600160fe600083815260200190815260200160002060030160008282546135149190619456565b9250508190555061352f67e7d0e71a65930cd460c01b616eee565b61354367ea08aae7873af10e60c01b616eee565b600061010160009054906101000a900473ffffffffffffffffffffffffffffffffffffffff1673ffffffffffffffffffffffffffffffffffffffff166358f5f8be336040518263ffffffff1660e01b81526004016135a191906188fa565b6020604051808303816000875af11580156135c0573d6000803e3d6000fd5b505050506040513d601f19601f820116820180604052508101906135e49190619cc9565b90506135fa679843c6589c468f7860c01b616eee565b61360e67f8582806eae0b2c660c01b616eee565b7f2e9e0784b8b9603d5dfcd027dd92455b08d1f69b95710bd5d145c962ad1117da338260036040516136429392919061a1ff565b60405180910390a15050565b61010060009054906101000a900473ffffffffffffffffffffffffffffffffffffffff1681565b60ff6020528060005260406000206000915054906101000a900460ff1681565b6136b083838360405180602001604052806000815250615c71565b505050565b6136c9673c956b48f70d0faa60c01b616eee565b6136d1616ef1565b6136e56703e61469edc3d3e460c01b616eee565b6136f967fd085baba79f961260c01b616eee565b61370d67908fc2d9eeef5c5e60c01b616eee565b613721670f7f4cec91c3ea4660c01b616eee565b60005b838390508110156137d55761374367f832658138a4e9b360c01b616eee565b81610102600086868581811061375c5761375b619238565b5b90506020020160208101906137719190618aae565b73ffffffffffffffffffffffffffffffffffffffff1673ffffffffffffffffffffffffffffffffffffffff16815260200190815260200160002060006101000a81548160ff02191690831515021790555080806137cd90619296565b915050613724565b506137ea67bfb0af0e4e02ef4960c01b616eee565b6137fe67c4eaae399132a49360c01b616eee565b7f074182baf39a64f81a9dfd5c4224b63af9fe2d0c8396bbcf57743387418379e183838360405161383193929190619fb4565b60405180910390a1505050565b61385267ed4bf07ef8b47c9b60c01b616eee565b61385a616ef1565b61386e671db24582f49fcacd60c01b616eee565b61388267f690a090d1caaa7860c01b616eee565b613896677f2a1a4322dc96a960c01b616eee565b6138aa67b670c2aea494e9b360c01b616eee565b60005b88889050811015613a97576138cc67e56834a92bd9340460c01b616eee565b8888828181106138df576138de619238565b5b9050602002013561010960008c815260200190815260200160002060008b8b8581811061390f5761390e619238565b5b9050602002013581526020019081526020016000206000018190555061393f670fdf9ad3562761e160c01b616eee565b86868281811061395257613951619238565b5b9050602002013561010960008c815260200190815260200160002060008b8b8581811061398257613981619238565b5b905060200201358152602001908152602001600020600501819055506139b267327040992019f6f460c01b616eee565b8484828181106139c5576139c4619238565b5b9050602002013561010960008c815260200190815260200160002060008b8b858181106139f5576139f4619238565b5b90506020020135815260200190815260200160002060080181905550613a2567cdcea0038586fef960c01b616eee565b828282818110613a3857613a37619238565b5b9050602002013561010960008c815260200190815260200160002060008b8b85818110613a6857613a67619238565b5b905060200201358152602001908152602001600020600701819055508080613a8f90619296565b9150506138ad565b50505050505050505050565b600080613aaf836178d8565b9050600073ffffffffffffffffffffffffffffffffffffffff168173ffffffffffffffffffffffffffffffffffffffff1603613b20576040517f08c379a0000000000000000000000000000000000000000000000000000000008152600401613b179061a282565b60405180910390fd5b80915050919050565b613b3d6712bbfd4d6d85aab260c01b616eee565b613b51670e3950b4c981d84e60c01b616eee565b613b65673e2e6440212dca2a60c01b616eee565b613b79676e963d20c490b10160c01b616eee565b60ff600082815260200190815260200160002060009054906101000a900460ff168015613bd1575060fe60008281526020019081526020016000206000015460fe600083815260200190815260200160002060010154105b8015613c205750600181148015613bf85750613bf7670d356d4f3ecf3c8560c01b6171ee565b5b80613c1f5750600281148015613c1e5750613c1d670b6fe8c410644e1560c01b6171ee565b5b5b5b613c5f576040517f08c379a0000000000000000000000000000000000000000000000000000000008152600401613c5690619be6565b60405180910390fd5b613c7367b62a10a4fbc1603f60c01b616eee565b613c8767be63da32cf63006860c01b616eee565b613c9b67d582ec5d13fd7ac260c01b616eee565b60018103613e0657613cb767c69353ddc9498c8560c01b616eee565b613ccb6791df62c93424e39360c01b616eee565b613cdf678029f1520fbd7ecd60c01b616eee565b613cf367b170a015440653c860c01b616eee565b61010560003373ffffffffffffffffffffffffffffffffffffffff1673ffffffffffffffffffffffffffffffffffffffff16815260200190815260200160002060009054906101000a900460ff16613d80576040517f08c379a0000000000000000000000000000000000000000000000000000000008152600401613d779061a1a4565b60405180910390fd5b613d9467b94bade82f9504eb60c01b616eee565b613da8678a8dd82d84b4e99460c01b616eee565b600061010560003373ffffffffffffffffffffffffffffffffffffffff1673ffffffffffffffffffffffffffffffffffffffff16815260200190815260200160002060006101000a81548160ff021916908315150217905550613e1b565b613e1a679f0ef110b59b9aac60c01b616eee565b5b613e2f67713c1566ce58958e60c01b616eee565b613e436742fcd0e76ea21d0460c01b616eee565b60028103613fae57613e5f67011b5ed102022d6e60c01b616eee565b613e7367a971cf83971fce5f60c01b616eee565b613e876771032487990b197c60c01b616eee565b613e9b67af5e235229fc0aed60c01b616eee565b61010760003373ffffffffffffffffffffffffffffffffffffffff1673ffffffffffffffffffffffffffffffffffffffff16815260200190815260200160002060009054906101000a900460ff16613f28576040517f08c379a0000000000000000000000000000000000000000000000000000000008152600401613f1f9061a1a4565b60405180910390fd5b613f3c67d0fed0d84053cbc560c01b616eee565b613f50677f509451305a191560c01b616eee565b600061010760003373ffffffffffffffffffffffffffffffffffffffff1673ffffffffffffffffffffffffffffffffffffffff16815260200190815260200160002060006101000a81548160ff021916908315150217905550613fc3565b613fc26763a96d62ff9868f260c01b616eee565b5b613fd76785ca890c57ac9c0860c01b616eee565b600160fe60008381526020019081526020016000206001016000828254613ffe9190619456565b9250508190555061401967ca6fd0d875d8262e60c01b616eee565b600160fb600082825461402c9190619456565b9250508190555061404767efb5cd97ef6ccb9760c01b616eee565b61405b6742a4b1e5c0b5bcea60c01b616eee565b6140673360fb5461732d565b61407b6748d1814212c2955a60c01b616eee565b61408f67b8046fdc5aa7d86360c01b616eee565b7f6b31e785e40ea595c823d38323157461d86f76a74c76faa41190de60912863e73360fb54836040516140c49392919061a2a2565b60405180910390a150565b6101056020528060005260406000206000915054906101000a900460ff1681565b61010a6020528060005260406000206000915090508054614110906195b7565b80601f016020809104026020016040519081016040528092919081815260200182805461413c906195b7565b80156141895780601f1061415e57610100808354040283529160200191614189565b820191906000526020600020905b81548152906001019060200180831161416c57829003601f168201915b505050505081565b6101086020528060005260406000206000915054906101000a900460ff1681565b61010160009054906101000a900473ffffffffffffffffffffffffffffffffffffffff1681565b60008073ffffffffffffffffffffffffffffffffffffffff168273ffffffffffffffffffffffffffffffffffffffff1603614249576040517f08c379a00000000000000000000000000000000000000000000000000000000081526004016142409061a34b565b60405180910390fd5b606860008373ffffffffffffffffffffffffffffffffffffffff1673ffffffffffffffffffffffffffffffffffffffff168152602001908152602001600020549050919050565b614298616ef1565b6142a26000617915565b565b61010e60009054906101000a900473ffffffffffffffffffffffffffffffffffffffff1681565b6142df6761a89911b8947f3d60c01b616eee565b6142e7616ef1565b6142fb67ab41b1c3bf7eef8860c01b616eee565b61430f67209cf4e3411eac7860c01b616eee565b61432367c7dc22656ee70cd360c01b616eee565b614337670b8ce799c94bef5460c01b616eee565b60005b8686905081101561441a5761435967a7c0ddab5e4776ae60c01b616eee565b84848281811061436c5761436b619238565b5b9050602002013560fe600089898581811061438a57614389619238565b5b905060200201358152602001908152602001600020600201819055506143ba67304a7bd072be0b9360c01b616eee565b8282828181106143cd576143cc619238565b5b9050602002013560fe60008989858181106143eb576143ea619238565b5b90506020020135815260200190815260200160002060000181905550808061441290619296565b91505061433a565b50505050505050565b61443767591dfa3058f118c760c01b616eee565b60008060019054906101000a900460ff161590508080156144685750600160008054906101000a900460ff1660ff16105b806144955750614477306179db565b1580156144945750600160008054906101000a900460ff1660ff16145b5b6144d4576040517f08c379a00000000000000000000000000000000000000000000000000000000081526004016144cb9061a3dd565b60405180910390fd5b60016000806101000a81548160ff021916908360ff1602179055508015614511576001600060016101000a81548160ff0219169083151502179055505b61452567a88bb56a07f4831360c01b616eee565b61453967df920a41f9e5ebd960c01b616eee565b61454d67f1489cb10d0991e760c01b616eee565b614561670e76d1286e798f6360c01b616eee565b6145d56040518060400160405280600f81526020017f416c6c6f792053706163652041524600000000000000000000000000000000008152506040518060400160405280600381526020017f41524600000000000000000000000000000000000000000000000000000000008152506179fe565b6145e9677aed3433155f03f160c01b616eee565b6145fd67e04fee68864fef8460c01b616eee565b614605617a5b565b61461967d16cc37b5e77069560c01b616eee565b61462d6701d1ec73cab54f7760c01b616eee565b614635617ab4565b61464967db38d001cbfaa2ea60c01b616eee565b60405180606001604052806028815260200161af3a6028913960fc9081614670919061978a565b50614685670fb51a3b38da0e5060c01b616eee565b6040518060400160405280600f81526020017f2d746f6b656e2d7572692e6a736f6e000000000000000000000000000000000081525060fd90816146c9919061978a565b506146de67a9f72bbc75d639b860c01b616eee565b600060fb819055506146fa6727608a1e03cc022360c01b616eee565b61470e67be28b4f2b9ce161b60c01b616eee565b600060405180610100016040528061022161ffff168152602001606561ffff16815260200160fa61ffff16815260200160fa61ffff1681526020016107d561ffff1681526020016103ea61ffff1681526020016103e961ffff16815260200161019161ffff16815250905061478d67d6132e33c62e24d660c01b616eee565b6147a167591559be2698563b60c01b616eee565b60006040518061010001604052806105e161ffff1681526020016101f961ffff168152602001600061ffff16815260200160fa61ffff1681526020016107d561ffff1681526020016107d461ffff1681526020016107d361ffff1681526020016107d361ffff16815250905061482167164a4a9f0f87a74660c01b616eee565b61483567ca6da0ba8fe550cf60c01b616eee565b60005b60088110156149395761485567cb47f3abeae7247160c01b616eee565b614869670c74dbff4312c02460c01b616eee565b6000604051806080016040528085846008811061488957614888619238565b5b602002015161ffff168152602001600081526020018484600881106148b1576148b0619238565b5b602002015161ffff168152602001600081525090506148da67623a79b77bef25e660c01b616eee565b8060fe60006001856148ec9190619456565b81526020019081526020016000206000820151816000015560208201518160010155604082015181600201556060820151816003015590505050808061493190619296565b915050614838565b5061494e6780e59ace3bee83bd60c01b616eee565b73b8f76ddcbad297a1526f984306732fc6014eb60761010160006101000a81548173ffffffffffffffffffffffffffffffffffffffff021916908373ffffffffffffffffffffffffffffffffffffffff1602179055506149b8677bc5f4bd2c3e957960c01b616eee565b737c0aa72dbd7058d0aee8bf99391b827a3af0487861010d60006101000a81548173ffffffffffffffffffffffffffffffffffffffff021916908373ffffffffffffffffffffffffffffffffffffffff160217905550614a2267bf03c91bdde69f7360c01b616eee565b7301662e113655ea1b7340420cc16fb0ec192b436761010060006101000a81548173ffffffffffffffffffffffffffffffffffffffff021916908373ffffffffffffffffffffffffffffffffffffffff160217905550614a8c673387e21f8af712f360c01b616eee565b7325fc99ef8c2be73c303f7e54a0c2da423e48326b61010e60006101000a81548173ffffffffffffffffffffffffffffffffffffffff021916908373ffffffffffffffffffffffffffffffffffffffff16021790555050508015614b3d5760008060016101000a81548160ff0219169083151502179055507f7f26b83ff96e1f2b6a682f133852f6798a09c465da95921460cefb38474024986001604051614b34919061a445565b60405180910390a15b50565b6000609760009054906101000a900473ffffffffffffffffffffffffffffffffffffffff16905090565b6101066020528060005260406000206000915054906101000a900460ff1681565b614b9f6739b54af754ea541760c01b616eee565b614bb367d6c324a24c00738c60c01b616eee565b614bc7675700a5ba4906de8e60c01b616eee565b614bdb6725d0a691c7d3ad6660c01b616eee565b60ff60006003815260200190815260200160002060009054906101000a900460ff168015614c36575060fe6000600381526020019081526020016000206002015460fe60006003815260200190815260200160002060030154105b614c75576040517f08c379a0000000000000000000000000000000000000000000000000000000008152600401614c6c90619be6565b60405180910390fd5b614c896735c4d3f8192d009b60c01b616eee565b614c9d67f917f95a10f4731060c01b616eee565b614cb1678bcecbdf7813fe3560c01b616eee565b614cc567a2bce9f61135fdd560c01b616eee565b61010360003373ffffffffffffffffffffffffffffffffffffffff1673ffffffffffffffffffffffffffffffffffffffff16815260200190815260200160002060009054906101000a900460ff16614d52576040517f08c379a0000000000000000000000000000000000000000000000000000000008152600401614d499061a1a4565b60405180910390fd5b614d666784449c86ba286da560c01b616eee565b614d7a67a7925301634b5a1460c01b616eee565b600061010360003373ffffffffffffffffffffffffffffffffffffffff1673ffffffffffffffffffffffffffffffffffffffff16815260200190815260200160002060006101000a81548160ff021916908315150217905550614de767f4f2c061950c954360c01b616eee565b600160fe6000600381526020019081526020016000206003016000828254614e0f9190619456565b92505081905550614e2a672fd2705eaf257b1f60c01b616eee565b614e3e675fbb142cd7df73f860c01b616eee565b600061010160009054906101000a900473ffffffffffffffffffffffffffffffffffffffff1673ffffffffffffffffffffffffffffffffffffffff166358f5f8be336040518263ffffffff1660e01b8152600401614e9c91906188fa565b6020604051808303816000875af1158015614ebb573d6000803e3d6000fd5b505050506040513d601f19601f82011682018060405250810190614edf9190619cc9565b9050614ef567a906e20bc1c67c1f60c01b616eee565b614f09670c39d03a4ba9692160c01b616eee565b7f44eb92b6f9778e6790811c1ff3f8535ffb7145fb366595580e36fbd5b35f05c833826003604051614f3d9392919061a1ff565b60405180910390a150565b614f5c6708488f3a248dfe3360c01b616eee565b614f64616fd9565b614f78670348779fa38c838460c01b616eee565b614f8c67ed5833d6e236289b60c01b616eee565b614fa067fb3146ef162a1ba860c01b616eee565b614fb46792fbf7112c41307360c01b616eee565b6000614fc38360000151613aa3565b9050614fd9672abc1fe1715a088060c01b616eee565b614fed673e4c1132f70cbae160c01b616eee565b61500167bfdc9da6395de92b60c01b616eee565b61501081846040015184617028565b8015615046575061010b826040516150289190619325565b908152602001604051809103902060009054906101000a900460ff16155b80156150ec575061010d60009054906101000a900473ffffffffffffffffffffffffffffffffffffffff1673ffffffffffffffffffffffffffffffffffffffff1663c9941806836040518263ffffffff1660e01b81526004016150a99190619386565b602060405180830381865afa1580156150c6573d6000803e3d6000fd5b505050506040513d601f19601f820116820180604052508101906150ea91906193bd565b155b8015615192575061010160009054906101000a900473ffffffffffffffffffffffffffffffffffffffff1673ffffffffffffffffffffffffffffffffffffffff1663c9941806836040518263ffffffff1660e01b815260040161514f9190619386565b602060405180830381865afa15801561516c573d6000803e3d6000fd5b505050506040513d601f19601f8201168201806040525081019061519091906193bd565b155b6151d1576040517f08c379a00000000000000000000000000000000000000000000000000000000081526004016151c89061a4ac565b60405180910390fd5b6151e5670be013c39116904460c01b616eee565b6151f967e6d46f650baebfe160c01b616eee565b61520d67f9ffe3279d187b1860c01b616eee565b615221679d5e02a7a3f982bd60c01b616eee565b34836020015114615267576040517f08c379a000000000000000000000000000000000000000000000000000000000815260040161525e9061a53e565b60405180910390fd5b61527b67541ce97e2bd0883c60c01b616eee565b61528f67ec08aa45d6ecd83060c01b616eee565b6152a36719281514b952cfba60c01b616eee565b6152c28133856000015160405180602001604052806000815250617b0d565b6152d6675ab4a6d742b5130260c01b616eee565b600161010b836040516152e99190619325565b908152602001604051809103902060006101000a81548160ff02191690831515021790555061532267b831c7ff573adb2d60c01b616eee565b615336671ec7cdfca912a24460c01b616eee565b600061534134612f64565b905061535767131c763fe6115c0d60c01b616eee565b61536b673352edbe0a3dfe3360c01b616eee565b61010e60009054906101000a900473ffffffffffffffffffffffffffffffffffffffff1673ffffffffffffffffffffffffffffffffffffffff166108fc829081150290604051600060405180830381858888f193505050501580156153d4573d6000803e3d6000fd5b506153e9671e15d6a86b6cc4b860c01b616eee565b6153fd677e869620ecb3f4cf60c01b616eee565b8173ffffffffffffffffffffffffffffffffffffffff166108fc8234615423919061a55e565b9081150290604051600060405180830381858888f1935050505015801561544e573d6000803e3d6000fd5b5061546367028f3396c694a32960c01b616eee565b615477676d3a6637e55e0e1c60c01b616eee565b7f80cf10dac1b681dc583a2a6ab3d1e5279e026d3fb3c9001157fc290c9a1bed69823334876000015161010a60008a6000015181526020019081526020016000206040516154c995949392919061a616565b60405180910390a150506154db617217565b5050565b6154f3677f74ab51308619c860c01b616eee565b6154fb616ef1565b61550f67ea079e3168c982b860c01b616eee565b61552367f86f20d4d3e9548c60c01b616eee565b61553767fbb3cc83bd7b15fb60c01b616eee565b61554b67f994dcda35d1e23f60c01b616eee565b60005b838390508110156155ff5761556d6714d0f79601deb9a360c01b616eee565b81610104600086868581811061558657615585619238565b5b905060200201602081019061559b9190618aae565b73ffffffffffffffffffffffffffffffffffffffff1673ffffffffffffffffffffffffffffffffffffffff16815260200190815260200160002060006101000a81548160ff02191690831515021790555080806155f790619296565b91505061554e565b506156146787fbdb997e29b66f60c01b616eee565b61562867e1fa2087730f4d3b60c01b616eee565b7f55d7a640169ee4a6157c88413d657e05aeb41f8fa2d6ef0b1cc82997f39c5b5383838360405161565b93929190619fb4565b60405180910390a1505050565b606060668054615677906195b7565b80601f01602080910402602001604051908101604052809291908181526020018280546156a3906195b7565b80156156f05780601f106156c5576101008083540402835291602001916156f0565b820191906000526020600020905b8154815290600101906020018083116156d357829003601f168201915b5050505050905090565b61570e67901747500131537260c01b616eee565b615716616ef1565b61572a67aea5062d1c6ca75560c01b616eee565b61573e67c543bef23adc2f2e60c01b616eee565b61575267abce1497aff8863160c01b616eee565b8160fc9081615761919061978a565b5061577667701d5c41eca3969a60c01b616eee565b8060fd9081615785919061978a565b505050565b61579e67c43a676c7224d52b60c01b616eee565b6157a6616ef1565b6157ba672b2b8fdf0b24f48360c01b616eee565b6157ce67462e5d14d1f4ea3260c01b616eee565b6157e267da5115121d23155960c01b616eee565b8461010060006101000a81548173ffffffffffffffffffffffffffffffffffffffff021916908373ffffffffffffffffffffffffffffffffffffffff160217905550615838676c1b679e1f6914b460c01b616eee565b8361010160006101000a81548173ffffffffffffffffffffffffffffffffffffffff021916908373ffffffffffffffffffffffffffffffffffffffff16021790555061588e676ad2703ed557071c60c01b616eee565b8261010e60006101000a81548173ffffffffffffffffffffffffffffffffffffffff021916908373ffffffffffffffffffffffffffffffffffffffff1602179055506158e467ee2edf41e53f4eb760c01b616eee565b8161010d60006101000a81548173ffffffffffffffffffffffffffffffffffffffff021916908373ffffffffffffffffffffffffffffffffffffffff16021790555061593a67ff44cfd96c88b69460c01b616eee565b8061010c819055505050505050565b61595d67218e6c9ae2c4faf160c01b616eee565b615965616ef1565b615979673ef92b08487a272d60c01b616eee565b61598d6783cafa95c4725d2460c01b616eee565b6159a1672eb5570d09f7075260c01b616eee565b6159b567338a024c9e0add9f60c01b616eee565b60005b83839050811015615a69576159d7675554a9ff927f93ce60c01b616eee565b8161010660008686858181106159f0576159ef619238565b5b9050602002016020810190615a059190618aae565b73ffffffffffffffffffffffffffffffffffffffff1673ffffffffffffffffffffffffffffffffffffffff16815260200190815260200160002060006101000a81548160ff0219169083151502179055508080615a6190619296565b9150506159b8565b50615a7e67a93cc74f1bf7d45b60c01b616eee565b615a9267ac7f9b3390b7546460c01b616eee565b7f26f546175866cdae536ed9010787f6f5bc9992c35f6cc805f0d7992a322f74fc838383604051615ac593929190619fb4565b60405180910390a1505050565b615ae4615add61726c565b8383617b69565b5050565b615afc6798ddc1bf2f5a229760c01b616eee565b615b04616ef1565b615b18674acbacd49859f7d160c01b616eee565b615b2c6715e7c1274004781160c01b616eee565b615b4067ab8a7da5a01be15960c01b616eee565b615b5467bcc11fa6ba6f7b7c60c01b616eee565b60005b83839050811015615c0857615b766791ae95561299c06a60c01b616eee565b816101056000868685818110615b8f57615b8e619238565b5b9050602002016020810190615ba49190618aae565b73ffffffffffffffffffffffffffffffffffffffff1673ffffffffffffffffffffffffffffffffffffffff16815260200190815260200160002060006101000a81548160ff0219169083151502179055508080615c0090619296565b915050615b57565b50615c1d67eaa026bbc8d5aeaf60c01b616eee565b615c31678c428a768ac8275560c01b616eee565b7f103875dca1d7ded84af45916324c49fb7322c1ba16e25088174b6975caa0dfd5838383604051615c6493929190619fb4565b60405180910390a1505050565b615c82615c7c61726c565b8361754a565b615cc1576040517f08c379a0000000000000000000000000000000000000000000000000000000008152600401615cb89061a058565b60405180910390fd5b615ccd84848484617b0d565b50505050565b6101046020528060005260406000206000915054906101000a900460ff1681565b6060615d0a671f33fb83f02bb17c60c01b616eee565b615d1e673e5922addad1bdff60c01b616eee565b615d3267b8b9d188c1b76f9c60c01b616eee565b615d46677f3fbcdcdd1e5ac960c01b616eee565b615d4f82617cd5565b615d8e576040517f08c379a0000000000000000000000000000000000000000000000000000000008152600401615d859061a6e2565b60405180910390fd5b615da267214926546189c64e60c01b616eee565b615db66752eda5902631ea4860c01b616eee565b615dca6781a098a57c65c74c60c01b616eee565b60fc615dd583617d16565b60fd604051602001615de99392919061a7c1565b6040516020818303038152906040529050919050565b615e1367235af732d6b8509860c01b616eee565b615e1b616ef1565b615e2f6747cae03cb23b3cc160c01b616eee565b615e4367e2d3417bae6ebe9d60c01b616eee565b615e576721a28037cdf0afc160c01b616eee565b615e6b67a28bc89519ceacb160c01b616eee565b60005b83839050811015615f1f57615e8d675e3896b8f167ccb760c01b616eee565b816101086000868685818110615ea657615ea5619238565b5b9050602002016020810190615ebb9190618aae565b73ffffffffffffffffffffffffffffffffffffffff1673ffffffffffffffffffffffffffffffffffffffff16815260200190815260200160002060006101000a81548160ff0219169083151502179055508080615f1790619296565b915050615e6e565b50615f3467c2dbe69d3c6f789960c01b616eee565b615f4867d3f63100fd017e3b60c01b616eee565b7f1f04ad3d20df24c03595d847aee0ff273316ea1ed4ff072eb68155a1d5623cb3838383604051615f7b93929190619fb4565b60405180910390a1505050565b61010b818051602081018201805184825260208301602085012081835280955050505050506000915054906101000a900460ff1681565b61010d60009054906101000a900473ffffffffffffffffffffffffffffffffffffffff1681565b60fb5481565b6101036020528060005260406000206000915054906101000a900460ff1681565b616021678616dfa9149cb24660c01b616eee565b616029616ef1565b61603d6764e2f100be5f4ec160c01b616eee565b61605167913810aeab8a698360c01b616eee565b616065670f51fd78388fcab960c01b616eee565b61607967d7859ec68016356460c01b616eee565b60005b8383905081101561612d5761609b67da54696d85768bbd60c01b616eee565b8161010760008686858181106160b4576160b3619238565b5b90506020020160208101906160c99190618aae565b73ffffffffffffffffffffffffffffffffffffffff1673ffffffffffffffffffffffffffffffffffffffff16815260200190815260200160002060006101000a81548160ff021916908315150217905550808061612590619296565b91505061607c565b5061614267f27c42781f07767d60c01b616eee565b6161566740f5a989dd07153c60c01b616eee565b7ff76067476381edc28fa06f8043230469676e53a6027cb3550ecc3d2e7dfb1bbf83838360405161618993929190619fb4565b60405180910390a1505050565b6161aa67f6559d78389b6c2360c01b616eee565b6161be6723e8d5ff67b0e55a60c01b616eee565b6161d267964dfdb7eeae13af60c01b616eee565b6161e6679add2eba3037125260c01b616eee565b60ff60006005815260200190815260200160002060009054906101000a900460ff168015616241575060fe6000600581526020019081526020016000206000015460fe60006005815260200190815260200160002060010154105b801561627a575060fe6000600581526020019081526020016000206002015460fe60006005815260200190815260200160002060030154105b6162b9576040517f08c379a00000000000000000000000000000000000000000000000000000000081526004016162b090619be6565b60405180910390fd5b6162cd678e1d524e8b94b36060c01b616eee565b6162e1678ba47be7221d303260c01b616eee565b6162f567511ba71df545c8a360c01b616eee565b61630967fc7221ac76bc0e1860c01b616eee565b3373ffffffffffffffffffffffffffffffffffffffff1661010060009054906101000a900473ffffffffffffffffffffffffffffffffffffffff1673ffffffffffffffffffffffffffffffffffffffff16636352211e836040518263ffffffff1660e01b815260040161637c9190618990565b602060405180830381865afa158015616399573d6000803e3d6000fd5b505050506040513d601f19601f820116820180604052508101906163bd9190619c1b565b73ffffffffffffffffffffffffffffffffffffffff1614616413576040517f08c379a000000000000000000000000000000000000000000000000000000000815260040161640a90619c94565b60405180910390fd5b6164276711940ee9aa229e0860c01b616eee565b61643b67ce2b41d33146a80060c01b616eee565b61644f672b3978af4c6d650860c01b616eee565b61010060009054906101000a900473ffffffffffffffffffffffffffffffffffffffff1673ffffffffffffffffffffffffffffffffffffffff166323b872dd3330846040518463ffffffff1660e01b81526004016164af9392919061985c565b600060405180830381600087803b1580156164c957600080fd5b505af11580156164dd573d6000803e3d6000fd5b505050506164f56793df6f12517efe9460c01b616eee565b61650967d6663c38d863718260c01b616eee565b61010060009054906101000a900473ffffffffffffffffffffffffffffffffffffffff1673ffffffffffffffffffffffffffffffffffffffff166342966c68826040518263ffffffff1660e01b81526004016165659190618990565b600060405180830381600087803b15801561657f57600080fd5b505af1158015616593573d6000803e3d6000fd5b505050506165ab6701d4bb4cf97271d460c01b616eee565b6165bf672ff0f6e89e2b903660c01b616eee565b600061010160009054906101000a900473ffffffffffffffffffffffffffffffffffffffff1673ffffffffffffffffffffffffffffffffffffffff166358f5f8be336040518263ffffffff1660e01b815260040161661d91906188fa565b6020604051808303816000875af115801561663c573d6000803e3d6000fd5b505050506040513d601f19601f820116820180604052508101906166609190619cc9565b90506166766718533944f3af515760c01b616eee565b600160fb60008282546166899190619456565b925050819055506166a4672b5eff5943a2b50260c01b616eee565b6166b867a7192d10c8ca6a4560c01b616eee565b6166c43360fb5461732d565b6166d86794b6af9525741fd460c01b616eee565b600160fe60006005815260200190815260200160002060030160008282546167009190619456565b9250508190555061671b670527fa02b80c763560c01b616eee565b600160fe60006005815260200190815260200160002060010160008282546167439190619456565b9250508190555061675e67b0bcb073fd75920260c01b616eee565b61677267c04da7a3345547ad60c01b616eee565b7ffd0ee44f1387730342d1e171ee76aa3f3117731c393ed73269b8c4d97ba2f47a3360058360fb54866040516167ac95949392919061a7f2565b60405180910390a15050565b60fe6020528060005260406000206000915090508060000154908060010154908060020154908060030154905084565b6167fc67c1d2e690ac49294c60c01b616eee565b61681067f2d603d5a666626960c01b616eee565b61682467c815271c0681f3dd60c01b616eee565b616838678ec540a8719c32ca60c01b616eee565b61010160009054906101000a900473ffffffffffffffffffffffffffffffffffffffff1673ffffffffffffffffffffffffffffffffffffffff163373ffffffffffffffffffffffffffffffffffffffff16146168c9576040517f08c379a00000000000000000000000000000000000000000000000000000000081526004016168c09061a891565b60405180910390fd5b6168dd67278ce6269740a4a360c01b616eee565b6168f167a89868643c20012660c01b616eee565b8060fe600085815260200190815260200160002060030160008282546169179190619456565b92505081905550616932679ba13efe6acb2d8460c01b616eee565b8061010960008581526020019081526020016000206000848152602001908152602001600020600201600082825461696a9190619456565b92505081905550505050565b6000606a60008473ffffffffffffffffffffffffffffffffffffffff1673ffffffffffffffffffffffffffffffffffffffff16815260200190815260200160002060008373ffffffffffffffffffffffffffffffffffffffff1673ffffffffffffffffffffffffffffffffffffffff16815260200190815260200160002060009054906101000a900460ff16905092915050565b6101076020528060005260406000206000915054906101000a900460ff1681565b616a3f67358f6fa784612be860c01b616eee565b616a53676bc63e84e6fcd27a60c01b616eee565b616a676757c7e26815238a2260c01b616eee565b616a7b6723f00be284121b9f60c01b616eee565b60ff60006003815260200190815260200160002060009054906101000a900460ff168015616ad6575060fe6000600381526020019081526020016000206000015460fe60006003815260200190815260200160002060010154105b616b15576040517f08c379a0000000000000000000000000000000000000000000000000000000008152600401616b0c90619be6565b60405180910390fd5b616b29673f8e7c62dfad284d60c01b616eee565b616b3d67d6a9d7a1ad5baea860c01b616eee565b616b5167f6c94cb94bcbfc5860c01b616eee565b616b65678de59d2ca45dc7df60c01b616eee565b61010260003373ffffffffffffffffffffffffffffffffffffffff1673ffffffffffffffffffffffffffffffffffffffff16815260200190815260200160002060009054906101000a900460ff16616bf2576040517f08c379a0000000000000000000000000000000000000000000000000000000008152600401616be99061a1a4565b60405180910390fd5b616c0667dbd8e76f7d6dbf4f60c01b616eee565b616c1a6771d0bd03d946fd1560c01b616eee565b600061010260003373ffffffffffffffffffffffffffffffffffffffff1673ffffffffffffffffffffffffffffffffffffffff16815260200190815260200160002060006101000a81548160ff021916908315150217905550616c87671dc23acac19eaf8260c01b616eee565b600160fb6000828254616c9a9190619456565b92505081905550616cb567f978d351bf7e5f0960c01b616eee565b616cc9673e72d009e75bbe3360c01b616eee565b616cd53360fb5461732d565b616ce9677a3a5cf74de7926060c01b616eee565b600160fe6000600381526020019081526020016000206001016000828254616d119190619456565b92505081905550616d2c670d827df23f43011360c01b616eee565b616d406741d969e046bd547c60c01b616eee565b7fc4fe32de0c7e52993d2f984dee4a064f2bed825d11dc584cd80d7e5980d463043360fb546003604051616d769392919061a1ff565b60405180910390a1565b616d946789a9fe7407aff20860c01b616eee565b616d9c616ef1565b616db06732115796a01e2f7960c01b616eee565b616dc467eaea0cb0f6319b6660c01b616eee565b616dd86707e0cf0cd1dc632760c01b616eee565b616dec673e2ac98fcabf915860c01b616eee565b60005b83839050811015616e6557616e0e67efaa115d43e1acba60c01b616eee565b8160ff6000868685818110616e2657616e25619238565b5b90506020020135815260200190815260200160002060006101000a81548160ff0219169083151502179055508080616e5d90619296565b915050616def565b50505050565b616e73616ef1565b600073ffffffffffffffffffffffffffffffffffffffff168173ffffffffffffffffffffffffffffffffffffffff1603616ee2576040517f08c379a0000000000000000000000000000000000000000000000000000000008152600401616ed99061a923565b60405180910390fd5b616eeb81617915565b50565b50565b616ef961726c565b73ffffffffffffffffffffffffffffffffffffffff16616f17614b40565b73ffffffffffffffffffffffffffffffffffffffff1614616f6d576040517f08c379a0000000000000000000000000000000000000000000000000000000008152600401616f649061a98f565b60405180910390fd5b565b60007f01ffc9a7000000000000000000000000000000000000000000000000000000007bffffffffffffffffffffffffffffffffffffffffffffffffffffffff1916827bffffffffffffffffffffffffffffffffffffffffffffffffffffffff1916149050919050565b600260c9540361701e576040517f08c379a00000000000000000000000000000000000000000000000000000000081526004016170159061a9fb565b60405180910390fd5b600260c981905550565b60008060006170378585617de4565b915091506000600481111561704f5761704e61aa1b565b5b8160048111156170625761706161aa1b565b5b14801561709a57508573ffffffffffffffffffffffffffffffffffffffff168273ffffffffffffffffffffffffffffffffffffffff16145b156170aa576001925050506171e7565b6000808773ffffffffffffffffffffffffffffffffffffffff16631626ba7e60e01b88886040516024016170df92919061aa59565b604051602081830303815290604052907bffffffffffffffffffffffffffffffffffffffffffffffffffffffff19166020820180517bffffffffffffffffffffffffffffffffffffffffffffffffffffffff83818316178352505050506040516171499190619325565b600060405180830381855afa9150503d8060008114617184576040519150601f19603f3d011682016040523d82523d6000602084013e617189565b606091505b509150915081801561719c575060208151145b80156171e05750631626ba7e60e01b7bffffffffffffffffffffffffffffffffffffffffffffffffffffffff1916818060200190518101906171de919061aa9e565b145b9450505050505b9392505050565b600060019050919050565b617213828260405180602001604052806000815250617e35565b5050565b600160c981905550565b61722a81617cd5565b617269576040517f08c379a00000000000000000000000000000000000000000000000000000000081526004016172609061a282565b60405180910390fd5b50565b600033905090565b816069600083815260200190815260200160002060006101000a81548173ffffffffffffffffffffffffffffffffffffffff021916908373ffffffffffffffffffffffffffffffffffffffff160217905550808273ffffffffffffffffffffffffffffffffffffffff166172e783613aa3565b73ffffffffffffffffffffffffffffffffffffffff167f8c5be1e5ebec7d5bd14f71427d1e84f3dd0314c0f7b2291e5b200ac8c7c3b92560405160405180910390a45050565b600073ffffffffffffffffffffffffffffffffffffffff168273ffffffffffffffffffffffffffffffffffffffff160361739c576040517f08c379a00000000000000000000000000000000000000000000000000000000081526004016173939061ab17565b60405180910390fd5b6173a581617cd5565b156173e5576040517f08c379a00000000000000000000000000000000000000000000000000000000081526004016173dc9061ab83565b60405180910390fd5b6173f3600083836001617e90565b6173fc81617cd5565b1561743c576040517f08c379a00000000000000000000000000000000000000000000000000000000081526004016174339061ab83565b60405180910390fd5b6001606860008473ffffffffffffffffffffffffffffffffffffffff1673ffffffffffffffffffffffffffffffffffffffff16815260200190815260200160002060008282540192505081905550816067600083815260200190815260200160002060006101000a81548173ffffffffffffffffffffffffffffffffffffffff021916908373ffffffffffffffffffffffffffffffffffffffff160217905550808273ffffffffffffffffffffffffffffffffffffffff16600073ffffffffffffffffffffffffffffffffffffffff167fddf252ad1be2c89b69c2b068fc378daa952ba7f163c4a11628f55a4df523b3ef60405160405180910390a4617546600083836001617e96565b5050565b60008061755683613aa3565b90508073ffffffffffffffffffffffffffffffffffffffff168473ffffffffffffffffffffffffffffffffffffffff16148061759857506175978185616976565b5b806175d657508373ffffffffffffffffffffffffffffffffffffffff166175be84611ec9565b73ffffffffffffffffffffffffffffffffffffffff16145b91505092915050565b8273ffffffffffffffffffffffffffffffffffffffff166175ff82613aa3565b73ffffffffffffffffffffffffffffffffffffffff1614617655576040517f08c379a000000000000000000000000000000000000000000000000000000000815260040161764c9061ac15565b60405180910390fd5b600073ffffffffffffffffffffffffffffffffffffffff168273ffffffffffffffffffffffffffffffffffffffff16036176c4576040517f08c379a00000000000000000000000000000000000000000000000000000000081526004016176bb9061aca7565b60405180910390fd5b6176d18383836001617e90565b8273ffffffffffffffffffffffffffffffffffffffff166176f182613aa3565b73ffffffffffffffffffffffffffffffffffffffff1614617747576040517f08c379a000000000000000000000000000000000000000000000000000000000815260040161773e9061ac15565b60405180910390fd5b6069600082815260200190815260200160002060006101000a81549073ffffffffffffffffffffffffffffffffffffffff02191690556001606860008573ffffffffffffffffffffffffffffffffffffffff1673ffffffffffffffffffffffffffffffffffffffff168152602001908152602001600020600082825403925050819055506001606860008473ffffffffffffffffffffffffffffffffffffffff1673ffffffffffffffffffffffffffffffffffffffff16815260200190815260200160002060008282540192505081905550816067600083815260200190815260200160002060006101000a81548173ffffffffffffffffffffffffffffffffffffffff021916908373ffffffffffffffffffffffffffffffffffffffff160217905550808273ffffffffffffffffffffffffffffffffffffffff168473ffffffffffffffffffffffffffffffffffffffff167fddf252ad1be2c89b69c2b068fc378daa952ba7f163c4a11628f55a4df523b3ef60405160405180910390a46178d38383836001617e96565b505050565b60006067600083815260200190815260200160002060009054906101000a900473ffffffffffffffffffffffffffffffffffffffff169050919050565b6000609760009054906101000a900473ffffffffffffffffffffffffffffffffffffffff16905081609760006101000a81548173ffffffffffffffffffffffffffffffffffffffff021916908373ffffffffffffffffffffffffffffffffffffffff1602179055508173ffffffffffffffffffffffffffffffffffffffff168173ffffffffffffffffffffffffffffffffffffffff167f8be0079c531659141344cd1fd0a4f28419497f9722a3daafe3b4186f6b6457e060405160405180910390a35050565b6000808273ffffffffffffffffffffffffffffffffffffffff163b119050919050565b600060019054906101000a900460ff16617a4d576040517f08c379a0000000000000000000000000000000000000000000000000000000008152600401617a449061ad39565b60405180910390fd5b617a578282617e9c565b5050565b600060019054906101000a900460ff16617aaa576040517f08c379a0000000000000000000000000000000000000000000000000000000008152600401617aa19061ad39565b60405180910390fd5b617ab2617f0f565b565b600060019054906101000a900460ff16617b03576040517f08c379a0000000000000000000000000000000000000000000000000000000008152600401617afa9061ad39565b60405180910390fd5b617b0b617f70565b565b617b188484846175df565b617b2484848484617fc9565b617b63576040517f08c379a0000000000000000000000000000000000000000000000000000000008152600401617b5a9061adcb565b60405180910390fd5b50505050565b8173ffffffffffffffffffffffffffffffffffffffff168373ffffffffffffffffffffffffffffffffffffffff1603617bd7576040517f08c379a0000000000000000000000000000000000000000000000000000000008152600401617bce9061ae37565b60405180910390fd5b80606a60008573ffffffffffffffffffffffffffffffffffffffff1673ffffffffffffffffffffffffffffffffffffffff16815260200190815260200160002060008473ffffffffffffffffffffffffffffffffffffffff1673ffffffffffffffffffffffffffffffffffffffff16815260200190815260200160002060006101000a81548160ff0219169083151502179055508173ffffffffffffffffffffffffffffffffffffffff168373ffffffffffffffffffffffffffffffffffffffff167f17307eab39ab6107e8899845ad3d59bd9653f200f220920489ca2b5937696c3183604051617cc891906185d0565b60405180910390a3505050565b60008073ffffffffffffffffffffffffffffffffffffffff16617cf7836178d8565b73ffffffffffffffffffffffffffffffffffffffff1614159050919050565b606060006001617d2584618150565b01905060008167ffffffffffffffff811115617d4457617d43618625565b5b6040519080825280601f01601f191660200182016040528015617d765781602001600182028036833780820191505090505b509050600082602001820190505b600115617dd9578080600190039150507f3031323334353637383961626364656600000000000000000000000000000000600a86061a8153600a8581617dcd57617dcc61a0d2565b5b04945060008503617d84575b819350505050919050565b6000806041835103617e255760008060006020860151925060408601519150606086015160001a9050617e19878285856182a3565b94509450505050617e2e565b60006002915091505b9250929050565b617e3f838361732d565b617e4c6000848484617fc9565b617e8b576040517f08c379a0000000000000000000000000000000000000000000000000000000008152600401617e829061adcb565b60405180910390fd5b505050565b50505050565b50505050565b600060019054906101000a900460ff16617eeb576040517f08c379a0000000000000000000000000000000000000000000000000000000008152600401617ee29061ad39565b60405180910390fd5b8160659081617efa919061978a565b508060669081617f0a919061978a565b505050565b600060019054906101000a900460ff16617f5e576040517f08c379a0000000000000000000000000000000000000000000000000000000008152600401617f559061ad39565b60405180910390fd5b617f6e617f6961726c565b617915565b565b600060019054906101000a900460ff16617fbf576040517f08c379a0000000000000000000000000000000000000000000000000000000008152600401617fb69061ad39565b60405180910390fd5b600160c981905550565b6000617fea8473ffffffffffffffffffffffffffffffffffffffff166179db565b15618143578373ffffffffffffffffffffffffffffffffffffffff1663150b7a0261801361726c565b8786866040518563ffffffff1660e01b8152600401618035949392919061ae57565b6020604051808303816000875af192505050801561807157506040513d601f19601f8201168201806040525081019061806e919061aeb8565b60015b6180f3573d80600081146180a1576040519150601f19603f3d011682016040523d82523d6000602084013e6180a6565b606091505b5060008151036180eb576040517f08c379a00000000000000000000000000000000000000000000000000000000081526004016180e29061adcb565b60405180910390fd5b805181602001fd5b63150b7a0260e01b7bffffffffffffffffffffffffffffffffffffffffffffffffffffffff1916817bffffffffffffffffffffffffffffffffffffffffffffffffffffffff191614915050618148565b600190505b949350505050565b600080600090507a184f03e93ff9f4daa797ed6e38ed64bf6a1f01000000000000000083106181ae577a184f03e93ff9f4daa797ed6e38ed64bf6a1f01000000000000000083816181a4576181a361a0d2565b5b0492506040810190505b6d04ee2d6d415b85acef810000000083106181eb576d04ee2d6d415b85acef810000000083816181e1576181e061a0d2565b5b0492506020810190505b662386f26fc10000831061821a57662386f26fc1000083816182105761820f61a0d2565b5b0492506010810190505b6305f5e1008310618243576305f5e10083816182395761823861a0d2565b5b0492506008810190505b612710831061826857612710838161825e5761825d61a0d2565b5b0492506004810190505b6064831061828b57606483816182815761828061a0d2565b5b0492506002810190505b600a831061829a576001810190505b80915050919050565b6000807f7fffffffffffffffffffffffffffffff5d576e7357a4501ddfe92f46681b20a08360001c11156182de57600060039150915061837c565b600060018787878760405160008152602001604052604051618303949392919061aef4565b6020604051602081039080840390855afa158015618325573d6000803e3d6000fd5b505050602060405103519050600073ffffffffffffffffffffffffffffffffffffffff168173ffffffffffffffffffffffffffffffffffffffff16036183735760006001925092505061837c565b80600092509250505b94509492505050565b6000604051905090565b600080fd5b600080fd5b6000819050919050565b6183ac81618399565b81146183b757600080fd5b50565b6000813590506183c9816183a3565b92915050565b600080fd5b600080fd5b600080fd5b60008083601f8401126183f4576183f36183cf565b5b8235905067ffffffffffffffff811115618411576184106183d4565b5b60208301915083602082028301111561842d5761842c6183d9565b5b9250929050565b600080600080600080600080600060a08a8c0312156184565761845561838f565b5b60006184648c828d016183ba565b99505060208a013567ffffffffffffffff81111561848557618484618394565b5b6184918c828d016183de565b985098505060408a013567ffffffffffffffff8111156184b4576184b3618394565b5b6184c08c828d016183de565b965096505060608a013567ffffffffffffffff8111156184e3576184e2618394565b5b6184ef8c828d016183de565b945094505060808a013567ffffffffffffffff81111561851257618511618394565b5b61851e8c828d016183de565b92509250509295985092959850929598565b60007fffffffff0000000000000000000000000000000000000000000000000000000082169050919050565b61856581618530565b811461857057600080fd5b50565b6000813590506185828161855c565b92915050565b60006020828403121561859e5761859d61838f565b5b60006185ac84828501618573565b91505092915050565b60008115159050919050565b6185ca816185b5565b82525050565b60006020820190506185e560008301846185c1565b92915050565b600080fd5b600060808284031215618606576186056185eb565b5b81905092915050565b600080fd5b6000601f19601f8301169050919050565b7f4e487b7100000000000000000000000000000000000000000000000000000000600052604160045260246000fd5b61865d82618614565b810181811067ffffffffffffffff8211171561867c5761867b618625565b5b80604052505050565b600061868f618385565b905061869b8282618654565b919050565b600067ffffffffffffffff8211156186bb576186ba618625565b5b6186c482618614565b9050602081019050919050565b82818337600083830152505050565b60006186f36186ee846186a0565b618685565b90508281526020810184848401111561870f5761870e61860f565b5b61871a8482856186d1565b509392505050565b600082601f830112618737576187366183cf565b5b81356187478482602086016186e0565b91505092915050565b618759816185b5565b811461876457600080fd5b50565b60008135905061877681618750565b92915050565b600080600060c084860312156187955761879461838f565b5b60006187a3868287016185f0565b935050608084013567ffffffffffffffff8111156187c4576187c3618394565b5b6187d086828701618722565b92505060a06187e186828701618767565b9150509250925092565b600081519050919050565b600082825260208201905092915050565b60005b8381101561882557808201518184015260208101905061880a565b60008484015250505050565b600061883c826187eb565b61884681856187f6565b9350618856818560208601618807565b61885f81618614565b840191505092915050565b600060208201905081810360008301526188848184618831565b905092915050565b6000602082840312156188a2576188a161838f565b5b60006188b0848285016183ba565b91505092915050565b600073ffffffffffffffffffffffffffffffffffffffff82169050919050565b60006188e4826188b9565b9050919050565b6188f4816188d9565b82525050565b600060208201905061890f60008301846188eb565b92915050565b61891e816188d9565b811461892957600080fd5b50565b60008135905061893b81618915565b92915050565b600080604083850312156189585761895761838f565b5b60006189668582860161892c565b9250506020618977858286016183ba565b9150509250929050565b61898a81618399565b82525050565b60006020820190506189a56000830184618981565b92915050565b600080602083850312156189c2576189c161838f565b5b600083013567ffffffffffffffff8111156189e0576189df618394565b5b6189ec858286016183de565b92509250509250929050565b60008083601f840112618a0e57618a0d6183cf565b5b8235905067ffffffffffffffff811115618a2b57618a2a6183d4565b5b602083019150836020820283011115618a4757618a466183d9565b5b9250929050565b600080600060408486031215618a6757618a6661838f565b5b600084013567ffffffffffffffff811115618a8557618a84618394565b5b618a91868287016189f8565b93509350506020618aa486828701618767565b9150509250925092565b600060208284031215618ac457618ac361838f565b5b6000618ad28482850161892c565b91505092915050565b60008060408385031215618af257618af161838f565b5b6000618b00858286016183ba565b9250506020618b11858286016183ba565b9150509250929050565b600061012082019050618b31600083018c618981565b618b3e602083018b618981565b618b4b604083018a618981565b618b586060830189618981565b618b656080830188618981565b618b7260a0830187618981565b618b7f60c0830186618981565b618b8c60e0830185618981565b618b9a610100830184618981565b9a9950505050505050505050565b600080600060608486031215618bc157618bc061838f565b5b6000618bcf8682870161892c565b9350506020618be08682870161892c565b9250506040618bf1868287016183ba565b9150509250925092565b6000819050919050565b6000618c20618c1b618c16846188b9565b618bfb565b6188b9565b9050919050565b6000618c3282618c05565b9050919050565b6000618c4482618c27565b9050919050565b618c5481618c39565b82525050565b6000602082019050618c6f6000830184618c4b565b92915050565b60008060008060008060608789031215618c9257618c9161838f565b5b600087013567ffffffffffffffff811115618cb057618caf618394565b5b618cbc89828a016183de565b9650965050602087013567ffffffffffffffff811115618cdf57618cde618394565b5b618ceb89828a016183de565b9450945050604087013567ffffffffffffffff811115618d0e57618d0d618394565b5b618d1a89828a016183de565b92509250509295509295509295565b600080fd5b6000819050919050565b618d4181618d2e565b8114618d4c57600080fd5b50565b600081359050618d5e81618d38565b92915050565b600060608284031215618d7a57618d79618d29565b5b618d846060618685565b90506000618d94848285016183ba565b6000830152506020618da8848285016183ba565b6020830152506040618dbc84828501618d4f565b60408301525092915050565b60008060808385031215618ddf57618dde61838f565b5b6000618ded85828601618d64565b925050606083013567ffffffffffffffff811115618e0e57618e0d618394565b5b618e1a85828601618722565b9150509250929050565b600067ffffffffffffffff821115618e3f57618e3e618625565b5b618e4882618614565b9050602081019050919050565b6000618e68618e6384618e24565b618685565b905082815260208101848484011115618e8457618e8361860f565b5b618e8f8482856186d1565b509392505050565b600082601f830112618eac57618eab6183cf565b5b8135618ebc848260208601618e55565b91505092915050565b60008060408385031215618edc57618edb61838f565b5b600083013567ffffffffffffffff811115618efa57618ef9618394565b5b618f0685828601618e97565b925050602083013567ffffffffffffffff811115618f2757618f26618394565b5b618f3385828601618e97565b9150509250929050565b600080600080600060a08688031215618f5957618f5861838f565b5b6000618f678882890161892c565b9550506020618f788882890161892c565b9450506040618f898882890161892c565b9350506060618f9a8882890161892c565b9250506080618fab888289016183ba565b9150509295509295909350565b60008060408385031215618fcf57618fce61838f565b5b6000618fdd8582860161892c565b9250506020618fee85828601618767565b9150509250929050565b600080600080608085870312156190125761901161838f565b5b60006190208782880161892c565b94505060206190318782880161892c565b9350506040619042878288016183ba565b925050606085013567ffffffffffffffff81111561906357619062618394565b5b61906f87828801618722565b91505092959194509250565b6000602082840312156190915761909061838f565b5b600082013567ffffffffffffffff8111156190af576190ae618394565b5b6190bb84828501618722565b91505092915050565b60006190cf82618c27565b9050919050565b6190df816190c4565b82525050565b60006020820190506190fa60008301846190d6565b92915050565b60006080820190506191156000830187618981565b6191226020830186618981565b61912f6040830185618981565b61913c6060830184618981565b95945050505050565b60008060006060848603121561915e5761915d61838f565b5b600061916c868287016183ba565b935050602061917d868287016183ba565b925050604061918e868287016183ba565b9150509250925092565b600080604083850312156191af576191ae61838f565b5b60006191bd8582860161892c565b92505060206191ce8582860161892c565b9150509250929050565b6000806000604084860312156191f1576191f061838f565b5b600084013567ffffffffffffffff81111561920f5761920e618394565b5b61921b868287016183de565b9350935050602061922e86828701618767565b9150509250925092565b7f4e487b7100000000000000000000000000000000000000000000000000000000600052603260045260246000fd5b7f4e487b7100000000000000000000000000000000000000000000000000000000600052601160045260246000fd5b60006192a182618399565b91507fffffffffffffffffffffffffffffffffffffffffffffffffffffffffffffffff82036192d3576192d2619267565b5b600182019050919050565b600081519050919050565b600081905092915050565b60006192ff826192de565b61930981856192e9565b9350619319818560208601618807565b80840191505092915050565b600061933182846192f4565b915081905092915050565b600082825260208201905092915050565b6000619358826192de565b619362818561933c565b9350619372818560208601618807565b61937b81618614565b840191505092915050565b600060208201905081810360008301526193a0818461934d565b905092915050565b6000815190506193b781618750565b92915050565b6000602082840312156193d3576193d261838f565b5b60006193e1848285016193a8565b91505092915050565b7f41726645524337323156313a204e6f7420616c6c6f7765640000000000000000600082015250565b60006194206018836187f6565b915061942b826193ea565b602082019050919050565b6000602082019050818103600083015261944f81619413565b9050919050565b600061946182618399565b915061946c83618399565b925082820190508082111561948457619483619267565b5b92915050565b7f41726645524337323156313a20546869732065706f636820697320636c6f736560008201527f64206f72207072696e746572206973206f7574206f662073746f636b00000000602082015250565b60006194e6603c836187f6565b91506194f18261948a565b604082019050919050565b60006020820190508181036000830152619515816194d9565b9050919050565b7f41726645524337323156313a20496e76616c6964207175616e74697479000000600082015250565b6000619552601d836187f6565b915061955d8261951c565b602082019050919050565b6000602082019050818103600083015261958181619545565b9050919050565b7f4e487b7100000000000000000000000000000000000000000000000000000000600052602260045260246000fd5b600060028204905060018216806195cf57607f821691505b6020821081036195e2576195e1619588565b5b50919050565b60008190508160005260206000209050919050565b60006020601f8301049050919050565b600082821b905092915050565b60006008830261964a7fffffffffffffffffffffffffffffffffffffffffffffffffffffffffffffffff8261960d565b619654868361960d565b95508019841693508086168417925050509392505050565b600061968761968261967d84618399565b618bfb565b618399565b9050919050565b6000819050919050565b6196a18361966c565b6196b56196ad8261968e565b84845461961a565b825550505050565b600090565b6196ca6196bd565b6196d5818484619698565b505050565b5b818110156196f9576196ee6000826196c2565b6001810190506196db565b5050565b601f82111561973e5761970f816195e8565b619718846195fd565b81016020851015619727578190505b61973b619733856195fd565b8301826196da565b50505b505050565b600082821c905092915050565b600061976160001984600802619743565b1980831691505092915050565b600061977a8383619750565b9150826002028217905092915050565b619793826187eb565b67ffffffffffffffff8111156197ac576197ab618625565b5b6197b682546195b7565b6197c18282856196fd565b600060209050601f8311600181146197f457600084156197e2578287015190505b6197ec858261976e565b865550619854565b601f198416619802866195e8565b60005b8281101561982a57848901518255600182019150602085019450602081019050619805565b868310156198475784890151619843601f891682619750565b8355505b6001600288020188555050505b505050505050565b600060608201905061987160008301866188eb565b61987e60208301856188eb565b61988b6040830184618981565b949350505050565b60006040820190506198a860008301856188eb565b6198b56020830184618981565b9392505050565b600081519050919050565b600082825260208201905092915050565b6000819050602082019050919050565b6198f181618399565b82525050565b600061990383836198e8565b60208301905092915050565b6000602082019050919050565b6000619927826198bc565b61993181856198c7565b935061993c836198d8565b8060005b8381101561996d57815161995488826198f7565b975061995f8361990f565b925050600181019050619940565b5085935050505092915050565b7f5052494e54455200000000000000000000000000000000000000000000000000600082015250565b60006199b06007836187f6565b91506199bb8261997a565b602082019050919050565b6000610100820190506199dc600083018a6188eb565b81810360208301526199ee818961991c565b90506199fd6040830188618981565b619a0a6060830187618981565b619a176080830186618981565b619a2460a0830185618981565b619a3160c08301846185c1565b81810360e0830152619a42816199a3565b905098975050505050505050565b7f4552433732313a20617070726f76616c20746f2063757272656e74206f776e6560008201527f7200000000000000000000000000000000000000000000000000000000000000602082015250565b6000619aac6021836187f6565b9150619ab782619a50565b604082019050919050565b60006020820190508181036000830152619adb81619a9f565b9050919050565b7f4552433732313a20617070726f76652063616c6c6572206973206e6f7420746f60008201527f6b656e206f776e6572206f7220617070726f76656420666f7220616c6c000000602082015250565b6000619b3e603d836187f6565b9150619b4982619ae2565b604082019050919050565b60006020820190508181036000830152619b6d81619b31565b9050919050565b7f41726645524337323156313a20496e76616c69642065706f6368206964206f7260008201527f206e6f7420656e6f756768207175616e74697479000000000000000000000000602082015250565b6000619bd06034836187f6565b9150619bdb82619b74565b604082019050919050565b60006020820190508181036000830152619bff81619bc3565b9050919050565b600081519050619c1581618915565b92915050565b600060208284031215619c3157619c3061838f565b5b6000619c3f84828501619c06565b91505092915050565b7f4172664552433732313a204e6f742061206f776e657200000000000000000000600082015250565b6000619c7e6016836187f6565b9150619c8982619c48565b602082019050919050565b60006020820190508181036000830152619cad81619c71565b9050919050565b600081519050619cc3816183a3565b92915050565b600060208284031215619cdf57619cde61838f565b5b6000619ced84828501619cb4565b91505092915050565b6000819050919050565b6000619d1b619d16619d1184619cf6565b618bfb565b618399565b9050919050565b619d2b81619d00565b82525050565b600080fd5b82818337505050565b6000619d4b83856198c7565b93507f07ffffffffffffffffffffffffffffffffffffffffffffffffffffffffffffff831115619d7e57619d7d619d31565b5b602083029250619d8f838584619d36565b82840190509392505050565b600060a082019050619db060008301896188eb565b619dbd6020830188619d22565b8181036040830152619dcf818761991c565b90508181036060830152619de3818661991c565b90508181036080830152619df8818486619d3f565b9050979650505050505050565b7f4172664552433732313a204e6f742077686974656c6973746564000000000000600082015250565b6000619e3b601a836187f6565b9150619e4682619e05565b602082019050919050565b60006020820190508181036000830152619e6a81619e2e565b9050919050565b6000819050919050565b6000619e96619e91619e8c84619e71565b618bfb565b618399565b9050919050565b619ea681619e7b565b82525050565b6000608082019050619ec160008301876188eb565b619ece6020830186619e9d565b619edb6040830185618981565b619ee86060830184618981565b95945050505050565b600082825260208201905092915050565b6000819050919050565b619f15816188d9565b82525050565b6000619f278383619f0c565b60208301905092915050565b6000619f42602084018461892c565b905092915050565b6000602082019050919050565b6000619f638385619ef1565b9350619f6e82619f02565b8060005b85811015619fa757619f848284619f33565b619f8e8882619f1b565b9750619f9983619f4a565b925050600181019050619f72565b5085925050509392505050565b60006040820190508181036000830152619fcf818587619f57565b9050619fde60208301846185c1565b949350505050565b7f4552433732313a2063616c6c6572206973206e6f7420746f6b656e206f776e6560008201527f72206f7220617070726f76656400000000000000000000000000000000000000602082015250565b600061a042602d836187f6565b915061a04d82619fe6565b604082019050919050565b6000602082019050818103600083015261a0718161a035565b9050919050565b600061a08382618399565b915061a08e83618399565b9250817fffffffffffffffffffffffffffffffffffffffffffffffffffffffffffffffff048311821515161561a0c75761a0c6619267565b5b828202905092915050565b7f4e487b7100000000000000000000000000000000000000000000000000000000600052601260045260246000fd5b600061a10c82618399565b915061a11783618399565b92508261a1275761a12661a0d2565b5b828204905092915050565b7f41726645524337323156313a204e6f742077686974656c69737465642075736560008201527f7200000000000000000000000000000000000000000000000000000000000000602082015250565b600061a18e6021836187f6565b915061a1998261a132565b604082019050919050565b6000602082019050818103600083015261a1bd8161a181565b9050919050565b6000819050919050565b600061a1e961a1e461a1df8461a1c4565b618bfb565b618399565b9050919050565b61a1f98161a1ce565b82525050565b600060608201905061a21460008301866188eb565b61a2216020830185618981565b61a22e604083018461a1f0565b949350505050565b7f4552433732313a20696e76616c696420746f6b656e2049440000000000000000600082015250565b600061a26c6018836187f6565b915061a2778261a236565b602082019050919050565b6000602082019050818103600083015261a29b8161a25f565b9050919050565b600060608201905061a2b760008301866188eb565b61a2c46020830185618981565b61a2d16040830184618981565b949350505050565b7f4552433732313a2061646472657373207a65726f206973206e6f74206120766160008201527f6c6964206f776e65720000000000000000000000000000000000000000000000602082015250565b600061a3356029836187f6565b915061a3408261a2d9565b604082019050919050565b6000602082019050818103600083015261a3648161a328565b9050919050565b7f496e697469616c697a61626c653a20636f6e747261637420697320616c72656160008201527f647920696e697469616c697a6564000000000000000000000000000000000000602082015250565b600061a3c7602e836187f6565b915061a3d28261a36b565b604082019050919050565b6000602082019050818103600083015261a3f68161a3ba565b9050919050565b6000819050919050565b600060ff82169050919050565b600061a42f61a42a61a4258461a3fd565b618bfb565b61a407565b9050919050565b61a43f8161a414565b82525050565b600060208201905061a45a600083018461a436565b92915050565b7f41726645524337323156313a204e6f74206c6973746564000000000000000000600082015250565b600061a4966017836187f6565b915061a4a18261a460565b602082019050919050565b6000602082019050818103600083015261a4c58161a489565b9050919050565b7f41726645524337323156313a205072697a6520697320696e636f72726563742060008201527f6f7220696e76616c696400000000000000000000000000000000000000000000602082015250565b600061a528602a836187f6565b915061a5338261a4cc565b604082019050919050565b6000602082019050818103600083015261a5578161a51b565b9050919050565b600061a56982618399565b915061a57483618399565b925082820390508181111561a58c5761a58b619267565b5b92915050565b6000815461a59f816195b7565b61a5a981866187f6565b9450600182166000811461a5c4576001811461a5da5761a60d565b60ff19831686528115156020028601935061a60d565b61a5e3856195e8565b60005b8381101561a6055781548189015260018201915060208101905061a5e6565b808801955050505b50505092915050565b600060a08201905061a62b60008301886188eb565b61a63860208301876188eb565b61a6456040830186618981565b61a6526060830185618981565b818103608083015261a664818461a592565b90509695505050505050565b7f41726645524337323156313a2055524920717565727920666f72206e6f6e657860008201527f697374656e7420746f6b656e0000000000000000000000000000000000000000602082015250565b600061a6cc602c836187f6565b915061a6d78261a670565b604082019050919050565b6000602082019050818103600083015261a6fb8161a6bf565b9050919050565b600081905092915050565b6000815461a71a816195b7565b61a724818661a702565b9450600182166000811461a73f576001811461a7545761a787565b60ff198316865281151582028601935061a787565b61a75d856195e8565b60005b8381101561a77f5781548189015260018201915060208101905061a760565b838801955050505b50505092915050565b600061a79b826187eb565b61a7a5818561a702565b935061a7b5818560208601618807565b80840191505092915050565b600061a7cd828661a70d565b915061a7d9828561a790565b915061a7e5828461a70d565b9150819050949350505050565b600060a08201905061a80760008301886188eb565b61a8146020830187619d22565b61a8216040830186618981565b61a82e6060830185618981565b61a83b6080830184618981565b9695505050505050565b7f41726645524337323156313a204e6f74207065726d6974746564000000000000600082015250565b600061a87b601a836187f6565b915061a8868261a845565b602082019050919050565b6000602082019050818103600083015261a8aa8161a86e565b9050919050565b7f4f776e61626c653a206e6577206f776e657220697320746865207a65726f206160008201527f6464726573730000000000000000000000000000000000000000000000000000602082015250565b600061a90d6026836187f6565b915061a9188261a8b1565b604082019050919050565b6000602082019050818103600083015261a93c8161a900565b9050919050565b7f4f776e61626c653a2063616c6c6572206973206e6f7420746865206f776e6572600082015250565b600061a9796020836187f6565b915061a9848261a943565b602082019050919050565b6000602082019050818103600083015261a9a88161a96c565b9050919050565b7f5265656e7472616e637947756172643a207265656e7472616e742063616c6c00600082015250565b600061a9e5601f836187f6565b915061a9f08261a9af565b602082019050919050565b6000602082019050818103600083015261aa148161a9d8565b9050919050565b7f4e487b7100000000000000000000000000000000000000000000000000000000600052602160045260246000fd5b61aa5381618d2e565b82525050565b600060408201905061aa6e600083018561aa4a565b818103602083015261aa80818461934d565b90509392505050565b60008151905061aa9881618d38565b92915050565b60006020828403121561aab45761aab361838f565b5b600061aac28482850161aa89565b91505092915050565b7f4552433732313a206d696e7420746f20746865207a65726f2061646472657373600082015250565b600061ab016020836187f6565b915061ab0c8261aacb565b602082019050919050565b6000602082019050818103600083015261ab308161aaf4565b9050919050565b7f4552433732313a20746f6b656e20616c7265616479206d696e74656400000000600082015250565b600061ab6d601c836187f6565b915061ab788261ab37565b602082019050919050565b6000602082019050818103600083015261ab9c8161ab60565b9050919050565b7f4552433732313a207472616e736665722066726f6d20696e636f72726563742060008201527f6f776e6572000000000000000000000000000000000000000000000000000000602082015250565b600061abff6025836187f6565b915061ac0a8261aba3565b604082019050919050565b6000602082019050818103600083015261ac2e8161abf2565b9050919050565b7f4552433732313a207472616e7366657220746f20746865207a65726f2061646460008201527f7265737300000000000000000000000000000000000000000000000000000000602082015250565b600061ac916024836187f6565b915061ac9c8261ac35565b604082019050919050565b6000602082019050818103600083015261acc08161ac84565b9050919050565b7f496e697469616c697a61626c653a20636f6e7472616374206973206e6f74206960008201527f6e697469616c697a696e67000000000000000000000000000000000000000000602082015250565b600061ad23602b836187f6565b915061ad2e8261acc7565b604082019050919050565b6000602082019050818103600083015261ad528161ad16565b9050919050565b7f4552433732313a207472616e7366657220746f206e6f6e20455243373231526560008201527f63656976657220696d706c656d656e7465720000000000000000000000000000602082015250565b600061adb56032836187f6565b915061adc08261ad59565b604082019050919050565b6000602082019050818103600083015261ade48161ada8565b9050919050565b7f4552433732313a20617070726f766520746f2063616c6c657200000000000000600082015250565b600061ae216019836187f6565b915061ae2c8261adeb565b602082019050919050565b6000602082019050818103600083015261ae508161ae14565b9050919050565b600060808201905061ae6c60008301876188eb565b61ae7960208301866188eb565b61ae866040830185618981565b818103606083015261ae98818461934d565b905095945050505050565b60008151905061aeb28161855c565b92915050565b60006020828403121561aece5761aecd61838f565b5b600061aedc8482850161aea3565b91505092915050565b61aeee8161a407565b82525050565b600060808201905061af09600083018761aa4a565b61af16602083018661aee5565b61af23604083018561aa4a565b61af30606083018461aa4a565b9594505050505056fe68747470733a2f2f6173736574732e616c6c6f792e73706163652f746f6b656e2d7572692d73322fa2646970667358221220adcb8e7933c27f71809713eb78fa3aea01d967381d852059f6c59f7336413f6b64736f6c63430008100033","opcodes":"PUSH1 0x80 PUSH1 0x40 MSTORE CALLVALUE DUP1 ISZERO PUSH3 0x11 JUMPI PUSH1 0x0 DUP1 REVERT JUMPDEST POP PUSH2 0xAF97 DUP1 PUSH3 0x22 PUSH1 0x0 CODECOPY PUSH1 0x0 RETURN INVALID PUSH1 0x80 PUSH1 0x40 MSTORE PUSH1 0x4 CALLDATASIZE LT PUSH2 0x38B JUMPI PUSH1 0x0 CALLDATALOAD PUSH1 0xE0 SHR DUP1 PUSH4 0x7EBEDEDB GT PUSH2 0x1DC JUMPI DUP1 PUSH4 0xC87B56DD GT PUSH2 0x102 JUMPI DUP1 PUSH4 0xDBD419ED GT PUSH2 0xA0 JUMPI DUP1 PUSH4 0xEC437038 GT PUSH2 0x6F JUMPI DUP1 PUSH4 0xEC437038 EQ PUSH2 0xD82 JUMPI DUP1 PUSH4 0xECC228CE EQ PUSH2 0xDBF JUMPI DUP1 PUSH4 0xEDDA7059 EQ PUSH2 0xDD6 JUMPI DUP1 PUSH4 0xF2FDE38B EQ PUSH2 0xDFF JUMPI PUSH2 0x38B JUMP JUMPDEST DUP1 PUSH4 0xDBD419ED EQ PUSH2 0xCB3 JUMPI DUP1 PUSH4 0xE329CF7B EQ PUSH2 0xCDC JUMPI DUP1 PUSH4 0xE561084F EQ PUSH2 0xD1C JUMPI DUP1 PUSH4 0xE985E9C5 EQ PUSH2 0xD45 JUMPI PUSH2 0x38B JUMP JUMPDEST DUP1 PUSH4 0xCB73BFF1 GT PUSH2 0xDC JUMPI DUP1 PUSH4 0xCB73BFF1 EQ PUSH2 0xBF7 JUMPI DUP1 PUSH4 0xD082E381 EQ PUSH2 0xC22 JUMPI DUP1 PUSH4 0xD87DF9E2 EQ PUSH2 0xC4D JUMPI DUP1 PUSH4 0xDB0A4882 EQ PUSH2 0xC8A JUMPI PUSH2 0x38B JUMP JUMPDEST DUP1 PUSH4 0xC87B56DD EQ PUSH2 0xB54 JUMPI DUP1 PUSH4 0xC8D5C0E2 EQ PUSH2 0xB91 JUMPI DUP1 PUSH4 0xC9941806 EQ PUSH2 0xBBA JUMPI PUSH2 0x38B JUMP JUMPDEST DUP1 PUSH4 0x95D89B41 GT PUSH2 0x17A JUMPI DUP1 PUSH4 0xA22CB465 GT PUSH2 0x149 JUMPI DUP1 PUSH4 0xA22CB465 EQ PUSH2 0xA9C JUMPI DUP1 PUSH4 0xA7397C2E EQ PUSH2 0xAC5 JUMPI DUP1 PUSH4 0xB88D4FDE EQ PUSH2 0xAEE JUMPI DUP1 PUSH4 0xC3E50ABB EQ PUSH2 0xB17 JUMPI PUSH2 0x38B JUMP JUMPDEST DUP1 PUSH4 0x95D89B41 EQ PUSH2 0x9F6 JUMPI DUP1 PUSH4 0x97C04EDB EQ PUSH2 0xA21 JUMPI DUP1 PUSH4 0x99C37A1F EQ PUSH2 0xA4A JUMPI DUP1 PUSH4 0x9DDB234C EQ PUSH2 0xA73 JUMPI PUSH2 0x38B JUMP JUMPDEST DUP1 PUSH4 0x8E6B86CB GT PUSH2 0x1B6 JUMPI DUP1 PUSH4 0x8E6B86CB EQ PUSH2 0x95D JUMPI DUP1 PUSH4 0x93709109 EQ PUSH2 0x99A JUMPI DUP1 PUSH4 0x9401C1E4 EQ PUSH2 0x9B1 JUMPI DUP1 PUSH4 0x9533D573 EQ PUSH2 0x9CD JUMPI PUSH2 0x38B JUMP JUMPDEST DUP1 PUSH4 0x7EBEDEDB EQ PUSH2 0x8F2 JUMPI DUP1 PUSH4 0x8129FC1C EQ PUSH2 0x91B JUMPI DUP1 PUSH4 0x8DA5CB5B EQ PUSH2 0x932 JUMPI PUSH2 0x38B JUMP JUMPDEST DUP1 PUSH4 0x32A5B0AA GT PUSH2 0x2C1 JUMPI DUP1 PUSH4 0x63A205F7 GT PUSH2 0x25F JUMPI DUP1 PUSH4 0x6EF1EEE4 GT PUSH2 0x22E JUMPI DUP1 PUSH4 0x6EF1EEE4 EQ PUSH2 0x848 JUMPI DUP1 PUSH4 0x70A08231 EQ PUSH2 0x873 JUMPI DUP1 PUSH4 0x715018A6 EQ PUSH2 0x8B0 JUMPI DUP1 PUSH4 0x7DD12D15 EQ PUSH2 0x8C7 JUMPI PUSH2 0x38B JUMP JUMPDEST DUP1 PUSH4 0x63A205F7 EQ PUSH2 0x768 JUMPI DUP1 PUSH4 0x6C7B7F6C EQ PUSH2 0x791 JUMPI DUP1 PUSH4 0x6D998F01 EQ PUSH2 0x7CE JUMPI DUP1 PUSH4 0x6EDA504E EQ PUSH2 0x80B JUMPI PUSH2 0x38B JUMP JUMPDEST DUP1 PUSH4 0x42842E0E GT PUSH2 0x29B JUMPI DUP1 PUSH4 0x42842E0E EQ PUSH2 0x6B0 JUMPI DUP1 PUSH4 0x5D952D25 EQ PUSH2 0x6D9 JUMPI DUP1 PUSH4 0x61FFC012 EQ PUSH2 0x702 JUMPI DUP1 PUSH4 0x6352211E EQ PUSH2 0x72B JUMPI PUSH2 0x38B JUMP JUMPDEST DUP1 PUSH4 0x32A5B0AA EQ PUSH2 0x61F JUMPI DUP1 PUSH4 0x399B3798 EQ PUSH2 0x648 JUMPI DUP1 PUSH4 0x3A988498 EQ PUSH2 0x673 JUMPI PUSH2 0x38B JUMP JUMPDEST DUP1 PUSH4 0x10A6D134 GT PUSH2 0x32E JUMPI DUP1 PUSH4 0x19D17E51 GT PUSH2 0x308 JUMPI DUP1 PUSH4 0x19D17E51 EQ PUSH2 0x537 JUMPI DUP1 PUSH4 0x1A924FD5 EQ PUSH2 0x574 JUMPI DUP1 PUSH4 0x23B872DD EQ PUSH2 0x5B9 JUMPI DUP1 PUSH4 0x2C7D077E EQ PUSH2 0x5E2 JUMPI PUSH2 0x38B JUMP JUMPDEST DUP1 PUSH4 0x10A6D134 EQ PUSH2 0x4CE JUMPI DUP1 PUSH4 0x13DE306A EQ PUSH2 0x4F7 JUMPI DUP1 PUSH4 0x1424F936 EQ PUSH2 0x50E JUMPI PUSH2 0x38B JUMP JUMPDEST DUP1 PUSH4 0x6FDDE03 GT PUSH2 0x36A JUMPI DUP1 PUSH4 0x6FDDE03 EQ PUSH2 0x412 JUMPI DUP1 PUSH4 0x81812FC EQ PUSH2 0x43D JUMPI DUP1 PUSH4 0x95EA7B3 EQ PUSH2 0x47A JUMPI DUP1 PUSH4 0xC53EFE6 EQ PUSH2 0x4A3 JUMPI PUSH2 0x38B JUMP JUMPDEST DUP1 PUSH3 0x1640C2 EQ PUSH2 0x390 JUMPI DUP1 PUSH4 0x1FFC9A7 EQ PUSH2 0x3B9 JUMPI DUP1 PUSH4 0x3ECAA95 EQ PUSH2 0x3F6 JUMPI JUMPDEST PUSH1 0x0 DUP1 REVERT JUMPDEST CALLVALUE DUP1 ISZERO PUSH2 0x39C JUMPI PUSH1 0x0 DUP1 REVERT JUMPDEST POP PUSH2 0x3B7 PUSH1 0x4 DUP1 CALLDATASIZE SUB DUP2 ADD SWAP1 PUSH2 0x3B2 SWAP2 SWAP1 PUSH2 0x8434 JUMP JUMPDEST PUSH2 0xE28 JUMP JUMPDEST STOP JUMPDEST CALLVALUE DUP1 ISZERO PUSH2 0x3C5 JUMPI PUSH1 0x0 DUP1 REVERT JUMPDEST POP PUSH2 0x3E0 PUSH1 0x4 DUP1 CALLDATASIZE SUB DUP2 ADD SWAP1 PUSH2 0x3DB SWAP2 SWAP1 PUSH2 0x8588 JUMP JUMPDEST PUSH2 0x108D JUMP JUMPDEST PUSH1 0x40 MLOAD PUSH2 0x3ED SWAP2 SWAP1 PUSH2 0x85D0 JUMP JUMPDEST PUSH1 0x40 MLOAD DUP1 SWAP2 SUB SWAP1 RETURN JUMPDEST PUSH2 0x410 PUSH1 0x4 DUP1 CALLDATASIZE SUB DUP2 ADD SWAP1 PUSH2 0x40B SWAP2 SWAP1 PUSH2 0x877C JUMP JUMPDEST PUSH2 0x116F JUMP JUMPDEST STOP JUMPDEST CALLVALUE DUP1 ISZERO PUSH2 0x41E JUMPI PUSH1 0x0 DUP1 REVERT JUMPDEST POP PUSH2 0x427 PUSH2 0x1E37 JUMP JUMPDEST PUSH1 0x40 MLOAD PUSH2 0x434 SWAP2 SWAP1 PUSH2 0x886A JUMP JUMPDEST PUSH1 0x40 MLOAD DUP1 SWAP2 SUB SWAP1 RETURN JUMPDEST CALLVALUE DUP1 ISZERO PUSH2 0x449 JUMPI PUSH1 0x0 DUP1 REVERT JUMPDEST POP PUSH2 0x464 PUSH1 0x4 DUP1 CALLDATASIZE SUB DUP2 ADD SWAP1 PUSH2 0x45F SWAP2 SWAP1 PUSH2 0x888C JUMP JUMPDEST PUSH2 0x1EC9 JUMP JUMPDEST PUSH1 0x40 MLOAD PUSH2 0x471 SWAP2 SWAP1 PUSH2 0x88FA JUMP JUMPDEST PUSH1 0x40 MLOAD DUP1 SWAP2 SUB SWAP1 RETURN JUMPDEST CALLVALUE DUP1 ISZERO PUSH2 0x486 JUMPI PUSH1 0x0 DUP1 REVERT JUMPDEST POP PUSH2 0x4A1 PUSH1 0x4 DUP1 CALLDATASIZE SUB DUP2 ADD SWAP1 PUSH2 0x49C SWAP2 SWAP1 PUSH2 0x8941 JUMP JUMPDEST PUSH2 0x1F0F JUMP JUMPDEST STOP JUMPDEST CALLVALUE DUP1 ISZERO PUSH2 0x4AF JUMPI PUSH1 0x0 DUP1 REVERT JUMPDEST POP PUSH2 0x4B8 PUSH2 0x2026 JUMP JUMPDEST PUSH1 0x40 MLOAD PUSH2 0x4C5 SWAP2 SWAP1 PUSH2 0x8990 JUMP JUMPDEST PUSH1 0x40 MLOAD DUP1 SWAP2 SUB SWAP1 RETURN JUMPDEST CALLVALUE DUP1 ISZERO PUSH2 0x4DA JUMPI PUSH1 0x0 DUP1 REVERT JUMPDEST POP PUSH2 0x4F5 PUSH1 0x4 DUP1 CALLDATASIZE SUB DUP2 ADD SWAP1 PUSH2 0x4F0 SWAP2 SWAP1 PUSH2 0x89AB JUMP JUMPDEST PUSH2 0x202D JUMP JUMPDEST STOP JUMPDEST CALLVALUE DUP1 ISZERO PUSH2 0x503 JUMPI PUSH1 0x0 DUP1 REVERT JUMPDEST POP PUSH2 0x50C PUSH2 0x285F JUMP JUMPDEST STOP JUMPDEST CALLVALUE DUP1 ISZERO PUSH2 0x51A JUMPI PUSH1 0x0 DUP1 REVERT JUMPDEST POP PUSH2 0x535 PUSH1 0x4 DUP1 CALLDATASIZE SUB DUP2 ADD SWAP1 PUSH2 0x530 SWAP2 SWAP1 PUSH2 0x8A4E JUMP JUMPDEST PUSH2 0x2CFE JUMP JUMPDEST STOP JUMPDEST CALLVALUE DUP1 ISZERO PUSH2 0x543 JUMPI PUSH1 0x0 DUP1 REVERT JUMPDEST POP PUSH2 0x55E PUSH1 0x4 DUP1 CALLDATASIZE SUB DUP2 ADD SWAP1 PUSH2 0x559 SWAP2 SWAP1 PUSH2 0x8AAE JUMP JUMPDEST PUSH2 0x2E87 JUMP JUMPDEST PUSH1 0x40 MLOAD PUSH2 0x56B SWAP2 SWAP1 PUSH2 0x85D0 JUMP JUMPDEST PUSH1 0x40 MLOAD DUP1 SWAP2 SUB SWAP1 RETURN JUMPDEST CALLVALUE DUP1 ISZERO PUSH2 0x580 JUMPI PUSH1 0x0 DUP1 REVERT JUMPDEST POP PUSH2 0x59B PUSH1 0x4 DUP1 CALLDATASIZE SUB DUP2 ADD SWAP1 PUSH2 0x596 SWAP2 SWAP1 PUSH2 0x8ADB JUMP JUMPDEST PUSH2 0x2EA8 JUMP JUMPDEST PUSH1 0x40 MLOAD PUSH2 0x5B0 SWAP10 SWAP9 SWAP8 SWAP7 SWAP6 SWAP5 SWAP4 SWAP3 SWAP2 SWAP1 PUSH2 0x8B1B JUMP JUMPDEST PUSH1 0x40 MLOAD DUP1 SWAP2 SUB SWAP1 RETURN JUMPDEST CALLVALUE DUP1 ISZERO PUSH2 0x5C5 JUMPI PUSH1 0x0 DUP1 REVERT JUMPDEST POP PUSH2 0x5E0 PUSH1 0x4 DUP1 CALLDATASIZE SUB DUP2 ADD SWAP1 PUSH2 0x5DB SWAP2 SWAP1 PUSH2 0x8BA8 JUMP JUMPDEST PUSH2 0x2F04 JUMP JUMPDEST STOP JUMPDEST CALLVALUE DUP1 ISZERO PUSH2 0x5EE JUMPI PUSH1 0x0 DUP1 REVERT JUMPDEST POP PUSH2 0x609 PUSH1 0x4 DUP1 CALLDATASIZE SUB DUP2 ADD SWAP1 PUSH2 0x604 SWAP2 SWAP1 PUSH2 0x888C JUMP JUMPDEST PUSH2 0x2F64 JUMP JUMPDEST PUSH1 0x40 MLOAD PUSH2 0x616 SWAP2 SWAP1 PUSH2 0x8990 JUMP JUMPDEST PUSH1 0x40 MLOAD DUP1 SWAP2 SUB SWAP1 RETURN JUMPDEST CALLVALUE DUP1 ISZERO PUSH2 0x62B JUMPI PUSH1 0x0 DUP1 REVERT JUMPDEST POP PUSH2 0x646 PUSH1 0x4 DUP1 CALLDATASIZE SUB DUP2 ADD SWAP1 PUSH2 0x641 SWAP2 SWAP1 PUSH2 0x888C JUMP JUMPDEST PUSH2 0x303F JUMP JUMPDEST STOP JUMPDEST CALLVALUE DUP1 ISZERO PUSH2 0x654 JUMPI PUSH1 0x0 DUP1 REVERT JUMPDEST POP PUSH2 0x65D PUSH2 0x364E JUMP JUMPDEST PUSH1 0x40 MLOAD PUSH2 0x66A SWAP2 SWAP1 PUSH2 0x8C5A JUMP JUMPDEST PUSH1 0x40 MLOAD DUP1 SWAP2 SUB SWAP1 RETURN JUMPDEST CALLVALUE DUP1 ISZERO PUSH2 0x67F JUMPI PUSH1 0x0 DUP1 REVERT JUMPDEST POP PUSH2 0x69A PUSH1 0x4 DUP1 CALLDATASIZE SUB DUP2 ADD SWAP1 PUSH2 0x695 SWAP2 SWAP1 PUSH2 0x888C JUMP JUMPDEST PUSH2 0x3675 JUMP JUMPDEST PUSH1 0x40 MLOAD PUSH2 0x6A7 SWAP2 SWAP1 PUSH2 0x85D0 JUMP JUMPDEST PUSH1 0x40 MLOAD DUP1 SWAP2 SUB SWAP1 RETURN JUMPDEST CALLVALUE DUP1 ISZERO PUSH2 0x6BC JUMPI PUSH1 0x0 DUP1 REVERT JUMPDEST POP PUSH2 0x6D7 PUSH1 0x4 DUP1 CALLDATASIZE SUB DUP2 ADD SWAP1 PUSH2 0x6D2 SWAP2 SWAP1 PUSH2 0x8BA8 JUMP JUMPDEST PUSH2 0x3695 JUMP JUMPDEST STOP JUMPDEST CALLVALUE DUP1 ISZERO PUSH2 0x6E5 JUMPI PUSH1 0x0 DUP1 REVERT JUMPDEST POP PUSH2 0x700 PUSH1 0x4 DUP1 CALLDATASIZE SUB DUP2 ADD SWAP1 PUSH2 0x6FB SWAP2 SWAP1 PUSH2 0x8A4E JUMP JUMPDEST PUSH2 0x36B5 JUMP JUMPDEST STOP JUMPDEST CALLVALUE DUP1 ISZERO PUSH2 0x70E JUMPI PUSH1 0x0 DUP1 REVERT JUMPDEST POP PUSH2 0x729 PUSH1 0x4 DUP1 CALLDATASIZE SUB DUP2 ADD SWAP1 PUSH2 0x724 SWAP2 SWAP1 PUSH2 0x8434 JUMP JUMPDEST PUSH2 0x383E JUMP JUMPDEST STOP JUMPDEST CALLVALUE DUP1 ISZERO PUSH2 0x737 JUMPI PUSH1 0x0 DUP1 REVERT JUMPDEST POP PUSH2 0x752 PUSH1 0x4 DUP1 CALLDATASIZE SUB DUP2 ADD SWAP1 PUSH2 0x74D SWAP2 SWAP1 PUSH2 0x888C JUMP JUMPDEST PUSH2 0x3AA3 JUMP JUMPDEST PUSH1 0x40 MLOAD PUSH2 0x75F SWAP2 SWAP1 PUSH2 0x88FA JUMP JUMPDEST PUSH1 0x40 MLOAD DUP1 SWAP2 SUB SWAP1 RETURN JUMPDEST CALLVALUE DUP1 ISZERO PUSH2 0x774 JUMPI PUSH1 0x0 DUP1 REVERT JUMPDEST POP PUSH2 0x78F PUSH1 0x4 DUP1 CALLDATASIZE SUB DUP2 ADD SWAP1 PUSH2 0x78A SWAP2 SWAP1 PUSH2 0x888C JUMP JUMPDEST PUSH2 0x3B29 JUMP JUMPDEST STOP JUMPDEST CALLVALUE DUP1 ISZERO PUSH2 0x79D JUMPI PUSH1 0x0 DUP1 REVERT JUMPDEST POP PUSH2 0x7B8 PUSH1 0x4 DUP1 CALLDATASIZE SUB DUP2 ADD SWAP1 PUSH2 0x7B3 SWAP2 SWAP1 PUSH2 0x8AAE JUMP JUMPDEST PUSH2 0x40CF JUMP JUMPDEST PUSH1 0x40 MLOAD PUSH2 0x7C5 SWAP2 SWAP1 PUSH2 0x85D0 JUMP JUMPDEST PUSH1 0x40 MLOAD DUP1 SWAP2 SUB SWAP1 RETURN JUMPDEST CALLVALUE DUP1 ISZERO PUSH2 0x7DA JUMPI PUSH1 0x0 DUP1 REVERT JUMPDEST POP PUSH2 0x7F5 PUSH1 0x4 DUP1 CALLDATASIZE SUB DUP2 ADD SWAP1 PUSH2 0x7F0 SWAP2 SWAP1 PUSH2 0x888C JUMP JUMPDEST PUSH2 0x40F0 JUMP JUMPDEST PUSH1 0x40 MLOAD PUSH2 0x802 SWAP2 SWAP1 PUSH2 0x886A JUMP JUMPDEST PUSH1 0x40 MLOAD DUP1 SWAP2 SUB SWAP1 RETURN JUMPDEST CALLVALUE DUP1 ISZERO PUSH2 0x817 JUMPI PUSH1 0x0 DUP1 REVERT JUMPDEST POP PUSH2 0x832 PUSH1 0x4 DUP1 CALLDATASIZE SUB DUP2 ADD SWAP1 PUSH2 0x82D SWAP2 SWAP1 PUSH2 0x8AAE JUMP JUMPDEST PUSH2 0x4191 JUMP JUMPDEST PUSH1 0x40 MLOAD PUSH2 0x83F SWAP2 SWAP1 PUSH2 0x85D0 JUMP JUMPDEST PUSH1 0x40 MLOAD DUP1 SWAP2 SUB SWAP1 RETURN JUMPDEST CALLVALUE DUP1 ISZERO PUSH2 0x854 JUMPI PUSH1 0x0 DUP1 REVERT JUMPDEST POP PUSH2 0x85D PUSH2 0x41B2 JUMP JUMPDEST PUSH1 0x40 MLOAD PUSH2 0x86A SWAP2 SWAP1 PUSH2 0x8C5A JUMP JUMPDEST PUSH1 0x40 MLOAD DUP1 SWAP2 SUB SWAP1 RETURN JUMPDEST CALLVALUE DUP1 ISZERO PUSH2 0x87F JUMPI PUSH1 0x0 DUP1 REVERT JUMPDEST POP PUSH2 0x89A PUSH1 0x4 DUP1 CALLDATASIZE SUB DUP2 ADD SWAP1 PUSH2 0x895 SWAP2 SWAP1 PUSH2 0x8AAE JUMP JUMPDEST PUSH2 0x41D9 JUMP JUMPDEST PUSH1 0x40 MLOAD PUSH2 0x8A7 SWAP2 SWAP1 PUSH2 0x8990 JUMP JUMPDEST PUSH1 0x40 MLOAD DUP1 SWAP2 SUB SWAP1 RETURN JUMPDEST CALLVALUE DUP1 ISZERO PUSH2 0x8BC JUMPI PUSH1 0x0 DUP1 REVERT JUMPDEST POP PUSH2 0x8C5 PUSH2 0x4290 JUMP JUMPDEST STOP JUMPDEST CALLVALUE DUP1 ISZERO PUSH2 0x8D3 JUMPI PUSH1 0x0 DUP1 REVERT JUMPDEST POP PUSH2 0x8DC PUSH2 0x42A4 JUMP JUMPDEST PUSH1 0x40 MLOAD PUSH2 0x8E9 SWAP2 SWAP1 PUSH2 0x88FA JUMP JUMPDEST PUSH1 0x40 MLOAD DUP1 SWAP2 SUB SWAP1 RETURN JUMPDEST CALLVALUE DUP1 ISZERO PUSH2 0x8FE JUMPI PUSH1 0x0 DUP1 REVERT JUMPDEST POP PUSH2 0x919 PUSH1 0x4 DUP1 CALLDATASIZE SUB DUP2 ADD SWAP1 PUSH2 0x914 SWAP2 SWAP1 PUSH2 0x8C75 JUMP JUMPDEST PUSH2 0x42CB JUMP JUMPDEST STOP JUMPDEST CALLVALUE DUP1 ISZERO PUSH2 0x927 JUMPI PUSH1 0x0 DUP1 REVERT JUMPDEST POP PUSH2 0x930 PUSH2 0x4423 JUMP JUMPDEST STOP JUMPDEST CALLVALUE DUP1 ISZERO PUSH2 0x93E JUMPI PUSH1 0x0 DUP1 REVERT JUMPDEST POP PUSH2 0x947 PUSH2 0x4B40 JUMP JUMPDEST PUSH1 0x40 MLOAD PUSH2 0x954 SWAP2 SWAP1 PUSH2 0x88FA JUMP JUMPDEST PUSH1 0x40 MLOAD DUP1 SWAP2 SUB SWAP1 RETURN JUMPDEST CALLVALUE DUP1 ISZERO PUSH2 0x969 JUMPI PUSH1 0x0 DUP1 REVERT JUMPDEST POP PUSH2 0x984 PUSH1 0x4 DUP1 CALLDATASIZE SUB DUP2 ADD SWAP1 PUSH2 0x97F SWAP2 SWAP1 PUSH2 0x8AAE JUMP JUMPDEST PUSH2 0x4B6A JUMP JUMPDEST PUSH1 0x40 MLOAD PUSH2 0x991 SWAP2 SWAP1 PUSH2 0x85D0 JUMP JUMPDEST PUSH1 0x40 MLOAD DUP1 SWAP2 SUB SWAP1 RETURN JUMPDEST CALLVALUE DUP1 ISZERO PUSH2 0x9A6 JUMPI PUSH1 0x0 DUP1 REVERT JUMPDEST POP PUSH2 0x9AF PUSH2 0x4B8B JUMP JUMPDEST STOP JUMPDEST PUSH2 0x9CB PUSH1 0x4 DUP1 CALLDATASIZE SUB DUP2 ADD SWAP1 PUSH2 0x9C6 SWAP2 SWAP1 PUSH2 0x8DC8 JUMP JUMPDEST PUSH2 0x4F48 JUMP JUMPDEST STOP JUMPDEST CALLVALUE DUP1 ISZERO PUSH2 0x9D9 JUMPI PUSH1 0x0 DUP1 REVERT JUMPDEST POP PUSH2 0x9F4 PUSH1 0x4 DUP1 CALLDATASIZE SUB DUP2 ADD SWAP1 PUSH2 0x9EF SWAP2 SWAP1 PUSH2 0x8A4E JUMP JUMPDEST PUSH2 0x54DF JUMP JUMPDEST STOP JUMPDEST CALLVALUE DUP1 ISZERO PUSH2 0xA02 JUMPI PUSH1 0x0 DUP1 REVERT JUMPDEST POP PUSH2 0xA0B PUSH2 0x5668 JUMP JUMPDEST PUSH1 0x40 MLOAD PUSH2 0xA18 SWAP2 SWAP1 PUSH2 0x886A JUMP JUMPDEST PUSH1 0x40 MLOAD DUP1 SWAP2 SUB SWAP1 RETURN JUMPDEST CALLVALUE DUP1 ISZERO PUSH2 0xA2D JUMPI PUSH1 0x0 DUP1 REVERT JUMPDEST POP PUSH2 0xA48 PUSH1 0x4 DUP1 CALLDATASIZE SUB DUP2 ADD SWAP1 PUSH2 0xA43 SWAP2 SWAP1 PUSH2 0x8EC5 JUMP JUMPDEST PUSH2 0x56FA JUMP JUMPDEST STOP JUMPDEST CALLVALUE DUP1 ISZERO PUSH2 0xA56 JUMPI PUSH1 0x0 DUP1 REVERT JUMPDEST POP PUSH2 0xA71 PUSH1 0x4 DUP1 CALLDATASIZE SUB DUP2 ADD SWAP1 PUSH2 0xA6C SWAP2 SWAP1 PUSH2 0x8F3D JUMP JUMPDEST PUSH2 0x578A JUMP JUMPDEST STOP JUMPDEST CALLVALUE DUP1 ISZERO PUSH2 0xA7F JUMPI PUSH1 0x0 DUP1 REVERT JUMPDEST POP PUSH2 0xA9A PUSH1 0x4 DUP1 CALLDATASIZE SUB DUP2 ADD SWAP1 PUSH2 0xA95 SWAP2 SWAP1 PUSH2 0x8A4E JUMP JUMPDEST PUSH2 0x5949 JUMP JUMPDEST STOP JUMPDEST CALLVALUE DUP1 ISZERO PUSH2 0xAA8 JUMPI PUSH1 0x0 DUP1 REVERT JUMPDEST POP PUSH2 0xAC3 PUSH1 0x4 DUP1 CALLDATASIZE SUB DUP2 ADD SWAP1 PUSH2 0xABE SWAP2 SWAP1 PUSH2 0x8FB8 JUMP JUMPDEST PUSH2 0x5AD2 JUMP JUMPDEST STOP JUMPDEST CALLVALUE DUP1 ISZERO PUSH2 0xAD1 JUMPI PUSH1 0x0 DUP1 REVERT JUMPDEST POP PUSH2 0xAEC PUSH1 0x4 DUP1 CALLDATASIZE SUB DUP2 ADD SWAP1 PUSH2 0xAE7 SWAP2 SWAP1 PUSH2 0x8A4E JUMP JUMPDEST PUSH2 0x5AE8 JUMP JUMPDEST STOP JUMPDEST CALLVALUE DUP1 ISZERO PUSH2 0xAFA JUMPI PUSH1 0x0 DUP1 REVERT JUMPDEST POP PUSH2 0xB15 PUSH1 0x4 DUP1 CALLDATASIZE SUB DUP2 ADD SWAP1 PUSH2 0xB10 SWAP2 SWAP1 PUSH2 0x8FF8 JUMP JUMPDEST PUSH2 0x5C71 JUMP JUMPDEST STOP JUMPDEST CALLVALUE DUP1 ISZERO PUSH2 0xB23 JUMPI PUSH1 0x0 DUP1 REVERT JUMPDEST POP PUSH2 0xB3E PUSH1 0x4 DUP1 CALLDATASIZE SUB DUP2 ADD SWAP1 PUSH2 0xB39 SWAP2 SWAP1 PUSH2 0x8AAE JUMP JUMPDEST PUSH2 0x5CD3 JUMP JUMPDEST PUSH1 0x40 MLOAD PUSH2 0xB4B SWAP2 SWAP1 PUSH2 0x85D0 JUMP JUMPDEST PUSH1 0x40 MLOAD DUP1 SWAP2 SUB SWAP1 RETURN JUMPDEST CALLVALUE DUP1 ISZERO PUSH2 0xB60 JUMPI PUSH1 0x0 DUP1 REVERT JUMPDEST POP PUSH2 0xB7B PUSH1 0x4 DUP1 CALLDATASIZE SUB DUP2 ADD SWAP1 PUSH2 0xB76 SWAP2 SWAP1 PUSH2 0x888C JUMP JUMPDEST PUSH2 0x5CF4 JUMP JUMPDEST PUSH1 0x40 MLOAD PUSH2 0xB88 SWAP2 SWAP1 PUSH2 0x886A JUMP JUMPDEST PUSH1 0x40 MLOAD DUP1 SWAP2 SUB SWAP1 RETURN JUMPDEST CALLVALUE DUP1 ISZERO PUSH2 0xB9D JUMPI PUSH1 0x0 DUP1 REVERT JUMPDEST POP PUSH2 0xBB8 PUSH1 0x4 DUP1 CALLDATASIZE SUB DUP2 ADD SWAP1 PUSH2 0xBB3 SWAP2 SWAP1 PUSH2 0x8A4E JUMP JUMPDEST PUSH2 0x5DFF JUMP JUMPDEST STOP JUMPDEST CALLVALUE DUP1 ISZERO PUSH2 0xBC6 JUMPI PUSH1 0x0 DUP1 REVERT JUMPDEST POP PUSH2 0xBE1 PUSH1 0x4 DUP1 CALLDATASIZE SUB DUP2 ADD SWAP1 PUSH2 0xBDC SWAP2 SWAP1 PUSH2 0x907B JUMP JUMPDEST PUSH2 0x5F88 JUMP JUMPDEST PUSH1 0x40 MLOAD PUSH2 0xBEE SWAP2 SWAP1 PUSH2 0x85D0 JUMP JUMPDEST PUSH1 0x40 MLOAD DUP1 SWAP2 SUB SWAP1 RETURN JUMPDEST CALLVALUE DUP1 ISZERO PUSH2 0xC03 JUMPI PUSH1 0x0 DUP1 REVERT JUMPDEST POP PUSH2 0xC0C PUSH2 0x5FBF JUMP JUMPDEST PUSH1 0x40 MLOAD PUSH2 0xC19 SWAP2 SWAP1 PUSH2 0x90E5 JUMP JUMPDEST PUSH1 0x40 MLOAD DUP1 SWAP2 SUB SWAP1 RETURN JUMPDEST CALLVALUE DUP1 ISZERO PUSH2 0xC2E JUMPI PUSH1 0x0 DUP1 REVERT JUMPDEST POP PUSH2 0xC37 PUSH2 0x5FE6 JUMP JUMPDEST PUSH1 0x40 MLOAD PUSH2 0xC44 SWAP2 SWAP1 PUSH2 0x8990 JUMP JUMPDEST PUSH1 0x40 MLOAD DUP1 SWAP2 SUB SWAP1 RETURN JUMPDEST CALLVALUE DUP1 ISZERO PUSH2 0xC59 JUMPI PUSH1 0x0 DUP1 REVERT JUMPDEST POP PUSH2 0xC74 PUSH1 0x4 DUP1 CALLDATASIZE SUB DUP2 ADD SWAP1 PUSH2 0xC6F SWAP2 SWAP1 PUSH2 0x8AAE JUMP JUMPDEST PUSH2 0x5FEC JUMP JUMPDEST PUSH1 0x40 MLOAD PUSH2 0xC81 SWAP2 SWAP1 PUSH2 0x85D0 JUMP JUMPDEST PUSH1 0x40 MLOAD DUP1 SWAP2 SUB SWAP1 RETURN JUMPDEST CALLVALUE DUP1 ISZERO PUSH2 0xC96 JUMPI PUSH1 0x0 DUP1 REVERT JUMPDEST POP PUSH2 0xCB1 PUSH1 0x4 DUP1 CALLDATASIZE SUB DUP2 ADD SWAP1 PUSH2 0xCAC SWAP2 SWAP1 PUSH2 0x8A4E JUMP JUMPDEST PUSH2 0x600D JUMP JUMPDEST STOP JUMPDEST CALLVALUE DUP1 ISZERO PUSH2 0xCBF JUMPI PUSH1 0x0 DUP1 REVERT JUMPDEST POP PUSH2 0xCDA PUSH1 0x4 DUP1 CALLDATASIZE SUB DUP2 ADD SWAP1 PUSH2 0xCD5 SWAP2 SWAP1 PUSH2 0x888C JUMP JUMPDEST PUSH2 0x6196 JUMP JUMPDEST STOP JUMPDEST CALLVALUE DUP1 ISZERO PUSH2 0xCE8 JUMPI PUSH1 0x0 DUP1 REVERT JUMPDEST POP PUSH2 0xD03 PUSH1 0x4 DUP1 CALLDATASIZE SUB DUP2 ADD SWAP1 PUSH2 0xCFE SWAP2 SWAP1 PUSH2 0x888C JUMP JUMPDEST PUSH2 0x67B8 JUMP JUMPDEST PUSH1 0x40 MLOAD PUSH2 0xD13 SWAP5 SWAP4 SWAP3 SWAP2 SWAP1 PUSH2 0x9100 JUMP JUMPDEST PUSH1 0x40 MLOAD DUP1 SWAP2 SUB SWAP1 RETURN JUMPDEST CALLVALUE DUP1 ISZERO PUSH2 0xD28 JUMPI PUSH1 0x0 DUP1 REVERT JUMPDEST POP PUSH2 0xD43 PUSH1 0x4 DUP1 CALLDATASIZE SUB DUP2 ADD SWAP1 PUSH2 0xD3E SWAP2 SWAP1 PUSH2 0x9145 JUMP JUMPDEST PUSH2 0x67E8 JUMP JUMPDEST STOP JUMPDEST CALLVALUE DUP1 ISZERO PUSH2 0xD51 JUMPI PUSH1 0x0 DUP1 REVERT JUMPDEST POP PUSH2 0xD6C PUSH1 0x4 DUP1 CALLDATASIZE SUB DUP2 ADD SWAP1 PUSH2 0xD67 SWAP2 SWAP1 PUSH2 0x9198 JUMP JUMPDEST PUSH2 0x6976 JUMP JUMPDEST PUSH1 0x40 MLOAD PUSH2 0xD79 SWAP2 SWAP1 PUSH2 0x85D0 JUMP JUMPDEST PUSH1 0x40 MLOAD DUP1 SWAP2 SUB SWAP1 RETURN JUMPDEST CALLVALUE DUP1 ISZERO PUSH2 0xD8E JUMPI PUSH1 0x0 DUP1 REVERT JUMPDEST POP PUSH2 0xDA9 PUSH1 0x4 DUP1 CALLDATASIZE SUB DUP2 ADD SWAP1 PUSH2 0xDA4 SWAP2 SWAP1 PUSH2 0x8AAE JUMP JUMPDEST PUSH2 0x6A0A JUMP JUMPDEST PUSH1 0x40 MLOAD PUSH2 0xDB6 SWAP2 SWAP1 PUSH2 0x85D0 JUMP JUMPDEST PUSH1 0x40 MLOAD DUP1 SWAP2 SUB SWAP1 RETURN JUMPDEST CALLVALUE DUP1 ISZERO PUSH2 0xDCB JUMPI PUSH1 0x0 DUP1 REVERT JUMPDEST POP PUSH2 0xDD4 PUSH2 0x6A2B JUMP JUMPDEST STOP JUMPDEST CALLVALUE DUP1 ISZERO PUSH2 0xDE2 JUMPI PUSH1 0x0 DUP1 REVERT JUMPDEST POP PUSH2 0xDFD PUSH1 0x4 DUP1 CALLDATASIZE SUB DUP2 ADD SWAP1 PUSH2 0xDF8 SWAP2 SWAP1 PUSH2 0x91D8 JUMP JUMPDEST PUSH2 0x6D80 JUMP JUMPDEST STOP JUMPDEST CALLVALUE DUP1 ISZERO PUSH2 0xE0B JUMPI PUSH1 0x0 DUP1 REVERT JUMPDEST POP PUSH2 0xE26 PUSH1 0x4 DUP1 CALLDATASIZE SUB DUP2 ADD SWAP1 PUSH2 0xE21 SWAP2 SWAP1 PUSH2 0x8AAE JUMP JUMPDEST PUSH2 0x6E6B JUMP JUMPDEST STOP JUMPDEST PUSH2 0xE3C PUSH8 0xF460618A769D82F4 PUSH1 0xC0 SHL PUSH2 0x6EEE JUMP JUMPDEST PUSH2 0xE44 PUSH2 0x6EF1 JUMP JUMPDEST PUSH2 0xE58 PUSH8 0x786236B3A5779D1E PUSH1 0xC0 SHL PUSH2 0x6EEE JUMP JUMPDEST PUSH2 0xE6C PUSH8 0xF589009373053C0D PUSH1 0xC0 SHL PUSH2 0x6EEE JUMP JUMPDEST PUSH2 0xE80 PUSH8 0xD95BDE4B89A9BF0 PUSH1 0xC0 SHL PUSH2 0x6EEE JUMP JUMPDEST PUSH2 0xE94 PUSH8 0xC15065507D35A7A4 PUSH1 0xC0 SHL PUSH2 0x6EEE JUMP JUMPDEST PUSH1 0x0 JUMPDEST DUP9 DUP9 SWAP1 POP DUP2 LT ISZERO PUSH2 0x1081 JUMPI PUSH2 0xEB6 PUSH8 0xB17834EB62453F4 PUSH1 0xC0 SHL PUSH2 0x6EEE JUMP JUMPDEST DUP9 DUP9 DUP3 DUP2 DUP2 LT PUSH2 0xEC9 JUMPI PUSH2 0xEC8 PUSH2 0x9238 JUMP JUMPDEST JUMPDEST SWAP1 POP PUSH1 0x20 MUL ADD CALLDATALOAD PUSH2 0x109 PUSH1 0x0 DUP13 DUP2 MSTORE PUSH1 0x20 ADD SWAP1 DUP2 MSTORE PUSH1 0x20 ADD PUSH1 0x0 KECCAK256 PUSH1 0x0 DUP12 DUP12 DUP6 DUP2 DUP2 LT PUSH2 0xEF9 JUMPI PUSH2 0xEF8 PUSH2 0x9238 JUMP JUMPDEST JUMPDEST SWAP1 POP PUSH1 0x20 MUL ADD CALLDATALOAD DUP2 MSTORE PUSH1 0x20 ADD SWAP1 DUP2 MSTORE PUSH1 0x20 ADD PUSH1 0x0 KECCAK256 PUSH1 0x0 ADD DUP2 SWAP1 SSTORE POP PUSH2 0xF29 PUSH8 0xFCF8D62D58B9FC35 PUSH1 0xC0 SHL PUSH2 0x6EEE JUMP JUMPDEST DUP7 DUP7 DUP3 DUP2 DUP2 LT PUSH2 0xF3C JUMPI PUSH2 0xF3B PUSH2 0x9238 JUMP JUMPDEST JUMPDEST SWAP1 POP PUSH1 0x20 MUL ADD CALLDATALOAD PUSH2 0x109 PUSH1 0x0 DUP13 DUP2 MSTORE PUSH1 0x20 ADD SWAP1 DUP2 MSTORE PUSH1 0x20 ADD PUSH1 0x0 KECCAK256 PUSH1 0x0 DUP12 DUP12 DUP6 DUP2 DUP2 LT PUSH2 0xF6C JUMPI PUSH2 0xF6B PUSH2 0x9238 JUMP JUMPDEST JUMPDEST SWAP1 POP PUSH1 0x20 MUL ADD CALLDATALOAD DUP2 MSTORE PUSH1 0x20 ADD SWAP1 DUP2 MSTORE PUSH1 0x20 ADD PUSH1 0x0 KECCAK256 PUSH1 0x1 ADD DUP2 SWAP1 SSTORE POP PUSH2 0xF9C PUSH8 0xEAE0954207C0A504 PUSH1 0xC0 SHL PUSH2 0x6EEE JUMP JUMPDEST DUP5 DUP5 DUP3 DUP2 DUP2 LT PUSH2 0xFAF JUMPI PUSH2 0xFAE PUSH2 0x9238 JUMP JUMPDEST JUMPDEST SWAP1 POP PUSH1 0x20 MUL ADD CALLDATALOAD PUSH2 0x109 PUSH1 0x0 DUP13 DUP2 MSTORE PUSH1 0x20 ADD SWAP1 DUP2 MSTORE PUSH1 0x20 ADD PUSH1 0x0 KECCAK256 PUSH1 0x0 DUP12 DUP12 DUP6 DUP2 DUP2 LT PUSH2 0xFDF JUMPI PUSH2 0xFDE PUSH2 0x9238 JUMP JUMPDEST JUMPDEST SWAP1 POP PUSH1 0x20 MUL ADD CALLDATALOAD DUP2 MSTORE PUSH1 0x20 ADD SWAP1 DUP2 MSTORE PUSH1 0x20 ADD PUSH1 0x0 KECCAK256 PUSH1 0x4 ADD DUP2 SWAP1 SSTORE POP PUSH2 0x100F PUSH8 0x80F25A8E341EF82A PUSH1 0xC0 SHL PUSH2 0x6EEE JUMP JUMPDEST DUP3 DUP3 DUP3 DUP2 DUP2 LT PUSH2 0x1022 JUMPI PUSH2 0x1021 PUSH2 0x9238 JUMP JUMPDEST JUMPDEST SWAP1 POP PUSH1 0x20 MUL ADD CALLDATALOAD PUSH2 0x109 PUSH1 0x0 DUP13 DUP2 MSTORE PUSH1 0x20 ADD SWAP1 DUP2 MSTORE PUSH1 0x20 ADD PUSH1 0x0 KECCAK256 PUSH1 0x0 DUP12 DUP12 DUP6 DUP2 DUP2 LT PUSH2 0x1052 JUMPI PUSH2 0x1051 PUSH2 0x9238 JUMP JUMPDEST JUMPDEST SWAP1 POP PUSH1 0x20 MUL ADD CALLDATALOAD DUP2 MSTORE PUSH1 0x20 ADD SWAP1 DUP2 MSTORE PUSH1 0x20 ADD PUSH1 0x0 KECCAK256 PUSH1 0x3 ADD DUP2 SWAP1 SSTORE POP DUP1 DUP1 PUSH2 0x1079 SWAP1 PUSH2 0x9296 JUMP JUMPDEST SWAP2 POP POP PUSH2 0xE97 JUMP JUMPDEST POP POP POP POP POP POP POP POP POP POP JUMP JUMPDEST PUSH1 0x0 PUSH32 0x80AC58CD00000000000000000000000000000000000000000000000000000000 PUSH28 0xFFFFFFFFFFFFFFFFFFFFFFFFFFFFFFFFFFFFFFFFFFFFFFFFFFFFFFFF NOT AND DUP3 PUSH28 0xFFFFFFFFFFFFFFFFFFFFFFFFFFFFFFFFFFFFFFFFFFFFFFFFFFFFFFFF NOT AND EQ DUP1 PUSH2 0x1158 JUMPI POP PUSH32 0x5B5E139F00000000000000000000000000000000000000000000000000000000 PUSH28 0xFFFFFFFFFFFFFFFFFFFFFFFFFFFFFFFFFFFFFFFFFFFFFFFFFFFFFFFF NOT AND DUP3 PUSH28 0xFFFFFFFFFFFFFFFFFFFFFFFFFFFFFFFFFFFFFFFFFFFFFFFFFFFFFFFF NOT AND EQ JUMPDEST DUP1 PUSH2 0x1168 JUMPI POP PUSH2 0x1167 DUP3 PUSH2 0x6F6F JUMP JUMPDEST JUMPDEST SWAP1 POP SWAP2 SWAP1 POP JUMP JUMPDEST PUSH2 0x1183 PUSH8 0xD69DCCEBFBF220D9 PUSH1 0xC0 SHL PUSH2 0x6EEE JUMP JUMPDEST PUSH2 0x118B PUSH2 0x6FD9 JUMP JUMPDEST PUSH2 0x119F PUSH8 0x21FFD2181BC9E94B PUSH1 0xC0 SHL PUSH2 0x6EEE JUMP JUMPDEST PUSH2 0x11B2 PUSH7 0x49BD3B1836B8BD PUSH1 0xC0 SHL PUSH2 0x6EEE JUMP JUMPDEST PUSH2 0x11C6 PUSH8 0xFE9D27CFE505B0D PUSH1 0xC0 SHL PUSH2 0x6EEE JUMP JUMPDEST PUSH2 0x11DA PUSH8 0xC0889D2932AF7E79 PUSH1 0xC0 SHL PUSH2 0x6EEE JUMP JUMPDEST PUSH2 0x11EE PUSH8 0xD8AE535435B3AA74 PUSH1 0xC0 SHL PUSH2 0x6EEE JUMP JUMPDEST PUSH2 0x1204 PUSH2 0x11F9 PUSH2 0x4B40 JUMP JUMPDEST DUP5 PUSH1 0x60 ADD CALLDATALOAD DUP5 PUSH2 0x7028 JUMP JUMPDEST DUP1 ISZERO PUSH2 0x123A JUMPI POP PUSH2 0x10B DUP3 PUSH1 0x40 MLOAD PUSH2 0x121C SWAP2 SWAP1 PUSH2 0x9325 JUMP JUMPDEST SWAP1 DUP2 MSTORE PUSH1 0x20 ADD PUSH1 0x40 MLOAD DUP1 SWAP2 SUB SWAP1 KECCAK256 PUSH1 0x0 SWAP1 SLOAD SWAP1 PUSH2 0x100 EXP SWAP1 DIV PUSH1 0xFF AND ISZERO JUMPDEST DUP1 ISZERO PUSH2 0x12E0 JUMPI POP PUSH2 0x10D PUSH1 0x0 SWAP1 SLOAD SWAP1 PUSH2 0x100 EXP SWAP1 DIV PUSH20 0xFFFFFFFFFFFFFFFFFFFFFFFFFFFFFFFFFFFFFFFF AND PUSH20 0xFFFFFFFFFFFFFFFFFFFFFFFFFFFFFFFFFFFFFFFF AND PUSH4 0xC9941806 DUP4 PUSH1 0x40 MLOAD DUP3 PUSH4 0xFFFFFFFF AND PUSH1 0xE0 SHL DUP2 MSTORE PUSH1 0x4 ADD PUSH2 0x129D SWAP2 SWAP1 PUSH2 0x9386 JUMP JUMPDEST PUSH1 0x20 PUSH1 0x40 MLOAD DUP1 DUP4 SUB DUP2 DUP7 GAS STATICCALL ISZERO DUP1 ISZERO PUSH2 0x12BA JUMPI RETURNDATASIZE PUSH1 0x0 DUP1 RETURNDATACOPY RETURNDATASIZE PUSH1 0x0 REVERT JUMPDEST POP POP POP POP PUSH1 0x40 MLOAD RETURNDATASIZE PUSH1 0x1F NOT PUSH1 0x1F DUP3 ADD AND DUP3 ADD DUP1 PUSH1 0x40 MSTORE POP DUP2 ADD SWAP1 PUSH2 0x12DE SWAP2 SWAP1 PUSH2 0x93BD JUMP JUMPDEST ISZERO JUMPDEST DUP1 ISZERO PUSH2 0x1386 JUMPI POP PUSH2 0x101 PUSH1 0x0 SWAP1 SLOAD SWAP1 PUSH2 0x100 EXP SWAP1 DIV PUSH20 0xFFFFFFFFFFFFFFFFFFFFFFFFFFFFFFFFFFFFFFFF AND PUSH20 0xFFFFFFFFFFFFFFFFFFFFFFFFFFFFFFFFFFFFFFFF AND PUSH4 0xC9941806 DUP4 PUSH1 0x40 MLOAD DUP3 PUSH4 0xFFFFFFFF AND PUSH1 0xE0 SHL DUP2 MSTORE PUSH1 0x4 ADD PUSH2 0x1343 SWAP2 SWAP1 PUSH2 0x9386 JUMP JUMPDEST PUSH1 0x20 PUSH1 0x40 MLOAD DUP1 DUP4 SUB DUP2 DUP7 GAS STATICCALL ISZERO DUP1 ISZERO PUSH2 0x1360 JUMPI RETURNDATASIZE PUSH1 0x0 DUP1 RETURNDATACOPY RETURNDATASIZE PUSH1 0x0 REVERT JUMPDEST POP POP POP POP PUSH1 0x40 MLOAD RETURNDATASIZE PUSH1 0x1F NOT PUSH1 0x1F DUP3 ADD AND DUP3 ADD DUP1 PUSH1 0x40 MSTORE POP DUP2 ADD SWAP1 PUSH2 0x1384 SWAP2 SWAP1 PUSH2 0x93BD JUMP JUMPDEST ISZERO JUMPDEST PUSH2 0x13C5 JUMPI PUSH1 0x40 MLOAD PUSH32 0x8C379A000000000000000000000000000000000000000000000000000000000 DUP2 MSTORE PUSH1 0x4 ADD PUSH2 0x13BC SWAP1 PUSH2 0x9436 JUMP JUMPDEST PUSH1 0x40 MLOAD DUP1 SWAP2 SUB SWAP1 REVERT JUMPDEST PUSH2 0x13D9 PUSH8 0x7ABB46932096052C PUSH1 0xC0 SHL PUSH2 0x6EEE JUMP JUMPDEST PUSH2 0x13ED PUSH8 0xD79886A16959FE18 PUSH1 0xC0 SHL PUSH2 0x6EEE JUMP JUMPDEST PUSH2 0x1401 PUSH8 0xBA7494DFB8773323 PUSH1 0xC0 SHL PUSH2 0x6EEE JUMP JUMPDEST PUSH2 0x1415 PUSH8 0xA965D8C65FD8BA10 PUSH1 0xC0 SHL PUSH2 0x6EEE JUMP JUMPDEST PUSH1 0xFF PUSH1 0x0 DUP5 PUSH1 0x0 ADD CALLDATALOAD DUP2 MSTORE PUSH1 0x20 ADD SWAP1 DUP2 MSTORE PUSH1 0x20 ADD PUSH1 0x0 KECCAK256 PUSH1 0x0 SWAP1 SLOAD SWAP1 PUSH2 0x100 EXP SWAP1 DIV PUSH1 0xFF AND DUP1 ISZERO PUSH2 0x1489 JUMPI POP DUP3 PUSH1 0x40 ADD CALLDATALOAD PUSH1 0xFE PUSH1 0x0 DUP6 PUSH1 0x0 ADD CALLDATALOAD DUP2 MSTORE PUSH1 0x20 ADD SWAP1 DUP2 MSTORE PUSH1 0x20 ADD PUSH1 0x0 KECCAK256 PUSH1 0x1 ADD SLOAD PUSH2 0x146B SWAP2 SWAP1 PUSH2 0x9456 JUMP JUMPDEST PUSH1 0xFE PUSH1 0x0 DUP6 PUSH1 0x0 ADD CALLDATALOAD DUP2 MSTORE PUSH1 0x20 ADD SWAP1 DUP2 MSTORE PUSH1 0x20 ADD PUSH1 0x0 KECCAK256 PUSH1 0x0 ADD SLOAD LT ISZERO JUMPDEST DUP1 ISZERO PUSH2 0x1527 JUMPI POP PUSH1 0x6 DUP4 PUSH1 0x0 ADD CALLDATALOAD EQ DUP1 ISZERO PUSH2 0x14B4 JUMPI POP PUSH2 0x14B3 PUSH8 0xCF4910EAA1B3F9E PUSH1 0xC0 SHL PUSH2 0x71EE JUMP JUMPDEST JUMPDEST DUP1 PUSH2 0x14FB JUMPI POP PUSH1 0x7 DUP4 PUSH1 0x0 ADD CALLDATALOAD EQ DUP1 ISZERO PUSH2 0x14DE JUMPI POP PUSH2 0x14DD PUSH8 0x12635277C999B14F PUSH1 0xC0 SHL PUSH2 0x71EE JUMP JUMPDEST JUMPDEST DUP1 ISZERO PUSH2 0x14FA JUMPI POP PUSH2 0x14F9 PUSH8 0x7D0EB805F261F9BC PUSH1 0xC0 SHL PUSH2 0x71EE JUMP JUMPDEST JUMPDEST JUMPDEST DUP1 PUSH2 0x1526 JUMPI POP PUSH1 0x8 DUP4 PUSH1 0x0 ADD CALLDATALOAD EQ DUP1 ISZERO PUSH2 0x1525 JUMPI POP PUSH2 0x1524 PUSH8 0xB76B0D7DE96B115D PUSH1 0xC0 SHL PUSH2 0x71EE JUMP JUMPDEST JUMPDEST JUMPDEST JUMPDEST DUP1 ISZERO PUSH2 0x1593 JUMPI POP PUSH2 0x109 PUSH1 0x0 DUP5 PUSH1 0x0 ADD CALLDATALOAD DUP2 MSTORE PUSH1 0x20 ADD SWAP1 DUP2 MSTORE PUSH1 0x20 ADD PUSH1 0x0 KECCAK256 PUSH1 0x0 DUP5 PUSH1 0x20 ADD CALLDATALOAD DUP2 MSTORE PUSH1 0x20 ADD SWAP1 DUP2 MSTORE PUSH1 0x20 ADD PUSH1 0x0 KECCAK256 PUSH1 0x6 ADD SLOAD PUSH2 0x109 PUSH1 0x0 DUP6 PUSH1 0x0 ADD CALLDATALOAD DUP2 MSTORE PUSH1 0x20 ADD SWAP1 DUP2 MSTORE PUSH1 0x20 ADD PUSH1 0x0 KECCAK256 PUSH1 0x0 DUP6 PUSH1 0x20 ADD CALLDATALOAD DUP2 MSTORE PUSH1 0x20 ADD SWAP1 DUP2 MSTORE PUSH1 0x20 ADD PUSH1 0x0 KECCAK256 PUSH1 0x5 ADD SLOAD LT ISZERO JUMPDEST PUSH2 0x15D2 JUMPI PUSH1 0x40 MLOAD PUSH32 0x8C379A000000000000000000000000000000000000000000000000000000000 DUP2 MSTORE PUSH1 0x4 ADD PUSH2 0x15C9 SWAP1 PUSH2 0x94FC JUMP JUMPDEST PUSH1 0x40 MLOAD DUP1 SWAP2 SUB SWAP1 REVERT JUMPDEST PUSH2 0x15E6 PUSH8 0x51B16E75798A8195 PUSH1 0xC0 SHL PUSH2 0x6EEE JUMP JUMPDEST PUSH2 0x15FA PUSH8 0xD49EB49266F7BC6F PUSH1 0xC0 SHL PUSH2 0x6EEE JUMP JUMPDEST PUSH2 0x160E PUSH8 0x3C8053D67521D5E6 PUSH1 0xC0 SHL PUSH2 0x6EEE JUMP JUMPDEST PUSH1 0x60 PUSH2 0x1624 PUSH8 0xBC17A95006FEE79A PUSH1 0xC0 SHL PUSH2 0x6EEE JUMP JUMPDEST PUSH2 0x1638 PUSH8 0x6F79DEEDBC40DB7A PUSH1 0xC0 SHL PUSH2 0x6EEE JUMP JUMPDEST PUSH2 0x164C PUSH8 0x88EDE41194BAEF78 PUSH1 0xC0 SHL PUSH2 0x6EEE JUMP JUMPDEST PUSH2 0x10C SLOAD DUP5 PUSH1 0x40 ADD CALLDATALOAD GT ISZERO PUSH2 0x1696 JUMPI PUSH1 0x40 MLOAD PUSH32 0x8C379A000000000000000000000000000000000000000000000000000000000 DUP2 MSTORE PUSH1 0x4 ADD PUSH2 0x168D SWAP1 PUSH2 0x9568 JUMP JUMPDEST PUSH1 0x40 MLOAD DUP1 SWAP2 SUB SWAP1 REVERT JUMPDEST PUSH2 0x16AA PUSH8 0xFEDD81B5C7200D56 PUSH1 0xC0 SHL PUSH2 0x6EEE JUMP JUMPDEST PUSH2 0x16BE PUSH8 0x6EC5A4B66B9B9131 PUSH1 0xC0 SHL PUSH2 0x6EEE JUMP JUMPDEST DUP4 PUSH1 0x40 ADD CALLDATALOAD PUSH8 0xFFFFFFFFFFFFFFFF DUP2 GT ISZERO PUSH2 0x16DC JUMPI PUSH2 0x16DB PUSH2 0x8625 JUMP JUMPDEST JUMPDEST PUSH1 0x40 MLOAD SWAP1 DUP1 DUP3 MSTORE DUP1 PUSH1 0x20 MUL PUSH1 0x20 ADD DUP3 ADD PUSH1 0x40 MSTORE DUP1 ISZERO PUSH2 0x170A JUMPI DUP2 PUSH1 0x20 ADD PUSH1 0x20 DUP3 MUL DUP1 CALLDATASIZE DUP4 CALLDATACOPY DUP1 DUP3 ADD SWAP2 POP POP SWAP1 POP JUMPDEST POP SWAP1 POP PUSH2 0x1721 PUSH8 0x40B662FB05FCBCA2 PUSH1 0xC0 SHL PUSH2 0x6EEE JUMP JUMPDEST PUSH2 0x1735 PUSH8 0xAFDEBCFEA51ED5C8 PUSH1 0xC0 SHL PUSH2 0x6EEE JUMP JUMPDEST PUSH1 0x0 JUMPDEST DUP5 PUSH1 0x40 ADD CALLDATALOAD DUP2 LT ISZERO PUSH2 0x185C JUMPI PUSH2 0x1758 PUSH8 0xF9A6DA5ED974C185 PUSH1 0xC0 SHL PUSH2 0x6EEE JUMP JUMPDEST PUSH1 0x1 PUSH1 0xFB PUSH1 0x0 DUP3 DUP3 SLOAD PUSH2 0x176B SWAP2 SWAP1 PUSH2 0x9456 JUMP JUMPDEST SWAP3 POP POP DUP2 SWAP1 SSTORE POP PUSH2 0x1786 PUSH8 0x3EF4A7C9C336775 PUSH1 0xC0 SHL PUSH2 0x6EEE JUMP JUMPDEST PUSH1 0x40 MLOAD DUP1 PUSH1 0x40 ADD PUSH1 0x40 MSTORE DUP1 PUSH1 0x7 DUP2 MSTORE PUSH1 0x20 ADD PUSH32 0x5052494E54455200000000000000000000000000000000000000000000000000 DUP2 MSTORE POP PUSH2 0x10A PUSH1 0x0 PUSH1 0xFB SLOAD DUP2 MSTORE PUSH1 0x20 ADD SWAP1 DUP2 MSTORE PUSH1 0x20 ADD PUSH1 0x0 KECCAK256 SWAP1 DUP2 PUSH2 0x17DE SWAP2 SWAP1 PUSH2 0x978A JUMP JUMPDEST POP PUSH2 0x17F3 PUSH8 0xB3F5CFC9586524B7 PUSH1 0xC0 SHL PUSH2 0x6EEE JUMP JUMPDEST PUSH2 0x1807 PUSH8 0xB7879F32A947D1BD PUSH1 0xC0 SHL PUSH2 0x6EEE JUMP JUMPDEST PUSH2 0x1813 CALLER PUSH1 0xFB SLOAD PUSH2 0x71F9 JUMP JUMPDEST PUSH2 0x1827 PUSH8 0x742F93212885D6DC PUSH1 0xC0 SHL PUSH2 0x6EEE JUMP JUMPDEST PUSH1 0xFB SLOAD DUP3 DUP3 DUP2 MLOAD DUP2 LT PUSH2 0x183D JUMPI PUSH2 0x183C PUSH2 0x9238 JUMP JUMPDEST JUMPDEST PUSH1 0x20 MUL PUSH1 0x20 ADD ADD DUP2 DUP2 MSTORE POP POP DUP1 DUP1 PUSH2 0x1854 SWAP1 PUSH2 0x9296 JUMP JUMPDEST SWAP2 POP POP PUSH2 0x1738 JUMP JUMPDEST POP PUSH2 0x1871 PUSH8 0xA9F964F69A3C5A4 PUSH1 0xC0 SHL PUSH2 0x6EEE JUMP JUMPDEST PUSH2 0x1885 PUSH8 0x343848EE4CF51269 PUSH1 0xC0 SHL PUSH2 0x6EEE JUMP JUMPDEST PUSH2 0x10E PUSH1 0x0 SWAP1 SLOAD SWAP1 PUSH2 0x100 EXP SWAP1 DIV PUSH20 0xFFFFFFFFFFFFFFFFFFFFFFFFFFFFFFFFFFFFFFFF AND PUSH20 0xFFFFFFFFFFFFFFFFFFFFFFFFFFFFFFFFFFFFFFFF AND PUSH2 0x8FC CALLVALUE SWAP1 DUP2 ISZERO MUL SWAP1 PUSH1 0x40 MLOAD PUSH1 0x0 PUSH1 0x40 MLOAD DUP1 DUP4 SUB DUP2 DUP6 DUP9 DUP9 CALL SWAP4 POP POP POP POP ISZERO DUP1 ISZERO PUSH2 0x18EE JUMPI RETURNDATASIZE PUSH1 0x0 DUP1 RETURNDATACOPY RETURNDATASIZE PUSH1 0x0 REVERT JUMPDEST POP PUSH2 0x1903 PUSH8 0xB988E3D26C2536DF PUSH1 0xC0 SHL PUSH2 0x6EEE JUMP JUMPDEST PUSH2 0x1917 PUSH8 0x81962001491CA2D5 PUSH1 0xC0 SHL PUSH2 0x6EEE JUMP JUMPDEST PUSH1 0x0 PUSH2 0x109 PUSH1 0x0 DUP7 PUSH1 0x0 ADD CALLDATALOAD DUP2 MSTORE PUSH1 0x20 ADD SWAP1 DUP2 MSTORE PUSH1 0x20 ADD PUSH1 0x0 KECCAK256 PUSH1 0x0 DUP7 PUSH1 0x20 ADD CALLDATALOAD DUP2 MSTORE PUSH1 0x20 ADD SWAP1 DUP2 MSTORE PUSH1 0x20 ADD PUSH1 0x0 KECCAK256 PUSH1 0x3 ADD SLOAD GT ISZERO PUSH2 0x1C7D JUMPI PUSH2 0x1964 PUSH8 0xFE0F64C70B0713FC PUSH1 0xC0 SHL PUSH2 0x6EEE JUMP JUMPDEST PUSH2 0x1978 PUSH8 0xB7872ECB2655B90A PUSH1 0xC0 SHL PUSH2 0x6EEE JUMP JUMPDEST PUSH2 0x198C PUSH8 0x322431D1B0F96B7A PUSH1 0xC0 SHL PUSH2 0x6EEE JUMP JUMPDEST PUSH2 0x10D PUSH1 0x0 SWAP1 SLOAD SWAP1 PUSH2 0x100 EXP SWAP1 DIV PUSH20 0xFFFFFFFFFFFFFFFFFFFFFFFFFFFFFFFFFFFFFFFF AND PUSH20 0xFFFFFFFFFFFFFFFFFFFFFFFFFFFFFFFFFFFFFFFF AND PUSH4 0xD1660F99 CALLER ADDRESS PUSH2 0x109 PUSH1 0x0 DUP10 PUSH1 0x0 ADD CALLDATALOAD DUP2 MSTORE PUSH1 0x20 ADD SWAP1 DUP2 MSTORE PUSH1 0x20 ADD PUSH1 0x0 KECCAK256 PUSH1 0x0 DUP10 PUSH1 0x20 ADD CALLDATALOAD DUP2 MSTORE PUSH1 0x20 ADD SWAP1 DUP2 MSTORE PUSH1 0x20 ADD PUSH1 0x0 KECCAK256 PUSH1 0x7 ADD SLOAD PUSH1 0x40 MLOAD DUP5 PUSH4 0xFFFFFFFF AND PUSH1 0xE0 SHL DUP2 MSTORE PUSH1 0x4 ADD PUSH2 0x1A1C SWAP4 SWAP3 SWAP2 SWAP1 PUSH2 0x985C JUMP JUMPDEST PUSH1 0x0 PUSH1 0x40 MLOAD DUP1 DUP4 SUB DUP2 PUSH1 0x0 DUP8 DUP1 EXTCODESIZE ISZERO DUP1 ISZERO PUSH2 0x1A36 JUMPI PUSH1 0x0 DUP1 REVERT JUMPDEST POP GAS CALL ISZERO DUP1 ISZERO PUSH2 0x1A4A JUMPI RETURNDATASIZE PUSH1 0x0 DUP1 RETURNDATACOPY RETURNDATASIZE PUSH1 0x0 REVERT JUMPDEST POP POP POP POP PUSH2 0x1A62 PUSH8 0xE372C9E551E4AC98 PUSH1 0xC0 SHL PUSH2 0x6EEE JUMP JUMPDEST PUSH2 0x1A76 PUSH8 0x80BDFD8D72651C7E PUSH1 0xC0 SHL PUSH2 0x6EEE JUMP JUMPDEST PUSH2 0x10D PUSH1 0x0 SWAP1 SLOAD SWAP1 PUSH2 0x100 EXP SWAP1 DIV PUSH20 0xFFFFFFFFFFFFFFFFFFFFFFFFFFFFFFFFFFFFFFFF AND PUSH20 0xFFFFFFFFFFFFFFFFFFFFFFFFFFFFFFFFFFFFFFFF AND PUSH4 0x95EA7B3 PUSH2 0x10E PUSH1 0x0 SWAP1 SLOAD SWAP1 PUSH2 0x100 EXP SWAP1 DIV PUSH20 0xFFFFFFFFFFFFFFFFFFFFFFFFFFFFFFFFFFFFFFFF AND PUSH2 0x109 PUSH1 0x0 DUP9 PUSH1 0x0 ADD CALLDATALOAD DUP2 MSTORE PUSH1 0x20 ADD SWAP1 DUP2 MSTORE PUSH1 0x20 ADD PUSH1 0x0 KECCAK256 PUSH1 0x0 DUP9 PUSH1 0x20 ADD CALLDATALOAD DUP2 MSTORE PUSH1 0x20 ADD SWAP1 DUP2 MSTORE PUSH1 0x20 ADD PUSH1 0x0 KECCAK256 PUSH1 0x7 ADD SLOAD PUSH1 0x40 MLOAD DUP4 PUSH4 0xFFFFFFFF AND PUSH1 0xE0 SHL DUP2 MSTORE PUSH1 0x4 ADD PUSH2 0x1B27 SWAP3 SWAP2 SWAP1 PUSH2 0x9893 JUMP JUMPDEST PUSH1 0x20 PUSH1 0x40 MLOAD DUP1 DUP4 SUB DUP2 PUSH1 0x0 DUP8 GAS CALL ISZERO DUP1 ISZERO PUSH2 0x1B46 JUMPI RETURNDATASIZE PUSH1 0x0 DUP1 RETURNDATACOPY RETURNDATASIZE PUSH1 0x0 REVERT JUMPDEST POP POP POP POP PUSH1 0x40 MLOAD RETURNDATASIZE PUSH1 0x1F NOT PUSH1 0x1F DUP3 ADD AND DUP3 ADD DUP1 PUSH1 0x40 MSTORE POP DUP2 ADD SWAP1 PUSH2 0x1B6A SWAP2 SWAP1 PUSH2 0x93BD JUMP JUMPDEST POP PUSH2 0x1B7F PUSH8 0xE3DEABF9E0EB9885 PUSH1 0xC0 SHL PUSH2 0x6EEE JUMP JUMPDEST PUSH2 0x1B93 PUSH8 0x255802AC8473AC7 PUSH1 0xC0 SHL PUSH2 0x6EEE JUMP JUMPDEST PUSH2 0x10D PUSH1 0x0 SWAP1 SLOAD SWAP1 PUSH2 0x100 EXP SWAP1 DIV PUSH20 0xFFFFFFFFFFFFFFFFFFFFFFFFFFFFFFFFFFFFFFFF AND PUSH20 0xFFFFFFFFFFFFFFFFFFFFFFFFFFFFFFFFFFFFFFFF AND PUSH4 0xD1660F99 ADDRESS PUSH2 0x10E PUSH1 0x0 SWAP1 SLOAD SWAP1 PUSH2 0x100 EXP SWAP1 DIV PUSH20 0xFFFFFFFFFFFFFFFFFFFFFFFFFFFFFFFFFFFFFFFF AND PUSH2 0x109 PUSH1 0x0 DUP10 PUSH1 0x0 ADD CALLDATALOAD DUP2 MSTORE PUSH1 0x20 ADD SWAP1 DUP2 MSTORE PUSH1 0x20 ADD PUSH1 0x0 KECCAK256 PUSH1 0x0 DUP10 PUSH1 0x20 ADD CALLDATALOAD DUP2 MSTORE PUSH1 0x20 ADD SWAP1 DUP2 MSTORE PUSH1 0x20 ADD PUSH1 0x0 KECCAK256 PUSH1 0x3 ADD SLOAD PUSH1 0x40 MLOAD DUP5 PUSH4 0xFFFFFFFF AND PUSH1 0xE0 SHL DUP2 MSTORE PUSH1 0x4 ADD PUSH2 0x1C46 SWAP4 SWAP3 SWAP2 SWAP1 PUSH2 0x985C JUMP JUMPDEST PUSH1 0x0 PUSH1 0x40 MLOAD DUP1 DUP4 SUB DUP2 PUSH1 0x0 DUP8 DUP1 EXTCODESIZE ISZERO DUP1 ISZERO PUSH2 0x1C60 JUMPI PUSH1 0x0 DUP1 REVERT JUMPDEST POP GAS CALL ISZERO DUP1 ISZERO PUSH2 0x1C74 JUMPI RETURNDATASIZE PUSH1 0x0 DUP1 RETURNDATACOPY RETURNDATASIZE PUSH1 0x0 REVERT JUMPDEST POP POP POP POP PUSH2 0x1C92 JUMP JUMPDEST PUSH2 0x1C91 PUSH8 0x18A8EB7A97C7216A PUSH1 0xC0 SHL PUSH2 0x6EEE JUMP JUMPDEST JUMPDEST PUSH2 0x1CA6 PUSH8 0x2F044E59DD884732 PUSH1 0xC0 SHL PUSH2 0x6EEE JUMP JUMPDEST DUP4 PUSH1 0x40 ADD CALLDATALOAD PUSH1 0xFE PUSH1 0x0 DUP7 PUSH1 0x0 ADD CALLDATALOAD DUP2 MSTORE PUSH1 0x20 ADD SWAP1 DUP2 MSTORE PUSH1 0x20 ADD PUSH1 0x0 KECCAK256 PUSH1 0x3 ADD PUSH1 0x0 DUP3 DUP3 SLOAD PUSH2 0x1CD4 SWAP2 SWAP1 PUSH2 0x9456 JUMP JUMPDEST SWAP3 POP POP DUP2 SWAP1 SSTORE POP PUSH2 0x1CEF PUSH8 0xD5EA373BB136027 PUSH1 0xC0 SHL PUSH2 0x6EEE JUMP JUMPDEST DUP4 PUSH1 0x40 ADD CALLDATALOAD PUSH2 0x109 PUSH1 0x0 DUP7 PUSH1 0x0 ADD CALLDATALOAD DUP2 MSTORE PUSH1 0x20 ADD SWAP1 DUP2 MSTORE PUSH1 0x20 ADD PUSH1 0x0 KECCAK256 PUSH1 0x0 DUP7 PUSH1 0x20 ADD CALLDATALOAD DUP2 MSTORE PUSH1 0x20 ADD SWAP1 DUP2 MSTORE PUSH1 0x20 ADD PUSH1 0x0 KECCAK256 PUSH1 0x6 ADD PUSH1 0x0 DUP3 DUP3 SLOAD PUSH2 0x1D33 SWAP2 SWAP1 PUSH2 0x9456 JUMP JUMPDEST SWAP3 POP POP DUP2 SWAP1 SSTORE POP PUSH2 0x1D4E PUSH8 0xD2E1E1F612BF9300 PUSH1 0xC0 SHL PUSH2 0x6EEE JUMP JUMPDEST PUSH1 0x1 PUSH2 0x10B DUP5 PUSH1 0x40 MLOAD PUSH2 0x1D61 SWAP2 SWAP1 PUSH2 0x9325 JUMP JUMPDEST SWAP1 DUP2 MSTORE PUSH1 0x20 ADD PUSH1 0x40 MLOAD DUP1 SWAP2 SUB SWAP1 KECCAK256 PUSH1 0x0 PUSH2 0x100 EXP DUP2 SLOAD DUP2 PUSH1 0xFF MUL NOT AND SWAP1 DUP4 ISZERO ISZERO MUL OR SWAP1 SSTORE POP PUSH2 0x1D9A PUSH8 0xA6FBC027DF3C5FFA PUSH1 0xC0 SHL PUSH2 0x6EEE JUMP JUMPDEST PUSH2 0x1DAE PUSH8 0x1612C3B4740B952B PUSH1 0xC0 SHL PUSH2 0x6EEE JUMP JUMPDEST PUSH32 0x51648125CE33694873381E0C4AD7F8EF183C08887969BEF55995F6FEB91F5673 CALLER DUP3 DUP7 PUSH1 0x0 ADD CALLDATALOAD DUP8 PUSH1 0x20 ADD CALLDATALOAD CALLVALUE PUSH2 0x109 PUSH1 0x0 DUP12 PUSH1 0x0 ADD CALLDATALOAD DUP2 MSTORE PUSH1 0x20 ADD SWAP1 DUP2 MSTORE PUSH1 0x20 ADD PUSH1 0x0 KECCAK256 PUSH1 0x0 DUP12 PUSH1 0x20 ADD CALLDATALOAD DUP2 MSTORE PUSH1 0x20 ADD SWAP1 DUP2 MSTORE PUSH1 0x20 ADD PUSH1 0x0 KECCAK256 PUSH1 0x3 ADD SLOAD DUP9 PUSH1 0x40 MLOAD PUSH2 0x1E21 SWAP8 SWAP7 SWAP6 SWAP5 SWAP4 SWAP3 SWAP2 SWAP1 PUSH2 0x99C6 JUMP JUMPDEST PUSH1 0x40 MLOAD DUP1 SWAP2 SUB SWAP1 LOG1 POP PUSH2 0x1E32 PUSH2 0x7217 JUMP JUMPDEST POP POP POP JUMP JUMPDEST PUSH1 0x60 PUSH1 0x65 DUP1 SLOAD PUSH2 0x1E46 SWAP1 PUSH2 0x95B7 JUMP JUMPDEST DUP1 PUSH1 0x1F ADD PUSH1 0x20 DUP1 SWAP2 DIV MUL PUSH1 0x20 ADD PUSH1 0x40 MLOAD SWAP1 DUP2 ADD PUSH1 0x40 MSTORE DUP1 SWAP3 SWAP2 SWAP1 DUP2 DUP2 MSTORE PUSH1 0x20 ADD DUP3 DUP1 SLOAD PUSH2 0x1E72 SWAP1 PUSH2 0x95B7 JUMP JUMPDEST DUP1 ISZERO PUSH2 0x1EBF JUMPI DUP1 PUSH1 0x1F LT PUSH2 0x1E94 JUMPI PUSH2 0x100 DUP1 DUP4 SLOAD DIV MUL DUP4 MSTORE SWAP2 PUSH1 0x20 ADD SWAP2 PUSH2 0x1EBF JUMP JUMPDEST DUP3 ADD SWAP2 SWAP1 PUSH1 0x0 MSTORE PUSH1 0x20 PUSH1 0x0 KECCAK256 SWAP1 JUMPDEST DUP2 SLOAD DUP2 MSTORE SWAP1 PUSH1 0x1 ADD SWAP1 PUSH1 0x20 ADD DUP1 DUP4 GT PUSH2 0x1EA2 JUMPI DUP3 SWAP1 SUB PUSH1 0x1F AND DUP3 ADD SWAP2 JUMPDEST POP POP POP POP POP SWAP1 POP SWAP1 JUMP JUMPDEST PUSH1 0x0 PUSH2 0x1ED4 DUP3 PUSH2 0x7221 JUMP JUMPDEST PUSH1 0x69 PUSH1 0x0 DUP4 DUP2 MSTORE PUSH1 0x20 ADD SWAP1 DUP2 MSTORE PUSH1 0x20 ADD PUSH1 0x0 KECCAK256 PUSH1 0x0 SWAP1 SLOAD SWAP1 PUSH2 0x100 EXP SWAP1 DIV PUSH20 0xFFFFFFFFFFFFFFFFFFFFFFFFFFFFFFFFFFFFFFFF AND SWAP1 POP SWAP2 SWAP1 POP JUMP JUMPDEST PUSH1 0x0 PUSH2 0x1F1A DUP3 PUSH2 0x3AA3 JUMP JUMPDEST SWAP1 POP DUP1 PUSH20 0xFFFFFFFFFFFFFFFFFFFFFFFFFFFFFFFFFFFFFFFF AND DUP4 PUSH20 0xFFFFFFFFFFFFFFFFFFFFFFFFFFFFFFFFFFFFFFFF AND SUB PUSH2 0x1F8A JUMPI PUSH1 0x40 MLOAD PUSH32 0x8C379A000000000000000000000000000000000000000000000000000000000 DUP2 MSTORE PUSH1 0x4 ADD PUSH2 0x1F81 SWAP1 PUSH2 0x9AC2 JUMP JUMPDEST PUSH1 0x40 MLOAD DUP1 SWAP2 SUB SWAP1 REVERT JUMPDEST DUP1 PUSH20 0xFFFFFFFFFFFFFFFFFFFFFFFFFFFFFFFFFFFFFFFF AND PUSH2 0x1FA9 PUSH2 0x726C JUMP JUMPDEST PUSH20 0xFFFFFFFFFFFFFFFFFFFFFFFFFFFFFFFFFFFFFFFF AND EQ DUP1 PUSH2 0x1FD8 JUMPI POP PUSH2 0x1FD7 DUP2 PUSH2 0x1FD2 PUSH2 0x726C JUMP JUMPDEST PUSH2 0x6976 JUMP JUMPDEST JUMPDEST PUSH2 0x2017 JUMPI PUSH1 0x40 MLOAD PUSH32 0x8C379A000000000000000000000000000000000000000000000000000000000 DUP2 MSTORE PUSH1 0x4 ADD PUSH2 0x200E SWAP1 PUSH2 0x9B54 JUMP JUMPDEST PUSH1 0x40 MLOAD DUP1 SWAP2 SUB SWAP1 REVERT JUMPDEST PUSH2 0x2021 DUP4 DUP4 PUSH2 0x7274 JUMP JUMPDEST POP POP POP JUMP JUMPDEST PUSH2 0x10C SLOAD DUP2 JUMP JUMPDEST PUSH2 0x2041 PUSH8 0xD54ED0C4B0EED868 PUSH1 0xC0 SHL PUSH2 0x6EEE JUMP JUMPDEST PUSH2 0x2055 PUSH8 0x5FF01BBF809FB61B PUSH1 0xC0 SHL PUSH2 0x6EEE JUMP JUMPDEST PUSH2 0x2069 PUSH8 0xBD78B2D313F3A8F3 PUSH1 0xC0 SHL PUSH2 0x6EEE JUMP JUMPDEST PUSH2 0x207D PUSH8 0x25E9A67861B2EAF7 PUSH1 0xC0 SHL PUSH2 0x6EEE JUMP JUMPDEST PUSH1 0xFF PUSH1 0x0 PUSH1 0x5 DUP2 MSTORE PUSH1 0x20 ADD SWAP1 DUP2 MSTORE PUSH1 0x20 ADD PUSH1 0x0 KECCAK256 PUSH1 0x0 SWAP1 SLOAD SWAP1 PUSH2 0x100 EXP SWAP1 DIV PUSH1 0xFF AND DUP1 ISZERO PUSH2 0x20E7 JUMPI POP PUSH1 0xFE PUSH1 0x0 PUSH1 0x5 DUP2 MSTORE PUSH1 0x20 ADD SWAP1 DUP2 MSTORE PUSH1 0x20 ADD PUSH1 0x0 KECCAK256 PUSH1 0x0 ADD SLOAD DUP3 DUP3 SWAP1 POP PUSH1 0xFE PUSH1 0x0 PUSH1 0x5 DUP2 MSTORE PUSH1 0x20 ADD SWAP1 DUP2 MSTORE PUSH1 0x20 ADD PUSH1 0x0 KECCAK256 PUSH1 0x1 ADD SLOAD PUSH2 0x20E4 SWAP2 SWAP1 PUSH2 0x9456 JUMP JUMPDEST GT ISZERO JUMPDEST DUP1 ISZERO PUSH2 0x212F JUMPI POP PUSH1 0xFE PUSH1 0x0 PUSH1 0x5 DUP2 MSTORE PUSH1 0x20 ADD SWAP1 DUP2 MSTORE PUSH1 0x20 ADD PUSH1 0x0 KECCAK256 PUSH1 0x2 ADD SLOAD DUP3 DUP3 SWAP1 POP PUSH1 0xFE PUSH1 0x0 PUSH1 0x5 DUP2 MSTORE PUSH1 0x20 ADD SWAP1 DUP2 MSTORE PUSH1 0x20 ADD PUSH1 0x0 KECCAK256 PUSH1 0x3 ADD SLOAD PUSH2 0x212C SWAP2 SWAP1 PUSH2 0x9456 JUMP JUMPDEST GT ISZERO JUMPDEST PUSH2 0x216E JUMPI PUSH1 0x40 MLOAD PUSH32 0x8C379A000000000000000000000000000000000000000000000000000000000 DUP2 MSTORE PUSH1 0x4 ADD PUSH2 0x2165 SWAP1 PUSH2 0x9BE6 JUMP JUMPDEST PUSH1 0x40 MLOAD DUP1 SWAP2 SUB SWAP1 REVERT JUMPDEST PUSH2 0x2182 PUSH8 0xAF59B59D7C3E8947 PUSH1 0xC0 SHL PUSH2 0x6EEE JUMP JUMPDEST PUSH2 0x2196 PUSH8 0x43A1499E679685CE PUSH1 0xC0 SHL PUSH2 0x6EEE JUMP JUMPDEST PUSH2 0x21AA PUSH8 0xD8FE0FFD953296BF PUSH1 0xC0 SHL PUSH2 0x6EEE JUMP JUMPDEST PUSH1 0x0 DUP3 DUP3 SWAP1 POP PUSH8 0xFFFFFFFFFFFFFFFF DUP2 GT ISZERO PUSH2 0x21C9 JUMPI PUSH2 0x21C8 PUSH2 0x8625 JUMP JUMPDEST JUMPDEST PUSH1 0x40 MLOAD SWAP1 DUP1 DUP3 MSTORE DUP1 PUSH1 0x20 MUL PUSH1 0x20 ADD DUP3 ADD PUSH1 0x40 MSTORE DUP1 ISZERO PUSH2 0x21F7 JUMPI DUP2 PUSH1 0x20 ADD PUSH1 0x20 DUP3 MUL DUP1 CALLDATASIZE DUP4 CALLDATACOPY DUP1 DUP3 ADD SWAP2 POP POP SWAP1 POP JUMPDEST POP SWAP1 POP PUSH2 0x220E PUSH8 0x6567548B4511D786 PUSH1 0xC0 SHL PUSH2 0x6EEE JUMP JUMPDEST PUSH2 0x2222 PUSH8 0x5969833F396312D0 PUSH1 0xC0 SHL PUSH2 0x6EEE JUMP JUMPDEST PUSH1 0x0 DUP4 DUP4 SWAP1 POP PUSH8 0xFFFFFFFFFFFFFFFF DUP2 GT ISZERO PUSH2 0x2241 JUMPI PUSH2 0x2240 PUSH2 0x8625 JUMP JUMPDEST JUMPDEST PUSH1 0x40 MLOAD SWAP1 DUP1 DUP3 MSTORE DUP1 PUSH1 0x20 MUL PUSH1 0x20 ADD DUP3 ADD PUSH1 0x40 MSTORE DUP1 ISZERO PUSH2 0x226F JUMPI DUP2 PUSH1 0x20 ADD PUSH1 0x20 DUP3 MUL DUP1 CALLDATASIZE DUP4 CALLDATACOPY DUP1 DUP3 ADD SWAP2 POP POP SWAP1 POP JUMPDEST POP SWAP1 POP PUSH2 0x2286 PUSH8 0x60B5FC252D650D2F PUSH1 0xC0 SHL PUSH2 0x6EEE JUMP JUMPDEST PUSH2 0x229A PUSH8 0x5EBB725A7C6CA057 PUSH1 0xC0 SHL PUSH2 0x6EEE JUMP JUMPDEST PUSH1 0x0 JUMPDEST DUP5 DUP5 SWAP1 POP DUP2 LT ISZERO PUSH2 0x27EE JUMPI PUSH2 0x22BC PUSH8 0x85D084D9A21A8D65 PUSH1 0xC0 SHL PUSH2 0x6EEE JUMP JUMPDEST PUSH2 0x22D0 PUSH8 0x4C9D1C45CFDF789A PUSH1 0xC0 SHL PUSH2 0x6EEE JUMP JUMPDEST PUSH2 0x22E4 PUSH8 0xCEC574007F76545A PUSH1 0xC0 SHL PUSH2 0x6EEE JUMP JUMPDEST CALLER PUSH20 0xFFFFFFFFFFFFFFFFFFFFFFFFFFFFFFFFFFFFFFFF AND PUSH2 0x100 PUSH1 0x0 SWAP1 SLOAD SWAP1 PUSH2 0x100 EXP SWAP1 DIV PUSH20 0xFFFFFFFFFFFFFFFFFFFFFFFFFFFFFFFFFFFFFFFF AND PUSH20 0xFFFFFFFFFFFFFFFFFFFFFFFFFFFFFFFFFFFFFFFF AND PUSH4 0x6352211E DUP8 DUP8 DUP6 DUP2 DUP2 LT PUSH2 0x234D JUMPI PUSH2 0x234C PUSH2 0x9238 JUMP JUMPDEST JUMPDEST SWAP1 POP PUSH1 0x20 MUL ADD CALLDATALOAD PUSH1 0x40 MLOAD DUP3 PUSH4 0xFFFFFFFF AND PUSH1 0xE0 SHL DUP2 MSTORE PUSH1 0x4 ADD PUSH2 0x2370 SWAP2 SWAP1 PUSH2 0x8990 JUMP JUMPDEST PUSH1 0x20 PUSH1 0x40 MLOAD DUP1 DUP4 SUB DUP2 DUP7 GAS STATICCALL ISZERO DUP1 ISZERO PUSH2 0x238D JUMPI RETURNDATASIZE PUSH1 0x0 DUP1 RETURNDATACOPY RETURNDATASIZE PUSH1 0x0 REVERT JUMPDEST POP POP POP POP PUSH1 0x40 MLOAD RETURNDATASIZE PUSH1 0x1F NOT PUSH1 0x1F DUP3 ADD AND DUP3 ADD DUP1 PUSH1 0x40 MSTORE POP DUP2 ADD SWAP1 PUSH2 0x23B1 SWAP2 SWAP1 PUSH2 0x9C1B JUMP JUMPDEST PUSH20 0xFFFFFFFFFFFFFFFFFFFFFFFFFFFFFFFFFFFFFFFF AND EQ PUSH2 0x2407 JUMPI PUSH1 0x40 MLOAD PUSH32 0x8C379A000000000000000000000000000000000000000000000000000000000 DUP2 MSTORE PUSH1 0x4 ADD PUSH2 0x23FE SWAP1 PUSH2 0x9C94 JUMP JUMPDEST PUSH1 0x40 MLOAD DUP1 SWAP2 SUB SWAP1 REVERT JUMPDEST PUSH2 0x241B PUSH8 0xBCC2FA3B8626E1B8 PUSH1 0xC0 SHL PUSH2 0x6EEE JUMP JUMPDEST PUSH2 0x242F PUSH8 0x87819DD06C0D9EBB PUSH1 0xC0 SHL PUSH2 0x6EEE JUMP JUMPDEST PUSH2 0x2443 PUSH8 0xCE177D5C1679A6D2 PUSH1 0xC0 SHL PUSH2 0x6EEE JUMP JUMPDEST PUSH2 0x100 PUSH1 0x0 SWAP1 SLOAD SWAP1 PUSH2 0x100 EXP SWAP1 DIV PUSH20 0xFFFFFFFFFFFFFFFFFFFFFFFFFFFFFFFFFFFFFFFF AND PUSH20 0xFFFFFFFFFFFFFFFFFFFFFFFFFFFFFFFFFFFFFFFF AND PUSH4 0x23B872DD CALLER ADDRESS DUP9 DUP9 DUP7 DUP2 DUP2 LT PUSH2 0x2497 JUMPI PUSH2 0x2496 PUSH2 0x9238 JUMP JUMPDEST JUMPDEST SWAP1 POP PUSH1 0x20 MUL ADD CALLDATALOAD PUSH1 0x40 MLOAD DUP5 PUSH4 0xFFFFFFFF AND PUSH1 0xE0 SHL DUP2 MSTORE PUSH1 0x4 ADD PUSH2 0x24BC SWAP4 SWAP3 SWAP2 SWAP1 PUSH2 0x985C JUMP JUMPDEST PUSH1 0x0 PUSH1 0x40 MLOAD DUP1 DUP4 SUB DUP2 PUSH1 0x0 DUP8 DUP1 EXTCODESIZE ISZERO DUP1 ISZERO PUSH2 0x24D6 JUMPI PUSH1 0x0 DUP1 REVERT JUMPDEST POP GAS CALL ISZERO DUP1 ISZERO PUSH2 0x24EA JUMPI RETURNDATASIZE PUSH1 0x0 DUP1 RETURNDATACOPY RETURNDATASIZE PUSH1 0x0 REVERT JUMPDEST POP POP POP POP PUSH2 0x2502 PUSH8 0xA37CA635C642F9CC PUSH1 0xC0 SHL PUSH2 0x6EEE JUMP JUMPDEST PUSH2 0x2516 PUSH8 0x9ABD896843BABF9A PUSH1 0xC0 SHL PUSH2 0x6EEE JUMP JUMPDEST PUSH2 0x100 PUSH1 0x0 SWAP1 SLOAD SWAP1 PUSH2 0x100 EXP SWAP1 DIV PUSH20 0xFFFFFFFFFFFFFFFFFFFFFFFFFFFFFFFFFFFFFFFF AND PUSH20 0xFFFFFFFFFFFFFFFFFFFFFFFFFFFFFFFFFFFFFFFF AND PUSH4 0x42966C68 DUP7 DUP7 DUP5 DUP2 DUP2 LT PUSH2 0x2568 JUMPI PUSH2 0x2567 PUSH2 0x9238 JUMP JUMPDEST JUMPDEST SWAP1 POP PUSH1 0x20 MUL ADD CALLDATALOAD PUSH1 0x40 MLOAD DUP3 PUSH4 0xFFFFFFFF AND PUSH1 0xE0 SHL DUP2 MSTORE PUSH1 0x4 ADD PUSH2 0x258B SWAP2 SWAP1 PUSH2 0x8990 JUMP JUMPDEST PUSH1 0x0 PUSH1 0x40 MLOAD DUP1 DUP4 SUB DUP2 PUSH1 0x0 DUP8 DUP1 EXTCODESIZE ISZERO DUP1 ISZERO PUSH2 0x25A5 JUMPI PUSH1 0x0 DUP1 REVERT JUMPDEST POP GAS CALL ISZERO DUP1 ISZERO PUSH2 0x25B9 JUMPI RETURNDATASIZE PUSH1 0x0 DUP1 RETURNDATACOPY RETURNDATASIZE PUSH1 0x0 REVERT JUMPDEST POP POP POP POP PUSH2 0x25D1 PUSH8 0x4ABD6AEBF11DD4CD PUSH1 0xC0 SHL PUSH2 0x6EEE JUMP JUMPDEST PUSH2 0x25E5 PUSH8 0x3997D2A22180FD67 PUSH1 0xC0 SHL PUSH2 0x6EEE JUMP JUMPDEST PUSH1 0x0 PUSH2 0x101 PUSH1 0x0 SWAP1 SLOAD SWAP1 PUSH2 0x100 EXP SWAP1 DIV PUSH20 0xFFFFFFFFFFFFFFFFFFFFFFFFFFFFFFFFFFFFFFFF AND PUSH20 0xFFFFFFFFFFFFFFFFFFFFFFFFFFFFFFFFFFFFFFFF AND PUSH4 0x58F5F8BE CALLER PUSH1 0x40 MLOAD DUP3 PUSH4 0xFFFFFFFF AND PUSH1 0xE0 SHL DUP2 MSTORE PUSH1 0x4 ADD PUSH2 0x2643 SWAP2 SWAP1 PUSH2 0x88FA JUMP JUMPDEST PUSH1 0x20 PUSH1 0x40 MLOAD DUP1 DUP4 SUB DUP2 PUSH1 0x0 DUP8 GAS CALL ISZERO DUP1 ISZERO PUSH2 0x2662 JUMPI RETURNDATASIZE PUSH1 0x0 DUP1 RETURNDATACOPY RETURNDATASIZE PUSH1 0x0 REVERT JUMPDEST POP POP POP POP PUSH1 0x40 MLOAD RETURNDATASIZE PUSH1 0x1F NOT PUSH1 0x1F DUP3 ADD AND DUP3 ADD DUP1 PUSH1 0x40 MSTORE POP DUP2 ADD SWAP1 PUSH2 0x2686 SWAP2 SWAP1 PUSH2 0x9CC9 JUMP JUMPDEST SWAP1 POP PUSH2 0x269C PUSH8 0xE951FECA18ACEB02 PUSH1 0xC0 SHL PUSH2 0x6EEE JUMP JUMPDEST PUSH1 0x1 PUSH1 0xFB PUSH1 0x0 DUP3 DUP3 SLOAD PUSH2 0x26AF SWAP2 SWAP1 PUSH2 0x9456 JUMP JUMPDEST SWAP3 POP POP DUP2 SWAP1 SSTORE POP PUSH2 0x26CA PUSH8 0xF50AAFE27BFE4898 PUSH1 0xC0 SHL PUSH2 0x6EEE JUMP JUMPDEST PUSH1 0xFB SLOAD DUP5 DUP4 DUP2 MLOAD DUP2 LT PUSH2 0x26E0 JUMPI PUSH2 0x26DF PUSH2 0x9238 JUMP JUMPDEST JUMPDEST PUSH1 0x20 MUL PUSH1 0x20 ADD ADD DUP2 DUP2 MSTORE POP POP PUSH2 0x2700 PUSH8 0x315AD0A921051312 PUSH1 0xC0 SHL PUSH2 0x6EEE JUMP JUMPDEST DUP1 DUP4 DUP4 DUP2 MLOAD DUP2 LT PUSH2 0x2714 JUMPI PUSH2 0x2713 PUSH2 0x9238 JUMP JUMPDEST JUMPDEST PUSH1 0x20 MUL PUSH1 0x20 ADD ADD DUP2 DUP2 MSTORE POP POP PUSH2 0x2734 PUSH8 0x78048FFA71250E1 PUSH1 0xC0 SHL PUSH2 0x6EEE JUMP JUMPDEST PUSH2 0x2748 PUSH8 0x33AE5EC13E080078 PUSH1 0xC0 SHL PUSH2 0x6EEE JUMP JUMPDEST PUSH2 0x2754 CALLER PUSH1 0xFB SLOAD PUSH2 0x732D JUMP JUMPDEST PUSH2 0x2768 PUSH8 0x184FF00E4B9D016C PUSH1 0xC0 SHL PUSH2 0x6EEE JUMP JUMPDEST PUSH1 0x1 PUSH1 0xFE PUSH1 0x0 PUSH1 0x5 DUP2 MSTORE PUSH1 0x20 ADD SWAP1 DUP2 MSTORE PUSH1 0x20 ADD PUSH1 0x0 KECCAK256 PUSH1 0x3 ADD PUSH1 0x0 DUP3 DUP3 SLOAD PUSH2 0x2790 SWAP2 SWAP1 PUSH2 0x9456 JUMP JUMPDEST SWAP3 POP POP DUP2 SWAP1 SSTORE POP PUSH2 0x27AB PUSH8 0xD8CAB32BF3C393BB PUSH1 0xC0 SHL PUSH2 0x6EEE JUMP JUMPDEST PUSH1 0x1 PUSH1 0xFE PUSH1 0x0 PUSH1 0x5 DUP2 MSTORE PUSH1 0x20 ADD SWAP1 DUP2 MSTORE PUSH1 0x20 ADD PUSH1 0x0 KECCAK256 PUSH1 0x1 ADD PUSH1 0x0 DUP3 DUP3 SLOAD PUSH2 0x27D3 SWAP2 SWAP1 PUSH2 0x9456 JUMP JUMPDEST SWAP3 POP POP DUP2 SWAP1 SSTORE POP POP DUP1 DUP1 PUSH2 0x27E6 SWAP1 PUSH2 0x9296 JUMP JUMPDEST SWAP2 POP POP PUSH2 0x229D JUMP JUMPDEST POP PUSH2 0x2803 PUSH8 0xFBE163F230EB7D5 PUSH1 0xC0 SHL PUSH2 0x6EEE JUMP JUMPDEST PUSH2 0x2817 PUSH8 0x79F6653ECF92AD69 PUSH1 0xC0 SHL PUSH2 0x6EEE JUMP JUMPDEST PUSH32 0xBED2EA4CC61A5F3D97BF656E6A36DA515575612249452E8DBF3D972B675E3143 CALLER PUSH1 0x5 DUP4 DUP6 DUP9 DUP9 PUSH1 0x40 MLOAD PUSH2 0x2851 SWAP7 SWAP6 SWAP5 SWAP4 SWAP3 SWAP2 SWAP1 PUSH2 0x9D9B JUMP JUMPDEST PUSH1 0x40 MLOAD DUP1 SWAP2 SUB SWAP1 LOG1 POP POP POP POP JUMP JUMPDEST PUSH2 0x2873 PUSH8 0x9F97FE4343AF98DD PUSH1 0xC0 SHL PUSH2 0x6EEE JUMP JUMPDEST PUSH2 0x2887 PUSH8 0xF67666F056C26B83 PUSH1 0xC0 SHL PUSH2 0x6EEE JUMP JUMPDEST PUSH2 0x289B PUSH8 0xD3573D93E9CF7A6B PUSH1 0xC0 SHL PUSH2 0x6EEE JUMP JUMPDEST PUSH2 0x28AF PUSH8 0xE1C067E70AAE29AC PUSH1 0xC0 SHL PUSH2 0x6EEE JUMP JUMPDEST PUSH1 0xFF PUSH1 0x0 PUSH1 0x4 DUP2 MSTORE PUSH1 0x20 ADD SWAP1 DUP2 MSTORE PUSH1 0x20 ADD PUSH1 0x0 KECCAK256 PUSH1 0x0 SWAP1 SLOAD SWAP1 PUSH2 0x100 EXP SWAP1 DIV PUSH1 0xFF AND DUP1 ISZERO PUSH2 0x290A JUMPI POP PUSH1 0xFE PUSH1 0x0 PUSH1 0x4 DUP2 MSTORE PUSH1 0x20 ADD SWAP1 DUP2 MSTORE PUSH1 0x20 ADD PUSH1 0x0 KECCAK256 PUSH1 0x0 ADD SLOAD PUSH1 0xFE PUSH1 0x0 PUSH1 0x4 DUP2 MSTORE PUSH1 0x20 ADD SWAP1 DUP2 MSTORE PUSH1 0x20 ADD PUSH1 0x0 KECCAK256 PUSH1 0x1 ADD SLOAD LT JUMPDEST DUP1 ISZERO PUSH2 0x2943 JUMPI POP PUSH1 0xFE PUSH1 0x0 PUSH1 0x4 DUP2 MSTORE PUSH1 0x20 ADD SWAP1 DUP2 MSTORE PUSH1 0x20 ADD PUSH1 0x0 KECCAK256 PUSH1 0x2 ADD SLOAD PUSH1 0xFE PUSH1 0x0 PUSH1 0x4 DUP2 MSTORE PUSH1 0x20 ADD SWAP1 DUP2 MSTORE PUSH1 0x20 ADD PUSH1 0x0 KECCAK256 PUSH1 0x3 ADD SLOAD LT JUMPDEST PUSH2 0x2982 JUMPI PUSH1 0x40 MLOAD PUSH32 0x8C379A000000000000000000000000000000000000000000000000000000000 DUP2 MSTORE PUSH1 0x4 ADD PUSH2 0x2979 SWAP1 PUSH2 0x9BE6 JUMP JUMPDEST PUSH1 0x40 MLOAD DUP1 SWAP2 SUB SWAP1 REVERT JUMPDEST PUSH2 0x2996 PUSH8 0xF41EC863AE4F675B PUSH1 0xC0 SHL PUSH2 0x6EEE JUMP JUMPDEST PUSH2 0x29AA PUSH8 0xAB4BD9986BBEAF7B PUSH1 0xC0 SHL PUSH2 0x6EEE JUMP JUMPDEST PUSH2 0x29BE PUSH8 0xCA73CCE4D92555BA PUSH1 0xC0 SHL PUSH2 0x6EEE JUMP JUMPDEST PUSH2 0x29D2 PUSH8 0xD1A31D25FB57197E PUSH1 0xC0 SHL PUSH2 0x6EEE JUMP JUMPDEST PUSH2 0x104 PUSH1 0x0 CALLER PUSH20 0xFFFFFFFFFFFFFFFFFFFFFFFFFFFFFFFFFFFFFFFF AND PUSH20 0xFFFFFFFFFFFFFFFFFFFFFFFFFFFFFFFFFFFFFFFF AND DUP2 MSTORE PUSH1 0x20 ADD SWAP1 DUP2 MSTORE PUSH1 0x20 ADD PUSH1 0x0 KECCAK256 PUSH1 0x0 SWAP1 SLOAD SWAP1 PUSH2 0x100 EXP SWAP1 DIV PUSH1 0xFF AND PUSH2 0x2A5F JUMPI PUSH1 0x40 MLOAD PUSH32 0x8C379A000000000000000000000000000000000000000000000000000000000 DUP2 MSTORE PUSH1 0x4 ADD PUSH2 0x2A56 SWAP1 PUSH2 0x9E51 JUMP JUMPDEST PUSH1 0x40 MLOAD DUP1 SWAP2 SUB SWAP1 REVERT JUMPDEST PUSH2 0x2A73 PUSH8 0x3FA2AA871A072BB8 PUSH1 0xC0 SHL PUSH2 0x6EEE JUMP JUMPDEST PUSH2 0x2A87 PUSH8 0xA064E2C6FFBAE657 PUSH1 0xC0 SHL PUSH2 0x6EEE JUMP JUMPDEST PUSH2 0x2A9B PUSH8 0xBC7261F2C53098C1 PUSH1 0xC0 SHL PUSH2 0x6EEE JUMP JUMPDEST PUSH1 0x0 PUSH2 0x101 PUSH1 0x0 SWAP1 SLOAD SWAP1 PUSH2 0x100 EXP SWAP1 DIV PUSH20 0xFFFFFFFFFFFFFFFFFFFFFFFFFFFFFFFFFFFFFFFF AND PUSH20 0xFFFFFFFFFFFFFFFFFFFFFFFFFFFFFFFFFFFFFFFF AND PUSH4 0x58F5F8BE CALLER PUSH1 0x40 MLOAD DUP3 PUSH4 0xFFFFFFFF AND PUSH1 0xE0 SHL DUP2 MSTORE PUSH1 0x4 ADD PUSH2 0x2AF9 SWAP2 SWAP1 PUSH2 0x88FA JUMP JUMPDEST PUSH1 0x20 PUSH1 0x40 MLOAD DUP1 DUP4 SUB DUP2 PUSH1 0x0 DUP8 GAS CALL ISZERO DUP1 ISZERO PUSH2 0x2B18 JUMPI RETURNDATASIZE PUSH1 0x0 DUP1 RETURNDATACOPY RETURNDATASIZE PUSH1 0x0 REVERT JUMPDEST POP POP POP POP PUSH1 0x40 MLOAD RETURNDATASIZE PUSH1 0x1F NOT PUSH1 0x1F DUP3 ADD AND DUP3 ADD DUP1 PUSH1 0x40 MSTORE POP DUP2 ADD SWAP1 PUSH2 0x2B3C SWAP2 SWAP1 PUSH2 0x9CC9 JUMP JUMPDEST SWAP1 POP PUSH2 0x2B52 PUSH8 0x22D8F2F47F18082F PUSH1 0xC0 SHL PUSH2 0x6EEE JUMP JUMPDEST PUSH1 0x1 PUSH1 0xFE PUSH1 0x0 PUSH1 0x4 DUP2 MSTORE PUSH1 0x20 ADD SWAP1 DUP2 MSTORE PUSH1 0x20 ADD PUSH1 0x0 KECCAK256 PUSH1 0x3 ADD PUSH1 0x0 DUP3 DUP3 SLOAD PUSH2 0x2B7A SWAP2 SWAP1 PUSH2 0x9456 JUMP JUMPDEST SWAP3 POP POP DUP2 SWAP1 SSTORE POP PUSH2 0x2B95 PUSH8 0xF730AF9EA19982A3 PUSH1 0xC0 SHL PUSH2 0x6EEE JUMP JUMPDEST PUSH1 0x1 PUSH1 0xFB PUSH1 0x0 DUP3 DUP3 SLOAD PUSH2 0x2BA8 SWAP2 SWAP1 PUSH2 0x9456 JUMP JUMPDEST SWAP3 POP POP DUP2 SWAP1 SSTORE POP PUSH2 0x2BC3 PUSH8 0x6C70040A6943C6C7 PUSH1 0xC0 SHL PUSH2 0x6EEE JUMP JUMPDEST PUSH2 0x2BD7 PUSH8 0xB291DF90B2C17024 PUSH1 0xC0 SHL PUSH2 0x6EEE JUMP JUMPDEST PUSH2 0x2BE3 CALLER PUSH1 0xFB SLOAD PUSH2 0x732D JUMP JUMPDEST PUSH2 0x2BF7 PUSH8 0xAC1D77A30A8284D1 PUSH1 0xC0 SHL PUSH2 0x6EEE JUMP JUMPDEST PUSH1 0x1 PUSH1 0xFE PUSH1 0x0 PUSH1 0x4 DUP2 MSTORE PUSH1 0x20 ADD SWAP1 DUP2 MSTORE PUSH1 0x20 ADD PUSH1 0x0 KECCAK256 PUSH1 0x1 ADD PUSH1 0x0 DUP3 DUP3 SLOAD PUSH2 0x2C1F SWAP2 SWAP1 PUSH2 0x9456 JUMP JUMPDEST SWAP3 POP POP DUP2 SWAP1 SSTORE POP PUSH2 0x2C3A PUSH8 0xCA1A19723B464773 PUSH1 0xC0 SHL PUSH2 0x6EEE JUMP JUMPDEST PUSH1 0x0 PUSH2 0x104 PUSH1 0x0 CALLER PUSH20 0xFFFFFFFFFFFFFFFFFFFFFFFFFFFFFFFFFFFFFFFF AND PUSH20 0xFFFFFFFFFFFFFFFFFFFFFFFFFFFFFFFFFFFFFFFF AND DUP2 MSTORE PUSH1 0x20 ADD SWAP1 DUP2 MSTORE PUSH1 0x20 ADD PUSH1 0x0 KECCAK256 PUSH1 0x0 PUSH2 0x100 EXP DUP2 SLOAD DUP2 PUSH1 0xFF MUL NOT AND SWAP1 DUP4 ISZERO ISZERO MUL OR SWAP1 SSTORE POP PUSH2 0x2CA7 PUSH8 0x29553B9ECCB98C02 PUSH1 0xC0 SHL PUSH2 0x6EEE JUMP JUMPDEST PUSH2 0x2CBB PUSH8 0x431E61A836488976 PUSH1 0xC0 SHL PUSH2 0x6EEE JUMP JUMPDEST PUSH32 0x4523983E24616F78FF12FF843803430D32341B84760BD1FFF8BC9B9DEF15389 CALLER PUSH1 0x4 DUP4 PUSH1 0xFB SLOAD PUSH1 0x40 MLOAD PUSH2 0x2CF3 SWAP5 SWAP4 SWAP3 SWAP2 SWAP1 PUSH2 0x9EAC JUMP JUMPDEST PUSH1 0x40 MLOAD DUP1 SWAP2 SUB SWAP1 LOG1 POP JUMP JUMPDEST PUSH2 0x2D12 PUSH8 0x44854B0E47D04647 PUSH1 0xC0 SHL PUSH2 0x6EEE JUMP JUMPDEST PUSH2 0x2D1A PUSH2 0x6EF1 JUMP JUMPDEST PUSH2 0x2D2E PUSH8 0x118B433A9ED82595 PUSH1 0xC0 SHL PUSH2 0x6EEE JUMP JUMPDEST PUSH2 0x2D42 PUSH8 0x21E779725F5A58B7 PUSH1 0xC0 SHL PUSH2 0x6EEE JUMP JUMPDEST PUSH2 0x2D56 PUSH8 0x99F08CF498DE4AB1 PUSH1 0xC0 SHL PUSH2 0x6EEE JUMP JUMPDEST PUSH2 0x2D6A PUSH8 0xDB5F091A953769CB PUSH1 0xC0 SHL PUSH2 0x6EEE JUMP JUMPDEST PUSH1 0x0 JUMPDEST DUP4 DUP4 SWAP1 POP DUP2 LT ISZERO PUSH2 0x2E1E JUMPI PUSH2 0x2D8C PUSH8 0x434B6933A91A30BF PUSH1 0xC0 SHL PUSH2 0x6EEE JUMP JUMPDEST DUP2 PUSH2 0x103 PUSH1 0x0 DUP7 DUP7 DUP6 DUP2 DUP2 LT PUSH2 0x2DA5 JUMPI PUSH2 0x2DA4 PUSH2 0x9238 JUMP JUMPDEST JUMPDEST SWAP1 POP PUSH1 0x20 MUL ADD PUSH1 0x20 DUP2 ADD SWAP1 PUSH2 0x2DBA SWAP2 SWAP1 PUSH2 0x8AAE JUMP JUMPDEST PUSH20 0xFFFFFFFFFFFFFFFFFFFFFFFFFFFFFFFFFFFFFFFF AND PUSH20 0xFFFFFFFFFFFFFFFFFFFFFFFFFFFFFFFFFFFFFFFF AND DUP2 MSTORE PUSH1 0x20 ADD SWAP1 DUP2 MSTORE PUSH1 0x20 ADD PUSH1 0x0 KECCAK256 PUSH1 0x0 PUSH2 0x100 EXP DUP2 SLOAD DUP2 PUSH1 0xFF MUL NOT AND SWAP1 DUP4 ISZERO ISZERO MUL OR SWAP1 SSTORE POP DUP1 DUP1 PUSH2 0x2E16 SWAP1 PUSH2 0x9296 JUMP JUMPDEST SWAP2 POP POP PUSH2 0x2D6D JUMP JUMPDEST POP PUSH2 0x2E33 PUSH8 0xB4A693C965781A89 PUSH1 0xC0 SHL PUSH2 0x6EEE JUMP JUMPDEST PUSH2 0x2E47 PUSH8 0xE2F5F5963B5490F7 PUSH1 0xC0 SHL PUSH2 0x6EEE JUMP JUMPDEST PUSH32 0x4C8368746583E40765156B70AA8A680BEB42868327860B5D1FD1BD4A5A0D2A69 DUP4 DUP4 DUP4 PUSH1 0x40 MLOAD PUSH2 0x2E7A SWAP4 SWAP3 SWAP2 SWAP1 PUSH2 0x9FB4 JUMP JUMPDEST PUSH1 0x40 MLOAD DUP1 SWAP2 SUB SWAP1 LOG1 POP POP POP JUMP JUMPDEST PUSH2 0x102 PUSH1 0x20 MSTORE DUP1 PUSH1 0x0 MSTORE PUSH1 0x40 PUSH1 0x0 KECCAK256 PUSH1 0x0 SWAP2 POP SLOAD SWAP1 PUSH2 0x100 EXP SWAP1 DIV PUSH1 0xFF AND DUP2 JUMP JUMPDEST PUSH2 0x109 PUSH1 0x20 MSTORE DUP2 PUSH1 0x0 MSTORE PUSH1 0x40 PUSH1 0x0 KECCAK256 PUSH1 0x20 MSTORE DUP1 PUSH1 0x0 MSTORE PUSH1 0x40 PUSH1 0x0 KECCAK256 PUSH1 0x0 SWAP2 POP SWAP2 POP POP DUP1 PUSH1 0x0 ADD SLOAD SWAP1 DUP1 PUSH1 0x1 ADD SLOAD SWAP1 DUP1 PUSH1 0x2 ADD SLOAD SWAP1 DUP1 PUSH1 0x3 ADD SLOAD SWAP1 DUP1 PUSH1 0x4 ADD SLOAD SWAP1 DUP1 PUSH1 0x5 ADD SLOAD SWAP1 DUP1 PUSH1 0x6 ADD SLOAD SWAP1 DUP1 PUSH1 0x7 ADD SLOAD SWAP1 DUP1 PUSH1 0x8 ADD SLOAD SWAP1 POP DUP10 JUMP JUMPDEST PUSH2 0x2F15 PUSH2 0x2F0F PUSH2 0x726C JUMP JUMPDEST DUP3 PUSH2 0x754A JUMP JUMPDEST PUSH2 0x2F54 JUMPI PUSH1 0x40 MLOAD PUSH32 0x8C379A000000000000000000000000000000000000000000000000000000000 DUP2 MSTORE PUSH1 0x4 ADD PUSH2 0x2F4B SWAP1 PUSH2 0xA058 JUMP JUMPDEST PUSH1 0x40 MLOAD DUP1 SWAP2 SUB SWAP1 REVERT JUMPDEST PUSH2 0x2F5F DUP4 DUP4 DUP4 PUSH2 0x75DF JUMP JUMPDEST POP POP POP JUMP JUMPDEST PUSH1 0x0 PUSH2 0x2F7A PUSH8 0xC72120EE343F2F7E PUSH1 0xC0 SHL PUSH2 0x6EEE JUMP JUMPDEST PUSH2 0x2F8E PUSH8 0x92213F12A601CAB0 PUSH1 0xC0 SHL PUSH2 0x6EEE JUMP JUMPDEST PUSH2 0x3E8 DUP3 PUSH2 0x101 PUSH1 0x0 SWAP1 SLOAD SWAP1 PUSH2 0x100 EXP SWAP1 DIV PUSH20 0xFFFFFFFFFFFFFFFFFFFFFFFFFFFFFFFFFFFFFFFF AND PUSH20 0xFFFFFFFFFFFFFFFFFFFFFFFFFFFFFFFFFFFFFFFF AND PUSH4 0x6FB1EB0C PUSH1 0x40 MLOAD DUP2 PUSH4 0xFFFFFFFF AND PUSH1 0xE0 SHL DUP2 MSTORE PUSH1 0x4 ADD PUSH1 0x20 PUSH1 0x40 MLOAD DUP1 DUP4 SUB DUP2 DUP7 GAS STATICCALL ISZERO DUP1 ISZERO PUSH2 0x3000 JUMPI RETURNDATASIZE PUSH1 0x0 DUP1 RETURNDATACOPY RETURNDATASIZE PUSH1 0x0 REVERT JUMPDEST POP POP POP POP PUSH1 0x40 MLOAD RETURNDATASIZE PUSH1 0x1F NOT PUSH1 0x1F DUP3 ADD AND DUP3 ADD DUP1 PUSH1 0x40 MSTORE POP DUP2 ADD SWAP1 PUSH2 0x3024 SWAP2 SWAP1 PUSH2 0x9CC9 JUMP JUMPDEST PUSH2 0x302E SWAP2 SWAP1 PUSH2 0xA078 JUMP JUMPDEST PUSH2 0x3038 SWAP2 SWAP1 PUSH2 0xA101 JUMP JUMPDEST SWAP1 POP SWAP2 SWAP1 POP JUMP JUMPDEST PUSH2 0x3053 PUSH8 0x4392721D3A09517C PUSH1 0xC0 SHL PUSH2 0x6EEE JUMP JUMPDEST PUSH2 0x3067 PUSH8 0xC58F84D422D61959 PUSH1 0xC0 SHL PUSH2 0x6EEE JUMP JUMPDEST PUSH2 0x307B PUSH8 0xB6B38703172F7091 PUSH1 0xC0 SHL PUSH2 0x6EEE JUMP JUMPDEST PUSH2 0x308F PUSH8 0x76CA1F63AD47C93B PUSH1 0xC0 SHL PUSH2 0x6EEE JUMP JUMPDEST PUSH1 0xFF PUSH1 0x0 DUP3 DUP2 MSTORE PUSH1 0x20 ADD SWAP1 DUP2 MSTORE PUSH1 0x20 ADD PUSH1 0x0 KECCAK256 PUSH1 0x0 SWAP1 SLOAD SWAP1 PUSH2 0x100 EXP SWAP1 DIV PUSH1 0xFF AND DUP1 ISZERO PUSH2 0x30E7 JUMPI POP PUSH1 0xFE PUSH1 0x0 DUP3 DUP2 MSTORE PUSH1 0x20 ADD SWAP1 DUP2 MSTORE PUSH1 0x20 ADD PUSH1 0x0 KECCAK256 PUSH1 0x2 ADD SLOAD PUSH1 0xFE PUSH1 0x0 DUP4 DUP2 MSTORE PUSH1 0x20 ADD SWAP1 DUP2 MSTORE PUSH1 0x20 ADD PUSH1 0x0 KECCAK256 PUSH1 0x3 ADD SLOAD LT JUMPDEST DUP1 ISZERO PUSH2 0x3136 JUMPI POP PUSH1 0x1 DUP2 EQ DUP1 ISZERO PUSH2 0x310E JUMPI POP PUSH2 0x310D PUSH8 0x5F0CE45B2BE2EEBA PUSH1 0xC0 SHL PUSH2 0x71EE JUMP JUMPDEST JUMPDEST DUP1 PUSH2 0x3135 JUMPI POP PUSH1 0x2 DUP2 EQ DUP1 ISZERO PUSH2 0x3134 JUMPI POP PUSH2 0x3133 PUSH8 0x927D0B211DEAD9B0 PUSH1 0xC0 SHL PUSH2 0x71EE JUMP JUMPDEST JUMPDEST JUMPDEST JUMPDEST PUSH2 0x3175 JUMPI PUSH1 0x40 MLOAD PUSH32 0x8C379A000000000000000000000000000000000000000000000000000000000 DUP2 MSTORE PUSH1 0x4 ADD PUSH2 0x316C SWAP1 PUSH2 0x9BE6 JUMP JUMPDEST PUSH1 0x40 MLOAD DUP1 SWAP2 SUB SWAP1 REVERT JUMPDEST PUSH2 0x3189 PUSH8 0x68445BD400E927F5 PUSH1 0xC0 SHL PUSH2 0x6EEE JUMP JUMPDEST PUSH2 0x319D PUSH8 0x6F59AFFC6B589710 PUSH1 0xC0 SHL PUSH2 0x6EEE JUMP JUMPDEST PUSH2 0x31B1 PUSH8 0xEECA32627ADCCCB1 PUSH1 0xC0 SHL PUSH2 0x6EEE JUMP JUMPDEST PUSH1 0x1 DUP2 SUB PUSH2 0x331C JUMPI PUSH2 0x31CD PUSH8 0x5F51B375E8880B1B PUSH1 0xC0 SHL PUSH2 0x6EEE JUMP JUMPDEST PUSH2 0x31E1 PUSH8 0xE1460CB879753D9C PUSH1 0xC0 SHL PUSH2 0x6EEE JUMP JUMPDEST PUSH2 0x31F5 PUSH8 0x3BF83C19B34608F5 PUSH1 0xC0 SHL PUSH2 0x6EEE JUMP JUMPDEST PUSH2 0x3209 PUSH8 0xDC8EFEED491B9F81 PUSH1 0xC0 SHL PUSH2 0x6EEE JUMP JUMPDEST PUSH2 0x106 PUSH1 0x0 CALLER PUSH20 0xFFFFFFFFFFFFFFFFFFFFFFFFFFFFFFFFFFFFFFFF AND PUSH20 0xFFFFFFFFFFFFFFFFFFFFFFFFFFFFFFFFFFFFFFFF AND DUP2 MSTORE PUSH1 0x20 ADD SWAP1 DUP2 MSTORE PUSH1 0x20 ADD PUSH1 0x0 KECCAK256 PUSH1 0x0 SWAP1 SLOAD SWAP1 PUSH2 0x100 EXP SWAP1 DIV PUSH1 0xFF AND PUSH2 0x3296 JUMPI PUSH1 0x40 MLOAD PUSH32 0x8C379A000000000000000000000000000000000000000000000000000000000 DUP2 MSTORE PUSH1 0x4 ADD PUSH2 0x328D SWAP1 PUSH2 0xA1A4 JUMP JUMPDEST PUSH1 0x40 MLOAD DUP1 SWAP2 SUB SWAP1 REVERT JUMPDEST PUSH2 0x32AA PUSH8 0xAA158785D4F0F55B PUSH1 0xC0 SHL PUSH2 0x6EEE JUMP JUMPDEST PUSH2 0x32BE PUSH8 0xF558573CA8CD7437 PUSH1 0xC0 SHL PUSH2 0x6EEE JUMP JUMPDEST PUSH1 0x0 PUSH2 0x106 PUSH1 0x0 CALLER PUSH20 0xFFFFFFFFFFFFFFFFFFFFFFFFFFFFFFFFFFFFFFFF AND PUSH20 0xFFFFFFFFFFFFFFFFFFFFFFFFFFFFFFFFFFFFFFFF AND DUP2 MSTORE PUSH1 0x20 ADD SWAP1 DUP2 MSTORE PUSH1 0x20 ADD PUSH1 0x0 KECCAK256 PUSH1 0x0 PUSH2 0x100 EXP DUP2 SLOAD DUP2 PUSH1 0xFF MUL NOT AND SWAP1 DUP4 ISZERO ISZERO MUL OR SWAP1 SSTORE POP PUSH2 0x3331 JUMP JUMPDEST PUSH2 0x3330 PUSH8 0x77B237E9A1E73636 PUSH1 0xC0 SHL PUSH2 0x6EEE JUMP JUMPDEST JUMPDEST PUSH2 0x3345 PUSH8 0x311BF5366B41CCDF PUSH1 0xC0 SHL PUSH2 0x6EEE JUMP JUMPDEST PUSH2 0x3359 PUSH8 0xA6B0E5B3097AD59C PUSH1 0xC0 SHL PUSH2 0x6EEE JUMP JUMPDEST PUSH1 0x2 DUP2 SUB PUSH2 0x34C4 JUMPI PUSH2 0x3375 PUSH8 0x8E11EE199827655B PUSH1 0xC0 SHL PUSH2 0x6EEE JUMP JUMPDEST PUSH2 0x3389 PUSH8 0xD2155D42F22CA714 PUSH1 0xC0 SHL PUSH2 0x6EEE JUMP JUMPDEST PUSH2 0x339D PUSH8 0xE2B86C30730C3FF4 PUSH1 0xC0 SHL PUSH2 0x6EEE JUMP JUMPDEST PUSH2 0x33B1 PUSH8 0x59FDAA27C8D4002B PUSH1 0xC0 SHL PUSH2 0x6EEE JUMP JUMPDEST PUSH2 0x108 PUSH1 0x0 CALLER PUSH20 0xFFFFFFFFFFFFFFFFFFFFFFFFFFFFFFFFFFFFFFFF AND PUSH20 0xFFFFFFFFFFFFFFFFFFFFFFFFFFFFFFFFFFFFFFFF AND DUP2 MSTORE PUSH1 0x20 ADD SWAP1 DUP2 MSTORE PUSH1 0x20 ADD PUSH1 0x0 KECCAK256 PUSH1 0x0 SWAP1 SLOAD SWAP1 PUSH2 0x100 EXP SWAP1 DIV PUSH1 0xFF AND PUSH2 0x343E JUMPI PUSH1 0x40 MLOAD PUSH32 0x8C379A000000000000000000000000000000000000000000000000000000000 DUP2 MSTORE PUSH1 0x4 ADD PUSH2 0x3435 SWAP1 PUSH2 0xA1A4 JUMP JUMPDEST PUSH1 0x40 MLOAD DUP1 SWAP2 SUB SWAP1 REVERT JUMPDEST PUSH2 0x3452 PUSH8 0xFBC9FE8BDE1B4E9D PUSH1 0xC0 SHL PUSH2 0x6EEE JUMP JUMPDEST PUSH2 0x3466 PUSH8 0x86FE66B3A9DA6626 PUSH1 0xC0 SHL PUSH2 0x6EEE JUMP JUMPDEST PUSH1 0x0 PUSH2 0x108 PUSH1 0x0 CALLER PUSH20 0xFFFFFFFFFFFFFFFFFFFFFFFFFFFFFFFFFFFFFFFF AND PUSH20 0xFFFFFFFFFFFFFFFFFFFFFFFFFFFFFFFFFFFFFFFF AND DUP2 MSTORE PUSH1 0x20 ADD SWAP1 DUP2 MSTORE PUSH1 0x20 ADD PUSH1 0x0 KECCAK256 PUSH1 0x0 PUSH2 0x100 EXP DUP2 SLOAD DUP2 PUSH1 0xFF MUL NOT AND SWAP1 DUP4 ISZERO ISZERO MUL OR SWAP1 SSTORE POP PUSH2 0x34D9 JUMP JUMPDEST PUSH2 0x34D8 PUSH8 0xA247BD0FB8312AC5 PUSH1 0xC0 SHL PUSH2 0x6EEE JUMP JUMPDEST JUMPDEST PUSH2 0x34ED PUSH8 0xB23D20B7B97266D9 PUSH1 0xC0 SHL PUSH2 0x6EEE JUMP JUMPDEST PUSH1 0x1 PUSH1 0xFE PUSH1 0x0 DUP4 DUP2 MSTORE PUSH1 0x20 ADD SWAP1 DUP2 MSTORE PUSH1 0x20 ADD PUSH1 0x0 KECCAK256 PUSH1 0x3 ADD PUSH1 0x0 DUP3 DUP3 SLOAD PUSH2 0x3514 SWAP2 SWAP1 PUSH2 0x9456 JUMP JUMPDEST SWAP3 POP POP DUP2 SWAP1 SSTORE POP PUSH2 0x352F PUSH8 0xE7D0E71A65930CD4 PUSH1 0xC0 SHL PUSH2 0x6EEE JUMP JUMPDEST PUSH2 0x3543 PUSH8 0xEA08AAE7873AF10E PUSH1 0xC0 SHL PUSH2 0x6EEE JUMP JUMPDEST PUSH1 0x0 PUSH2 0x101 PUSH1 0x0 SWAP1 SLOAD SWAP1 PUSH2 0x100 EXP SWAP1 DIV PUSH20 0xFFFFFFFFFFFFFFFFFFFFFFFFFFFFFFFFFFFFFFFF AND PUSH20 0xFFFFFFFFFFFFFFFFFFFFFFFFFFFFFFFFFFFFFFFF AND PUSH4 0x58F5F8BE CALLER PUSH1 0x40 MLOAD DUP3 PUSH4 0xFFFFFFFF AND PUSH1 0xE0 SHL DUP2 MSTORE PUSH1 0x4 ADD PUSH2 0x35A1 SWAP2 SWAP1 PUSH2 0x88FA JUMP JUMPDEST PUSH1 0x20 PUSH1 0x40 MLOAD DUP1 DUP4 SUB DUP2 PUSH1 0x0 DUP8 GAS CALL ISZERO DUP1 ISZERO PUSH2 0x35C0 JUMPI RETURNDATASIZE PUSH1 0x0 DUP1 RETURNDATACOPY RETURNDATASIZE PUSH1 0x0 REVERT JUMPDEST POP POP POP POP PUSH1 0x40 MLOAD RETURNDATASIZE PUSH1 0x1F NOT PUSH1 0x1F DUP3 ADD AND DUP3 ADD DUP1 PUSH1 0x40 MSTORE POP DUP2 ADD SWAP1 PUSH2 0x35E4 SWAP2 SWAP1 PUSH2 0x9CC9 JUMP JUMPDEST SWAP1 POP PUSH2 0x35FA PUSH8 0x9843C6589C468F78 PUSH1 0xC0 SHL PUSH2 0x6EEE JUMP JUMPDEST PUSH2 0x360E PUSH8 0xF8582806EAE0B2C6 PUSH1 0xC0 SHL PUSH2 0x6EEE JUMP JUMPDEST PUSH32 0x2E9E0784B8B9603D5DFCD027DD92455B08D1F69B95710BD5D145C962AD1117DA CALLER DUP3 PUSH1 0x3 PUSH1 0x40 MLOAD PUSH2 0x3642 SWAP4 SWAP3 SWAP2 SWAP1 PUSH2 0xA1FF JUMP JUMPDEST PUSH1 0x40 MLOAD DUP1 SWAP2 SUB SWAP1 LOG1 POP POP JUMP JUMPDEST PUSH2 0x100 PUSH1 0x0 SWAP1 SLOAD SWAP1 PUSH2 0x100 EXP SWAP1 DIV PUSH20 0xFFFFFFFFFFFFFFFFFFFFFFFFFFFFFFFFFFFFFFFF AND DUP2 JUMP JUMPDEST PUSH1 0xFF PUSH1 0x20 MSTORE DUP1 PUSH1 0x0 MSTORE PUSH1 0x40 PUSH1 0x0 KECCAK256 PUSH1 0x0 SWAP2 POP SLOAD SWAP1 PUSH2 0x100 EXP SWAP1 DIV PUSH1 0xFF AND DUP2 JUMP JUMPDEST PUSH2 0x36B0 DUP4 DUP4 DUP4 PUSH1 0x40 MLOAD DUP1 PUSH1 0x20 ADD PUSH1 0x40 MSTORE DUP1 PUSH1 0x0 DUP2 MSTORE POP PUSH2 0x5C71 JUMP JUMPDEST POP POP POP JUMP JUMPDEST PUSH2 0x36C9 PUSH8 0x3C956B48F70D0FAA PUSH1 0xC0 SHL PUSH2 0x6EEE JUMP JUMPDEST PUSH2 0x36D1 PUSH2 0x6EF1 JUMP JUMPDEST PUSH2 0x36E5 PUSH8 0x3E61469EDC3D3E4 PUSH1 0xC0 SHL PUSH2 0x6EEE JUMP JUMPDEST PUSH2 0x36F9 PUSH8 0xFD085BABA79F9612 PUSH1 0xC0 SHL PUSH2 0x6EEE JUMP JUMPDEST PUSH2 0x370D PUSH8 0x908FC2D9EEEF5C5E PUSH1 0xC0 SHL PUSH2 0x6EEE JUMP JUMPDEST PUSH2 0x3721 PUSH8 0xF7F4CEC91C3EA46 PUSH1 0xC0 SHL PUSH2 0x6EEE JUMP JUMPDEST PUSH1 0x0 JUMPDEST DUP4 DUP4 SWAP1 POP DUP2 LT ISZERO PUSH2 0x37D5 JUMPI PUSH2 0x3743 PUSH8 0xF832658138A4E9B3 PUSH1 0xC0 SHL PUSH2 0x6EEE JUMP JUMPDEST DUP2 PUSH2 0x102 PUSH1 0x0 DUP7 DUP7 DUP6 DUP2 DUP2 LT PUSH2 0x375C JUMPI PUSH2 0x375B PUSH2 0x9238 JUMP JUMPDEST JUMPDEST SWAP1 POP PUSH1 0x20 MUL ADD PUSH1 0x20 DUP2 ADD SWAP1 PUSH2 0x3771 SWAP2 SWAP1 PUSH2 0x8AAE JUMP JUMPDEST PUSH20 0xFFFFFFFFFFFFFFFFFFFFFFFFFFFFFFFFFFFFFFFF AND PUSH20 0xFFFFFFFFFFFFFFFFFFFFFFFFFFFFFFFFFFFFFFFF AND DUP2 MSTORE PUSH1 0x20 ADD SWAP1 DUP2 MSTORE PUSH1 0x20 ADD PUSH1 0x0 KECCAK256 PUSH1 0x0 PUSH2 0x100 EXP DUP2 SLOAD DUP2 PUSH1 0xFF MUL NOT AND SWAP1 DUP4 ISZERO ISZERO MUL OR SWAP1 SSTORE POP DUP1 DUP1 PUSH2 0x37CD SWAP1 PUSH2 0x9296 JUMP JUMPDEST SWAP2 POP POP PUSH2 0x3724 JUMP JUMPDEST POP PUSH2 0x37EA PUSH8 0xBFB0AF0E4E02EF49 PUSH1 0xC0 SHL PUSH2 0x6EEE JUMP JUMPDEST PUSH2 0x37FE PUSH8 0xC4EAAE399132A493 PUSH1 0xC0 SHL PUSH2 0x6EEE JUMP JUMPDEST PUSH32 0x74182BAF39A64F81A9DFD5C4224B63AF9FE2D0C8396BBCF57743387418379E1 DUP4 DUP4 DUP4 PUSH1 0x40 MLOAD PUSH2 0x3831 SWAP4 SWAP3 SWAP2 SWAP1 PUSH2 0x9FB4 JUMP JUMPDEST PUSH1 0x40 MLOAD DUP1 SWAP2 SUB SWAP1 LOG1 POP POP POP JUMP JUMPDEST PUSH2 0x3852 PUSH8 0xED4BF07EF8B47C9B PUSH1 0xC0 SHL PUSH2 0x6EEE JUMP JUMPDEST PUSH2 0x385A PUSH2 0x6EF1 JUMP JUMPDEST PUSH2 0x386E PUSH8 0x1DB24582F49FCACD PUSH1 0xC0 SHL PUSH2 0x6EEE JUMP JUMPDEST PUSH2 0x3882 PUSH8 0xF690A090D1CAAA78 PUSH1 0xC0 SHL PUSH2 0x6EEE JUMP JUMPDEST PUSH2 0x3896 PUSH8 0x7F2A1A4322DC96A9 PUSH1 0xC0 SHL PUSH2 0x6EEE JUMP JUMPDEST PUSH2 0x38AA PUSH8 0xB670C2AEA494E9B3 PUSH1 0xC0 SHL PUSH2 0x6EEE JUMP JUMPDEST PUSH1 0x0 JUMPDEST DUP9 DUP9 SWAP1 POP DUP2 LT ISZERO PUSH2 0x3A97 JUMPI PUSH2 0x38CC PUSH8 0xE56834A92BD93404 PUSH1 0xC0 SHL PUSH2 0x6EEE JUMP JUMPDEST DUP9 DUP9 DUP3 DUP2 DUP2 LT PUSH2 0x38DF JUMPI PUSH2 0x38DE PUSH2 0x9238 JUMP JUMPDEST JUMPDEST SWAP1 POP PUSH1 0x20 MUL ADD CALLDATALOAD PUSH2 0x109 PUSH1 0x0 DUP13 DUP2 MSTORE PUSH1 0x20 ADD SWAP1 DUP2 MSTORE PUSH1 0x20 ADD PUSH1 0x0 KECCAK256 PUSH1 0x0 DUP12 DUP12 DUP6 DUP2 DUP2 LT PUSH2 0x390F JUMPI PUSH2 0x390E PUSH2 0x9238 JUMP JUMPDEST JUMPDEST SWAP1 POP PUSH1 0x20 MUL ADD CALLDATALOAD DUP2 MSTORE PUSH1 0x20 ADD SWAP1 DUP2 MSTORE PUSH1 0x20 ADD PUSH1 0x0 KECCAK256 PUSH1 0x0 ADD DUP2 SWAP1 SSTORE POP PUSH2 0x393F PUSH8 0xFDF9AD3562761E1 PUSH1 0xC0 SHL PUSH2 0x6EEE JUMP JUMPDEST DUP7 DUP7 DUP3 DUP2 DUP2 LT PUSH2 0x3952 JUMPI PUSH2 0x3951 PUSH2 0x9238 JUMP JUMPDEST JUMPDEST SWAP1 POP PUSH1 0x20 MUL ADD CALLDATALOAD PUSH2 0x109 PUSH1 0x0 DUP13 DUP2 MSTORE PUSH1 0x20 ADD SWAP1 DUP2 MSTORE PUSH1 0x20 ADD PUSH1 0x0 KECCAK256 PUSH1 0x0 DUP12 DUP12 DUP6 DUP2 DUP2 LT PUSH2 0x3982 JUMPI PUSH2 0x3981 PUSH2 0x9238 JUMP JUMPDEST JUMPDEST SWAP1 POP PUSH1 0x20 MUL ADD CALLDATALOAD DUP2 MSTORE PUSH1 0x20 ADD SWAP1 DUP2 MSTORE PUSH1 0x20 ADD PUSH1 0x0 KECCAK256 PUSH1 0x5 ADD DUP2 SWAP1 SSTORE POP PUSH2 0x39B2 PUSH8 0x327040992019F6F4 PUSH1 0xC0 SHL PUSH2 0x6EEE JUMP JUMPDEST DUP5 DUP5 DUP3 DUP2 DUP2 LT PUSH2 0x39C5 JUMPI PUSH2 0x39C4 PUSH2 0x9238 JUMP JUMPDEST JUMPDEST SWAP1 POP PUSH1 0x20 MUL ADD CALLDATALOAD PUSH2 0x109 PUSH1 0x0 DUP13 DUP2 MSTORE PUSH1 0x20 ADD SWAP1 DUP2 MSTORE PUSH1 0x20 ADD PUSH1 0x0 KECCAK256 PUSH1 0x0 DUP12 DUP12 DUP6 DUP2 DUP2 LT PUSH2 0x39F5 JUMPI PUSH2 0x39F4 PUSH2 0x9238 JUMP JUMPDEST JUMPDEST SWAP1 POP PUSH1 0x20 MUL ADD CALLDATALOAD DUP2 MSTORE PUSH1 0x20 ADD SWAP1 DUP2 MSTORE PUSH1 0x20 ADD PUSH1 0x0 KECCAK256 PUSH1 0x8 ADD DUP2 SWAP1 SSTORE POP PUSH2 0x3A25 PUSH8 0xCDCEA0038586FEF9 PUSH1 0xC0 SHL PUSH2 0x6EEE JUMP JUMPDEST DUP3 DUP3 DUP3 DUP2 DUP2 LT PUSH2 0x3A38 JUMPI PUSH2 0x3A37 PUSH2 0x9238 JUMP JUMPDEST JUMPDEST SWAP1 POP PUSH1 0x20 MUL ADD CALLDATALOAD PUSH2 0x109 PUSH1 0x0 DUP13 DUP2 MSTORE PUSH1 0x20 ADD SWAP1 DUP2 MSTORE PUSH1 0x20 ADD PUSH1 0x0 KECCAK256 PUSH1 0x0 DUP12 DUP12 DUP6 DUP2 DUP2 LT PUSH2 0x3A68 JUMPI PUSH2 0x3A67 PUSH2 0x9238 JUMP JUMPDEST JUMPDEST SWAP1 POP PUSH1 0x20 MUL ADD CALLDATALOAD DUP2 MSTORE PUSH1 0x20 ADD SWAP1 DUP2 MSTORE PUSH1 0x20 ADD PUSH1 0x0 KECCAK256 PUSH1 0x7 ADD DUP2 SWAP1 SSTORE POP DUP1 DUP1 PUSH2 0x3A8F SWAP1 PUSH2 0x9296 JUMP JUMPDEST SWAP2 POP POP PUSH2 0x38AD JUMP JUMPDEST POP POP POP POP POP POP POP POP POP POP JUMP JUMPDEST PUSH1 0x0 DUP1 PUSH2 0x3AAF DUP4 PUSH2 0x78D8 JUMP JUMPDEST SWAP1 POP PUSH1 0x0 PUSH20 0xFFFFFFFFFFFFFFFFFFFFFFFFFFFFFFFFFFFFFFFF AND DUP2 PUSH20 0xFFFFFFFFFFFFFFFFFFFFFFFFFFFFFFFFFFFFFFFF AND SUB PUSH2 0x3B20 JUMPI PUSH1 0x40 MLOAD PUSH32 0x8C379A000000000000000000000000000000000000000000000000000000000 DUP2 MSTORE PUSH1 0x4 ADD PUSH2 0x3B17 SWAP1 PUSH2 0xA282 JUMP JUMPDEST PUSH1 0x40 MLOAD DUP1 SWAP2 SUB SWAP1 REVERT JUMPDEST DUP1 SWAP2 POP POP SWAP2 SWAP1 POP JUMP JUMPDEST PUSH2 0x3B3D PUSH8 0x12BBFD4D6D85AAB2 PUSH1 0xC0 SHL PUSH2 0x6EEE JUMP JUMPDEST PUSH2 0x3B51 PUSH8 0xE3950B4C981D84E PUSH1 0xC0 SHL PUSH2 0x6EEE JUMP JUMPDEST PUSH2 0x3B65 PUSH8 0x3E2E6440212DCA2A PUSH1 0xC0 SHL PUSH2 0x6EEE JUMP JUMPDEST PUSH2 0x3B79 PUSH8 0x6E963D20C490B101 PUSH1 0xC0 SHL PUSH2 0x6EEE JUMP JUMPDEST PUSH1 0xFF PUSH1 0x0 DUP3 DUP2 MSTORE PUSH1 0x20 ADD SWAP1 DUP2 MSTORE PUSH1 0x20 ADD PUSH1 0x0 KECCAK256 PUSH1 0x0 SWAP1 SLOAD SWAP1 PUSH2 0x100 EXP SWAP1 DIV PUSH1 0xFF AND DUP1 ISZERO PUSH2 0x3BD1 JUMPI POP PUSH1 0xFE PUSH1 0x0 DUP3 DUP2 MSTORE PUSH1 0x20 ADD SWAP1 DUP2 MSTORE PUSH1 0x20 ADD PUSH1 0x0 KECCAK256 PUSH1 0x0 ADD SLOAD PUSH1 0xFE PUSH1 0x0 DUP4 DUP2 MSTORE PUSH1 0x20 ADD SWAP1 DUP2 MSTORE PUSH1 0x20 ADD PUSH1 0x0 KECCAK256 PUSH1 0x1 ADD SLOAD LT JUMPDEST DUP1 ISZERO PUSH2 0x3C20 JUMPI POP PUSH1 0x1 DUP2 EQ DUP1 ISZERO PUSH2 0x3BF8 JUMPI POP PUSH2 0x3BF7 PUSH8 0xD356D4F3ECF3C85 PUSH1 0xC0 SHL PUSH2 0x71EE JUMP JUMPDEST JUMPDEST DUP1 PUSH2 0x3C1F JUMPI POP PUSH1 0x2 DUP2 EQ DUP1 ISZERO PUSH2 0x3C1E JUMPI POP PUSH2 0x3C1D PUSH8 0xB6FE8C410644E15 PUSH1 0xC0 SHL PUSH2 0x71EE JUMP JUMPDEST JUMPDEST JUMPDEST JUMPDEST PUSH2 0x3C5F JUMPI PUSH1 0x40 MLOAD PUSH32 0x8C379A000000000000000000000000000000000000000000000000000000000 DUP2 MSTORE PUSH1 0x4 ADD PUSH2 0x3C56 SWAP1 PUSH2 0x9BE6 JUMP JUMPDEST PUSH1 0x40 MLOAD DUP1 SWAP2 SUB SWAP1 REVERT JUMPDEST PUSH2 0x3C73 PUSH8 0xB62A10A4FBC1603F PUSH1 0xC0 SHL PUSH2 0x6EEE JUMP JUMPDEST PUSH2 0x3C87 PUSH8 0xBE63DA32CF630068 PUSH1 0xC0 SHL PUSH2 0x6EEE JUMP JUMPDEST PUSH2 0x3C9B PUSH8 0xD582EC5D13FD7AC2 PUSH1 0xC0 SHL PUSH2 0x6EEE JUMP JUMPDEST PUSH1 0x1 DUP2 SUB PUSH2 0x3E06 JUMPI PUSH2 0x3CB7 PUSH8 0xC69353DDC9498C85 PUSH1 0xC0 SHL PUSH2 0x6EEE JUMP JUMPDEST PUSH2 0x3CCB PUSH8 0x91DF62C93424E393 PUSH1 0xC0 SHL PUSH2 0x6EEE JUMP JUMPDEST PUSH2 0x3CDF PUSH8 0x8029F1520FBD7ECD PUSH1 0xC0 SHL PUSH2 0x6EEE JUMP JUMPDEST PUSH2 0x3CF3 PUSH8 0xB170A015440653C8 PUSH1 0xC0 SHL PUSH2 0x6EEE JUMP JUMPDEST PUSH2 0x105 PUSH1 0x0 CALLER PUSH20 0xFFFFFFFFFFFFFFFFFFFFFFFFFFFFFFFFFFFFFFFF AND PUSH20 0xFFFFFFFFFFFFFFFFFFFFFFFFFFFFFFFFFFFFFFFF AND DUP2 MSTORE PUSH1 0x20 ADD SWAP1 DUP2 MSTORE PUSH1 0x20 ADD PUSH1 0x0 KECCAK256 PUSH1 0x0 SWAP1 SLOAD SWAP1 PUSH2 0x100 EXP SWAP1 DIV PUSH1 0xFF AND PUSH2 0x3D80 JUMPI PUSH1 0x40 MLOAD PUSH32 0x8C379A000000000000000000000000000000000000000000000000000000000 DUP2 MSTORE PUSH1 0x4 ADD PUSH2 0x3D77 SWAP1 PUSH2 0xA1A4 JUMP JUMPDEST PUSH1 0x40 MLOAD DUP1 SWAP2 SUB SWAP1 REVERT JUMPDEST PUSH2 0x3D94 PUSH8 0xB94BADE82F9504EB PUSH1 0xC0 SHL PUSH2 0x6EEE JUMP JUMPDEST PUSH2 0x3DA8 PUSH8 0x8A8DD82D84B4E994 PUSH1 0xC0 SHL PUSH2 0x6EEE JUMP JUMPDEST PUSH1 0x0 PUSH2 0x105 PUSH1 0x0 CALLER PUSH20 0xFFFFFFFFFFFFFFFFFFFFFFFFFFFFFFFFFFFFFFFF AND PUSH20 0xFFFFFFFFFFFFFFFFFFFFFFFFFFFFFFFFFFFFFFFF AND DUP2 MSTORE PUSH1 0x20 ADD SWAP1 DUP2 MSTORE PUSH1 0x20 ADD PUSH1 0x0 KECCAK256 PUSH1 0x0 PUSH2 0x100 EXP DUP2 SLOAD DUP2 PUSH1 0xFF MUL NOT AND SWAP1 DUP4 ISZERO ISZERO MUL OR SWAP1 SSTORE POP PUSH2 0x3E1B JUMP JUMPDEST PUSH2 0x3E1A PUSH8 0x9F0EF110B59B9AAC PUSH1 0xC0 SHL PUSH2 0x6EEE JUMP JUMPDEST JUMPDEST PUSH2 0x3E2F PUSH8 0x713C1566CE58958E PUSH1 0xC0 SHL PUSH2 0x6EEE JUMP JUMPDEST PUSH2 0x3E43 PUSH8 0x42FCD0E76EA21D04 PUSH1 0xC0 SHL PUSH2 0x6EEE JUMP JUMPDEST PUSH1 0x2 DUP2 SUB PUSH2 0x3FAE JUMPI PUSH2 0x3E5F PUSH8 0x11B5ED102022D6E PUSH1 0xC0 SHL PUSH2 0x6EEE JUMP JUMPDEST PUSH2 0x3E73 PUSH8 0xA971CF83971FCE5F PUSH1 0xC0 SHL PUSH2 0x6EEE JUMP JUMPDEST PUSH2 0x3E87 PUSH8 0x71032487990B197C PUSH1 0xC0 SHL PUSH2 0x6EEE JUMP JUMPDEST PUSH2 0x3E9B PUSH8 0xAF5E235229FC0AED PUSH1 0xC0 SHL PUSH2 0x6EEE JUMP JUMPDEST PUSH2 0x107 PUSH1 0x0 CALLER PUSH20 0xFFFFFFFFFFFFFFFFFFFFFFFFFFFFFFFFFFFFFFFF AND PUSH20 0xFFFFFFFFFFFFFFFFFFFFFFFFFFFFFFFFFFFFFFFF AND DUP2 MSTORE PUSH1 0x20 ADD SWAP1 DUP2 MSTORE PUSH1 0x20 ADD PUSH1 0x0 KECCAK256 PUSH1 0x0 SWAP1 SLOAD SWAP1 PUSH2 0x100 EXP SWAP1 DIV PUSH1 0xFF AND PUSH2 0x3F28 JUMPI PUSH1 0x40 MLOAD PUSH32 0x8C379A000000000000000000000000000000000000000000000000000000000 DUP2 MSTORE PUSH1 0x4 ADD PUSH2 0x3F1F SWAP1 PUSH2 0xA1A4 JUMP JUMPDEST PUSH1 0x40 MLOAD DUP1 SWAP2 SUB SWAP1 REVERT JUMPDEST PUSH2 0x3F3C PUSH8 0xD0FED0D84053CBC5 PUSH1 0xC0 SHL PUSH2 0x6EEE JUMP JUMPDEST PUSH2 0x3F50 PUSH8 0x7F509451305A1915 PUSH1 0xC0 SHL PUSH2 0x6EEE JUMP JUMPDEST PUSH1 0x0 PUSH2 0x107 PUSH1 0x0 CALLER PUSH20 0xFFFFFFFFFFFFFFFFFFFFFFFFFFFFFFFFFFFFFFFF AND PUSH20 0xFFFFFFFFFFFFFFFFFFFFFFFFFFFFFFFFFFFFFFFF AND DUP2 MSTORE PUSH1 0x20 ADD SWAP1 DUP2 MSTORE PUSH1 0x20 ADD PUSH1 0x0 KECCAK256 PUSH1 0x0 PUSH2 0x100 EXP DUP2 SLOAD DUP2 PUSH1 0xFF MUL NOT AND SWAP1 DUP4 ISZERO ISZERO MUL OR SWAP1 SSTORE POP PUSH2 0x3FC3 JUMP JUMPDEST PUSH2 0x3FC2 PUSH8 0x63A96D62FF9868F2 PUSH1 0xC0 SHL PUSH2 0x6EEE JUMP JUMPDEST JUMPDEST PUSH2 0x3FD7 PUSH8 0x85CA890C57AC9C08 PUSH1 0xC0 SHL PUSH2 0x6EEE JUMP JUMPDEST PUSH1 0x1 PUSH1 0xFE PUSH1 0x0 DUP4 DUP2 MSTORE PUSH1 0x20 ADD SWAP1 DUP2 MSTORE PUSH1 0x20 ADD PUSH1 0x0 KECCAK256 PUSH1 0x1 ADD PUSH1 0x0 DUP3 DUP3 SLOAD PUSH2 0x3FFE SWAP2 SWAP1 PUSH2 0x9456 JUMP JUMPDEST SWAP3 POP POP DUP2 SWAP1 SSTORE POP PUSH2 0x4019 PUSH8 0xCA6FD0D875D8262E PUSH1 0xC0 SHL PUSH2 0x6EEE JUMP JUMPDEST PUSH1 0x1 PUSH1 0xFB PUSH1 0x0 DUP3 DUP3 SLOAD PUSH2 0x402C SWAP2 SWAP1 PUSH2 0x9456 JUMP JUMPDEST SWAP3 POP POP DUP2 SWAP1 SSTORE POP PUSH2 0x4047 PUSH8 0xEFB5CD97EF6CCB97 PUSH1 0xC0 SHL PUSH2 0x6EEE JUMP JUMPDEST PUSH2 0x405B PUSH8 0x42A4B1E5C0B5BCEA PUSH1 0xC0 SHL PUSH2 0x6EEE JUMP JUMPDEST PUSH2 0x4067 CALLER PUSH1 0xFB SLOAD PUSH2 0x732D JUMP JUMPDEST PUSH2 0x407B PUSH8 0x48D1814212C2955A PUSH1 0xC0 SHL PUSH2 0x6EEE JUMP JUMPDEST PUSH2 0x408F PUSH8 0xB8046FDC5AA7D863 PUSH1 0xC0 SHL PUSH2 0x6EEE JUMP JUMPDEST PUSH32 0x6B31E785E40EA595C823D38323157461D86F76A74C76FAA41190DE60912863E7 CALLER PUSH1 0xFB SLOAD DUP4 PUSH1 0x40 MLOAD PUSH2 0x40C4 SWAP4 SWAP3 SWAP2 SWAP1 PUSH2 0xA2A2 JUMP JUMPDEST PUSH1 0x40 MLOAD DUP1 SWAP2 SUB SWAP1 LOG1 POP JUMP JUMPDEST PUSH2 0x105 PUSH1 0x20 MSTORE DUP1 PUSH1 0x0 MSTORE PUSH1 0x40 PUSH1 0x0 KECCAK256 PUSH1 0x0 SWAP2 POP SLOAD SWAP1 PUSH2 0x100 EXP SWAP1 DIV PUSH1 0xFF AND DUP2 JUMP JUMPDEST PUSH2 0x10A PUSH1 0x20 MSTORE DUP1 PUSH1 0x0 MSTORE PUSH1 0x40 PUSH1 0x0 KECCAK256 PUSH1 0x0 SWAP2 POP SWAP1 POP DUP1 SLOAD PUSH2 0x4110 SWAP1 PUSH2 0x95B7 JUMP JUMPDEST DUP1 PUSH1 0x1F ADD PUSH1 0x20 DUP1 SWAP2 DIV MUL PUSH1 0x20 ADD PUSH1 0x40 MLOAD SWAP1 DUP2 ADD PUSH1 0x40 MSTORE DUP1 SWAP3 SWAP2 SWAP1 DUP2 DUP2 MSTORE PUSH1 0x20 ADD DUP3 DUP1 SLOAD PUSH2 0x413C SWAP1 PUSH2 0x95B7 JUMP JUMPDEST DUP1 ISZERO PUSH2 0x4189 JUMPI DUP1 PUSH1 0x1F LT PUSH2 0x415E JUMPI PUSH2 0x100 DUP1 DUP4 SLOAD DIV MUL DUP4 MSTORE SWAP2 PUSH1 0x20 ADD SWAP2 PUSH2 0x4189 JUMP JUMPDEST DUP3 ADD SWAP2 SWAP1 PUSH1 0x0 MSTORE PUSH1 0x20 PUSH1 0x0 KECCAK256 SWAP1 JUMPDEST DUP2 SLOAD DUP2 MSTORE SWAP1 PUSH1 0x1 ADD SWAP1 PUSH1 0x20 ADD DUP1 DUP4 GT PUSH2 0x416C JUMPI DUP3 SWAP1 SUB PUSH1 0x1F AND DUP3 ADD SWAP2 JUMPDEST POP POP POP POP POP DUP2 JUMP JUMPDEST PUSH2 0x108 PUSH1 0x20 MSTORE DUP1 PUSH1 0x0 MSTORE PUSH1 0x40 PUSH1 0x0 KECCAK256 PUSH1 0x0 SWAP2 POP SLOAD SWAP1 PUSH2 0x100 EXP SWAP1 DIV PUSH1 0xFF AND DUP2 JUMP JUMPDEST PUSH2 0x101 PUSH1 0x0 SWAP1 SLOAD SWAP1 PUSH2 0x100 EXP SWAP1 DIV PUSH20 0xFFFFFFFFFFFFFFFFFFFFFFFFFFFFFFFFFFFFFFFF AND DUP2 JUMP JUMPDEST PUSH1 0x0 DUP1 PUSH20 0xFFFFFFFFFFFFFFFFFFFFFFFFFFFFFFFFFFFFFFFF AND DUP3 PUSH20 0xFFFFFFFFFFFFFFFFFFFFFFFFFFFFFFFFFFFFFFFF AND SUB PUSH2 0x4249 JUMPI PUSH1 0x40 MLOAD PUSH32 0x8C379A000000000000000000000000000000000000000000000000000000000 DUP2 MSTORE PUSH1 0x4 ADD PUSH2 0x4240 SWAP1 PUSH2 0xA34B JUMP JUMPDEST PUSH1 0x40 MLOAD DUP1 SWAP2 SUB SWAP1 REVERT JUMPDEST PUSH1 0x68 PUSH1 0x0 DUP4 PUSH20 0xFFFFFFFFFFFFFFFFFFFFFFFFFFFFFFFFFFFFFFFF AND PUSH20 0xFFFFFFFFFFFFFFFFFFFFFFFFFFFFFFFFFFFFFFFF AND DUP2 MSTORE PUSH1 0x20 ADD SWAP1 DUP2 MSTORE PUSH1 0x20 ADD PUSH1 0x0 KECCAK256 SLOAD SWAP1 POP SWAP2 SWAP1 POP JUMP JUMPDEST PUSH2 0x4298 PUSH2 0x6EF1 JUMP JUMPDEST PUSH2 0x42A2 PUSH1 0x0 PUSH2 0x7915 JUMP JUMPDEST JUMP JUMPDEST PUSH2 0x10E PUSH1 0x0 SWAP1 SLOAD SWAP1 PUSH2 0x100 EXP SWAP1 DIV PUSH20 0xFFFFFFFFFFFFFFFFFFFFFFFFFFFFFFFFFFFFFFFF AND DUP2 JUMP JUMPDEST PUSH2 0x42DF PUSH8 0x61A89911B8947F3D PUSH1 0xC0 SHL PUSH2 0x6EEE JUMP JUMPDEST PUSH2 0x42E7 PUSH2 0x6EF1 JUMP JUMPDEST PUSH2 0x42FB PUSH8 0xAB41B1C3BF7EEF88 PUSH1 0xC0 SHL PUSH2 0x6EEE JUMP JUMPDEST PUSH2 0x430F PUSH8 0x209CF4E3411EAC78 PUSH1 0xC0 SHL PUSH2 0x6EEE JUMP JUMPDEST PUSH2 0x4323 PUSH8 0xC7DC22656EE70CD3 PUSH1 0xC0 SHL PUSH2 0x6EEE JUMP JUMPDEST PUSH2 0x4337 PUSH8 0xB8CE799C94BEF54 PUSH1 0xC0 SHL PUSH2 0x6EEE JUMP JUMPDEST PUSH1 0x0 JUMPDEST DUP7 DUP7 SWAP1 POP DUP2 LT ISZERO PUSH2 0x441A JUMPI PUSH2 0x4359 PUSH8 0xA7C0DDAB5E4776AE PUSH1 0xC0 SHL PUSH2 0x6EEE JUMP JUMPDEST DUP5 DUP5 DUP3 DUP2 DUP2 LT PUSH2 0x436C JUMPI PUSH2 0x436B PUSH2 0x9238 JUMP JUMPDEST JUMPDEST SWAP1 POP PUSH1 0x20 MUL ADD CALLDATALOAD PUSH1 0xFE PUSH1 0x0 DUP10 DUP10 DUP6 DUP2 DUP2 LT PUSH2 0x438A JUMPI PUSH2 0x4389 PUSH2 0x9238 JUMP JUMPDEST JUMPDEST SWAP1 POP PUSH1 0x20 MUL ADD CALLDATALOAD DUP2 MSTORE PUSH1 0x20 ADD SWAP1 DUP2 MSTORE PUSH1 0x20 ADD PUSH1 0x0 KECCAK256 PUSH1 0x2 ADD DUP2 SWAP1 SSTORE POP PUSH2 0x43BA PUSH8 0x304A7BD072BE0B93 PUSH1 0xC0 SHL PUSH2 0x6EEE JUMP JUMPDEST DUP3 DUP3 DUP3 DUP2 DUP2 LT PUSH2 0x43CD JUMPI PUSH2 0x43CC PUSH2 0x9238 JUMP JUMPDEST JUMPDEST SWAP1 POP PUSH1 0x20 MUL ADD CALLDATALOAD PUSH1 0xFE PUSH1 0x0 DUP10 DUP10 DUP6 DUP2 DUP2 LT PUSH2 0x43EB JUMPI PUSH2 0x43EA PUSH2 0x9238 JUMP JUMPDEST JUMPDEST SWAP1 POP PUSH1 0x20 MUL ADD CALLDATALOAD DUP2 MSTORE PUSH1 0x20 ADD SWAP1 DUP2 MSTORE PUSH1 0x20 ADD PUSH1 0x0 KECCAK256 PUSH1 0x0 ADD DUP2 SWAP1 SSTORE POP DUP1 DUP1 PUSH2 0x4412 SWAP1 PUSH2 0x9296 JUMP JUMPDEST SWAP2 POP POP PUSH2 0x433A JUMP JUMPDEST POP POP POP POP POP POP POP JUMP JUMPDEST PUSH2 0x4437 PUSH8 0x591DFA3058F118C7 PUSH1 0xC0 SHL PUSH2 0x6EEE JUMP JUMPDEST PUSH1 0x0 DUP1 PUSH1 0x1 SWAP1 SLOAD SWAP1 PUSH2 0x100 EXP SWAP1 DIV PUSH1 0xFF AND ISZERO SWAP1 POP DUP1 DUP1 ISZERO PUSH2 0x4468 JUMPI POP PUSH1 0x1 PUSH1 0x0 DUP1 SLOAD SWAP1 PUSH2 0x100 EXP SWAP1 DIV PUSH1 0xFF AND PUSH1 0xFF AND LT JUMPDEST DUP1 PUSH2 0x4495 JUMPI POP PUSH2 0x4477 ADDRESS PUSH2 0x79DB JUMP JUMPDEST ISZERO DUP1 ISZERO PUSH2 0x4494 JUMPI POP PUSH1 0x1 PUSH1 0x0 DUP1 SLOAD SWAP1 PUSH2 0x100 EXP SWAP1 DIV PUSH1 0xFF AND PUSH1 0xFF AND EQ JUMPDEST JUMPDEST PUSH2 0x44D4 JUMPI PUSH1 0x40 MLOAD PUSH32 0x8C379A000000000000000000000000000000000000000000000000000000000 DUP2 MSTORE PUSH1 0x4 ADD PUSH2 0x44CB SWAP1 PUSH2 0xA3DD JUMP JUMPDEST PUSH1 0x40 MLOAD DUP1 SWAP2 SUB SWAP1 REVERT JUMPDEST PUSH1 0x1 PUSH1 0x0 DUP1 PUSH2 0x100 EXP DUP2 SLOAD DUP2 PUSH1 0xFF MUL NOT AND SWAP1 DUP4 PUSH1 0xFF AND MUL OR SWAP1 SSTORE POP DUP1 ISZERO PUSH2 0x4511 JUMPI PUSH1 0x1 PUSH1 0x0 PUSH1 0x1 PUSH2 0x100 EXP DUP2 SLOAD DUP2 PUSH1 0xFF MUL NOT AND SWAP1 DUP4 ISZERO ISZERO MUL OR SWAP1 SSTORE POP JUMPDEST PUSH2 0x4525 PUSH8 0xA88BB56A07F48313 PUSH1 0xC0 SHL PUSH2 0x6EEE JUMP JUMPDEST PUSH2 0x4539 PUSH8 0xDF920A41F9E5EBD9 PUSH1 0xC0 SHL PUSH2 0x6EEE JUMP JUMPDEST PUSH2 0x454D PUSH8 0xF1489CB10D0991E7 PUSH1 0xC0 SHL PUSH2 0x6EEE JUMP JUMPDEST PUSH2 0x4561 PUSH8 0xE76D1286E798F63 PUSH1 0xC0 SHL PUSH2 0x6EEE JUMP JUMPDEST PUSH2 0x45D5 PUSH1 0x40 MLOAD DUP1 PUSH1 0x40 ADD PUSH1 0x40 MSTORE DUP1 PUSH1 0xF DUP2 MSTORE PUSH1 0x20 ADD PUSH32 0x416C6C6F79205370616365204152460000000000000000000000000000000000 DUP2 MSTORE POP PUSH1 0x40 MLOAD DUP1 PUSH1 0x40 ADD PUSH1 0x40 MSTORE DUP1 PUSH1 0x3 DUP2 MSTORE PUSH1 0x20 ADD PUSH32 0x4152460000000000000000000000000000000000000000000000000000000000 DUP2 MSTORE POP PUSH2 0x79FE JUMP JUMPDEST PUSH2 0x45E9 PUSH8 0x7AED3433155F03F1 PUSH1 0xC0 SHL PUSH2 0x6EEE JUMP JUMPDEST PUSH2 0x45FD PUSH8 0xE04FEE68864FEF84 PUSH1 0xC0 SHL PUSH2 0x6EEE JUMP JUMPDEST PUSH2 0x4605 PUSH2 0x7A5B JUMP JUMPDEST PUSH2 0x4619 PUSH8 0xD16CC37B5E770695 PUSH1 0xC0 SHL PUSH2 0x6EEE JUMP JUMPDEST PUSH2 0x462D PUSH8 0x1D1EC73CAB54F77 PUSH1 0xC0 SHL PUSH2 0x6EEE JUMP JUMPDEST PUSH2 0x4635 PUSH2 0x7AB4 JUMP JUMPDEST PUSH2 0x4649 PUSH8 0xDB38D001CBFAA2EA PUSH1 0xC0 SHL PUSH2 0x6EEE JUMP JUMPDEST PUSH1 0x40 MLOAD DUP1 PUSH1 0x60 ADD PUSH1 0x40 MSTORE DUP1 PUSH1 0x28 DUP2 MSTORE PUSH1 0x20 ADD PUSH2 0xAF3A PUSH1 0x28 SWAP2 CODECOPY PUSH1 0xFC SWAP1 DUP2 PUSH2 0x4670 SWAP2 SWAP1 PUSH2 0x978A JUMP JUMPDEST POP PUSH2 0x4685 PUSH8 0xFB51A3B38DA0E50 PUSH1 0xC0 SHL PUSH2 0x6EEE JUMP JUMPDEST PUSH1 0x40 MLOAD DUP1 PUSH1 0x40 ADD PUSH1 0x40 MSTORE DUP1 PUSH1 0xF DUP2 MSTORE PUSH1 0x20 ADD PUSH32 0x2D746F6B656E2D7572692E6A736F6E0000000000000000000000000000000000 DUP2 MSTORE POP PUSH1 0xFD SWAP1 DUP2 PUSH2 0x46C9 SWAP2 SWAP1 PUSH2 0x978A JUMP JUMPDEST POP PUSH2 0x46DE PUSH8 0xA9F72BBC75D639B8 PUSH1 0xC0 SHL PUSH2 0x6EEE JUMP JUMPDEST PUSH1 0x0 PUSH1 0xFB DUP2 SWAP1 SSTORE POP PUSH2 0x46FA PUSH8 0x27608A1E03CC0223 PUSH1 0xC0 SHL PUSH2 0x6EEE JUMP JUMPDEST PUSH2 0x470E PUSH8 0xBE28B4F2B9CE161B PUSH1 0xC0 SHL PUSH2 0x6EEE JUMP JUMPDEST PUSH1 0x0 PUSH1 0x40 MLOAD DUP1 PUSH2 0x100 ADD PUSH1 0x40 MSTORE DUP1 PUSH2 0x221 PUSH2 0xFFFF AND DUP2 MSTORE PUSH1 0x20 ADD PUSH1 0x65 PUSH2 0xFFFF AND DUP2 MSTORE PUSH1 0x20 ADD PUSH1 0xFA PUSH2 0xFFFF AND DUP2 MSTORE PUSH1 0x20 ADD PUSH1 0xFA PUSH2 0xFFFF AND DUP2 MSTORE PUSH1 0x20 ADD PUSH2 0x7D5 PUSH2 0xFFFF AND DUP2 MSTORE PUSH1 0x20 ADD PUSH2 0x3EA PUSH2 0xFFFF AND DUP2 MSTORE PUSH1 0x20 ADD PUSH2 0x3E9 PUSH2 0xFFFF AND DUP2 MSTORE PUSH1 0x20 ADD PUSH2 0x191 PUSH2 0xFFFF AND DUP2 MSTORE POP SWAP1 POP PUSH2 0x478D PUSH8 0xD6132E33C62E24D6 PUSH1 0xC0 SHL PUSH2 0x6EEE JUMP JUMPDEST PUSH2 0x47A1 PUSH8 0x591559BE2698563B PUSH1 0xC0 SHL PUSH2 0x6EEE JUMP JUMPDEST PUSH1 0x0 PUSH1 0x40 MLOAD DUP1 PUSH2 0x100 ADD PUSH1 0x40 MSTORE DUP1 PUSH2 0x5E1 PUSH2 0xFFFF AND DUP2 MSTORE PUSH1 0x20 ADD PUSH2 0x1F9 PUSH2 0xFFFF AND DUP2 MSTORE PUSH1 0x20 ADD PUSH1 0x0 PUSH2 0xFFFF AND DUP2 MSTORE PUSH1 0x20 ADD PUSH1 0xFA PUSH2 0xFFFF AND DUP2 MSTORE PUSH1 0x20 ADD PUSH2 0x7D5 PUSH2 0xFFFF AND DUP2 MSTORE PUSH1 0x20 ADD PUSH2 0x7D4 PUSH2 0xFFFF AND DUP2 MSTORE PUSH1 0x20 ADD PUSH2 0x7D3 PUSH2 0xFFFF AND DUP2 MSTORE PUSH1 0x20 ADD PUSH2 0x7D3 PUSH2 0xFFFF AND DUP2 MSTORE POP SWAP1 POP PUSH2 0x4821 PUSH8 0x164A4A9F0F87A746 PUSH1 0xC0 SHL PUSH2 0x6EEE JUMP JUMPDEST PUSH2 0x4835 PUSH8 0xCA6DA0BA8FE550CF PUSH1 0xC0 SHL PUSH2 0x6EEE JUMP JUMPDEST PUSH1 0x0 JUMPDEST PUSH1 0x8 DUP2 LT ISZERO PUSH2 0x4939 JUMPI PUSH2 0x4855 PUSH8 0xCB47F3ABEAE72471 PUSH1 0xC0 SHL PUSH2 0x6EEE JUMP JUMPDEST PUSH2 0x4869 PUSH8 0xC74DBFF4312C024 PUSH1 0xC0 SHL PUSH2 0x6EEE JUMP JUMPDEST PUSH1 0x0 PUSH1 0x40 MLOAD DUP1 PUSH1 0x80 ADD PUSH1 0x40 MSTORE DUP1 DUP6 DUP5 PUSH1 0x8 DUP2 LT PUSH2 0x4889 JUMPI PUSH2 0x4888 PUSH2 0x9238 JUMP JUMPDEST JUMPDEST PUSH1 0x20 MUL ADD MLOAD PUSH2 0xFFFF AND DUP2 MSTORE PUSH1 0x20 ADD PUSH1 0x0 DUP2 MSTORE PUSH1 0x20 ADD DUP5 DUP5 PUSH1 0x8 DUP2 LT PUSH2 0x48B1 JUMPI PUSH2 0x48B0 PUSH2 0x9238 JUMP JUMPDEST JUMPDEST PUSH1 0x20 MUL ADD MLOAD PUSH2 0xFFFF AND DUP2 MSTORE PUSH1 0x20 ADD PUSH1 0x0 DUP2 MSTORE POP SWAP1 POP PUSH2 0x48DA PUSH8 0x623A79B77BEF25E6 PUSH1 0xC0 SHL PUSH2 0x6EEE JUMP JUMPDEST DUP1 PUSH1 0xFE PUSH1 0x0 PUSH1 0x1 DUP6 PUSH2 0x48EC SWAP2 SWAP1 PUSH2 0x9456 JUMP JUMPDEST DUP2 MSTORE PUSH1 0x20 ADD SWAP1 DUP2 MSTORE PUSH1 0x20 ADD PUSH1 0x0 KECCAK256 PUSH1 0x0 DUP3 ADD MLOAD DUP2 PUSH1 0x0 ADD SSTORE PUSH1 0x20 DUP3 ADD MLOAD DUP2 PUSH1 0x1 ADD SSTORE PUSH1 0x40 DUP3 ADD MLOAD DUP2 PUSH1 0x2 ADD SSTORE PUSH1 0x60 DUP3 ADD MLOAD DUP2 PUSH1 0x3 ADD SSTORE SWAP1 POP POP POP DUP1 DUP1 PUSH2 0x4931 SWAP1 PUSH2 0x9296 JUMP JUMPDEST SWAP2 POP POP PUSH2 0x4838 JUMP JUMPDEST POP PUSH2 0x494E PUSH8 0x80E59ACE3BEE83BD PUSH1 0xC0 SHL PUSH2 0x6EEE JUMP JUMPDEST PUSH20 0xB8F76DDCBAD297A1526F984306732FC6014EB607 PUSH2 0x101 PUSH1 0x0 PUSH2 0x100 EXP DUP2 SLOAD DUP2 PUSH20 0xFFFFFFFFFFFFFFFFFFFFFFFFFFFFFFFFFFFFFFFF MUL NOT AND SWAP1 DUP4 PUSH20 0xFFFFFFFFFFFFFFFFFFFFFFFFFFFFFFFFFFFFFFFF AND MUL OR SWAP1 SSTORE POP PUSH2 0x49B8 PUSH8 0x7BC5F4BD2C3E9579 PUSH1 0xC0 SHL PUSH2 0x6EEE JUMP JUMPDEST PUSH20 0x7C0AA72DBD7058D0AEE8BF99391B827A3AF04878 PUSH2 0x10D PUSH1 0x0 PUSH2 0x100 EXP DUP2 SLOAD DUP2 PUSH20 0xFFFFFFFFFFFFFFFFFFFFFFFFFFFFFFFFFFFFFFFF MUL NOT AND SWAP1 DUP4 PUSH20 0xFFFFFFFFFFFFFFFFFFFFFFFFFFFFFFFFFFFFFFFF AND MUL OR SWAP1 SSTORE POP PUSH2 0x4A22 PUSH8 0xBF03C91BDDE69F73 PUSH1 0xC0 SHL PUSH2 0x6EEE JUMP JUMPDEST PUSH20 0x1662E113655EA1B7340420CC16FB0EC192B4367 PUSH2 0x100 PUSH1 0x0 PUSH2 0x100 EXP DUP2 SLOAD DUP2 PUSH20 0xFFFFFFFFFFFFFFFFFFFFFFFFFFFFFFFFFFFFFFFF MUL NOT AND SWAP1 DUP4 PUSH20 0xFFFFFFFFFFFFFFFFFFFFFFFFFFFFFFFFFFFFFFFF AND MUL OR SWAP1 SSTORE POP PUSH2 0x4A8C PUSH8 0x3387E21F8AF712F3 PUSH1 0xC0 SHL PUSH2 0x6EEE JUMP JUMPDEST PUSH20 0x25FC99EF8C2BE73C303F7E54A0C2DA423E48326B PUSH2 0x10E PUSH1 0x0 PUSH2 0x100 EXP DUP2 SLOAD DUP2 PUSH20 0xFFFFFFFFFFFFFFFFFFFFFFFFFFFFFFFFFFFFFFFF MUL NOT AND SWAP1 DUP4 PUSH20 0xFFFFFFFFFFFFFFFFFFFFFFFFFFFFFFFFFFFFFFFF AND MUL OR SWAP1 SSTORE POP POP POP DUP1 ISZERO PUSH2 0x4B3D JUMPI PUSH1 0x0 DUP1 PUSH1 0x1 PUSH2 0x100 EXP DUP2 SLOAD DUP2 PUSH1 0xFF MUL NOT AND SWAP1 DUP4 ISZERO ISZERO MUL OR SWAP1 SSTORE POP PUSH32 0x7F26B83FF96E1F2B6A682F133852F6798A09C465DA95921460CEFB3847402498 PUSH1 0x1 PUSH1 0x40 MLOAD PUSH2 0x4B34 SWAP2 SWAP1 PUSH2 0xA445 JUMP JUMPDEST PUSH1 0x40 MLOAD DUP1 SWAP2 SUB SWAP1 LOG1 JUMPDEST POP JUMP JUMPDEST PUSH1 0x0 PUSH1 0x97 PUSH1 0x0 SWAP1 SLOAD SWAP1 PUSH2 0x100 EXP SWAP1 DIV PUSH20 0xFFFFFFFFFFFFFFFFFFFFFFFFFFFFFFFFFFFFFFFF AND SWAP1 POP SWAP1 JUMP JUMPDEST PUSH2 0x106 PUSH1 0x20 MSTORE DUP1 PUSH1 0x0 MSTORE PUSH1 0x40 PUSH1 0x0 KECCAK256 PUSH1 0x0 SWAP2 POP SLOAD SWAP1 PUSH2 0x100 EXP SWAP1 DIV PUSH1 0xFF AND DUP2 JUMP JUMPDEST PUSH2 0x4B9F PUSH8 0x39B54AF754EA5417 PUSH1 0xC0 SHL PUSH2 0x6EEE JUMP JUMPDEST PUSH2 0x4BB3 PUSH8 0xD6C324A24C00738C PUSH1 0xC0 SHL PUSH2 0x6EEE JUMP JUMPDEST PUSH2 0x4BC7 PUSH8 0x5700A5BA4906DE8E PUSH1 0xC0 SHL PUSH2 0x6EEE JUMP JUMPDEST PUSH2 0x4BDB PUSH8 0x25D0A691C7D3AD66 PUSH1 0xC0 SHL PUSH2 0x6EEE JUMP JUMPDEST PUSH1 0xFF PUSH1 0x0 PUSH1 0x3 DUP2 MSTORE PUSH1 0x20 ADD SWAP1 DUP2 MSTORE PUSH1 0x20 ADD PUSH1 0x0 KECCAK256 PUSH1 0x0 SWAP1 SLOAD SWAP1 PUSH2 0x100 EXP SWAP1 DIV PUSH1 0xFF AND DUP1 ISZERO PUSH2 0x4C36 JUMPI POP PUSH1 0xFE PUSH1 0x0 PUSH1 0x3 DUP2 MSTORE PUSH1 0x20 ADD SWAP1 DUP2 MSTORE PUSH1 0x20 ADD PUSH1 0x0 KECCAK256 PUSH1 0x2 ADD SLOAD PUSH1 0xFE PUSH1 0x0 PUSH1 0x3 DUP2 MSTORE PUSH1 0x20 ADD SWAP1 DUP2 MSTORE PUSH1 0x20 ADD PUSH1 0x0 KECCAK256 PUSH1 0x3 ADD SLOAD LT JUMPDEST PUSH2 0x4C75 JUMPI PUSH1 0x40 MLOAD PUSH32 0x8C379A000000000000000000000000000000000000000000000000000000000 DUP2 MSTORE PUSH1 0x4 ADD PUSH2 0x4C6C SWAP1 PUSH2 0x9BE6 JUMP JUMPDEST PUSH1 0x40 MLOAD DUP1 SWAP2 SUB SWAP1 REVERT JUMPDEST PUSH2 0x4C89 PUSH8 0x35C4D3F8192D009B PUSH1 0xC0 SHL PUSH2 0x6EEE JUMP JUMPDEST PUSH2 0x4C9D PUSH8 0xF917F95A10F47310 PUSH1 0xC0 SHL PUSH2 0x6EEE JUMP JUMPDEST PUSH2 0x4CB1 PUSH8 0x8BCECBDF7813FE35 PUSH1 0xC0 SHL PUSH2 0x6EEE JUMP JUMPDEST PUSH2 0x4CC5 PUSH8 0xA2BCE9F61135FDD5 PUSH1 0xC0 SHL PUSH2 0x6EEE JUMP JUMPDEST PUSH2 0x103 PUSH1 0x0 CALLER PUSH20 0xFFFFFFFFFFFFFFFFFFFFFFFFFFFFFFFFFFFFFFFF AND PUSH20 0xFFFFFFFFFFFFFFFFFFFFFFFFFFFFFFFFFFFFFFFF AND DUP2 MSTORE PUSH1 0x20 ADD SWAP1 DUP2 MSTORE PUSH1 0x20 ADD PUSH1 0x0 KECCAK256 PUSH1 0x0 SWAP1 SLOAD SWAP1 PUSH2 0x100 EXP SWAP1 DIV PUSH1 0xFF AND PUSH2 0x4D52 JUMPI PUSH1 0x40 MLOAD PUSH32 0x8C379A000000000000000000000000000000000000000000000000000000000 DUP2 MSTORE PUSH1 0x4 ADD PUSH2 0x4D49 SWAP1 PUSH2 0xA1A4 JUMP JUMPDEST PUSH1 0x40 MLOAD DUP1 SWAP2 SUB SWAP1 REVERT JUMPDEST PUSH2 0x4D66 PUSH8 0x84449C86BA286DA5 PUSH1 0xC0 SHL PUSH2 0x6EEE JUMP JUMPDEST PUSH2 0x4D7A PUSH8 0xA7925301634B5A14 PUSH1 0xC0 SHL PUSH2 0x6EEE JUMP JUMPDEST PUSH1 0x0 PUSH2 0x103 PUSH1 0x0 CALLER PUSH20 0xFFFFFFFFFFFFFFFFFFFFFFFFFFFFFFFFFFFFFFFF AND PUSH20 0xFFFFFFFFFFFFFFFFFFFFFFFFFFFFFFFFFFFFFFFF AND DUP2 MSTORE PUSH1 0x20 ADD SWAP1 DUP2 MSTORE PUSH1 0x20 ADD PUSH1 0x0 KECCAK256 PUSH1 0x0 PUSH2 0x100 EXP DUP2 SLOAD DUP2 PUSH1 0xFF MUL NOT AND SWAP1 DUP4 ISZERO ISZERO MUL OR SWAP1 SSTORE POP PUSH2 0x4DE7 PUSH8 0xF4F2C061950C9543 PUSH1 0xC0 SHL PUSH2 0x6EEE JUMP JUMPDEST PUSH1 0x1 PUSH1 0xFE PUSH1 0x0 PUSH1 0x3 DUP2 MSTORE PUSH1 0x20 ADD SWAP1 DUP2 MSTORE PUSH1 0x20 ADD PUSH1 0x0 KECCAK256 PUSH1 0x3 ADD PUSH1 0x0 DUP3 DUP3 SLOAD PUSH2 0x4E0F SWAP2 SWAP1 PUSH2 0x9456 JUMP JUMPDEST SWAP3 POP POP DUP2 SWAP1 SSTORE POP PUSH2 0x4E2A PUSH8 0x2FD2705EAF257B1F PUSH1 0xC0 SHL PUSH2 0x6EEE JUMP JUMPDEST PUSH2 0x4E3E PUSH8 0x5FBB142CD7DF73F8 PUSH1 0xC0 SHL PUSH2 0x6EEE JUMP JUMPDEST PUSH1 0x0 PUSH2 0x101 PUSH1 0x0 SWAP1 SLOAD SWAP1 PUSH2 0x100 EXP SWAP1 DIV PUSH20 0xFFFFFFFFFFFFFFFFFFFFFFFFFFFFFFFFFFFFFFFF AND PUSH20 0xFFFFFFFFFFFFFFFFFFFFFFFFFFFFFFFFFFFFFFFF AND PUSH4 0x58F5F8BE CALLER PUSH1 0x40 MLOAD DUP3 PUSH4 0xFFFFFFFF AND PUSH1 0xE0 SHL DUP2 MSTORE PUSH1 0x4 ADD PUSH2 0x4E9C SWAP2 SWAP1 PUSH2 0x88FA JUMP JUMPDEST PUSH1 0x20 PUSH1 0x40 MLOAD DUP1 DUP4 SUB DUP2 PUSH1 0x0 DUP8 GAS CALL ISZERO DUP1 ISZERO PUSH2 0x4EBB JUMPI RETURNDATASIZE PUSH1 0x0 DUP1 RETURNDATACOPY RETURNDATASIZE PUSH1 0x0 REVERT JUMPDEST POP POP POP POP PUSH1 0x40 MLOAD RETURNDATASIZE PUSH1 0x1F NOT PUSH1 0x1F DUP3 ADD AND DUP3 ADD DUP1 PUSH1 0x40 MSTORE POP DUP2 ADD SWAP1 PUSH2 0x4EDF SWAP2 SWAP1 PUSH2 0x9CC9 JUMP JUMPDEST SWAP1 POP PUSH2 0x4EF5 PUSH8 0xA906E20BC1C67C1F PUSH1 0xC0 SHL PUSH2 0x6EEE JUMP JUMPDEST PUSH2 0x4F09 PUSH8 0xC39D03A4BA96921 PUSH1 0xC0 SHL PUSH2 0x6EEE JUMP JUMPDEST PUSH32 0x44EB92B6F9778E6790811C1FF3F8535FFB7145FB366595580E36FBD5B35F05C8 CALLER DUP3 PUSH1 0x3 PUSH1 0x40 MLOAD PUSH2 0x4F3D SWAP4 SWAP3 SWAP2 SWAP1 PUSH2 0xA1FF JUMP JUMPDEST PUSH1 0x40 MLOAD DUP1 SWAP2 SUB SWAP1 LOG1 POP JUMP JUMPDEST PUSH2 0x4F5C PUSH8 0x8488F3A248DFE33 PUSH1 0xC0 SHL PUSH2 0x6EEE JUMP JUMPDEST PUSH2 0x4F64 PUSH2 0x6FD9 JUMP JUMPDEST PUSH2 0x4F78 PUSH8 0x348779FA38C8384 PUSH1 0xC0 SHL PUSH2 0x6EEE JUMP JUMPDEST PUSH2 0x4F8C PUSH8 0xED5833D6E236289B PUSH1 0xC0 SHL PUSH2 0x6EEE JUMP JUMPDEST PUSH2 0x4FA0 PUSH8 0xFB3146EF162A1BA8 PUSH1 0xC0 SHL PUSH2 0x6EEE JUMP JUMPDEST PUSH2 0x4FB4 PUSH8 0x92FBF7112C413073 PUSH1 0xC0 SHL PUSH2 0x6EEE JUMP JUMPDEST PUSH1 0x0 PUSH2 0x4FC3 DUP4 PUSH1 0x0 ADD MLOAD PUSH2 0x3AA3 JUMP JUMPDEST SWAP1 POP PUSH2 0x4FD9 PUSH8 0x2ABC1FE1715A0880 PUSH1 0xC0 SHL PUSH2 0x6EEE JUMP JUMPDEST PUSH2 0x4FED PUSH8 0x3E4C1132F70CBAE1 PUSH1 0xC0 SHL PUSH2 0x6EEE JUMP JUMPDEST PUSH2 0x5001 PUSH8 0xBFDC9DA6395DE92B PUSH1 0xC0 SHL PUSH2 0x6EEE JUMP JUMPDEST PUSH2 0x5010 DUP2 DUP5 PUSH1 0x40 ADD MLOAD DUP5 PUSH2 0x7028 JUMP JUMPDEST DUP1 ISZERO PUSH2 0x5046 JUMPI POP PUSH2 0x10B DUP3 PUSH1 0x40 MLOAD PUSH2 0x5028 SWAP2 SWAP1 PUSH2 0x9325 JUMP JUMPDEST SWAP1 DUP2 MSTORE PUSH1 0x20 ADD PUSH1 0x40 MLOAD DUP1 SWAP2 SUB SWAP1 KECCAK256 PUSH1 0x0 SWAP1 SLOAD SWAP1 PUSH2 0x100 EXP SWAP1 DIV PUSH1 0xFF AND ISZERO JUMPDEST DUP1 ISZERO PUSH2 0x50EC JUMPI POP PUSH2 0x10D PUSH1 0x0 SWAP1 SLOAD SWAP1 PUSH2 0x100 EXP SWAP1 DIV PUSH20 0xFFFFFFFFFFFFFFFFFFFFFFFFFFFFFFFFFFFFFFFF AND PUSH20 0xFFFFFFFFFFFFFFFFFFFFFFFFFFFFFFFFFFFFFFFF AND PUSH4 0xC9941806 DUP4 PUSH1 0x40 MLOAD DUP3 PUSH4 0xFFFFFFFF AND PUSH1 0xE0 SHL DUP2 MSTORE PUSH1 0x4 ADD PUSH2 0x50A9 SWAP2 SWAP1 PUSH2 0x9386 JUMP JUMPDEST PUSH1 0x20 PUSH1 0x40 MLOAD DUP1 DUP4 SUB DUP2 DUP7 GAS STATICCALL ISZERO DUP1 ISZERO PUSH2 0x50C6 JUMPI RETURNDATASIZE PUSH1 0x0 DUP1 RETURNDATACOPY RETURNDATASIZE PUSH1 0x0 REVERT JUMPDEST POP POP POP POP PUSH1 0x40 MLOAD RETURNDATASIZE PUSH1 0x1F NOT PUSH1 0x1F DUP3 ADD AND DUP3 ADD DUP1 PUSH1 0x40 MSTORE POP DUP2 ADD SWAP1 PUSH2 0x50EA SWAP2 SWAP1 PUSH2 0x93BD JUMP JUMPDEST ISZERO JUMPDEST DUP1 ISZERO PUSH2 0x5192 JUMPI POP PUSH2 0x101 PUSH1 0x0 SWAP1 SLOAD SWAP1 PUSH2 0x100 EXP SWAP1 DIV PUSH20 0xFFFFFFFFFFFFFFFFFFFFFFFFFFFFFFFFFFFFFFFF AND PUSH20 0xFFFFFFFFFFFFFFFFFFFFFFFFFFFFFFFFFFFFFFFF AND PUSH4 0xC9941806 DUP4 PUSH1 0x40 MLOAD DUP3 PUSH4 0xFFFFFFFF AND PUSH1 0xE0 SHL DUP2 MSTORE PUSH1 0x4 ADD PUSH2 0x514F SWAP2 SWAP1 PUSH2 0x9386 JUMP JUMPDEST PUSH1 0x20 PUSH1 0x40 MLOAD DUP1 DUP4 SUB DUP2 DUP7 GAS STATICCALL ISZERO DUP1 ISZERO PUSH2 0x516C JUMPI RETURNDATASIZE PUSH1 0x0 DUP1 RETURNDATACOPY RETURNDATASIZE PUSH1 0x0 REVERT JUMPDEST POP POP POP POP PUSH1 0x40 MLOAD RETURNDATASIZE PUSH1 0x1F NOT PUSH1 0x1F DUP3 ADD AND DUP3 ADD DUP1 PUSH1 0x40 MSTORE POP DUP2 ADD SWAP1 PUSH2 0x5190 SWAP2 SWAP1 PUSH2 0x93BD JUMP JUMPDEST ISZERO JUMPDEST PUSH2 0x51D1 JUMPI PUSH1 0x40 MLOAD PUSH32 0x8C379A000000000000000000000000000000000000000000000000000000000 DUP2 MSTORE PUSH1 0x4 ADD PUSH2 0x51C8 SWAP1 PUSH2 0xA4AC JUMP JUMPDEST PUSH1 0x40 MLOAD DUP1 SWAP2 SUB SWAP1 REVERT JUMPDEST PUSH2 0x51E5 PUSH8 0xBE013C391169044 PUSH1 0xC0 SHL PUSH2 0x6EEE JUMP JUMPDEST PUSH2 0x51F9 PUSH8 0xE6D46F650BAEBFE1 PUSH1 0xC0 SHL PUSH2 0x6EEE JUMP JUMPDEST PUSH2 0x520D PUSH8 0xF9FFE3279D187B18 PUSH1 0xC0 SHL PUSH2 0x6EEE JUMP JUMPDEST PUSH2 0x5221 PUSH8 0x9D5E02A7A3F982BD PUSH1 0xC0 SHL PUSH2 0x6EEE JUMP JUMPDEST CALLVALUE DUP4 PUSH1 0x20 ADD MLOAD EQ PUSH2 0x5267 JUMPI PUSH1 0x40 MLOAD PUSH32 0x8C379A000000000000000000000000000000000000000000000000000000000 DUP2 MSTORE PUSH1 0x4 ADD PUSH2 0x525E SWAP1 PUSH2 0xA53E JUMP JUMPDEST PUSH1 0x40 MLOAD DUP1 SWAP2 SUB SWAP1 REVERT JUMPDEST PUSH2 0x527B PUSH8 0x541CE97E2BD0883C PUSH1 0xC0 SHL PUSH2 0x6EEE JUMP JUMPDEST PUSH2 0x528F PUSH8 0xEC08AA45D6ECD830 PUSH1 0xC0 SHL PUSH2 0x6EEE JUMP JUMPDEST PUSH2 0x52A3 PUSH8 0x19281514B952CFBA PUSH1 0xC0 SHL PUSH2 0x6EEE JUMP JUMPDEST PUSH2 0x52C2 DUP2 CALLER DUP6 PUSH1 0x0 ADD MLOAD PUSH1 0x40 MLOAD DUP1 PUSH1 0x20 ADD PUSH1 0x40 MSTORE DUP1 PUSH1 0x0 DUP2 MSTORE POP PUSH2 0x7B0D JUMP JUMPDEST PUSH2 0x52D6 PUSH8 0x5AB4A6D742B51302 PUSH1 0xC0 SHL PUSH2 0x6EEE JUMP JUMPDEST PUSH1 0x1 PUSH2 0x10B DUP4 PUSH1 0x40 MLOAD PUSH2 0x52E9 SWAP2 SWAP1 PUSH2 0x9325 JUMP JUMPDEST SWAP1 DUP2 MSTORE PUSH1 0x20 ADD PUSH1 0x40 MLOAD DUP1 SWAP2 SUB SWAP1 KECCAK256 PUSH1 0x0 PUSH2 0x100 EXP DUP2 SLOAD DUP2 PUSH1 0xFF MUL NOT AND SWAP1 DUP4 ISZERO ISZERO MUL OR SWAP1 SSTORE POP PUSH2 0x5322 PUSH8 0xB831C7FF573ADB2D PUSH1 0xC0 SHL PUSH2 0x6EEE JUMP JUMPDEST PUSH2 0x5336 PUSH8 0x1EC7CDFCA912A244 PUSH1 0xC0 SHL PUSH2 0x6EEE JUMP JUMPDEST PUSH1 0x0 PUSH2 0x5341 CALLVALUE PUSH2 0x2F64 JUMP JUMPDEST SWAP1 POP PUSH2 0x5357 PUSH8 0x131C763FE6115C0D PUSH1 0xC0 SHL PUSH2 0x6EEE JUMP JUMPDEST PUSH2 0x536B PUSH8 0x3352EDBE0A3DFE33 PUSH1 0xC0 SHL PUSH2 0x6EEE JUMP JUMPDEST PUSH2 0x10E PUSH1 0x0 SWAP1 SLOAD SWAP1 PUSH2 0x100 EXP SWAP1 DIV PUSH20 0xFFFFFFFFFFFFFFFFFFFFFFFFFFFFFFFFFFFFFFFF AND PUSH20 0xFFFFFFFFFFFFFFFFFFFFFFFFFFFFFFFFFFFFFFFF AND PUSH2 0x8FC DUP3 SWAP1 DUP2 ISZERO MUL SWAP1 PUSH1 0x40 MLOAD PUSH1 0x0 PUSH1 0x40 MLOAD DUP1 DUP4 SUB DUP2 DUP6 DUP9 DUP9 CALL SWAP4 POP POP POP POP ISZERO DUP1 ISZERO PUSH2 0x53D4 JUMPI RETURNDATASIZE PUSH1 0x0 DUP1 RETURNDATACOPY RETURNDATASIZE PUSH1 0x0 REVERT JUMPDEST POP PUSH2 0x53E9 PUSH8 0x1E15D6A86B6CC4B8 PUSH1 0xC0 SHL PUSH2 0x6EEE JUMP JUMPDEST PUSH2 0x53FD PUSH8 0x7E869620ECB3F4CF PUSH1 0xC0 SHL PUSH2 0x6EEE JUMP JUMPDEST DUP2 PUSH20 0xFFFFFFFFFFFFFFFFFFFFFFFFFFFFFFFFFFFFFFFF AND PUSH2 0x8FC DUP3 CALLVALUE PUSH2 0x5423 SWAP2 SWAP1 PUSH2 0xA55E JUMP JUMPDEST SWAP1 DUP2 ISZERO MUL SWAP1 PUSH1 0x40 MLOAD PUSH1 0x0 PUSH1 0x40 MLOAD DUP1 DUP4 SUB DUP2 DUP6 DUP9 DUP9 CALL SWAP4 POP POP POP POP ISZERO DUP1 ISZERO PUSH2 0x544E JUMPI RETURNDATASIZE PUSH1 0x0 DUP1 RETURNDATACOPY RETURNDATASIZE PUSH1 0x0 REVERT JUMPDEST POP PUSH2 0x5463 PUSH8 0x28F3396C694A329 PUSH1 0xC0 SHL PUSH2 0x6EEE JUMP JUMPDEST PUSH2 0x5477 PUSH8 0x6D3A6637E55E0E1C PUSH1 0xC0 SHL PUSH2 0x6EEE JUMP JUMPDEST PUSH32 0x80CF10DAC1B681DC583A2A6AB3D1E5279E026D3FB3C9001157FC290C9A1BED69 DUP3 CALLER CALLVALUE DUP8 PUSH1 0x0 ADD MLOAD PUSH2 0x10A PUSH1 0x0 DUP11 PUSH1 0x0 ADD MLOAD DUP2 MSTORE PUSH1 0x20 ADD SWAP1 DUP2 MSTORE PUSH1 0x20 ADD PUSH1 0x0 KECCAK256 PUSH1 0x40 MLOAD PUSH2 0x54C9 SWAP6 SWAP5 SWAP4 SWAP3 SWAP2 SWAP1 PUSH2 0xA616 JUMP JUMPDEST PUSH1 0x40 MLOAD DUP1 SWAP2 SUB SWAP1 LOG1 POP POP PUSH2 0x54DB PUSH2 0x7217 JUMP JUMPDEST POP POP JUMP JUMPDEST PUSH2 0x54F3 PUSH8 0x7F74AB51308619C8 PUSH1 0xC0 SHL PUSH2 0x6EEE JUMP JUMPDEST PUSH2 0x54FB PUSH2 0x6EF1 JUMP JUMPDEST PUSH2 0x550F PUSH8 0xEA079E3168C982B8 PUSH1 0xC0 SHL PUSH2 0x6EEE JUMP JUMPDEST PUSH2 0x5523 PUSH8 0xF86F20D4D3E9548C PUSH1 0xC0 SHL PUSH2 0x6EEE JUMP JUMPDEST PUSH2 0x5537 PUSH8 0xFBB3CC83BD7B15FB PUSH1 0xC0 SHL PUSH2 0x6EEE JUMP JUMPDEST PUSH2 0x554B PUSH8 0xF994DCDA35D1E23F PUSH1 0xC0 SHL PUSH2 0x6EEE JUMP JUMPDEST PUSH1 0x0 JUMPDEST DUP4 DUP4 SWAP1 POP DUP2 LT ISZERO PUSH2 0x55FF JUMPI PUSH2 0x556D PUSH8 0x14D0F79601DEB9A3 PUSH1 0xC0 SHL PUSH2 0x6EEE JUMP JUMPDEST DUP2 PUSH2 0x104 PUSH1 0x0 DUP7 DUP7 DUP6 DUP2 DUP2 LT PUSH2 0x5586 JUMPI PUSH2 0x5585 PUSH2 0x9238 JUMP JUMPDEST JUMPDEST SWAP1 POP PUSH1 0x20 MUL ADD PUSH1 0x20 DUP2 ADD SWAP1 PUSH2 0x559B SWAP2 SWAP1 PUSH2 0x8AAE JUMP JUMPDEST PUSH20 0xFFFFFFFFFFFFFFFFFFFFFFFFFFFFFFFFFFFFFFFF AND PUSH20 0xFFFFFFFFFFFFFFFFFFFFFFFFFFFFFFFFFFFFFFFF AND DUP2 MSTORE PUSH1 0x20 ADD SWAP1 DUP2 MSTORE PUSH1 0x20 ADD PUSH1 0x0 KECCAK256 PUSH1 0x0 PUSH2 0x100 EXP DUP2 SLOAD DUP2 PUSH1 0xFF MUL NOT AND SWAP1 DUP4 ISZERO ISZERO MUL OR SWAP1 SSTORE POP DUP1 DUP1 PUSH2 0x55F7 SWAP1 PUSH2 0x9296 JUMP JUMPDEST SWAP2 POP POP PUSH2 0x554E JUMP JUMPDEST POP PUSH2 0x5614 PUSH8 0x87FBDB997E29B66F PUSH1 0xC0 SHL PUSH2 0x6EEE JUMP JUMPDEST PUSH2 0x5628 PUSH8 0xE1FA2087730F4D3B PUSH1 0xC0 SHL PUSH2 0x6EEE JUMP JUMPDEST PUSH32 0x55D7A640169EE4A6157C88413D657E05AEB41F8FA2D6EF0B1CC82997F39C5B53 DUP4 DUP4 DUP4 PUSH1 0x40 MLOAD PUSH2 0x565B SWAP4 SWAP3 SWAP2 SWAP1 PUSH2 0x9FB4 JUMP JUMPDEST PUSH1 0x40 MLOAD DUP1 SWAP2 SUB SWAP1 LOG1 POP POP POP JUMP JUMPDEST PUSH1 0x60 PUSH1 0x66 DUP1 SLOAD PUSH2 0x5677 SWAP1 PUSH2 0x95B7 JUMP JUMPDEST DUP1 PUSH1 0x1F ADD PUSH1 0x20 DUP1 SWAP2 DIV MUL PUSH1 0x20 ADD PUSH1 0x40 MLOAD SWAP1 DUP2 ADD PUSH1 0x40 MSTORE DUP1 SWAP3 SWAP2 SWAP1 DUP2 DUP2 MSTORE PUSH1 0x20 ADD DUP3 DUP1 SLOAD PUSH2 0x56A3 SWAP1 PUSH2 0x95B7 JUMP JUMPDEST DUP1 ISZERO PUSH2 0x56F0 JUMPI DUP1 PUSH1 0x1F LT PUSH2 0x56C5 JUMPI PUSH2 0x100 DUP1 DUP4 SLOAD DIV MUL DUP4 MSTORE SWAP2 PUSH1 0x20 ADD SWAP2 PUSH2 0x56F0 JUMP JUMPDEST DUP3 ADD SWAP2 SWAP1 PUSH1 0x0 MSTORE PUSH1 0x20 PUSH1 0x0 KECCAK256 SWAP1 JUMPDEST DUP2 SLOAD DUP2 MSTORE SWAP1 PUSH1 0x1 ADD SWAP1 PUSH1 0x20 ADD DUP1 DUP4 GT PUSH2 0x56D3 JUMPI DUP3 SWAP1 SUB PUSH1 0x1F AND DUP3 ADD SWAP2 JUMPDEST POP POP POP POP POP SWAP1 POP SWAP1 JUMP JUMPDEST PUSH2 0x570E PUSH8 0x9017475001315372 PUSH1 0xC0 SHL PUSH2 0x6EEE JUMP JUMPDEST PUSH2 0x5716 PUSH2 0x6EF1 JUMP JUMPDEST PUSH2 0x572A PUSH8 0xAEA5062D1C6CA755 PUSH1 0xC0 SHL PUSH2 0x6EEE JUMP JUMPDEST PUSH2 0x573E PUSH8 0xC543BEF23ADC2F2E PUSH1 0xC0 SHL PUSH2 0x6EEE JUMP JUMPDEST PUSH2 0x5752 PUSH8 0xABCE1497AFF88631 PUSH1 0xC0 SHL PUSH2 0x6EEE JUMP JUMPDEST DUP2 PUSH1 0xFC SWAP1 DUP2 PUSH2 0x5761 SWAP2 SWAP1 PUSH2 0x978A JUMP JUMPDEST POP PUSH2 0x5776 PUSH8 0x701D5C41ECA3969A PUSH1 0xC0 SHL PUSH2 0x6EEE JUMP JUMPDEST DUP1 PUSH1 0xFD SWAP1 DUP2 PUSH2 0x5785 SWAP2 SWAP1 PUSH2 0x978A JUMP JUMPDEST POP POP POP JUMP JUMPDEST PUSH2 0x579E PUSH8 0xC43A676C7224D52B PUSH1 0xC0 SHL PUSH2 0x6EEE JUMP JUMPDEST PUSH2 0x57A6 PUSH2 0x6EF1 JUMP JUMPDEST PUSH2 0x57BA PUSH8 0x2B2B8FDF0B24F483 PUSH1 0xC0 SHL PUSH2 0x6EEE JUMP JUMPDEST PUSH2 0x57CE PUSH8 0x462E5D14D1F4EA32 PUSH1 0xC0 SHL PUSH2 0x6EEE JUMP JUMPDEST PUSH2 0x57E2 PUSH8 0xDA5115121D231559 PUSH1 0xC0 SHL PUSH2 0x6EEE JUMP JUMPDEST DUP5 PUSH2 0x100 PUSH1 0x0 PUSH2 0x100 EXP DUP2 SLOAD DUP2 PUSH20 0xFFFFFFFFFFFFFFFFFFFFFFFFFFFFFFFFFFFFFFFF MUL NOT AND SWAP1 DUP4 PUSH20 0xFFFFFFFFFFFFFFFFFFFFFFFFFFFFFFFFFFFFFFFF AND MUL OR SWAP1 SSTORE POP PUSH2 0x5838 PUSH8 0x6C1B679E1F6914B4 PUSH1 0xC0 SHL PUSH2 0x6EEE JUMP JUMPDEST DUP4 PUSH2 0x101 PUSH1 0x0 PUSH2 0x100 EXP DUP2 SLOAD DUP2 PUSH20 0xFFFFFFFFFFFFFFFFFFFFFFFFFFFFFFFFFFFFFFFF MUL NOT AND SWAP1 DUP4 PUSH20 0xFFFFFFFFFFFFFFFFFFFFFFFFFFFFFFFFFFFFFFFF AND MUL OR SWAP1 SSTORE POP PUSH2 0x588E PUSH8 0x6AD2703ED557071C PUSH1 0xC0 SHL PUSH2 0x6EEE JUMP JUMPDEST DUP3 PUSH2 0x10E PUSH1 0x0 PUSH2 0x100 EXP DUP2 SLOAD DUP2 PUSH20 0xFFFFFFFFFFFFFFFFFFFFFFFFFFFFFFFFFFFFFFFF MUL NOT AND SWAP1 DUP4 PUSH20 0xFFFFFFFFFFFFFFFFFFFFFFFFFFFFFFFFFFFFFFFF AND MUL OR SWAP1 SSTORE POP PUSH2 0x58E4 PUSH8 0xEE2EDF41E53F4EB7 PUSH1 0xC0 SHL PUSH2 0x6EEE JUMP JUMPDEST DUP2 PUSH2 0x10D PUSH1 0x0 PUSH2 0x100 EXP DUP2 SLOAD DUP2 PUSH20 0xFFFFFFFFFFFFFFFFFFFFFFFFFFFFFFFFFFFFFFFF MUL NOT AND SWAP1 DUP4 PUSH20 0xFFFFFFFFFFFFFFFFFFFFFFFFFFFFFFFFFFFFFFFF AND MUL OR SWAP1 SSTORE POP PUSH2 0x593A PUSH8 0xFF44CFD96C88B694 PUSH1 0xC0 SHL PUSH2 0x6EEE JUMP JUMPDEST DUP1 PUSH2 0x10C DUP2 SWAP1 SSTORE POP POP POP POP POP POP JUMP JUMPDEST PUSH2 0x595D PUSH8 0x218E6C9AE2C4FAF1 PUSH1 0xC0 SHL PUSH2 0x6EEE JUMP JUMPDEST PUSH2 0x5965 PUSH2 0x6EF1 JUMP JUMPDEST PUSH2 0x5979 PUSH8 0x3EF92B08487A272D PUSH1 0xC0 SHL PUSH2 0x6EEE JUMP JUMPDEST PUSH2 0x598D PUSH8 0x83CAFA95C4725D24 PUSH1 0xC0 SHL PUSH2 0x6EEE JUMP JUMPDEST PUSH2 0x59A1 PUSH8 0x2EB5570D09F70752 PUSH1 0xC0 SHL PUSH2 0x6EEE JUMP JUMPDEST PUSH2 0x59B5 PUSH8 0x338A024C9E0ADD9F PUSH1 0xC0 SHL PUSH2 0x6EEE JUMP JUMPDEST PUSH1 0x0 JUMPDEST DUP4 DUP4 SWAP1 POP DUP2 LT ISZERO PUSH2 0x5A69 JUMPI PUSH2 0x59D7 PUSH8 0x5554A9FF927F93CE PUSH1 0xC0 SHL PUSH2 0x6EEE JUMP JUMPDEST DUP2 PUSH2 0x106 PUSH1 0x0 DUP7 DUP7 DUP6 DUP2 DUP2 LT PUSH2 0x59F0 JUMPI PUSH2 0x59EF PUSH2 0x9238 JUMP JUMPDEST JUMPDEST SWAP1 POP PUSH1 0x20 MUL ADD PUSH1 0x20 DUP2 ADD SWAP1 PUSH2 0x5A05 SWAP2 SWAP1 PUSH2 0x8AAE JUMP JUMPDEST PUSH20 0xFFFFFFFFFFFFFFFFFFFFFFFFFFFFFFFFFFFFFFFF AND PUSH20 0xFFFFFFFFFFFFFFFFFFFFFFFFFFFFFFFFFFFFFFFF AND DUP2 MSTORE PUSH1 0x20 ADD SWAP1 DUP2 MSTORE PUSH1 0x20 ADD PUSH1 0x0 KECCAK256 PUSH1 0x0 PUSH2 0x100 EXP DUP2 SLOAD DUP2 PUSH1 0xFF MUL NOT AND SWAP1 DUP4 ISZERO ISZERO MUL OR SWAP1 SSTORE POP DUP1 DUP1 PUSH2 0x5A61 SWAP1 PUSH2 0x9296 JUMP JUMPDEST SWAP2 POP POP PUSH2 0x59B8 JUMP JUMPDEST POP PUSH2 0x5A7E PUSH8 0xA93CC74F1BF7D45B PUSH1 0xC0 SHL PUSH2 0x6EEE JUMP JUMPDEST PUSH2 0x5A92 PUSH8 0xAC7F9B3390B75464 PUSH1 0xC0 SHL PUSH2 0x6EEE JUMP JUMPDEST PUSH32 0x26F546175866CDAE536ED9010787F6F5BC9992C35F6CC805F0D7992A322F74FC DUP4 DUP4 DUP4 PUSH1 0x40 MLOAD PUSH2 0x5AC5 SWAP4 SWAP3 SWAP2 SWAP1 PUSH2 0x9FB4 JUMP JUMPDEST PUSH1 0x40 MLOAD DUP1 SWAP2 SUB SWAP1 LOG1 POP POP POP JUMP JUMPDEST PUSH2 0x5AE4 PUSH2 0x5ADD PUSH2 0x726C JUMP JUMPDEST DUP4 DUP4 PUSH2 0x7B69 JUMP JUMPDEST POP POP JUMP JUMPDEST PUSH2 0x5AFC PUSH8 0x98DDC1BF2F5A2297 PUSH1 0xC0 SHL PUSH2 0x6EEE JUMP JUMPDEST PUSH2 0x5B04 PUSH2 0x6EF1 JUMP JUMPDEST PUSH2 0x5B18 PUSH8 0x4ACBACD49859F7D1 PUSH1 0xC0 SHL PUSH2 0x6EEE JUMP JUMPDEST PUSH2 0x5B2C PUSH8 0x15E7C12740047811 PUSH1 0xC0 SHL PUSH2 0x6EEE JUMP JUMPDEST PUSH2 0x5B40 PUSH8 0xAB8A7DA5A01BE159 PUSH1 0xC0 SHL PUSH2 0x6EEE JUMP JUMPDEST PUSH2 0x5B54 PUSH8 0xBCC11FA6BA6F7B7C PUSH1 0xC0 SHL PUSH2 0x6EEE JUMP JUMPDEST PUSH1 0x0 JUMPDEST DUP4 DUP4 SWAP1 POP DUP2 LT ISZERO PUSH2 0x5C08 JUMPI PUSH2 0x5B76 PUSH8 0x91AE95561299C06A PUSH1 0xC0 SHL PUSH2 0x6EEE JUMP JUMPDEST DUP2 PUSH2 0x105 PUSH1 0x0 DUP7 DUP7 DUP6 DUP2 DUP2 LT PUSH2 0x5B8F JUMPI PUSH2 0x5B8E PUSH2 0x9238 JUMP JUMPDEST JUMPDEST SWAP1 POP PUSH1 0x20 MUL ADD PUSH1 0x20 DUP2 ADD SWAP1 PUSH2 0x5BA4 SWAP2 SWAP1 PUSH2 0x8AAE JUMP JUMPDEST PUSH20 0xFFFFFFFFFFFFFFFFFFFFFFFFFFFFFFFFFFFFFFFF AND PUSH20 0xFFFFFFFFFFFFFFFFFFFFFFFFFFFFFFFFFFFFFFFF AND DUP2 MSTORE PUSH1 0x20 ADD SWAP1 DUP2 MSTORE PUSH1 0x20 ADD PUSH1 0x0 KECCAK256 PUSH1 0x0 PUSH2 0x100 EXP DUP2 SLOAD DUP2 PUSH1 0xFF MUL NOT AND SWAP1 DUP4 ISZERO ISZERO MUL OR SWAP1 SSTORE POP DUP1 DUP1 PUSH2 0x5C00 SWAP1 PUSH2 0x9296 JUMP JUMPDEST SWAP2 POP POP PUSH2 0x5B57 JUMP JUMPDEST POP PUSH2 0x5C1D PUSH8 0xEAA026BBC8D5AEAF PUSH1 0xC0 SHL PUSH2 0x6EEE JUMP JUMPDEST PUSH2 0x5C31 PUSH8 0x8C428A768AC82755 PUSH1 0xC0 SHL PUSH2 0x6EEE JUMP JUMPDEST PUSH32 0x103875DCA1D7DED84AF45916324C49FB7322C1BA16E25088174B6975CAA0DFD5 DUP4 DUP4 DUP4 PUSH1 0x40 MLOAD PUSH2 0x5C64 SWAP4 SWAP3 SWAP2 SWAP1 PUSH2 0x9FB4 JUMP JUMPDEST PUSH1 0x40 MLOAD DUP1 SWAP2 SUB SWAP1 LOG1 POP POP POP JUMP JUMPDEST PUSH2 0x5C82 PUSH2 0x5C7C PUSH2 0x726C JUMP JUMPDEST DUP4 PUSH2 0x754A JUMP JUMPDEST PUSH2 0x5CC1 JUMPI PUSH1 0x40 MLOAD PUSH32 0x8C379A000000000000000000000000000000000000000000000000000000000 DUP2 MSTORE PUSH1 0x4 ADD PUSH2 0x5CB8 SWAP1 PUSH2 0xA058 JUMP JUMPDEST PUSH1 0x40 MLOAD DUP1 SWAP2 SUB SWAP1 REVERT JUMPDEST PUSH2 0x5CCD DUP5 DUP5 DUP5 DUP5 PUSH2 0x7B0D JUMP JUMPDEST POP POP POP POP JUMP JUMPDEST PUSH2 0x104 PUSH1 0x20 MSTORE DUP1 PUSH1 0x0 MSTORE PUSH1 0x40 PUSH1 0x0 KECCAK256 PUSH1 0x0 SWAP2 POP SLOAD SWAP1 PUSH2 0x100 EXP SWAP1 DIV PUSH1 0xFF AND DUP2 JUMP JUMPDEST PUSH1 0x60 PUSH2 0x5D0A PUSH8 0x1F33FB83F02BB17C PUSH1 0xC0 SHL PUSH2 0x6EEE JUMP JUMPDEST PUSH2 0x5D1E PUSH8 0x3E5922ADDAD1BDFF PUSH1 0xC0 SHL PUSH2 0x6EEE JUMP JUMPDEST PUSH2 0x5D32 PUSH8 0xB8B9D188C1B76F9C PUSH1 0xC0 SHL PUSH2 0x6EEE JUMP JUMPDEST PUSH2 0x5D46 PUSH8 0x7F3FBCDCDD1E5AC9 PUSH1 0xC0 SHL PUSH2 0x6EEE JUMP JUMPDEST PUSH2 0x5D4F DUP3 PUSH2 0x7CD5 JUMP JUMPDEST PUSH2 0x5D8E JUMPI PUSH1 0x40 MLOAD PUSH32 0x8C379A000000000000000000000000000000000000000000000000000000000 DUP2 MSTORE PUSH1 0x4 ADD PUSH2 0x5D85 SWAP1 PUSH2 0xA6E2 JUMP JUMPDEST PUSH1 0x40 MLOAD DUP1 SWAP2 SUB SWAP1 REVERT JUMPDEST PUSH2 0x5DA2 PUSH8 0x214926546189C64E PUSH1 0xC0 SHL PUSH2 0x6EEE JUMP JUMPDEST PUSH2 0x5DB6 PUSH8 0x52EDA5902631EA48 PUSH1 0xC0 SHL PUSH2 0x6EEE JUMP JUMPDEST PUSH2 0x5DCA PUSH8 0x81A098A57C65C74C PUSH1 0xC0 SHL PUSH2 0x6EEE JUMP JUMPDEST PUSH1 0xFC PUSH2 0x5DD5 DUP4 PUSH2 0x7D16 JUMP JUMPDEST PUSH1 0xFD PUSH1 0x40 MLOAD PUSH1 0x20 ADD PUSH2 0x5DE9 SWAP4 SWAP3 SWAP2 SWAP1 PUSH2 0xA7C1 JUMP JUMPDEST PUSH1 0x40 MLOAD PUSH1 0x20 DUP2 DUP4 SUB SUB DUP2 MSTORE SWAP1 PUSH1 0x40 MSTORE SWAP1 POP SWAP2 SWAP1 POP JUMP JUMPDEST PUSH2 0x5E13 PUSH8 0x235AF732D6B85098 PUSH1 0xC0 SHL PUSH2 0x6EEE JUMP JUMPDEST PUSH2 0x5E1B PUSH2 0x6EF1 JUMP JUMPDEST PUSH2 0x5E2F PUSH8 0x47CAE03CB23B3CC1 PUSH1 0xC0 SHL PUSH2 0x6EEE JUMP JUMPDEST PUSH2 0x5E43 PUSH8 0xE2D3417BAE6EBE9D PUSH1 0xC0 SHL PUSH2 0x6EEE JUMP JUMPDEST PUSH2 0x5E57 PUSH8 0x21A28037CDF0AFC1 PUSH1 0xC0 SHL PUSH2 0x6EEE JUMP JUMPDEST PUSH2 0x5E6B PUSH8 0xA28BC89519CEACB1 PUSH1 0xC0 SHL PUSH2 0x6EEE JUMP JUMPDEST PUSH1 0x0 JUMPDEST DUP4 DUP4 SWAP1 POP DUP2 LT ISZERO PUSH2 0x5F1F JUMPI PUSH2 0x5E8D PUSH8 0x5E3896B8F167CCB7 PUSH1 0xC0 SHL PUSH2 0x6EEE JUMP JUMPDEST DUP2 PUSH2 0x108 PUSH1 0x0 DUP7 DUP7 DUP6 DUP2 DUP2 LT PUSH2 0x5EA6 JUMPI PUSH2 0x5EA5 PUSH2 0x9238 JUMP JUMPDEST JUMPDEST SWAP1 POP PUSH1 0x20 MUL ADD PUSH1 0x20 DUP2 ADD SWAP1 PUSH2 0x5EBB SWAP2 SWAP1 PUSH2 0x8AAE JUMP JUMPDEST PUSH20 0xFFFFFFFFFFFFFFFFFFFFFFFFFFFFFFFFFFFFFFFF AND PUSH20 0xFFFFFFFFFFFFFFFFFFFFFFFFFFFFFFFFFFFFFFFF AND DUP2 MSTORE PUSH1 0x20 ADD SWAP1 DUP2 MSTORE PUSH1 0x20 ADD PUSH1 0x0 KECCAK256 PUSH1 0x0 PUSH2 0x100 EXP DUP2 SLOAD DUP2 PUSH1 0xFF MUL NOT AND SWAP1 DUP4 ISZERO ISZERO MUL OR SWAP1 SSTORE POP DUP1 DUP1 PUSH2 0x5F17 SWAP1 PUSH2 0x9296 JUMP JUMPDEST SWAP2 POP POP PUSH2 0x5E6E JUMP JUMPDEST POP PUSH2 0x5F34 PUSH8 0xC2DBE69D3C6F7899 PUSH1 0xC0 SHL PUSH2 0x6EEE JUMP JUMPDEST PUSH2 0x5F48 PUSH8 0xD3F63100FD017E3B PUSH1 0xC0 SHL PUSH2 0x6EEE JUMP JUMPDEST PUSH32 0x1F04AD3D20DF24C03595D847AEE0FF273316EA1ED4FF072EB68155A1D5623CB3 DUP4 DUP4 DUP4 PUSH1 0x40 MLOAD PUSH2 0x5F7B SWAP4 SWAP3 SWAP2 SWAP1 PUSH2 0x9FB4 JUMP JUMPDEST PUSH1 0x40 MLOAD DUP1 SWAP2 SUB SWAP1 LOG1 POP POP POP JUMP JUMPDEST PUSH2 0x10B DUP2 DUP1 MLOAD PUSH1 0x20 DUP2 ADD DUP3 ADD DUP1 MLOAD DUP5 DUP3 MSTORE PUSH1 0x20 DUP4 ADD PUSH1 0x20 DUP6 ADD KECCAK256 DUP2 DUP4 MSTORE DUP1 SWAP6 POP POP POP POP POP POP PUSH1 0x0 SWAP2 POP SLOAD SWAP1 PUSH2 0x100 EXP SWAP1 DIV PUSH1 0xFF AND DUP2 JUMP JUMPDEST PUSH2 0x10D PUSH1 0x0 SWAP1 SLOAD SWAP1 PUSH2 0x100 EXP SWAP1 DIV PUSH20 0xFFFFFFFFFFFFFFFFFFFFFFFFFFFFFFFFFFFFFFFF AND DUP2 JUMP JUMPDEST PUSH1 0xFB SLOAD DUP2 JUMP JUMPDEST PUSH2 0x103 PUSH1 0x20 MSTORE DUP1 PUSH1 0x0 MSTORE PUSH1 0x40 PUSH1 0x0 KECCAK256 PUSH1 0x0 SWAP2 POP SLOAD SWAP1 PUSH2 0x100 EXP SWAP1 DIV PUSH1 0xFF AND DUP2 JUMP JUMPDEST PUSH2 0x6021 PUSH8 0x8616DFA9149CB246 PUSH1 0xC0 SHL PUSH2 0x6EEE JUMP JUMPDEST PUSH2 0x6029 PUSH2 0x6EF1 JUMP JUMPDEST PUSH2 0x603D PUSH8 0x64E2F100BE5F4EC1 PUSH1 0xC0 SHL PUSH2 0x6EEE JUMP JUMPDEST PUSH2 0x6051 PUSH8 0x913810AEAB8A6983 PUSH1 0xC0 SHL PUSH2 0x6EEE JUMP JUMPDEST PUSH2 0x6065 PUSH8 0xF51FD78388FCAB9 PUSH1 0xC0 SHL PUSH2 0x6EEE JUMP JUMPDEST PUSH2 0x6079 PUSH8 0xD7859EC680163564 PUSH1 0xC0 SHL PUSH2 0x6EEE JUMP JUMPDEST PUSH1 0x0 JUMPDEST DUP4 DUP4 SWAP1 POP DUP2 LT ISZERO PUSH2 0x612D JUMPI PUSH2 0x609B PUSH8 0xDA54696D85768BBD PUSH1 0xC0 SHL PUSH2 0x6EEE JUMP JUMPDEST DUP2 PUSH2 0x107 PUSH1 0x0 DUP7 DUP7 DUP6 DUP2 DUP2 LT PUSH2 0x60B4 JUMPI PUSH2 0x60B3 PUSH2 0x9238 JUMP JUMPDEST JUMPDEST SWAP1 POP PUSH1 0x20 MUL ADD PUSH1 0x20 DUP2 ADD SWAP1 PUSH2 0x60C9 SWAP2 SWAP1 PUSH2 0x8AAE JUMP JUMPDEST PUSH20 0xFFFFFFFFFFFFFFFFFFFFFFFFFFFFFFFFFFFFFFFF AND PUSH20 0xFFFFFFFFFFFFFFFFFFFFFFFFFFFFFFFFFFFFFFFF AND DUP2 MSTORE PUSH1 0x20 ADD SWAP1 DUP2 MSTORE PUSH1 0x20 ADD PUSH1 0x0 KECCAK256 PUSH1 0x0 PUSH2 0x100 EXP DUP2 SLOAD DUP2 PUSH1 0xFF MUL NOT AND SWAP1 DUP4 ISZERO ISZERO MUL OR SWAP1 SSTORE POP DUP1 DUP1 PUSH2 0x6125 SWAP1 PUSH2 0x9296 JUMP JUMPDEST SWAP2 POP POP PUSH2 0x607C JUMP JUMPDEST POP PUSH2 0x6142 PUSH8 0xF27C42781F07767D PUSH1 0xC0 SHL PUSH2 0x6EEE JUMP JUMPDEST PUSH2 0x6156 PUSH8 0x40F5A989DD07153C PUSH1 0xC0 SHL PUSH2 0x6EEE JUMP JUMPDEST PUSH32 0xF76067476381EDC28FA06F8043230469676E53A6027CB3550ECC3D2E7DFB1BBF DUP4 DUP4 DUP4 PUSH1 0x40 MLOAD PUSH2 0x6189 SWAP4 SWAP3 SWAP2 SWAP1 PUSH2 0x9FB4 JUMP JUMPDEST PUSH1 0x40 MLOAD DUP1 SWAP2 SUB SWAP1 LOG1 POP POP POP JUMP JUMPDEST PUSH2 0x61AA PUSH8 0xF6559D78389B6C23 PUSH1 0xC0 SHL PUSH2 0x6EEE JUMP JUMPDEST PUSH2 0x61BE PUSH8 0x23E8D5FF67B0E55A PUSH1 0xC0 SHL PUSH2 0x6EEE JUMP JUMPDEST PUSH2 0x61D2 PUSH8 0x964DFDB7EEAE13AF PUSH1 0xC0 SHL PUSH2 0x6EEE JUMP JUMPDEST PUSH2 0x61E6 PUSH8 0x9ADD2EBA30371252 PUSH1 0xC0 SHL PUSH2 0x6EEE JUMP JUMPDEST PUSH1 0xFF PUSH1 0x0 PUSH1 0x5 DUP2 MSTORE PUSH1 0x20 ADD SWAP1 DUP2 MSTORE PUSH1 0x20 ADD PUSH1 0x0 KECCAK256 PUSH1 0x0 SWAP1 SLOAD SWAP1 PUSH2 0x100 EXP SWAP1 DIV PUSH1 0xFF AND DUP1 ISZERO PUSH2 0x6241 JUMPI POP PUSH1 0xFE PUSH1 0x0 PUSH1 0x5 DUP2 MSTORE PUSH1 0x20 ADD SWAP1 DUP2 MSTORE PUSH1 0x20 ADD PUSH1 0x0 KECCAK256 PUSH1 0x0 ADD SLOAD PUSH1 0xFE PUSH1 0x0 PUSH1 0x5 DUP2 MSTORE PUSH1 0x20 ADD SWAP1 DUP2 MSTORE PUSH1 0x20 ADD PUSH1 0x0 KECCAK256 PUSH1 0x1 ADD SLOAD LT JUMPDEST DUP1 ISZERO PUSH2 0x627A JUMPI POP PUSH1 0xFE PUSH1 0x0 PUSH1 0x5 DUP2 MSTORE PUSH1 0x20 ADD SWAP1 DUP2 MSTORE PUSH1 0x20 ADD PUSH1 0x0 KECCAK256 PUSH1 0x2 ADD SLOAD PUSH1 0xFE PUSH1 0x0 PUSH1 0x5 DUP2 MSTORE PUSH1 0x20 ADD SWAP1 DUP2 MSTORE PUSH1 0x20 ADD PUSH1 0x0 KECCAK256 PUSH1 0x3 ADD SLOAD LT JUMPDEST PUSH2 0x62B9 JUMPI PUSH1 0x40 MLOAD PUSH32 0x8C379A000000000000000000000000000000000000000000000000000000000 DUP2 MSTORE PUSH1 0x4 ADD PUSH2 0x62B0 SWAP1 PUSH2 0x9BE6 JUMP JUMPDEST PUSH1 0x40 MLOAD DUP1 SWAP2 SUB SWAP1 REVERT JUMPDEST PUSH2 0x62CD PUSH8 0x8E1D524E8B94B360 PUSH1 0xC0 SHL PUSH2 0x6EEE JUMP JUMPDEST PUSH2 0x62E1 PUSH8 0x8BA47BE7221D3032 PUSH1 0xC0 SHL PUSH2 0x6EEE JUMP JUMPDEST PUSH2 0x62F5 PUSH8 0x511BA71DF545C8A3 PUSH1 0xC0 SHL PUSH2 0x6EEE JUMP JUMPDEST PUSH2 0x6309 PUSH8 0xFC7221AC76BC0E18 PUSH1 0xC0 SHL PUSH2 0x6EEE JUMP JUMPDEST CALLER PUSH20 0xFFFFFFFFFFFFFFFFFFFFFFFFFFFFFFFFFFFFFFFF AND PUSH2 0x100 PUSH1 0x0 SWAP1 SLOAD SWAP1 PUSH2 0x100 EXP SWAP1 DIV PUSH20 0xFFFFFFFFFFFFFFFFFFFFFFFFFFFFFFFFFFFFFFFF AND PUSH20 0xFFFFFFFFFFFFFFFFFFFFFFFFFFFFFFFFFFFFFFFF AND PUSH4 0x6352211E DUP4 PUSH1 0x40 MLOAD DUP3 PUSH4 0xFFFFFFFF AND PUSH1 0xE0 SHL DUP2 MSTORE PUSH1 0x4 ADD PUSH2 0x637C SWAP2 SWAP1 PUSH2 0x8990 JUMP JUMPDEST PUSH1 0x20 PUSH1 0x40 MLOAD DUP1 DUP4 SUB DUP2 DUP7 GAS STATICCALL ISZERO DUP1 ISZERO PUSH2 0x6399 JUMPI RETURNDATASIZE PUSH1 0x0 DUP1 RETURNDATACOPY RETURNDATASIZE PUSH1 0x0 REVERT JUMPDEST POP POP POP POP PUSH1 0x40 MLOAD RETURNDATASIZE PUSH1 0x1F NOT PUSH1 0x1F DUP3 ADD AND DUP3 ADD DUP1 PUSH1 0x40 MSTORE POP DUP2 ADD SWAP1 PUSH2 0x63BD SWAP2 SWAP1 PUSH2 0x9C1B JUMP JUMPDEST PUSH20 0xFFFFFFFFFFFFFFFFFFFFFFFFFFFFFFFFFFFFFFFF AND EQ PUSH2 0x6413 JUMPI PUSH1 0x40 MLOAD PUSH32 0x8C379A000000000000000000000000000000000000000000000000000000000 DUP2 MSTORE PUSH1 0x4 ADD PUSH2 0x640A SWAP1 PUSH2 0x9C94 JUMP JUMPDEST PUSH1 0x40 MLOAD DUP1 SWAP2 SUB SWAP1 REVERT JUMPDEST PUSH2 0x6427 PUSH8 0x11940EE9AA229E08 PUSH1 0xC0 SHL PUSH2 0x6EEE JUMP JUMPDEST PUSH2 0x643B PUSH8 0xCE2B41D33146A800 PUSH1 0xC0 SHL PUSH2 0x6EEE JUMP JUMPDEST PUSH2 0x644F PUSH8 0x2B3978AF4C6D6508 PUSH1 0xC0 SHL PUSH2 0x6EEE JUMP JUMPDEST PUSH2 0x100 PUSH1 0x0 SWAP1 SLOAD SWAP1 PUSH2 0x100 EXP SWAP1 DIV PUSH20 0xFFFFFFFFFFFFFFFFFFFFFFFFFFFFFFFFFFFFFFFF AND PUSH20 0xFFFFFFFFFFFFFFFFFFFFFFFFFFFFFFFFFFFFFFFF AND PUSH4 0x23B872DD CALLER ADDRESS DUP5 PUSH1 0x40 MLOAD DUP5 PUSH4 0xFFFFFFFF AND PUSH1 0xE0 SHL DUP2 MSTORE PUSH1 0x4 ADD PUSH2 0x64AF SWAP4 SWAP3 SWAP2 SWAP1 PUSH2 0x985C JUMP JUMPDEST PUSH1 0x0 PUSH1 0x40 MLOAD DUP1 DUP4 SUB DUP2 PUSH1 0x0 DUP8 DUP1 EXTCODESIZE ISZERO DUP1 ISZERO PUSH2 0x64C9 JUMPI PUSH1 0x0 DUP1 REVERT JUMPDEST POP GAS CALL ISZERO DUP1 ISZERO PUSH2 0x64DD JUMPI RETURNDATASIZE PUSH1 0x0 DUP1 RETURNDATACOPY RETURNDATASIZE PUSH1 0x0 REVERT JUMPDEST POP POP POP POP PUSH2 0x64F5 PUSH8 0x93DF6F12517EFE94 PUSH1 0xC0 SHL PUSH2 0x6EEE JUMP JUMPDEST PUSH2 0x6509 PUSH8 0xD6663C38D8637182 PUSH1 0xC0 SHL PUSH2 0x6EEE JUMP JUMPDEST PUSH2 0x100 PUSH1 0x0 SWAP1 SLOAD SWAP1 PUSH2 0x100 EXP SWAP1 DIV PUSH20 0xFFFFFFFFFFFFFFFFFFFFFFFFFFFFFFFFFFFFFFFF AND PUSH20 0xFFFFFFFFFFFFFFFFFFFFFFFFFFFFFFFFFFFFFFFF AND PUSH4 0x42966C68 DUP3 PUSH1 0x40 MLOAD DUP3 PUSH4 0xFFFFFFFF AND PUSH1 0xE0 SHL DUP2 MSTORE PUSH1 0x4 ADD PUSH2 0x6565 SWAP2 SWAP1 PUSH2 0x8990 JUMP JUMPDEST PUSH1 0x0 PUSH1 0x40 MLOAD DUP1 DUP4 SUB DUP2 PUSH1 0x0 DUP8 DUP1 EXTCODESIZE ISZERO DUP1 ISZERO PUSH2 0x657F JUMPI PUSH1 0x0 DUP1 REVERT JUMPDEST POP GAS CALL ISZERO DUP1 ISZERO PUSH2 0x6593 JUMPI RETURNDATASIZE PUSH1 0x0 DUP1 RETURNDATACOPY RETURNDATASIZE PUSH1 0x0 REVERT JUMPDEST POP POP POP POP PUSH2 0x65AB PUSH8 0x1D4BB4CF97271D4 PUSH1 0xC0 SHL PUSH2 0x6EEE JUMP JUMPDEST PUSH2 0x65BF PUSH8 0x2FF0F6E89E2B9036 PUSH1 0xC0 SHL PUSH2 0x6EEE JUMP JUMPDEST PUSH1 0x0 PUSH2 0x101 PUSH1 0x0 SWAP1 SLOAD SWAP1 PUSH2 0x100 EXP SWAP1 DIV PUSH20 0xFFFFFFFFFFFFFFFFFFFFFFFFFFFFFFFFFFFFFFFF AND PUSH20 0xFFFFFFFFFFFFFFFFFFFFFFFFFFFFFFFFFFFFFFFF AND PUSH4 0x58F5F8BE CALLER PUSH1 0x40 MLOAD DUP3 PUSH4 0xFFFFFFFF AND PUSH1 0xE0 SHL DUP2 MSTORE PUSH1 0x4 ADD PUSH2 0x661D SWAP2 SWAP1 PUSH2 0x88FA JUMP JUMPDEST PUSH1 0x20 PUSH1 0x40 MLOAD DUP1 DUP4 SUB DUP2 PUSH1 0x0 DUP8 GAS CALL ISZERO DUP1 ISZERO PUSH2 0x663C JUMPI RETURNDATASIZE PUSH1 0x0 DUP1 RETURNDATACOPY RETURNDATASIZE PUSH1 0x0 REVERT JUMPDEST POP POP POP POP PUSH1 0x40 MLOAD RETURNDATASIZE PUSH1 0x1F NOT PUSH1 0x1F DUP3 ADD AND DUP3 ADD DUP1 PUSH1 0x40 MSTORE POP DUP2 ADD SWAP1 PUSH2 0x6660 SWAP2 SWAP1 PUSH2 0x9CC9 JUMP JUMPDEST SWAP1 POP PUSH2 0x6676 PUSH8 0x18533944F3AF5157 PUSH1 0xC0 SHL PUSH2 0x6EEE JUMP JUMPDEST PUSH1 0x1 PUSH1 0xFB PUSH1 0x0 DUP3 DUP3 SLOAD PUSH2 0x6689 SWAP2 SWAP1 PUSH2 0x9456 JUMP JUMPDEST SWAP3 POP POP DUP2 SWAP1 SSTORE POP PUSH2 0x66A4 PUSH8 0x2B5EFF5943A2B502 PUSH1 0xC0 SHL PUSH2 0x6EEE JUMP JUMPDEST PUSH2 0x66B8 PUSH8 0xA7192D10C8CA6A45 PUSH1 0xC0 SHL PUSH2 0x6EEE JUMP JUMPDEST PUSH2 0x66C4 CALLER PUSH1 0xFB SLOAD PUSH2 0x732D JUMP JUMPDEST PUSH2 0x66D8 PUSH8 0x94B6AF9525741FD4 PUSH1 0xC0 SHL PUSH2 0x6EEE JUMP JUMPDEST PUSH1 0x1 PUSH1 0xFE PUSH1 0x0 PUSH1 0x5 DUP2 MSTORE PUSH1 0x20 ADD SWAP1 DUP2 MSTORE PUSH1 0x20 ADD PUSH1 0x0 KECCAK256 PUSH1 0x3 ADD PUSH1 0x0 DUP3 DUP3 SLOAD PUSH2 0x6700 SWAP2 SWAP1 PUSH2 0x9456 JUMP JUMPDEST SWAP3 POP POP DUP2 SWAP1 SSTORE POP PUSH2 0x671B PUSH8 0x527FA02B80C7635 PUSH1 0xC0 SHL PUSH2 0x6EEE JUMP JUMPDEST PUSH1 0x1 PUSH1 0xFE PUSH1 0x0 PUSH1 0x5 DUP2 MSTORE PUSH1 0x20 ADD SWAP1 DUP2 MSTORE PUSH1 0x20 ADD PUSH1 0x0 KECCAK256 PUSH1 0x1 ADD PUSH1 0x0 DUP3 DUP3 SLOAD PUSH2 0x6743 SWAP2 SWAP1 PUSH2 0x9456 JUMP JUMPDEST SWAP3 POP POP DUP2 SWAP1 SSTORE POP PUSH2 0x675E PUSH8 0xB0BCB073FD759202 PUSH1 0xC0 SHL PUSH2 0x6EEE JUMP JUMPDEST PUSH2 0x6772 PUSH8 0xC04DA7A3345547AD PUSH1 0xC0 SHL PUSH2 0x6EEE JUMP JUMPDEST PUSH32 0xFD0EE44F1387730342D1E171EE76AA3F3117731C393ED73269B8C4D97BA2F47A CALLER PUSH1 0x5 DUP4 PUSH1 0xFB SLOAD DUP7 PUSH1 0x40 MLOAD PUSH2 0x67AC SWAP6 SWAP5 SWAP4 SWAP3 SWAP2 SWAP1 PUSH2 0xA7F2 JUMP JUMPDEST PUSH1 0x40 MLOAD DUP1 SWAP2 SUB SWAP1 LOG1 POP POP JUMP JUMPDEST PUSH1 0xFE PUSH1 0x20 MSTORE DUP1 PUSH1 0x0 MSTORE PUSH1 0x40 PUSH1 0x0 KECCAK256 PUSH1 0x0 SWAP2 POP SWAP1 POP DUP1 PUSH1 0x0 ADD SLOAD SWAP1 DUP1 PUSH1 0x1 ADD SLOAD SWAP1 DUP1 PUSH1 0x2 ADD SLOAD SWAP1 DUP1 PUSH1 0x3 ADD SLOAD SWAP1 POP DUP5 JUMP JUMPDEST PUSH2 0x67FC PUSH8 0xC1D2E690AC49294C PUSH1 0xC0 SHL PUSH2 0x6EEE JUMP JUMPDEST PUSH2 0x6810 PUSH8 0xF2D603D5A6666269 PUSH1 0xC0 SHL PUSH2 0x6EEE JUMP JUMPDEST PUSH2 0x6824 PUSH8 0xC815271C0681F3DD PUSH1 0xC0 SHL PUSH2 0x6EEE JUMP JUMPDEST PUSH2 0x6838 PUSH8 0x8EC540A8719C32CA PUSH1 0xC0 SHL PUSH2 0x6EEE JUMP JUMPDEST PUSH2 0x101 PUSH1 0x0 SWAP1 SLOAD SWAP1 PUSH2 0x100 EXP SWAP1 DIV PUSH20 0xFFFFFFFFFFFFFFFFFFFFFFFFFFFFFFFFFFFFFFFF AND PUSH20 0xFFFFFFFFFFFFFFFFFFFFFFFFFFFFFFFFFFFFFFFF AND CALLER PUSH20 0xFFFFFFFFFFFFFFFFFFFFFFFFFFFFFFFFFFFFFFFF AND EQ PUSH2 0x68C9 JUMPI PUSH1 0x40 MLOAD PUSH32 0x8C379A000000000000000000000000000000000000000000000000000000000 DUP2 MSTORE PUSH1 0x4 ADD PUSH2 0x68C0 SWAP1 PUSH2 0xA891 JUMP JUMPDEST PUSH1 0x40 MLOAD DUP1 SWAP2 SUB SWAP1 REVERT JUMPDEST PUSH2 0x68DD PUSH8 0x278CE6269740A4A3 PUSH1 0xC0 SHL PUSH2 0x6EEE JUMP JUMPDEST PUSH2 0x68F1 PUSH8 0xA89868643C200126 PUSH1 0xC0 SHL PUSH2 0x6EEE JUMP JUMPDEST DUP1 PUSH1 0xFE PUSH1 0x0 DUP6 DUP2 MSTORE PUSH1 0x20 ADD SWAP1 DUP2 MSTORE PUSH1 0x20 ADD PUSH1 0x0 KECCAK256 PUSH1 0x3 ADD PUSH1 0x0 DUP3 DUP3 SLOAD PUSH2 0x6917 SWAP2 SWAP1 PUSH2 0x9456 JUMP JUMPDEST SWAP3 POP POP DUP2 SWAP1 SSTORE POP PUSH2 0x6932 PUSH8 0x9BA13EFE6ACB2D84 PUSH1 0xC0 SHL PUSH2 0x6EEE JUMP JUMPDEST DUP1 PUSH2 0x109 PUSH1 0x0 DUP6 DUP2 MSTORE PUSH1 0x20 ADD SWAP1 DUP2 MSTORE PUSH1 0x20 ADD PUSH1 0x0 KECCAK256 PUSH1 0x0 DUP5 DUP2 MSTORE PUSH1 0x20 ADD SWAP1 DUP2 MSTORE PUSH1 0x20 ADD PUSH1 0x0 KECCAK256 PUSH1 0x2 ADD PUSH1 0x0 DUP3 DUP3 SLOAD PUSH2 0x696A SWAP2 SWAP1 PUSH2 0x9456 JUMP JUMPDEST SWAP3 POP POP DUP2 SWAP1 SSTORE POP POP POP POP JUMP JUMPDEST PUSH1 0x0 PUSH1 0x6A PUSH1 0x0 DUP5 PUSH20 0xFFFFFFFFFFFFFFFFFFFFFFFFFFFFFFFFFFFFFFFF AND PUSH20 0xFFFFFFFFFFFFFFFFFFFFFFFFFFFFFFFFFFFFFFFF AND DUP2 MSTORE PUSH1 0x20 ADD SWAP1 DUP2 MSTORE PUSH1 0x20 ADD PUSH1 0x0 KECCAK256 PUSH1 0x0 DUP4 PUSH20 0xFFFFFFFFFFFFFFFFFFFFFFFFFFFFFFFFFFFFFFFF AND PUSH20 0xFFFFFFFFFFFFFFFFFFFFFFFFFFFFFFFFFFFFFFFF AND DUP2 MSTORE PUSH1 0x20 ADD SWAP1 DUP2 MSTORE PUSH1 0x20 ADD PUSH1 0x0 KECCAK256 PUSH1 0x0 SWAP1 SLOAD SWAP1 PUSH2 0x100 EXP SWAP1 DIV PUSH1 0xFF AND SWAP1 POP SWAP3 SWAP2 POP POP JUMP JUMPDEST PUSH2 0x107 PUSH1 0x20 MSTORE DUP1 PUSH1 0x0 MSTORE PUSH1 0x40 PUSH1 0x0 KECCAK256 PUSH1 0x0 SWAP2 POP SLOAD SWAP1 PUSH2 0x100 EXP SWAP1 DIV PUSH1 0xFF AND DUP2 JUMP JUMPDEST PUSH2 0x6A3F PUSH8 0x358F6FA784612BE8 PUSH1 0xC0 SHL PUSH2 0x6EEE JUMP JUMPDEST PUSH2 0x6A53 PUSH8 0x6BC63E84E6FCD27A PUSH1 0xC0 SHL PUSH2 0x6EEE JUMP JUMPDEST PUSH2 0x6A67 PUSH8 0x57C7E26815238A22 PUSH1 0xC0 SHL PUSH2 0x6EEE JUMP JUMPDEST PUSH2 0x6A7B PUSH8 0x23F00BE284121B9F PUSH1 0xC0 SHL PUSH2 0x6EEE JUMP JUMPDEST PUSH1 0xFF PUSH1 0x0 PUSH1 0x3 DUP2 MSTORE PUSH1 0x20 ADD SWAP1 DUP2 MSTORE PUSH1 0x20 ADD PUSH1 0x0 KECCAK256 PUSH1 0x0 SWAP1 SLOAD SWAP1 PUSH2 0x100 EXP SWAP1 DIV PUSH1 0xFF AND DUP1 ISZERO PUSH2 0x6AD6 JUMPI POP PUSH1 0xFE PUSH1 0x0 PUSH1 0x3 DUP2 MSTORE PUSH1 0x20 ADD SWAP1 DUP2 MSTORE PUSH1 0x20 ADD PUSH1 0x0 KECCAK256 PUSH1 0x0 ADD SLOAD PUSH1 0xFE PUSH1 0x0 PUSH1 0x3 DUP2 MSTORE PUSH1 0x20 ADD SWAP1 DUP2 MSTORE PUSH1 0x20 ADD PUSH1 0x0 KECCAK256 PUSH1 0x1 ADD SLOAD LT JUMPDEST PUSH2 0x6B15 JUMPI PUSH1 0x40 MLOAD PUSH32 0x8C379A000000000000000000000000000000000000000000000000000000000 DUP2 MSTORE PUSH1 0x4 ADD PUSH2 0x6B0C SWAP1 PUSH2 0x9BE6 JUMP JUMPDEST PUSH1 0x40 MLOAD DUP1 SWAP2 SUB SWAP1 REVERT JUMPDEST PUSH2 0x6B29 PUSH8 0x3F8E7C62DFAD284D PUSH1 0xC0 SHL PUSH2 0x6EEE JUMP JUMPDEST PUSH2 0x6B3D PUSH8 0xD6A9D7A1AD5BAEA8 PUSH1 0xC0 SHL PUSH2 0x6EEE JUMP JUMPDEST PUSH2 0x6B51 PUSH8 0xF6C94CB94BCBFC58 PUSH1 0xC0 SHL PUSH2 0x6EEE JUMP JUMPDEST PUSH2 0x6B65 PUSH8 0x8DE59D2CA45DC7DF PUSH1 0xC0 SHL PUSH2 0x6EEE JUMP JUMPDEST PUSH2 0x102 PUSH1 0x0 CALLER PUSH20 0xFFFFFFFFFFFFFFFFFFFFFFFFFFFFFFFFFFFFFFFF AND PUSH20 0xFFFFFFFFFFFFFFFFFFFFFFFFFFFFFFFFFFFFFFFF AND DUP2 MSTORE PUSH1 0x20 ADD SWAP1 DUP2 MSTORE PUSH1 0x20 ADD PUSH1 0x0 KECCAK256 PUSH1 0x0 SWAP1 SLOAD SWAP1 PUSH2 0x100 EXP SWAP1 DIV PUSH1 0xFF AND PUSH2 0x6BF2 JUMPI PUSH1 0x40 MLOAD PUSH32 0x8C379A000000000000000000000000000000000000000000000000000000000 DUP2 MSTORE PUSH1 0x4 ADD PUSH2 0x6BE9 SWAP1 PUSH2 0xA1A4 JUMP JUMPDEST PUSH1 0x40 MLOAD DUP1 SWAP2 SUB SWAP1 REVERT JUMPDEST PUSH2 0x6C06 PUSH8 0xDBD8E76F7D6DBF4F PUSH1 0xC0 SHL PUSH2 0x6EEE JUMP JUMPDEST PUSH2 0x6C1A PUSH8 0x71D0BD03D946FD15 PUSH1 0xC0 SHL PUSH2 0x6EEE JUMP JUMPDEST PUSH1 0x0 PUSH2 0x102 PUSH1 0x0 CALLER PUSH20 0xFFFFFFFFFFFFFFFFFFFFFFFFFFFFFFFFFFFFFFFF AND PUSH20 0xFFFFFFFFFFFFFFFFFFFFFFFFFFFFFFFFFFFFFFFF AND DUP2 MSTORE PUSH1 0x20 ADD SWAP1 DUP2 MSTORE PUSH1 0x20 ADD PUSH1 0x0 KECCAK256 PUSH1 0x0 PUSH2 0x100 EXP DUP2 SLOAD DUP2 PUSH1 0xFF MUL NOT AND SWAP1 DUP4 ISZERO ISZERO MUL OR SWAP1 SSTORE POP PUSH2 0x6C87 PUSH8 0x1DC23ACAC19EAF82 PUSH1 0xC0 SHL PUSH2 0x6EEE JUMP JUMPDEST PUSH1 0x1 PUSH1 0xFB PUSH1 0x0 DUP3 DUP3 SLOAD PUSH2 0x6C9A SWAP2 SWAP1 PUSH2 0x9456 JUMP JUMPDEST SWAP3 POP POP DUP2 SWAP1 SSTORE POP PUSH2 0x6CB5 PUSH8 0xF978D351BF7E5F09 PUSH1 0xC0 SHL PUSH2 0x6EEE JUMP JUMPDEST PUSH2 0x6CC9 PUSH8 0x3E72D009E75BBE33 PUSH1 0xC0 SHL PUSH2 0x6EEE JUMP JUMPDEST PUSH2 0x6CD5 CALLER PUSH1 0xFB SLOAD PUSH2 0x732D JUMP JUMPDEST PUSH2 0x6CE9 PUSH8 0x7A3A5CF74DE79260 PUSH1 0xC0 SHL PUSH2 0x6EEE JUMP JUMPDEST PUSH1 0x1 PUSH1 0xFE PUSH1 0x0 PUSH1 0x3 DUP2 MSTORE PUSH1 0x20 ADD SWAP1 DUP2 MSTORE PUSH1 0x20 ADD PUSH1 0x0 KECCAK256 PUSH1 0x1 ADD PUSH1 0x0 DUP3 DUP3 SLOAD PUSH2 0x6D11 SWAP2 SWAP1 PUSH2 0x9456 JUMP JUMPDEST SWAP3 POP POP DUP2 SWAP1 SSTORE POP PUSH2 0x6D2C PUSH8 0xD827DF23F430113 PUSH1 0xC0 SHL PUSH2 0x6EEE JUMP JUMPDEST PUSH2 0x6D40 PUSH8 0x41D969E046BD547C PUSH1 0xC0 SHL PUSH2 0x6EEE JUMP JUMPDEST PUSH32 0xC4FE32DE0C7E52993D2F984DEE4A064F2BED825D11DC584CD80D7E5980D46304 CALLER PUSH1 0xFB SLOAD PUSH1 0x3 PUSH1 0x40 MLOAD PUSH2 0x6D76 SWAP4 SWAP3 SWAP2 SWAP1 PUSH2 0xA1FF JUMP JUMPDEST PUSH1 0x40 MLOAD DUP1 SWAP2 SUB SWAP1 LOG1 JUMP JUMPDEST PUSH2 0x6D94 PUSH8 0x89A9FE7407AFF208 PUSH1 0xC0 SHL PUSH2 0x6EEE JUMP JUMPDEST PUSH2 0x6D9C PUSH2 0x6EF1 JUMP JUMPDEST PUSH2 0x6DB0 PUSH8 0x32115796A01E2F79 PUSH1 0xC0 SHL PUSH2 0x6EEE JUMP JUMPDEST PUSH2 0x6DC4 PUSH8 0xEAEA0CB0F6319B66 PUSH1 0xC0 SHL PUSH2 0x6EEE JUMP JUMPDEST PUSH2 0x6DD8 PUSH8 0x7E0CF0CD1DC6327 PUSH1 0xC0 SHL PUSH2 0x6EEE JUMP JUMPDEST PUSH2 0x6DEC PUSH8 0x3E2AC98FCABF9158 PUSH1 0xC0 SHL PUSH2 0x6EEE JUMP JUMPDEST PUSH1 0x0 JUMPDEST DUP4 DUP4 SWAP1 POP DUP2 LT ISZERO PUSH2 0x6E65 JUMPI PUSH2 0x6E0E PUSH8 0xEFAA115D43E1ACBA PUSH1 0xC0 SHL PUSH2 0x6EEE JUMP JUMPDEST DUP2 PUSH1 0xFF PUSH1 0x0 DUP7 DUP7 DUP6 DUP2 DUP2 LT PUSH2 0x6E26 JUMPI PUSH2 0x6E25 PUSH2 0x9238 JUMP JUMPDEST JUMPDEST SWAP1 POP PUSH1 0x20 MUL ADD CALLDATALOAD DUP2 MSTORE PUSH1 0x20 ADD SWAP1 DUP2 MSTORE PUSH1 0x20 ADD PUSH1 0x0 KECCAK256 PUSH1 0x0 PUSH2 0x100 EXP DUP2 SLOAD DUP2 PUSH1 0xFF MUL NOT AND SWAP1 DUP4 ISZERO ISZERO MUL OR SWAP1 SSTORE POP DUP1 DUP1 PUSH2 0x6E5D SWAP1 PUSH2 0x9296 JUMP JUMPDEST SWAP2 POP POP PUSH2 0x6DEF JUMP JUMPDEST POP POP POP POP JUMP JUMPDEST PUSH2 0x6E73 PUSH2 0x6EF1 JUMP JUMPDEST PUSH1 0x0 PUSH20 0xFFFFFFFFFFFFFFFFFFFFFFFFFFFFFFFFFFFFFFFF AND DUP2 PUSH20 0xFFFFFFFFFFFFFFFFFFFFFFFFFFFFFFFFFFFFFFFF AND SUB PUSH2 0x6EE2 JUMPI PUSH1 0x40 MLOAD PUSH32 0x8C379A000000000000000000000000000000000000000000000000000000000 DUP2 MSTORE PUSH1 0x4 ADD PUSH2 0x6ED9 SWAP1 PUSH2 0xA923 JUMP JUMPDEST PUSH1 0x40 MLOAD DUP1 SWAP2 SUB SWAP1 REVERT JUMPDEST PUSH2 0x6EEB DUP2 PUSH2 0x7915 JUMP JUMPDEST POP JUMP JUMPDEST POP JUMP JUMPDEST PUSH2 0x6EF9 PUSH2 0x726C JUMP JUMPDEST PUSH20 0xFFFFFFFFFFFFFFFFFFFFFFFFFFFFFFFFFFFFFFFF AND PUSH2 0x6F17 PUSH2 0x4B40 JUMP JUMPDEST PUSH20 0xFFFFFFFFFFFFFFFFFFFFFFFFFFFFFFFFFFFFFFFF AND EQ PUSH2 0x6F6D JUMPI PUSH1 0x40 MLOAD PUSH32 0x8C379A000000000000000000000000000000000000000000000000000000000 DUP2 MSTORE PUSH1 0x4 ADD PUSH2 0x6F64 SWAP1 PUSH2 0xA98F JUMP JUMPDEST PUSH1 0x40 MLOAD DUP1 SWAP2 SUB SWAP1 REVERT JUMPDEST JUMP JUMPDEST PUSH1 0x0 PUSH32 0x1FFC9A700000000000000000000000000000000000000000000000000000000 PUSH28 0xFFFFFFFFFFFFFFFFFFFFFFFFFFFFFFFFFFFFFFFFFFFFFFFFFFFFFFFF NOT AND DUP3 PUSH28 0xFFFFFFFFFFFFFFFFFFFFFFFFFFFFFFFFFFFFFFFFFFFFFFFFFFFFFFFF NOT AND EQ SWAP1 POP SWAP2 SWAP1 POP JUMP JUMPDEST PUSH1 0x2 PUSH1 0xC9 SLOAD SUB PUSH2 0x701E JUMPI PUSH1 0x40 MLOAD PUSH32 0x8C379A000000000000000000000000000000000000000000000000000000000 DUP2 MSTORE PUSH1 0x4 ADD PUSH2 0x7015 SWAP1 PUSH2 0xA9FB JUMP JUMPDEST PUSH1 0x40 MLOAD DUP1 SWAP2 SUB SWAP1 REVERT JUMPDEST PUSH1 0x2 PUSH1 0xC9 DUP2 SWAP1 SSTORE POP JUMP JUMPDEST PUSH1 0x0 DUP1 PUSH1 0x0 PUSH2 0x7037 DUP6 DUP6 PUSH2 0x7DE4 JUMP JUMPDEST SWAP2 POP SWAP2 POP PUSH1 0x0 PUSH1 0x4 DUP2 GT ISZERO PUSH2 0x704F JUMPI PUSH2 0x704E PUSH2 0xAA1B JUMP JUMPDEST JUMPDEST DUP2 PUSH1 0x4 DUP2 GT ISZERO PUSH2 0x7062 JUMPI PUSH2 0x7061 PUSH2 0xAA1B JUMP JUMPDEST JUMPDEST EQ DUP1 ISZERO PUSH2 0x709A JUMPI POP DUP6 PUSH20 0xFFFFFFFFFFFFFFFFFFFFFFFFFFFFFFFFFFFFFFFF AND DUP3 PUSH20 0xFFFFFFFFFFFFFFFFFFFFFFFFFFFFFFFFFFFFFFFF AND EQ JUMPDEST ISZERO PUSH2 0x70AA JUMPI PUSH1 0x1 SWAP3 POP POP POP PUSH2 0x71E7 JUMP JUMPDEST PUSH1 0x0 DUP1 DUP8 PUSH20 0xFFFFFFFFFFFFFFFFFFFFFFFFFFFFFFFFFFFFFFFF AND PUSH4 0x1626BA7E PUSH1 0xE0 SHL DUP9 DUP9 PUSH1 0x40 MLOAD PUSH1 0x24 ADD PUSH2 0x70DF SWAP3 SWAP2 SWAP1 PUSH2 0xAA59 JUMP JUMPDEST PUSH1 0x40 MLOAD PUSH1 0x20 DUP2 DUP4 SUB SUB DUP2 MSTORE SWAP1 PUSH1 0x40 MSTORE SWAP1 PUSH28 0xFFFFFFFFFFFFFFFFFFFFFFFFFFFFFFFFFFFFFFFFFFFFFFFFFFFFFFFF NOT AND PUSH1 0x20 DUP3 ADD DUP1 MLOAD PUSH28 0xFFFFFFFFFFFFFFFFFFFFFFFFFFFFFFFFFFFFFFFFFFFFFFFFFFFFFFFF DUP4 DUP2 DUP4 AND OR DUP4 MSTORE POP POP POP POP PUSH1 0x40 MLOAD PUSH2 0x7149 SWAP2 SWAP1 PUSH2 0x9325 JUMP JUMPDEST PUSH1 0x0 PUSH1 0x40 MLOAD DUP1 DUP4 SUB DUP2 DUP6 GAS STATICCALL SWAP2 POP POP RETURNDATASIZE DUP1 PUSH1 0x0 DUP2 EQ PUSH2 0x7184 JUMPI PUSH1 0x40 MLOAD SWAP2 POP PUSH1 0x1F NOT PUSH1 0x3F RETURNDATASIZE ADD AND DUP3 ADD PUSH1 0x40 MSTORE RETURNDATASIZE DUP3 MSTORE RETURNDATASIZE PUSH1 0x0 PUSH1 0x20 DUP5 ADD RETURNDATACOPY PUSH2 0x7189 JUMP JUMPDEST PUSH1 0x60 SWAP2 POP JUMPDEST POP SWAP2 POP SWAP2 POP DUP2 DUP1 ISZERO PUSH2 0x719C JUMPI POP PUSH1 0x20 DUP2 MLOAD EQ JUMPDEST DUP1 ISZERO PUSH2 0x71E0 JUMPI POP PUSH4 0x1626BA7E PUSH1 0xE0 SHL PUSH28 0xFFFFFFFFFFFFFFFFFFFFFFFFFFFFFFFFFFFFFFFFFFFFFFFFFFFFFFFF NOT AND DUP2 DUP1 PUSH1 0x20 ADD SWAP1 MLOAD DUP2 ADD SWAP1 PUSH2 0x71DE SWAP2 SWAP1 PUSH2 0xAA9E JUMP JUMPDEST EQ JUMPDEST SWAP5 POP POP POP POP POP JUMPDEST SWAP4 SWAP3 POP POP POP JUMP JUMPDEST PUSH1 0x0 PUSH1 0x1 SWAP1 POP SWAP2 SWAP1 POP JUMP JUMPDEST PUSH2 0x7213 DUP3 DUP3 PUSH1 0x40 MLOAD DUP1 PUSH1 0x20 ADD PUSH1 0x40 MSTORE DUP1 PUSH1 0x0 DUP2 MSTORE POP PUSH2 0x7E35 JUMP JUMPDEST POP POP JUMP JUMPDEST PUSH1 0x1 PUSH1 0xC9 DUP2 SWAP1 SSTORE POP JUMP JUMPDEST PUSH2 0x722A DUP2 PUSH2 0x7CD5 JUMP JUMPDEST PUSH2 0x7269 JUMPI PUSH1 0x40 MLOAD PUSH32 0x8C379A000000000000000000000000000000000000000000000000000000000 DUP2 MSTORE PUSH1 0x4 ADD PUSH2 0x7260 SWAP1 PUSH2 0xA282 JUMP JUMPDEST PUSH1 0x40 MLOAD DUP1 SWAP2 SUB SWAP1 REVERT JUMPDEST POP JUMP JUMPDEST PUSH1 0x0 CALLER SWAP1 POP SWAP1 JUMP JUMPDEST DUP2 PUSH1 0x69 PUSH1 0x0 DUP4 DUP2 MSTORE PUSH1 0x20 ADD SWAP1 DUP2 MSTORE PUSH1 0x20 ADD PUSH1 0x0 KECCAK256 PUSH1 0x0 PUSH2 0x100 EXP DUP2 SLOAD DUP2 PUSH20 0xFFFFFFFFFFFFFFFFFFFFFFFFFFFFFFFFFFFFFFFF MUL NOT AND SWAP1 DUP4 PUSH20 0xFFFFFFFFFFFFFFFFFFFFFFFFFFFFFFFFFFFFFFFF AND MUL OR SWAP1 SSTORE POP DUP1 DUP3 PUSH20 0xFFFFFFFFFFFFFFFFFFFFFFFFFFFFFFFFFFFFFFFF AND PUSH2 0x72E7 DUP4 PUSH2 0x3AA3 JUMP JUMPDEST PUSH20 0xFFFFFFFFFFFFFFFFFFFFFFFFFFFFFFFFFFFFFFFF AND PUSH32 0x8C5BE1E5EBEC7D5BD14F71427D1E84F3DD0314C0F7B2291E5B200AC8C7C3B925 PUSH1 0x40 MLOAD PUSH1 0x40 MLOAD DUP1 SWAP2 SUB SWAP1 LOG4 POP POP JUMP JUMPDEST PUSH1 0x0 PUSH20 0xFFFFFFFFFFFFFFFFFFFFFFFFFFFFFFFFFFFFFFFF AND DUP3 PUSH20 0xFFFFFFFFFFFFFFFFFFFFFFFFFFFFFFFFFFFFFFFF AND SUB PUSH2 0x739C JUMPI PUSH1 0x40 MLOAD PUSH32 0x8C379A000000000000000000000000000000000000000000000000000000000 DUP2 MSTORE PUSH1 0x4 ADD PUSH2 0x7393 SWAP1 PUSH2 0xAB17 JUMP JUMPDEST PUSH1 0x40 MLOAD DUP1 SWAP2 SUB SWAP1 REVERT JUMPDEST PUSH2 0x73A5 DUP2 PUSH2 0x7CD5 JUMP JUMPDEST ISZERO PUSH2 0x73E5 JUMPI PUSH1 0x40 MLOAD PUSH32 0x8C379A000000000000000000000000000000000000000000000000000000000 DUP2 MSTORE PUSH1 0x4 ADD PUSH2 0x73DC SWAP1 PUSH2 0xAB83 JUMP JUMPDEST PUSH1 0x40 MLOAD DUP1 SWAP2 SUB SWAP1 REVERT JUMPDEST PUSH2 0x73F3 PUSH1 0x0 DUP4 DUP4 PUSH1 0x1 PUSH2 0x7E90 JUMP JUMPDEST PUSH2 0x73FC DUP2 PUSH2 0x7CD5 JUMP JUMPDEST ISZERO PUSH2 0x743C JUMPI PUSH1 0x40 MLOAD PUSH32 0x8C379A000000000000000000000000000000000000000000000000000000000 DUP2 MSTORE PUSH1 0x4 ADD PUSH2 0x7433 SWAP1 PUSH2 0xAB83 JUMP JUMPDEST PUSH1 0x40 MLOAD DUP1 SWAP2 SUB SWAP1 REVERT JUMPDEST PUSH1 0x1 PUSH1 0x68 PUSH1 0x0 DUP5 PUSH20 0xFFFFFFFFFFFFFFFFFFFFFFFFFFFFFFFFFFFFFFFF AND PUSH20 0xFFFFFFFFFFFFFFFFFFFFFFFFFFFFFFFFFFFFFFFF AND DUP2 MSTORE PUSH1 0x20 ADD SWAP1 DUP2 MSTORE PUSH1 0x20 ADD PUSH1 0x0 KECCAK256 PUSH1 0x0 DUP3 DUP3 SLOAD ADD SWAP3 POP POP DUP2 SWAP1 SSTORE POP DUP2 PUSH1 0x67 PUSH1 0x0 DUP4 DUP2 MSTORE PUSH1 0x20 ADD SWAP1 DUP2 MSTORE PUSH1 0x20 ADD PUSH1 0x0 KECCAK256 PUSH1 0x0 PUSH2 0x100 EXP DUP2 SLOAD DUP2 PUSH20 0xFFFFFFFFFFFFFFFFFFFFFFFFFFFFFFFFFFFFFFFF MUL NOT AND SWAP1 DUP4 PUSH20 0xFFFFFFFFFFFFFFFFFFFFFFFFFFFFFFFFFFFFFFFF AND MUL OR SWAP1 SSTORE POP DUP1 DUP3 PUSH20 0xFFFFFFFFFFFFFFFFFFFFFFFFFFFFFFFFFFFFFFFF AND PUSH1 0x0 PUSH20 0xFFFFFFFFFFFFFFFFFFFFFFFFFFFFFFFFFFFFFFFF AND PUSH32 0xDDF252AD1BE2C89B69C2B068FC378DAA952BA7F163C4A11628F55A4DF523B3EF PUSH1 0x40 MLOAD PUSH1 0x40 MLOAD DUP1 SWAP2 SUB SWAP1 LOG4 PUSH2 0x7546 PUSH1 0x0 DUP4 DUP4 PUSH1 0x1 PUSH2 0x7E96 JUMP JUMPDEST POP POP JUMP JUMPDEST PUSH1 0x0 DUP1 PUSH2 0x7556 DUP4 PUSH2 0x3AA3 JUMP JUMPDEST SWAP1 POP DUP1 PUSH20 0xFFFFFFFFFFFFFFFFFFFFFFFFFFFFFFFFFFFFFFFF AND DUP5 PUSH20 0xFFFFFFFFFFFFFFFFFFFFFFFFFFFFFFFFFFFFFFFF AND EQ DUP1 PUSH2 0x7598 JUMPI POP PUSH2 0x7597 DUP2 DUP6 PUSH2 0x6976 JUMP JUMPDEST JUMPDEST DUP1 PUSH2 0x75D6 JUMPI POP DUP4 PUSH20 0xFFFFFFFFFFFFFFFFFFFFFFFFFFFFFFFFFFFFFFFF AND PUSH2 0x75BE DUP5 PUSH2 0x1EC9 JUMP JUMPDEST PUSH20 0xFFFFFFFFFFFFFFFFFFFFFFFFFFFFFFFFFFFFFFFF AND EQ JUMPDEST SWAP2 POP POP SWAP3 SWAP2 POP POP JUMP JUMPDEST DUP3 PUSH20 0xFFFFFFFFFFFFFFFFFFFFFFFFFFFFFFFFFFFFFFFF AND PUSH2 0x75FF DUP3 PUSH2 0x3AA3 JUMP JUMPDEST PUSH20 0xFFFFFFFFFFFFFFFFFFFFFFFFFFFFFFFFFFFFFFFF AND EQ PUSH2 0x7655 JUMPI PUSH1 0x40 MLOAD PUSH32 0x8C379A000000000000000000000000000000000000000000000000000000000 DUP2 MSTORE PUSH1 0x4 ADD PUSH2 0x764C SWAP1 PUSH2 0xAC15 JUMP JUMPDEST PUSH1 0x40 MLOAD DUP1 SWAP2 SUB SWAP1 REVERT JUMPDEST PUSH1 0x0 PUSH20 0xFFFFFFFFFFFFFFFFFFFFFFFFFFFFFFFFFFFFFFFF AND DUP3 PUSH20 0xFFFFFFFFFFFFFFFFFFFFFFFFFFFFFFFFFFFFFFFF AND SUB PUSH2 0x76C4 JUMPI PUSH1 0x40 MLOAD PUSH32 0x8C379A000000000000000000000000000000000000000000000000000000000 DUP2 MSTORE PUSH1 0x4 ADD PUSH2 0x76BB SWAP1 PUSH2 0xACA7 JUMP JUMPDEST PUSH1 0x40 MLOAD DUP1 SWAP2 SUB SWAP1 REVERT JUMPDEST PUSH2 0x76D1 DUP4 DUP4 DUP4 PUSH1 0x1 PUSH2 0x7E90 JUMP JUMPDEST DUP3 PUSH20 0xFFFFFFFFFFFFFFFFFFFFFFFFFFFFFFFFFFFFFFFF AND PUSH2 0x76F1 DUP3 PUSH2 0x3AA3 JUMP JUMPDEST PUSH20 0xFFFFFFFFFFFFFFFFFFFFFFFFFFFFFFFFFFFFFFFF AND EQ PUSH2 0x7747 JUMPI PUSH1 0x40 MLOAD PUSH32 0x8C379A000000000000000000000000000000000000000000000000000000000 DUP2 MSTORE PUSH1 0x4 ADD PUSH2 0x773E SWAP1 PUSH2 0xAC15 JUMP JUMPDEST PUSH1 0x40 MLOAD DUP1 SWAP2 SUB SWAP1 REVERT JUMPDEST PUSH1 0x69 PUSH1 0x0 DUP3 DUP2 MSTORE PUSH1 0x20 ADD SWAP1 DUP2 MSTORE PUSH1 0x20 ADD PUSH1 0x0 KECCAK256 PUSH1 0x0 PUSH2 0x100 EXP DUP2 SLOAD SWAP1 PUSH20 0xFFFFFFFFFFFFFFFFFFFFFFFFFFFFFFFFFFFFFFFF MUL NOT AND SWAP1 SSTORE PUSH1 0x1 PUSH1 0x68 PUSH1 0x0 DUP6 PUSH20 0xFFFFFFFFFFFFFFFFFFFFFFFFFFFFFFFFFFFFFFFF AND PUSH20 0xFFFFFFFFFFFFFFFFFFFFFFFFFFFFFFFFFFFFFFFF AND DUP2 MSTORE PUSH1 0x20 ADD SWAP1 DUP2 MSTORE PUSH1 0x20 ADD PUSH1 0x0 KECCAK256 PUSH1 0x0 DUP3 DUP3 SLOAD SUB SWAP3 POP POP DUP2 SWAP1 SSTORE POP PUSH1 0x1 PUSH1 0x68 PUSH1 0x0 DUP5 PUSH20 0xFFFFFFFFFFFFFFFFFFFFFFFFFFFFFFFFFFFFFFFF AND PUSH20 0xFFFFFFFFFFFFFFFFFFFFFFFFFFFFFFFFFFFFFFFF AND DUP2 MSTORE PUSH1 0x20 ADD SWAP1 DUP2 MSTORE PUSH1 0x20 ADD PUSH1 0x0 KECCAK256 PUSH1 0x0 DUP3 DUP3 SLOAD ADD SWAP3 POP POP DUP2 SWAP1 SSTORE POP DUP2 PUSH1 0x67 PUSH1 0x0 DUP4 DUP2 MSTORE PUSH1 0x20 ADD SWAP1 DUP2 MSTORE PUSH1 0x20 ADD PUSH1 0x0 KECCAK256 PUSH1 0x0 PUSH2 0x100 EXP DUP2 SLOAD DUP2 PUSH20 0xFFFFFFFFFFFFFFFFFFFFFFFFFFFFFFFFFFFFFFFF MUL NOT AND SWAP1 DUP4 PUSH20 0xFFFFFFFFFFFFFFFFFFFFFFFFFFFFFFFFFFFFFFFF AND MUL OR SWAP1 SSTORE POP DUP1 DUP3 PUSH20 0xFFFFFFFFFFFFFFFFFFFFFFFFFFFFFFFFFFFFFFFF AND DUP5 PUSH20 0xFFFFFFFFFFFFFFFFFFFFFFFFFFFFFFFFFFFFFFFF AND PUSH32 0xDDF252AD1BE2C89B69C2B068FC378DAA952BA7F163C4A11628F55A4DF523B3EF PUSH1 0x40 MLOAD PUSH1 0x40 MLOAD DUP1 SWAP2 SUB SWAP1 LOG4 PUSH2 0x78D3 DUP4 DUP4 DUP4 PUSH1 0x1 PUSH2 0x7E96 JUMP JUMPDEST POP POP POP JUMP JUMPDEST PUSH1 0x0 PUSH1 0x67 PUSH1 0x0 DUP4 DUP2 MSTORE PUSH1 0x20 ADD SWAP1 DUP2 MSTORE PUSH1 0x20 ADD PUSH1 0x0 KECCAK256 PUSH1 0x0 SWAP1 SLOAD SWAP1 PUSH2 0x100 EXP SWAP1 DIV PUSH20 0xFFFFFFFFFFFFFFFFFFFFFFFFFFFFFFFFFFFFFFFF AND SWAP1 POP SWAP2 SWAP1 POP JUMP JUMPDEST PUSH1 0x0 PUSH1 0x97 PUSH1 0x0 SWAP1 SLOAD SWAP1 PUSH2 0x100 EXP SWAP1 DIV PUSH20 0xFFFFFFFFFFFFFFFFFFFFFFFFFFFFFFFFFFFFFFFF AND SWAP1 POP DUP2 PUSH1 0x97 PUSH1 0x0 PUSH2 0x100 EXP DUP2 SLOAD DUP2 PUSH20 0xFFFFFFFFFFFFFFFFFFFFFFFFFFFFFFFFFFFFFFFF MUL NOT AND SWAP1 DUP4 PUSH20 0xFFFFFFFFFFFFFFFFFFFFFFFFFFFFFFFFFFFFFFFF AND MUL OR SWAP1 SSTORE POP DUP2 PUSH20 0xFFFFFFFFFFFFFFFFFFFFFFFFFFFFFFFFFFFFFFFF AND DUP2 PUSH20 0xFFFFFFFFFFFFFFFFFFFFFFFFFFFFFFFFFFFFFFFF AND PUSH32 0x8BE0079C531659141344CD1FD0A4F28419497F9722A3DAAFE3B4186F6B6457E0 PUSH1 0x40 MLOAD PUSH1 0x40 MLOAD DUP1 SWAP2 SUB SWAP1 LOG3 POP POP JUMP JUMPDEST PUSH1 0x0 DUP1 DUP3 PUSH20 0xFFFFFFFFFFFFFFFFFFFFFFFFFFFFFFFFFFFFFFFF AND EXTCODESIZE GT SWAP1 POP SWAP2 SWAP1 POP JUMP JUMPDEST PUSH1 0x0 PUSH1 0x1 SWAP1 SLOAD SWAP1 PUSH2 0x100 EXP SWAP1 DIV PUSH1 0xFF AND PUSH2 0x7A4D JUMPI PUSH1 0x40 MLOAD PUSH32 0x8C379A000000000000000000000000000000000000000000000000000000000 DUP2 MSTORE PUSH1 0x4 ADD PUSH2 0x7A44 SWAP1 PUSH2 0xAD39 JUMP JUMPDEST PUSH1 0x40 MLOAD DUP1 SWAP2 SUB SWAP1 REVERT JUMPDEST PUSH2 0x7A57 DUP3 DUP3 PUSH2 0x7E9C JUMP JUMPDEST POP POP JUMP JUMPDEST PUSH1 0x0 PUSH1 0x1 SWAP1 SLOAD SWAP1 PUSH2 0x100 EXP SWAP1 DIV PUSH1 0xFF AND PUSH2 0x7AAA JUMPI PUSH1 0x40 MLOAD PUSH32 0x8C379A000000000000000000000000000000000000000000000000000000000 DUP2 MSTORE PUSH1 0x4 ADD PUSH2 0x7AA1 SWAP1 PUSH2 0xAD39 JUMP JUMPDEST PUSH1 0x40 MLOAD DUP1 SWAP2 SUB SWAP1 REVERT JUMPDEST PUSH2 0x7AB2 PUSH2 0x7F0F JUMP JUMPDEST JUMP JUMPDEST PUSH1 0x0 PUSH1 0x1 SWAP1 SLOAD SWAP1 PUSH2 0x100 EXP SWAP1 DIV PUSH1 0xFF AND PUSH2 0x7B03 JUMPI PUSH1 0x40 MLOAD PUSH32 0x8C379A000000000000000000000000000000000000000000000000000000000 DUP2 MSTORE PUSH1 0x4 ADD PUSH2 0x7AFA SWAP1 PUSH2 0xAD39 JUMP JUMPDEST PUSH1 0x40 MLOAD DUP1 SWAP2 SUB SWAP1 REVERT JUMPDEST PUSH2 0x7B0B PUSH2 0x7F70 JUMP JUMPDEST JUMP JUMPDEST PUSH2 0x7B18 DUP5 DUP5 DUP5 PUSH2 0x75DF JUMP JUMPDEST PUSH2 0x7B24 DUP5 DUP5 DUP5 DUP5 PUSH2 0x7FC9 JUMP JUMPDEST PUSH2 0x7B63 JUMPI PUSH1 0x40 MLOAD PUSH32 0x8C379A000000000000000000000000000000000000000000000000000000000 DUP2 MSTORE PUSH1 0x4 ADD PUSH2 0x7B5A SWAP1 PUSH2 0xADCB JUMP JUMPDEST PUSH1 0x40 MLOAD DUP1 SWAP2 SUB SWAP1 REVERT JUMPDEST POP POP POP POP JUMP JUMPDEST DUP2 PUSH20 0xFFFFFFFFFFFFFFFFFFFFFFFFFFFFFFFFFFFFFFFF AND DUP4 PUSH20 0xFFFFFFFFFFFFFFFFFFFFFFFFFFFFFFFFFFFFFFFF AND SUB PUSH2 0x7BD7 JUMPI PUSH1 0x40 MLOAD PUSH32 0x8C379A000000000000000000000000000000000000000000000000000000000 DUP2 MSTORE PUSH1 0x4 ADD PUSH2 0x7BCE SWAP1 PUSH2 0xAE37 JUMP JUMPDEST PUSH1 0x40 MLOAD DUP1 SWAP2 SUB SWAP1 REVERT JUMPDEST DUP1 PUSH1 0x6A PUSH1 0x0 DUP6 PUSH20 0xFFFFFFFFFFFFFFFFFFFFFFFFFFFFFFFFFFFFFFFF AND PUSH20 0xFFFFFFFFFFFFFFFFFFFFFFFFFFFFFFFFFFFFFFFF AND DUP2 MSTORE PUSH1 0x20 ADD SWAP1 DUP2 MSTORE PUSH1 0x20 ADD PUSH1 0x0 KECCAK256 PUSH1 0x0 DUP5 PUSH20 0xFFFFFFFFFFFFFFFFFFFFFFFFFFFFFFFFFFFFFFFF AND PUSH20 0xFFFFFFFFFFFFFFFFFFFFFFFFFFFFFFFFFFFFFFFF AND DUP2 MSTORE PUSH1 0x20 ADD SWAP1 DUP2 MSTORE PUSH1 0x20 ADD PUSH1 0x0 KECCAK256 PUSH1 0x0 PUSH2 0x100 EXP DUP2 SLOAD DUP2 PUSH1 0xFF MUL NOT AND SWAP1 DUP4 ISZERO ISZERO MUL OR SWAP1 SSTORE POP DUP2 PUSH20 0xFFFFFFFFFFFFFFFFFFFFFFFFFFFFFFFFFFFFFFFF AND DUP4 PUSH20 0xFFFFFFFFFFFFFFFFFFFFFFFFFFFFFFFFFFFFFFFF AND PUSH32 0x17307EAB39AB6107E8899845AD3D59BD9653F200F220920489CA2B5937696C31 DUP4 PUSH1 0x40 MLOAD PUSH2 0x7CC8 SWAP2 SWAP1 PUSH2 0x85D0 JUMP JUMPDEST PUSH1 0x40 MLOAD DUP1 SWAP2 SUB SWAP1 LOG3 POP POP POP JUMP JUMPDEST PUSH1 0x0 DUP1 PUSH20 0xFFFFFFFFFFFFFFFFFFFFFFFFFFFFFFFFFFFFFFFF AND PUSH2 0x7CF7 DUP4 PUSH2 0x78D8 JUMP JUMPDEST PUSH20 0xFFFFFFFFFFFFFFFFFFFFFFFFFFFFFFFFFFFFFFFF AND EQ ISZERO SWAP1 POP SWAP2 SWAP1 POP JUMP JUMPDEST PUSH1 0x60 PUSH1 0x0 PUSH1 0x1 PUSH2 0x7D25 DUP5 PUSH2 0x8150 JUMP JUMPDEST ADD SWAP1 POP PUSH1 0x0 DUP2 PUSH8 0xFFFFFFFFFFFFFFFF DUP2 GT ISZERO PUSH2 0x7D44 JUMPI PUSH2 0x7D43 PUSH2 0x8625 JUMP JUMPDEST JUMPDEST PUSH1 0x40 MLOAD SWAP1 DUP1 DUP3 MSTORE DUP1 PUSH1 0x1F ADD PUSH1 0x1F NOT AND PUSH1 0x20 ADD DUP3 ADD PUSH1 0x40 MSTORE DUP1 ISZERO PUSH2 0x7D76 JUMPI DUP2 PUSH1 0x20 ADD PUSH1 0x1 DUP3 MUL DUP1 CALLDATASIZE DUP4 CALLDATACOPY DUP1 DUP3 ADD SWAP2 POP POP SWAP1 POP JUMPDEST POP SWAP1 POP PUSH1 0x0 DUP3 PUSH1 0x20 ADD DUP3 ADD SWAP1 POP JUMPDEST PUSH1 0x1 ISZERO PUSH2 0x7DD9 JUMPI DUP1 DUP1 PUSH1 0x1 SWAP1 SUB SWAP2 POP POP PUSH32 0x3031323334353637383961626364656600000000000000000000000000000000 PUSH1 0xA DUP7 MOD BYTE DUP2 MSTORE8 PUSH1 0xA DUP6 DUP2 PUSH2 0x7DCD JUMPI PUSH2 0x7DCC PUSH2 0xA0D2 JUMP JUMPDEST JUMPDEST DIV SWAP5 POP PUSH1 0x0 DUP6 SUB PUSH2 0x7D84 JUMPI JUMPDEST DUP2 SWAP4 POP POP POP POP SWAP2 SWAP1 POP JUMP JUMPDEST PUSH1 0x0 DUP1 PUSH1 0x41 DUP4 MLOAD SUB PUSH2 0x7E25 JUMPI PUSH1 0x0 DUP1 PUSH1 0x0 PUSH1 0x20 DUP7 ADD MLOAD SWAP3 POP PUSH1 0x40 DUP7 ADD MLOAD SWAP2 POP PUSH1 0x60 DUP7 ADD MLOAD PUSH1 0x0 BYTE SWAP1 POP PUSH2 0x7E19 DUP8 DUP3 DUP6 DUP6 PUSH2 0x82A3 JUMP JUMPDEST SWAP5 POP SWAP5 POP POP POP POP PUSH2 0x7E2E JUMP JUMPDEST PUSH1 0x0 PUSH1 0x2 SWAP2 POP SWAP2 POP JUMPDEST SWAP3 POP SWAP3 SWAP1 POP JUMP JUMPDEST PUSH2 0x7E3F DUP4 DUP4 PUSH2 0x732D JUMP JUMPDEST PUSH2 0x7E4C PUSH1 0x0 DUP5 DUP5 DUP5 PUSH2 0x7FC9 JUMP JUMPDEST PUSH2 0x7E8B JUMPI PUSH1 0x40 MLOAD PUSH32 0x8C379A000000000000000000000000000000000000000000000000000000000 DUP2 MSTORE PUSH1 0x4 ADD PUSH2 0x7E82 SWAP1 PUSH2 0xADCB JUMP JUMPDEST PUSH1 0x40 MLOAD DUP1 SWAP2 SUB SWAP1 REVERT JUMPDEST POP POP POP JUMP JUMPDEST POP POP POP POP JUMP JUMPDEST POP POP POP POP JUMP JUMPDEST PUSH1 0x0 PUSH1 0x1 SWAP1 SLOAD SWAP1 PUSH2 0x100 EXP SWAP1 DIV PUSH1 0xFF AND PUSH2 0x7EEB JUMPI PUSH1 0x40 MLOAD PUSH32 0x8C379A000000000000000000000000000000000000000000000000000000000 DUP2 MSTORE PUSH1 0x4 ADD PUSH2 0x7EE2 SWAP1 PUSH2 0xAD39 JUMP JUMPDEST PUSH1 0x40 MLOAD DUP1 SWAP2 SUB SWAP1 REVERT JUMPDEST DUP2 PUSH1 0x65 SWAP1 DUP2 PUSH2 0x7EFA SWAP2 SWAP1 PUSH2 0x978A JUMP JUMPDEST POP DUP1 PUSH1 0x66 SWAP1 DUP2 PUSH2 0x7F0A SWAP2 SWAP1 PUSH2 0x978A JUMP JUMPDEST POP POP POP JUMP JUMPDEST PUSH1 0x0 PUSH1 0x1 SWAP1 SLOAD SWAP1 PUSH2 0x100 EXP SWAP1 DIV PUSH1 0xFF AND PUSH2 0x7F5E JUMPI PUSH1 0x40 MLOAD PUSH32 0x8C379A000000000000000000000000000000000000000000000000000000000 DUP2 MSTORE PUSH1 0x4 ADD PUSH2 0x7F55 SWAP1 PUSH2 0xAD39 JUMP JUMPDEST PUSH1 0x40 MLOAD DUP1 SWAP2 SUB SWAP1 REVERT JUMPDEST PUSH2 0x7F6E PUSH2 0x7F69 PUSH2 0x726C JUMP JUMPDEST PUSH2 0x7915 JUMP JUMPDEST JUMP JUMPDEST PUSH1 0x0 PUSH1 0x1 SWAP1 SLOAD SWAP1 PUSH2 0x100 EXP SWAP1 DIV PUSH1 0xFF AND PUSH2 0x7FBF JUMPI PUSH1 0x40 MLOAD PUSH32 0x8C379A000000000000000000000000000000000000000000000000000000000 DUP2 MSTORE PUSH1 0x4 ADD PUSH2 0x7FB6 SWAP1 PUSH2 0xAD39 JUMP JUMPDEST PUSH1 0x40 MLOAD DUP1 SWAP2 SUB SWAP1 REVERT JUMPDEST PUSH1 0x1 PUSH1 0xC9 DUP2 SWAP1 SSTORE POP JUMP JUMPDEST PUSH1 0x0 PUSH2 0x7FEA DUP5 PUSH20 0xFFFFFFFFFFFFFFFFFFFFFFFFFFFFFFFFFFFFFFFF AND PUSH2 0x79DB JUMP JUMPDEST ISZERO PUSH2 0x8143 JUMPI DUP4 PUSH20 0xFFFFFFFFFFFFFFFFFFFFFFFFFFFFFFFFFFFFFFFF AND PUSH4 0x150B7A02 PUSH2 0x8013 PUSH2 0x726C JUMP JUMPDEST DUP8 DUP7 DUP7 PUSH1 0x40 MLOAD DUP6 PUSH4 0xFFFFFFFF AND PUSH1 0xE0 SHL DUP2 MSTORE PUSH1 0x4 ADD PUSH2 0x8035 SWAP5 SWAP4 SWAP3 SWAP2 SWAP1 PUSH2 0xAE57 JUMP JUMPDEST PUSH1 0x20 PUSH1 0x40 MLOAD DUP1 DUP4 SUB DUP2 PUSH1 0x0 DUP8 GAS CALL SWAP3 POP POP POP DUP1 ISZERO PUSH2 0x8071 JUMPI POP PUSH1 0x40 MLOAD RETURNDATASIZE PUSH1 0x1F NOT PUSH1 0x1F DUP3 ADD AND DUP3 ADD DUP1 PUSH1 0x40 MSTORE POP DUP2 ADD SWAP1 PUSH2 0x806E SWAP2 SWAP1 PUSH2 0xAEB8 JUMP JUMPDEST PUSH1 0x1 JUMPDEST PUSH2 0x80F3 JUMPI RETURNDATASIZE DUP1 PUSH1 0x0 DUP2 EQ PUSH2 0x80A1 JUMPI PUSH1 0x40 MLOAD SWAP2 POP PUSH1 0x1F NOT PUSH1 0x3F RETURNDATASIZE ADD AND DUP3 ADD PUSH1 0x40 MSTORE RETURNDATASIZE DUP3 MSTORE RETURNDATASIZE PUSH1 0x0 PUSH1 0x20 DUP5 ADD RETURNDATACOPY PUSH2 0x80A6 JUMP JUMPDEST PUSH1 0x60 SWAP2 POP JUMPDEST POP PUSH1 0x0 DUP2 MLOAD SUB PUSH2 0x80EB JUMPI PUSH1 0x40 MLOAD PUSH32 0x8C379A000000000000000000000000000000000000000000000000000000000 DUP2 MSTORE PUSH1 0x4 ADD PUSH2 0x80E2 SWAP1 PUSH2 0xADCB JUMP JUMPDEST PUSH1 0x40 MLOAD DUP1 SWAP2 SUB SWAP1 REVERT JUMPDEST DUP1 MLOAD DUP2 PUSH1 0x20 ADD REVERT JUMPDEST PUSH4 0x150B7A02 PUSH1 0xE0 SHL PUSH28 0xFFFFFFFFFFFFFFFFFFFFFFFFFFFFFFFFFFFFFFFFFFFFFFFFFFFFFFFF NOT AND DUP2 PUSH28 0xFFFFFFFFFFFFFFFFFFFFFFFFFFFFFFFFFFFFFFFFFFFFFFFFFFFFFFFF NOT AND EQ SWAP2 POP POP PUSH2 0x8148 JUMP JUMPDEST PUSH1 0x1 SWAP1 POP JUMPDEST SWAP5 SWAP4 POP POP POP POP JUMP JUMPDEST PUSH1 0x0 DUP1 PUSH1 0x0 SWAP1 POP PUSH27 0x184F03E93FF9F4DAA797ED6E38ED64BF6A1F010000000000000000 DUP4 LT PUSH2 0x81AE JUMPI PUSH27 0x184F03E93FF9F4DAA797ED6E38ED64BF6A1F010000000000000000 DUP4 DUP2 PUSH2 0x81A4 JUMPI PUSH2 0x81A3 PUSH2 0xA0D2 JUMP JUMPDEST JUMPDEST DIV SWAP3 POP PUSH1 0x40 DUP2 ADD SWAP1 POP JUMPDEST PUSH14 0x4EE2D6D415B85ACEF8100000000 DUP4 LT PUSH2 0x81EB JUMPI PUSH14 0x4EE2D6D415B85ACEF8100000000 DUP4 DUP2 PUSH2 0x81E1 JUMPI PUSH2 0x81E0 PUSH2 0xA0D2 JUMP JUMPDEST JUMPDEST DIV SWAP3 POP PUSH1 0x20 DUP2 ADD SWAP1 POP JUMPDEST PUSH7 0x2386F26FC10000 DUP4 LT PUSH2 0x821A JUMPI PUSH7 0x2386F26FC10000 DUP4 DUP2 PUSH2 0x8210 JUMPI PUSH2 0x820F PUSH2 0xA0D2 JUMP JUMPDEST JUMPDEST DIV SWAP3 POP PUSH1 0x10 DUP2 ADD SWAP1 POP JUMPDEST PUSH4 0x5F5E100 DUP4 LT PUSH2 0x8243 JUMPI PUSH4 0x5F5E100 DUP4 DUP2 PUSH2 0x8239 JUMPI PUSH2 0x8238 PUSH2 0xA0D2 JUMP JUMPDEST JUMPDEST DIV SWAP3 POP PUSH1 0x8 DUP2 ADD SWAP1 POP JUMPDEST PUSH2 0x2710 DUP4 LT PUSH2 0x8268 JUMPI PUSH2 0x2710 DUP4 DUP2 PUSH2 0x825E JUMPI PUSH2 0x825D PUSH2 0xA0D2 JUMP JUMPDEST JUMPDEST DIV SWAP3 POP PUSH1 0x4 DUP2 ADD SWAP1 POP JUMPDEST PUSH1 0x64 DUP4 LT PUSH2 0x828B JUMPI PUSH1 0x64 DUP4 DUP2 PUSH2 0x8281 JUMPI PUSH2 0x8280 PUSH2 0xA0D2 JUMP JUMPDEST JUMPDEST DIV SWAP3 POP PUSH1 0x2 DUP2 ADD SWAP1 POP JUMPDEST PUSH1 0xA DUP4 LT PUSH2 0x829A JUMPI PUSH1 0x1 DUP2 ADD SWAP1 POP JUMPDEST DUP1 SWAP2 POP POP SWAP2 SWAP1 POP JUMP JUMPDEST PUSH1 0x0 DUP1 PUSH32 0x7FFFFFFFFFFFFFFFFFFFFFFFFFFFFFFF5D576E7357A4501DDFE92F46681B20A0 DUP4 PUSH1 0x0 SHR GT ISZERO PUSH2 0x82DE JUMPI PUSH1 0x0 PUSH1 0x3 SWAP2 POP SWAP2 POP PUSH2 0x837C JUMP JUMPDEST PUSH1 0x0 PUSH1 0x1 DUP8 DUP8 DUP8 DUP8 PUSH1 0x40 MLOAD PUSH1 0x0 DUP2 MSTORE PUSH1 0x20 ADD PUSH1 0x40 MSTORE PUSH1 0x40 MLOAD PUSH2 0x8303 SWAP5 SWAP4 SWAP3 SWAP2 SWAP1 PUSH2 0xAEF4 JUMP JUMPDEST PUSH1 0x20 PUSH1 0x40 MLOAD PUSH1 0x20 DUP2 SUB SWAP1 DUP1 DUP5 SUB SWAP1 DUP6 GAS STATICCALL ISZERO DUP1 ISZERO PUSH2 0x8325 JUMPI RETURNDATASIZE PUSH1 0x0 DUP1 RETURNDATACOPY RETURNDATASIZE PUSH1 0x0 REVERT JUMPDEST POP POP POP PUSH1 0x20 PUSH1 0x40 MLOAD SUB MLOAD SWAP1 POP PUSH1 0x0 PUSH20 0xFFFFFFFFFFFFFFFFFFFFFFFFFFFFFFFFFFFFFFFF AND DUP2 PUSH20 0xFFFFFFFFFFFFFFFFFFFFFFFFFFFFFFFFFFFFFFFF AND SUB PUSH2 0x8373 JUMPI PUSH1 0x0 PUSH1 0x1 SWAP3 POP SWAP3 POP POP PUSH2 0x837C JUMP JUMPDEST DUP1 PUSH1 0x0 SWAP3 POP SWAP3 POP POP JUMPDEST SWAP5 POP SWAP5 SWAP3 POP POP POP JUMP JUMPDEST PUSH1 0x0 PUSH1 0x40 MLOAD SWAP1 POP SWAP1 JUMP JUMPDEST PUSH1 0x0 DUP1 REVERT JUMPDEST PUSH1 0x0 DUP1 REVERT JUMPDEST PUSH1 0x0 DUP2 SWAP1 POP SWAP2 SWAP1 POP JUMP JUMPDEST PUSH2 0x83AC DUP2 PUSH2 0x8399 JUMP JUMPDEST DUP2 EQ PUSH2 0x83B7 JUMPI PUSH1 0x0 DUP1 REVERT JUMPDEST POP JUMP JUMPDEST PUSH1 0x0 DUP2 CALLDATALOAD SWAP1 POP PUSH2 0x83C9 DUP2 PUSH2 0x83A3 JUMP JUMPDEST SWAP3 SWAP2 POP POP JUMP JUMPDEST PUSH1 0x0 DUP1 REVERT JUMPDEST PUSH1 0x0 DUP1 REVERT JUMPDEST PUSH1 0x0 DUP1 REVERT JUMPDEST PUSH1 0x0 DUP1 DUP4 PUSH1 0x1F DUP5 ADD SLT PUSH2 0x83F4 JUMPI PUSH2 0x83F3 PUSH2 0x83CF JUMP JUMPDEST JUMPDEST DUP3 CALLDATALOAD SWAP1 POP PUSH8 0xFFFFFFFFFFFFFFFF DUP2 GT ISZERO PUSH2 0x8411 JUMPI PUSH2 0x8410 PUSH2 0x83D4 JUMP JUMPDEST JUMPDEST PUSH1 0x20 DUP4 ADD SWAP2 POP DUP4 PUSH1 0x20 DUP3 MUL DUP4 ADD GT ISZERO PUSH2 0x842D JUMPI PUSH2 0x842C PUSH2 0x83D9 JUMP JUMPDEST JUMPDEST SWAP3 POP SWAP3 SWAP1 POP JUMP JUMPDEST PUSH1 0x0 DUP1 PUSH1 0x0 DUP1 PUSH1 0x0 DUP1 PUSH1 0x0 DUP1 PUSH1 0x0 PUSH1 0xA0 DUP11 DUP13 SUB SLT ISZERO PUSH2 0x8456 JUMPI PUSH2 0x8455 PUSH2 0x838F JUMP JUMPDEST JUMPDEST PUSH1 0x0 PUSH2 0x8464 DUP13 DUP3 DUP14 ADD PUSH2 0x83BA JUMP JUMPDEST SWAP10 POP POP PUSH1 0x20 DUP11 ADD CALLDATALOAD PUSH8 0xFFFFFFFFFFFFFFFF DUP2 GT ISZERO PUSH2 0x8485 JUMPI PUSH2 0x8484 PUSH2 0x8394 JUMP JUMPDEST JUMPDEST PUSH2 0x8491 DUP13 DUP3 DUP14 ADD PUSH2 0x83DE JUMP JUMPDEST SWAP9 POP SWAP9 POP POP PUSH1 0x40 DUP11 ADD CALLDATALOAD PUSH8 0xFFFFFFFFFFFFFFFF DUP2 GT ISZERO PUSH2 0x84B4 JUMPI PUSH2 0x84B3 PUSH2 0x8394 JUMP JUMPDEST JUMPDEST PUSH2 0x84C0 DUP13 DUP3 DUP14 ADD PUSH2 0x83DE JUMP JUMPDEST SWAP7 POP SWAP7 POP POP PUSH1 0x60 DUP11 ADD CALLDATALOAD PUSH8 0xFFFFFFFFFFFFFFFF DUP2 GT ISZERO PUSH2 0x84E3 JUMPI PUSH2 0x84E2 PUSH2 0x8394 JUMP JUMPDEST JUMPDEST PUSH2 0x84EF DUP13 DUP3 DUP14 ADD PUSH2 0x83DE JUMP JUMPDEST SWAP5 POP SWAP5 POP POP PUSH1 0x80 DUP11 ADD CALLDATALOAD PUSH8 0xFFFFFFFFFFFFFFFF DUP2 GT ISZERO PUSH2 0x8512 JUMPI PUSH2 0x8511 PUSH2 0x8394 JUMP JUMPDEST JUMPDEST PUSH2 0x851E DUP13 DUP3 DUP14 ADD PUSH2 0x83DE JUMP JUMPDEST SWAP3 POP SWAP3 POP POP SWAP3 SWAP6 SWAP9 POP SWAP3 SWAP6 SWAP9 POP SWAP3 SWAP6 SWAP9 JUMP JUMPDEST PUSH1 0x0 PUSH32 0xFFFFFFFF00000000000000000000000000000000000000000000000000000000 DUP3 AND SWAP1 POP SWAP2 SWAP1 POP JUMP JUMPDEST PUSH2 0x8565 DUP2 PUSH2 0x8530 JUMP JUMPDEST DUP2 EQ PUSH2 0x8570 JUMPI PUSH1 0x0 DUP1 REVERT JUMPDEST POP JUMP JUMPDEST PUSH1 0x0 DUP2 CALLDATALOAD SWAP1 POP PUSH2 0x8582 DUP2 PUSH2 0x855C JUMP JUMPDEST SWAP3 SWAP2 POP POP JUMP JUMPDEST PUSH1 0x0 PUSH1 0x20 DUP3 DUP5 SUB SLT ISZERO PUSH2 0x859E JUMPI PUSH2 0x859D PUSH2 0x838F JUMP JUMPDEST JUMPDEST PUSH1 0x0 PUSH2 0x85AC DUP5 DUP3 DUP6 ADD PUSH2 0x8573 JUMP JUMPDEST SWAP2 POP POP SWAP3 SWAP2 POP POP JUMP JUMPDEST PUSH1 0x0 DUP2 ISZERO ISZERO SWAP1 POP SWAP2 SWAP1 POP JUMP JUMPDEST PUSH2 0x85CA DUP2 PUSH2 0x85B5 JUMP JUMPDEST DUP3 MSTORE POP POP JUMP JUMPDEST PUSH1 0x0 PUSH1 0x20 DUP3 ADD SWAP1 POP PUSH2 0x85E5 PUSH1 0x0 DUP4 ADD DUP5 PUSH2 0x85C1 JUMP JUMPDEST SWAP3 SWAP2 POP POP JUMP JUMPDEST PUSH1 0x0 DUP1 REVERT JUMPDEST PUSH1 0x0 PUSH1 0x80 DUP3 DUP5 SUB SLT ISZERO PUSH2 0x8606 JUMPI PUSH2 0x8605 PUSH2 0x85EB JUMP JUMPDEST JUMPDEST DUP2 SWAP1 POP SWAP3 SWAP2 POP POP JUMP JUMPDEST PUSH1 0x0 DUP1 REVERT JUMPDEST PUSH1 0x0 PUSH1 0x1F NOT PUSH1 0x1F DUP4 ADD AND SWAP1 POP SWAP2 SWAP1 POP JUMP JUMPDEST PUSH32 0x4E487B7100000000000000000000000000000000000000000000000000000000 PUSH1 0x0 MSTORE PUSH1 0x41 PUSH1 0x4 MSTORE PUSH1 0x24 PUSH1 0x0 REVERT JUMPDEST PUSH2 0x865D DUP3 PUSH2 0x8614 JUMP JUMPDEST DUP2 ADD DUP2 DUP2 LT PUSH8 0xFFFFFFFFFFFFFFFF DUP3 GT OR ISZERO PUSH2 0x867C JUMPI PUSH2 0x867B PUSH2 0x8625 JUMP JUMPDEST JUMPDEST DUP1 PUSH1 0x40 MSTORE POP POP POP JUMP JUMPDEST PUSH1 0x0 PUSH2 0x868F PUSH2 0x8385 JUMP JUMPDEST SWAP1 POP PUSH2 0x869B DUP3 DUP3 PUSH2 0x8654 JUMP JUMPDEST SWAP2 SWAP1 POP JUMP JUMPDEST PUSH1 0x0 PUSH8 0xFFFFFFFFFFFFFFFF DUP3 GT ISZERO PUSH2 0x86BB JUMPI PUSH2 0x86BA PUSH2 0x8625 JUMP JUMPDEST JUMPDEST PUSH2 0x86C4 DUP3 PUSH2 0x8614 JUMP JUMPDEST SWAP1 POP PUSH1 0x20 DUP2 ADD SWAP1 POP SWAP2 SWAP1 POP JUMP JUMPDEST DUP3 DUP2 DUP4 CALLDATACOPY PUSH1 0x0 DUP4 DUP4 ADD MSTORE POP POP POP JUMP JUMPDEST PUSH1 0x0 PUSH2 0x86F3 PUSH2 0x86EE DUP5 PUSH2 0x86A0 JUMP JUMPDEST PUSH2 0x8685 JUMP JUMPDEST SWAP1 POP DUP3 DUP2 MSTORE PUSH1 0x20 DUP2 ADD DUP5 DUP5 DUP5 ADD GT ISZERO PUSH2 0x870F JUMPI PUSH2 0x870E PUSH2 0x860F JUMP JUMPDEST JUMPDEST PUSH2 0x871A DUP5 DUP3 DUP6 PUSH2 0x86D1 JUMP JUMPDEST POP SWAP4 SWAP3 POP POP POP JUMP JUMPDEST PUSH1 0x0 DUP3 PUSH1 0x1F DUP4 ADD SLT PUSH2 0x8737 JUMPI PUSH2 0x8736 PUSH2 0x83CF JUMP JUMPDEST JUMPDEST DUP2 CALLDATALOAD PUSH2 0x8747 DUP5 DUP3 PUSH1 0x20 DUP7 ADD PUSH2 0x86E0 JUMP JUMPDEST SWAP2 POP POP SWAP3 SWAP2 POP POP JUMP JUMPDEST PUSH2 0x8759 DUP2 PUSH2 0x85B5 JUMP JUMPDEST DUP2 EQ PUSH2 0x8764 JUMPI PUSH1 0x0 DUP1 REVERT JUMPDEST POP JUMP JUMPDEST PUSH1 0x0 DUP2 CALLDATALOAD SWAP1 POP PUSH2 0x8776 DUP2 PUSH2 0x8750 JUMP JUMPDEST SWAP3 SWAP2 POP POP JUMP JUMPDEST PUSH1 0x0 DUP1 PUSH1 0x0 PUSH1 0xC0 DUP5 DUP7 SUB SLT ISZERO PUSH2 0x8795 JUMPI PUSH2 0x8794 PUSH2 0x838F JUMP JUMPDEST JUMPDEST PUSH1 0x0 PUSH2 0x87A3 DUP7 DUP3 DUP8 ADD PUSH2 0x85F0 JUMP JUMPDEST SWAP4 POP POP PUSH1 0x80 DUP5 ADD CALLDATALOAD PUSH8 0xFFFFFFFFFFFFFFFF DUP2 GT ISZERO PUSH2 0x87C4 JUMPI PUSH2 0x87C3 PUSH2 0x8394 JUMP JUMPDEST JUMPDEST PUSH2 0x87D0 DUP7 DUP3 DUP8 ADD PUSH2 0x8722 JUMP JUMPDEST SWAP3 POP POP PUSH1 0xA0 PUSH2 0x87E1 DUP7 DUP3 DUP8 ADD PUSH2 0x8767 JUMP JUMPDEST SWAP2 POP POP SWAP3 POP SWAP3 POP SWAP3 JUMP JUMPDEST PUSH1 0x0 DUP2 MLOAD SWAP1 POP SWAP2 SWAP1 POP JUMP JUMPDEST PUSH1 0x0 DUP3 DUP3 MSTORE PUSH1 0x20 DUP3 ADD SWAP1 POP SWAP3 SWAP2 POP POP JUMP JUMPDEST PUSH1 0x0 JUMPDEST DUP4 DUP2 LT ISZERO PUSH2 0x8825 JUMPI DUP1 DUP3 ADD MLOAD DUP2 DUP5 ADD MSTORE PUSH1 0x20 DUP2 ADD SWAP1 POP PUSH2 0x880A JUMP JUMPDEST PUSH1 0x0 DUP5 DUP5 ADD MSTORE POP POP POP POP JUMP JUMPDEST PUSH1 0x0 PUSH2 0x883C DUP3 PUSH2 0x87EB JUMP JUMPDEST PUSH2 0x8846 DUP2 DUP6 PUSH2 0x87F6 JUMP JUMPDEST SWAP4 POP PUSH2 0x8856 DUP2 DUP6 PUSH1 0x20 DUP7 ADD PUSH2 0x8807 JUMP JUMPDEST PUSH2 0x885F DUP2 PUSH2 0x8614 JUMP JUMPDEST DUP5 ADD SWAP2 POP POP SWAP3 SWAP2 POP POP JUMP JUMPDEST PUSH1 0x0 PUSH1 0x20 DUP3 ADD SWAP1 POP DUP2 DUP2 SUB PUSH1 0x0 DUP4 ADD MSTORE PUSH2 0x8884 DUP2 DUP5 PUSH2 0x8831 JUMP JUMPDEST SWAP1 POP SWAP3 SWAP2 POP POP JUMP JUMPDEST PUSH1 0x0 PUSH1 0x20 DUP3 DUP5 SUB SLT ISZERO PUSH2 0x88A2 JUMPI PUSH2 0x88A1 PUSH2 0x838F JUMP JUMPDEST JUMPDEST PUSH1 0x0 PUSH2 0x88B0 DUP5 DUP3 DUP6 ADD PUSH2 0x83BA JUMP JUMPDEST SWAP2 POP POP SWAP3 SWAP2 POP POP JUMP JUMPDEST PUSH1 0x0 PUSH20 0xFFFFFFFFFFFFFFFFFFFFFFFFFFFFFFFFFFFFFFFF DUP3 AND SWAP1 POP SWAP2 SWAP1 POP JUMP JUMPDEST PUSH1 0x0 PUSH2 0x88E4 DUP3 PUSH2 0x88B9 JUMP JUMPDEST SWAP1 POP SWAP2 SWAP1 POP JUMP JUMPDEST PUSH2 0x88F4 DUP2 PUSH2 0x88D9 JUMP JUMPDEST DUP3 MSTORE POP POP JUMP JUMPDEST PUSH1 0x0 PUSH1 0x20 DUP3 ADD SWAP1 POP PUSH2 0x890F PUSH1 0x0 DUP4 ADD DUP5 PUSH2 0x88EB JUMP JUMPDEST SWAP3 SWAP2 POP POP JUMP JUMPDEST PUSH2 0x891E DUP2 PUSH2 0x88D9 JUMP JUMPDEST DUP2 EQ PUSH2 0x8929 JUMPI PUSH1 0x0 DUP1 REVERT JUMPDEST POP JUMP JUMPDEST PUSH1 0x0 DUP2 CALLDATALOAD SWAP1 POP PUSH2 0x893B DUP2 PUSH2 0x8915 JUMP JUMPDEST SWAP3 SWAP2 POP POP JUMP JUMPDEST PUSH1 0x0 DUP1 PUSH1 0x40 DUP4 DUP6 SUB SLT ISZERO PUSH2 0x8958 JUMPI PUSH2 0x8957 PUSH2 0x838F JUMP JUMPDEST JUMPDEST PUSH1 0x0 PUSH2 0x8966 DUP6 DUP3 DUP7 ADD PUSH2 0x892C JUMP JUMPDEST SWAP3 POP POP PUSH1 0x20 PUSH2 0x8977 DUP6 DUP3 DUP7 ADD PUSH2 0x83BA JUMP JUMPDEST SWAP2 POP POP SWAP3 POP SWAP3 SWAP1 POP JUMP JUMPDEST PUSH2 0x898A DUP2 PUSH2 0x8399 JUMP JUMPDEST DUP3 MSTORE POP POP JUMP JUMPDEST PUSH1 0x0 PUSH1 0x20 DUP3 ADD SWAP1 POP PUSH2 0x89A5 PUSH1 0x0 DUP4 ADD DUP5 PUSH2 0x8981 JUMP JUMPDEST SWAP3 SWAP2 POP POP JUMP JUMPDEST PUSH1 0x0 DUP1 PUSH1 0x20 DUP4 DUP6 SUB SLT ISZERO PUSH2 0x89C2 JUMPI PUSH2 0x89C1 PUSH2 0x838F JUMP JUMPDEST JUMPDEST PUSH1 0x0 DUP4 ADD CALLDATALOAD PUSH8 0xFFFFFFFFFFFFFFFF DUP2 GT ISZERO PUSH2 0x89E0 JUMPI PUSH2 0x89DF PUSH2 0x8394 JUMP JUMPDEST JUMPDEST PUSH2 0x89EC DUP6 DUP3 DUP7 ADD PUSH2 0x83DE JUMP JUMPDEST SWAP3 POP SWAP3 POP POP SWAP3 POP SWAP3 SWAP1 POP JUMP JUMPDEST PUSH1 0x0 DUP1 DUP4 PUSH1 0x1F DUP5 ADD SLT PUSH2 0x8A0E JUMPI PUSH2 0x8A0D PUSH2 0x83CF JUMP JUMPDEST JUMPDEST DUP3 CALLDATALOAD SWAP1 POP PUSH8 0xFFFFFFFFFFFFFFFF DUP2 GT ISZERO PUSH2 0x8A2B JUMPI PUSH2 0x8A2A PUSH2 0x83D4 JUMP JUMPDEST JUMPDEST PUSH1 0x20 DUP4 ADD SWAP2 POP DUP4 PUSH1 0x20 DUP3 MUL DUP4 ADD GT ISZERO PUSH2 0x8A47 JUMPI PUSH2 0x8A46 PUSH2 0x83D9 JUMP JUMPDEST JUMPDEST SWAP3 POP SWAP3 SWAP1 POP JUMP JUMPDEST PUSH1 0x0 DUP1 PUSH1 0x0 PUSH1 0x40 DUP5 DUP7 SUB SLT ISZERO PUSH2 0x8A67 JUMPI PUSH2 0x8A66 PUSH2 0x838F JUMP JUMPDEST JUMPDEST PUSH1 0x0 DUP5 ADD CALLDATALOAD PUSH8 0xFFFFFFFFFFFFFFFF DUP2 GT ISZERO PUSH2 0x8A85 JUMPI PUSH2 0x8A84 PUSH2 0x8394 JUMP JUMPDEST JUMPDEST PUSH2 0x8A91 DUP7 DUP3 DUP8 ADD PUSH2 0x89F8 JUMP JUMPDEST SWAP4 POP SWAP4 POP POP PUSH1 0x20 PUSH2 0x8AA4 DUP7 DUP3 DUP8 ADD PUSH2 0x8767 JUMP JUMPDEST SWAP2 POP POP SWAP3 POP SWAP3 POP SWAP3 JUMP JUMPDEST PUSH1 0x0 PUSH1 0x20 DUP3 DUP5 SUB SLT ISZERO PUSH2 0x8AC4 JUMPI PUSH2 0x8AC3 PUSH2 0x838F JUMP JUMPDEST JUMPDEST PUSH1 0x0 PUSH2 0x8AD2 DUP5 DUP3 DUP6 ADD PUSH2 0x892C JUMP JUMPDEST SWAP2 POP POP SWAP3 SWAP2 POP POP JUMP JUMPDEST PUSH1 0x0 DUP1 PUSH1 0x40 DUP4 DUP6 SUB SLT ISZERO PUSH2 0x8AF2 JUMPI PUSH2 0x8AF1 PUSH2 0x838F JUMP JUMPDEST JUMPDEST PUSH1 0x0 PUSH2 0x8B00 DUP6 DUP3 DUP7 ADD PUSH2 0x83BA JUMP JUMPDEST SWAP3 POP POP PUSH1 0x20 PUSH2 0x8B11 DUP6 DUP3 DUP7 ADD PUSH2 0x83BA JUMP JUMPDEST SWAP2 POP POP SWAP3 POP SWAP3 SWAP1 POP JUMP JUMPDEST PUSH1 0x0 PUSH2 0x120 DUP3 ADD SWAP1 POP PUSH2 0x8B31 PUSH1 0x0 DUP4 ADD DUP13 PUSH2 0x8981 JUMP JUMPDEST PUSH2 0x8B3E PUSH1 0x20 DUP4 ADD DUP12 PUSH2 0x8981 JUMP JUMPDEST PUSH2 0x8B4B PUSH1 0x40 DUP4 ADD DUP11 PUSH2 0x8981 JUMP JUMPDEST PUSH2 0x8B58 PUSH1 0x60 DUP4 ADD DUP10 PUSH2 0x8981 JUMP JUMPDEST PUSH2 0x8B65 PUSH1 0x80 DUP4 ADD DUP9 PUSH2 0x8981 JUMP JUMPDEST PUSH2 0x8B72 PUSH1 0xA0 DUP4 ADD DUP8 PUSH2 0x8981 JUMP JUMPDEST PUSH2 0x8B7F PUSH1 0xC0 DUP4 ADD DUP7 PUSH2 0x8981 JUMP JUMPDEST PUSH2 0x8B8C PUSH1 0xE0 DUP4 ADD DUP6 PUSH2 0x8981 JUMP JUMPDEST PUSH2 0x8B9A PUSH2 0x100 DUP4 ADD DUP5 PUSH2 0x8981 JUMP JUMPDEST SWAP11 SWAP10 POP POP POP POP POP POP POP POP POP POP JUMP JUMPDEST PUSH1 0x0 DUP1 PUSH1 0x0 PUSH1 0x60 DUP5 DUP7 SUB SLT ISZERO PUSH2 0x8BC1 JUMPI PUSH2 0x8BC0 PUSH2 0x838F JUMP JUMPDEST JUMPDEST PUSH1 0x0 PUSH2 0x8BCF DUP7 DUP3 DUP8 ADD PUSH2 0x892C JUMP JUMPDEST SWAP4 POP POP PUSH1 0x20 PUSH2 0x8BE0 DUP7 DUP3 DUP8 ADD PUSH2 0x892C JUMP JUMPDEST SWAP3 POP POP PUSH1 0x40 PUSH2 0x8BF1 DUP7 DUP3 DUP8 ADD PUSH2 0x83BA JUMP JUMPDEST SWAP2 POP POP SWAP3 POP SWAP3 POP SWAP3 JUMP JUMPDEST PUSH1 0x0 DUP2 SWAP1 POP SWAP2 SWAP1 POP JUMP JUMPDEST PUSH1 0x0 PUSH2 0x8C20 PUSH2 0x8C1B PUSH2 0x8C16 DUP5 PUSH2 0x88B9 JUMP JUMPDEST PUSH2 0x8BFB JUMP JUMPDEST PUSH2 0x88B9 JUMP JUMPDEST SWAP1 POP SWAP2 SWAP1 POP JUMP JUMPDEST PUSH1 0x0 PUSH2 0x8C32 DUP3 PUSH2 0x8C05 JUMP JUMPDEST SWAP1 POP SWAP2 SWAP1 POP JUMP JUMPDEST PUSH1 0x0 PUSH2 0x8C44 DUP3 PUSH2 0x8C27 JUMP JUMPDEST SWAP1 POP SWAP2 SWAP1 POP JUMP JUMPDEST PUSH2 0x8C54 DUP2 PUSH2 0x8C39 JUMP JUMPDEST DUP3 MSTORE POP POP JUMP JUMPDEST PUSH1 0x0 PUSH1 0x20 DUP3 ADD SWAP1 POP PUSH2 0x8C6F PUSH1 0x0 DUP4 ADD DUP5 PUSH2 0x8C4B JUMP JUMPDEST SWAP3 SWAP2 POP POP JUMP JUMPDEST PUSH1 0x0 DUP1 PUSH1 0x0 DUP1 PUSH1 0x0 DUP1 PUSH1 0x60 DUP8 DUP10 SUB SLT ISZERO PUSH2 0x8C92 JUMPI PUSH2 0x8C91 PUSH2 0x838F JUMP JUMPDEST JUMPDEST PUSH1 0x0 DUP8 ADD CALLDATALOAD PUSH8 0xFFFFFFFFFFFFFFFF DUP2 GT ISZERO PUSH2 0x8CB0 JUMPI PUSH2 0x8CAF PUSH2 0x8394 JUMP JUMPDEST JUMPDEST PUSH2 0x8CBC DUP10 DUP3 DUP11 ADD PUSH2 0x83DE JUMP JUMPDEST SWAP7 POP SWAP7 POP POP PUSH1 0x20 DUP8 ADD CALLDATALOAD PUSH8 0xFFFFFFFFFFFFFFFF DUP2 GT ISZERO PUSH2 0x8CDF JUMPI PUSH2 0x8CDE PUSH2 0x8394 JUMP JUMPDEST JUMPDEST PUSH2 0x8CEB DUP10 DUP3 DUP11 ADD PUSH2 0x83DE JUMP JUMPDEST SWAP5 POP SWAP5 POP POP PUSH1 0x40 DUP8 ADD CALLDATALOAD PUSH8 0xFFFFFFFFFFFFFFFF DUP2 GT ISZERO PUSH2 0x8D0E JUMPI PUSH2 0x8D0D PUSH2 0x8394 JUMP JUMPDEST JUMPDEST PUSH2 0x8D1A DUP10 DUP3 DUP11 ADD PUSH2 0x83DE JUMP JUMPDEST SWAP3 POP SWAP3 POP POP SWAP3 SWAP6 POP SWAP3 SWAP6 POP SWAP3 SWAP6 JUMP JUMPDEST PUSH1 0x0 DUP1 REVERT JUMPDEST PUSH1 0x0 DUP2 SWAP1 POP SWAP2 SWAP1 POP JUMP JUMPDEST PUSH2 0x8D41 DUP2 PUSH2 0x8D2E JUMP JUMPDEST DUP2 EQ PUSH2 0x8D4C JUMPI PUSH1 0x0 DUP1 REVERT JUMPDEST POP JUMP JUMPDEST PUSH1 0x0 DUP2 CALLDATALOAD SWAP1 POP PUSH2 0x8D5E DUP2 PUSH2 0x8D38 JUMP JUMPDEST SWAP3 SWAP2 POP POP JUMP JUMPDEST PUSH1 0x0 PUSH1 0x60 DUP3 DUP5 SUB SLT ISZERO PUSH2 0x8D7A JUMPI PUSH2 0x8D79 PUSH2 0x8D29 JUMP JUMPDEST JUMPDEST PUSH2 0x8D84 PUSH1 0x60 PUSH2 0x8685 JUMP JUMPDEST SWAP1 POP PUSH1 0x0 PUSH2 0x8D94 DUP5 DUP3 DUP6 ADD PUSH2 0x83BA JUMP JUMPDEST PUSH1 0x0 DUP4 ADD MSTORE POP PUSH1 0x20 PUSH2 0x8DA8 DUP5 DUP3 DUP6 ADD PUSH2 0x83BA JUMP JUMPDEST PUSH1 0x20 DUP4 ADD MSTORE POP PUSH1 0x40 PUSH2 0x8DBC DUP5 DUP3 DUP6 ADD PUSH2 0x8D4F JUMP JUMPDEST PUSH1 0x40 DUP4 ADD MSTORE POP SWAP3 SWAP2 POP POP JUMP JUMPDEST PUSH1 0x0 DUP1 PUSH1 0x80 DUP4 DUP6 SUB SLT ISZERO PUSH2 0x8DDF JUMPI PUSH2 0x8DDE PUSH2 0x838F JUMP JUMPDEST JUMPDEST PUSH1 0x0 PUSH2 0x8DED DUP6 DUP3 DUP7 ADD PUSH2 0x8D64 JUMP JUMPDEST SWAP3 POP POP PUSH1 0x60 DUP4 ADD CALLDATALOAD PUSH8 0xFFFFFFFFFFFFFFFF DUP2 GT ISZERO PUSH2 0x8E0E JUMPI PUSH2 0x8E0D PUSH2 0x8394 JUMP JUMPDEST JUMPDEST PUSH2 0x8E1A DUP6 DUP3 DUP7 ADD PUSH2 0x8722 JUMP JUMPDEST SWAP2 POP POP SWAP3 POP SWAP3 SWAP1 POP JUMP JUMPDEST PUSH1 0x0 PUSH8 0xFFFFFFFFFFFFFFFF DUP3 GT ISZERO PUSH2 0x8E3F JUMPI PUSH2 0x8E3E PUSH2 0x8625 JUMP JUMPDEST JUMPDEST PUSH2 0x8E48 DUP3 PUSH2 0x8614 JUMP JUMPDEST SWAP1 POP PUSH1 0x20 DUP2 ADD SWAP1 POP SWAP2 SWAP1 POP JUMP JUMPDEST PUSH1 0x0 PUSH2 0x8E68 PUSH2 0x8E63 DUP5 PUSH2 0x8E24 JUMP JUMPDEST PUSH2 0x8685 JUMP JUMPDEST SWAP1 POP DUP3 DUP2 MSTORE PUSH1 0x20 DUP2 ADD DUP5 DUP5 DUP5 ADD GT ISZERO PUSH2 0x8E84 JUMPI PUSH2 0x8E83 PUSH2 0x860F JUMP JUMPDEST JUMPDEST PUSH2 0x8E8F DUP5 DUP3 DUP6 PUSH2 0x86D1 JUMP JUMPDEST POP SWAP4 SWAP3 POP POP POP JUMP JUMPDEST PUSH1 0x0 DUP3 PUSH1 0x1F DUP4 ADD SLT PUSH2 0x8EAC JUMPI PUSH2 0x8EAB PUSH2 0x83CF JUMP JUMPDEST JUMPDEST DUP2 CALLDATALOAD PUSH2 0x8EBC DUP5 DUP3 PUSH1 0x20 DUP7 ADD PUSH2 0x8E55 JUMP JUMPDEST SWAP2 POP POP SWAP3 SWAP2 POP POP JUMP JUMPDEST PUSH1 0x0 DUP1 PUSH1 0x40 DUP4 DUP6 SUB SLT ISZERO PUSH2 0x8EDC JUMPI PUSH2 0x8EDB PUSH2 0x838F JUMP JUMPDEST JUMPDEST PUSH1 0x0 DUP4 ADD CALLDATALOAD PUSH8 0xFFFFFFFFFFFFFFFF DUP2 GT ISZERO PUSH2 0x8EFA JUMPI PUSH2 0x8EF9 PUSH2 0x8394 JUMP JUMPDEST JUMPDEST PUSH2 0x8F06 DUP6 DUP3 DUP7 ADD PUSH2 0x8E97 JUMP JUMPDEST SWAP3 POP POP PUSH1 0x20 DUP4 ADD CALLDATALOAD PUSH8 0xFFFFFFFFFFFFFFFF DUP2 GT ISZERO PUSH2 0x8F27 JUMPI PUSH2 0x8F26 PUSH2 0x8394 JUMP JUMPDEST JUMPDEST PUSH2 0x8F33 DUP6 DUP3 DUP7 ADD PUSH2 0x8E97 JUMP JUMPDEST SWAP2 POP POP SWAP3 POP SWAP3 SWAP1 POP JUMP JUMPDEST PUSH1 0x0 DUP1 PUSH1 0x0 DUP1 PUSH1 0x0 PUSH1 0xA0 DUP7 DUP9 SUB SLT ISZERO PUSH2 0x8F59 JUMPI PUSH2 0x8F58 PUSH2 0x838F JUMP JUMPDEST JUMPDEST PUSH1 0x0 PUSH2 0x8F67 DUP9 DUP3 DUP10 ADD PUSH2 0x892C JUMP JUMPDEST SWAP6 POP POP PUSH1 0x20 PUSH2 0x8F78 DUP9 DUP3 DUP10 ADD PUSH2 0x892C JUMP JUMPDEST SWAP5 POP POP PUSH1 0x40 PUSH2 0x8F89 DUP9 DUP3 DUP10 ADD PUSH2 0x892C JUMP JUMPDEST SWAP4 POP POP PUSH1 0x60 PUSH2 0x8F9A DUP9 DUP3 DUP10 ADD PUSH2 0x892C JUMP JUMPDEST SWAP3 POP POP PUSH1 0x80 PUSH2 0x8FAB DUP9 DUP3 DUP10 ADD PUSH2 0x83BA JUMP JUMPDEST SWAP2 POP POP SWAP3 SWAP6 POP SWAP3 SWAP6 SWAP1 SWAP4 POP JUMP JUMPDEST PUSH1 0x0 DUP1 PUSH1 0x40 DUP4 DUP6 SUB SLT ISZERO PUSH2 0x8FCF JUMPI PUSH2 0x8FCE PUSH2 0x838F JUMP JUMPDEST JUMPDEST PUSH1 0x0 PUSH2 0x8FDD DUP6 DUP3 DUP7 ADD PUSH2 0x892C JUMP JUMPDEST SWAP3 POP POP PUSH1 0x20 PUSH2 0x8FEE DUP6 DUP3 DUP7 ADD PUSH2 0x8767 JUMP JUMPDEST SWAP2 POP POP SWAP3 POP SWAP3 SWAP1 POP JUMP JUMPDEST PUSH1 0x0 DUP1 PUSH1 0x0 DUP1 PUSH1 0x80 DUP6 DUP8 SUB SLT ISZERO PUSH2 0x9012 JUMPI PUSH2 0x9011 PUSH2 0x838F JUMP JUMPDEST JUMPDEST PUSH1 0x0 PUSH2 0x9020 DUP8 DUP3 DUP9 ADD PUSH2 0x892C JUMP JUMPDEST SWAP5 POP POP PUSH1 0x20 PUSH2 0x9031 DUP8 DUP3 DUP9 ADD PUSH2 0x892C JUMP JUMPDEST SWAP4 POP POP PUSH1 0x40 PUSH2 0x9042 DUP8 DUP3 DUP9 ADD PUSH2 0x83BA JUMP JUMPDEST SWAP3 POP POP PUSH1 0x60 DUP6 ADD CALLDATALOAD PUSH8 0xFFFFFFFFFFFFFFFF DUP2 GT ISZERO PUSH2 0x9063 JUMPI PUSH2 0x9062 PUSH2 0x8394 JUMP JUMPDEST JUMPDEST PUSH2 0x906F DUP8 DUP3 DUP9 ADD PUSH2 0x8722 JUMP JUMPDEST SWAP2 POP POP SWAP3 SWAP6 SWAP2 SWAP5 POP SWAP3 POP JUMP JUMPDEST PUSH1 0x0 PUSH1 0x20 DUP3 DUP5 SUB SLT ISZERO PUSH2 0x9091 JUMPI PUSH2 0x9090 PUSH2 0x838F JUMP JUMPDEST JUMPDEST PUSH1 0x0 DUP3 ADD CALLDATALOAD PUSH8 0xFFFFFFFFFFFFFFFF DUP2 GT ISZERO PUSH2 0x90AF JUMPI PUSH2 0x90AE PUSH2 0x8394 JUMP JUMPDEST JUMPDEST PUSH2 0x90BB DUP5 DUP3 DUP6 ADD PUSH2 0x8722 JUMP JUMPDEST SWAP2 POP POP SWAP3 SWAP2 POP POP JUMP JUMPDEST PUSH1 0x0 PUSH2 0x90CF DUP3 PUSH2 0x8C27 JUMP JUMPDEST SWAP1 POP SWAP2 SWAP1 POP JUMP JUMPDEST PUSH2 0x90DF DUP2 PUSH2 0x90C4 JUMP JUMPDEST DUP3 MSTORE POP POP JUMP JUMPDEST PUSH1 0x0 PUSH1 0x20 DUP3 ADD SWAP1 POP PUSH2 0x90FA PUSH1 0x0 DUP4 ADD DUP5 PUSH2 0x90D6 JUMP JUMPDEST SWAP3 SWAP2 POP POP JUMP JUMPDEST PUSH1 0x0 PUSH1 0x80 DUP3 ADD SWAP1 POP PUSH2 0x9115 PUSH1 0x0 DUP4 ADD DUP8 PUSH2 0x8981 JUMP JUMPDEST PUSH2 0x9122 PUSH1 0x20 DUP4 ADD DUP7 PUSH2 0x8981 JUMP JUMPDEST PUSH2 0x912F PUSH1 0x40 DUP4 ADD DUP6 PUSH2 0x8981 JUMP JUMPDEST PUSH2 0x913C PUSH1 0x60 DUP4 ADD DUP5 PUSH2 0x8981 JUMP JUMPDEST SWAP6 SWAP5 POP POP POP POP POP JUMP JUMPDEST PUSH1 0x0 DUP1 PUSH1 0x0 PUSH1 0x60 DUP5 DUP7 SUB SLT ISZERO PUSH2 0x915E JUMPI PUSH2 0x915D PUSH2 0x838F JUMP JUMPDEST JUMPDEST PUSH1 0x0 PUSH2 0x916C DUP7 DUP3 DUP8 ADD PUSH2 0x83BA JUMP JUMPDEST SWAP4 POP POP PUSH1 0x20 PUSH2 0x917D DUP7 DUP3 DUP8 ADD PUSH2 0x83BA JUMP JUMPDEST SWAP3 POP POP PUSH1 0x40 PUSH2 0x918E DUP7 DUP3 DUP8 ADD PUSH2 0x83BA JUMP JUMPDEST SWAP2 POP POP SWAP3 POP SWAP3 POP SWAP3 JUMP JUMPDEST PUSH1 0x0 DUP1 PUSH1 0x40 DUP4 DUP6 SUB SLT ISZERO PUSH2 0x91AF JUMPI PUSH2 0x91AE PUSH2 0x838F JUMP JUMPDEST JUMPDEST PUSH1 0x0 PUSH2 0x91BD DUP6 DUP3 DUP7 ADD PUSH2 0x892C JUMP JUMPDEST SWAP3 POP POP PUSH1 0x20 PUSH2 0x91CE DUP6 DUP3 DUP7 ADD PUSH2 0x892C JUMP JUMPDEST SWAP2 POP POP SWAP3 POP SWAP3 SWAP1 POP JUMP JUMPDEST PUSH1 0x0 DUP1 PUSH1 0x0 PUSH1 0x40 DUP5 DUP7 SUB SLT ISZERO PUSH2 0x91F1 JUMPI PUSH2 0x91F0 PUSH2 0x838F JUMP JUMPDEST JUMPDEST PUSH1 0x0 DUP5 ADD CALLDATALOAD PUSH8 0xFFFFFFFFFFFFFFFF DUP2 GT ISZERO PUSH2 0x920F JUMPI PUSH2 0x920E PUSH2 0x8394 JUMP JUMPDEST JUMPDEST PUSH2 0x921B DUP7 DUP3 DUP8 ADD PUSH2 0x83DE JUMP JUMPDEST SWAP4 POP SWAP4 POP POP PUSH1 0x20 PUSH2 0x922E DUP7 DUP3 DUP8 ADD PUSH2 0x8767 JUMP JUMPDEST SWAP2 POP POP SWAP3 POP SWAP3 POP SWAP3 JUMP JUMPDEST PUSH32 0x4E487B7100000000000000000000000000000000000000000000000000000000 PUSH1 0x0 MSTORE PUSH1 0x32 PUSH1 0x4 MSTORE PUSH1 0x24 PUSH1 0x0 REVERT JUMPDEST PUSH32 0x4E487B7100000000000000000000000000000000000000000000000000000000 PUSH1 0x0 MSTORE PUSH1 0x11 PUSH1 0x4 MSTORE PUSH1 0x24 PUSH1 0x0 REVERT JUMPDEST PUSH1 0x0 PUSH2 0x92A1 DUP3 PUSH2 0x8399 JUMP JUMPDEST SWAP2 POP PUSH32 0xFFFFFFFFFFFFFFFFFFFFFFFFFFFFFFFFFFFFFFFFFFFFFFFFFFFFFFFFFFFFFFFF DUP3 SUB PUSH2 0x92D3 JUMPI PUSH2 0x92D2 PUSH2 0x9267 JUMP JUMPDEST JUMPDEST PUSH1 0x1 DUP3 ADD SWAP1 POP SWAP2 SWAP1 POP JUMP JUMPDEST PUSH1 0x0 DUP2 MLOAD SWAP1 POP SWAP2 SWAP1 POP JUMP JUMPDEST PUSH1 0x0 DUP2 SWAP1 POP SWAP3 SWAP2 POP POP JUMP JUMPDEST PUSH1 0x0 PUSH2 0x92FF DUP3 PUSH2 0x92DE JUMP JUMPDEST PUSH2 0x9309 DUP2 DUP6 PUSH2 0x92E9 JUMP JUMPDEST SWAP4 POP PUSH2 0x9319 DUP2 DUP6 PUSH1 0x20 DUP7 ADD PUSH2 0x8807 JUMP JUMPDEST DUP1 DUP5 ADD SWAP2 POP POP SWAP3 SWAP2 POP POP JUMP JUMPDEST PUSH1 0x0 PUSH2 0x9331 DUP3 DUP5 PUSH2 0x92F4 JUMP JUMPDEST SWAP2 POP DUP2 SWAP1 POP SWAP3 SWAP2 POP POP JUMP JUMPDEST PUSH1 0x0 DUP3 DUP3 MSTORE PUSH1 0x20 DUP3 ADD SWAP1 POP SWAP3 SWAP2 POP POP JUMP JUMPDEST PUSH1 0x0 PUSH2 0x9358 DUP3 PUSH2 0x92DE JUMP JUMPDEST PUSH2 0x9362 DUP2 DUP6 PUSH2 0x933C JUMP JUMPDEST SWAP4 POP PUSH2 0x9372 DUP2 DUP6 PUSH1 0x20 DUP7 ADD PUSH2 0x8807 JUMP JUMPDEST PUSH2 0x937B DUP2 PUSH2 0x8614 JUMP JUMPDEST DUP5 ADD SWAP2 POP POP SWAP3 SWAP2 POP POP JUMP JUMPDEST PUSH1 0x0 PUSH1 0x20 DUP3 ADD SWAP1 POP DUP2 DUP2 SUB PUSH1 0x0 DUP4 ADD MSTORE PUSH2 0x93A0 DUP2 DUP5 PUSH2 0x934D JUMP JUMPDEST SWAP1 POP SWAP3 SWAP2 POP POP JUMP JUMPDEST PUSH1 0x0 DUP2 MLOAD SWAP1 POP PUSH2 0x93B7 DUP2 PUSH2 0x8750 JUMP JUMPDEST SWAP3 SWAP2 POP POP JUMP JUMPDEST PUSH1 0x0 PUSH1 0x20 DUP3 DUP5 SUB SLT ISZERO PUSH2 0x93D3 JUMPI PUSH2 0x93D2 PUSH2 0x838F JUMP JUMPDEST JUMPDEST PUSH1 0x0 PUSH2 0x93E1 DUP5 DUP3 DUP6 ADD PUSH2 0x93A8 JUMP JUMPDEST SWAP2 POP POP SWAP3 SWAP2 POP POP JUMP JUMPDEST PUSH32 0x41726645524337323156313A204E6F7420616C6C6F7765640000000000000000 PUSH1 0x0 DUP3 ADD MSTORE POP JUMP JUMPDEST PUSH1 0x0 PUSH2 0x9420 PUSH1 0x18 DUP4 PUSH2 0x87F6 JUMP JUMPDEST SWAP2 POP PUSH2 0x942B DUP3 PUSH2 0x93EA JUMP JUMPDEST PUSH1 0x20 DUP3 ADD SWAP1 POP SWAP2 SWAP1 POP JUMP JUMPDEST PUSH1 0x0 PUSH1 0x20 DUP3 ADD SWAP1 POP DUP2 DUP2 SUB PUSH1 0x0 DUP4 ADD MSTORE PUSH2 0x944F DUP2 PUSH2 0x9413 JUMP JUMPDEST SWAP1 POP SWAP2 SWAP1 POP JUMP JUMPDEST PUSH1 0x0 PUSH2 0x9461 DUP3 PUSH2 0x8399 JUMP JUMPDEST SWAP2 POP PUSH2 0x946C DUP4 PUSH2 0x8399 JUMP JUMPDEST SWAP3 POP DUP3 DUP3 ADD SWAP1 POP DUP1 DUP3 GT ISZERO PUSH2 0x9484 JUMPI PUSH2 0x9483 PUSH2 0x9267 JUMP JUMPDEST JUMPDEST SWAP3 SWAP2 POP POP JUMP JUMPDEST PUSH32 0x41726645524337323156313A20546869732065706F636820697320636C6F7365 PUSH1 0x0 DUP3 ADD MSTORE PUSH32 0x64206F72207072696E746572206973206F7574206F662073746F636B00000000 PUSH1 0x20 DUP3 ADD MSTORE POP JUMP JUMPDEST PUSH1 0x0 PUSH2 0x94E6 PUSH1 0x3C DUP4 PUSH2 0x87F6 JUMP JUMPDEST SWAP2 POP PUSH2 0x94F1 DUP3 PUSH2 0x948A JUMP JUMPDEST PUSH1 0x40 DUP3 ADD SWAP1 POP SWAP2 SWAP1 POP JUMP JUMPDEST PUSH1 0x0 PUSH1 0x20 DUP3 ADD SWAP1 POP DUP2 DUP2 SUB PUSH1 0x0 DUP4 ADD MSTORE PUSH2 0x9515 DUP2 PUSH2 0x94D9 JUMP JUMPDEST SWAP1 POP SWAP2 SWAP1 POP JUMP JUMPDEST PUSH32 0x41726645524337323156313A20496E76616C6964207175616E74697479000000 PUSH1 0x0 DUP3 ADD MSTORE POP JUMP JUMPDEST PUSH1 0x0 PUSH2 0x9552 PUSH1 0x1D DUP4 PUSH2 0x87F6 JUMP JUMPDEST SWAP2 POP PUSH2 0x955D DUP3 PUSH2 0x951C JUMP JUMPDEST PUSH1 0x20 DUP3 ADD SWAP1 POP SWAP2 SWAP1 POP JUMP JUMPDEST PUSH1 0x0 PUSH1 0x20 DUP3 ADD SWAP1 POP DUP2 DUP2 SUB PUSH1 0x0 DUP4 ADD MSTORE PUSH2 0x9581 DUP2 PUSH2 0x9545 JUMP JUMPDEST SWAP1 POP SWAP2 SWAP1 POP JUMP JUMPDEST PUSH32 0x4E487B7100000000000000000000000000000000000000000000000000000000 PUSH1 0x0 MSTORE PUSH1 0x22 PUSH1 0x4 MSTORE PUSH1 0x24 PUSH1 0x0 REVERT JUMPDEST PUSH1 0x0 PUSH1 0x2 DUP3 DIV SWAP1 POP PUSH1 0x1 DUP3 AND DUP1 PUSH2 0x95CF JUMPI PUSH1 0x7F DUP3 AND SWAP2 POP JUMPDEST PUSH1 0x20 DUP3 LT DUP2 SUB PUSH2 0x95E2 JUMPI PUSH2 0x95E1 PUSH2 0x9588 JUMP JUMPDEST JUMPDEST POP SWAP2 SWAP1 POP JUMP JUMPDEST PUSH1 0x0 DUP2 SWAP1 POP DUP2 PUSH1 0x0 MSTORE PUSH1 0x20 PUSH1 0x0 KECCAK256 SWAP1 POP SWAP2 SWAP1 POP JUMP JUMPDEST PUSH1 0x0 PUSH1 0x20 PUSH1 0x1F DUP4 ADD DIV SWAP1 POP SWAP2 SWAP1 POP JUMP JUMPDEST PUSH1 0x0 DUP3 DUP3 SHL SWAP1 POP SWAP3 SWAP2 POP POP JUMP JUMPDEST PUSH1 0x0 PUSH1 0x8 DUP4 MUL PUSH2 0x964A PUSH32 0xFFFFFFFFFFFFFFFFFFFFFFFFFFFFFFFFFFFFFFFFFFFFFFFFFFFFFFFFFFFFFFFF DUP3 PUSH2 0x960D JUMP JUMPDEST PUSH2 0x9654 DUP7 DUP4 PUSH2 0x960D JUMP JUMPDEST SWAP6 POP DUP1 NOT DUP5 AND SWAP4 POP DUP1 DUP7 AND DUP5 OR SWAP3 POP POP POP SWAP4 SWAP3 POP POP POP JUMP JUMPDEST PUSH1 0x0 PUSH2 0x9687 PUSH2 0x9682 PUSH2 0x967D DUP5 PUSH2 0x8399 JUMP JUMPDEST PUSH2 0x8BFB JUMP JUMPDEST PUSH2 0x8399 JUMP JUMPDEST SWAP1 POP SWAP2 SWAP1 POP JUMP JUMPDEST PUSH1 0x0 DUP2 SWAP1 POP SWAP2 SWAP1 POP JUMP JUMPDEST PUSH2 0x96A1 DUP4 PUSH2 0x966C JUMP JUMPDEST PUSH2 0x96B5 PUSH2 0x96AD DUP3 PUSH2 0x968E JUMP JUMPDEST DUP5 DUP5 SLOAD PUSH2 0x961A JUMP JUMPDEST DUP3 SSTORE POP POP POP POP JUMP JUMPDEST PUSH1 0x0 SWAP1 JUMP JUMPDEST PUSH2 0x96CA PUSH2 0x96BD JUMP JUMPDEST PUSH2 0x96D5 DUP2 DUP5 DUP5 PUSH2 0x9698 JUMP JUMPDEST POP POP POP JUMP JUMPDEST JUMPDEST DUP2 DUP2 LT ISZERO PUSH2 0x96F9 JUMPI PUSH2 0x96EE PUSH1 0x0 DUP3 PUSH2 0x96C2 JUMP JUMPDEST PUSH1 0x1 DUP2 ADD SWAP1 POP PUSH2 0x96DB JUMP JUMPDEST POP POP JUMP JUMPDEST PUSH1 0x1F DUP3 GT ISZERO PUSH2 0x973E JUMPI PUSH2 0x970F DUP2 PUSH2 0x95E8 JUMP JUMPDEST PUSH2 0x9718 DUP5 PUSH2 0x95FD JUMP JUMPDEST DUP2 ADD PUSH1 0x20 DUP6 LT ISZERO PUSH2 0x9727 JUMPI DUP2 SWAP1 POP JUMPDEST PUSH2 0x973B PUSH2 0x9733 DUP6 PUSH2 0x95FD JUMP JUMPDEST DUP4 ADD DUP3 PUSH2 0x96DA JUMP JUMPDEST POP POP JUMPDEST POP POP POP JUMP JUMPDEST PUSH1 0x0 DUP3 DUP3 SHR SWAP1 POP SWAP3 SWAP2 POP POP JUMP JUMPDEST PUSH1 0x0 PUSH2 0x9761 PUSH1 0x0 NOT DUP5 PUSH1 0x8 MUL PUSH2 0x9743 JUMP JUMPDEST NOT DUP1 DUP4 AND SWAP2 POP POP SWAP3 SWAP2 POP POP JUMP JUMPDEST PUSH1 0x0 PUSH2 0x977A DUP4 DUP4 PUSH2 0x9750 JUMP JUMPDEST SWAP2 POP DUP3 PUSH1 0x2 MUL DUP3 OR SWAP1 POP SWAP3 SWAP2 POP POP JUMP JUMPDEST PUSH2 0x9793 DUP3 PUSH2 0x87EB JUMP JUMPDEST PUSH8 0xFFFFFFFFFFFFFFFF DUP2 GT ISZERO PUSH2 0x97AC JUMPI PUSH2 0x97AB PUSH2 0x8625 JUMP JUMPDEST JUMPDEST PUSH2 0x97B6 DUP3 SLOAD PUSH2 0x95B7 JUMP JUMPDEST PUSH2 0x97C1 DUP3 DUP3 DUP6 PUSH2 0x96FD JUMP JUMPDEST PUSH1 0x0 PUSH1 0x20 SWAP1 POP PUSH1 0x1F DUP4 GT PUSH1 0x1 DUP2 EQ PUSH2 0x97F4 JUMPI PUSH1 0x0 DUP5 ISZERO PUSH2 0x97E2 JUMPI DUP3 DUP8 ADD MLOAD SWAP1 POP JUMPDEST PUSH2 0x97EC DUP6 DUP3 PUSH2 0x976E JUMP JUMPDEST DUP7 SSTORE POP PUSH2 0x9854 JUMP JUMPDEST PUSH1 0x1F NOT DUP5 AND PUSH2 0x9802 DUP7 PUSH2 0x95E8 JUMP JUMPDEST PUSH1 0x0 JUMPDEST DUP3 DUP2 LT ISZERO PUSH2 0x982A JUMPI DUP5 DUP10 ADD MLOAD DUP3 SSTORE PUSH1 0x1 DUP3 ADD SWAP2 POP PUSH1 0x20 DUP6 ADD SWAP5 POP PUSH1 0x20 DUP2 ADD SWAP1 POP PUSH2 0x9805 JUMP JUMPDEST DUP7 DUP4 LT ISZERO PUSH2 0x9847 JUMPI DUP5 DUP10 ADD MLOAD PUSH2 0x9843 PUSH1 0x1F DUP10 AND DUP3 PUSH2 0x9750 JUMP JUMPDEST DUP4 SSTORE POP JUMPDEST PUSH1 0x1 PUSH1 0x2 DUP9 MUL ADD DUP9 SSTORE POP POP POP JUMPDEST POP POP POP POP POP POP JUMP JUMPDEST PUSH1 0x0 PUSH1 0x60 DUP3 ADD SWAP1 POP PUSH2 0x9871 PUSH1 0x0 DUP4 ADD DUP7 PUSH2 0x88EB JUMP JUMPDEST PUSH2 0x987E PUSH1 0x20 DUP4 ADD DUP6 PUSH2 0x88EB JUMP JUMPDEST PUSH2 0x988B PUSH1 0x40 DUP4 ADD DUP5 PUSH2 0x8981 JUMP JUMPDEST SWAP5 SWAP4 POP POP POP POP JUMP JUMPDEST PUSH1 0x0 PUSH1 0x40 DUP3 ADD SWAP1 POP PUSH2 0x98A8 PUSH1 0x0 DUP4 ADD DUP6 PUSH2 0x88EB JUMP JUMPDEST PUSH2 0x98B5 PUSH1 0x20 DUP4 ADD DUP5 PUSH2 0x8981 JUMP JUMPDEST SWAP4 SWAP3 POP POP POP JUMP JUMPDEST PUSH1 0x0 DUP2 MLOAD SWAP1 POP SWAP2 SWAP1 POP JUMP JUMPDEST PUSH1 0x0 DUP3 DUP3 MSTORE PUSH1 0x20 DUP3 ADD SWAP1 POP SWAP3 SWAP2 POP POP JUMP JUMPDEST PUSH1 0x0 DUP2 SWAP1 POP PUSH1 0x20 DUP3 ADD SWAP1 POP SWAP2 SWAP1 POP JUMP JUMPDEST PUSH2 0x98F1 DUP2 PUSH2 0x8399 JUMP JUMPDEST DUP3 MSTORE POP POP JUMP JUMPDEST PUSH1 0x0 PUSH2 0x9903 DUP4 DUP4 PUSH2 0x98E8 JUMP JUMPDEST PUSH1 0x20 DUP4 ADD SWAP1 POP SWAP3 SWAP2 POP POP JUMP JUMPDEST PUSH1 0x0 PUSH1 0x20 DUP3 ADD SWAP1 POP SWAP2 SWAP1 POP JUMP JUMPDEST PUSH1 0x0 PUSH2 0x9927 DUP3 PUSH2 0x98BC JUMP JUMPDEST PUSH2 0x9931 DUP2 DUP6 PUSH2 0x98C7 JUMP JUMPDEST SWAP4 POP PUSH2 0x993C DUP4 PUSH2 0x98D8 JUMP JUMPDEST DUP1 PUSH1 0x0 JUMPDEST DUP4 DUP2 LT ISZERO PUSH2 0x996D JUMPI DUP2 MLOAD PUSH2 0x9954 DUP9 DUP3 PUSH2 0x98F7 JUMP JUMPDEST SWAP8 POP PUSH2 0x995F DUP4 PUSH2 0x990F JUMP JUMPDEST SWAP3 POP POP PUSH1 0x1 DUP2 ADD SWAP1 POP PUSH2 0x9940 JUMP JUMPDEST POP DUP6 SWAP4 POP POP POP POP SWAP3 SWAP2 POP POP JUMP JUMPDEST PUSH32 0x5052494E54455200000000000000000000000000000000000000000000000000 PUSH1 0x0 DUP3 ADD MSTORE POP JUMP JUMPDEST PUSH1 0x0 PUSH2 0x99B0 PUSH1 0x7 DUP4 PUSH2 0x87F6 JUMP JUMPDEST SWAP2 POP PUSH2 0x99BB DUP3 PUSH2 0x997A JUMP JUMPDEST PUSH1 0x20 DUP3 ADD SWAP1 POP SWAP2 SWAP1 POP JUMP JUMPDEST PUSH1 0x0 PUSH2 0x100 DUP3 ADD SWAP1 POP PUSH2 0x99DC PUSH1 0x0 DUP4 ADD DUP11 PUSH2 0x88EB JUMP JUMPDEST DUP2 DUP2 SUB PUSH1 0x20 DUP4 ADD MSTORE PUSH2 0x99EE DUP2 DUP10 PUSH2 0x991C JUMP JUMPDEST SWAP1 POP PUSH2 0x99FD PUSH1 0x40 DUP4 ADD DUP9 PUSH2 0x8981 JUMP JUMPDEST PUSH2 0x9A0A PUSH1 0x60 DUP4 ADD DUP8 PUSH2 0x8981 JUMP JUMPDEST PUSH2 0x9A17 PUSH1 0x80 DUP4 ADD DUP7 PUSH2 0x8981 JUMP JUMPDEST PUSH2 0x9A24 PUSH1 0xA0 DUP4 ADD DUP6 PUSH2 0x8981 JUMP JUMPDEST PUSH2 0x9A31 PUSH1 0xC0 DUP4 ADD DUP5 PUSH2 0x85C1 JUMP JUMPDEST DUP2 DUP2 SUB PUSH1 0xE0 DUP4 ADD MSTORE PUSH2 0x9A42 DUP2 PUSH2 0x99A3 JUMP JUMPDEST SWAP1 POP SWAP9 SWAP8 POP POP POP POP POP POP POP POP JUMP JUMPDEST PUSH32 0x4552433732313A20617070726F76616C20746F2063757272656E74206F776E65 PUSH1 0x0 DUP3 ADD MSTORE PUSH32 0x7200000000000000000000000000000000000000000000000000000000000000 PUSH1 0x20 DUP3 ADD MSTORE POP JUMP JUMPDEST PUSH1 0x0 PUSH2 0x9AAC PUSH1 0x21 DUP4 PUSH2 0x87F6 JUMP JUMPDEST SWAP2 POP PUSH2 0x9AB7 DUP3 PUSH2 0x9A50 JUMP JUMPDEST PUSH1 0x40 DUP3 ADD SWAP1 POP SWAP2 SWAP1 POP JUMP JUMPDEST PUSH1 0x0 PUSH1 0x20 DUP3 ADD SWAP1 POP DUP2 DUP2 SUB PUSH1 0x0 DUP4 ADD MSTORE PUSH2 0x9ADB DUP2 PUSH2 0x9A9F JUMP JUMPDEST SWAP1 POP SWAP2 SWAP1 POP JUMP JUMPDEST PUSH32 0x4552433732313A20617070726F76652063616C6C6572206973206E6F7420746F PUSH1 0x0 DUP3 ADD MSTORE PUSH32 0x6B656E206F776E6572206F7220617070726F76656420666F7220616C6C000000 PUSH1 0x20 DUP3 ADD MSTORE POP JUMP JUMPDEST PUSH1 0x0 PUSH2 0x9B3E PUSH1 0x3D DUP4 PUSH2 0x87F6 JUMP JUMPDEST SWAP2 POP PUSH2 0x9B49 DUP3 PUSH2 0x9AE2 JUMP JUMPDEST PUSH1 0x40 DUP3 ADD SWAP1 POP SWAP2 SWAP1 POP JUMP JUMPDEST PUSH1 0x0 PUSH1 0x20 DUP3 ADD SWAP1 POP DUP2 DUP2 SUB PUSH1 0x0 DUP4 ADD MSTORE PUSH2 0x9B6D DUP2 PUSH2 0x9B31 JUMP JUMPDEST SWAP1 POP SWAP2 SWAP1 POP JUMP JUMPDEST PUSH32 0x41726645524337323156313A20496E76616C69642065706F6368206964206F72 PUSH1 0x0 DUP3 ADD MSTORE PUSH32 0x206E6F7420656E6F756768207175616E74697479000000000000000000000000 PUSH1 0x20 DUP3 ADD MSTORE POP JUMP JUMPDEST PUSH1 0x0 PUSH2 0x9BD0 PUSH1 0x34 DUP4 PUSH2 0x87F6 JUMP JUMPDEST SWAP2 POP PUSH2 0x9BDB DUP3 PUSH2 0x9B74 JUMP JUMPDEST PUSH1 0x40 DUP3 ADD SWAP1 POP SWAP2 SWAP1 POP JUMP JUMPDEST PUSH1 0x0 PUSH1 0x20 DUP3 ADD SWAP1 POP DUP2 DUP2 SUB PUSH1 0x0 DUP4 ADD MSTORE PUSH2 0x9BFF DUP2 PUSH2 0x9BC3 JUMP JUMPDEST SWAP1 POP SWAP2 SWAP1 POP JUMP JUMPDEST PUSH1 0x0 DUP2 MLOAD SWAP1 POP PUSH2 0x9C15 DUP2 PUSH2 0x8915 JUMP JUMPDEST SWAP3 SWAP2 POP POP JUMP JUMPDEST PUSH1 0x0 PUSH1 0x20 DUP3 DUP5 SUB SLT ISZERO PUSH2 0x9C31 JUMPI PUSH2 0x9C30 PUSH2 0x838F JUMP JUMPDEST JUMPDEST PUSH1 0x0 PUSH2 0x9C3F DUP5 DUP3 DUP6 ADD PUSH2 0x9C06 JUMP JUMPDEST SWAP2 POP POP SWAP3 SWAP2 POP POP JUMP JUMPDEST PUSH32 0x4172664552433732313A204E6F742061206F776E657200000000000000000000 PUSH1 0x0 DUP3 ADD MSTORE POP JUMP JUMPDEST PUSH1 0x0 PUSH2 0x9C7E PUSH1 0x16 DUP4 PUSH2 0x87F6 JUMP JUMPDEST SWAP2 POP PUSH2 0x9C89 DUP3 PUSH2 0x9C48 JUMP JUMPDEST PUSH1 0x20 DUP3 ADD SWAP1 POP SWAP2 SWAP1 POP JUMP JUMPDEST PUSH1 0x0 PUSH1 0x20 DUP3 ADD SWAP1 POP DUP2 DUP2 SUB PUSH1 0x0 DUP4 ADD MSTORE PUSH2 0x9CAD DUP2 PUSH2 0x9C71 JUMP JUMPDEST SWAP1 POP SWAP2 SWAP1 POP JUMP JUMPDEST PUSH1 0x0 DUP2 MLOAD SWAP1 POP PUSH2 0x9CC3 DUP2 PUSH2 0x83A3 JUMP JUMPDEST SWAP3 SWAP2 POP POP JUMP JUMPDEST PUSH1 0x0 PUSH1 0x20 DUP3 DUP5 SUB SLT ISZERO PUSH2 0x9CDF JUMPI PUSH2 0x9CDE PUSH2 0x838F JUMP JUMPDEST JUMPDEST PUSH1 0x0 PUSH2 0x9CED DUP5 DUP3 DUP6 ADD PUSH2 0x9CB4 JUMP JUMPDEST SWAP2 POP POP SWAP3 SWAP2 POP POP JUMP JUMPDEST PUSH1 0x0 DUP2 SWAP1 POP SWAP2 SWAP1 POP JUMP JUMPDEST PUSH1 0x0 PUSH2 0x9D1B PUSH2 0x9D16 PUSH2 0x9D11 DUP5 PUSH2 0x9CF6 JUMP JUMPDEST PUSH2 0x8BFB JUMP JUMPDEST PUSH2 0x8399 JUMP JUMPDEST SWAP1 POP SWAP2 SWAP1 POP JUMP JUMPDEST PUSH2 0x9D2B DUP2 PUSH2 0x9D00 JUMP JUMPDEST DUP3 MSTORE POP POP JUMP JUMPDEST PUSH1 0x0 DUP1 REVERT JUMPDEST DUP3 DUP2 DUP4 CALLDATACOPY POP POP POP JUMP JUMPDEST PUSH1 0x0 PUSH2 0x9D4B DUP4 DUP6 PUSH2 0x98C7 JUMP JUMPDEST SWAP4 POP PUSH32 0x7FFFFFFFFFFFFFFFFFFFFFFFFFFFFFFFFFFFFFFFFFFFFFFFFFFFFFFFFFFFFFF DUP4 GT ISZERO PUSH2 0x9D7E JUMPI PUSH2 0x9D7D PUSH2 0x9D31 JUMP JUMPDEST JUMPDEST PUSH1 0x20 DUP4 MUL SWAP3 POP PUSH2 0x9D8F DUP4 DUP6 DUP5 PUSH2 0x9D36 JUMP JUMPDEST DUP3 DUP5 ADD SWAP1 POP SWAP4 SWAP3 POP POP POP JUMP JUMPDEST PUSH1 0x0 PUSH1 0xA0 DUP3 ADD SWAP1 POP PUSH2 0x9DB0 PUSH1 0x0 DUP4 ADD DUP10 PUSH2 0x88EB JUMP JUMPDEST PUSH2 0x9DBD PUSH1 0x20 DUP4 ADD DUP9 PUSH2 0x9D22 JUMP JUMPDEST DUP2 DUP2 SUB PUSH1 0x40 DUP4 ADD MSTORE PUSH2 0x9DCF DUP2 DUP8 PUSH2 0x991C JUMP JUMPDEST SWAP1 POP DUP2 DUP2 SUB PUSH1 0x60 DUP4 ADD MSTORE PUSH2 0x9DE3 DUP2 DUP7 PUSH2 0x991C JUMP JUMPDEST SWAP1 POP DUP2 DUP2 SUB PUSH1 0x80 DUP4 ADD MSTORE PUSH2 0x9DF8 DUP2 DUP5 DUP7 PUSH2 0x9D3F JUMP JUMPDEST SWAP1 POP SWAP8 SWAP7 POP POP POP POP POP POP POP JUMP JUMPDEST PUSH32 0x4172664552433732313A204E6F742077686974656C6973746564000000000000 PUSH1 0x0 DUP3 ADD MSTORE POP JUMP JUMPDEST PUSH1 0x0 PUSH2 0x9E3B PUSH1 0x1A DUP4 PUSH2 0x87F6 JUMP JUMPDEST SWAP2 POP PUSH2 0x9E46 DUP3 PUSH2 0x9E05 JUMP JUMPDEST PUSH1 0x20 DUP3 ADD SWAP1 POP SWAP2 SWAP1 POP JUMP JUMPDEST PUSH1 0x0 PUSH1 0x20 DUP3 ADD SWAP1 POP DUP2 DUP2 SUB PUSH1 0x0 DUP4 ADD MSTORE PUSH2 0x9E6A DUP2 PUSH2 0x9E2E JUMP JUMPDEST SWAP1 POP SWAP2 SWAP1 POP JUMP JUMPDEST PUSH1 0x0 DUP2 SWAP1 POP SWAP2 SWAP1 POP JUMP JUMPDEST PUSH1 0x0 PUSH2 0x9E96 PUSH2 0x9E91 PUSH2 0x9E8C DUP5 PUSH2 0x9E71 JUMP JUMPDEST PUSH2 0x8BFB JUMP JUMPDEST PUSH2 0x8399 JUMP JUMPDEST SWAP1 POP SWAP2 SWAP1 POP JUMP JUMPDEST PUSH2 0x9EA6 DUP2 PUSH2 0x9E7B JUMP JUMPDEST DUP3 MSTORE POP POP JUMP JUMPDEST PUSH1 0x0 PUSH1 0x80 DUP3 ADD SWAP1 POP PUSH2 0x9EC1 PUSH1 0x0 DUP4 ADD DUP8 PUSH2 0x88EB JUMP JUMPDEST PUSH2 0x9ECE PUSH1 0x20 DUP4 ADD DUP7 PUSH2 0x9E9D JUMP JUMPDEST PUSH2 0x9EDB PUSH1 0x40 DUP4 ADD DUP6 PUSH2 0x8981 JUMP JUMPDEST PUSH2 0x9EE8 PUSH1 0x60 DUP4 ADD DUP5 PUSH2 0x8981 JUMP JUMPDEST SWAP6 SWAP5 POP POP POP POP POP JUMP JUMPDEST PUSH1 0x0 DUP3 DUP3 MSTORE PUSH1 0x20 DUP3 ADD SWAP1 POP SWAP3 SWAP2 POP POP JUMP JUMPDEST PUSH1 0x0 DUP2 SWAP1 POP SWAP2 SWAP1 POP JUMP JUMPDEST PUSH2 0x9F15 DUP2 PUSH2 0x88D9 JUMP JUMPDEST DUP3 MSTORE POP POP JUMP JUMPDEST PUSH1 0x0 PUSH2 0x9F27 DUP4 DUP4 PUSH2 0x9F0C JUMP JUMPDEST PUSH1 0x20 DUP4 ADD SWAP1 POP SWAP3 SWAP2 POP POP JUMP JUMPDEST PUSH1 0x0 PUSH2 0x9F42 PUSH1 0x20 DUP5 ADD DUP5 PUSH2 0x892C JUMP JUMPDEST SWAP1 POP SWAP3 SWAP2 POP POP JUMP JUMPDEST PUSH1 0x0 PUSH1 0x20 DUP3 ADD SWAP1 POP SWAP2 SWAP1 POP JUMP JUMPDEST PUSH1 0x0 PUSH2 0x9F63 DUP4 DUP6 PUSH2 0x9EF1 JUMP JUMPDEST SWAP4 POP PUSH2 0x9F6E DUP3 PUSH2 0x9F02 JUMP JUMPDEST DUP1 PUSH1 0x0 JUMPDEST DUP6 DUP2 LT ISZERO PUSH2 0x9FA7 JUMPI PUSH2 0x9F84 DUP3 DUP5 PUSH2 0x9F33 JUMP JUMPDEST PUSH2 0x9F8E DUP9 DUP3 PUSH2 0x9F1B JUMP JUMPDEST SWAP8 POP PUSH2 0x9F99 DUP4 PUSH2 0x9F4A JUMP JUMPDEST SWAP3 POP POP PUSH1 0x1 DUP2 ADD SWAP1 POP PUSH2 0x9F72 JUMP JUMPDEST POP DUP6 SWAP3 POP POP POP SWAP4 SWAP3 POP POP POP JUMP JUMPDEST PUSH1 0x0 PUSH1 0x40 DUP3 ADD SWAP1 POP DUP2 DUP2 SUB PUSH1 0x0 DUP4 ADD MSTORE PUSH2 0x9FCF DUP2 DUP6 DUP8 PUSH2 0x9F57 JUMP JUMPDEST SWAP1 POP PUSH2 0x9FDE PUSH1 0x20 DUP4 ADD DUP5 PUSH2 0x85C1 JUMP JUMPDEST SWAP5 SWAP4 POP POP POP POP JUMP JUMPDEST PUSH32 0x4552433732313A2063616C6C6572206973206E6F7420746F6B656E206F776E65 PUSH1 0x0 DUP3 ADD MSTORE PUSH32 0x72206F7220617070726F76656400000000000000000000000000000000000000 PUSH1 0x20 DUP3 ADD MSTORE POP JUMP JUMPDEST PUSH1 0x0 PUSH2 0xA042 PUSH1 0x2D DUP4 PUSH2 0x87F6 JUMP JUMPDEST SWAP2 POP PUSH2 0xA04D DUP3 PUSH2 0x9FE6 JUMP JUMPDEST PUSH1 0x40 DUP3 ADD SWAP1 POP SWAP2 SWAP1 POP JUMP JUMPDEST PUSH1 0x0 PUSH1 0x20 DUP3 ADD SWAP1 POP DUP2 DUP2 SUB PUSH1 0x0 DUP4 ADD MSTORE PUSH2 0xA071 DUP2 PUSH2 0xA035 JUMP JUMPDEST SWAP1 POP SWAP2 SWAP1 POP JUMP JUMPDEST PUSH1 0x0 PUSH2 0xA083 DUP3 PUSH2 0x8399 JUMP JUMPDEST SWAP2 POP PUSH2 0xA08E DUP4 PUSH2 0x8399 JUMP JUMPDEST SWAP3 POP DUP2 PUSH32 0xFFFFFFFFFFFFFFFFFFFFFFFFFFFFFFFFFFFFFFFFFFFFFFFFFFFFFFFFFFFFFFFF DIV DUP4 GT DUP3 ISZERO ISZERO AND ISZERO PUSH2 0xA0C7 JUMPI PUSH2 0xA0C6 PUSH2 0x9267 JUMP JUMPDEST JUMPDEST DUP3 DUP3 MUL SWAP1 POP SWAP3 SWAP2 POP POP JUMP JUMPDEST PUSH32 0x4E487B7100000000000000000000000000000000000000000000000000000000 PUSH1 0x0 MSTORE PUSH1 0x12 PUSH1 0x4 MSTORE PUSH1 0x24 PUSH1 0x0 REVERT JUMPDEST PUSH1 0x0 PUSH2 0xA10C DUP3 PUSH2 0x8399 JUMP JUMPDEST SWAP2 POP PUSH2 0xA117 DUP4 PUSH2 0x8399 JUMP JUMPDEST SWAP3 POP DUP3 PUSH2 0xA127 JUMPI PUSH2 0xA126 PUSH2 0xA0D2 JUMP JUMPDEST JUMPDEST DUP3 DUP3 DIV SWAP1 POP SWAP3 SWAP2 POP POP JUMP JUMPDEST PUSH32 0x41726645524337323156313A204E6F742077686974656C697374656420757365 PUSH1 0x0 DUP3 ADD MSTORE PUSH32 0x7200000000000000000000000000000000000000000000000000000000000000 PUSH1 0x20 DUP3 ADD MSTORE POP JUMP JUMPDEST PUSH1 0x0 PUSH2 0xA18E PUSH1 0x21 DUP4 PUSH2 0x87F6 JUMP JUMPDEST SWAP2 POP PUSH2 0xA199 DUP3 PUSH2 0xA132 JUMP JUMPDEST PUSH1 0x40 DUP3 ADD SWAP1 POP SWAP2 SWAP1 POP JUMP JUMPDEST PUSH1 0x0 PUSH1 0x20 DUP3 ADD SWAP1 POP DUP2 DUP2 SUB PUSH1 0x0 DUP4 ADD MSTORE PUSH2 0xA1BD DUP2 PUSH2 0xA181 JUMP JUMPDEST SWAP1 POP SWAP2 SWAP1 POP JUMP JUMPDEST PUSH1 0x0 DUP2 SWAP1 POP SWAP2 SWAP1 POP JUMP JUMPDEST PUSH1 0x0 PUSH2 0xA1E9 PUSH2 0xA1E4 PUSH2 0xA1DF DUP5 PUSH2 0xA1C4 JUMP JUMPDEST PUSH2 0x8BFB JUMP JUMPDEST PUSH2 0x8399 JUMP JUMPDEST SWAP1 POP SWAP2 SWAP1 POP JUMP JUMPDEST PUSH2 0xA1F9 DUP2 PUSH2 0xA1CE JUMP JUMPDEST DUP3 MSTORE POP POP JUMP JUMPDEST PUSH1 0x0 PUSH1 0x60 DUP3 ADD SWAP1 POP PUSH2 0xA214 PUSH1 0x0 DUP4 ADD DUP7 PUSH2 0x88EB JUMP JUMPDEST PUSH2 0xA221 PUSH1 0x20 DUP4 ADD DUP6 PUSH2 0x8981 JUMP JUMPDEST PUSH2 0xA22E PUSH1 0x40 DUP4 ADD DUP5 PUSH2 0xA1F0 JUMP JUMPDEST SWAP5 SWAP4 POP POP POP POP JUMP JUMPDEST PUSH32 0x4552433732313A20696E76616C696420746F6B656E2049440000000000000000 PUSH1 0x0 DUP3 ADD MSTORE POP JUMP JUMPDEST PUSH1 0x0 PUSH2 0xA26C PUSH1 0x18 DUP4 PUSH2 0x87F6 JUMP JUMPDEST SWAP2 POP PUSH2 0xA277 DUP3 PUSH2 0xA236 JUMP JUMPDEST PUSH1 0x20 DUP3 ADD SWAP1 POP SWAP2 SWAP1 POP JUMP JUMPDEST PUSH1 0x0 PUSH1 0x20 DUP3 ADD SWAP1 POP DUP2 DUP2 SUB PUSH1 0x0 DUP4 ADD MSTORE PUSH2 0xA29B DUP2 PUSH2 0xA25F JUMP JUMPDEST SWAP1 POP SWAP2 SWAP1 POP JUMP JUMPDEST PUSH1 0x0 PUSH1 0x60 DUP3 ADD SWAP1 POP PUSH2 0xA2B7 PUSH1 0x0 DUP4 ADD DUP7 PUSH2 0x88EB JUMP JUMPDEST PUSH2 0xA2C4 PUSH1 0x20 DUP4 ADD DUP6 PUSH2 0x8981 JUMP JUMPDEST PUSH2 0xA2D1 PUSH1 0x40 DUP4 ADD DUP5 PUSH2 0x8981 JUMP JUMPDEST SWAP5 SWAP4 POP POP POP POP JUMP JUMPDEST PUSH32 0x4552433732313A2061646472657373207A65726F206973206E6F742061207661 PUSH1 0x0 DUP3 ADD MSTORE PUSH32 0x6C6964206F776E65720000000000000000000000000000000000000000000000 PUSH1 0x20 DUP3 ADD MSTORE POP JUMP JUMPDEST PUSH1 0x0 PUSH2 0xA335 PUSH1 0x29 DUP4 PUSH2 0x87F6 JUMP JUMPDEST SWAP2 POP PUSH2 0xA340 DUP3 PUSH2 0xA2D9 JUMP JUMPDEST PUSH1 0x40 DUP3 ADD SWAP1 POP SWAP2 SWAP1 POP JUMP JUMPDEST PUSH1 0x0 PUSH1 0x20 DUP3 ADD SWAP1 POP DUP2 DUP2 SUB PUSH1 0x0 DUP4 ADD MSTORE PUSH2 0xA364 DUP2 PUSH2 0xA328 JUMP JUMPDEST SWAP1 POP SWAP2 SWAP1 POP JUMP JUMPDEST PUSH32 0x496E697469616C697A61626C653A20636F6E747261637420697320616C726561 PUSH1 0x0 DUP3 ADD MSTORE PUSH32 0x647920696E697469616C697A6564000000000000000000000000000000000000 PUSH1 0x20 DUP3 ADD MSTORE POP JUMP JUMPDEST PUSH1 0x0 PUSH2 0xA3C7 PUSH1 0x2E DUP4 PUSH2 0x87F6 JUMP JUMPDEST SWAP2 POP PUSH2 0xA3D2 DUP3 PUSH2 0xA36B JUMP JUMPDEST PUSH1 0x40 DUP3 ADD SWAP1 POP SWAP2 SWAP1 POP JUMP JUMPDEST PUSH1 0x0 PUSH1 0x20 DUP3 ADD SWAP1 POP DUP2 DUP2 SUB PUSH1 0x0 DUP4 ADD MSTORE PUSH2 0xA3F6 DUP2 PUSH2 0xA3BA JUMP JUMPDEST SWAP1 POP SWAP2 SWAP1 POP JUMP JUMPDEST PUSH1 0x0 DUP2 SWAP1 POP SWAP2 SWAP1 POP JUMP JUMPDEST PUSH1 0x0 PUSH1 0xFF DUP3 AND SWAP1 POP SWAP2 SWAP1 POP JUMP JUMPDEST PUSH1 0x0 PUSH2 0xA42F PUSH2 0xA42A PUSH2 0xA425 DUP5 PUSH2 0xA3FD JUMP JUMPDEST PUSH2 0x8BFB JUMP JUMPDEST PUSH2 0xA407 JUMP JUMPDEST SWAP1 POP SWAP2 SWAP1 POP JUMP JUMPDEST PUSH2 0xA43F DUP2 PUSH2 0xA414 JUMP JUMPDEST DUP3 MSTORE POP POP JUMP JUMPDEST PUSH1 0x0 PUSH1 0x20 DUP3 ADD SWAP1 POP PUSH2 0xA45A PUSH1 0x0 DUP4 ADD DUP5 PUSH2 0xA436 JUMP JUMPDEST SWAP3 SWAP2 POP POP JUMP JUMPDEST PUSH32 0x41726645524337323156313A204E6F74206C6973746564000000000000000000 PUSH1 0x0 DUP3 ADD MSTORE POP JUMP JUMPDEST PUSH1 0x0 PUSH2 0xA496 PUSH1 0x17 DUP4 PUSH2 0x87F6 JUMP JUMPDEST SWAP2 POP PUSH2 0xA4A1 DUP3 PUSH2 0xA460 JUMP JUMPDEST PUSH1 0x20 DUP3 ADD SWAP1 POP SWAP2 SWAP1 POP JUMP JUMPDEST PUSH1 0x0 PUSH1 0x20 DUP3 ADD SWAP1 POP DUP2 DUP2 SUB PUSH1 0x0 DUP4 ADD MSTORE PUSH2 0xA4C5 DUP2 PUSH2 0xA489 JUMP JUMPDEST SWAP1 POP SWAP2 SWAP1 POP JUMP JUMPDEST PUSH32 0x41726645524337323156313A205072697A6520697320696E636F727265637420 PUSH1 0x0 DUP3 ADD MSTORE PUSH32 0x6F7220696E76616C696400000000000000000000000000000000000000000000 PUSH1 0x20 DUP3 ADD MSTORE POP JUMP JUMPDEST PUSH1 0x0 PUSH2 0xA528 PUSH1 0x2A DUP4 PUSH2 0x87F6 JUMP JUMPDEST SWAP2 POP PUSH2 0xA533 DUP3 PUSH2 0xA4CC JUMP JUMPDEST PUSH1 0x40 DUP3 ADD SWAP1 POP SWAP2 SWAP1 POP JUMP JUMPDEST PUSH1 0x0 PUSH1 0x20 DUP3 ADD SWAP1 POP DUP2 DUP2 SUB PUSH1 0x0 DUP4 ADD MSTORE PUSH2 0xA557 DUP2 PUSH2 0xA51B JUMP JUMPDEST SWAP1 POP SWAP2 SWAP1 POP JUMP JUMPDEST PUSH1 0x0 PUSH2 0xA569 DUP3 PUSH2 0x8399 JUMP JUMPDEST SWAP2 POP PUSH2 0xA574 DUP4 PUSH2 0x8399 JUMP JUMPDEST SWAP3 POP DUP3 DUP3 SUB SWAP1 POP DUP2 DUP2 GT ISZERO PUSH2 0xA58C JUMPI PUSH2 0xA58B PUSH2 0x9267 JUMP JUMPDEST JUMPDEST SWAP3 SWAP2 POP POP JUMP JUMPDEST PUSH1 0x0 DUP2 SLOAD PUSH2 0xA59F DUP2 PUSH2 0x95B7 JUMP JUMPDEST PUSH2 0xA5A9 DUP2 DUP7 PUSH2 0x87F6 JUMP JUMPDEST SWAP5 POP PUSH1 0x1 DUP3 AND PUSH1 0x0 DUP2 EQ PUSH2 0xA5C4 JUMPI PUSH1 0x1 DUP2 EQ PUSH2 0xA5DA JUMPI PUSH2 0xA60D JUMP JUMPDEST PUSH1 0xFF NOT DUP4 AND DUP7 MSTORE DUP2 ISZERO ISZERO PUSH1 0x20 MUL DUP7 ADD SWAP4 POP PUSH2 0xA60D JUMP JUMPDEST PUSH2 0xA5E3 DUP6 PUSH2 0x95E8 JUMP JUMPDEST PUSH1 0x0 JUMPDEST DUP4 DUP2 LT ISZERO PUSH2 0xA605 JUMPI DUP2 SLOAD DUP2 DUP10 ADD MSTORE PUSH1 0x1 DUP3 ADD SWAP2 POP PUSH1 0x20 DUP2 ADD SWAP1 POP PUSH2 0xA5E6 JUMP JUMPDEST DUP1 DUP9 ADD SWAP6 POP POP POP JUMPDEST POP POP POP SWAP3 SWAP2 POP POP JUMP JUMPDEST PUSH1 0x0 PUSH1 0xA0 DUP3 ADD SWAP1 POP PUSH2 0xA62B PUSH1 0x0 DUP4 ADD DUP9 PUSH2 0x88EB JUMP JUMPDEST PUSH2 0xA638 PUSH1 0x20 DUP4 ADD DUP8 PUSH2 0x88EB JUMP JUMPDEST PUSH2 0xA645 PUSH1 0x40 DUP4 ADD DUP7 PUSH2 0x8981 JUMP JUMPDEST PUSH2 0xA652 PUSH1 0x60 DUP4 ADD DUP6 PUSH2 0x8981 JUMP JUMPDEST DUP2 DUP2 SUB PUSH1 0x80 DUP4 ADD MSTORE PUSH2 0xA664 DUP2 DUP5 PUSH2 0xA592 JUMP JUMPDEST SWAP1 POP SWAP7 SWAP6 POP POP POP POP POP POP JUMP JUMPDEST PUSH32 0x41726645524337323156313A2055524920717565727920666F72206E6F6E6578 PUSH1 0x0 DUP3 ADD MSTORE PUSH32 0x697374656E7420746F6B656E0000000000000000000000000000000000000000 PUSH1 0x20 DUP3 ADD MSTORE POP JUMP JUMPDEST PUSH1 0x0 PUSH2 0xA6CC PUSH1 0x2C DUP4 PUSH2 0x87F6 JUMP JUMPDEST SWAP2 POP PUSH2 0xA6D7 DUP3 PUSH2 0xA670 JUMP JUMPDEST PUSH1 0x40 DUP3 ADD SWAP1 POP SWAP2 SWAP1 POP JUMP JUMPDEST PUSH1 0x0 PUSH1 0x20 DUP3 ADD SWAP1 POP DUP2 DUP2 SUB PUSH1 0x0 DUP4 ADD MSTORE PUSH2 0xA6FB DUP2 PUSH2 0xA6BF JUMP JUMPDEST SWAP1 POP SWAP2 SWAP1 POP JUMP JUMPDEST PUSH1 0x0 DUP2 SWAP1 POP SWAP3 SWAP2 POP POP JUMP JUMPDEST PUSH1 0x0 DUP2 SLOAD PUSH2 0xA71A DUP2 PUSH2 0x95B7 JUMP JUMPDEST PUSH2 0xA724 DUP2 DUP7 PUSH2 0xA702 JUMP JUMPDEST SWAP5 POP PUSH1 0x1 DUP3 AND PUSH1 0x0 DUP2 EQ PUSH2 0xA73F JUMPI PUSH1 0x1 DUP2 EQ PUSH2 0xA754 JUMPI PUSH2 0xA787 JUMP JUMPDEST PUSH1 0xFF NOT DUP4 AND DUP7 MSTORE DUP2 ISZERO ISZERO DUP3 MUL DUP7 ADD SWAP4 POP PUSH2 0xA787 JUMP JUMPDEST PUSH2 0xA75D DUP6 PUSH2 0x95E8 JUMP JUMPDEST PUSH1 0x0 JUMPDEST DUP4 DUP2 LT ISZERO PUSH2 0xA77F JUMPI DUP2 SLOAD DUP2 DUP10 ADD MSTORE PUSH1 0x1 DUP3 ADD SWAP2 POP PUSH1 0x20 DUP2 ADD SWAP1 POP PUSH2 0xA760 JUMP JUMPDEST DUP4 DUP9 ADD SWAP6 POP POP POP JUMPDEST POP POP POP SWAP3 SWAP2 POP POP JUMP JUMPDEST PUSH1 0x0 PUSH2 0xA79B DUP3 PUSH2 0x87EB JUMP JUMPDEST PUSH2 0xA7A5 DUP2 DUP6 PUSH2 0xA702 JUMP JUMPDEST SWAP4 POP PUSH2 0xA7B5 DUP2 DUP6 PUSH1 0x20 DUP7 ADD PUSH2 0x8807 JUMP JUMPDEST DUP1 DUP5 ADD SWAP2 POP POP SWAP3 SWAP2 POP POP JUMP JUMPDEST PUSH1 0x0 PUSH2 0xA7CD DUP3 DUP7 PUSH2 0xA70D JUMP JUMPDEST SWAP2 POP PUSH2 0xA7D9 DUP3 DUP6 PUSH2 0xA790 JUMP JUMPDEST SWAP2 POP PUSH2 0xA7E5 DUP3 DUP5 PUSH2 0xA70D JUMP JUMPDEST SWAP2 POP DUP2 SWAP1 POP SWAP5 SWAP4 POP POP POP POP JUMP JUMPDEST PUSH1 0x0 PUSH1 0xA0 DUP3 ADD SWAP1 POP PUSH2 0xA807 PUSH1 0x0 DUP4 ADD DUP9 PUSH2 0x88EB JUMP JUMPDEST PUSH2 0xA814 PUSH1 0x20 DUP4 ADD DUP8 PUSH2 0x9D22 JUMP JUMPDEST PUSH2 0xA821 PUSH1 0x40 DUP4 ADD DUP7 PUSH2 0x8981 JUMP JUMPDEST PUSH2 0xA82E PUSH1 0x60 DUP4 ADD DUP6 PUSH2 0x8981 JUMP JUMPDEST PUSH2 0xA83B PUSH1 0x80 DUP4 ADD DUP5 PUSH2 0x8981 JUMP JUMPDEST SWAP7 SWAP6 POP POP POP POP POP POP JUMP JUMPDEST PUSH32 0x41726645524337323156313A204E6F74207065726D6974746564000000000000 PUSH1 0x0 DUP3 ADD MSTORE POP JUMP JUMPDEST PUSH1 0x0 PUSH2 0xA87B PUSH1 0x1A DUP4 PUSH2 0x87F6 JUMP JUMPDEST SWAP2 POP PUSH2 0xA886 DUP3 PUSH2 0xA845 JUMP JUMPDEST PUSH1 0x20 DUP3 ADD SWAP1 POP SWAP2 SWAP1 POP JUMP JUMPDEST PUSH1 0x0 PUSH1 0x20 DUP3 ADD SWAP1 POP DUP2 DUP2 SUB PUSH1 0x0 DUP4 ADD MSTORE PUSH2 0xA8AA DUP2 PUSH2 0xA86E JUMP JUMPDEST SWAP1 POP SWAP2 SWAP1 POP JUMP JUMPDEST PUSH32 0x4F776E61626C653A206E6577206F776E657220697320746865207A65726F2061 PUSH1 0x0 DUP3 ADD MSTORE PUSH32 0x6464726573730000000000000000000000000000000000000000000000000000 PUSH1 0x20 DUP3 ADD MSTORE POP JUMP JUMPDEST PUSH1 0x0 PUSH2 0xA90D PUSH1 0x26 DUP4 PUSH2 0x87F6 JUMP JUMPDEST SWAP2 POP PUSH2 0xA918 DUP3 PUSH2 0xA8B1 JUMP JUMPDEST PUSH1 0x40 DUP3 ADD SWAP1 POP SWAP2 SWAP1 POP JUMP JUMPDEST PUSH1 0x0 PUSH1 0x20 DUP3 ADD SWAP1 POP DUP2 DUP2 SUB PUSH1 0x0 DUP4 ADD MSTORE PUSH2 0xA93C DUP2 PUSH2 0xA900 JUMP JUMPDEST SWAP1 POP SWAP2 SWAP1 POP JUMP JUMPDEST PUSH32 0x4F776E61626C653A2063616C6C6572206973206E6F7420746865206F776E6572 PUSH1 0x0 DUP3 ADD MSTORE POP JUMP JUMPDEST PUSH1 0x0 PUSH2 0xA979 PUSH1 0x20 DUP4 PUSH2 0x87F6 JUMP JUMPDEST SWAP2 POP PUSH2 0xA984 DUP3 PUSH2 0xA943 JUMP JUMPDEST PUSH1 0x20 DUP3 ADD SWAP1 POP SWAP2 SWAP1 POP JUMP JUMPDEST PUSH1 0x0 PUSH1 0x20 DUP3 ADD SWAP1 POP DUP2 DUP2 SUB PUSH1 0x0 DUP4 ADD MSTORE PUSH2 0xA9A8 DUP2 PUSH2 0xA96C JUMP JUMPDEST SWAP1 POP SWAP2 SWAP1 POP JUMP JUMPDEST PUSH32 0x5265656E7472616E637947756172643A207265656E7472616E742063616C6C00 PUSH1 0x0 DUP3 ADD MSTORE POP JUMP JUMPDEST PUSH1 0x0 PUSH2 0xA9E5 PUSH1 0x1F DUP4 PUSH2 0x87F6 JUMP JUMPDEST SWAP2 POP PUSH2 0xA9F0 DUP3 PUSH2 0xA9AF JUMP JUMPDEST PUSH1 0x20 DUP3 ADD SWAP1 POP SWAP2 SWAP1 POP JUMP JUMPDEST PUSH1 0x0 PUSH1 0x20 DUP3 ADD SWAP1 POP DUP2 DUP2 SUB PUSH1 0x0 DUP4 ADD MSTORE PUSH2 0xAA14 DUP2 PUSH2 0xA9D8 JUMP JUMPDEST SWAP1 POP SWAP2 SWAP1 POP JUMP JUMPDEST PUSH32 0x4E487B7100000000000000000000000000000000000000000000000000000000 PUSH1 0x0 MSTORE PUSH1 0x21 PUSH1 0x4 MSTORE PUSH1 0x24 PUSH1 0x0 REVERT JUMPDEST PUSH2 0xAA53 DUP2 PUSH2 0x8D2E JUMP JUMPDEST DUP3 MSTORE POP POP JUMP JUMPDEST PUSH1 0x0 PUSH1 0x40 DUP3 ADD SWAP1 POP PUSH2 0xAA6E PUSH1 0x0 DUP4 ADD DUP6 PUSH2 0xAA4A JUMP JUMPDEST DUP2 DUP2 SUB PUSH1 0x20 DUP4 ADD MSTORE PUSH2 0xAA80 DUP2 DUP5 PUSH2 0x934D JUMP JUMPDEST SWAP1 POP SWAP4 SWAP3 POP POP POP JUMP JUMPDEST PUSH1 0x0 DUP2 MLOAD SWAP1 POP PUSH2 0xAA98 DUP2 PUSH2 0x8D38 JUMP JUMPDEST SWAP3 SWAP2 POP POP JUMP JUMPDEST PUSH1 0x0 PUSH1 0x20 DUP3 DUP5 SUB SLT ISZERO PUSH2 0xAAB4 JUMPI PUSH2 0xAAB3 PUSH2 0x838F JUMP JUMPDEST JUMPDEST PUSH1 0x0 PUSH2 0xAAC2 DUP5 DUP3 DUP6 ADD PUSH2 0xAA89 JUMP JUMPDEST SWAP2 POP POP SWAP3 SWAP2 POP POP JUMP JUMPDEST PUSH32 0x4552433732313A206D696E7420746F20746865207A65726F2061646472657373 PUSH1 0x0 DUP3 ADD MSTORE POP JUMP JUMPDEST PUSH1 0x0 PUSH2 0xAB01 PUSH1 0x20 DUP4 PUSH2 0x87F6 JUMP JUMPDEST SWAP2 POP PUSH2 0xAB0C DUP3 PUSH2 0xAACB JUMP JUMPDEST PUSH1 0x20 DUP3 ADD SWAP1 POP SWAP2 SWAP1 POP JUMP JUMPDEST PUSH1 0x0 PUSH1 0x20 DUP3 ADD SWAP1 POP DUP2 DUP2 SUB PUSH1 0x0 DUP4 ADD MSTORE PUSH2 0xAB30 DUP2 PUSH2 0xAAF4 JUMP JUMPDEST SWAP1 POP SWAP2 SWAP1 POP JUMP JUMPDEST PUSH32 0x4552433732313A20746F6B656E20616C7265616479206D696E74656400000000 PUSH1 0x0 DUP3 ADD MSTORE POP JUMP JUMPDEST PUSH1 0x0 PUSH2 0xAB6D PUSH1 0x1C DUP4 PUSH2 0x87F6 JUMP JUMPDEST SWAP2 POP PUSH2 0xAB78 DUP3 PUSH2 0xAB37 JUMP JUMPDEST PUSH1 0x20 DUP3 ADD SWAP1 POP SWAP2 SWAP1 POP JUMP JUMPDEST PUSH1 0x0 PUSH1 0x20 DUP3 ADD SWAP1 POP DUP2 DUP2 SUB PUSH1 0x0 DUP4 ADD MSTORE PUSH2 0xAB9C DUP2 PUSH2 0xAB60 JUMP JUMPDEST SWAP1 POP SWAP2 SWAP1 POP JUMP JUMPDEST PUSH32 0x4552433732313A207472616E736665722066726F6D20696E636F727265637420 PUSH1 0x0 DUP3 ADD MSTORE PUSH32 0x6F776E6572000000000000000000000000000000000000000000000000000000 PUSH1 0x20 DUP3 ADD MSTORE POP JUMP JUMPDEST PUSH1 0x0 PUSH2 0xABFF PUSH1 0x25 DUP4 PUSH2 0x87F6 JUMP JUMPDEST SWAP2 POP PUSH2 0xAC0A DUP3 PUSH2 0xABA3 JUMP JUMPDEST PUSH1 0x40 DUP3 ADD SWAP1 POP SWAP2 SWAP1 POP JUMP JUMPDEST PUSH1 0x0 PUSH1 0x20 DUP3 ADD SWAP1 POP DUP2 DUP2 SUB PUSH1 0x0 DUP4 ADD MSTORE PUSH2 0xAC2E DUP2 PUSH2 0xABF2 JUMP JUMPDEST SWAP1 POP SWAP2 SWAP1 POP JUMP JUMPDEST PUSH32 0x4552433732313A207472616E7366657220746F20746865207A65726F20616464 PUSH1 0x0 DUP3 ADD MSTORE PUSH32 0x7265737300000000000000000000000000000000000000000000000000000000 PUSH1 0x20 DUP3 ADD MSTORE POP JUMP JUMPDEST PUSH1 0x0 PUSH2 0xAC91 PUSH1 0x24 DUP4 PUSH2 0x87F6 JUMP JUMPDEST SWAP2 POP PUSH2 0xAC9C DUP3 PUSH2 0xAC35 JUMP JUMPDEST PUSH1 0x40 DUP3 ADD SWAP1 POP SWAP2 SWAP1 POP JUMP JUMPDEST PUSH1 0x0 PUSH1 0x20 DUP3 ADD SWAP1 POP DUP2 DUP2 SUB PUSH1 0x0 DUP4 ADD MSTORE PUSH2 0xACC0 DUP2 PUSH2 0xAC84 JUMP JUMPDEST SWAP1 POP SWAP2 SWAP1 POP JUMP JUMPDEST PUSH32 0x496E697469616C697A61626C653A20636F6E7472616374206973206E6F742069 PUSH1 0x0 DUP3 ADD MSTORE PUSH32 0x6E697469616C697A696E67000000000000000000000000000000000000000000 PUSH1 0x20 DUP3 ADD MSTORE POP JUMP JUMPDEST PUSH1 0x0 PUSH2 0xAD23 PUSH1 0x2B DUP4 PUSH2 0x87F6 JUMP JUMPDEST SWAP2 POP PUSH2 0xAD2E DUP3 PUSH2 0xACC7 JUMP JUMPDEST PUSH1 0x40 DUP3 ADD SWAP1 POP SWAP2 SWAP1 POP JUMP JUMPDEST PUSH1 0x0 PUSH1 0x20 DUP3 ADD SWAP1 POP DUP2 DUP2 SUB PUSH1 0x0 DUP4 ADD MSTORE PUSH2 0xAD52 DUP2 PUSH2 0xAD16 JUMP JUMPDEST SWAP1 POP SWAP2 SWAP1 POP JUMP JUMPDEST PUSH32 0x4552433732313A207472616E7366657220746F206E6F6E204552433732315265 PUSH1 0x0 DUP3 ADD MSTORE PUSH32 0x63656976657220696D706C656D656E7465720000000000000000000000000000 PUSH1 0x20 DUP3 ADD MSTORE POP JUMP JUMPDEST PUSH1 0x0 PUSH2 0xADB5 PUSH1 0x32 DUP4 PUSH2 0x87F6 JUMP JUMPDEST SWAP2 POP PUSH2 0xADC0 DUP3 PUSH2 0xAD59 JUMP JUMPDEST PUSH1 0x40 DUP3 ADD SWAP1 POP SWAP2 SWAP1 POP JUMP JUMPDEST PUSH1 0x0 PUSH1 0x20 DUP3 ADD SWAP1 POP DUP2 DUP2 SUB PUSH1 0x0 DUP4 ADD MSTORE PUSH2 0xADE4 DUP2 PUSH2 0xADA8 JUMP JUMPDEST SWAP1 POP SWAP2 SWAP1 POP JUMP JUMPDEST PUSH32 0x4552433732313A20617070726F766520746F2063616C6C657200000000000000 PUSH1 0x0 DUP3 ADD MSTORE POP JUMP JUMPDEST PUSH1 0x0 PUSH2 0xAE21 PUSH1 0x19 DUP4 PUSH2 0x87F6 JUMP JUMPDEST SWAP2 POP PUSH2 0xAE2C DUP3 PUSH2 0xADEB JUMP JUMPDEST PUSH1 0x20 DUP3 ADD SWAP1 POP SWAP2 SWAP1 POP JUMP JUMPDEST PUSH1 0x0 PUSH1 0x20 DUP3 ADD SWAP1 POP DUP2 DUP2 SUB PUSH1 0x0 DUP4 ADD MSTORE PUSH2 0xAE50 DUP2 PUSH2 0xAE14 JUMP JUMPDEST SWAP1 POP SWAP2 SWAP1 POP JUMP JUMPDEST PUSH1 0x0 PUSH1 0x80 DUP3 ADD SWAP1 POP PUSH2 0xAE6C PUSH1 0x0 DUP4 ADD DUP8 PUSH2 0x88EB JUMP JUMPDEST PUSH2 0xAE79 PUSH1 0x20 DUP4 ADD DUP7 PUSH2 0x88EB JUMP JUMPDEST PUSH2 0xAE86 PUSH1 0x40 DUP4 ADD DUP6 PUSH2 0x8981 JUMP JUMPDEST DUP2 DUP2 SUB PUSH1 0x60 DUP4 ADD MSTORE PUSH2 0xAE98 DUP2 DUP5 PUSH2 0x934D JUMP JUMPDEST SWAP1 POP SWAP6 SWAP5 POP POP POP POP POP JUMP JUMPDEST PUSH1 0x0 DUP2 MLOAD SWAP1 POP PUSH2 0xAEB2 DUP2 PUSH2 0x855C JUMP JUMPDEST SWAP3 SWAP2 POP POP JUMP JUMPDEST PUSH1 0x0 PUSH1 0x20 DUP3 DUP5 SUB SLT ISZERO PUSH2 0xAECE JUMPI PUSH2 0xAECD PUSH2 0x838F JUMP JUMPDEST JUMPDEST PUSH1 0x0 PUSH2 0xAEDC DUP5 DUP3 DUP6 ADD PUSH2 0xAEA3 JUMP JUMPDEST SWAP2 POP POP SWAP3 SWAP2 POP POP JUMP JUMPDEST PUSH2 0xAEEE DUP2 PUSH2 0xA407 JUMP JUMPDEST DUP3 MSTORE POP POP JUMP JUMPDEST PUSH1 0x0 PUSH1 0x80 DUP3 ADD SWAP1 POP PUSH2 0xAF09 PUSH1 0x0 DUP4 ADD DUP8 PUSH2 0xAA4A JUMP JUMPDEST PUSH2 0xAF16 PUSH1 0x20 DUP4 ADD DUP7 PUSH2 0xAEE5 JUMP JUMPDEST PUSH2 0xAF23 PUSH1 0x40 DUP4 ADD DUP6 PUSH2 0xAA4A JUMP JUMPDEST PUSH2 0xAF30 PUSH1 0x60 DUP4 ADD DUP5 PUSH2 0xAA4A JUMP JUMPDEST SWAP6 SWAP5 POP POP POP POP POP JUMP INVALID PUSH9 0x747470733A2F2F6173 PUSH20 0x6574732E616C6C6F792E73706163652F746F6B65 PUSH15 0x2D7572692D73322FA2646970667358 0x22 SLT KECCAK256 0xAD 0xCB DUP15 PUSH26 0x33C27F71809713EB78FA3AEA01D967381D852059F6C59F733641 EXTCODEHASH PUSH12 0x64736F6C6343000810003300 "},"methodIdentifiers":{"ARCAddress()":"6ef1eee4","FactoryPools(uint256,uint256)":"1a924fd5","Joepegs(uint256)":"dbd419ed","JoepegsMultiple(uint256[])":"10a6d134","JoepegsTokenAddress()":"399b3798","MerchantWallet()":"7dd12d15","NFTtypes(uint256)":"6d998f01","NiozERC20Address()":"cb73bff1","allowedPrinters()":"0c53efe6","approve(address,uint256)":"095ea7b3","balanceOf(address)":"70a08231","buy((uint256,uint256,bytes32),bytes)":"9401c1e4","checkEpochStatus(uint256)":"3a988498","epochDetails(uint256)":"e329cf7b","feeCalculation(uint256)":"2c7d077e","getApproved(uint256)":"081812fc","initialize()":"8129fc1c","isApprovedForAll(address,address)":"e985e9c5","isVerified(bytes)":"c9941806","mintARC()":"93709109","mintARF()":"ecc228ce","mintEggnite()":"13de306a","mintInternalARC(uint256)":"32a5b0aa","mintInternalARF(uint256)":"63a205f7","mintPrinterARF((uint256,uint256,uint256,bytes32),bytes,bool)":"03ecaa95","name()":"06fdde03","owner()":"8da5cb5b","ownerOf(uint256)":"6352211e","renounceOwnership()":"715018a6","safeTransferFrom(address,address,uint256)":"42842e0e","safeTransferFrom(address,address,uint256,bytes)":"b88d4fde","setApprovalForAll(address,bool)":"a22cb465","supportsInterface(bytes4)":"01ffc9a7","symbol()":"95d89b41","tokenCounter()":"d082e381","tokenURI(uint256)":"c87b56dd","transferFrom(address,address,uint256)":"23b872dd","transferOwnership(address)":"f2fde38b","upadateDefaultUri(string,string)":"97c04edb","updateARCPoolDetails(uint256,uint256[],uint256[],uint256[],uint256[])":"001640c2","updateARFPoolDetails(uint256,uint256[],uint256[],uint256[],uint256[])":"61ffc012","updateCounter(uint256,uint256,uint256)":"e561084f","updateEpochDetails(uint256[],uint256[],uint256[])":"7ebededb","updateEpochStatus(uint256[],bool)":"edda7059","updateWallets(address,address,address,address,uint256)":"99c37a1f","whitelistARCAddresses(address[],bool)":"1424f936","whitelistARCAlloyTeam(address[],bool)":"c8d5c0e2","whitelistARCReserves(address[],bool)":"9ddb234c","whitelistARFAddresses(address[],bool)":"5d952d25","whitelistARFAlloyTeam(address[],bool)":"db0a4882","whitelistARFReserves(address[],bool)":"a7397c2e","whitelistAddressesEggnite(address[],bool)":"9533d573","whitelistedARCAddress(address)":"d87df9e2","whitelistedARCAlloyTeam(address)":"6eda504e","whitelistedARCReserve(address)":"8e6b86cb","whitelistedARFAddress(address)":"19d17e51","whitelistedARFAlloyTeam(address)":"ec437038","whitelistedARFReserve(address)":"6c7b7f6c","whitelistedAddressEggnite(address)":"c3e50abb"}},"storageLayout":{"storage":[{"astId":152,"contract":"contracts/ARF/ArfERC721V1.sol:ArfERC721V1","label":"_initialized","offset":0,"slot":"0","type":"t_uint8"},{"astId":155,"contract":"contracts/ARF/ArfERC721V1.sol:ArfERC721V1","label":"_initializing","offset":1,"slot":"0","type":"t_bool"},{"astId":1825,"contract":"contracts/ARF/ArfERC721V1.sol:ArfERC721V1","label":"__gap","offset":0,"slot":"1","type":"t_array(t_uint256)50_storage"},{"astId":2488,"contract":"contracts/ARF/ArfERC721V1.sol:ArfERC721V1","label":"__gap","offset":0,"slot":"51","type":"t_array(t_uint256)50_storage"},{"astId":416,"contract":"contracts/ARF/ArfERC721V1.sol:ArfERC721V1","label":"_name","offset":0,"slot":"101","type":"t_string_storage"},{"astId":418,"contract":"contracts/ARF/ArfERC721V1.sol:ArfERC721V1","label":"_symbol","offset":0,"slot":"102","type":"t_string_storage"},{"astId":422,"contract":"contracts/ARF/ArfERC721V1.sol:ArfERC721V1","label":"_owners","offset":0,"slot":"103","type":"t_mapping(t_uint256,t_address)"},{"astId":426,"contract":"contracts/ARF/ArfERC721V1.sol:ArfERC721V1","label":"_balances","offset":0,"slot":"104","type":"t_mapping(t_address,t_uint256)"},{"astId":430,"contract":"contracts/ARF/ArfERC721V1.sol:ArfERC721V1","label":"_tokenApprovals","offset":0,"slot":"105","type":"t_mapping(t_uint256,t_address)"},{"astId":436,"contract":"contracts/ARF/ArfERC721V1.sol:ArfERC721V1","label":"_operatorApprovals","offset":0,"slot":"106","type":"t_mapping(t_address,t_mapping(t_address,t_bool))"},{"astId":1338,"contract":"contracts/ARF/ArfERC721V1.sol:ArfERC721V1","label":"__gap","offset":0,"slot":"107","type":"t_array(t_uint256)44_storage"},{"astId":10,"contract":"contracts/ARF/ArfERC721V1.sol:ArfERC721V1","label":"_owner","offset":0,"slot":"151","type":"t_address"},{"astId":130,"contract":"contracts/ARF/ArfERC721V1.sol:ArfERC721V1","label":"__gap","offset":0,"slot":"152","type":"t_array(t_uint256)49_storage"},{"astId":328,"contract":"contracts/ARF/ArfERC721V1.sol:ArfERC721V1","label":"_status","offset":0,"slot":"201","type":"t_uint256"},{"astId":386,"contract":"contracts/ARF/ArfERC721V1.sol:ArfERC721V1","label":"__gap","offset":0,"slot":"202","type":"t_array(t_uint256)49_storage"},{"astId":3694,"contract":"contracts/ARF/ArfERC721V1.sol:ArfERC721V1","label":"tokenCounter","offset":0,"slot":"251","type":"t_uint256"},{"astId":3696,"contract":"contracts/ARF/ArfERC721V1.sol:ArfERC721V1","label":"baseUri","offset":0,"slot":"252","type":"t_string_storage"},{"astId":3698,"contract":"contracts/ARF/ArfERC721V1.sol:ArfERC721V1","label":"baseExtension","offset":0,"slot":"253","type":"t_string_storage"},{"astId":3712,"contract":"contracts/ARF/ArfERC721V1.sol:ArfERC721V1","label":"epochDetails","offset":0,"slot":"254","type":"t_mapping(t_uint256,t_struct(EpochPool)3707_storage)"},{"astId":3716,"contract":"contracts/ARF/ArfERC721V1.sol:ArfERC721V1","label":"checkEpochStatus","offset":0,"slot":"255","type":"t_mapping(t_uint256,t_bool)"},{"astId":3719,"contract":"contracts/ARF/ArfERC721V1.sol:ArfERC721V1","label":"JoepegsTokenAddress","offset":0,"slot":"256","type":"t_contract(Mintpeg)7641"},{"astId":3722,"contract":"contracts/ARF/ArfERC721V1.sol:ArfERC721V1","label":"ARCAddress","offset":0,"slot":"257","type":"t_contract(Mintpeg)7641"},{"astId":3726,"contract":"contracts/ARF/ArfERC721V1.sol:ArfERC721V1","label":"whitelistedARFAddress","offset":0,"slot":"258","type":"t_mapping(t_address,t_bool)"},{"astId":3730,"contract":"contracts/ARF/ArfERC721V1.sol:ArfERC721V1","label":"whitelistedARCAddress","offset":0,"slot":"259","type":"t_mapping(t_address,t_bool)"},{"astId":3734,"contract":"contracts/ARF/ArfERC721V1.sol:ArfERC721V1","label":"whitelistedAddressEggnite","offset":0,"slot":"260","type":"t_mapping(t_address,t_bool)"},{"astId":3738,"contract":"contracts/ARF/ArfERC721V1.sol:ArfERC721V1","label":"whitelistedARFReserve","offset":0,"slot":"261","type":"t_mapping(t_address,t_bool)"},{"astId":3742,"contract":"contracts/ARF/ArfERC721V1.sol:ArfERC721V1","label":"whitelistedARCReserve","offset":0,"slot":"262","type":"t_mapping(t_address,t_bool)"},{"astId":3746,"contract":"contracts/ARF/ArfERC721V1.sol:ArfERC721V1","label":"whitelistedARFAlloyTeam","offset":0,"slot":"263","type":"t_mapping(t_address,t_bool)"},{"astId":3750,"contract":"contracts/ARF/ArfERC721V1.sol:ArfERC721V1","label":"whitelistedARCAlloyTeam","offset":0,"slot":"264","type":"t_mapping(t_address,t_bool)"},{"astId":3776,"contract":"contracts/ARF/ArfERC721V1.sol:ArfERC721V1","label":"FactoryPools","offset":0,"slot":"265","type":"t_mapping(t_uint256,t_mapping(t_uint256,t_struct(Pools)3769_storage))"},{"astId":3780,"contract":"contracts/ARF/ArfERC721V1.sol:ArfERC721V1","label":"NFTtypes","offset":0,"slot":"266","type":"t_mapping(t_uint256,t_string_storage)"},{"astId":3784,"contract":"contracts/ARF/ArfERC721V1.sol:ArfERC721V1","label":"isVerified","offset":0,"slot":"267","type":"t_mapping(t_bytes_memory_ptr,t_bool)"},{"astId":3786,"contract":"contracts/ARF/ArfERC721V1.sol:ArfERC721V1","label":"allowedPrinters","offset":0,"slot":"268","type":"t_uint256"},{"astId":3789,"contract":"contracts/ARF/ArfERC721V1.sol:ArfERC721V1","label":"NiozERC20Address","offset":0,"slot":"269","type":"t_contract(IERC20Upgradeable)7400"},{"astId":3791,"contract":"contracts/ARF/ArfERC721V1.sol:ArfERC721V1","label":"MerchantWallet","offset":0,"slot":"270","type":"t_address"}],"types":{"t_address":{"encoding":"inplace","label":"address","numberOfBytes":"20"},"t_array(t_uint256)44_storage":{"base":"t_uint256","encoding":"inplace","label":"uint256[44]","numberOfBytes":"1408"},"t_array(t_uint256)49_storage":{"base":"t_uint256","encoding":"inplace","label":"uint256[49]","numberOfBytes":"1568"},"t_array(t_uint256)50_storage":{"base":"t_uint256","encoding":"inplace","label":"uint256[50]","numberOfBytes":"1600"},"t_bool":{"encoding":"inplace","label":"bool","numberOfBytes":"1"},"t_bytes_memory_ptr":{"encoding":"bytes","label":"bytes","numberOfBytes":"32"},"t_contract(IERC20Upgradeable)7400":{"encoding":"inplace","label":"contract IERC20Upgradeable","numberOfBytes":"20"},"t_contract(Mintpeg)7641":{"encoding":"inplace","label":"contract Mintpeg","numberOfBytes":"20"},"t_mapping(t_address,t_bool)":{"encoding":"mapping","key":"t_address","label":"mapping(address => bool)","numberOfBytes":"32","value":"t_bool"},"t_mapping(t_address,t_mapping(t_address,t_bool))":{"encoding":"mapping","key":"t_address","label":"mapping(address => mapping(address => bool))","numberOfBytes":"32","value":"t_mapping(t_address,t_bool)"},"t_mapping(t_address,t_uint256)":{"encoding":"mapping","key":"t_address","label":"mapping(address => uint256)","numberOfBytes":"32","value":"t_uint256"},"t_mapping(t_bytes_memory_ptr,t_bool)":{"encoding":"mapping","key":"t_bytes_memory_ptr","label":"mapping(bytes => bool)","numberOfBytes":"32","value":"t_bool"},"t_mapping(t_uint256,t_address)":{"encoding":"mapping","key":"t_uint256","label":"mapping(uint256 => address)","numberOfBytes":"32","value":"t_address"},"t_mapping(t_uint256,t_bool)":{"encoding":"mapping","key":"t_uint256","label":"mapping(uint256 => bool)","numberOfBytes":"32","value":"t_bool"},"t_mapping(t_uint256,t_mapping(t_uint256,t_struct(Pools)3769_storage))":{"encoding":"mapping","key":"t_uint256","label":"mapping(uint256 => mapping(uint256 => struct ArfERC721V1.Pools))","numberOfBytes":"32","value":"t_mapping(t_uint256,t_struct(Pools)3769_storage)"},"t_mapping(t_uint256,t_string_storage)":{"encoding":"mapping","key":"t_uint256","label":"mapping(uint256 => string)","numberOfBytes":"32","value":"t_string_storage"},"t_mapping(t_uint256,t_struct(EpochPool)3707_storage)":{"encoding":"mapping","key":"t_uint256","label":"mapping(uint256 => struct ArfERC721V1.EpochPool)","numberOfBytes":"32","value":"t_struct(EpochPool)3707_storage"},"t_mapping(t_uint256,t_struct(Pools)3769_storage)":{"encoding":"mapping","key":"t_uint256","label":"mapping(uint256 => struct ArfERC721V1.Pools)","numberOfBytes":"32","value":"t_struct(Pools)3769_storage"},"t_string_storage":{"encoding":"bytes","label":"string","numberOfBytes":"32"},"t_struct(EpochPool)3707_storage":{"encoding":"inplace","label":"struct ArfERC721V1.EpochPool","members":[{"astId":3700,"contract":"contracts/ARF/ArfERC721V1.sol:ArfERC721V1","label":"totalQuantityARF","offset":0,"slot":"0","type":"t_uint256"},{"astId":3702,"contract":"contracts/ARF/ArfERC721V1.sol:ArfERC721V1","label":"quantityCounterARF","offset":0,"slot":"1","type":"t_uint256"},{"astId":3704,"contract":"contracts/ARF/ArfERC721V1.sol:ArfERC721V1","label":"totalQuantityARC","offset":0,"slot":"2","type":"t_uint256"},{"astId":3706,"contract":"contracts/ARF/ArfERC721V1.sol:ArfERC721V1","label":"quantityCounterARC","offset":0,"slot":"3","type":"t_uint256"}],"numberOfBytes":"128"},"t_struct(Pools)3769_storage":{"encoding":"inplace","label":"struct ArfERC721V1.Pools","members":[{"astId":3752,"contract":"contracts/ARF/ArfERC721V1.sol:ArfERC721V1","label":"poolId","offset":0,"slot":"0","type":"t_uint256"},{"astId":3754,"contract":"contracts/ARF/ArfERC721V1.sol:ArfERC721V1","label":"totalQuantityARC","offset":0,"slot":"1","type":"t_uint256"},{"astId":3756,"contract":"contracts/ARF/ArfERC721V1.sol:ArfERC721V1","label":"quantityCounterARC","offset":0,"slot":"2","type":"t_uint256"},{"astId":3758,"contract":"contracts/ARF/ArfERC721V1.sol:ArfERC721V1","label":"NiozPriceARC","offset":0,"slot":"3","type":"t_uint256"},{"astId":3760,"contract":"contracts/ARF/ArfERC721V1.sol:ArfERC721V1","label":"avaxPriceARC","offset":0,"slot":"4","type":"t_uint256"},{"astId":3762,"contract":"contracts/ARF/ArfERC721V1.sol:ArfERC721V1","label":"totalQuantityARF","offset":0,"slot":"5","type":"t_uint256"},{"astId":3764,"contract":"contracts/ARF/ArfERC721V1.sol:ArfERC721V1","label":"quantityCounterARF","offset":0,"slot":"6","type":"t_uint256"},{"astId":3766,"contract":"contracts/ARF/ArfERC721V1.sol:ArfERC721V1","label":"NiozPriceARF","offset":0,"slot":"7","type":"t_uint256"},{"astId":3768,"contract":"contracts/ARF/ArfERC721V1.sol:ArfERC721V1","label":"avaxPriceARF","offset":0,"slot":"8","type":"t_uint256"}],"numberOfBytes":"288"},"t_uint256":{"encoding":"inplace","label":"uint256","numberOfBytes":"32"},"t_uint8":{"encoding":"inplace","label":"uint8","numberOfBytes":"1"}}}}}}