{"contracts/CONSTRUCT/MintpegInterface.sol":{"Mintpeg":{"abi":[{"inputs":[{"internalType":"address","name":"to","type":"address"},{"internalType":"uint256","name":"tokenId","type":"uint256"}],"name":"approve","outputs":[],"stateMutability":"nonpayable","type":"function"},{"inputs":[{"internalType":"address","name":"owner","type":"address"}],"name":"balanceOf","outputs":[{"internalType":"uint256","name":"balance","type":"uint256"}],"stateMutability":"view","type":"function"},{"inputs":[{"internalType":"uint256","name":"_tokenId","type":"uint256"}],"name":"burn","outputs":[],"stateMutability":"nonpayable","type":"function"},{"inputs":[{"internalType":"uint256[]","name":"_tokenIds","type":"uint256[]"},{"internalType":"string","name":"_nft_type","type":"string"}],"name":"burnTokens","outputs":[],"stateMutability":"nonpayable","type":"function"},{"inputs":[],"name":"commissionFee","outputs":[{"internalType":"uint256","name":"","type":"uint256"}],"stateMutability":"view","type":"function"},{"inputs":[{"internalType":"uint256","name":"tokenId","type":"uint256"}],"name":"getApproved","outputs":[{"internalType":"address","name":"operator","type":"address"}],"stateMutability":"view","type":"function"},{"inputs":[{"internalType":"address","name":"owner","type":"address"},{"internalType":"address","name":"operator","type":"address"}],"name":"isApprovedForAll","outputs":[{"internalType":"bool","name":"","type":"bool"}],"stateMutability":"view","type":"function"},{"inputs":[{"internalType":"bytes","name":"_signature","type":"bytes"}],"name":"isVerified","outputs":[{"internalType":"bool","name":"","type":"bool"}],"stateMutability":"view","type":"function"},{"inputs":[{"internalType":"string[]","name":"_tokenURIs","type":"string[]"}],"name":"mint","outputs":[],"stateMutability":"nonpayable","type":"function"},{"inputs":[{"internalType":"address","name":"_owner","type":"address"}],"name":"mintARC","outputs":[{"internalType":"uint256","name":"","type":"uint256"}],"stateMutability":"nonpayable","type":"function"},{"inputs":[{"internalType":"uint256","name":"tokenId","type":"uint256"}],"name":"ownerOf","outputs":[{"internalType":"address","name":"owner","type":"address"}],"stateMutability":"view","type":"function"},{"inputs":[{"internalType":"address","name":"from","type":"address"},{"internalType":"address","name":"to","type":"address"},{"internalType":"uint256","name":"tokenId","type":"uint256"}],"name":"safeTransferFrom","outputs":[],"stateMutability":"nonpayable","type":"function"},{"inputs":[{"internalType":"address","name":"from","type":"address"},{"internalType":"address","name":"to","type":"address"},{"internalType":"uint256","name":"tokenId","type":"uint256"},{"internalType":"bytes","name":"data","type":"bytes"}],"name":"safeTransferFrom","outputs":[],"stateMutability":"nonpayable","type":"function"},{"inputs":[{"internalType":"address","name":"operator","type":"address"},{"internalType":"bool","name":"_approved","type":"bool"}],"name":"setApprovalForAll","outputs":[],"stateMutability":"nonpayable","type":"function"},{"inputs":[{"internalType":"address","name":"from","type":"address"},{"internalType":"address","name":"to","type":"address"},{"internalType":"uint256","name":"tokenId","type":"uint256"}],"name":"transferFrom","outputs":[],"stateMutability":"nonpayable","type":"function"}],"evm":{"bytecode":{"linkReferences":{},"object":"608060405234801561001057600080fd5b50610cb0806100206000396000f3fe608060405234801561001057600080fd5b50600436106100f55760003560e01c80636352211e11610097578063a22cb46511610066578063a22cb46514610280578063b88d4fde1461029c578063c9941806146102b8578063e985e9c5146102e8576100f5565b80636352211e146101e65780636fb1eb0c1461021657806370a082311461023457806399b9c61d14610264576100f5565b806342842e0e116100d357806342842e0e1461016257806342966c681461017e5780635768f2711461019a57806358f5f8be146101b6576100f5565b8063081812fc146100fa578063095ea7b31461012a57806323b872dd14610146575b600080fd5b610114600480360381019061010f91906104e5565b610318565b6040516101219190610553565b60405180910390f35b610144600480360381019061013f919061059a565b610333565b005b610160600480360381019061015b91906105da565b61034b565b005b61017c600480360381019061017791906105da565b610364565b005b610198600480360381019061019391906104e5565b61037d565b005b6101b460048036038101906101af9190610859565b610394565b005b6101d060048036038101906101cb91906108a2565b6103ab565b6040516101dd91906108de565b60405180910390f35b61020060048036038101906101fb91906104e5565b6103c6565b60405161020d9190610553565b60405180910390f35b61021e6103e1565b60405161022b91906108de565b60405180910390f35b61024e600480360381019061024991906108a2565b6103fa565b60405161025b91906108de565b60405180910390f35b61027e60048036038101906102799190610954565b610415565b005b61029a60048036038101906102959190610a08565b61042e565b005b6102b660048036038101906102b19190610a9e565b610446565b005b6102d260048036038101906102cd9190610bc7565b610461565b6040516102df9190610c1f565b60405180910390f35b61030260048036038101906102fd9190610c3a565b61047c565b60405161030f9190610c1f565b60405180910390f35b600061032e67b8607c6c725e97b860c01b610498565b919050565b61034767b6bc05ae3790a88360c01b610498565b5050565b61035f67e0383544a5870e0d60c01b610498565b505050565b61037867f7c58bf62b70b7ff60c01b610498565b505050565b6103916705550101a509820960c01b610498565b50565b6103a867e61d29b257af0c8b60c01b610498565b50565b60006103c16743411785ae46b87a60c01b610498565b919050565b60006103dc67c3d238c684ba7c2960c01b610498565b919050565b60006103f767569288ad3e6366f260c01b610498565b90565b60006104106757d52edfec54a64a60c01b610498565b919050565b61042967be2e3b4fa328c36060c01b610498565b505050565b610442677839d1ca15180fde60c01b610498565b5050565b61045a674131f635d949776560c01b610498565b5050505050565b6000610477672ae75e98a2ca6c2460c01b610498565b919050565b600061049267f3d535ec8aad712360c01b610498565b92915050565b50565b6000604051905090565b600080fd5b600080fd5b6000819050919050565b6104c2816104af565b81146104cd57600080fd5b50565b6000813590506104df816104b9565b92915050565b6000602082840312156104fb576104fa6104a5565b5b6000610509848285016104d0565b91505092915050565b600073ffffffffffffffffffffffffffffffffffffffff82169050919050565b600061053d82610512565b9050919050565b61054d81610532565b82525050565b60006020820190506105686000830184610544565b92915050565b61057781610532565b811461058257600080fd5b50565b6000813590506105948161056e565b92915050565b600080604083850312156105b1576105b06104a5565b5b60006105bf85828601610585565b92505060206105d0858286016104d0565b9150509250929050565b6000806000606084860312156105f3576105f26104a5565b5b600061060186828701610585565b935050602061061286828701610585565b9250506040610623868287016104d0565b9150509250925092565b600080fd5b6000601f19601f8301169050919050565b7f4e487b7100000000000000000000000000000000000000000000000000000000600052604160045260246000fd5b61067b82610632565b810181811067ffffffffffffffff8211171561069a57610699610643565b5b80604052505050565b60006106ad61049b565b90506106b98282610672565b919050565b600067ffffffffffffffff8211156106d9576106d8610643565b5b602082029050602081019050919050565b600080fd5b600080fd5b600067ffffffffffffffff82111561070f5761070e610643565b5b61071882610632565b9050602081019050919050565b82818337600083830152505050565b6000610747610742846106f4565b6106a3565b905082815260208101848484011115610763576107626106ef565b5b61076e848285610725565b509392505050565b600082601f83011261078b5761078a61062d565b5b813561079b848260208601610734565b91505092915050565b60006107b76107b2846106be565b6106a3565b905080838252602082019050602084028301858111156107da576107d96106ea565b5b835b8181101561082157803567ffffffffffffffff8111156107ff576107fe61062d565b5b80860161080c8982610776565b855260208501945050506020810190506107dc565b5050509392505050565b600082601f8301126108405761083f61062d565b5b81356108508482602086016107a4565b91505092915050565b60006020828403121561086f5761086e6104a5565b5b600082013567ffffffffffffffff81111561088d5761088c6104aa565b5b6108998482850161082b565b91505092915050565b6000602082840312156108b8576108b76104a5565b5b60006108c684828501610585565b91505092915050565b6108d8816104af565b82525050565b60006020820190506108f360008301846108cf565b92915050565b600080fd5b60008083601f8401126109145761091361062d565b5b8235905067ffffffffffffffff811115610931576109306108f9565b5b60208301915083602082028301111561094d5761094c6106ea565b5b9250929050565b60008060006040848603121561096d5761096c6104a5565b5b600084013567ffffffffffffffff81111561098b5761098a6104aa565b5b610997868287016108fe565b9350935050602084013567ffffffffffffffff8111156109ba576109b96104aa565b5b6109c686828701610776565b9150509250925092565b60008115159050919050565b6109e5816109d0565b81146109f057600080fd5b50565b600081359050610a02816109dc565b92915050565b60008060408385031215610a1f57610a1e6104a5565b5b6000610a2d85828601610585565b9250506020610a3e858286016109f3565b9150509250929050565b60008083601f840112610a5e57610a5d61062d565b5b8235905067ffffffffffffffff811115610a7b57610a7a6108f9565b5b602083019150836001820283011115610a9757610a966106ea565b5b9250929050565b600080600080600060808688031215610aba57610ab96104a5565b5b6000610ac888828901610585565b9550506020610ad988828901610585565b9450506040610aea888289016104d0565b935050606086013567ffffffffffffffff811115610b0b57610b0a6104aa565b5b610b1788828901610a48565b92509250509295509295909350565b600067ffffffffffffffff821115610b4157610b40610643565b5b610b4a82610632565b9050602081019050919050565b6000610b6a610b6584610b26565b6106a3565b905082815260208101848484011115610b8657610b856106ef565b5b610b91848285610725565b509392505050565b600082601f830112610bae57610bad61062d565b5b8135610bbe848260208601610b57565b91505092915050565b600060208284031215610bdd57610bdc6104a5565b5b600082013567ffffffffffffffff811115610bfb57610bfa6104aa565b5b610c0784828501610b99565b91505092915050565b610c19816109d0565b82525050565b6000602082019050610c346000830184610c10565b92915050565b60008060408385031215610c5157610c506104a5565b5b6000610c5f85828601610585565b9250506020610c7085828601610585565b915050925092905056fea2646970667358221220bd104a44ad213d50e2ac70c9056803ad39b88b626f7595218cb9d144e2b887e864736f6c63430008100033","opcodes":"PUSH1 0x80 PUSH1 0x40 MSTORE CALLVALUE DUP1 ISZERO PUSH2 0x10 JUMPI PUSH1 0x0 DUP1 REVERT JUMPDEST POP PUSH2 0xCB0 DUP1 PUSH2 0x20 PUSH1 0x0 CODECOPY PUSH1 0x0 RETURN INVALID PUSH1 0x80 PUSH1 0x40 MSTORE CALLVALUE DUP1 ISZERO PUSH2 0x10 JUMPI PUSH1 0x0 DUP1 REVERT JUMPDEST POP PUSH1 0x4 CALLDATASIZE LT PUSH2 0xF5 JUMPI PUSH1 0x0 CALLDATALOAD PUSH1 0xE0 SHR DUP1 PUSH4 0x6352211E GT PUSH2 0x97 JUMPI DUP1 PUSH4 0xA22CB465 GT PUSH2 0x66 JUMPI DUP1 PUSH4 0xA22CB465 EQ PUSH2 0x280 JUMPI DUP1 PUSH4 0xB88D4FDE EQ PUSH2 0x29C JUMPI DUP1 PUSH4 0xC9941806 EQ PUSH2 0x2B8 JUMPI DUP1 PUSH4 0xE985E9C5 EQ PUSH2 0x2E8 JUMPI PUSH2 0xF5 JUMP JUMPDEST DUP1 PUSH4 0x6352211E EQ PUSH2 0x1E6 JUMPI DUP1 PUSH4 0x6FB1EB0C EQ PUSH2 0x216 JUMPI DUP1 PUSH4 0x70A08231 EQ PUSH2 0x234 JUMPI DUP1 PUSH4 0x99B9C61D EQ PUSH2 0x264 JUMPI PUSH2 0xF5 JUMP JUMPDEST DUP1 PUSH4 0x42842E0E GT PUSH2 0xD3 JUMPI DUP1 PUSH4 0x42842E0E EQ PUSH2 0x162 JUMPI DUP1 PUSH4 0x42966C68 EQ PUSH2 0x17E JUMPI DUP1 PUSH4 0x5768F271 EQ PUSH2 0x19A JUMPI DUP1 PUSH4 0x58F5F8BE EQ PUSH2 0x1B6 JUMPI PUSH2 0xF5 JUMP JUMPDEST DUP1 PUSH4 0x81812FC EQ PUSH2 0xFA JUMPI DUP1 PUSH4 0x95EA7B3 EQ PUSH2 0x12A JUMPI DUP1 PUSH4 0x23B872DD EQ PUSH2 0x146 JUMPI JUMPDEST PUSH1 0x0 DUP1 REVERT JUMPDEST PUSH2 0x114 PUSH1 0x4 DUP1 CALLDATASIZE SUB DUP2 ADD SWAP1 PUSH2 0x10F SWAP2 SWAP1 PUSH2 0x4E5 JUMP JUMPDEST PUSH2 0x318 JUMP JUMPDEST PUSH1 0x40 MLOAD PUSH2 0x121 SWAP2 SWAP1 PUSH2 0x553 JUMP JUMPDEST PUSH1 0x40 MLOAD DUP1 SWAP2 SUB SWAP1 RETURN JUMPDEST PUSH2 0x144 PUSH1 0x4 DUP1 CALLDATASIZE SUB DUP2 ADD SWAP1 PUSH2 0x13F SWAP2 SWAP1 PUSH2 0x59A JUMP JUMPDEST PUSH2 0x333 JUMP JUMPDEST STOP JUMPDEST PUSH2 0x160 PUSH1 0x4 DUP1 CALLDATASIZE SUB DUP2 ADD SWAP1 PUSH2 0x15B SWAP2 SWAP1 PUSH2 0x5DA JUMP JUMPDEST PUSH2 0x34B JUMP JUMPDEST STOP JUMPDEST PUSH2 0x17C PUSH1 0x4 DUP1 CALLDATASIZE SUB DUP2 ADD SWAP1 PUSH2 0x177 SWAP2 SWAP1 PUSH2 0x5DA JUMP JUMPDEST PUSH2 0x364 JUMP JUMPDEST STOP JUMPDEST PUSH2 0x198 PUSH1 0x4 DUP1 CALLDATASIZE SUB DUP2 ADD SWAP1 PUSH2 0x193 SWAP2 SWAP1 PUSH2 0x4E5 JUMP JUMPDEST PUSH2 0x37D JUMP JUMPDEST STOP JUMPDEST PUSH2 0x1B4 PUSH1 0x4 DUP1 CALLDATASIZE SUB DUP2 ADD SWAP1 PUSH2 0x1AF SWAP2 SWAP1 PUSH2 0x859 JUMP JUMPDEST PUSH2 0x394 JUMP JUMPDEST STOP JUMPDEST PUSH2 0x1D0 PUSH1 0x4 DUP1 CALLDATASIZE SUB DUP2 ADD SWAP1 PUSH2 0x1CB SWAP2 SWAP1 PUSH2 0x8A2 JUMP JUMPDEST PUSH2 0x3AB JUMP JUMPDEST PUSH1 0x40 MLOAD PUSH2 0x1DD SWAP2 SWAP1 PUSH2 0x8DE JUMP JUMPDEST PUSH1 0x40 MLOAD DUP1 SWAP2 SUB SWAP1 RETURN JUMPDEST PUSH2 0x200 PUSH1 0x4 DUP1 CALLDATASIZE SUB DUP2 ADD SWAP1 PUSH2 0x1FB SWAP2 SWAP1 PUSH2 0x4E5 JUMP JUMPDEST PUSH2 0x3C6 JUMP JUMPDEST PUSH1 0x40 MLOAD PUSH2 0x20D SWAP2 SWAP1 PUSH2 0x553 JUMP JUMPDEST PUSH1 0x40 MLOAD DUP1 SWAP2 SUB SWAP1 RETURN JUMPDEST PUSH2 0x21E PUSH2 0x3E1 JUMP JUMPDEST PUSH1 0x40 MLOAD PUSH2 0x22B SWAP2 SWAP1 PUSH2 0x8DE JUMP JUMPDEST PUSH1 0x40 MLOAD DUP1 SWAP2 SUB SWAP1 RETURN JUMPDEST PUSH2 0x24E PUSH1 0x4 DUP1 CALLDATASIZE SUB DUP2 ADD SWAP1 PUSH2 0x249 SWAP2 SWAP1 PUSH2 0x8A2 JUMP JUMPDEST PUSH2 0x3FA JUMP JUMPDEST PUSH1 0x40 MLOAD PUSH2 0x25B SWAP2 SWAP1 PUSH2 0x8DE JUMP JUMPDEST PUSH1 0x40 MLOAD DUP1 SWAP2 SUB SWAP1 RETURN JUMPDEST PUSH2 0x27E PUSH1 0x4 DUP1 CALLDATASIZE SUB DUP2 ADD SWAP1 PUSH2 0x279 SWAP2 SWAP1 PUSH2 0x954 JUMP JUMPDEST PUSH2 0x415 JUMP JUMPDEST STOP JUMPDEST PUSH2 0x29A PUSH1 0x4 DUP1 CALLDATASIZE SUB DUP2 ADD SWAP1 PUSH2 0x295 SWAP2 SWAP1 PUSH2 0xA08 JUMP JUMPDEST PUSH2 0x42E JUMP JUMPDEST STOP JUMPDEST PUSH2 0x2B6 PUSH1 0x4 DUP1 CALLDATASIZE SUB DUP2 ADD SWAP1 PUSH2 0x2B1 SWAP2 SWAP1 PUSH2 0xA9E JUMP JUMPDEST PUSH2 0x446 JUMP JUMPDEST STOP JUMPDEST PUSH2 0x2D2 PUSH1 0x4 DUP1 CALLDATASIZE SUB DUP2 ADD SWAP1 PUSH2 0x2CD SWAP2 SWAP1 PUSH2 0xBC7 JUMP JUMPDEST PUSH2 0x461 JUMP JUMPDEST PUSH1 0x40 MLOAD PUSH2 0x2DF SWAP2 SWAP1 PUSH2 0xC1F JUMP JUMPDEST PUSH1 0x40 MLOAD DUP1 SWAP2 SUB SWAP1 RETURN JUMPDEST PUSH2 0x302 PUSH1 0x4 DUP1 CALLDATASIZE SUB DUP2 ADD SWAP1 PUSH2 0x2FD SWAP2 SWAP1 PUSH2 0xC3A JUMP JUMPDEST PUSH2 0x47C JUMP JUMPDEST PUSH1 0x40 MLOAD PUSH2 0x30F SWAP2 SWAP1 PUSH2 0xC1F JUMP JUMPDEST PUSH1 0x40 MLOAD DUP1 SWAP2 SUB SWAP1 RETURN JUMPDEST PUSH1 0x0 PUSH2 0x32E PUSH8 0xB8607C6C725E97B8 PUSH1 0xC0 SHL PUSH2 0x498 JUMP JUMPDEST SWAP2 SWAP1 POP JUMP JUMPDEST PUSH2 0x347 PUSH8 0xB6BC05AE3790A883 PUSH1 0xC0 SHL PUSH2 0x498 JUMP JUMPDEST POP POP JUMP JUMPDEST PUSH2 0x35F PUSH8 0xE0383544A5870E0D PUSH1 0xC0 SHL PUSH2 0x498 JUMP JUMPDEST POP POP POP JUMP JUMPDEST PUSH2 0x378 PUSH8 0xF7C58BF62B70B7FF PUSH1 0xC0 SHL PUSH2 0x498 JUMP JUMPDEST POP POP POP JUMP JUMPDEST PUSH2 0x391 PUSH8 0x5550101A5098209 PUSH1 0xC0 SHL PUSH2 0x498 JUMP JUMPDEST POP JUMP JUMPDEST PUSH2 0x3A8 PUSH8 0xE61D29B257AF0C8B PUSH1 0xC0 SHL PUSH2 0x498 JUMP JUMPDEST POP JUMP JUMPDEST PUSH1 0x0 PUSH2 0x3C1 PUSH8 0x43411785AE46B87A PUSH1 0xC0 SHL PUSH2 0x498 JUMP JUMPDEST SWAP2 SWAP1 POP JUMP JUMPDEST PUSH1 0x0 PUSH2 0x3DC PUSH8 0xC3D238C684BA7C29 PUSH1 0xC0 SHL PUSH2 0x498 JUMP JUMPDEST SWAP2 SWAP1 POP JUMP JUMPDEST PUSH1 0x0 PUSH2 0x3F7 PUSH8 0x569288AD3E6366F2 PUSH1 0xC0 SHL PUSH2 0x498 JUMP JUMPDEST SWAP1 JUMP JUMPDEST PUSH1 0x0 PUSH2 0x410 PUSH8 0x57D52EDFEC54A64A PUSH1 0xC0 SHL PUSH2 0x498 JUMP JUMPDEST SWAP2 SWAP1 POP JUMP JUMPDEST PUSH2 0x429 PUSH8 0xBE2E3B4FA328C360 PUSH1 0xC0 SHL PUSH2 0x498 JUMP JUMPDEST POP POP POP JUMP JUMPDEST PUSH2 0x442 PUSH8 0x7839D1CA15180FDE PUSH1 0xC0 SHL PUSH2 0x498 JUMP JUMPDEST POP POP JUMP JUMPDEST PUSH2 0x45A PUSH8 0x4131F635D9497765 PUSH1 0xC0 SHL PUSH2 0x498 JUMP JUMPDEST POP POP POP POP POP JUMP JUMPDEST PUSH1 0x0 PUSH2 0x477 PUSH8 0x2AE75E98A2CA6C24 PUSH1 0xC0 SHL PUSH2 0x498 JUMP JUMPDEST SWAP2 SWAP1 POP JUMP JUMPDEST PUSH1 0x0 PUSH2 0x492 PUSH8 0xF3D535EC8AAD7123 PUSH1 0xC0 SHL PUSH2 0x498 JUMP JUMPDEST SWAP3 SWAP2 POP POP JUMP JUMPDEST POP JUMP JUMPDEST PUSH1 0x0 PUSH1 0x40 MLOAD SWAP1 POP SWAP1 JUMP JUMPDEST PUSH1 0x0 DUP1 REVERT JUMPDEST PUSH1 0x0 DUP1 REVERT JUMPDEST PUSH1 0x0 DUP2 SWAP1 POP SWAP2 SWAP1 POP JUMP JUMPDEST PUSH2 0x4C2 DUP2 PUSH2 0x4AF JUMP JUMPDEST DUP2 EQ PUSH2 0x4CD JUMPI PUSH1 0x0 DUP1 REVERT JUMPDEST POP JUMP JUMPDEST PUSH1 0x0 DUP2 CALLDATALOAD SWAP1 POP PUSH2 0x4DF DUP2 PUSH2 0x4B9 JUMP JUMPDEST SWAP3 SWAP2 POP POP JUMP JUMPDEST PUSH1 0x0 PUSH1 0x20 DUP3 DUP5 SUB SLT ISZERO PUSH2 0x4FB JUMPI PUSH2 0x4FA PUSH2 0x4A5 JUMP JUMPDEST JUMPDEST PUSH1 0x0 PUSH2 0x509 DUP5 DUP3 DUP6 ADD PUSH2 0x4D0 JUMP JUMPDEST SWAP2 POP POP SWAP3 SWAP2 POP POP JUMP JUMPDEST PUSH1 0x0 PUSH20 0xFFFFFFFFFFFFFFFFFFFFFFFFFFFFFFFFFFFFFFFF DUP3 AND SWAP1 POP SWAP2 SWAP1 POP JUMP JUMPDEST PUSH1 0x0 PUSH2 0x53D DUP3 PUSH2 0x512 JUMP JUMPDEST SWAP1 POP SWAP2 SWAP1 POP JUMP JUMPDEST PUSH2 0x54D DUP2 PUSH2 0x532 JUMP JUMPDEST DUP3 MSTORE POP POP JUMP JUMPDEST PUSH1 0x0 PUSH1 0x20 DUP3 ADD SWAP1 POP PUSH2 0x568 PUSH1 0x0 DUP4 ADD DUP5 PUSH2 0x544 JUMP JUMPDEST SWAP3 SWAP2 POP POP JUMP JUMPDEST PUSH2 0x577 DUP2 PUSH2 0x532 JUMP JUMPDEST DUP2 EQ PUSH2 0x582 JUMPI PUSH1 0x0 DUP1 REVERT JUMPDEST POP JUMP JUMPDEST PUSH1 0x0 DUP2 CALLDATALOAD SWAP1 POP PUSH2 0x594 DUP2 PUSH2 0x56E JUMP JUMPDEST SWAP3 SWAP2 POP POP JUMP JUMPDEST PUSH1 0x0 DUP1 PUSH1 0x40 DUP4 DUP6 SUB SLT ISZERO PUSH2 0x5B1 JUMPI PUSH2 0x5B0 PUSH2 0x4A5 JUMP JUMPDEST JUMPDEST PUSH1 0x0 PUSH2 0x5BF DUP6 DUP3 DUP7 ADD PUSH2 0x585 JUMP JUMPDEST SWAP3 POP POP PUSH1 0x20 PUSH2 0x5D0 DUP6 DUP3 DUP7 ADD PUSH2 0x4D0 JUMP JUMPDEST SWAP2 POP POP SWAP3 POP SWAP3 SWAP1 POP JUMP JUMPDEST PUSH1 0x0 DUP1 PUSH1 0x0 PUSH1 0x60 DUP5 DUP7 SUB SLT ISZERO PUSH2 0x5F3 JUMPI PUSH2 0x5F2 PUSH2 0x4A5 JUMP JUMPDEST JUMPDEST PUSH1 0x0 PUSH2 0x601 DUP7 DUP3 DUP8 ADD PUSH2 0x585 JUMP JUMPDEST SWAP4 POP POP PUSH1 0x20 PUSH2 0x612 DUP7 DUP3 DUP8 ADD PUSH2 0x585 JUMP JUMPDEST SWAP3 POP POP PUSH1 0x40 PUSH2 0x623 DUP7 DUP3 DUP8 ADD PUSH2 0x4D0 JUMP JUMPDEST SWAP2 POP POP SWAP3 POP SWAP3 POP SWAP3 JUMP JUMPDEST PUSH1 0x0 DUP1 REVERT JUMPDEST PUSH1 0x0 PUSH1 0x1F NOT PUSH1 0x1F DUP4 ADD AND SWAP1 POP SWAP2 SWAP1 POP JUMP JUMPDEST PUSH32 0x4E487B7100000000000000000000000000000000000000000000000000000000 PUSH1 0x0 MSTORE PUSH1 0x41 PUSH1 0x4 MSTORE PUSH1 0x24 PUSH1 0x0 REVERT JUMPDEST PUSH2 0x67B DUP3 PUSH2 0x632 JUMP JUMPDEST DUP2 ADD DUP2 DUP2 LT PUSH8 0xFFFFFFFFFFFFFFFF DUP3 GT OR ISZERO PUSH2 0x69A JUMPI PUSH2 0x699 PUSH2 0x643 JUMP JUMPDEST JUMPDEST DUP1 PUSH1 0x40 MSTORE POP POP POP JUMP JUMPDEST PUSH1 0x0 PUSH2 0x6AD PUSH2 0x49B JUMP JUMPDEST SWAP1 POP PUSH2 0x6B9 DUP3 DUP3 PUSH2 0x672 JUMP JUMPDEST SWAP2 SWAP1 POP JUMP JUMPDEST PUSH1 0x0 PUSH8 0xFFFFFFFFFFFFFFFF DUP3 GT ISZERO PUSH2 0x6D9 JUMPI PUSH2 0x6D8 PUSH2 0x643 JUMP JUMPDEST JUMPDEST PUSH1 0x20 DUP3 MUL SWAP1 POP PUSH1 0x20 DUP2 ADD SWAP1 POP SWAP2 SWAP1 POP JUMP JUMPDEST PUSH1 0x0 DUP1 REVERT JUMPDEST PUSH1 0x0 DUP1 REVERT JUMPDEST PUSH1 0x0 PUSH8 0xFFFFFFFFFFFFFFFF DUP3 GT ISZERO PUSH2 0x70F JUMPI PUSH2 0x70E PUSH2 0x643 JUMP JUMPDEST JUMPDEST PUSH2 0x718 DUP3 PUSH2 0x632 JUMP JUMPDEST SWAP1 POP PUSH1 0x20 DUP2 ADD SWAP1 POP SWAP2 SWAP1 POP JUMP JUMPDEST DUP3 DUP2 DUP4 CALLDATACOPY PUSH1 0x0 DUP4 DUP4 ADD MSTORE POP POP POP JUMP JUMPDEST PUSH1 0x0 PUSH2 0x747 PUSH2 0x742 DUP5 PUSH2 0x6F4 JUMP JUMPDEST PUSH2 0x6A3 JUMP JUMPDEST SWAP1 POP DUP3 DUP2 MSTORE PUSH1 0x20 DUP2 ADD DUP5 DUP5 DUP5 ADD GT ISZERO PUSH2 0x763 JUMPI PUSH2 0x762 PUSH2 0x6EF JUMP JUMPDEST JUMPDEST PUSH2 0x76E DUP5 DUP3 DUP6 PUSH2 0x725 JUMP JUMPDEST POP SWAP4 SWAP3 POP POP POP JUMP JUMPDEST PUSH1 0x0 DUP3 PUSH1 0x1F DUP4 ADD SLT PUSH2 0x78B JUMPI PUSH2 0x78A PUSH2 0x62D JUMP JUMPDEST JUMPDEST DUP2 CALLDATALOAD PUSH2 0x79B DUP5 DUP3 PUSH1 0x20 DUP7 ADD PUSH2 0x734 JUMP JUMPDEST SWAP2 POP POP SWAP3 SWAP2 POP POP JUMP JUMPDEST PUSH1 0x0 PUSH2 0x7B7 PUSH2 0x7B2 DUP5 PUSH2 0x6BE JUMP JUMPDEST PUSH2 0x6A3 JUMP JUMPDEST SWAP1 POP DUP1 DUP4 DUP3 MSTORE PUSH1 0x20 DUP3 ADD SWAP1 POP PUSH1 0x20 DUP5 MUL DUP4 ADD DUP6 DUP2 GT ISZERO PUSH2 0x7DA JUMPI PUSH2 0x7D9 PUSH2 0x6EA JUMP JUMPDEST JUMPDEST DUP4 JUMPDEST DUP2 DUP2 LT ISZERO PUSH2 0x821 JUMPI DUP1 CALLDATALOAD PUSH8 0xFFFFFFFFFFFFFFFF DUP2 GT ISZERO PUSH2 0x7FF JUMPI PUSH2 0x7FE PUSH2 0x62D JUMP JUMPDEST JUMPDEST DUP1 DUP7 ADD PUSH2 0x80C DUP10 DUP3 PUSH2 0x776 JUMP JUMPDEST DUP6 MSTORE PUSH1 0x20 DUP6 ADD SWAP5 POP POP POP PUSH1 0x20 DUP2 ADD SWAP1 POP PUSH2 0x7DC JUMP JUMPDEST POP POP POP SWAP4 SWAP3 POP POP POP JUMP JUMPDEST PUSH1 0x0 DUP3 PUSH1 0x1F DUP4 ADD SLT PUSH2 0x840 JUMPI PUSH2 0x83F PUSH2 0x62D JUMP JUMPDEST JUMPDEST DUP2 CALLDATALOAD PUSH2 0x850 DUP5 DUP3 PUSH1 0x20 DUP7 ADD PUSH2 0x7A4 JUMP JUMPDEST SWAP2 POP POP SWAP3 SWAP2 POP POP JUMP JUMPDEST PUSH1 0x0 PUSH1 0x20 DUP3 DUP5 SUB SLT ISZERO PUSH2 0x86F JUMPI PUSH2 0x86E PUSH2 0x4A5 JUMP JUMPDEST JUMPDEST PUSH1 0x0 DUP3 ADD CALLDATALOAD PUSH8 0xFFFFFFFFFFFFFFFF DUP2 GT ISZERO PUSH2 0x88D JUMPI PUSH2 0x88C PUSH2 0x4AA JUMP JUMPDEST JUMPDEST PUSH2 0x899 DUP5 DUP3 DUP6 ADD PUSH2 0x82B JUMP JUMPDEST SWAP2 POP POP SWAP3 SWAP2 POP POP JUMP JUMPDEST PUSH1 0x0 PUSH1 0x20 DUP3 DUP5 SUB SLT ISZERO PUSH2 0x8B8 JUMPI PUSH2 0x8B7 PUSH2 0x4A5 JUMP JUMPDEST JUMPDEST PUSH1 0x0 PUSH2 0x8C6 DUP5 DUP3 DUP6 ADD PUSH2 0x585 JUMP JUMPDEST SWAP2 POP POP SWAP3 SWAP2 POP POP JUMP JUMPDEST PUSH2 0x8D8 DUP2 PUSH2 0x4AF JUMP JUMPDEST DUP3 MSTORE POP POP JUMP JUMPDEST PUSH1 0x0 PUSH1 0x20 DUP3 ADD SWAP1 POP PUSH2 0x8F3 PUSH1 0x0 DUP4 ADD DUP5 PUSH2 0x8CF JUMP JUMPDEST SWAP3 SWAP2 POP POP JUMP JUMPDEST PUSH1 0x0 DUP1 REVERT JUMPDEST PUSH1 0x0 DUP1 DUP4 PUSH1 0x1F DUP5 ADD SLT PUSH2 0x914 JUMPI PUSH2 0x913 PUSH2 0x62D JUMP JUMPDEST JUMPDEST DUP3 CALLDATALOAD SWAP1 POP PUSH8 0xFFFFFFFFFFFFFFFF DUP2 GT ISZERO PUSH2 0x931 JUMPI PUSH2 0x930 PUSH2 0x8F9 JUMP JUMPDEST JUMPDEST PUSH1 0x20 DUP4 ADD SWAP2 POP DUP4 PUSH1 0x20 DUP3 MUL DUP4 ADD GT ISZERO PUSH2 0x94D JUMPI PUSH2 0x94C PUSH2 0x6EA JUMP JUMPDEST JUMPDEST SWAP3 POP SWAP3 SWAP1 POP JUMP JUMPDEST PUSH1 0x0 DUP1 PUSH1 0x0 PUSH1 0x40 DUP5 DUP7 SUB SLT ISZERO PUSH2 0x96D JUMPI PUSH2 0x96C PUSH2 0x4A5 JUMP JUMPDEST JUMPDEST PUSH1 0x0 DUP5 ADD CALLDATALOAD PUSH8 0xFFFFFFFFFFFFFFFF DUP2 GT ISZERO PUSH2 0x98B JUMPI PUSH2 0x98A PUSH2 0x4AA JUMP JUMPDEST JUMPDEST PUSH2 0x997 DUP7 DUP3 DUP8 ADD PUSH2 0x8FE JUMP JUMPDEST SWAP4 POP SWAP4 POP POP PUSH1 0x20 DUP5 ADD CALLDATALOAD PUSH8 0xFFFFFFFFFFFFFFFF DUP2 GT ISZERO PUSH2 0x9BA JUMPI PUSH2 0x9B9 PUSH2 0x4AA JUMP JUMPDEST JUMPDEST PUSH2 0x9C6 DUP7 DUP3 DUP8 ADD PUSH2 0x776 JUMP JUMPDEST SWAP2 POP POP SWAP3 POP SWAP3 POP SWAP3 JUMP JUMPDEST PUSH1 0x0 DUP2 ISZERO ISZERO SWAP1 POP SWAP2 SWAP1 POP JUMP JUMPDEST PUSH2 0x9E5 DUP2 PUSH2 0x9D0 JUMP JUMPDEST DUP2 EQ PUSH2 0x9F0 JUMPI PUSH1 0x0 DUP1 REVERT JUMPDEST POP JUMP JUMPDEST PUSH1 0x0 DUP2 CALLDATALOAD SWAP1 POP PUSH2 0xA02 DUP2 PUSH2 0x9DC JUMP JUMPDEST SWAP3 SWAP2 POP POP JUMP JUMPDEST PUSH1 0x0 DUP1 PUSH1 0x40 DUP4 DUP6 SUB SLT ISZERO PUSH2 0xA1F JUMPI PUSH2 0xA1E PUSH2 0x4A5 JUMP JUMPDEST JUMPDEST PUSH1 0x0 PUSH2 0xA2D DUP6 DUP3 DUP7 ADD PUSH2 0x585 JUMP JUMPDEST SWAP3 POP POP PUSH1 0x20 PUSH2 0xA3E DUP6 DUP3 DUP7 ADD PUSH2 0x9F3 JUMP JUMPDEST SWAP2 POP POP SWAP3 POP SWAP3 SWAP1 POP JUMP JUMPDEST PUSH1 0x0 DUP1 DUP4 PUSH1 0x1F DUP5 ADD SLT PUSH2 0xA5E JUMPI PUSH2 0xA5D PUSH2 0x62D JUMP JUMPDEST JUMPDEST DUP3 CALLDATALOAD SWAP1 POP PUSH8 0xFFFFFFFFFFFFFFFF DUP2 GT ISZERO PUSH2 0xA7B JUMPI PUSH2 0xA7A PUSH2 0x8F9 JUMP JUMPDEST JUMPDEST PUSH1 0x20 DUP4 ADD SWAP2 POP DUP4 PUSH1 0x1 DUP3 MUL DUP4 ADD GT ISZERO PUSH2 0xA97 JUMPI PUSH2 0xA96 PUSH2 0x6EA JUMP JUMPDEST JUMPDEST SWAP3 POP SWAP3 SWAP1 POP JUMP JUMPDEST PUSH1 0x0 DUP1 PUSH1 0x0 DUP1 PUSH1 0x0 PUSH1 0x80 DUP7 DUP9 SUB SLT ISZERO PUSH2 0xABA JUMPI PUSH2 0xAB9 PUSH2 0x4A5 JUMP JUMPDEST JUMPDEST PUSH1 0x0 PUSH2 0xAC8 DUP9 DUP3 DUP10 ADD PUSH2 0x585 JUMP JUMPDEST SWAP6 POP POP PUSH1 0x20 PUSH2 0xAD9 DUP9 DUP3 DUP10 ADD PUSH2 0x585 JUMP JUMPDEST SWAP5 POP POP PUSH1 0x40 PUSH2 0xAEA DUP9 DUP3 DUP10 ADD PUSH2 0x4D0 JUMP JUMPDEST SWAP4 POP POP PUSH1 0x60 DUP7 ADD CALLDATALOAD PUSH8 0xFFFFFFFFFFFFFFFF DUP2 GT ISZERO PUSH2 0xB0B JUMPI PUSH2 0xB0A PUSH2 0x4AA JUMP JUMPDEST JUMPDEST PUSH2 0xB17 DUP9 DUP3 DUP10 ADD PUSH2 0xA48 JUMP JUMPDEST SWAP3 POP SWAP3 POP POP SWAP3 SWAP6 POP SWAP3 SWAP6 SWAP1 SWAP4 POP JUMP JUMPDEST PUSH1 0x0 PUSH8 0xFFFFFFFFFFFFFFFF DUP3 GT ISZERO PUSH2 0xB41 JUMPI PUSH2 0xB40 PUSH2 0x643 JUMP JUMPDEST JUMPDEST PUSH2 0xB4A DUP3 PUSH2 0x632 JUMP JUMPDEST SWAP1 POP PUSH1 0x20 DUP2 ADD SWAP1 POP SWAP2 SWAP1 POP JUMP JUMPDEST PUSH1 0x0 PUSH2 0xB6A PUSH2 0xB65 DUP5 PUSH2 0xB26 JUMP JUMPDEST PUSH2 0x6A3 JUMP JUMPDEST SWAP1 POP DUP3 DUP2 MSTORE PUSH1 0x20 DUP2 ADD DUP5 DUP5 DUP5 ADD GT ISZERO PUSH2 0xB86 JUMPI PUSH2 0xB85 PUSH2 0x6EF JUMP JUMPDEST JUMPDEST PUSH2 0xB91 DUP5 DUP3 DUP6 PUSH2 0x725 JUMP JUMPDEST POP SWAP4 SWAP3 POP POP POP JUMP JUMPDEST PUSH1 0x0 DUP3 PUSH1 0x1F DUP4 ADD SLT PUSH2 0xBAE JUMPI PUSH2 0xBAD PUSH2 0x62D JUMP JUMPDEST JUMPDEST DUP2 CALLDATALOAD PUSH2 0xBBE DUP5 DUP3 PUSH1 0x20 DUP7 ADD PUSH2 0xB57 JUMP JUMPDEST SWAP2 POP POP SWAP3 SWAP2 POP POP JUMP JUMPDEST PUSH1 0x0 PUSH1 0x20 DUP3 DUP5 SUB SLT ISZERO PUSH2 0xBDD JUMPI PUSH2 0xBDC PUSH2 0x4A5 JUMP JUMPDEST JUMPDEST PUSH1 0x0 DUP3 ADD CALLDATALOAD PUSH8 0xFFFFFFFFFFFFFFFF DUP2 GT ISZERO PUSH2 0xBFB JUMPI PUSH2 0xBFA PUSH2 0x4AA JUMP JUMPDEST JUMPDEST PUSH2 0xC07 DUP5 DUP3 DUP6 ADD PUSH2 0xB99 JUMP JUMPDEST SWAP2 POP POP SWAP3 SWAP2 POP POP JUMP JUMPDEST PUSH2 0xC19 DUP2 PUSH2 0x9D0 JUMP JUMPDEST DUP3 MSTORE POP POP JUMP JUMPDEST PUSH1 0x0 PUSH1 0x20 DUP3 ADD SWAP1 POP PUSH2 0xC34 PUSH1 0x0 DUP4 ADD DUP5 PUSH2 0xC10 JUMP JUMPDEST SWAP3 SWAP2 POP POP JUMP JUMPDEST PUSH1 0x0 DUP1 PUSH1 0x40 DUP4 DUP6 SUB SLT ISZERO PUSH2 0xC51 JUMPI PUSH2 0xC50 PUSH2 0x4A5 JUMP JUMPDEST JUMPDEST PUSH1 0x0 PUSH2 0xC5F DUP6 DUP3 DUP7 ADD PUSH2 0x585 JUMP JUMPDEST SWAP3 POP POP PUSH1 0x20 PUSH2 0xC70 DUP6 DUP3 DUP7 ADD PUSH2 0x585 JUMP JUMPDEST SWAP2 POP POP SWAP3 POP SWAP3 SWAP1 POP JUMP INVALID LOG2 PUSH5 0x6970667358 0x22 SLT KECCAK256 0xBD LT 0x4A DIFFICULTY 0xAD 0x21 RETURNDATASIZE POP 0xE2 0xAC PUSH17 0xC9056803AD39B88B626F7595218CB9D144 0xE2 0xB8 DUP8 0xE8 PUSH5 0x736F6C6343 STOP ADDMOD LT STOP CALLER "},"methodIdentifiers":{"approve(address,uint256)":"095ea7b3","balanceOf(address)":"70a08231","burn(uint256)":"42966c68","burnTokens(uint256[],string)":"99b9c61d","commissionFee()":"6fb1eb0c","getApproved(uint256)":"081812fc","isApprovedForAll(address,address)":"e985e9c5","isVerified(bytes)":"c9941806","mint(string[])":"5768f271","mintARC(address)":"58f5f8be","ownerOf(uint256)":"6352211e","safeTransferFrom(address,address,uint256)":"42842e0e","safeTransferFrom(address,address,uint256,bytes)":"b88d4fde","setApprovalForAll(address,bool)":"a22cb465","transferFrom(address,address,uint256)":"23b872dd"}},"storageLayout":{"storage":[],"types":null}}}}