{"contracts/CONSTRUCT/ConstructERC721V1.sol":{"ConstructERC721V1":{"abi":[{"anonymous":false,"inputs":[{"indexed":true,"internalType":"address","name":"owner","type":"address"},{"indexed":true,"internalType":"address","name":"approved","type":"address"},{"indexed":true,"internalType":"uint256","name":"tokenId","type":"uint256"}],"name":"Approval","type":"event"},{"anonymous":false,"inputs":[{"indexed":true,"internalType":"address","name":"owner","type":"address"},{"indexed":true,"internalType":"address","name":"operator","type":"address"},{"indexed":false,"internalType":"bool","name":"approved","type":"bool"}],"name":"ApprovalForAll","type":"event"},{"anonymous":false,"inputs":[{"indexed":false,"internalType":"address","name":"User","type":"address"},{"indexed":false,"internalType":"uint256[]","name":"ConstructId","type":"uint256[]"},{"indexed":false,"internalType":"uint256[]","name":"ConstructTokenId","type":"uint256[]"},{"indexed":false,"internalType":"string","name":"NFTtype","type":"string"}],"name":"ConstructConverted","type":"event"},{"anonymous":false,"inputs":[{"indexed":false,"internalType":"address","name":"User","type":"address"},{"indexed":false,"internalType":"uint256","name":"ConstructId","type":"uint256"},{"indexed":false,"internalType":"uint256","name":"ConstructTokenId","type":"uint256"},{"indexed":false,"internalType":"string","name":"NFTtype","type":"string"}],"name":"ConstructMinted","type":"event"},{"anonymous":false,"inputs":[{"indexed":false,"internalType":"uint8","name":"version","type":"uint8"}],"name":"Initialized","type":"event"},{"anonymous":false,"inputs":[{"indexed":true,"internalType":"address","name":"previousOwner","type":"address"},{"indexed":true,"internalType":"address","name":"newOwner","type":"address"}],"name":"OwnershipTransferred","type":"event"},{"anonymous":false,"inputs":[{"indexed":false,"internalType":"address","name":"User","type":"address"},{"indexed":false,"internalType":"uint256","name":"Amount","type":"uint256"},{"indexed":false,"internalType":"uint256","name":"ConstructId","type":"uint256"},{"indexed":false,"internalType":"string","name":"NFTtype","type":"string"}],"name":"SoldConstruct","type":"event"},{"anonymous":false,"inputs":[{"indexed":false,"internalType":"address","name":"PreviousOwner","type":"address"},{"indexed":false,"internalType":"address","name":"NewOwner","type":"address"},{"indexed":false,"internalType":"uint256","name":"Price","type":"uint256"},{"indexed":false,"internalType":"uint256","name":"TokenId","type":"uint256"},{"indexed":false,"internalType":"string","name":"TokenType","type":"string"}],"name":"TokenPurchased","type":"event"},{"anonymous":false,"inputs":[{"indexed":false,"internalType":"address","name":"PreviousOwner","type":"address"},{"indexed":false,"internalType":"address","name":"NewOwner","type":"address"},{"indexed":false,"internalType":"uint256","name":"Price","type":"uint256"},{"indexed":false,"internalType":"uint256","name":"TokenId","type":"uint256"},{"indexed":false,"internalType":"string","name":"TokenType","type":"string"}],"name":"TokenPurchasedOffChain","type":"event"},{"anonymous":false,"inputs":[{"indexed":true,"internalType":"address","name":"from","type":"address"},{"indexed":true,"internalType":"address","name":"to","type":"address"},{"indexed":true,"internalType":"uint256","name":"tokenId","type":"uint256"}],"name":"Transfer","type":"event"},{"inputs":[],"name":"ARCAddress","outputs":[{"internalType":"contract Mintpeg","name":"","type":"address"}],"stateMutability":"view","type":"function"},{"inputs":[],"name":"ARFtokenAddress","outputs":[{"internalType":"contract Mintpeg","name":"","type":"address"}],"stateMutability":"view","type":"function"},{"inputs":[],"name":"MerchantWallet","outputs":[{"internalType":"address","name":"","type":"address"}],"stateMutability":"view","type":"function"},{"inputs":[],"name":"NiozERC20Address","outputs":[{"internalType":"contract IERC20Upgradeable","name":"","type":"address"}],"stateMutability":"view","type":"function"},{"inputs":[{"internalType":"address","name":"to","type":"address"},{"internalType":"uint256","name":"tokenId","type":"uint256"}],"name":"approve","outputs":[],"stateMutability":"nonpayable","type":"function"},{"inputs":[{"internalType":"address","name":"owner","type":"address"}],"name":"balanceOf","outputs":[{"internalType":"uint256","name":"","type":"uint256"}],"stateMutability":"view","type":"function"},{"inputs":[{"components":[{"internalType":"uint256","name":"Id","type":"uint256"},{"internalType":"uint256","name":"amount","type":"uint256"},{"internalType":"bytes32","name":"messageHash","type":"bytes32"}],"internalType":"struct ConstructERC721V1.SellOrder","name":"_order","type":"tuple"},{"internalType":"bytes","name":"_signature","type":"bytes"}],"name":"buy","outputs":[],"stateMutability":"payable","type":"function"},{"inputs":[{"components":[{"internalType":"uint256","name":"Id","type":"uint256"},{"internalType":"address","name":"previousOwner","type":"address"},{"internalType":"uint256","name":"amount","type":"uint256"},{"internalType":"bytes32","name":"messageHash","type":"bytes32"}],"internalType":"struct ConstructERC721V1.SellOrderOffChain","name":"_order","type":"tuple"},{"internalType":"bytes","name":"_signature","type":"bytes"}],"name":"buyOffChain","outputs":[],"stateMutability":"payable","type":"function"},{"inputs":[{"components":[{"internalType":"uint256[]","name":"constructIds","type":"uint256[]"},{"internalType":"uint256[]","name":"constructTokenIds","type":"uint256[]"},{"internalType":"bytes32","name":"messageHash","type":"bytes32"}],"internalType":"struct ConstructERC721V1.ConvertConstruct1","name":"_order","type":"tuple"},{"internalType":"bytes","name":"_signature","type":"bytes"}],"name":"convertConstruct","outputs":[],"stateMutability":"nonpayable","type":"function"},{"inputs":[{"internalType":"uint256","name":"_total_amount","type":"uint256"}],"name":"feeCalculation","outputs":[{"internalType":"uint256","name":"Fee","type":"uint256"}],"stateMutability":"view","type":"function"},{"inputs":[{"internalType":"uint256","name":"tokenId","type":"uint256"}],"name":"getApproved","outputs":[{"internalType":"address","name":"","type":"address"}],"stateMutability":"view","type":"function"},{"inputs":[],"name":"initialize","outputs":[],"stateMutability":"nonpayable","type":"function"},{"inputs":[{"internalType":"address","name":"owner","type":"address"},{"internalType":"address","name":"operator","type":"address"}],"name":"isApprovedForAll","outputs":[{"internalType":"bool","name":"","type":"bool"}],"stateMutability":"view","type":"function"},{"inputs":[{"internalType":"uint256","name":"","type":"uint256"}],"name":"isConstructMintable","outputs":[{"internalType":"bool","name":"","type":"bool"}],"stateMutability":"view","type":"function"},{"inputs":[{"internalType":"uint256","name":"","type":"uint256"}],"name":"isConstructSold","outputs":[{"internalType":"bool","name":"","type":"bool"}],"stateMutability":"view","type":"function"},{"inputs":[{"internalType":"bytes","name":"","type":"bytes"}],"name":"isVerified","outputs":[{"internalType":"bool","name":"","type":"bool"}],"stateMutability":"view","type":"function"},{"inputs":[{"components":[{"internalType":"uint256","name":"constructId","type":"uint256"},{"internalType":"bytes32","name":"messageHash","type":"bytes32"}],"internalType":"struct ConstructERC721V1.ConstructOrder","name":"_order","type":"tuple"},{"internalType":"bytes","name":"_signature","type":"bytes"}],"name":"mintConstruct","outputs":[],"stateMutability":"nonpayable","type":"function"},{"inputs":[],"name":"name","outputs":[{"internalType":"string","name":"","type":"string"}],"stateMutability":"view","type":"function"},{"inputs":[],"name":"owner","outputs":[{"internalType":"address","name":"","type":"address"}],"stateMutability":"view","type":"function"},{"inputs":[{"internalType":"uint256","name":"tokenId","type":"uint256"}],"name":"ownerOf","outputs":[{"internalType":"address","name":"","type":"address"}],"stateMutability":"view","type":"function"},{"inputs":[],"name":"renounceOwnership","outputs":[],"stateMutability":"nonpayable","type":"function"},{"inputs":[{"internalType":"address","name":"from","type":"address"},{"internalType":"address","name":"to","type":"address"},{"internalType":"uint256","name":"tokenId","type":"uint256"}],"name":"safeTransferFrom","outputs":[],"stateMutability":"nonpayable","type":"function"},{"inputs":[{"internalType":"address","name":"from","type":"address"},{"internalType":"address","name":"to","type":"address"},{"internalType":"uint256","name":"tokenId","type":"uint256"},{"internalType":"bytes","name":"data","type":"bytes"}],"name":"safeTransferFrom","outputs":[],"stateMutability":"nonpayable","type":"function"},{"inputs":[{"components":[{"internalType":"uint256","name":"Id","type":"uint256"},{"internalType":"uint256","name":"amount","type":"uint256"},{"internalType":"bytes32","name":"messageHash","type":"bytes32"}],"internalType":"struct ConstructERC721V1.SellOrder","name":"_order","type":"tuple"},{"internalType":"bytes","name":"_signature","type":"bytes"}],"name":"sellAlloyConstruct","outputs":[],"stateMutability":"nonpayable","type":"function"},{"inputs":[{"internalType":"address","name":"operator","type":"address"},{"internalType":"bool","name":"approved","type":"bool"}],"name":"setApprovalForAll","outputs":[],"stateMutability":"nonpayable","type":"function"},{"inputs":[{"internalType":"bytes4","name":"interfaceId","type":"bytes4"}],"name":"supportsInterface","outputs":[{"internalType":"bool","name":"","type":"bool"}],"stateMutability":"view","type":"function"},{"inputs":[],"name":"symbol","outputs":[{"internalType":"string","name":"","type":"string"}],"stateMutability":"view","type":"function"},{"inputs":[],"name":"tokenCounter","outputs":[{"internalType":"uint256","name":"","type":"uint256"}],"stateMutability":"view","type":"function"},{"inputs":[{"internalType":"uint256","name":"_tokenId","type":"uint256"}],"name":"tokenURI","outputs":[{"internalType":"string","name":"","type":"string"}],"stateMutability":"view","type":"function"},{"inputs":[{"internalType":"address","name":"from","type":"address"},{"internalType":"address","name":"to","type":"address"},{"internalType":"uint256","name":"tokenId","type":"uint256"}],"name":"transferFrom","outputs":[],"stateMutability":"nonpayable","type":"function"},{"inputs":[{"internalType":"address","name":"newOwner","type":"address"}],"name":"transferOwnership","outputs":[],"stateMutability":"nonpayable","type":"function"},{"inputs":[{"internalType":"string","name":"_baseuri","type":"string"},{"internalType":"string","name":"_extension","type":"string"}],"name":"upadateDefaultUri","outputs":[],"stateMutability":"nonpayable","type":"function"},{"inputs":[{"internalType":"address","name":"_arc_address","type":"address"},{"internalType":"address","name":"_merchant_address","type":"address"},{"internalType":"address","name":"_nioz_address","type":"address"},{"internalType":"address","name":"_Arf_address","type":"address"}],"name":"updateWallets","outputs":[],"stateMutability":"nonpayable","type":"function"}],"evm":{"bytecode":{"linkReferences":{},"object":"608060405234801561001057600080fd5b50616d3380620000216000396000f3fe6080604052600436106101ee5760003560e01c80637dd12d151161010d578063ba66b54c116100a0578063cb73bff11161006f578063cb73bff1146106dd578063d082e38114610708578063e985e9c514610733578063f2fde38b14610770578063fcca9f3814610799576101ee565b8063ba66b54c1461061e578063be6d6a6f14610647578063c87b56dd14610663578063c9941806146106a0576101ee565b806395d89b41116100dc57806395d89b411461057857806397c04edb146105a3578063a22cb465146105cc578063b88d4fde146105f5576101ee565b80637dd12d15146104ef5780638129fc1c1461051a5780638da5cb5b146105315780639401c1e41461055c576101ee565b806342842e0e116101855780636fc04381116101545780636fc043811461044957806370a0823114610472578063715018a6146104af578063743e540d146104c6576101ee565b806342842e0e1461038f5780636352211e146103b85780636943f71e146103f55780636ef1eee41461041e576101ee565b8063095ea7b3116101c1578063095ea7b3146102c35780631cfb7a0b146102ec57806323b872dd146103295780632c7d077e14610352576101ee565b806301ffc9a7146101f357806304a4362e1461023057806306fdde031461025b578063081812fc14610286575b600080fd5b3480156101ff57600080fd5b5061021a6004803603810190610215919061496f565b6107d6565b60405161022791906149b7565b60405180910390f35b34801561023c57600080fd5b506102456108b8565b6040516102529190614a51565b60405180910390f35b34801561026757600080fd5b506102706108df565b60405161027d9190614afc565b60405180910390f35b34801561029257600080fd5b506102ad60048036038101906102a89190614b54565b610971565b6040516102ba9190614ba2565b60405180910390f35b3480156102cf57600080fd5b506102ea60048036038101906102e59190614be9565b6109b7565b005b3480156102f857600080fd5b50610313600480360381019061030e9190614b54565b610ace565b60405161032091906149b7565b60405180910390f35b34801561033557600080fd5b50610350600480360381019061034b9190614c29565b610aef565b005b34801561035e57600080fd5b5061037960048036038101906103749190614b54565b610b4f565b6040516103869190614c8b565b60405180910390f35b34801561039b57600080fd5b506103b660048036038101906103b19190614c29565b610c29565b005b3480156103c457600080fd5b506103df60048036038101906103da9190614b54565b610c49565b6040516103ec9190614ba2565b60405180910390f35b34801561040157600080fd5b5061041c60048036038101906104179190614f7f565b610ccf565b005b34801561042a57600080fd5b506104336113f6565b6040516104409190614a51565b60405180910390f35b34801561045557600080fd5b50610470600480360381019061046b919061505b565b61141c565b005b34801561047e57600080fd5b50610499600480360381019061049491906150b7565b6119d5565b6040516104a69190614c8b565b60405180910390f35b3480156104bb57600080fd5b506104c4611a8c565b005b3480156104d257600080fd5b506104ed60048036038101906104e891906150e4565b611aa0565b005b3480156104fb57600080fd5b50610504611c40565b6040516105119190614ba2565b60405180910390f35b34801561052657600080fd5b5061052f611c66565b005b34801561053d57600080fd5b50610546611fee565b6040516105539190614ba2565b60405180910390f35b6105766004803603810190610571919061505b565b612018565b005b34801561058457600080fd5b5061058d612594565b60405161059a9190614afc565b60405180910390f35b3480156105af57600080fd5b506105ca60048036038101906105c591906151ec565b612626565b005b3480156105d857600080fd5b506105f360048036038101906105ee9190615290565b6126b6565b005b34801561060157600080fd5b5061061c600480360381019061061791906152d0565b6126cc565b005b34801561062a57600080fd5b50610645600480360381019061064091906153a3565b61272e565b005b610661600480360381019061065c9190615477565b612c8b565b005b34801561066f57600080fd5b5061068a60048036038101906106859190614b54565b613192565b6040516106979190614afc565b60405180910390f35b3480156106ac57600080fd5b506106c760048036038101906106c291906154d3565b61329d565b6040516106d491906149b7565b60405180910390f35b3480156106e957600080fd5b506106f26132d4565b6040516106ff919061553d565b60405180910390f35b34801561071457600080fd5b5061071d6132fb565b60405161072a9190614c8b565b60405180910390f35b34801561073f57600080fd5b5061075a60048036038101906107559190615558565b613301565b60405161076791906149b7565b60405180910390f35b34801561077c57600080fd5b50610797600480360381019061079291906150b7565b613395565b005b3480156107a557600080fd5b506107c060048036038101906107bb9190614b54565b613418565b6040516107cd91906149b7565b60405180910390f35b60007f80ac58cd000000000000000000000000000000000000000000000000000000007bffffffffffffffffffffffffffffffffffffffffffffffffffffffff1916827bffffffffffffffffffffffffffffffffffffffffffffffffffffffff191614806108a157507f5b5e139f000000000000000000000000000000000000000000000000000000007bffffffffffffffffffffffffffffffffffffffffffffffffffffffff1916827bffffffffffffffffffffffffffffffffffffffffffffffffffffffff1916145b806108b157506108b082613439565b5b9050919050565b61010060009054906101000a900473ffffffffffffffffffffffffffffffffffffffff1681565b6060606580546108ee906155c7565b80601f016020809104026020016040519081016040528092919081815260200182805461091a906155c7565b80156109675780601f1061093c57610100808354040283529160200191610967565b820191906000526020600020905b81548152906001019060200180831161094a57829003601f168201915b5050505050905090565b600061097c826134a3565b6069600083815260200190815260200160002060009054906101000a900473ffffffffffffffffffffffffffffffffffffffff169050919050565b60006109c282610c49565b90508073ffffffffffffffffffffffffffffffffffffffff168373ffffffffffffffffffffffffffffffffffffffff1603610a32576040517f08c379a0000000000000000000000000000000000000000000000000000000008152600401610a299061566a565b60405180910390fd5b8073ffffffffffffffffffffffffffffffffffffffff16610a516134ee565b73ffffffffffffffffffffffffffffffffffffffff161480610a805750610a7f81610a7a6134ee565b613301565b5b610abf576040517f08c379a0000000000000000000000000000000000000000000000000000000008152600401610ab6906156fc565b60405180910390fd5b610ac983836134f6565b505050565b6101046020528060005260406000206000915054906101000a900460ff1681565b610b00610afa6134ee565b826135af565b610b3f576040517f08c379a0000000000000000000000000000000000000000000000000000000008152600401610b369061578e565b60405180910390fd5b610b4a838383613644565b505050565b6000610b6567879575944c1fb4de60c01b61393d565b610b7967fea1701351c6c4d660c01b61393d565b6103e88260ff60009054906101000a900473ffffffffffffffffffffffffffffffffffffffff1673ffffffffffffffffffffffffffffffffffffffff16636fb1eb0c6040518163ffffffff1660e01b8152600401602060405180830381865afa158015610bea573d6000803e3d6000fd5b505050506040513d601f19601f82011682018060405250810190610c0e91906157c3565b610c18919061581f565b610c2291906158a8565b9050919050565b610c44838383604051806020016040528060008152506126cc565b505050565b600080610c5583613940565b9050600073ffffffffffffffffffffffffffffffffffffffff168173ffffffffffffffffffffffffffffffffffffffff1603610cc6576040517f08c379a0000000000000000000000000000000000000000000000000000000008152600401610cbd90615925565b60405180910390fd5b80915050919050565b610ce367858690acb5d620d160c01b61393d565b610ceb61397d565b610cff67097cbceddb93797b60c01b61393d565b610d1367fd2d84df8b9e952b60c01b61393d565b610d2767d689dd620b304eaa60c01b61393d565b610d3b67649a66618565a5ca60c01b61393d565b610d4f67e324d7cf1f73ba8360c01b61393d565b610d65610d5a611fee565b8360400151836139cc565b8015610d9b575061010281604051610d7d919061598c565b908152602001604051809103902060009054906101000a900460ff16155b8015610e41575061010160009054906101000a900473ffffffffffffffffffffffffffffffffffffffff1673ffffffffffffffffffffffffffffffffffffffff1663c9941806826040518263ffffffff1660e01b8152600401610dfe91906159ed565b602060405180830381865afa158015610e1b573d6000803e3d6000fd5b505050506040513d601f19601f82011682018060405250810190610e3f9190615a24565b155b8015610ee7575061010060009054906101000a900473ffffffffffffffffffffffffffffffffffffffff1673ffffffffffffffffffffffffffffffffffffffff1663c9941806826040518263ffffffff1660e01b8152600401610ea491906159ed565b602060405180830381865afa158015610ec1573d6000803e3d6000fd5b505050506040513d601f19601f82011682018060405250810190610ee59190615a24565b155b8015610f8c575060ff60009054906101000a900473ffffffffffffffffffffffffffffffffffffffff1673ffffffffffffffffffffffffffffffffffffffff1663c9941806826040518263ffffffff1660e01b8152600401610f4991906159ed565b602060405180830381865afa158015610f66573d6000803e3d6000fd5b505050506040513d601f19601f82011682018060405250810190610f8a9190615a24565b155b610fcb576040517f08c379a0000000000000000000000000000000000000000000000000000000008152600401610fc290615a9d565b60405180910390fd5b610fdf67b8aaeaeb4c4a0e1160c01b61393d565b610ff367fccd693312cd7b9c60c01b61393d565b610105600061100291906148c5565b61101667cd3a3a9b79dfff9560c01b61393d565b61102a675f295cab12f6c93a60c01b61393d565b60005b82600001515181101561127b5761104e67771ee4c6a78b7f5260c01b61393d565b611062673b1a77edacca600660c01b61393d565b61107667654ba3432792e3b260c01b61393d565b61010460008460000151838151811061109257611091615abd565b5b6020026020010151815260200190815260200160002060009054906101000a900460ff1615801561110057506101036000846000015183815181106110da576110d9615abd565b5b6020026020010151815260200190815260200160002060009054906101000a900460ff16155b61113f576040517f08c379a000000000000000000000000000000000000000000000000000000000815260040161113690615b38565b60405180910390fd5b61115367443fe02cab7fff2560c01b61393d565b61116767a82c2b0e8cf167e860c01b61393d565b600161010360008560000151848151811061118557611184615abd565b5b6020026020010151815260200190815260200160002060006101000a81548160ff0219169083151502179055506111c667ec1ae5c9cbdf008b60c01b61393d565b600160fb60008282546111d99190615b58565b925050819055506111f46716c5efea0b87797360c01b61393d565b61120867816a059b81d2677a60c01b61393d565b6112143360fb54613b92565b6112286748cd4a5b540bc79e60c01b61393d565b61123c67544e302839daedd560c01b61393d565b61010560fb549080600181540180825580915050600190039060005260206000200160009091909190915055808061127390615b8c565b91505061102d565b50611290674fc60882579d474a60c01b61393d565b6112a46765171ed03066909760c01b61393d565b60ff60009054906101000a900473ffffffffffffffffffffffffffffffffffffffff1673ffffffffffffffffffffffffffffffffffffffff166399b9c61d83602001516040518263ffffffff1660e01b81526004016113039190615cde565b600060405180830381600087803b15801561131d57600080fd5b505af1158015611331573d6000803e3d6000fd5b50505050611349678813e55b5bfeb6f260c01b61393d565b60016101028260405161135c919061598c565b908152602001604051809103902060006101000a81548160ff0219169083151502179055506113956757717ab8890afe9260c01b61393d565b6113a967b53061739e8b19e160c01b61393d565b7f4460facd664860c4bb5edaa48402c019a8d10f1c4ac640dd7b3e1dc4c9e6335f3383600001516101056040516113e293929190615de9565b60405180910390a16113f2613bb0565b5050565b60ff60009054906101000a900473ffffffffffffffffffffffffffffffffffffffff1681565b6114306771175f941f2365f860c01b61393d565b61143861397d565b61144c6746c9fdf7f26b461460c01b61393d565b61146067b3d0997e0872971f60c01b61393d565b611474673dc50041d0f0bb4160c01b61393d565b61148867264247568ebd23db60c01b61393d565b61149c67cda1901bbe7ca52260c01b61393d565b6114b26114a7611fee565b8360400151836139cc565b80156114e85750610102816040516114ca919061598c565b908152602001604051809103902060009054906101000a900460ff16155b801561158e575061010160009054906101000a900473ffffffffffffffffffffffffffffffffffffffff1673ffffffffffffffffffffffffffffffffffffffff1663c9941806826040518263ffffffff1660e01b815260040161154b91906159ed565b602060405180830381865afa158015611568573d6000803e3d6000fd5b505050506040513d601f19601f8201168201806040525081019061158c9190615a24565b155b8015611634575061010060009054906101000a900473ffffffffffffffffffffffffffffffffffffffff1673ffffffffffffffffffffffffffffffffffffffff1663c9941806826040518263ffffffff1660e01b81526004016115f191906159ed565b602060405180830381865afa15801561160e573d6000803e3d6000fd5b505050506040513d601f19601f820116820180604052508101906116329190615a24565b155b80156116d9575060ff60009054906101000a900473ffffffffffffffffffffffffffffffffffffffff1673ffffffffffffffffffffffffffffffffffffffff1663c9941806826040518263ffffffff1660e01b815260040161169691906159ed565b602060405180830381865afa1580156116b3573d6000803e3d6000fd5b505050506040513d601f19601f820116820180604052508101906116d79190615a24565b155b611718576040517f08c379a000000000000000000000000000000000000000000000000000000000815260040161170f90615a9d565b60405180910390fd5b61172c6705585376f0dcee5a60c01b61393d565b61174067a19c56036bdebeb360c01b61393d565b611754676eb7d33ba1cab86560c01b61393d565b61176867919bd09c7eebf50160c01b61393d565b61010460008360000151815260200190815260200160002060009054906101000a900460ff161580156117be575061010360008360000151815260200190815260200160002060009054906101000a900460ff16155b6117fd576040517f08c379a00000000000000000000000000000000000000000000000000000000081526004016117f490615b38565b60405180910390fd5b61181167706b1aa484576cca60c01b61393d565b611825672f97e4949bec49d760c01b61393d565b611839674fba04b09c28467660c01b61393d565b61010160009054906101000a900473ffffffffffffffffffffffffffffffffffffffff1673ffffffffffffffffffffffffffffffffffffffff166340c10f193384602001516040518363ffffffff1660e01b815260040161189b929190615e41565b600060405180830381600087803b1580156118b557600080fd5b505af11580156118c9573d6000803e3d6000fd5b505050506118e167f9512ab95cd027d760c01b61393d565b6001610102826040516118f4919061598c565b908152602001604051809103902060006101000a81548160ff02191690831515021790555061192d674c680276d14b4aec60c01b61393d565b600161010460008460000151815260200190815260200160002060006101000a81548160ff0219169083151502179055506119726776519030471a362460c01b61393d565b611986677a76d69b0efc525160c01b61393d565b7f182a2dc5849b17b73ce7928eb8e0ddc317a5d8f78b8deda6f07e7927833f774433836020015184600001516040516119c193929190615e6a565b60405180910390a16119d1613bb0565b5050565b60008073ffffffffffffffffffffffffffffffffffffffff168273ffffffffffffffffffffffffffffffffffffffff1603611a45576040517f08c379a0000000000000000000000000000000000000000000000000000000008152600401611a3c90615f26565b60405180910390fd5b606860008373ffffffffffffffffffffffffffffffffffffffff1673ffffffffffffffffffffffffffffffffffffffff168152602001908152602001600020549050919050565b611a94613bba565b611a9e6000613c38565b565b611ab4678e9c077b44190b6260c01b61393d565b611abc613bba565b611ad067362d6c9876eccba860c01b61393d565b611ae4677cdd45ce329132a060c01b61393d565b611af867eaca844f6d780b8e60c01b61393d565b8360ff60006101000a81548173ffffffffffffffffffffffffffffffffffffffff021916908373ffffffffffffffffffffffffffffffffffffffff160217905550611b4d6791d8698a166dcda960c01b61393d565b8161010160006101000a81548173ffffffffffffffffffffffffffffffffffffffff021916908373ffffffffffffffffffffffffffffffffffffffff160217905550611ba36750cd4abed36f207360c01b61393d565b8260fe60006101000a81548173ffffffffffffffffffffffffffffffffffffffff021916908373ffffffffffffffffffffffffffffffffffffffff160217905550611bf867c439a14c3c4cfb7c60c01b61393d565b8061010060006101000a81548173ffffffffffffffffffffffffffffffffffffffff021916908373ffffffffffffffffffffffffffffffffffffffff16021790555050505050565b60fe60009054906101000a900473ffffffffffffffffffffffffffffffffffffffff1681565b611c7a67306910ac1ee5377860c01b61393d565b60008060019054906101000a900460ff16159050808015611cab5750600160008054906101000a900460ff1660ff16105b80611cd85750611cba30613cfe565b158015611cd75750600160008054906101000a900460ff1660ff16145b5b611d17576040517f08c379a0000000000000000000000000000000000000000000000000000000008152600401611d0e90615fb8565b60405180910390fd5b60016000806101000a81548160ff021916908360ff1602179055508015611d54576001600060016101000a81548160ff0219169083151502179055505b611d6867903756398606d5e160c01b61393d565b611d7c67446454e6db8ff38c60c01b61393d565b611d90670f2d2dbb51f5983960c01b61393d565b611da467dc30a29b9c7100f860c01b61393d565b611e186040518060400160405280601581526020017f416c6c6f7920537061636520436f6e73747275637400000000000000000000008152506040518060400160405280600c81526020017f436f6e7374727563742d54540000000000000000000000000000000000000000815250613d21565b611e2c67dc27138ebab27e5060c01b61393d565b611e4067435f51aad9740cae60c01b61393d565b611e48613d7e565b611e5c67f6fdf30ecceb51f060c01b61393d565b611e7067c998ce4712948fb960c01b61393d565b611e78613dd7565b611e8c671a1d0512f233935d60c01b61393d565b604051806060016040528060288152602001616cd66028913960fc9081611eb3919061617a565b50611ec86760e527681e5260e360c01b61393d565b6040518060400160405280600f81526020017f2d746f6b656e2d7572692e6a736f6e000000000000000000000000000000000081525060fd9081611f0c919061617a565b50611f216767b51bac550613d360c01b61393d565b600060fb81905550611f3d672685189a7bddd15160c01b61393d565b7325fc99ef8c2be73c303f7e54a0c2da423e48326b60fe60006101000a81548173ffffffffffffffffffffffffffffffffffffffff021916908373ffffffffffffffffffffffffffffffffffffffff1602179055508015611feb5760008060016101000a81548160ff0219169083151502179055507f7f26b83ff96e1f2b6a682f133852f6798a09c465da95921460cefb38474024986001604051611fe29190616294565b60405180910390a15b50565b6000609760009054906101000a900473ffffffffffffffffffffffffffffffffffffffff16905090565b61202c67f566226bcfa04dbb60c01b61393d565b61203461397d565b61204867d0d54e15e960ed3360c01b61393d565b61205c67580a4f291efdd44e60c01b61393d565b61207067f8f6900d9161fd8360c01b61393d565b612084675a91b377e70783ed60c01b61393d565b60006120938360000151610c49565b90506120a9674e03096c3f4513e160c01b61393d565b6120bd6744c83a0edd63a15660c01b61393d565b6120d167fa7d940773de88ea60c01b61393d565b6120e0818460400151846139cc565b80156121165750610102826040516120f8919061598c565b908152602001604051809103902060009054906101000a900460ff16155b80156121bc575061010160009054906101000a900473ffffffffffffffffffffffffffffffffffffffff1673ffffffffffffffffffffffffffffffffffffffff1663c9941806836040518263ffffffff1660e01b815260040161217991906159ed565b602060405180830381865afa158015612196573d6000803e3d6000fd5b505050506040513d601f19601f820116820180604052508101906121ba9190615a24565b155b8015612261575060ff60009054906101000a900473ffffffffffffffffffffffffffffffffffffffff1673ffffffffffffffffffffffffffffffffffffffff1663c9941806836040518263ffffffff1660e01b815260040161221e91906159ed565b602060405180830381865afa15801561223b573d6000803e3d6000fd5b505050506040513d601f19601f8201168201806040525081019061225f9190615a24565b155b6122a0576040517f08c379a0000000000000000000000000000000000000000000000000000000008152600401612297906162fb565b60405180910390fd5b6122b4679c5f19bae140eb0f60c01b61393d565b6122c8679e001a7da12eb75f60c01b61393d565b6122dc67ef4f555e48e1b60760c01b61393d565b6122f0677c9d0a7eee850c4460c01b61393d565b34836020015114612336576040517f08c379a000000000000000000000000000000000000000000000000000000000815260040161232d9061638d565b60405180910390fd5b61234a67046927242f69c4ed60c01b61393d565b61235e67142e1a01bc3730f660c01b61393d565b61237267de2697317132979b60c01b61393d565b6123918133856000015160405180602001604052806000815250613e30565b6123a567acb8cd1d9dde3d8760c01b61393d565b6001610102836040516123b8919061598c565b908152602001604051809103902060006101000a81548160ff0219169083151502179055506123f16742c661383357f03260c01b61393d565b61240567228ff3d570bdca3d60c01b61393d565b600061241034610b4f565b9050612426670d6465bbe36da72760c01b61393d565b61243a67aeac0afc8bfcb4bd60c01b61393d565b60fe60009054906101000a900473ffffffffffffffffffffffffffffffffffffffff1673ffffffffffffffffffffffffffffffffffffffff166108fc829081150290604051600060405180830381858888f193505050501580156124a2573d6000803e3d6000fd5b506124b767778c306af50b8ffb60c01b61393d565b6124cb675889af5f8eba611260c01b61393d565b8173ffffffffffffffffffffffffffffffffffffffff166108fc82346124f191906163ad565b9081150290604051600060405180830381858888f1935050505015801561251c573d6000803e3d6000fd5b5061253167932b3363d385b8c460c01b61393d565b612545672ef438c517a8bd6360c01b61393d565b7f80cf10dac1b681dc583a2a6ab3d1e5279e026d3fb3c9001157fc290c9a1bed69823334876000015160405161257e94939291906163e1565b60405180910390a15050612590613bb0565b5050565b6060606680546125a3906155c7565b80601f01602080910402602001604051908101604052809291908181526020018280546125cf906155c7565b801561261c5780601f106125f15761010080835404028352916020019161261c565b820191906000526020600020905b8154815290600101906020018083116125ff57829003601f168201915b5050505050905090565b61263a6780ada2b2bc7cc43060c01b61393d565b612642613bba565b612656673971fa4e500e956e60c01b61393d565b61266a6704ae721835ee69b560c01b61393d565b61267e670c8cfb23aeeb153960c01b61393d565b8160fc908161268d919061617a565b506126a267d68fc770b603efb660c01b61393d565b8060fd90816126b1919061617a565b505050565b6126c86126c16134ee565b8383613e8c565b5050565b6126dd6126d76134ee565b836135af565b61271c576040517f08c379a00000000000000000000000000000000000000000000000000000000081526004016127139061578e565b60405180910390fd5b61272884848484613e30565b50505050565b61274267a79711601946fd3660c01b61393d565b61274a61397d565b61275e675c4ea437230b8fd160c01b61393d565b61277267764c1905ce800f2560c01b61393d565b6127866702cb76585f3c6ce960c01b61393d565b61279a677d8b93b692f9530760c01b61393d565b6127ae67c8aeacf6a31b146c60c01b61393d565b6127c46127b9611fee565b8360200151836139cc565b80156127fa5750610102816040516127dc919061598c565b908152602001604051809103902060009054906101000a900460ff16155b80156128a0575061010160009054906101000a900473ffffffffffffffffffffffffffffffffffffffff1673ffffffffffffffffffffffffffffffffffffffff1663c9941806826040518263ffffffff1660e01b815260040161285d91906159ed565b602060405180830381865afa15801561287a573d6000803e3d6000fd5b505050506040513d601f19601f8201168201806040525081019061289e9190615a24565b155b8015612946575061010060009054906101000a900473ffffffffffffffffffffffffffffffffffffffff1673ffffffffffffffffffffffffffffffffffffffff1663c9941806826040518263ffffffff1660e01b815260040161290391906159ed565b602060405180830381865afa158015612920573d6000803e3d6000fd5b505050506040513d601f19601f820116820180604052508101906129449190615a24565b155b80156129eb575060ff60009054906101000a900473ffffffffffffffffffffffffffffffffffffffff1673ffffffffffffffffffffffffffffffffffffffff1663c9941806826040518263ffffffff1660e01b81526004016129a891906159ed565b602060405180830381865afa1580156129c5573d6000803e3d6000fd5b505050506040513d601f19601f820116820180604052508101906129e99190615a24565b155b612a2a576040517f08c379a0000000000000000000000000000000000000000000000000000000008152600401612a2190615a9d565b60405180910390fd5b612a3e675b379508c4c3d51260c01b61393d565b612a5267768e5911fa54940f60c01b61393d565b612a66670327f3ce21132ad360c01b61393d565b612a7a6795a5eeb2d7f44d4360c01b61393d565b61010460008360000151815260200190815260200160002060009054906101000a900460ff16158015612ad0575061010360008360000151815260200190815260200160002060009054906101000a900460ff16155b612b0f576040517f08c379a0000000000000000000000000000000000000000000000000000000008152600401612b06906164ab565b60405180910390fd5b612b2367bafe26991916f34660c01b61393d565b612b376723ca86b3617f156060c01b61393d565b600160fb6000828254612b4a9190615b58565b92505081905550612b6567e24bfdbfd3f752d560c01b61393d565b612b7967511cf128e73a41e360c01b61393d565b612b853360fb54613b92565b612b9967f3c19e21f90a84a460c01b61393d565b600161010282604051612bac919061598c565b908152602001604051809103902060006101000a81548160ff021916908315150217905550612be56760bd2a8f23b5486f60c01b61393d565b600161010360008460000151815260200190815260200160002060006101000a81548160ff021916908315150217905550612c2a67551f85aacadc7aa560c01b61393d565b612c3e674c39979a720999e160c01b61393d565b7fe7604a06853a01c9d3ee025c9ff0a03d831d3ef8fc8d7fe1632019b84c4f400133836000015160fb54604051612c7793929190615e6a565b60405180910390a1612c87613bb0565b5050565b612c9f6762e9fdd80d52c8e360c01b61393d565b612ca761397d565b612cbb673827179ca77474f460c01b61393d565b612ccf6775c2d74141801ed460c01b61393d565b612ce367df6dd00303bd7baa60c01b61393d565b612cf767e683eaaf5c452bca60c01b61393d565b612d0b67ac2ed282ec7747ae60c01b61393d565b612d1e82602001518360600151836139cc565b8015612d54575061010281604051612d36919061598c565b908152602001604051809103902060009054906101000a900460ff16155b8015612dfa575061010160009054906101000a900473ffffffffffffffffffffffffffffffffffffffff1673ffffffffffffffffffffffffffffffffffffffff1663c9941806826040518263ffffffff1660e01b8152600401612db791906159ed565b602060405180830381865afa158015612dd4573d6000803e3d6000fd5b505050506040513d601f19601f82011682018060405250810190612df89190615a24565b155b8015612e9f575060ff60009054906101000a900473ffffffffffffffffffffffffffffffffffffffff1673ffffffffffffffffffffffffffffffffffffffff1663c9941806826040518263ffffffff1660e01b8152600401612e5c91906159ed565b602060405180830381865afa158015612e79573d6000803e3d6000fd5b505050506040513d601f19601f82011682018060405250810190612e9d9190615a24565b155b612ede576040517f08c379a0000000000000000000000000000000000000000000000000000000008152600401612ed5906162fb565b60405180910390fd5b612ef267bfdbe2f90fd6bb8160c01b61393d565b612f0667764b625fb3aa485860c01b61393d565b612f1a67d0b1eee4808aea1060c01b61393d565b612f2e675fd8ad26e6a4b6b160c01b61393d565b34826040015114612f74576040517f08c379a0000000000000000000000000000000000000000000000000000000008152600401612f6b9061638d565b60405180910390fd5b612f886715aad79d00edafd560c01b61393d565b612f9c67ae0a28820c3b8ea460c01b61393d565b600161010282604051612faf919061598c565b908152602001604051809103902060006101000a81548160ff021916908315150217905550612fe8674f828d65d9a2d0ea60c01b61393d565b612ffc67e0b39b095461d3d360c01b61393d565b600061300734610b4f565b905061301d67ab57b606e14c76e360c01b61393d565b613031675d4ae9a3d95efb4760c01b61393d565b60fe60009054906101000a900473ffffffffffffffffffffffffffffffffffffffff1673ffffffffffffffffffffffffffffffffffffffff166108fc829081150290604051600060405180830381858888f19350505050158015613099573d6000803e3d6000fd5b506130ae67c30f552f64589fa660c01b61393d565b6130c2674a8aaadca7a08ab860c01b61393d565b826020015173ffffffffffffffffffffffffffffffffffffffff166108fc82346130ec91906163ad565b9081150290604051600060405180830381858888f19350505050158015613117573d6000803e3d6000fd5b5061312c674f3f61818bbb408c60c01b61393d565b613140672ee1815e3685368f60c01b61393d565b7f56c6df46197a10df7ec2a7edea1cf7f79fcc3c5e63714f92240b17a4a1ad4b1683602001513334866000015160405161317d94939291906163e1565b60405180910390a15061318e613bb0565b5050565b60606131a8679344570a17b7555960c01b61393d565b6131bc6765392a683eab7c6760c01b61393d565b6131d067ff039c040356fb2b60c01b61393d565b6131e4672e6f186a1a07e1cb60c01b61393d565b6131ed82613ff8565b61322c576040517f08c379a00000000000000000000000000000000000000000000000000000000081526004016132239061653d565b60405180910390fd5b613240678ed9ffe934adcdcc60c01b61393d565b613254678277f95beeb5a5aa60c01b61393d565b613268671d5e55c5863d8d0d60c01b61393d565b60fc61327383614039565b60fd6040516020016132879392919061661c565b6040516020818303038152906040529050919050565b610102818051602081018201805184825260208301602085012081835280955050505050506000915054906101000a900460ff1681565b61010160009054906101000a900473ffffffffffffffffffffffffffffffffffffffff1681565b60fb5481565b6000606a60008473ffffffffffffffffffffffffffffffffffffffff1673ffffffffffffffffffffffffffffffffffffffff16815260200190815260200160002060008373ffffffffffffffffffffffffffffffffffffffff1673ffffffffffffffffffffffffffffffffffffffff16815260200190815260200160002060009054906101000a900460ff16905092915050565b61339d613bba565b600073ffffffffffffffffffffffffffffffffffffffff168173ffffffffffffffffffffffffffffffffffffffff160361340c576040517f08c379a0000000000000000000000000000000000000000000000000000000008152600401613403906166bf565b60405180910390fd5b61341581613c38565b50565b6101036020528060005260406000206000915054906101000a900460ff1681565b60007f01ffc9a7000000000000000000000000000000000000000000000000000000007bffffffffffffffffffffffffffffffffffffffffffffffffffffffff1916827bffffffffffffffffffffffffffffffffffffffffffffffffffffffff1916149050919050565b6134ac81613ff8565b6134eb576040517f08c379a00000000000000000000000000000000000000000000000000000000081526004016134e290615925565b60405180910390fd5b50565b600033905090565b816069600083815260200190815260200160002060006101000a81548173ffffffffffffffffffffffffffffffffffffffff021916908373ffffffffffffffffffffffffffffffffffffffff160217905550808273ffffffffffffffffffffffffffffffffffffffff1661356983610c49565b73ffffffffffffffffffffffffffffffffffffffff167f8c5be1e5ebec7d5bd14f71427d1e84f3dd0314c0f7b2291e5b200ac8c7c3b92560405160405180910390a45050565b6000806135bb83610c49565b90508073ffffffffffffffffffffffffffffffffffffffff168473ffffffffffffffffffffffffffffffffffffffff1614806135fd57506135fc8185613301565b5b8061363b57508373ffffffffffffffffffffffffffffffffffffffff1661362384610971565b73ffffffffffffffffffffffffffffffffffffffff16145b91505092915050565b8273ffffffffffffffffffffffffffffffffffffffff1661366482610c49565b73ffffffffffffffffffffffffffffffffffffffff16146136ba576040517f08c379a00000000000000000000000000000000000000000000000000000000081526004016136b190616751565b60405180910390fd5b600073ffffffffffffffffffffffffffffffffffffffff168273ffffffffffffffffffffffffffffffffffffffff1603613729576040517f08c379a0000000000000000000000000000000000000000000000000000000008152600401613720906167e3565b60405180910390fd5b6137368383836001614107565b8273ffffffffffffffffffffffffffffffffffffffff1661375682610c49565b73ffffffffffffffffffffffffffffffffffffffff16146137ac576040517f08c379a00000000000000000000000000000000000000000000000000000000081526004016137a390616751565b60405180910390fd5b6069600082815260200190815260200160002060006101000a81549073ffffffffffffffffffffffffffffffffffffffff02191690556001606860008573ffffffffffffffffffffffffffffffffffffffff1673ffffffffffffffffffffffffffffffffffffffff168152602001908152602001600020600082825403925050819055506001606860008473ffffffffffffffffffffffffffffffffffffffff1673ffffffffffffffffffffffffffffffffffffffff16815260200190815260200160002060008282540192505081905550816067600083815260200190815260200160002060006101000a81548173ffffffffffffffffffffffffffffffffffffffff021916908373ffffffffffffffffffffffffffffffffffffffff160217905550808273ffffffffffffffffffffffffffffffffffffffff168473ffffffffffffffffffffffffffffffffffffffff167fddf252ad1be2c89b69c2b068fc378daa952ba7f163c4a11628f55a4df523b3ef60405160405180910390a4613938838383600161410d565b505050565b50565b60006067600083815260200190815260200160002060009054906101000a900473ffffffffffffffffffffffffffffffffffffffff169050919050565b600260c954036139c2576040517f08c379a00000000000000000000000000000000000000000000000000000000081526004016139b99061684f565b60405180910390fd5b600260c981905550565b60008060006139db8585614113565b91509150600060048111156139f3576139f261686f565b5b816004811115613a0657613a0561686f565b5b148015613a3e57508573ffffffffffffffffffffffffffffffffffffffff168273ffffffffffffffffffffffffffffffffffffffff16145b15613a4e57600192505050613b8b565b6000808773ffffffffffffffffffffffffffffffffffffffff16631626ba7e60e01b8888604051602401613a839291906168ad565b604051602081830303815290604052907bffffffffffffffffffffffffffffffffffffffffffffffffffffffff19166020820180517bffffffffffffffffffffffffffffffffffffffffffffffffffffffff8381831617835250505050604051613aed919061598c565b600060405180830381855afa9150503d8060008114613b28576040519150601f19603f3d011682016040523d82523d6000602084013e613b2d565b606091505b5091509150818015613b40575060208151145b8015613b845750631626ba7e60e01b7bffffffffffffffffffffffffffffffffffffffffffffffffffffffff191681806020019051810190613b8291906168f2565b145b9450505050505b9392505050565b613bac828260405180602001604052806000815250614164565b5050565b600160c981905550565b613bc26134ee565b73ffffffffffffffffffffffffffffffffffffffff16613be0611fee565b73ffffffffffffffffffffffffffffffffffffffff1614613c36576040517f08c379a0000000000000000000000000000000000000000000000000000000008152600401613c2d9061696b565b60405180910390fd5b565b6000609760009054906101000a900473ffffffffffffffffffffffffffffffffffffffff16905081609760006101000a81548173ffffffffffffffffffffffffffffffffffffffff021916908373ffffffffffffffffffffffffffffffffffffffff1602179055508173ffffffffffffffffffffffffffffffffffffffff168173ffffffffffffffffffffffffffffffffffffffff167f8be0079c531659141344cd1fd0a4f28419497f9722a3daafe3b4186f6b6457e060405160405180910390a35050565b6000808273ffffffffffffffffffffffffffffffffffffffff163b119050919050565b600060019054906101000a900460ff16613d70576040517f08c379a0000000000000000000000000000000000000000000000000000000008152600401613d67906169fd565b60405180910390fd5b613d7a82826141bf565b5050565b600060019054906101000a900460ff16613dcd576040517f08c379a0000000000000000000000000000000000000000000000000000000008152600401613dc4906169fd565b60405180910390fd5b613dd5614232565b565b600060019054906101000a900460ff16613e26576040517f08c379a0000000000000000000000000000000000000000000000000000000008152600401613e1d906169fd565b60405180910390fd5b613e2e614293565b565b613e3b848484613644565b613e47848484846142ec565b613e86576040517f08c379a0000000000000000000000000000000000000000000000000000000008152600401613e7d90616a8f565b60405180910390fd5b50505050565b8173ffffffffffffffffffffffffffffffffffffffff168373ffffffffffffffffffffffffffffffffffffffff1603613efa576040517f08c379a0000000000000000000000000000000000000000000000000000000008152600401613ef190616afb565b60405180910390fd5b80606a60008573ffffffffffffffffffffffffffffffffffffffff1673ffffffffffffffffffffffffffffffffffffffff16815260200190815260200160002060008473ffffffffffffffffffffffffffffffffffffffff1673ffffffffffffffffffffffffffffffffffffffff16815260200190815260200160002060006101000a81548160ff0219169083151502179055508173ffffffffffffffffffffffffffffffffffffffff168373ffffffffffffffffffffffffffffffffffffffff167f17307eab39ab6107e8899845ad3d59bd9653f200f220920489ca2b5937696c3183604051613feb91906149b7565b60405180910390a3505050565b60008073ffffffffffffffffffffffffffffffffffffffff1661401a83613940565b73ffffffffffffffffffffffffffffffffffffffff1614159050919050565b60606000600161404884614473565b01905060008167ffffffffffffffff81111561406757614066614cab565b5b6040519080825280601f01601f1916602001820160405280156140995781602001600182028036833780820191505090505b509050600082602001820190505b6001156140fc578080600190039150507f3031323334353637383961626364656600000000000000000000000000000000600a86061a8153600a85816140f0576140ef615879565b5b049450600085036140a7575b819350505050919050565b50505050565b50505050565b60008060418351036141545760008060006020860151925060408601519150606086015160001a9050614148878285856145c6565b9450945050505061415d565b60006002915091505b9250929050565b61416e83836146a8565b61417b60008484846142ec565b6141ba576040517f08c379a00000000000000000000000000000000000000000000000000000000081526004016141b190616a8f565b60405180910390fd5b505050565b600060019054906101000a900460ff1661420e576040517f08c379a0000000000000000000000000000000000000000000000000000000008152600401614205906169fd565b60405180910390fd5b816065908161421d919061617a565b50806066908161422d919061617a565b505050565b600060019054906101000a900460ff16614281576040517f08c379a0000000000000000000000000000000000000000000000000000000008152600401614278906169fd565b60405180910390fd5b61429161428c6134ee565b613c38565b565b600060019054906101000a900460ff166142e2576040517f08c379a00000000000000000000000000000000000000000000000000000000081526004016142d9906169fd565b60405180910390fd5b600160c981905550565b600061430d8473ffffffffffffffffffffffffffffffffffffffff16613cfe565b15614466578373ffffffffffffffffffffffffffffffffffffffff1663150b7a026143366134ee565b8786866040518563ffffffff1660e01b81526004016143589493929190616b1b565b6020604051808303816000875af192505050801561439457506040513d601f19601f820116820180604052508101906143919190616b7c565b60015b614416573d80600081146143c4576040519150601f19603f3d011682016040523d82523d6000602084013e6143c9565b606091505b50600081510361440e576040517f08c379a000000000000000000000000000000000000000000000000000000000815260040161440590616a8f565b60405180910390fd5b805181602001fd5b63150b7a0260e01b7bffffffffffffffffffffffffffffffffffffffffffffffffffffffff1916817bffffffffffffffffffffffffffffffffffffffffffffffffffffffff19161491505061446b565b600190505b949350505050565b600080600090507a184f03e93ff9f4daa797ed6e38ed64bf6a1f01000000000000000083106144d1577a184f03e93ff9f4daa797ed6e38ed64bf6a1f01000000000000000083816144c7576144c6615879565b5b0492506040810190505b6d04ee2d6d415b85acef8100000000831061450e576d04ee2d6d415b85acef8100000000838161450457614503615879565b5b0492506020810190505b662386f26fc10000831061453d57662386f26fc10000838161453357614532615879565b5b0492506010810190505b6305f5e1008310614566576305f5e100838161455c5761455b615879565b5b0492506008810190505b612710831061458b57612710838161458157614580615879565b5b0492506004810190505b606483106145ae57606483816145a4576145a3615879565b5b0492506002810190505b600a83106145bd576001810190505b80915050919050565b6000807f7fffffffffffffffffffffffffffffff5d576e7357a4501ddfe92f46681b20a08360001c111561460157600060039150915061469f565b6000600187878787604051600081526020016040526040516146269493929190616bb8565b6020604051602081039080840390855afa158015614648573d6000803e3d6000fd5b505050602060405103519050600073ffffffffffffffffffffffffffffffffffffffff168173ffffffffffffffffffffffffffffffffffffffff16036146965760006001925092505061469f565b80600092509250505b94509492505050565b600073ffffffffffffffffffffffffffffffffffffffff168273ffffffffffffffffffffffffffffffffffffffff1603614717576040517f08c379a000000000000000000000000000000000000000000000000000000000815260040161470e90616c49565b60405180910390fd5b61472081613ff8565b15614760576040517f08c379a000000000000000000000000000000000000000000000000000000000815260040161475790616cb5565b60405180910390fd5b61476e600083836001614107565b61477781613ff8565b156147b7576040517f08c379a00000000000000000000000000000000000000000000000000000000081526004016147ae90616cb5565b60405180910390fd5b6001606860008473ffffffffffffffffffffffffffffffffffffffff1673ffffffffffffffffffffffffffffffffffffffff16815260200190815260200160002060008282540192505081905550816067600083815260200190815260200160002060006101000a81548173ffffffffffffffffffffffffffffffffffffffff021916908373ffffffffffffffffffffffffffffffffffffffff160217905550808273ffffffffffffffffffffffffffffffffffffffff16600073ffffffffffffffffffffffffffffffffffffffff167fddf252ad1be2c89b69c2b068fc378daa952ba7f163c4a11628f55a4df523b3ef60405160405180910390a46148c160008383600161410d565b5050565b50805460008255906000526020600020908101906148e391906148e6565b50565b5b808211156148ff5760008160009055506001016148e7565b5090565b6000604051905090565b600080fd5b600080fd5b60007fffffffff0000000000000000000000000000000000000000000000000000000082169050919050565b61494c81614917565b811461495757600080fd5b50565b60008135905061496981614943565b92915050565b6000602082840312156149855761498461490d565b5b60006149938482850161495a565b91505092915050565b60008115159050919050565b6149b18161499c565b82525050565b60006020820190506149cc60008301846149a8565b92915050565b600073ffffffffffffffffffffffffffffffffffffffff82169050919050565b6000819050919050565b6000614a17614a12614a0d846149d2565b6149f2565b6149d2565b9050919050565b6000614a29826149fc565b9050919050565b6000614a3b82614a1e565b9050919050565b614a4b81614a30565b82525050565b6000602082019050614a666000830184614a42565b92915050565b600081519050919050565b600082825260208201905092915050565b60005b83811015614aa6578082015181840152602081019050614a8b565b60008484015250505050565b6000601f19601f8301169050919050565b6000614ace82614a6c565b614ad88185614a77565b9350614ae8818560208601614a88565b614af181614ab2565b840191505092915050565b60006020820190508181036000830152614b168184614ac3565b905092915050565b6000819050919050565b614b3181614b1e565b8114614b3c57600080fd5b50565b600081359050614b4e81614b28565b92915050565b600060208284031215614b6a57614b6961490d565b5b6000614b7884828501614b3f565b91505092915050565b6000614b8c826149d2565b9050919050565b614b9c81614b81565b82525050565b6000602082019050614bb76000830184614b93565b92915050565b614bc681614b81565b8114614bd157600080fd5b50565b600081359050614be381614bbd565b92915050565b60008060408385031215614c0057614bff61490d565b5b6000614c0e85828601614bd4565b9250506020614c1f85828601614b3f565b9150509250929050565b600080600060608486031215614c4257614c4161490d565b5b6000614c5086828701614bd4565b9350506020614c6186828701614bd4565b9250506040614c7286828701614b3f565b9150509250925092565b614c8581614b1e565b82525050565b6000602082019050614ca06000830184614c7c565b92915050565b600080fd5b7f4e487b7100000000000000000000000000000000000000000000000000000000600052604160045260246000fd5b614ce382614ab2565b810181811067ffffffffffffffff82111715614d0257614d01614cab565b5b80604052505050565b6000614d15614903565b9050614d218282614cda565b919050565b600080fd5b600080fd5b600067ffffffffffffffff821115614d4b57614d4a614cab565b5b602082029050602081019050919050565b600080fd5b6000614d74614d6f84614d30565b614d0b565b90508083825260208201905060208402830185811115614d9757614d96614d5c565b5b835b81811015614dc05780614dac8882614b3f565b845260208401935050602081019050614d99565b5050509392505050565b600082601f830112614ddf57614dde614d2b565b5b8135614def848260208601614d61565b91505092915050565b6000819050919050565b614e0b81614df8565b8114614e1657600080fd5b50565b600081359050614e2881614e02565b92915050565b600060608284031215614e4457614e43614ca6565b5b614e4e6060614d0b565b9050600082013567ffffffffffffffff811115614e6e57614e6d614d26565b5b614e7a84828501614dca565b600083015250602082013567ffffffffffffffff811115614e9e57614e9d614d26565b5b614eaa84828501614dca565b6020830152506040614ebe84828501614e19565b60408301525092915050565b600080fd5b600067ffffffffffffffff821115614eea57614ee9614cab565b5b614ef382614ab2565b9050602081019050919050565b82818337600083830152505050565b6000614f22614f1d84614ecf565b614d0b565b905082815260208101848484011115614f3e57614f3d614eca565b5b614f49848285614f00565b509392505050565b600082601f830112614f6657614f65614d2b565b5b8135614f76848260208601614f0f565b91505092915050565b60008060408385031215614f9657614f9561490d565b5b600083013567ffffffffffffffff811115614fb457614fb3614912565b5b614fc085828601614e2e565b925050602083013567ffffffffffffffff811115614fe157614fe0614912565b5b614fed85828601614f51565b9150509250929050565b60006060828403121561500d5761500c614ca6565b5b6150176060614d0b565b9050600061502784828501614b3f565b600083015250602061503b84828501614b3f565b602083015250604061504f84828501614e19565b60408301525092915050565b600080608083850312156150725761507161490d565b5b600061508085828601614ff7565b925050606083013567ffffffffffffffff8111156150a1576150a0614912565b5b6150ad85828601614f51565b9150509250929050565b6000602082840312156150cd576150cc61490d565b5b60006150db84828501614bd4565b91505092915050565b600080600080608085870312156150fe576150fd61490d565b5b600061510c87828801614bd4565b945050602061511d87828801614bd4565b935050604061512e87828801614bd4565b925050606061513f87828801614bd4565b91505092959194509250565b600067ffffffffffffffff82111561516657615165614cab565b5b61516f82614ab2565b9050602081019050919050565b600061518f61518a8461514b565b614d0b565b9050828152602081018484840111156151ab576151aa614eca565b5b6151b6848285614f00565b509392505050565b600082601f8301126151d3576151d2614d2b565b5b81356151e384826020860161517c565b91505092915050565b600080604083850312156152035761520261490d565b5b600083013567ffffffffffffffff81111561522157615220614912565b5b61522d858286016151be565b925050602083013567ffffffffffffffff81111561524e5761524d614912565b5b61525a858286016151be565b9150509250929050565b61526d8161499c565b811461527857600080fd5b50565b60008135905061528a81615264565b92915050565b600080604083850312156152a7576152a661490d565b5b60006152b585828601614bd4565b92505060206152c68582860161527b565b9150509250929050565b600080600080608085870312156152ea576152e961490d565b5b60006152f887828801614bd4565b945050602061530987828801614bd4565b935050604061531a87828801614b3f565b925050606085013567ffffffffffffffff81111561533b5761533a614912565b5b61534787828801614f51565b91505092959194509250565b60006040828403121561536957615368614ca6565b5b6153736040614d0b565b9050600061538384828501614b3f565b600083015250602061539784828501614e19565b60208301525092915050565b600080606083850312156153ba576153b961490d565b5b60006153c885828601615353565b925050604083013567ffffffffffffffff8111156153e9576153e8614912565b5b6153f585828601614f51565b9150509250929050565b60006080828403121561541557615414614ca6565b5b61541f6080614d0b565b9050600061542f84828501614b3f565b600083015250602061544384828501614bd4565b602083015250604061545784828501614b3f565b604083015250606061546b84828501614e19565b60608301525092915050565b60008060a0838503121561548e5761548d61490d565b5b600061549c858286016153ff565b925050608083013567ffffffffffffffff8111156154bd576154bc614912565b5b6154c985828601614f51565b9150509250929050565b6000602082840312156154e9576154e861490d565b5b600082013567ffffffffffffffff81111561550757615506614912565b5b61551384828501614f51565b91505092915050565b600061552782614a1e565b9050919050565b6155378161551c565b82525050565b6000602082019050615552600083018461552e565b92915050565b6000806040838503121561556f5761556e61490d565b5b600061557d85828601614bd4565b925050602061558e85828601614bd4565b9150509250929050565b7f4e487b7100000000000000000000000000000000000000000000000000000000600052602260045260246000fd5b600060028204905060018216806155df57607f821691505b6020821081036155f2576155f1615598565b5b50919050565b7f4552433732313a20617070726f76616c20746f2063757272656e74206f776e6560008201527f7200000000000000000000000000000000000000000000000000000000000000602082015250565b6000615654602183614a77565b915061565f826155f8565b604082019050919050565b6000602082019050818103600083015261568381615647565b9050919050565b7f4552433732313a20617070726f76652063616c6c6572206973206e6f7420746f60008201527f6b656e206f776e6572206f7220617070726f76656420666f7220616c6c000000602082015250565b60006156e6603d83614a77565b91506156f18261568a565b604082019050919050565b60006020820190508181036000830152615715816156d9565b9050919050565b7f4552433732313a2063616c6c6572206973206e6f7420746f6b656e206f776e6560008201527f72206f7220617070726f76656400000000000000000000000000000000000000602082015250565b6000615778602d83614a77565b91506157838261571c565b604082019050919050565b600060208201905081810360008301526157a78161576b565b9050919050565b6000815190506157bd81614b28565b92915050565b6000602082840312156157d9576157d861490d565b5b60006157e7848285016157ae565b91505092915050565b7f4e487b7100000000000000000000000000000000000000000000000000000000600052601160045260246000fd5b600061582a82614b1e565b915061583583614b1e565b9250817fffffffffffffffffffffffffffffffffffffffffffffffffffffffffffffffff048311821515161561586e5761586d6157f0565b5b828202905092915050565b7f4e487b7100000000000000000000000000000000000000000000000000000000600052601260045260246000fd5b60006158b382614b1e565b91506158be83614b1e565b9250826158ce576158cd615879565b5b828204905092915050565b7f4552433732313a20696e76616c696420746f6b656e2049440000000000000000600082015250565b600061590f601883614a77565b915061591a826158d9565b602082019050919050565b6000602082019050818103600083015261593e81615902565b9050919050565b600081519050919050565b600081905092915050565b600061596682615945565b6159708185615950565b9350615980818560208601614a88565b80840191505092915050565b6000615998828461595b565b915081905092915050565b600082825260208201905092915050565b60006159bf82615945565b6159c981856159a3565b93506159d9818560208601614a88565b6159e281614ab2565b840191505092915050565b60006020820190508181036000830152615a0781846159b4565b905092915050565b600081519050615a1e81615264565b92915050565b600060208284031215615a3a57615a3961490d565b5b6000615a4884828501615a0f565b91505092915050565b7f436f6e7374727563744552433732313a204e6f7420616c6c6f77656400000000600082015250565b6000615a87601c83614a77565b9150615a9282615a51565b602082019050919050565b60006020820190508181036000830152615ab681615a7a565b9050919050565b7f4e487b7100000000000000000000000000000000000000000000000000000000600052603260045260246000fd5b7f436f6e7374727563744552433732313a20416c726561647920736f6c64000000600082015250565b6000615b22601d83614a77565b9150615b2d82615aec565b602082019050919050565b60006020820190508181036000830152615b5181615b15565b9050919050565b6000615b6382614b1e565b9150615b6e83614b1e565b9250828201905080821115615b8657615b856157f0565b5b92915050565b6000615b9782614b1e565b91507fffffffffffffffffffffffffffffffffffffffffffffffffffffffffffffffff8203615bc957615bc86157f0565b5b600182019050919050565b600081519050919050565b600082825260208201905092915050565b6000819050602082019050919050565b615c0981614b1e565b82525050565b6000615c1b8383615c00565b60208301905092915050565b6000602082019050919050565b6000615c3f82615bd4565b615c498185615bdf565b9350615c5483615bf0565b8060005b83811015615c85578151615c6c8882615c0f565b9750615c7783615c27565b925050600181019050615c58565b5085935050505092915050565b7f434f4e5354525543540000000000000000000000000000000000000000000000600082015250565b6000615cc8600983614a77565b9150615cd382615c92565b602082019050919050565b60006040820190508181036000830152615cf88184615c34565b90508181036020830152615d0b81615cbb565b905092915050565b600081549050919050565b60008190508160005260206000209050919050565b60008160001c9050919050565b6000819050919050565b6000615d5d615d5883615d33565b615d40565b9050919050565b6000615d708254615d4a565b9050919050565b6000600182019050919050565b6000615d8f82615d13565b615d998185615bdf565b9350615da483615d1e565b8060005b83811015615ddc57615db982615d64565b615dc38882615c0f565b9750615dce83615d77565b925050600181019050615da8565b5085935050505092915050565b6000608082019050615dfe6000830186614b93565b8181036020830152615e108185615c34565b90508181036040830152615e248184615d84565b90508181036060830152615e3781615cbb565b9050949350505050565b6000604082019050615e566000830185614b93565b615e636020830184614c7c565b9392505050565b6000608082019050615e7f6000830186614b93565b615e8c6020830185614c7c565b615e996040830184614c7c565b8181036060830152615eaa81615cbb565b9050949350505050565b7f4552433732313a2061646472657373207a65726f206973206e6f74206120766160008201527f6c6964206f776e65720000000000000000000000000000000000000000000000602082015250565b6000615f10602983614a77565b9150615f1b82615eb4565b604082019050919050565b60006020820190508181036000830152615f3f81615f03565b9050919050565b7f496e697469616c697a61626c653a20636f6e747261637420697320616c72656160008201527f647920696e697469616c697a6564000000000000000000000000000000000000602082015250565b6000615fa2602e83614a77565b9150615fad82615f46565b604082019050919050565b60006020820190508181036000830152615fd181615f95565b9050919050565b60008190508160005260206000209050919050565b60006020601f8301049050919050565b600082821b905092915050565b60006008830261603a7fffffffffffffffffffffffffffffffffffffffffffffffffffffffffffffffff82615ffd565b6160448683615ffd565b95508019841693508086168417925050509392505050565b600061607761607261606d84614b1e565b6149f2565b614b1e565b9050919050565b6000819050919050565b6160918361605c565b6160a561609d8261607e565b84845461600a565b825550505050565b600090565b6160ba6160ad565b6160c5818484616088565b505050565b5b818110156160e9576160de6000826160b2565b6001810190506160cb565b5050565b601f82111561612e576160ff81615fd8565b61610884615fed565b81016020851015616117578190505b61612b61612385615fed565b8301826160ca565b50505b505050565b600082821c905092915050565b600061615160001984600802616133565b1980831691505092915050565b600061616a8383616140565b9150826002028217905092915050565b61618382614a6c565b67ffffffffffffffff81111561619c5761619b614cab565b5b6161a682546155c7565b6161b18282856160ed565b600060209050601f8311600181146161e457600084156161d2578287015190505b6161dc858261615e565b865550616244565b601f1984166161f286615fd8565b60005b8281101561621a578489015182556001820191506020850194506020810190506161f5565b868310156162375784890151616233601f891682616140565b8355505b6001600288020188555050505b505050505050565b6000819050919050565b600060ff82169050919050565b600061627e6162796162748461624c565b6149f2565b616256565b9050919050565b61628e81616263565b82525050565b60006020820190506162a96000830184616285565b92915050565b7f436f6e7374727563744552433732313a204e6f74206c69737465640000000000600082015250565b60006162e5601b83614a77565b91506162f0826162af565b602082019050919050565b60006020820190508181036000830152616314816162d8565b9050919050565b7f436f6e7374727563744552433732313a205072697a6520697320696e636f727260008201527f656374206f7220696e76616c6964000000000000000000000000000000000000602082015250565b6000616377602e83614a77565b91506163828261631b565b604082019050919050565b600060208201905081810360008301526163a68161636a565b9050919050565b60006163b882614b1e565b91506163c383614b1e565b92508282039050818111156163db576163da6157f0565b5b92915050565b600060a0820190506163f66000830187614b93565b6164036020830186614b93565b6164106040830185614c7c565b61641d6060830184614c7c565b818103608083015261642e81615cbb565b905095945050505050565b7f436f6e7374727563744552433732313a20416c726561647920736f6c64206f7260008201527f206d696e746564206f72204f4646000000000000000000000000000000000000602082015250565b6000616495602e83614a77565b91506164a082616439565b604082019050919050565b600060208201905081810360008301526164c481616488565b9050919050565b7f436f6e7374727563744552433732313a2055524920717565727920666f72206e60008201527f6f6e6578697374656e7420746f6b656e00000000000000000000000000000000602082015250565b6000616527603083614a77565b9150616532826164cb565b604082019050919050565b600060208201905081810360008301526165568161651a565b9050919050565b600081905092915050565b60008154616575816155c7565b61657f818661655d565b9450600182166000811461659a57600181146165af576165e2565b60ff19831686528115158202860193506165e2565b6165b885615fd8565b60005b838110156165da578154818901526001820191506020810190506165bb565b838801955050505b50505092915050565b60006165f682614a6c565b616600818561655d565b9350616610818560208601614a88565b80840191505092915050565b60006166288286616568565b915061663482856165eb565b91506166408284616568565b9150819050949350505050565b7f4f776e61626c653a206e6577206f776e657220697320746865207a65726f206160008201527f6464726573730000000000000000000000000000000000000000000000000000602082015250565b60006166a9602683614a77565b91506166b48261664d565b604082019050919050565b600060208201905081810360008301526166d88161669c565b9050919050565b7f4552433732313a207472616e736665722066726f6d20696e636f72726563742060008201527f6f776e6572000000000000000000000000000000000000000000000000000000602082015250565b600061673b602583614a77565b9150616746826166df565b604082019050919050565b6000602082019050818103600083015261676a8161672e565b9050919050565b7f4552433732313a207472616e7366657220746f20746865207a65726f2061646460008201527f7265737300000000000000000000000000000000000000000000000000000000602082015250565b60006167cd602483614a77565b91506167d882616771565b604082019050919050565b600060208201905081810360008301526167fc816167c0565b9050919050565b7f5265656e7472616e637947756172643a207265656e7472616e742063616c6c00600082015250565b6000616839601f83614a77565b915061684482616803565b602082019050919050565b600060208201905081810360008301526168688161682c565b9050919050565b7f4e487b7100000000000000000000000000000000000000000000000000000000600052602160045260246000fd5b6168a781614df8565b82525050565b60006040820190506168c2600083018561689e565b81810360208301526168d481846159b4565b90509392505050565b6000815190506168ec81614e02565b92915050565b6000602082840312156169085761690761490d565b5b6000616916848285016168dd565b91505092915050565b7f4f776e61626c653a2063616c6c6572206973206e6f7420746865206f776e6572600082015250565b6000616955602083614a77565b91506169608261691f565b602082019050919050565b6000602082019050818103600083015261698481616948565b9050919050565b7f496e697469616c697a61626c653a20636f6e7472616374206973206e6f74206960008201527f6e697469616c697a696e67000000000000000000000000000000000000000000602082015250565b60006169e7602b83614a77565b91506169f28261698b565b604082019050919050565b60006020820190508181036000830152616a16816169da565b9050919050565b7f4552433732313a207472616e7366657220746f206e6f6e20455243373231526560008201527f63656976657220696d706c656d656e7465720000000000000000000000000000602082015250565b6000616a79603283614a77565b9150616a8482616a1d565b604082019050919050565b60006020820190508181036000830152616aa881616a6c565b9050919050565b7f4552433732313a20617070726f766520746f2063616c6c657200000000000000600082015250565b6000616ae5601983614a77565b9150616af082616aaf565b602082019050919050565b60006020820190508181036000830152616b1481616ad8565b9050919050565b6000608082019050616b306000830187614b93565b616b3d6020830186614b93565b616b4a6040830185614c7c565b8181036060830152616b5c81846159b4565b905095945050505050565b600081519050616b7681614943565b92915050565b600060208284031215616b9257616b9161490d565b5b6000616ba084828501616b67565b91505092915050565b616bb281616256565b82525050565b6000608082019050616bcd600083018761689e565b616bda6020830186616ba9565b616be7604083018561689e565b616bf4606083018461689e565b95945050505050565b7f4552433732313a206d696e7420746f20746865207a65726f2061646472657373600082015250565b6000616c33602083614a77565b9150616c3e82616bfd565b602082019050919050565b60006020820190508181036000830152616c6281616c26565b9050919050565b7f4552433732313a20746f6b656e20616c7265616479206d696e74656400000000600082015250565b6000616c9f601c83614a77565b9150616caa82616c69565b602082019050919050565b60006020820190508181036000830152616cce81616c92565b905091905056fe68747470733a2f2f6173736574732e616c6c6f792e73706163652f746f6b656e2d7572692d73322fa2646970667358221220a2c1bff3145815a03142970dc96069c4cdff9c5ad8288371a26a6047b75a5d1364736f6c63430008100033","opcodes":"PUSH1 0x80 PUSH1 0x40 MSTORE CALLVALUE DUP1 ISZERO PUSH2 0x10 JUMPI PUSH1 0x0 DUP1 REVERT JUMPDEST POP PUSH2 0x6D33 DUP1 PUSH3 0x21 PUSH1 0x0 CODECOPY PUSH1 0x0 RETURN INVALID PUSH1 0x80 PUSH1 0x40 MSTORE PUSH1 0x4 CALLDATASIZE LT PUSH2 0x1EE JUMPI PUSH1 0x0 CALLDATALOAD PUSH1 0xE0 SHR DUP1 PUSH4 0x7DD12D15 GT PUSH2 0x10D JUMPI DUP1 PUSH4 0xBA66B54C GT PUSH2 0xA0 JUMPI DUP1 PUSH4 0xCB73BFF1 GT PUSH2 0x6F JUMPI DUP1 PUSH4 0xCB73BFF1 EQ PUSH2 0x6DD JUMPI DUP1 PUSH4 0xD082E381 EQ PUSH2 0x708 JUMPI DUP1 PUSH4 0xE985E9C5 EQ PUSH2 0x733 JUMPI DUP1 PUSH4 0xF2FDE38B EQ PUSH2 0x770 JUMPI DUP1 PUSH4 0xFCCA9F38 EQ PUSH2 0x799 JUMPI PUSH2 0x1EE JUMP JUMPDEST DUP1 PUSH4 0xBA66B54C EQ PUSH2 0x61E JUMPI DUP1 PUSH4 0xBE6D6A6F EQ PUSH2 0x647 JUMPI DUP1 PUSH4 0xC87B56DD EQ PUSH2 0x663 JUMPI DUP1 PUSH4 0xC9941806 EQ PUSH2 0x6A0 JUMPI PUSH2 0x1EE JUMP JUMPDEST DUP1 PUSH4 0x95D89B41 GT PUSH2 0xDC JUMPI DUP1 PUSH4 0x95D89B41 EQ PUSH2 0x578 JUMPI DUP1 PUSH4 0x97C04EDB EQ PUSH2 0x5A3 JUMPI DUP1 PUSH4 0xA22CB465 EQ PUSH2 0x5CC JUMPI DUP1 PUSH4 0xB88D4FDE EQ PUSH2 0x5F5 JUMPI PUSH2 0x1EE JUMP JUMPDEST DUP1 PUSH4 0x7DD12D15 EQ PUSH2 0x4EF JUMPI DUP1 PUSH4 0x8129FC1C EQ PUSH2 0x51A JUMPI DUP1 PUSH4 0x8DA5CB5B EQ PUSH2 0x531 JUMPI DUP1 PUSH4 0x9401C1E4 EQ PUSH2 0x55C JUMPI PUSH2 0x1EE JUMP JUMPDEST DUP1 PUSH4 0x42842E0E GT PUSH2 0x185 JUMPI DUP1 PUSH4 0x6FC04381 GT PUSH2 0x154 JUMPI DUP1 PUSH4 0x6FC04381 EQ PUSH2 0x449 JUMPI DUP1 PUSH4 0x70A08231 EQ PUSH2 0x472 JUMPI DUP1 PUSH4 0x715018A6 EQ PUSH2 0x4AF JUMPI DUP1 PUSH4 0x743E540D EQ PUSH2 0x4C6 JUMPI PUSH2 0x1EE JUMP JUMPDEST DUP1 PUSH4 0x42842E0E EQ PUSH2 0x38F JUMPI DUP1 PUSH4 0x6352211E EQ PUSH2 0x3B8 JUMPI DUP1 PUSH4 0x6943F71E EQ PUSH2 0x3F5 JUMPI DUP1 PUSH4 0x6EF1EEE4 EQ PUSH2 0x41E JUMPI PUSH2 0x1EE JUMP JUMPDEST DUP1 PUSH4 0x95EA7B3 GT PUSH2 0x1C1 JUMPI DUP1 PUSH4 0x95EA7B3 EQ PUSH2 0x2C3 JUMPI DUP1 PUSH4 0x1CFB7A0B EQ PUSH2 0x2EC JUMPI DUP1 PUSH4 0x23B872DD EQ PUSH2 0x329 JUMPI DUP1 PUSH4 0x2C7D077E EQ PUSH2 0x352 JUMPI PUSH2 0x1EE JUMP JUMPDEST DUP1 PUSH4 0x1FFC9A7 EQ PUSH2 0x1F3 JUMPI DUP1 PUSH4 0x4A4362E EQ PUSH2 0x230 JUMPI DUP1 PUSH4 0x6FDDE03 EQ PUSH2 0x25B JUMPI DUP1 PUSH4 0x81812FC EQ PUSH2 0x286 JUMPI JUMPDEST PUSH1 0x0 DUP1 REVERT JUMPDEST CALLVALUE DUP1 ISZERO PUSH2 0x1FF JUMPI PUSH1 0x0 DUP1 REVERT JUMPDEST POP PUSH2 0x21A PUSH1 0x4 DUP1 CALLDATASIZE SUB DUP2 ADD SWAP1 PUSH2 0x215 SWAP2 SWAP1 PUSH2 0x496F JUMP JUMPDEST PUSH2 0x7D6 JUMP JUMPDEST PUSH1 0x40 MLOAD PUSH2 0x227 SWAP2 SWAP1 PUSH2 0x49B7 JUMP JUMPDEST PUSH1 0x40 MLOAD DUP1 SWAP2 SUB SWAP1 RETURN JUMPDEST CALLVALUE DUP1 ISZERO PUSH2 0x23C JUMPI PUSH1 0x0 DUP1 REVERT JUMPDEST POP PUSH2 0x245 PUSH2 0x8B8 JUMP JUMPDEST PUSH1 0x40 MLOAD PUSH2 0x252 SWAP2 SWAP1 PUSH2 0x4A51 JUMP JUMPDEST PUSH1 0x40 MLOAD DUP1 SWAP2 SUB SWAP1 RETURN JUMPDEST CALLVALUE DUP1 ISZERO PUSH2 0x267 JUMPI PUSH1 0x0 DUP1 REVERT JUMPDEST POP PUSH2 0x270 PUSH2 0x8DF JUMP JUMPDEST PUSH1 0x40 MLOAD PUSH2 0x27D SWAP2 SWAP1 PUSH2 0x4AFC JUMP JUMPDEST PUSH1 0x40 MLOAD DUP1 SWAP2 SUB SWAP1 RETURN JUMPDEST CALLVALUE DUP1 ISZERO PUSH2 0x292 JUMPI PUSH1 0x0 DUP1 REVERT JUMPDEST POP PUSH2 0x2AD PUSH1 0x4 DUP1 CALLDATASIZE SUB DUP2 ADD SWAP1 PUSH2 0x2A8 SWAP2 SWAP1 PUSH2 0x4B54 JUMP JUMPDEST PUSH2 0x971 JUMP JUMPDEST PUSH1 0x40 MLOAD PUSH2 0x2BA SWAP2 SWAP1 PUSH2 0x4BA2 JUMP JUMPDEST PUSH1 0x40 MLOAD DUP1 SWAP2 SUB SWAP1 RETURN JUMPDEST CALLVALUE DUP1 ISZERO PUSH2 0x2CF JUMPI PUSH1 0x0 DUP1 REVERT JUMPDEST POP PUSH2 0x2EA PUSH1 0x4 DUP1 CALLDATASIZE SUB DUP2 ADD SWAP1 PUSH2 0x2E5 SWAP2 SWAP1 PUSH2 0x4BE9 JUMP JUMPDEST PUSH2 0x9B7 JUMP JUMPDEST STOP JUMPDEST CALLVALUE DUP1 ISZERO PUSH2 0x2F8 JUMPI PUSH1 0x0 DUP1 REVERT JUMPDEST POP PUSH2 0x313 PUSH1 0x4 DUP1 CALLDATASIZE SUB DUP2 ADD SWAP1 PUSH2 0x30E SWAP2 SWAP1 PUSH2 0x4B54 JUMP JUMPDEST PUSH2 0xACE JUMP JUMPDEST PUSH1 0x40 MLOAD PUSH2 0x320 SWAP2 SWAP1 PUSH2 0x49B7 JUMP JUMPDEST PUSH1 0x40 MLOAD DUP1 SWAP2 SUB SWAP1 RETURN JUMPDEST CALLVALUE DUP1 ISZERO PUSH2 0x335 JUMPI PUSH1 0x0 DUP1 REVERT JUMPDEST POP PUSH2 0x350 PUSH1 0x4 DUP1 CALLDATASIZE SUB DUP2 ADD SWAP1 PUSH2 0x34B SWAP2 SWAP1 PUSH2 0x4C29 JUMP JUMPDEST PUSH2 0xAEF JUMP JUMPDEST STOP JUMPDEST CALLVALUE DUP1 ISZERO PUSH2 0x35E JUMPI PUSH1 0x0 DUP1 REVERT JUMPDEST POP PUSH2 0x379 PUSH1 0x4 DUP1 CALLDATASIZE SUB DUP2 ADD SWAP1 PUSH2 0x374 SWAP2 SWAP1 PUSH2 0x4B54 JUMP JUMPDEST PUSH2 0xB4F JUMP JUMPDEST PUSH1 0x40 MLOAD PUSH2 0x386 SWAP2 SWAP1 PUSH2 0x4C8B JUMP JUMPDEST PUSH1 0x40 MLOAD DUP1 SWAP2 SUB SWAP1 RETURN JUMPDEST CALLVALUE DUP1 ISZERO PUSH2 0x39B JUMPI PUSH1 0x0 DUP1 REVERT JUMPDEST POP PUSH2 0x3B6 PUSH1 0x4 DUP1 CALLDATASIZE SUB DUP2 ADD SWAP1 PUSH2 0x3B1 SWAP2 SWAP1 PUSH2 0x4C29 JUMP JUMPDEST PUSH2 0xC29 JUMP JUMPDEST STOP JUMPDEST CALLVALUE DUP1 ISZERO PUSH2 0x3C4 JUMPI PUSH1 0x0 DUP1 REVERT JUMPDEST POP PUSH2 0x3DF PUSH1 0x4 DUP1 CALLDATASIZE SUB DUP2 ADD SWAP1 PUSH2 0x3DA SWAP2 SWAP1 PUSH2 0x4B54 JUMP JUMPDEST PUSH2 0xC49 JUMP JUMPDEST PUSH1 0x40 MLOAD PUSH2 0x3EC SWAP2 SWAP1 PUSH2 0x4BA2 JUMP JUMPDEST PUSH1 0x40 MLOAD DUP1 SWAP2 SUB SWAP1 RETURN JUMPDEST CALLVALUE DUP1 ISZERO PUSH2 0x401 JUMPI PUSH1 0x0 DUP1 REVERT JUMPDEST POP PUSH2 0x41C PUSH1 0x4 DUP1 CALLDATASIZE SUB DUP2 ADD SWAP1 PUSH2 0x417 SWAP2 SWAP1 PUSH2 0x4F7F JUMP JUMPDEST PUSH2 0xCCF JUMP JUMPDEST STOP JUMPDEST CALLVALUE DUP1 ISZERO PUSH2 0x42A JUMPI PUSH1 0x0 DUP1 REVERT JUMPDEST POP PUSH2 0x433 PUSH2 0x13F6 JUMP JUMPDEST PUSH1 0x40 MLOAD PUSH2 0x440 SWAP2 SWAP1 PUSH2 0x4A51 JUMP JUMPDEST PUSH1 0x40 MLOAD DUP1 SWAP2 SUB SWAP1 RETURN JUMPDEST CALLVALUE DUP1 ISZERO PUSH2 0x455 JUMPI PUSH1 0x0 DUP1 REVERT JUMPDEST POP PUSH2 0x470 PUSH1 0x4 DUP1 CALLDATASIZE SUB DUP2 ADD SWAP1 PUSH2 0x46B SWAP2 SWAP1 PUSH2 0x505B JUMP JUMPDEST PUSH2 0x141C JUMP JUMPDEST STOP JUMPDEST CALLVALUE DUP1 ISZERO PUSH2 0x47E JUMPI PUSH1 0x0 DUP1 REVERT JUMPDEST POP PUSH2 0x499 PUSH1 0x4 DUP1 CALLDATASIZE SUB DUP2 ADD SWAP1 PUSH2 0x494 SWAP2 SWAP1 PUSH2 0x50B7 JUMP JUMPDEST PUSH2 0x19D5 JUMP JUMPDEST PUSH1 0x40 MLOAD PUSH2 0x4A6 SWAP2 SWAP1 PUSH2 0x4C8B JUMP JUMPDEST PUSH1 0x40 MLOAD DUP1 SWAP2 SUB SWAP1 RETURN JUMPDEST CALLVALUE DUP1 ISZERO PUSH2 0x4BB JUMPI PUSH1 0x0 DUP1 REVERT JUMPDEST POP PUSH2 0x4C4 PUSH2 0x1A8C JUMP JUMPDEST STOP JUMPDEST CALLVALUE DUP1 ISZERO PUSH2 0x4D2 JUMPI PUSH1 0x0 DUP1 REVERT JUMPDEST POP PUSH2 0x4ED PUSH1 0x4 DUP1 CALLDATASIZE SUB DUP2 ADD SWAP1 PUSH2 0x4E8 SWAP2 SWAP1 PUSH2 0x50E4 JUMP JUMPDEST PUSH2 0x1AA0 JUMP JUMPDEST STOP JUMPDEST CALLVALUE DUP1 ISZERO PUSH2 0x4FB JUMPI PUSH1 0x0 DUP1 REVERT JUMPDEST POP PUSH2 0x504 PUSH2 0x1C40 JUMP JUMPDEST PUSH1 0x40 MLOAD PUSH2 0x511 SWAP2 SWAP1 PUSH2 0x4BA2 JUMP JUMPDEST PUSH1 0x40 MLOAD DUP1 SWAP2 SUB SWAP1 RETURN JUMPDEST CALLVALUE DUP1 ISZERO PUSH2 0x526 JUMPI PUSH1 0x0 DUP1 REVERT JUMPDEST POP PUSH2 0x52F PUSH2 0x1C66 JUMP JUMPDEST STOP JUMPDEST CALLVALUE DUP1 ISZERO PUSH2 0x53D JUMPI PUSH1 0x0 DUP1 REVERT JUMPDEST POP PUSH2 0x546 PUSH2 0x1FEE JUMP JUMPDEST PUSH1 0x40 MLOAD PUSH2 0x553 SWAP2 SWAP1 PUSH2 0x4BA2 JUMP JUMPDEST PUSH1 0x40 MLOAD DUP1 SWAP2 SUB SWAP1 RETURN JUMPDEST PUSH2 0x576 PUSH1 0x4 DUP1 CALLDATASIZE SUB DUP2 ADD SWAP1 PUSH2 0x571 SWAP2 SWAP1 PUSH2 0x505B JUMP JUMPDEST PUSH2 0x2018 JUMP JUMPDEST STOP JUMPDEST CALLVALUE DUP1 ISZERO PUSH2 0x584 JUMPI PUSH1 0x0 DUP1 REVERT JUMPDEST POP PUSH2 0x58D PUSH2 0x2594 JUMP JUMPDEST PUSH1 0x40 MLOAD PUSH2 0x59A SWAP2 SWAP1 PUSH2 0x4AFC JUMP JUMPDEST PUSH1 0x40 MLOAD DUP1 SWAP2 SUB SWAP1 RETURN JUMPDEST CALLVALUE DUP1 ISZERO PUSH2 0x5AF JUMPI PUSH1 0x0 DUP1 REVERT JUMPDEST POP PUSH2 0x5CA PUSH1 0x4 DUP1 CALLDATASIZE SUB DUP2 ADD SWAP1 PUSH2 0x5C5 SWAP2 SWAP1 PUSH2 0x51EC JUMP JUMPDEST PUSH2 0x2626 JUMP JUMPDEST STOP JUMPDEST CALLVALUE DUP1 ISZERO PUSH2 0x5D8 JUMPI PUSH1 0x0 DUP1 REVERT JUMPDEST POP PUSH2 0x5F3 PUSH1 0x4 DUP1 CALLDATASIZE SUB DUP2 ADD SWAP1 PUSH2 0x5EE SWAP2 SWAP1 PUSH2 0x5290 JUMP JUMPDEST PUSH2 0x26B6 JUMP JUMPDEST STOP JUMPDEST CALLVALUE DUP1 ISZERO PUSH2 0x601 JUMPI PUSH1 0x0 DUP1 REVERT JUMPDEST POP PUSH2 0x61C PUSH1 0x4 DUP1 CALLDATASIZE SUB DUP2 ADD SWAP1 PUSH2 0x617 SWAP2 SWAP1 PUSH2 0x52D0 JUMP JUMPDEST PUSH2 0x26CC JUMP JUMPDEST STOP JUMPDEST CALLVALUE DUP1 ISZERO PUSH2 0x62A JUMPI PUSH1 0x0 DUP1 REVERT JUMPDEST POP PUSH2 0x645 PUSH1 0x4 DUP1 CALLDATASIZE SUB DUP2 ADD SWAP1 PUSH2 0x640 SWAP2 SWAP1 PUSH2 0x53A3 JUMP JUMPDEST PUSH2 0x272E JUMP JUMPDEST STOP JUMPDEST PUSH2 0x661 PUSH1 0x4 DUP1 CALLDATASIZE SUB DUP2 ADD SWAP1 PUSH2 0x65C SWAP2 SWAP1 PUSH2 0x5477 JUMP JUMPDEST PUSH2 0x2C8B JUMP JUMPDEST STOP JUMPDEST CALLVALUE DUP1 ISZERO PUSH2 0x66F JUMPI PUSH1 0x0 DUP1 REVERT JUMPDEST POP PUSH2 0x68A PUSH1 0x4 DUP1 CALLDATASIZE SUB DUP2 ADD SWAP1 PUSH2 0x685 SWAP2 SWAP1 PUSH2 0x4B54 JUMP JUMPDEST PUSH2 0x3192 JUMP JUMPDEST PUSH1 0x40 MLOAD PUSH2 0x697 SWAP2 SWAP1 PUSH2 0x4AFC JUMP JUMPDEST PUSH1 0x40 MLOAD DUP1 SWAP2 SUB SWAP1 RETURN JUMPDEST CALLVALUE DUP1 ISZERO PUSH2 0x6AC JUMPI PUSH1 0x0 DUP1 REVERT JUMPDEST POP PUSH2 0x6C7 PUSH1 0x4 DUP1 CALLDATASIZE SUB DUP2 ADD SWAP1 PUSH2 0x6C2 SWAP2 SWAP1 PUSH2 0x54D3 JUMP JUMPDEST PUSH2 0x329D JUMP JUMPDEST PUSH1 0x40 MLOAD PUSH2 0x6D4 SWAP2 SWAP1 PUSH2 0x49B7 JUMP JUMPDEST PUSH1 0x40 MLOAD DUP1 SWAP2 SUB SWAP1 RETURN JUMPDEST CALLVALUE DUP1 ISZERO PUSH2 0x6E9 JUMPI PUSH1 0x0 DUP1 REVERT JUMPDEST POP PUSH2 0x6F2 PUSH2 0x32D4 JUMP JUMPDEST PUSH1 0x40 MLOAD PUSH2 0x6FF SWAP2 SWAP1 PUSH2 0x553D JUMP JUMPDEST PUSH1 0x40 MLOAD DUP1 SWAP2 SUB SWAP1 RETURN JUMPDEST CALLVALUE DUP1 ISZERO PUSH2 0x714 JUMPI PUSH1 0x0 DUP1 REVERT JUMPDEST POP PUSH2 0x71D PUSH2 0x32FB JUMP JUMPDEST PUSH1 0x40 MLOAD PUSH2 0x72A SWAP2 SWAP1 PUSH2 0x4C8B JUMP JUMPDEST PUSH1 0x40 MLOAD DUP1 SWAP2 SUB SWAP1 RETURN JUMPDEST CALLVALUE DUP1 ISZERO PUSH2 0x73F JUMPI PUSH1 0x0 DUP1 REVERT JUMPDEST POP PUSH2 0x75A PUSH1 0x4 DUP1 CALLDATASIZE SUB DUP2 ADD SWAP1 PUSH2 0x755 SWAP2 SWAP1 PUSH2 0x5558 JUMP JUMPDEST PUSH2 0x3301 JUMP JUMPDEST PUSH1 0x40 MLOAD PUSH2 0x767 SWAP2 SWAP1 PUSH2 0x49B7 JUMP JUMPDEST PUSH1 0x40 MLOAD DUP1 SWAP2 SUB SWAP1 RETURN JUMPDEST CALLVALUE DUP1 ISZERO PUSH2 0x77C JUMPI PUSH1 0x0 DUP1 REVERT JUMPDEST POP PUSH2 0x797 PUSH1 0x4 DUP1 CALLDATASIZE SUB DUP2 ADD SWAP1 PUSH2 0x792 SWAP2 SWAP1 PUSH2 0x50B7 JUMP JUMPDEST PUSH2 0x3395 JUMP JUMPDEST STOP JUMPDEST CALLVALUE DUP1 ISZERO PUSH2 0x7A5 JUMPI PUSH1 0x0 DUP1 REVERT JUMPDEST POP PUSH2 0x7C0 PUSH1 0x4 DUP1 CALLDATASIZE SUB DUP2 ADD SWAP1 PUSH2 0x7BB SWAP2 SWAP1 PUSH2 0x4B54 JUMP JUMPDEST PUSH2 0x3418 JUMP JUMPDEST PUSH1 0x40 MLOAD PUSH2 0x7CD SWAP2 SWAP1 PUSH2 0x49B7 JUMP JUMPDEST PUSH1 0x40 MLOAD DUP1 SWAP2 SUB SWAP1 RETURN JUMPDEST PUSH1 0x0 PUSH32 0x80AC58CD00000000000000000000000000000000000000000000000000000000 PUSH28 0xFFFFFFFFFFFFFFFFFFFFFFFFFFFFFFFFFFFFFFFFFFFFFFFFFFFFFFFF NOT AND DUP3 PUSH28 0xFFFFFFFFFFFFFFFFFFFFFFFFFFFFFFFFFFFFFFFFFFFFFFFFFFFFFFFF NOT AND EQ DUP1 PUSH2 0x8A1 JUMPI POP PUSH32 0x5B5E139F00000000000000000000000000000000000000000000000000000000 PUSH28 0xFFFFFFFFFFFFFFFFFFFFFFFFFFFFFFFFFFFFFFFFFFFFFFFFFFFFFFFF NOT AND DUP3 PUSH28 0xFFFFFFFFFFFFFFFFFFFFFFFFFFFFFFFFFFFFFFFFFFFFFFFFFFFFFFFF NOT AND EQ JUMPDEST DUP1 PUSH2 0x8B1 JUMPI POP PUSH2 0x8B0 DUP3 PUSH2 0x3439 JUMP JUMPDEST JUMPDEST SWAP1 POP SWAP2 SWAP1 POP JUMP JUMPDEST PUSH2 0x100 PUSH1 0x0 SWAP1 SLOAD SWAP1 PUSH2 0x100 EXP SWAP1 DIV PUSH20 0xFFFFFFFFFFFFFFFFFFFFFFFFFFFFFFFFFFFFFFFF AND DUP2 JUMP JUMPDEST PUSH1 0x60 PUSH1 0x65 DUP1 SLOAD PUSH2 0x8EE SWAP1 PUSH2 0x55C7 JUMP JUMPDEST DUP1 PUSH1 0x1F ADD PUSH1 0x20 DUP1 SWAP2 DIV MUL PUSH1 0x20 ADD PUSH1 0x40 MLOAD SWAP1 DUP2 ADD PUSH1 0x40 MSTORE DUP1 SWAP3 SWAP2 SWAP1 DUP2 DUP2 MSTORE PUSH1 0x20 ADD DUP3 DUP1 SLOAD PUSH2 0x91A SWAP1 PUSH2 0x55C7 JUMP JUMPDEST DUP1 ISZERO PUSH2 0x967 JUMPI DUP1 PUSH1 0x1F LT PUSH2 0x93C JUMPI PUSH2 0x100 DUP1 DUP4 SLOAD DIV MUL DUP4 MSTORE SWAP2 PUSH1 0x20 ADD SWAP2 PUSH2 0x967 JUMP JUMPDEST DUP3 ADD SWAP2 SWAP1 PUSH1 0x0 MSTORE PUSH1 0x20 PUSH1 0x0 KECCAK256 SWAP1 JUMPDEST DUP2 SLOAD DUP2 MSTORE SWAP1 PUSH1 0x1 ADD SWAP1 PUSH1 0x20 ADD DUP1 DUP4 GT PUSH2 0x94A JUMPI DUP3 SWAP1 SUB PUSH1 0x1F AND DUP3 ADD SWAP2 JUMPDEST POP POP POP POP POP SWAP1 POP SWAP1 JUMP JUMPDEST PUSH1 0x0 PUSH2 0x97C DUP3 PUSH2 0x34A3 JUMP JUMPDEST PUSH1 0x69 PUSH1 0x0 DUP4 DUP2 MSTORE PUSH1 0x20 ADD SWAP1 DUP2 MSTORE PUSH1 0x20 ADD PUSH1 0x0 KECCAK256 PUSH1 0x0 SWAP1 SLOAD SWAP1 PUSH2 0x100 EXP SWAP1 DIV PUSH20 0xFFFFFFFFFFFFFFFFFFFFFFFFFFFFFFFFFFFFFFFF AND SWAP1 POP SWAP2 SWAP1 POP JUMP JUMPDEST PUSH1 0x0 PUSH2 0x9C2 DUP3 PUSH2 0xC49 JUMP JUMPDEST SWAP1 POP DUP1 PUSH20 0xFFFFFFFFFFFFFFFFFFFFFFFFFFFFFFFFFFFFFFFF AND DUP4 PUSH20 0xFFFFFFFFFFFFFFFFFFFFFFFFFFFFFFFFFFFFFFFF AND SUB PUSH2 0xA32 JUMPI PUSH1 0x40 MLOAD PUSH32 0x8C379A000000000000000000000000000000000000000000000000000000000 DUP2 MSTORE PUSH1 0x4 ADD PUSH2 0xA29 SWAP1 PUSH2 0x566A JUMP JUMPDEST PUSH1 0x40 MLOAD DUP1 SWAP2 SUB SWAP1 REVERT JUMPDEST DUP1 PUSH20 0xFFFFFFFFFFFFFFFFFFFFFFFFFFFFFFFFFFFFFFFF AND PUSH2 0xA51 PUSH2 0x34EE JUMP JUMPDEST PUSH20 0xFFFFFFFFFFFFFFFFFFFFFFFFFFFFFFFFFFFFFFFF AND EQ DUP1 PUSH2 0xA80 JUMPI POP PUSH2 0xA7F DUP2 PUSH2 0xA7A PUSH2 0x34EE JUMP JUMPDEST PUSH2 0x3301 JUMP JUMPDEST JUMPDEST PUSH2 0xABF JUMPI PUSH1 0x40 MLOAD PUSH32 0x8C379A000000000000000000000000000000000000000000000000000000000 DUP2 MSTORE PUSH1 0x4 ADD PUSH2 0xAB6 SWAP1 PUSH2 0x56FC JUMP JUMPDEST PUSH1 0x40 MLOAD DUP1 SWAP2 SUB SWAP1 REVERT JUMPDEST PUSH2 0xAC9 DUP4 DUP4 PUSH2 0x34F6 JUMP JUMPDEST POP POP POP JUMP JUMPDEST PUSH2 0x104 PUSH1 0x20 MSTORE DUP1 PUSH1 0x0 MSTORE PUSH1 0x40 PUSH1 0x0 KECCAK256 PUSH1 0x0 SWAP2 POP SLOAD SWAP1 PUSH2 0x100 EXP SWAP1 DIV PUSH1 0xFF AND DUP2 JUMP JUMPDEST PUSH2 0xB00 PUSH2 0xAFA PUSH2 0x34EE JUMP JUMPDEST DUP3 PUSH2 0x35AF JUMP JUMPDEST PUSH2 0xB3F JUMPI PUSH1 0x40 MLOAD PUSH32 0x8C379A000000000000000000000000000000000000000000000000000000000 DUP2 MSTORE PUSH1 0x4 ADD PUSH2 0xB36 SWAP1 PUSH2 0x578E JUMP JUMPDEST PUSH1 0x40 MLOAD DUP1 SWAP2 SUB SWAP1 REVERT JUMPDEST PUSH2 0xB4A DUP4 DUP4 DUP4 PUSH2 0x3644 JUMP JUMPDEST POP POP POP JUMP JUMPDEST PUSH1 0x0 PUSH2 0xB65 PUSH8 0x879575944C1FB4DE PUSH1 0xC0 SHL PUSH2 0x393D JUMP JUMPDEST PUSH2 0xB79 PUSH8 0xFEA1701351C6C4D6 PUSH1 0xC0 SHL PUSH2 0x393D JUMP JUMPDEST PUSH2 0x3E8 DUP3 PUSH1 0xFF PUSH1 0x0 SWAP1 SLOAD SWAP1 PUSH2 0x100 EXP SWAP1 DIV PUSH20 0xFFFFFFFFFFFFFFFFFFFFFFFFFFFFFFFFFFFFFFFF AND PUSH20 0xFFFFFFFFFFFFFFFFFFFFFFFFFFFFFFFFFFFFFFFF AND PUSH4 0x6FB1EB0C PUSH1 0x40 MLOAD DUP2 PUSH4 0xFFFFFFFF AND PUSH1 0xE0 SHL DUP2 MSTORE PUSH1 0x4 ADD PUSH1 0x20 PUSH1 0x40 MLOAD DUP1 DUP4 SUB DUP2 DUP7 GAS STATICCALL ISZERO DUP1 ISZERO PUSH2 0xBEA JUMPI RETURNDATASIZE PUSH1 0x0 DUP1 RETURNDATACOPY RETURNDATASIZE PUSH1 0x0 REVERT JUMPDEST POP POP POP POP PUSH1 0x40 MLOAD RETURNDATASIZE PUSH1 0x1F NOT PUSH1 0x1F DUP3 ADD AND DUP3 ADD DUP1 PUSH1 0x40 MSTORE POP DUP2 ADD SWAP1 PUSH2 0xC0E SWAP2 SWAP1 PUSH2 0x57C3 JUMP JUMPDEST PUSH2 0xC18 SWAP2 SWAP1 PUSH2 0x581F JUMP JUMPDEST PUSH2 0xC22 SWAP2 SWAP1 PUSH2 0x58A8 JUMP JUMPDEST SWAP1 POP SWAP2 SWAP1 POP JUMP JUMPDEST PUSH2 0xC44 DUP4 DUP4 DUP4 PUSH1 0x40 MLOAD DUP1 PUSH1 0x20 ADD PUSH1 0x40 MSTORE DUP1 PUSH1 0x0 DUP2 MSTORE POP PUSH2 0x26CC JUMP JUMPDEST POP POP POP JUMP JUMPDEST PUSH1 0x0 DUP1 PUSH2 0xC55 DUP4 PUSH2 0x3940 JUMP JUMPDEST SWAP1 POP PUSH1 0x0 PUSH20 0xFFFFFFFFFFFFFFFFFFFFFFFFFFFFFFFFFFFFFFFF AND DUP2 PUSH20 0xFFFFFFFFFFFFFFFFFFFFFFFFFFFFFFFFFFFFFFFF AND SUB PUSH2 0xCC6 JUMPI PUSH1 0x40 MLOAD PUSH32 0x8C379A000000000000000000000000000000000000000000000000000000000 DUP2 MSTORE PUSH1 0x4 ADD PUSH2 0xCBD SWAP1 PUSH2 0x5925 JUMP JUMPDEST PUSH1 0x40 MLOAD DUP1 SWAP2 SUB SWAP1 REVERT JUMPDEST DUP1 SWAP2 POP POP SWAP2 SWAP1 POP JUMP JUMPDEST PUSH2 0xCE3 PUSH8 0x858690ACB5D620D1 PUSH1 0xC0 SHL PUSH2 0x393D JUMP JUMPDEST PUSH2 0xCEB PUSH2 0x397D JUMP JUMPDEST PUSH2 0xCFF PUSH8 0x97CBCEDDB93797B PUSH1 0xC0 SHL PUSH2 0x393D JUMP JUMPDEST PUSH2 0xD13 PUSH8 0xFD2D84DF8B9E952B PUSH1 0xC0 SHL PUSH2 0x393D JUMP JUMPDEST PUSH2 0xD27 PUSH8 0xD689DD620B304EAA PUSH1 0xC0 SHL PUSH2 0x393D JUMP JUMPDEST PUSH2 0xD3B PUSH8 0x649A66618565A5CA PUSH1 0xC0 SHL PUSH2 0x393D JUMP JUMPDEST PUSH2 0xD4F PUSH8 0xE324D7CF1F73BA83 PUSH1 0xC0 SHL PUSH2 0x393D JUMP JUMPDEST PUSH2 0xD65 PUSH2 0xD5A PUSH2 0x1FEE JUMP JUMPDEST DUP4 PUSH1 0x40 ADD MLOAD DUP4 PUSH2 0x39CC JUMP JUMPDEST DUP1 ISZERO PUSH2 0xD9B JUMPI POP PUSH2 0x102 DUP2 PUSH1 0x40 MLOAD PUSH2 0xD7D SWAP2 SWAP1 PUSH2 0x598C JUMP JUMPDEST SWAP1 DUP2 MSTORE PUSH1 0x20 ADD PUSH1 0x40 MLOAD DUP1 SWAP2 SUB SWAP1 KECCAK256 PUSH1 0x0 SWAP1 SLOAD SWAP1 PUSH2 0x100 EXP SWAP1 DIV PUSH1 0xFF AND ISZERO JUMPDEST DUP1 ISZERO PUSH2 0xE41 JUMPI POP PUSH2 0x101 PUSH1 0x0 SWAP1 SLOAD SWAP1 PUSH2 0x100 EXP SWAP1 DIV PUSH20 0xFFFFFFFFFFFFFFFFFFFFFFFFFFFFFFFFFFFFFFFF AND PUSH20 0xFFFFFFFFFFFFFFFFFFFFFFFFFFFFFFFFFFFFFFFF AND PUSH4 0xC9941806 DUP3 PUSH1 0x40 MLOAD DUP3 PUSH4 0xFFFFFFFF AND PUSH1 0xE0 SHL DUP2 MSTORE PUSH1 0x4 ADD PUSH2 0xDFE SWAP2 SWAP1 PUSH2 0x59ED JUMP JUMPDEST PUSH1 0x20 PUSH1 0x40 MLOAD DUP1 DUP4 SUB DUP2 DUP7 GAS STATICCALL ISZERO DUP1 ISZERO PUSH2 0xE1B JUMPI RETURNDATASIZE PUSH1 0x0 DUP1 RETURNDATACOPY RETURNDATASIZE PUSH1 0x0 REVERT JUMPDEST POP POP POP POP PUSH1 0x40 MLOAD RETURNDATASIZE PUSH1 0x1F NOT PUSH1 0x1F DUP3 ADD AND DUP3 ADD DUP1 PUSH1 0x40 MSTORE POP DUP2 ADD SWAP1 PUSH2 0xE3F SWAP2 SWAP1 PUSH2 0x5A24 JUMP JUMPDEST ISZERO JUMPDEST DUP1 ISZERO PUSH2 0xEE7 JUMPI POP PUSH2 0x100 PUSH1 0x0 SWAP1 SLOAD SWAP1 PUSH2 0x100 EXP SWAP1 DIV PUSH20 0xFFFFFFFFFFFFFFFFFFFFFFFFFFFFFFFFFFFFFFFF AND PUSH20 0xFFFFFFFFFFFFFFFFFFFFFFFFFFFFFFFFFFFFFFFF AND PUSH4 0xC9941806 DUP3 PUSH1 0x40 MLOAD DUP3 PUSH4 0xFFFFFFFF AND PUSH1 0xE0 SHL DUP2 MSTORE PUSH1 0x4 ADD PUSH2 0xEA4 SWAP2 SWAP1 PUSH2 0x59ED JUMP JUMPDEST PUSH1 0x20 PUSH1 0x40 MLOAD DUP1 DUP4 SUB DUP2 DUP7 GAS STATICCALL ISZERO DUP1 ISZERO PUSH2 0xEC1 JUMPI RETURNDATASIZE PUSH1 0x0 DUP1 RETURNDATACOPY RETURNDATASIZE PUSH1 0x0 REVERT JUMPDEST POP POP POP POP PUSH1 0x40 MLOAD RETURNDATASIZE PUSH1 0x1F NOT PUSH1 0x1F DUP3 ADD AND DUP3 ADD DUP1 PUSH1 0x40 MSTORE POP DUP2 ADD SWAP1 PUSH2 0xEE5 SWAP2 SWAP1 PUSH2 0x5A24 JUMP JUMPDEST ISZERO JUMPDEST DUP1 ISZERO PUSH2 0xF8C JUMPI POP PUSH1 0xFF PUSH1 0x0 SWAP1 SLOAD SWAP1 PUSH2 0x100 EXP SWAP1 DIV PUSH20 0xFFFFFFFFFFFFFFFFFFFFFFFFFFFFFFFFFFFFFFFF AND PUSH20 0xFFFFFFFFFFFFFFFFFFFFFFFFFFFFFFFFFFFFFFFF AND PUSH4 0xC9941806 DUP3 PUSH1 0x40 MLOAD DUP3 PUSH4 0xFFFFFFFF AND PUSH1 0xE0 SHL DUP2 MSTORE PUSH1 0x4 ADD PUSH2 0xF49 SWAP2 SWAP1 PUSH2 0x59ED JUMP JUMPDEST PUSH1 0x20 PUSH1 0x40 MLOAD DUP1 DUP4 SUB DUP2 DUP7 GAS STATICCALL ISZERO DUP1 ISZERO PUSH2 0xF66 JUMPI RETURNDATASIZE PUSH1 0x0 DUP1 RETURNDATACOPY RETURNDATASIZE PUSH1 0x0 REVERT JUMPDEST POP POP POP POP PUSH1 0x40 MLOAD RETURNDATASIZE PUSH1 0x1F NOT PUSH1 0x1F DUP3 ADD AND DUP3 ADD DUP1 PUSH1 0x40 MSTORE POP DUP2 ADD SWAP1 PUSH2 0xF8A SWAP2 SWAP1 PUSH2 0x5A24 JUMP JUMPDEST ISZERO JUMPDEST PUSH2 0xFCB JUMPI PUSH1 0x40 MLOAD PUSH32 0x8C379A000000000000000000000000000000000000000000000000000000000 DUP2 MSTORE PUSH1 0x4 ADD PUSH2 0xFC2 SWAP1 PUSH2 0x5A9D JUMP JUMPDEST PUSH1 0x40 MLOAD DUP1 SWAP2 SUB SWAP1 REVERT JUMPDEST PUSH2 0xFDF PUSH8 0xB8AAEAEB4C4A0E11 PUSH1 0xC0 SHL PUSH2 0x393D JUMP JUMPDEST PUSH2 0xFF3 PUSH8 0xFCCD693312CD7B9C PUSH1 0xC0 SHL PUSH2 0x393D JUMP JUMPDEST PUSH2 0x105 PUSH1 0x0 PUSH2 0x1002 SWAP2 SWAP1 PUSH2 0x48C5 JUMP JUMPDEST PUSH2 0x1016 PUSH8 0xCD3A3A9B79DFFF95 PUSH1 0xC0 SHL PUSH2 0x393D JUMP JUMPDEST PUSH2 0x102A PUSH8 0x5F295CAB12F6C93A PUSH1 0xC0 SHL PUSH2 0x393D JUMP JUMPDEST PUSH1 0x0 JUMPDEST DUP3 PUSH1 0x0 ADD MLOAD MLOAD DUP2 LT ISZERO PUSH2 0x127B JUMPI PUSH2 0x104E PUSH8 0x771EE4C6A78B7F52 PUSH1 0xC0 SHL PUSH2 0x393D JUMP JUMPDEST PUSH2 0x1062 PUSH8 0x3B1A77EDACCA6006 PUSH1 0xC0 SHL PUSH2 0x393D JUMP JUMPDEST PUSH2 0x1076 PUSH8 0x654BA3432792E3B2 PUSH1 0xC0 SHL PUSH2 0x393D JUMP JUMPDEST PUSH2 0x104 PUSH1 0x0 DUP5 PUSH1 0x0 ADD MLOAD DUP4 DUP2 MLOAD DUP2 LT PUSH2 0x1092 JUMPI PUSH2 0x1091 PUSH2 0x5ABD JUMP JUMPDEST JUMPDEST PUSH1 0x20 MUL PUSH1 0x20 ADD ADD MLOAD DUP2 MSTORE PUSH1 0x20 ADD SWAP1 DUP2 MSTORE PUSH1 0x20 ADD PUSH1 0x0 KECCAK256 PUSH1 0x0 SWAP1 SLOAD SWAP1 PUSH2 0x100 EXP SWAP1 DIV PUSH1 0xFF AND ISZERO DUP1 ISZERO PUSH2 0x1100 JUMPI POP PUSH2 0x103 PUSH1 0x0 DUP5 PUSH1 0x0 ADD MLOAD DUP4 DUP2 MLOAD DUP2 LT PUSH2 0x10DA JUMPI PUSH2 0x10D9 PUSH2 0x5ABD JUMP JUMPDEST JUMPDEST PUSH1 0x20 MUL PUSH1 0x20 ADD ADD MLOAD DUP2 MSTORE PUSH1 0x20 ADD SWAP1 DUP2 MSTORE PUSH1 0x20 ADD PUSH1 0x0 KECCAK256 PUSH1 0x0 SWAP1 SLOAD SWAP1 PUSH2 0x100 EXP SWAP1 DIV PUSH1 0xFF AND ISZERO JUMPDEST PUSH2 0x113F JUMPI PUSH1 0x40 MLOAD PUSH32 0x8C379A000000000000000000000000000000000000000000000000000000000 DUP2 MSTORE PUSH1 0x4 ADD PUSH2 0x1136 SWAP1 PUSH2 0x5B38 JUMP JUMPDEST PUSH1 0x40 MLOAD DUP1 SWAP2 SUB SWAP1 REVERT JUMPDEST PUSH2 0x1153 PUSH8 0x443FE02CAB7FFF25 PUSH1 0xC0 SHL PUSH2 0x393D JUMP JUMPDEST PUSH2 0x1167 PUSH8 0xA82C2B0E8CF167E8 PUSH1 0xC0 SHL PUSH2 0x393D JUMP JUMPDEST PUSH1 0x1 PUSH2 0x103 PUSH1 0x0 DUP6 PUSH1 0x0 ADD MLOAD DUP5 DUP2 MLOAD DUP2 LT PUSH2 0x1185 JUMPI PUSH2 0x1184 PUSH2 0x5ABD JUMP JUMPDEST JUMPDEST PUSH1 0x20 MUL PUSH1 0x20 ADD ADD MLOAD DUP2 MSTORE PUSH1 0x20 ADD SWAP1 DUP2 MSTORE PUSH1 0x20 ADD PUSH1 0x0 KECCAK256 PUSH1 0x0 PUSH2 0x100 EXP DUP2 SLOAD DUP2 PUSH1 0xFF MUL NOT AND SWAP1 DUP4 ISZERO ISZERO MUL OR SWAP1 SSTORE POP PUSH2 0x11C6 PUSH8 0xEC1AE5C9CBDF008B PUSH1 0xC0 SHL PUSH2 0x393D JUMP JUMPDEST PUSH1 0x1 PUSH1 0xFB PUSH1 0x0 DUP3 DUP3 SLOAD PUSH2 0x11D9 SWAP2 SWAP1 PUSH2 0x5B58 JUMP JUMPDEST SWAP3 POP POP DUP2 SWAP1 SSTORE POP PUSH2 0x11F4 PUSH8 0x16C5EFEA0B877973 PUSH1 0xC0 SHL PUSH2 0x393D JUMP JUMPDEST PUSH2 0x1208 PUSH8 0x816A059B81D2677A PUSH1 0xC0 SHL PUSH2 0x393D JUMP JUMPDEST PUSH2 0x1214 CALLER PUSH1 0xFB SLOAD PUSH2 0x3B92 JUMP JUMPDEST PUSH2 0x1228 PUSH8 0x48CD4A5B540BC79E PUSH1 0xC0 SHL PUSH2 0x393D JUMP JUMPDEST PUSH2 0x123C PUSH8 0x544E302839DAEDD5 PUSH1 0xC0 SHL PUSH2 0x393D JUMP JUMPDEST PUSH2 0x105 PUSH1 0xFB SLOAD SWAP1 DUP1 PUSH1 0x1 DUP2 SLOAD ADD DUP1 DUP3 SSTORE DUP1 SWAP2 POP POP PUSH1 0x1 SWAP1 SUB SWAP1 PUSH1 0x0 MSTORE PUSH1 0x20 PUSH1 0x0 KECCAK256 ADD PUSH1 0x0 SWAP1 SWAP2 SWAP1 SWAP2 SWAP1 SWAP2 POP SSTORE DUP1 DUP1 PUSH2 0x1273 SWAP1 PUSH2 0x5B8C JUMP JUMPDEST SWAP2 POP POP PUSH2 0x102D JUMP JUMPDEST POP PUSH2 0x1290 PUSH8 0x4FC60882579D474A PUSH1 0xC0 SHL PUSH2 0x393D JUMP JUMPDEST PUSH2 0x12A4 PUSH8 0x65171ED030669097 PUSH1 0xC0 SHL PUSH2 0x393D JUMP JUMPDEST PUSH1 0xFF PUSH1 0x0 SWAP1 SLOAD SWAP1 PUSH2 0x100 EXP SWAP1 DIV PUSH20 0xFFFFFFFFFFFFFFFFFFFFFFFFFFFFFFFFFFFFFFFF AND PUSH20 0xFFFFFFFFFFFFFFFFFFFFFFFFFFFFFFFFFFFFFFFF AND PUSH4 0x99B9C61D DUP4 PUSH1 0x20 ADD MLOAD PUSH1 0x40 MLOAD DUP3 PUSH4 0xFFFFFFFF AND PUSH1 0xE0 SHL DUP2 MSTORE PUSH1 0x4 ADD PUSH2 0x1303 SWAP2 SWAP1 PUSH2 0x5CDE JUMP JUMPDEST PUSH1 0x0 PUSH1 0x40 MLOAD DUP1 DUP4 SUB DUP2 PUSH1 0x0 DUP8 DUP1 EXTCODESIZE ISZERO DUP1 ISZERO PUSH2 0x131D JUMPI PUSH1 0x0 DUP1 REVERT JUMPDEST POP GAS CALL ISZERO DUP1 ISZERO PUSH2 0x1331 JUMPI RETURNDATASIZE PUSH1 0x0 DUP1 RETURNDATACOPY RETURNDATASIZE PUSH1 0x0 REVERT JUMPDEST POP POP POP POP PUSH2 0x1349 PUSH8 0x8813E55B5BFEB6F2 PUSH1 0xC0 SHL PUSH2 0x393D JUMP JUMPDEST PUSH1 0x1 PUSH2 0x102 DUP3 PUSH1 0x40 MLOAD PUSH2 0x135C SWAP2 SWAP1 PUSH2 0x598C JUMP JUMPDEST SWAP1 DUP2 MSTORE PUSH1 0x20 ADD PUSH1 0x40 MLOAD DUP1 SWAP2 SUB SWAP1 KECCAK256 PUSH1 0x0 PUSH2 0x100 EXP DUP2 SLOAD DUP2 PUSH1 0xFF MUL NOT AND SWAP1 DUP4 ISZERO ISZERO MUL OR SWAP1 SSTORE POP PUSH2 0x1395 PUSH8 0x57717AB8890AFE92 PUSH1 0xC0 SHL PUSH2 0x393D JUMP JUMPDEST PUSH2 0x13A9 PUSH8 0xB53061739E8B19E1 PUSH1 0xC0 SHL PUSH2 0x393D JUMP JUMPDEST PUSH32 0x4460FACD664860C4BB5EDAA48402C019A8D10F1C4AC640DD7B3E1DC4C9E6335F CALLER DUP4 PUSH1 0x0 ADD MLOAD PUSH2 0x105 PUSH1 0x40 MLOAD PUSH2 0x13E2 SWAP4 SWAP3 SWAP2 SWAP1 PUSH2 0x5DE9 JUMP JUMPDEST PUSH1 0x40 MLOAD DUP1 SWAP2 SUB SWAP1 LOG1 PUSH2 0x13F2 PUSH2 0x3BB0 JUMP JUMPDEST POP POP JUMP JUMPDEST PUSH1 0xFF PUSH1 0x0 SWAP1 SLOAD SWAP1 PUSH2 0x100 EXP SWAP1 DIV PUSH20 0xFFFFFFFFFFFFFFFFFFFFFFFFFFFFFFFFFFFFFFFF AND DUP2 JUMP JUMPDEST PUSH2 0x1430 PUSH8 0x71175F941F2365F8 PUSH1 0xC0 SHL PUSH2 0x393D JUMP JUMPDEST PUSH2 0x1438 PUSH2 0x397D JUMP JUMPDEST PUSH2 0x144C PUSH8 0x46C9FDF7F26B4614 PUSH1 0xC0 SHL PUSH2 0x393D JUMP JUMPDEST PUSH2 0x1460 PUSH8 0xB3D0997E0872971F PUSH1 0xC0 SHL PUSH2 0x393D JUMP JUMPDEST PUSH2 0x1474 PUSH8 0x3DC50041D0F0BB41 PUSH1 0xC0 SHL PUSH2 0x393D JUMP JUMPDEST PUSH2 0x1488 PUSH8 0x264247568EBD23DB PUSH1 0xC0 SHL PUSH2 0x393D JUMP JUMPDEST PUSH2 0x149C PUSH8 0xCDA1901BBE7CA522 PUSH1 0xC0 SHL PUSH2 0x393D JUMP JUMPDEST PUSH2 0x14B2 PUSH2 0x14A7 PUSH2 0x1FEE JUMP JUMPDEST DUP4 PUSH1 0x40 ADD MLOAD DUP4 PUSH2 0x39CC JUMP JUMPDEST DUP1 ISZERO PUSH2 0x14E8 JUMPI POP PUSH2 0x102 DUP2 PUSH1 0x40 MLOAD PUSH2 0x14CA SWAP2 SWAP1 PUSH2 0x598C JUMP JUMPDEST SWAP1 DUP2 MSTORE PUSH1 0x20 ADD PUSH1 0x40 MLOAD DUP1 SWAP2 SUB SWAP1 KECCAK256 PUSH1 0x0 SWAP1 SLOAD SWAP1 PUSH2 0x100 EXP SWAP1 DIV PUSH1 0xFF AND ISZERO JUMPDEST DUP1 ISZERO PUSH2 0x158E JUMPI POP PUSH2 0x101 PUSH1 0x0 SWAP1 SLOAD SWAP1 PUSH2 0x100 EXP SWAP1 DIV PUSH20 0xFFFFFFFFFFFFFFFFFFFFFFFFFFFFFFFFFFFFFFFF AND PUSH20 0xFFFFFFFFFFFFFFFFFFFFFFFFFFFFFFFFFFFFFFFF AND PUSH4 0xC9941806 DUP3 PUSH1 0x40 MLOAD DUP3 PUSH4 0xFFFFFFFF AND PUSH1 0xE0 SHL DUP2 MSTORE PUSH1 0x4 ADD PUSH2 0x154B SWAP2 SWAP1 PUSH2 0x59ED JUMP JUMPDEST PUSH1 0x20 PUSH1 0x40 MLOAD DUP1 DUP4 SUB DUP2 DUP7 GAS STATICCALL ISZERO DUP1 ISZERO PUSH2 0x1568 JUMPI RETURNDATASIZE PUSH1 0x0 DUP1 RETURNDATACOPY RETURNDATASIZE PUSH1 0x0 REVERT JUMPDEST POP POP POP POP PUSH1 0x40 MLOAD RETURNDATASIZE PUSH1 0x1F NOT PUSH1 0x1F DUP3 ADD AND DUP3 ADD DUP1 PUSH1 0x40 MSTORE POP DUP2 ADD SWAP1 PUSH2 0x158C SWAP2 SWAP1 PUSH2 0x5A24 JUMP JUMPDEST ISZERO JUMPDEST DUP1 ISZERO PUSH2 0x1634 JUMPI POP PUSH2 0x100 PUSH1 0x0 SWAP1 SLOAD SWAP1 PUSH2 0x100 EXP SWAP1 DIV PUSH20 0xFFFFFFFFFFFFFFFFFFFFFFFFFFFFFFFFFFFFFFFF AND PUSH20 0xFFFFFFFFFFFFFFFFFFFFFFFFFFFFFFFFFFFFFFFF AND PUSH4 0xC9941806 DUP3 PUSH1 0x40 MLOAD DUP3 PUSH4 0xFFFFFFFF AND PUSH1 0xE0 SHL DUP2 MSTORE PUSH1 0x4 ADD PUSH2 0x15F1 SWAP2 SWAP1 PUSH2 0x59ED JUMP JUMPDEST PUSH1 0x20 PUSH1 0x40 MLOAD DUP1 DUP4 SUB DUP2 DUP7 GAS STATICCALL ISZERO DUP1 ISZERO PUSH2 0x160E JUMPI RETURNDATASIZE PUSH1 0x0 DUP1 RETURNDATACOPY RETURNDATASIZE PUSH1 0x0 REVERT JUMPDEST POP POP POP POP PUSH1 0x40 MLOAD RETURNDATASIZE PUSH1 0x1F NOT PUSH1 0x1F DUP3 ADD AND DUP3 ADD DUP1 PUSH1 0x40 MSTORE POP DUP2 ADD SWAP1 PUSH2 0x1632 SWAP2 SWAP1 PUSH2 0x5A24 JUMP JUMPDEST ISZERO JUMPDEST DUP1 ISZERO PUSH2 0x16D9 JUMPI POP PUSH1 0xFF PUSH1 0x0 SWAP1 SLOAD SWAP1 PUSH2 0x100 EXP SWAP1 DIV PUSH20 0xFFFFFFFFFFFFFFFFFFFFFFFFFFFFFFFFFFFFFFFF AND PUSH20 0xFFFFFFFFFFFFFFFFFFFFFFFFFFFFFFFFFFFFFFFF AND PUSH4 0xC9941806 DUP3 PUSH1 0x40 MLOAD DUP3 PUSH4 0xFFFFFFFF AND PUSH1 0xE0 SHL DUP2 MSTORE PUSH1 0x4 ADD PUSH2 0x1696 SWAP2 SWAP1 PUSH2 0x59ED JUMP JUMPDEST PUSH1 0x20 PUSH1 0x40 MLOAD DUP1 DUP4 SUB DUP2 DUP7 GAS STATICCALL ISZERO DUP1 ISZERO PUSH2 0x16B3 JUMPI RETURNDATASIZE PUSH1 0x0 DUP1 RETURNDATACOPY RETURNDATASIZE PUSH1 0x0 REVERT JUMPDEST POP POP POP POP PUSH1 0x40 MLOAD RETURNDATASIZE PUSH1 0x1F NOT PUSH1 0x1F DUP3 ADD AND DUP3 ADD DUP1 PUSH1 0x40 MSTORE POP DUP2 ADD SWAP1 PUSH2 0x16D7 SWAP2 SWAP1 PUSH2 0x5A24 JUMP JUMPDEST ISZERO JUMPDEST PUSH2 0x1718 JUMPI PUSH1 0x40 MLOAD PUSH32 0x8C379A000000000000000000000000000000000000000000000000000000000 DUP2 MSTORE PUSH1 0x4 ADD PUSH2 0x170F SWAP1 PUSH2 0x5A9D JUMP JUMPDEST PUSH1 0x40 MLOAD DUP1 SWAP2 SUB SWAP1 REVERT JUMPDEST PUSH2 0x172C PUSH8 0x5585376F0DCEE5A PUSH1 0xC0 SHL PUSH2 0x393D JUMP JUMPDEST PUSH2 0x1740 PUSH8 0xA19C56036BDEBEB3 PUSH1 0xC0 SHL PUSH2 0x393D JUMP JUMPDEST PUSH2 0x1754 PUSH8 0x6EB7D33BA1CAB865 PUSH1 0xC0 SHL PUSH2 0x393D JUMP JUMPDEST PUSH2 0x1768 PUSH8 0x919BD09C7EEBF501 PUSH1 0xC0 SHL PUSH2 0x393D JUMP JUMPDEST PUSH2 0x104 PUSH1 0x0 DUP4 PUSH1 0x0 ADD MLOAD DUP2 MSTORE PUSH1 0x20 ADD SWAP1 DUP2 MSTORE PUSH1 0x20 ADD PUSH1 0x0 KECCAK256 PUSH1 0x0 SWAP1 SLOAD SWAP1 PUSH2 0x100 EXP SWAP1 DIV PUSH1 0xFF AND ISZERO DUP1 ISZERO PUSH2 0x17BE JUMPI POP PUSH2 0x103 PUSH1 0x0 DUP4 PUSH1 0x0 ADD MLOAD DUP2 MSTORE PUSH1 0x20 ADD SWAP1 DUP2 MSTORE PUSH1 0x20 ADD PUSH1 0x0 KECCAK256 PUSH1 0x0 SWAP1 SLOAD SWAP1 PUSH2 0x100 EXP SWAP1 DIV PUSH1 0xFF AND ISZERO JUMPDEST PUSH2 0x17FD JUMPI PUSH1 0x40 MLOAD PUSH32 0x8C379A000000000000000000000000000000000000000000000000000000000 DUP2 MSTORE PUSH1 0x4 ADD PUSH2 0x17F4 SWAP1 PUSH2 0x5B38 JUMP JUMPDEST PUSH1 0x40 MLOAD DUP1 SWAP2 SUB SWAP1 REVERT JUMPDEST PUSH2 0x1811 PUSH8 0x706B1AA484576CCA PUSH1 0xC0 SHL PUSH2 0x393D JUMP JUMPDEST PUSH2 0x1825 PUSH8 0x2F97E4949BEC49D7 PUSH1 0xC0 SHL PUSH2 0x393D JUMP JUMPDEST PUSH2 0x1839 PUSH8 0x4FBA04B09C284676 PUSH1 0xC0 SHL PUSH2 0x393D JUMP JUMPDEST PUSH2 0x101 PUSH1 0x0 SWAP1 SLOAD SWAP1 PUSH2 0x100 EXP SWAP1 DIV PUSH20 0xFFFFFFFFFFFFFFFFFFFFFFFFFFFFFFFFFFFFFFFF AND PUSH20 0xFFFFFFFFFFFFFFFFFFFFFFFFFFFFFFFFFFFFFFFF AND PUSH4 0x40C10F19 CALLER DUP5 PUSH1 0x20 ADD MLOAD PUSH1 0x40 MLOAD DUP4 PUSH4 0xFFFFFFFF AND PUSH1 0xE0 SHL DUP2 MSTORE PUSH1 0x4 ADD PUSH2 0x189B SWAP3 SWAP2 SWAP1 PUSH2 0x5E41 JUMP JUMPDEST PUSH1 0x0 PUSH1 0x40 MLOAD DUP1 DUP4 SUB DUP2 PUSH1 0x0 DUP8 DUP1 EXTCODESIZE ISZERO DUP1 ISZERO PUSH2 0x18B5 JUMPI PUSH1 0x0 DUP1 REVERT JUMPDEST POP GAS CALL ISZERO DUP1 ISZERO PUSH2 0x18C9 JUMPI RETURNDATASIZE PUSH1 0x0 DUP1 RETURNDATACOPY RETURNDATASIZE PUSH1 0x0 REVERT JUMPDEST POP POP POP POP PUSH2 0x18E1 PUSH8 0xF9512AB95CD027D7 PUSH1 0xC0 SHL PUSH2 0x393D JUMP JUMPDEST PUSH1 0x1 PUSH2 0x102 DUP3 PUSH1 0x40 MLOAD PUSH2 0x18F4 SWAP2 SWAP1 PUSH2 0x598C JUMP JUMPDEST SWAP1 DUP2 MSTORE PUSH1 0x20 ADD PUSH1 0x40 MLOAD DUP1 SWAP2 SUB SWAP1 KECCAK256 PUSH1 0x0 PUSH2 0x100 EXP DUP2 SLOAD DUP2 PUSH1 0xFF MUL NOT AND SWAP1 DUP4 ISZERO ISZERO MUL OR SWAP1 SSTORE POP PUSH2 0x192D PUSH8 0x4C680276D14B4AEC PUSH1 0xC0 SHL PUSH2 0x393D JUMP JUMPDEST PUSH1 0x1 PUSH2 0x104 PUSH1 0x0 DUP5 PUSH1 0x0 ADD MLOAD DUP2 MSTORE PUSH1 0x20 ADD SWAP1 DUP2 MSTORE PUSH1 0x20 ADD PUSH1 0x0 KECCAK256 PUSH1 0x0 PUSH2 0x100 EXP DUP2 SLOAD DUP2 PUSH1 0xFF MUL NOT AND SWAP1 DUP4 ISZERO ISZERO MUL OR SWAP1 SSTORE POP PUSH2 0x1972 PUSH8 0x76519030471A3624 PUSH1 0xC0 SHL PUSH2 0x393D JUMP JUMPDEST PUSH2 0x1986 PUSH8 0x7A76D69B0EFC5251 PUSH1 0xC0 SHL PUSH2 0x393D JUMP JUMPDEST PUSH32 0x182A2DC5849B17B73CE7928EB8E0DDC317A5D8F78B8DEDA6F07E7927833F7744 CALLER DUP4 PUSH1 0x20 ADD MLOAD DUP5 PUSH1 0x0 ADD MLOAD PUSH1 0x40 MLOAD PUSH2 0x19C1 SWAP4 SWAP3 SWAP2 SWAP1 PUSH2 0x5E6A JUMP JUMPDEST PUSH1 0x40 MLOAD DUP1 SWAP2 SUB SWAP1 LOG1 PUSH2 0x19D1 PUSH2 0x3BB0 JUMP JUMPDEST POP POP JUMP JUMPDEST PUSH1 0x0 DUP1 PUSH20 0xFFFFFFFFFFFFFFFFFFFFFFFFFFFFFFFFFFFFFFFF AND DUP3 PUSH20 0xFFFFFFFFFFFFFFFFFFFFFFFFFFFFFFFFFFFFFFFF AND SUB PUSH2 0x1A45 JUMPI PUSH1 0x40 MLOAD PUSH32 0x8C379A000000000000000000000000000000000000000000000000000000000 DUP2 MSTORE PUSH1 0x4 ADD PUSH2 0x1A3C SWAP1 PUSH2 0x5F26 JUMP JUMPDEST PUSH1 0x40 MLOAD DUP1 SWAP2 SUB SWAP1 REVERT JUMPDEST PUSH1 0x68 PUSH1 0x0 DUP4 PUSH20 0xFFFFFFFFFFFFFFFFFFFFFFFFFFFFFFFFFFFFFFFF AND PUSH20 0xFFFFFFFFFFFFFFFFFFFFFFFFFFFFFFFFFFFFFFFF AND DUP2 MSTORE PUSH1 0x20 ADD SWAP1 DUP2 MSTORE PUSH1 0x20 ADD PUSH1 0x0 KECCAK256 SLOAD SWAP1 POP SWAP2 SWAP1 POP JUMP JUMPDEST PUSH2 0x1A94 PUSH2 0x3BBA JUMP JUMPDEST PUSH2 0x1A9E PUSH1 0x0 PUSH2 0x3C38 JUMP JUMPDEST JUMP JUMPDEST PUSH2 0x1AB4 PUSH8 0x8E9C077B44190B62 PUSH1 0xC0 SHL PUSH2 0x393D JUMP JUMPDEST PUSH2 0x1ABC PUSH2 0x3BBA JUMP JUMPDEST PUSH2 0x1AD0 PUSH8 0x362D6C9876ECCBA8 PUSH1 0xC0 SHL PUSH2 0x393D JUMP JUMPDEST PUSH2 0x1AE4 PUSH8 0x7CDD45CE329132A0 PUSH1 0xC0 SHL PUSH2 0x393D JUMP JUMPDEST PUSH2 0x1AF8 PUSH8 0xEACA844F6D780B8E PUSH1 0xC0 SHL PUSH2 0x393D JUMP JUMPDEST DUP4 PUSH1 0xFF PUSH1 0x0 PUSH2 0x100 EXP DUP2 SLOAD DUP2 PUSH20 0xFFFFFFFFFFFFFFFFFFFFFFFFFFFFFFFFFFFFFFFF MUL NOT AND SWAP1 DUP4 PUSH20 0xFFFFFFFFFFFFFFFFFFFFFFFFFFFFFFFFFFFFFFFF AND MUL OR SWAP1 SSTORE POP PUSH2 0x1B4D PUSH8 0x91D8698A166DCDA9 PUSH1 0xC0 SHL PUSH2 0x393D JUMP JUMPDEST DUP2 PUSH2 0x101 PUSH1 0x0 PUSH2 0x100 EXP DUP2 SLOAD DUP2 PUSH20 0xFFFFFFFFFFFFFFFFFFFFFFFFFFFFFFFFFFFFFFFF MUL NOT AND SWAP1 DUP4 PUSH20 0xFFFFFFFFFFFFFFFFFFFFFFFFFFFFFFFFFFFFFFFF AND MUL OR SWAP1 SSTORE POP PUSH2 0x1BA3 PUSH8 0x50CD4ABED36F2073 PUSH1 0xC0 SHL PUSH2 0x393D JUMP JUMPDEST DUP3 PUSH1 0xFE PUSH1 0x0 PUSH2 0x100 EXP DUP2 SLOAD DUP2 PUSH20 0xFFFFFFFFFFFFFFFFFFFFFFFFFFFFFFFFFFFFFFFF MUL NOT AND SWAP1 DUP4 PUSH20 0xFFFFFFFFFFFFFFFFFFFFFFFFFFFFFFFFFFFFFFFF AND MUL OR SWAP1 SSTORE POP PUSH2 0x1BF8 PUSH8 0xC439A14C3C4CFB7C PUSH1 0xC0 SHL PUSH2 0x393D JUMP JUMPDEST DUP1 PUSH2 0x100 PUSH1 0x0 PUSH2 0x100 EXP DUP2 SLOAD DUP2 PUSH20 0xFFFFFFFFFFFFFFFFFFFFFFFFFFFFFFFFFFFFFFFF MUL NOT AND SWAP1 DUP4 PUSH20 0xFFFFFFFFFFFFFFFFFFFFFFFFFFFFFFFFFFFFFFFF AND MUL OR SWAP1 SSTORE POP POP POP POP POP JUMP JUMPDEST PUSH1 0xFE PUSH1 0x0 SWAP1 SLOAD SWAP1 PUSH2 0x100 EXP SWAP1 DIV PUSH20 0xFFFFFFFFFFFFFFFFFFFFFFFFFFFFFFFFFFFFFFFF AND DUP2 JUMP JUMPDEST PUSH2 0x1C7A PUSH8 0x306910AC1EE53778 PUSH1 0xC0 SHL PUSH2 0x393D JUMP JUMPDEST PUSH1 0x0 DUP1 PUSH1 0x1 SWAP1 SLOAD SWAP1 PUSH2 0x100 EXP SWAP1 DIV PUSH1 0xFF AND ISZERO SWAP1 POP DUP1 DUP1 ISZERO PUSH2 0x1CAB JUMPI POP PUSH1 0x1 PUSH1 0x0 DUP1 SLOAD SWAP1 PUSH2 0x100 EXP SWAP1 DIV PUSH1 0xFF AND PUSH1 0xFF AND LT JUMPDEST DUP1 PUSH2 0x1CD8 JUMPI POP PUSH2 0x1CBA ADDRESS PUSH2 0x3CFE JUMP JUMPDEST ISZERO DUP1 ISZERO PUSH2 0x1CD7 JUMPI POP PUSH1 0x1 PUSH1 0x0 DUP1 SLOAD SWAP1 PUSH2 0x100 EXP SWAP1 DIV PUSH1 0xFF AND PUSH1 0xFF AND EQ JUMPDEST JUMPDEST PUSH2 0x1D17 JUMPI PUSH1 0x40 MLOAD PUSH32 0x8C379A000000000000000000000000000000000000000000000000000000000 DUP2 MSTORE PUSH1 0x4 ADD PUSH2 0x1D0E SWAP1 PUSH2 0x5FB8 JUMP JUMPDEST PUSH1 0x40 MLOAD DUP1 SWAP2 SUB SWAP1 REVERT JUMPDEST PUSH1 0x1 PUSH1 0x0 DUP1 PUSH2 0x100 EXP DUP2 SLOAD DUP2 PUSH1 0xFF MUL NOT AND SWAP1 DUP4 PUSH1 0xFF AND MUL OR SWAP1 SSTORE POP DUP1 ISZERO PUSH2 0x1D54 JUMPI PUSH1 0x1 PUSH1 0x0 PUSH1 0x1 PUSH2 0x100 EXP DUP2 SLOAD DUP2 PUSH1 0xFF MUL NOT AND SWAP1 DUP4 ISZERO ISZERO MUL OR SWAP1 SSTORE POP JUMPDEST PUSH2 0x1D68 PUSH8 0x903756398606D5E1 PUSH1 0xC0 SHL PUSH2 0x393D JUMP JUMPDEST PUSH2 0x1D7C PUSH8 0x446454E6DB8FF38C PUSH1 0xC0 SHL PUSH2 0x393D JUMP JUMPDEST PUSH2 0x1D90 PUSH8 0xF2D2DBB51F59839 PUSH1 0xC0 SHL PUSH2 0x393D JUMP JUMPDEST PUSH2 0x1DA4 PUSH8 0xDC30A29B9C7100F8 PUSH1 0xC0 SHL PUSH2 0x393D JUMP JUMPDEST PUSH2 0x1E18 PUSH1 0x40 MLOAD DUP1 PUSH1 0x40 ADD PUSH1 0x40 MSTORE DUP1 PUSH1 0x15 DUP2 MSTORE PUSH1 0x20 ADD PUSH32 0x416C6C6F7920537061636520436F6E7374727563740000000000000000000000 DUP2 MSTORE POP PUSH1 0x40 MLOAD DUP1 PUSH1 0x40 ADD PUSH1 0x40 MSTORE DUP1 PUSH1 0xC DUP2 MSTORE PUSH1 0x20 ADD PUSH32 0x436F6E7374727563742D54540000000000000000000000000000000000000000 DUP2 MSTORE POP PUSH2 0x3D21 JUMP JUMPDEST PUSH2 0x1E2C PUSH8 0xDC27138EBAB27E50 PUSH1 0xC0 SHL PUSH2 0x393D JUMP JUMPDEST PUSH2 0x1E40 PUSH8 0x435F51AAD9740CAE PUSH1 0xC0 SHL PUSH2 0x393D JUMP JUMPDEST PUSH2 0x1E48 PUSH2 0x3D7E JUMP JUMPDEST PUSH2 0x1E5C PUSH8 0xF6FDF30ECCEB51F0 PUSH1 0xC0 SHL PUSH2 0x393D JUMP JUMPDEST PUSH2 0x1E70 PUSH8 0xC998CE4712948FB9 PUSH1 0xC0 SHL PUSH2 0x393D JUMP JUMPDEST PUSH2 0x1E78 PUSH2 0x3DD7 JUMP JUMPDEST PUSH2 0x1E8C PUSH8 0x1A1D0512F233935D PUSH1 0xC0 SHL PUSH2 0x393D JUMP JUMPDEST PUSH1 0x40 MLOAD DUP1 PUSH1 0x60 ADD PUSH1 0x40 MSTORE DUP1 PUSH1 0x28 DUP2 MSTORE PUSH1 0x20 ADD PUSH2 0x6CD6 PUSH1 0x28 SWAP2 CODECOPY PUSH1 0xFC SWAP1 DUP2 PUSH2 0x1EB3 SWAP2 SWAP1 PUSH2 0x617A JUMP JUMPDEST POP PUSH2 0x1EC8 PUSH8 0x60E527681E5260E3 PUSH1 0xC0 SHL PUSH2 0x393D JUMP JUMPDEST PUSH1 0x40 MLOAD DUP1 PUSH1 0x40 ADD PUSH1 0x40 MSTORE DUP1 PUSH1 0xF DUP2 MSTORE PUSH1 0x20 ADD PUSH32 0x2D746F6B656E2D7572692E6A736F6E0000000000000000000000000000000000 DUP2 MSTORE POP PUSH1 0xFD SWAP1 DUP2 PUSH2 0x1F0C SWAP2 SWAP1 PUSH2 0x617A JUMP JUMPDEST POP PUSH2 0x1F21 PUSH8 0x67B51BAC550613D3 PUSH1 0xC0 SHL PUSH2 0x393D JUMP JUMPDEST PUSH1 0x0 PUSH1 0xFB DUP2 SWAP1 SSTORE POP PUSH2 0x1F3D PUSH8 0x2685189A7BDDD151 PUSH1 0xC0 SHL PUSH2 0x393D JUMP JUMPDEST PUSH20 0x25FC99EF8C2BE73C303F7E54A0C2DA423E48326B PUSH1 0xFE PUSH1 0x0 PUSH2 0x100 EXP DUP2 SLOAD DUP2 PUSH20 0xFFFFFFFFFFFFFFFFFFFFFFFFFFFFFFFFFFFFFFFF MUL NOT AND SWAP1 DUP4 PUSH20 0xFFFFFFFFFFFFFFFFFFFFFFFFFFFFFFFFFFFFFFFF AND MUL OR SWAP1 SSTORE POP DUP1 ISZERO PUSH2 0x1FEB JUMPI PUSH1 0x0 DUP1 PUSH1 0x1 PUSH2 0x100 EXP DUP2 SLOAD DUP2 PUSH1 0xFF MUL NOT AND SWAP1 DUP4 ISZERO ISZERO MUL OR SWAP1 SSTORE POP PUSH32 0x7F26B83FF96E1F2B6A682F133852F6798A09C465DA95921460CEFB3847402498 PUSH1 0x1 PUSH1 0x40 MLOAD PUSH2 0x1FE2 SWAP2 SWAP1 PUSH2 0x6294 JUMP JUMPDEST PUSH1 0x40 MLOAD DUP1 SWAP2 SUB SWAP1 LOG1 JUMPDEST POP JUMP JUMPDEST PUSH1 0x0 PUSH1 0x97 PUSH1 0x0 SWAP1 SLOAD SWAP1 PUSH2 0x100 EXP SWAP1 DIV PUSH20 0xFFFFFFFFFFFFFFFFFFFFFFFFFFFFFFFFFFFFFFFF AND SWAP1 POP SWAP1 JUMP JUMPDEST PUSH2 0x202C PUSH8 0xF566226BCFA04DBB PUSH1 0xC0 SHL PUSH2 0x393D JUMP JUMPDEST PUSH2 0x2034 PUSH2 0x397D JUMP JUMPDEST PUSH2 0x2048 PUSH8 0xD0D54E15E960ED33 PUSH1 0xC0 SHL PUSH2 0x393D JUMP JUMPDEST PUSH2 0x205C PUSH8 0x580A4F291EFDD44E PUSH1 0xC0 SHL PUSH2 0x393D JUMP JUMPDEST PUSH2 0x2070 PUSH8 0xF8F6900D9161FD83 PUSH1 0xC0 SHL PUSH2 0x393D JUMP JUMPDEST PUSH2 0x2084 PUSH8 0x5A91B377E70783ED PUSH1 0xC0 SHL PUSH2 0x393D JUMP JUMPDEST PUSH1 0x0 PUSH2 0x2093 DUP4 PUSH1 0x0 ADD MLOAD PUSH2 0xC49 JUMP JUMPDEST SWAP1 POP PUSH2 0x20A9 PUSH8 0x4E03096C3F4513E1 PUSH1 0xC0 SHL PUSH2 0x393D JUMP JUMPDEST PUSH2 0x20BD PUSH8 0x44C83A0EDD63A156 PUSH1 0xC0 SHL PUSH2 0x393D JUMP JUMPDEST PUSH2 0x20D1 PUSH8 0xFA7D940773DE88EA PUSH1 0xC0 SHL PUSH2 0x393D JUMP JUMPDEST PUSH2 0x20E0 DUP2 DUP5 PUSH1 0x40 ADD MLOAD DUP5 PUSH2 0x39CC JUMP JUMPDEST DUP1 ISZERO PUSH2 0x2116 JUMPI POP PUSH2 0x102 DUP3 PUSH1 0x40 MLOAD PUSH2 0x20F8 SWAP2 SWAP1 PUSH2 0x598C JUMP JUMPDEST SWAP1 DUP2 MSTORE PUSH1 0x20 ADD PUSH1 0x40 MLOAD DUP1 SWAP2 SUB SWAP1 KECCAK256 PUSH1 0x0 SWAP1 SLOAD SWAP1 PUSH2 0x100 EXP SWAP1 DIV PUSH1 0xFF AND ISZERO JUMPDEST DUP1 ISZERO PUSH2 0x21BC JUMPI POP PUSH2 0x101 PUSH1 0x0 SWAP1 SLOAD SWAP1 PUSH2 0x100 EXP SWAP1 DIV PUSH20 0xFFFFFFFFFFFFFFFFFFFFFFFFFFFFFFFFFFFFFFFF AND PUSH20 0xFFFFFFFFFFFFFFFFFFFFFFFFFFFFFFFFFFFFFFFF AND PUSH4 0xC9941806 DUP4 PUSH1 0x40 MLOAD DUP3 PUSH4 0xFFFFFFFF AND PUSH1 0xE0 SHL DUP2 MSTORE PUSH1 0x4 ADD PUSH2 0x2179 SWAP2 SWAP1 PUSH2 0x59ED JUMP JUMPDEST PUSH1 0x20 PUSH1 0x40 MLOAD DUP1 DUP4 SUB DUP2 DUP7 GAS STATICCALL ISZERO DUP1 ISZERO PUSH2 0x2196 JUMPI RETURNDATASIZE PUSH1 0x0 DUP1 RETURNDATACOPY RETURNDATASIZE PUSH1 0x0 REVERT JUMPDEST POP POP POP POP PUSH1 0x40 MLOAD RETURNDATASIZE PUSH1 0x1F NOT PUSH1 0x1F DUP3 ADD AND DUP3 ADD DUP1 PUSH1 0x40 MSTORE POP DUP2 ADD SWAP1 PUSH2 0x21BA SWAP2 SWAP1 PUSH2 0x5A24 JUMP JUMPDEST ISZERO JUMPDEST DUP1 ISZERO PUSH2 0x2261 JUMPI POP PUSH1 0xFF PUSH1 0x0 SWAP1 SLOAD SWAP1 PUSH2 0x100 EXP SWAP1 DIV PUSH20 0xFFFFFFFFFFFFFFFFFFFFFFFFFFFFFFFFFFFFFFFF AND PUSH20 0xFFFFFFFFFFFFFFFFFFFFFFFFFFFFFFFFFFFFFFFF AND PUSH4 0xC9941806 DUP4 PUSH1 0x40 MLOAD DUP3 PUSH4 0xFFFFFFFF AND PUSH1 0xE0 SHL DUP2 MSTORE PUSH1 0x4 ADD PUSH2 0x221E SWAP2 SWAP1 PUSH2 0x59ED JUMP JUMPDEST PUSH1 0x20 PUSH1 0x40 MLOAD DUP1 DUP4 SUB DUP2 DUP7 GAS STATICCALL ISZERO DUP1 ISZERO PUSH2 0x223B JUMPI RETURNDATASIZE PUSH1 0x0 DUP1 RETURNDATACOPY RETURNDATASIZE PUSH1 0x0 REVERT JUMPDEST POP POP POP POP PUSH1 0x40 MLOAD RETURNDATASIZE PUSH1 0x1F NOT PUSH1 0x1F DUP3 ADD AND DUP3 ADD DUP1 PUSH1 0x40 MSTORE POP DUP2 ADD SWAP1 PUSH2 0x225F SWAP2 SWAP1 PUSH2 0x5A24 JUMP JUMPDEST ISZERO JUMPDEST PUSH2 0x22A0 JUMPI PUSH1 0x40 MLOAD PUSH32 0x8C379A000000000000000000000000000000000000000000000000000000000 DUP2 MSTORE PUSH1 0x4 ADD PUSH2 0x2297 SWAP1 PUSH2 0x62FB JUMP JUMPDEST PUSH1 0x40 MLOAD DUP1 SWAP2 SUB SWAP1 REVERT JUMPDEST PUSH2 0x22B4 PUSH8 0x9C5F19BAE140EB0F PUSH1 0xC0 SHL PUSH2 0x393D JUMP JUMPDEST PUSH2 0x22C8 PUSH8 0x9E001A7DA12EB75F PUSH1 0xC0 SHL PUSH2 0x393D JUMP JUMPDEST PUSH2 0x22DC PUSH8 0xEF4F555E48E1B607 PUSH1 0xC0 SHL PUSH2 0x393D JUMP JUMPDEST PUSH2 0x22F0 PUSH8 0x7C9D0A7EEE850C44 PUSH1 0xC0 SHL PUSH2 0x393D JUMP JUMPDEST CALLVALUE DUP4 PUSH1 0x20 ADD MLOAD EQ PUSH2 0x2336 JUMPI PUSH1 0x40 MLOAD PUSH32 0x8C379A000000000000000000000000000000000000000000000000000000000 DUP2 MSTORE PUSH1 0x4 ADD PUSH2 0x232D SWAP1 PUSH2 0x638D JUMP JUMPDEST PUSH1 0x40 MLOAD DUP1 SWAP2 SUB SWAP1 REVERT JUMPDEST PUSH2 0x234A PUSH8 0x46927242F69C4ED PUSH1 0xC0 SHL PUSH2 0x393D JUMP JUMPDEST PUSH2 0x235E PUSH8 0x142E1A01BC3730F6 PUSH1 0xC0 SHL PUSH2 0x393D JUMP JUMPDEST PUSH2 0x2372 PUSH8 0xDE2697317132979B PUSH1 0xC0 SHL PUSH2 0x393D JUMP JUMPDEST PUSH2 0x2391 DUP2 CALLER DUP6 PUSH1 0x0 ADD MLOAD PUSH1 0x40 MLOAD DUP1 PUSH1 0x20 ADD PUSH1 0x40 MSTORE DUP1 PUSH1 0x0 DUP2 MSTORE POP PUSH2 0x3E30 JUMP JUMPDEST PUSH2 0x23A5 PUSH8 0xACB8CD1D9DDE3D87 PUSH1 0xC0 SHL PUSH2 0x393D JUMP JUMPDEST PUSH1 0x1 PUSH2 0x102 DUP4 PUSH1 0x40 MLOAD PUSH2 0x23B8 SWAP2 SWAP1 PUSH2 0x598C JUMP JUMPDEST SWAP1 DUP2 MSTORE PUSH1 0x20 ADD PUSH1 0x40 MLOAD DUP1 SWAP2 SUB SWAP1 KECCAK256 PUSH1 0x0 PUSH2 0x100 EXP DUP2 SLOAD DUP2 PUSH1 0xFF MUL NOT AND SWAP1 DUP4 ISZERO ISZERO MUL OR SWAP1 SSTORE POP PUSH2 0x23F1 PUSH8 0x42C661383357F032 PUSH1 0xC0 SHL PUSH2 0x393D JUMP JUMPDEST PUSH2 0x2405 PUSH8 0x228FF3D570BDCA3D PUSH1 0xC0 SHL PUSH2 0x393D JUMP JUMPDEST PUSH1 0x0 PUSH2 0x2410 CALLVALUE PUSH2 0xB4F JUMP JUMPDEST SWAP1 POP PUSH2 0x2426 PUSH8 0xD6465BBE36DA727 PUSH1 0xC0 SHL PUSH2 0x393D JUMP JUMPDEST PUSH2 0x243A PUSH8 0xAEAC0AFC8BFCB4BD PUSH1 0xC0 SHL PUSH2 0x393D JUMP JUMPDEST PUSH1 0xFE PUSH1 0x0 SWAP1 SLOAD SWAP1 PUSH2 0x100 EXP SWAP1 DIV PUSH20 0xFFFFFFFFFFFFFFFFFFFFFFFFFFFFFFFFFFFFFFFF AND PUSH20 0xFFFFFFFFFFFFFFFFFFFFFFFFFFFFFFFFFFFFFFFF AND PUSH2 0x8FC DUP3 SWAP1 DUP2 ISZERO MUL SWAP1 PUSH1 0x40 MLOAD PUSH1 0x0 PUSH1 0x40 MLOAD DUP1 DUP4 SUB DUP2 DUP6 DUP9 DUP9 CALL SWAP4 POP POP POP POP ISZERO DUP1 ISZERO PUSH2 0x24A2 JUMPI RETURNDATASIZE PUSH1 0x0 DUP1 RETURNDATACOPY RETURNDATASIZE PUSH1 0x0 REVERT JUMPDEST POP PUSH2 0x24B7 PUSH8 0x778C306AF50B8FFB PUSH1 0xC0 SHL PUSH2 0x393D JUMP JUMPDEST PUSH2 0x24CB PUSH8 0x5889AF5F8EBA6112 PUSH1 0xC0 SHL PUSH2 0x393D JUMP JUMPDEST DUP2 PUSH20 0xFFFFFFFFFFFFFFFFFFFFFFFFFFFFFFFFFFFFFFFF AND PUSH2 0x8FC DUP3 CALLVALUE PUSH2 0x24F1 SWAP2 SWAP1 PUSH2 0x63AD JUMP JUMPDEST SWAP1 DUP2 ISZERO MUL SWAP1 PUSH1 0x40 MLOAD PUSH1 0x0 PUSH1 0x40 MLOAD DUP1 DUP4 SUB DUP2 DUP6 DUP9 DUP9 CALL SWAP4 POP POP POP POP ISZERO DUP1 ISZERO PUSH2 0x251C JUMPI RETURNDATASIZE PUSH1 0x0 DUP1 RETURNDATACOPY RETURNDATASIZE PUSH1 0x0 REVERT JUMPDEST POP PUSH2 0x2531 PUSH8 0x932B3363D385B8C4 PUSH1 0xC0 SHL PUSH2 0x393D JUMP JUMPDEST PUSH2 0x2545 PUSH8 0x2EF438C517A8BD63 PUSH1 0xC0 SHL PUSH2 0x393D JUMP JUMPDEST PUSH32 0x80CF10DAC1B681DC583A2A6AB3D1E5279E026D3FB3C9001157FC290C9A1BED69 DUP3 CALLER CALLVALUE DUP8 PUSH1 0x0 ADD MLOAD PUSH1 0x40 MLOAD PUSH2 0x257E SWAP5 SWAP4 SWAP3 SWAP2 SWAP1 PUSH2 0x63E1 JUMP JUMPDEST PUSH1 0x40 MLOAD DUP1 SWAP2 SUB SWAP1 LOG1 POP POP PUSH2 0x2590 PUSH2 0x3BB0 JUMP JUMPDEST POP POP JUMP JUMPDEST PUSH1 0x60 PUSH1 0x66 DUP1 SLOAD PUSH2 0x25A3 SWAP1 PUSH2 0x55C7 JUMP JUMPDEST DUP1 PUSH1 0x1F ADD PUSH1 0x20 DUP1 SWAP2 DIV MUL PUSH1 0x20 ADD PUSH1 0x40 MLOAD SWAP1 DUP2 ADD PUSH1 0x40 MSTORE DUP1 SWAP3 SWAP2 SWAP1 DUP2 DUP2 MSTORE PUSH1 0x20 ADD DUP3 DUP1 SLOAD PUSH2 0x25CF SWAP1 PUSH2 0x55C7 JUMP JUMPDEST DUP1 ISZERO PUSH2 0x261C JUMPI DUP1 PUSH1 0x1F LT PUSH2 0x25F1 JUMPI PUSH2 0x100 DUP1 DUP4 SLOAD DIV MUL DUP4 MSTORE SWAP2 PUSH1 0x20 ADD SWAP2 PUSH2 0x261C JUMP JUMPDEST DUP3 ADD SWAP2 SWAP1 PUSH1 0x0 MSTORE PUSH1 0x20 PUSH1 0x0 KECCAK256 SWAP1 JUMPDEST DUP2 SLOAD DUP2 MSTORE SWAP1 PUSH1 0x1 ADD SWAP1 PUSH1 0x20 ADD DUP1 DUP4 GT PUSH2 0x25FF JUMPI DUP3 SWAP1 SUB PUSH1 0x1F AND DUP3 ADD SWAP2 JUMPDEST POP POP POP POP POP SWAP1 POP SWAP1 JUMP JUMPDEST PUSH2 0x263A PUSH8 0x80ADA2B2BC7CC430 PUSH1 0xC0 SHL PUSH2 0x393D JUMP JUMPDEST PUSH2 0x2642 PUSH2 0x3BBA JUMP JUMPDEST PUSH2 0x2656 PUSH8 0x3971FA4E500E956E PUSH1 0xC0 SHL PUSH2 0x393D JUMP JUMPDEST PUSH2 0x266A PUSH8 0x4AE721835EE69B5 PUSH1 0xC0 SHL PUSH2 0x393D JUMP JUMPDEST PUSH2 0x267E PUSH8 0xC8CFB23AEEB1539 PUSH1 0xC0 SHL PUSH2 0x393D JUMP JUMPDEST DUP2 PUSH1 0xFC SWAP1 DUP2 PUSH2 0x268D SWAP2 SWAP1 PUSH2 0x617A JUMP JUMPDEST POP PUSH2 0x26A2 PUSH8 0xD68FC770B603EFB6 PUSH1 0xC0 SHL PUSH2 0x393D JUMP JUMPDEST DUP1 PUSH1 0xFD SWAP1 DUP2 PUSH2 0x26B1 SWAP2 SWAP1 PUSH2 0x617A JUMP JUMPDEST POP POP POP JUMP JUMPDEST PUSH2 0x26C8 PUSH2 0x26C1 PUSH2 0x34EE JUMP JUMPDEST DUP4 DUP4 PUSH2 0x3E8C JUMP JUMPDEST POP POP JUMP JUMPDEST PUSH2 0x26DD PUSH2 0x26D7 PUSH2 0x34EE JUMP JUMPDEST DUP4 PUSH2 0x35AF JUMP JUMPDEST PUSH2 0x271C JUMPI PUSH1 0x40 MLOAD PUSH32 0x8C379A000000000000000000000000000000000000000000000000000000000 DUP2 MSTORE PUSH1 0x4 ADD PUSH2 0x2713 SWAP1 PUSH2 0x578E JUMP JUMPDEST PUSH1 0x40 MLOAD DUP1 SWAP2 SUB SWAP1 REVERT JUMPDEST PUSH2 0x2728 DUP5 DUP5 DUP5 DUP5 PUSH2 0x3E30 JUMP JUMPDEST POP POP POP POP JUMP JUMPDEST PUSH2 0x2742 PUSH8 0xA79711601946FD36 PUSH1 0xC0 SHL PUSH2 0x393D JUMP JUMPDEST PUSH2 0x274A PUSH2 0x397D JUMP JUMPDEST PUSH2 0x275E PUSH8 0x5C4EA437230B8FD1 PUSH1 0xC0 SHL PUSH2 0x393D JUMP JUMPDEST PUSH2 0x2772 PUSH8 0x764C1905CE800F25 PUSH1 0xC0 SHL PUSH2 0x393D JUMP JUMPDEST PUSH2 0x2786 PUSH8 0x2CB76585F3C6CE9 PUSH1 0xC0 SHL PUSH2 0x393D JUMP JUMPDEST PUSH2 0x279A PUSH8 0x7D8B93B692F95307 PUSH1 0xC0 SHL PUSH2 0x393D JUMP JUMPDEST PUSH2 0x27AE PUSH8 0xC8AEACF6A31B146C PUSH1 0xC0 SHL PUSH2 0x393D JUMP JUMPDEST PUSH2 0x27C4 PUSH2 0x27B9 PUSH2 0x1FEE JUMP JUMPDEST DUP4 PUSH1 0x20 ADD MLOAD DUP4 PUSH2 0x39CC JUMP JUMPDEST DUP1 ISZERO PUSH2 0x27FA JUMPI POP PUSH2 0x102 DUP2 PUSH1 0x40 MLOAD PUSH2 0x27DC SWAP2 SWAP1 PUSH2 0x598C JUMP JUMPDEST SWAP1 DUP2 MSTORE PUSH1 0x20 ADD PUSH1 0x40 MLOAD DUP1 SWAP2 SUB SWAP1 KECCAK256 PUSH1 0x0 SWAP1 SLOAD SWAP1 PUSH2 0x100 EXP SWAP1 DIV PUSH1 0xFF AND ISZERO JUMPDEST DUP1 ISZERO PUSH2 0x28A0 JUMPI POP PUSH2 0x101 PUSH1 0x0 SWAP1 SLOAD SWAP1 PUSH2 0x100 EXP SWAP1 DIV PUSH20 0xFFFFFFFFFFFFFFFFFFFFFFFFFFFFFFFFFFFFFFFF AND PUSH20 0xFFFFFFFFFFFFFFFFFFFFFFFFFFFFFFFFFFFFFFFF AND PUSH4 0xC9941806 DUP3 PUSH1 0x40 MLOAD DUP3 PUSH4 0xFFFFFFFF AND PUSH1 0xE0 SHL DUP2 MSTORE PUSH1 0x4 ADD PUSH2 0x285D SWAP2 SWAP1 PUSH2 0x59ED JUMP JUMPDEST PUSH1 0x20 PUSH1 0x40 MLOAD DUP1 DUP4 SUB DUP2 DUP7 GAS STATICCALL ISZERO DUP1 ISZERO PUSH2 0x287A JUMPI RETURNDATASIZE PUSH1 0x0 DUP1 RETURNDATACOPY RETURNDATASIZE PUSH1 0x0 REVERT JUMPDEST POP POP POP POP PUSH1 0x40 MLOAD RETURNDATASIZE PUSH1 0x1F NOT PUSH1 0x1F DUP3 ADD AND DUP3 ADD DUP1 PUSH1 0x40 MSTORE POP DUP2 ADD SWAP1 PUSH2 0x289E SWAP2 SWAP1 PUSH2 0x5A24 JUMP JUMPDEST ISZERO JUMPDEST DUP1 ISZERO PUSH2 0x2946 JUMPI POP PUSH2 0x100 PUSH1 0x0 SWAP1 SLOAD SWAP1 PUSH2 0x100 EXP SWAP1 DIV PUSH20 0xFFFFFFFFFFFFFFFFFFFFFFFFFFFFFFFFFFFFFFFF AND PUSH20 0xFFFFFFFFFFFFFFFFFFFFFFFFFFFFFFFFFFFFFFFF AND PUSH4 0xC9941806 DUP3 PUSH1 0x40 MLOAD DUP3 PUSH4 0xFFFFFFFF AND PUSH1 0xE0 SHL DUP2 MSTORE PUSH1 0x4 ADD PUSH2 0x2903 SWAP2 SWAP1 PUSH2 0x59ED JUMP JUMPDEST PUSH1 0x20 PUSH1 0x40 MLOAD DUP1 DUP4 SUB DUP2 DUP7 GAS STATICCALL ISZERO DUP1 ISZERO PUSH2 0x2920 JUMPI RETURNDATASIZE PUSH1 0x0 DUP1 RETURNDATACOPY RETURNDATASIZE PUSH1 0x0 REVERT JUMPDEST POP POP POP POP PUSH1 0x40 MLOAD RETURNDATASIZE PUSH1 0x1F NOT PUSH1 0x1F DUP3 ADD AND DUP3 ADD DUP1 PUSH1 0x40 MSTORE POP DUP2 ADD SWAP1 PUSH2 0x2944 SWAP2 SWAP1 PUSH2 0x5A24 JUMP JUMPDEST ISZERO JUMPDEST DUP1 ISZERO PUSH2 0x29EB JUMPI POP PUSH1 0xFF PUSH1 0x0 SWAP1 SLOAD SWAP1 PUSH2 0x100 EXP SWAP1 DIV PUSH20 0xFFFFFFFFFFFFFFFFFFFFFFFFFFFFFFFFFFFFFFFF AND PUSH20 0xFFFFFFFFFFFFFFFFFFFFFFFFFFFFFFFFFFFFFFFF AND PUSH4 0xC9941806 DUP3 PUSH1 0x40 MLOAD DUP3 PUSH4 0xFFFFFFFF AND PUSH1 0xE0 SHL DUP2 MSTORE PUSH1 0x4 ADD PUSH2 0x29A8 SWAP2 SWAP1 PUSH2 0x59ED JUMP JUMPDEST PUSH1 0x20 PUSH1 0x40 MLOAD DUP1 DUP4 SUB DUP2 DUP7 GAS STATICCALL ISZERO DUP1 ISZERO PUSH2 0x29C5 JUMPI RETURNDATASIZE PUSH1 0x0 DUP1 RETURNDATACOPY RETURNDATASIZE PUSH1 0x0 REVERT JUMPDEST POP POP POP POP PUSH1 0x40 MLOAD RETURNDATASIZE PUSH1 0x1F NOT PUSH1 0x1F DUP3 ADD AND DUP3 ADD DUP1 PUSH1 0x40 MSTORE POP DUP2 ADD SWAP1 PUSH2 0x29E9 SWAP2 SWAP1 PUSH2 0x5A24 JUMP JUMPDEST ISZERO JUMPDEST PUSH2 0x2A2A JUMPI PUSH1 0x40 MLOAD PUSH32 0x8C379A000000000000000000000000000000000000000000000000000000000 DUP2 MSTORE PUSH1 0x4 ADD PUSH2 0x2A21 SWAP1 PUSH2 0x5A9D JUMP JUMPDEST PUSH1 0x40 MLOAD DUP1 SWAP2 SUB SWAP1 REVERT JUMPDEST PUSH2 0x2A3E PUSH8 0x5B379508C4C3D512 PUSH1 0xC0 SHL PUSH2 0x393D JUMP JUMPDEST PUSH2 0x2A52 PUSH8 0x768E5911FA54940F PUSH1 0xC0 SHL PUSH2 0x393D JUMP JUMPDEST PUSH2 0x2A66 PUSH8 0x327F3CE21132AD3 PUSH1 0xC0 SHL PUSH2 0x393D JUMP JUMPDEST PUSH2 0x2A7A PUSH8 0x95A5EEB2D7F44D43 PUSH1 0xC0 SHL PUSH2 0x393D JUMP JUMPDEST PUSH2 0x104 PUSH1 0x0 DUP4 PUSH1 0x0 ADD MLOAD DUP2 MSTORE PUSH1 0x20 ADD SWAP1 DUP2 MSTORE PUSH1 0x20 ADD PUSH1 0x0 KECCAK256 PUSH1 0x0 SWAP1 SLOAD SWAP1 PUSH2 0x100 EXP SWAP1 DIV PUSH1 0xFF AND ISZERO DUP1 ISZERO PUSH2 0x2AD0 JUMPI POP PUSH2 0x103 PUSH1 0x0 DUP4 PUSH1 0x0 ADD MLOAD DUP2 MSTORE PUSH1 0x20 ADD SWAP1 DUP2 MSTORE PUSH1 0x20 ADD PUSH1 0x0 KECCAK256 PUSH1 0x0 SWAP1 SLOAD SWAP1 PUSH2 0x100 EXP SWAP1 DIV PUSH1 0xFF AND ISZERO JUMPDEST PUSH2 0x2B0F JUMPI PUSH1 0x40 MLOAD PUSH32 0x8C379A000000000000000000000000000000000000000000000000000000000 DUP2 MSTORE PUSH1 0x4 ADD PUSH2 0x2B06 SWAP1 PUSH2 0x64AB JUMP JUMPDEST PUSH1 0x40 MLOAD DUP1 SWAP2 SUB SWAP1 REVERT JUMPDEST PUSH2 0x2B23 PUSH8 0xBAFE26991916F346 PUSH1 0xC0 SHL PUSH2 0x393D JUMP JUMPDEST PUSH2 0x2B37 PUSH8 0x23CA86B3617F1560 PUSH1 0xC0 SHL PUSH2 0x393D JUMP JUMPDEST PUSH1 0x1 PUSH1 0xFB PUSH1 0x0 DUP3 DUP3 SLOAD PUSH2 0x2B4A SWAP2 SWAP1 PUSH2 0x5B58 JUMP JUMPDEST SWAP3 POP POP DUP2 SWAP1 SSTORE POP PUSH2 0x2B65 PUSH8 0xE24BFDBFD3F752D5 PUSH1 0xC0 SHL PUSH2 0x393D JUMP JUMPDEST PUSH2 0x2B79 PUSH8 0x511CF128E73A41E3 PUSH1 0xC0 SHL PUSH2 0x393D JUMP JUMPDEST PUSH2 0x2B85 CALLER PUSH1 0xFB SLOAD PUSH2 0x3B92 JUMP JUMPDEST PUSH2 0x2B99 PUSH8 0xF3C19E21F90A84A4 PUSH1 0xC0 SHL PUSH2 0x393D JUMP JUMPDEST PUSH1 0x1 PUSH2 0x102 DUP3 PUSH1 0x40 MLOAD PUSH2 0x2BAC SWAP2 SWAP1 PUSH2 0x598C JUMP JUMPDEST SWAP1 DUP2 MSTORE PUSH1 0x20 ADD PUSH1 0x40 MLOAD DUP1 SWAP2 SUB SWAP1 KECCAK256 PUSH1 0x0 PUSH2 0x100 EXP DUP2 SLOAD DUP2 PUSH1 0xFF MUL NOT AND SWAP1 DUP4 ISZERO ISZERO MUL OR SWAP1 SSTORE POP PUSH2 0x2BE5 PUSH8 0x60BD2A8F23B5486F PUSH1 0xC0 SHL PUSH2 0x393D JUMP JUMPDEST PUSH1 0x1 PUSH2 0x103 PUSH1 0x0 DUP5 PUSH1 0x0 ADD MLOAD DUP2 MSTORE PUSH1 0x20 ADD SWAP1 DUP2 MSTORE PUSH1 0x20 ADD PUSH1 0x0 KECCAK256 PUSH1 0x0 PUSH2 0x100 EXP DUP2 SLOAD DUP2 PUSH1 0xFF MUL NOT AND SWAP1 DUP4 ISZERO ISZERO MUL OR SWAP1 SSTORE POP PUSH2 0x2C2A PUSH8 0x551F85AACADC7AA5 PUSH1 0xC0 SHL PUSH2 0x393D JUMP JUMPDEST PUSH2 0x2C3E PUSH8 0x4C39979A720999E1 PUSH1 0xC0 SHL PUSH2 0x393D JUMP JUMPDEST PUSH32 0xE7604A06853A01C9D3EE025C9FF0A03D831D3EF8FC8D7FE1632019B84C4F4001 CALLER DUP4 PUSH1 0x0 ADD MLOAD PUSH1 0xFB SLOAD PUSH1 0x40 MLOAD PUSH2 0x2C77 SWAP4 SWAP3 SWAP2 SWAP1 PUSH2 0x5E6A JUMP JUMPDEST PUSH1 0x40 MLOAD DUP1 SWAP2 SUB SWAP1 LOG1 PUSH2 0x2C87 PUSH2 0x3BB0 JUMP JUMPDEST POP POP JUMP JUMPDEST PUSH2 0x2C9F PUSH8 0x62E9FDD80D52C8E3 PUSH1 0xC0 SHL PUSH2 0x393D JUMP JUMPDEST PUSH2 0x2CA7 PUSH2 0x397D JUMP JUMPDEST PUSH2 0x2CBB PUSH8 0x3827179CA77474F4 PUSH1 0xC0 SHL PUSH2 0x393D JUMP JUMPDEST PUSH2 0x2CCF PUSH8 0x75C2D74141801ED4 PUSH1 0xC0 SHL PUSH2 0x393D JUMP JUMPDEST PUSH2 0x2CE3 PUSH8 0xDF6DD00303BD7BAA PUSH1 0xC0 SHL PUSH2 0x393D JUMP JUMPDEST PUSH2 0x2CF7 PUSH8 0xE683EAAF5C452BCA PUSH1 0xC0 SHL PUSH2 0x393D JUMP JUMPDEST PUSH2 0x2D0B PUSH8 0xAC2ED282EC7747AE PUSH1 0xC0 SHL PUSH2 0x393D JUMP JUMPDEST PUSH2 0x2D1E DUP3 PUSH1 0x20 ADD MLOAD DUP4 PUSH1 0x60 ADD MLOAD DUP4 PUSH2 0x39CC JUMP JUMPDEST DUP1 ISZERO PUSH2 0x2D54 JUMPI POP PUSH2 0x102 DUP2 PUSH1 0x40 MLOAD PUSH2 0x2D36 SWAP2 SWAP1 PUSH2 0x598C JUMP JUMPDEST SWAP1 DUP2 MSTORE PUSH1 0x20 ADD PUSH1 0x40 MLOAD DUP1 SWAP2 SUB SWAP1 KECCAK256 PUSH1 0x0 SWAP1 SLOAD SWAP1 PUSH2 0x100 EXP SWAP1 DIV PUSH1 0xFF AND ISZERO JUMPDEST DUP1 ISZERO PUSH2 0x2DFA JUMPI POP PUSH2 0x101 PUSH1 0x0 SWAP1 SLOAD SWAP1 PUSH2 0x100 EXP SWAP1 DIV PUSH20 0xFFFFFFFFFFFFFFFFFFFFFFFFFFFFFFFFFFFFFFFF AND PUSH20 0xFFFFFFFFFFFFFFFFFFFFFFFFFFFFFFFFFFFFFFFF AND PUSH4 0xC9941806 DUP3 PUSH1 0x40 MLOAD DUP3 PUSH4 0xFFFFFFFF AND PUSH1 0xE0 SHL DUP2 MSTORE PUSH1 0x4 ADD PUSH2 0x2DB7 SWAP2 SWAP1 PUSH2 0x59ED JUMP JUMPDEST PUSH1 0x20 PUSH1 0x40 MLOAD DUP1 DUP4 SUB DUP2 DUP7 GAS STATICCALL ISZERO DUP1 ISZERO PUSH2 0x2DD4 JUMPI RETURNDATASIZE PUSH1 0x0 DUP1 RETURNDATACOPY RETURNDATASIZE PUSH1 0x0 REVERT JUMPDEST POP POP POP POP PUSH1 0x40 MLOAD RETURNDATASIZE PUSH1 0x1F NOT PUSH1 0x1F DUP3 ADD AND DUP3 ADD DUP1 PUSH1 0x40 MSTORE POP DUP2 ADD SWAP1 PUSH2 0x2DF8 SWAP2 SWAP1 PUSH2 0x5A24 JUMP JUMPDEST ISZERO JUMPDEST DUP1 ISZERO PUSH2 0x2E9F JUMPI POP PUSH1 0xFF PUSH1 0x0 SWAP1 SLOAD SWAP1 PUSH2 0x100 EXP SWAP1 DIV PUSH20 0xFFFFFFFFFFFFFFFFFFFFFFFFFFFFFFFFFFFFFFFF AND PUSH20 0xFFFFFFFFFFFFFFFFFFFFFFFFFFFFFFFFFFFFFFFF AND PUSH4 0xC9941806 DUP3 PUSH1 0x40 MLOAD DUP3 PUSH4 0xFFFFFFFF AND PUSH1 0xE0 SHL DUP2 MSTORE PUSH1 0x4 ADD PUSH2 0x2E5C SWAP2 SWAP1 PUSH2 0x59ED JUMP JUMPDEST PUSH1 0x20 PUSH1 0x40 MLOAD DUP1 DUP4 SUB DUP2 DUP7 GAS STATICCALL ISZERO DUP1 ISZERO PUSH2 0x2E79 JUMPI RETURNDATASIZE PUSH1 0x0 DUP1 RETURNDATACOPY RETURNDATASIZE PUSH1 0x0 REVERT JUMPDEST POP POP POP POP PUSH1 0x40 MLOAD RETURNDATASIZE PUSH1 0x1F NOT PUSH1 0x1F DUP3 ADD AND DUP3 ADD DUP1 PUSH1 0x40 MSTORE POP DUP2 ADD SWAP1 PUSH2 0x2E9D SWAP2 SWAP1 PUSH2 0x5A24 JUMP JUMPDEST ISZERO JUMPDEST PUSH2 0x2EDE JUMPI PUSH1 0x40 MLOAD PUSH32 0x8C379A000000000000000000000000000000000000000000000000000000000 DUP2 MSTORE PUSH1 0x4 ADD PUSH2 0x2ED5 SWAP1 PUSH2 0x62FB JUMP JUMPDEST PUSH1 0x40 MLOAD DUP1 SWAP2 SUB SWAP1 REVERT JUMPDEST PUSH2 0x2EF2 PUSH8 0xBFDBE2F90FD6BB81 PUSH1 0xC0 SHL PUSH2 0x393D JUMP JUMPDEST PUSH2 0x2F06 PUSH8 0x764B625FB3AA4858 PUSH1 0xC0 SHL PUSH2 0x393D JUMP JUMPDEST PUSH2 0x2F1A PUSH8 0xD0B1EEE4808AEA10 PUSH1 0xC0 SHL PUSH2 0x393D JUMP JUMPDEST PUSH2 0x2F2E PUSH8 0x5FD8AD26E6A4B6B1 PUSH1 0xC0 SHL PUSH2 0x393D JUMP JUMPDEST CALLVALUE DUP3 PUSH1 0x40 ADD MLOAD EQ PUSH2 0x2F74 JUMPI PUSH1 0x40 MLOAD PUSH32 0x8C379A000000000000000000000000000000000000000000000000000000000 DUP2 MSTORE PUSH1 0x4 ADD PUSH2 0x2F6B SWAP1 PUSH2 0x638D JUMP JUMPDEST PUSH1 0x40 MLOAD DUP1 SWAP2 SUB SWAP1 REVERT JUMPDEST PUSH2 0x2F88 PUSH8 0x15AAD79D00EDAFD5 PUSH1 0xC0 SHL PUSH2 0x393D JUMP JUMPDEST PUSH2 0x2F9C PUSH8 0xAE0A28820C3B8EA4 PUSH1 0xC0 SHL PUSH2 0x393D JUMP JUMPDEST PUSH1 0x1 PUSH2 0x102 DUP3 PUSH1 0x40 MLOAD PUSH2 0x2FAF SWAP2 SWAP1 PUSH2 0x598C JUMP JUMPDEST SWAP1 DUP2 MSTORE PUSH1 0x20 ADD PUSH1 0x40 MLOAD DUP1 SWAP2 SUB SWAP1 KECCAK256 PUSH1 0x0 PUSH2 0x100 EXP DUP2 SLOAD DUP2 PUSH1 0xFF MUL NOT AND SWAP1 DUP4 ISZERO ISZERO MUL OR SWAP1 SSTORE POP PUSH2 0x2FE8 PUSH8 0x4F828D65D9A2D0EA PUSH1 0xC0 SHL PUSH2 0x393D JUMP JUMPDEST PUSH2 0x2FFC PUSH8 0xE0B39B095461D3D3 PUSH1 0xC0 SHL PUSH2 0x393D JUMP JUMPDEST PUSH1 0x0 PUSH2 0x3007 CALLVALUE PUSH2 0xB4F JUMP JUMPDEST SWAP1 POP PUSH2 0x301D PUSH8 0xAB57B606E14C76E3 PUSH1 0xC0 SHL PUSH2 0x393D JUMP JUMPDEST PUSH2 0x3031 PUSH8 0x5D4AE9A3D95EFB47 PUSH1 0xC0 SHL PUSH2 0x393D JUMP JUMPDEST PUSH1 0xFE PUSH1 0x0 SWAP1 SLOAD SWAP1 PUSH2 0x100 EXP SWAP1 DIV PUSH20 0xFFFFFFFFFFFFFFFFFFFFFFFFFFFFFFFFFFFFFFFF AND PUSH20 0xFFFFFFFFFFFFFFFFFFFFFFFFFFFFFFFFFFFFFFFF AND PUSH2 0x8FC DUP3 SWAP1 DUP2 ISZERO MUL SWAP1 PUSH1 0x40 MLOAD PUSH1 0x0 PUSH1 0x40 MLOAD DUP1 DUP4 SUB DUP2 DUP6 DUP9 DUP9 CALL SWAP4 POP POP POP POP ISZERO DUP1 ISZERO PUSH2 0x3099 JUMPI RETURNDATASIZE PUSH1 0x0 DUP1 RETURNDATACOPY RETURNDATASIZE PUSH1 0x0 REVERT JUMPDEST POP PUSH2 0x30AE PUSH8 0xC30F552F64589FA6 PUSH1 0xC0 SHL PUSH2 0x393D JUMP JUMPDEST PUSH2 0x30C2 PUSH8 0x4A8AAADCA7A08AB8 PUSH1 0xC0 SHL PUSH2 0x393D JUMP JUMPDEST DUP3 PUSH1 0x20 ADD MLOAD PUSH20 0xFFFFFFFFFFFFFFFFFFFFFFFFFFFFFFFFFFFFFFFF AND PUSH2 0x8FC DUP3 CALLVALUE PUSH2 0x30EC SWAP2 SWAP1 PUSH2 0x63AD JUMP JUMPDEST SWAP1 DUP2 ISZERO MUL SWAP1 PUSH1 0x40 MLOAD PUSH1 0x0 PUSH1 0x40 MLOAD DUP1 DUP4 SUB DUP2 DUP6 DUP9 DUP9 CALL SWAP4 POP POP POP POP ISZERO DUP1 ISZERO PUSH2 0x3117 JUMPI RETURNDATASIZE PUSH1 0x0 DUP1 RETURNDATACOPY RETURNDATASIZE PUSH1 0x0 REVERT JUMPDEST POP PUSH2 0x312C PUSH8 0x4F3F61818BBB408C PUSH1 0xC0 SHL PUSH2 0x393D JUMP JUMPDEST PUSH2 0x3140 PUSH8 0x2EE1815E3685368F PUSH1 0xC0 SHL PUSH2 0x393D JUMP JUMPDEST PUSH32 0x56C6DF46197A10DF7EC2A7EDEA1CF7F79FCC3C5E63714F92240B17A4A1AD4B16 DUP4 PUSH1 0x20 ADD MLOAD CALLER CALLVALUE DUP7 PUSH1 0x0 ADD MLOAD PUSH1 0x40 MLOAD PUSH2 0x317D SWAP5 SWAP4 SWAP3 SWAP2 SWAP1 PUSH2 0x63E1 JUMP JUMPDEST PUSH1 0x40 MLOAD DUP1 SWAP2 SUB SWAP1 LOG1 POP PUSH2 0x318E PUSH2 0x3BB0 JUMP JUMPDEST POP POP JUMP JUMPDEST PUSH1 0x60 PUSH2 0x31A8 PUSH8 0x9344570A17B75559 PUSH1 0xC0 SHL PUSH2 0x393D JUMP JUMPDEST PUSH2 0x31BC PUSH8 0x65392A683EAB7C67 PUSH1 0xC0 SHL PUSH2 0x393D JUMP JUMPDEST PUSH2 0x31D0 PUSH8 0xFF039C040356FB2B PUSH1 0xC0 SHL PUSH2 0x393D JUMP JUMPDEST PUSH2 0x31E4 PUSH8 0x2E6F186A1A07E1CB PUSH1 0xC0 SHL PUSH2 0x393D JUMP JUMPDEST PUSH2 0x31ED DUP3 PUSH2 0x3FF8 JUMP JUMPDEST PUSH2 0x322C JUMPI PUSH1 0x40 MLOAD PUSH32 0x8C379A000000000000000000000000000000000000000000000000000000000 DUP2 MSTORE PUSH1 0x4 ADD PUSH2 0x3223 SWAP1 PUSH2 0x653D JUMP JUMPDEST PUSH1 0x40 MLOAD DUP1 SWAP2 SUB SWAP1 REVERT JUMPDEST PUSH2 0x3240 PUSH8 0x8ED9FFE934ADCDCC PUSH1 0xC0 SHL PUSH2 0x393D JUMP JUMPDEST PUSH2 0x3254 PUSH8 0x8277F95BEEB5A5AA PUSH1 0xC0 SHL PUSH2 0x393D JUMP JUMPDEST PUSH2 0x3268 PUSH8 0x1D5E55C5863D8D0D PUSH1 0xC0 SHL PUSH2 0x393D JUMP JUMPDEST PUSH1 0xFC PUSH2 0x3273 DUP4 PUSH2 0x4039 JUMP JUMPDEST PUSH1 0xFD PUSH1 0x40 MLOAD PUSH1 0x20 ADD PUSH2 0x3287 SWAP4 SWAP3 SWAP2 SWAP1 PUSH2 0x661C JUMP JUMPDEST PUSH1 0x40 MLOAD PUSH1 0x20 DUP2 DUP4 SUB SUB DUP2 MSTORE SWAP1 PUSH1 0x40 MSTORE SWAP1 POP SWAP2 SWAP1 POP JUMP JUMPDEST PUSH2 0x102 DUP2 DUP1 MLOAD PUSH1 0x20 DUP2 ADD DUP3 ADD DUP1 MLOAD DUP5 DUP3 MSTORE PUSH1 0x20 DUP4 ADD PUSH1 0x20 DUP6 ADD KECCAK256 DUP2 DUP4 MSTORE DUP1 SWAP6 POP POP POP POP POP POP PUSH1 0x0 SWAP2 POP SLOAD SWAP1 PUSH2 0x100 EXP SWAP1 DIV PUSH1 0xFF AND DUP2 JUMP JUMPDEST PUSH2 0x101 PUSH1 0x0 SWAP1 SLOAD SWAP1 PUSH2 0x100 EXP SWAP1 DIV PUSH20 0xFFFFFFFFFFFFFFFFFFFFFFFFFFFFFFFFFFFFFFFF AND DUP2 JUMP JUMPDEST PUSH1 0xFB SLOAD DUP2 JUMP JUMPDEST PUSH1 0x0 PUSH1 0x6A PUSH1 0x0 DUP5 PUSH20 0xFFFFFFFFFFFFFFFFFFFFFFFFFFFFFFFFFFFFFFFF AND PUSH20 0xFFFFFFFFFFFFFFFFFFFFFFFFFFFFFFFFFFFFFFFF AND DUP2 MSTORE PUSH1 0x20 ADD SWAP1 DUP2 MSTORE PUSH1 0x20 ADD PUSH1 0x0 KECCAK256 PUSH1 0x0 DUP4 PUSH20 0xFFFFFFFFFFFFFFFFFFFFFFFFFFFFFFFFFFFFFFFF AND PUSH20 0xFFFFFFFFFFFFFFFFFFFFFFFFFFFFFFFFFFFFFFFF AND DUP2 MSTORE PUSH1 0x20 ADD SWAP1 DUP2 MSTORE PUSH1 0x20 ADD PUSH1 0x0 KECCAK256 PUSH1 0x0 SWAP1 SLOAD SWAP1 PUSH2 0x100 EXP SWAP1 DIV PUSH1 0xFF AND SWAP1 POP SWAP3 SWAP2 POP POP JUMP JUMPDEST PUSH2 0x339D PUSH2 0x3BBA JUMP JUMPDEST PUSH1 0x0 PUSH20 0xFFFFFFFFFFFFFFFFFFFFFFFFFFFFFFFFFFFFFFFF AND DUP2 PUSH20 0xFFFFFFFFFFFFFFFFFFFFFFFFFFFFFFFFFFFFFFFF AND SUB PUSH2 0x340C JUMPI PUSH1 0x40 MLOAD PUSH32 0x8C379A000000000000000000000000000000000000000000000000000000000 DUP2 MSTORE PUSH1 0x4 ADD PUSH2 0x3403 SWAP1 PUSH2 0x66BF JUMP JUMPDEST PUSH1 0x40 MLOAD DUP1 SWAP2 SUB SWAP1 REVERT JUMPDEST PUSH2 0x3415 DUP2 PUSH2 0x3C38 JUMP JUMPDEST POP JUMP JUMPDEST PUSH2 0x103 PUSH1 0x20 MSTORE DUP1 PUSH1 0x0 MSTORE PUSH1 0x40 PUSH1 0x0 KECCAK256 PUSH1 0x0 SWAP2 POP SLOAD SWAP1 PUSH2 0x100 EXP SWAP1 DIV PUSH1 0xFF AND DUP2 JUMP JUMPDEST PUSH1 0x0 PUSH32 0x1FFC9A700000000000000000000000000000000000000000000000000000000 PUSH28 0xFFFFFFFFFFFFFFFFFFFFFFFFFFFFFFFFFFFFFFFFFFFFFFFFFFFFFFFF NOT AND DUP3 PUSH28 0xFFFFFFFFFFFFFFFFFFFFFFFFFFFFFFFFFFFFFFFFFFFFFFFFFFFFFFFF NOT AND EQ SWAP1 POP SWAP2 SWAP1 POP JUMP JUMPDEST PUSH2 0x34AC DUP2 PUSH2 0x3FF8 JUMP JUMPDEST PUSH2 0x34EB JUMPI PUSH1 0x40 MLOAD PUSH32 0x8C379A000000000000000000000000000000000000000000000000000000000 DUP2 MSTORE PUSH1 0x4 ADD PUSH2 0x34E2 SWAP1 PUSH2 0x5925 JUMP JUMPDEST PUSH1 0x40 MLOAD DUP1 SWAP2 SUB SWAP1 REVERT JUMPDEST POP JUMP JUMPDEST PUSH1 0x0 CALLER SWAP1 POP SWAP1 JUMP JUMPDEST DUP2 PUSH1 0x69 PUSH1 0x0 DUP4 DUP2 MSTORE PUSH1 0x20 ADD SWAP1 DUP2 MSTORE PUSH1 0x20 ADD PUSH1 0x0 KECCAK256 PUSH1 0x0 PUSH2 0x100 EXP DUP2 SLOAD DUP2 PUSH20 0xFFFFFFFFFFFFFFFFFFFFFFFFFFFFFFFFFFFFFFFF MUL NOT AND SWAP1 DUP4 PUSH20 0xFFFFFFFFFFFFFFFFFFFFFFFFFFFFFFFFFFFFFFFF AND MUL OR SWAP1 SSTORE POP DUP1 DUP3 PUSH20 0xFFFFFFFFFFFFFFFFFFFFFFFFFFFFFFFFFFFFFFFF AND PUSH2 0x3569 DUP4 PUSH2 0xC49 JUMP JUMPDEST PUSH20 0xFFFFFFFFFFFFFFFFFFFFFFFFFFFFFFFFFFFFFFFF AND PUSH32 0x8C5BE1E5EBEC7D5BD14F71427D1E84F3DD0314C0F7B2291E5B200AC8C7C3B925 PUSH1 0x40 MLOAD PUSH1 0x40 MLOAD DUP1 SWAP2 SUB SWAP1 LOG4 POP POP JUMP JUMPDEST PUSH1 0x0 DUP1 PUSH2 0x35BB DUP4 PUSH2 0xC49 JUMP JUMPDEST SWAP1 POP DUP1 PUSH20 0xFFFFFFFFFFFFFFFFFFFFFFFFFFFFFFFFFFFFFFFF AND DUP5 PUSH20 0xFFFFFFFFFFFFFFFFFFFFFFFFFFFFFFFFFFFFFFFF AND EQ DUP1 PUSH2 0x35FD JUMPI POP PUSH2 0x35FC DUP2 DUP6 PUSH2 0x3301 JUMP JUMPDEST JUMPDEST DUP1 PUSH2 0x363B JUMPI POP DUP4 PUSH20 0xFFFFFFFFFFFFFFFFFFFFFFFFFFFFFFFFFFFFFFFF AND PUSH2 0x3623 DUP5 PUSH2 0x971 JUMP JUMPDEST PUSH20 0xFFFFFFFFFFFFFFFFFFFFFFFFFFFFFFFFFFFFFFFF AND EQ JUMPDEST SWAP2 POP POP SWAP3 SWAP2 POP POP JUMP JUMPDEST DUP3 PUSH20 0xFFFFFFFFFFFFFFFFFFFFFFFFFFFFFFFFFFFFFFFF AND PUSH2 0x3664 DUP3 PUSH2 0xC49 JUMP JUMPDEST PUSH20 0xFFFFFFFFFFFFFFFFFFFFFFFFFFFFFFFFFFFFFFFF AND EQ PUSH2 0x36BA JUMPI PUSH1 0x40 MLOAD PUSH32 0x8C379A000000000000000000000000000000000000000000000000000000000 DUP2 MSTORE PUSH1 0x4 ADD PUSH2 0x36B1 SWAP1 PUSH2 0x6751 JUMP JUMPDEST PUSH1 0x40 MLOAD DUP1 SWAP2 SUB SWAP1 REVERT JUMPDEST PUSH1 0x0 PUSH20 0xFFFFFFFFFFFFFFFFFFFFFFFFFFFFFFFFFFFFFFFF AND DUP3 PUSH20 0xFFFFFFFFFFFFFFFFFFFFFFFFFFFFFFFFFFFFFFFF AND SUB PUSH2 0x3729 JUMPI PUSH1 0x40 MLOAD PUSH32 0x8C379A000000000000000000000000000000000000000000000000000000000 DUP2 MSTORE PUSH1 0x4 ADD PUSH2 0x3720 SWAP1 PUSH2 0x67E3 JUMP JUMPDEST PUSH1 0x40 MLOAD DUP1 SWAP2 SUB SWAP1 REVERT JUMPDEST PUSH2 0x3736 DUP4 DUP4 DUP4 PUSH1 0x1 PUSH2 0x4107 JUMP JUMPDEST DUP3 PUSH20 0xFFFFFFFFFFFFFFFFFFFFFFFFFFFFFFFFFFFFFFFF AND PUSH2 0x3756 DUP3 PUSH2 0xC49 JUMP JUMPDEST PUSH20 0xFFFFFFFFFFFFFFFFFFFFFFFFFFFFFFFFFFFFFFFF AND EQ PUSH2 0x37AC JUMPI PUSH1 0x40 MLOAD PUSH32 0x8C379A000000000000000000000000000000000000000000000000000000000 DUP2 MSTORE PUSH1 0x4 ADD PUSH2 0x37A3 SWAP1 PUSH2 0x6751 JUMP JUMPDEST PUSH1 0x40 MLOAD DUP1 SWAP2 SUB SWAP1 REVERT JUMPDEST PUSH1 0x69 PUSH1 0x0 DUP3 DUP2 MSTORE PUSH1 0x20 ADD SWAP1 DUP2 MSTORE PUSH1 0x20 ADD PUSH1 0x0 KECCAK256 PUSH1 0x0 PUSH2 0x100 EXP DUP2 SLOAD SWAP1 PUSH20 0xFFFFFFFFFFFFFFFFFFFFFFFFFFFFFFFFFFFFFFFF MUL NOT AND SWAP1 SSTORE PUSH1 0x1 PUSH1 0x68 PUSH1 0x0 DUP6 PUSH20 0xFFFFFFFFFFFFFFFFFFFFFFFFFFFFFFFFFFFFFFFF AND PUSH20 0xFFFFFFFFFFFFFFFFFFFFFFFFFFFFFFFFFFFFFFFF AND DUP2 MSTORE PUSH1 0x20 ADD SWAP1 DUP2 MSTORE PUSH1 0x20 ADD PUSH1 0x0 KECCAK256 PUSH1 0x0 DUP3 DUP3 SLOAD SUB SWAP3 POP POP DUP2 SWAP1 SSTORE POP PUSH1 0x1 PUSH1 0x68 PUSH1 0x0 DUP5 PUSH20 0xFFFFFFFFFFFFFFFFFFFFFFFFFFFFFFFFFFFFFFFF AND PUSH20 0xFFFFFFFFFFFFFFFFFFFFFFFFFFFFFFFFFFFFFFFF AND DUP2 MSTORE PUSH1 0x20 ADD SWAP1 DUP2 MSTORE PUSH1 0x20 ADD PUSH1 0x0 KECCAK256 PUSH1 0x0 DUP3 DUP3 SLOAD ADD SWAP3 POP POP DUP2 SWAP1 SSTORE POP DUP2 PUSH1 0x67 PUSH1 0x0 DUP4 DUP2 MSTORE PUSH1 0x20 ADD SWAP1 DUP2 MSTORE PUSH1 0x20 ADD PUSH1 0x0 KECCAK256 PUSH1 0x0 PUSH2 0x100 EXP DUP2 SLOAD DUP2 PUSH20 0xFFFFFFFFFFFFFFFFFFFFFFFFFFFFFFFFFFFFFFFF MUL NOT AND SWAP1 DUP4 PUSH20 0xFFFFFFFFFFFFFFFFFFFFFFFFFFFFFFFFFFFFFFFF AND MUL OR SWAP1 SSTORE POP DUP1 DUP3 PUSH20 0xFFFFFFFFFFFFFFFFFFFFFFFFFFFFFFFFFFFFFFFF AND DUP5 PUSH20 0xFFFFFFFFFFFFFFFFFFFFFFFFFFFFFFFFFFFFFFFF AND PUSH32 0xDDF252AD1BE2C89B69C2B068FC378DAA952BA7F163C4A11628F55A4DF523B3EF PUSH1 0x40 MLOAD PUSH1 0x40 MLOAD DUP1 SWAP2 SUB SWAP1 LOG4 PUSH2 0x3938 DUP4 DUP4 DUP4 PUSH1 0x1 PUSH2 0x410D JUMP JUMPDEST POP POP POP JUMP JUMPDEST POP JUMP JUMPDEST PUSH1 0x0 PUSH1 0x67 PUSH1 0x0 DUP4 DUP2 MSTORE PUSH1 0x20 ADD SWAP1 DUP2 MSTORE PUSH1 0x20 ADD PUSH1 0x0 KECCAK256 PUSH1 0x0 SWAP1 SLOAD SWAP1 PUSH2 0x100 EXP SWAP1 DIV PUSH20 0xFFFFFFFFFFFFFFFFFFFFFFFFFFFFFFFFFFFFFFFF AND SWAP1 POP SWAP2 SWAP1 POP JUMP JUMPDEST PUSH1 0x2 PUSH1 0xC9 SLOAD SUB PUSH2 0x39C2 JUMPI PUSH1 0x40 MLOAD PUSH32 0x8C379A000000000000000000000000000000000000000000000000000000000 DUP2 MSTORE PUSH1 0x4 ADD PUSH2 0x39B9 SWAP1 PUSH2 0x684F JUMP JUMPDEST PUSH1 0x40 MLOAD DUP1 SWAP2 SUB SWAP1 REVERT JUMPDEST PUSH1 0x2 PUSH1 0xC9 DUP2 SWAP1 SSTORE POP JUMP JUMPDEST PUSH1 0x0 DUP1 PUSH1 0x0 PUSH2 0x39DB DUP6 DUP6 PUSH2 0x4113 JUMP JUMPDEST SWAP2 POP SWAP2 POP PUSH1 0x0 PUSH1 0x4 DUP2 GT ISZERO PUSH2 0x39F3 JUMPI PUSH2 0x39F2 PUSH2 0x686F JUMP JUMPDEST JUMPDEST DUP2 PUSH1 0x4 DUP2 GT ISZERO PUSH2 0x3A06 JUMPI PUSH2 0x3A05 PUSH2 0x686F JUMP JUMPDEST JUMPDEST EQ DUP1 ISZERO PUSH2 0x3A3E JUMPI POP DUP6 PUSH20 0xFFFFFFFFFFFFFFFFFFFFFFFFFFFFFFFFFFFFFFFF AND DUP3 PUSH20 0xFFFFFFFFFFFFFFFFFFFFFFFFFFFFFFFFFFFFFFFF AND EQ JUMPDEST ISZERO PUSH2 0x3A4E JUMPI PUSH1 0x1 SWAP3 POP POP POP PUSH2 0x3B8B JUMP JUMPDEST PUSH1 0x0 DUP1 DUP8 PUSH20 0xFFFFFFFFFFFFFFFFFFFFFFFFFFFFFFFFFFFFFFFF AND PUSH4 0x1626BA7E PUSH1 0xE0 SHL DUP9 DUP9 PUSH1 0x40 MLOAD PUSH1 0x24 ADD PUSH2 0x3A83 SWAP3 SWAP2 SWAP1 PUSH2 0x68AD JUMP JUMPDEST PUSH1 0x40 MLOAD PUSH1 0x20 DUP2 DUP4 SUB SUB DUP2 MSTORE SWAP1 PUSH1 0x40 MSTORE SWAP1 PUSH28 0xFFFFFFFFFFFFFFFFFFFFFFFFFFFFFFFFFFFFFFFFFFFFFFFFFFFFFFFF NOT AND PUSH1 0x20 DUP3 ADD DUP1 MLOAD PUSH28 0xFFFFFFFFFFFFFFFFFFFFFFFFFFFFFFFFFFFFFFFFFFFFFFFFFFFFFFFF DUP4 DUP2 DUP4 AND OR DUP4 MSTORE POP POP POP POP PUSH1 0x40 MLOAD PUSH2 0x3AED SWAP2 SWAP1 PUSH2 0x598C JUMP JUMPDEST PUSH1 0x0 PUSH1 0x40 MLOAD DUP1 DUP4 SUB DUP2 DUP6 GAS STATICCALL SWAP2 POP POP RETURNDATASIZE DUP1 PUSH1 0x0 DUP2 EQ PUSH2 0x3B28 JUMPI PUSH1 0x40 MLOAD SWAP2 POP PUSH1 0x1F NOT PUSH1 0x3F RETURNDATASIZE ADD AND DUP3 ADD PUSH1 0x40 MSTORE RETURNDATASIZE DUP3 MSTORE RETURNDATASIZE PUSH1 0x0 PUSH1 0x20 DUP5 ADD RETURNDATACOPY PUSH2 0x3B2D JUMP JUMPDEST PUSH1 0x60 SWAP2 POP JUMPDEST POP SWAP2 POP SWAP2 POP DUP2 DUP1 ISZERO PUSH2 0x3B40 JUMPI POP PUSH1 0x20 DUP2 MLOAD EQ JUMPDEST DUP1 ISZERO PUSH2 0x3B84 JUMPI POP PUSH4 0x1626BA7E PUSH1 0xE0 SHL PUSH28 0xFFFFFFFFFFFFFFFFFFFFFFFFFFFFFFFFFFFFFFFFFFFFFFFFFFFFFFFF NOT AND DUP2 DUP1 PUSH1 0x20 ADD SWAP1 MLOAD DUP2 ADD SWAP1 PUSH2 0x3B82 SWAP2 SWAP1 PUSH2 0x68F2 JUMP JUMPDEST EQ JUMPDEST SWAP5 POP POP POP POP POP JUMPDEST SWAP4 SWAP3 POP POP POP JUMP JUMPDEST PUSH2 0x3BAC DUP3 DUP3 PUSH1 0x40 MLOAD DUP1 PUSH1 0x20 ADD PUSH1 0x40 MSTORE DUP1 PUSH1 0x0 DUP2 MSTORE POP PUSH2 0x4164 JUMP JUMPDEST POP POP JUMP JUMPDEST PUSH1 0x1 PUSH1 0xC9 DUP2 SWAP1 SSTORE POP JUMP JUMPDEST PUSH2 0x3BC2 PUSH2 0x34EE JUMP JUMPDEST PUSH20 0xFFFFFFFFFFFFFFFFFFFFFFFFFFFFFFFFFFFFFFFF AND PUSH2 0x3BE0 PUSH2 0x1FEE JUMP JUMPDEST PUSH20 0xFFFFFFFFFFFFFFFFFFFFFFFFFFFFFFFFFFFFFFFF AND EQ PUSH2 0x3C36 JUMPI PUSH1 0x40 MLOAD PUSH32 0x8C379A000000000000000000000000000000000000000000000000000000000 DUP2 MSTORE PUSH1 0x4 ADD PUSH2 0x3C2D SWAP1 PUSH2 0x696B JUMP JUMPDEST PUSH1 0x40 MLOAD DUP1 SWAP2 SUB SWAP1 REVERT JUMPDEST JUMP JUMPDEST PUSH1 0x0 PUSH1 0x97 PUSH1 0x0 SWAP1 SLOAD SWAP1 PUSH2 0x100 EXP SWAP1 DIV PUSH20 0xFFFFFFFFFFFFFFFFFFFFFFFFFFFFFFFFFFFFFFFF AND SWAP1 POP DUP2 PUSH1 0x97 PUSH1 0x0 PUSH2 0x100 EXP DUP2 SLOAD DUP2 PUSH20 0xFFFFFFFFFFFFFFFFFFFFFFFFFFFFFFFFFFFFFFFF MUL NOT AND SWAP1 DUP4 PUSH20 0xFFFFFFFFFFFFFFFFFFFFFFFFFFFFFFFFFFFFFFFF AND MUL OR SWAP1 SSTORE POP DUP2 PUSH20 0xFFFFFFFFFFFFFFFFFFFFFFFFFFFFFFFFFFFFFFFF AND DUP2 PUSH20 0xFFFFFFFFFFFFFFFFFFFFFFFFFFFFFFFFFFFFFFFF AND PUSH32 0x8BE0079C531659141344CD1FD0A4F28419497F9722A3DAAFE3B4186F6B6457E0 PUSH1 0x40 MLOAD PUSH1 0x40 MLOAD DUP1 SWAP2 SUB SWAP1 LOG3 POP POP JUMP JUMPDEST PUSH1 0x0 DUP1 DUP3 PUSH20 0xFFFFFFFFFFFFFFFFFFFFFFFFFFFFFFFFFFFFFFFF AND EXTCODESIZE GT SWAP1 POP SWAP2 SWAP1 POP JUMP JUMPDEST PUSH1 0x0 PUSH1 0x1 SWAP1 SLOAD SWAP1 PUSH2 0x100 EXP SWAP1 DIV PUSH1 0xFF AND PUSH2 0x3D70 JUMPI PUSH1 0x40 MLOAD PUSH32 0x8C379A000000000000000000000000000000000000000000000000000000000 DUP2 MSTORE PUSH1 0x4 ADD PUSH2 0x3D67 SWAP1 PUSH2 0x69FD JUMP JUMPDEST PUSH1 0x40 MLOAD DUP1 SWAP2 SUB SWAP1 REVERT JUMPDEST PUSH2 0x3D7A DUP3 DUP3 PUSH2 0x41BF JUMP JUMPDEST POP POP JUMP JUMPDEST PUSH1 0x0 PUSH1 0x1 SWAP1 SLOAD SWAP1 PUSH2 0x100 EXP SWAP1 DIV PUSH1 0xFF AND PUSH2 0x3DCD JUMPI PUSH1 0x40 MLOAD PUSH32 0x8C379A000000000000000000000000000000000000000000000000000000000 DUP2 MSTORE PUSH1 0x4 ADD PUSH2 0x3DC4 SWAP1 PUSH2 0x69FD JUMP JUMPDEST PUSH1 0x40 MLOAD DUP1 SWAP2 SUB SWAP1 REVERT JUMPDEST PUSH2 0x3DD5 PUSH2 0x4232 JUMP JUMPDEST JUMP JUMPDEST PUSH1 0x0 PUSH1 0x1 SWAP1 SLOAD SWAP1 PUSH2 0x100 EXP SWAP1 DIV PUSH1 0xFF AND PUSH2 0x3E26 JUMPI PUSH1 0x40 MLOAD PUSH32 0x8C379A000000000000000000000000000000000000000000000000000000000 DUP2 MSTORE PUSH1 0x4 ADD PUSH2 0x3E1D SWAP1 PUSH2 0x69FD JUMP JUMPDEST PUSH1 0x40 MLOAD DUP1 SWAP2 SUB SWAP1 REVERT JUMPDEST PUSH2 0x3E2E PUSH2 0x4293 JUMP JUMPDEST JUMP JUMPDEST PUSH2 0x3E3B DUP5 DUP5 DUP5 PUSH2 0x3644 JUMP JUMPDEST PUSH2 0x3E47 DUP5 DUP5 DUP5 DUP5 PUSH2 0x42EC JUMP JUMPDEST PUSH2 0x3E86 JUMPI PUSH1 0x40 MLOAD PUSH32 0x8C379A000000000000000000000000000000000000000000000000000000000 DUP2 MSTORE PUSH1 0x4 ADD PUSH2 0x3E7D SWAP1 PUSH2 0x6A8F JUMP JUMPDEST PUSH1 0x40 MLOAD DUP1 SWAP2 SUB SWAP1 REVERT JUMPDEST POP POP POP POP JUMP JUMPDEST DUP2 PUSH20 0xFFFFFFFFFFFFFFFFFFFFFFFFFFFFFFFFFFFFFFFF AND DUP4 PUSH20 0xFFFFFFFFFFFFFFFFFFFFFFFFFFFFFFFFFFFFFFFF AND SUB PUSH2 0x3EFA JUMPI PUSH1 0x40 MLOAD PUSH32 0x8C379A000000000000000000000000000000000000000000000000000000000 DUP2 MSTORE PUSH1 0x4 ADD PUSH2 0x3EF1 SWAP1 PUSH2 0x6AFB JUMP JUMPDEST PUSH1 0x40 MLOAD DUP1 SWAP2 SUB SWAP1 REVERT JUMPDEST DUP1 PUSH1 0x6A PUSH1 0x0 DUP6 PUSH20 0xFFFFFFFFFFFFFFFFFFFFFFFFFFFFFFFFFFFFFFFF AND PUSH20 0xFFFFFFFFFFFFFFFFFFFFFFFFFFFFFFFFFFFFFFFF AND DUP2 MSTORE PUSH1 0x20 ADD SWAP1 DUP2 MSTORE PUSH1 0x20 ADD PUSH1 0x0 KECCAK256 PUSH1 0x0 DUP5 PUSH20 0xFFFFFFFFFFFFFFFFFFFFFFFFFFFFFFFFFFFFFFFF AND PUSH20 0xFFFFFFFFFFFFFFFFFFFFFFFFFFFFFFFFFFFFFFFF AND DUP2 MSTORE PUSH1 0x20 ADD SWAP1 DUP2 MSTORE PUSH1 0x20 ADD PUSH1 0x0 KECCAK256 PUSH1 0x0 PUSH2 0x100 EXP DUP2 SLOAD DUP2 PUSH1 0xFF MUL NOT AND SWAP1 DUP4 ISZERO ISZERO MUL OR SWAP1 SSTORE POP DUP2 PUSH20 0xFFFFFFFFFFFFFFFFFFFFFFFFFFFFFFFFFFFFFFFF AND DUP4 PUSH20 0xFFFFFFFFFFFFFFFFFFFFFFFFFFFFFFFFFFFFFFFF AND PUSH32 0x17307EAB39AB6107E8899845AD3D59BD9653F200F220920489CA2B5937696C31 DUP4 PUSH1 0x40 MLOAD PUSH2 0x3FEB SWAP2 SWAP1 PUSH2 0x49B7 JUMP JUMPDEST PUSH1 0x40 MLOAD DUP1 SWAP2 SUB SWAP1 LOG3 POP POP POP JUMP JUMPDEST PUSH1 0x0 DUP1 PUSH20 0xFFFFFFFFFFFFFFFFFFFFFFFFFFFFFFFFFFFFFFFF AND PUSH2 0x401A DUP4 PUSH2 0x3940 JUMP JUMPDEST PUSH20 0xFFFFFFFFFFFFFFFFFFFFFFFFFFFFFFFFFFFFFFFF AND EQ ISZERO SWAP1 POP SWAP2 SWAP1 POP JUMP JUMPDEST PUSH1 0x60 PUSH1 0x0 PUSH1 0x1 PUSH2 0x4048 DUP5 PUSH2 0x4473 JUMP JUMPDEST ADD SWAP1 POP PUSH1 0x0 DUP2 PUSH8 0xFFFFFFFFFFFFFFFF DUP2 GT ISZERO PUSH2 0x4067 JUMPI PUSH2 0x4066 PUSH2 0x4CAB JUMP JUMPDEST JUMPDEST PUSH1 0x40 MLOAD SWAP1 DUP1 DUP3 MSTORE DUP1 PUSH1 0x1F ADD PUSH1 0x1F NOT AND PUSH1 0x20 ADD DUP3 ADD PUSH1 0x40 MSTORE DUP1 ISZERO PUSH2 0x4099 JUMPI DUP2 PUSH1 0x20 ADD PUSH1 0x1 DUP3 MUL DUP1 CALLDATASIZE DUP4 CALLDATACOPY DUP1 DUP3 ADD SWAP2 POP POP SWAP1 POP JUMPDEST POP SWAP1 POP PUSH1 0x0 DUP3 PUSH1 0x20 ADD DUP3 ADD SWAP1 POP JUMPDEST PUSH1 0x1 ISZERO PUSH2 0x40FC JUMPI DUP1 DUP1 PUSH1 0x1 SWAP1 SUB SWAP2 POP POP PUSH32 0x3031323334353637383961626364656600000000000000000000000000000000 PUSH1 0xA DUP7 MOD BYTE DUP2 MSTORE8 PUSH1 0xA DUP6 DUP2 PUSH2 0x40F0 JUMPI PUSH2 0x40EF PUSH2 0x5879 JUMP JUMPDEST JUMPDEST DIV SWAP5 POP PUSH1 0x0 DUP6 SUB PUSH2 0x40A7 JUMPI JUMPDEST DUP2 SWAP4 POP POP POP POP SWAP2 SWAP1 POP JUMP JUMPDEST POP POP POP POP JUMP JUMPDEST POP POP POP POP JUMP JUMPDEST PUSH1 0x0 DUP1 PUSH1 0x41 DUP4 MLOAD SUB PUSH2 0x4154 JUMPI PUSH1 0x0 DUP1 PUSH1 0x0 PUSH1 0x20 DUP7 ADD MLOAD SWAP3 POP PUSH1 0x40 DUP7 ADD MLOAD SWAP2 POP PUSH1 0x60 DUP7 ADD MLOAD PUSH1 0x0 BYTE SWAP1 POP PUSH2 0x4148 DUP8 DUP3 DUP6 DUP6 PUSH2 0x45C6 JUMP JUMPDEST SWAP5 POP SWAP5 POP POP POP POP PUSH2 0x415D JUMP JUMPDEST PUSH1 0x0 PUSH1 0x2 SWAP2 POP SWAP2 POP JUMPDEST SWAP3 POP SWAP3 SWAP1 POP JUMP JUMPDEST PUSH2 0x416E DUP4 DUP4 PUSH2 0x46A8 JUMP JUMPDEST PUSH2 0x417B PUSH1 0x0 DUP5 DUP5 DUP5 PUSH2 0x42EC JUMP JUMPDEST PUSH2 0x41BA JUMPI PUSH1 0x40 MLOAD PUSH32 0x8C379A000000000000000000000000000000000000000000000000000000000 DUP2 MSTORE PUSH1 0x4 ADD PUSH2 0x41B1 SWAP1 PUSH2 0x6A8F JUMP JUMPDEST PUSH1 0x40 MLOAD DUP1 SWAP2 SUB SWAP1 REVERT JUMPDEST POP POP POP JUMP JUMPDEST PUSH1 0x0 PUSH1 0x1 SWAP1 SLOAD SWAP1 PUSH2 0x100 EXP SWAP1 DIV PUSH1 0xFF AND PUSH2 0x420E JUMPI PUSH1 0x40 MLOAD PUSH32 0x8C379A000000000000000000000000000000000000000000000000000000000 DUP2 MSTORE PUSH1 0x4 ADD PUSH2 0x4205 SWAP1 PUSH2 0x69FD JUMP JUMPDEST PUSH1 0x40 MLOAD DUP1 SWAP2 SUB SWAP1 REVERT JUMPDEST DUP2 PUSH1 0x65 SWAP1 DUP2 PUSH2 0x421D SWAP2 SWAP1 PUSH2 0x617A JUMP JUMPDEST POP DUP1 PUSH1 0x66 SWAP1 DUP2 PUSH2 0x422D SWAP2 SWAP1 PUSH2 0x617A JUMP JUMPDEST POP POP POP JUMP JUMPDEST PUSH1 0x0 PUSH1 0x1 SWAP1 SLOAD SWAP1 PUSH2 0x100 EXP SWAP1 DIV PUSH1 0xFF AND PUSH2 0x4281 JUMPI PUSH1 0x40 MLOAD PUSH32 0x8C379A000000000000000000000000000000000000000000000000000000000 DUP2 MSTORE PUSH1 0x4 ADD PUSH2 0x4278 SWAP1 PUSH2 0x69FD JUMP JUMPDEST PUSH1 0x40 MLOAD DUP1 SWAP2 SUB SWAP1 REVERT JUMPDEST PUSH2 0x4291 PUSH2 0x428C PUSH2 0x34EE JUMP JUMPDEST PUSH2 0x3C38 JUMP JUMPDEST JUMP JUMPDEST PUSH1 0x0 PUSH1 0x1 SWAP1 SLOAD SWAP1 PUSH2 0x100 EXP SWAP1 DIV PUSH1 0xFF AND PUSH2 0x42E2 JUMPI PUSH1 0x40 MLOAD PUSH32 0x8C379A000000000000000000000000000000000000000000000000000000000 DUP2 MSTORE PUSH1 0x4 ADD PUSH2 0x42D9 SWAP1 PUSH2 0x69FD JUMP JUMPDEST PUSH1 0x40 MLOAD DUP1 SWAP2 SUB SWAP1 REVERT JUMPDEST PUSH1 0x1 PUSH1 0xC9 DUP2 SWAP1 SSTORE POP JUMP JUMPDEST PUSH1 0x0 PUSH2 0x430D DUP5 PUSH20 0xFFFFFFFFFFFFFFFFFFFFFFFFFFFFFFFFFFFFFFFF AND PUSH2 0x3CFE JUMP JUMPDEST ISZERO PUSH2 0x4466 JUMPI DUP4 PUSH20 0xFFFFFFFFFFFFFFFFFFFFFFFFFFFFFFFFFFFFFFFF AND PUSH4 0x150B7A02 PUSH2 0x4336 PUSH2 0x34EE JUMP JUMPDEST DUP8 DUP7 DUP7 PUSH1 0x40 MLOAD DUP6 PUSH4 0xFFFFFFFF AND PUSH1 0xE0 SHL DUP2 MSTORE PUSH1 0x4 ADD PUSH2 0x4358 SWAP5 SWAP4 SWAP3 SWAP2 SWAP1 PUSH2 0x6B1B JUMP JUMPDEST PUSH1 0x20 PUSH1 0x40 MLOAD DUP1 DUP4 SUB DUP2 PUSH1 0x0 DUP8 GAS CALL SWAP3 POP POP POP DUP1 ISZERO PUSH2 0x4394 JUMPI POP PUSH1 0x40 MLOAD RETURNDATASIZE PUSH1 0x1F NOT PUSH1 0x1F DUP3 ADD AND DUP3 ADD DUP1 PUSH1 0x40 MSTORE POP DUP2 ADD SWAP1 PUSH2 0x4391 SWAP2 SWAP1 PUSH2 0x6B7C JUMP JUMPDEST PUSH1 0x1 JUMPDEST PUSH2 0x4416 JUMPI RETURNDATASIZE DUP1 PUSH1 0x0 DUP2 EQ PUSH2 0x43C4 JUMPI PUSH1 0x40 MLOAD SWAP2 POP PUSH1 0x1F NOT PUSH1 0x3F RETURNDATASIZE ADD AND DUP3 ADD PUSH1 0x40 MSTORE RETURNDATASIZE DUP3 MSTORE RETURNDATASIZE PUSH1 0x0 PUSH1 0x20 DUP5 ADD RETURNDATACOPY PUSH2 0x43C9 JUMP JUMPDEST PUSH1 0x60 SWAP2 POP JUMPDEST POP PUSH1 0x0 DUP2 MLOAD SUB PUSH2 0x440E JUMPI PUSH1 0x40 MLOAD PUSH32 0x8C379A000000000000000000000000000000000000000000000000000000000 DUP2 MSTORE PUSH1 0x4 ADD PUSH2 0x4405 SWAP1 PUSH2 0x6A8F JUMP JUMPDEST PUSH1 0x40 MLOAD DUP1 SWAP2 SUB SWAP1 REVERT JUMPDEST DUP1 MLOAD DUP2 PUSH1 0x20 ADD REVERT JUMPDEST PUSH4 0x150B7A02 PUSH1 0xE0 SHL PUSH28 0xFFFFFFFFFFFFFFFFFFFFFFFFFFFFFFFFFFFFFFFFFFFFFFFFFFFFFFFF NOT AND DUP2 PUSH28 0xFFFFFFFFFFFFFFFFFFFFFFFFFFFFFFFFFFFFFFFFFFFFFFFFFFFFFFFF NOT AND EQ SWAP2 POP POP PUSH2 0x446B JUMP JUMPDEST PUSH1 0x1 SWAP1 POP JUMPDEST SWAP5 SWAP4 POP POP POP POP JUMP JUMPDEST PUSH1 0x0 DUP1 PUSH1 0x0 SWAP1 POP PUSH27 0x184F03E93FF9F4DAA797ED6E38ED64BF6A1F010000000000000000 DUP4 LT PUSH2 0x44D1 JUMPI PUSH27 0x184F03E93FF9F4DAA797ED6E38ED64BF6A1F010000000000000000 DUP4 DUP2 PUSH2 0x44C7 JUMPI PUSH2 0x44C6 PUSH2 0x5879 JUMP JUMPDEST JUMPDEST DIV SWAP3 POP PUSH1 0x40 DUP2 ADD SWAP1 POP JUMPDEST PUSH14 0x4EE2D6D415B85ACEF8100000000 DUP4 LT PUSH2 0x450E JUMPI PUSH14 0x4EE2D6D415B85ACEF8100000000 DUP4 DUP2 PUSH2 0x4504 JUMPI PUSH2 0x4503 PUSH2 0x5879 JUMP JUMPDEST JUMPDEST DIV SWAP3 POP PUSH1 0x20 DUP2 ADD SWAP1 POP JUMPDEST PUSH7 0x2386F26FC10000 DUP4 LT PUSH2 0x453D JUMPI PUSH7 0x2386F26FC10000 DUP4 DUP2 PUSH2 0x4533 JUMPI PUSH2 0x4532 PUSH2 0x5879 JUMP JUMPDEST JUMPDEST DIV SWAP3 POP PUSH1 0x10 DUP2 ADD SWAP1 POP JUMPDEST PUSH4 0x5F5E100 DUP4 LT PUSH2 0x4566 JUMPI PUSH4 0x5F5E100 DUP4 DUP2 PUSH2 0x455C JUMPI PUSH2 0x455B PUSH2 0x5879 JUMP JUMPDEST JUMPDEST DIV SWAP3 POP PUSH1 0x8 DUP2 ADD SWAP1 POP JUMPDEST PUSH2 0x2710 DUP4 LT PUSH2 0x458B JUMPI PUSH2 0x2710 DUP4 DUP2 PUSH2 0x4581 JUMPI PUSH2 0x4580 PUSH2 0x5879 JUMP JUMPDEST JUMPDEST DIV SWAP3 POP PUSH1 0x4 DUP2 ADD SWAP1 POP JUMPDEST PUSH1 0x64 DUP4 LT PUSH2 0x45AE JUMPI PUSH1 0x64 DUP4 DUP2 PUSH2 0x45A4 JUMPI PUSH2 0x45A3 PUSH2 0x5879 JUMP JUMPDEST JUMPDEST DIV SWAP3 POP PUSH1 0x2 DUP2 ADD SWAP1 POP JUMPDEST PUSH1 0xA DUP4 LT PUSH2 0x45BD JUMPI PUSH1 0x1 DUP2 ADD SWAP1 POP JUMPDEST DUP1 SWAP2 POP POP SWAP2 SWAP1 POP JUMP JUMPDEST PUSH1 0x0 DUP1 PUSH32 0x7FFFFFFFFFFFFFFFFFFFFFFFFFFFFFFF5D576E7357A4501DDFE92F46681B20A0 DUP4 PUSH1 0x0 SHR GT ISZERO PUSH2 0x4601 JUMPI PUSH1 0x0 PUSH1 0x3 SWAP2 POP SWAP2 POP PUSH2 0x469F JUMP JUMPDEST PUSH1 0x0 PUSH1 0x1 DUP8 DUP8 DUP8 DUP8 PUSH1 0x40 MLOAD PUSH1 0x0 DUP2 MSTORE PUSH1 0x20 ADD PUSH1 0x40 MSTORE PUSH1 0x40 MLOAD PUSH2 0x4626 SWAP5 SWAP4 SWAP3 SWAP2 SWAP1 PUSH2 0x6BB8 JUMP JUMPDEST PUSH1 0x20 PUSH1 0x40 MLOAD PUSH1 0x20 DUP2 SUB SWAP1 DUP1 DUP5 SUB SWAP1 DUP6 GAS STATICCALL ISZERO DUP1 ISZERO PUSH2 0x4648 JUMPI RETURNDATASIZE PUSH1 0x0 DUP1 RETURNDATACOPY RETURNDATASIZE PUSH1 0x0 REVERT JUMPDEST POP POP POP PUSH1 0x20 PUSH1 0x40 MLOAD SUB MLOAD SWAP1 POP PUSH1 0x0 PUSH20 0xFFFFFFFFFFFFFFFFFFFFFFFFFFFFFFFFFFFFFFFF AND DUP2 PUSH20 0xFFFFFFFFFFFFFFFFFFFFFFFFFFFFFFFFFFFFFFFF AND SUB PUSH2 0x4696 JUMPI PUSH1 0x0 PUSH1 0x1 SWAP3 POP SWAP3 POP POP PUSH2 0x469F JUMP JUMPDEST DUP1 PUSH1 0x0 SWAP3 POP SWAP3 POP POP JUMPDEST SWAP5 POP SWAP5 SWAP3 POP POP POP JUMP JUMPDEST PUSH1 0x0 PUSH20 0xFFFFFFFFFFFFFFFFFFFFFFFFFFFFFFFFFFFFFFFF AND DUP3 PUSH20 0xFFFFFFFFFFFFFFFFFFFFFFFFFFFFFFFFFFFFFFFF AND SUB PUSH2 0x4717 JUMPI PUSH1 0x40 MLOAD PUSH32 0x8C379A000000000000000000000000000000000000000000000000000000000 DUP2 MSTORE PUSH1 0x4 ADD PUSH2 0x470E SWAP1 PUSH2 0x6C49 JUMP JUMPDEST PUSH1 0x40 MLOAD DUP1 SWAP2 SUB SWAP1 REVERT JUMPDEST PUSH2 0x4720 DUP2 PUSH2 0x3FF8 JUMP JUMPDEST ISZERO PUSH2 0x4760 JUMPI PUSH1 0x40 MLOAD PUSH32 0x8C379A000000000000000000000000000000000000000000000000000000000 DUP2 MSTORE PUSH1 0x4 ADD PUSH2 0x4757 SWAP1 PUSH2 0x6CB5 JUMP JUMPDEST PUSH1 0x40 MLOAD DUP1 SWAP2 SUB SWAP1 REVERT JUMPDEST PUSH2 0x476E PUSH1 0x0 DUP4 DUP4 PUSH1 0x1 PUSH2 0x4107 JUMP JUMPDEST PUSH2 0x4777 DUP2 PUSH2 0x3FF8 JUMP JUMPDEST ISZERO PUSH2 0x47B7 JUMPI PUSH1 0x40 MLOAD PUSH32 0x8C379A000000000000000000000000000000000000000000000000000000000 DUP2 MSTORE PUSH1 0x4 ADD PUSH2 0x47AE SWAP1 PUSH2 0x6CB5 JUMP JUMPDEST PUSH1 0x40 MLOAD DUP1 SWAP2 SUB SWAP1 REVERT JUMPDEST PUSH1 0x1 PUSH1 0x68 PUSH1 0x0 DUP5 PUSH20 0xFFFFFFFFFFFFFFFFFFFFFFFFFFFFFFFFFFFFFFFF AND PUSH20 0xFFFFFFFFFFFFFFFFFFFFFFFFFFFFFFFFFFFFFFFF AND DUP2 MSTORE PUSH1 0x20 ADD SWAP1 DUP2 MSTORE PUSH1 0x20 ADD PUSH1 0x0 KECCAK256 PUSH1 0x0 DUP3 DUP3 SLOAD ADD SWAP3 POP POP DUP2 SWAP1 SSTORE POP DUP2 PUSH1 0x67 PUSH1 0x0 DUP4 DUP2 MSTORE PUSH1 0x20 ADD SWAP1 DUP2 MSTORE PUSH1 0x20 ADD PUSH1 0x0 KECCAK256 PUSH1 0x0 PUSH2 0x100 EXP DUP2 SLOAD DUP2 PUSH20 0xFFFFFFFFFFFFFFFFFFFFFFFFFFFFFFFFFFFFFFFF MUL NOT AND SWAP1 DUP4 PUSH20 0xFFFFFFFFFFFFFFFFFFFFFFFFFFFFFFFFFFFFFFFF AND MUL OR SWAP1 SSTORE POP DUP1 DUP3 PUSH20 0xFFFFFFFFFFFFFFFFFFFFFFFFFFFFFFFFFFFFFFFF AND PUSH1 0x0 PUSH20 0xFFFFFFFFFFFFFFFFFFFFFFFFFFFFFFFFFFFFFFFF AND PUSH32 0xDDF252AD1BE2C89B69C2B068FC378DAA952BA7F163C4A11628F55A4DF523B3EF PUSH1 0x40 MLOAD PUSH1 0x40 MLOAD DUP1 SWAP2 SUB SWAP1 LOG4 PUSH2 0x48C1 PUSH1 0x0 DUP4 DUP4 PUSH1 0x1 PUSH2 0x410D JUMP JUMPDEST POP POP JUMP JUMPDEST POP DUP1 SLOAD PUSH1 0x0 DUP3 SSTORE SWAP1 PUSH1 0x0 MSTORE PUSH1 0x20 PUSH1 0x0 KECCAK256 SWAP1 DUP2 ADD SWAP1 PUSH2 0x48E3 SWAP2 SWAP1 PUSH2 0x48E6 JUMP JUMPDEST POP JUMP JUMPDEST JUMPDEST DUP1 DUP3 GT ISZERO PUSH2 0x48FF JUMPI PUSH1 0x0 DUP2 PUSH1 0x0 SWAP1 SSTORE POP PUSH1 0x1 ADD PUSH2 0x48E7 JUMP JUMPDEST POP SWAP1 JUMP JUMPDEST PUSH1 0x0 PUSH1 0x40 MLOAD SWAP1 POP SWAP1 JUMP JUMPDEST PUSH1 0x0 DUP1 REVERT JUMPDEST PUSH1 0x0 DUP1 REVERT JUMPDEST PUSH1 0x0 PUSH32 0xFFFFFFFF00000000000000000000000000000000000000000000000000000000 DUP3 AND SWAP1 POP SWAP2 SWAP1 POP JUMP JUMPDEST PUSH2 0x494C DUP2 PUSH2 0x4917 JUMP JUMPDEST DUP2 EQ PUSH2 0x4957 JUMPI PUSH1 0x0 DUP1 REVERT JUMPDEST POP JUMP JUMPDEST PUSH1 0x0 DUP2 CALLDATALOAD SWAP1 POP PUSH2 0x4969 DUP2 PUSH2 0x4943 JUMP JUMPDEST SWAP3 SWAP2 POP POP JUMP JUMPDEST PUSH1 0x0 PUSH1 0x20 DUP3 DUP5 SUB SLT ISZERO PUSH2 0x4985 JUMPI PUSH2 0x4984 PUSH2 0x490D JUMP JUMPDEST JUMPDEST PUSH1 0x0 PUSH2 0x4993 DUP5 DUP3 DUP6 ADD PUSH2 0x495A JUMP JUMPDEST SWAP2 POP POP SWAP3 SWAP2 POP POP JUMP JUMPDEST PUSH1 0x0 DUP2 ISZERO ISZERO SWAP1 POP SWAP2 SWAP1 POP JUMP JUMPDEST PUSH2 0x49B1 DUP2 PUSH2 0x499C JUMP JUMPDEST DUP3 MSTORE POP POP JUMP JUMPDEST PUSH1 0x0 PUSH1 0x20 DUP3 ADD SWAP1 POP PUSH2 0x49CC PUSH1 0x0 DUP4 ADD DUP5 PUSH2 0x49A8 JUMP JUMPDEST SWAP3 SWAP2 POP POP JUMP JUMPDEST PUSH1 0x0 PUSH20 0xFFFFFFFFFFFFFFFFFFFFFFFFFFFFFFFFFFFFFFFF DUP3 AND SWAP1 POP SWAP2 SWAP1 POP JUMP JUMPDEST PUSH1 0x0 DUP2 SWAP1 POP SWAP2 SWAP1 POP JUMP JUMPDEST PUSH1 0x0 PUSH2 0x4A17 PUSH2 0x4A12 PUSH2 0x4A0D DUP5 PUSH2 0x49D2 JUMP JUMPDEST PUSH2 0x49F2 JUMP JUMPDEST PUSH2 0x49D2 JUMP JUMPDEST SWAP1 POP SWAP2 SWAP1 POP JUMP JUMPDEST PUSH1 0x0 PUSH2 0x4A29 DUP3 PUSH2 0x49FC JUMP JUMPDEST SWAP1 POP SWAP2 SWAP1 POP JUMP JUMPDEST PUSH1 0x0 PUSH2 0x4A3B DUP3 PUSH2 0x4A1E JUMP JUMPDEST SWAP1 POP SWAP2 SWAP1 POP JUMP JUMPDEST PUSH2 0x4A4B DUP2 PUSH2 0x4A30 JUMP JUMPDEST DUP3 MSTORE POP POP JUMP JUMPDEST PUSH1 0x0 PUSH1 0x20 DUP3 ADD SWAP1 POP PUSH2 0x4A66 PUSH1 0x0 DUP4 ADD DUP5 PUSH2 0x4A42 JUMP JUMPDEST SWAP3 SWAP2 POP POP JUMP JUMPDEST PUSH1 0x0 DUP2 MLOAD SWAP1 POP SWAP2 SWAP1 POP JUMP JUMPDEST PUSH1 0x0 DUP3 DUP3 MSTORE PUSH1 0x20 DUP3 ADD SWAP1 POP SWAP3 SWAP2 POP POP JUMP JUMPDEST PUSH1 0x0 JUMPDEST DUP4 DUP2 LT ISZERO PUSH2 0x4AA6 JUMPI DUP1 DUP3 ADD MLOAD DUP2 DUP5 ADD MSTORE PUSH1 0x20 DUP2 ADD SWAP1 POP PUSH2 0x4A8B JUMP JUMPDEST PUSH1 0x0 DUP5 DUP5 ADD MSTORE POP POP POP POP JUMP JUMPDEST PUSH1 0x0 PUSH1 0x1F NOT PUSH1 0x1F DUP4 ADD AND SWAP1 POP SWAP2 SWAP1 POP JUMP JUMPDEST PUSH1 0x0 PUSH2 0x4ACE DUP3 PUSH2 0x4A6C JUMP JUMPDEST PUSH2 0x4AD8 DUP2 DUP6 PUSH2 0x4A77 JUMP JUMPDEST SWAP4 POP PUSH2 0x4AE8 DUP2 DUP6 PUSH1 0x20 DUP7 ADD PUSH2 0x4A88 JUMP JUMPDEST PUSH2 0x4AF1 DUP2 PUSH2 0x4AB2 JUMP JUMPDEST DUP5 ADD SWAP2 POP POP SWAP3 SWAP2 POP POP JUMP JUMPDEST PUSH1 0x0 PUSH1 0x20 DUP3 ADD SWAP1 POP DUP2 DUP2 SUB PUSH1 0x0 DUP4 ADD MSTORE PUSH2 0x4B16 DUP2 DUP5 PUSH2 0x4AC3 JUMP JUMPDEST SWAP1 POP SWAP3 SWAP2 POP POP JUMP JUMPDEST PUSH1 0x0 DUP2 SWAP1 POP SWAP2 SWAP1 POP JUMP JUMPDEST PUSH2 0x4B31 DUP2 PUSH2 0x4B1E JUMP JUMPDEST DUP2 EQ PUSH2 0x4B3C JUMPI PUSH1 0x0 DUP1 REVERT JUMPDEST POP JUMP JUMPDEST PUSH1 0x0 DUP2 CALLDATALOAD SWAP1 POP PUSH2 0x4B4E DUP2 PUSH2 0x4B28 JUMP JUMPDEST SWAP3 SWAP2 POP POP JUMP JUMPDEST PUSH1 0x0 PUSH1 0x20 DUP3 DUP5 SUB SLT ISZERO PUSH2 0x4B6A JUMPI PUSH2 0x4B69 PUSH2 0x490D JUMP JUMPDEST JUMPDEST PUSH1 0x0 PUSH2 0x4B78 DUP5 DUP3 DUP6 ADD PUSH2 0x4B3F JUMP JUMPDEST SWAP2 POP POP SWAP3 SWAP2 POP POP JUMP JUMPDEST PUSH1 0x0 PUSH2 0x4B8C DUP3 PUSH2 0x49D2 JUMP JUMPDEST SWAP1 POP SWAP2 SWAP1 POP JUMP JUMPDEST PUSH2 0x4B9C DUP2 PUSH2 0x4B81 JUMP JUMPDEST DUP3 MSTORE POP POP JUMP JUMPDEST PUSH1 0x0 PUSH1 0x20 DUP3 ADD SWAP1 POP PUSH2 0x4BB7 PUSH1 0x0 DUP4 ADD DUP5 PUSH2 0x4B93 JUMP JUMPDEST SWAP3 SWAP2 POP POP JUMP JUMPDEST PUSH2 0x4BC6 DUP2 PUSH2 0x4B81 JUMP JUMPDEST DUP2 EQ PUSH2 0x4BD1 JUMPI PUSH1 0x0 DUP1 REVERT JUMPDEST POP JUMP JUMPDEST PUSH1 0x0 DUP2 CALLDATALOAD SWAP1 POP PUSH2 0x4BE3 DUP2 PUSH2 0x4BBD JUMP JUMPDEST SWAP3 SWAP2 POP POP JUMP JUMPDEST PUSH1 0x0 DUP1 PUSH1 0x40 DUP4 DUP6 SUB SLT ISZERO PUSH2 0x4C00 JUMPI PUSH2 0x4BFF PUSH2 0x490D JUMP JUMPDEST JUMPDEST PUSH1 0x0 PUSH2 0x4C0E DUP6 DUP3 DUP7 ADD PUSH2 0x4BD4 JUMP JUMPDEST SWAP3 POP POP PUSH1 0x20 PUSH2 0x4C1F DUP6 DUP3 DUP7 ADD PUSH2 0x4B3F JUMP JUMPDEST SWAP2 POP POP SWAP3 POP SWAP3 SWAP1 POP JUMP JUMPDEST PUSH1 0x0 DUP1 PUSH1 0x0 PUSH1 0x60 DUP5 DUP7 SUB SLT ISZERO PUSH2 0x4C42 JUMPI PUSH2 0x4C41 PUSH2 0x490D JUMP JUMPDEST JUMPDEST PUSH1 0x0 PUSH2 0x4C50 DUP7 DUP3 DUP8 ADD PUSH2 0x4BD4 JUMP JUMPDEST SWAP4 POP POP PUSH1 0x20 PUSH2 0x4C61 DUP7 DUP3 DUP8 ADD PUSH2 0x4BD4 JUMP JUMPDEST SWAP3 POP POP PUSH1 0x40 PUSH2 0x4C72 DUP7 DUP3 DUP8 ADD PUSH2 0x4B3F JUMP JUMPDEST SWAP2 POP POP SWAP3 POP SWAP3 POP SWAP3 JUMP JUMPDEST PUSH2 0x4C85 DUP2 PUSH2 0x4B1E JUMP JUMPDEST DUP3 MSTORE POP POP JUMP JUMPDEST PUSH1 0x0 PUSH1 0x20 DUP3 ADD SWAP1 POP PUSH2 0x4CA0 PUSH1 0x0 DUP4 ADD DUP5 PUSH2 0x4C7C JUMP JUMPDEST SWAP3 SWAP2 POP POP JUMP JUMPDEST PUSH1 0x0 DUP1 REVERT JUMPDEST PUSH32 0x4E487B7100000000000000000000000000000000000000000000000000000000 PUSH1 0x0 MSTORE PUSH1 0x41 PUSH1 0x4 MSTORE PUSH1 0x24 PUSH1 0x0 REVERT JUMPDEST PUSH2 0x4CE3 DUP3 PUSH2 0x4AB2 JUMP JUMPDEST DUP2 ADD DUP2 DUP2 LT PUSH8 0xFFFFFFFFFFFFFFFF DUP3 GT OR ISZERO PUSH2 0x4D02 JUMPI PUSH2 0x4D01 PUSH2 0x4CAB JUMP JUMPDEST JUMPDEST DUP1 PUSH1 0x40 MSTORE POP POP POP JUMP JUMPDEST PUSH1 0x0 PUSH2 0x4D15 PUSH2 0x4903 JUMP JUMPDEST SWAP1 POP PUSH2 0x4D21 DUP3 DUP3 PUSH2 0x4CDA JUMP JUMPDEST SWAP2 SWAP1 POP JUMP JUMPDEST PUSH1 0x0 DUP1 REVERT JUMPDEST PUSH1 0x0 DUP1 REVERT JUMPDEST PUSH1 0x0 PUSH8 0xFFFFFFFFFFFFFFFF DUP3 GT ISZERO PUSH2 0x4D4B JUMPI PUSH2 0x4D4A PUSH2 0x4CAB JUMP JUMPDEST JUMPDEST PUSH1 0x20 DUP3 MUL SWAP1 POP PUSH1 0x20 DUP2 ADD SWAP1 POP SWAP2 SWAP1 POP JUMP JUMPDEST PUSH1 0x0 DUP1 REVERT JUMPDEST PUSH1 0x0 PUSH2 0x4D74 PUSH2 0x4D6F DUP5 PUSH2 0x4D30 JUMP JUMPDEST PUSH2 0x4D0B JUMP JUMPDEST SWAP1 POP DUP1 DUP4 DUP3 MSTORE PUSH1 0x20 DUP3 ADD SWAP1 POP PUSH1 0x20 DUP5 MUL DUP4 ADD DUP6 DUP2 GT ISZERO PUSH2 0x4D97 JUMPI PUSH2 0x4D96 PUSH2 0x4D5C JUMP JUMPDEST JUMPDEST DUP4 JUMPDEST DUP2 DUP2 LT ISZERO PUSH2 0x4DC0 JUMPI DUP1 PUSH2 0x4DAC DUP9 DUP3 PUSH2 0x4B3F JUMP JUMPDEST DUP5 MSTORE PUSH1 0x20 DUP5 ADD SWAP4 POP POP PUSH1 0x20 DUP2 ADD SWAP1 POP PUSH2 0x4D99 JUMP JUMPDEST POP POP POP SWAP4 SWAP3 POP POP POP JUMP JUMPDEST PUSH1 0x0 DUP3 PUSH1 0x1F DUP4 ADD SLT PUSH2 0x4DDF JUMPI PUSH2 0x4DDE PUSH2 0x4D2B JUMP JUMPDEST JUMPDEST DUP2 CALLDATALOAD PUSH2 0x4DEF DUP5 DUP3 PUSH1 0x20 DUP7 ADD PUSH2 0x4D61 JUMP JUMPDEST SWAP2 POP POP SWAP3 SWAP2 POP POP JUMP JUMPDEST PUSH1 0x0 DUP2 SWAP1 POP SWAP2 SWAP1 POP JUMP JUMPDEST PUSH2 0x4E0B DUP2 PUSH2 0x4DF8 JUMP JUMPDEST DUP2 EQ PUSH2 0x4E16 JUMPI PUSH1 0x0 DUP1 REVERT JUMPDEST POP JUMP JUMPDEST PUSH1 0x0 DUP2 CALLDATALOAD SWAP1 POP PUSH2 0x4E28 DUP2 PUSH2 0x4E02 JUMP JUMPDEST SWAP3 SWAP2 POP POP JUMP JUMPDEST PUSH1 0x0 PUSH1 0x60 DUP3 DUP5 SUB SLT ISZERO PUSH2 0x4E44 JUMPI PUSH2 0x4E43 PUSH2 0x4CA6 JUMP JUMPDEST JUMPDEST PUSH2 0x4E4E PUSH1 0x60 PUSH2 0x4D0B JUMP JUMPDEST SWAP1 POP PUSH1 0x0 DUP3 ADD CALLDATALOAD PUSH8 0xFFFFFFFFFFFFFFFF DUP2 GT ISZERO PUSH2 0x4E6E JUMPI PUSH2 0x4E6D PUSH2 0x4D26 JUMP JUMPDEST JUMPDEST PUSH2 0x4E7A DUP5 DUP3 DUP6 ADD PUSH2 0x4DCA JUMP JUMPDEST PUSH1 0x0 DUP4 ADD MSTORE POP PUSH1 0x20 DUP3 ADD CALLDATALOAD PUSH8 0xFFFFFFFFFFFFFFFF DUP2 GT ISZERO PUSH2 0x4E9E JUMPI PUSH2 0x4E9D PUSH2 0x4D26 JUMP JUMPDEST JUMPDEST PUSH2 0x4EAA DUP5 DUP3 DUP6 ADD PUSH2 0x4DCA JUMP JUMPDEST PUSH1 0x20 DUP4 ADD MSTORE POP PUSH1 0x40 PUSH2 0x4EBE DUP5 DUP3 DUP6 ADD PUSH2 0x4E19 JUMP JUMPDEST PUSH1 0x40 DUP4 ADD MSTORE POP SWAP3 SWAP2 POP POP JUMP JUMPDEST PUSH1 0x0 DUP1 REVERT JUMPDEST PUSH1 0x0 PUSH8 0xFFFFFFFFFFFFFFFF DUP3 GT ISZERO PUSH2 0x4EEA JUMPI PUSH2 0x4EE9 PUSH2 0x4CAB JUMP JUMPDEST JUMPDEST PUSH2 0x4EF3 DUP3 PUSH2 0x4AB2 JUMP JUMPDEST SWAP1 POP PUSH1 0x20 DUP2 ADD SWAP1 POP SWAP2 SWAP1 POP JUMP JUMPDEST DUP3 DUP2 DUP4 CALLDATACOPY PUSH1 0x0 DUP4 DUP4 ADD MSTORE POP POP POP JUMP JUMPDEST PUSH1 0x0 PUSH2 0x4F22 PUSH2 0x4F1D DUP5 PUSH2 0x4ECF JUMP JUMPDEST PUSH2 0x4D0B JUMP JUMPDEST SWAP1 POP DUP3 DUP2 MSTORE PUSH1 0x20 DUP2 ADD DUP5 DUP5 DUP5 ADD GT ISZERO PUSH2 0x4F3E JUMPI PUSH2 0x4F3D PUSH2 0x4ECA JUMP JUMPDEST JUMPDEST PUSH2 0x4F49 DUP5 DUP3 DUP6 PUSH2 0x4F00 JUMP JUMPDEST POP SWAP4 SWAP3 POP POP POP JUMP JUMPDEST PUSH1 0x0 DUP3 PUSH1 0x1F DUP4 ADD SLT PUSH2 0x4F66 JUMPI PUSH2 0x4F65 PUSH2 0x4D2B JUMP JUMPDEST JUMPDEST DUP2 CALLDATALOAD PUSH2 0x4F76 DUP5 DUP3 PUSH1 0x20 DUP7 ADD PUSH2 0x4F0F JUMP JUMPDEST SWAP2 POP POP SWAP3 SWAP2 POP POP JUMP JUMPDEST PUSH1 0x0 DUP1 PUSH1 0x40 DUP4 DUP6 SUB SLT ISZERO PUSH2 0x4F96 JUMPI PUSH2 0x4F95 PUSH2 0x490D JUMP JUMPDEST JUMPDEST PUSH1 0x0 DUP4 ADD CALLDATALOAD PUSH8 0xFFFFFFFFFFFFFFFF DUP2 GT ISZERO PUSH2 0x4FB4 JUMPI PUSH2 0x4FB3 PUSH2 0x4912 JUMP JUMPDEST JUMPDEST PUSH2 0x4FC0 DUP6 DUP3 DUP7 ADD PUSH2 0x4E2E JUMP JUMPDEST SWAP3 POP POP PUSH1 0x20 DUP4 ADD CALLDATALOAD PUSH8 0xFFFFFFFFFFFFFFFF DUP2 GT ISZERO PUSH2 0x4FE1 JUMPI PUSH2 0x4FE0 PUSH2 0x4912 JUMP JUMPDEST JUMPDEST PUSH2 0x4FED DUP6 DUP3 DUP7 ADD PUSH2 0x4F51 JUMP JUMPDEST SWAP2 POP POP SWAP3 POP SWAP3 SWAP1 POP JUMP JUMPDEST PUSH1 0x0 PUSH1 0x60 DUP3 DUP5 SUB SLT ISZERO PUSH2 0x500D JUMPI PUSH2 0x500C PUSH2 0x4CA6 JUMP JUMPDEST JUMPDEST PUSH2 0x5017 PUSH1 0x60 PUSH2 0x4D0B JUMP JUMPDEST SWAP1 POP PUSH1 0x0 PUSH2 0x5027 DUP5 DUP3 DUP6 ADD PUSH2 0x4B3F JUMP JUMPDEST PUSH1 0x0 DUP4 ADD MSTORE POP PUSH1 0x20 PUSH2 0x503B DUP5 DUP3 DUP6 ADD PUSH2 0x4B3F JUMP JUMPDEST PUSH1 0x20 DUP4 ADD MSTORE POP PUSH1 0x40 PUSH2 0x504F DUP5 DUP3 DUP6 ADD PUSH2 0x4E19 JUMP JUMPDEST PUSH1 0x40 DUP4 ADD MSTORE POP SWAP3 SWAP2 POP POP JUMP JUMPDEST PUSH1 0x0 DUP1 PUSH1 0x80 DUP4 DUP6 SUB SLT ISZERO PUSH2 0x5072 JUMPI PUSH2 0x5071 PUSH2 0x490D JUMP JUMPDEST JUMPDEST PUSH1 0x0 PUSH2 0x5080 DUP6 DUP3 DUP7 ADD PUSH2 0x4FF7 JUMP JUMPDEST SWAP3 POP POP PUSH1 0x60 DUP4 ADD CALLDATALOAD PUSH8 0xFFFFFFFFFFFFFFFF DUP2 GT ISZERO PUSH2 0x50A1 JUMPI PUSH2 0x50A0 PUSH2 0x4912 JUMP JUMPDEST JUMPDEST PUSH2 0x50AD DUP6 DUP3 DUP7 ADD PUSH2 0x4F51 JUMP JUMPDEST SWAP2 POP POP SWAP3 POP SWAP3 SWAP1 POP JUMP JUMPDEST PUSH1 0x0 PUSH1 0x20 DUP3 DUP5 SUB SLT ISZERO PUSH2 0x50CD JUMPI PUSH2 0x50CC PUSH2 0x490D JUMP JUMPDEST JUMPDEST PUSH1 0x0 PUSH2 0x50DB DUP5 DUP3 DUP6 ADD PUSH2 0x4BD4 JUMP JUMPDEST SWAP2 POP POP SWAP3 SWAP2 POP POP JUMP JUMPDEST PUSH1 0x0 DUP1 PUSH1 0x0 DUP1 PUSH1 0x80 DUP6 DUP8 SUB SLT ISZERO PUSH2 0x50FE JUMPI PUSH2 0x50FD PUSH2 0x490D JUMP JUMPDEST JUMPDEST PUSH1 0x0 PUSH2 0x510C DUP8 DUP3 DUP9 ADD PUSH2 0x4BD4 JUMP JUMPDEST SWAP5 POP POP PUSH1 0x20 PUSH2 0x511D DUP8 DUP3 DUP9 ADD PUSH2 0x4BD4 JUMP JUMPDEST SWAP4 POP POP PUSH1 0x40 PUSH2 0x512E DUP8 DUP3 DUP9 ADD PUSH2 0x4BD4 JUMP JUMPDEST SWAP3 POP POP PUSH1 0x60 PUSH2 0x513F DUP8 DUP3 DUP9 ADD PUSH2 0x4BD4 JUMP JUMPDEST SWAP2 POP POP SWAP3 SWAP6 SWAP2 SWAP5 POP SWAP3 POP JUMP JUMPDEST PUSH1 0x0 PUSH8 0xFFFFFFFFFFFFFFFF DUP3 GT ISZERO PUSH2 0x5166 JUMPI PUSH2 0x5165 PUSH2 0x4CAB JUMP JUMPDEST JUMPDEST PUSH2 0x516F DUP3 PUSH2 0x4AB2 JUMP JUMPDEST SWAP1 POP PUSH1 0x20 DUP2 ADD SWAP1 POP SWAP2 SWAP1 POP JUMP JUMPDEST PUSH1 0x0 PUSH2 0x518F PUSH2 0x518A DUP5 PUSH2 0x514B JUMP JUMPDEST PUSH2 0x4D0B JUMP JUMPDEST SWAP1 POP DUP3 DUP2 MSTORE PUSH1 0x20 DUP2 ADD DUP5 DUP5 DUP5 ADD GT ISZERO PUSH2 0x51AB JUMPI PUSH2 0x51AA PUSH2 0x4ECA JUMP JUMPDEST JUMPDEST PUSH2 0x51B6 DUP5 DUP3 DUP6 PUSH2 0x4F00 JUMP JUMPDEST POP SWAP4 SWAP3 POP POP POP JUMP JUMPDEST PUSH1 0x0 DUP3 PUSH1 0x1F DUP4 ADD SLT PUSH2 0x51D3 JUMPI PUSH2 0x51D2 PUSH2 0x4D2B JUMP JUMPDEST JUMPDEST DUP2 CALLDATALOAD PUSH2 0x51E3 DUP5 DUP3 PUSH1 0x20 DUP7 ADD PUSH2 0x517C JUMP JUMPDEST SWAP2 POP POP SWAP3 SWAP2 POP POP JUMP JUMPDEST PUSH1 0x0 DUP1 PUSH1 0x40 DUP4 DUP6 SUB SLT ISZERO PUSH2 0x5203 JUMPI PUSH2 0x5202 PUSH2 0x490D JUMP JUMPDEST JUMPDEST PUSH1 0x0 DUP4 ADD CALLDATALOAD PUSH8 0xFFFFFFFFFFFFFFFF DUP2 GT ISZERO PUSH2 0x5221 JUMPI PUSH2 0x5220 PUSH2 0x4912 JUMP JUMPDEST JUMPDEST PUSH2 0x522D DUP6 DUP3 DUP7 ADD PUSH2 0x51BE JUMP JUMPDEST SWAP3 POP POP PUSH1 0x20 DUP4 ADD CALLDATALOAD PUSH8 0xFFFFFFFFFFFFFFFF DUP2 GT ISZERO PUSH2 0x524E JUMPI PUSH2 0x524D PUSH2 0x4912 JUMP JUMPDEST JUMPDEST PUSH2 0x525A DUP6 DUP3 DUP7 ADD PUSH2 0x51BE JUMP JUMPDEST SWAP2 POP POP SWAP3 POP SWAP3 SWAP1 POP JUMP JUMPDEST PUSH2 0x526D DUP2 PUSH2 0x499C JUMP JUMPDEST DUP2 EQ PUSH2 0x5278 JUMPI PUSH1 0x0 DUP1 REVERT JUMPDEST POP JUMP JUMPDEST PUSH1 0x0 DUP2 CALLDATALOAD SWAP1 POP PUSH2 0x528A DUP2 PUSH2 0x5264 JUMP JUMPDEST SWAP3 SWAP2 POP POP JUMP JUMPDEST PUSH1 0x0 DUP1 PUSH1 0x40 DUP4 DUP6 SUB SLT ISZERO PUSH2 0x52A7 JUMPI PUSH2 0x52A6 PUSH2 0x490D JUMP JUMPDEST JUMPDEST PUSH1 0x0 PUSH2 0x52B5 DUP6 DUP3 DUP7 ADD PUSH2 0x4BD4 JUMP JUMPDEST SWAP3 POP POP PUSH1 0x20 PUSH2 0x52C6 DUP6 DUP3 DUP7 ADD PUSH2 0x527B JUMP JUMPDEST SWAP2 POP POP SWAP3 POP SWAP3 SWAP1 POP JUMP JUMPDEST PUSH1 0x0 DUP1 PUSH1 0x0 DUP1 PUSH1 0x80 DUP6 DUP8 SUB SLT ISZERO PUSH2 0x52EA JUMPI PUSH2 0x52E9 PUSH2 0x490D JUMP JUMPDEST JUMPDEST PUSH1 0x0 PUSH2 0x52F8 DUP8 DUP3 DUP9 ADD PUSH2 0x4BD4 JUMP JUMPDEST SWAP5 POP POP PUSH1 0x20 PUSH2 0x5309 DUP8 DUP3 DUP9 ADD PUSH2 0x4BD4 JUMP JUMPDEST SWAP4 POP POP PUSH1 0x40 PUSH2 0x531A DUP8 DUP3 DUP9 ADD PUSH2 0x4B3F JUMP JUMPDEST SWAP3 POP POP PUSH1 0x60 DUP6 ADD CALLDATALOAD PUSH8 0xFFFFFFFFFFFFFFFF DUP2 GT ISZERO PUSH2 0x533B JUMPI PUSH2 0x533A PUSH2 0x4912 JUMP JUMPDEST JUMPDEST PUSH2 0x5347 DUP8 DUP3 DUP9 ADD PUSH2 0x4F51 JUMP JUMPDEST SWAP2 POP POP SWAP3 SWAP6 SWAP2 SWAP5 POP SWAP3 POP JUMP JUMPDEST PUSH1 0x0 PUSH1 0x40 DUP3 DUP5 SUB SLT ISZERO PUSH2 0x5369 JUMPI PUSH2 0x5368 PUSH2 0x4CA6 JUMP JUMPDEST JUMPDEST PUSH2 0x5373 PUSH1 0x40 PUSH2 0x4D0B JUMP JUMPDEST SWAP1 POP PUSH1 0x0 PUSH2 0x5383 DUP5 DUP3 DUP6 ADD PUSH2 0x4B3F JUMP JUMPDEST PUSH1 0x0 DUP4 ADD MSTORE POP PUSH1 0x20 PUSH2 0x5397 DUP5 DUP3 DUP6 ADD PUSH2 0x4E19 JUMP JUMPDEST PUSH1 0x20 DUP4 ADD MSTORE POP SWAP3 SWAP2 POP POP JUMP JUMPDEST PUSH1 0x0 DUP1 PUSH1 0x60 DUP4 DUP6 SUB SLT ISZERO PUSH2 0x53BA JUMPI PUSH2 0x53B9 PUSH2 0x490D JUMP JUMPDEST JUMPDEST PUSH1 0x0 PUSH2 0x53C8 DUP6 DUP3 DUP7 ADD PUSH2 0x5353 JUMP JUMPDEST SWAP3 POP POP PUSH1 0x40 DUP4 ADD CALLDATALOAD PUSH8 0xFFFFFFFFFFFFFFFF DUP2 GT ISZERO PUSH2 0x53E9 JUMPI PUSH2 0x53E8 PUSH2 0x4912 JUMP JUMPDEST JUMPDEST PUSH2 0x53F5 DUP6 DUP3 DUP7 ADD PUSH2 0x4F51 JUMP JUMPDEST SWAP2 POP POP SWAP3 POP SWAP3 SWAP1 POP JUMP JUMPDEST PUSH1 0x0 PUSH1 0x80 DUP3 DUP5 SUB SLT ISZERO PUSH2 0x5415 JUMPI PUSH2 0x5414 PUSH2 0x4CA6 JUMP JUMPDEST JUMPDEST PUSH2 0x541F PUSH1 0x80 PUSH2 0x4D0B JUMP JUMPDEST SWAP1 POP PUSH1 0x0 PUSH2 0x542F DUP5 DUP3 DUP6 ADD PUSH2 0x4B3F JUMP JUMPDEST PUSH1 0x0 DUP4 ADD MSTORE POP PUSH1 0x20 PUSH2 0x5443 DUP5 DUP3 DUP6 ADD PUSH2 0x4BD4 JUMP JUMPDEST PUSH1 0x20 DUP4 ADD MSTORE POP PUSH1 0x40 PUSH2 0x5457 DUP5 DUP3 DUP6 ADD PUSH2 0x4B3F JUMP JUMPDEST PUSH1 0x40 DUP4 ADD MSTORE POP PUSH1 0x60 PUSH2 0x546B DUP5 DUP3 DUP6 ADD PUSH2 0x4E19 JUMP JUMPDEST PUSH1 0x60 DUP4 ADD MSTORE POP SWAP3 SWAP2 POP POP JUMP JUMPDEST PUSH1 0x0 DUP1 PUSH1 0xA0 DUP4 DUP6 SUB SLT ISZERO PUSH2 0x548E JUMPI PUSH2 0x548D PUSH2 0x490D JUMP JUMPDEST JUMPDEST PUSH1 0x0 PUSH2 0x549C DUP6 DUP3 DUP7 ADD PUSH2 0x53FF JUMP JUMPDEST SWAP3 POP POP PUSH1 0x80 DUP4 ADD CALLDATALOAD PUSH8 0xFFFFFFFFFFFFFFFF DUP2 GT ISZERO PUSH2 0x54BD JUMPI PUSH2 0x54BC PUSH2 0x4912 JUMP JUMPDEST JUMPDEST PUSH2 0x54C9 DUP6 DUP3 DUP7 ADD PUSH2 0x4F51 JUMP JUMPDEST SWAP2 POP POP SWAP3 POP SWAP3 SWAP1 POP JUMP JUMPDEST PUSH1 0x0 PUSH1 0x20 DUP3 DUP5 SUB SLT ISZERO PUSH2 0x54E9 JUMPI PUSH2 0x54E8 PUSH2 0x490D JUMP JUMPDEST JUMPDEST PUSH1 0x0 DUP3 ADD CALLDATALOAD PUSH8 0xFFFFFFFFFFFFFFFF DUP2 GT ISZERO PUSH2 0x5507 JUMPI PUSH2 0x5506 PUSH2 0x4912 JUMP JUMPDEST JUMPDEST PUSH2 0x5513 DUP5 DUP3 DUP6 ADD PUSH2 0x4F51 JUMP JUMPDEST SWAP2 POP POP SWAP3 SWAP2 POP POP JUMP JUMPDEST PUSH1 0x0 PUSH2 0x5527 DUP3 PUSH2 0x4A1E JUMP JUMPDEST SWAP1 POP SWAP2 SWAP1 POP JUMP JUMPDEST PUSH2 0x5537 DUP2 PUSH2 0x551C JUMP JUMPDEST DUP3 MSTORE POP POP JUMP JUMPDEST PUSH1 0x0 PUSH1 0x20 DUP3 ADD SWAP1 POP PUSH2 0x5552 PUSH1 0x0 DUP4 ADD DUP5 PUSH2 0x552E JUMP JUMPDEST SWAP3 SWAP2 POP POP JUMP JUMPDEST PUSH1 0x0 DUP1 PUSH1 0x40 DUP4 DUP6 SUB SLT ISZERO PUSH2 0x556F JUMPI PUSH2 0x556E PUSH2 0x490D JUMP JUMPDEST JUMPDEST PUSH1 0x0 PUSH2 0x557D DUP6 DUP3 DUP7 ADD PUSH2 0x4BD4 JUMP JUMPDEST SWAP3 POP POP PUSH1 0x20 PUSH2 0x558E DUP6 DUP3 DUP7 ADD PUSH2 0x4BD4 JUMP JUMPDEST SWAP2 POP POP SWAP3 POP SWAP3 SWAP1 POP JUMP JUMPDEST PUSH32 0x4E487B7100000000000000000000000000000000000000000000000000000000 PUSH1 0x0 MSTORE PUSH1 0x22 PUSH1 0x4 MSTORE PUSH1 0x24 PUSH1 0x0 REVERT JUMPDEST PUSH1 0x0 PUSH1 0x2 DUP3 DIV SWAP1 POP PUSH1 0x1 DUP3 AND DUP1 PUSH2 0x55DF JUMPI PUSH1 0x7F DUP3 AND SWAP2 POP JUMPDEST PUSH1 0x20 DUP3 LT DUP2 SUB PUSH2 0x55F2 JUMPI PUSH2 0x55F1 PUSH2 0x5598 JUMP JUMPDEST JUMPDEST POP SWAP2 SWAP1 POP JUMP JUMPDEST PUSH32 0x4552433732313A20617070726F76616C20746F2063757272656E74206F776E65 PUSH1 0x0 DUP3 ADD MSTORE PUSH32 0x7200000000000000000000000000000000000000000000000000000000000000 PUSH1 0x20 DUP3 ADD MSTORE POP JUMP JUMPDEST PUSH1 0x0 PUSH2 0x5654 PUSH1 0x21 DUP4 PUSH2 0x4A77 JUMP JUMPDEST SWAP2 POP PUSH2 0x565F DUP3 PUSH2 0x55F8 JUMP JUMPDEST PUSH1 0x40 DUP3 ADD SWAP1 POP SWAP2 SWAP1 POP JUMP JUMPDEST PUSH1 0x0 PUSH1 0x20 DUP3 ADD SWAP1 POP DUP2 DUP2 SUB PUSH1 0x0 DUP4 ADD MSTORE PUSH2 0x5683 DUP2 PUSH2 0x5647 JUMP JUMPDEST SWAP1 POP SWAP2 SWAP1 POP JUMP JUMPDEST PUSH32 0x4552433732313A20617070726F76652063616C6C6572206973206E6F7420746F PUSH1 0x0 DUP3 ADD MSTORE PUSH32 0x6B656E206F776E6572206F7220617070726F76656420666F7220616C6C000000 PUSH1 0x20 DUP3 ADD MSTORE POP JUMP JUMPDEST PUSH1 0x0 PUSH2 0x56E6 PUSH1 0x3D DUP4 PUSH2 0x4A77 JUMP JUMPDEST SWAP2 POP PUSH2 0x56F1 DUP3 PUSH2 0x568A JUMP JUMPDEST PUSH1 0x40 DUP3 ADD SWAP1 POP SWAP2 SWAP1 POP JUMP JUMPDEST PUSH1 0x0 PUSH1 0x20 DUP3 ADD SWAP1 POP DUP2 DUP2 SUB PUSH1 0x0 DUP4 ADD MSTORE PUSH2 0x5715 DUP2 PUSH2 0x56D9 JUMP JUMPDEST SWAP1 POP SWAP2 SWAP1 POP JUMP JUMPDEST PUSH32 0x4552433732313A2063616C6C6572206973206E6F7420746F6B656E206F776E65 PUSH1 0x0 DUP3 ADD MSTORE PUSH32 0x72206F7220617070726F76656400000000000000000000000000000000000000 PUSH1 0x20 DUP3 ADD MSTORE POP JUMP JUMPDEST PUSH1 0x0 PUSH2 0x5778 PUSH1 0x2D DUP4 PUSH2 0x4A77 JUMP JUMPDEST SWAP2 POP PUSH2 0x5783 DUP3 PUSH2 0x571C JUMP JUMPDEST PUSH1 0x40 DUP3 ADD SWAP1 POP SWAP2 SWAP1 POP JUMP JUMPDEST PUSH1 0x0 PUSH1 0x20 DUP3 ADD SWAP1 POP DUP2 DUP2 SUB PUSH1 0x0 DUP4 ADD MSTORE PUSH2 0x57A7 DUP2 PUSH2 0x576B JUMP JUMPDEST SWAP1 POP SWAP2 SWAP1 POP JUMP JUMPDEST PUSH1 0x0 DUP2 MLOAD SWAP1 POP PUSH2 0x57BD DUP2 PUSH2 0x4B28 JUMP JUMPDEST SWAP3 SWAP2 POP POP JUMP JUMPDEST PUSH1 0x0 PUSH1 0x20 DUP3 DUP5 SUB SLT ISZERO PUSH2 0x57D9 JUMPI PUSH2 0x57D8 PUSH2 0x490D JUMP JUMPDEST JUMPDEST PUSH1 0x0 PUSH2 0x57E7 DUP5 DUP3 DUP6 ADD PUSH2 0x57AE JUMP JUMPDEST SWAP2 POP POP SWAP3 SWAP2 POP POP JUMP JUMPDEST PUSH32 0x4E487B7100000000000000000000000000000000000000000000000000000000 PUSH1 0x0 MSTORE PUSH1 0x11 PUSH1 0x4 MSTORE PUSH1 0x24 PUSH1 0x0 REVERT JUMPDEST PUSH1 0x0 PUSH2 0x582A DUP3 PUSH2 0x4B1E JUMP JUMPDEST SWAP2 POP PUSH2 0x5835 DUP4 PUSH2 0x4B1E JUMP JUMPDEST SWAP3 POP DUP2 PUSH32 0xFFFFFFFFFFFFFFFFFFFFFFFFFFFFFFFFFFFFFFFFFFFFFFFFFFFFFFFFFFFFFFFF DIV DUP4 GT DUP3 ISZERO ISZERO AND ISZERO PUSH2 0x586E JUMPI PUSH2 0x586D PUSH2 0x57F0 JUMP JUMPDEST JUMPDEST DUP3 DUP3 MUL SWAP1 POP SWAP3 SWAP2 POP POP JUMP JUMPDEST PUSH32 0x4E487B7100000000000000000000000000000000000000000000000000000000 PUSH1 0x0 MSTORE PUSH1 0x12 PUSH1 0x4 MSTORE PUSH1 0x24 PUSH1 0x0 REVERT JUMPDEST PUSH1 0x0 PUSH2 0x58B3 DUP3 PUSH2 0x4B1E JUMP JUMPDEST SWAP2 POP PUSH2 0x58BE DUP4 PUSH2 0x4B1E JUMP JUMPDEST SWAP3 POP DUP3 PUSH2 0x58CE JUMPI PUSH2 0x58CD PUSH2 0x5879 JUMP JUMPDEST JUMPDEST DUP3 DUP3 DIV SWAP1 POP SWAP3 SWAP2 POP POP JUMP JUMPDEST PUSH32 0x4552433732313A20696E76616C696420746F6B656E2049440000000000000000 PUSH1 0x0 DUP3 ADD MSTORE POP JUMP JUMPDEST PUSH1 0x0 PUSH2 0x590F PUSH1 0x18 DUP4 PUSH2 0x4A77 JUMP JUMPDEST SWAP2 POP PUSH2 0x591A DUP3 PUSH2 0x58D9 JUMP JUMPDEST PUSH1 0x20 DUP3 ADD SWAP1 POP SWAP2 SWAP1 POP JUMP JUMPDEST PUSH1 0x0 PUSH1 0x20 DUP3 ADD SWAP1 POP DUP2 DUP2 SUB PUSH1 0x0 DUP4 ADD MSTORE PUSH2 0x593E DUP2 PUSH2 0x5902 JUMP JUMPDEST SWAP1 POP SWAP2 SWAP1 POP JUMP JUMPDEST PUSH1 0x0 DUP2 MLOAD SWAP1 POP SWAP2 SWAP1 POP JUMP JUMPDEST PUSH1 0x0 DUP2 SWAP1 POP SWAP3 SWAP2 POP POP JUMP JUMPDEST PUSH1 0x0 PUSH2 0x5966 DUP3 PUSH2 0x5945 JUMP JUMPDEST PUSH2 0x5970 DUP2 DUP6 PUSH2 0x5950 JUMP JUMPDEST SWAP4 POP PUSH2 0x5980 DUP2 DUP6 PUSH1 0x20 DUP7 ADD PUSH2 0x4A88 JUMP JUMPDEST DUP1 DUP5 ADD SWAP2 POP POP SWAP3 SWAP2 POP POP JUMP JUMPDEST PUSH1 0x0 PUSH2 0x5998 DUP3 DUP5 PUSH2 0x595B JUMP JUMPDEST SWAP2 POP DUP2 SWAP1 POP SWAP3 SWAP2 POP POP JUMP JUMPDEST PUSH1 0x0 DUP3 DUP3 MSTORE PUSH1 0x20 DUP3 ADD SWAP1 POP SWAP3 SWAP2 POP POP JUMP JUMPDEST PUSH1 0x0 PUSH2 0x59BF DUP3 PUSH2 0x5945 JUMP JUMPDEST PUSH2 0x59C9 DUP2 DUP6 PUSH2 0x59A3 JUMP JUMPDEST SWAP4 POP PUSH2 0x59D9 DUP2 DUP6 PUSH1 0x20 DUP7 ADD PUSH2 0x4A88 JUMP JUMPDEST PUSH2 0x59E2 DUP2 PUSH2 0x4AB2 JUMP JUMPDEST DUP5 ADD SWAP2 POP POP SWAP3 SWAP2 POP POP JUMP JUMPDEST PUSH1 0x0 PUSH1 0x20 DUP3 ADD SWAP1 POP DUP2 DUP2 SUB PUSH1 0x0 DUP4 ADD MSTORE PUSH2 0x5A07 DUP2 DUP5 PUSH2 0x59B4 JUMP JUMPDEST SWAP1 POP SWAP3 SWAP2 POP POP JUMP JUMPDEST PUSH1 0x0 DUP2 MLOAD SWAP1 POP PUSH2 0x5A1E DUP2 PUSH2 0x5264 JUMP JUMPDEST SWAP3 SWAP2 POP POP JUMP JUMPDEST PUSH1 0x0 PUSH1 0x20 DUP3 DUP5 SUB SLT ISZERO PUSH2 0x5A3A JUMPI PUSH2 0x5A39 PUSH2 0x490D JUMP JUMPDEST JUMPDEST PUSH1 0x0 PUSH2 0x5A48 DUP5 DUP3 DUP6 ADD PUSH2 0x5A0F JUMP JUMPDEST SWAP2 POP POP SWAP3 SWAP2 POP POP JUMP JUMPDEST PUSH32 0x436F6E7374727563744552433732313A204E6F7420616C6C6F77656400000000 PUSH1 0x0 DUP3 ADD MSTORE POP JUMP JUMPDEST PUSH1 0x0 PUSH2 0x5A87 PUSH1 0x1C DUP4 PUSH2 0x4A77 JUMP JUMPDEST SWAP2 POP PUSH2 0x5A92 DUP3 PUSH2 0x5A51 JUMP JUMPDEST PUSH1 0x20 DUP3 ADD SWAP1 POP SWAP2 SWAP1 POP JUMP JUMPDEST PUSH1 0x0 PUSH1 0x20 DUP3 ADD SWAP1 POP DUP2 DUP2 SUB PUSH1 0x0 DUP4 ADD MSTORE PUSH2 0x5AB6 DUP2 PUSH2 0x5A7A JUMP JUMPDEST SWAP1 POP SWAP2 SWAP1 POP JUMP JUMPDEST PUSH32 0x4E487B7100000000000000000000000000000000000000000000000000000000 PUSH1 0x0 MSTORE PUSH1 0x32 PUSH1 0x4 MSTORE PUSH1 0x24 PUSH1 0x0 REVERT JUMPDEST PUSH32 0x436F6E7374727563744552433732313A20416C726561647920736F6C64000000 PUSH1 0x0 DUP3 ADD MSTORE POP JUMP JUMPDEST PUSH1 0x0 PUSH2 0x5B22 PUSH1 0x1D DUP4 PUSH2 0x4A77 JUMP JUMPDEST SWAP2 POP PUSH2 0x5B2D DUP3 PUSH2 0x5AEC JUMP JUMPDEST PUSH1 0x20 DUP3 ADD SWAP1 POP SWAP2 SWAP1 POP JUMP JUMPDEST PUSH1 0x0 PUSH1 0x20 DUP3 ADD SWAP1 POP DUP2 DUP2 SUB PUSH1 0x0 DUP4 ADD MSTORE PUSH2 0x5B51 DUP2 PUSH2 0x5B15 JUMP JUMPDEST SWAP1 POP SWAP2 SWAP1 POP JUMP JUMPDEST PUSH1 0x0 PUSH2 0x5B63 DUP3 PUSH2 0x4B1E JUMP JUMPDEST SWAP2 POP PUSH2 0x5B6E DUP4 PUSH2 0x4B1E JUMP JUMPDEST SWAP3 POP DUP3 DUP3 ADD SWAP1 POP DUP1 DUP3 GT ISZERO PUSH2 0x5B86 JUMPI PUSH2 0x5B85 PUSH2 0x57F0 JUMP JUMPDEST JUMPDEST SWAP3 SWAP2 POP POP JUMP JUMPDEST PUSH1 0x0 PUSH2 0x5B97 DUP3 PUSH2 0x4B1E JUMP JUMPDEST SWAP2 POP PUSH32 0xFFFFFFFFFFFFFFFFFFFFFFFFFFFFFFFFFFFFFFFFFFFFFFFFFFFFFFFFFFFFFFFF DUP3 SUB PUSH2 0x5BC9 JUMPI PUSH2 0x5BC8 PUSH2 0x57F0 JUMP JUMPDEST JUMPDEST PUSH1 0x1 DUP3 ADD SWAP1 POP SWAP2 SWAP1 POP JUMP JUMPDEST PUSH1 0x0 DUP2 MLOAD SWAP1 POP SWAP2 SWAP1 POP JUMP JUMPDEST PUSH1 0x0 DUP3 DUP3 MSTORE PUSH1 0x20 DUP3 ADD SWAP1 POP SWAP3 SWAP2 POP POP JUMP JUMPDEST PUSH1 0x0 DUP2 SWAP1 POP PUSH1 0x20 DUP3 ADD SWAP1 POP SWAP2 SWAP1 POP JUMP JUMPDEST PUSH2 0x5C09 DUP2 PUSH2 0x4B1E JUMP JUMPDEST DUP3 MSTORE POP POP JUMP JUMPDEST PUSH1 0x0 PUSH2 0x5C1B DUP4 DUP4 PUSH2 0x5C00 JUMP JUMPDEST PUSH1 0x20 DUP4 ADD SWAP1 POP SWAP3 SWAP2 POP POP JUMP JUMPDEST PUSH1 0x0 PUSH1 0x20 DUP3 ADD SWAP1 POP SWAP2 SWAP1 POP JUMP JUMPDEST PUSH1 0x0 PUSH2 0x5C3F DUP3 PUSH2 0x5BD4 JUMP JUMPDEST PUSH2 0x5C49 DUP2 DUP6 PUSH2 0x5BDF JUMP JUMPDEST SWAP4 POP PUSH2 0x5C54 DUP4 PUSH2 0x5BF0 JUMP JUMPDEST DUP1 PUSH1 0x0 JUMPDEST DUP4 DUP2 LT ISZERO PUSH2 0x5C85 JUMPI DUP2 MLOAD PUSH2 0x5C6C DUP9 DUP3 PUSH2 0x5C0F JUMP JUMPDEST SWAP8 POP PUSH2 0x5C77 DUP4 PUSH2 0x5C27 JUMP JUMPDEST SWAP3 POP POP PUSH1 0x1 DUP2 ADD SWAP1 POP PUSH2 0x5C58 JUMP JUMPDEST POP DUP6 SWAP4 POP POP POP POP SWAP3 SWAP2 POP POP JUMP JUMPDEST PUSH32 0x434F4E5354525543540000000000000000000000000000000000000000000000 PUSH1 0x0 DUP3 ADD MSTORE POP JUMP JUMPDEST PUSH1 0x0 PUSH2 0x5CC8 PUSH1 0x9 DUP4 PUSH2 0x4A77 JUMP JUMPDEST SWAP2 POP PUSH2 0x5CD3 DUP3 PUSH2 0x5C92 JUMP JUMPDEST PUSH1 0x20 DUP3 ADD SWAP1 POP SWAP2 SWAP1 POP JUMP JUMPDEST PUSH1 0x0 PUSH1 0x40 DUP3 ADD SWAP1 POP DUP2 DUP2 SUB PUSH1 0x0 DUP4 ADD MSTORE PUSH2 0x5CF8 DUP2 DUP5 PUSH2 0x5C34 JUMP JUMPDEST SWAP1 POP DUP2 DUP2 SUB PUSH1 0x20 DUP4 ADD MSTORE PUSH2 0x5D0B DUP2 PUSH2 0x5CBB JUMP JUMPDEST SWAP1 POP SWAP3 SWAP2 POP POP JUMP JUMPDEST PUSH1 0x0 DUP2 SLOAD SWAP1 POP SWAP2 SWAP1 POP JUMP JUMPDEST PUSH1 0x0 DUP2 SWAP1 POP DUP2 PUSH1 0x0 MSTORE PUSH1 0x20 PUSH1 0x0 KECCAK256 SWAP1 POP SWAP2 SWAP1 POP JUMP JUMPDEST PUSH1 0x0 DUP2 PUSH1 0x0 SHR SWAP1 POP SWAP2 SWAP1 POP JUMP JUMPDEST PUSH1 0x0 DUP2 SWAP1 POP SWAP2 SWAP1 POP JUMP JUMPDEST PUSH1 0x0 PUSH2 0x5D5D PUSH2 0x5D58 DUP4 PUSH2 0x5D33 JUMP JUMPDEST PUSH2 0x5D40 JUMP JUMPDEST SWAP1 POP SWAP2 SWAP1 POP JUMP JUMPDEST PUSH1 0x0 PUSH2 0x5D70 DUP3 SLOAD PUSH2 0x5D4A JUMP JUMPDEST SWAP1 POP SWAP2 SWAP1 POP JUMP JUMPDEST PUSH1 0x0 PUSH1 0x1 DUP3 ADD SWAP1 POP SWAP2 SWAP1 POP JUMP JUMPDEST PUSH1 0x0 PUSH2 0x5D8F DUP3 PUSH2 0x5D13 JUMP JUMPDEST PUSH2 0x5D99 DUP2 DUP6 PUSH2 0x5BDF JUMP JUMPDEST SWAP4 POP PUSH2 0x5DA4 DUP4 PUSH2 0x5D1E JUMP JUMPDEST DUP1 PUSH1 0x0 JUMPDEST DUP4 DUP2 LT ISZERO PUSH2 0x5DDC JUMPI PUSH2 0x5DB9 DUP3 PUSH2 0x5D64 JUMP JUMPDEST PUSH2 0x5DC3 DUP9 DUP3 PUSH2 0x5C0F JUMP JUMPDEST SWAP8 POP PUSH2 0x5DCE DUP4 PUSH2 0x5D77 JUMP JUMPDEST SWAP3 POP POP PUSH1 0x1 DUP2 ADD SWAP1 POP PUSH2 0x5DA8 JUMP JUMPDEST POP DUP6 SWAP4 POP POP POP POP SWAP3 SWAP2 POP POP JUMP JUMPDEST PUSH1 0x0 PUSH1 0x80 DUP3 ADD SWAP1 POP PUSH2 0x5DFE PUSH1 0x0 DUP4 ADD DUP7 PUSH2 0x4B93 JUMP JUMPDEST DUP2 DUP2 SUB PUSH1 0x20 DUP4 ADD MSTORE PUSH2 0x5E10 DUP2 DUP6 PUSH2 0x5C34 JUMP JUMPDEST SWAP1 POP DUP2 DUP2 SUB PUSH1 0x40 DUP4 ADD MSTORE PUSH2 0x5E24 DUP2 DUP5 PUSH2 0x5D84 JUMP JUMPDEST SWAP1 POP DUP2 DUP2 SUB PUSH1 0x60 DUP4 ADD MSTORE PUSH2 0x5E37 DUP2 PUSH2 0x5CBB JUMP JUMPDEST SWAP1 POP SWAP5 SWAP4 POP POP POP POP JUMP JUMPDEST PUSH1 0x0 PUSH1 0x40 DUP3 ADD SWAP1 POP PUSH2 0x5E56 PUSH1 0x0 DUP4 ADD DUP6 PUSH2 0x4B93 JUMP JUMPDEST PUSH2 0x5E63 PUSH1 0x20 DUP4 ADD DUP5 PUSH2 0x4C7C JUMP JUMPDEST SWAP4 SWAP3 POP POP POP JUMP JUMPDEST PUSH1 0x0 PUSH1 0x80 DUP3 ADD SWAP1 POP PUSH2 0x5E7F PUSH1 0x0 DUP4 ADD DUP7 PUSH2 0x4B93 JUMP JUMPDEST PUSH2 0x5E8C PUSH1 0x20 DUP4 ADD DUP6 PUSH2 0x4C7C JUMP JUMPDEST PUSH2 0x5E99 PUSH1 0x40 DUP4 ADD DUP5 PUSH2 0x4C7C JUMP JUMPDEST DUP2 DUP2 SUB PUSH1 0x60 DUP4 ADD MSTORE PUSH2 0x5EAA DUP2 PUSH2 0x5CBB JUMP JUMPDEST SWAP1 POP SWAP5 SWAP4 POP POP POP POP JUMP JUMPDEST PUSH32 0x4552433732313A2061646472657373207A65726F206973206E6F742061207661 PUSH1 0x0 DUP3 ADD MSTORE PUSH32 0x6C6964206F776E65720000000000000000000000000000000000000000000000 PUSH1 0x20 DUP3 ADD MSTORE POP JUMP JUMPDEST PUSH1 0x0 PUSH2 0x5F10 PUSH1 0x29 DUP4 PUSH2 0x4A77 JUMP JUMPDEST SWAP2 POP PUSH2 0x5F1B DUP3 PUSH2 0x5EB4 JUMP JUMPDEST PUSH1 0x40 DUP3 ADD SWAP1 POP SWAP2 SWAP1 POP JUMP JUMPDEST PUSH1 0x0 PUSH1 0x20 DUP3 ADD SWAP1 POP DUP2 DUP2 SUB PUSH1 0x0 DUP4 ADD MSTORE PUSH2 0x5F3F DUP2 PUSH2 0x5F03 JUMP JUMPDEST SWAP1 POP SWAP2 SWAP1 POP JUMP JUMPDEST PUSH32 0x496E697469616C697A61626C653A20636F6E747261637420697320616C726561 PUSH1 0x0 DUP3 ADD MSTORE PUSH32 0x647920696E697469616C697A6564000000000000000000000000000000000000 PUSH1 0x20 DUP3 ADD MSTORE POP JUMP JUMPDEST PUSH1 0x0 PUSH2 0x5FA2 PUSH1 0x2E DUP4 PUSH2 0x4A77 JUMP JUMPDEST SWAP2 POP PUSH2 0x5FAD DUP3 PUSH2 0x5F46 JUMP JUMPDEST PUSH1 0x40 DUP3 ADD SWAP1 POP SWAP2 SWAP1 POP JUMP JUMPDEST PUSH1 0x0 PUSH1 0x20 DUP3 ADD SWAP1 POP DUP2 DUP2 SUB PUSH1 0x0 DUP4 ADD MSTORE PUSH2 0x5FD1 DUP2 PUSH2 0x5F95 JUMP JUMPDEST SWAP1 POP SWAP2 SWAP1 POP JUMP JUMPDEST PUSH1 0x0 DUP2 SWAP1 POP DUP2 PUSH1 0x0 MSTORE PUSH1 0x20 PUSH1 0x0 KECCAK256 SWAP1 POP SWAP2 SWAP1 POP JUMP JUMPDEST PUSH1 0x0 PUSH1 0x20 PUSH1 0x1F DUP4 ADD DIV SWAP1 POP SWAP2 SWAP1 POP JUMP JUMPDEST PUSH1 0x0 DUP3 DUP3 SHL SWAP1 POP SWAP3 SWAP2 POP POP JUMP JUMPDEST PUSH1 0x0 PUSH1 0x8 DUP4 MUL PUSH2 0x603A PUSH32 0xFFFFFFFFFFFFFFFFFFFFFFFFFFFFFFFFFFFFFFFFFFFFFFFFFFFFFFFFFFFFFFFF DUP3 PUSH2 0x5FFD JUMP JUMPDEST PUSH2 0x6044 DUP7 DUP4 PUSH2 0x5FFD JUMP JUMPDEST SWAP6 POP DUP1 NOT DUP5 AND SWAP4 POP DUP1 DUP7 AND DUP5 OR SWAP3 POP POP POP SWAP4 SWAP3 POP POP POP JUMP JUMPDEST PUSH1 0x0 PUSH2 0x6077 PUSH2 0x6072 PUSH2 0x606D DUP5 PUSH2 0x4B1E JUMP JUMPDEST PUSH2 0x49F2 JUMP JUMPDEST PUSH2 0x4B1E JUMP JUMPDEST SWAP1 POP SWAP2 SWAP1 POP JUMP JUMPDEST PUSH1 0x0 DUP2 SWAP1 POP SWAP2 SWAP1 POP JUMP JUMPDEST PUSH2 0x6091 DUP4 PUSH2 0x605C JUMP JUMPDEST PUSH2 0x60A5 PUSH2 0x609D DUP3 PUSH2 0x607E JUMP JUMPDEST DUP5 DUP5 SLOAD PUSH2 0x600A JUMP JUMPDEST DUP3 SSTORE POP POP POP POP JUMP JUMPDEST PUSH1 0x0 SWAP1 JUMP JUMPDEST PUSH2 0x60BA PUSH2 0x60AD JUMP JUMPDEST PUSH2 0x60C5 DUP2 DUP5 DUP5 PUSH2 0x6088 JUMP JUMPDEST POP POP POP JUMP JUMPDEST JUMPDEST DUP2 DUP2 LT ISZERO PUSH2 0x60E9 JUMPI PUSH2 0x60DE PUSH1 0x0 DUP3 PUSH2 0x60B2 JUMP JUMPDEST PUSH1 0x1 DUP2 ADD SWAP1 POP PUSH2 0x60CB JUMP JUMPDEST POP POP JUMP JUMPDEST PUSH1 0x1F DUP3 GT ISZERO PUSH2 0x612E JUMPI PUSH2 0x60FF DUP2 PUSH2 0x5FD8 JUMP JUMPDEST PUSH2 0x6108 DUP5 PUSH2 0x5FED JUMP JUMPDEST DUP2 ADD PUSH1 0x20 DUP6 LT ISZERO PUSH2 0x6117 JUMPI DUP2 SWAP1 POP JUMPDEST PUSH2 0x612B PUSH2 0x6123 DUP6 PUSH2 0x5FED JUMP JUMPDEST DUP4 ADD DUP3 PUSH2 0x60CA JUMP JUMPDEST POP POP JUMPDEST POP POP POP JUMP JUMPDEST PUSH1 0x0 DUP3 DUP3 SHR SWAP1 POP SWAP3 SWAP2 POP POP JUMP JUMPDEST PUSH1 0x0 PUSH2 0x6151 PUSH1 0x0 NOT DUP5 PUSH1 0x8 MUL PUSH2 0x6133 JUMP JUMPDEST NOT DUP1 DUP4 AND SWAP2 POP POP SWAP3 SWAP2 POP POP JUMP JUMPDEST PUSH1 0x0 PUSH2 0x616A DUP4 DUP4 PUSH2 0x6140 JUMP JUMPDEST SWAP2 POP DUP3 PUSH1 0x2 MUL DUP3 OR SWAP1 POP SWAP3 SWAP2 POP POP JUMP JUMPDEST PUSH2 0x6183 DUP3 PUSH2 0x4A6C JUMP JUMPDEST PUSH8 0xFFFFFFFFFFFFFFFF DUP2 GT ISZERO PUSH2 0x619C JUMPI PUSH2 0x619B PUSH2 0x4CAB JUMP JUMPDEST JUMPDEST PUSH2 0x61A6 DUP3 SLOAD PUSH2 0x55C7 JUMP JUMPDEST PUSH2 0x61B1 DUP3 DUP3 DUP6 PUSH2 0x60ED JUMP JUMPDEST PUSH1 0x0 PUSH1 0x20 SWAP1 POP PUSH1 0x1F DUP4 GT PUSH1 0x1 DUP2 EQ PUSH2 0x61E4 JUMPI PUSH1 0x0 DUP5 ISZERO PUSH2 0x61D2 JUMPI DUP3 DUP8 ADD MLOAD SWAP1 POP JUMPDEST PUSH2 0x61DC DUP6 DUP3 PUSH2 0x615E JUMP JUMPDEST DUP7 SSTORE POP PUSH2 0x6244 JUMP JUMPDEST PUSH1 0x1F NOT DUP5 AND PUSH2 0x61F2 DUP7 PUSH2 0x5FD8 JUMP JUMPDEST PUSH1 0x0 JUMPDEST DUP3 DUP2 LT ISZERO PUSH2 0x621A JUMPI DUP5 DUP10 ADD MLOAD DUP3 SSTORE PUSH1 0x1 DUP3 ADD SWAP2 POP PUSH1 0x20 DUP6 ADD SWAP5 POP PUSH1 0x20 DUP2 ADD SWAP1 POP PUSH2 0x61F5 JUMP JUMPDEST DUP7 DUP4 LT ISZERO PUSH2 0x6237 JUMPI DUP5 DUP10 ADD MLOAD PUSH2 0x6233 PUSH1 0x1F DUP10 AND DUP3 PUSH2 0x6140 JUMP JUMPDEST DUP4 SSTORE POP JUMPDEST PUSH1 0x1 PUSH1 0x2 DUP9 MUL ADD DUP9 SSTORE POP POP POP JUMPDEST POP POP POP POP POP POP JUMP JUMPDEST PUSH1 0x0 DUP2 SWAP1 POP SWAP2 SWAP1 POP JUMP JUMPDEST PUSH1 0x0 PUSH1 0xFF DUP3 AND SWAP1 POP SWAP2 SWAP1 POP JUMP JUMPDEST PUSH1 0x0 PUSH2 0x627E PUSH2 0x6279 PUSH2 0x6274 DUP5 PUSH2 0x624C JUMP JUMPDEST PUSH2 0x49F2 JUMP JUMPDEST PUSH2 0x6256 JUMP JUMPDEST SWAP1 POP SWAP2 SWAP1 POP JUMP JUMPDEST PUSH2 0x628E DUP2 PUSH2 0x6263 JUMP JUMPDEST DUP3 MSTORE POP POP JUMP JUMPDEST PUSH1 0x0 PUSH1 0x20 DUP3 ADD SWAP1 POP PUSH2 0x62A9 PUSH1 0x0 DUP4 ADD DUP5 PUSH2 0x6285 JUMP JUMPDEST SWAP3 SWAP2 POP POP JUMP JUMPDEST PUSH32 0x436F6E7374727563744552433732313A204E6F74206C69737465640000000000 PUSH1 0x0 DUP3 ADD MSTORE POP JUMP JUMPDEST PUSH1 0x0 PUSH2 0x62E5 PUSH1 0x1B DUP4 PUSH2 0x4A77 JUMP JUMPDEST SWAP2 POP PUSH2 0x62F0 DUP3 PUSH2 0x62AF JUMP JUMPDEST PUSH1 0x20 DUP3 ADD SWAP1 POP SWAP2 SWAP1 POP JUMP JUMPDEST PUSH1 0x0 PUSH1 0x20 DUP3 ADD SWAP1 POP DUP2 DUP2 SUB PUSH1 0x0 DUP4 ADD MSTORE PUSH2 0x6314 DUP2 PUSH2 0x62D8 JUMP JUMPDEST SWAP1 POP SWAP2 SWAP1 POP JUMP JUMPDEST PUSH32 0x436F6E7374727563744552433732313A205072697A6520697320696E636F7272 PUSH1 0x0 DUP3 ADD MSTORE PUSH32 0x656374206F7220696E76616C6964000000000000000000000000000000000000 PUSH1 0x20 DUP3 ADD MSTORE POP JUMP JUMPDEST PUSH1 0x0 PUSH2 0x6377 PUSH1 0x2E DUP4 PUSH2 0x4A77 JUMP JUMPDEST SWAP2 POP PUSH2 0x6382 DUP3 PUSH2 0x631B JUMP JUMPDEST PUSH1 0x40 DUP3 ADD SWAP1 POP SWAP2 SWAP1 POP JUMP JUMPDEST PUSH1 0x0 PUSH1 0x20 DUP3 ADD SWAP1 POP DUP2 DUP2 SUB PUSH1 0x0 DUP4 ADD MSTORE PUSH2 0x63A6 DUP2 PUSH2 0x636A JUMP JUMPDEST SWAP1 POP SWAP2 SWAP1 POP JUMP JUMPDEST PUSH1 0x0 PUSH2 0x63B8 DUP3 PUSH2 0x4B1E JUMP JUMPDEST SWAP2 POP PUSH2 0x63C3 DUP4 PUSH2 0x4B1E JUMP JUMPDEST SWAP3 POP DUP3 DUP3 SUB SWAP1 POP DUP2 DUP2 GT ISZERO PUSH2 0x63DB JUMPI PUSH2 0x63DA PUSH2 0x57F0 JUMP JUMPDEST JUMPDEST SWAP3 SWAP2 POP POP JUMP JUMPDEST PUSH1 0x0 PUSH1 0xA0 DUP3 ADD SWAP1 POP PUSH2 0x63F6 PUSH1 0x0 DUP4 ADD DUP8 PUSH2 0x4B93 JUMP JUMPDEST PUSH2 0x6403 PUSH1 0x20 DUP4 ADD DUP7 PUSH2 0x4B93 JUMP JUMPDEST PUSH2 0x6410 PUSH1 0x40 DUP4 ADD DUP6 PUSH2 0x4C7C JUMP JUMPDEST PUSH2 0x641D PUSH1 0x60 DUP4 ADD DUP5 PUSH2 0x4C7C JUMP JUMPDEST DUP2 DUP2 SUB PUSH1 0x80 DUP4 ADD MSTORE PUSH2 0x642E DUP2 PUSH2 0x5CBB JUMP JUMPDEST SWAP1 POP SWAP6 SWAP5 POP POP POP POP POP JUMP JUMPDEST PUSH32 0x436F6E7374727563744552433732313A20416C726561647920736F6C64206F72 PUSH1 0x0 DUP3 ADD MSTORE PUSH32 0x206D696E746564206F72204F4646000000000000000000000000000000000000 PUSH1 0x20 DUP3 ADD MSTORE POP JUMP JUMPDEST PUSH1 0x0 PUSH2 0x6495 PUSH1 0x2E DUP4 PUSH2 0x4A77 JUMP JUMPDEST SWAP2 POP PUSH2 0x64A0 DUP3 PUSH2 0x6439 JUMP JUMPDEST PUSH1 0x40 DUP3 ADD SWAP1 POP SWAP2 SWAP1 POP JUMP JUMPDEST PUSH1 0x0 PUSH1 0x20 DUP3 ADD SWAP1 POP DUP2 DUP2 SUB PUSH1 0x0 DUP4 ADD MSTORE PUSH2 0x64C4 DUP2 PUSH2 0x6488 JUMP JUMPDEST SWAP1 POP SWAP2 SWAP1 POP JUMP JUMPDEST PUSH32 0x436F6E7374727563744552433732313A2055524920717565727920666F72206E PUSH1 0x0 DUP3 ADD MSTORE PUSH32 0x6F6E6578697374656E7420746F6B656E00000000000000000000000000000000 PUSH1 0x20 DUP3 ADD MSTORE POP JUMP JUMPDEST PUSH1 0x0 PUSH2 0x6527 PUSH1 0x30 DUP4 PUSH2 0x4A77 JUMP JUMPDEST SWAP2 POP PUSH2 0x6532 DUP3 PUSH2 0x64CB JUMP JUMPDEST PUSH1 0x40 DUP3 ADD SWAP1 POP SWAP2 SWAP1 POP JUMP JUMPDEST PUSH1 0x0 PUSH1 0x20 DUP3 ADD SWAP1 POP DUP2 DUP2 SUB PUSH1 0x0 DUP4 ADD MSTORE PUSH2 0x6556 DUP2 PUSH2 0x651A JUMP JUMPDEST SWAP1 POP SWAP2 SWAP1 POP JUMP JUMPDEST PUSH1 0x0 DUP2 SWAP1 POP SWAP3 SWAP2 POP POP JUMP JUMPDEST PUSH1 0x0 DUP2 SLOAD PUSH2 0x6575 DUP2 PUSH2 0x55C7 JUMP JUMPDEST PUSH2 0x657F DUP2 DUP7 PUSH2 0x655D JUMP JUMPDEST SWAP5 POP PUSH1 0x1 DUP3 AND PUSH1 0x0 DUP2 EQ PUSH2 0x659A JUMPI PUSH1 0x1 DUP2 EQ PUSH2 0x65AF JUMPI PUSH2 0x65E2 JUMP JUMPDEST PUSH1 0xFF NOT DUP4 AND DUP7 MSTORE DUP2 ISZERO ISZERO DUP3 MUL DUP7 ADD SWAP4 POP PUSH2 0x65E2 JUMP JUMPDEST PUSH2 0x65B8 DUP6 PUSH2 0x5FD8 JUMP JUMPDEST PUSH1 0x0 JUMPDEST DUP4 DUP2 LT ISZERO PUSH2 0x65DA JUMPI DUP2 SLOAD DUP2 DUP10 ADD MSTORE PUSH1 0x1 DUP3 ADD SWAP2 POP PUSH1 0x20 DUP2 ADD SWAP1 POP PUSH2 0x65BB JUMP JUMPDEST DUP4 DUP9 ADD SWAP6 POP POP POP JUMPDEST POP POP POP SWAP3 SWAP2 POP POP JUMP JUMPDEST PUSH1 0x0 PUSH2 0x65F6 DUP3 PUSH2 0x4A6C JUMP JUMPDEST PUSH2 0x6600 DUP2 DUP6 PUSH2 0x655D JUMP JUMPDEST SWAP4 POP PUSH2 0x6610 DUP2 DUP6 PUSH1 0x20 DUP7 ADD PUSH2 0x4A88 JUMP JUMPDEST DUP1 DUP5 ADD SWAP2 POP POP SWAP3 SWAP2 POP POP JUMP JUMPDEST PUSH1 0x0 PUSH2 0x6628 DUP3 DUP7 PUSH2 0x6568 JUMP JUMPDEST SWAP2 POP PUSH2 0x6634 DUP3 DUP6 PUSH2 0x65EB JUMP JUMPDEST SWAP2 POP PUSH2 0x6640 DUP3 DUP5 PUSH2 0x6568 JUMP JUMPDEST SWAP2 POP DUP2 SWAP1 POP SWAP5 SWAP4 POP POP POP POP JUMP JUMPDEST PUSH32 0x4F776E61626C653A206E6577206F776E657220697320746865207A65726F2061 PUSH1 0x0 DUP3 ADD MSTORE PUSH32 0x6464726573730000000000000000000000000000000000000000000000000000 PUSH1 0x20 DUP3 ADD MSTORE POP JUMP JUMPDEST PUSH1 0x0 PUSH2 0x66A9 PUSH1 0x26 DUP4 PUSH2 0x4A77 JUMP JUMPDEST SWAP2 POP PUSH2 0x66B4 DUP3 PUSH2 0x664D JUMP JUMPDEST PUSH1 0x40 DUP3 ADD SWAP1 POP SWAP2 SWAP1 POP JUMP JUMPDEST PUSH1 0x0 PUSH1 0x20 DUP3 ADD SWAP1 POP DUP2 DUP2 SUB PUSH1 0x0 DUP4 ADD MSTORE PUSH2 0x66D8 DUP2 PUSH2 0x669C JUMP JUMPDEST SWAP1 POP SWAP2 SWAP1 POP JUMP JUMPDEST PUSH32 0x4552433732313A207472616E736665722066726F6D20696E636F727265637420 PUSH1 0x0 DUP3 ADD MSTORE PUSH32 0x6F776E6572000000000000000000000000000000000000000000000000000000 PUSH1 0x20 DUP3 ADD MSTORE POP JUMP JUMPDEST PUSH1 0x0 PUSH2 0x673B PUSH1 0x25 DUP4 PUSH2 0x4A77 JUMP JUMPDEST SWAP2 POP PUSH2 0x6746 DUP3 PUSH2 0x66DF JUMP JUMPDEST PUSH1 0x40 DUP3 ADD SWAP1 POP SWAP2 SWAP1 POP JUMP JUMPDEST PUSH1 0x0 PUSH1 0x20 DUP3 ADD SWAP1 POP DUP2 DUP2 SUB PUSH1 0x0 DUP4 ADD MSTORE PUSH2 0x676A DUP2 PUSH2 0x672E JUMP JUMPDEST SWAP1 POP SWAP2 SWAP1 POP JUMP JUMPDEST PUSH32 0x4552433732313A207472616E7366657220746F20746865207A65726F20616464 PUSH1 0x0 DUP3 ADD MSTORE PUSH32 0x7265737300000000000000000000000000000000000000000000000000000000 PUSH1 0x20 DUP3 ADD MSTORE POP JUMP JUMPDEST PUSH1 0x0 PUSH2 0x67CD PUSH1 0x24 DUP4 PUSH2 0x4A77 JUMP JUMPDEST SWAP2 POP PUSH2 0x67D8 DUP3 PUSH2 0x6771 JUMP JUMPDEST PUSH1 0x40 DUP3 ADD SWAP1 POP SWAP2 SWAP1 POP JUMP JUMPDEST PUSH1 0x0 PUSH1 0x20 DUP3 ADD SWAP1 POP DUP2 DUP2 SUB PUSH1 0x0 DUP4 ADD MSTORE PUSH2 0x67FC DUP2 PUSH2 0x67C0 JUMP JUMPDEST SWAP1 POP SWAP2 SWAP1 POP JUMP JUMPDEST PUSH32 0x5265656E7472616E637947756172643A207265656E7472616E742063616C6C00 PUSH1 0x0 DUP3 ADD MSTORE POP JUMP JUMPDEST PUSH1 0x0 PUSH2 0x6839 PUSH1 0x1F DUP4 PUSH2 0x4A77 JUMP JUMPDEST SWAP2 POP PUSH2 0x6844 DUP3 PUSH2 0x6803 JUMP JUMPDEST PUSH1 0x20 DUP3 ADD SWAP1 POP SWAP2 SWAP1 POP JUMP JUMPDEST PUSH1 0x0 PUSH1 0x20 DUP3 ADD SWAP1 POP DUP2 DUP2 SUB PUSH1 0x0 DUP4 ADD MSTORE PUSH2 0x6868 DUP2 PUSH2 0x682C JUMP JUMPDEST SWAP1 POP SWAP2 SWAP1 POP JUMP JUMPDEST PUSH32 0x4E487B7100000000000000000000000000000000000000000000000000000000 PUSH1 0x0 MSTORE PUSH1 0x21 PUSH1 0x4 MSTORE PUSH1 0x24 PUSH1 0x0 REVERT JUMPDEST PUSH2 0x68A7 DUP2 PUSH2 0x4DF8 JUMP JUMPDEST DUP3 MSTORE POP POP JUMP JUMPDEST PUSH1 0x0 PUSH1 0x40 DUP3 ADD SWAP1 POP PUSH2 0x68C2 PUSH1 0x0 DUP4 ADD DUP6 PUSH2 0x689E JUMP JUMPDEST DUP2 DUP2 SUB PUSH1 0x20 DUP4 ADD MSTORE PUSH2 0x68D4 DUP2 DUP5 PUSH2 0x59B4 JUMP JUMPDEST SWAP1 POP SWAP4 SWAP3 POP POP POP JUMP JUMPDEST PUSH1 0x0 DUP2 MLOAD SWAP1 POP PUSH2 0x68EC DUP2 PUSH2 0x4E02 JUMP JUMPDEST SWAP3 SWAP2 POP POP JUMP JUMPDEST PUSH1 0x0 PUSH1 0x20 DUP3 DUP5 SUB SLT ISZERO PUSH2 0x6908 JUMPI PUSH2 0x6907 PUSH2 0x490D JUMP JUMPDEST JUMPDEST PUSH1 0x0 PUSH2 0x6916 DUP5 DUP3 DUP6 ADD PUSH2 0x68DD JUMP JUMPDEST SWAP2 POP POP SWAP3 SWAP2 POP POP JUMP JUMPDEST PUSH32 0x4F776E61626C653A2063616C6C6572206973206E6F7420746865206F776E6572 PUSH1 0x0 DUP3 ADD MSTORE POP JUMP JUMPDEST PUSH1 0x0 PUSH2 0x6955 PUSH1 0x20 DUP4 PUSH2 0x4A77 JUMP JUMPDEST SWAP2 POP PUSH2 0x6960 DUP3 PUSH2 0x691F JUMP JUMPDEST PUSH1 0x20 DUP3 ADD SWAP1 POP SWAP2 SWAP1 POP JUMP JUMPDEST PUSH1 0x0 PUSH1 0x20 DUP3 ADD SWAP1 POP DUP2 DUP2 SUB PUSH1 0x0 DUP4 ADD MSTORE PUSH2 0x6984 DUP2 PUSH2 0x6948 JUMP JUMPDEST SWAP1 POP SWAP2 SWAP1 POP JUMP JUMPDEST PUSH32 0x496E697469616C697A61626C653A20636F6E7472616374206973206E6F742069 PUSH1 0x0 DUP3 ADD MSTORE PUSH32 0x6E697469616C697A696E67000000000000000000000000000000000000000000 PUSH1 0x20 DUP3 ADD MSTORE POP JUMP JUMPDEST PUSH1 0x0 PUSH2 0x69E7 PUSH1 0x2B DUP4 PUSH2 0x4A77 JUMP JUMPDEST SWAP2 POP PUSH2 0x69F2 DUP3 PUSH2 0x698B JUMP JUMPDEST PUSH1 0x40 DUP3 ADD SWAP1 POP SWAP2 SWAP1 POP JUMP JUMPDEST PUSH1 0x0 PUSH1 0x20 DUP3 ADD SWAP1 POP DUP2 DUP2 SUB PUSH1 0x0 DUP4 ADD MSTORE PUSH2 0x6A16 DUP2 PUSH2 0x69DA JUMP JUMPDEST SWAP1 POP SWAP2 SWAP1 POP JUMP JUMPDEST PUSH32 0x4552433732313A207472616E7366657220746F206E6F6E204552433732315265 PUSH1 0x0 DUP3 ADD MSTORE PUSH32 0x63656976657220696D706C656D656E7465720000000000000000000000000000 PUSH1 0x20 DUP3 ADD MSTORE POP JUMP JUMPDEST PUSH1 0x0 PUSH2 0x6A79 PUSH1 0x32 DUP4 PUSH2 0x4A77 JUMP JUMPDEST SWAP2 POP PUSH2 0x6A84 DUP3 PUSH2 0x6A1D JUMP JUMPDEST PUSH1 0x40 DUP3 ADD SWAP1 POP SWAP2 SWAP1 POP JUMP JUMPDEST PUSH1 0x0 PUSH1 0x20 DUP3 ADD SWAP1 POP DUP2 DUP2 SUB PUSH1 0x0 DUP4 ADD MSTORE PUSH2 0x6AA8 DUP2 PUSH2 0x6A6C JUMP JUMPDEST SWAP1 POP SWAP2 SWAP1 POP JUMP JUMPDEST PUSH32 0x4552433732313A20617070726F766520746F2063616C6C657200000000000000 PUSH1 0x0 DUP3 ADD MSTORE POP JUMP JUMPDEST PUSH1 0x0 PUSH2 0x6AE5 PUSH1 0x19 DUP4 PUSH2 0x4A77 JUMP JUMPDEST SWAP2 POP PUSH2 0x6AF0 DUP3 PUSH2 0x6AAF JUMP JUMPDEST PUSH1 0x20 DUP3 ADD SWAP1 POP SWAP2 SWAP1 POP JUMP JUMPDEST PUSH1 0x0 PUSH1 0x20 DUP3 ADD SWAP1 POP DUP2 DUP2 SUB PUSH1 0x0 DUP4 ADD MSTORE PUSH2 0x6B14 DUP2 PUSH2 0x6AD8 JUMP JUMPDEST SWAP1 POP SWAP2 SWAP1 POP JUMP JUMPDEST PUSH1 0x0 PUSH1 0x80 DUP3 ADD SWAP1 POP PUSH2 0x6B30 PUSH1 0x0 DUP4 ADD DUP8 PUSH2 0x4B93 JUMP JUMPDEST PUSH2 0x6B3D PUSH1 0x20 DUP4 ADD DUP7 PUSH2 0x4B93 JUMP JUMPDEST PUSH2 0x6B4A PUSH1 0x40 DUP4 ADD DUP6 PUSH2 0x4C7C JUMP JUMPDEST DUP2 DUP2 SUB PUSH1 0x60 DUP4 ADD MSTORE PUSH2 0x6B5C DUP2 DUP5 PUSH2 0x59B4 JUMP JUMPDEST SWAP1 POP SWAP6 SWAP5 POP POP POP POP POP JUMP JUMPDEST PUSH1 0x0 DUP2 MLOAD SWAP1 POP PUSH2 0x6B76 DUP2 PUSH2 0x4943 JUMP JUMPDEST SWAP3 SWAP2 POP POP JUMP JUMPDEST PUSH1 0x0 PUSH1 0x20 DUP3 DUP5 SUB SLT ISZERO PUSH2 0x6B92 JUMPI PUSH2 0x6B91 PUSH2 0x490D JUMP JUMPDEST JUMPDEST PUSH1 0x0 PUSH2 0x6BA0 DUP5 DUP3 DUP6 ADD PUSH2 0x6B67 JUMP JUMPDEST SWAP2 POP POP SWAP3 SWAP2 POP POP JUMP JUMPDEST PUSH2 0x6BB2 DUP2 PUSH2 0x6256 JUMP JUMPDEST DUP3 MSTORE POP POP JUMP JUMPDEST PUSH1 0x0 PUSH1 0x80 DUP3 ADD SWAP1 POP PUSH2 0x6BCD PUSH1 0x0 DUP4 ADD DUP8 PUSH2 0x689E JUMP JUMPDEST PUSH2 0x6BDA PUSH1 0x20 DUP4 ADD DUP7 PUSH2 0x6BA9 JUMP JUMPDEST PUSH2 0x6BE7 PUSH1 0x40 DUP4 ADD DUP6 PUSH2 0x689E JUMP JUMPDEST PUSH2 0x6BF4 PUSH1 0x60 DUP4 ADD DUP5 PUSH2 0x689E JUMP JUMPDEST SWAP6 SWAP5 POP POP POP POP POP JUMP JUMPDEST PUSH32 0x4552433732313A206D696E7420746F20746865207A65726F2061646472657373 PUSH1 0x0 DUP3 ADD MSTORE POP JUMP JUMPDEST PUSH1 0x0 PUSH2 0x6C33 PUSH1 0x20 DUP4 PUSH2 0x4A77 JUMP JUMPDEST SWAP2 POP PUSH2 0x6C3E DUP3 PUSH2 0x6BFD JUMP JUMPDEST PUSH1 0x20 DUP3 ADD SWAP1 POP SWAP2 SWAP1 POP JUMP JUMPDEST PUSH1 0x0 PUSH1 0x20 DUP3 ADD SWAP1 POP DUP2 DUP2 SUB PUSH1 0x0 DUP4 ADD MSTORE PUSH2 0x6C62 DUP2 PUSH2 0x6C26 JUMP JUMPDEST SWAP1 POP SWAP2 SWAP1 POP JUMP JUMPDEST PUSH32 0x4552433732313A20746F6B656E20616C7265616479206D696E74656400000000 PUSH1 0x0 DUP3 ADD MSTORE POP JUMP JUMPDEST PUSH1 0x0 PUSH2 0x6C9F PUSH1 0x1C DUP4 PUSH2 0x4A77 JUMP JUMPDEST SWAP2 POP PUSH2 0x6CAA DUP3 PUSH2 0x6C69 JUMP JUMPDEST PUSH1 0x20 DUP3 ADD SWAP1 POP SWAP2 SWAP1 POP JUMP JUMPDEST PUSH1 0x0 PUSH1 0x20 DUP3 ADD SWAP1 POP DUP2 DUP2 SUB PUSH1 0x0 DUP4 ADD MSTORE PUSH2 0x6CCE DUP2 PUSH2 0x6C92 JUMP JUMPDEST SWAP1 POP SWAP2 SWAP1 POP JUMP INVALID PUSH9 0x747470733A2F2F6173 PUSH20 0x6574732E616C6C6F792E73706163652F746F6B65 PUSH15 0x2D7572692D73322FA2646970667358 0x22 SLT KECCAK256 LOG2 0xC1 0xBF RETURN EQ PC ISZERO LOG0 BALANCE TIMESTAMP SWAP8 0xD 0xC9 PUSH1 0x69 0xC4 0xCD SELFDESTRUCT SWAP13 GAS 0xD8 0x28 DUP4 PUSH18 0xA26A6047B75A5D1364736F6C634300081000 CALLER "},"methodIdentifiers":{"ARCAddress()":"6ef1eee4","ARFtokenAddress()":"04a4362e","MerchantWallet()":"7dd12d15","NiozERC20Address()":"cb73bff1","approve(address,uint256)":"095ea7b3","balanceOf(address)":"70a08231","buy((uint256,uint256,bytes32),bytes)":"9401c1e4","buyOffChain((uint256,address,uint256,bytes32),bytes)":"be6d6a6f","convertConstruct((uint256[],uint256[],bytes32),bytes)":"6943f71e","feeCalculation(uint256)":"2c7d077e","getApproved(uint256)":"081812fc","initialize()":"8129fc1c","isApprovedForAll(address,address)":"e985e9c5","isConstructMintable(uint256)":"fcca9f38","isConstructSold(uint256)":"1cfb7a0b","isVerified(bytes)":"c9941806","mintConstruct((uint256,bytes32),bytes)":"ba66b54c","name()":"06fdde03","owner()":"8da5cb5b","ownerOf(uint256)":"6352211e","renounceOwnership()":"715018a6","safeTransferFrom(address,address,uint256)":"42842e0e","safeTransferFrom(address,address,uint256,bytes)":"b88d4fde","sellAlloyConstruct((uint256,uint256,bytes32),bytes)":"6fc04381","setApprovalForAll(address,bool)":"a22cb465","supportsInterface(bytes4)":"01ffc9a7","symbol()":"95d89b41","tokenCounter()":"d082e381","tokenURI(uint256)":"c87b56dd","transferFrom(address,address,uint256)":"23b872dd","transferOwnership(address)":"f2fde38b","upadateDefaultUri(string,string)":"97c04edb","updateWallets(address,address,address,address)":"743e540d"}},"storageLayout":{"storage":[{"astId":152,"contract":"contracts/CONSTRUCT/ConstructERC721V1.sol:ConstructERC721V1","label":"_initialized","offset":0,"slot":"0","type":"t_uint8"},{"astId":155,"contract":"contracts/CONSTRUCT/ConstructERC721V1.sol:ConstructERC721V1","label":"_initializing","offset":1,"slot":"0","type":"t_bool"},{"astId":1825,"contract":"contracts/CONSTRUCT/ConstructERC721V1.sol:ConstructERC721V1","label":"__gap","offset":0,"slot":"1","type":"t_array(t_uint256)50_storage"},{"astId":2488,"contract":"contracts/CONSTRUCT/ConstructERC721V1.sol:ConstructERC721V1","label":"__gap","offset":0,"slot":"51","type":"t_array(t_uint256)50_storage"},{"astId":416,"contract":"contracts/CONSTRUCT/ConstructERC721V1.sol:ConstructERC721V1","label":"_name","offset":0,"slot":"101","type":"t_string_storage"},{"astId":418,"contract":"contracts/CONSTRUCT/ConstructERC721V1.sol:ConstructERC721V1","label":"_symbol","offset":0,"slot":"102","type":"t_string_storage"},{"astId":422,"contract":"contracts/CONSTRUCT/ConstructERC721V1.sol:ConstructERC721V1","label":"_owners","offset":0,"slot":"103","type":"t_mapping(t_uint256,t_address)"},{"astId":426,"contract":"contracts/CONSTRUCT/ConstructERC721V1.sol:ConstructERC721V1","label":"_balances","offset":0,"slot":"104","type":"t_mapping(t_address,t_uint256)"},{"astId":430,"contract":"contracts/CONSTRUCT/ConstructERC721V1.sol:ConstructERC721V1","label":"_tokenApprovals","offset":0,"slot":"105","type":"t_mapping(t_uint256,t_address)"},{"astId":436,"contract":"contracts/CONSTRUCT/ConstructERC721V1.sol:ConstructERC721V1","label":"_operatorApprovals","offset":0,"slot":"106","type":"t_mapping(t_address,t_mapping(t_address,t_bool))"},{"astId":1338,"contract":"contracts/CONSTRUCT/ConstructERC721V1.sol:ConstructERC721V1","label":"__gap","offset":0,"slot":"107","type":"t_array(t_uint256)44_storage"},{"astId":10,"contract":"contracts/CONSTRUCT/ConstructERC721V1.sol:ConstructERC721V1","label":"_owner","offset":0,"slot":"151","type":"t_address"},{"astId":130,"contract":"contracts/CONSTRUCT/ConstructERC721V1.sol:ConstructERC721V1","label":"__gap","offset":0,"slot":"152","type":"t_array(t_uint256)49_storage"},{"astId":328,"contract":"contracts/CONSTRUCT/ConstructERC721V1.sol:ConstructERC721V1","label":"_status","offset":0,"slot":"201","type":"t_uint256"},{"astId":386,"contract":"contracts/CONSTRUCT/ConstructERC721V1.sol:ConstructERC721V1","label":"__gap","offset":0,"slot":"202","type":"t_array(t_uint256)49_storage"},{"astId":3566,"contract":"contracts/CONSTRUCT/ConstructERC721V1.sol:ConstructERC721V1","label":"tokenCounter","offset":0,"slot":"251","type":"t_uint256"},{"astId":3568,"contract":"contracts/CONSTRUCT/ConstructERC721V1.sol:ConstructERC721V1","label":"baseUri","offset":0,"slot":"252","type":"t_string_storage"},{"astId":3570,"contract":"contracts/CONSTRUCT/ConstructERC721V1.sol:ConstructERC721V1","label":"baseExtension","offset":0,"slot":"253","type":"t_string_storage"},{"astId":3572,"contract":"contracts/CONSTRUCT/ConstructERC721V1.sol:ConstructERC721V1","label":"MerchantWallet","offset":0,"slot":"254","type":"t_address"},{"astId":3575,"contract":"contracts/CONSTRUCT/ConstructERC721V1.sol:ConstructERC721V1","label":"ARCAddress","offset":0,"slot":"255","type":"t_contract(Mintpeg)5268"},{"astId":3578,"contract":"contracts/CONSTRUCT/ConstructERC721V1.sol:ConstructERC721V1","label":"ARFtokenAddress","offset":0,"slot":"256","type":"t_contract(Mintpeg)5268"},{"astId":3581,"contract":"contracts/CONSTRUCT/ConstructERC721V1.sol:ConstructERC721V1","label":"NiozERC20Address","offset":0,"slot":"257","type":"t_contract(IERC20Upgradeable)5016"},{"astId":3606,"contract":"contracts/CONSTRUCT/ConstructERC721V1.sol:ConstructERC721V1","label":"isVerified","offset":0,"slot":"258","type":"t_mapping(t_bytes_memory_ptr,t_bool)"},{"astId":3610,"contract":"contracts/CONSTRUCT/ConstructERC721V1.sol:ConstructERC721V1","label":"isConstructMintable","offset":0,"slot":"259","type":"t_mapping(t_uint256,t_bool)"},{"astId":3614,"contract":"contracts/CONSTRUCT/ConstructERC721V1.sol:ConstructERC721V1","label":"isConstructSold","offset":0,"slot":"260","type":"t_mapping(t_uint256,t_bool)"},{"astId":3623,"contract":"contracts/CONSTRUCT/ConstructERC721V1.sol:ConstructERC721V1","label":"ids","offset":0,"slot":"261","type":"t_array(t_uint256)dyn_storage"}],"types":{"t_address":{"encoding":"inplace","label":"address","numberOfBytes":"20"},"t_array(t_uint256)44_storage":{"base":"t_uint256","encoding":"inplace","label":"uint256[44]","numberOfBytes":"1408"},"t_array(t_uint256)49_storage":{"base":"t_uint256","encoding":"inplace","label":"uint256[49]","numberOfBytes":"1568"},"t_array(t_uint256)50_storage":{"base":"t_uint256","encoding":"inplace","label":"uint256[50]","numberOfBytes":"1600"},"t_array(t_uint256)dyn_storage":{"base":"t_uint256","encoding":"dynamic_array","label":"uint256[]","numberOfBytes":"32"},"t_bool":{"encoding":"inplace","label":"bool","numberOfBytes":"1"},"t_bytes_memory_ptr":{"encoding":"bytes","label":"bytes","numberOfBytes":"32"},"t_contract(IERC20Upgradeable)5016":{"encoding":"inplace","label":"contract IERC20Upgradeable","numberOfBytes":"20"},"t_contract(Mintpeg)5268":{"encoding":"inplace","label":"contract Mintpeg","numberOfBytes":"20"},"t_mapping(t_address,t_bool)":{"encoding":"mapping","key":"t_address","label":"mapping(address => bool)","numberOfBytes":"32","value":"t_bool"},"t_mapping(t_address,t_mapping(t_address,t_bool))":{"encoding":"mapping","key":"t_address","label":"mapping(address => mapping(address => bool))","numberOfBytes":"32","value":"t_mapping(t_address,t_bool)"},"t_mapping(t_address,t_uint256)":{"encoding":"mapping","key":"t_address","label":"mapping(address => uint256)","numberOfBytes":"32","value":"t_uint256"},"t_mapping(t_bytes_memory_ptr,t_bool)":{"encoding":"mapping","key":"t_bytes_memory_ptr","label":"mapping(bytes => bool)","numberOfBytes":"32","value":"t_bool"},"t_mapping(t_uint256,t_address)":{"encoding":"mapping","key":"t_uint256","label":"mapping(uint256 => address)","numberOfBytes":"32","value":"t_address"},"t_mapping(t_uint256,t_bool)":{"encoding":"mapping","key":"t_uint256","label":"mapping(uint256 => bool)","numberOfBytes":"32","value":"t_bool"},"t_string_storage":{"encoding":"bytes","label":"string","numberOfBytes":"32"},"t_uint256":{"encoding":"inplace","label":"uint256","numberOfBytes":"32"},"t_uint8":{"encoding":"inplace","label":"uint8","numberOfBytes":"1"}}}}}}