{"contracts/ARF/ArfERC721V2.sol":{"ArfERC721V2":{"abi":[{"anonymous":false,"inputs":[{"indexed":false,"internalType":"address","name":"Owner","type":"address"},{"indexed":false,"internalType":"uint256","name":"EpochId","type":"uint256"},{"indexed":false,"internalType":"uint256[]","name":"ARC_TokenId","type":"uint256[]"},{"indexed":false,"internalType":"uint256[]","name":"ARF_TokenId","type":"uint256[]"},{"indexed":false,"internalType":"uint256[]","name":"JoePeg_TokenId","type":"uint256[]"}],"name":"ARC_ARF_Minted_Multiple","type":"event"},{"anonymous":false,"inputs":[{"indexed":false,"internalType":"address","name":"Owner","type":"address"},{"indexed":false,"internalType":"uint256","name":"TokenId","type":"uint256"},{"indexed":false,"internalType":"uint256","name":"EpochId","type":"uint256"}],"name":"ARC_Internal_Minted","type":"event"},{"anonymous":false,"inputs":[{"indexed":false,"internalType":"address","name":"Owner","type":"address"},{"indexed":false,"internalType":"uint256","name":"TokenId","type":"uint256"},{"indexed":false,"internalType":"uint256","name":"EpochId","type":"uint256"}],"name":"ARCminted","type":"event"},{"anonymous":false,"inputs":[{"indexed":false,"internalType":"address","name":"Owner","type":"address"},{"indexed":false,"internalType":"uint256","name":"TokenId","type":"uint256"},{"indexed":false,"internalType":"uint256","name":"EpochId","type":"uint256"}],"name":"ARF_Internal_Minted","type":"event"},{"anonymous":false,"inputs":[{"indexed":false,"internalType":"address","name":"Owner","type":"address"},{"indexed":false,"internalType":"uint256","name":"TokenId","type":"uint256"},{"indexed":false,"internalType":"uint256","name":"EpochId","type":"uint256"}],"name":"ARFminted","type":"event"},{"anonymous":false,"inputs":[{"indexed":true,"internalType":"address","name":"owner","type":"address"},{"indexed":true,"internalType":"address","name":"approved","type":"address"},{"indexed":true,"internalType":"uint256","name":"tokenId","type":"uint256"}],"name":"Approval","type":"event"},{"anonymous":false,"inputs":[{"indexed":true,"internalType":"address","name":"owner","type":"address"},{"indexed":true,"internalType":"address","name":"operator","type":"address"},{"indexed":false,"internalType":"bool","name":"approved","type":"bool"}],"name":"ApprovalForAll","type":"event"},{"anonymous":false,"inputs":[{"indexed":false,"internalType":"address","name":"Owner","type":"address"},{"indexed":false,"internalType":"uint256","name":"EpochId","type":"uint256"},{"indexed":false,"internalType":"uint256","name":"ARC_TokenIds","type":"uint256"},{"indexed":false,"internalType":"uint256","name":"ARF_TokenIds","type":"uint256"}],"name":"Eggnite_Minted","type":"event"},{"anonymous":false,"inputs":[{"indexed":false,"internalType":"uint8","name":"version","type":"uint8"}],"name":"Initialized","type":"event"},{"anonymous":false,"inputs":[{"indexed":true,"internalType":"address","name":"previousOwner","type":"address"},{"indexed":true,"internalType":"address","name":"newOwner","type":"address"}],"name":"OwnershipTransferred","type":"event"},{"anonymous":false,"inputs":[{"indexed":false,"internalType":"address","name":"User","type":"address"},{"indexed":false,"internalType":"uint256[]","name":"TokenIds","type":"uint256[]"},{"indexed":false,"internalType":"uint256","name":"EpochId","type":"uint256"},{"indexed":false,"internalType":"uint256","name":"PoolId","type":"uint256"},{"indexed":false,"internalType":"uint256","name":"AvaxPrice","type":"uint256"},{"indexed":false,"internalType":"uint256","name":"NiozPrice","type":"uint256"},{"indexed":false,"internalType":"bool","name":"IsLimited","type":"bool"},{"indexed":false,"internalType":"string","name":"NFTtype","type":"string"}],"name":"PrinterMinted","type":"event"},{"anonymous":false,"inputs":[{"indexed":false,"internalType":"address","name":"PreviousOwner","type":"address"},{"indexed":false,"internalType":"address","name":"NewOwner","type":"address"},{"indexed":false,"internalType":"uint256","name":"Price","type":"uint256"},{"indexed":false,"internalType":"uint256","name":"TokenId","type":"uint256"},{"indexed":false,"internalType":"string","name":"TokenType","type":"string"}],"name":"TokenPurchased","type":"event"},{"anonymous":false,"inputs":[{"indexed":false,"internalType":"address","name":"PreviousOwner","type":"address"},{"indexed":false,"internalType":"address","name":"NewOwner","type":"address"},{"indexed":false,"internalType":"uint256","name":"Price","type":"uint256"},{"indexed":false,"internalType":"uint256","name":"TokenId","type":"uint256"}],"name":"TokenPurchasedOffChain","type":"event"},{"anonymous":false,"inputs":[{"indexed":true,"internalType":"address","name":"from","type":"address"},{"indexed":true,"internalType":"address","name":"to","type":"address"},{"indexed":true,"internalType":"uint256","name":"tokenId","type":"uint256"}],"name":"Transfer","type":"event"},{"anonymous":false,"inputs":[{"indexed":false,"internalType":"address[]","name":"Addresses","type":"address[]"},{"indexed":false,"internalType":"bool","name":"Status","type":"bool"}],"name":"WhitelistedARCAddress","type":"event"},{"anonymous":false,"inputs":[{"indexed":false,"internalType":"address[]","name":"Addresses","type":"address[]"},{"indexed":false,"internalType":"bool","name":"Status","type":"bool"}],"name":"WhitelistedARCAlloyTeams","type":"event"},{"anonymous":false,"inputs":[{"indexed":false,"internalType":"address[]","name":"Addresses","type":"address[]"},{"indexed":false,"internalType":"bool","name":"Status","type":"bool"}],"name":"WhitelistedARCReserves","type":"event"},{"anonymous":false,"inputs":[{"indexed":false,"internalType":"address[]","name":"Addresses","type":"address[]"},{"indexed":false,"internalType":"bool","name":"Status","type":"bool"}],"name":"WhitelistedARFAddress","type":"event"},{"anonymous":false,"inputs":[{"indexed":false,"internalType":"address[]","name":"Addresses","type":"address[]"},{"indexed":false,"internalType":"bool","name":"Status","type":"bool"}],"name":"WhitelistedARFAlloyTeams","type":"event"},{"anonymous":false,"inputs":[{"indexed":false,"internalType":"address[]","name":"Addresses","type":"address[]"},{"indexed":false,"internalType":"bool","name":"Status","type":"bool"}],"name":"WhitelistedARFReserves","type":"event"},{"anonymous":false,"inputs":[{"indexed":false,"internalType":"address[]","name":"Addresses","type":"address[]"},{"indexed":false,"internalType":"bool","name":"Status","type":"bool"}],"name":"WhitelistedAddressEggnite","type":"event"},{"inputs":[],"name":"ARCAddress","outputs":[{"internalType":"contract Mintpeg","name":"","type":"address"}],"stateMutability":"view","type":"function"},{"inputs":[],"name":"ConstructTokenAddress","outputs":[{"internalType":"contract Mintpeg","name":"","type":"address"}],"stateMutability":"view","type":"function"},{"inputs":[{"internalType":"uint256","name":"","type":"uint256"},{"internalType":"uint256","name":"","type":"uint256"}],"name":"FactoryPools","outputs":[{"internalType":"uint256","name":"poolId","type":"uint256"},{"internalType":"uint256","name":"totalQuantityARC","type":"uint256"},{"internalType":"uint256","name":"quantityCounterARC","type":"uint256"},{"internalType":"uint256","name":"NiozPriceARC","type":"uint256"},{"internalType":"uint256","name":"avaxPriceARC","type":"uint256"},{"internalType":"uint256","name":"totalQuantityARF","type":"uint256"},{"internalType":"uint256","name":"quantityCounterARF","type":"uint256"},{"internalType":"uint256","name":"NiozPriceARF","type":"uint256"},{"internalType":"uint256","name":"avaxPriceARF","type":"uint256"}],"stateMutability":"view","type":"function"},{"inputs":[{"internalType":"uint256[]","name":"_token_id","type":"uint256[]"}],"name":"JoepegsMultiple","outputs":[],"stateMutability":"nonpayable","type":"function"},{"inputs":[],"name":"JoepegsTokenAddress","outputs":[{"internalType":"contract Mintpeg","name":"","type":"address"}],"stateMutability":"view","type":"function"},{"inputs":[],"name":"MerchantWallet","outputs":[{"internalType":"address","name":"","type":"address"}],"stateMutability":"view","type":"function"},{"inputs":[{"internalType":"uint256","name":"","type":"uint256"}],"name":"NFTtypes","outputs":[{"internalType":"string","name":"","type":"string"}],"stateMutability":"view","type":"function"},{"inputs":[],"name":"NiozERC20Address","outputs":[{"internalType":"contract IERC20Upgradeable","name":"","type":"address"}],"stateMutability":"view","type":"function"},{"inputs":[],"name":"allowedPrinters","outputs":[{"internalType":"uint256","name":"","type":"uint256"}],"stateMutability":"view","type":"function"},{"inputs":[{"internalType":"address","name":"to","type":"address"},{"internalType":"uint256","name":"tokenId","type":"uint256"}],"name":"approve","outputs":[],"stateMutability":"nonpayable","type":"function"},{"inputs":[{"internalType":"address","name":"owner","type":"address"}],"name":"balanceOf","outputs":[{"internalType":"uint256","name":"","type":"uint256"}],"stateMutability":"view","type":"function"},{"inputs":[{"components":[{"internalType":"uint256","name":"Id","type":"uint256"},{"internalType":"uint256","name":"amount","type":"uint256"},{"internalType":"bytes32","name":"messageHash","type":"bytes32"}],"internalType":"struct ArfERC721V2.SellOrder","name":"_order","type":"tuple"},{"internalType":"bytes","name":"_signature","type":"bytes"}],"name":"buy","outputs":[],"stateMutability":"payable","type":"function"},{"inputs":[{"components":[{"internalType":"uint256","name":"Id","type":"uint256"},{"internalType":"address","name":"previousOwner","type":"address"},{"internalType":"uint256","name":"amount","type":"uint256"},{"internalType":"bytes32","name":"messageHash","type":"bytes32"}],"internalType":"struct ArfERC721V2.SellOrderOffChain","name":"_order","type":"tuple"},{"internalType":"bytes","name":"_signature","type":"bytes"}],"name":"buyOffChain","outputs":[],"stateMutability":"payable","type":"function"},{"inputs":[{"internalType":"uint256","name":"","type":"uint256"}],"name":"checkEpochStatus","outputs":[{"internalType":"bool","name":"","type":"bool"}],"stateMutability":"view","type":"function"},{"inputs":[{"internalType":"uint256","name":"","type":"uint256"}],"name":"epochDetails","outputs":[{"internalType":"uint256","name":"totalQuantityARF","type":"uint256"},{"internalType":"uint256","name":"quantityCounterARF","type":"uint256"},{"internalType":"uint256","name":"totalQuantityARC","type":"uint256"},{"internalType":"uint256","name":"quantityCounterARC","type":"uint256"}],"stateMutability":"view","type":"function"},{"inputs":[{"internalType":"uint256","name":"_total_amount","type":"uint256"}],"name":"feeCalculation","outputs":[{"internalType":"uint256","name":"Fee","type":"uint256"}],"stateMutability":"view","type":"function"},{"inputs":[{"internalType":"uint256","name":"tokenId","type":"uint256"}],"name":"getApproved","outputs":[{"internalType":"address","name":"","type":"address"}],"stateMutability":"view","type":"function"},{"inputs":[],"name":"initialize","outputs":[],"stateMutability":"nonpayable","type":"function"},{"inputs":[{"internalType":"address","name":"owner","type":"address"},{"internalType":"address","name":"operator","type":"address"}],"name":"isApprovedForAll","outputs":[{"internalType":"bool","name":"","type":"bool"}],"stateMutability":"view","type":"function"},{"inputs":[{"internalType":"bytes","name":"","type":"bytes"}],"name":"isVerified","outputs":[{"internalType":"bool","name":"","type":"bool"}],"stateMutability":"view","type":"function"},{"inputs":[],"name":"mintARC","outputs":[],"stateMutability":"nonpayable","type":"function"},{"inputs":[],"name":"mintARF","outputs":[],"stateMutability":"nonpayable","type":"function"},{"inputs":[],"name":"mintEggnite","outputs":[],"stateMutability":"nonpayable","type":"function"},{"inputs":[{"internalType":"uint256","name":"epoch_id","type":"uint256"}],"name":"mintInternalARC","outputs":[],"stateMutability":"nonpayable","type":"function"},{"inputs":[{"internalType":"uint256","name":"epoch_id","type":"uint256"}],"name":"mintInternalARF","outputs":[],"stateMutability":"nonpayable","type":"function"},{"inputs":[{"components":[{"internalType":"uint256","name":"epoch_id","type":"uint256"},{"internalType":"uint256","name":"pool_id","type":"uint256"},{"internalType":"uint256","name":"quantity","type":"uint256"},{"internalType":"bytes32","name":"message_hash","type":"bytes32"}],"internalType":"struct ArfERC721V2.Order","name":"_order","type":"tuple"},{"internalType":"bytes","name":"_signature","type":"bytes"},{"internalType":"bool","name":"isLimited","type":"bool"}],"name":"mintPrinterARF","outputs":[],"stateMutability":"payable","type":"function"},{"inputs":[],"name":"name","outputs":[{"internalType":"string","name":"","type":"string"}],"stateMutability":"view","type":"function"},{"inputs":[],"name":"owner","outputs":[{"internalType":"address","name":"","type":"address"}],"stateMutability":"view","type":"function"},{"inputs":[{"internalType":"uint256","name":"tokenId","type":"uint256"}],"name":"ownerOf","outputs":[{"internalType":"address","name":"","type":"address"}],"stateMutability":"view","type":"function"},{"inputs":[],"name":"renounceOwnership","outputs":[],"stateMutability":"nonpayable","type":"function"},{"inputs":[{"internalType":"address","name":"from","type":"address"},{"internalType":"address","name":"to","type":"address"},{"internalType":"uint256","name":"tokenId","type":"uint256"}],"name":"safeTransferFrom","outputs":[],"stateMutability":"nonpayable","type":"function"},{"inputs":[{"internalType":"address","name":"from","type":"address"},{"internalType":"address","name":"to","type":"address"},{"internalType":"uint256","name":"tokenId","type":"uint256"},{"internalType":"bytes","name":"data","type":"bytes"}],"name":"safeTransferFrom","outputs":[],"stateMutability":"nonpayable","type":"function"},{"inputs":[{"internalType":"address","name":"operator","type":"address"},{"internalType":"bool","name":"approved","type":"bool"}],"name":"setApprovalForAll","outputs":[],"stateMutability":"nonpayable","type":"function"},{"inputs":[{"internalType":"bytes4","name":"interfaceId","type":"bytes4"}],"name":"supportsInterface","outputs":[{"internalType":"bool","name":"","type":"bool"}],"stateMutability":"view","type":"function"},{"inputs":[],"name":"symbol","outputs":[{"internalType":"string","name":"","type":"string"}],"stateMutability":"view","type":"function"},{"inputs":[],"name":"tokenCounter","outputs":[{"internalType":"uint256","name":"","type":"uint256"}],"stateMutability":"view","type":"function"},{"inputs":[{"internalType":"uint256","name":"_tokenId","type":"uint256"}],"name":"tokenURI","outputs":[{"internalType":"string","name":"","type":"string"}],"stateMutability":"view","type":"function"},{"inputs":[{"internalType":"address","name":"from","type":"address"},{"internalType":"address","name":"to","type":"address"},{"internalType":"uint256","name":"tokenId","type":"uint256"}],"name":"transferFrom","outputs":[],"stateMutability":"nonpayable","type":"function"},{"inputs":[{"internalType":"address","name":"newOwner","type":"address"}],"name":"transferOwnership","outputs":[],"stateMutability":"nonpayable","type":"function"},{"inputs":[{"internalType":"string","name":"_baseuri","type":"string"},{"internalType":"string","name":"_extension","type":"string"}],"name":"upadateDefaultUri","outputs":[],"stateMutability":"nonpayable","type":"function"},{"inputs":[{"internalType":"uint256","name":"_epoch_id","type":"uint256"},{"internalType":"uint256[]","name":"_pool_id","type":"uint256[]"},{"internalType":"uint256[]","name":"_quantity_arf","type":"uint256[]"},{"internalType":"uint256[]","name":"_avax_price","type":"uint256[]"},{"internalType":"uint256[]","name":"_Nioz_price","type":"uint256[]"}],"name":"updateARCPoolDetails","outputs":[],"stateMutability":"nonpayable","type":"function"},{"inputs":[{"internalType":"uint256","name":"_epoch_id","type":"uint256"},{"internalType":"uint256[]","name":"_pool_id","type":"uint256[]"},{"internalType":"uint256[]","name":"_quantity_arf","type":"uint256[]"},{"internalType":"uint256[]","name":"_avax_price","type":"uint256[]"},{"internalType":"uint256[]","name":"_Nioz_price","type":"uint256[]"}],"name":"updateARFPoolDetails","outputs":[],"stateMutability":"nonpayable","type":"function"},{"inputs":[{"internalType":"uint256","name":"epoch_id","type":"uint256"},{"internalType":"uint256","name":"pool_id","type":"uint256"},{"internalType":"uint256","name":"quantity","type":"uint256"}],"name":"updateCounter","outputs":[],"stateMutability":"nonpayable","type":"function"},{"inputs":[{"internalType":"uint256[]","name":"_epoch_id","type":"uint256[]"},{"internalType":"uint256[]","name":"_quantity_arc","type":"uint256[]"},{"internalType":"uint256[]","name":"_quantity_arf","type":"uint256[]"}],"name":"updateEpochDetails","outputs":[],"stateMutability":"nonpayable","type":"function"},{"inputs":[{"internalType":"uint256[]","name":"_epoch_id","type":"uint256[]"},{"internalType":"bool","name":"_status","type":"bool"}],"name":"updateEpochStatus","outputs":[],"stateMutability":"nonpayable","type":"function"},{"inputs":[{"internalType":"address","name":"_joepeg_address","type":"address"},{"internalType":"address","name":"_arc_address","type":"address"},{"internalType":"address","name":"_merchant_address","type":"address"},{"internalType":"address","name":"_Nioz_address","type":"address"},{"internalType":"address","name":"_construct_address","type":"address"},{"internalType":"uint256","name":"_num_allowed","type":"uint256"}],"name":"updateWallets","outputs":[],"stateMutability":"nonpayable","type":"function"},{"inputs":[{"internalType":"address[]","name":"_address","type":"address[]"},{"internalType":"bool","name":"_status","type":"bool"}],"name":"whitelistARCAddresses","outputs":[],"stateMutability":"nonpayable","type":"function"},{"inputs":[{"internalType":"address[]","name":"_address","type":"address[]"},{"internalType":"bool","name":"_status","type":"bool"}],"name":"whitelistARCAlloyTeam","outputs":[],"stateMutability":"nonpayable","type":"function"},{"inputs":[{"internalType":"address[]","name":"_address","type":"address[]"},{"internalType":"bool","name":"_status","type":"bool"}],"name":"whitelistARCReserves","outputs":[],"stateMutability":"nonpayable","type":"function"},{"inputs":[{"internalType":"address[]","name":"_address","type":"address[]"},{"internalType":"bool","name":"_status","type":"bool"}],"name":"whitelistARFAddresses","outputs":[],"stateMutability":"nonpayable","type":"function"},{"inputs":[{"internalType":"address[]","name":"_address","type":"address[]"},{"internalType":"bool","name":"_status","type":"bool"}],"name":"whitelistARFAlloyTeam","outputs":[],"stateMutability":"nonpayable","type":"function"},{"inputs":[{"internalType":"address[]","name":"_address","type":"address[]"},{"internalType":"bool","name":"_status","type":"bool"}],"name":"whitelistARFReserves","outputs":[],"stateMutability":"nonpayable","type":"function"},{"inputs":[{"internalType":"address[]","name":"_address","type":"address[]"},{"internalType":"bool","name":"_status","type":"bool"}],"name":"whitelistAddressesEggnite","outputs":[],"stateMutability":"nonpayable","type":"function"},{"inputs":[{"internalType":"address","name":"","type":"address"}],"name":"whitelistedARCAddress","outputs":[{"internalType":"bool","name":"","type":"bool"}],"stateMutability":"view","type":"function"},{"inputs":[{"internalType":"address","name":"","type":"address"}],"name":"whitelistedARCAlloyTeam","outputs":[{"internalType":"bool","name":"","type":"bool"}],"stateMutability":"view","type":"function"},{"inputs":[{"internalType":"address","name":"","type":"address"}],"name":"whitelistedARCReserve","outputs":[{"internalType":"bool","name":"","type":"bool"}],"stateMutability":"view","type":"function"},{"inputs":[{"internalType":"address","name":"","type":"address"}],"name":"whitelistedARFAddress","outputs":[{"internalType":"bool","name":"","type":"bool"}],"stateMutability":"view","type":"function"},{"inputs":[{"internalType":"address","name":"","type":"address"}],"name":"whitelistedARFAlloyTeam","outputs":[{"internalType":"bool","name":"","type":"bool"}],"stateMutability":"view","type":"function"},{"inputs":[{"internalType":"address","name":"","type":"address"}],"name":"whitelistedARFReserve","outputs":[{"internalType":"bool","name":"","type":"bool"}],"stateMutability":"view","type":"function"},{"inputs":[{"internalType":"address","name":"","type":"address"}],"name":"whitelistedAddressEggnite","outputs":[{"internalType":"bool","name":"","type":"bool"}],"stateMutability":"view","type":"function"}],"evm":{"bytecode":{"linkReferences":{},"object":"60806040523480156200001157600080fd5b5061b28880620000226000396000f3fe6080604052600436106103965760003560e01c80637ebededb116101dc578063c3e50abb11610102578063db0a4882116100a0578063ec4370381161006f578063ec43703814610dab578063ecc228ce14610de8578063edda705914610dff578063f2fde38b14610e2857610396565b8063db0a488214610cdc578063e329cf7b14610d05578063e561084f14610d45578063e985e9c514610d6e57610396565b8063c9941806116100dc578063c994180614610c0c578063cb73bff114610c49578063d082e38114610c74578063d87df9e214610c9f57610396565b8063c3e50abb14610b69578063c87b56dd14610ba6578063c8d5c0e214610be357610396565b806395d89b411161017a578063a7397c2e11610149578063a7397c2e14610ad2578063b3af1f2614610afb578063b88d4fde14610b24578063be6d6a6f14610b4d57610396565b806395d89b4114610a2c57806397c04edb14610a575780639ddb234c14610a80578063a22cb46514610aa957610396565b80638e6b86cb116101b65780638e6b86cb1461099357806393709109146109d05780639401c1e4146109e75780639533d57314610a0357610396565b80637ebededb146109285780638129fc1c146109515780638da5cb5b1461096857610396565b806335643681116102c157806363a205f71161025f5780636ef1eee41161022e5780636ef1eee41461087e57806370a08231146108a9578063715018a6146108e65780637dd12d15146108fd57610396565b806363a205f71461079e5780636c7b7f6c146107c75780636d998f01146108045780636eda504e1461084157610396565b806342842e0e1161029b57806342842e0e146106e65780635d952d251461070f57806361ffc012146107385780636352211e1461076157610396565b80633564368114610653578063399b37981461067e5780633a988498146106a957610396565b806310a6d134116103395780631a924fd5116103085780631a924fd51461057f57806323b872dd146105c45780632c7d077e146105ed57806332a5b0aa1461062a57610396565b806310a6d134146104d957806313de306a146105025780631424f9361461051957806319d17e511461054257610396565b806306fdde031161037557806306fdde031461041d578063081812fc14610448578063095ea7b3146104855780630c53efe6146104ae57610396565b80621640c21461039b57806301ffc9a7146103c457806303ecaa9514610401575b600080fd5b3480156103a757600080fd5b506103c260048036038101906103bd91906185e1565b610e51565b005b3480156103d057600080fd5b506103eb60048036038101906103e69190618735565b6110b6565b6040516103f8919061877d565b60405180910390f35b61041b60048036038101906104169190618929565b611198565b005b34801561042957600080fd5b50610432611f32565b60405161043f9190618a17565b60405180910390f35b34801561045457600080fd5b5061046f600480360381019061046a9190618a39565b611fc4565b60405161047c9190618aa7565b60405180910390f35b34801561049157600080fd5b506104ac60048036038101906104a79190618aee565b61200a565b005b3480156104ba57600080fd5b506104c3612121565b6040516104d09190618b3d565b60405180910390f35b3480156104e557600080fd5b5061050060048036038101906104fb9190618b58565b612128565b005b34801561050e57600080fd5b50610517612a6b565b005b34801561052557600080fd5b50610540600480360381019061053b9190618bfb565b612f42565b005b34801561054e57600080fd5b5061056960048036038101906105649190618c5b565b6130cb565b604051610576919061877d565b60405180910390f35b34801561058b57600080fd5b506105a660048036038101906105a19190618c88565b6130ec565b6040516105bb99989796959493929190618cc8565b60405180910390f35b3480156105d057600080fd5b506105eb60048036038101906105e69190618d55565b613148565b005b3480156105f957600080fd5b50610614600480360381019061060f9190618a39565b6131a8565b6040516106219190618b3d565b60405180910390f35b34801561063657600080fd5b50610651600480360381019061064c9190618a39565b613283565b005b34801561065f57600080fd5b506106686138c9565b6040516106759190618e07565b60405180910390f35b34801561068a57600080fd5b506106936138f0565b6040516106a09190618e07565b60405180910390f35b3480156106b557600080fd5b506106d060048036038101906106cb9190618a39565b613917565b6040516106dd919061877d565b60405180910390f35b3480156106f257600080fd5b5061070d60048036038101906107089190618d55565b613937565b005b34801561071b57600080fd5b5061073660048036038101906107319190618bfb565b613957565b005b34801561074457600080fd5b5061075f600480360381019061075a91906185e1565b613ae0565b005b34801561076d57600080fd5b5061078860048036038101906107839190618a39565b613d45565b6040516107959190618aa7565b60405180910390f35b3480156107aa57600080fd5b506107c560048036038101906107c09190618a39565b613dcb565b005b3480156107d357600080fd5b506107ee60048036038101906107e99190618c5b565b614371565b6040516107fb919061877d565b60405180910390f35b34801561081057600080fd5b5061082b60048036038101906108269190618a39565b614392565b6040516108389190618a17565b60405180910390f35b34801561084d57600080fd5b5061086860048036038101906108639190618c5b565b614433565b604051610875919061877d565b60405180910390f35b34801561088a57600080fd5b50610893614454565b6040516108a09190618e07565b60405180910390f35b3480156108b557600080fd5b506108d060048036038101906108cb9190618c5b565b61447b565b6040516108dd9190618b3d565b60405180910390f35b3480156108f257600080fd5b506108fb614532565b005b34801561090957600080fd5b50610912614546565b60405161091f9190618aa7565b60405180910390f35b34801561093457600080fd5b5061094f600480360381019061094a9190618e22565b61456d565b005b34801561095d57600080fd5b506109666146c5565b005b34801561097457600080fd5b5061097d614d78565b60405161098a9190618aa7565b60405180910390f35b34801561099f57600080fd5b506109ba60048036038101906109b59190618c5b565b614da2565b6040516109c7919061877d565b60405180910390f35b3480156109dc57600080fd5b506109e5614dc3565b005b610a0160048036038101906109fc9190618f75565b6151b8565b005b348015610a0f57600080fd5b50610a2a6004803603810190610a259190618bfb565b61574f565b005b348015610a3857600080fd5b50610a416158d8565b604051610a4e9190618a17565b60405180910390f35b348015610a6357600080fd5b50610a7e6004803603810190610a799190619072565b61596a565b005b348015610a8c57600080fd5b50610aa76004803603810190610aa29190618bfb565b6159fa565b005b348015610ab557600080fd5b50610ad06004803603810190610acb91906190ea565b615b83565b005b348015610ade57600080fd5b50610af96004803603810190610af49190618bfb565b615b99565b005b348015610b0757600080fd5b50610b226004803603810190610b1d919061912a565b615d22565b005b348015610b3057600080fd5b50610b4b6004803603810190610b4691906191b7565b615f38565b005b610b676004803603810190610b6291906192b2565b615f9a565b005b348015610b7557600080fd5b50610b906004803603810190610b8b9190618c5b565b6164a3565b604051610b9d919061877d565b60405180910390f35b348015610bb257600080fd5b50610bcd6004803603810190610bc89190618a39565b6164c4565b604051610bda9190618a17565b60405180910390f35b348015610bef57600080fd5b50610c0a6004803603810190610c059190618bfb565b6165cf565b005b348015610c1857600080fd5b50610c336004803603810190610c2e919061930e565b616758565b604051610c40919061877d565b60405180910390f35b348015610c5557600080fd5b50610c5e61678f565b604051610c6b9190619378565b60405180910390f35b348015610c8057600080fd5b50610c896167b6565b604051610c969190618b3d565b60405180910390f35b348015610cab57600080fd5b50610cc66004803603810190610cc19190618c5b565b6167bc565b604051610cd3919061877d565b60405180910390f35b348015610ce857600080fd5b50610d036004803603810190610cfe9190618bfb565b6167dd565b005b348015610d1157600080fd5b50610d2c6004803603810190610d279190618a39565b616966565b604051610d3c9493929190619393565b60405180910390f35b348015610d5157600080fd5b50610d6c6004803603810190610d6791906193d8565b616996565b005b348015610d7a57600080fd5b50610d956004803603810190610d90919061942b565b616b24565b604051610da2919061877d565b60405180910390f35b348015610db757600080fd5b50610dd26004803603810190610dcd9190618c5b565b616bb8565b604051610ddf919061877d565b60405180910390f35b348015610df457600080fd5b50610dfd616bd9565b005b348015610e0b57600080fd5b50610e266004803603810190610e21919061946b565b616f2d565b005b348015610e3457600080fd5b50610e4f6004803603810190610e4a9190618c5b565b617018565b005b610e6567cc7ec2a30cb5b2a360c01b61709b565b610e6d61709e565b610e816741973bd226d807a160c01b61709b565b610e95674aa54c6904fb88a460c01b61709b565b610ea9672c5297635967d51860c01b61709b565b610ebd6721ad4b3456a93b1260c01b61709b565b60005b888890508110156110aa57610edf672ca3eeb0f6ca2b9760c01b61709b565b888882818110610ef257610ef16194cb565b5b9050602002013561010960008c815260200190815260200160002060008b8b85818110610f2257610f216194cb565b5b90506020020135815260200190815260200160002060000181905550610f526754359b0233c51c8060c01b61709b565b868682818110610f6557610f646194cb565b5b9050602002013561010960008c815260200190815260200160002060008b8b85818110610f9557610f946194cb565b5b90506020020135815260200190815260200160002060010181905550610fc567d578d52025b1da3b60c01b61709b565b848482818110610fd857610fd76194cb565b5b9050602002013561010960008c815260200190815260200160002060008b8b85818110611008576110076194cb565b5b905060200201358152602001908152602001600020600401819055506110386759cc07159806543360c01b61709b565b82828281811061104b5761104a6194cb565b5b9050602002013561010960008c815260200190815260200160002060008b8b8581811061107b5761107a6194cb565b5b9050602002013581526020019081526020016000206003018190555080806110a290619529565b915050610ec0565b50505050505050505050565b60007f80ac58cd000000000000000000000000000000000000000000000000000000007bffffffffffffffffffffffffffffffffffffffffffffffffffffffff1916827bffffffffffffffffffffffffffffffffffffffffffffffffffffffff1916148061118157507f5b5e139f000000000000000000000000000000000000000000000000000000007bffffffffffffffffffffffffffffffffffffffffffffffffffffffff1916827bffffffffffffffffffffffffffffffffffffffffffffffffffffffff1916145b8061119157506111908261711c565b5b9050919050565b6111ac67681c0dca96523a7460c01b61709b565b6111b4617186565b6111c8678b6975a30919839960c01b61709b565b6111dc67c553c74600a1f83a60c01b61709b565b6111f06738d1861abb7c178b60c01b61709b565b61120467c1efef9b5deb175060c01b61709b565b611218678973839573713c7960c01b61709b565b61122e611223614d78565b8460600135846171d5565b8015611264575061010b8260405161124691906195b8565b908152602001604051809103902060009054906101000a900460ff16155b801561130a575061010d60009054906101000a900473ffffffffffffffffffffffffffffffffffffffff1673ffffffffffffffffffffffffffffffffffffffff1663c9941806836040518263ffffffff1660e01b81526004016112c79190619619565b602060405180830381865afa1580156112e4573d6000803e3d6000fd5b505050506040513d601f19601f820116820180604052508101906113089190619650565b155b80156113b0575061010160009054906101000a900473ffffffffffffffffffffffffffffffffffffffff1673ffffffffffffffffffffffffffffffffffffffff1663c9941806836040518263ffffffff1660e01b815260040161136d9190619619565b602060405180830381865afa15801561138a573d6000803e3d6000fd5b505050506040513d601f19601f820116820180604052508101906113ae9190619650565b155b6113ef576040517f08c379a00000000000000000000000000000000000000000000000000000000081526004016113e6906196c9565b60405180910390fd5b61140367b6d4812df5cdc46760c01b61709b565b61141767db85e45aafa4b40160c01b61709b565b61142b67f4ae43eb8f73e71360c01b61709b565b61143f67fc848806049dbbe760c01b61709b565b60ff60008460000135815260200190815260200160002060009054906101000a900460ff1680156114b35750826040013560fe6000856000013581526020019081526020016000206001015461149591906196e9565b60fe6000856000013581526020019081526020016000206000015410155b80156115515750600683600001351480156114de57506114dd673be6a93fbb99428b60c01b61739b565b5b806115255750600783600001351480156115085750611507675e116e9a88d0b10b60c01b61739b565b5b8015611524575061152367b8ead7905200413b60c01b61739b565b5b5b8061155057506008836000013514801561154f575061154e670fbeaa51bf2fe19060c01b61739b565b5b5b5b80156115bd5750610109600084600001358152602001908152602001600020600084602001358152602001908152602001600020600601546101096000856000013581526020019081526020016000206000856020013581526020019081526020016000206005015410155b6115fc576040517f08c379a00000000000000000000000000000000000000000000000000000000081526004016115f39061978f565b60405180910390fd5b611610672aa672335ed17d7b60c01b61709b565b61162467aff8092f8b946bc960c01b61709b565b611638671cbdf1e9cbfdde3960c01b61709b565b61164c675469763ff44f852360c01b61709b565b3483604001356101096000866000013581526020019081526020016000206000866020013581526020019081526020016000206008015461168d91906197af565b146116cd576040517f08c379a00000000000000000000000000000000000000000000000000000000081526004016116c490619855565b60405180910390fd5b6116e167858508d1ecd1b73160c01b61709b565b6116f567791c4912a5d06b8460c01b61709b565b611709670b7365ce2488a61160c01b61709b565b606061171f671efcfa7ef61728b960c01b61709b565b6117336743ac06d8aa8f8a0f60c01b61709b565b6117476749d6062097adc2d060c01b61709b565b61010c5484604001351115611791576040517f08c379a0000000000000000000000000000000000000000000000000000000008152600401611788906198c1565b60405180910390fd5b6117a567ce6666729d09614260c01b61709b565b6117b96722932fdd59c14a6460c01b61709b565b836040013567ffffffffffffffff8111156117d7576117d66187d2565b5b6040519080825280602002602001820160405280156118055781602001602082028036833780820191505090505b50905061181c672c8bcc30aebb170260c01b61709b565b61183067933a89a55f1dc90d60c01b61709b565b60005b846040013581101561195757611853678a11bfe6f9b5866960c01b61709b565b600160fb600082825461186691906196e9565b9250508190555061188167e315cdd5c68079b160c01b61709b565b6040518060400160405280600781526020017f5052494e5445520000000000000000000000000000000000000000000000000081525061010a600060fb54815260200190815260200160002090816118d99190619ae3565b506118ee67e49eda4f0c089b6460c01b61709b565b611902678057b4f8ae7d6ef460c01b61709b565b61190e3360fb546173a6565b611922676def481f2fd0196260c01b61709b565b60fb54828281518110611938576119376194cb565b5b602002602001018181525050808061194f90619529565b915050611833565b5061196c675ce9726888cee04060c01b61709b565b61198067e86249574bda80e160c01b61709b565b61010e60009054906101000a900473ffffffffffffffffffffffffffffffffffffffff1673ffffffffffffffffffffffffffffffffffffffff166108fc349081150290604051600060405180830381858888f193505050501580156119e9573d6000803e3d6000fd5b506119fe672756e8a6e4f544c460c01b61709b565b611a1267545948fb9336af0b60c01b61709b565b6000610109600086600001358152602001908152602001600020600086602001358152602001908152602001600020600301541115611d7857611a5f675aa249496837738560c01b61709b565b611a7367b1ba8f98e7907f8d60c01b61709b565b611a8767131402bd2dc7996960c01b61709b565b61010d60009054906101000a900473ffffffffffffffffffffffffffffffffffffffff1673ffffffffffffffffffffffffffffffffffffffff1663d1660f993330610109600089600001358152602001908152602001600020600089602001358152602001908152602001600020600701546040518463ffffffff1660e01b8152600401611b1793929190619bb5565b600060405180830381600087803b158015611b3157600080fd5b505af1158015611b45573d6000803e3d6000fd5b50505050611b5d676d6ad4a5560048b160c01b61709b565b611b7167b8203ac42b49057b60c01b61709b565b61010d60009054906101000a900473ffffffffffffffffffffffffffffffffffffffff1673ffffffffffffffffffffffffffffffffffffffff1663095ea7b361010e60009054906101000a900473ffffffffffffffffffffffffffffffffffffffff16610109600088600001358152602001908152602001600020600088602001358152602001908152602001600020600701546040518363ffffffff1660e01b8152600401611c22929190619bec565b6020604051808303816000875af1158015611c41573d6000803e3d6000fd5b505050506040513d601f19601f82011682018060405250810190611c659190619650565b50611c7a676162ed1d67fb852560c01b61709b565b611c8e67cbbbc726c3df222b60c01b61709b565b61010d60009054906101000a900473ffffffffffffffffffffffffffffffffffffffff1673ffffffffffffffffffffffffffffffffffffffff1663d1660f993061010e60009054906101000a900473ffffffffffffffffffffffffffffffffffffffff16610109600089600001358152602001908152602001600020600089602001358152602001908152602001600020600301546040518463ffffffff1660e01b8152600401611d4193929190619bb5565b600060405180830381600087803b158015611d5b57600080fd5b505af1158015611d6f573d6000803e3d6000fd5b50505050611d8d565b611d8c6752b81ea2bbba670360c01b61709b565b5b611da1676d215539c488b8b860c01b61709b565b836040013560fe6000866000013581526020019081526020016000206003016000828254611dcf91906196e9565b92505081905550611dea6797f79d7d9d5036d260c01b61709b565b83604001356101096000866000013581526020019081526020016000206000866020013581526020019081526020016000206006016000828254611e2e91906196e9565b92505081905550611e49676c15427f2bbfeb2a60c01b61709b565b600161010b84604051611e5c91906195b8565b908152602001604051809103902060006101000a81548160ff021916908315150217905550611e95671a6f099e5546c85260c01b61709b565b611ea96770381f2c4338589860c01b61709b565b7f51648125ce33694873381e0c4ad7f8ef183c08887969bef55995f6feb91f56733382866000013587602001353461010960008b60000135815260200190815260200160002060008b6020013581526020019081526020016000206003015488604051611f1c9796959493929190619d1f565b60405180910390a150611f2d6173c4565b505050565b606060658054611f4190619910565b80601f0160208091040260200160405190810160405280929190818152602001828054611f6d90619910565b8015611fba5780601f10611f8f57610100808354040283529160200191611fba565b820191906000526020600020905b815481529060010190602001808311611f9d57829003601f168201915b5050505050905090565b6000611fcf826173ce565b6069600083815260200190815260200160002060009054906101000a900473ffffffffffffffffffffffffffffffffffffffff169050919050565b600061201582613d45565b90508073ffffffffffffffffffffffffffffffffffffffff168373ffffffffffffffffffffffffffffffffffffffff1603612085576040517f08c379a000000000000000000000000000000000000000000000000000000000815260040161207c90619e1b565b60405180910390fd5b8073ffffffffffffffffffffffffffffffffffffffff166120a4617419565b73ffffffffffffffffffffffffffffffffffffffff1614806120d357506120d2816120cd617419565b616b24565b5b612112576040517f08c379a000000000000000000000000000000000000000000000000000000000815260040161210990619ead565b60405180910390fd5b61211c8383617421565b505050565b61010c5481565b61213c67321a0cf1ed7a7ffc60c01b61709b565b612144617186565b61215867f3ed626055d35d9260c01b61709b565b61216c67ada45b6dd1a1e4d860c01b61709b565b61218067527969bc7e5efdd060c01b61709b565b612194675ad3b35a361b55d160c01b61709b565b6121a867998afb64b21fa8b060c01b61709b565b60ff60006005815260200190815260200160002060009054906101000a900460ff168015612212575060fe600060058152602001908152602001600020600001548282905060fe6000600581526020019081526020016000206001015461220f91906196e9565b11155b801561225a575060fe600060058152602001908152602001600020600201548282905060fe6000600581526020019081526020016000206003015461225791906196e9565b11155b612299576040517f08c379a000000000000000000000000000000000000000000000000000000000815260040161229090619f3f565b60405180910390fd5b6122ad6765688371c108892960c01b61709b565b6122c167ca7857776c560b1f60c01b61709b565b6122d5675c6a75b99f03111960c01b61709b565b60008282905067ffffffffffffffff8111156122f4576122f36187d2565b5b6040519080825280602002602001820160405280156123225781602001602082028036833780820191505090505b509050612339676faf084b36b98a3060c01b61709b565b61234d6799a8b1e878cf811060c01b61709b565b60008383905067ffffffffffffffff81111561236c5761236b6187d2565b5b60405190808252806020026020018201604052801561239a5781602001602082028036833780820191505090505b5090506123b167cc4e5acf460613f360c01b61709b565b6123c56717bfb4b4423c0edc60c01b61709b565b60005b848490508110156129f2576123e767a009b4d9cf689e3260c01b61709b565b6123fb676ef1c3b58c008ce960c01b61709b565b61240f67c285e83c2b093b5560c01b61709b565b3373ffffffffffffffffffffffffffffffffffffffff1661010060009054906101000a900473ffffffffffffffffffffffffffffffffffffffff1673ffffffffffffffffffffffffffffffffffffffff16636352211e878785818110612478576124776194cb565b5b905060200201356040518263ffffffff1660e01b815260040161249b9190618b3d565b602060405180830381865afa1580156124b8573d6000803e3d6000fd5b505050506040513d601f19601f820116820180604052508101906124dc9190619f74565b73ffffffffffffffffffffffffffffffffffffffff1614612532576040517f08c379a000000000000000000000000000000000000000000000000000000000815260040161252990619fed565b60405180910390fd5b6125466783d681c1f8a6452a60c01b61709b565b61255a671cd1dfaa54f61d2760c01b61709b565b61256e673869047c35c85e6e60c01b61709b565b61010060009054906101000a900473ffffffffffffffffffffffffffffffffffffffff1673ffffffffffffffffffffffffffffffffffffffff166323b872dd33308888868181106125c2576125c16194cb565b5b905060200201356040518463ffffffff1660e01b81526004016125e793929190619bb5565b600060405180830381600087803b15801561260157600080fd5b505af1158015612615573d6000803e3d6000fd5b5050505061262d67bcf57c3dc7b8695960c01b61709b565b612641679f04e1ddd0387adc60c01b61709b565b61010060009054906101000a900473ffffffffffffffffffffffffffffffffffffffff1673ffffffffffffffffffffffffffffffffffffffff1663095ea7b361dead878785818110612696576126956194cb565b5b905060200201356040518363ffffffff1660e01b81526004016126ba929190619bec565b600060405180830381600087803b1580156126d457600080fd5b505af11580156126e8573d6000803e3d6000fd5b5050505061270067f69a248ad6f18a7d60c01b61709b565b61271467eab13c6061e00adc60c01b61709b565b61010060009054906101000a900473ffffffffffffffffffffffffffffffffffffffff1673ffffffffffffffffffffffffffffffffffffffff166323b872dd3061dead88888681811061276a576127696194cb565b5b905060200201356040518463ffffffff1660e01b815260040161278f93929190619bb5565b600060405180830381600087803b1580156127a957600080fd5b505af11580156127bd573d6000803e3d6000fd5b505050506127d5674667154dbe3b8eca60c01b61709b565b6127e967af3c08fe1ac3a9f260c01b61709b565b600061010160009054906101000a900473ffffffffffffffffffffffffffffffffffffffff1673ffffffffffffffffffffffffffffffffffffffff166358f5f8be336040518263ffffffff1660e01b81526004016128479190618aa7565b6020604051808303816000875af1158015612866573d6000803e3d6000fd5b505050506040513d601f19601f8201168201806040525081019061288a919061a022565b90506128a06799b79154f5b1dd3060c01b61709b565b600160fb60008282546128b391906196e9565b925050819055506128ce67f7be70c31818ca9560c01b61709b565b60fb548483815181106128e4576128e36194cb565b5b60200260200101818152505061290467ad9bcbfc0c66ad2160c01b61709b565b80838381518110612918576129176194cb565b5b60200260200101818152505061293867758c3816832d6b9a60c01b61709b565b61294c672cc854fcd889616260c01b61709b565b6129583360fb546174da565b61296c672450cf20a473ee4660c01b61709b565b600160fe600060058152602001908152602001600020600301600082825461299491906196e9565b925050819055506129af67e0a968da5778113560c01b61709b565b600160fe60006005815260200190815260200160002060010160008282546129d791906196e9565b925050819055505080806129ea90619529565b9150506123c8565b50612a07670c85e3e241708cf160c01b61709b565b612a1b67fb3910feeb322aa760c01b61709b565b7fbed2ea4cc61a5f3d97bf656e6a36da515575612249452e8dbf3d972b675e314333600583858888604051612a559695949392919061a0f4565b60405180910390a15050612a676173c4565b5050565b612a7f676bbd491bdcd03c1360c01b61709b565b612a87617186565b612a9b67dce7c4fb9aba036e60c01b61709b565b612aaf6779e9fe738977589b60c01b61709b565b612ac3677c8b903548cfb18f60c01b61709b565b612ad767ee1ae0bf9b4c07c060c01b61709b565b612aeb67ea95319cc496df3560c01b61709b565b60ff60006004815260200190815260200160002060009054906101000a900460ff168015612b46575060fe6000600481526020019081526020016000206000015460fe60006004815260200190815260200160002060010154105b8015612b7f575060fe6000600481526020019081526020016000206002015460fe60006004815260200190815260200160002060030154105b612bbe576040517f08c379a0000000000000000000000000000000000000000000000000000000008152600401612bb590619f3f565b60405180910390fd5b612bd26747fce5f84ed719d460c01b61709b565b612be66799c24fd0fdb73c5b60c01b61709b565b612bfa677b6f25bfefa1d20a60c01b61709b565b612c0e6745f8c2aefd85283060c01b61709b565b61010460003373ffffffffffffffffffffffffffffffffffffffff1673ffffffffffffffffffffffffffffffffffffffff16815260200190815260200160002060009054906101000a900460ff16612c9b576040517f08c379a0000000000000000000000000000000000000000000000000000000008152600401612c929061a1aa565b60405180910390fd5b612caf67f69d805b105fc8ea60c01b61709b565b612cc36756c8430e79919cd260c01b61709b565b612cd7670d89a8abaff64c4460c01b61709b565b600061010160009054906101000a900473ffffffffffffffffffffffffffffffffffffffff1673ffffffffffffffffffffffffffffffffffffffff166358f5f8be336040518263ffffffff1660e01b8152600401612d359190618aa7565b6020604051808303816000875af1158015612d54573d6000803e3d6000fd5b505050506040513d601f19601f82011682018060405250810190612d78919061a022565b9050612d8e67431140c7a51d30de60c01b61709b565b600160fe6000600481526020019081526020016000206003016000828254612db691906196e9565b92505081905550612dd167334ecfab217b7a6760c01b61709b565b600160fb6000828254612de491906196e9565b92505081905550612dff67b56c56e7e205b6f060c01b61709b565b612e1367c7536ac70fc4351960c01b61709b565b612e1f3360fb546174da565b612e33677bd9d4df689b14fe60c01b61709b565b600160fe6000600481526020019081526020016000206001016000828254612e5b91906196e9565b92505081905550612e76673f36c1c59f6c2b1360c01b61709b565b600061010460003373ffffffffffffffffffffffffffffffffffffffff1673ffffffffffffffffffffffffffffffffffffffff16815260200190815260200160002060006101000a81548160ff021916908315150217905550612ee367e14b33fb157a5ffd60c01b61709b565b612ef76775e61f6bcd476ae660c01b61709b565b7f04523983e24616f78ff12ff843803430d32341b84760bd1fff8bc9b9def153893360048360fb54604051612f2f949392919061a205565b60405180910390a150612f406173c4565b565b612f5667c3af10f14808035a60c01b61709b565b612f5e61709e565b612f726724f79b595f53f48e60c01b61709b565b612f8667842da76b91d277a460c01b61709b565b612f9a670ccc4674ccb773f460c01b61709b565b612fae67471b5668bc279b9a60c01b61709b565b60005b8383905081101561306257612fd067eb70d690540660f760c01b61709b565b816101036000868685818110612fe957612fe86194cb565b5b9050602002016020810190612ffe9190618c5b565b73ffffffffffffffffffffffffffffffffffffffff1673ffffffffffffffffffffffffffffffffffffffff16815260200190815260200160002060006101000a81548160ff021916908315150217905550808061305a90619529565b915050612fb1565b50613077671e14f5b8bd91247c60c01b61709b565b61308b671fcd5347ab0c67b260c01b61709b565b7f4c8368746583e40765156b70aa8a680beb42868327860b5d1fd1bd4a5a0d2a698383836040516130be9392919061a30d565b60405180910390a1505050565b6101026020528060005260406000206000915054906101000a900460ff1681565b610109602052816000526040600020602052806000526040600020600091509150508060000154908060010154908060020154908060030154908060040154908060050154908060060154908060070154908060080154905089565b613159613153617419565b826176f7565b613198576040517f08c379a000000000000000000000000000000000000000000000000000000000815260040161318f9061a3b1565b60405180910390fd5b6131a383838361778c565b505050565b60006131be67d7138d62b67c64f060c01b61709b565b6131d2674a2c363bab323edd60c01b61709b565b6103e88261010160009054906101000a900473ffffffffffffffffffffffffffffffffffffffff1673ffffffffffffffffffffffffffffffffffffffff16636fb1eb0c6040518163ffffffff1660e01b8152600401602060405180830381865afa158015613244573d6000803e3d6000fd5b505050506040513d601f19601f82011682018060405250810190613268919061a022565b61327291906197af565b61327c919061a400565b9050919050565b6132976753579739a2f0596160c01b61709b565b61329f617186565b6132b367f319c89d0e43475160c01b61709b565b6132c7672a152d044c62bc3860c01b61709b565b6132db67d0921eb3a37364b760c01b61709b565b6132ef6715e32313e127236f60c01b61709b565b6133036727fc956b0935997a60c01b61709b565b60ff600082815260200190815260200160002060009054906101000a900460ff16801561335b575060fe60008281526020019081526020016000206002015460fe600083815260200190815260200160002060030154105b80156133aa575060018114801561338257506133816738ea5f94a5bc888760c01b61739b565b5b806133a957506002811480156133a857506133a76786d425d9d3977c7360c01b61739b565b5b5b5b6133e9576040517f08c379a00000000000000000000000000000000000000000000000000000000081526004016133e090619f3f565b60405180910390fd5b6133fd6741a40928e87ba49f60c01b61709b565b61341167f35c47875e4b232860c01b61709b565b61342567e136288d54374f1860c01b61709b565b600181036135905761344167a0121d4c62946a4e60c01b61709b565b61345567b369825208cc3fee60c01b61709b565b61346967fa70225e9911ad8460c01b61709b565b61347d676f194f2cfec0626d60c01b61709b565b61010660003373ffffffffffffffffffffffffffffffffffffffff1673ffffffffffffffffffffffffffffffffffffffff16815260200190815260200160002060009054906101000a900460ff1661350a576040517f08c379a00000000000000000000000000000000000000000000000000000000081526004016135019061a4a3565b60405180910390fd5b61351e67b23cc67c9c29c50b60c01b61709b565b61353267c4d6e93383bdca8760c01b61709b565b600061010660003373ffffffffffffffffffffffffffffffffffffffff1673ffffffffffffffffffffffffffffffffffffffff16815260200190815260200160002060006101000a81548160ff0219169083151502179055506135a5565b6135a46766bce03c8f2846e460c01b61709b565b5b6135b967594420e1ea76688760c01b61709b565b6135cd6795c0d55b7844374a60c01b61709b565b60028103613738576135e96769ec0dbeb004cb3f60c01b61709b565b6135fd67031a6285279fae4c60c01b61709b565b61361167ac5c07180d3f310360c01b61709b565b6136256725bd89496b328b4d60c01b61709b565b61010860003373ffffffffffffffffffffffffffffffffffffffff1673ffffffffffffffffffffffffffffffffffffffff16815260200190815260200160002060009054906101000a900460ff166136b2576040517f08c379a00000000000000000000000000000000000000000000000000000000081526004016136a99061a4a3565b60405180910390fd5b6136c667db1a3f1e13bea2e360c01b61709b565b6136da67bd2b2acf05144dd860c01b61709b565b600061010860003373ffffffffffffffffffffffffffffffffffffffff1673ffffffffffffffffffffffffffffffffffffffff16815260200190815260200160002060006101000a81548160ff02191690831515021790555061374d565b61374c67574bcc050ec4697460c01b61709b565b5b613761679f156d8070f95e4060c01b61709b565b600160fe6000838152602001908152602001600020600301600082825461378891906196e9565b925050819055506137a3674cd705ef16c93c9b60c01b61709b565b6137b7678c69b1ebe3c99ec760c01b61709b565b600061010160009054906101000a900473ffffffffffffffffffffffffffffffffffffffff1673ffffffffffffffffffffffffffffffffffffffff166358f5f8be336040518263ffffffff1660e01b81526004016138159190618aa7565b6020604051808303816000875af1158015613834573d6000803e3d6000fd5b505050506040513d601f19601f82011682018060405250810190613858919061a022565b905061386e67ab0c8f9e7c3ebd0660c01b61709b565b6138826753c1a40bbbfbb1b560c01b61709b565b7f2e9e0784b8b9603d5dfcd027dd92455b08d1f69b95710bd5d145c962ad1117da3382846040516138b59392919061a4c3565b60405180910390a1506138c66173c4565b50565b61010f60009054906101000a900473ffffffffffffffffffffffffffffffffffffffff1681565b61010060009054906101000a900473ffffffffffffffffffffffffffffffffffffffff1681565b60ff6020528060005260406000206000915054906101000a900460ff1681565b61395283838360405180602001604052806000815250615f38565b505050565b61396b67f4f2a0c5547ada4e60c01b61709b565b61397361709e565b6139876757a9ccfed0026e7b60c01b61709b565b61399b67c3526eba7781d55660c01b61709b565b6139af67937935338e4e659160c01b61709b565b6139c367c216641bbdb44dbb60c01b61709b565b60005b83839050811015613a77576139e567c0810c805e4a186260c01b61709b565b8161010260008686858181106139fe576139fd6194cb565b5b9050602002016020810190613a139190618c5b565b73ffffffffffffffffffffffffffffffffffffffff1673ffffffffffffffffffffffffffffffffffffffff16815260200190815260200160002060006101000a81548160ff0219169083151502179055508080613a6f90619529565b9150506139c6565b50613a8c67e7cb4e8938fed83460c01b61709b565b613aa067ee1d107a100b861b60c01b61709b565b7f074182baf39a64f81a9dfd5c4224b63af9fe2d0c8396bbcf57743387418379e1838383604051613ad39392919061a30d565b60405180910390a1505050565b613af46720fb9954feab420b60c01b61709b565b613afc61709e565b613b10675caec94ba81557a060c01b61709b565b613b2467987c96fc8ddd457f60c01b61709b565b613b38670cccdd443651dd1c60c01b61709b565b613b4c678ea493c35978fbe160c01b61709b565b60005b88889050811015613d3957613b6e67c196048d1b1ddd3360c01b61709b565b888882818110613b8157613b806194cb565b5b9050602002013561010960008c815260200190815260200160002060008b8b85818110613bb157613bb06194cb565b5b90506020020135815260200190815260200160002060000181905550613be167ff4cab4399e12b9460c01b61709b565b868682818110613bf457613bf36194cb565b5b9050602002013561010960008c815260200190815260200160002060008b8b85818110613c2457613c236194cb565b5b90506020020135815260200190815260200160002060050181905550613c5467039d4d0b5d19d29f60c01b61709b565b848482818110613c6757613c666194cb565b5b9050602002013561010960008c815260200190815260200160002060008b8b85818110613c9757613c966194cb565b5b90506020020135815260200190815260200160002060080181905550613cc76726f5774544ece82960c01b61709b565b828282818110613cda57613cd96194cb565b5b9050602002013561010960008c815260200190815260200160002060008b8b85818110613d0a57613d096194cb565b5b905060200201358152602001908152602001600020600701819055508080613d3190619529565b915050613b4f565b50505050505050505050565b600080613d5183617a85565b9050600073ffffffffffffffffffffffffffffffffffffffff168173ffffffffffffffffffffffffffffffffffffffff1603613dc2576040517f08c379a0000000000000000000000000000000000000000000000000000000008152600401613db99061a546565b60405180910390fd5b80915050919050565b613ddf6721a3a45d43362fb360c01b61709b565b613df367fec8722caf720b3860c01b61709b565b613e07674de2c4d7c3065cc060c01b61709b565b613e1b674abccdb857d7474660c01b61709b565b60ff600082815260200190815260200160002060009054906101000a900460ff168015613e73575060fe60008281526020019081526020016000206000015460fe600083815260200190815260200160002060010154105b8015613ec25750600181148015613e9a5750613e996790ace6f2d7d2052960c01b61739b565b5b80613ec15750600281148015613ec05750613ebf6729032fe095650bc460c01b61739b565b5b5b5b613f01576040517f08c379a0000000000000000000000000000000000000000000000000000000008152600401613ef890619f3f565b60405180910390fd5b613f1567e0d373f51a57727160c01b61709b565b613f296742d7e749acf32b1360c01b61709b565b613f3d67cf80d00f39eddb2960c01b61709b565b600181036140a857613f59674b59d5571f5c998660c01b61709b565b613f6d672d8879201d4059a060c01b61709b565b613f8167165242f9ac48d45460c01b61709b565b613f956703aba487da1a117e60c01b61709b565b61010560003373ffffffffffffffffffffffffffffffffffffffff1673ffffffffffffffffffffffffffffffffffffffff16815260200190815260200160002060009054906101000a900460ff16614022576040517f08c379a00000000000000000000000000000000000000000000000000000000081526004016140199061a4a3565b60405180910390fd5b6140366783aa3e504460674860c01b61709b565b61404a67be5c48d9484673b160c01b61709b565b600061010560003373ffffffffffffffffffffffffffffffffffffffff1673ffffffffffffffffffffffffffffffffffffffff16815260200190815260200160002060006101000a81548160ff0219169083151502179055506140bd565b6140bc671370bf93960d503860c01b61709b565b5b6140d167eba968e227589bc960c01b61709b565b6140e567d132d67a3604f36060c01b61709b565b600281036142505761410167ac4ebf36688f683c60c01b61709b565b6141156730eac8ae9a6f789360c01b61709b565b614129677428aa5f8dc4edf860c01b61709b565b61413d678724f219b8e7309860c01b61709b565b61010760003373ffffffffffffffffffffffffffffffffffffffff1673ffffffffffffffffffffffffffffffffffffffff16815260200190815260200160002060009054906101000a900460ff166141ca576040517f08c379a00000000000000000000000000000000000000000000000000000000081526004016141c19061a4a3565b60405180910390fd5b6141de675a6d61c5dbd4cec960c01b61709b565b6141f26772b81e12f147f01460c01b61709b565b600061010760003373ffffffffffffffffffffffffffffffffffffffff1673ffffffffffffffffffffffffffffffffffffffff16815260200190815260200160002060006101000a81548160ff021916908315150217905550614265565b614264670abb6212b7d6a45160c01b61709b565b5b614279675707de17073324df60c01b61709b565b600160fe600083815260200190815260200160002060010160008282546142a091906196e9565b925050819055506142bb67f2125c844805a71960c01b61709b565b600160fb60008282546142ce91906196e9565b925050819055506142e9674329c910150687bc60c01b61709b565b6142fd6738e60fc6d241ff4d60c01b61709b565b6143093360fb546174da565b61431d674093df2456b96ad860c01b61709b565b61433167f5f92344eca387ff60c01b61709b565b7f6b31e785e40ea595c823d38323157461d86f76a74c76faa41190de60912863e73360fb54836040516143669392919061a4c3565b60405180910390a150565b6101056020528060005260406000206000915054906101000a900460ff1681565b61010a60205280600052604060002060009150905080546143b290619910565b80601f01602080910402602001604051908101604052809291908181526020018280546143de90619910565b801561442b5780601f106144005761010080835404028352916020019161442b565b820191906000526020600020905b81548152906001019060200180831161440e57829003601f168201915b505050505081565b6101086020528060005260406000206000915054906101000a900460ff1681565b61010160009054906101000a900473ffffffffffffffffffffffffffffffffffffffff1681565b60008073ffffffffffffffffffffffffffffffffffffffff168273ffffffffffffffffffffffffffffffffffffffff16036144eb576040517f08c379a00000000000000000000000000000000000000000000000000000000081526004016144e29061a5d8565b60405180910390fd5b606860008373ffffffffffffffffffffffffffffffffffffffff1673ffffffffffffffffffffffffffffffffffffffff168152602001908152602001600020549050919050565b61453a61709e565b6145446000617ac2565b565b61010e60009054906101000a900473ffffffffffffffffffffffffffffffffffffffff1681565b614581674b45f5fb7511479260c01b61709b565b61458961709e565b61459d6799430cd98222031b60c01b61709b565b6145b1674ceed4215043a9d060c01b61709b565b6145c56792741058e6f7d64c60c01b61709b565b6145d96775f938c45536db8f60c01b61709b565b60005b868690508110156146bc576145fb6758d43b26f2a3bf3a60c01b61709b565b84848281811061460e5761460d6194cb565b5b9050602002013560fe600089898581811061462c5761462b6194cb565b5b9050602002013581526020019081526020016000206002018190555061465c67e2d98801cd34ce4460c01b61709b565b82828281811061466f5761466e6194cb565b5b9050602002013560fe600089898581811061468d5761468c6194cb565b5b9050602002013581526020019081526020016000206000018190555080806146b490619529565b9150506145dc565b50505050505050565b6146d967e600399a9bdbea3c60c01b61709b565b60008060019054906101000a900460ff1615905080801561470a5750600160008054906101000a900460ff1660ff16105b80614737575061471930617b88565b1580156147365750600160008054906101000a900460ff1660ff16145b5b614776576040517f08c379a000000000000000000000000000000000000000000000000000000000815260040161476d9061a66a565b60405180910390fd5b60016000806101000a81548160ff021916908360ff16021790555080156147b3576001600060016101000a81548160ff0219169083151502179055505b6147c7671565997094a386a360c01b61709b565b6147db67a1e6ba1e53c3c41660c01b61709b565b6147ef6703eb8fbed5992a8460c01b61709b565b614803672a5f977a86c23be260c01b61709b565b6148776040518060400160405280600f81526020017f416c6c6f792053706163652041524600000000000000000000000000000000008152506040518060400160405280600381526020017f4152460000000000000000000000000000000000000000000000000000000000815250617bab565b61488b67a64c54302d46870860c01b61709b565b61489f67d97f6c4747d2917460c01b61709b565b6148a7617c08565b6148bb67b450c400d33fcd6760c01b61709b565b6148cf671e429899a428b1b260c01b61709b565b6148d7617c61565b6148eb6762cd6ef33fc99f0a60c01b61709b565b60405180606001604052806028815260200161b22b6028913960fc90816149129190619ae3565b5061492767195728ca5cbdfa6060c01b61709b565b6040518060400160405280600f81526020017f2d746f6b656e2d7572692e6a736f6e000000000000000000000000000000000081525060fd908161496b9190619ae3565b506149806721b5bea2bbc1cc3e60c01b61709b565b600060fb8190555061499c67a99426c2b50b632a60c01b61709b565b6149b067a7bb6d2c9272507d60c01b61709b565b600060405180610100016040528061022161ffff168152602001606561ffff16815260200160fa61ffff16815260200160fa61ffff1681526020016107d561ffff1681526020016103ea61ffff1681526020016103e961ffff16815260200161019161ffff168152509050614a2f678258eb626bd1128060c01b61709b565b614a436787d8cd61aa96542e60c01b61709b565b60006040518061010001604052806105e161ffff1681526020016101f961ffff168152602001600061ffff16815260200160fa61ffff1681526020016107d561ffff1681526020016107d461ffff1681526020016107d361ffff1681526020016107d361ffff168152509050614ac367a5387b88a3063d4560c01b61709b565b614ad7671989982790497ed260c01b61709b565b60005b6008811015614bdb57614af767bb19f64f5c5eaec860c01b61709b565b614b0b67c40b7b65ffcd385d60c01b61709b565b60006040518060800160405280858460088110614b2b57614b2a6194cb565b5b602002015161ffff16815260200160008152602001848460088110614b5357614b526194cb565b5b602002015161ffff16815260200160008152509050614b7c676bbb99909fd58fcb60c01b61709b565b8060fe6000600185614b8e91906196e9565b815260200190815260200160002060008201518160000155602082015181600101556040820151816002015560608201518160030155905050508080614bd390619529565b915050614ada565b50614bf0675ec5596a31a0f7a960c01b61709b565b736bc174805568608e7092d554ba5fefd5461b519461010160006101000a81548173ffffffffffffffffffffffffffffffffffffffff021916908373ffffffffffffffffffffffffffffffffffffffff160217905550614c5a67927dd6714a03eeed60c01b61709b565b7307b057133d28d44fc1c917d8f77a5a8099f01a9761010d60006101000a81548173ffffffffffffffffffffffffffffffffffffffff021916908373ffffffffffffffffffffffffffffffffffffffff160217905550614cc46780e5851e1ce8787f60c01b61709b565b734f68437579a7077010290e6b713076495fee37e661010e60006101000a81548173ffffffffffffffffffffffffffffffffffffffff021916908373ffffffffffffffffffffffffffffffffffffffff16021790555050508015614d755760008060016101000a81548160ff0219169083151502179055507f7f26b83ff96e1f2b6a682f133852f6798a09c465da95921460cefb38474024986001604051614d6c919061a6d2565b60405180910390a15b50565b6000609760009054906101000a900473ffffffffffffffffffffffffffffffffffffffff16905090565b6101066020528060005260406000206000915054906101000a900460ff1681565b614dd76722aecb9646358f9260c01b61709b565b614ddf617186565b614df367fad96add1d0ad6a260c01b61709b565b614e0767749f9cd75172d40e60c01b61709b565b614e1b672299110407f919fd60c01b61709b565b614e2f67c0e9b88873865a4960c01b61709b565b614e4367030bc61dc0e759d460c01b61709b565b60ff60006003815260200190815260200160002060009054906101000a900460ff168015614e9e575060fe6000600381526020019081526020016000206002015460fe60006003815260200190815260200160002060030154105b614edd576040517f08c379a0000000000000000000000000000000000000000000000000000000008152600401614ed490619f3f565b60405180910390fd5b614ef167d317c76f7950d7ce60c01b61709b565b614f0567614c2a3204d45c9c60c01b61709b565b614f1967776d84da2424a9a860c01b61709b565b614f2d678add65eef7a8499960c01b61709b565b61010360003373ffffffffffffffffffffffffffffffffffffffff1673ffffffffffffffffffffffffffffffffffffffff16815260200190815260200160002060009054906101000a900460ff16614fba576040517f08c379a0000000000000000000000000000000000000000000000000000000008152600401614fb19061a4a3565b60405180910390fd5b614fce6754c78fcf9e3fed7260c01b61709b565b614fe267b2d032122478063260c01b61709b565b600061010360003373ffffffffffffffffffffffffffffffffffffffff1673ffffffffffffffffffffffffffffffffffffffff16815260200190815260200160002060006101000a81548160ff02191690831515021790555061504f67a9365a6fef11d70960c01b61709b565b600160fe600060038152602001908152602001600020600301600082825461507791906196e9565b925050819055506150926734bcc69f2fd2f26960c01b61709b565b6150a667cb628c567b9d3dff60c01b61709b565b600061010160009054906101000a900473ffffffffffffffffffffffffffffffffffffffff1673ffffffffffffffffffffffffffffffffffffffff166358f5f8be336040518263ffffffff1660e01b81526004016151049190618aa7565b6020604051808303816000875af1158015615123573d6000803e3d6000fd5b505050506040513d601f19601f82011682018060405250810190615147919061a022565b905061515d6720387630bb91dd4460c01b61709b565b6151716711d1b50d829ee7a760c01b61709b565b7f44eb92b6f9778e6790811c1ff3f8535ffb7145fb366595580e36fbd5b35f05c8338260036040516151a59392919061a728565b60405180910390a1506151b66173c4565b565b6151cc67f448171ef5015c6460c01b61709b565b6151d4617186565b6151e86761ce49414b415ba460c01b61709b565b6151fc67833e81a5492ad19b60c01b61709b565b615210675f537fb3a1f227c560c01b61709b565b615224672bab42014b62a85c60c01b61709b565b60006152338360000151613d45565b90506152496707ae2dfdd7be165860c01b61709b565b61525d67915eb346f9a1785b60c01b61709b565b61527167884e3d967efda75e60c01b61709b565b615280818460400151846171d5565b80156152b6575061010b8260405161529891906195b8565b908152602001604051809103902060009054906101000a900460ff16155b801561535c575061010d60009054906101000a900473ffffffffffffffffffffffffffffffffffffffff1673ffffffffffffffffffffffffffffffffffffffff1663c9941806836040518263ffffffff1660e01b81526004016153199190619619565b602060405180830381865afa158015615336573d6000803e3d6000fd5b505050506040513d601f19601f8201168201806040525081019061535a9190619650565b155b8015615402575061010160009054906101000a900473ffffffffffffffffffffffffffffffffffffffff1673ffffffffffffffffffffffffffffffffffffffff1663c9941806836040518263ffffffff1660e01b81526004016153bf9190619619565b602060405180830381865afa1580156153dc573d6000803e3d6000fd5b505050506040513d601f19601f820116820180604052508101906154009190619650565b155b615441576040517f08c379a00000000000000000000000000000000000000000000000000000000081526004016154389061a7ab565b60405180910390fd5b61545567103ba2e73a95a1eb60c01b61709b565b615469675a8cc7f58e5fb45c60c01b61709b565b61547d6703574e00f5a6aa1360c01b61709b565b615491671c49cc7d541224d360c01b61709b565b348360200151146154d7576040517f08c379a00000000000000000000000000000000000000000000000000000000081526004016154ce9061a83d565b60405180910390fd5b6154eb67d3217ffcc59c880060c01b61709b565b6154ff6728835a11b12bf64e60c01b61709b565b61551367de72168dd11139ae60c01b61709b565b6155328133856000015160405180602001604052806000815250617cba565b61554667d49a2994f80d4fcf60c01b61709b565b600161010b8360405161555991906195b8565b908152602001604051809103902060006101000a81548160ff021916908315150217905550615592673e8929127bf16f8f60c01b61709b565b6155a667a08823bcc4ba2a1160c01b61709b565b60006155b1346131a8565b90506155c767a6f2afcc62434e1660c01b61709b565b6155db674a05c40250cf73b560c01b61709b565b61010e60009054906101000a900473ffffffffffffffffffffffffffffffffffffffff1673ffffffffffffffffffffffffffffffffffffffff166108fc829081150290604051600060405180830381858888f19350505050158015615644573d6000803e3d6000fd5b50615659671bd373c73092e65660c01b61709b565b61566d67f51f4d3913b3944b60c01b61709b565b8173ffffffffffffffffffffffffffffffffffffffff166108fc8234615693919061a85d565b9081150290604051600060405180830381858888f193505050501580156156be573d6000803e3d6000fd5b506156d3679bee17d0dc1550e960c01b61709b565b6156e7678f91d6cfd2c67b6560c01b61709b565b7f80cf10dac1b681dc583a2a6ab3d1e5279e026d3fb3c9001157fc290c9a1bed69823334876000015161010a60008a60000151815260200190815260200160002060405161573995949392919061a915565b60405180910390a1505061574b6173c4565b5050565b6157636732ecf31797a1b89f60c01b61709b565b61576b61709e565b61577f67baaf56ba2db2c78f60c01b61709b565b61579367b2b287cfb1f4f87560c01b61709b565b6157a76763f3beb5ad48ad3c60c01b61709b565b6157bb67b4abc52be359e6b260c01b61709b565b60005b8383905081101561586f576157dd67c33fd82d20cd910660c01b61709b565b8161010460008686858181106157f6576157f56194cb565b5b905060200201602081019061580b9190618c5b565b73ffffffffffffffffffffffffffffffffffffffff1673ffffffffffffffffffffffffffffffffffffffff16815260200190815260200160002060006101000a81548160ff021916908315150217905550808061586790619529565b9150506157be565b50615884678253eb50b5d7be9d60c01b61709b565b6158986745ed80398bcdc80f60c01b61709b565b7f55d7a640169ee4a6157c88413d657e05aeb41f8fa2d6ef0b1cc82997f39c5b538383836040516158cb9392919061a30d565b60405180910390a1505050565b6060606680546158e790619910565b80601f016020809104026020016040519081016040528092919081815260200182805461591390619910565b80156159605780601f1061593557610100808354040283529160200191615960565b820191906000526020600020905b81548152906001019060200180831161594357829003601f168201915b5050505050905090565b61597e675d3a78a9dc37e10c60c01b61709b565b61598661709e565b61599a6722e50b8904da009260c01b61709b565b6159ae673ee9223fa690a65d60c01b61709b565b6159c267ec98d54915660c3e60c01b61709b565b8160fc90816159d19190619ae3565b506159e6677e74b14259118a5e60c01b61709b565b8060fd90816159f59190619ae3565b505050565b615a0e675b8929b8699d17de60c01b61709b565b615a1661709e565b615a2a67ff269ace29a13c7c60c01b61709b565b615a3e677afe9a640de5bb2a60c01b61709b565b615a526747e65594a88ad2f360c01b61709b565b615a6667fe0fcdefa416ac8b60c01b61709b565b60005b83839050811015615b1a57615a8867c24eef1aa45f45ff60c01b61709b565b816101066000868685818110615aa157615aa06194cb565b5b9050602002016020810190615ab69190618c5b565b73ffffffffffffffffffffffffffffffffffffffff1673ffffffffffffffffffffffffffffffffffffffff16815260200190815260200160002060006101000a81548160ff0219169083151502179055508080615b1290619529565b915050615a69565b50615b2f677b0219109554017e60c01b61709b565b615b4367cf911b2ac977f3fe60c01b61709b565b7f26f546175866cdae536ed9010787f6f5bc9992c35f6cc805f0d7992a322f74fc838383604051615b769392919061a30d565b60405180910390a1505050565b615b95615b8e617419565b8383617d16565b5050565b615bad67f6bb5798edba805560c01b61709b565b615bb561709e565b615bc967fe55daf14af9c08b60c01b61709b565b615bdd6769fe1ad19b2c292360c01b61709b565b615bf1674f442544443c1d8d60c01b61709b565b615c05675542f7c5783e45a060c01b61709b565b60005b83839050811015615cb957615c276754b8d9b6390cf0af60c01b61709b565b816101056000868685818110615c4057615c3f6194cb565b5b9050602002016020810190615c559190618c5b565b73ffffffffffffffffffffffffffffffffffffffff1673ffffffffffffffffffffffffffffffffffffffff16815260200190815260200160002060006101000a81548160ff0219169083151502179055508080615cb190619529565b915050615c08565b50615cce67ae2a5184029ed59e60c01b61709b565b615ce267ac2d5f8b8d672a8660c01b61709b565b7f103875dca1d7ded84af45916324c49fb7322c1ba16e25088174b6975caa0dfd5838383604051615d159392919061a30d565b60405180910390a1505050565b615d3667eb3db3245e3e949660c01b61709b565b615d3e61709e565b615d5267d6d99bc2f05c3e2960c01b61709b565b615d6667743275a4554e18b960c01b61709b565b615d7a6774d48a5fcc5ad31260c01b61709b565b8561010060006101000a81548173ffffffffffffffffffffffffffffffffffffffff021916908373ffffffffffffffffffffffffffffffffffffffff160217905550615dd067bc9bbb8b35461ea960c01b61709b565b8461010160006101000a81548173ffffffffffffffffffffffffffffffffffffffff021916908373ffffffffffffffffffffffffffffffffffffffff160217905550615e26674b9df0edb6713a3960c01b61709b565b8361010e60006101000a81548173ffffffffffffffffffffffffffffffffffffffff021916908373ffffffffffffffffffffffffffffffffffffffff160217905550615e7c67896ca5108ffdedf360c01b61709b565b8261010d60006101000a81548173ffffffffffffffffffffffffffffffffffffffff021916908373ffffffffffffffffffffffffffffffffffffffff160217905550615ed267a66eeb53f2bd1a0060c01b61709b565b8061010c81905550615eee67e893fdb4821e1b6760c01b61709b565b8161010f60006101000a81548173ffffffffffffffffffffffffffffffffffffffff021916908373ffffffffffffffffffffffffffffffffffffffff160217905550505050505050565b615f49615f43617419565b836176f7565b615f88576040517f08c379a0000000000000000000000000000000000000000000000000000000008152600401615f7f9061a3b1565b60405180910390fd5b615f9484848484617cba565b50505050565b615fae67c347276e0cf419fa60c01b61709b565b615fb6617186565b615fca676e9226183854e95960c01b61709b565b615fde67ae1eef63077b379c60c01b61709b565b615ff267c74e15f5c850bba860c01b61709b565b6160066783e765be7df316dc60c01b61709b565b61601a6732172350c2396a9560c01b61709b565b61602d82602001518360600151836171d5565b8015616063575061010b8160405161604591906195b8565b908152602001604051809103902060009054906101000a900460ff16155b8015616109575061010d60009054906101000a900473ffffffffffffffffffffffffffffffffffffffff1673ffffffffffffffffffffffffffffffffffffffff1663c9941806826040518263ffffffff1660e01b81526004016160c69190619619565b602060405180830381865afa1580156160e3573d6000803e3d6000fd5b505050506040513d601f19601f820116820180604052508101906161079190619650565b155b80156161af575061010160009054906101000a900473ffffffffffffffffffffffffffffffffffffffff1673ffffffffffffffffffffffffffffffffffffffff1663c9941806826040518263ffffffff1660e01b815260040161616c9190619619565b602060405180830381865afa158015616189573d6000803e3d6000fd5b505050506040513d601f19601f820116820180604052508101906161ad9190619650565b155b6161ee576040517f08c379a00000000000000000000000000000000000000000000000000000000081526004016161e59061a7ab565b60405180910390fd5b616202676ca76c63c8317ab660c01b61709b565b61621667455d3b049cc0a1f260c01b61709b565b61622a67c16b9e92796ec7e560c01b61709b565b61623e671a6c0712cb8edc3b60c01b61709b565b34826040015114616284576040517f08c379a000000000000000000000000000000000000000000000000000000000815260040161627b9061a83d565b60405180910390fd5b61629867347b9092a8498e6660c01b61709b565b6162ac673d56b22ebd3b9db160c01b61709b565b600161010b826040516162bf91906195b8565b908152602001604051809103902060006101000a81548160ff0219169083151502179055506162f867226677248ba26f7a60c01b61709b565b61630c677f5591a13242917060c01b61709b565b6000616317346131a8565b905061632d67a0ff83f610bbf2a560c01b61709b565b61634167509b47d83029468260c01b61709b565b61010e60009054906101000a900473ffffffffffffffffffffffffffffffffffffffff1673ffffffffffffffffffffffffffffffffffffffff166108fc829081150290604051600060405180830381858888f193505050501580156163aa573d6000803e3d6000fd5b506163bf67f503a4bcb30a545660c01b61709b565b6163d367f18619c959215d8260c01b61709b565b826020015173ffffffffffffffffffffffffffffffffffffffff166108fc82346163fd919061a85d565b9081150290604051600060405180830381858888f19350505050158015616428573d6000803e3d6000fd5b5061643d6792d8a57e309466f460c01b61709b565b6164516704750fc4ecc4d1d860c01b61709b565b7f91de634c87827dc4e98a7f57ac10d591089a715f405b87eda6e699a038aab12883602001513334866000015160405161648e949392919061a96f565b60405180910390a15061649f6173c4565b5050565b6101046020528060005260406000206000915054906101000a900460ff1681565b60606164da6766542971fd7f312760c01b61709b565b6164ee67c9eed6cd47251ce260c01b61709b565b6165026723a50798d32efc5160c01b61709b565b61651667f6cc78ec310c708160c01b61709b565b61651f82617e82565b61655e576040517f08c379a00000000000000000000000000000000000000000000000000000000081526004016165559061aa26565b60405180910390fd5b6165726708cdc6850302960560c01b61709b565b616586671c0ebbac8ba4633f60c01b61709b565b61659a67d85d21147f0f659c60c01b61709b565b60fc6165a583617ec3565b60fd6040516020016165b99392919061ab05565b6040516020818303038152906040529050919050565b6165e367d8d2e2ab1c84b94360c01b61709b565b6165eb61709e565b6165ff679fcb26bac6203d2f60c01b61709b565b616613677b39e61f70b43e5660c01b61709b565b61662767361cc4994844b0f360c01b61709b565b61663b674a9b01590930294b60c01b61709b565b60005b838390508110156166ef5761665d671574728384ffee4c60c01b61709b565b816101086000868685818110616676576166756194cb565b5b905060200201602081019061668b9190618c5b565b73ffffffffffffffffffffffffffffffffffffffff1673ffffffffffffffffffffffffffffffffffffffff16815260200190815260200160002060006101000a81548160ff02191690831515021790555080806166e790619529565b91505061663e565b5061670467b843c193a4f864a660c01b61709b565b61671867522d49c2f37c7d8960c01b61709b565b7f1f04ad3d20df24c03595d847aee0ff273316ea1ed4ff072eb68155a1d5623cb383838360405161674b9392919061a30d565b60405180910390a1505050565b61010b818051602081018201805184825260208301602085012081835280955050505050506000915054906101000a900460ff1681565b61010d60009054906101000a900473ffffffffffffffffffffffffffffffffffffffff1681565b60fb5481565b6101036020528060005260406000206000915054906101000a900460ff1681565b6167f167119935a182e6ee4a60c01b61709b565b6167f961709e565b61680d67536b2a172db3dc0b60c01b61709b565b616821672377746916d5262660c01b61709b565b616835675780b1314e1b497f60c01b61709b565b6168496744c01a745aac4e4360c01b61709b565b60005b838390508110156168fd5761686b67b9b083a04a5590d160c01b61709b565b816101076000868685818110616884576168836194cb565b5b90506020020160208101906168999190618c5b565b73ffffffffffffffffffffffffffffffffffffffff1673ffffffffffffffffffffffffffffffffffffffff16815260200190815260200160002060006101000a81548160ff02191690831515021790555080806168f590619529565b91505061684c565b50616912676e45cd90804d029d60c01b61709b565b6169266785c1734a5ebe4fdd60c01b61709b565b7ff76067476381edc28fa06f8043230469676e53a6027cb3550ecc3d2e7dfb1bbf8383836040516169599392919061a30d565b60405180910390a1505050565b60fe6020528060005260406000206000915090508060000154908060010154908060020154908060030154905084565b6169aa67f79e998745b9198560c01b61709b565b6169be670b2571b551eb38f560c01b61709b565b6169d267e9f5996f5f197d0560c01b61709b565b6169e6671c537030dfeff4a060c01b61709b565b61010160009054906101000a900473ffffffffffffffffffffffffffffffffffffffff1673ffffffffffffffffffffffffffffffffffffffff163373ffffffffffffffffffffffffffffffffffffffff1614616a77576040517f08c379a0000000000000000000000000000000000000000000000000000000008152600401616a6e9061ab82565b60405180910390fd5b616a8b677e819027220e051460c01b61709b565b616a9f6788609e5216e0642e60c01b61709b565b8060fe60008581526020019081526020016000206003016000828254616ac591906196e9565b92505081905550616ae0673fabfbb8a35cb41060c01b61709b565b80610109600085815260200190815260200160002060008481526020019081526020016000206002016000828254616b1891906196e9565b92505081905550505050565b6000606a60008473ffffffffffffffffffffffffffffffffffffffff1673ffffffffffffffffffffffffffffffffffffffff16815260200190815260200160002060008373ffffffffffffffffffffffffffffffffffffffff1673ffffffffffffffffffffffffffffffffffffffff16815260200190815260200160002060009054906101000a900460ff16905092915050565b6101076020528060005260406000206000915054906101000a900460ff1681565b616bed67cfc352a11e8424ea60c01b61709b565b616c0167fea45e04c2b0219160c01b61709b565b616c1567279092de98f7c73860c01b61709b565b616c2967085da8aa4fdd86d260c01b61709b565b60ff60006003815260200190815260200160002060009054906101000a900460ff168015616c84575060fe6000600381526020019081526020016000206000015460fe60006003815260200190815260200160002060010154105b616cc3576040517f08c379a0000000000000000000000000000000000000000000000000000000008152600401616cba90619f3f565b60405180910390fd5b616cd767766274a198aea2ce60c01b61709b565b616ceb67447421b4c0cab0d360c01b61709b565b616cff67693a5b1cf09b879460c01b61709b565b616d1367803eff4e7fb2cdf760c01b61709b565b61010260003373ffffffffffffffffffffffffffffffffffffffff1673ffffffffffffffffffffffffffffffffffffffff16815260200190815260200160002060009054906101000a900460ff16616da0576040517f08c379a0000000000000000000000000000000000000000000000000000000008152600401616d979061a4a3565b60405180910390fd5b616db4672e8618c21c6d941c60c01b61709b565b616dc867b474fdb5dff28ca960c01b61709b565b600061010260003373ffffffffffffffffffffffffffffffffffffffff1673ffffffffffffffffffffffffffffffffffffffff16815260200190815260200160002060006101000a81548160ff021916908315150217905550616e3466d97393880d2c3b60c01b61709b565b600160fb6000828254616e4791906196e9565b92505081905550616e6267aecf7e5011dd843960c01b61709b565b616e76673f3e9cd2a87686de60c01b61709b565b616e823360fb546174da565b616e966794b39f8abbea860f60c01b61709b565b600160fe6000600381526020019081526020016000206001016000828254616ebe91906196e9565b92505081905550616ed9670bf320b13391ee2360c01b61709b565b616eed67090390606eb86ee560c01b61709b565b7fc4fe32de0c7e52993d2f984dee4a064f2bed825d11dc584cd80d7e5980d463043360fb546003604051616f239392919061a728565b60405180910390a1565b616f41678b0ad48dd586790560c01b61709b565b616f4961709e565b616f5d67294dfe6a691e1e6e60c01b61709b565b616f7167ed8370a811fdabad60c01b61709b565b616f8567f2ea348c7daa3a8860c01b61709b565b616f996763ce0191f436ba3260c01b61709b565b60005b8383905081101561701257616fbb675875a56ff1139a3660c01b61709b565b8160ff6000868685818110616fd357616fd26194cb565b5b90506020020135815260200190815260200160002060006101000a81548160ff021916908315150217905550808061700a90619529565b915050616f9c565b50505050565b61702061709e565b600073ffffffffffffffffffffffffffffffffffffffff168173ffffffffffffffffffffffffffffffffffffffff160361708f576040517f08c379a00000000000000000000000000000000000000000000000000000000081526004016170869061ac14565b60405180910390fd5b61709881617ac2565b50565b50565b6170a6617419565b73ffffffffffffffffffffffffffffffffffffffff166170c4614d78565b73ffffffffffffffffffffffffffffffffffffffff161461711a576040517f08c379a00000000000000000000000000000000000000000000000000000000081526004016171119061ac80565b60405180910390fd5b565b60007f01ffc9a7000000000000000000000000000000000000000000000000000000007bffffffffffffffffffffffffffffffffffffffffffffffffffffffff1916827bffffffffffffffffffffffffffffffffffffffffffffffffffffffff1916149050919050565b600260c954036171cb576040517f08c379a00000000000000000000000000000000000000000000000000000000081526004016171c29061acec565b60405180910390fd5b600260c981905550565b60008060006171e48585617f91565b91509150600060048111156171fc576171fb61ad0c565b5b81600481111561720f5761720e61ad0c565b5b14801561724757508573ffffffffffffffffffffffffffffffffffffffff168273ffffffffffffffffffffffffffffffffffffffff16145b1561725757600192505050617394565b6000808773ffffffffffffffffffffffffffffffffffffffff16631626ba7e60e01b888860405160240161728c92919061ad4a565b604051602081830303815290604052907bffffffffffffffffffffffffffffffffffffffffffffffffffffffff19166020820180517bffffffffffffffffffffffffffffffffffffffffffffffffffffffff83818316178352505050506040516172f691906195b8565b600060405180830381855afa9150503d8060008114617331576040519150601f19603f3d011682016040523d82523d6000602084013e617336565b606091505b5091509150818015617349575060208151145b801561738d5750631626ba7e60e01b7bffffffffffffffffffffffffffffffffffffffffffffffffffffffff19168180602001905181019061738b919061ad8f565b145b9450505050505b9392505050565b600060019050919050565b6173c0828260405180602001604052806000815250617fe2565b5050565b600160c981905550565b6173d781617e82565b617416576040517f08c379a000000000000000000000000000000000000000000000000000000000815260040161740d9061a546565b60405180910390fd5b50565b600033905090565b816069600083815260200190815260200160002060006101000a81548173ffffffffffffffffffffffffffffffffffffffff021916908373ffffffffffffffffffffffffffffffffffffffff160217905550808273ffffffffffffffffffffffffffffffffffffffff1661749483613d45565b73ffffffffffffffffffffffffffffffffffffffff167f8c5be1e5ebec7d5bd14f71427d1e84f3dd0314c0f7b2291e5b200ac8c7c3b92560405160405180910390a45050565b600073ffffffffffffffffffffffffffffffffffffffff168273ffffffffffffffffffffffffffffffffffffffff1603617549576040517f08c379a00000000000000000000000000000000000000000000000000000000081526004016175409061ae08565b60405180910390fd5b61755281617e82565b15617592576040517f08c379a00000000000000000000000000000000000000000000000000000000081526004016175899061ae74565b60405180910390fd5b6175a060008383600161803d565b6175a981617e82565b156175e9576040517f08c379a00000000000000000000000000000000000000000000000000000000081526004016175e09061ae74565b60405180910390fd5b6001606860008473ffffffffffffffffffffffffffffffffffffffff1673ffffffffffffffffffffffffffffffffffffffff16815260200190815260200160002060008282540192505081905550816067600083815260200190815260200160002060006101000a81548173ffffffffffffffffffffffffffffffffffffffff021916908373ffffffffffffffffffffffffffffffffffffffff160217905550808273ffffffffffffffffffffffffffffffffffffffff16600073ffffffffffffffffffffffffffffffffffffffff167fddf252ad1be2c89b69c2b068fc378daa952ba7f163c4a11628f55a4df523b3ef60405160405180910390a46176f3600083836001618043565b5050565b60008061770383613d45565b90508073ffffffffffffffffffffffffffffffffffffffff168473ffffffffffffffffffffffffffffffffffffffff16148061774557506177448185616b24565b5b8061778357508373ffffffffffffffffffffffffffffffffffffffff1661776b84611fc4565b73ffffffffffffffffffffffffffffffffffffffff16145b91505092915050565b8273ffffffffffffffffffffffffffffffffffffffff166177ac82613d45565b73ffffffffffffffffffffffffffffffffffffffff1614617802576040517f08c379a00000000000000000000000000000000000000000000000000000000081526004016177f99061af06565b60405180910390fd5b600073ffffffffffffffffffffffffffffffffffffffff168273ffffffffffffffffffffffffffffffffffffffff1603617871576040517f08c379a00000000000000000000000000000000000000000000000000000000081526004016178689061af98565b60405180910390fd5b61787e838383600161803d565b8273ffffffffffffffffffffffffffffffffffffffff1661789e82613d45565b73ffffffffffffffffffffffffffffffffffffffff16146178f4576040517f08c379a00000000000000000000000000000000000000000000000000000000081526004016178eb9061af06565b60405180910390fd5b6069600082815260200190815260200160002060006101000a81549073ffffffffffffffffffffffffffffffffffffffff02191690556001606860008573ffffffffffffffffffffffffffffffffffffffff1673ffffffffffffffffffffffffffffffffffffffff168152602001908152602001600020600082825403925050819055506001606860008473ffffffffffffffffffffffffffffffffffffffff1673ffffffffffffffffffffffffffffffffffffffff16815260200190815260200160002060008282540192505081905550816067600083815260200190815260200160002060006101000a81548173ffffffffffffffffffffffffffffffffffffffff021916908373ffffffffffffffffffffffffffffffffffffffff160217905550808273ffffffffffffffffffffffffffffffffffffffff168473ffffffffffffffffffffffffffffffffffffffff167fddf252ad1be2c89b69c2b068fc378daa952ba7f163c4a11628f55a4df523b3ef60405160405180910390a4617a808383836001618043565b505050565b60006067600083815260200190815260200160002060009054906101000a900473ffffffffffffffffffffffffffffffffffffffff169050919050565b6000609760009054906101000a900473ffffffffffffffffffffffffffffffffffffffff16905081609760006101000a81548173ffffffffffffffffffffffffffffffffffffffff021916908373ffffffffffffffffffffffffffffffffffffffff1602179055508173ffffffffffffffffffffffffffffffffffffffff168173ffffffffffffffffffffffffffffffffffffffff167f8be0079c531659141344cd1fd0a4f28419497f9722a3daafe3b4186f6b6457e060405160405180910390a35050565b6000808273ffffffffffffffffffffffffffffffffffffffff163b119050919050565b600060019054906101000a900460ff16617bfa576040517f08c379a0000000000000000000000000000000000000000000000000000000008152600401617bf19061b02a565b60405180910390fd5b617c048282618049565b5050565b600060019054906101000a900460ff16617c57576040517f08c379a0000000000000000000000000000000000000000000000000000000008152600401617c4e9061b02a565b60405180910390fd5b617c5f6180bc565b565b600060019054906101000a900460ff16617cb0576040517f08c379a0000000000000000000000000000000000000000000000000000000008152600401617ca79061b02a565b60405180910390fd5b617cb861811d565b565b617cc584848461778c565b617cd184848484618176565b617d10576040517f08c379a0000000000000000000000000000000000000000000000000000000008152600401617d079061b0bc565b60405180910390fd5b50505050565b8173ffffffffffffffffffffffffffffffffffffffff168373ffffffffffffffffffffffffffffffffffffffff1603617d84576040517f08c379a0000000000000000000000000000000000000000000000000000000008152600401617d7b9061b128565b60405180910390fd5b80606a60008573ffffffffffffffffffffffffffffffffffffffff1673ffffffffffffffffffffffffffffffffffffffff16815260200190815260200160002060008473ffffffffffffffffffffffffffffffffffffffff1673ffffffffffffffffffffffffffffffffffffffff16815260200190815260200160002060006101000a81548160ff0219169083151502179055508173ffffffffffffffffffffffffffffffffffffffff168373ffffffffffffffffffffffffffffffffffffffff167f17307eab39ab6107e8899845ad3d59bd9653f200f220920489ca2b5937696c3183604051617e75919061877d565b60405180910390a3505050565b60008073ffffffffffffffffffffffffffffffffffffffff16617ea483617a85565b73ffffffffffffffffffffffffffffffffffffffff1614159050919050565b606060006001617ed2846182fd565b01905060008167ffffffffffffffff811115617ef157617ef06187d2565b5b6040519080825280601f01601f191660200182016040528015617f235781602001600182028036833780820191505090505b509050600082602001820190505b600115617f86578080600190039150507f3031323334353637383961626364656600000000000000000000000000000000600a86061a8153600a8581617f7a57617f7961a3d1565b5b04945060008503617f31575b819350505050919050565b6000806041835103617fd25760008060006020860151925060408601519150606086015160001a9050617fc687828585618450565b94509450505050617fdb565b60006002915091505b9250929050565b617fec83836174da565b617ff96000848484618176565b618038576040517f08c379a000000000000000000000000000000000000000000000000000000000815260040161802f9061b0bc565b60405180910390fd5b505050565b50505050565b50505050565b600060019054906101000a900460ff16618098576040517f08c379a000000000000000000000000000000000000000000000000000000000815260040161808f9061b02a565b60405180910390fd5b81606590816180a79190619ae3565b5080606690816180b79190619ae3565b505050565b600060019054906101000a900460ff1661810b576040517f08c379a00000000000000000000000000000000000000000000000000000000081526004016181029061b02a565b60405180910390fd5b61811b618116617419565b617ac2565b565b600060019054906101000a900460ff1661816c576040517f08c379a00000000000000000000000000000000000000000000000000000000081526004016181639061b02a565b60405180910390fd5b600160c981905550565b60006181978473ffffffffffffffffffffffffffffffffffffffff16617b88565b156182f0578373ffffffffffffffffffffffffffffffffffffffff1663150b7a026181c0617419565b8786866040518563ffffffff1660e01b81526004016181e2949392919061b148565b6020604051808303816000875af192505050801561821e57506040513d601f19601f8201168201806040525081019061821b919061b1a9565b60015b6182a0573d806000811461824e576040519150601f19603f3d011682016040523d82523d6000602084013e618253565b606091505b506000815103618298576040517f08c379a000000000000000000000000000000000000000000000000000000000815260040161828f9061b0bc565b60405180910390fd5b805181602001fd5b63150b7a0260e01b7bffffffffffffffffffffffffffffffffffffffffffffffffffffffff1916817bffffffffffffffffffffffffffffffffffffffffffffffffffffffff1916149150506182f5565b600190505b949350505050565b600080600090507a184f03e93ff9f4daa797ed6e38ed64bf6a1f010000000000000000831061835b577a184f03e93ff9f4daa797ed6e38ed64bf6a1f01000000000000000083816183515761835061a3d1565b5b0492506040810190505b6d04ee2d6d415b85acef81000000008310618398576d04ee2d6d415b85acef8100000000838161838e5761838d61a3d1565b5b0492506020810190505b662386f26fc1000083106183c757662386f26fc1000083816183bd576183bc61a3d1565b5b0492506010810190505b6305f5e10083106183f0576305f5e10083816183e6576183e561a3d1565b5b0492506008810190505b612710831061841557612710838161840b5761840a61a3d1565b5b0492506004810190505b60648310618438576064838161842e5761842d61a3d1565b5b0492506002810190505b600a8310618447576001810190505b80915050919050565b6000807f7fffffffffffffffffffffffffffffff5d576e7357a4501ddfe92f46681b20a08360001c111561848b576000600391509150618529565b6000600187878787604051600081526020016040526040516184b0949392919061b1e5565b6020604051602081039080840390855afa1580156184d2573d6000803e3d6000fd5b505050602060405103519050600073ffffffffffffffffffffffffffffffffffffffff168173ffffffffffffffffffffffffffffffffffffffff160361852057600060019250925050618529565b80600092509250505b94509492505050565b6000604051905090565b600080fd5b600080fd5b6000819050919050565b61855981618546565b811461856457600080fd5b50565b60008135905061857681618550565b92915050565b600080fd5b600080fd5b600080fd5b60008083601f8401126185a1576185a061857c565b5b8235905067ffffffffffffffff8111156185be576185bd618581565b5b6020830191508360208202830111156185da576185d9618586565b5b9250929050565b600080600080600080600080600060a08a8c0312156186035761860261853c565b5b60006186118c828d01618567565b99505060208a013567ffffffffffffffff81111561863257618631618541565b5b61863e8c828d0161858b565b985098505060408a013567ffffffffffffffff81111561866157618660618541565b5b61866d8c828d0161858b565b965096505060608a013567ffffffffffffffff8111156186905761868f618541565b5b61869c8c828d0161858b565b945094505060808a013567ffffffffffffffff8111156186bf576186be618541565b5b6186cb8c828d0161858b565b92509250509295985092959850929598565b60007fffffffff0000000000000000000000000000000000000000000000000000000082169050919050565b618712816186dd565b811461871d57600080fd5b50565b60008135905061872f81618709565b92915050565b60006020828403121561874b5761874a61853c565b5b600061875984828501618720565b91505092915050565b60008115159050919050565b61877781618762565b82525050565b6000602082019050618792600083018461876e565b92915050565b600080fd5b6000608082840312156187b3576187b2618798565b5b81905092915050565b600080fd5b6000601f19601f8301169050919050565b7f4e487b7100000000000000000000000000000000000000000000000000000000600052604160045260246000fd5b61880a826187c1565b810181811067ffffffffffffffff82111715618829576188286187d2565b5b80604052505050565b600061883c618532565b90506188488282618801565b919050565b600067ffffffffffffffff821115618868576188676187d2565b5b618871826187c1565b9050602081019050919050565b82818337600083830152505050565b60006188a061889b8461884d565b618832565b9050828152602081018484840111156188bc576188bb6187bc565b5b6188c784828561887e565b509392505050565b600082601f8301126188e4576188e361857c565b5b81356188f484826020860161888d565b91505092915050565b61890681618762565b811461891157600080fd5b50565b600081359050618923816188fd565b92915050565b600080600060c084860312156189425761894161853c565b5b60006189508682870161879d565b935050608084013567ffffffffffffffff81111561897157618970618541565b5b61897d868287016188cf565b92505060a061898e86828701618914565b9150509250925092565b600081519050919050565b600082825260208201905092915050565b60005b838110156189d25780820151818401526020810190506189b7565b60008484015250505050565b60006189e982618998565b6189f381856189a3565b9350618a038185602086016189b4565b618a0c816187c1565b840191505092915050565b60006020820190508181036000830152618a3181846189de565b905092915050565b600060208284031215618a4f57618a4e61853c565b5b6000618a5d84828501618567565b91505092915050565b600073ffffffffffffffffffffffffffffffffffffffff82169050919050565b6000618a9182618a66565b9050919050565b618aa181618a86565b82525050565b6000602082019050618abc6000830184618a98565b92915050565b618acb81618a86565b8114618ad657600080fd5b50565b600081359050618ae881618ac2565b92915050565b60008060408385031215618b0557618b0461853c565b5b6000618b1385828601618ad9565b9250506020618b2485828601618567565b9150509250929050565b618b3781618546565b82525050565b6000602082019050618b526000830184618b2e565b92915050565b60008060208385031215618b6f57618b6e61853c565b5b600083013567ffffffffffffffff811115618b8d57618b8c618541565b5b618b998582860161858b565b92509250509250929050565b60008083601f840112618bbb57618bba61857c565b5b8235905067ffffffffffffffff811115618bd857618bd7618581565b5b602083019150836020820283011115618bf457618bf3618586565b5b9250929050565b600080600060408486031215618c1457618c1361853c565b5b600084013567ffffffffffffffff811115618c3257618c31618541565b5b618c3e86828701618ba5565b93509350506020618c5186828701618914565b9150509250925092565b600060208284031215618c7157618c7061853c565b5b6000618c7f84828501618ad9565b91505092915050565b60008060408385031215618c9f57618c9e61853c565b5b6000618cad85828601618567565b9250506020618cbe85828601618567565b9150509250929050565b600061012082019050618cde600083018c618b2e565b618ceb602083018b618b2e565b618cf8604083018a618b2e565b618d056060830189618b2e565b618d126080830188618b2e565b618d1f60a0830187618b2e565b618d2c60c0830186618b2e565b618d3960e0830185618b2e565b618d47610100830184618b2e565b9a9950505050505050505050565b600080600060608486031215618d6e57618d6d61853c565b5b6000618d7c86828701618ad9565b9350506020618d8d86828701618ad9565b9250506040618d9e86828701618567565b9150509250925092565b6000819050919050565b6000618dcd618dc8618dc384618a66565b618da8565b618a66565b9050919050565b6000618ddf82618db2565b9050919050565b6000618df182618dd4565b9050919050565b618e0181618de6565b82525050565b6000602082019050618e1c6000830184618df8565b92915050565b60008060008060008060608789031215618e3f57618e3e61853c565b5b600087013567ffffffffffffffff811115618e5d57618e5c618541565b5b618e6989828a0161858b565b9650965050602087013567ffffffffffffffff811115618e8c57618e8b618541565b5b618e9889828a0161858b565b9450945050604087013567ffffffffffffffff811115618ebb57618eba618541565b5b618ec789828a0161858b565b92509250509295509295509295565b600080fd5b6000819050919050565b618eee81618edb565b8114618ef957600080fd5b50565b600081359050618f0b81618ee5565b92915050565b600060608284031215618f2757618f26618ed6565b5b618f316060618832565b90506000618f4184828501618567565b6000830152506020618f5584828501618567565b6020830152506040618f6984828501618efc565b60408301525092915050565b60008060808385031215618f8c57618f8b61853c565b5b6000618f9a85828601618f11565b925050606083013567ffffffffffffffff811115618fbb57618fba618541565b5b618fc7858286016188cf565b9150509250929050565b600067ffffffffffffffff821115618fec57618feb6187d2565b5b618ff5826187c1565b9050602081019050919050565b600061901561901084618fd1565b618832565b905082815260208101848484011115619031576190306187bc565b5b61903c84828561887e565b509392505050565b600082601f8301126190595761905861857c565b5b8135619069848260208601619002565b91505092915050565b600080604083850312156190895761908861853c565b5b600083013567ffffffffffffffff8111156190a7576190a6618541565b5b6190b385828601619044565b925050602083013567ffffffffffffffff8111156190d4576190d3618541565b5b6190e085828601619044565b9150509250929050565b600080604083850312156191015761910061853c565b5b600061910f85828601618ad9565b925050602061912085828601618914565b9150509250929050565b60008060008060008060c087890312156191475761914661853c565b5b600061915589828a01618ad9565b965050602061916689828a01618ad9565b955050604061917789828a01618ad9565b945050606061918889828a01618ad9565b935050608061919989828a01618ad9565b92505060a06191aa89828a01618567565b9150509295509295509295565b600080600080608085870312156191d1576191d061853c565b5b60006191df87828801618ad9565b94505060206191f087828801618ad9565b935050604061920187828801618567565b925050606085013567ffffffffffffffff81111561922257619221618541565b5b61922e878288016188cf565b91505092959194509250565b6000608082840312156192505761924f618ed6565b5b61925a6080618832565b9050600061926a84828501618567565b600083015250602061927e84828501618ad9565b602083015250604061929284828501618567565b60408301525060606192a684828501618efc565b60608301525092915050565b60008060a083850312156192c9576192c861853c565b5b60006192d78582860161923a565b925050608083013567ffffffffffffffff8111156192f8576192f7618541565b5b619304858286016188cf565b9150509250929050565b6000602082840312156193245761932361853c565b5b600082013567ffffffffffffffff81111561934257619341618541565b5b61934e848285016188cf565b91505092915050565b600061936282618dd4565b9050919050565b61937281619357565b82525050565b600060208201905061938d6000830184619369565b92915050565b60006080820190506193a86000830187618b2e565b6193b56020830186618b2e565b6193c26040830185618b2e565b6193cf6060830184618b2e565b95945050505050565b6000806000606084860312156193f1576193f061853c565b5b60006193ff86828701618567565b935050602061941086828701618567565b925050604061942186828701618567565b9150509250925092565b600080604083850312156194425761944161853c565b5b600061945085828601618ad9565b925050602061946185828601618ad9565b9150509250929050565b6000806000604084860312156194845761948361853c565b5b600084013567ffffffffffffffff8111156194a2576194a1618541565b5b6194ae8682870161858b565b935093505060206194c186828701618914565b9150509250925092565b7f4e487b7100000000000000000000000000000000000000000000000000000000600052603260045260246000fd5b7f4e487b7100000000000000000000000000000000000000000000000000000000600052601160045260246000fd5b600061953482618546565b91507fffffffffffffffffffffffffffffffffffffffffffffffffffffffffffffffff8203619566576195656194fa565b5b600182019050919050565b600081519050919050565b600081905092915050565b600061959282619571565b61959c818561957c565b93506195ac8185602086016189b4565b80840191505092915050565b60006195c48284619587565b915081905092915050565b600082825260208201905092915050565b60006195eb82619571565b6195f581856195cf565b93506196058185602086016189b4565b61960e816187c1565b840191505092915050565b6000602082019050818103600083015261963381846195e0565b905092915050565b60008151905061964a816188fd565b92915050565b6000602082840312156196665761966561853c565b5b60006196748482850161963b565b91505092915050565b7f41726645524337323156313a204e6f7420616c6c6f7765640000000000000000600082015250565b60006196b36018836189a3565b91506196be8261967d565b602082019050919050565b600060208201905081810360008301526196e2816196a6565b9050919050565b60006196f482618546565b91506196ff83618546565b9250828201905080821115619717576197166194fa565b5b92915050565b7f41726645524337323156313a20546869732065706f636820697320636c6f736560008201527f64206f72207072696e746572206973206f7574206f662073746f636b00000000602082015250565b6000619779603c836189a3565b91506197848261971d565b604082019050919050565b600060208201905081810360008301526197a88161976c565b9050919050565b60006197ba82618546565b91506197c583618546565b9250817fffffffffffffffffffffffffffffffffffffffffffffffffffffffffffffffff04831182151516156197fe576197fd6194fa565b5b828202905092915050565b7f41726645524337323156313a20496e76616c6964207072696365000000000000600082015250565b600061983f601a836189a3565b915061984a82619809565b602082019050919050565b6000602082019050818103600083015261986e81619832565b9050919050565b7f41726645524337323156313a20496e76616c6964207175616e74697479000000600082015250565b60006198ab601d836189a3565b91506198b682619875565b602082019050919050565b600060208201905081810360008301526198da8161989e565b9050919050565b7f4e487b7100000000000000000000000000000000000000000000000000000000600052602260045260246000fd5b6000600282049050600182168061992857607f821691505b60208210810361993b5761993a6198e1565b5b50919050565b60008190508160005260206000209050919050565b60006020601f8301049050919050565b600082821b905092915050565b6000600883026199a37fffffffffffffffffffffffffffffffffffffffffffffffffffffffffffffffff82619966565b6199ad8683619966565b95508019841693508086168417925050509392505050565b60006199e06199db6199d684618546565b618da8565b618546565b9050919050565b6000819050919050565b6199fa836199c5565b619a0e619a06826199e7565b848454619973565b825550505050565b600090565b619a23619a16565b619a2e8184846199f1565b505050565b5b81811015619a5257619a47600082619a1b565b600181019050619a34565b5050565b601f821115619a9757619a6881619941565b619a7184619956565b81016020851015619a80578190505b619a94619a8c85619956565b830182619a33565b50505b505050565b600082821c905092915050565b6000619aba60001984600802619a9c565b1980831691505092915050565b6000619ad38383619aa9565b9150826002028217905092915050565b619aec82618998565b67ffffffffffffffff811115619b0557619b046187d2565b5b619b0f8254619910565b619b1a828285619a56565b600060209050601f831160018114619b4d5760008415619b3b578287015190505b619b458582619ac7565b865550619bad565b601f198416619b5b86619941565b60005b82811015619b8357848901518255600182019150602085019450602081019050619b5e565b86831015619ba05784890151619b9c601f891682619aa9565b8355505b6001600288020188555050505b505050505050565b6000606082019050619bca6000830186618a98565b619bd76020830185618a98565b619be46040830184618b2e565b949350505050565b6000604082019050619c016000830185618a98565b619c0e6020830184618b2e565b9392505050565b600081519050919050565b600082825260208201905092915050565b6000819050602082019050919050565b619c4a81618546565b82525050565b6000619c5c8383619c41565b60208301905092915050565b6000602082019050919050565b6000619c8082619c15565b619c8a8185619c20565b9350619c9583619c31565b8060005b83811015619cc6578151619cad8882619c50565b9750619cb883619c68565b925050600181019050619c99565b5085935050505092915050565b7f5052494e54455200000000000000000000000000000000000000000000000000600082015250565b6000619d096007836189a3565b9150619d1482619cd3565b602082019050919050565b600061010082019050619d35600083018a618a98565b8181036020830152619d478189619c75565b9050619d566040830188618b2e565b619d636060830187618b2e565b619d706080830186618b2e565b619d7d60a0830185618b2e565b619d8a60c083018461876e565b81810360e0830152619d9b81619cfc565b905098975050505050505050565b7f4552433732313a20617070726f76616c20746f2063757272656e74206f776e6560008201527f7200000000000000000000000000000000000000000000000000000000000000602082015250565b6000619e056021836189a3565b9150619e1082619da9565b604082019050919050565b60006020820190508181036000830152619e3481619df8565b9050919050565b7f4552433732313a20617070726f76652063616c6c6572206973206e6f7420746f60008201527f6b656e206f776e6572206f7220617070726f76656420666f7220616c6c000000602082015250565b6000619e97603d836189a3565b9150619ea282619e3b565b604082019050919050565b60006020820190508181036000830152619ec681619e8a565b9050919050565b7f41726645524337323156313a20496e76616c69642065706f6368206964206f7260008201527f206e6f7420656e6f756768207175616e74697479000000000000000000000000602082015250565b6000619f296034836189a3565b9150619f3482619ecd565b604082019050919050565b60006020820190508181036000830152619f5881619f1c565b9050919050565b600081519050619f6e81618ac2565b92915050565b600060208284031215619f8a57619f8961853c565b5b6000619f9884828501619f5f565b91505092915050565b7f4172664552433732313a204e6f742061206f776e657200000000000000000000600082015250565b6000619fd76016836189a3565b9150619fe282619fa1565b602082019050919050565b6000602082019050818103600083015261a00681619fca565b9050919050565b60008151905061a01c81618550565b92915050565b60006020828403121561a0385761a03761853c565b5b600061a0468482850161a00d565b91505092915050565b6000819050919050565b600061a07461a06f61a06a8461a04f565b618da8565b618546565b9050919050565b61a0848161a059565b82525050565b600080fd5b82818337505050565b600061a0a48385619c20565b93507f07ffffffffffffffffffffffffffffffffffffffffffffffffffffffffffffff83111561a0d75761a0d661a08a565b5b60208302925061a0e883858461a08f565b82840190509392505050565b600060a08201905061a1096000830189618a98565b61a116602083018861a07b565b818103604083015261a1288187619c75565b9050818103606083015261a13c8186619c75565b9050818103608083015261a15181848661a098565b9050979650505050505050565b7f4172664552433732313a204e6f742077686974656c6973746564000000000000600082015250565b600061a194601a836189a3565b915061a19f8261a15e565b602082019050919050565b6000602082019050818103600083015261a1c38161a187565b9050919050565b6000819050919050565b600061a1ef61a1ea61a1e58461a1ca565b618da8565b618546565b9050919050565b61a1ff8161a1d4565b82525050565b600060808201905061a21a6000830187618a98565b61a227602083018661a1f6565b61a2346040830185618b2e565b61a2416060830184618b2e565b95945050505050565b600082825260208201905092915050565b6000819050919050565b61a26e81618a86565b82525050565b600061a280838361a265565b60208301905092915050565b600061a29b6020840184618ad9565b905092915050565b6000602082019050919050565b600061a2bc838561a24a565b935061a2c78261a25b565b8060005b8581101561a3005761a2dd828461a28c565b61a2e7888261a274565b975061a2f28361a2a3565b92505060018101905061a2cb565b5085925050509392505050565b6000604082019050818103600083015261a32881858761a2b0565b905061a337602083018461876e565b949350505050565b7f4552433732313a2063616c6c6572206973206e6f7420746f6b656e206f776e6560008201527f72206f7220617070726f76656400000000000000000000000000000000000000602082015250565b600061a39b602d836189a3565b915061a3a68261a33f565b604082019050919050565b6000602082019050818103600083015261a3ca8161a38e565b9050919050565b7f4e487b7100000000000000000000000000000000000000000000000000000000600052601260045260246000fd5b600061a40b82618546565b915061a41683618546565b92508261a4265761a42561a3d1565b5b828204905092915050565b7f41726645524337323156313a204e6f742077686974656c69737465642075736560008201527f7200000000000000000000000000000000000000000000000000000000000000602082015250565b600061a48d6021836189a3565b915061a4988261a431565b604082019050919050565b6000602082019050818103600083015261a4bc8161a480565b9050919050565b600060608201905061a4d86000830186618a98565b61a4e56020830185618b2e565b61a4f26040830184618b2e565b949350505050565b7f4552433732313a20696e76616c696420746f6b656e2049440000000000000000600082015250565b600061a5306018836189a3565b915061a53b8261a4fa565b602082019050919050565b6000602082019050818103600083015261a55f8161a523565b9050919050565b7f4552433732313a2061646472657373207a65726f206973206e6f74206120766160008201527f6c6964206f776e65720000000000000000000000000000000000000000000000602082015250565b600061a5c26029836189a3565b915061a5cd8261a566565b604082019050919050565b6000602082019050818103600083015261a5f18161a5b5565b9050919050565b7f496e697469616c697a61626c653a20636f6e747261637420697320616c72656160008201527f647920696e697469616c697a6564000000000000000000000000000000000000602082015250565b600061a654602e836189a3565b915061a65f8261a5f8565b604082019050919050565b6000602082019050818103600083015261a6838161a647565b9050919050565b6000819050919050565b600060ff82169050919050565b600061a6bc61a6b761a6b28461a68a565b618da8565b61a694565b9050919050565b61a6cc8161a6a1565b82525050565b600060208201905061a6e7600083018461a6c3565b92915050565b6000819050919050565b600061a71261a70d61a7088461a6ed565b618da8565b618546565b9050919050565b61a7228161a6f7565b82525050565b600060608201905061a73d6000830186618a98565b61a74a6020830185618b2e565b61a757604083018461a719565b949350505050565b7f41726645524337323156313a204e6f74206c6973746564000000000000000000600082015250565b600061a7956017836189a3565b915061a7a08261a75f565b602082019050919050565b6000602082019050818103600083015261a7c48161a788565b9050919050565b7f41726645524337323156313a205072697a6520697320696e636f72726563742060008201527f6f7220696e76616c696400000000000000000000000000000000000000000000602082015250565b600061a827602a836189a3565b915061a8328261a7cb565b604082019050919050565b6000602082019050818103600083015261a8568161a81a565b9050919050565b600061a86882618546565b915061a87383618546565b925082820390508181111561a88b5761a88a6194fa565b5b92915050565b6000815461a89e81619910565b61a8a881866189a3565b9450600182166000811461a8c3576001811461a8d95761a90c565b60ff19831686528115156020028601935061a90c565b61a8e285619941565b60005b8381101561a9045781548189015260018201915060208101905061a8e5565b808801955050505b50505092915050565b600060a08201905061a92a6000830188618a98565b61a9376020830187618a98565b61a9446040830186618b2e565b61a9516060830185618b2e565b818103608083015261a963818461a891565b90509695505050505050565b600060808201905061a9846000830187618a98565b61a9916020830186618a98565b61a99e6040830185618b2e565b61a9ab6060830184618b2e565b95945050505050565b7f41726645524337323156313a2055524920717565727920666f72206e6f6e657860008201527f697374656e7420746f6b656e0000000000000000000000000000000000000000602082015250565b600061aa10602c836189a3565b915061aa1b8261a9b4565b604082019050919050565b6000602082019050818103600083015261aa3f8161aa03565b9050919050565b600081905092915050565b6000815461aa5e81619910565b61aa68818661aa46565b9450600182166000811461aa83576001811461aa985761aacb565b60ff198316865281151582028601935061aacb565b61aaa185619941565b60005b8381101561aac35781548189015260018201915060208101905061aaa4565b838801955050505b50505092915050565b600061aadf82618998565b61aae9818561aa46565b935061aaf98185602086016189b4565b80840191505092915050565b600061ab11828661aa51565b915061ab1d828561aad4565b915061ab29828461aa51565b9150819050949350505050565b7f41726645524337323156313a204e6f74207065726d6974746564000000000000600082015250565b600061ab6c601a836189a3565b915061ab778261ab36565b602082019050919050565b6000602082019050818103600083015261ab9b8161ab5f565b9050919050565b7f4f776e61626c653a206e6577206f776e657220697320746865207a65726f206160008201527f6464726573730000000000000000000000000000000000000000000000000000602082015250565b600061abfe6026836189a3565b915061ac098261aba2565b604082019050919050565b6000602082019050818103600083015261ac2d8161abf1565b9050919050565b7f4f776e61626c653a2063616c6c6572206973206e6f7420746865206f776e6572600082015250565b600061ac6a6020836189a3565b915061ac758261ac34565b602082019050919050565b6000602082019050818103600083015261ac998161ac5d565b9050919050565b7f5265656e7472616e637947756172643a207265656e7472616e742063616c6c00600082015250565b600061acd6601f836189a3565b915061ace18261aca0565b602082019050919050565b6000602082019050818103600083015261ad058161acc9565b9050919050565b7f4e487b7100000000000000000000000000000000000000000000000000000000600052602160045260246000fd5b61ad4481618edb565b82525050565b600060408201905061ad5f600083018561ad3b565b818103602083015261ad7181846195e0565b90509392505050565b60008151905061ad8981618ee5565b92915050565b60006020828403121561ada55761ada461853c565b5b600061adb38482850161ad7a565b91505092915050565b7f4552433732313a206d696e7420746f20746865207a65726f2061646472657373600082015250565b600061adf26020836189a3565b915061adfd8261adbc565b602082019050919050565b6000602082019050818103600083015261ae218161ade5565b9050919050565b7f4552433732313a20746f6b656e20616c7265616479206d696e74656400000000600082015250565b600061ae5e601c836189a3565b915061ae698261ae28565b602082019050919050565b6000602082019050818103600083015261ae8d8161ae51565b9050919050565b7f4552433732313a207472616e736665722066726f6d20696e636f72726563742060008201527f6f776e6572000000000000000000000000000000000000000000000000000000602082015250565b600061aef06025836189a3565b915061aefb8261ae94565b604082019050919050565b6000602082019050818103600083015261af1f8161aee3565b9050919050565b7f4552433732313a207472616e7366657220746f20746865207a65726f2061646460008201527f7265737300000000000000000000000000000000000000000000000000000000602082015250565b600061af826024836189a3565b915061af8d8261af26565b604082019050919050565b6000602082019050818103600083015261afb18161af75565b9050919050565b7f496e697469616c697a61626c653a20636f6e7472616374206973206e6f74206960008201527f6e697469616c697a696e67000000000000000000000000000000000000000000602082015250565b600061b014602b836189a3565b915061b01f8261afb8565b604082019050919050565b6000602082019050818103600083015261b0438161b007565b9050919050565b7f4552433732313a207472616e7366657220746f206e6f6e20455243373231526560008201527f63656976657220696d706c656d656e7465720000000000000000000000000000602082015250565b600061b0a66032836189a3565b915061b0b18261b04a565b604082019050919050565b6000602082019050818103600083015261b0d58161b099565b9050919050565b7f4552433732313a20617070726f766520746f2063616c6c657200000000000000600082015250565b600061b1126019836189a3565b915061b11d8261b0dc565b602082019050919050565b6000602082019050818103600083015261b1418161b105565b9050919050565b600060808201905061b15d6000830187618a98565b61b16a6020830186618a98565b61b1776040830185618b2e565b818103606083015261b18981846195e0565b905095945050505050565b60008151905061b1a381618709565b92915050565b60006020828403121561b1bf5761b1be61853c565b5b600061b1cd8482850161b194565b91505092915050565b61b1df8161a694565b82525050565b600060808201905061b1fa600083018761ad3b565b61b207602083018661b1d6565b61b214604083018561ad3b565b61b221606083018461ad3b565b9594505050505056fe68747470733a2f2f6173736574732e616c6c6f792e73706163652f746f6b656e2d7572692d73322fa2646970667358221220a21b66ea3d2ce9d0ddfe7e2241756d98d8b4404fb1f8c23f68349e31ea72e91264736f6c63430008100033","opcodes":"PUSH1 0x80 PUSH1 0x40 MSTORE CALLVALUE DUP1 ISZERO PUSH3 0x11 JUMPI PUSH1 0x0 DUP1 REVERT JUMPDEST POP PUSH2 0xB288 DUP1 PUSH3 0x22 PUSH1 0x0 CODECOPY PUSH1 0x0 RETURN INVALID PUSH1 0x80 PUSH1 0x40 MSTORE PUSH1 0x4 CALLDATASIZE LT PUSH2 0x396 JUMPI PUSH1 0x0 CALLDATALOAD PUSH1 0xE0 SHR DUP1 PUSH4 0x7EBEDEDB GT PUSH2 0x1DC JUMPI DUP1 PUSH4 0xC3E50ABB GT PUSH2 0x102 JUMPI DUP1 PUSH4 0xDB0A4882 GT PUSH2 0xA0 JUMPI DUP1 PUSH4 0xEC437038 GT PUSH2 0x6F JUMPI DUP1 PUSH4 0xEC437038 EQ PUSH2 0xDAB JUMPI DUP1 PUSH4 0xECC228CE EQ PUSH2 0xDE8 JUMPI DUP1 PUSH4 0xEDDA7059 EQ PUSH2 0xDFF JUMPI DUP1 PUSH4 0xF2FDE38B EQ PUSH2 0xE28 JUMPI PUSH2 0x396 JUMP JUMPDEST DUP1 PUSH4 0xDB0A4882 EQ PUSH2 0xCDC JUMPI DUP1 PUSH4 0xE329CF7B EQ PUSH2 0xD05 JUMPI DUP1 PUSH4 0xE561084F EQ PUSH2 0xD45 JUMPI DUP1 PUSH4 0xE985E9C5 EQ PUSH2 0xD6E JUMPI PUSH2 0x396 JUMP JUMPDEST DUP1 PUSH4 0xC9941806 GT PUSH2 0xDC JUMPI DUP1 PUSH4 0xC9941806 EQ PUSH2 0xC0C JUMPI DUP1 PUSH4 0xCB73BFF1 EQ PUSH2 0xC49 JUMPI DUP1 PUSH4 0xD082E381 EQ PUSH2 0xC74 JUMPI DUP1 PUSH4 0xD87DF9E2 EQ PUSH2 0xC9F JUMPI PUSH2 0x396 JUMP JUMPDEST DUP1 PUSH4 0xC3E50ABB EQ PUSH2 0xB69 JUMPI DUP1 PUSH4 0xC87B56DD EQ PUSH2 0xBA6 JUMPI DUP1 PUSH4 0xC8D5C0E2 EQ PUSH2 0xBE3 JUMPI PUSH2 0x396 JUMP JUMPDEST DUP1 PUSH4 0x95D89B41 GT PUSH2 0x17A JUMPI DUP1 PUSH4 0xA7397C2E GT PUSH2 0x149 JUMPI DUP1 PUSH4 0xA7397C2E EQ PUSH2 0xAD2 JUMPI DUP1 PUSH4 0xB3AF1F26 EQ PUSH2 0xAFB JUMPI DUP1 PUSH4 0xB88D4FDE EQ PUSH2 0xB24 JUMPI DUP1 PUSH4 0xBE6D6A6F EQ PUSH2 0xB4D JUMPI PUSH2 0x396 JUMP JUMPDEST DUP1 PUSH4 0x95D89B41 EQ PUSH2 0xA2C JUMPI DUP1 PUSH4 0x97C04EDB EQ PUSH2 0xA57 JUMPI DUP1 PUSH4 0x9DDB234C EQ PUSH2 0xA80 JUMPI DUP1 PUSH4 0xA22CB465 EQ PUSH2 0xAA9 JUMPI PUSH2 0x396 JUMP JUMPDEST DUP1 PUSH4 0x8E6B86CB GT PUSH2 0x1B6 JUMPI DUP1 PUSH4 0x8E6B86CB EQ PUSH2 0x993 JUMPI DUP1 PUSH4 0x93709109 EQ PUSH2 0x9D0 JUMPI DUP1 PUSH4 0x9401C1E4 EQ PUSH2 0x9E7 JUMPI DUP1 PUSH4 0x9533D573 EQ PUSH2 0xA03 JUMPI PUSH2 0x396 JUMP JUMPDEST DUP1 PUSH4 0x7EBEDEDB EQ PUSH2 0x928 JUMPI DUP1 PUSH4 0x8129FC1C EQ PUSH2 0x951 JUMPI DUP1 PUSH4 0x8DA5CB5B EQ PUSH2 0x968 JUMPI PUSH2 0x396 JUMP JUMPDEST DUP1 PUSH4 0x35643681 GT PUSH2 0x2C1 JUMPI DUP1 PUSH4 0x63A205F7 GT PUSH2 0x25F JUMPI DUP1 PUSH4 0x6EF1EEE4 GT PUSH2 0x22E JUMPI DUP1 PUSH4 0x6EF1EEE4 EQ PUSH2 0x87E JUMPI DUP1 PUSH4 0x70A08231 EQ PUSH2 0x8A9 JUMPI DUP1 PUSH4 0x715018A6 EQ PUSH2 0x8E6 JUMPI DUP1 PUSH4 0x7DD12D15 EQ PUSH2 0x8FD JUMPI PUSH2 0x396 JUMP JUMPDEST DUP1 PUSH4 0x63A205F7 EQ PUSH2 0x79E JUMPI DUP1 PUSH4 0x6C7B7F6C EQ PUSH2 0x7C7 JUMPI DUP1 PUSH4 0x6D998F01 EQ PUSH2 0x804 JUMPI DUP1 PUSH4 0x6EDA504E EQ PUSH2 0x841 JUMPI PUSH2 0x396 JUMP JUMPDEST DUP1 PUSH4 0x42842E0E GT PUSH2 0x29B JUMPI DUP1 PUSH4 0x42842E0E EQ PUSH2 0x6E6 JUMPI DUP1 PUSH4 0x5D952D25 EQ PUSH2 0x70F JUMPI DUP1 PUSH4 0x61FFC012 EQ PUSH2 0x738 JUMPI DUP1 PUSH4 0x6352211E EQ PUSH2 0x761 JUMPI PUSH2 0x396 JUMP JUMPDEST DUP1 PUSH4 0x35643681 EQ PUSH2 0x653 JUMPI DUP1 PUSH4 0x399B3798 EQ PUSH2 0x67E JUMPI DUP1 PUSH4 0x3A988498 EQ PUSH2 0x6A9 JUMPI PUSH2 0x396 JUMP JUMPDEST DUP1 PUSH4 0x10A6D134 GT PUSH2 0x339 JUMPI DUP1 PUSH4 0x1A924FD5 GT PUSH2 0x308 JUMPI DUP1 PUSH4 0x1A924FD5 EQ PUSH2 0x57F JUMPI DUP1 PUSH4 0x23B872DD EQ PUSH2 0x5C4 JUMPI DUP1 PUSH4 0x2C7D077E EQ PUSH2 0x5ED JUMPI DUP1 PUSH4 0x32A5B0AA EQ PUSH2 0x62A JUMPI PUSH2 0x396 JUMP JUMPDEST DUP1 PUSH4 0x10A6D134 EQ PUSH2 0x4D9 JUMPI DUP1 PUSH4 0x13DE306A EQ PUSH2 0x502 JUMPI DUP1 PUSH4 0x1424F936 EQ PUSH2 0x519 JUMPI DUP1 PUSH4 0x19D17E51 EQ PUSH2 0x542 JUMPI PUSH2 0x396 JUMP JUMPDEST DUP1 PUSH4 0x6FDDE03 GT PUSH2 0x375 JUMPI DUP1 PUSH4 0x6FDDE03 EQ PUSH2 0x41D JUMPI DUP1 PUSH4 0x81812FC EQ PUSH2 0x448 JUMPI DUP1 PUSH4 0x95EA7B3 EQ PUSH2 0x485 JUMPI DUP1 PUSH4 0xC53EFE6 EQ PUSH2 0x4AE JUMPI PUSH2 0x396 JUMP JUMPDEST DUP1 PUSH3 0x1640C2 EQ PUSH2 0x39B JUMPI DUP1 PUSH4 0x1FFC9A7 EQ PUSH2 0x3C4 JUMPI DUP1 PUSH4 0x3ECAA95 EQ PUSH2 0x401 JUMPI JUMPDEST PUSH1 0x0 DUP1 REVERT JUMPDEST CALLVALUE DUP1 ISZERO PUSH2 0x3A7 JUMPI PUSH1 0x0 DUP1 REVERT JUMPDEST POP PUSH2 0x3C2 PUSH1 0x4 DUP1 CALLDATASIZE SUB DUP2 ADD SWAP1 PUSH2 0x3BD SWAP2 SWAP1 PUSH2 0x85E1 JUMP JUMPDEST PUSH2 0xE51 JUMP JUMPDEST STOP JUMPDEST CALLVALUE DUP1 ISZERO PUSH2 0x3D0 JUMPI PUSH1 0x0 DUP1 REVERT JUMPDEST POP PUSH2 0x3EB PUSH1 0x4 DUP1 CALLDATASIZE SUB DUP2 ADD SWAP1 PUSH2 0x3E6 SWAP2 SWAP1 PUSH2 0x8735 JUMP JUMPDEST PUSH2 0x10B6 JUMP JUMPDEST PUSH1 0x40 MLOAD PUSH2 0x3F8 SWAP2 SWAP1 PUSH2 0x877D JUMP JUMPDEST PUSH1 0x40 MLOAD DUP1 SWAP2 SUB SWAP1 RETURN JUMPDEST PUSH2 0x41B PUSH1 0x4 DUP1 CALLDATASIZE SUB DUP2 ADD SWAP1 PUSH2 0x416 SWAP2 SWAP1 PUSH2 0x8929 JUMP JUMPDEST PUSH2 0x1198 JUMP JUMPDEST STOP JUMPDEST CALLVALUE DUP1 ISZERO PUSH2 0x429 JUMPI PUSH1 0x0 DUP1 REVERT JUMPDEST POP PUSH2 0x432 PUSH2 0x1F32 JUMP JUMPDEST PUSH1 0x40 MLOAD PUSH2 0x43F SWAP2 SWAP1 PUSH2 0x8A17 JUMP JUMPDEST PUSH1 0x40 MLOAD DUP1 SWAP2 SUB SWAP1 RETURN JUMPDEST CALLVALUE DUP1 ISZERO PUSH2 0x454 JUMPI PUSH1 0x0 DUP1 REVERT JUMPDEST POP PUSH2 0x46F PUSH1 0x4 DUP1 CALLDATASIZE SUB DUP2 ADD SWAP1 PUSH2 0x46A SWAP2 SWAP1 PUSH2 0x8A39 JUMP JUMPDEST PUSH2 0x1FC4 JUMP JUMPDEST PUSH1 0x40 MLOAD PUSH2 0x47C SWAP2 SWAP1 PUSH2 0x8AA7 JUMP JUMPDEST PUSH1 0x40 MLOAD DUP1 SWAP2 SUB SWAP1 RETURN JUMPDEST CALLVALUE DUP1 ISZERO PUSH2 0x491 JUMPI PUSH1 0x0 DUP1 REVERT JUMPDEST POP PUSH2 0x4AC PUSH1 0x4 DUP1 CALLDATASIZE SUB DUP2 ADD SWAP1 PUSH2 0x4A7 SWAP2 SWAP1 PUSH2 0x8AEE JUMP JUMPDEST PUSH2 0x200A JUMP JUMPDEST STOP JUMPDEST CALLVALUE DUP1 ISZERO PUSH2 0x4BA JUMPI PUSH1 0x0 DUP1 REVERT JUMPDEST POP PUSH2 0x4C3 PUSH2 0x2121 JUMP JUMPDEST PUSH1 0x40 MLOAD PUSH2 0x4D0 SWAP2 SWAP1 PUSH2 0x8B3D JUMP JUMPDEST PUSH1 0x40 MLOAD DUP1 SWAP2 SUB SWAP1 RETURN JUMPDEST CALLVALUE DUP1 ISZERO PUSH2 0x4E5 JUMPI PUSH1 0x0 DUP1 REVERT JUMPDEST POP PUSH2 0x500 PUSH1 0x4 DUP1 CALLDATASIZE SUB DUP2 ADD SWAP1 PUSH2 0x4FB SWAP2 SWAP1 PUSH2 0x8B58 JUMP JUMPDEST PUSH2 0x2128 JUMP JUMPDEST STOP JUMPDEST CALLVALUE DUP1 ISZERO PUSH2 0x50E JUMPI PUSH1 0x0 DUP1 REVERT JUMPDEST POP PUSH2 0x517 PUSH2 0x2A6B JUMP JUMPDEST STOP JUMPDEST CALLVALUE DUP1 ISZERO PUSH2 0x525 JUMPI PUSH1 0x0 DUP1 REVERT JUMPDEST POP PUSH2 0x540 PUSH1 0x4 DUP1 CALLDATASIZE SUB DUP2 ADD SWAP1 PUSH2 0x53B SWAP2 SWAP1 PUSH2 0x8BFB JUMP JUMPDEST PUSH2 0x2F42 JUMP JUMPDEST STOP JUMPDEST CALLVALUE DUP1 ISZERO PUSH2 0x54E JUMPI PUSH1 0x0 DUP1 REVERT JUMPDEST POP PUSH2 0x569 PUSH1 0x4 DUP1 CALLDATASIZE SUB DUP2 ADD SWAP1 PUSH2 0x564 SWAP2 SWAP1 PUSH2 0x8C5B JUMP JUMPDEST PUSH2 0x30CB JUMP JUMPDEST PUSH1 0x40 MLOAD PUSH2 0x576 SWAP2 SWAP1 PUSH2 0x877D JUMP JUMPDEST PUSH1 0x40 MLOAD DUP1 SWAP2 SUB SWAP1 RETURN JUMPDEST CALLVALUE DUP1 ISZERO PUSH2 0x58B JUMPI PUSH1 0x0 DUP1 REVERT JUMPDEST POP PUSH2 0x5A6 PUSH1 0x4 DUP1 CALLDATASIZE SUB DUP2 ADD SWAP1 PUSH2 0x5A1 SWAP2 SWAP1 PUSH2 0x8C88 JUMP JUMPDEST PUSH2 0x30EC JUMP JUMPDEST PUSH1 0x40 MLOAD PUSH2 0x5BB SWAP10 SWAP9 SWAP8 SWAP7 SWAP6 SWAP5 SWAP4 SWAP3 SWAP2 SWAP1 PUSH2 0x8CC8 JUMP JUMPDEST PUSH1 0x40 MLOAD DUP1 SWAP2 SUB SWAP1 RETURN JUMPDEST CALLVALUE DUP1 ISZERO PUSH2 0x5D0 JUMPI PUSH1 0x0 DUP1 REVERT JUMPDEST POP PUSH2 0x5EB PUSH1 0x4 DUP1 CALLDATASIZE SUB DUP2 ADD SWAP1 PUSH2 0x5E6 SWAP2 SWAP1 PUSH2 0x8D55 JUMP JUMPDEST PUSH2 0x3148 JUMP JUMPDEST STOP JUMPDEST CALLVALUE DUP1 ISZERO PUSH2 0x5F9 JUMPI PUSH1 0x0 DUP1 REVERT JUMPDEST POP PUSH2 0x614 PUSH1 0x4 DUP1 CALLDATASIZE SUB DUP2 ADD SWAP1 PUSH2 0x60F SWAP2 SWAP1 PUSH2 0x8A39 JUMP JUMPDEST PUSH2 0x31A8 JUMP JUMPDEST PUSH1 0x40 MLOAD PUSH2 0x621 SWAP2 SWAP1 PUSH2 0x8B3D JUMP JUMPDEST PUSH1 0x40 MLOAD DUP1 SWAP2 SUB SWAP1 RETURN JUMPDEST CALLVALUE DUP1 ISZERO PUSH2 0x636 JUMPI PUSH1 0x0 DUP1 REVERT JUMPDEST POP PUSH2 0x651 PUSH1 0x4 DUP1 CALLDATASIZE SUB DUP2 ADD SWAP1 PUSH2 0x64C SWAP2 SWAP1 PUSH2 0x8A39 JUMP JUMPDEST PUSH2 0x3283 JUMP JUMPDEST STOP JUMPDEST CALLVALUE DUP1 ISZERO PUSH2 0x65F JUMPI PUSH1 0x0 DUP1 REVERT JUMPDEST POP PUSH2 0x668 PUSH2 0x38C9 JUMP JUMPDEST PUSH1 0x40 MLOAD PUSH2 0x675 SWAP2 SWAP1 PUSH2 0x8E07 JUMP JUMPDEST PUSH1 0x40 MLOAD DUP1 SWAP2 SUB SWAP1 RETURN JUMPDEST CALLVALUE DUP1 ISZERO PUSH2 0x68A JUMPI PUSH1 0x0 DUP1 REVERT JUMPDEST POP PUSH2 0x693 PUSH2 0x38F0 JUMP JUMPDEST PUSH1 0x40 MLOAD PUSH2 0x6A0 SWAP2 SWAP1 PUSH2 0x8E07 JUMP JUMPDEST PUSH1 0x40 MLOAD DUP1 SWAP2 SUB SWAP1 RETURN JUMPDEST CALLVALUE DUP1 ISZERO PUSH2 0x6B5 JUMPI PUSH1 0x0 DUP1 REVERT JUMPDEST POP PUSH2 0x6D0 PUSH1 0x4 DUP1 CALLDATASIZE SUB DUP2 ADD SWAP1 PUSH2 0x6CB SWAP2 SWAP1 PUSH2 0x8A39 JUMP JUMPDEST PUSH2 0x3917 JUMP JUMPDEST PUSH1 0x40 MLOAD PUSH2 0x6DD SWAP2 SWAP1 PUSH2 0x877D JUMP JUMPDEST PUSH1 0x40 MLOAD DUP1 SWAP2 SUB SWAP1 RETURN JUMPDEST CALLVALUE DUP1 ISZERO PUSH2 0x6F2 JUMPI PUSH1 0x0 DUP1 REVERT JUMPDEST POP PUSH2 0x70D PUSH1 0x4 DUP1 CALLDATASIZE SUB DUP2 ADD SWAP1 PUSH2 0x708 SWAP2 SWAP1 PUSH2 0x8D55 JUMP JUMPDEST PUSH2 0x3937 JUMP JUMPDEST STOP JUMPDEST CALLVALUE DUP1 ISZERO PUSH2 0x71B JUMPI PUSH1 0x0 DUP1 REVERT JUMPDEST POP PUSH2 0x736 PUSH1 0x4 DUP1 CALLDATASIZE SUB DUP2 ADD SWAP1 PUSH2 0x731 SWAP2 SWAP1 PUSH2 0x8BFB JUMP JUMPDEST PUSH2 0x3957 JUMP JUMPDEST STOP JUMPDEST CALLVALUE DUP1 ISZERO PUSH2 0x744 JUMPI PUSH1 0x0 DUP1 REVERT JUMPDEST POP PUSH2 0x75F PUSH1 0x4 DUP1 CALLDATASIZE SUB DUP2 ADD SWAP1 PUSH2 0x75A SWAP2 SWAP1 PUSH2 0x85E1 JUMP JUMPDEST PUSH2 0x3AE0 JUMP JUMPDEST STOP JUMPDEST CALLVALUE DUP1 ISZERO PUSH2 0x76D JUMPI PUSH1 0x0 DUP1 REVERT JUMPDEST POP PUSH2 0x788 PUSH1 0x4 DUP1 CALLDATASIZE SUB DUP2 ADD SWAP1 PUSH2 0x783 SWAP2 SWAP1 PUSH2 0x8A39 JUMP JUMPDEST PUSH2 0x3D45 JUMP JUMPDEST PUSH1 0x40 MLOAD PUSH2 0x795 SWAP2 SWAP1 PUSH2 0x8AA7 JUMP JUMPDEST PUSH1 0x40 MLOAD DUP1 SWAP2 SUB SWAP1 RETURN JUMPDEST CALLVALUE DUP1 ISZERO PUSH2 0x7AA JUMPI PUSH1 0x0 DUP1 REVERT JUMPDEST POP PUSH2 0x7C5 PUSH1 0x4 DUP1 CALLDATASIZE SUB DUP2 ADD SWAP1 PUSH2 0x7C0 SWAP2 SWAP1 PUSH2 0x8A39 JUMP JUMPDEST PUSH2 0x3DCB JUMP JUMPDEST STOP JUMPDEST CALLVALUE DUP1 ISZERO PUSH2 0x7D3 JUMPI PUSH1 0x0 DUP1 REVERT JUMPDEST POP PUSH2 0x7EE PUSH1 0x4 DUP1 CALLDATASIZE SUB DUP2 ADD SWAP1 PUSH2 0x7E9 SWAP2 SWAP1 PUSH2 0x8C5B JUMP JUMPDEST PUSH2 0x4371 JUMP JUMPDEST PUSH1 0x40 MLOAD PUSH2 0x7FB SWAP2 SWAP1 PUSH2 0x877D JUMP JUMPDEST PUSH1 0x40 MLOAD DUP1 SWAP2 SUB SWAP1 RETURN JUMPDEST CALLVALUE DUP1 ISZERO PUSH2 0x810 JUMPI PUSH1 0x0 DUP1 REVERT JUMPDEST POP PUSH2 0x82B PUSH1 0x4 DUP1 CALLDATASIZE SUB DUP2 ADD SWAP1 PUSH2 0x826 SWAP2 SWAP1 PUSH2 0x8A39 JUMP JUMPDEST PUSH2 0x4392 JUMP JUMPDEST PUSH1 0x40 MLOAD PUSH2 0x838 SWAP2 SWAP1 PUSH2 0x8A17 JUMP JUMPDEST PUSH1 0x40 MLOAD DUP1 SWAP2 SUB SWAP1 RETURN JUMPDEST CALLVALUE DUP1 ISZERO PUSH2 0x84D JUMPI PUSH1 0x0 DUP1 REVERT JUMPDEST POP PUSH2 0x868 PUSH1 0x4 DUP1 CALLDATASIZE SUB DUP2 ADD SWAP1 PUSH2 0x863 SWAP2 SWAP1 PUSH2 0x8C5B JUMP JUMPDEST PUSH2 0x4433 JUMP JUMPDEST PUSH1 0x40 MLOAD PUSH2 0x875 SWAP2 SWAP1 PUSH2 0x877D JUMP JUMPDEST PUSH1 0x40 MLOAD DUP1 SWAP2 SUB SWAP1 RETURN JUMPDEST CALLVALUE DUP1 ISZERO PUSH2 0x88A JUMPI PUSH1 0x0 DUP1 REVERT JUMPDEST POP PUSH2 0x893 PUSH2 0x4454 JUMP JUMPDEST PUSH1 0x40 MLOAD PUSH2 0x8A0 SWAP2 SWAP1 PUSH2 0x8E07 JUMP JUMPDEST PUSH1 0x40 MLOAD DUP1 SWAP2 SUB SWAP1 RETURN JUMPDEST CALLVALUE DUP1 ISZERO PUSH2 0x8B5 JUMPI PUSH1 0x0 DUP1 REVERT JUMPDEST POP PUSH2 0x8D0 PUSH1 0x4 DUP1 CALLDATASIZE SUB DUP2 ADD SWAP1 PUSH2 0x8CB SWAP2 SWAP1 PUSH2 0x8C5B JUMP JUMPDEST PUSH2 0x447B JUMP JUMPDEST PUSH1 0x40 MLOAD PUSH2 0x8DD SWAP2 SWAP1 PUSH2 0x8B3D JUMP JUMPDEST PUSH1 0x40 MLOAD DUP1 SWAP2 SUB SWAP1 RETURN JUMPDEST CALLVALUE DUP1 ISZERO PUSH2 0x8F2 JUMPI PUSH1 0x0 DUP1 REVERT JUMPDEST POP PUSH2 0x8FB PUSH2 0x4532 JUMP JUMPDEST STOP JUMPDEST CALLVALUE DUP1 ISZERO PUSH2 0x909 JUMPI PUSH1 0x0 DUP1 REVERT JUMPDEST POP PUSH2 0x912 PUSH2 0x4546 JUMP JUMPDEST PUSH1 0x40 MLOAD PUSH2 0x91F SWAP2 SWAP1 PUSH2 0x8AA7 JUMP JUMPDEST PUSH1 0x40 MLOAD DUP1 SWAP2 SUB SWAP1 RETURN JUMPDEST CALLVALUE DUP1 ISZERO PUSH2 0x934 JUMPI PUSH1 0x0 DUP1 REVERT JUMPDEST POP PUSH2 0x94F PUSH1 0x4 DUP1 CALLDATASIZE SUB DUP2 ADD SWAP1 PUSH2 0x94A SWAP2 SWAP1 PUSH2 0x8E22 JUMP JUMPDEST PUSH2 0x456D JUMP JUMPDEST STOP JUMPDEST CALLVALUE DUP1 ISZERO PUSH2 0x95D JUMPI PUSH1 0x0 DUP1 REVERT JUMPDEST POP PUSH2 0x966 PUSH2 0x46C5 JUMP JUMPDEST STOP JUMPDEST CALLVALUE DUP1 ISZERO PUSH2 0x974 JUMPI PUSH1 0x0 DUP1 REVERT JUMPDEST POP PUSH2 0x97D PUSH2 0x4D78 JUMP JUMPDEST PUSH1 0x40 MLOAD PUSH2 0x98A SWAP2 SWAP1 PUSH2 0x8AA7 JUMP JUMPDEST PUSH1 0x40 MLOAD DUP1 SWAP2 SUB SWAP1 RETURN JUMPDEST CALLVALUE DUP1 ISZERO PUSH2 0x99F JUMPI PUSH1 0x0 DUP1 REVERT JUMPDEST POP PUSH2 0x9BA PUSH1 0x4 DUP1 CALLDATASIZE SUB DUP2 ADD SWAP1 PUSH2 0x9B5 SWAP2 SWAP1 PUSH2 0x8C5B JUMP JUMPDEST PUSH2 0x4DA2 JUMP JUMPDEST PUSH1 0x40 MLOAD PUSH2 0x9C7 SWAP2 SWAP1 PUSH2 0x877D JUMP JUMPDEST PUSH1 0x40 MLOAD DUP1 SWAP2 SUB SWAP1 RETURN JUMPDEST CALLVALUE DUP1 ISZERO PUSH2 0x9DC JUMPI PUSH1 0x0 DUP1 REVERT JUMPDEST POP PUSH2 0x9E5 PUSH2 0x4DC3 JUMP JUMPDEST STOP JUMPDEST PUSH2 0xA01 PUSH1 0x4 DUP1 CALLDATASIZE SUB DUP2 ADD SWAP1 PUSH2 0x9FC SWAP2 SWAP1 PUSH2 0x8F75 JUMP JUMPDEST PUSH2 0x51B8 JUMP JUMPDEST STOP JUMPDEST CALLVALUE DUP1 ISZERO PUSH2 0xA0F JUMPI PUSH1 0x0 DUP1 REVERT JUMPDEST POP PUSH2 0xA2A PUSH1 0x4 DUP1 CALLDATASIZE SUB DUP2 ADD SWAP1 PUSH2 0xA25 SWAP2 SWAP1 PUSH2 0x8BFB JUMP JUMPDEST PUSH2 0x574F JUMP JUMPDEST STOP JUMPDEST CALLVALUE DUP1 ISZERO PUSH2 0xA38 JUMPI PUSH1 0x0 DUP1 REVERT JUMPDEST POP PUSH2 0xA41 PUSH2 0x58D8 JUMP JUMPDEST PUSH1 0x40 MLOAD PUSH2 0xA4E SWAP2 SWAP1 PUSH2 0x8A17 JUMP JUMPDEST PUSH1 0x40 MLOAD DUP1 SWAP2 SUB SWAP1 RETURN JUMPDEST CALLVALUE DUP1 ISZERO PUSH2 0xA63 JUMPI PUSH1 0x0 DUP1 REVERT JUMPDEST POP PUSH2 0xA7E PUSH1 0x4 DUP1 CALLDATASIZE SUB DUP2 ADD SWAP1 PUSH2 0xA79 SWAP2 SWAP1 PUSH2 0x9072 JUMP JUMPDEST PUSH2 0x596A JUMP JUMPDEST STOP JUMPDEST CALLVALUE DUP1 ISZERO PUSH2 0xA8C JUMPI PUSH1 0x0 DUP1 REVERT JUMPDEST POP PUSH2 0xAA7 PUSH1 0x4 DUP1 CALLDATASIZE SUB DUP2 ADD SWAP1 PUSH2 0xAA2 SWAP2 SWAP1 PUSH2 0x8BFB JUMP JUMPDEST PUSH2 0x59FA JUMP JUMPDEST STOP JUMPDEST CALLVALUE DUP1 ISZERO PUSH2 0xAB5 JUMPI PUSH1 0x0 DUP1 REVERT JUMPDEST POP PUSH2 0xAD0 PUSH1 0x4 DUP1 CALLDATASIZE SUB DUP2 ADD SWAP1 PUSH2 0xACB SWAP2 SWAP1 PUSH2 0x90EA JUMP JUMPDEST PUSH2 0x5B83 JUMP JUMPDEST STOP JUMPDEST CALLVALUE DUP1 ISZERO PUSH2 0xADE JUMPI PUSH1 0x0 DUP1 REVERT JUMPDEST POP PUSH2 0xAF9 PUSH1 0x4 DUP1 CALLDATASIZE SUB DUP2 ADD SWAP1 PUSH2 0xAF4 SWAP2 SWAP1 PUSH2 0x8BFB JUMP JUMPDEST PUSH2 0x5B99 JUMP JUMPDEST STOP JUMPDEST CALLVALUE DUP1 ISZERO PUSH2 0xB07 JUMPI PUSH1 0x0 DUP1 REVERT JUMPDEST POP PUSH2 0xB22 PUSH1 0x4 DUP1 CALLDATASIZE SUB DUP2 ADD SWAP1 PUSH2 0xB1D SWAP2 SWAP1 PUSH2 0x912A JUMP JUMPDEST PUSH2 0x5D22 JUMP JUMPDEST STOP JUMPDEST CALLVALUE DUP1 ISZERO PUSH2 0xB30 JUMPI PUSH1 0x0 DUP1 REVERT JUMPDEST POP PUSH2 0xB4B PUSH1 0x4 DUP1 CALLDATASIZE SUB DUP2 ADD SWAP1 PUSH2 0xB46 SWAP2 SWAP1 PUSH2 0x91B7 JUMP JUMPDEST PUSH2 0x5F38 JUMP JUMPDEST STOP JUMPDEST PUSH2 0xB67 PUSH1 0x4 DUP1 CALLDATASIZE SUB DUP2 ADD SWAP1 PUSH2 0xB62 SWAP2 SWAP1 PUSH2 0x92B2 JUMP JUMPDEST PUSH2 0x5F9A JUMP JUMPDEST STOP JUMPDEST CALLVALUE DUP1 ISZERO PUSH2 0xB75 JUMPI PUSH1 0x0 DUP1 REVERT JUMPDEST POP PUSH2 0xB90 PUSH1 0x4 DUP1 CALLDATASIZE SUB DUP2 ADD SWAP1 PUSH2 0xB8B SWAP2 SWAP1 PUSH2 0x8C5B JUMP JUMPDEST PUSH2 0x64A3 JUMP JUMPDEST PUSH1 0x40 MLOAD PUSH2 0xB9D SWAP2 SWAP1 PUSH2 0x877D JUMP JUMPDEST PUSH1 0x40 MLOAD DUP1 SWAP2 SUB SWAP1 RETURN JUMPDEST CALLVALUE DUP1 ISZERO PUSH2 0xBB2 JUMPI PUSH1 0x0 DUP1 REVERT JUMPDEST POP PUSH2 0xBCD PUSH1 0x4 DUP1 CALLDATASIZE SUB DUP2 ADD SWAP1 PUSH2 0xBC8 SWAP2 SWAP1 PUSH2 0x8A39 JUMP JUMPDEST PUSH2 0x64C4 JUMP JUMPDEST PUSH1 0x40 MLOAD PUSH2 0xBDA SWAP2 SWAP1 PUSH2 0x8A17 JUMP JUMPDEST PUSH1 0x40 MLOAD DUP1 SWAP2 SUB SWAP1 RETURN JUMPDEST CALLVALUE DUP1 ISZERO PUSH2 0xBEF JUMPI PUSH1 0x0 DUP1 REVERT JUMPDEST POP PUSH2 0xC0A PUSH1 0x4 DUP1 CALLDATASIZE SUB DUP2 ADD SWAP1 PUSH2 0xC05 SWAP2 SWAP1 PUSH2 0x8BFB JUMP JUMPDEST PUSH2 0x65CF JUMP JUMPDEST STOP JUMPDEST CALLVALUE DUP1 ISZERO PUSH2 0xC18 JUMPI PUSH1 0x0 DUP1 REVERT JUMPDEST POP PUSH2 0xC33 PUSH1 0x4 DUP1 CALLDATASIZE SUB DUP2 ADD SWAP1 PUSH2 0xC2E SWAP2 SWAP1 PUSH2 0x930E JUMP JUMPDEST PUSH2 0x6758 JUMP JUMPDEST PUSH1 0x40 MLOAD PUSH2 0xC40 SWAP2 SWAP1 PUSH2 0x877D JUMP JUMPDEST PUSH1 0x40 MLOAD DUP1 SWAP2 SUB SWAP1 RETURN JUMPDEST CALLVALUE DUP1 ISZERO PUSH2 0xC55 JUMPI PUSH1 0x0 DUP1 REVERT JUMPDEST POP PUSH2 0xC5E PUSH2 0x678F JUMP JUMPDEST PUSH1 0x40 MLOAD PUSH2 0xC6B SWAP2 SWAP1 PUSH2 0x9378 JUMP JUMPDEST PUSH1 0x40 MLOAD DUP1 SWAP2 SUB SWAP1 RETURN JUMPDEST CALLVALUE DUP1 ISZERO PUSH2 0xC80 JUMPI PUSH1 0x0 DUP1 REVERT JUMPDEST POP PUSH2 0xC89 PUSH2 0x67B6 JUMP JUMPDEST PUSH1 0x40 MLOAD PUSH2 0xC96 SWAP2 SWAP1 PUSH2 0x8B3D JUMP JUMPDEST PUSH1 0x40 MLOAD DUP1 SWAP2 SUB SWAP1 RETURN JUMPDEST CALLVALUE DUP1 ISZERO PUSH2 0xCAB JUMPI PUSH1 0x0 DUP1 REVERT JUMPDEST POP PUSH2 0xCC6 PUSH1 0x4 DUP1 CALLDATASIZE SUB DUP2 ADD SWAP1 PUSH2 0xCC1 SWAP2 SWAP1 PUSH2 0x8C5B JUMP JUMPDEST PUSH2 0x67BC JUMP JUMPDEST PUSH1 0x40 MLOAD PUSH2 0xCD3 SWAP2 SWAP1 PUSH2 0x877D JUMP JUMPDEST PUSH1 0x40 MLOAD DUP1 SWAP2 SUB SWAP1 RETURN JUMPDEST CALLVALUE DUP1 ISZERO PUSH2 0xCE8 JUMPI PUSH1 0x0 DUP1 REVERT JUMPDEST POP PUSH2 0xD03 PUSH1 0x4 DUP1 CALLDATASIZE SUB DUP2 ADD SWAP1 PUSH2 0xCFE SWAP2 SWAP1 PUSH2 0x8BFB JUMP JUMPDEST PUSH2 0x67DD JUMP JUMPDEST STOP JUMPDEST CALLVALUE DUP1 ISZERO PUSH2 0xD11 JUMPI PUSH1 0x0 DUP1 REVERT JUMPDEST POP PUSH2 0xD2C PUSH1 0x4 DUP1 CALLDATASIZE SUB DUP2 ADD SWAP1 PUSH2 0xD27 SWAP2 SWAP1 PUSH2 0x8A39 JUMP JUMPDEST PUSH2 0x6966 JUMP JUMPDEST PUSH1 0x40 MLOAD PUSH2 0xD3C SWAP5 SWAP4 SWAP3 SWAP2 SWAP1 PUSH2 0x9393 JUMP JUMPDEST PUSH1 0x40 MLOAD DUP1 SWAP2 SUB SWAP1 RETURN JUMPDEST CALLVALUE DUP1 ISZERO PUSH2 0xD51 JUMPI PUSH1 0x0 DUP1 REVERT JUMPDEST POP PUSH2 0xD6C PUSH1 0x4 DUP1 CALLDATASIZE SUB DUP2 ADD SWAP1 PUSH2 0xD67 SWAP2 SWAP1 PUSH2 0x93D8 JUMP JUMPDEST PUSH2 0x6996 JUMP JUMPDEST STOP JUMPDEST CALLVALUE DUP1 ISZERO PUSH2 0xD7A JUMPI PUSH1 0x0 DUP1 REVERT JUMPDEST POP PUSH2 0xD95 PUSH1 0x4 DUP1 CALLDATASIZE SUB DUP2 ADD SWAP1 PUSH2 0xD90 SWAP2 SWAP1 PUSH2 0x942B JUMP JUMPDEST PUSH2 0x6B24 JUMP JUMPDEST PUSH1 0x40 MLOAD PUSH2 0xDA2 SWAP2 SWAP1 PUSH2 0x877D JUMP JUMPDEST PUSH1 0x40 MLOAD DUP1 SWAP2 SUB SWAP1 RETURN JUMPDEST CALLVALUE DUP1 ISZERO PUSH2 0xDB7 JUMPI PUSH1 0x0 DUP1 REVERT JUMPDEST POP PUSH2 0xDD2 PUSH1 0x4 DUP1 CALLDATASIZE SUB DUP2 ADD SWAP1 PUSH2 0xDCD SWAP2 SWAP1 PUSH2 0x8C5B JUMP JUMPDEST PUSH2 0x6BB8 JUMP JUMPDEST PUSH1 0x40 MLOAD PUSH2 0xDDF SWAP2 SWAP1 PUSH2 0x877D JUMP JUMPDEST PUSH1 0x40 MLOAD DUP1 SWAP2 SUB SWAP1 RETURN JUMPDEST CALLVALUE DUP1 ISZERO PUSH2 0xDF4 JUMPI PUSH1 0x0 DUP1 REVERT JUMPDEST POP PUSH2 0xDFD PUSH2 0x6BD9 JUMP JUMPDEST STOP JUMPDEST CALLVALUE DUP1 ISZERO PUSH2 0xE0B JUMPI PUSH1 0x0 DUP1 REVERT JUMPDEST POP PUSH2 0xE26 PUSH1 0x4 DUP1 CALLDATASIZE SUB DUP2 ADD SWAP1 PUSH2 0xE21 SWAP2 SWAP1 PUSH2 0x946B JUMP JUMPDEST PUSH2 0x6F2D JUMP JUMPDEST STOP JUMPDEST CALLVALUE DUP1 ISZERO PUSH2 0xE34 JUMPI PUSH1 0x0 DUP1 REVERT JUMPDEST POP PUSH2 0xE4F PUSH1 0x4 DUP1 CALLDATASIZE SUB DUP2 ADD SWAP1 PUSH2 0xE4A SWAP2 SWAP1 PUSH2 0x8C5B JUMP JUMPDEST PUSH2 0x7018 JUMP JUMPDEST STOP JUMPDEST PUSH2 0xE65 PUSH8 0xCC7EC2A30CB5B2A3 PUSH1 0xC0 SHL PUSH2 0x709B JUMP JUMPDEST PUSH2 0xE6D PUSH2 0x709E JUMP JUMPDEST PUSH2 0xE81 PUSH8 0x41973BD226D807A1 PUSH1 0xC0 SHL PUSH2 0x709B JUMP JUMPDEST PUSH2 0xE95 PUSH8 0x4AA54C6904FB88A4 PUSH1 0xC0 SHL PUSH2 0x709B JUMP JUMPDEST PUSH2 0xEA9 PUSH8 0x2C5297635967D518 PUSH1 0xC0 SHL PUSH2 0x709B JUMP JUMPDEST PUSH2 0xEBD PUSH8 0x21AD4B3456A93B12 PUSH1 0xC0 SHL PUSH2 0x709B JUMP JUMPDEST PUSH1 0x0 JUMPDEST DUP9 DUP9 SWAP1 POP DUP2 LT ISZERO PUSH2 0x10AA JUMPI PUSH2 0xEDF PUSH8 0x2CA3EEB0F6CA2B97 PUSH1 0xC0 SHL PUSH2 0x709B JUMP JUMPDEST DUP9 DUP9 DUP3 DUP2 DUP2 LT PUSH2 0xEF2 JUMPI PUSH2 0xEF1 PUSH2 0x94CB JUMP JUMPDEST JUMPDEST SWAP1 POP PUSH1 0x20 MUL ADD CALLDATALOAD PUSH2 0x109 PUSH1 0x0 DUP13 DUP2 MSTORE PUSH1 0x20 ADD SWAP1 DUP2 MSTORE PUSH1 0x20 ADD PUSH1 0x0 KECCAK256 PUSH1 0x0 DUP12 DUP12 DUP6 DUP2 DUP2 LT PUSH2 0xF22 JUMPI PUSH2 0xF21 PUSH2 0x94CB JUMP JUMPDEST JUMPDEST SWAP1 POP PUSH1 0x20 MUL ADD CALLDATALOAD DUP2 MSTORE PUSH1 0x20 ADD SWAP1 DUP2 MSTORE PUSH1 0x20 ADD PUSH1 0x0 KECCAK256 PUSH1 0x0 ADD DUP2 SWAP1 SSTORE POP PUSH2 0xF52 PUSH8 0x54359B0233C51C80 PUSH1 0xC0 SHL PUSH2 0x709B JUMP JUMPDEST DUP7 DUP7 DUP3 DUP2 DUP2 LT PUSH2 0xF65 JUMPI PUSH2 0xF64 PUSH2 0x94CB JUMP JUMPDEST JUMPDEST SWAP1 POP PUSH1 0x20 MUL ADD CALLDATALOAD PUSH2 0x109 PUSH1 0x0 DUP13 DUP2 MSTORE PUSH1 0x20 ADD SWAP1 DUP2 MSTORE PUSH1 0x20 ADD PUSH1 0x0 KECCAK256 PUSH1 0x0 DUP12 DUP12 DUP6 DUP2 DUP2 LT PUSH2 0xF95 JUMPI PUSH2 0xF94 PUSH2 0x94CB JUMP JUMPDEST JUMPDEST SWAP1 POP PUSH1 0x20 MUL ADD CALLDATALOAD DUP2 MSTORE PUSH1 0x20 ADD SWAP1 DUP2 MSTORE PUSH1 0x20 ADD PUSH1 0x0 KECCAK256 PUSH1 0x1 ADD DUP2 SWAP1 SSTORE POP PUSH2 0xFC5 PUSH8 0xD578D52025B1DA3B PUSH1 0xC0 SHL PUSH2 0x709B JUMP JUMPDEST DUP5 DUP5 DUP3 DUP2 DUP2 LT PUSH2 0xFD8 JUMPI PUSH2 0xFD7 PUSH2 0x94CB JUMP JUMPDEST JUMPDEST SWAP1 POP PUSH1 0x20 MUL ADD CALLDATALOAD PUSH2 0x109 PUSH1 0x0 DUP13 DUP2 MSTORE PUSH1 0x20 ADD SWAP1 DUP2 MSTORE PUSH1 0x20 ADD PUSH1 0x0 KECCAK256 PUSH1 0x0 DUP12 DUP12 DUP6 DUP2 DUP2 LT PUSH2 0x1008 JUMPI PUSH2 0x1007 PUSH2 0x94CB JUMP JUMPDEST JUMPDEST SWAP1 POP PUSH1 0x20 MUL ADD CALLDATALOAD DUP2 MSTORE PUSH1 0x20 ADD SWAP1 DUP2 MSTORE PUSH1 0x20 ADD PUSH1 0x0 KECCAK256 PUSH1 0x4 ADD DUP2 SWAP1 SSTORE POP PUSH2 0x1038 PUSH8 0x59CC071598065433 PUSH1 0xC0 SHL PUSH2 0x709B JUMP JUMPDEST DUP3 DUP3 DUP3 DUP2 DUP2 LT PUSH2 0x104B JUMPI PUSH2 0x104A PUSH2 0x94CB JUMP JUMPDEST JUMPDEST SWAP1 POP PUSH1 0x20 MUL ADD CALLDATALOAD PUSH2 0x109 PUSH1 0x0 DUP13 DUP2 MSTORE PUSH1 0x20 ADD SWAP1 DUP2 MSTORE PUSH1 0x20 ADD PUSH1 0x0 KECCAK256 PUSH1 0x0 DUP12 DUP12 DUP6 DUP2 DUP2 LT PUSH2 0x107B JUMPI PUSH2 0x107A PUSH2 0x94CB JUMP JUMPDEST JUMPDEST SWAP1 POP PUSH1 0x20 MUL ADD CALLDATALOAD DUP2 MSTORE PUSH1 0x20 ADD SWAP1 DUP2 MSTORE PUSH1 0x20 ADD PUSH1 0x0 KECCAK256 PUSH1 0x3 ADD DUP2 SWAP1 SSTORE POP DUP1 DUP1 PUSH2 0x10A2 SWAP1 PUSH2 0x9529 JUMP JUMPDEST SWAP2 POP POP PUSH2 0xEC0 JUMP JUMPDEST POP POP POP POP POP POP POP POP POP POP JUMP JUMPDEST PUSH1 0x0 PUSH32 0x80AC58CD00000000000000000000000000000000000000000000000000000000 PUSH28 0xFFFFFFFFFFFFFFFFFFFFFFFFFFFFFFFFFFFFFFFFFFFFFFFFFFFFFFFF NOT AND DUP3 PUSH28 0xFFFFFFFFFFFFFFFFFFFFFFFFFFFFFFFFFFFFFFFFFFFFFFFFFFFFFFFF NOT AND EQ DUP1 PUSH2 0x1181 JUMPI POP PUSH32 0x5B5E139F00000000000000000000000000000000000000000000000000000000 PUSH28 0xFFFFFFFFFFFFFFFFFFFFFFFFFFFFFFFFFFFFFFFFFFFFFFFFFFFFFFFF NOT AND DUP3 PUSH28 0xFFFFFFFFFFFFFFFFFFFFFFFFFFFFFFFFFFFFFFFFFFFFFFFFFFFFFFFF NOT AND EQ JUMPDEST DUP1 PUSH2 0x1191 JUMPI POP PUSH2 0x1190 DUP3 PUSH2 0x711C JUMP JUMPDEST JUMPDEST SWAP1 POP SWAP2 SWAP1 POP JUMP JUMPDEST PUSH2 0x11AC PUSH8 0x681C0DCA96523A74 PUSH1 0xC0 SHL PUSH2 0x709B JUMP JUMPDEST PUSH2 0x11B4 PUSH2 0x7186 JUMP JUMPDEST PUSH2 0x11C8 PUSH8 0x8B6975A309198399 PUSH1 0xC0 SHL PUSH2 0x709B JUMP JUMPDEST PUSH2 0x11DC PUSH8 0xC553C74600A1F83A PUSH1 0xC0 SHL PUSH2 0x709B JUMP JUMPDEST PUSH2 0x11F0 PUSH8 0x38D1861ABB7C178B PUSH1 0xC0 SHL PUSH2 0x709B JUMP JUMPDEST PUSH2 0x1204 PUSH8 0xC1EFEF9B5DEB1750 PUSH1 0xC0 SHL PUSH2 0x709B JUMP JUMPDEST PUSH2 0x1218 PUSH8 0x8973839573713C79 PUSH1 0xC0 SHL PUSH2 0x709B JUMP JUMPDEST PUSH2 0x122E PUSH2 0x1223 PUSH2 0x4D78 JUMP JUMPDEST DUP5 PUSH1 0x60 ADD CALLDATALOAD DUP5 PUSH2 0x71D5 JUMP JUMPDEST DUP1 ISZERO PUSH2 0x1264 JUMPI POP PUSH2 0x10B DUP3 PUSH1 0x40 MLOAD PUSH2 0x1246 SWAP2 SWAP1 PUSH2 0x95B8 JUMP JUMPDEST SWAP1 DUP2 MSTORE PUSH1 0x20 ADD PUSH1 0x40 MLOAD DUP1 SWAP2 SUB SWAP1 KECCAK256 PUSH1 0x0 SWAP1 SLOAD SWAP1 PUSH2 0x100 EXP SWAP1 DIV PUSH1 0xFF AND ISZERO JUMPDEST DUP1 ISZERO PUSH2 0x130A JUMPI POP PUSH2 0x10D PUSH1 0x0 SWAP1 SLOAD SWAP1 PUSH2 0x100 EXP SWAP1 DIV PUSH20 0xFFFFFFFFFFFFFFFFFFFFFFFFFFFFFFFFFFFFFFFF AND PUSH20 0xFFFFFFFFFFFFFFFFFFFFFFFFFFFFFFFFFFFFFFFF AND PUSH4 0xC9941806 DUP4 PUSH1 0x40 MLOAD DUP3 PUSH4 0xFFFFFFFF AND PUSH1 0xE0 SHL DUP2 MSTORE PUSH1 0x4 ADD PUSH2 0x12C7 SWAP2 SWAP1 PUSH2 0x9619 JUMP JUMPDEST PUSH1 0x20 PUSH1 0x40 MLOAD DUP1 DUP4 SUB DUP2 DUP7 GAS STATICCALL ISZERO DUP1 ISZERO PUSH2 0x12E4 JUMPI RETURNDATASIZE PUSH1 0x0 DUP1 RETURNDATACOPY RETURNDATASIZE PUSH1 0x0 REVERT JUMPDEST POP POP POP POP PUSH1 0x40 MLOAD RETURNDATASIZE PUSH1 0x1F NOT PUSH1 0x1F DUP3 ADD AND DUP3 ADD DUP1 PUSH1 0x40 MSTORE POP DUP2 ADD SWAP1 PUSH2 0x1308 SWAP2 SWAP1 PUSH2 0x9650 JUMP JUMPDEST ISZERO JUMPDEST DUP1 ISZERO PUSH2 0x13B0 JUMPI POP PUSH2 0x101 PUSH1 0x0 SWAP1 SLOAD SWAP1 PUSH2 0x100 EXP SWAP1 DIV PUSH20 0xFFFFFFFFFFFFFFFFFFFFFFFFFFFFFFFFFFFFFFFF AND PUSH20 0xFFFFFFFFFFFFFFFFFFFFFFFFFFFFFFFFFFFFFFFF AND PUSH4 0xC9941806 DUP4 PUSH1 0x40 MLOAD DUP3 PUSH4 0xFFFFFFFF AND PUSH1 0xE0 SHL DUP2 MSTORE PUSH1 0x4 ADD PUSH2 0x136D SWAP2 SWAP1 PUSH2 0x9619 JUMP JUMPDEST PUSH1 0x20 PUSH1 0x40 MLOAD DUP1 DUP4 SUB DUP2 DUP7 GAS STATICCALL ISZERO DUP1 ISZERO PUSH2 0x138A JUMPI RETURNDATASIZE PUSH1 0x0 DUP1 RETURNDATACOPY RETURNDATASIZE PUSH1 0x0 REVERT JUMPDEST POP POP POP POP PUSH1 0x40 MLOAD RETURNDATASIZE PUSH1 0x1F NOT PUSH1 0x1F DUP3 ADD AND DUP3 ADD DUP1 PUSH1 0x40 MSTORE POP DUP2 ADD SWAP1 PUSH2 0x13AE SWAP2 SWAP1 PUSH2 0x9650 JUMP JUMPDEST ISZERO JUMPDEST PUSH2 0x13EF JUMPI PUSH1 0x40 MLOAD PUSH32 0x8C379A000000000000000000000000000000000000000000000000000000000 DUP2 MSTORE PUSH1 0x4 ADD PUSH2 0x13E6 SWAP1 PUSH2 0x96C9 JUMP JUMPDEST PUSH1 0x40 MLOAD DUP1 SWAP2 SUB SWAP1 REVERT JUMPDEST PUSH2 0x1403 PUSH8 0xB6D4812DF5CDC467 PUSH1 0xC0 SHL PUSH2 0x709B JUMP JUMPDEST PUSH2 0x1417 PUSH8 0xDB85E45AAFA4B401 PUSH1 0xC0 SHL PUSH2 0x709B JUMP JUMPDEST PUSH2 0x142B PUSH8 0xF4AE43EB8F73E713 PUSH1 0xC0 SHL PUSH2 0x709B JUMP JUMPDEST PUSH2 0x143F PUSH8 0xFC848806049DBBE7 PUSH1 0xC0 SHL PUSH2 0x709B JUMP JUMPDEST PUSH1 0xFF PUSH1 0x0 DUP5 PUSH1 0x0 ADD CALLDATALOAD DUP2 MSTORE PUSH1 0x20 ADD SWAP1 DUP2 MSTORE PUSH1 0x20 ADD PUSH1 0x0 KECCAK256 PUSH1 0x0 SWAP1 SLOAD SWAP1 PUSH2 0x100 EXP SWAP1 DIV PUSH1 0xFF AND DUP1 ISZERO PUSH2 0x14B3 JUMPI POP DUP3 PUSH1 0x40 ADD CALLDATALOAD PUSH1 0xFE PUSH1 0x0 DUP6 PUSH1 0x0 ADD CALLDATALOAD DUP2 MSTORE PUSH1 0x20 ADD SWAP1 DUP2 MSTORE PUSH1 0x20 ADD PUSH1 0x0 KECCAK256 PUSH1 0x1 ADD SLOAD PUSH2 0x1495 SWAP2 SWAP1 PUSH2 0x96E9 JUMP JUMPDEST PUSH1 0xFE PUSH1 0x0 DUP6 PUSH1 0x0 ADD CALLDATALOAD DUP2 MSTORE PUSH1 0x20 ADD SWAP1 DUP2 MSTORE PUSH1 0x20 ADD PUSH1 0x0 KECCAK256 PUSH1 0x0 ADD SLOAD LT ISZERO JUMPDEST DUP1 ISZERO PUSH2 0x1551 JUMPI POP PUSH1 0x6 DUP4 PUSH1 0x0 ADD CALLDATALOAD EQ DUP1 ISZERO PUSH2 0x14DE JUMPI POP PUSH2 0x14DD PUSH8 0x3BE6A93FBB99428B PUSH1 0xC0 SHL PUSH2 0x739B JUMP JUMPDEST JUMPDEST DUP1 PUSH2 0x1525 JUMPI POP PUSH1 0x7 DUP4 PUSH1 0x0 ADD CALLDATALOAD EQ DUP1 ISZERO PUSH2 0x1508 JUMPI POP PUSH2 0x1507 PUSH8 0x5E116E9A88D0B10B PUSH1 0xC0 SHL PUSH2 0x739B JUMP JUMPDEST JUMPDEST DUP1 ISZERO PUSH2 0x1524 JUMPI POP PUSH2 0x1523 PUSH8 0xB8EAD7905200413B PUSH1 0xC0 SHL PUSH2 0x739B JUMP JUMPDEST JUMPDEST JUMPDEST DUP1 PUSH2 0x1550 JUMPI POP PUSH1 0x8 DUP4 PUSH1 0x0 ADD CALLDATALOAD EQ DUP1 ISZERO PUSH2 0x154F JUMPI POP PUSH2 0x154E PUSH8 0xFBEAA51BF2FE190 PUSH1 0xC0 SHL PUSH2 0x739B JUMP JUMPDEST JUMPDEST JUMPDEST JUMPDEST DUP1 ISZERO PUSH2 0x15BD JUMPI POP PUSH2 0x109 PUSH1 0x0 DUP5 PUSH1 0x0 ADD CALLDATALOAD DUP2 MSTORE PUSH1 0x20 ADD SWAP1 DUP2 MSTORE PUSH1 0x20 ADD PUSH1 0x0 KECCAK256 PUSH1 0x0 DUP5 PUSH1 0x20 ADD CALLDATALOAD DUP2 MSTORE PUSH1 0x20 ADD SWAP1 DUP2 MSTORE PUSH1 0x20 ADD PUSH1 0x0 KECCAK256 PUSH1 0x6 ADD SLOAD PUSH2 0x109 PUSH1 0x0 DUP6 PUSH1 0x0 ADD CALLDATALOAD DUP2 MSTORE PUSH1 0x20 ADD SWAP1 DUP2 MSTORE PUSH1 0x20 ADD PUSH1 0x0 KECCAK256 PUSH1 0x0 DUP6 PUSH1 0x20 ADD CALLDATALOAD DUP2 MSTORE PUSH1 0x20 ADD SWAP1 DUP2 MSTORE PUSH1 0x20 ADD PUSH1 0x0 KECCAK256 PUSH1 0x5 ADD SLOAD LT ISZERO JUMPDEST PUSH2 0x15FC JUMPI PUSH1 0x40 MLOAD PUSH32 0x8C379A000000000000000000000000000000000000000000000000000000000 DUP2 MSTORE PUSH1 0x4 ADD PUSH2 0x15F3 SWAP1 PUSH2 0x978F JUMP JUMPDEST PUSH1 0x40 MLOAD DUP1 SWAP2 SUB SWAP1 REVERT JUMPDEST PUSH2 0x1610 PUSH8 0x2AA672335ED17D7B PUSH1 0xC0 SHL PUSH2 0x709B JUMP JUMPDEST PUSH2 0x1624 PUSH8 0xAFF8092F8B946BC9 PUSH1 0xC0 SHL PUSH2 0x709B JUMP JUMPDEST PUSH2 0x1638 PUSH8 0x1CBDF1E9CBFDDE39 PUSH1 0xC0 SHL PUSH2 0x709B JUMP JUMPDEST PUSH2 0x164C PUSH8 0x5469763FF44F8523 PUSH1 0xC0 SHL PUSH2 0x709B JUMP JUMPDEST CALLVALUE DUP4 PUSH1 0x40 ADD CALLDATALOAD PUSH2 0x109 PUSH1 0x0 DUP7 PUSH1 0x0 ADD CALLDATALOAD DUP2 MSTORE PUSH1 0x20 ADD SWAP1 DUP2 MSTORE PUSH1 0x20 ADD PUSH1 0x0 KECCAK256 PUSH1 0x0 DUP7 PUSH1 0x20 ADD CALLDATALOAD DUP2 MSTORE PUSH1 0x20 ADD SWAP1 DUP2 MSTORE PUSH1 0x20 ADD PUSH1 0x0 KECCAK256 PUSH1 0x8 ADD SLOAD PUSH2 0x168D SWAP2 SWAP1 PUSH2 0x97AF JUMP JUMPDEST EQ PUSH2 0x16CD JUMPI PUSH1 0x40 MLOAD PUSH32 0x8C379A000000000000000000000000000000000000000000000000000000000 DUP2 MSTORE PUSH1 0x4 ADD PUSH2 0x16C4 SWAP1 PUSH2 0x9855 JUMP JUMPDEST PUSH1 0x40 MLOAD DUP1 SWAP2 SUB SWAP1 REVERT JUMPDEST PUSH2 0x16E1 PUSH8 0x858508D1ECD1B731 PUSH1 0xC0 SHL PUSH2 0x709B JUMP JUMPDEST PUSH2 0x16F5 PUSH8 0x791C4912A5D06B84 PUSH1 0xC0 SHL PUSH2 0x709B JUMP JUMPDEST PUSH2 0x1709 PUSH8 0xB7365CE2488A611 PUSH1 0xC0 SHL PUSH2 0x709B JUMP JUMPDEST PUSH1 0x60 PUSH2 0x171F PUSH8 0x1EFCFA7EF61728B9 PUSH1 0xC0 SHL PUSH2 0x709B JUMP JUMPDEST PUSH2 0x1733 PUSH8 0x43AC06D8AA8F8A0F PUSH1 0xC0 SHL PUSH2 0x709B JUMP JUMPDEST PUSH2 0x1747 PUSH8 0x49D6062097ADC2D0 PUSH1 0xC0 SHL PUSH2 0x709B JUMP JUMPDEST PUSH2 0x10C SLOAD DUP5 PUSH1 0x40 ADD CALLDATALOAD GT ISZERO PUSH2 0x1791 JUMPI PUSH1 0x40 MLOAD PUSH32 0x8C379A000000000000000000000000000000000000000000000000000000000 DUP2 MSTORE PUSH1 0x4 ADD PUSH2 0x1788 SWAP1 PUSH2 0x98C1 JUMP JUMPDEST PUSH1 0x40 MLOAD DUP1 SWAP2 SUB SWAP1 REVERT JUMPDEST PUSH2 0x17A5 PUSH8 0xCE6666729D096142 PUSH1 0xC0 SHL PUSH2 0x709B JUMP JUMPDEST PUSH2 0x17B9 PUSH8 0x22932FDD59C14A64 PUSH1 0xC0 SHL PUSH2 0x709B JUMP JUMPDEST DUP4 PUSH1 0x40 ADD CALLDATALOAD PUSH8 0xFFFFFFFFFFFFFFFF DUP2 GT ISZERO PUSH2 0x17D7 JUMPI PUSH2 0x17D6 PUSH2 0x87D2 JUMP JUMPDEST JUMPDEST PUSH1 0x40 MLOAD SWAP1 DUP1 DUP3 MSTORE DUP1 PUSH1 0x20 MUL PUSH1 0x20 ADD DUP3 ADD PUSH1 0x40 MSTORE DUP1 ISZERO PUSH2 0x1805 JUMPI DUP2 PUSH1 0x20 ADD PUSH1 0x20 DUP3 MUL DUP1 CALLDATASIZE DUP4 CALLDATACOPY DUP1 DUP3 ADD SWAP2 POP POP SWAP1 POP JUMPDEST POP SWAP1 POP PUSH2 0x181C PUSH8 0x2C8BCC30AEBB1702 PUSH1 0xC0 SHL PUSH2 0x709B JUMP JUMPDEST PUSH2 0x1830 PUSH8 0x933A89A55F1DC90D PUSH1 0xC0 SHL PUSH2 0x709B JUMP JUMPDEST PUSH1 0x0 JUMPDEST DUP5 PUSH1 0x40 ADD CALLDATALOAD DUP2 LT ISZERO PUSH2 0x1957 JUMPI PUSH2 0x1853 PUSH8 0x8A11BFE6F9B58669 PUSH1 0xC0 SHL PUSH2 0x709B JUMP JUMPDEST PUSH1 0x1 PUSH1 0xFB PUSH1 0x0 DUP3 DUP3 SLOAD PUSH2 0x1866 SWAP2 SWAP1 PUSH2 0x96E9 JUMP JUMPDEST SWAP3 POP POP DUP2 SWAP1 SSTORE POP PUSH2 0x1881 PUSH8 0xE315CDD5C68079B1 PUSH1 0xC0 SHL PUSH2 0x709B JUMP JUMPDEST PUSH1 0x40 MLOAD DUP1 PUSH1 0x40 ADD PUSH1 0x40 MSTORE DUP1 PUSH1 0x7 DUP2 MSTORE PUSH1 0x20 ADD PUSH32 0x5052494E54455200000000000000000000000000000000000000000000000000 DUP2 MSTORE POP PUSH2 0x10A PUSH1 0x0 PUSH1 0xFB SLOAD DUP2 MSTORE PUSH1 0x20 ADD SWAP1 DUP2 MSTORE PUSH1 0x20 ADD PUSH1 0x0 KECCAK256 SWAP1 DUP2 PUSH2 0x18D9 SWAP2 SWAP1 PUSH2 0x9AE3 JUMP JUMPDEST POP PUSH2 0x18EE PUSH8 0xE49EDA4F0C089B64 PUSH1 0xC0 SHL PUSH2 0x709B JUMP JUMPDEST PUSH2 0x1902 PUSH8 0x8057B4F8AE7D6EF4 PUSH1 0xC0 SHL PUSH2 0x709B JUMP JUMPDEST PUSH2 0x190E CALLER PUSH1 0xFB SLOAD PUSH2 0x73A6 JUMP JUMPDEST PUSH2 0x1922 PUSH8 0x6DEF481F2FD01962 PUSH1 0xC0 SHL PUSH2 0x709B JUMP JUMPDEST PUSH1 0xFB SLOAD DUP3 DUP3 DUP2 MLOAD DUP2 LT PUSH2 0x1938 JUMPI PUSH2 0x1937 PUSH2 0x94CB JUMP JUMPDEST JUMPDEST PUSH1 0x20 MUL PUSH1 0x20 ADD ADD DUP2 DUP2 MSTORE POP POP DUP1 DUP1 PUSH2 0x194F SWAP1 PUSH2 0x9529 JUMP JUMPDEST SWAP2 POP POP PUSH2 0x1833 JUMP JUMPDEST POP PUSH2 0x196C PUSH8 0x5CE9726888CEE040 PUSH1 0xC0 SHL PUSH2 0x709B JUMP JUMPDEST PUSH2 0x1980 PUSH8 0xE86249574BDA80E1 PUSH1 0xC0 SHL PUSH2 0x709B JUMP JUMPDEST PUSH2 0x10E PUSH1 0x0 SWAP1 SLOAD SWAP1 PUSH2 0x100 EXP SWAP1 DIV PUSH20 0xFFFFFFFFFFFFFFFFFFFFFFFFFFFFFFFFFFFFFFFF AND PUSH20 0xFFFFFFFFFFFFFFFFFFFFFFFFFFFFFFFFFFFFFFFF AND PUSH2 0x8FC CALLVALUE SWAP1 DUP2 ISZERO MUL SWAP1 PUSH1 0x40 MLOAD PUSH1 0x0 PUSH1 0x40 MLOAD DUP1 DUP4 SUB DUP2 DUP6 DUP9 DUP9 CALL SWAP4 POP POP POP POP ISZERO DUP1 ISZERO PUSH2 0x19E9 JUMPI RETURNDATASIZE PUSH1 0x0 DUP1 RETURNDATACOPY RETURNDATASIZE PUSH1 0x0 REVERT JUMPDEST POP PUSH2 0x19FE PUSH8 0x2756E8A6E4F544C4 PUSH1 0xC0 SHL PUSH2 0x709B JUMP JUMPDEST PUSH2 0x1A12 PUSH8 0x545948FB9336AF0B PUSH1 0xC0 SHL PUSH2 0x709B JUMP JUMPDEST PUSH1 0x0 PUSH2 0x109 PUSH1 0x0 DUP7 PUSH1 0x0 ADD CALLDATALOAD DUP2 MSTORE PUSH1 0x20 ADD SWAP1 DUP2 MSTORE PUSH1 0x20 ADD PUSH1 0x0 KECCAK256 PUSH1 0x0 DUP7 PUSH1 0x20 ADD CALLDATALOAD DUP2 MSTORE PUSH1 0x20 ADD SWAP1 DUP2 MSTORE PUSH1 0x20 ADD PUSH1 0x0 KECCAK256 PUSH1 0x3 ADD SLOAD GT ISZERO PUSH2 0x1D78 JUMPI PUSH2 0x1A5F PUSH8 0x5AA2494968377385 PUSH1 0xC0 SHL PUSH2 0x709B JUMP JUMPDEST PUSH2 0x1A73 PUSH8 0xB1BA8F98E7907F8D PUSH1 0xC0 SHL PUSH2 0x709B JUMP JUMPDEST PUSH2 0x1A87 PUSH8 0x131402BD2DC79969 PUSH1 0xC0 SHL PUSH2 0x709B JUMP JUMPDEST PUSH2 0x10D PUSH1 0x0 SWAP1 SLOAD SWAP1 PUSH2 0x100 EXP SWAP1 DIV PUSH20 0xFFFFFFFFFFFFFFFFFFFFFFFFFFFFFFFFFFFFFFFF AND PUSH20 0xFFFFFFFFFFFFFFFFFFFFFFFFFFFFFFFFFFFFFFFF AND PUSH4 0xD1660F99 CALLER ADDRESS PUSH2 0x109 PUSH1 0x0 DUP10 PUSH1 0x0 ADD CALLDATALOAD DUP2 MSTORE PUSH1 0x20 ADD SWAP1 DUP2 MSTORE PUSH1 0x20 ADD PUSH1 0x0 KECCAK256 PUSH1 0x0 DUP10 PUSH1 0x20 ADD CALLDATALOAD DUP2 MSTORE PUSH1 0x20 ADD SWAP1 DUP2 MSTORE PUSH1 0x20 ADD PUSH1 0x0 KECCAK256 PUSH1 0x7 ADD SLOAD PUSH1 0x40 MLOAD DUP5 PUSH4 0xFFFFFFFF AND PUSH1 0xE0 SHL DUP2 MSTORE PUSH1 0x4 ADD PUSH2 0x1B17 SWAP4 SWAP3 SWAP2 SWAP1 PUSH2 0x9BB5 JUMP JUMPDEST PUSH1 0x0 PUSH1 0x40 MLOAD DUP1 DUP4 SUB DUP2 PUSH1 0x0 DUP8 DUP1 EXTCODESIZE ISZERO DUP1 ISZERO PUSH2 0x1B31 JUMPI PUSH1 0x0 DUP1 REVERT JUMPDEST POP GAS CALL ISZERO DUP1 ISZERO PUSH2 0x1B45 JUMPI RETURNDATASIZE PUSH1 0x0 DUP1 RETURNDATACOPY RETURNDATASIZE PUSH1 0x0 REVERT JUMPDEST POP POP POP POP PUSH2 0x1B5D PUSH8 0x6D6AD4A5560048B1 PUSH1 0xC0 SHL PUSH2 0x709B JUMP JUMPDEST PUSH2 0x1B71 PUSH8 0xB8203AC42B49057B PUSH1 0xC0 SHL PUSH2 0x709B JUMP JUMPDEST PUSH2 0x10D PUSH1 0x0 SWAP1 SLOAD SWAP1 PUSH2 0x100 EXP SWAP1 DIV PUSH20 0xFFFFFFFFFFFFFFFFFFFFFFFFFFFFFFFFFFFFFFFF AND PUSH20 0xFFFFFFFFFFFFFFFFFFFFFFFFFFFFFFFFFFFFFFFF AND PUSH4 0x95EA7B3 PUSH2 0x10E PUSH1 0x0 SWAP1 SLOAD SWAP1 PUSH2 0x100 EXP SWAP1 DIV PUSH20 0xFFFFFFFFFFFFFFFFFFFFFFFFFFFFFFFFFFFFFFFF AND PUSH2 0x109 PUSH1 0x0 DUP9 PUSH1 0x0 ADD CALLDATALOAD DUP2 MSTORE PUSH1 0x20 ADD SWAP1 DUP2 MSTORE PUSH1 0x20 ADD PUSH1 0x0 KECCAK256 PUSH1 0x0 DUP9 PUSH1 0x20 ADD CALLDATALOAD DUP2 MSTORE PUSH1 0x20 ADD SWAP1 DUP2 MSTORE PUSH1 0x20 ADD PUSH1 0x0 KECCAK256 PUSH1 0x7 ADD SLOAD PUSH1 0x40 MLOAD DUP4 PUSH4 0xFFFFFFFF AND PUSH1 0xE0 SHL DUP2 MSTORE PUSH1 0x4 ADD PUSH2 0x1C22 SWAP3 SWAP2 SWAP1 PUSH2 0x9BEC JUMP JUMPDEST PUSH1 0x20 PUSH1 0x40 MLOAD DUP1 DUP4 SUB DUP2 PUSH1 0x0 DUP8 GAS CALL ISZERO DUP1 ISZERO PUSH2 0x1C41 JUMPI RETURNDATASIZE PUSH1 0x0 DUP1 RETURNDATACOPY RETURNDATASIZE PUSH1 0x0 REVERT JUMPDEST POP POP POP POP PUSH1 0x40 MLOAD RETURNDATASIZE PUSH1 0x1F NOT PUSH1 0x1F DUP3 ADD AND DUP3 ADD DUP1 PUSH1 0x40 MSTORE POP DUP2 ADD SWAP1 PUSH2 0x1C65 SWAP2 SWAP1 PUSH2 0x9650 JUMP JUMPDEST POP PUSH2 0x1C7A PUSH8 0x6162ED1D67FB8525 PUSH1 0xC0 SHL PUSH2 0x709B JUMP JUMPDEST PUSH2 0x1C8E PUSH8 0xCBBBC726C3DF222B PUSH1 0xC0 SHL PUSH2 0x709B JUMP JUMPDEST PUSH2 0x10D PUSH1 0x0 SWAP1 SLOAD SWAP1 PUSH2 0x100 EXP SWAP1 DIV PUSH20 0xFFFFFFFFFFFFFFFFFFFFFFFFFFFFFFFFFFFFFFFF AND PUSH20 0xFFFFFFFFFFFFFFFFFFFFFFFFFFFFFFFFFFFFFFFF AND PUSH4 0xD1660F99 ADDRESS PUSH2 0x10E PUSH1 0x0 SWAP1 SLOAD SWAP1 PUSH2 0x100 EXP SWAP1 DIV PUSH20 0xFFFFFFFFFFFFFFFFFFFFFFFFFFFFFFFFFFFFFFFF AND PUSH2 0x109 PUSH1 0x0 DUP10 PUSH1 0x0 ADD CALLDATALOAD DUP2 MSTORE PUSH1 0x20 ADD SWAP1 DUP2 MSTORE PUSH1 0x20 ADD PUSH1 0x0 KECCAK256 PUSH1 0x0 DUP10 PUSH1 0x20 ADD CALLDATALOAD DUP2 MSTORE PUSH1 0x20 ADD SWAP1 DUP2 MSTORE PUSH1 0x20 ADD PUSH1 0x0 KECCAK256 PUSH1 0x3 ADD SLOAD PUSH1 0x40 MLOAD DUP5 PUSH4 0xFFFFFFFF AND PUSH1 0xE0 SHL DUP2 MSTORE PUSH1 0x4 ADD PUSH2 0x1D41 SWAP4 SWAP3 SWAP2 SWAP1 PUSH2 0x9BB5 JUMP JUMPDEST PUSH1 0x0 PUSH1 0x40 MLOAD DUP1 DUP4 SUB DUP2 PUSH1 0x0 DUP8 DUP1 EXTCODESIZE ISZERO DUP1 ISZERO PUSH2 0x1D5B JUMPI PUSH1 0x0 DUP1 REVERT JUMPDEST POP GAS CALL ISZERO DUP1 ISZERO PUSH2 0x1D6F JUMPI RETURNDATASIZE PUSH1 0x0 DUP1 RETURNDATACOPY RETURNDATASIZE PUSH1 0x0 REVERT JUMPDEST POP POP POP POP PUSH2 0x1D8D JUMP JUMPDEST PUSH2 0x1D8C PUSH8 0x52B81EA2BBBA6703 PUSH1 0xC0 SHL PUSH2 0x709B JUMP JUMPDEST JUMPDEST PUSH2 0x1DA1 PUSH8 0x6D215539C488B8B8 PUSH1 0xC0 SHL PUSH2 0x709B JUMP JUMPDEST DUP4 PUSH1 0x40 ADD CALLDATALOAD PUSH1 0xFE PUSH1 0x0 DUP7 PUSH1 0x0 ADD CALLDATALOAD DUP2 MSTORE PUSH1 0x20 ADD SWAP1 DUP2 MSTORE PUSH1 0x20 ADD PUSH1 0x0 KECCAK256 PUSH1 0x3 ADD PUSH1 0x0 DUP3 DUP3 SLOAD PUSH2 0x1DCF SWAP2 SWAP1 PUSH2 0x96E9 JUMP JUMPDEST SWAP3 POP POP DUP2 SWAP1 SSTORE POP PUSH2 0x1DEA PUSH8 0x97F79D7D9D5036D2 PUSH1 0xC0 SHL PUSH2 0x709B JUMP JUMPDEST DUP4 PUSH1 0x40 ADD CALLDATALOAD PUSH2 0x109 PUSH1 0x0 DUP7 PUSH1 0x0 ADD CALLDATALOAD DUP2 MSTORE PUSH1 0x20 ADD SWAP1 DUP2 MSTORE PUSH1 0x20 ADD PUSH1 0x0 KECCAK256 PUSH1 0x0 DUP7 PUSH1 0x20 ADD CALLDATALOAD DUP2 MSTORE PUSH1 0x20 ADD SWAP1 DUP2 MSTORE PUSH1 0x20 ADD PUSH1 0x0 KECCAK256 PUSH1 0x6 ADD PUSH1 0x0 DUP3 DUP3 SLOAD PUSH2 0x1E2E SWAP2 SWAP1 PUSH2 0x96E9 JUMP JUMPDEST SWAP3 POP POP DUP2 SWAP1 SSTORE POP PUSH2 0x1E49 PUSH8 0x6C15427F2BBFEB2A PUSH1 0xC0 SHL PUSH2 0x709B JUMP JUMPDEST PUSH1 0x1 PUSH2 0x10B DUP5 PUSH1 0x40 MLOAD PUSH2 0x1E5C SWAP2 SWAP1 PUSH2 0x95B8 JUMP JUMPDEST SWAP1 DUP2 MSTORE PUSH1 0x20 ADD PUSH1 0x40 MLOAD DUP1 SWAP2 SUB SWAP1 KECCAK256 PUSH1 0x0 PUSH2 0x100 EXP DUP2 SLOAD DUP2 PUSH1 0xFF MUL NOT AND SWAP1 DUP4 ISZERO ISZERO MUL OR SWAP1 SSTORE POP PUSH2 0x1E95 PUSH8 0x1A6F099E5546C852 PUSH1 0xC0 SHL PUSH2 0x709B JUMP JUMPDEST PUSH2 0x1EA9 PUSH8 0x70381F2C43385898 PUSH1 0xC0 SHL PUSH2 0x709B JUMP JUMPDEST PUSH32 0x51648125CE33694873381E0C4AD7F8EF183C08887969BEF55995F6FEB91F5673 CALLER DUP3 DUP7 PUSH1 0x0 ADD CALLDATALOAD DUP8 PUSH1 0x20 ADD CALLDATALOAD CALLVALUE PUSH2 0x109 PUSH1 0x0 DUP12 PUSH1 0x0 ADD CALLDATALOAD DUP2 MSTORE PUSH1 0x20 ADD SWAP1 DUP2 MSTORE PUSH1 0x20 ADD PUSH1 0x0 KECCAK256 PUSH1 0x0 DUP12 PUSH1 0x20 ADD CALLDATALOAD DUP2 MSTORE PUSH1 0x20 ADD SWAP1 DUP2 MSTORE PUSH1 0x20 ADD PUSH1 0x0 KECCAK256 PUSH1 0x3 ADD SLOAD DUP9 PUSH1 0x40 MLOAD PUSH2 0x1F1C SWAP8 SWAP7 SWAP6 SWAP5 SWAP4 SWAP3 SWAP2 SWAP1 PUSH2 0x9D1F JUMP JUMPDEST PUSH1 0x40 MLOAD DUP1 SWAP2 SUB SWAP1 LOG1 POP PUSH2 0x1F2D PUSH2 0x73C4 JUMP JUMPDEST POP POP POP JUMP JUMPDEST PUSH1 0x60 PUSH1 0x65 DUP1 SLOAD PUSH2 0x1F41 SWAP1 PUSH2 0x9910 JUMP JUMPDEST DUP1 PUSH1 0x1F ADD PUSH1 0x20 DUP1 SWAP2 DIV MUL PUSH1 0x20 ADD PUSH1 0x40 MLOAD SWAP1 DUP2 ADD PUSH1 0x40 MSTORE DUP1 SWAP3 SWAP2 SWAP1 DUP2 DUP2 MSTORE PUSH1 0x20 ADD DUP3 DUP1 SLOAD PUSH2 0x1F6D SWAP1 PUSH2 0x9910 JUMP JUMPDEST DUP1 ISZERO PUSH2 0x1FBA JUMPI DUP1 PUSH1 0x1F LT PUSH2 0x1F8F JUMPI PUSH2 0x100 DUP1 DUP4 SLOAD DIV MUL DUP4 MSTORE SWAP2 PUSH1 0x20 ADD SWAP2 PUSH2 0x1FBA JUMP JUMPDEST DUP3 ADD SWAP2 SWAP1 PUSH1 0x0 MSTORE PUSH1 0x20 PUSH1 0x0 KECCAK256 SWAP1 JUMPDEST DUP2 SLOAD DUP2 MSTORE SWAP1 PUSH1 0x1 ADD SWAP1 PUSH1 0x20 ADD DUP1 DUP4 GT PUSH2 0x1F9D JUMPI DUP3 SWAP1 SUB PUSH1 0x1F AND DUP3 ADD SWAP2 JUMPDEST POP POP POP POP POP SWAP1 POP SWAP1 JUMP JUMPDEST PUSH1 0x0 PUSH2 0x1FCF DUP3 PUSH2 0x73CE JUMP JUMPDEST PUSH1 0x69 PUSH1 0x0 DUP4 DUP2 MSTORE PUSH1 0x20 ADD SWAP1 DUP2 MSTORE PUSH1 0x20 ADD PUSH1 0x0 KECCAK256 PUSH1 0x0 SWAP1 SLOAD SWAP1 PUSH2 0x100 EXP SWAP1 DIV PUSH20 0xFFFFFFFFFFFFFFFFFFFFFFFFFFFFFFFFFFFFFFFF AND SWAP1 POP SWAP2 SWAP1 POP JUMP JUMPDEST PUSH1 0x0 PUSH2 0x2015 DUP3 PUSH2 0x3D45 JUMP JUMPDEST SWAP1 POP DUP1 PUSH20 0xFFFFFFFFFFFFFFFFFFFFFFFFFFFFFFFFFFFFFFFF AND DUP4 PUSH20 0xFFFFFFFFFFFFFFFFFFFFFFFFFFFFFFFFFFFFFFFF AND SUB PUSH2 0x2085 JUMPI PUSH1 0x40 MLOAD PUSH32 0x8C379A000000000000000000000000000000000000000000000000000000000 DUP2 MSTORE PUSH1 0x4 ADD PUSH2 0x207C SWAP1 PUSH2 0x9E1B JUMP JUMPDEST PUSH1 0x40 MLOAD DUP1 SWAP2 SUB SWAP1 REVERT JUMPDEST DUP1 PUSH20 0xFFFFFFFFFFFFFFFFFFFFFFFFFFFFFFFFFFFFFFFF AND PUSH2 0x20A4 PUSH2 0x7419 JUMP JUMPDEST PUSH20 0xFFFFFFFFFFFFFFFFFFFFFFFFFFFFFFFFFFFFFFFF AND EQ DUP1 PUSH2 0x20D3 JUMPI POP PUSH2 0x20D2 DUP2 PUSH2 0x20CD PUSH2 0x7419 JUMP JUMPDEST PUSH2 0x6B24 JUMP JUMPDEST JUMPDEST PUSH2 0x2112 JUMPI PUSH1 0x40 MLOAD PUSH32 0x8C379A000000000000000000000000000000000000000000000000000000000 DUP2 MSTORE PUSH1 0x4 ADD PUSH2 0x2109 SWAP1 PUSH2 0x9EAD JUMP JUMPDEST PUSH1 0x40 MLOAD DUP1 SWAP2 SUB SWAP1 REVERT JUMPDEST PUSH2 0x211C DUP4 DUP4 PUSH2 0x7421 JUMP JUMPDEST POP POP POP JUMP JUMPDEST PUSH2 0x10C SLOAD DUP2 JUMP JUMPDEST PUSH2 0x213C PUSH8 0x321A0CF1ED7A7FFC PUSH1 0xC0 SHL PUSH2 0x709B JUMP JUMPDEST PUSH2 0x2144 PUSH2 0x7186 JUMP JUMPDEST PUSH2 0x2158 PUSH8 0xF3ED626055D35D92 PUSH1 0xC0 SHL PUSH2 0x709B JUMP JUMPDEST PUSH2 0x216C PUSH8 0xADA45B6DD1A1E4D8 PUSH1 0xC0 SHL PUSH2 0x709B JUMP JUMPDEST PUSH2 0x2180 PUSH8 0x527969BC7E5EFDD0 PUSH1 0xC0 SHL PUSH2 0x709B JUMP JUMPDEST PUSH2 0x2194 PUSH8 0x5AD3B35A361B55D1 PUSH1 0xC0 SHL PUSH2 0x709B JUMP JUMPDEST PUSH2 0x21A8 PUSH8 0x998AFB64B21FA8B0 PUSH1 0xC0 SHL PUSH2 0x709B JUMP JUMPDEST PUSH1 0xFF PUSH1 0x0 PUSH1 0x5 DUP2 MSTORE PUSH1 0x20 ADD SWAP1 DUP2 MSTORE PUSH1 0x20 ADD PUSH1 0x0 KECCAK256 PUSH1 0x0 SWAP1 SLOAD SWAP1 PUSH2 0x100 EXP SWAP1 DIV PUSH1 0xFF AND DUP1 ISZERO PUSH2 0x2212 JUMPI POP PUSH1 0xFE PUSH1 0x0 PUSH1 0x5 DUP2 MSTORE PUSH1 0x20 ADD SWAP1 DUP2 MSTORE PUSH1 0x20 ADD PUSH1 0x0 KECCAK256 PUSH1 0x0 ADD SLOAD DUP3 DUP3 SWAP1 POP PUSH1 0xFE PUSH1 0x0 PUSH1 0x5 DUP2 MSTORE PUSH1 0x20 ADD SWAP1 DUP2 MSTORE PUSH1 0x20 ADD PUSH1 0x0 KECCAK256 PUSH1 0x1 ADD SLOAD PUSH2 0x220F SWAP2 SWAP1 PUSH2 0x96E9 JUMP JUMPDEST GT ISZERO JUMPDEST DUP1 ISZERO PUSH2 0x225A JUMPI POP PUSH1 0xFE PUSH1 0x0 PUSH1 0x5 DUP2 MSTORE PUSH1 0x20 ADD SWAP1 DUP2 MSTORE PUSH1 0x20 ADD PUSH1 0x0 KECCAK256 PUSH1 0x2 ADD SLOAD DUP3 DUP3 SWAP1 POP PUSH1 0xFE PUSH1 0x0 PUSH1 0x5 DUP2 MSTORE PUSH1 0x20 ADD SWAP1 DUP2 MSTORE PUSH1 0x20 ADD PUSH1 0x0 KECCAK256 PUSH1 0x3 ADD SLOAD PUSH2 0x2257 SWAP2 SWAP1 PUSH2 0x96E9 JUMP JUMPDEST GT ISZERO JUMPDEST PUSH2 0x2299 JUMPI PUSH1 0x40 MLOAD PUSH32 0x8C379A000000000000000000000000000000000000000000000000000000000 DUP2 MSTORE PUSH1 0x4 ADD PUSH2 0x2290 SWAP1 PUSH2 0x9F3F JUMP JUMPDEST PUSH1 0x40 MLOAD DUP1 SWAP2 SUB SWAP1 REVERT JUMPDEST PUSH2 0x22AD PUSH8 0x65688371C1088929 PUSH1 0xC0 SHL PUSH2 0x709B JUMP JUMPDEST PUSH2 0x22C1 PUSH8 0xCA7857776C560B1F PUSH1 0xC0 SHL PUSH2 0x709B JUMP JUMPDEST PUSH2 0x22D5 PUSH8 0x5C6A75B99F031119 PUSH1 0xC0 SHL PUSH2 0x709B JUMP JUMPDEST PUSH1 0x0 DUP3 DUP3 SWAP1 POP PUSH8 0xFFFFFFFFFFFFFFFF DUP2 GT ISZERO PUSH2 0x22F4 JUMPI PUSH2 0x22F3 PUSH2 0x87D2 JUMP JUMPDEST JUMPDEST PUSH1 0x40 MLOAD SWAP1 DUP1 DUP3 MSTORE DUP1 PUSH1 0x20 MUL PUSH1 0x20 ADD DUP3 ADD PUSH1 0x40 MSTORE DUP1 ISZERO PUSH2 0x2322 JUMPI DUP2 PUSH1 0x20 ADD PUSH1 0x20 DUP3 MUL DUP1 CALLDATASIZE DUP4 CALLDATACOPY DUP1 DUP3 ADD SWAP2 POP POP SWAP1 POP JUMPDEST POP SWAP1 POP PUSH2 0x2339 PUSH8 0x6FAF084B36B98A30 PUSH1 0xC0 SHL PUSH2 0x709B JUMP JUMPDEST PUSH2 0x234D PUSH8 0x99A8B1E878CF8110 PUSH1 0xC0 SHL PUSH2 0x709B JUMP JUMPDEST PUSH1 0x0 DUP4 DUP4 SWAP1 POP PUSH8 0xFFFFFFFFFFFFFFFF DUP2 GT ISZERO PUSH2 0x236C JUMPI PUSH2 0x236B PUSH2 0x87D2 JUMP JUMPDEST JUMPDEST PUSH1 0x40 MLOAD SWAP1 DUP1 DUP3 MSTORE DUP1 PUSH1 0x20 MUL PUSH1 0x20 ADD DUP3 ADD PUSH1 0x40 MSTORE DUP1 ISZERO PUSH2 0x239A JUMPI DUP2 PUSH1 0x20 ADD PUSH1 0x20 DUP3 MUL DUP1 CALLDATASIZE DUP4 CALLDATACOPY DUP1 DUP3 ADD SWAP2 POP POP SWAP1 POP JUMPDEST POP SWAP1 POP PUSH2 0x23B1 PUSH8 0xCC4E5ACF460613F3 PUSH1 0xC0 SHL PUSH2 0x709B JUMP JUMPDEST PUSH2 0x23C5 PUSH8 0x17BFB4B4423C0EDC PUSH1 0xC0 SHL PUSH2 0x709B JUMP JUMPDEST PUSH1 0x0 JUMPDEST DUP5 DUP5 SWAP1 POP DUP2 LT ISZERO PUSH2 0x29F2 JUMPI PUSH2 0x23E7 PUSH8 0xA009B4D9CF689E32 PUSH1 0xC0 SHL PUSH2 0x709B JUMP JUMPDEST PUSH2 0x23FB PUSH8 0x6EF1C3B58C008CE9 PUSH1 0xC0 SHL PUSH2 0x709B JUMP JUMPDEST PUSH2 0x240F PUSH8 0xC285E83C2B093B55 PUSH1 0xC0 SHL PUSH2 0x709B JUMP JUMPDEST CALLER PUSH20 0xFFFFFFFFFFFFFFFFFFFFFFFFFFFFFFFFFFFFFFFF AND PUSH2 0x100 PUSH1 0x0 SWAP1 SLOAD SWAP1 PUSH2 0x100 EXP SWAP1 DIV PUSH20 0xFFFFFFFFFFFFFFFFFFFFFFFFFFFFFFFFFFFFFFFF AND PUSH20 0xFFFFFFFFFFFFFFFFFFFFFFFFFFFFFFFFFFFFFFFF AND PUSH4 0x6352211E DUP8 DUP8 DUP6 DUP2 DUP2 LT PUSH2 0x2478 JUMPI PUSH2 0x2477 PUSH2 0x94CB JUMP JUMPDEST JUMPDEST SWAP1 POP PUSH1 0x20 MUL ADD CALLDATALOAD PUSH1 0x40 MLOAD DUP3 PUSH4 0xFFFFFFFF AND PUSH1 0xE0 SHL DUP2 MSTORE PUSH1 0x4 ADD PUSH2 0x249B SWAP2 SWAP1 PUSH2 0x8B3D JUMP JUMPDEST PUSH1 0x20 PUSH1 0x40 MLOAD DUP1 DUP4 SUB DUP2 DUP7 GAS STATICCALL ISZERO DUP1 ISZERO PUSH2 0x24B8 JUMPI RETURNDATASIZE PUSH1 0x0 DUP1 RETURNDATACOPY RETURNDATASIZE PUSH1 0x0 REVERT JUMPDEST POP POP POP POP PUSH1 0x40 MLOAD RETURNDATASIZE PUSH1 0x1F NOT PUSH1 0x1F DUP3 ADD AND DUP3 ADD DUP1 PUSH1 0x40 MSTORE POP DUP2 ADD SWAP1 PUSH2 0x24DC SWAP2 SWAP1 PUSH2 0x9F74 JUMP JUMPDEST PUSH20 0xFFFFFFFFFFFFFFFFFFFFFFFFFFFFFFFFFFFFFFFF AND EQ PUSH2 0x2532 JUMPI PUSH1 0x40 MLOAD PUSH32 0x8C379A000000000000000000000000000000000000000000000000000000000 DUP2 MSTORE PUSH1 0x4 ADD PUSH2 0x2529 SWAP1 PUSH2 0x9FED JUMP JUMPDEST PUSH1 0x40 MLOAD DUP1 SWAP2 SUB SWAP1 REVERT JUMPDEST PUSH2 0x2546 PUSH8 0x83D681C1F8A6452A PUSH1 0xC0 SHL PUSH2 0x709B JUMP JUMPDEST PUSH2 0x255A PUSH8 0x1CD1DFAA54F61D27 PUSH1 0xC0 SHL PUSH2 0x709B JUMP JUMPDEST PUSH2 0x256E PUSH8 0x3869047C35C85E6E PUSH1 0xC0 SHL PUSH2 0x709B JUMP JUMPDEST PUSH2 0x100 PUSH1 0x0 SWAP1 SLOAD SWAP1 PUSH2 0x100 EXP SWAP1 DIV PUSH20 0xFFFFFFFFFFFFFFFFFFFFFFFFFFFFFFFFFFFFFFFF AND PUSH20 0xFFFFFFFFFFFFFFFFFFFFFFFFFFFFFFFFFFFFFFFF AND PUSH4 0x23B872DD CALLER ADDRESS DUP9 DUP9 DUP7 DUP2 DUP2 LT PUSH2 0x25C2 JUMPI PUSH2 0x25C1 PUSH2 0x94CB JUMP JUMPDEST JUMPDEST SWAP1 POP PUSH1 0x20 MUL ADD CALLDATALOAD PUSH1 0x40 MLOAD DUP5 PUSH4 0xFFFFFFFF AND PUSH1 0xE0 SHL DUP2 MSTORE PUSH1 0x4 ADD PUSH2 0x25E7 SWAP4 SWAP3 SWAP2 SWAP1 PUSH2 0x9BB5 JUMP JUMPDEST PUSH1 0x0 PUSH1 0x40 MLOAD DUP1 DUP4 SUB DUP2 PUSH1 0x0 DUP8 DUP1 EXTCODESIZE ISZERO DUP1 ISZERO PUSH2 0x2601 JUMPI PUSH1 0x0 DUP1 REVERT JUMPDEST POP GAS CALL ISZERO DUP1 ISZERO PUSH2 0x2615 JUMPI RETURNDATASIZE PUSH1 0x0 DUP1 RETURNDATACOPY RETURNDATASIZE PUSH1 0x0 REVERT JUMPDEST POP POP POP POP PUSH2 0x262D PUSH8 0xBCF57C3DC7B86959 PUSH1 0xC0 SHL PUSH2 0x709B JUMP JUMPDEST PUSH2 0x2641 PUSH8 0x9F04E1DDD0387ADC PUSH1 0xC0 SHL PUSH2 0x709B JUMP JUMPDEST PUSH2 0x100 PUSH1 0x0 SWAP1 SLOAD SWAP1 PUSH2 0x100 EXP SWAP1 DIV PUSH20 0xFFFFFFFFFFFFFFFFFFFFFFFFFFFFFFFFFFFFFFFF AND PUSH20 0xFFFFFFFFFFFFFFFFFFFFFFFFFFFFFFFFFFFFFFFF AND PUSH4 0x95EA7B3 PUSH2 0xDEAD DUP8 DUP8 DUP6 DUP2 DUP2 LT PUSH2 0x2696 JUMPI PUSH2 0x2695 PUSH2 0x94CB JUMP JUMPDEST JUMPDEST SWAP1 POP PUSH1 0x20 MUL ADD CALLDATALOAD PUSH1 0x40 MLOAD DUP4 PUSH4 0xFFFFFFFF AND PUSH1 0xE0 SHL DUP2 MSTORE PUSH1 0x4 ADD PUSH2 0x26BA SWAP3 SWAP2 SWAP1 PUSH2 0x9BEC JUMP JUMPDEST PUSH1 0x0 PUSH1 0x40 MLOAD DUP1 DUP4 SUB DUP2 PUSH1 0x0 DUP8 DUP1 EXTCODESIZE ISZERO DUP1 ISZERO PUSH2 0x26D4 JUMPI PUSH1 0x0 DUP1 REVERT JUMPDEST POP GAS CALL ISZERO DUP1 ISZERO PUSH2 0x26E8 JUMPI RETURNDATASIZE PUSH1 0x0 DUP1 RETURNDATACOPY RETURNDATASIZE PUSH1 0x0 REVERT JUMPDEST POP POP POP POP PUSH2 0x2700 PUSH8 0xF69A248AD6F18A7D PUSH1 0xC0 SHL PUSH2 0x709B JUMP JUMPDEST PUSH2 0x2714 PUSH8 0xEAB13C6061E00ADC PUSH1 0xC0 SHL PUSH2 0x709B JUMP JUMPDEST PUSH2 0x100 PUSH1 0x0 SWAP1 SLOAD SWAP1 PUSH2 0x100 EXP SWAP1 DIV PUSH20 0xFFFFFFFFFFFFFFFFFFFFFFFFFFFFFFFFFFFFFFFF AND PUSH20 0xFFFFFFFFFFFFFFFFFFFFFFFFFFFFFFFFFFFFFFFF AND PUSH4 0x23B872DD ADDRESS PUSH2 0xDEAD DUP9 DUP9 DUP7 DUP2 DUP2 LT PUSH2 0x276A JUMPI PUSH2 0x2769 PUSH2 0x94CB JUMP JUMPDEST JUMPDEST SWAP1 POP PUSH1 0x20 MUL ADD CALLDATALOAD PUSH1 0x40 MLOAD DUP5 PUSH4 0xFFFFFFFF AND PUSH1 0xE0 SHL DUP2 MSTORE PUSH1 0x4 ADD PUSH2 0x278F SWAP4 SWAP3 SWAP2 SWAP1 PUSH2 0x9BB5 JUMP JUMPDEST PUSH1 0x0 PUSH1 0x40 MLOAD DUP1 DUP4 SUB DUP2 PUSH1 0x0 DUP8 DUP1 EXTCODESIZE ISZERO DUP1 ISZERO PUSH2 0x27A9 JUMPI PUSH1 0x0 DUP1 REVERT JUMPDEST POP GAS CALL ISZERO DUP1 ISZERO PUSH2 0x27BD JUMPI RETURNDATASIZE PUSH1 0x0 DUP1 RETURNDATACOPY RETURNDATASIZE PUSH1 0x0 REVERT JUMPDEST POP POP POP POP PUSH2 0x27D5 PUSH8 0x4667154DBE3B8ECA PUSH1 0xC0 SHL PUSH2 0x709B JUMP JUMPDEST PUSH2 0x27E9 PUSH8 0xAF3C08FE1AC3A9F2 PUSH1 0xC0 SHL PUSH2 0x709B JUMP JUMPDEST PUSH1 0x0 PUSH2 0x101 PUSH1 0x0 SWAP1 SLOAD SWAP1 PUSH2 0x100 EXP SWAP1 DIV PUSH20 0xFFFFFFFFFFFFFFFFFFFFFFFFFFFFFFFFFFFFFFFF AND PUSH20 0xFFFFFFFFFFFFFFFFFFFFFFFFFFFFFFFFFFFFFFFF AND PUSH4 0x58F5F8BE CALLER PUSH1 0x40 MLOAD DUP3 PUSH4 0xFFFFFFFF AND PUSH1 0xE0 SHL DUP2 MSTORE PUSH1 0x4 ADD PUSH2 0x2847 SWAP2 SWAP1 PUSH2 0x8AA7 JUMP JUMPDEST PUSH1 0x20 PUSH1 0x40 MLOAD DUP1 DUP4 SUB DUP2 PUSH1 0x0 DUP8 GAS CALL ISZERO DUP1 ISZERO PUSH2 0x2866 JUMPI RETURNDATASIZE PUSH1 0x0 DUP1 RETURNDATACOPY RETURNDATASIZE PUSH1 0x0 REVERT JUMPDEST POP POP POP POP PUSH1 0x40 MLOAD RETURNDATASIZE PUSH1 0x1F NOT PUSH1 0x1F DUP3 ADD AND DUP3 ADD DUP1 PUSH1 0x40 MSTORE POP DUP2 ADD SWAP1 PUSH2 0x288A SWAP2 SWAP1 PUSH2 0xA022 JUMP JUMPDEST SWAP1 POP PUSH2 0x28A0 PUSH8 0x99B79154F5B1DD30 PUSH1 0xC0 SHL PUSH2 0x709B JUMP JUMPDEST PUSH1 0x1 PUSH1 0xFB PUSH1 0x0 DUP3 DUP3 SLOAD PUSH2 0x28B3 SWAP2 SWAP1 PUSH2 0x96E9 JUMP JUMPDEST SWAP3 POP POP DUP2 SWAP1 SSTORE POP PUSH2 0x28CE PUSH8 0xF7BE70C31818CA95 PUSH1 0xC0 SHL PUSH2 0x709B JUMP JUMPDEST PUSH1 0xFB SLOAD DUP5 DUP4 DUP2 MLOAD DUP2 LT PUSH2 0x28E4 JUMPI PUSH2 0x28E3 PUSH2 0x94CB JUMP JUMPDEST JUMPDEST PUSH1 0x20 MUL PUSH1 0x20 ADD ADD DUP2 DUP2 MSTORE POP POP PUSH2 0x2904 PUSH8 0xAD9BCBFC0C66AD21 PUSH1 0xC0 SHL PUSH2 0x709B JUMP JUMPDEST DUP1 DUP4 DUP4 DUP2 MLOAD DUP2 LT PUSH2 0x2918 JUMPI PUSH2 0x2917 PUSH2 0x94CB JUMP JUMPDEST JUMPDEST PUSH1 0x20 MUL PUSH1 0x20 ADD ADD DUP2 DUP2 MSTORE POP POP PUSH2 0x2938 PUSH8 0x758C3816832D6B9A PUSH1 0xC0 SHL PUSH2 0x709B JUMP JUMPDEST PUSH2 0x294C PUSH8 0x2CC854FCD8896162 PUSH1 0xC0 SHL PUSH2 0x709B JUMP JUMPDEST PUSH2 0x2958 CALLER PUSH1 0xFB SLOAD PUSH2 0x74DA JUMP JUMPDEST PUSH2 0x296C PUSH8 0x2450CF20A473EE46 PUSH1 0xC0 SHL PUSH2 0x709B JUMP JUMPDEST PUSH1 0x1 PUSH1 0xFE PUSH1 0x0 PUSH1 0x5 DUP2 MSTORE PUSH1 0x20 ADD SWAP1 DUP2 MSTORE PUSH1 0x20 ADD PUSH1 0x0 KECCAK256 PUSH1 0x3 ADD PUSH1 0x0 DUP3 DUP3 SLOAD PUSH2 0x2994 SWAP2 SWAP1 PUSH2 0x96E9 JUMP JUMPDEST SWAP3 POP POP DUP2 SWAP1 SSTORE POP PUSH2 0x29AF PUSH8 0xE0A968DA57781135 PUSH1 0xC0 SHL PUSH2 0x709B JUMP JUMPDEST PUSH1 0x1 PUSH1 0xFE PUSH1 0x0 PUSH1 0x5 DUP2 MSTORE PUSH1 0x20 ADD SWAP1 DUP2 MSTORE PUSH1 0x20 ADD PUSH1 0x0 KECCAK256 PUSH1 0x1 ADD PUSH1 0x0 DUP3 DUP3 SLOAD PUSH2 0x29D7 SWAP2 SWAP1 PUSH2 0x96E9 JUMP JUMPDEST SWAP3 POP POP DUP2 SWAP1 SSTORE POP POP DUP1 DUP1 PUSH2 0x29EA SWAP1 PUSH2 0x9529 JUMP JUMPDEST SWAP2 POP POP PUSH2 0x23C8 JUMP JUMPDEST POP PUSH2 0x2A07 PUSH8 0xC85E3E241708CF1 PUSH1 0xC0 SHL PUSH2 0x709B JUMP JUMPDEST PUSH2 0x2A1B PUSH8 0xFB3910FEEB322AA7 PUSH1 0xC0 SHL PUSH2 0x709B JUMP JUMPDEST PUSH32 0xBED2EA4CC61A5F3D97BF656E6A36DA515575612249452E8DBF3D972B675E3143 CALLER PUSH1 0x5 DUP4 DUP6 DUP9 DUP9 PUSH1 0x40 MLOAD PUSH2 0x2A55 SWAP7 SWAP6 SWAP5 SWAP4 SWAP3 SWAP2 SWAP1 PUSH2 0xA0F4 JUMP JUMPDEST PUSH1 0x40 MLOAD DUP1 SWAP2 SUB SWAP1 LOG1 POP POP PUSH2 0x2A67 PUSH2 0x73C4 JUMP JUMPDEST POP POP JUMP JUMPDEST PUSH2 0x2A7F PUSH8 0x6BBD491BDCD03C13 PUSH1 0xC0 SHL PUSH2 0x709B JUMP JUMPDEST PUSH2 0x2A87 PUSH2 0x7186 JUMP JUMPDEST PUSH2 0x2A9B PUSH8 0xDCE7C4FB9ABA036E PUSH1 0xC0 SHL PUSH2 0x709B JUMP JUMPDEST PUSH2 0x2AAF PUSH8 0x79E9FE738977589B PUSH1 0xC0 SHL PUSH2 0x709B JUMP JUMPDEST PUSH2 0x2AC3 PUSH8 0x7C8B903548CFB18F PUSH1 0xC0 SHL PUSH2 0x709B JUMP JUMPDEST PUSH2 0x2AD7 PUSH8 0xEE1AE0BF9B4C07C0 PUSH1 0xC0 SHL PUSH2 0x709B JUMP JUMPDEST PUSH2 0x2AEB PUSH8 0xEA95319CC496DF35 PUSH1 0xC0 SHL PUSH2 0x709B JUMP JUMPDEST PUSH1 0xFF PUSH1 0x0 PUSH1 0x4 DUP2 MSTORE PUSH1 0x20 ADD SWAP1 DUP2 MSTORE PUSH1 0x20 ADD PUSH1 0x0 KECCAK256 PUSH1 0x0 SWAP1 SLOAD SWAP1 PUSH2 0x100 EXP SWAP1 DIV PUSH1 0xFF AND DUP1 ISZERO PUSH2 0x2B46 JUMPI POP PUSH1 0xFE PUSH1 0x0 PUSH1 0x4 DUP2 MSTORE PUSH1 0x20 ADD SWAP1 DUP2 MSTORE PUSH1 0x20 ADD PUSH1 0x0 KECCAK256 PUSH1 0x0 ADD SLOAD PUSH1 0xFE PUSH1 0x0 PUSH1 0x4 DUP2 MSTORE PUSH1 0x20 ADD SWAP1 DUP2 MSTORE PUSH1 0x20 ADD PUSH1 0x0 KECCAK256 PUSH1 0x1 ADD SLOAD LT JUMPDEST DUP1 ISZERO PUSH2 0x2B7F JUMPI POP PUSH1 0xFE PUSH1 0x0 PUSH1 0x4 DUP2 MSTORE PUSH1 0x20 ADD SWAP1 DUP2 MSTORE PUSH1 0x20 ADD PUSH1 0x0 KECCAK256 PUSH1 0x2 ADD SLOAD PUSH1 0xFE PUSH1 0x0 PUSH1 0x4 DUP2 MSTORE PUSH1 0x20 ADD SWAP1 DUP2 MSTORE PUSH1 0x20 ADD PUSH1 0x0 KECCAK256 PUSH1 0x3 ADD SLOAD LT JUMPDEST PUSH2 0x2BBE JUMPI PUSH1 0x40 MLOAD PUSH32 0x8C379A000000000000000000000000000000000000000000000000000000000 DUP2 MSTORE PUSH1 0x4 ADD PUSH2 0x2BB5 SWAP1 PUSH2 0x9F3F JUMP JUMPDEST PUSH1 0x40 MLOAD DUP1 SWAP2 SUB SWAP1 REVERT JUMPDEST PUSH2 0x2BD2 PUSH8 0x47FCE5F84ED719D4 PUSH1 0xC0 SHL PUSH2 0x709B JUMP JUMPDEST PUSH2 0x2BE6 PUSH8 0x99C24FD0FDB73C5B PUSH1 0xC0 SHL PUSH2 0x709B JUMP JUMPDEST PUSH2 0x2BFA PUSH8 0x7B6F25BFEFA1D20A PUSH1 0xC0 SHL PUSH2 0x709B JUMP JUMPDEST PUSH2 0x2C0E PUSH8 0x45F8C2AEFD852830 PUSH1 0xC0 SHL PUSH2 0x709B JUMP JUMPDEST PUSH2 0x104 PUSH1 0x0 CALLER PUSH20 0xFFFFFFFFFFFFFFFFFFFFFFFFFFFFFFFFFFFFFFFF AND PUSH20 0xFFFFFFFFFFFFFFFFFFFFFFFFFFFFFFFFFFFFFFFF AND DUP2 MSTORE PUSH1 0x20 ADD SWAP1 DUP2 MSTORE PUSH1 0x20 ADD PUSH1 0x0 KECCAK256 PUSH1 0x0 SWAP1 SLOAD SWAP1 PUSH2 0x100 EXP SWAP1 DIV PUSH1 0xFF AND PUSH2 0x2C9B JUMPI PUSH1 0x40 MLOAD PUSH32 0x8C379A000000000000000000000000000000000000000000000000000000000 DUP2 MSTORE PUSH1 0x4 ADD PUSH2 0x2C92 SWAP1 PUSH2 0xA1AA JUMP JUMPDEST PUSH1 0x40 MLOAD DUP1 SWAP2 SUB SWAP1 REVERT JUMPDEST PUSH2 0x2CAF PUSH8 0xF69D805B105FC8EA PUSH1 0xC0 SHL PUSH2 0x709B JUMP JUMPDEST PUSH2 0x2CC3 PUSH8 0x56C8430E79919CD2 PUSH1 0xC0 SHL PUSH2 0x709B JUMP JUMPDEST PUSH2 0x2CD7 PUSH8 0xD89A8ABAFF64C44 PUSH1 0xC0 SHL PUSH2 0x709B JUMP JUMPDEST PUSH1 0x0 PUSH2 0x101 PUSH1 0x0 SWAP1 SLOAD SWAP1 PUSH2 0x100 EXP SWAP1 DIV PUSH20 0xFFFFFFFFFFFFFFFFFFFFFFFFFFFFFFFFFFFFFFFF AND PUSH20 0xFFFFFFFFFFFFFFFFFFFFFFFFFFFFFFFFFFFFFFFF AND PUSH4 0x58F5F8BE CALLER PUSH1 0x40 MLOAD DUP3 PUSH4 0xFFFFFFFF AND PUSH1 0xE0 SHL DUP2 MSTORE PUSH1 0x4 ADD PUSH2 0x2D35 SWAP2 SWAP1 PUSH2 0x8AA7 JUMP JUMPDEST PUSH1 0x20 PUSH1 0x40 MLOAD DUP1 DUP4 SUB DUP2 PUSH1 0x0 DUP8 GAS CALL ISZERO DUP1 ISZERO PUSH2 0x2D54 JUMPI RETURNDATASIZE PUSH1 0x0 DUP1 RETURNDATACOPY RETURNDATASIZE PUSH1 0x0 REVERT JUMPDEST POP POP POP POP PUSH1 0x40 MLOAD RETURNDATASIZE PUSH1 0x1F NOT PUSH1 0x1F DUP3 ADD AND DUP3 ADD DUP1 PUSH1 0x40 MSTORE POP DUP2 ADD SWAP1 PUSH2 0x2D78 SWAP2 SWAP1 PUSH2 0xA022 JUMP JUMPDEST SWAP1 POP PUSH2 0x2D8E PUSH8 0x431140C7A51D30DE PUSH1 0xC0 SHL PUSH2 0x709B JUMP JUMPDEST PUSH1 0x1 PUSH1 0xFE PUSH1 0x0 PUSH1 0x4 DUP2 MSTORE PUSH1 0x20 ADD SWAP1 DUP2 MSTORE PUSH1 0x20 ADD PUSH1 0x0 KECCAK256 PUSH1 0x3 ADD PUSH1 0x0 DUP3 DUP3 SLOAD PUSH2 0x2DB6 SWAP2 SWAP1 PUSH2 0x96E9 JUMP JUMPDEST SWAP3 POP POP DUP2 SWAP1 SSTORE POP PUSH2 0x2DD1 PUSH8 0x334ECFAB217B7A67 PUSH1 0xC0 SHL PUSH2 0x709B JUMP JUMPDEST PUSH1 0x1 PUSH1 0xFB PUSH1 0x0 DUP3 DUP3 SLOAD PUSH2 0x2DE4 SWAP2 SWAP1 PUSH2 0x96E9 JUMP JUMPDEST SWAP3 POP POP DUP2 SWAP1 SSTORE POP PUSH2 0x2DFF PUSH8 0xB56C56E7E205B6F0 PUSH1 0xC0 SHL PUSH2 0x709B JUMP JUMPDEST PUSH2 0x2E13 PUSH8 0xC7536AC70FC43519 PUSH1 0xC0 SHL PUSH2 0x709B JUMP JUMPDEST PUSH2 0x2E1F CALLER PUSH1 0xFB SLOAD PUSH2 0x74DA JUMP JUMPDEST PUSH2 0x2E33 PUSH8 0x7BD9D4DF689B14FE PUSH1 0xC0 SHL PUSH2 0x709B JUMP JUMPDEST PUSH1 0x1 PUSH1 0xFE PUSH1 0x0 PUSH1 0x4 DUP2 MSTORE PUSH1 0x20 ADD SWAP1 DUP2 MSTORE PUSH1 0x20 ADD PUSH1 0x0 KECCAK256 PUSH1 0x1 ADD PUSH1 0x0 DUP3 DUP3 SLOAD PUSH2 0x2E5B SWAP2 SWAP1 PUSH2 0x96E9 JUMP JUMPDEST SWAP3 POP POP DUP2 SWAP1 SSTORE POP PUSH2 0x2E76 PUSH8 0x3F36C1C59F6C2B13 PUSH1 0xC0 SHL PUSH2 0x709B JUMP JUMPDEST PUSH1 0x0 PUSH2 0x104 PUSH1 0x0 CALLER PUSH20 0xFFFFFFFFFFFFFFFFFFFFFFFFFFFFFFFFFFFFFFFF AND PUSH20 0xFFFFFFFFFFFFFFFFFFFFFFFFFFFFFFFFFFFFFFFF AND DUP2 MSTORE PUSH1 0x20 ADD SWAP1 DUP2 MSTORE PUSH1 0x20 ADD PUSH1 0x0 KECCAK256 PUSH1 0x0 PUSH2 0x100 EXP DUP2 SLOAD DUP2 PUSH1 0xFF MUL NOT AND SWAP1 DUP4 ISZERO ISZERO MUL OR SWAP1 SSTORE POP PUSH2 0x2EE3 PUSH8 0xE14B33FB157A5FFD PUSH1 0xC0 SHL PUSH2 0x709B JUMP JUMPDEST PUSH2 0x2EF7 PUSH8 0x75E61F6BCD476AE6 PUSH1 0xC0 SHL PUSH2 0x709B JUMP JUMPDEST PUSH32 0x4523983E24616F78FF12FF843803430D32341B84760BD1FFF8BC9B9DEF15389 CALLER PUSH1 0x4 DUP4 PUSH1 0xFB SLOAD PUSH1 0x40 MLOAD PUSH2 0x2F2F SWAP5 SWAP4 SWAP3 SWAP2 SWAP1 PUSH2 0xA205 JUMP JUMPDEST PUSH1 0x40 MLOAD DUP1 SWAP2 SUB SWAP1 LOG1 POP PUSH2 0x2F40 PUSH2 0x73C4 JUMP JUMPDEST JUMP JUMPDEST PUSH2 0x2F56 PUSH8 0xC3AF10F14808035A PUSH1 0xC0 SHL PUSH2 0x709B JUMP JUMPDEST PUSH2 0x2F5E PUSH2 0x709E JUMP JUMPDEST PUSH2 0x2F72 PUSH8 0x24F79B595F53F48E PUSH1 0xC0 SHL PUSH2 0x709B JUMP JUMPDEST PUSH2 0x2F86 PUSH8 0x842DA76B91D277A4 PUSH1 0xC0 SHL PUSH2 0x709B JUMP JUMPDEST PUSH2 0x2F9A PUSH8 0xCCC4674CCB773F4 PUSH1 0xC0 SHL PUSH2 0x709B JUMP JUMPDEST PUSH2 0x2FAE PUSH8 0x471B5668BC279B9A PUSH1 0xC0 SHL PUSH2 0x709B JUMP JUMPDEST PUSH1 0x0 JUMPDEST DUP4 DUP4 SWAP1 POP DUP2 LT ISZERO PUSH2 0x3062 JUMPI PUSH2 0x2FD0 PUSH8 0xEB70D690540660F7 PUSH1 0xC0 SHL PUSH2 0x709B JUMP JUMPDEST DUP2 PUSH2 0x103 PUSH1 0x0 DUP7 DUP7 DUP6 DUP2 DUP2 LT PUSH2 0x2FE9 JUMPI PUSH2 0x2FE8 PUSH2 0x94CB JUMP JUMPDEST JUMPDEST SWAP1 POP PUSH1 0x20 MUL ADD PUSH1 0x20 DUP2 ADD SWAP1 PUSH2 0x2FFE SWAP2 SWAP1 PUSH2 0x8C5B JUMP JUMPDEST PUSH20 0xFFFFFFFFFFFFFFFFFFFFFFFFFFFFFFFFFFFFFFFF AND PUSH20 0xFFFFFFFFFFFFFFFFFFFFFFFFFFFFFFFFFFFFFFFF AND DUP2 MSTORE PUSH1 0x20 ADD SWAP1 DUP2 MSTORE PUSH1 0x20 ADD PUSH1 0x0 KECCAK256 PUSH1 0x0 PUSH2 0x100 EXP DUP2 SLOAD DUP2 PUSH1 0xFF MUL NOT AND SWAP1 DUP4 ISZERO ISZERO MUL OR SWAP1 SSTORE POP DUP1 DUP1 PUSH2 0x305A SWAP1 PUSH2 0x9529 JUMP JUMPDEST SWAP2 POP POP PUSH2 0x2FB1 JUMP JUMPDEST POP PUSH2 0x3077 PUSH8 0x1E14F5B8BD91247C PUSH1 0xC0 SHL PUSH2 0x709B JUMP JUMPDEST PUSH2 0x308B PUSH8 0x1FCD5347AB0C67B2 PUSH1 0xC0 SHL PUSH2 0x709B JUMP JUMPDEST PUSH32 0x4C8368746583E40765156B70AA8A680BEB42868327860B5D1FD1BD4A5A0D2A69 DUP4 DUP4 DUP4 PUSH1 0x40 MLOAD PUSH2 0x30BE SWAP4 SWAP3 SWAP2 SWAP1 PUSH2 0xA30D JUMP JUMPDEST PUSH1 0x40 MLOAD DUP1 SWAP2 SUB SWAP1 LOG1 POP POP POP JUMP JUMPDEST PUSH2 0x102 PUSH1 0x20 MSTORE DUP1 PUSH1 0x0 MSTORE PUSH1 0x40 PUSH1 0x0 KECCAK256 PUSH1 0x0 SWAP2 POP SLOAD SWAP1 PUSH2 0x100 EXP SWAP1 DIV PUSH1 0xFF AND DUP2 JUMP JUMPDEST PUSH2 0x109 PUSH1 0x20 MSTORE DUP2 PUSH1 0x0 MSTORE PUSH1 0x40 PUSH1 0x0 KECCAK256 PUSH1 0x20 MSTORE DUP1 PUSH1 0x0 MSTORE PUSH1 0x40 PUSH1 0x0 KECCAK256 PUSH1 0x0 SWAP2 POP SWAP2 POP POP DUP1 PUSH1 0x0 ADD SLOAD SWAP1 DUP1 PUSH1 0x1 ADD SLOAD SWAP1 DUP1 PUSH1 0x2 ADD SLOAD SWAP1 DUP1 PUSH1 0x3 ADD SLOAD SWAP1 DUP1 PUSH1 0x4 ADD SLOAD SWAP1 DUP1 PUSH1 0x5 ADD SLOAD SWAP1 DUP1 PUSH1 0x6 ADD SLOAD SWAP1 DUP1 PUSH1 0x7 ADD SLOAD SWAP1 DUP1 PUSH1 0x8 ADD SLOAD SWAP1 POP DUP10 JUMP JUMPDEST PUSH2 0x3159 PUSH2 0x3153 PUSH2 0x7419 JUMP JUMPDEST DUP3 PUSH2 0x76F7 JUMP JUMPDEST PUSH2 0x3198 JUMPI PUSH1 0x40 MLOAD PUSH32 0x8C379A000000000000000000000000000000000000000000000000000000000 DUP2 MSTORE PUSH1 0x4 ADD PUSH2 0x318F SWAP1 PUSH2 0xA3B1 JUMP JUMPDEST PUSH1 0x40 MLOAD DUP1 SWAP2 SUB SWAP1 REVERT JUMPDEST PUSH2 0x31A3 DUP4 DUP4 DUP4 PUSH2 0x778C JUMP JUMPDEST POP POP POP JUMP JUMPDEST PUSH1 0x0 PUSH2 0x31BE PUSH8 0xD7138D62B67C64F0 PUSH1 0xC0 SHL PUSH2 0x709B JUMP JUMPDEST PUSH2 0x31D2 PUSH8 0x4A2C363BAB323EDD PUSH1 0xC0 SHL PUSH2 0x709B JUMP JUMPDEST PUSH2 0x3E8 DUP3 PUSH2 0x101 PUSH1 0x0 SWAP1 SLOAD SWAP1 PUSH2 0x100 EXP SWAP1 DIV PUSH20 0xFFFFFFFFFFFFFFFFFFFFFFFFFFFFFFFFFFFFFFFF AND PUSH20 0xFFFFFFFFFFFFFFFFFFFFFFFFFFFFFFFFFFFFFFFF AND PUSH4 0x6FB1EB0C PUSH1 0x40 MLOAD DUP2 PUSH4 0xFFFFFFFF AND PUSH1 0xE0 SHL DUP2 MSTORE PUSH1 0x4 ADD PUSH1 0x20 PUSH1 0x40 MLOAD DUP1 DUP4 SUB DUP2 DUP7 GAS STATICCALL ISZERO DUP1 ISZERO PUSH2 0x3244 JUMPI RETURNDATASIZE PUSH1 0x0 DUP1 RETURNDATACOPY RETURNDATASIZE PUSH1 0x0 REVERT JUMPDEST POP POP POP POP PUSH1 0x40 MLOAD RETURNDATASIZE PUSH1 0x1F NOT PUSH1 0x1F DUP3 ADD AND DUP3 ADD DUP1 PUSH1 0x40 MSTORE POP DUP2 ADD SWAP1 PUSH2 0x3268 SWAP2 SWAP1 PUSH2 0xA022 JUMP JUMPDEST PUSH2 0x3272 SWAP2 SWAP1 PUSH2 0x97AF JUMP JUMPDEST PUSH2 0x327C SWAP2 SWAP1 PUSH2 0xA400 JUMP JUMPDEST SWAP1 POP SWAP2 SWAP1 POP JUMP JUMPDEST PUSH2 0x3297 PUSH8 0x53579739A2F05961 PUSH1 0xC0 SHL PUSH2 0x709B JUMP JUMPDEST PUSH2 0x329F PUSH2 0x7186 JUMP JUMPDEST PUSH2 0x32B3 PUSH8 0xF319C89D0E434751 PUSH1 0xC0 SHL PUSH2 0x709B JUMP JUMPDEST PUSH2 0x32C7 PUSH8 0x2A152D044C62BC38 PUSH1 0xC0 SHL PUSH2 0x709B JUMP JUMPDEST PUSH2 0x32DB PUSH8 0xD0921EB3A37364B7 PUSH1 0xC0 SHL PUSH2 0x709B JUMP JUMPDEST PUSH2 0x32EF PUSH8 0x15E32313E127236F PUSH1 0xC0 SHL PUSH2 0x709B JUMP JUMPDEST PUSH2 0x3303 PUSH8 0x27FC956B0935997A PUSH1 0xC0 SHL PUSH2 0x709B JUMP JUMPDEST PUSH1 0xFF PUSH1 0x0 DUP3 DUP2 MSTORE PUSH1 0x20 ADD SWAP1 DUP2 MSTORE PUSH1 0x20 ADD PUSH1 0x0 KECCAK256 PUSH1 0x0 SWAP1 SLOAD SWAP1 PUSH2 0x100 EXP SWAP1 DIV PUSH1 0xFF AND DUP1 ISZERO PUSH2 0x335B JUMPI POP PUSH1 0xFE PUSH1 0x0 DUP3 DUP2 MSTORE PUSH1 0x20 ADD SWAP1 DUP2 MSTORE PUSH1 0x20 ADD PUSH1 0x0 KECCAK256 PUSH1 0x2 ADD SLOAD PUSH1 0xFE PUSH1 0x0 DUP4 DUP2 MSTORE PUSH1 0x20 ADD SWAP1 DUP2 MSTORE PUSH1 0x20 ADD PUSH1 0x0 KECCAK256 PUSH1 0x3 ADD SLOAD LT JUMPDEST DUP1 ISZERO PUSH2 0x33AA JUMPI POP PUSH1 0x1 DUP2 EQ DUP1 ISZERO PUSH2 0x3382 JUMPI POP PUSH2 0x3381 PUSH8 0x38EA5F94A5BC8887 PUSH1 0xC0 SHL PUSH2 0x739B JUMP JUMPDEST JUMPDEST DUP1 PUSH2 0x33A9 JUMPI POP PUSH1 0x2 DUP2 EQ DUP1 ISZERO PUSH2 0x33A8 JUMPI POP PUSH2 0x33A7 PUSH8 0x86D425D9D3977C73 PUSH1 0xC0 SHL PUSH2 0x739B JUMP JUMPDEST JUMPDEST JUMPDEST JUMPDEST PUSH2 0x33E9 JUMPI PUSH1 0x40 MLOAD PUSH32 0x8C379A000000000000000000000000000000000000000000000000000000000 DUP2 MSTORE PUSH1 0x4 ADD PUSH2 0x33E0 SWAP1 PUSH2 0x9F3F JUMP JUMPDEST PUSH1 0x40 MLOAD DUP1 SWAP2 SUB SWAP1 REVERT JUMPDEST PUSH2 0x33FD PUSH8 0x41A40928E87BA49F PUSH1 0xC0 SHL PUSH2 0x709B JUMP JUMPDEST PUSH2 0x3411 PUSH8 0xF35C47875E4B2328 PUSH1 0xC0 SHL PUSH2 0x709B JUMP JUMPDEST PUSH2 0x3425 PUSH8 0xE136288D54374F18 PUSH1 0xC0 SHL PUSH2 0x709B JUMP JUMPDEST PUSH1 0x1 DUP2 SUB PUSH2 0x3590 JUMPI PUSH2 0x3441 PUSH8 0xA0121D4C62946A4E PUSH1 0xC0 SHL PUSH2 0x709B JUMP JUMPDEST PUSH2 0x3455 PUSH8 0xB369825208CC3FEE PUSH1 0xC0 SHL PUSH2 0x709B JUMP JUMPDEST PUSH2 0x3469 PUSH8 0xFA70225E9911AD84 PUSH1 0xC0 SHL PUSH2 0x709B JUMP JUMPDEST PUSH2 0x347D PUSH8 0x6F194F2CFEC0626D PUSH1 0xC0 SHL PUSH2 0x709B JUMP JUMPDEST PUSH2 0x106 PUSH1 0x0 CALLER PUSH20 0xFFFFFFFFFFFFFFFFFFFFFFFFFFFFFFFFFFFFFFFF AND PUSH20 0xFFFFFFFFFFFFFFFFFFFFFFFFFFFFFFFFFFFFFFFF AND DUP2 MSTORE PUSH1 0x20 ADD SWAP1 DUP2 MSTORE PUSH1 0x20 ADD PUSH1 0x0 KECCAK256 PUSH1 0x0 SWAP1 SLOAD SWAP1 PUSH2 0x100 EXP SWAP1 DIV PUSH1 0xFF AND PUSH2 0x350A JUMPI PUSH1 0x40 MLOAD PUSH32 0x8C379A000000000000000000000000000000000000000000000000000000000 DUP2 MSTORE PUSH1 0x4 ADD PUSH2 0x3501 SWAP1 PUSH2 0xA4A3 JUMP JUMPDEST PUSH1 0x40 MLOAD DUP1 SWAP2 SUB SWAP1 REVERT JUMPDEST PUSH2 0x351E PUSH8 0xB23CC67C9C29C50B PUSH1 0xC0 SHL PUSH2 0x709B JUMP JUMPDEST PUSH2 0x3532 PUSH8 0xC4D6E93383BDCA87 PUSH1 0xC0 SHL PUSH2 0x709B JUMP JUMPDEST PUSH1 0x0 PUSH2 0x106 PUSH1 0x0 CALLER PUSH20 0xFFFFFFFFFFFFFFFFFFFFFFFFFFFFFFFFFFFFFFFF AND PUSH20 0xFFFFFFFFFFFFFFFFFFFFFFFFFFFFFFFFFFFFFFFF AND DUP2 MSTORE PUSH1 0x20 ADD SWAP1 DUP2 MSTORE PUSH1 0x20 ADD PUSH1 0x0 KECCAK256 PUSH1 0x0 PUSH2 0x100 EXP DUP2 SLOAD DUP2 PUSH1 0xFF MUL NOT AND SWAP1 DUP4 ISZERO ISZERO MUL OR SWAP1 SSTORE POP PUSH2 0x35A5 JUMP JUMPDEST PUSH2 0x35A4 PUSH8 0x66BCE03C8F2846E4 PUSH1 0xC0 SHL PUSH2 0x709B JUMP JUMPDEST JUMPDEST PUSH2 0x35B9 PUSH8 0x594420E1EA766887 PUSH1 0xC0 SHL PUSH2 0x709B JUMP JUMPDEST PUSH2 0x35CD PUSH8 0x95C0D55B7844374A PUSH1 0xC0 SHL PUSH2 0x709B JUMP JUMPDEST PUSH1 0x2 DUP2 SUB PUSH2 0x3738 JUMPI PUSH2 0x35E9 PUSH8 0x69EC0DBEB004CB3F PUSH1 0xC0 SHL PUSH2 0x709B JUMP JUMPDEST PUSH2 0x35FD PUSH8 0x31A6285279FAE4C PUSH1 0xC0 SHL PUSH2 0x709B JUMP JUMPDEST PUSH2 0x3611 PUSH8 0xAC5C07180D3F3103 PUSH1 0xC0 SHL PUSH2 0x709B JUMP JUMPDEST PUSH2 0x3625 PUSH8 0x25BD89496B328B4D PUSH1 0xC0 SHL PUSH2 0x709B JUMP JUMPDEST PUSH2 0x108 PUSH1 0x0 CALLER PUSH20 0xFFFFFFFFFFFFFFFFFFFFFFFFFFFFFFFFFFFFFFFF AND PUSH20 0xFFFFFFFFFFFFFFFFFFFFFFFFFFFFFFFFFFFFFFFF AND DUP2 MSTORE PUSH1 0x20 ADD SWAP1 DUP2 MSTORE PUSH1 0x20 ADD PUSH1 0x0 KECCAK256 PUSH1 0x0 SWAP1 SLOAD SWAP1 PUSH2 0x100 EXP SWAP1 DIV PUSH1 0xFF AND PUSH2 0x36B2 JUMPI PUSH1 0x40 MLOAD PUSH32 0x8C379A000000000000000000000000000000000000000000000000000000000 DUP2 MSTORE PUSH1 0x4 ADD PUSH2 0x36A9 SWAP1 PUSH2 0xA4A3 JUMP JUMPDEST PUSH1 0x40 MLOAD DUP1 SWAP2 SUB SWAP1 REVERT JUMPDEST PUSH2 0x36C6 PUSH8 0xDB1A3F1E13BEA2E3 PUSH1 0xC0 SHL PUSH2 0x709B JUMP JUMPDEST PUSH2 0x36DA PUSH8 0xBD2B2ACF05144DD8 PUSH1 0xC0 SHL PUSH2 0x709B JUMP JUMPDEST PUSH1 0x0 PUSH2 0x108 PUSH1 0x0 CALLER PUSH20 0xFFFFFFFFFFFFFFFFFFFFFFFFFFFFFFFFFFFFFFFF AND PUSH20 0xFFFFFFFFFFFFFFFFFFFFFFFFFFFFFFFFFFFFFFFF AND DUP2 MSTORE PUSH1 0x20 ADD SWAP1 DUP2 MSTORE PUSH1 0x20 ADD PUSH1 0x0 KECCAK256 PUSH1 0x0 PUSH2 0x100 EXP DUP2 SLOAD DUP2 PUSH1 0xFF MUL NOT AND SWAP1 DUP4 ISZERO ISZERO MUL OR SWAP1 SSTORE POP PUSH2 0x374D JUMP JUMPDEST PUSH2 0x374C PUSH8 0x574BCC050EC46974 PUSH1 0xC0 SHL PUSH2 0x709B JUMP JUMPDEST JUMPDEST PUSH2 0x3761 PUSH8 0x9F156D8070F95E40 PUSH1 0xC0 SHL PUSH2 0x709B JUMP JUMPDEST PUSH1 0x1 PUSH1 0xFE PUSH1 0x0 DUP4 DUP2 MSTORE PUSH1 0x20 ADD SWAP1 DUP2 MSTORE PUSH1 0x20 ADD PUSH1 0x0 KECCAK256 PUSH1 0x3 ADD PUSH1 0x0 DUP3 DUP3 SLOAD PUSH2 0x3788 SWAP2 SWAP1 PUSH2 0x96E9 JUMP JUMPDEST SWAP3 POP POP DUP2 SWAP1 SSTORE POP PUSH2 0x37A3 PUSH8 0x4CD705EF16C93C9B PUSH1 0xC0 SHL PUSH2 0x709B JUMP JUMPDEST PUSH2 0x37B7 PUSH8 0x8C69B1EBE3C99EC7 PUSH1 0xC0 SHL PUSH2 0x709B JUMP JUMPDEST PUSH1 0x0 PUSH2 0x101 PUSH1 0x0 SWAP1 SLOAD SWAP1 PUSH2 0x100 EXP SWAP1 DIV PUSH20 0xFFFFFFFFFFFFFFFFFFFFFFFFFFFFFFFFFFFFFFFF AND PUSH20 0xFFFFFFFFFFFFFFFFFFFFFFFFFFFFFFFFFFFFFFFF AND PUSH4 0x58F5F8BE CALLER PUSH1 0x40 MLOAD DUP3 PUSH4 0xFFFFFFFF AND PUSH1 0xE0 SHL DUP2 MSTORE PUSH1 0x4 ADD PUSH2 0x3815 SWAP2 SWAP1 PUSH2 0x8AA7 JUMP JUMPDEST PUSH1 0x20 PUSH1 0x40 MLOAD DUP1 DUP4 SUB DUP2 PUSH1 0x0 DUP8 GAS CALL ISZERO DUP1 ISZERO PUSH2 0x3834 JUMPI RETURNDATASIZE PUSH1 0x0 DUP1 RETURNDATACOPY RETURNDATASIZE PUSH1 0x0 REVERT JUMPDEST POP POP POP POP PUSH1 0x40 MLOAD RETURNDATASIZE PUSH1 0x1F NOT PUSH1 0x1F DUP3 ADD AND DUP3 ADD DUP1 PUSH1 0x40 MSTORE POP DUP2 ADD SWAP1 PUSH2 0x3858 SWAP2 SWAP1 PUSH2 0xA022 JUMP JUMPDEST SWAP1 POP PUSH2 0x386E PUSH8 0xAB0C8F9E7C3EBD06 PUSH1 0xC0 SHL PUSH2 0x709B JUMP JUMPDEST PUSH2 0x3882 PUSH8 0x53C1A40BBBFBB1B5 PUSH1 0xC0 SHL PUSH2 0x709B JUMP JUMPDEST PUSH32 0x2E9E0784B8B9603D5DFCD027DD92455B08D1F69B95710BD5D145C962AD1117DA CALLER DUP3 DUP5 PUSH1 0x40 MLOAD PUSH2 0x38B5 SWAP4 SWAP3 SWAP2 SWAP1 PUSH2 0xA4C3 JUMP JUMPDEST PUSH1 0x40 MLOAD DUP1 SWAP2 SUB SWAP1 LOG1 POP PUSH2 0x38C6 PUSH2 0x73C4 JUMP JUMPDEST POP JUMP JUMPDEST PUSH2 0x10F PUSH1 0x0 SWAP1 SLOAD SWAP1 PUSH2 0x100 EXP SWAP1 DIV PUSH20 0xFFFFFFFFFFFFFFFFFFFFFFFFFFFFFFFFFFFFFFFF AND DUP2 JUMP JUMPDEST PUSH2 0x100 PUSH1 0x0 SWAP1 SLOAD SWAP1 PUSH2 0x100 EXP SWAP1 DIV PUSH20 0xFFFFFFFFFFFFFFFFFFFFFFFFFFFFFFFFFFFFFFFF AND DUP2 JUMP JUMPDEST PUSH1 0xFF PUSH1 0x20 MSTORE DUP1 PUSH1 0x0 MSTORE PUSH1 0x40 PUSH1 0x0 KECCAK256 PUSH1 0x0 SWAP2 POP SLOAD SWAP1 PUSH2 0x100 EXP SWAP1 DIV PUSH1 0xFF AND DUP2 JUMP JUMPDEST PUSH2 0x3952 DUP4 DUP4 DUP4 PUSH1 0x40 MLOAD DUP1 PUSH1 0x20 ADD PUSH1 0x40 MSTORE DUP1 PUSH1 0x0 DUP2 MSTORE POP PUSH2 0x5F38 JUMP JUMPDEST POP POP POP JUMP JUMPDEST PUSH2 0x396B PUSH8 0xF4F2A0C5547ADA4E PUSH1 0xC0 SHL PUSH2 0x709B JUMP JUMPDEST PUSH2 0x3973 PUSH2 0x709E JUMP JUMPDEST PUSH2 0x3987 PUSH8 0x57A9CCFED0026E7B PUSH1 0xC0 SHL PUSH2 0x709B JUMP JUMPDEST PUSH2 0x399B PUSH8 0xC3526EBA7781D556 PUSH1 0xC0 SHL PUSH2 0x709B JUMP JUMPDEST PUSH2 0x39AF PUSH8 0x937935338E4E6591 PUSH1 0xC0 SHL PUSH2 0x709B JUMP JUMPDEST PUSH2 0x39C3 PUSH8 0xC216641BBDB44DBB PUSH1 0xC0 SHL PUSH2 0x709B JUMP JUMPDEST PUSH1 0x0 JUMPDEST DUP4 DUP4 SWAP1 POP DUP2 LT ISZERO PUSH2 0x3A77 JUMPI PUSH2 0x39E5 PUSH8 0xC0810C805E4A1862 PUSH1 0xC0 SHL PUSH2 0x709B JUMP JUMPDEST DUP2 PUSH2 0x102 PUSH1 0x0 DUP7 DUP7 DUP6 DUP2 DUP2 LT PUSH2 0x39FE JUMPI PUSH2 0x39FD PUSH2 0x94CB JUMP JUMPDEST JUMPDEST SWAP1 POP PUSH1 0x20 MUL ADD PUSH1 0x20 DUP2 ADD SWAP1 PUSH2 0x3A13 SWAP2 SWAP1 PUSH2 0x8C5B JUMP JUMPDEST PUSH20 0xFFFFFFFFFFFFFFFFFFFFFFFFFFFFFFFFFFFFFFFF AND PUSH20 0xFFFFFFFFFFFFFFFFFFFFFFFFFFFFFFFFFFFFFFFF AND DUP2 MSTORE PUSH1 0x20 ADD SWAP1 DUP2 MSTORE PUSH1 0x20 ADD PUSH1 0x0 KECCAK256 PUSH1 0x0 PUSH2 0x100 EXP DUP2 SLOAD DUP2 PUSH1 0xFF MUL NOT AND SWAP1 DUP4 ISZERO ISZERO MUL OR SWAP1 SSTORE POP DUP1 DUP1 PUSH2 0x3A6F SWAP1 PUSH2 0x9529 JUMP JUMPDEST SWAP2 POP POP PUSH2 0x39C6 JUMP JUMPDEST POP PUSH2 0x3A8C PUSH8 0xE7CB4E8938FED834 PUSH1 0xC0 SHL PUSH2 0x709B JUMP JUMPDEST PUSH2 0x3AA0 PUSH8 0xEE1D107A100B861B PUSH1 0xC0 SHL PUSH2 0x709B JUMP JUMPDEST PUSH32 0x74182BAF39A64F81A9DFD5C4224B63AF9FE2D0C8396BBCF57743387418379E1 DUP4 DUP4 DUP4 PUSH1 0x40 MLOAD PUSH2 0x3AD3 SWAP4 SWAP3 SWAP2 SWAP1 PUSH2 0xA30D JUMP JUMPDEST PUSH1 0x40 MLOAD DUP1 SWAP2 SUB SWAP1 LOG1 POP POP POP JUMP JUMPDEST PUSH2 0x3AF4 PUSH8 0x20FB9954FEAB420B PUSH1 0xC0 SHL PUSH2 0x709B JUMP JUMPDEST PUSH2 0x3AFC PUSH2 0x709E JUMP JUMPDEST PUSH2 0x3B10 PUSH8 0x5CAEC94BA81557A0 PUSH1 0xC0 SHL PUSH2 0x709B JUMP JUMPDEST PUSH2 0x3B24 PUSH8 0x987C96FC8DDD457F PUSH1 0xC0 SHL PUSH2 0x709B JUMP JUMPDEST PUSH2 0x3B38 PUSH8 0xCCCDD443651DD1C PUSH1 0xC0 SHL PUSH2 0x709B JUMP JUMPDEST PUSH2 0x3B4C PUSH8 0x8EA493C35978FBE1 PUSH1 0xC0 SHL PUSH2 0x709B JUMP JUMPDEST PUSH1 0x0 JUMPDEST DUP9 DUP9 SWAP1 POP DUP2 LT ISZERO PUSH2 0x3D39 JUMPI PUSH2 0x3B6E PUSH8 0xC196048D1B1DDD33 PUSH1 0xC0 SHL PUSH2 0x709B JUMP JUMPDEST DUP9 DUP9 DUP3 DUP2 DUP2 LT PUSH2 0x3B81 JUMPI PUSH2 0x3B80 PUSH2 0x94CB JUMP JUMPDEST JUMPDEST SWAP1 POP PUSH1 0x20 MUL ADD CALLDATALOAD PUSH2 0x109 PUSH1 0x0 DUP13 DUP2 MSTORE PUSH1 0x20 ADD SWAP1 DUP2 MSTORE PUSH1 0x20 ADD PUSH1 0x0 KECCAK256 PUSH1 0x0 DUP12 DUP12 DUP6 DUP2 DUP2 LT PUSH2 0x3BB1 JUMPI PUSH2 0x3BB0 PUSH2 0x94CB JUMP JUMPDEST JUMPDEST SWAP1 POP PUSH1 0x20 MUL ADD CALLDATALOAD DUP2 MSTORE PUSH1 0x20 ADD SWAP1 DUP2 MSTORE PUSH1 0x20 ADD PUSH1 0x0 KECCAK256 PUSH1 0x0 ADD DUP2 SWAP1 SSTORE POP PUSH2 0x3BE1 PUSH8 0xFF4CAB4399E12B94 PUSH1 0xC0 SHL PUSH2 0x709B JUMP JUMPDEST DUP7 DUP7 DUP3 DUP2 DUP2 LT PUSH2 0x3BF4 JUMPI PUSH2 0x3BF3 PUSH2 0x94CB JUMP JUMPDEST JUMPDEST SWAP1 POP PUSH1 0x20 MUL ADD CALLDATALOAD PUSH2 0x109 PUSH1 0x0 DUP13 DUP2 MSTORE PUSH1 0x20 ADD SWAP1 DUP2 MSTORE PUSH1 0x20 ADD PUSH1 0x0 KECCAK256 PUSH1 0x0 DUP12 DUP12 DUP6 DUP2 DUP2 LT PUSH2 0x3C24 JUMPI PUSH2 0x3C23 PUSH2 0x94CB JUMP JUMPDEST JUMPDEST SWAP1 POP PUSH1 0x20 MUL ADD CALLDATALOAD DUP2 MSTORE PUSH1 0x20 ADD SWAP1 DUP2 MSTORE PUSH1 0x20 ADD PUSH1 0x0 KECCAK256 PUSH1 0x5 ADD DUP2 SWAP1 SSTORE POP PUSH2 0x3C54 PUSH8 0x39D4D0B5D19D29F PUSH1 0xC0 SHL PUSH2 0x709B JUMP JUMPDEST DUP5 DUP5 DUP3 DUP2 DUP2 LT PUSH2 0x3C67 JUMPI PUSH2 0x3C66 PUSH2 0x94CB JUMP JUMPDEST JUMPDEST SWAP1 POP PUSH1 0x20 MUL ADD CALLDATALOAD PUSH2 0x109 PUSH1 0x0 DUP13 DUP2 MSTORE PUSH1 0x20 ADD SWAP1 DUP2 MSTORE PUSH1 0x20 ADD PUSH1 0x0 KECCAK256 PUSH1 0x0 DUP12 DUP12 DUP6 DUP2 DUP2 LT PUSH2 0x3C97 JUMPI PUSH2 0x3C96 PUSH2 0x94CB JUMP JUMPDEST JUMPDEST SWAP1 POP PUSH1 0x20 MUL ADD CALLDATALOAD DUP2 MSTORE PUSH1 0x20 ADD SWAP1 DUP2 MSTORE PUSH1 0x20 ADD PUSH1 0x0 KECCAK256 PUSH1 0x8 ADD DUP2 SWAP1 SSTORE POP PUSH2 0x3CC7 PUSH8 0x26F5774544ECE829 PUSH1 0xC0 SHL PUSH2 0x709B JUMP JUMPDEST DUP3 DUP3 DUP3 DUP2 DUP2 LT PUSH2 0x3CDA JUMPI PUSH2 0x3CD9 PUSH2 0x94CB JUMP JUMPDEST JUMPDEST SWAP1 POP PUSH1 0x20 MUL ADD CALLDATALOAD PUSH2 0x109 PUSH1 0x0 DUP13 DUP2 MSTORE PUSH1 0x20 ADD SWAP1 DUP2 MSTORE PUSH1 0x20 ADD PUSH1 0x0 KECCAK256 PUSH1 0x0 DUP12 DUP12 DUP6 DUP2 DUP2 LT PUSH2 0x3D0A JUMPI PUSH2 0x3D09 PUSH2 0x94CB JUMP JUMPDEST JUMPDEST SWAP1 POP PUSH1 0x20 MUL ADD CALLDATALOAD DUP2 MSTORE PUSH1 0x20 ADD SWAP1 DUP2 MSTORE PUSH1 0x20 ADD PUSH1 0x0 KECCAK256 PUSH1 0x7 ADD DUP2 SWAP1 SSTORE POP DUP1 DUP1 PUSH2 0x3D31 SWAP1 PUSH2 0x9529 JUMP JUMPDEST SWAP2 POP POP PUSH2 0x3B4F JUMP JUMPDEST POP POP POP POP POP POP POP POP POP POP JUMP JUMPDEST PUSH1 0x0 DUP1 PUSH2 0x3D51 DUP4 PUSH2 0x7A85 JUMP JUMPDEST SWAP1 POP PUSH1 0x0 PUSH20 0xFFFFFFFFFFFFFFFFFFFFFFFFFFFFFFFFFFFFFFFF AND DUP2 PUSH20 0xFFFFFFFFFFFFFFFFFFFFFFFFFFFFFFFFFFFFFFFF AND SUB PUSH2 0x3DC2 JUMPI PUSH1 0x40 MLOAD PUSH32 0x8C379A000000000000000000000000000000000000000000000000000000000 DUP2 MSTORE PUSH1 0x4 ADD PUSH2 0x3DB9 SWAP1 PUSH2 0xA546 JUMP JUMPDEST PUSH1 0x40 MLOAD DUP1 SWAP2 SUB SWAP1 REVERT JUMPDEST DUP1 SWAP2 POP POP SWAP2 SWAP1 POP JUMP JUMPDEST PUSH2 0x3DDF PUSH8 0x21A3A45D43362FB3 PUSH1 0xC0 SHL PUSH2 0x709B JUMP JUMPDEST PUSH2 0x3DF3 PUSH8 0xFEC8722CAF720B38 PUSH1 0xC0 SHL PUSH2 0x709B JUMP JUMPDEST PUSH2 0x3E07 PUSH8 0x4DE2C4D7C3065CC0 PUSH1 0xC0 SHL PUSH2 0x709B JUMP JUMPDEST PUSH2 0x3E1B PUSH8 0x4ABCCDB857D74746 PUSH1 0xC0 SHL PUSH2 0x709B JUMP JUMPDEST PUSH1 0xFF PUSH1 0x0 DUP3 DUP2 MSTORE PUSH1 0x20 ADD SWAP1 DUP2 MSTORE PUSH1 0x20 ADD PUSH1 0x0 KECCAK256 PUSH1 0x0 SWAP1 SLOAD SWAP1 PUSH2 0x100 EXP SWAP1 DIV PUSH1 0xFF AND DUP1 ISZERO PUSH2 0x3E73 JUMPI POP PUSH1 0xFE PUSH1 0x0 DUP3 DUP2 MSTORE PUSH1 0x20 ADD SWAP1 DUP2 MSTORE PUSH1 0x20 ADD PUSH1 0x0 KECCAK256 PUSH1 0x0 ADD SLOAD PUSH1 0xFE PUSH1 0x0 DUP4 DUP2 MSTORE PUSH1 0x20 ADD SWAP1 DUP2 MSTORE PUSH1 0x20 ADD PUSH1 0x0 KECCAK256 PUSH1 0x1 ADD SLOAD LT JUMPDEST DUP1 ISZERO PUSH2 0x3EC2 JUMPI POP PUSH1 0x1 DUP2 EQ DUP1 ISZERO PUSH2 0x3E9A JUMPI POP PUSH2 0x3E99 PUSH8 0x90ACE6F2D7D20529 PUSH1 0xC0 SHL PUSH2 0x739B JUMP JUMPDEST JUMPDEST DUP1 PUSH2 0x3EC1 JUMPI POP PUSH1 0x2 DUP2 EQ DUP1 ISZERO PUSH2 0x3EC0 JUMPI POP PUSH2 0x3EBF PUSH8 0x29032FE095650BC4 PUSH1 0xC0 SHL PUSH2 0x739B JUMP JUMPDEST JUMPDEST JUMPDEST JUMPDEST PUSH2 0x3F01 JUMPI PUSH1 0x40 MLOAD PUSH32 0x8C379A000000000000000000000000000000000000000000000000000000000 DUP2 MSTORE PUSH1 0x4 ADD PUSH2 0x3EF8 SWAP1 PUSH2 0x9F3F JUMP JUMPDEST PUSH1 0x40 MLOAD DUP1 SWAP2 SUB SWAP1 REVERT JUMPDEST PUSH2 0x3F15 PUSH8 0xE0D373F51A577271 PUSH1 0xC0 SHL PUSH2 0x709B JUMP JUMPDEST PUSH2 0x3F29 PUSH8 0x42D7E749ACF32B13 PUSH1 0xC0 SHL PUSH2 0x709B JUMP JUMPDEST PUSH2 0x3F3D PUSH8 0xCF80D00F39EDDB29 PUSH1 0xC0 SHL PUSH2 0x709B JUMP JUMPDEST PUSH1 0x1 DUP2 SUB PUSH2 0x40A8 JUMPI PUSH2 0x3F59 PUSH8 0x4B59D5571F5C9986 PUSH1 0xC0 SHL PUSH2 0x709B JUMP JUMPDEST PUSH2 0x3F6D PUSH8 0x2D8879201D4059A0 PUSH1 0xC0 SHL PUSH2 0x709B JUMP JUMPDEST PUSH2 0x3F81 PUSH8 0x165242F9AC48D454 PUSH1 0xC0 SHL PUSH2 0x709B JUMP JUMPDEST PUSH2 0x3F95 PUSH8 0x3ABA487DA1A117E PUSH1 0xC0 SHL PUSH2 0x709B JUMP JUMPDEST PUSH2 0x105 PUSH1 0x0 CALLER PUSH20 0xFFFFFFFFFFFFFFFFFFFFFFFFFFFFFFFFFFFFFFFF AND PUSH20 0xFFFFFFFFFFFFFFFFFFFFFFFFFFFFFFFFFFFFFFFF AND DUP2 MSTORE PUSH1 0x20 ADD SWAP1 DUP2 MSTORE PUSH1 0x20 ADD PUSH1 0x0 KECCAK256 PUSH1 0x0 SWAP1 SLOAD SWAP1 PUSH2 0x100 EXP SWAP1 DIV PUSH1 0xFF AND PUSH2 0x4022 JUMPI PUSH1 0x40 MLOAD PUSH32 0x8C379A000000000000000000000000000000000000000000000000000000000 DUP2 MSTORE PUSH1 0x4 ADD PUSH2 0x4019 SWAP1 PUSH2 0xA4A3 JUMP JUMPDEST PUSH1 0x40 MLOAD DUP1 SWAP2 SUB SWAP1 REVERT JUMPDEST PUSH2 0x4036 PUSH8 0x83AA3E5044606748 PUSH1 0xC0 SHL PUSH2 0x709B JUMP JUMPDEST PUSH2 0x404A PUSH8 0xBE5C48D9484673B1 PUSH1 0xC0 SHL PUSH2 0x709B JUMP JUMPDEST PUSH1 0x0 PUSH2 0x105 PUSH1 0x0 CALLER PUSH20 0xFFFFFFFFFFFFFFFFFFFFFFFFFFFFFFFFFFFFFFFF AND PUSH20 0xFFFFFFFFFFFFFFFFFFFFFFFFFFFFFFFFFFFFFFFF AND DUP2 MSTORE PUSH1 0x20 ADD SWAP1 DUP2 MSTORE PUSH1 0x20 ADD PUSH1 0x0 KECCAK256 PUSH1 0x0 PUSH2 0x100 EXP DUP2 SLOAD DUP2 PUSH1 0xFF MUL NOT AND SWAP1 DUP4 ISZERO ISZERO MUL OR SWAP1 SSTORE POP PUSH2 0x40BD JUMP JUMPDEST PUSH2 0x40BC PUSH8 0x1370BF93960D5038 PUSH1 0xC0 SHL PUSH2 0x709B JUMP JUMPDEST JUMPDEST PUSH2 0x40D1 PUSH8 0xEBA968E227589BC9 PUSH1 0xC0 SHL PUSH2 0x709B JUMP JUMPDEST PUSH2 0x40E5 PUSH8 0xD132D67A3604F360 PUSH1 0xC0 SHL PUSH2 0x709B JUMP JUMPDEST PUSH1 0x2 DUP2 SUB PUSH2 0x4250 JUMPI PUSH2 0x4101 PUSH8 0xAC4EBF36688F683C PUSH1 0xC0 SHL PUSH2 0x709B JUMP JUMPDEST PUSH2 0x4115 PUSH8 0x30EAC8AE9A6F7893 PUSH1 0xC0 SHL PUSH2 0x709B JUMP JUMPDEST PUSH2 0x4129 PUSH8 0x7428AA5F8DC4EDF8 PUSH1 0xC0 SHL PUSH2 0x709B JUMP JUMPDEST PUSH2 0x413D PUSH8 0x8724F219B8E73098 PUSH1 0xC0 SHL PUSH2 0x709B JUMP JUMPDEST PUSH2 0x107 PUSH1 0x0 CALLER PUSH20 0xFFFFFFFFFFFFFFFFFFFFFFFFFFFFFFFFFFFFFFFF AND PUSH20 0xFFFFFFFFFFFFFFFFFFFFFFFFFFFFFFFFFFFFFFFF AND DUP2 MSTORE PUSH1 0x20 ADD SWAP1 DUP2 MSTORE PUSH1 0x20 ADD PUSH1 0x0 KECCAK256 PUSH1 0x0 SWAP1 SLOAD SWAP1 PUSH2 0x100 EXP SWAP1 DIV PUSH1 0xFF AND PUSH2 0x41CA JUMPI PUSH1 0x40 MLOAD PUSH32 0x8C379A000000000000000000000000000000000000000000000000000000000 DUP2 MSTORE PUSH1 0x4 ADD PUSH2 0x41C1 SWAP1 PUSH2 0xA4A3 JUMP JUMPDEST PUSH1 0x40 MLOAD DUP1 SWAP2 SUB SWAP1 REVERT JUMPDEST PUSH2 0x41DE PUSH8 0x5A6D61C5DBD4CEC9 PUSH1 0xC0 SHL PUSH2 0x709B JUMP JUMPDEST PUSH2 0x41F2 PUSH8 0x72B81E12F147F014 PUSH1 0xC0 SHL PUSH2 0x709B JUMP JUMPDEST PUSH1 0x0 PUSH2 0x107 PUSH1 0x0 CALLER PUSH20 0xFFFFFFFFFFFFFFFFFFFFFFFFFFFFFFFFFFFFFFFF AND PUSH20 0xFFFFFFFFFFFFFFFFFFFFFFFFFFFFFFFFFFFFFFFF AND DUP2 MSTORE PUSH1 0x20 ADD SWAP1 DUP2 MSTORE PUSH1 0x20 ADD PUSH1 0x0 KECCAK256 PUSH1 0x0 PUSH2 0x100 EXP DUP2 SLOAD DUP2 PUSH1 0xFF MUL NOT AND SWAP1 DUP4 ISZERO ISZERO MUL OR SWAP1 SSTORE POP PUSH2 0x4265 JUMP JUMPDEST PUSH2 0x4264 PUSH8 0xABB6212B7D6A451 PUSH1 0xC0 SHL PUSH2 0x709B JUMP JUMPDEST JUMPDEST PUSH2 0x4279 PUSH8 0x5707DE17073324DF PUSH1 0xC0 SHL PUSH2 0x709B JUMP JUMPDEST PUSH1 0x1 PUSH1 0xFE PUSH1 0x0 DUP4 DUP2 MSTORE PUSH1 0x20 ADD SWAP1 DUP2 MSTORE PUSH1 0x20 ADD PUSH1 0x0 KECCAK256 PUSH1 0x1 ADD PUSH1 0x0 DUP3 DUP3 SLOAD PUSH2 0x42A0 SWAP2 SWAP1 PUSH2 0x96E9 JUMP JUMPDEST SWAP3 POP POP DUP2 SWAP1 SSTORE POP PUSH2 0x42BB PUSH8 0xF2125C844805A719 PUSH1 0xC0 SHL PUSH2 0x709B JUMP JUMPDEST PUSH1 0x1 PUSH1 0xFB PUSH1 0x0 DUP3 DUP3 SLOAD PUSH2 0x42CE SWAP2 SWAP1 PUSH2 0x96E9 JUMP JUMPDEST SWAP3 POP POP DUP2 SWAP1 SSTORE POP PUSH2 0x42E9 PUSH8 0x4329C910150687BC PUSH1 0xC0 SHL PUSH2 0x709B JUMP JUMPDEST PUSH2 0x42FD PUSH8 0x38E60FC6D241FF4D PUSH1 0xC0 SHL PUSH2 0x709B JUMP JUMPDEST PUSH2 0x4309 CALLER PUSH1 0xFB SLOAD PUSH2 0x74DA JUMP JUMPDEST PUSH2 0x431D PUSH8 0x4093DF2456B96AD8 PUSH1 0xC0 SHL PUSH2 0x709B JUMP JUMPDEST PUSH2 0x4331 PUSH8 0xF5F92344ECA387FF PUSH1 0xC0 SHL PUSH2 0x709B JUMP JUMPDEST PUSH32 0x6B31E785E40EA595C823D38323157461D86F76A74C76FAA41190DE60912863E7 CALLER PUSH1 0xFB SLOAD DUP4 PUSH1 0x40 MLOAD PUSH2 0x4366 SWAP4 SWAP3 SWAP2 SWAP1 PUSH2 0xA4C3 JUMP JUMPDEST PUSH1 0x40 MLOAD DUP1 SWAP2 SUB SWAP1 LOG1 POP JUMP JUMPDEST PUSH2 0x105 PUSH1 0x20 MSTORE DUP1 PUSH1 0x0 MSTORE PUSH1 0x40 PUSH1 0x0 KECCAK256 PUSH1 0x0 SWAP2 POP SLOAD SWAP1 PUSH2 0x100 EXP SWAP1 DIV PUSH1 0xFF AND DUP2 JUMP JUMPDEST PUSH2 0x10A PUSH1 0x20 MSTORE DUP1 PUSH1 0x0 MSTORE PUSH1 0x40 PUSH1 0x0 KECCAK256 PUSH1 0x0 SWAP2 POP SWAP1 POP DUP1 SLOAD PUSH2 0x43B2 SWAP1 PUSH2 0x9910 JUMP JUMPDEST DUP1 PUSH1 0x1F ADD PUSH1 0x20 DUP1 SWAP2 DIV MUL PUSH1 0x20 ADD PUSH1 0x40 MLOAD SWAP1 DUP2 ADD PUSH1 0x40 MSTORE DUP1 SWAP3 SWAP2 SWAP1 DUP2 DUP2 MSTORE PUSH1 0x20 ADD DUP3 DUP1 SLOAD PUSH2 0x43DE SWAP1 PUSH2 0x9910 JUMP JUMPDEST DUP1 ISZERO PUSH2 0x442B JUMPI DUP1 PUSH1 0x1F LT PUSH2 0x4400 JUMPI PUSH2 0x100 DUP1 DUP4 SLOAD DIV MUL DUP4 MSTORE SWAP2 PUSH1 0x20 ADD SWAP2 PUSH2 0x442B JUMP JUMPDEST DUP3 ADD SWAP2 SWAP1 PUSH1 0x0 MSTORE PUSH1 0x20 PUSH1 0x0 KECCAK256 SWAP1 JUMPDEST DUP2 SLOAD DUP2 MSTORE SWAP1 PUSH1 0x1 ADD SWAP1 PUSH1 0x20 ADD DUP1 DUP4 GT PUSH2 0x440E JUMPI DUP3 SWAP1 SUB PUSH1 0x1F AND DUP3 ADD SWAP2 JUMPDEST POP POP POP POP POP DUP2 JUMP JUMPDEST PUSH2 0x108 PUSH1 0x20 MSTORE DUP1 PUSH1 0x0 MSTORE PUSH1 0x40 PUSH1 0x0 KECCAK256 PUSH1 0x0 SWAP2 POP SLOAD SWAP1 PUSH2 0x100 EXP SWAP1 DIV PUSH1 0xFF AND DUP2 JUMP JUMPDEST PUSH2 0x101 PUSH1 0x0 SWAP1 SLOAD SWAP1 PUSH2 0x100 EXP SWAP1 DIV PUSH20 0xFFFFFFFFFFFFFFFFFFFFFFFFFFFFFFFFFFFFFFFF AND DUP2 JUMP JUMPDEST PUSH1 0x0 DUP1 PUSH20 0xFFFFFFFFFFFFFFFFFFFFFFFFFFFFFFFFFFFFFFFF AND DUP3 PUSH20 0xFFFFFFFFFFFFFFFFFFFFFFFFFFFFFFFFFFFFFFFF AND SUB PUSH2 0x44EB JUMPI PUSH1 0x40 MLOAD PUSH32 0x8C379A000000000000000000000000000000000000000000000000000000000 DUP2 MSTORE PUSH1 0x4 ADD PUSH2 0x44E2 SWAP1 PUSH2 0xA5D8 JUMP JUMPDEST PUSH1 0x40 MLOAD DUP1 SWAP2 SUB SWAP1 REVERT JUMPDEST PUSH1 0x68 PUSH1 0x0 DUP4 PUSH20 0xFFFFFFFFFFFFFFFFFFFFFFFFFFFFFFFFFFFFFFFF AND PUSH20 0xFFFFFFFFFFFFFFFFFFFFFFFFFFFFFFFFFFFFFFFF AND DUP2 MSTORE PUSH1 0x20 ADD SWAP1 DUP2 MSTORE PUSH1 0x20 ADD PUSH1 0x0 KECCAK256 SLOAD SWAP1 POP SWAP2 SWAP1 POP JUMP JUMPDEST PUSH2 0x453A PUSH2 0x709E JUMP JUMPDEST PUSH2 0x4544 PUSH1 0x0 PUSH2 0x7AC2 JUMP JUMPDEST JUMP JUMPDEST PUSH2 0x10E PUSH1 0x0 SWAP1 SLOAD SWAP1 PUSH2 0x100 EXP SWAP1 DIV PUSH20 0xFFFFFFFFFFFFFFFFFFFFFFFFFFFFFFFFFFFFFFFF AND DUP2 JUMP JUMPDEST PUSH2 0x4581 PUSH8 0x4B45F5FB75114792 PUSH1 0xC0 SHL PUSH2 0x709B JUMP JUMPDEST PUSH2 0x4589 PUSH2 0x709E JUMP JUMPDEST PUSH2 0x459D PUSH8 0x99430CD98222031B PUSH1 0xC0 SHL PUSH2 0x709B JUMP JUMPDEST PUSH2 0x45B1 PUSH8 0x4CEED4215043A9D0 PUSH1 0xC0 SHL PUSH2 0x709B JUMP JUMPDEST PUSH2 0x45C5 PUSH8 0x92741058E6F7D64C PUSH1 0xC0 SHL PUSH2 0x709B JUMP JUMPDEST PUSH2 0x45D9 PUSH8 0x75F938C45536DB8F PUSH1 0xC0 SHL PUSH2 0x709B JUMP JUMPDEST PUSH1 0x0 JUMPDEST DUP7 DUP7 SWAP1 POP DUP2 LT ISZERO PUSH2 0x46BC JUMPI PUSH2 0x45FB PUSH8 0x58D43B26F2A3BF3A PUSH1 0xC0 SHL PUSH2 0x709B JUMP JUMPDEST DUP5 DUP5 DUP3 DUP2 DUP2 LT PUSH2 0x460E JUMPI PUSH2 0x460D PUSH2 0x94CB JUMP JUMPDEST JUMPDEST SWAP1 POP PUSH1 0x20 MUL ADD CALLDATALOAD PUSH1 0xFE PUSH1 0x0 DUP10 DUP10 DUP6 DUP2 DUP2 LT PUSH2 0x462C JUMPI PUSH2 0x462B PUSH2 0x94CB JUMP JUMPDEST JUMPDEST SWAP1 POP PUSH1 0x20 MUL ADD CALLDATALOAD DUP2 MSTORE PUSH1 0x20 ADD SWAP1 DUP2 MSTORE PUSH1 0x20 ADD PUSH1 0x0 KECCAK256 PUSH1 0x2 ADD DUP2 SWAP1 SSTORE POP PUSH2 0x465C PUSH8 0xE2D98801CD34CE44 PUSH1 0xC0 SHL PUSH2 0x709B JUMP JUMPDEST DUP3 DUP3 DUP3 DUP2 DUP2 LT PUSH2 0x466F JUMPI PUSH2 0x466E PUSH2 0x94CB JUMP JUMPDEST JUMPDEST SWAP1 POP PUSH1 0x20 MUL ADD CALLDATALOAD PUSH1 0xFE PUSH1 0x0 DUP10 DUP10 DUP6 DUP2 DUP2 LT PUSH2 0x468D JUMPI PUSH2 0x468C PUSH2 0x94CB JUMP JUMPDEST JUMPDEST SWAP1 POP PUSH1 0x20 MUL ADD CALLDATALOAD DUP2 MSTORE PUSH1 0x20 ADD SWAP1 DUP2 MSTORE PUSH1 0x20 ADD PUSH1 0x0 KECCAK256 PUSH1 0x0 ADD DUP2 SWAP1 SSTORE POP DUP1 DUP1 PUSH2 0x46B4 SWAP1 PUSH2 0x9529 JUMP JUMPDEST SWAP2 POP POP PUSH2 0x45DC JUMP JUMPDEST POP POP POP POP POP POP POP JUMP JUMPDEST PUSH2 0x46D9 PUSH8 0xE600399A9BDBEA3C PUSH1 0xC0 SHL PUSH2 0x709B JUMP JUMPDEST PUSH1 0x0 DUP1 PUSH1 0x1 SWAP1 SLOAD SWAP1 PUSH2 0x100 EXP SWAP1 DIV PUSH1 0xFF AND ISZERO SWAP1 POP DUP1 DUP1 ISZERO PUSH2 0x470A JUMPI POP PUSH1 0x1 PUSH1 0x0 DUP1 SLOAD SWAP1 PUSH2 0x100 EXP SWAP1 DIV PUSH1 0xFF AND PUSH1 0xFF AND LT JUMPDEST DUP1 PUSH2 0x4737 JUMPI POP PUSH2 0x4719 ADDRESS PUSH2 0x7B88 JUMP JUMPDEST ISZERO DUP1 ISZERO PUSH2 0x4736 JUMPI POP PUSH1 0x1 PUSH1 0x0 DUP1 SLOAD SWAP1 PUSH2 0x100 EXP SWAP1 DIV PUSH1 0xFF AND PUSH1 0xFF AND EQ JUMPDEST JUMPDEST PUSH2 0x4776 JUMPI PUSH1 0x40 MLOAD PUSH32 0x8C379A000000000000000000000000000000000000000000000000000000000 DUP2 MSTORE PUSH1 0x4 ADD PUSH2 0x476D SWAP1 PUSH2 0xA66A JUMP JUMPDEST PUSH1 0x40 MLOAD DUP1 SWAP2 SUB SWAP1 REVERT JUMPDEST PUSH1 0x1 PUSH1 0x0 DUP1 PUSH2 0x100 EXP DUP2 SLOAD DUP2 PUSH1 0xFF MUL NOT AND SWAP1 DUP4 PUSH1 0xFF AND MUL OR SWAP1 SSTORE POP DUP1 ISZERO PUSH2 0x47B3 JUMPI PUSH1 0x1 PUSH1 0x0 PUSH1 0x1 PUSH2 0x100 EXP DUP2 SLOAD DUP2 PUSH1 0xFF MUL NOT AND SWAP1 DUP4 ISZERO ISZERO MUL OR SWAP1 SSTORE POP JUMPDEST PUSH2 0x47C7 PUSH8 0x1565997094A386A3 PUSH1 0xC0 SHL PUSH2 0x709B JUMP JUMPDEST PUSH2 0x47DB PUSH8 0xA1E6BA1E53C3C416 PUSH1 0xC0 SHL PUSH2 0x709B JUMP JUMPDEST PUSH2 0x47EF PUSH8 0x3EB8FBED5992A84 PUSH1 0xC0 SHL PUSH2 0x709B JUMP JUMPDEST PUSH2 0x4803 PUSH8 0x2A5F977A86C23BE2 PUSH1 0xC0 SHL PUSH2 0x709B JUMP JUMPDEST PUSH2 0x4877 PUSH1 0x40 MLOAD DUP1 PUSH1 0x40 ADD PUSH1 0x40 MSTORE DUP1 PUSH1 0xF DUP2 MSTORE PUSH1 0x20 ADD PUSH32 0x416C6C6F79205370616365204152460000000000000000000000000000000000 DUP2 MSTORE POP PUSH1 0x40 MLOAD DUP1 PUSH1 0x40 ADD PUSH1 0x40 MSTORE DUP1 PUSH1 0x3 DUP2 MSTORE PUSH1 0x20 ADD PUSH32 0x4152460000000000000000000000000000000000000000000000000000000000 DUP2 MSTORE POP PUSH2 0x7BAB JUMP JUMPDEST PUSH2 0x488B PUSH8 0xA64C54302D468708 PUSH1 0xC0 SHL PUSH2 0x709B JUMP JUMPDEST PUSH2 0x489F PUSH8 0xD97F6C4747D29174 PUSH1 0xC0 SHL PUSH2 0x709B JUMP JUMPDEST PUSH2 0x48A7 PUSH2 0x7C08 JUMP JUMPDEST PUSH2 0x48BB PUSH8 0xB450C400D33FCD67 PUSH1 0xC0 SHL PUSH2 0x709B JUMP JUMPDEST PUSH2 0x48CF PUSH8 0x1E429899A428B1B2 PUSH1 0xC0 SHL PUSH2 0x709B JUMP JUMPDEST PUSH2 0x48D7 PUSH2 0x7C61 JUMP JUMPDEST PUSH2 0x48EB PUSH8 0x62CD6EF33FC99F0A PUSH1 0xC0 SHL PUSH2 0x709B JUMP JUMPDEST PUSH1 0x40 MLOAD DUP1 PUSH1 0x60 ADD PUSH1 0x40 MSTORE DUP1 PUSH1 0x28 DUP2 MSTORE PUSH1 0x20 ADD PUSH2 0xB22B PUSH1 0x28 SWAP2 CODECOPY PUSH1 0xFC SWAP1 DUP2 PUSH2 0x4912 SWAP2 SWAP1 PUSH2 0x9AE3 JUMP JUMPDEST POP PUSH2 0x4927 PUSH8 0x195728CA5CBDFA60 PUSH1 0xC0 SHL PUSH2 0x709B JUMP JUMPDEST PUSH1 0x40 MLOAD DUP1 PUSH1 0x40 ADD PUSH1 0x40 MSTORE DUP1 PUSH1 0xF DUP2 MSTORE PUSH1 0x20 ADD PUSH32 0x2D746F6B656E2D7572692E6A736F6E0000000000000000000000000000000000 DUP2 MSTORE POP PUSH1 0xFD SWAP1 DUP2 PUSH2 0x496B SWAP2 SWAP1 PUSH2 0x9AE3 JUMP JUMPDEST POP PUSH2 0x4980 PUSH8 0x21B5BEA2BBC1CC3E PUSH1 0xC0 SHL PUSH2 0x709B JUMP JUMPDEST PUSH1 0x0 PUSH1 0xFB DUP2 SWAP1 SSTORE POP PUSH2 0x499C PUSH8 0xA99426C2B50B632A PUSH1 0xC0 SHL PUSH2 0x709B JUMP JUMPDEST PUSH2 0x49B0 PUSH8 0xA7BB6D2C9272507D PUSH1 0xC0 SHL PUSH2 0x709B JUMP JUMPDEST PUSH1 0x0 PUSH1 0x40 MLOAD DUP1 PUSH2 0x100 ADD PUSH1 0x40 MSTORE DUP1 PUSH2 0x221 PUSH2 0xFFFF AND DUP2 MSTORE PUSH1 0x20 ADD PUSH1 0x65 PUSH2 0xFFFF AND DUP2 MSTORE PUSH1 0x20 ADD PUSH1 0xFA PUSH2 0xFFFF AND DUP2 MSTORE PUSH1 0x20 ADD PUSH1 0xFA PUSH2 0xFFFF AND DUP2 MSTORE PUSH1 0x20 ADD PUSH2 0x7D5 PUSH2 0xFFFF AND DUP2 MSTORE PUSH1 0x20 ADD PUSH2 0x3EA PUSH2 0xFFFF AND DUP2 MSTORE PUSH1 0x20 ADD PUSH2 0x3E9 PUSH2 0xFFFF AND DUP2 MSTORE PUSH1 0x20 ADD PUSH2 0x191 PUSH2 0xFFFF AND DUP2 MSTORE POP SWAP1 POP PUSH2 0x4A2F PUSH8 0x8258EB626BD11280 PUSH1 0xC0 SHL PUSH2 0x709B JUMP JUMPDEST PUSH2 0x4A43 PUSH8 0x87D8CD61AA96542E PUSH1 0xC0 SHL PUSH2 0x709B JUMP JUMPDEST PUSH1 0x0 PUSH1 0x40 MLOAD DUP1 PUSH2 0x100 ADD PUSH1 0x40 MSTORE DUP1 PUSH2 0x5E1 PUSH2 0xFFFF AND DUP2 MSTORE PUSH1 0x20 ADD PUSH2 0x1F9 PUSH2 0xFFFF AND DUP2 MSTORE PUSH1 0x20 ADD PUSH1 0x0 PUSH2 0xFFFF AND DUP2 MSTORE PUSH1 0x20 ADD PUSH1 0xFA PUSH2 0xFFFF AND DUP2 MSTORE PUSH1 0x20 ADD PUSH2 0x7D5 PUSH2 0xFFFF AND DUP2 MSTORE PUSH1 0x20 ADD PUSH2 0x7D4 PUSH2 0xFFFF AND DUP2 MSTORE PUSH1 0x20 ADD PUSH2 0x7D3 PUSH2 0xFFFF AND DUP2 MSTORE PUSH1 0x20 ADD PUSH2 0x7D3 PUSH2 0xFFFF AND DUP2 MSTORE POP SWAP1 POP PUSH2 0x4AC3 PUSH8 0xA5387B88A3063D45 PUSH1 0xC0 SHL PUSH2 0x709B JUMP JUMPDEST PUSH2 0x4AD7 PUSH8 0x1989982790497ED2 PUSH1 0xC0 SHL PUSH2 0x709B JUMP JUMPDEST PUSH1 0x0 JUMPDEST PUSH1 0x8 DUP2 LT ISZERO PUSH2 0x4BDB JUMPI PUSH2 0x4AF7 PUSH8 0xBB19F64F5C5EAEC8 PUSH1 0xC0 SHL PUSH2 0x709B JUMP JUMPDEST PUSH2 0x4B0B PUSH8 0xC40B7B65FFCD385D PUSH1 0xC0 SHL PUSH2 0x709B JUMP JUMPDEST PUSH1 0x0 PUSH1 0x40 MLOAD DUP1 PUSH1 0x80 ADD PUSH1 0x40 MSTORE DUP1 DUP6 DUP5 PUSH1 0x8 DUP2 LT PUSH2 0x4B2B JUMPI PUSH2 0x4B2A PUSH2 0x94CB JUMP JUMPDEST JUMPDEST PUSH1 0x20 MUL ADD MLOAD PUSH2 0xFFFF AND DUP2 MSTORE PUSH1 0x20 ADD PUSH1 0x0 DUP2 MSTORE PUSH1 0x20 ADD DUP5 DUP5 PUSH1 0x8 DUP2 LT PUSH2 0x4B53 JUMPI PUSH2 0x4B52 PUSH2 0x94CB JUMP JUMPDEST JUMPDEST PUSH1 0x20 MUL ADD MLOAD PUSH2 0xFFFF AND DUP2 MSTORE PUSH1 0x20 ADD PUSH1 0x0 DUP2 MSTORE POP SWAP1 POP PUSH2 0x4B7C PUSH8 0x6BBB99909FD58FCB PUSH1 0xC0 SHL PUSH2 0x709B JUMP JUMPDEST DUP1 PUSH1 0xFE PUSH1 0x0 PUSH1 0x1 DUP6 PUSH2 0x4B8E SWAP2 SWAP1 PUSH2 0x96E9 JUMP JUMPDEST DUP2 MSTORE PUSH1 0x20 ADD SWAP1 DUP2 MSTORE PUSH1 0x20 ADD PUSH1 0x0 KECCAK256 PUSH1 0x0 DUP3 ADD MLOAD DUP2 PUSH1 0x0 ADD SSTORE PUSH1 0x20 DUP3 ADD MLOAD DUP2 PUSH1 0x1 ADD SSTORE PUSH1 0x40 DUP3 ADD MLOAD DUP2 PUSH1 0x2 ADD SSTORE PUSH1 0x60 DUP3 ADD MLOAD DUP2 PUSH1 0x3 ADD SSTORE SWAP1 POP POP POP DUP1 DUP1 PUSH2 0x4BD3 SWAP1 PUSH2 0x9529 JUMP JUMPDEST SWAP2 POP POP PUSH2 0x4ADA JUMP JUMPDEST POP PUSH2 0x4BF0 PUSH8 0x5EC5596A31A0F7A9 PUSH1 0xC0 SHL PUSH2 0x709B JUMP JUMPDEST PUSH20 0x6BC174805568608E7092D554BA5FEFD5461B5194 PUSH2 0x101 PUSH1 0x0 PUSH2 0x100 EXP DUP2 SLOAD DUP2 PUSH20 0xFFFFFFFFFFFFFFFFFFFFFFFFFFFFFFFFFFFFFFFF MUL NOT AND SWAP1 DUP4 PUSH20 0xFFFFFFFFFFFFFFFFFFFFFFFFFFFFFFFFFFFFFFFF AND MUL OR SWAP1 SSTORE POP PUSH2 0x4C5A PUSH8 0x927DD6714A03EEED PUSH1 0xC0 SHL PUSH2 0x709B JUMP JUMPDEST PUSH20 0x7B057133D28D44FC1C917D8F77A5A8099F01A97 PUSH2 0x10D PUSH1 0x0 PUSH2 0x100 EXP DUP2 SLOAD DUP2 PUSH20 0xFFFFFFFFFFFFFFFFFFFFFFFFFFFFFFFFFFFFFFFF MUL NOT AND SWAP1 DUP4 PUSH20 0xFFFFFFFFFFFFFFFFFFFFFFFFFFFFFFFFFFFFFFFF AND MUL OR SWAP1 SSTORE POP PUSH2 0x4CC4 PUSH8 0x80E5851E1CE8787F PUSH1 0xC0 SHL PUSH2 0x709B JUMP JUMPDEST PUSH20 0x4F68437579A7077010290E6B713076495FEE37E6 PUSH2 0x10E PUSH1 0x0 PUSH2 0x100 EXP DUP2 SLOAD DUP2 PUSH20 0xFFFFFFFFFFFFFFFFFFFFFFFFFFFFFFFFFFFFFFFF MUL NOT AND SWAP1 DUP4 PUSH20 0xFFFFFFFFFFFFFFFFFFFFFFFFFFFFFFFFFFFFFFFF AND MUL OR SWAP1 SSTORE POP POP POP DUP1 ISZERO PUSH2 0x4D75 JUMPI PUSH1 0x0 DUP1 PUSH1 0x1 PUSH2 0x100 EXP DUP2 SLOAD DUP2 PUSH1 0xFF MUL NOT AND SWAP1 DUP4 ISZERO ISZERO MUL OR SWAP1 SSTORE POP PUSH32 0x7F26B83FF96E1F2B6A682F133852F6798A09C465DA95921460CEFB3847402498 PUSH1 0x1 PUSH1 0x40 MLOAD PUSH2 0x4D6C SWAP2 SWAP1 PUSH2 0xA6D2 JUMP JUMPDEST PUSH1 0x40 MLOAD DUP1 SWAP2 SUB SWAP1 LOG1 JUMPDEST POP JUMP JUMPDEST PUSH1 0x0 PUSH1 0x97 PUSH1 0x0 SWAP1 SLOAD SWAP1 PUSH2 0x100 EXP SWAP1 DIV PUSH20 0xFFFFFFFFFFFFFFFFFFFFFFFFFFFFFFFFFFFFFFFF AND SWAP1 POP SWAP1 JUMP JUMPDEST PUSH2 0x106 PUSH1 0x20 MSTORE DUP1 PUSH1 0x0 MSTORE PUSH1 0x40 PUSH1 0x0 KECCAK256 PUSH1 0x0 SWAP2 POP SLOAD SWAP1 PUSH2 0x100 EXP SWAP1 DIV PUSH1 0xFF AND DUP2 JUMP JUMPDEST PUSH2 0x4DD7 PUSH8 0x22AECB9646358F92 PUSH1 0xC0 SHL PUSH2 0x709B JUMP JUMPDEST PUSH2 0x4DDF PUSH2 0x7186 JUMP JUMPDEST PUSH2 0x4DF3 PUSH8 0xFAD96ADD1D0AD6A2 PUSH1 0xC0 SHL PUSH2 0x709B JUMP JUMPDEST PUSH2 0x4E07 PUSH8 0x749F9CD75172D40E PUSH1 0xC0 SHL PUSH2 0x709B JUMP JUMPDEST PUSH2 0x4E1B PUSH8 0x2299110407F919FD PUSH1 0xC0 SHL PUSH2 0x709B JUMP JUMPDEST PUSH2 0x4E2F PUSH8 0xC0E9B88873865A49 PUSH1 0xC0 SHL PUSH2 0x709B JUMP JUMPDEST PUSH2 0x4E43 PUSH8 0x30BC61DC0E759D4 PUSH1 0xC0 SHL PUSH2 0x709B JUMP JUMPDEST PUSH1 0xFF PUSH1 0x0 PUSH1 0x3 DUP2 MSTORE PUSH1 0x20 ADD SWAP1 DUP2 MSTORE PUSH1 0x20 ADD PUSH1 0x0 KECCAK256 PUSH1 0x0 SWAP1 SLOAD SWAP1 PUSH2 0x100 EXP SWAP1 DIV PUSH1 0xFF AND DUP1 ISZERO PUSH2 0x4E9E JUMPI POP PUSH1 0xFE PUSH1 0x0 PUSH1 0x3 DUP2 MSTORE PUSH1 0x20 ADD SWAP1 DUP2 MSTORE PUSH1 0x20 ADD PUSH1 0x0 KECCAK256 PUSH1 0x2 ADD SLOAD PUSH1 0xFE PUSH1 0x0 PUSH1 0x3 DUP2 MSTORE PUSH1 0x20 ADD SWAP1 DUP2 MSTORE PUSH1 0x20 ADD PUSH1 0x0 KECCAK256 PUSH1 0x3 ADD SLOAD LT JUMPDEST PUSH2 0x4EDD JUMPI PUSH1 0x40 MLOAD PUSH32 0x8C379A000000000000000000000000000000000000000000000000000000000 DUP2 MSTORE PUSH1 0x4 ADD PUSH2 0x4ED4 SWAP1 PUSH2 0x9F3F JUMP JUMPDEST PUSH1 0x40 MLOAD DUP1 SWAP2 SUB SWAP1 REVERT JUMPDEST PUSH2 0x4EF1 PUSH8 0xD317C76F7950D7CE PUSH1 0xC0 SHL PUSH2 0x709B JUMP JUMPDEST PUSH2 0x4F05 PUSH8 0x614C2A3204D45C9C PUSH1 0xC0 SHL PUSH2 0x709B JUMP JUMPDEST PUSH2 0x4F19 PUSH8 0x776D84DA2424A9A8 PUSH1 0xC0 SHL PUSH2 0x709B JUMP JUMPDEST PUSH2 0x4F2D PUSH8 0x8ADD65EEF7A84999 PUSH1 0xC0 SHL PUSH2 0x709B JUMP JUMPDEST PUSH2 0x103 PUSH1 0x0 CALLER PUSH20 0xFFFFFFFFFFFFFFFFFFFFFFFFFFFFFFFFFFFFFFFF AND PUSH20 0xFFFFFFFFFFFFFFFFFFFFFFFFFFFFFFFFFFFFFFFF AND DUP2 MSTORE PUSH1 0x20 ADD SWAP1 DUP2 MSTORE PUSH1 0x20 ADD PUSH1 0x0 KECCAK256 PUSH1 0x0 SWAP1 SLOAD SWAP1 PUSH2 0x100 EXP SWAP1 DIV PUSH1 0xFF AND PUSH2 0x4FBA JUMPI PUSH1 0x40 MLOAD PUSH32 0x8C379A000000000000000000000000000000000000000000000000000000000 DUP2 MSTORE PUSH1 0x4 ADD PUSH2 0x4FB1 SWAP1 PUSH2 0xA4A3 JUMP JUMPDEST PUSH1 0x40 MLOAD DUP1 SWAP2 SUB SWAP1 REVERT JUMPDEST PUSH2 0x4FCE PUSH8 0x54C78FCF9E3FED72 PUSH1 0xC0 SHL PUSH2 0x709B JUMP JUMPDEST PUSH2 0x4FE2 PUSH8 0xB2D0321224780632 PUSH1 0xC0 SHL PUSH2 0x709B JUMP JUMPDEST PUSH1 0x0 PUSH2 0x103 PUSH1 0x0 CALLER PUSH20 0xFFFFFFFFFFFFFFFFFFFFFFFFFFFFFFFFFFFFFFFF AND PUSH20 0xFFFFFFFFFFFFFFFFFFFFFFFFFFFFFFFFFFFFFFFF AND DUP2 MSTORE PUSH1 0x20 ADD SWAP1 DUP2 MSTORE PUSH1 0x20 ADD PUSH1 0x0 KECCAK256 PUSH1 0x0 PUSH2 0x100 EXP DUP2 SLOAD DUP2 PUSH1 0xFF MUL NOT AND SWAP1 DUP4 ISZERO ISZERO MUL OR SWAP1 SSTORE POP PUSH2 0x504F PUSH8 0xA9365A6FEF11D709 PUSH1 0xC0 SHL PUSH2 0x709B JUMP JUMPDEST PUSH1 0x1 PUSH1 0xFE PUSH1 0x0 PUSH1 0x3 DUP2 MSTORE PUSH1 0x20 ADD SWAP1 DUP2 MSTORE PUSH1 0x20 ADD PUSH1 0x0 KECCAK256 PUSH1 0x3 ADD PUSH1 0x0 DUP3 DUP3 SLOAD PUSH2 0x5077 SWAP2 SWAP1 PUSH2 0x96E9 JUMP JUMPDEST SWAP3 POP POP DUP2 SWAP1 SSTORE POP PUSH2 0x5092 PUSH8 0x34BCC69F2FD2F269 PUSH1 0xC0 SHL PUSH2 0x709B JUMP JUMPDEST PUSH2 0x50A6 PUSH8 0xCB628C567B9D3DFF PUSH1 0xC0 SHL PUSH2 0x709B JUMP JUMPDEST PUSH1 0x0 PUSH2 0x101 PUSH1 0x0 SWAP1 SLOAD SWAP1 PUSH2 0x100 EXP SWAP1 DIV PUSH20 0xFFFFFFFFFFFFFFFFFFFFFFFFFFFFFFFFFFFFFFFF AND PUSH20 0xFFFFFFFFFFFFFFFFFFFFFFFFFFFFFFFFFFFFFFFF AND PUSH4 0x58F5F8BE CALLER PUSH1 0x40 MLOAD DUP3 PUSH4 0xFFFFFFFF AND PUSH1 0xE0 SHL DUP2 MSTORE PUSH1 0x4 ADD PUSH2 0x5104 SWAP2 SWAP1 PUSH2 0x8AA7 JUMP JUMPDEST PUSH1 0x20 PUSH1 0x40 MLOAD DUP1 DUP4 SUB DUP2 PUSH1 0x0 DUP8 GAS CALL ISZERO DUP1 ISZERO PUSH2 0x5123 JUMPI RETURNDATASIZE PUSH1 0x0 DUP1 RETURNDATACOPY RETURNDATASIZE PUSH1 0x0 REVERT JUMPDEST POP POP POP POP PUSH1 0x40 MLOAD RETURNDATASIZE PUSH1 0x1F NOT PUSH1 0x1F DUP3 ADD AND DUP3 ADD DUP1 PUSH1 0x40 MSTORE POP DUP2 ADD SWAP1 PUSH2 0x5147 SWAP2 SWAP1 PUSH2 0xA022 JUMP JUMPDEST SWAP1 POP PUSH2 0x515D PUSH8 0x20387630BB91DD44 PUSH1 0xC0 SHL PUSH2 0x709B JUMP JUMPDEST PUSH2 0x5171 PUSH8 0x11D1B50D829EE7A7 PUSH1 0xC0 SHL PUSH2 0x709B JUMP JUMPDEST PUSH32 0x44EB92B6F9778E6790811C1FF3F8535FFB7145FB366595580E36FBD5B35F05C8 CALLER DUP3 PUSH1 0x3 PUSH1 0x40 MLOAD PUSH2 0x51A5 SWAP4 SWAP3 SWAP2 SWAP1 PUSH2 0xA728 JUMP JUMPDEST PUSH1 0x40 MLOAD DUP1 SWAP2 SUB SWAP1 LOG1 POP PUSH2 0x51B6 PUSH2 0x73C4 JUMP JUMPDEST JUMP JUMPDEST PUSH2 0x51CC PUSH8 0xF448171EF5015C64 PUSH1 0xC0 SHL PUSH2 0x709B JUMP JUMPDEST PUSH2 0x51D4 PUSH2 0x7186 JUMP JUMPDEST PUSH2 0x51E8 PUSH8 0x61CE49414B415BA4 PUSH1 0xC0 SHL PUSH2 0x709B JUMP JUMPDEST PUSH2 0x51FC PUSH8 0x833E81A5492AD19B PUSH1 0xC0 SHL PUSH2 0x709B JUMP JUMPDEST PUSH2 0x5210 PUSH8 0x5F537FB3A1F227C5 PUSH1 0xC0 SHL PUSH2 0x709B JUMP JUMPDEST PUSH2 0x5224 PUSH8 0x2BAB42014B62A85C PUSH1 0xC0 SHL PUSH2 0x709B JUMP JUMPDEST PUSH1 0x0 PUSH2 0x5233 DUP4 PUSH1 0x0 ADD MLOAD PUSH2 0x3D45 JUMP JUMPDEST SWAP1 POP PUSH2 0x5249 PUSH8 0x7AE2DFDD7BE1658 PUSH1 0xC0 SHL PUSH2 0x709B JUMP JUMPDEST PUSH2 0x525D PUSH8 0x915EB346F9A1785B PUSH1 0xC0 SHL PUSH2 0x709B JUMP JUMPDEST PUSH2 0x5271 PUSH8 0x884E3D967EFDA75E PUSH1 0xC0 SHL PUSH2 0x709B JUMP JUMPDEST PUSH2 0x5280 DUP2 DUP5 PUSH1 0x40 ADD MLOAD DUP5 PUSH2 0x71D5 JUMP JUMPDEST DUP1 ISZERO PUSH2 0x52B6 JUMPI POP PUSH2 0x10B DUP3 PUSH1 0x40 MLOAD PUSH2 0x5298 SWAP2 SWAP1 PUSH2 0x95B8 JUMP JUMPDEST SWAP1 DUP2 MSTORE PUSH1 0x20 ADD PUSH1 0x40 MLOAD DUP1 SWAP2 SUB SWAP1 KECCAK256 PUSH1 0x0 SWAP1 SLOAD SWAP1 PUSH2 0x100 EXP SWAP1 DIV PUSH1 0xFF AND ISZERO JUMPDEST DUP1 ISZERO PUSH2 0x535C JUMPI POP PUSH2 0x10D PUSH1 0x0 SWAP1 SLOAD SWAP1 PUSH2 0x100 EXP SWAP1 DIV PUSH20 0xFFFFFFFFFFFFFFFFFFFFFFFFFFFFFFFFFFFFFFFF AND PUSH20 0xFFFFFFFFFFFFFFFFFFFFFFFFFFFFFFFFFFFFFFFF AND PUSH4 0xC9941806 DUP4 PUSH1 0x40 MLOAD DUP3 PUSH4 0xFFFFFFFF AND PUSH1 0xE0 SHL DUP2 MSTORE PUSH1 0x4 ADD PUSH2 0x5319 SWAP2 SWAP1 PUSH2 0x9619 JUMP JUMPDEST PUSH1 0x20 PUSH1 0x40 MLOAD DUP1 DUP4 SUB DUP2 DUP7 GAS STATICCALL ISZERO DUP1 ISZERO PUSH2 0x5336 JUMPI RETURNDATASIZE PUSH1 0x0 DUP1 RETURNDATACOPY RETURNDATASIZE PUSH1 0x0 REVERT JUMPDEST POP POP POP POP PUSH1 0x40 MLOAD RETURNDATASIZE PUSH1 0x1F NOT PUSH1 0x1F DUP3 ADD AND DUP3 ADD DUP1 PUSH1 0x40 MSTORE POP DUP2 ADD SWAP1 PUSH2 0x535A SWAP2 SWAP1 PUSH2 0x9650 JUMP JUMPDEST ISZERO JUMPDEST DUP1 ISZERO PUSH2 0x5402 JUMPI POP PUSH2 0x101 PUSH1 0x0 SWAP1 SLOAD SWAP1 PUSH2 0x100 EXP SWAP1 DIV PUSH20 0xFFFFFFFFFFFFFFFFFFFFFFFFFFFFFFFFFFFFFFFF AND PUSH20 0xFFFFFFFFFFFFFFFFFFFFFFFFFFFFFFFFFFFFFFFF AND PUSH4 0xC9941806 DUP4 PUSH1 0x40 MLOAD DUP3 PUSH4 0xFFFFFFFF AND PUSH1 0xE0 SHL DUP2 MSTORE PUSH1 0x4 ADD PUSH2 0x53BF SWAP2 SWAP1 PUSH2 0x9619 JUMP JUMPDEST PUSH1 0x20 PUSH1 0x40 MLOAD DUP1 DUP4 SUB DUP2 DUP7 GAS STATICCALL ISZERO DUP1 ISZERO PUSH2 0x53DC JUMPI RETURNDATASIZE PUSH1 0x0 DUP1 RETURNDATACOPY RETURNDATASIZE PUSH1 0x0 REVERT JUMPDEST POP POP POP POP PUSH1 0x40 MLOAD RETURNDATASIZE PUSH1 0x1F NOT PUSH1 0x1F DUP3 ADD AND DUP3 ADD DUP1 PUSH1 0x40 MSTORE POP DUP2 ADD SWAP1 PUSH2 0x5400 SWAP2 SWAP1 PUSH2 0x9650 JUMP JUMPDEST ISZERO JUMPDEST PUSH2 0x5441 JUMPI PUSH1 0x40 MLOAD PUSH32 0x8C379A000000000000000000000000000000000000000000000000000000000 DUP2 MSTORE PUSH1 0x4 ADD PUSH2 0x5438 SWAP1 PUSH2 0xA7AB JUMP JUMPDEST PUSH1 0x40 MLOAD DUP1 SWAP2 SUB SWAP1 REVERT JUMPDEST PUSH2 0x5455 PUSH8 0x103BA2E73A95A1EB PUSH1 0xC0 SHL PUSH2 0x709B JUMP JUMPDEST PUSH2 0x5469 PUSH8 0x5A8CC7F58E5FB45C PUSH1 0xC0 SHL PUSH2 0x709B JUMP JUMPDEST PUSH2 0x547D PUSH8 0x3574E00F5A6AA13 PUSH1 0xC0 SHL PUSH2 0x709B JUMP JUMPDEST PUSH2 0x5491 PUSH8 0x1C49CC7D541224D3 PUSH1 0xC0 SHL PUSH2 0x709B JUMP JUMPDEST CALLVALUE DUP4 PUSH1 0x20 ADD MLOAD EQ PUSH2 0x54D7 JUMPI PUSH1 0x40 MLOAD PUSH32 0x8C379A000000000000000000000000000000000000000000000000000000000 DUP2 MSTORE PUSH1 0x4 ADD PUSH2 0x54CE SWAP1 PUSH2 0xA83D JUMP JUMPDEST PUSH1 0x40 MLOAD DUP1 SWAP2 SUB SWAP1 REVERT JUMPDEST PUSH2 0x54EB PUSH8 0xD3217FFCC59C8800 PUSH1 0xC0 SHL PUSH2 0x709B JUMP JUMPDEST PUSH2 0x54FF PUSH8 0x28835A11B12BF64E PUSH1 0xC0 SHL PUSH2 0x709B JUMP JUMPDEST PUSH2 0x5513 PUSH8 0xDE72168DD11139AE PUSH1 0xC0 SHL PUSH2 0x709B JUMP JUMPDEST PUSH2 0x5532 DUP2 CALLER DUP6 PUSH1 0x0 ADD MLOAD PUSH1 0x40 MLOAD DUP1 PUSH1 0x20 ADD PUSH1 0x40 MSTORE DUP1 PUSH1 0x0 DUP2 MSTORE POP PUSH2 0x7CBA JUMP JUMPDEST PUSH2 0x5546 PUSH8 0xD49A2994F80D4FCF PUSH1 0xC0 SHL PUSH2 0x709B JUMP JUMPDEST PUSH1 0x1 PUSH2 0x10B DUP4 PUSH1 0x40 MLOAD PUSH2 0x5559 SWAP2 SWAP1 PUSH2 0x95B8 JUMP JUMPDEST SWAP1 DUP2 MSTORE PUSH1 0x20 ADD PUSH1 0x40 MLOAD DUP1 SWAP2 SUB SWAP1 KECCAK256 PUSH1 0x0 PUSH2 0x100 EXP DUP2 SLOAD DUP2 PUSH1 0xFF MUL NOT AND SWAP1 DUP4 ISZERO ISZERO MUL OR SWAP1 SSTORE POP PUSH2 0x5592 PUSH8 0x3E8929127BF16F8F PUSH1 0xC0 SHL PUSH2 0x709B JUMP JUMPDEST PUSH2 0x55A6 PUSH8 0xA08823BCC4BA2A11 PUSH1 0xC0 SHL PUSH2 0x709B JUMP JUMPDEST PUSH1 0x0 PUSH2 0x55B1 CALLVALUE PUSH2 0x31A8 JUMP JUMPDEST SWAP1 POP PUSH2 0x55C7 PUSH8 0xA6F2AFCC62434E16 PUSH1 0xC0 SHL PUSH2 0x709B JUMP JUMPDEST PUSH2 0x55DB PUSH8 0x4A05C40250CF73B5 PUSH1 0xC0 SHL PUSH2 0x709B JUMP JUMPDEST PUSH2 0x10E PUSH1 0x0 SWAP1 SLOAD SWAP1 PUSH2 0x100 EXP SWAP1 DIV PUSH20 0xFFFFFFFFFFFFFFFFFFFFFFFFFFFFFFFFFFFFFFFF AND PUSH20 0xFFFFFFFFFFFFFFFFFFFFFFFFFFFFFFFFFFFFFFFF AND PUSH2 0x8FC DUP3 SWAP1 DUP2 ISZERO MUL SWAP1 PUSH1 0x40 MLOAD PUSH1 0x0 PUSH1 0x40 MLOAD DUP1 DUP4 SUB DUP2 DUP6 DUP9 DUP9 CALL SWAP4 POP POP POP POP ISZERO DUP1 ISZERO PUSH2 0x5644 JUMPI RETURNDATASIZE PUSH1 0x0 DUP1 RETURNDATACOPY RETURNDATASIZE PUSH1 0x0 REVERT JUMPDEST POP PUSH2 0x5659 PUSH8 0x1BD373C73092E656 PUSH1 0xC0 SHL PUSH2 0x709B JUMP JUMPDEST PUSH2 0x566D PUSH8 0xF51F4D3913B3944B PUSH1 0xC0 SHL PUSH2 0x709B JUMP JUMPDEST DUP2 PUSH20 0xFFFFFFFFFFFFFFFFFFFFFFFFFFFFFFFFFFFFFFFF AND PUSH2 0x8FC DUP3 CALLVALUE PUSH2 0x5693 SWAP2 SWAP1 PUSH2 0xA85D JUMP JUMPDEST SWAP1 DUP2 ISZERO MUL SWAP1 PUSH1 0x40 MLOAD PUSH1 0x0 PUSH1 0x40 MLOAD DUP1 DUP4 SUB DUP2 DUP6 DUP9 DUP9 CALL SWAP4 POP POP POP POP ISZERO DUP1 ISZERO PUSH2 0x56BE JUMPI RETURNDATASIZE PUSH1 0x0 DUP1 RETURNDATACOPY RETURNDATASIZE PUSH1 0x0 REVERT JUMPDEST POP PUSH2 0x56D3 PUSH8 0x9BEE17D0DC1550E9 PUSH1 0xC0 SHL PUSH2 0x709B JUMP JUMPDEST PUSH2 0x56E7 PUSH8 0x8F91D6CFD2C67B65 PUSH1 0xC0 SHL PUSH2 0x709B JUMP JUMPDEST PUSH32 0x80CF10DAC1B681DC583A2A6AB3D1E5279E026D3FB3C9001157FC290C9A1BED69 DUP3 CALLER CALLVALUE DUP8 PUSH1 0x0 ADD MLOAD PUSH2 0x10A PUSH1 0x0 DUP11 PUSH1 0x0 ADD MLOAD DUP2 MSTORE PUSH1 0x20 ADD SWAP1 DUP2 MSTORE PUSH1 0x20 ADD PUSH1 0x0 KECCAK256 PUSH1 0x40 MLOAD PUSH2 0x5739 SWAP6 SWAP5 SWAP4 SWAP3 SWAP2 SWAP1 PUSH2 0xA915 JUMP JUMPDEST PUSH1 0x40 MLOAD DUP1 SWAP2 SUB SWAP1 LOG1 POP POP PUSH2 0x574B PUSH2 0x73C4 JUMP JUMPDEST POP POP JUMP JUMPDEST PUSH2 0x5763 PUSH8 0x32ECF31797A1B89F PUSH1 0xC0 SHL PUSH2 0x709B JUMP JUMPDEST PUSH2 0x576B PUSH2 0x709E JUMP JUMPDEST PUSH2 0x577F PUSH8 0xBAAF56BA2DB2C78F PUSH1 0xC0 SHL PUSH2 0x709B JUMP JUMPDEST PUSH2 0x5793 PUSH8 0xB2B287CFB1F4F875 PUSH1 0xC0 SHL PUSH2 0x709B JUMP JUMPDEST PUSH2 0x57A7 PUSH8 0x63F3BEB5AD48AD3C PUSH1 0xC0 SHL PUSH2 0x709B JUMP JUMPDEST PUSH2 0x57BB PUSH8 0xB4ABC52BE359E6B2 PUSH1 0xC0 SHL PUSH2 0x709B JUMP JUMPDEST PUSH1 0x0 JUMPDEST DUP4 DUP4 SWAP1 POP DUP2 LT ISZERO PUSH2 0x586F JUMPI PUSH2 0x57DD PUSH8 0xC33FD82D20CD9106 PUSH1 0xC0 SHL PUSH2 0x709B JUMP JUMPDEST DUP2 PUSH2 0x104 PUSH1 0x0 DUP7 DUP7 DUP6 DUP2 DUP2 LT PUSH2 0x57F6 JUMPI PUSH2 0x57F5 PUSH2 0x94CB JUMP JUMPDEST JUMPDEST SWAP1 POP PUSH1 0x20 MUL ADD PUSH1 0x20 DUP2 ADD SWAP1 PUSH2 0x580B SWAP2 SWAP1 PUSH2 0x8C5B JUMP JUMPDEST PUSH20 0xFFFFFFFFFFFFFFFFFFFFFFFFFFFFFFFFFFFFFFFF AND PUSH20 0xFFFFFFFFFFFFFFFFFFFFFFFFFFFFFFFFFFFFFFFF AND DUP2 MSTORE PUSH1 0x20 ADD SWAP1 DUP2 MSTORE PUSH1 0x20 ADD PUSH1 0x0 KECCAK256 PUSH1 0x0 PUSH2 0x100 EXP DUP2 SLOAD DUP2 PUSH1 0xFF MUL NOT AND SWAP1 DUP4 ISZERO ISZERO MUL OR SWAP1 SSTORE POP DUP1 DUP1 PUSH2 0x5867 SWAP1 PUSH2 0x9529 JUMP JUMPDEST SWAP2 POP POP PUSH2 0x57BE JUMP JUMPDEST POP PUSH2 0x5884 PUSH8 0x8253EB50B5D7BE9D PUSH1 0xC0 SHL PUSH2 0x709B JUMP JUMPDEST PUSH2 0x5898 PUSH8 0x45ED80398BCDC80F PUSH1 0xC0 SHL PUSH2 0x709B JUMP JUMPDEST PUSH32 0x55D7A640169EE4A6157C88413D657E05AEB41F8FA2D6EF0B1CC82997F39C5B53 DUP4 DUP4 DUP4 PUSH1 0x40 MLOAD PUSH2 0x58CB SWAP4 SWAP3 SWAP2 SWAP1 PUSH2 0xA30D JUMP JUMPDEST PUSH1 0x40 MLOAD DUP1 SWAP2 SUB SWAP1 LOG1 POP POP POP JUMP JUMPDEST PUSH1 0x60 PUSH1 0x66 DUP1 SLOAD PUSH2 0x58E7 SWAP1 PUSH2 0x9910 JUMP JUMPDEST DUP1 PUSH1 0x1F ADD PUSH1 0x20 DUP1 SWAP2 DIV MUL PUSH1 0x20 ADD PUSH1 0x40 MLOAD SWAP1 DUP2 ADD PUSH1 0x40 MSTORE DUP1 SWAP3 SWAP2 SWAP1 DUP2 DUP2 MSTORE PUSH1 0x20 ADD DUP3 DUP1 SLOAD PUSH2 0x5913 SWAP1 PUSH2 0x9910 JUMP JUMPDEST DUP1 ISZERO PUSH2 0x5960 JUMPI DUP1 PUSH1 0x1F LT PUSH2 0x5935 JUMPI PUSH2 0x100 DUP1 DUP4 SLOAD DIV MUL DUP4 MSTORE SWAP2 PUSH1 0x20 ADD SWAP2 PUSH2 0x5960 JUMP JUMPDEST DUP3 ADD SWAP2 SWAP1 PUSH1 0x0 MSTORE PUSH1 0x20 PUSH1 0x0 KECCAK256 SWAP1 JUMPDEST DUP2 SLOAD DUP2 MSTORE SWAP1 PUSH1 0x1 ADD SWAP1 PUSH1 0x20 ADD DUP1 DUP4 GT PUSH2 0x5943 JUMPI DUP3 SWAP1 SUB PUSH1 0x1F AND DUP3 ADD SWAP2 JUMPDEST POP POP POP POP POP SWAP1 POP SWAP1 JUMP JUMPDEST PUSH2 0x597E PUSH8 0x5D3A78A9DC37E10C PUSH1 0xC0 SHL PUSH2 0x709B JUMP JUMPDEST PUSH2 0x5986 PUSH2 0x709E JUMP JUMPDEST PUSH2 0x599A PUSH8 0x22E50B8904DA0092 PUSH1 0xC0 SHL PUSH2 0x709B JUMP JUMPDEST PUSH2 0x59AE PUSH8 0x3EE9223FA690A65D PUSH1 0xC0 SHL PUSH2 0x709B JUMP JUMPDEST PUSH2 0x59C2 PUSH8 0xEC98D54915660C3E PUSH1 0xC0 SHL PUSH2 0x709B JUMP JUMPDEST DUP2 PUSH1 0xFC SWAP1 DUP2 PUSH2 0x59D1 SWAP2 SWAP1 PUSH2 0x9AE3 JUMP JUMPDEST POP PUSH2 0x59E6 PUSH8 0x7E74B14259118A5E PUSH1 0xC0 SHL PUSH2 0x709B JUMP JUMPDEST DUP1 PUSH1 0xFD SWAP1 DUP2 PUSH2 0x59F5 SWAP2 SWAP1 PUSH2 0x9AE3 JUMP JUMPDEST POP POP POP JUMP JUMPDEST PUSH2 0x5A0E PUSH8 0x5B8929B8699D17DE PUSH1 0xC0 SHL PUSH2 0x709B JUMP JUMPDEST PUSH2 0x5A16 PUSH2 0x709E JUMP JUMPDEST PUSH2 0x5A2A PUSH8 0xFF269ACE29A13C7C PUSH1 0xC0 SHL PUSH2 0x709B JUMP JUMPDEST PUSH2 0x5A3E PUSH8 0x7AFE9A640DE5BB2A PUSH1 0xC0 SHL PUSH2 0x709B JUMP JUMPDEST PUSH2 0x5A52 PUSH8 0x47E65594A88AD2F3 PUSH1 0xC0 SHL PUSH2 0x709B JUMP JUMPDEST PUSH2 0x5A66 PUSH8 0xFE0FCDEFA416AC8B PUSH1 0xC0 SHL PUSH2 0x709B JUMP JUMPDEST PUSH1 0x0 JUMPDEST DUP4 DUP4 SWAP1 POP DUP2 LT ISZERO PUSH2 0x5B1A JUMPI PUSH2 0x5A88 PUSH8 0xC24EEF1AA45F45FF PUSH1 0xC0 SHL PUSH2 0x709B JUMP JUMPDEST DUP2 PUSH2 0x106 PUSH1 0x0 DUP7 DUP7 DUP6 DUP2 DUP2 LT PUSH2 0x5AA1 JUMPI PUSH2 0x5AA0 PUSH2 0x94CB JUMP JUMPDEST JUMPDEST SWAP1 POP PUSH1 0x20 MUL ADD PUSH1 0x20 DUP2 ADD SWAP1 PUSH2 0x5AB6 SWAP2 SWAP1 PUSH2 0x8C5B JUMP JUMPDEST PUSH20 0xFFFFFFFFFFFFFFFFFFFFFFFFFFFFFFFFFFFFFFFF AND PUSH20 0xFFFFFFFFFFFFFFFFFFFFFFFFFFFFFFFFFFFFFFFF AND DUP2 MSTORE PUSH1 0x20 ADD SWAP1 DUP2 MSTORE PUSH1 0x20 ADD PUSH1 0x0 KECCAK256 PUSH1 0x0 PUSH2 0x100 EXP DUP2 SLOAD DUP2 PUSH1 0xFF MUL NOT AND SWAP1 DUP4 ISZERO ISZERO MUL OR SWAP1 SSTORE POP DUP1 DUP1 PUSH2 0x5B12 SWAP1 PUSH2 0x9529 JUMP JUMPDEST SWAP2 POP POP PUSH2 0x5A69 JUMP JUMPDEST POP PUSH2 0x5B2F PUSH8 0x7B0219109554017E PUSH1 0xC0 SHL PUSH2 0x709B JUMP JUMPDEST PUSH2 0x5B43 PUSH8 0xCF911B2AC977F3FE PUSH1 0xC0 SHL PUSH2 0x709B JUMP JUMPDEST PUSH32 0x26F546175866CDAE536ED9010787F6F5BC9992C35F6CC805F0D7992A322F74FC DUP4 DUP4 DUP4 PUSH1 0x40 MLOAD PUSH2 0x5B76 SWAP4 SWAP3 SWAP2 SWAP1 PUSH2 0xA30D JUMP JUMPDEST PUSH1 0x40 MLOAD DUP1 SWAP2 SUB SWAP1 LOG1 POP POP POP JUMP JUMPDEST PUSH2 0x5B95 PUSH2 0x5B8E PUSH2 0x7419 JUMP JUMPDEST DUP4 DUP4 PUSH2 0x7D16 JUMP JUMPDEST POP POP JUMP JUMPDEST PUSH2 0x5BAD PUSH8 0xF6BB5798EDBA8055 PUSH1 0xC0 SHL PUSH2 0x709B JUMP JUMPDEST PUSH2 0x5BB5 PUSH2 0x709E JUMP JUMPDEST PUSH2 0x5BC9 PUSH8 0xFE55DAF14AF9C08B PUSH1 0xC0 SHL PUSH2 0x709B JUMP JUMPDEST PUSH2 0x5BDD PUSH8 0x69FE1AD19B2C2923 PUSH1 0xC0 SHL PUSH2 0x709B JUMP JUMPDEST PUSH2 0x5BF1 PUSH8 0x4F442544443C1D8D PUSH1 0xC0 SHL PUSH2 0x709B JUMP JUMPDEST PUSH2 0x5C05 PUSH8 0x5542F7C5783E45A0 PUSH1 0xC0 SHL PUSH2 0x709B JUMP JUMPDEST PUSH1 0x0 JUMPDEST DUP4 DUP4 SWAP1 POP DUP2 LT ISZERO PUSH2 0x5CB9 JUMPI PUSH2 0x5C27 PUSH8 0x54B8D9B6390CF0AF PUSH1 0xC0 SHL PUSH2 0x709B JUMP JUMPDEST DUP2 PUSH2 0x105 PUSH1 0x0 DUP7 DUP7 DUP6 DUP2 DUP2 LT PUSH2 0x5C40 JUMPI PUSH2 0x5C3F PUSH2 0x94CB JUMP JUMPDEST JUMPDEST SWAP1 POP PUSH1 0x20 MUL ADD PUSH1 0x20 DUP2 ADD SWAP1 PUSH2 0x5C55 SWAP2 SWAP1 PUSH2 0x8C5B JUMP JUMPDEST PUSH20 0xFFFFFFFFFFFFFFFFFFFFFFFFFFFFFFFFFFFFFFFF AND PUSH20 0xFFFFFFFFFFFFFFFFFFFFFFFFFFFFFFFFFFFFFFFF AND DUP2 MSTORE PUSH1 0x20 ADD SWAP1 DUP2 MSTORE PUSH1 0x20 ADD PUSH1 0x0 KECCAK256 PUSH1 0x0 PUSH2 0x100 EXP DUP2 SLOAD DUP2 PUSH1 0xFF MUL NOT AND SWAP1 DUP4 ISZERO ISZERO MUL OR SWAP1 SSTORE POP DUP1 DUP1 PUSH2 0x5CB1 SWAP1 PUSH2 0x9529 JUMP JUMPDEST SWAP2 POP POP PUSH2 0x5C08 JUMP JUMPDEST POP PUSH2 0x5CCE PUSH8 0xAE2A5184029ED59E PUSH1 0xC0 SHL PUSH2 0x709B JUMP JUMPDEST PUSH2 0x5CE2 PUSH8 0xAC2D5F8B8D672A86 PUSH1 0xC0 SHL PUSH2 0x709B JUMP JUMPDEST PUSH32 0x103875DCA1D7DED84AF45916324C49FB7322C1BA16E25088174B6975CAA0DFD5 DUP4 DUP4 DUP4 PUSH1 0x40 MLOAD PUSH2 0x5D15 SWAP4 SWAP3 SWAP2 SWAP1 PUSH2 0xA30D JUMP JUMPDEST PUSH1 0x40 MLOAD DUP1 SWAP2 SUB SWAP1 LOG1 POP POP POP JUMP JUMPDEST PUSH2 0x5D36 PUSH8 0xEB3DB3245E3E9496 PUSH1 0xC0 SHL PUSH2 0x709B JUMP JUMPDEST PUSH2 0x5D3E PUSH2 0x709E JUMP JUMPDEST PUSH2 0x5D52 PUSH8 0xD6D99BC2F05C3E29 PUSH1 0xC0 SHL PUSH2 0x709B JUMP JUMPDEST PUSH2 0x5D66 PUSH8 0x743275A4554E18B9 PUSH1 0xC0 SHL PUSH2 0x709B JUMP JUMPDEST PUSH2 0x5D7A PUSH8 0x74D48A5FCC5AD312 PUSH1 0xC0 SHL PUSH2 0x709B JUMP JUMPDEST DUP6 PUSH2 0x100 PUSH1 0x0 PUSH2 0x100 EXP DUP2 SLOAD DUP2 PUSH20 0xFFFFFFFFFFFFFFFFFFFFFFFFFFFFFFFFFFFFFFFF MUL NOT AND SWAP1 DUP4 PUSH20 0xFFFFFFFFFFFFFFFFFFFFFFFFFFFFFFFFFFFFFFFF AND MUL OR SWAP1 SSTORE POP PUSH2 0x5DD0 PUSH8 0xBC9BBB8B35461EA9 PUSH1 0xC0 SHL PUSH2 0x709B JUMP JUMPDEST DUP5 PUSH2 0x101 PUSH1 0x0 PUSH2 0x100 EXP DUP2 SLOAD DUP2 PUSH20 0xFFFFFFFFFFFFFFFFFFFFFFFFFFFFFFFFFFFFFFFF MUL NOT AND SWAP1 DUP4 PUSH20 0xFFFFFFFFFFFFFFFFFFFFFFFFFFFFFFFFFFFFFFFF AND MUL OR SWAP1 SSTORE POP PUSH2 0x5E26 PUSH8 0x4B9DF0EDB6713A39 PUSH1 0xC0 SHL PUSH2 0x709B JUMP JUMPDEST DUP4 PUSH2 0x10E PUSH1 0x0 PUSH2 0x100 EXP DUP2 SLOAD DUP2 PUSH20 0xFFFFFFFFFFFFFFFFFFFFFFFFFFFFFFFFFFFFFFFF MUL NOT AND SWAP1 DUP4 PUSH20 0xFFFFFFFFFFFFFFFFFFFFFFFFFFFFFFFFFFFFFFFF AND MUL OR SWAP1 SSTORE POP PUSH2 0x5E7C PUSH8 0x896CA5108FFDEDF3 PUSH1 0xC0 SHL PUSH2 0x709B JUMP JUMPDEST DUP3 PUSH2 0x10D PUSH1 0x0 PUSH2 0x100 EXP DUP2 SLOAD DUP2 PUSH20 0xFFFFFFFFFFFFFFFFFFFFFFFFFFFFFFFFFFFFFFFF MUL NOT AND SWAP1 DUP4 PUSH20 0xFFFFFFFFFFFFFFFFFFFFFFFFFFFFFFFFFFFFFFFF AND MUL OR SWAP1 SSTORE POP PUSH2 0x5ED2 PUSH8 0xA66EEB53F2BD1A00 PUSH1 0xC0 SHL PUSH2 0x709B JUMP JUMPDEST DUP1 PUSH2 0x10C DUP2 SWAP1 SSTORE POP PUSH2 0x5EEE PUSH8 0xE893FDB4821E1B67 PUSH1 0xC0 SHL PUSH2 0x709B JUMP JUMPDEST DUP2 PUSH2 0x10F PUSH1 0x0 PUSH2 0x100 EXP DUP2 SLOAD DUP2 PUSH20 0xFFFFFFFFFFFFFFFFFFFFFFFFFFFFFFFFFFFFFFFF MUL NOT AND SWAP1 DUP4 PUSH20 0xFFFFFFFFFFFFFFFFFFFFFFFFFFFFFFFFFFFFFFFF AND MUL OR SWAP1 SSTORE POP POP POP POP POP POP POP JUMP JUMPDEST PUSH2 0x5F49 PUSH2 0x5F43 PUSH2 0x7419 JUMP JUMPDEST DUP4 PUSH2 0x76F7 JUMP JUMPDEST PUSH2 0x5F88 JUMPI PUSH1 0x40 MLOAD PUSH32 0x8C379A000000000000000000000000000000000000000000000000000000000 DUP2 MSTORE PUSH1 0x4 ADD PUSH2 0x5F7F SWAP1 PUSH2 0xA3B1 JUMP JUMPDEST PUSH1 0x40 MLOAD DUP1 SWAP2 SUB SWAP1 REVERT JUMPDEST PUSH2 0x5F94 DUP5 DUP5 DUP5 DUP5 PUSH2 0x7CBA JUMP JUMPDEST POP POP POP POP JUMP JUMPDEST PUSH2 0x5FAE PUSH8 0xC347276E0CF419FA PUSH1 0xC0 SHL PUSH2 0x709B JUMP JUMPDEST PUSH2 0x5FB6 PUSH2 0x7186 JUMP JUMPDEST PUSH2 0x5FCA PUSH8 0x6E9226183854E959 PUSH1 0xC0 SHL PUSH2 0x709B JUMP JUMPDEST PUSH2 0x5FDE PUSH8 0xAE1EEF63077B379C PUSH1 0xC0 SHL PUSH2 0x709B JUMP JUMPDEST PUSH2 0x5FF2 PUSH8 0xC74E15F5C850BBA8 PUSH1 0xC0 SHL PUSH2 0x709B JUMP JUMPDEST PUSH2 0x6006 PUSH8 0x83E765BE7DF316DC PUSH1 0xC0 SHL PUSH2 0x709B JUMP JUMPDEST PUSH2 0x601A PUSH8 0x32172350C2396A95 PUSH1 0xC0 SHL PUSH2 0x709B JUMP JUMPDEST PUSH2 0x602D DUP3 PUSH1 0x20 ADD MLOAD DUP4 PUSH1 0x60 ADD MLOAD DUP4 PUSH2 0x71D5 JUMP JUMPDEST DUP1 ISZERO PUSH2 0x6063 JUMPI POP PUSH2 0x10B DUP2 PUSH1 0x40 MLOAD PUSH2 0x6045 SWAP2 SWAP1 PUSH2 0x95B8 JUMP JUMPDEST SWAP1 DUP2 MSTORE PUSH1 0x20 ADD PUSH1 0x40 MLOAD DUP1 SWAP2 SUB SWAP1 KECCAK256 PUSH1 0x0 SWAP1 SLOAD SWAP1 PUSH2 0x100 EXP SWAP1 DIV PUSH1 0xFF AND ISZERO JUMPDEST DUP1 ISZERO PUSH2 0x6109 JUMPI POP PUSH2 0x10D PUSH1 0x0 SWAP1 SLOAD SWAP1 PUSH2 0x100 EXP SWAP1 DIV PUSH20 0xFFFFFFFFFFFFFFFFFFFFFFFFFFFFFFFFFFFFFFFF AND PUSH20 0xFFFFFFFFFFFFFFFFFFFFFFFFFFFFFFFFFFFFFFFF AND PUSH4 0xC9941806 DUP3 PUSH1 0x40 MLOAD DUP3 PUSH4 0xFFFFFFFF AND PUSH1 0xE0 SHL DUP2 MSTORE PUSH1 0x4 ADD PUSH2 0x60C6 SWAP2 SWAP1 PUSH2 0x9619 JUMP JUMPDEST PUSH1 0x20 PUSH1 0x40 MLOAD DUP1 DUP4 SUB DUP2 DUP7 GAS STATICCALL ISZERO DUP1 ISZERO PUSH2 0x60E3 JUMPI RETURNDATASIZE PUSH1 0x0 DUP1 RETURNDATACOPY RETURNDATASIZE PUSH1 0x0 REVERT JUMPDEST POP POP POP POP PUSH1 0x40 MLOAD RETURNDATASIZE PUSH1 0x1F NOT PUSH1 0x1F DUP3 ADD AND DUP3 ADD DUP1 PUSH1 0x40 MSTORE POP DUP2 ADD SWAP1 PUSH2 0x6107 SWAP2 SWAP1 PUSH2 0x9650 JUMP JUMPDEST ISZERO JUMPDEST DUP1 ISZERO PUSH2 0x61AF JUMPI POP PUSH2 0x101 PUSH1 0x0 SWAP1 SLOAD SWAP1 PUSH2 0x100 EXP SWAP1 DIV PUSH20 0xFFFFFFFFFFFFFFFFFFFFFFFFFFFFFFFFFFFFFFFF AND PUSH20 0xFFFFFFFFFFFFFFFFFFFFFFFFFFFFFFFFFFFFFFFF AND PUSH4 0xC9941806 DUP3 PUSH1 0x40 MLOAD DUP3 PUSH4 0xFFFFFFFF AND PUSH1 0xE0 SHL DUP2 MSTORE PUSH1 0x4 ADD PUSH2 0x616C SWAP2 SWAP1 PUSH2 0x9619 JUMP JUMPDEST PUSH1 0x20 PUSH1 0x40 MLOAD DUP1 DUP4 SUB DUP2 DUP7 GAS STATICCALL ISZERO DUP1 ISZERO PUSH2 0x6189 JUMPI RETURNDATASIZE PUSH1 0x0 DUP1 RETURNDATACOPY RETURNDATASIZE PUSH1 0x0 REVERT JUMPDEST POP POP POP POP PUSH1 0x40 MLOAD RETURNDATASIZE PUSH1 0x1F NOT PUSH1 0x1F DUP3 ADD AND DUP3 ADD DUP1 PUSH1 0x40 MSTORE POP DUP2 ADD SWAP1 PUSH2 0x61AD SWAP2 SWAP1 PUSH2 0x9650 JUMP JUMPDEST ISZERO JUMPDEST PUSH2 0x61EE JUMPI PUSH1 0x40 MLOAD PUSH32 0x8C379A000000000000000000000000000000000000000000000000000000000 DUP2 MSTORE PUSH1 0x4 ADD PUSH2 0x61E5 SWAP1 PUSH2 0xA7AB JUMP JUMPDEST PUSH1 0x40 MLOAD DUP1 SWAP2 SUB SWAP1 REVERT JUMPDEST PUSH2 0x6202 PUSH8 0x6CA76C63C8317AB6 PUSH1 0xC0 SHL PUSH2 0x709B JUMP JUMPDEST PUSH2 0x6216 PUSH8 0x455D3B049CC0A1F2 PUSH1 0xC0 SHL PUSH2 0x709B JUMP JUMPDEST PUSH2 0x622A PUSH8 0xC16B9E92796EC7E5 PUSH1 0xC0 SHL PUSH2 0x709B JUMP JUMPDEST PUSH2 0x623E PUSH8 0x1A6C0712CB8EDC3B PUSH1 0xC0 SHL PUSH2 0x709B JUMP JUMPDEST CALLVALUE DUP3 PUSH1 0x40 ADD MLOAD EQ PUSH2 0x6284 JUMPI PUSH1 0x40 MLOAD PUSH32 0x8C379A000000000000000000000000000000000000000000000000000000000 DUP2 MSTORE PUSH1 0x4 ADD PUSH2 0x627B SWAP1 PUSH2 0xA83D JUMP JUMPDEST PUSH1 0x40 MLOAD DUP1 SWAP2 SUB SWAP1 REVERT JUMPDEST PUSH2 0x6298 PUSH8 0x347B9092A8498E66 PUSH1 0xC0 SHL PUSH2 0x709B JUMP JUMPDEST PUSH2 0x62AC PUSH8 0x3D56B22EBD3B9DB1 PUSH1 0xC0 SHL PUSH2 0x709B JUMP JUMPDEST PUSH1 0x1 PUSH2 0x10B DUP3 PUSH1 0x40 MLOAD PUSH2 0x62BF SWAP2 SWAP1 PUSH2 0x95B8 JUMP JUMPDEST SWAP1 DUP2 MSTORE PUSH1 0x20 ADD PUSH1 0x40 MLOAD DUP1 SWAP2 SUB SWAP1 KECCAK256 PUSH1 0x0 PUSH2 0x100 EXP DUP2 SLOAD DUP2 PUSH1 0xFF MUL NOT AND SWAP1 DUP4 ISZERO ISZERO MUL OR SWAP1 SSTORE POP PUSH2 0x62F8 PUSH8 0x226677248BA26F7A PUSH1 0xC0 SHL PUSH2 0x709B JUMP JUMPDEST PUSH2 0x630C PUSH8 0x7F5591A132429170 PUSH1 0xC0 SHL PUSH2 0x709B JUMP JUMPDEST PUSH1 0x0 PUSH2 0x6317 CALLVALUE PUSH2 0x31A8 JUMP JUMPDEST SWAP1 POP PUSH2 0x632D PUSH8 0xA0FF83F610BBF2A5 PUSH1 0xC0 SHL PUSH2 0x709B JUMP JUMPDEST PUSH2 0x6341 PUSH8 0x509B47D830294682 PUSH1 0xC0 SHL PUSH2 0x709B JUMP JUMPDEST PUSH2 0x10E PUSH1 0x0 SWAP1 SLOAD SWAP1 PUSH2 0x100 EXP SWAP1 DIV PUSH20 0xFFFFFFFFFFFFFFFFFFFFFFFFFFFFFFFFFFFFFFFF AND PUSH20 0xFFFFFFFFFFFFFFFFFFFFFFFFFFFFFFFFFFFFFFFF AND PUSH2 0x8FC DUP3 SWAP1 DUP2 ISZERO MUL SWAP1 PUSH1 0x40 MLOAD PUSH1 0x0 PUSH1 0x40 MLOAD DUP1 DUP4 SUB DUP2 DUP6 DUP9 DUP9 CALL SWAP4 POP POP POP POP ISZERO DUP1 ISZERO PUSH2 0x63AA JUMPI RETURNDATASIZE PUSH1 0x0 DUP1 RETURNDATACOPY RETURNDATASIZE PUSH1 0x0 REVERT JUMPDEST POP PUSH2 0x63BF PUSH8 0xF503A4BCB30A5456 PUSH1 0xC0 SHL PUSH2 0x709B JUMP JUMPDEST PUSH2 0x63D3 PUSH8 0xF18619C959215D82 PUSH1 0xC0 SHL PUSH2 0x709B JUMP JUMPDEST DUP3 PUSH1 0x20 ADD MLOAD PUSH20 0xFFFFFFFFFFFFFFFFFFFFFFFFFFFFFFFFFFFFFFFF AND PUSH2 0x8FC DUP3 CALLVALUE PUSH2 0x63FD SWAP2 SWAP1 PUSH2 0xA85D JUMP JUMPDEST SWAP1 DUP2 ISZERO MUL SWAP1 PUSH1 0x40 MLOAD PUSH1 0x0 PUSH1 0x40 MLOAD DUP1 DUP4 SUB DUP2 DUP6 DUP9 DUP9 CALL SWAP4 POP POP POP POP ISZERO DUP1 ISZERO PUSH2 0x6428 JUMPI RETURNDATASIZE PUSH1 0x0 DUP1 RETURNDATACOPY RETURNDATASIZE PUSH1 0x0 REVERT JUMPDEST POP PUSH2 0x643D PUSH8 0x92D8A57E309466F4 PUSH1 0xC0 SHL PUSH2 0x709B JUMP JUMPDEST PUSH2 0x6451 PUSH8 0x4750FC4ECC4D1D8 PUSH1 0xC0 SHL PUSH2 0x709B JUMP JUMPDEST PUSH32 0x91DE634C87827DC4E98A7F57AC10D591089A715F405B87EDA6E699A038AAB128 DUP4 PUSH1 0x20 ADD MLOAD CALLER CALLVALUE DUP7 PUSH1 0x0 ADD MLOAD PUSH1 0x40 MLOAD PUSH2 0x648E SWAP5 SWAP4 SWAP3 SWAP2 SWAP1 PUSH2 0xA96F JUMP JUMPDEST PUSH1 0x40 MLOAD DUP1 SWAP2 SUB SWAP1 LOG1 POP PUSH2 0x649F PUSH2 0x73C4 JUMP JUMPDEST POP POP JUMP JUMPDEST PUSH2 0x104 PUSH1 0x20 MSTORE DUP1 PUSH1 0x0 MSTORE PUSH1 0x40 PUSH1 0x0 KECCAK256 PUSH1 0x0 SWAP2 POP SLOAD SWAP1 PUSH2 0x100 EXP SWAP1 DIV PUSH1 0xFF AND DUP2 JUMP JUMPDEST PUSH1 0x60 PUSH2 0x64DA PUSH8 0x66542971FD7F3127 PUSH1 0xC0 SHL PUSH2 0x709B JUMP JUMPDEST PUSH2 0x64EE PUSH8 0xC9EED6CD47251CE2 PUSH1 0xC0 SHL PUSH2 0x709B JUMP JUMPDEST PUSH2 0x6502 PUSH8 0x23A50798D32EFC51 PUSH1 0xC0 SHL PUSH2 0x709B JUMP JUMPDEST PUSH2 0x6516 PUSH8 0xF6CC78EC310C7081 PUSH1 0xC0 SHL PUSH2 0x709B JUMP JUMPDEST PUSH2 0x651F DUP3 PUSH2 0x7E82 JUMP JUMPDEST PUSH2 0x655E JUMPI PUSH1 0x40 MLOAD PUSH32 0x8C379A000000000000000000000000000000000000000000000000000000000 DUP2 MSTORE PUSH1 0x4 ADD PUSH2 0x6555 SWAP1 PUSH2 0xAA26 JUMP JUMPDEST PUSH1 0x40 MLOAD DUP1 SWAP2 SUB SWAP1 REVERT JUMPDEST PUSH2 0x6572 PUSH8 0x8CDC68503029605 PUSH1 0xC0 SHL PUSH2 0x709B JUMP JUMPDEST PUSH2 0x6586 PUSH8 0x1C0EBBAC8BA4633F PUSH1 0xC0 SHL PUSH2 0x709B JUMP JUMPDEST PUSH2 0x659A PUSH8 0xD85D21147F0F659C PUSH1 0xC0 SHL PUSH2 0x709B JUMP JUMPDEST PUSH1 0xFC PUSH2 0x65A5 DUP4 PUSH2 0x7EC3 JUMP JUMPDEST PUSH1 0xFD PUSH1 0x40 MLOAD PUSH1 0x20 ADD PUSH2 0x65B9 SWAP4 SWAP3 SWAP2 SWAP1 PUSH2 0xAB05 JUMP JUMPDEST PUSH1 0x40 MLOAD PUSH1 0x20 DUP2 DUP4 SUB SUB DUP2 MSTORE SWAP1 PUSH1 0x40 MSTORE SWAP1 POP SWAP2 SWAP1 POP JUMP JUMPDEST PUSH2 0x65E3 PUSH8 0xD8D2E2AB1C84B943 PUSH1 0xC0 SHL PUSH2 0x709B JUMP JUMPDEST PUSH2 0x65EB PUSH2 0x709E JUMP JUMPDEST PUSH2 0x65FF PUSH8 0x9FCB26BAC6203D2F PUSH1 0xC0 SHL PUSH2 0x709B JUMP JUMPDEST PUSH2 0x6613 PUSH8 0x7B39E61F70B43E56 PUSH1 0xC0 SHL PUSH2 0x709B JUMP JUMPDEST PUSH2 0x6627 PUSH8 0x361CC4994844B0F3 PUSH1 0xC0 SHL PUSH2 0x709B JUMP JUMPDEST PUSH2 0x663B PUSH8 0x4A9B01590930294B PUSH1 0xC0 SHL PUSH2 0x709B JUMP JUMPDEST PUSH1 0x0 JUMPDEST DUP4 DUP4 SWAP1 POP DUP2 LT ISZERO PUSH2 0x66EF JUMPI PUSH2 0x665D PUSH8 0x1574728384FFEE4C PUSH1 0xC0 SHL PUSH2 0x709B JUMP JUMPDEST DUP2 PUSH2 0x108 PUSH1 0x0 DUP7 DUP7 DUP6 DUP2 DUP2 LT PUSH2 0x6676 JUMPI PUSH2 0x6675 PUSH2 0x94CB JUMP JUMPDEST JUMPDEST SWAP1 POP PUSH1 0x20 MUL ADD PUSH1 0x20 DUP2 ADD SWAP1 PUSH2 0x668B SWAP2 SWAP1 PUSH2 0x8C5B JUMP JUMPDEST PUSH20 0xFFFFFFFFFFFFFFFFFFFFFFFFFFFFFFFFFFFFFFFF AND PUSH20 0xFFFFFFFFFFFFFFFFFFFFFFFFFFFFFFFFFFFFFFFF AND DUP2 MSTORE PUSH1 0x20 ADD SWAP1 DUP2 MSTORE PUSH1 0x20 ADD PUSH1 0x0 KECCAK256 PUSH1 0x0 PUSH2 0x100 EXP DUP2 SLOAD DUP2 PUSH1 0xFF MUL NOT AND SWAP1 DUP4 ISZERO ISZERO MUL OR SWAP1 SSTORE POP DUP1 DUP1 PUSH2 0x66E7 SWAP1 PUSH2 0x9529 JUMP JUMPDEST SWAP2 POP POP PUSH2 0x663E JUMP JUMPDEST POP PUSH2 0x6704 PUSH8 0xB843C193A4F864A6 PUSH1 0xC0 SHL PUSH2 0x709B JUMP JUMPDEST PUSH2 0x6718 PUSH8 0x522D49C2F37C7D89 PUSH1 0xC0 SHL PUSH2 0x709B JUMP JUMPDEST PUSH32 0x1F04AD3D20DF24C03595D847AEE0FF273316EA1ED4FF072EB68155A1D5623CB3 DUP4 DUP4 DUP4 PUSH1 0x40 MLOAD PUSH2 0x674B SWAP4 SWAP3 SWAP2 SWAP1 PUSH2 0xA30D JUMP JUMPDEST PUSH1 0x40 MLOAD DUP1 SWAP2 SUB SWAP1 LOG1 POP POP POP JUMP JUMPDEST PUSH2 0x10B DUP2 DUP1 MLOAD PUSH1 0x20 DUP2 ADD DUP3 ADD DUP1 MLOAD DUP5 DUP3 MSTORE PUSH1 0x20 DUP4 ADD PUSH1 0x20 DUP6 ADD KECCAK256 DUP2 DUP4 MSTORE DUP1 SWAP6 POP POP POP POP POP POP PUSH1 0x0 SWAP2 POP SLOAD SWAP1 PUSH2 0x100 EXP SWAP1 DIV PUSH1 0xFF AND DUP2 JUMP JUMPDEST PUSH2 0x10D PUSH1 0x0 SWAP1 SLOAD SWAP1 PUSH2 0x100 EXP SWAP1 DIV PUSH20 0xFFFFFFFFFFFFFFFFFFFFFFFFFFFFFFFFFFFFFFFF AND DUP2 JUMP JUMPDEST PUSH1 0xFB SLOAD DUP2 JUMP JUMPDEST PUSH2 0x103 PUSH1 0x20 MSTORE DUP1 PUSH1 0x0 MSTORE PUSH1 0x40 PUSH1 0x0 KECCAK256 PUSH1 0x0 SWAP2 POP SLOAD SWAP1 PUSH2 0x100 EXP SWAP1 DIV PUSH1 0xFF AND DUP2 JUMP JUMPDEST PUSH2 0x67F1 PUSH8 0x119935A182E6EE4A PUSH1 0xC0 SHL PUSH2 0x709B JUMP JUMPDEST PUSH2 0x67F9 PUSH2 0x709E JUMP JUMPDEST PUSH2 0x680D PUSH8 0x536B2A172DB3DC0B PUSH1 0xC0 SHL PUSH2 0x709B JUMP JUMPDEST PUSH2 0x6821 PUSH8 0x2377746916D52626 PUSH1 0xC0 SHL PUSH2 0x709B JUMP JUMPDEST PUSH2 0x6835 PUSH8 0x5780B1314E1B497F PUSH1 0xC0 SHL PUSH2 0x709B JUMP JUMPDEST PUSH2 0x6849 PUSH8 0x44C01A745AAC4E43 PUSH1 0xC0 SHL PUSH2 0x709B JUMP JUMPDEST PUSH1 0x0 JUMPDEST DUP4 DUP4 SWAP1 POP DUP2 LT ISZERO PUSH2 0x68FD JUMPI PUSH2 0x686B PUSH8 0xB9B083A04A5590D1 PUSH1 0xC0 SHL PUSH2 0x709B JUMP JUMPDEST DUP2 PUSH2 0x107 PUSH1 0x0 DUP7 DUP7 DUP6 DUP2 DUP2 LT PUSH2 0x6884 JUMPI PUSH2 0x6883 PUSH2 0x94CB JUMP JUMPDEST JUMPDEST SWAP1 POP PUSH1 0x20 MUL ADD PUSH1 0x20 DUP2 ADD SWAP1 PUSH2 0x6899 SWAP2 SWAP1 PUSH2 0x8C5B JUMP JUMPDEST PUSH20 0xFFFFFFFFFFFFFFFFFFFFFFFFFFFFFFFFFFFFFFFF AND PUSH20 0xFFFFFFFFFFFFFFFFFFFFFFFFFFFFFFFFFFFFFFFF AND DUP2 MSTORE PUSH1 0x20 ADD SWAP1 DUP2 MSTORE PUSH1 0x20 ADD PUSH1 0x0 KECCAK256 PUSH1 0x0 PUSH2 0x100 EXP DUP2 SLOAD DUP2 PUSH1 0xFF MUL NOT AND SWAP1 DUP4 ISZERO ISZERO MUL OR SWAP1 SSTORE POP DUP1 DUP1 PUSH2 0x68F5 SWAP1 PUSH2 0x9529 JUMP JUMPDEST SWAP2 POP POP PUSH2 0x684C JUMP JUMPDEST POP PUSH2 0x6912 PUSH8 0x6E45CD90804D029D PUSH1 0xC0 SHL PUSH2 0x709B JUMP JUMPDEST PUSH2 0x6926 PUSH8 0x85C1734A5EBE4FDD PUSH1 0xC0 SHL PUSH2 0x709B JUMP JUMPDEST PUSH32 0xF76067476381EDC28FA06F8043230469676E53A6027CB3550ECC3D2E7DFB1BBF DUP4 DUP4 DUP4 PUSH1 0x40 MLOAD PUSH2 0x6959 SWAP4 SWAP3 SWAP2 SWAP1 PUSH2 0xA30D JUMP JUMPDEST PUSH1 0x40 MLOAD DUP1 SWAP2 SUB SWAP1 LOG1 POP POP POP JUMP JUMPDEST PUSH1 0xFE PUSH1 0x20 MSTORE DUP1 PUSH1 0x0 MSTORE PUSH1 0x40 PUSH1 0x0 KECCAK256 PUSH1 0x0 SWAP2 POP SWAP1 POP DUP1 PUSH1 0x0 ADD SLOAD SWAP1 DUP1 PUSH1 0x1 ADD SLOAD SWAP1 DUP1 PUSH1 0x2 ADD SLOAD SWAP1 DUP1 PUSH1 0x3 ADD SLOAD SWAP1 POP DUP5 JUMP JUMPDEST PUSH2 0x69AA PUSH8 0xF79E998745B91985 PUSH1 0xC0 SHL PUSH2 0x709B JUMP JUMPDEST PUSH2 0x69BE PUSH8 0xB2571B551EB38F5 PUSH1 0xC0 SHL PUSH2 0x709B JUMP JUMPDEST PUSH2 0x69D2 PUSH8 0xE9F5996F5F197D05 PUSH1 0xC0 SHL PUSH2 0x709B JUMP JUMPDEST PUSH2 0x69E6 PUSH8 0x1C537030DFEFF4A0 PUSH1 0xC0 SHL PUSH2 0x709B JUMP JUMPDEST PUSH2 0x101 PUSH1 0x0 SWAP1 SLOAD SWAP1 PUSH2 0x100 EXP SWAP1 DIV PUSH20 0xFFFFFFFFFFFFFFFFFFFFFFFFFFFFFFFFFFFFFFFF AND PUSH20 0xFFFFFFFFFFFFFFFFFFFFFFFFFFFFFFFFFFFFFFFF AND CALLER PUSH20 0xFFFFFFFFFFFFFFFFFFFFFFFFFFFFFFFFFFFFFFFF AND EQ PUSH2 0x6A77 JUMPI PUSH1 0x40 MLOAD PUSH32 0x8C379A000000000000000000000000000000000000000000000000000000000 DUP2 MSTORE PUSH1 0x4 ADD PUSH2 0x6A6E SWAP1 PUSH2 0xAB82 JUMP JUMPDEST PUSH1 0x40 MLOAD DUP1 SWAP2 SUB SWAP1 REVERT JUMPDEST PUSH2 0x6A8B PUSH8 0x7E819027220E0514 PUSH1 0xC0 SHL PUSH2 0x709B JUMP JUMPDEST PUSH2 0x6A9F PUSH8 0x88609E5216E0642E PUSH1 0xC0 SHL PUSH2 0x709B JUMP JUMPDEST DUP1 PUSH1 0xFE PUSH1 0x0 DUP6 DUP2 MSTORE PUSH1 0x20 ADD SWAP1 DUP2 MSTORE PUSH1 0x20 ADD PUSH1 0x0 KECCAK256 PUSH1 0x3 ADD PUSH1 0x0 DUP3 DUP3 SLOAD PUSH2 0x6AC5 SWAP2 SWAP1 PUSH2 0x96E9 JUMP JUMPDEST SWAP3 POP POP DUP2 SWAP1 SSTORE POP PUSH2 0x6AE0 PUSH8 0x3FABFBB8A35CB410 PUSH1 0xC0 SHL PUSH2 0x709B JUMP JUMPDEST DUP1 PUSH2 0x109 PUSH1 0x0 DUP6 DUP2 MSTORE PUSH1 0x20 ADD SWAP1 DUP2 MSTORE PUSH1 0x20 ADD PUSH1 0x0 KECCAK256 PUSH1 0x0 DUP5 DUP2 MSTORE PUSH1 0x20 ADD SWAP1 DUP2 MSTORE PUSH1 0x20 ADD PUSH1 0x0 KECCAK256 PUSH1 0x2 ADD PUSH1 0x0 DUP3 DUP3 SLOAD PUSH2 0x6B18 SWAP2 SWAP1 PUSH2 0x96E9 JUMP JUMPDEST SWAP3 POP POP DUP2 SWAP1 SSTORE POP POP POP POP JUMP JUMPDEST PUSH1 0x0 PUSH1 0x6A PUSH1 0x0 DUP5 PUSH20 0xFFFFFFFFFFFFFFFFFFFFFFFFFFFFFFFFFFFFFFFF AND PUSH20 0xFFFFFFFFFFFFFFFFFFFFFFFFFFFFFFFFFFFFFFFF AND DUP2 MSTORE PUSH1 0x20 ADD SWAP1 DUP2 MSTORE PUSH1 0x20 ADD PUSH1 0x0 KECCAK256 PUSH1 0x0 DUP4 PUSH20 0xFFFFFFFFFFFFFFFFFFFFFFFFFFFFFFFFFFFFFFFF AND PUSH20 0xFFFFFFFFFFFFFFFFFFFFFFFFFFFFFFFFFFFFFFFF AND DUP2 MSTORE PUSH1 0x20 ADD SWAP1 DUP2 MSTORE PUSH1 0x20 ADD PUSH1 0x0 KECCAK256 PUSH1 0x0 SWAP1 SLOAD SWAP1 PUSH2 0x100 EXP SWAP1 DIV PUSH1 0xFF AND SWAP1 POP SWAP3 SWAP2 POP POP JUMP JUMPDEST PUSH2 0x107 PUSH1 0x20 MSTORE DUP1 PUSH1 0x0 MSTORE PUSH1 0x40 PUSH1 0x0 KECCAK256 PUSH1 0x0 SWAP2 POP SLOAD SWAP1 PUSH2 0x100 EXP SWAP1 DIV PUSH1 0xFF AND DUP2 JUMP JUMPDEST PUSH2 0x6BED PUSH8 0xCFC352A11E8424EA PUSH1 0xC0 SHL PUSH2 0x709B JUMP JUMPDEST PUSH2 0x6C01 PUSH8 0xFEA45E04C2B02191 PUSH1 0xC0 SHL PUSH2 0x709B JUMP JUMPDEST PUSH2 0x6C15 PUSH8 0x279092DE98F7C738 PUSH1 0xC0 SHL PUSH2 0x709B JUMP JUMPDEST PUSH2 0x6C29 PUSH8 0x85DA8AA4FDD86D2 PUSH1 0xC0 SHL PUSH2 0x709B JUMP JUMPDEST PUSH1 0xFF PUSH1 0x0 PUSH1 0x3 DUP2 MSTORE PUSH1 0x20 ADD SWAP1 DUP2 MSTORE PUSH1 0x20 ADD PUSH1 0x0 KECCAK256 PUSH1 0x0 SWAP1 SLOAD SWAP1 PUSH2 0x100 EXP SWAP1 DIV PUSH1 0xFF AND DUP1 ISZERO PUSH2 0x6C84 JUMPI POP PUSH1 0xFE PUSH1 0x0 PUSH1 0x3 DUP2 MSTORE PUSH1 0x20 ADD SWAP1 DUP2 MSTORE PUSH1 0x20 ADD PUSH1 0x0 KECCAK256 PUSH1 0x0 ADD SLOAD PUSH1 0xFE PUSH1 0x0 PUSH1 0x3 DUP2 MSTORE PUSH1 0x20 ADD SWAP1 DUP2 MSTORE PUSH1 0x20 ADD PUSH1 0x0 KECCAK256 PUSH1 0x1 ADD SLOAD LT JUMPDEST PUSH2 0x6CC3 JUMPI PUSH1 0x40 MLOAD PUSH32 0x8C379A000000000000000000000000000000000000000000000000000000000 DUP2 MSTORE PUSH1 0x4 ADD PUSH2 0x6CBA SWAP1 PUSH2 0x9F3F JUMP JUMPDEST PUSH1 0x40 MLOAD DUP1 SWAP2 SUB SWAP1 REVERT JUMPDEST PUSH2 0x6CD7 PUSH8 0x766274A198AEA2CE PUSH1 0xC0 SHL PUSH2 0x709B JUMP JUMPDEST PUSH2 0x6CEB PUSH8 0x447421B4C0CAB0D3 PUSH1 0xC0 SHL PUSH2 0x709B JUMP JUMPDEST PUSH2 0x6CFF PUSH8 0x693A5B1CF09B8794 PUSH1 0xC0 SHL PUSH2 0x709B JUMP JUMPDEST PUSH2 0x6D13 PUSH8 0x803EFF4E7FB2CDF7 PUSH1 0xC0 SHL PUSH2 0x709B JUMP JUMPDEST PUSH2 0x102 PUSH1 0x0 CALLER PUSH20 0xFFFFFFFFFFFFFFFFFFFFFFFFFFFFFFFFFFFFFFFF AND PUSH20 0xFFFFFFFFFFFFFFFFFFFFFFFFFFFFFFFFFFFFFFFF AND DUP2 MSTORE PUSH1 0x20 ADD SWAP1 DUP2 MSTORE PUSH1 0x20 ADD PUSH1 0x0 KECCAK256 PUSH1 0x0 SWAP1 SLOAD SWAP1 PUSH2 0x100 EXP SWAP1 DIV PUSH1 0xFF AND PUSH2 0x6DA0 JUMPI PUSH1 0x40 MLOAD PUSH32 0x8C379A000000000000000000000000000000000000000000000000000000000 DUP2 MSTORE PUSH1 0x4 ADD PUSH2 0x6D97 SWAP1 PUSH2 0xA4A3 JUMP JUMPDEST PUSH1 0x40 MLOAD DUP1 SWAP2 SUB SWAP1 REVERT JUMPDEST PUSH2 0x6DB4 PUSH8 0x2E8618C21C6D941C PUSH1 0xC0 SHL PUSH2 0x709B JUMP JUMPDEST PUSH2 0x6DC8 PUSH8 0xB474FDB5DFF28CA9 PUSH1 0xC0 SHL PUSH2 0x709B JUMP JUMPDEST PUSH1 0x0 PUSH2 0x102 PUSH1 0x0 CALLER PUSH20 0xFFFFFFFFFFFFFFFFFFFFFFFFFFFFFFFFFFFFFFFF AND PUSH20 0xFFFFFFFFFFFFFFFFFFFFFFFFFFFFFFFFFFFFFFFF AND DUP2 MSTORE PUSH1 0x20 ADD SWAP1 DUP2 MSTORE PUSH1 0x20 ADD PUSH1 0x0 KECCAK256 PUSH1 0x0 PUSH2 0x100 EXP DUP2 SLOAD DUP2 PUSH1 0xFF MUL NOT AND SWAP1 DUP4 ISZERO ISZERO MUL OR SWAP1 SSTORE POP PUSH2 0x6E34 PUSH7 0xD97393880D2C3B PUSH1 0xC0 SHL PUSH2 0x709B JUMP JUMPDEST PUSH1 0x1 PUSH1 0xFB PUSH1 0x0 DUP3 DUP3 SLOAD PUSH2 0x6E47 SWAP2 SWAP1 PUSH2 0x96E9 JUMP JUMPDEST SWAP3 POP POP DUP2 SWAP1 SSTORE POP PUSH2 0x6E62 PUSH8 0xAECF7E5011DD8439 PUSH1 0xC0 SHL PUSH2 0x709B JUMP JUMPDEST PUSH2 0x6E76 PUSH8 0x3F3E9CD2A87686DE PUSH1 0xC0 SHL PUSH2 0x709B JUMP JUMPDEST PUSH2 0x6E82 CALLER PUSH1 0xFB SLOAD PUSH2 0x74DA JUMP JUMPDEST PUSH2 0x6E96 PUSH8 0x94B39F8ABBEA860F PUSH1 0xC0 SHL PUSH2 0x709B JUMP JUMPDEST PUSH1 0x1 PUSH1 0xFE PUSH1 0x0 PUSH1 0x3 DUP2 MSTORE PUSH1 0x20 ADD SWAP1 DUP2 MSTORE PUSH1 0x20 ADD PUSH1 0x0 KECCAK256 PUSH1 0x1 ADD PUSH1 0x0 DUP3 DUP3 SLOAD PUSH2 0x6EBE SWAP2 SWAP1 PUSH2 0x96E9 JUMP JUMPDEST SWAP3 POP POP DUP2 SWAP1 SSTORE POP PUSH2 0x6ED9 PUSH8 0xBF320B13391EE23 PUSH1 0xC0 SHL PUSH2 0x709B JUMP JUMPDEST PUSH2 0x6EED PUSH8 0x90390606EB86EE5 PUSH1 0xC0 SHL PUSH2 0x709B JUMP JUMPDEST PUSH32 0xC4FE32DE0C7E52993D2F984DEE4A064F2BED825D11DC584CD80D7E5980D46304 CALLER PUSH1 0xFB SLOAD PUSH1 0x3 PUSH1 0x40 MLOAD PUSH2 0x6F23 SWAP4 SWAP3 SWAP2 SWAP1 PUSH2 0xA728 JUMP JUMPDEST PUSH1 0x40 MLOAD DUP1 SWAP2 SUB SWAP1 LOG1 JUMP JUMPDEST PUSH2 0x6F41 PUSH8 0x8B0AD48DD5867905 PUSH1 0xC0 SHL PUSH2 0x709B JUMP JUMPDEST PUSH2 0x6F49 PUSH2 0x709E JUMP JUMPDEST PUSH2 0x6F5D PUSH8 0x294DFE6A691E1E6E PUSH1 0xC0 SHL PUSH2 0x709B JUMP JUMPDEST PUSH2 0x6F71 PUSH8 0xED8370A811FDABAD PUSH1 0xC0 SHL PUSH2 0x709B JUMP JUMPDEST PUSH2 0x6F85 PUSH8 0xF2EA348C7DAA3A88 PUSH1 0xC0 SHL PUSH2 0x709B JUMP JUMPDEST PUSH2 0x6F99 PUSH8 0x63CE0191F436BA32 PUSH1 0xC0 SHL PUSH2 0x709B JUMP JUMPDEST PUSH1 0x0 JUMPDEST DUP4 DUP4 SWAP1 POP DUP2 LT ISZERO PUSH2 0x7012 JUMPI PUSH2 0x6FBB PUSH8 0x5875A56FF1139A36 PUSH1 0xC0 SHL PUSH2 0x709B JUMP JUMPDEST DUP2 PUSH1 0xFF PUSH1 0x0 DUP7 DUP7 DUP6 DUP2 DUP2 LT PUSH2 0x6FD3 JUMPI PUSH2 0x6FD2 PUSH2 0x94CB JUMP JUMPDEST JUMPDEST SWAP1 POP PUSH1 0x20 MUL ADD CALLDATALOAD DUP2 MSTORE PUSH1 0x20 ADD SWAP1 DUP2 MSTORE PUSH1 0x20 ADD PUSH1 0x0 KECCAK256 PUSH1 0x0 PUSH2 0x100 EXP DUP2 SLOAD DUP2 PUSH1 0xFF MUL NOT AND SWAP1 DUP4 ISZERO ISZERO MUL OR SWAP1 SSTORE POP DUP1 DUP1 PUSH2 0x700A SWAP1 PUSH2 0x9529 JUMP JUMPDEST SWAP2 POP POP PUSH2 0x6F9C JUMP JUMPDEST POP POP POP POP JUMP JUMPDEST PUSH2 0x7020 PUSH2 0x709E JUMP JUMPDEST PUSH1 0x0 PUSH20 0xFFFFFFFFFFFFFFFFFFFFFFFFFFFFFFFFFFFFFFFF AND DUP2 PUSH20 0xFFFFFFFFFFFFFFFFFFFFFFFFFFFFFFFFFFFFFFFF AND SUB PUSH2 0x708F JUMPI PUSH1 0x40 MLOAD PUSH32 0x8C379A000000000000000000000000000000000000000000000000000000000 DUP2 MSTORE PUSH1 0x4 ADD PUSH2 0x7086 SWAP1 PUSH2 0xAC14 JUMP JUMPDEST PUSH1 0x40 MLOAD DUP1 SWAP2 SUB SWAP1 REVERT JUMPDEST PUSH2 0x7098 DUP2 PUSH2 0x7AC2 JUMP JUMPDEST POP JUMP JUMPDEST POP JUMP JUMPDEST PUSH2 0x70A6 PUSH2 0x7419 JUMP JUMPDEST PUSH20 0xFFFFFFFFFFFFFFFFFFFFFFFFFFFFFFFFFFFFFFFF AND PUSH2 0x70C4 PUSH2 0x4D78 JUMP JUMPDEST PUSH20 0xFFFFFFFFFFFFFFFFFFFFFFFFFFFFFFFFFFFFFFFF AND EQ PUSH2 0x711A JUMPI PUSH1 0x40 MLOAD PUSH32 0x8C379A000000000000000000000000000000000000000000000000000000000 DUP2 MSTORE PUSH1 0x4 ADD PUSH2 0x7111 SWAP1 PUSH2 0xAC80 JUMP JUMPDEST PUSH1 0x40 MLOAD DUP1 SWAP2 SUB SWAP1 REVERT JUMPDEST JUMP JUMPDEST PUSH1 0x0 PUSH32 0x1FFC9A700000000000000000000000000000000000000000000000000000000 PUSH28 0xFFFFFFFFFFFFFFFFFFFFFFFFFFFFFFFFFFFFFFFFFFFFFFFFFFFFFFFF NOT AND DUP3 PUSH28 0xFFFFFFFFFFFFFFFFFFFFFFFFFFFFFFFFFFFFFFFFFFFFFFFFFFFFFFFF NOT AND EQ SWAP1 POP SWAP2 SWAP1 POP JUMP JUMPDEST PUSH1 0x2 PUSH1 0xC9 SLOAD SUB PUSH2 0x71CB JUMPI PUSH1 0x40 MLOAD PUSH32 0x8C379A000000000000000000000000000000000000000000000000000000000 DUP2 MSTORE PUSH1 0x4 ADD PUSH2 0x71C2 SWAP1 PUSH2 0xACEC JUMP JUMPDEST PUSH1 0x40 MLOAD DUP1 SWAP2 SUB SWAP1 REVERT JUMPDEST PUSH1 0x2 PUSH1 0xC9 DUP2 SWAP1 SSTORE POP JUMP JUMPDEST PUSH1 0x0 DUP1 PUSH1 0x0 PUSH2 0x71E4 DUP6 DUP6 PUSH2 0x7F91 JUMP JUMPDEST SWAP2 POP SWAP2 POP PUSH1 0x0 PUSH1 0x4 DUP2 GT ISZERO PUSH2 0x71FC JUMPI PUSH2 0x71FB PUSH2 0xAD0C JUMP JUMPDEST JUMPDEST DUP2 PUSH1 0x4 DUP2 GT ISZERO PUSH2 0x720F JUMPI PUSH2 0x720E PUSH2 0xAD0C JUMP JUMPDEST JUMPDEST EQ DUP1 ISZERO PUSH2 0x7247 JUMPI POP DUP6 PUSH20 0xFFFFFFFFFFFFFFFFFFFFFFFFFFFFFFFFFFFFFFFF AND DUP3 PUSH20 0xFFFFFFFFFFFFFFFFFFFFFFFFFFFFFFFFFFFFFFFF AND EQ JUMPDEST ISZERO PUSH2 0x7257 JUMPI PUSH1 0x1 SWAP3 POP POP POP PUSH2 0x7394 JUMP JUMPDEST PUSH1 0x0 DUP1 DUP8 PUSH20 0xFFFFFFFFFFFFFFFFFFFFFFFFFFFFFFFFFFFFFFFF AND PUSH4 0x1626BA7E PUSH1 0xE0 SHL DUP9 DUP9 PUSH1 0x40 MLOAD PUSH1 0x24 ADD PUSH2 0x728C SWAP3 SWAP2 SWAP1 PUSH2 0xAD4A JUMP JUMPDEST PUSH1 0x40 MLOAD PUSH1 0x20 DUP2 DUP4 SUB SUB DUP2 MSTORE SWAP1 PUSH1 0x40 MSTORE SWAP1 PUSH28 0xFFFFFFFFFFFFFFFFFFFFFFFFFFFFFFFFFFFFFFFFFFFFFFFFFFFFFFFF NOT AND PUSH1 0x20 DUP3 ADD DUP1 MLOAD PUSH28 0xFFFFFFFFFFFFFFFFFFFFFFFFFFFFFFFFFFFFFFFFFFFFFFFFFFFFFFFF DUP4 DUP2 DUP4 AND OR DUP4 MSTORE POP POP POP POP PUSH1 0x40 MLOAD PUSH2 0x72F6 SWAP2 SWAP1 PUSH2 0x95B8 JUMP JUMPDEST PUSH1 0x0 PUSH1 0x40 MLOAD DUP1 DUP4 SUB DUP2 DUP6 GAS STATICCALL SWAP2 POP POP RETURNDATASIZE DUP1 PUSH1 0x0 DUP2 EQ PUSH2 0x7331 JUMPI PUSH1 0x40 MLOAD SWAP2 POP PUSH1 0x1F NOT PUSH1 0x3F RETURNDATASIZE ADD AND DUP3 ADD PUSH1 0x40 MSTORE RETURNDATASIZE DUP3 MSTORE RETURNDATASIZE PUSH1 0x0 PUSH1 0x20 DUP5 ADD RETURNDATACOPY PUSH2 0x7336 JUMP JUMPDEST PUSH1 0x60 SWAP2 POP JUMPDEST POP SWAP2 POP SWAP2 POP DUP2 DUP1 ISZERO PUSH2 0x7349 JUMPI POP PUSH1 0x20 DUP2 MLOAD EQ JUMPDEST DUP1 ISZERO PUSH2 0x738D JUMPI POP PUSH4 0x1626BA7E PUSH1 0xE0 SHL PUSH28 0xFFFFFFFFFFFFFFFFFFFFFFFFFFFFFFFFFFFFFFFFFFFFFFFFFFFFFFFF NOT AND DUP2 DUP1 PUSH1 0x20 ADD SWAP1 MLOAD DUP2 ADD SWAP1 PUSH2 0x738B SWAP2 SWAP1 PUSH2 0xAD8F JUMP JUMPDEST EQ JUMPDEST SWAP5 POP POP POP POP POP JUMPDEST SWAP4 SWAP3 POP POP POP JUMP JUMPDEST PUSH1 0x0 PUSH1 0x1 SWAP1 POP SWAP2 SWAP1 POP JUMP JUMPDEST PUSH2 0x73C0 DUP3 DUP3 PUSH1 0x40 MLOAD DUP1 PUSH1 0x20 ADD PUSH1 0x40 MSTORE DUP1 PUSH1 0x0 DUP2 MSTORE POP PUSH2 0x7FE2 JUMP JUMPDEST POP POP JUMP JUMPDEST PUSH1 0x1 PUSH1 0xC9 DUP2 SWAP1 SSTORE POP JUMP JUMPDEST PUSH2 0x73D7 DUP2 PUSH2 0x7E82 JUMP JUMPDEST PUSH2 0x7416 JUMPI PUSH1 0x40 MLOAD PUSH32 0x8C379A000000000000000000000000000000000000000000000000000000000 DUP2 MSTORE PUSH1 0x4 ADD PUSH2 0x740D SWAP1 PUSH2 0xA546 JUMP JUMPDEST PUSH1 0x40 MLOAD DUP1 SWAP2 SUB SWAP1 REVERT JUMPDEST POP JUMP JUMPDEST PUSH1 0x0 CALLER SWAP1 POP SWAP1 JUMP JUMPDEST DUP2 PUSH1 0x69 PUSH1 0x0 DUP4 DUP2 MSTORE PUSH1 0x20 ADD SWAP1 DUP2 MSTORE PUSH1 0x20 ADD PUSH1 0x0 KECCAK256 PUSH1 0x0 PUSH2 0x100 EXP DUP2 SLOAD DUP2 PUSH20 0xFFFFFFFFFFFFFFFFFFFFFFFFFFFFFFFFFFFFFFFF MUL NOT AND SWAP1 DUP4 PUSH20 0xFFFFFFFFFFFFFFFFFFFFFFFFFFFFFFFFFFFFFFFF AND MUL OR SWAP1 SSTORE POP DUP1 DUP3 PUSH20 0xFFFFFFFFFFFFFFFFFFFFFFFFFFFFFFFFFFFFFFFF AND PUSH2 0x7494 DUP4 PUSH2 0x3D45 JUMP JUMPDEST PUSH20 0xFFFFFFFFFFFFFFFFFFFFFFFFFFFFFFFFFFFFFFFF AND PUSH32 0x8C5BE1E5EBEC7D5BD14F71427D1E84F3DD0314C0F7B2291E5B200AC8C7C3B925 PUSH1 0x40 MLOAD PUSH1 0x40 MLOAD DUP1 SWAP2 SUB SWAP1 LOG4 POP POP JUMP JUMPDEST PUSH1 0x0 PUSH20 0xFFFFFFFFFFFFFFFFFFFFFFFFFFFFFFFFFFFFFFFF AND DUP3 PUSH20 0xFFFFFFFFFFFFFFFFFFFFFFFFFFFFFFFFFFFFFFFF AND SUB PUSH2 0x7549 JUMPI PUSH1 0x40 MLOAD PUSH32 0x8C379A000000000000000000000000000000000000000000000000000000000 DUP2 MSTORE PUSH1 0x4 ADD PUSH2 0x7540 SWAP1 PUSH2 0xAE08 JUMP JUMPDEST PUSH1 0x40 MLOAD DUP1 SWAP2 SUB SWAP1 REVERT JUMPDEST PUSH2 0x7552 DUP2 PUSH2 0x7E82 JUMP JUMPDEST ISZERO PUSH2 0x7592 JUMPI PUSH1 0x40 MLOAD PUSH32 0x8C379A000000000000000000000000000000000000000000000000000000000 DUP2 MSTORE PUSH1 0x4 ADD PUSH2 0x7589 SWAP1 PUSH2 0xAE74 JUMP JUMPDEST PUSH1 0x40 MLOAD DUP1 SWAP2 SUB SWAP1 REVERT JUMPDEST PUSH2 0x75A0 PUSH1 0x0 DUP4 DUP4 PUSH1 0x1 PUSH2 0x803D JUMP JUMPDEST PUSH2 0x75A9 DUP2 PUSH2 0x7E82 JUMP JUMPDEST ISZERO PUSH2 0x75E9 JUMPI PUSH1 0x40 MLOAD PUSH32 0x8C379A000000000000000000000000000000000000000000000000000000000 DUP2 MSTORE PUSH1 0x4 ADD PUSH2 0x75E0 SWAP1 PUSH2 0xAE74 JUMP JUMPDEST PUSH1 0x40 MLOAD DUP1 SWAP2 SUB SWAP1 REVERT JUMPDEST PUSH1 0x1 PUSH1 0x68 PUSH1 0x0 DUP5 PUSH20 0xFFFFFFFFFFFFFFFFFFFFFFFFFFFFFFFFFFFFFFFF AND PUSH20 0xFFFFFFFFFFFFFFFFFFFFFFFFFFFFFFFFFFFFFFFF AND DUP2 MSTORE PUSH1 0x20 ADD SWAP1 DUP2 MSTORE PUSH1 0x20 ADD PUSH1 0x0 KECCAK256 PUSH1 0x0 DUP3 DUP3 SLOAD ADD SWAP3 POP POP DUP2 SWAP1 SSTORE POP DUP2 PUSH1 0x67 PUSH1 0x0 DUP4 DUP2 MSTORE PUSH1 0x20 ADD SWAP1 DUP2 MSTORE PUSH1 0x20 ADD PUSH1 0x0 KECCAK256 PUSH1 0x0 PUSH2 0x100 EXP DUP2 SLOAD DUP2 PUSH20 0xFFFFFFFFFFFFFFFFFFFFFFFFFFFFFFFFFFFFFFFF MUL NOT AND SWAP1 DUP4 PUSH20 0xFFFFFFFFFFFFFFFFFFFFFFFFFFFFFFFFFFFFFFFF AND MUL OR SWAP1 SSTORE POP DUP1 DUP3 PUSH20 0xFFFFFFFFFFFFFFFFFFFFFFFFFFFFFFFFFFFFFFFF AND PUSH1 0x0 PUSH20 0xFFFFFFFFFFFFFFFFFFFFFFFFFFFFFFFFFFFFFFFF AND PUSH32 0xDDF252AD1BE2C89B69C2B068FC378DAA952BA7F163C4A11628F55A4DF523B3EF PUSH1 0x40 MLOAD PUSH1 0x40 MLOAD DUP1 SWAP2 SUB SWAP1 LOG4 PUSH2 0x76F3 PUSH1 0x0 DUP4 DUP4 PUSH1 0x1 PUSH2 0x8043 JUMP JUMPDEST POP POP JUMP JUMPDEST PUSH1 0x0 DUP1 PUSH2 0x7703 DUP4 PUSH2 0x3D45 JUMP JUMPDEST SWAP1 POP DUP1 PUSH20 0xFFFFFFFFFFFFFFFFFFFFFFFFFFFFFFFFFFFFFFFF AND DUP5 PUSH20 0xFFFFFFFFFFFFFFFFFFFFFFFFFFFFFFFFFFFFFFFF AND EQ DUP1 PUSH2 0x7745 JUMPI POP PUSH2 0x7744 DUP2 DUP6 PUSH2 0x6B24 JUMP JUMPDEST JUMPDEST DUP1 PUSH2 0x7783 JUMPI POP DUP4 PUSH20 0xFFFFFFFFFFFFFFFFFFFFFFFFFFFFFFFFFFFFFFFF AND PUSH2 0x776B DUP5 PUSH2 0x1FC4 JUMP JUMPDEST PUSH20 0xFFFFFFFFFFFFFFFFFFFFFFFFFFFFFFFFFFFFFFFF AND EQ JUMPDEST SWAP2 POP POP SWAP3 SWAP2 POP POP JUMP JUMPDEST DUP3 PUSH20 0xFFFFFFFFFFFFFFFFFFFFFFFFFFFFFFFFFFFFFFFF AND PUSH2 0x77AC DUP3 PUSH2 0x3D45 JUMP JUMPDEST PUSH20 0xFFFFFFFFFFFFFFFFFFFFFFFFFFFFFFFFFFFFFFFF AND EQ PUSH2 0x7802 JUMPI PUSH1 0x40 MLOAD PUSH32 0x8C379A000000000000000000000000000000000000000000000000000000000 DUP2 MSTORE PUSH1 0x4 ADD PUSH2 0x77F9 SWAP1 PUSH2 0xAF06 JUMP JUMPDEST PUSH1 0x40 MLOAD DUP1 SWAP2 SUB SWAP1 REVERT JUMPDEST PUSH1 0x0 PUSH20 0xFFFFFFFFFFFFFFFFFFFFFFFFFFFFFFFFFFFFFFFF AND DUP3 PUSH20 0xFFFFFFFFFFFFFFFFFFFFFFFFFFFFFFFFFFFFFFFF AND SUB PUSH2 0x7871 JUMPI PUSH1 0x40 MLOAD PUSH32 0x8C379A000000000000000000000000000000000000000000000000000000000 DUP2 MSTORE PUSH1 0x4 ADD PUSH2 0x7868 SWAP1 PUSH2 0xAF98 JUMP JUMPDEST PUSH1 0x40 MLOAD DUP1 SWAP2 SUB SWAP1 REVERT JUMPDEST PUSH2 0x787E DUP4 DUP4 DUP4 PUSH1 0x1 PUSH2 0x803D JUMP JUMPDEST DUP3 PUSH20 0xFFFFFFFFFFFFFFFFFFFFFFFFFFFFFFFFFFFFFFFF AND PUSH2 0x789E DUP3 PUSH2 0x3D45 JUMP JUMPDEST PUSH20 0xFFFFFFFFFFFFFFFFFFFFFFFFFFFFFFFFFFFFFFFF AND EQ PUSH2 0x78F4 JUMPI PUSH1 0x40 MLOAD PUSH32 0x8C379A000000000000000000000000000000000000000000000000000000000 DUP2 MSTORE PUSH1 0x4 ADD PUSH2 0x78EB SWAP1 PUSH2 0xAF06 JUMP JUMPDEST PUSH1 0x40 MLOAD DUP1 SWAP2 SUB SWAP1 REVERT JUMPDEST PUSH1 0x69 PUSH1 0x0 DUP3 DUP2 MSTORE PUSH1 0x20 ADD SWAP1 DUP2 MSTORE PUSH1 0x20 ADD PUSH1 0x0 KECCAK256 PUSH1 0x0 PUSH2 0x100 EXP DUP2 SLOAD SWAP1 PUSH20 0xFFFFFFFFFFFFFFFFFFFFFFFFFFFFFFFFFFFFFFFF MUL NOT AND SWAP1 SSTORE PUSH1 0x1 PUSH1 0x68 PUSH1 0x0 DUP6 PUSH20 0xFFFFFFFFFFFFFFFFFFFFFFFFFFFFFFFFFFFFFFFF AND PUSH20 0xFFFFFFFFFFFFFFFFFFFFFFFFFFFFFFFFFFFFFFFF AND DUP2 MSTORE PUSH1 0x20 ADD SWAP1 DUP2 MSTORE PUSH1 0x20 ADD PUSH1 0x0 KECCAK256 PUSH1 0x0 DUP3 DUP3 SLOAD SUB SWAP3 POP POP DUP2 SWAP1 SSTORE POP PUSH1 0x1 PUSH1 0x68 PUSH1 0x0 DUP5 PUSH20 0xFFFFFFFFFFFFFFFFFFFFFFFFFFFFFFFFFFFFFFFF AND PUSH20 0xFFFFFFFFFFFFFFFFFFFFFFFFFFFFFFFFFFFFFFFF AND DUP2 MSTORE PUSH1 0x20 ADD SWAP1 DUP2 MSTORE PUSH1 0x20 ADD PUSH1 0x0 KECCAK256 PUSH1 0x0 DUP3 DUP3 SLOAD ADD SWAP3 POP POP DUP2 SWAP1 SSTORE POP DUP2 PUSH1 0x67 PUSH1 0x0 DUP4 DUP2 MSTORE PUSH1 0x20 ADD SWAP1 DUP2 MSTORE PUSH1 0x20 ADD PUSH1 0x0 KECCAK256 PUSH1 0x0 PUSH2 0x100 EXP DUP2 SLOAD DUP2 PUSH20 0xFFFFFFFFFFFFFFFFFFFFFFFFFFFFFFFFFFFFFFFF MUL NOT AND SWAP1 DUP4 PUSH20 0xFFFFFFFFFFFFFFFFFFFFFFFFFFFFFFFFFFFFFFFF AND MUL OR SWAP1 SSTORE POP DUP1 DUP3 PUSH20 0xFFFFFFFFFFFFFFFFFFFFFFFFFFFFFFFFFFFFFFFF AND DUP5 PUSH20 0xFFFFFFFFFFFFFFFFFFFFFFFFFFFFFFFFFFFFFFFF AND PUSH32 0xDDF252AD1BE2C89B69C2B068FC378DAA952BA7F163C4A11628F55A4DF523B3EF PUSH1 0x40 MLOAD PUSH1 0x40 MLOAD DUP1 SWAP2 SUB SWAP1 LOG4 PUSH2 0x7A80 DUP4 DUP4 DUP4 PUSH1 0x1 PUSH2 0x8043 JUMP JUMPDEST POP POP POP JUMP JUMPDEST PUSH1 0x0 PUSH1 0x67 PUSH1 0x0 DUP4 DUP2 MSTORE PUSH1 0x20 ADD SWAP1 DUP2 MSTORE PUSH1 0x20 ADD PUSH1 0x0 KECCAK256 PUSH1 0x0 SWAP1 SLOAD SWAP1 PUSH2 0x100 EXP SWAP1 DIV PUSH20 0xFFFFFFFFFFFFFFFFFFFFFFFFFFFFFFFFFFFFFFFF AND SWAP1 POP SWAP2 SWAP1 POP JUMP JUMPDEST PUSH1 0x0 PUSH1 0x97 PUSH1 0x0 SWAP1 SLOAD SWAP1 PUSH2 0x100 EXP SWAP1 DIV PUSH20 0xFFFFFFFFFFFFFFFFFFFFFFFFFFFFFFFFFFFFFFFF AND SWAP1 POP DUP2 PUSH1 0x97 PUSH1 0x0 PUSH2 0x100 EXP DUP2 SLOAD DUP2 PUSH20 0xFFFFFFFFFFFFFFFFFFFFFFFFFFFFFFFFFFFFFFFF MUL NOT AND SWAP1 DUP4 PUSH20 0xFFFFFFFFFFFFFFFFFFFFFFFFFFFFFFFFFFFFFFFF AND MUL OR SWAP1 SSTORE POP DUP2 PUSH20 0xFFFFFFFFFFFFFFFFFFFFFFFFFFFFFFFFFFFFFFFF AND DUP2 PUSH20 0xFFFFFFFFFFFFFFFFFFFFFFFFFFFFFFFFFFFFFFFF AND PUSH32 0x8BE0079C531659141344CD1FD0A4F28419497F9722A3DAAFE3B4186F6B6457E0 PUSH1 0x40 MLOAD PUSH1 0x40 MLOAD DUP1 SWAP2 SUB SWAP1 LOG3 POP POP JUMP JUMPDEST PUSH1 0x0 DUP1 DUP3 PUSH20 0xFFFFFFFFFFFFFFFFFFFFFFFFFFFFFFFFFFFFFFFF AND EXTCODESIZE GT SWAP1 POP SWAP2 SWAP1 POP JUMP JUMPDEST PUSH1 0x0 PUSH1 0x1 SWAP1 SLOAD SWAP1 PUSH2 0x100 EXP SWAP1 DIV PUSH1 0xFF AND PUSH2 0x7BFA JUMPI PUSH1 0x40 MLOAD PUSH32 0x8C379A000000000000000000000000000000000000000000000000000000000 DUP2 MSTORE PUSH1 0x4 ADD PUSH2 0x7BF1 SWAP1 PUSH2 0xB02A JUMP JUMPDEST PUSH1 0x40 MLOAD DUP1 SWAP2 SUB SWAP1 REVERT JUMPDEST PUSH2 0x7C04 DUP3 DUP3 PUSH2 0x8049 JUMP JUMPDEST POP POP JUMP JUMPDEST PUSH1 0x0 PUSH1 0x1 SWAP1 SLOAD SWAP1 PUSH2 0x100 EXP SWAP1 DIV PUSH1 0xFF AND PUSH2 0x7C57 JUMPI PUSH1 0x40 MLOAD PUSH32 0x8C379A000000000000000000000000000000000000000000000000000000000 DUP2 MSTORE PUSH1 0x4 ADD PUSH2 0x7C4E SWAP1 PUSH2 0xB02A JUMP JUMPDEST PUSH1 0x40 MLOAD DUP1 SWAP2 SUB SWAP1 REVERT JUMPDEST PUSH2 0x7C5F PUSH2 0x80BC JUMP JUMPDEST JUMP JUMPDEST PUSH1 0x0 PUSH1 0x1 SWAP1 SLOAD SWAP1 PUSH2 0x100 EXP SWAP1 DIV PUSH1 0xFF AND PUSH2 0x7CB0 JUMPI PUSH1 0x40 MLOAD PUSH32 0x8C379A000000000000000000000000000000000000000000000000000000000 DUP2 MSTORE PUSH1 0x4 ADD PUSH2 0x7CA7 SWAP1 PUSH2 0xB02A JUMP JUMPDEST PUSH1 0x40 MLOAD DUP1 SWAP2 SUB SWAP1 REVERT JUMPDEST PUSH2 0x7CB8 PUSH2 0x811D JUMP JUMPDEST JUMP JUMPDEST PUSH2 0x7CC5 DUP5 DUP5 DUP5 PUSH2 0x778C JUMP JUMPDEST PUSH2 0x7CD1 DUP5 DUP5 DUP5 DUP5 PUSH2 0x8176 JUMP JUMPDEST PUSH2 0x7D10 JUMPI PUSH1 0x40 MLOAD PUSH32 0x8C379A000000000000000000000000000000000000000000000000000000000 DUP2 MSTORE PUSH1 0x4 ADD PUSH2 0x7D07 SWAP1 PUSH2 0xB0BC JUMP JUMPDEST PUSH1 0x40 MLOAD DUP1 SWAP2 SUB SWAP1 REVERT JUMPDEST POP POP POP POP JUMP JUMPDEST DUP2 PUSH20 0xFFFFFFFFFFFFFFFFFFFFFFFFFFFFFFFFFFFFFFFF AND DUP4 PUSH20 0xFFFFFFFFFFFFFFFFFFFFFFFFFFFFFFFFFFFFFFFF AND SUB PUSH2 0x7D84 JUMPI PUSH1 0x40 MLOAD PUSH32 0x8C379A000000000000000000000000000000000000000000000000000000000 DUP2 MSTORE PUSH1 0x4 ADD PUSH2 0x7D7B SWAP1 PUSH2 0xB128 JUMP JUMPDEST PUSH1 0x40 MLOAD DUP1 SWAP2 SUB SWAP1 REVERT JUMPDEST DUP1 PUSH1 0x6A PUSH1 0x0 DUP6 PUSH20 0xFFFFFFFFFFFFFFFFFFFFFFFFFFFFFFFFFFFFFFFF AND PUSH20 0xFFFFFFFFFFFFFFFFFFFFFFFFFFFFFFFFFFFFFFFF AND DUP2 MSTORE PUSH1 0x20 ADD SWAP1 DUP2 MSTORE PUSH1 0x20 ADD PUSH1 0x0 KECCAK256 PUSH1 0x0 DUP5 PUSH20 0xFFFFFFFFFFFFFFFFFFFFFFFFFFFFFFFFFFFFFFFF AND PUSH20 0xFFFFFFFFFFFFFFFFFFFFFFFFFFFFFFFFFFFFFFFF AND DUP2 MSTORE PUSH1 0x20 ADD SWAP1 DUP2 MSTORE PUSH1 0x20 ADD PUSH1 0x0 KECCAK256 PUSH1 0x0 PUSH2 0x100 EXP DUP2 SLOAD DUP2 PUSH1 0xFF MUL NOT AND SWAP1 DUP4 ISZERO ISZERO MUL OR SWAP1 SSTORE POP DUP2 PUSH20 0xFFFFFFFFFFFFFFFFFFFFFFFFFFFFFFFFFFFFFFFF AND DUP4 PUSH20 0xFFFFFFFFFFFFFFFFFFFFFFFFFFFFFFFFFFFFFFFF AND PUSH32 0x17307EAB39AB6107E8899845AD3D59BD9653F200F220920489CA2B5937696C31 DUP4 PUSH1 0x40 MLOAD PUSH2 0x7E75 SWAP2 SWAP1 PUSH2 0x877D JUMP JUMPDEST PUSH1 0x40 MLOAD DUP1 SWAP2 SUB SWAP1 LOG3 POP POP POP JUMP JUMPDEST PUSH1 0x0 DUP1 PUSH20 0xFFFFFFFFFFFFFFFFFFFFFFFFFFFFFFFFFFFFFFFF AND PUSH2 0x7EA4 DUP4 PUSH2 0x7A85 JUMP JUMPDEST PUSH20 0xFFFFFFFFFFFFFFFFFFFFFFFFFFFFFFFFFFFFFFFF AND EQ ISZERO SWAP1 POP SWAP2 SWAP1 POP JUMP JUMPDEST PUSH1 0x60 PUSH1 0x0 PUSH1 0x1 PUSH2 0x7ED2 DUP5 PUSH2 0x82FD JUMP JUMPDEST ADD SWAP1 POP PUSH1 0x0 DUP2 PUSH8 0xFFFFFFFFFFFFFFFF DUP2 GT ISZERO PUSH2 0x7EF1 JUMPI PUSH2 0x7EF0 PUSH2 0x87D2 JUMP JUMPDEST JUMPDEST PUSH1 0x40 MLOAD SWAP1 DUP1 DUP3 MSTORE DUP1 PUSH1 0x1F ADD PUSH1 0x1F NOT AND PUSH1 0x20 ADD DUP3 ADD PUSH1 0x40 MSTORE DUP1 ISZERO PUSH2 0x7F23 JUMPI DUP2 PUSH1 0x20 ADD PUSH1 0x1 DUP3 MUL DUP1 CALLDATASIZE DUP4 CALLDATACOPY DUP1 DUP3 ADD SWAP2 POP POP SWAP1 POP JUMPDEST POP SWAP1 POP PUSH1 0x0 DUP3 PUSH1 0x20 ADD DUP3 ADD SWAP1 POP JUMPDEST PUSH1 0x1 ISZERO PUSH2 0x7F86 JUMPI DUP1 DUP1 PUSH1 0x1 SWAP1 SUB SWAP2 POP POP PUSH32 0x3031323334353637383961626364656600000000000000000000000000000000 PUSH1 0xA DUP7 MOD BYTE DUP2 MSTORE8 PUSH1 0xA DUP6 DUP2 PUSH2 0x7F7A JUMPI PUSH2 0x7F79 PUSH2 0xA3D1 JUMP JUMPDEST JUMPDEST DIV SWAP5 POP PUSH1 0x0 DUP6 SUB PUSH2 0x7F31 JUMPI JUMPDEST DUP2 SWAP4 POP POP POP POP SWAP2 SWAP1 POP JUMP JUMPDEST PUSH1 0x0 DUP1 PUSH1 0x41 DUP4 MLOAD SUB PUSH2 0x7FD2 JUMPI PUSH1 0x0 DUP1 PUSH1 0x0 PUSH1 0x20 DUP7 ADD MLOAD SWAP3 POP PUSH1 0x40 DUP7 ADD MLOAD SWAP2 POP PUSH1 0x60 DUP7 ADD MLOAD PUSH1 0x0 BYTE SWAP1 POP PUSH2 0x7FC6 DUP8 DUP3 DUP6 DUP6 PUSH2 0x8450 JUMP JUMPDEST SWAP5 POP SWAP5 POP POP POP POP PUSH2 0x7FDB JUMP JUMPDEST PUSH1 0x0 PUSH1 0x2 SWAP2 POP SWAP2 POP JUMPDEST SWAP3 POP SWAP3 SWAP1 POP JUMP JUMPDEST PUSH2 0x7FEC DUP4 DUP4 PUSH2 0x74DA JUMP JUMPDEST PUSH2 0x7FF9 PUSH1 0x0 DUP5 DUP5 DUP5 PUSH2 0x8176 JUMP JUMPDEST PUSH2 0x8038 JUMPI PUSH1 0x40 MLOAD PUSH32 0x8C379A000000000000000000000000000000000000000000000000000000000 DUP2 MSTORE PUSH1 0x4 ADD PUSH2 0x802F SWAP1 PUSH2 0xB0BC JUMP JUMPDEST PUSH1 0x40 MLOAD DUP1 SWAP2 SUB SWAP1 REVERT JUMPDEST POP POP POP JUMP JUMPDEST POP POP POP POP JUMP JUMPDEST POP POP POP POP JUMP JUMPDEST PUSH1 0x0 PUSH1 0x1 SWAP1 SLOAD SWAP1 PUSH2 0x100 EXP SWAP1 DIV PUSH1 0xFF AND PUSH2 0x8098 JUMPI PUSH1 0x40 MLOAD PUSH32 0x8C379A000000000000000000000000000000000000000000000000000000000 DUP2 MSTORE PUSH1 0x4 ADD PUSH2 0x808F SWAP1 PUSH2 0xB02A JUMP JUMPDEST PUSH1 0x40 MLOAD DUP1 SWAP2 SUB SWAP1 REVERT JUMPDEST DUP2 PUSH1 0x65 SWAP1 DUP2 PUSH2 0x80A7 SWAP2 SWAP1 PUSH2 0x9AE3 JUMP JUMPDEST POP DUP1 PUSH1 0x66 SWAP1 DUP2 PUSH2 0x80B7 SWAP2 SWAP1 PUSH2 0x9AE3 JUMP JUMPDEST POP POP POP JUMP JUMPDEST PUSH1 0x0 PUSH1 0x1 SWAP1 SLOAD SWAP1 PUSH2 0x100 EXP SWAP1 DIV PUSH1 0xFF AND PUSH2 0x810B JUMPI PUSH1 0x40 MLOAD PUSH32 0x8C379A000000000000000000000000000000000000000000000000000000000 DUP2 MSTORE PUSH1 0x4 ADD PUSH2 0x8102 SWAP1 PUSH2 0xB02A JUMP JUMPDEST PUSH1 0x40 MLOAD DUP1 SWAP2 SUB SWAP1 REVERT JUMPDEST PUSH2 0x811B PUSH2 0x8116 PUSH2 0x7419 JUMP JUMPDEST PUSH2 0x7AC2 JUMP JUMPDEST JUMP JUMPDEST PUSH1 0x0 PUSH1 0x1 SWAP1 SLOAD SWAP1 PUSH2 0x100 EXP SWAP1 DIV PUSH1 0xFF AND PUSH2 0x816C JUMPI PUSH1 0x40 MLOAD PUSH32 0x8C379A000000000000000000000000000000000000000000000000000000000 DUP2 MSTORE PUSH1 0x4 ADD PUSH2 0x8163 SWAP1 PUSH2 0xB02A JUMP JUMPDEST PUSH1 0x40 MLOAD DUP1 SWAP2 SUB SWAP1 REVERT JUMPDEST PUSH1 0x1 PUSH1 0xC9 DUP2 SWAP1 SSTORE POP JUMP JUMPDEST PUSH1 0x0 PUSH2 0x8197 DUP5 PUSH20 0xFFFFFFFFFFFFFFFFFFFFFFFFFFFFFFFFFFFFFFFF AND PUSH2 0x7B88 JUMP JUMPDEST ISZERO PUSH2 0x82F0 JUMPI DUP4 PUSH20 0xFFFFFFFFFFFFFFFFFFFFFFFFFFFFFFFFFFFFFFFF AND PUSH4 0x150B7A02 PUSH2 0x81C0 PUSH2 0x7419 JUMP JUMPDEST DUP8 DUP7 DUP7 PUSH1 0x40 MLOAD DUP6 PUSH4 0xFFFFFFFF AND PUSH1 0xE0 SHL DUP2 MSTORE PUSH1 0x4 ADD PUSH2 0x81E2 SWAP5 SWAP4 SWAP3 SWAP2 SWAP1 PUSH2 0xB148 JUMP JUMPDEST PUSH1 0x20 PUSH1 0x40 MLOAD DUP1 DUP4 SUB DUP2 PUSH1 0x0 DUP8 GAS CALL SWAP3 POP POP POP DUP1 ISZERO PUSH2 0x821E JUMPI POP PUSH1 0x40 MLOAD RETURNDATASIZE PUSH1 0x1F NOT PUSH1 0x1F DUP3 ADD AND DUP3 ADD DUP1 PUSH1 0x40 MSTORE POP DUP2 ADD SWAP1 PUSH2 0x821B SWAP2 SWAP1 PUSH2 0xB1A9 JUMP JUMPDEST PUSH1 0x1 JUMPDEST PUSH2 0x82A0 JUMPI RETURNDATASIZE DUP1 PUSH1 0x0 DUP2 EQ PUSH2 0x824E JUMPI PUSH1 0x40 MLOAD SWAP2 POP PUSH1 0x1F NOT PUSH1 0x3F RETURNDATASIZE ADD AND DUP3 ADD PUSH1 0x40 MSTORE RETURNDATASIZE DUP3 MSTORE RETURNDATASIZE PUSH1 0x0 PUSH1 0x20 DUP5 ADD RETURNDATACOPY PUSH2 0x8253 JUMP JUMPDEST PUSH1 0x60 SWAP2 POP JUMPDEST POP PUSH1 0x0 DUP2 MLOAD SUB PUSH2 0x8298 JUMPI PUSH1 0x40 MLOAD PUSH32 0x8C379A000000000000000000000000000000000000000000000000000000000 DUP2 MSTORE PUSH1 0x4 ADD PUSH2 0x828F SWAP1 PUSH2 0xB0BC JUMP JUMPDEST PUSH1 0x40 MLOAD DUP1 SWAP2 SUB SWAP1 REVERT JUMPDEST DUP1 MLOAD DUP2 PUSH1 0x20 ADD REVERT JUMPDEST PUSH4 0x150B7A02 PUSH1 0xE0 SHL PUSH28 0xFFFFFFFFFFFFFFFFFFFFFFFFFFFFFFFFFFFFFFFFFFFFFFFFFFFFFFFF NOT AND DUP2 PUSH28 0xFFFFFFFFFFFFFFFFFFFFFFFFFFFFFFFFFFFFFFFFFFFFFFFFFFFFFFFF NOT AND EQ SWAP2 POP POP PUSH2 0x82F5 JUMP JUMPDEST PUSH1 0x1 SWAP1 POP JUMPDEST SWAP5 SWAP4 POP POP POP POP JUMP JUMPDEST PUSH1 0x0 DUP1 PUSH1 0x0 SWAP1 POP PUSH27 0x184F03E93FF9F4DAA797ED6E38ED64BF6A1F010000000000000000 DUP4 LT PUSH2 0x835B JUMPI PUSH27 0x184F03E93FF9F4DAA797ED6E38ED64BF6A1F010000000000000000 DUP4 DUP2 PUSH2 0x8351 JUMPI PUSH2 0x8350 PUSH2 0xA3D1 JUMP JUMPDEST JUMPDEST DIV SWAP3 POP PUSH1 0x40 DUP2 ADD SWAP1 POP JUMPDEST PUSH14 0x4EE2D6D415B85ACEF8100000000 DUP4 LT PUSH2 0x8398 JUMPI PUSH14 0x4EE2D6D415B85ACEF8100000000 DUP4 DUP2 PUSH2 0x838E JUMPI PUSH2 0x838D PUSH2 0xA3D1 JUMP JUMPDEST JUMPDEST DIV SWAP3 POP PUSH1 0x20 DUP2 ADD SWAP1 POP JUMPDEST PUSH7 0x2386F26FC10000 DUP4 LT PUSH2 0x83C7 JUMPI PUSH7 0x2386F26FC10000 DUP4 DUP2 PUSH2 0x83BD JUMPI PUSH2 0x83BC PUSH2 0xA3D1 JUMP JUMPDEST JUMPDEST DIV SWAP3 POP PUSH1 0x10 DUP2 ADD SWAP1 POP JUMPDEST PUSH4 0x5F5E100 DUP4 LT PUSH2 0x83F0 JUMPI PUSH4 0x5F5E100 DUP4 DUP2 PUSH2 0x83E6 JUMPI PUSH2 0x83E5 PUSH2 0xA3D1 JUMP JUMPDEST JUMPDEST DIV SWAP3 POP PUSH1 0x8 DUP2 ADD SWAP1 POP JUMPDEST PUSH2 0x2710 DUP4 LT PUSH2 0x8415 JUMPI PUSH2 0x2710 DUP4 DUP2 PUSH2 0x840B JUMPI PUSH2 0x840A PUSH2 0xA3D1 JUMP JUMPDEST JUMPDEST DIV SWAP3 POP PUSH1 0x4 DUP2 ADD SWAP1 POP JUMPDEST PUSH1 0x64 DUP4 LT PUSH2 0x8438 JUMPI PUSH1 0x64 DUP4 DUP2 PUSH2 0x842E JUMPI PUSH2 0x842D PUSH2 0xA3D1 JUMP JUMPDEST JUMPDEST DIV SWAP3 POP PUSH1 0x2 DUP2 ADD SWAP1 POP JUMPDEST PUSH1 0xA DUP4 LT PUSH2 0x8447 JUMPI PUSH1 0x1 DUP2 ADD SWAP1 POP JUMPDEST DUP1 SWAP2 POP POP SWAP2 SWAP1 POP JUMP JUMPDEST PUSH1 0x0 DUP1 PUSH32 0x7FFFFFFFFFFFFFFFFFFFFFFFFFFFFFFF5D576E7357A4501DDFE92F46681B20A0 DUP4 PUSH1 0x0 SHR GT ISZERO PUSH2 0x848B JUMPI PUSH1 0x0 PUSH1 0x3 SWAP2 POP SWAP2 POP PUSH2 0x8529 JUMP JUMPDEST PUSH1 0x0 PUSH1 0x1 DUP8 DUP8 DUP8 DUP8 PUSH1 0x40 MLOAD PUSH1 0x0 DUP2 MSTORE PUSH1 0x20 ADD PUSH1 0x40 MSTORE PUSH1 0x40 MLOAD PUSH2 0x84B0 SWAP5 SWAP4 SWAP3 SWAP2 SWAP1 PUSH2 0xB1E5 JUMP JUMPDEST PUSH1 0x20 PUSH1 0x40 MLOAD PUSH1 0x20 DUP2 SUB SWAP1 DUP1 DUP5 SUB SWAP1 DUP6 GAS STATICCALL ISZERO DUP1 ISZERO PUSH2 0x84D2 JUMPI RETURNDATASIZE PUSH1 0x0 DUP1 RETURNDATACOPY RETURNDATASIZE PUSH1 0x0 REVERT JUMPDEST POP POP POP PUSH1 0x20 PUSH1 0x40 MLOAD SUB MLOAD SWAP1 POP PUSH1 0x0 PUSH20 0xFFFFFFFFFFFFFFFFFFFFFFFFFFFFFFFFFFFFFFFF AND DUP2 PUSH20 0xFFFFFFFFFFFFFFFFFFFFFFFFFFFFFFFFFFFFFFFF AND SUB PUSH2 0x8520 JUMPI PUSH1 0x0 PUSH1 0x1 SWAP3 POP SWAP3 POP POP PUSH2 0x8529 JUMP JUMPDEST DUP1 PUSH1 0x0 SWAP3 POP SWAP3 POP POP JUMPDEST SWAP5 POP SWAP5 SWAP3 POP POP POP JUMP JUMPDEST PUSH1 0x0 PUSH1 0x40 MLOAD SWAP1 POP SWAP1 JUMP JUMPDEST PUSH1 0x0 DUP1 REVERT JUMPDEST PUSH1 0x0 DUP1 REVERT JUMPDEST PUSH1 0x0 DUP2 SWAP1 POP SWAP2 SWAP1 POP JUMP JUMPDEST PUSH2 0x8559 DUP2 PUSH2 0x8546 JUMP JUMPDEST DUP2 EQ PUSH2 0x8564 JUMPI PUSH1 0x0 DUP1 REVERT JUMPDEST POP JUMP JUMPDEST PUSH1 0x0 DUP2 CALLDATALOAD SWAP1 POP PUSH2 0x8576 DUP2 PUSH2 0x8550 JUMP JUMPDEST SWAP3 SWAP2 POP POP JUMP JUMPDEST PUSH1 0x0 DUP1 REVERT JUMPDEST PUSH1 0x0 DUP1 REVERT JUMPDEST PUSH1 0x0 DUP1 REVERT JUMPDEST PUSH1 0x0 DUP1 DUP4 PUSH1 0x1F DUP5 ADD SLT PUSH2 0x85A1 JUMPI PUSH2 0x85A0 PUSH2 0x857C JUMP JUMPDEST JUMPDEST DUP3 CALLDATALOAD SWAP1 POP PUSH8 0xFFFFFFFFFFFFFFFF DUP2 GT ISZERO PUSH2 0x85BE JUMPI PUSH2 0x85BD PUSH2 0x8581 JUMP JUMPDEST JUMPDEST PUSH1 0x20 DUP4 ADD SWAP2 POP DUP4 PUSH1 0x20 DUP3 MUL DUP4 ADD GT ISZERO PUSH2 0x85DA JUMPI PUSH2 0x85D9 PUSH2 0x8586 JUMP JUMPDEST JUMPDEST SWAP3 POP SWAP3 SWAP1 POP JUMP JUMPDEST PUSH1 0x0 DUP1 PUSH1 0x0 DUP1 PUSH1 0x0 DUP1 PUSH1 0x0 DUP1 PUSH1 0x0 PUSH1 0xA0 DUP11 DUP13 SUB SLT ISZERO PUSH2 0x8603 JUMPI PUSH2 0x8602 PUSH2 0x853C JUMP JUMPDEST JUMPDEST PUSH1 0x0 PUSH2 0x8611 DUP13 DUP3 DUP14 ADD PUSH2 0x8567 JUMP JUMPDEST SWAP10 POP POP PUSH1 0x20 DUP11 ADD CALLDATALOAD PUSH8 0xFFFFFFFFFFFFFFFF DUP2 GT ISZERO PUSH2 0x8632 JUMPI PUSH2 0x8631 PUSH2 0x8541 JUMP JUMPDEST JUMPDEST PUSH2 0x863E DUP13 DUP3 DUP14 ADD PUSH2 0x858B JUMP JUMPDEST SWAP9 POP SWAP9 POP POP PUSH1 0x40 DUP11 ADD CALLDATALOAD PUSH8 0xFFFFFFFFFFFFFFFF DUP2 GT ISZERO PUSH2 0x8661 JUMPI PUSH2 0x8660 PUSH2 0x8541 JUMP JUMPDEST JUMPDEST PUSH2 0x866D DUP13 DUP3 DUP14 ADD PUSH2 0x858B JUMP JUMPDEST SWAP7 POP SWAP7 POP POP PUSH1 0x60 DUP11 ADD CALLDATALOAD PUSH8 0xFFFFFFFFFFFFFFFF DUP2 GT ISZERO PUSH2 0x8690 JUMPI PUSH2 0x868F PUSH2 0x8541 JUMP JUMPDEST JUMPDEST PUSH2 0x869C DUP13 DUP3 DUP14 ADD PUSH2 0x858B JUMP JUMPDEST SWAP5 POP SWAP5 POP POP PUSH1 0x80 DUP11 ADD CALLDATALOAD PUSH8 0xFFFFFFFFFFFFFFFF DUP2 GT ISZERO PUSH2 0x86BF JUMPI PUSH2 0x86BE PUSH2 0x8541 JUMP JUMPDEST JUMPDEST PUSH2 0x86CB DUP13 DUP3 DUP14 ADD PUSH2 0x858B JUMP JUMPDEST SWAP3 POP SWAP3 POP POP SWAP3 SWAP6 SWAP9 POP SWAP3 SWAP6 SWAP9 POP SWAP3 SWAP6 SWAP9 JUMP JUMPDEST PUSH1 0x0 PUSH32 0xFFFFFFFF00000000000000000000000000000000000000000000000000000000 DUP3 AND SWAP1 POP SWAP2 SWAP1 POP JUMP JUMPDEST PUSH2 0x8712 DUP2 PUSH2 0x86DD JUMP JUMPDEST DUP2 EQ PUSH2 0x871D JUMPI PUSH1 0x0 DUP1 REVERT JUMPDEST POP JUMP JUMPDEST PUSH1 0x0 DUP2 CALLDATALOAD SWAP1 POP PUSH2 0x872F DUP2 PUSH2 0x8709 JUMP JUMPDEST SWAP3 SWAP2 POP POP JUMP JUMPDEST PUSH1 0x0 PUSH1 0x20 DUP3 DUP5 SUB SLT ISZERO PUSH2 0x874B JUMPI PUSH2 0x874A PUSH2 0x853C JUMP JUMPDEST JUMPDEST PUSH1 0x0 PUSH2 0x8759 DUP5 DUP3 DUP6 ADD PUSH2 0x8720 JUMP JUMPDEST SWAP2 POP POP SWAP3 SWAP2 POP POP JUMP JUMPDEST PUSH1 0x0 DUP2 ISZERO ISZERO SWAP1 POP SWAP2 SWAP1 POP JUMP JUMPDEST PUSH2 0x8777 DUP2 PUSH2 0x8762 JUMP JUMPDEST DUP3 MSTORE POP POP JUMP JUMPDEST PUSH1 0x0 PUSH1 0x20 DUP3 ADD SWAP1 POP PUSH2 0x8792 PUSH1 0x0 DUP4 ADD DUP5 PUSH2 0x876E JUMP JUMPDEST SWAP3 SWAP2 POP POP JUMP JUMPDEST PUSH1 0x0 DUP1 REVERT JUMPDEST PUSH1 0x0 PUSH1 0x80 DUP3 DUP5 SUB SLT ISZERO PUSH2 0x87B3 JUMPI PUSH2 0x87B2 PUSH2 0x8798 JUMP JUMPDEST JUMPDEST DUP2 SWAP1 POP SWAP3 SWAP2 POP POP JUMP JUMPDEST PUSH1 0x0 DUP1 REVERT JUMPDEST PUSH1 0x0 PUSH1 0x1F NOT PUSH1 0x1F DUP4 ADD AND SWAP1 POP SWAP2 SWAP1 POP JUMP JUMPDEST PUSH32 0x4E487B7100000000000000000000000000000000000000000000000000000000 PUSH1 0x0 MSTORE PUSH1 0x41 PUSH1 0x4 MSTORE PUSH1 0x24 PUSH1 0x0 REVERT JUMPDEST PUSH2 0x880A DUP3 PUSH2 0x87C1 JUMP JUMPDEST DUP2 ADD DUP2 DUP2 LT PUSH8 0xFFFFFFFFFFFFFFFF DUP3 GT OR ISZERO PUSH2 0x8829 JUMPI PUSH2 0x8828 PUSH2 0x87D2 JUMP JUMPDEST JUMPDEST DUP1 PUSH1 0x40 MSTORE POP POP POP JUMP JUMPDEST PUSH1 0x0 PUSH2 0x883C PUSH2 0x8532 JUMP JUMPDEST SWAP1 POP PUSH2 0x8848 DUP3 DUP3 PUSH2 0x8801 JUMP JUMPDEST SWAP2 SWAP1 POP JUMP JUMPDEST PUSH1 0x0 PUSH8 0xFFFFFFFFFFFFFFFF DUP3 GT ISZERO PUSH2 0x8868 JUMPI PUSH2 0x8867 PUSH2 0x87D2 JUMP JUMPDEST JUMPDEST PUSH2 0x8871 DUP3 PUSH2 0x87C1 JUMP JUMPDEST SWAP1 POP PUSH1 0x20 DUP2 ADD SWAP1 POP SWAP2 SWAP1 POP JUMP JUMPDEST DUP3 DUP2 DUP4 CALLDATACOPY PUSH1 0x0 DUP4 DUP4 ADD MSTORE POP POP POP JUMP JUMPDEST PUSH1 0x0 PUSH2 0x88A0 PUSH2 0x889B DUP5 PUSH2 0x884D JUMP JUMPDEST PUSH2 0x8832 JUMP JUMPDEST SWAP1 POP DUP3 DUP2 MSTORE PUSH1 0x20 DUP2 ADD DUP5 DUP5 DUP5 ADD GT ISZERO PUSH2 0x88BC JUMPI PUSH2 0x88BB PUSH2 0x87BC JUMP JUMPDEST JUMPDEST PUSH2 0x88C7 DUP5 DUP3 DUP6 PUSH2 0x887E JUMP JUMPDEST POP SWAP4 SWAP3 POP POP POP JUMP JUMPDEST PUSH1 0x0 DUP3 PUSH1 0x1F DUP4 ADD SLT PUSH2 0x88E4 JUMPI PUSH2 0x88E3 PUSH2 0x857C JUMP JUMPDEST JUMPDEST DUP2 CALLDATALOAD PUSH2 0x88F4 DUP5 DUP3 PUSH1 0x20 DUP7 ADD PUSH2 0x888D JUMP JUMPDEST SWAP2 POP POP SWAP3 SWAP2 POP POP JUMP JUMPDEST PUSH2 0x8906 DUP2 PUSH2 0x8762 JUMP JUMPDEST DUP2 EQ PUSH2 0x8911 JUMPI PUSH1 0x0 DUP1 REVERT JUMPDEST POP JUMP JUMPDEST PUSH1 0x0 DUP2 CALLDATALOAD SWAP1 POP PUSH2 0x8923 DUP2 PUSH2 0x88FD JUMP JUMPDEST SWAP3 SWAP2 POP POP JUMP JUMPDEST PUSH1 0x0 DUP1 PUSH1 0x0 PUSH1 0xC0 DUP5 DUP7 SUB SLT ISZERO PUSH2 0x8942 JUMPI PUSH2 0x8941 PUSH2 0x853C JUMP JUMPDEST JUMPDEST PUSH1 0x0 PUSH2 0x8950 DUP7 DUP3 DUP8 ADD PUSH2 0x879D JUMP JUMPDEST SWAP4 POP POP PUSH1 0x80 DUP5 ADD CALLDATALOAD PUSH8 0xFFFFFFFFFFFFFFFF DUP2 GT ISZERO PUSH2 0x8971 JUMPI PUSH2 0x8970 PUSH2 0x8541 JUMP JUMPDEST JUMPDEST PUSH2 0x897D DUP7 DUP3 DUP8 ADD PUSH2 0x88CF JUMP JUMPDEST SWAP3 POP POP PUSH1 0xA0 PUSH2 0x898E DUP7 DUP3 DUP8 ADD PUSH2 0x8914 JUMP JUMPDEST SWAP2 POP POP SWAP3 POP SWAP3 POP SWAP3 JUMP JUMPDEST PUSH1 0x0 DUP2 MLOAD SWAP1 POP SWAP2 SWAP1 POP JUMP JUMPDEST PUSH1 0x0 DUP3 DUP3 MSTORE PUSH1 0x20 DUP3 ADD SWAP1 POP SWAP3 SWAP2 POP POP JUMP JUMPDEST PUSH1 0x0 JUMPDEST DUP4 DUP2 LT ISZERO PUSH2 0x89D2 JUMPI DUP1 DUP3 ADD MLOAD DUP2 DUP5 ADD MSTORE PUSH1 0x20 DUP2 ADD SWAP1 POP PUSH2 0x89B7 JUMP JUMPDEST PUSH1 0x0 DUP5 DUP5 ADD MSTORE POP POP POP POP JUMP JUMPDEST PUSH1 0x0 PUSH2 0x89E9 DUP3 PUSH2 0x8998 JUMP JUMPDEST PUSH2 0x89F3 DUP2 DUP6 PUSH2 0x89A3 JUMP JUMPDEST SWAP4 POP PUSH2 0x8A03 DUP2 DUP6 PUSH1 0x20 DUP7 ADD PUSH2 0x89B4 JUMP JUMPDEST PUSH2 0x8A0C DUP2 PUSH2 0x87C1 JUMP JUMPDEST DUP5 ADD SWAP2 POP POP SWAP3 SWAP2 POP POP JUMP JUMPDEST PUSH1 0x0 PUSH1 0x20 DUP3 ADD SWAP1 POP DUP2 DUP2 SUB PUSH1 0x0 DUP4 ADD MSTORE PUSH2 0x8A31 DUP2 DUP5 PUSH2 0x89DE JUMP JUMPDEST SWAP1 POP SWAP3 SWAP2 POP POP JUMP JUMPDEST PUSH1 0x0 PUSH1 0x20 DUP3 DUP5 SUB SLT ISZERO PUSH2 0x8A4F JUMPI PUSH2 0x8A4E PUSH2 0x853C JUMP JUMPDEST JUMPDEST PUSH1 0x0 PUSH2 0x8A5D DUP5 DUP3 DUP6 ADD PUSH2 0x8567 JUMP JUMPDEST SWAP2 POP POP SWAP3 SWAP2 POP POP JUMP JUMPDEST PUSH1 0x0 PUSH20 0xFFFFFFFFFFFFFFFFFFFFFFFFFFFFFFFFFFFFFFFF DUP3 AND SWAP1 POP SWAP2 SWAP1 POP JUMP JUMPDEST PUSH1 0x0 PUSH2 0x8A91 DUP3 PUSH2 0x8A66 JUMP JUMPDEST SWAP1 POP SWAP2 SWAP1 POP JUMP JUMPDEST PUSH2 0x8AA1 DUP2 PUSH2 0x8A86 JUMP JUMPDEST DUP3 MSTORE POP POP JUMP JUMPDEST PUSH1 0x0 PUSH1 0x20 DUP3 ADD SWAP1 POP PUSH2 0x8ABC PUSH1 0x0 DUP4 ADD DUP5 PUSH2 0x8A98 JUMP JUMPDEST SWAP3 SWAP2 POP POP JUMP JUMPDEST PUSH2 0x8ACB DUP2 PUSH2 0x8A86 JUMP JUMPDEST DUP2 EQ PUSH2 0x8AD6 JUMPI PUSH1 0x0 DUP1 REVERT JUMPDEST POP JUMP JUMPDEST PUSH1 0x0 DUP2 CALLDATALOAD SWAP1 POP PUSH2 0x8AE8 DUP2 PUSH2 0x8AC2 JUMP JUMPDEST SWAP3 SWAP2 POP POP JUMP JUMPDEST PUSH1 0x0 DUP1 PUSH1 0x40 DUP4 DUP6 SUB SLT ISZERO PUSH2 0x8B05 JUMPI PUSH2 0x8B04 PUSH2 0x853C JUMP JUMPDEST JUMPDEST PUSH1 0x0 PUSH2 0x8B13 DUP6 DUP3 DUP7 ADD PUSH2 0x8AD9 JUMP JUMPDEST SWAP3 POP POP PUSH1 0x20 PUSH2 0x8B24 DUP6 DUP3 DUP7 ADD PUSH2 0x8567 JUMP JUMPDEST SWAP2 POP POP SWAP3 POP SWAP3 SWAP1 POP JUMP JUMPDEST PUSH2 0x8B37 DUP2 PUSH2 0x8546 JUMP JUMPDEST DUP3 MSTORE POP POP JUMP JUMPDEST PUSH1 0x0 PUSH1 0x20 DUP3 ADD SWAP1 POP PUSH2 0x8B52 PUSH1 0x0 DUP4 ADD DUP5 PUSH2 0x8B2E JUMP JUMPDEST SWAP3 SWAP2 POP POP JUMP JUMPDEST PUSH1 0x0 DUP1 PUSH1 0x20 DUP4 DUP6 SUB SLT ISZERO PUSH2 0x8B6F JUMPI PUSH2 0x8B6E PUSH2 0x853C JUMP JUMPDEST JUMPDEST PUSH1 0x0 DUP4 ADD CALLDATALOAD PUSH8 0xFFFFFFFFFFFFFFFF DUP2 GT ISZERO PUSH2 0x8B8D JUMPI PUSH2 0x8B8C PUSH2 0x8541 JUMP JUMPDEST JUMPDEST PUSH2 0x8B99 DUP6 DUP3 DUP7 ADD PUSH2 0x858B JUMP JUMPDEST SWAP3 POP SWAP3 POP POP SWAP3 POP SWAP3 SWAP1 POP JUMP JUMPDEST PUSH1 0x0 DUP1 DUP4 PUSH1 0x1F DUP5 ADD SLT PUSH2 0x8BBB JUMPI PUSH2 0x8BBA PUSH2 0x857C JUMP JUMPDEST JUMPDEST DUP3 CALLDATALOAD SWAP1 POP PUSH8 0xFFFFFFFFFFFFFFFF DUP2 GT ISZERO PUSH2 0x8BD8 JUMPI PUSH2 0x8BD7 PUSH2 0x8581 JUMP JUMPDEST JUMPDEST PUSH1 0x20 DUP4 ADD SWAP2 POP DUP4 PUSH1 0x20 DUP3 MUL DUP4 ADD GT ISZERO PUSH2 0x8BF4 JUMPI PUSH2 0x8BF3 PUSH2 0x8586 JUMP JUMPDEST JUMPDEST SWAP3 POP SWAP3 SWAP1 POP JUMP JUMPDEST PUSH1 0x0 DUP1 PUSH1 0x0 PUSH1 0x40 DUP5 DUP7 SUB SLT ISZERO PUSH2 0x8C14 JUMPI PUSH2 0x8C13 PUSH2 0x853C JUMP JUMPDEST JUMPDEST PUSH1 0x0 DUP5 ADD CALLDATALOAD PUSH8 0xFFFFFFFFFFFFFFFF DUP2 GT ISZERO PUSH2 0x8C32 JUMPI PUSH2 0x8C31 PUSH2 0x8541 JUMP JUMPDEST JUMPDEST PUSH2 0x8C3E DUP7 DUP3 DUP8 ADD PUSH2 0x8BA5 JUMP JUMPDEST SWAP4 POP SWAP4 POP POP PUSH1 0x20 PUSH2 0x8C51 DUP7 DUP3 DUP8 ADD PUSH2 0x8914 JUMP JUMPDEST SWAP2 POP POP SWAP3 POP SWAP3 POP SWAP3 JUMP JUMPDEST PUSH1 0x0 PUSH1 0x20 DUP3 DUP5 SUB SLT ISZERO PUSH2 0x8C71 JUMPI PUSH2 0x8C70 PUSH2 0x853C JUMP JUMPDEST JUMPDEST PUSH1 0x0 PUSH2 0x8C7F DUP5 DUP3 DUP6 ADD PUSH2 0x8AD9 JUMP JUMPDEST SWAP2 POP POP SWAP3 SWAP2 POP POP JUMP JUMPDEST PUSH1 0x0 DUP1 PUSH1 0x40 DUP4 DUP6 SUB SLT ISZERO PUSH2 0x8C9F JUMPI PUSH2 0x8C9E PUSH2 0x853C JUMP JUMPDEST JUMPDEST PUSH1 0x0 PUSH2 0x8CAD DUP6 DUP3 DUP7 ADD PUSH2 0x8567 JUMP JUMPDEST SWAP3 POP POP PUSH1 0x20 PUSH2 0x8CBE DUP6 DUP3 DUP7 ADD PUSH2 0x8567 JUMP JUMPDEST SWAP2 POP POP SWAP3 POP SWAP3 SWAP1 POP JUMP JUMPDEST PUSH1 0x0 PUSH2 0x120 DUP3 ADD SWAP1 POP PUSH2 0x8CDE PUSH1 0x0 DUP4 ADD DUP13 PUSH2 0x8B2E JUMP JUMPDEST PUSH2 0x8CEB PUSH1 0x20 DUP4 ADD DUP12 PUSH2 0x8B2E JUMP JUMPDEST PUSH2 0x8CF8 PUSH1 0x40 DUP4 ADD DUP11 PUSH2 0x8B2E JUMP JUMPDEST PUSH2 0x8D05 PUSH1 0x60 DUP4 ADD DUP10 PUSH2 0x8B2E JUMP JUMPDEST PUSH2 0x8D12 PUSH1 0x80 DUP4 ADD DUP9 PUSH2 0x8B2E JUMP JUMPDEST PUSH2 0x8D1F PUSH1 0xA0 DUP4 ADD DUP8 PUSH2 0x8B2E JUMP JUMPDEST PUSH2 0x8D2C PUSH1 0xC0 DUP4 ADD DUP7 PUSH2 0x8B2E JUMP JUMPDEST PUSH2 0x8D39 PUSH1 0xE0 DUP4 ADD DUP6 PUSH2 0x8B2E JUMP JUMPDEST PUSH2 0x8D47 PUSH2 0x100 DUP4 ADD DUP5 PUSH2 0x8B2E JUMP JUMPDEST SWAP11 SWAP10 POP POP POP POP POP POP POP POP POP POP JUMP JUMPDEST PUSH1 0x0 DUP1 PUSH1 0x0 PUSH1 0x60 DUP5 DUP7 SUB SLT ISZERO PUSH2 0x8D6E JUMPI PUSH2 0x8D6D PUSH2 0x853C JUMP JUMPDEST JUMPDEST PUSH1 0x0 PUSH2 0x8D7C DUP7 DUP3 DUP8 ADD PUSH2 0x8AD9 JUMP JUMPDEST SWAP4 POP POP PUSH1 0x20 PUSH2 0x8D8D DUP7 DUP3 DUP8 ADD PUSH2 0x8AD9 JUMP JUMPDEST SWAP3 POP POP PUSH1 0x40 PUSH2 0x8D9E DUP7 DUP3 DUP8 ADD PUSH2 0x8567 JUMP JUMPDEST SWAP2 POP POP SWAP3 POP SWAP3 POP SWAP3 JUMP JUMPDEST PUSH1 0x0 DUP2 SWAP1 POP SWAP2 SWAP1 POP JUMP JUMPDEST PUSH1 0x0 PUSH2 0x8DCD PUSH2 0x8DC8 PUSH2 0x8DC3 DUP5 PUSH2 0x8A66 JUMP JUMPDEST PUSH2 0x8DA8 JUMP JUMPDEST PUSH2 0x8A66 JUMP JUMPDEST SWAP1 POP SWAP2 SWAP1 POP JUMP JUMPDEST PUSH1 0x0 PUSH2 0x8DDF DUP3 PUSH2 0x8DB2 JUMP JUMPDEST SWAP1 POP SWAP2 SWAP1 POP JUMP JUMPDEST PUSH1 0x0 PUSH2 0x8DF1 DUP3 PUSH2 0x8DD4 JUMP JUMPDEST SWAP1 POP SWAP2 SWAP1 POP JUMP JUMPDEST PUSH2 0x8E01 DUP2 PUSH2 0x8DE6 JUMP JUMPDEST DUP3 MSTORE POP POP JUMP JUMPDEST PUSH1 0x0 PUSH1 0x20 DUP3 ADD SWAP1 POP PUSH2 0x8E1C PUSH1 0x0 DUP4 ADD DUP5 PUSH2 0x8DF8 JUMP JUMPDEST SWAP3 SWAP2 POP POP JUMP JUMPDEST PUSH1 0x0 DUP1 PUSH1 0x0 DUP1 PUSH1 0x0 DUP1 PUSH1 0x60 DUP8 DUP10 SUB SLT ISZERO PUSH2 0x8E3F JUMPI PUSH2 0x8E3E PUSH2 0x853C JUMP JUMPDEST JUMPDEST PUSH1 0x0 DUP8 ADD CALLDATALOAD PUSH8 0xFFFFFFFFFFFFFFFF DUP2 GT ISZERO PUSH2 0x8E5D JUMPI PUSH2 0x8E5C PUSH2 0x8541 JUMP JUMPDEST JUMPDEST PUSH2 0x8E69 DUP10 DUP3 DUP11 ADD PUSH2 0x858B JUMP JUMPDEST SWAP7 POP SWAP7 POP POP PUSH1 0x20 DUP8 ADD CALLDATALOAD PUSH8 0xFFFFFFFFFFFFFFFF DUP2 GT ISZERO PUSH2 0x8E8C JUMPI PUSH2 0x8E8B PUSH2 0x8541 JUMP JUMPDEST JUMPDEST PUSH2 0x8E98 DUP10 DUP3 DUP11 ADD PUSH2 0x858B JUMP JUMPDEST SWAP5 POP SWAP5 POP POP PUSH1 0x40 DUP8 ADD CALLDATALOAD PUSH8 0xFFFFFFFFFFFFFFFF DUP2 GT ISZERO PUSH2 0x8EBB JUMPI PUSH2 0x8EBA PUSH2 0x8541 JUMP JUMPDEST JUMPDEST PUSH2 0x8EC7 DUP10 DUP3 DUP11 ADD PUSH2 0x858B JUMP JUMPDEST SWAP3 POP SWAP3 POP POP SWAP3 SWAP6 POP SWAP3 SWAP6 POP SWAP3 SWAP6 JUMP JUMPDEST PUSH1 0x0 DUP1 REVERT JUMPDEST PUSH1 0x0 DUP2 SWAP1 POP SWAP2 SWAP1 POP JUMP JUMPDEST PUSH2 0x8EEE DUP2 PUSH2 0x8EDB JUMP JUMPDEST DUP2 EQ PUSH2 0x8EF9 JUMPI PUSH1 0x0 DUP1 REVERT JUMPDEST POP JUMP JUMPDEST PUSH1 0x0 DUP2 CALLDATALOAD SWAP1 POP PUSH2 0x8F0B DUP2 PUSH2 0x8EE5 JUMP JUMPDEST SWAP3 SWAP2 POP POP JUMP JUMPDEST PUSH1 0x0 PUSH1 0x60 DUP3 DUP5 SUB SLT ISZERO PUSH2 0x8F27 JUMPI PUSH2 0x8F26 PUSH2 0x8ED6 JUMP JUMPDEST JUMPDEST PUSH2 0x8F31 PUSH1 0x60 PUSH2 0x8832 JUMP JUMPDEST SWAP1 POP PUSH1 0x0 PUSH2 0x8F41 DUP5 DUP3 DUP6 ADD PUSH2 0x8567 JUMP JUMPDEST PUSH1 0x0 DUP4 ADD MSTORE POP PUSH1 0x20 PUSH2 0x8F55 DUP5 DUP3 DUP6 ADD PUSH2 0x8567 JUMP JUMPDEST PUSH1 0x20 DUP4 ADD MSTORE POP PUSH1 0x40 PUSH2 0x8F69 DUP5 DUP3 DUP6 ADD PUSH2 0x8EFC JUMP JUMPDEST PUSH1 0x40 DUP4 ADD MSTORE POP SWAP3 SWAP2 POP POP JUMP JUMPDEST PUSH1 0x0 DUP1 PUSH1 0x80 DUP4 DUP6 SUB SLT ISZERO PUSH2 0x8F8C JUMPI PUSH2 0x8F8B PUSH2 0x853C JUMP JUMPDEST JUMPDEST PUSH1 0x0 PUSH2 0x8F9A DUP6 DUP3 DUP7 ADD PUSH2 0x8F11 JUMP JUMPDEST SWAP3 POP POP PUSH1 0x60 DUP4 ADD CALLDATALOAD PUSH8 0xFFFFFFFFFFFFFFFF DUP2 GT ISZERO PUSH2 0x8FBB JUMPI PUSH2 0x8FBA PUSH2 0x8541 JUMP JUMPDEST JUMPDEST PUSH2 0x8FC7 DUP6 DUP3 DUP7 ADD PUSH2 0x88CF JUMP JUMPDEST SWAP2 POP POP SWAP3 POP SWAP3 SWAP1 POP JUMP JUMPDEST PUSH1 0x0 PUSH8 0xFFFFFFFFFFFFFFFF DUP3 GT ISZERO PUSH2 0x8FEC JUMPI PUSH2 0x8FEB PUSH2 0x87D2 JUMP JUMPDEST JUMPDEST PUSH2 0x8FF5 DUP3 PUSH2 0x87C1 JUMP JUMPDEST SWAP1 POP PUSH1 0x20 DUP2 ADD SWAP1 POP SWAP2 SWAP1 POP JUMP JUMPDEST PUSH1 0x0 PUSH2 0x9015 PUSH2 0x9010 DUP5 PUSH2 0x8FD1 JUMP JUMPDEST PUSH2 0x8832 JUMP JUMPDEST SWAP1 POP DUP3 DUP2 MSTORE PUSH1 0x20 DUP2 ADD DUP5 DUP5 DUP5 ADD GT ISZERO PUSH2 0x9031 JUMPI PUSH2 0x9030 PUSH2 0x87BC JUMP JUMPDEST JUMPDEST PUSH2 0x903C DUP5 DUP3 DUP6 PUSH2 0x887E JUMP JUMPDEST POP SWAP4 SWAP3 POP POP POP JUMP JUMPDEST PUSH1 0x0 DUP3 PUSH1 0x1F DUP4 ADD SLT PUSH2 0x9059 JUMPI PUSH2 0x9058 PUSH2 0x857C JUMP JUMPDEST JUMPDEST DUP2 CALLDATALOAD PUSH2 0x9069 DUP5 DUP3 PUSH1 0x20 DUP7 ADD PUSH2 0x9002 JUMP JUMPDEST SWAP2 POP POP SWAP3 SWAP2 POP POP JUMP JUMPDEST PUSH1 0x0 DUP1 PUSH1 0x40 DUP4 DUP6 SUB SLT ISZERO PUSH2 0x9089 JUMPI PUSH2 0x9088 PUSH2 0x853C JUMP JUMPDEST JUMPDEST PUSH1 0x0 DUP4 ADD CALLDATALOAD PUSH8 0xFFFFFFFFFFFFFFFF DUP2 GT ISZERO PUSH2 0x90A7 JUMPI PUSH2 0x90A6 PUSH2 0x8541 JUMP JUMPDEST JUMPDEST PUSH2 0x90B3 DUP6 DUP3 DUP7 ADD PUSH2 0x9044 JUMP JUMPDEST SWAP3 POP POP PUSH1 0x20 DUP4 ADD CALLDATALOAD PUSH8 0xFFFFFFFFFFFFFFFF DUP2 GT ISZERO PUSH2 0x90D4 JUMPI PUSH2 0x90D3 PUSH2 0x8541 JUMP JUMPDEST JUMPDEST PUSH2 0x90E0 DUP6 DUP3 DUP7 ADD PUSH2 0x9044 JUMP JUMPDEST SWAP2 POP POP SWAP3 POP SWAP3 SWAP1 POP JUMP JUMPDEST PUSH1 0x0 DUP1 PUSH1 0x40 DUP4 DUP6 SUB SLT ISZERO PUSH2 0x9101 JUMPI PUSH2 0x9100 PUSH2 0x853C JUMP JUMPDEST JUMPDEST PUSH1 0x0 PUSH2 0x910F DUP6 DUP3 DUP7 ADD PUSH2 0x8AD9 JUMP JUMPDEST SWAP3 POP POP PUSH1 0x20 PUSH2 0x9120 DUP6 DUP3 DUP7 ADD PUSH2 0x8914 JUMP JUMPDEST SWAP2 POP POP SWAP3 POP SWAP3 SWAP1 POP JUMP JUMPDEST PUSH1 0x0 DUP1 PUSH1 0x0 DUP1 PUSH1 0x0 DUP1 PUSH1 0xC0 DUP8 DUP10 SUB SLT ISZERO PUSH2 0x9147 JUMPI PUSH2 0x9146 PUSH2 0x853C JUMP JUMPDEST JUMPDEST PUSH1 0x0 PUSH2 0x9155 DUP10 DUP3 DUP11 ADD PUSH2 0x8AD9 JUMP JUMPDEST SWAP7 POP POP PUSH1 0x20 PUSH2 0x9166 DUP10 DUP3 DUP11 ADD PUSH2 0x8AD9 JUMP JUMPDEST SWAP6 POP POP PUSH1 0x40 PUSH2 0x9177 DUP10 DUP3 DUP11 ADD PUSH2 0x8AD9 JUMP JUMPDEST SWAP5 POP POP PUSH1 0x60 PUSH2 0x9188 DUP10 DUP3 DUP11 ADD PUSH2 0x8AD9 JUMP JUMPDEST SWAP4 POP POP PUSH1 0x80 PUSH2 0x9199 DUP10 DUP3 DUP11 ADD PUSH2 0x8AD9 JUMP JUMPDEST SWAP3 POP POP PUSH1 0xA0 PUSH2 0x91AA DUP10 DUP3 DUP11 ADD PUSH2 0x8567 JUMP JUMPDEST SWAP2 POP POP SWAP3 SWAP6 POP SWAP3 SWAP6 POP SWAP3 SWAP6 JUMP JUMPDEST PUSH1 0x0 DUP1 PUSH1 0x0 DUP1 PUSH1 0x80 DUP6 DUP8 SUB SLT ISZERO PUSH2 0x91D1 JUMPI PUSH2 0x91D0 PUSH2 0x853C JUMP JUMPDEST JUMPDEST PUSH1 0x0 PUSH2 0x91DF DUP8 DUP3 DUP9 ADD PUSH2 0x8AD9 JUMP JUMPDEST SWAP5 POP POP PUSH1 0x20 PUSH2 0x91F0 DUP8 DUP3 DUP9 ADD PUSH2 0x8AD9 JUMP JUMPDEST SWAP4 POP POP PUSH1 0x40 PUSH2 0x9201 DUP8 DUP3 DUP9 ADD PUSH2 0x8567 JUMP JUMPDEST SWAP3 POP POP PUSH1 0x60 DUP6 ADD CALLDATALOAD PUSH8 0xFFFFFFFFFFFFFFFF DUP2 GT ISZERO PUSH2 0x9222 JUMPI PUSH2 0x9221 PUSH2 0x8541 JUMP JUMPDEST JUMPDEST PUSH2 0x922E DUP8 DUP3 DUP9 ADD PUSH2 0x88CF JUMP JUMPDEST SWAP2 POP POP SWAP3 SWAP6 SWAP2 SWAP5 POP SWAP3 POP JUMP JUMPDEST PUSH1 0x0 PUSH1 0x80 DUP3 DUP5 SUB SLT ISZERO PUSH2 0x9250 JUMPI PUSH2 0x924F PUSH2 0x8ED6 JUMP JUMPDEST JUMPDEST PUSH2 0x925A PUSH1 0x80 PUSH2 0x8832 JUMP JUMPDEST SWAP1 POP PUSH1 0x0 PUSH2 0x926A DUP5 DUP3 DUP6 ADD PUSH2 0x8567 JUMP JUMPDEST PUSH1 0x0 DUP4 ADD MSTORE POP PUSH1 0x20 PUSH2 0x927E DUP5 DUP3 DUP6 ADD PUSH2 0x8AD9 JUMP JUMPDEST PUSH1 0x20 DUP4 ADD MSTORE POP PUSH1 0x40 PUSH2 0x9292 DUP5 DUP3 DUP6 ADD PUSH2 0x8567 JUMP JUMPDEST PUSH1 0x40 DUP4 ADD MSTORE POP PUSH1 0x60 PUSH2 0x92A6 DUP5 DUP3 DUP6 ADD PUSH2 0x8EFC JUMP JUMPDEST PUSH1 0x60 DUP4 ADD MSTORE POP SWAP3 SWAP2 POP POP JUMP JUMPDEST PUSH1 0x0 DUP1 PUSH1 0xA0 DUP4 DUP6 SUB SLT ISZERO PUSH2 0x92C9 JUMPI PUSH2 0x92C8 PUSH2 0x853C JUMP JUMPDEST JUMPDEST PUSH1 0x0 PUSH2 0x92D7 DUP6 DUP3 DUP7 ADD PUSH2 0x923A JUMP JUMPDEST SWAP3 POP POP PUSH1 0x80 DUP4 ADD CALLDATALOAD PUSH8 0xFFFFFFFFFFFFFFFF DUP2 GT ISZERO PUSH2 0x92F8 JUMPI PUSH2 0x92F7 PUSH2 0x8541 JUMP JUMPDEST JUMPDEST PUSH2 0x9304 DUP6 DUP3 DUP7 ADD PUSH2 0x88CF JUMP JUMPDEST SWAP2 POP POP SWAP3 POP SWAP3 SWAP1 POP JUMP JUMPDEST PUSH1 0x0 PUSH1 0x20 DUP3 DUP5 SUB SLT ISZERO PUSH2 0x9324 JUMPI PUSH2 0x9323 PUSH2 0x853C JUMP JUMPDEST JUMPDEST PUSH1 0x0 DUP3 ADD CALLDATALOAD PUSH8 0xFFFFFFFFFFFFFFFF DUP2 GT ISZERO PUSH2 0x9342 JUMPI PUSH2 0x9341 PUSH2 0x8541 JUMP JUMPDEST JUMPDEST PUSH2 0x934E DUP5 DUP3 DUP6 ADD PUSH2 0x88CF JUMP JUMPDEST SWAP2 POP POP SWAP3 SWAP2 POP POP JUMP JUMPDEST PUSH1 0x0 PUSH2 0x9362 DUP3 PUSH2 0x8DD4 JUMP JUMPDEST SWAP1 POP SWAP2 SWAP1 POP JUMP JUMPDEST PUSH2 0x9372 DUP2 PUSH2 0x9357 JUMP JUMPDEST DUP3 MSTORE POP POP JUMP JUMPDEST PUSH1 0x0 PUSH1 0x20 DUP3 ADD SWAP1 POP PUSH2 0x938D PUSH1 0x0 DUP4 ADD DUP5 PUSH2 0x9369 JUMP JUMPDEST SWAP3 SWAP2 POP POP JUMP JUMPDEST PUSH1 0x0 PUSH1 0x80 DUP3 ADD SWAP1 POP PUSH2 0x93A8 PUSH1 0x0 DUP4 ADD DUP8 PUSH2 0x8B2E JUMP JUMPDEST PUSH2 0x93B5 PUSH1 0x20 DUP4 ADD DUP7 PUSH2 0x8B2E JUMP JUMPDEST PUSH2 0x93C2 PUSH1 0x40 DUP4 ADD DUP6 PUSH2 0x8B2E JUMP JUMPDEST PUSH2 0x93CF PUSH1 0x60 DUP4 ADD DUP5 PUSH2 0x8B2E JUMP JUMPDEST SWAP6 SWAP5 POP POP POP POP POP JUMP JUMPDEST PUSH1 0x0 DUP1 PUSH1 0x0 PUSH1 0x60 DUP5 DUP7 SUB SLT ISZERO PUSH2 0x93F1 JUMPI PUSH2 0x93F0 PUSH2 0x853C JUMP JUMPDEST JUMPDEST PUSH1 0x0 PUSH2 0x93FF DUP7 DUP3 DUP8 ADD PUSH2 0x8567 JUMP JUMPDEST SWAP4 POP POP PUSH1 0x20 PUSH2 0x9410 DUP7 DUP3 DUP8 ADD PUSH2 0x8567 JUMP JUMPDEST SWAP3 POP POP PUSH1 0x40 PUSH2 0x9421 DUP7 DUP3 DUP8 ADD PUSH2 0x8567 JUMP JUMPDEST SWAP2 POP POP SWAP3 POP SWAP3 POP SWAP3 JUMP JUMPDEST PUSH1 0x0 DUP1 PUSH1 0x40 DUP4 DUP6 SUB SLT ISZERO PUSH2 0x9442 JUMPI PUSH2 0x9441 PUSH2 0x853C JUMP JUMPDEST JUMPDEST PUSH1 0x0 PUSH2 0x9450 DUP6 DUP3 DUP7 ADD PUSH2 0x8AD9 JUMP JUMPDEST SWAP3 POP POP PUSH1 0x20 PUSH2 0x9461 DUP6 DUP3 DUP7 ADD PUSH2 0x8AD9 JUMP JUMPDEST SWAP2 POP POP SWAP3 POP SWAP3 SWAP1 POP JUMP JUMPDEST PUSH1 0x0 DUP1 PUSH1 0x0 PUSH1 0x40 DUP5 DUP7 SUB SLT ISZERO PUSH2 0x9484 JUMPI PUSH2 0x9483 PUSH2 0x853C JUMP JUMPDEST JUMPDEST PUSH1 0x0 DUP5 ADD CALLDATALOAD PUSH8 0xFFFFFFFFFFFFFFFF DUP2 GT ISZERO PUSH2 0x94A2 JUMPI PUSH2 0x94A1 PUSH2 0x8541 JUMP JUMPDEST JUMPDEST PUSH2 0x94AE DUP7 DUP3 DUP8 ADD PUSH2 0x858B JUMP JUMPDEST SWAP4 POP SWAP4 POP POP PUSH1 0x20 PUSH2 0x94C1 DUP7 DUP3 DUP8 ADD PUSH2 0x8914 JUMP JUMPDEST SWAP2 POP POP SWAP3 POP SWAP3 POP SWAP3 JUMP JUMPDEST PUSH32 0x4E487B7100000000000000000000000000000000000000000000000000000000 PUSH1 0x0 MSTORE PUSH1 0x32 PUSH1 0x4 MSTORE PUSH1 0x24 PUSH1 0x0 REVERT JUMPDEST PUSH32 0x4E487B7100000000000000000000000000000000000000000000000000000000 PUSH1 0x0 MSTORE PUSH1 0x11 PUSH1 0x4 MSTORE PUSH1 0x24 PUSH1 0x0 REVERT JUMPDEST PUSH1 0x0 PUSH2 0x9534 DUP3 PUSH2 0x8546 JUMP JUMPDEST SWAP2 POP PUSH32 0xFFFFFFFFFFFFFFFFFFFFFFFFFFFFFFFFFFFFFFFFFFFFFFFFFFFFFFFFFFFFFFFF DUP3 SUB PUSH2 0x9566 JUMPI PUSH2 0x9565 PUSH2 0x94FA JUMP JUMPDEST JUMPDEST PUSH1 0x1 DUP3 ADD SWAP1 POP SWAP2 SWAP1 POP JUMP JUMPDEST PUSH1 0x0 DUP2 MLOAD SWAP1 POP SWAP2 SWAP1 POP JUMP JUMPDEST PUSH1 0x0 DUP2 SWAP1 POP SWAP3 SWAP2 POP POP JUMP JUMPDEST PUSH1 0x0 PUSH2 0x9592 DUP3 PUSH2 0x9571 JUMP JUMPDEST PUSH2 0x959C DUP2 DUP6 PUSH2 0x957C JUMP JUMPDEST SWAP4 POP PUSH2 0x95AC DUP2 DUP6 PUSH1 0x20 DUP7 ADD PUSH2 0x89B4 JUMP JUMPDEST DUP1 DUP5 ADD SWAP2 POP POP SWAP3 SWAP2 POP POP JUMP JUMPDEST PUSH1 0x0 PUSH2 0x95C4 DUP3 DUP5 PUSH2 0x9587 JUMP JUMPDEST SWAP2 POP DUP2 SWAP1 POP SWAP3 SWAP2 POP POP JUMP JUMPDEST PUSH1 0x0 DUP3 DUP3 MSTORE PUSH1 0x20 DUP3 ADD SWAP1 POP SWAP3 SWAP2 POP POP JUMP JUMPDEST PUSH1 0x0 PUSH2 0x95EB DUP3 PUSH2 0x9571 JUMP JUMPDEST PUSH2 0x95F5 DUP2 DUP6 PUSH2 0x95CF JUMP JUMPDEST SWAP4 POP PUSH2 0x9605 DUP2 DUP6 PUSH1 0x20 DUP7 ADD PUSH2 0x89B4 JUMP JUMPDEST PUSH2 0x960E DUP2 PUSH2 0x87C1 JUMP JUMPDEST DUP5 ADD SWAP2 POP POP SWAP3 SWAP2 POP POP JUMP JUMPDEST PUSH1 0x0 PUSH1 0x20 DUP3 ADD SWAP1 POP DUP2 DUP2 SUB PUSH1 0x0 DUP4 ADD MSTORE PUSH2 0x9633 DUP2 DUP5 PUSH2 0x95E0 JUMP JUMPDEST SWAP1 POP SWAP3 SWAP2 POP POP JUMP JUMPDEST PUSH1 0x0 DUP2 MLOAD SWAP1 POP PUSH2 0x964A DUP2 PUSH2 0x88FD JUMP JUMPDEST SWAP3 SWAP2 POP POP JUMP JUMPDEST PUSH1 0x0 PUSH1 0x20 DUP3 DUP5 SUB SLT ISZERO PUSH2 0x9666 JUMPI PUSH2 0x9665 PUSH2 0x853C JUMP JUMPDEST JUMPDEST PUSH1 0x0 PUSH2 0x9674 DUP5 DUP3 DUP6 ADD PUSH2 0x963B JUMP JUMPDEST SWAP2 POP POP SWAP3 SWAP2 POP POP JUMP JUMPDEST PUSH32 0x41726645524337323156313A204E6F7420616C6C6F7765640000000000000000 PUSH1 0x0 DUP3 ADD MSTORE POP JUMP JUMPDEST PUSH1 0x0 PUSH2 0x96B3 PUSH1 0x18 DUP4 PUSH2 0x89A3 JUMP JUMPDEST SWAP2 POP PUSH2 0x96BE DUP3 PUSH2 0x967D JUMP JUMPDEST PUSH1 0x20 DUP3 ADD SWAP1 POP SWAP2 SWAP1 POP JUMP JUMPDEST PUSH1 0x0 PUSH1 0x20 DUP3 ADD SWAP1 POP DUP2 DUP2 SUB PUSH1 0x0 DUP4 ADD MSTORE PUSH2 0x96E2 DUP2 PUSH2 0x96A6 JUMP JUMPDEST SWAP1 POP SWAP2 SWAP1 POP JUMP JUMPDEST PUSH1 0x0 PUSH2 0x96F4 DUP3 PUSH2 0x8546 JUMP JUMPDEST SWAP2 POP PUSH2 0x96FF DUP4 PUSH2 0x8546 JUMP JUMPDEST SWAP3 POP DUP3 DUP3 ADD SWAP1 POP DUP1 DUP3 GT ISZERO PUSH2 0x9717 JUMPI PUSH2 0x9716 PUSH2 0x94FA JUMP JUMPDEST JUMPDEST SWAP3 SWAP2 POP POP JUMP JUMPDEST PUSH32 0x41726645524337323156313A20546869732065706F636820697320636C6F7365 PUSH1 0x0 DUP3 ADD MSTORE PUSH32 0x64206F72207072696E746572206973206F7574206F662073746F636B00000000 PUSH1 0x20 DUP3 ADD MSTORE POP JUMP JUMPDEST PUSH1 0x0 PUSH2 0x9779 PUSH1 0x3C DUP4 PUSH2 0x89A3 JUMP JUMPDEST SWAP2 POP PUSH2 0x9784 DUP3 PUSH2 0x971D JUMP JUMPDEST PUSH1 0x40 DUP3 ADD SWAP1 POP SWAP2 SWAP1 POP JUMP JUMPDEST PUSH1 0x0 PUSH1 0x20 DUP3 ADD SWAP1 POP DUP2 DUP2 SUB PUSH1 0x0 DUP4 ADD MSTORE PUSH2 0x97A8 DUP2 PUSH2 0x976C JUMP JUMPDEST SWAP1 POP SWAP2 SWAP1 POP JUMP JUMPDEST PUSH1 0x0 PUSH2 0x97BA DUP3 PUSH2 0x8546 JUMP JUMPDEST SWAP2 POP PUSH2 0x97C5 DUP4 PUSH2 0x8546 JUMP JUMPDEST SWAP3 POP DUP2 PUSH32 0xFFFFFFFFFFFFFFFFFFFFFFFFFFFFFFFFFFFFFFFFFFFFFFFFFFFFFFFFFFFFFFFF DIV DUP4 GT DUP3 ISZERO ISZERO AND ISZERO PUSH2 0x97FE JUMPI PUSH2 0x97FD PUSH2 0x94FA JUMP JUMPDEST JUMPDEST DUP3 DUP3 MUL SWAP1 POP SWAP3 SWAP2 POP POP JUMP JUMPDEST PUSH32 0x41726645524337323156313A20496E76616C6964207072696365000000000000 PUSH1 0x0 DUP3 ADD MSTORE POP JUMP JUMPDEST PUSH1 0x0 PUSH2 0x983F PUSH1 0x1A DUP4 PUSH2 0x89A3 JUMP JUMPDEST SWAP2 POP PUSH2 0x984A DUP3 PUSH2 0x9809 JUMP JUMPDEST PUSH1 0x20 DUP3 ADD SWAP1 POP SWAP2 SWAP1 POP JUMP JUMPDEST PUSH1 0x0 PUSH1 0x20 DUP3 ADD SWAP1 POP DUP2 DUP2 SUB PUSH1 0x0 DUP4 ADD MSTORE PUSH2 0x986E DUP2 PUSH2 0x9832 JUMP JUMPDEST SWAP1 POP SWAP2 SWAP1 POP JUMP JUMPDEST PUSH32 0x41726645524337323156313A20496E76616C6964207175616E74697479000000 PUSH1 0x0 DUP3 ADD MSTORE POP JUMP JUMPDEST PUSH1 0x0 PUSH2 0x98AB PUSH1 0x1D DUP4 PUSH2 0x89A3 JUMP JUMPDEST SWAP2 POP PUSH2 0x98B6 DUP3 PUSH2 0x9875 JUMP JUMPDEST PUSH1 0x20 DUP3 ADD SWAP1 POP SWAP2 SWAP1 POP JUMP JUMPDEST PUSH1 0x0 PUSH1 0x20 DUP3 ADD SWAP1 POP DUP2 DUP2 SUB PUSH1 0x0 DUP4 ADD MSTORE PUSH2 0x98DA DUP2 PUSH2 0x989E JUMP JUMPDEST SWAP1 POP SWAP2 SWAP1 POP JUMP JUMPDEST PUSH32 0x4E487B7100000000000000000000000000000000000000000000000000000000 PUSH1 0x0 MSTORE PUSH1 0x22 PUSH1 0x4 MSTORE PUSH1 0x24 PUSH1 0x0 REVERT JUMPDEST PUSH1 0x0 PUSH1 0x2 DUP3 DIV SWAP1 POP PUSH1 0x1 DUP3 AND DUP1 PUSH2 0x9928 JUMPI PUSH1 0x7F DUP3 AND SWAP2 POP JUMPDEST PUSH1 0x20 DUP3 LT DUP2 SUB PUSH2 0x993B JUMPI PUSH2 0x993A PUSH2 0x98E1 JUMP JUMPDEST JUMPDEST POP SWAP2 SWAP1 POP JUMP JUMPDEST PUSH1 0x0 DUP2 SWAP1 POP DUP2 PUSH1 0x0 MSTORE PUSH1 0x20 PUSH1 0x0 KECCAK256 SWAP1 POP SWAP2 SWAP1 POP JUMP JUMPDEST PUSH1 0x0 PUSH1 0x20 PUSH1 0x1F DUP4 ADD DIV SWAP1 POP SWAP2 SWAP1 POP JUMP JUMPDEST PUSH1 0x0 DUP3 DUP3 SHL SWAP1 POP SWAP3 SWAP2 POP POP JUMP JUMPDEST PUSH1 0x0 PUSH1 0x8 DUP4 MUL PUSH2 0x99A3 PUSH32 0xFFFFFFFFFFFFFFFFFFFFFFFFFFFFFFFFFFFFFFFFFFFFFFFFFFFFFFFFFFFFFFFF DUP3 PUSH2 0x9966 JUMP JUMPDEST PUSH2 0x99AD DUP7 DUP4 PUSH2 0x9966 JUMP JUMPDEST SWAP6 POP DUP1 NOT DUP5 AND SWAP4 POP DUP1 DUP7 AND DUP5 OR SWAP3 POP POP POP SWAP4 SWAP3 POP POP POP JUMP JUMPDEST PUSH1 0x0 PUSH2 0x99E0 PUSH2 0x99DB PUSH2 0x99D6 DUP5 PUSH2 0x8546 JUMP JUMPDEST PUSH2 0x8DA8 JUMP JUMPDEST PUSH2 0x8546 JUMP JUMPDEST SWAP1 POP SWAP2 SWAP1 POP JUMP JUMPDEST PUSH1 0x0 DUP2 SWAP1 POP SWAP2 SWAP1 POP JUMP JUMPDEST PUSH2 0x99FA DUP4 PUSH2 0x99C5 JUMP JUMPDEST PUSH2 0x9A0E PUSH2 0x9A06 DUP3 PUSH2 0x99E7 JUMP JUMPDEST DUP5 DUP5 SLOAD PUSH2 0x9973 JUMP JUMPDEST DUP3 SSTORE POP POP POP POP JUMP JUMPDEST PUSH1 0x0 SWAP1 JUMP JUMPDEST PUSH2 0x9A23 PUSH2 0x9A16 JUMP JUMPDEST PUSH2 0x9A2E DUP2 DUP5 DUP5 PUSH2 0x99F1 JUMP JUMPDEST POP POP POP JUMP JUMPDEST JUMPDEST DUP2 DUP2 LT ISZERO PUSH2 0x9A52 JUMPI PUSH2 0x9A47 PUSH1 0x0 DUP3 PUSH2 0x9A1B JUMP JUMPDEST PUSH1 0x1 DUP2 ADD SWAP1 POP PUSH2 0x9A34 JUMP JUMPDEST POP POP JUMP JUMPDEST PUSH1 0x1F DUP3 GT ISZERO PUSH2 0x9A97 JUMPI PUSH2 0x9A68 DUP2 PUSH2 0x9941 JUMP JUMPDEST PUSH2 0x9A71 DUP5 PUSH2 0x9956 JUMP JUMPDEST DUP2 ADD PUSH1 0x20 DUP6 LT ISZERO PUSH2 0x9A80 JUMPI DUP2 SWAP1 POP JUMPDEST PUSH2 0x9A94 PUSH2 0x9A8C DUP6 PUSH2 0x9956 JUMP JUMPDEST DUP4 ADD DUP3 PUSH2 0x9A33 JUMP JUMPDEST POP POP JUMPDEST POP POP POP JUMP JUMPDEST PUSH1 0x0 DUP3 DUP3 SHR SWAP1 POP SWAP3 SWAP2 POP POP JUMP JUMPDEST PUSH1 0x0 PUSH2 0x9ABA PUSH1 0x0 NOT DUP5 PUSH1 0x8 MUL PUSH2 0x9A9C JUMP JUMPDEST NOT DUP1 DUP4 AND SWAP2 POP POP SWAP3 SWAP2 POP POP JUMP JUMPDEST PUSH1 0x0 PUSH2 0x9AD3 DUP4 DUP4 PUSH2 0x9AA9 JUMP JUMPDEST SWAP2 POP DUP3 PUSH1 0x2 MUL DUP3 OR SWAP1 POP SWAP3 SWAP2 POP POP JUMP JUMPDEST PUSH2 0x9AEC DUP3 PUSH2 0x8998 JUMP JUMPDEST PUSH8 0xFFFFFFFFFFFFFFFF DUP2 GT ISZERO PUSH2 0x9B05 JUMPI PUSH2 0x9B04 PUSH2 0x87D2 JUMP JUMPDEST JUMPDEST PUSH2 0x9B0F DUP3 SLOAD PUSH2 0x9910 JUMP JUMPDEST PUSH2 0x9B1A DUP3 DUP3 DUP6 PUSH2 0x9A56 JUMP JUMPDEST PUSH1 0x0 PUSH1 0x20 SWAP1 POP PUSH1 0x1F DUP4 GT PUSH1 0x1 DUP2 EQ PUSH2 0x9B4D JUMPI PUSH1 0x0 DUP5 ISZERO PUSH2 0x9B3B JUMPI DUP3 DUP8 ADD MLOAD SWAP1 POP JUMPDEST PUSH2 0x9B45 DUP6 DUP3 PUSH2 0x9AC7 JUMP JUMPDEST DUP7 SSTORE POP PUSH2 0x9BAD JUMP JUMPDEST PUSH1 0x1F NOT DUP5 AND PUSH2 0x9B5B DUP7 PUSH2 0x9941 JUMP JUMPDEST PUSH1 0x0 JUMPDEST DUP3 DUP2 LT ISZERO PUSH2 0x9B83 JUMPI DUP5 DUP10 ADD MLOAD DUP3 SSTORE PUSH1 0x1 DUP3 ADD SWAP2 POP PUSH1 0x20 DUP6 ADD SWAP5 POP PUSH1 0x20 DUP2 ADD SWAP1 POP PUSH2 0x9B5E JUMP JUMPDEST DUP7 DUP4 LT ISZERO PUSH2 0x9BA0 JUMPI DUP5 DUP10 ADD MLOAD PUSH2 0x9B9C PUSH1 0x1F DUP10 AND DUP3 PUSH2 0x9AA9 JUMP JUMPDEST DUP4 SSTORE POP JUMPDEST PUSH1 0x1 PUSH1 0x2 DUP9 MUL ADD DUP9 SSTORE POP POP POP JUMPDEST POP POP POP POP POP POP JUMP JUMPDEST PUSH1 0x0 PUSH1 0x60 DUP3 ADD SWAP1 POP PUSH2 0x9BCA PUSH1 0x0 DUP4 ADD DUP7 PUSH2 0x8A98 JUMP JUMPDEST PUSH2 0x9BD7 PUSH1 0x20 DUP4 ADD DUP6 PUSH2 0x8A98 JUMP JUMPDEST PUSH2 0x9BE4 PUSH1 0x40 DUP4 ADD DUP5 PUSH2 0x8B2E JUMP JUMPDEST SWAP5 SWAP4 POP POP POP POP JUMP JUMPDEST PUSH1 0x0 PUSH1 0x40 DUP3 ADD SWAP1 POP PUSH2 0x9C01 PUSH1 0x0 DUP4 ADD DUP6 PUSH2 0x8A98 JUMP JUMPDEST PUSH2 0x9C0E PUSH1 0x20 DUP4 ADD DUP5 PUSH2 0x8B2E JUMP JUMPDEST SWAP4 SWAP3 POP POP POP JUMP JUMPDEST PUSH1 0x0 DUP2 MLOAD SWAP1 POP SWAP2 SWAP1 POP JUMP JUMPDEST PUSH1 0x0 DUP3 DUP3 MSTORE PUSH1 0x20 DUP3 ADD SWAP1 POP SWAP3 SWAP2 POP POP JUMP JUMPDEST PUSH1 0x0 DUP2 SWAP1 POP PUSH1 0x20 DUP3 ADD SWAP1 POP SWAP2 SWAP1 POP JUMP JUMPDEST PUSH2 0x9C4A DUP2 PUSH2 0x8546 JUMP JUMPDEST DUP3 MSTORE POP POP JUMP JUMPDEST PUSH1 0x0 PUSH2 0x9C5C DUP4 DUP4 PUSH2 0x9C41 JUMP JUMPDEST PUSH1 0x20 DUP4 ADD SWAP1 POP SWAP3 SWAP2 POP POP JUMP JUMPDEST PUSH1 0x0 PUSH1 0x20 DUP3 ADD SWAP1 POP SWAP2 SWAP1 POP JUMP JUMPDEST PUSH1 0x0 PUSH2 0x9C80 DUP3 PUSH2 0x9C15 JUMP JUMPDEST PUSH2 0x9C8A DUP2 DUP6 PUSH2 0x9C20 JUMP JUMPDEST SWAP4 POP PUSH2 0x9C95 DUP4 PUSH2 0x9C31 JUMP JUMPDEST DUP1 PUSH1 0x0 JUMPDEST DUP4 DUP2 LT ISZERO PUSH2 0x9CC6 JUMPI DUP2 MLOAD PUSH2 0x9CAD DUP9 DUP3 PUSH2 0x9C50 JUMP JUMPDEST SWAP8 POP PUSH2 0x9CB8 DUP4 PUSH2 0x9C68 JUMP JUMPDEST SWAP3 POP POP PUSH1 0x1 DUP2 ADD SWAP1 POP PUSH2 0x9C99 JUMP JUMPDEST POP DUP6 SWAP4 POP POP POP POP SWAP3 SWAP2 POP POP JUMP JUMPDEST PUSH32 0x5052494E54455200000000000000000000000000000000000000000000000000 PUSH1 0x0 DUP3 ADD MSTORE POP JUMP JUMPDEST PUSH1 0x0 PUSH2 0x9D09 PUSH1 0x7 DUP4 PUSH2 0x89A3 JUMP JUMPDEST SWAP2 POP PUSH2 0x9D14 DUP3 PUSH2 0x9CD3 JUMP JUMPDEST PUSH1 0x20 DUP3 ADD SWAP1 POP SWAP2 SWAP1 POP JUMP JUMPDEST PUSH1 0x0 PUSH2 0x100 DUP3 ADD SWAP1 POP PUSH2 0x9D35 PUSH1 0x0 DUP4 ADD DUP11 PUSH2 0x8A98 JUMP JUMPDEST DUP2 DUP2 SUB PUSH1 0x20 DUP4 ADD MSTORE PUSH2 0x9D47 DUP2 DUP10 PUSH2 0x9C75 JUMP JUMPDEST SWAP1 POP PUSH2 0x9D56 PUSH1 0x40 DUP4 ADD DUP9 PUSH2 0x8B2E JUMP JUMPDEST PUSH2 0x9D63 PUSH1 0x60 DUP4 ADD DUP8 PUSH2 0x8B2E JUMP JUMPDEST PUSH2 0x9D70 PUSH1 0x80 DUP4 ADD DUP7 PUSH2 0x8B2E JUMP JUMPDEST PUSH2 0x9D7D PUSH1 0xA0 DUP4 ADD DUP6 PUSH2 0x8B2E JUMP JUMPDEST PUSH2 0x9D8A PUSH1 0xC0 DUP4 ADD DUP5 PUSH2 0x876E JUMP JUMPDEST DUP2 DUP2 SUB PUSH1 0xE0 DUP4 ADD MSTORE PUSH2 0x9D9B DUP2 PUSH2 0x9CFC JUMP JUMPDEST SWAP1 POP SWAP9 SWAP8 POP POP POP POP POP POP POP POP JUMP JUMPDEST PUSH32 0x4552433732313A20617070726F76616C20746F2063757272656E74206F776E65 PUSH1 0x0 DUP3 ADD MSTORE PUSH32 0x7200000000000000000000000000000000000000000000000000000000000000 PUSH1 0x20 DUP3 ADD MSTORE POP JUMP JUMPDEST PUSH1 0x0 PUSH2 0x9E05 PUSH1 0x21 DUP4 PUSH2 0x89A3 JUMP JUMPDEST SWAP2 POP PUSH2 0x9E10 DUP3 PUSH2 0x9DA9 JUMP JUMPDEST PUSH1 0x40 DUP3 ADD SWAP1 POP SWAP2 SWAP1 POP JUMP JUMPDEST PUSH1 0x0 PUSH1 0x20 DUP3 ADD SWAP1 POP DUP2 DUP2 SUB PUSH1 0x0 DUP4 ADD MSTORE PUSH2 0x9E34 DUP2 PUSH2 0x9DF8 JUMP JUMPDEST SWAP1 POP SWAP2 SWAP1 POP JUMP JUMPDEST PUSH32 0x4552433732313A20617070726F76652063616C6C6572206973206E6F7420746F PUSH1 0x0 DUP3 ADD MSTORE PUSH32 0x6B656E206F776E6572206F7220617070726F76656420666F7220616C6C000000 PUSH1 0x20 DUP3 ADD MSTORE POP JUMP JUMPDEST PUSH1 0x0 PUSH2 0x9E97 PUSH1 0x3D DUP4 PUSH2 0x89A3 JUMP JUMPDEST SWAP2 POP PUSH2 0x9EA2 DUP3 PUSH2 0x9E3B JUMP JUMPDEST PUSH1 0x40 DUP3 ADD SWAP1 POP SWAP2 SWAP1 POP JUMP JUMPDEST PUSH1 0x0 PUSH1 0x20 DUP3 ADD SWAP1 POP DUP2 DUP2 SUB PUSH1 0x0 DUP4 ADD MSTORE PUSH2 0x9EC6 DUP2 PUSH2 0x9E8A JUMP JUMPDEST SWAP1 POP SWAP2 SWAP1 POP JUMP JUMPDEST PUSH32 0x41726645524337323156313A20496E76616C69642065706F6368206964206F72 PUSH1 0x0 DUP3 ADD MSTORE PUSH32 0x206E6F7420656E6F756768207175616E74697479000000000000000000000000 PUSH1 0x20 DUP3 ADD MSTORE POP JUMP JUMPDEST PUSH1 0x0 PUSH2 0x9F29 PUSH1 0x34 DUP4 PUSH2 0x89A3 JUMP JUMPDEST SWAP2 POP PUSH2 0x9F34 DUP3 PUSH2 0x9ECD JUMP JUMPDEST PUSH1 0x40 DUP3 ADD SWAP1 POP SWAP2 SWAP1 POP JUMP JUMPDEST PUSH1 0x0 PUSH1 0x20 DUP3 ADD SWAP1 POP DUP2 DUP2 SUB PUSH1 0x0 DUP4 ADD MSTORE PUSH2 0x9F58 DUP2 PUSH2 0x9F1C JUMP JUMPDEST SWAP1 POP SWAP2 SWAP1 POP JUMP JUMPDEST PUSH1 0x0 DUP2 MLOAD SWAP1 POP PUSH2 0x9F6E DUP2 PUSH2 0x8AC2 JUMP JUMPDEST SWAP3 SWAP2 POP POP JUMP JUMPDEST PUSH1 0x0 PUSH1 0x20 DUP3 DUP5 SUB SLT ISZERO PUSH2 0x9F8A JUMPI PUSH2 0x9F89 PUSH2 0x853C JUMP JUMPDEST JUMPDEST PUSH1 0x0 PUSH2 0x9F98 DUP5 DUP3 DUP6 ADD PUSH2 0x9F5F JUMP JUMPDEST SWAP2 POP POP SWAP3 SWAP2 POP POP JUMP JUMPDEST PUSH32 0x4172664552433732313A204E6F742061206F776E657200000000000000000000 PUSH1 0x0 DUP3 ADD MSTORE POP JUMP JUMPDEST PUSH1 0x0 PUSH2 0x9FD7 PUSH1 0x16 DUP4 PUSH2 0x89A3 JUMP JUMPDEST SWAP2 POP PUSH2 0x9FE2 DUP3 PUSH2 0x9FA1 JUMP JUMPDEST PUSH1 0x20 DUP3 ADD SWAP1 POP SWAP2 SWAP1 POP JUMP JUMPDEST PUSH1 0x0 PUSH1 0x20 DUP3 ADD SWAP1 POP DUP2 DUP2 SUB PUSH1 0x0 DUP4 ADD MSTORE PUSH2 0xA006 DUP2 PUSH2 0x9FCA JUMP JUMPDEST SWAP1 POP SWAP2 SWAP1 POP JUMP JUMPDEST PUSH1 0x0 DUP2 MLOAD SWAP1 POP PUSH2 0xA01C DUP2 PUSH2 0x8550 JUMP JUMPDEST SWAP3 SWAP2 POP POP JUMP JUMPDEST PUSH1 0x0 PUSH1 0x20 DUP3 DUP5 SUB SLT ISZERO PUSH2 0xA038 JUMPI PUSH2 0xA037 PUSH2 0x853C JUMP JUMPDEST JUMPDEST PUSH1 0x0 PUSH2 0xA046 DUP5 DUP3 DUP6 ADD PUSH2 0xA00D JUMP JUMPDEST SWAP2 POP POP SWAP3 SWAP2 POP POP JUMP JUMPDEST PUSH1 0x0 DUP2 SWAP1 POP SWAP2 SWAP1 POP JUMP JUMPDEST PUSH1 0x0 PUSH2 0xA074 PUSH2 0xA06F PUSH2 0xA06A DUP5 PUSH2 0xA04F JUMP JUMPDEST PUSH2 0x8DA8 JUMP JUMPDEST PUSH2 0x8546 JUMP JUMPDEST SWAP1 POP SWAP2 SWAP1 POP JUMP JUMPDEST PUSH2 0xA084 DUP2 PUSH2 0xA059 JUMP JUMPDEST DUP3 MSTORE POP POP JUMP JUMPDEST PUSH1 0x0 DUP1 REVERT JUMPDEST DUP3 DUP2 DUP4 CALLDATACOPY POP POP POP JUMP JUMPDEST PUSH1 0x0 PUSH2 0xA0A4 DUP4 DUP6 PUSH2 0x9C20 JUMP JUMPDEST SWAP4 POP PUSH32 0x7FFFFFFFFFFFFFFFFFFFFFFFFFFFFFFFFFFFFFFFFFFFFFFFFFFFFFFFFFFFFFF DUP4 GT ISZERO PUSH2 0xA0D7 JUMPI PUSH2 0xA0D6 PUSH2 0xA08A JUMP JUMPDEST JUMPDEST PUSH1 0x20 DUP4 MUL SWAP3 POP PUSH2 0xA0E8 DUP4 DUP6 DUP5 PUSH2 0xA08F JUMP JUMPDEST DUP3 DUP5 ADD SWAP1 POP SWAP4 SWAP3 POP POP POP JUMP JUMPDEST PUSH1 0x0 PUSH1 0xA0 DUP3 ADD SWAP1 POP PUSH2 0xA109 PUSH1 0x0 DUP4 ADD DUP10 PUSH2 0x8A98 JUMP JUMPDEST PUSH2 0xA116 PUSH1 0x20 DUP4 ADD DUP9 PUSH2 0xA07B JUMP JUMPDEST DUP2 DUP2 SUB PUSH1 0x40 DUP4 ADD MSTORE PUSH2 0xA128 DUP2 DUP8 PUSH2 0x9C75 JUMP JUMPDEST SWAP1 POP DUP2 DUP2 SUB PUSH1 0x60 DUP4 ADD MSTORE PUSH2 0xA13C DUP2 DUP7 PUSH2 0x9C75 JUMP JUMPDEST SWAP1 POP DUP2 DUP2 SUB PUSH1 0x80 DUP4 ADD MSTORE PUSH2 0xA151 DUP2 DUP5 DUP7 PUSH2 0xA098 JUMP JUMPDEST SWAP1 POP SWAP8 SWAP7 POP POP POP POP POP POP POP JUMP JUMPDEST PUSH32 0x4172664552433732313A204E6F742077686974656C6973746564000000000000 PUSH1 0x0 DUP3 ADD MSTORE POP JUMP JUMPDEST PUSH1 0x0 PUSH2 0xA194 PUSH1 0x1A DUP4 PUSH2 0x89A3 JUMP JUMPDEST SWAP2 POP PUSH2 0xA19F DUP3 PUSH2 0xA15E JUMP JUMPDEST PUSH1 0x20 DUP3 ADD SWAP1 POP SWAP2 SWAP1 POP JUMP JUMPDEST PUSH1 0x0 PUSH1 0x20 DUP3 ADD SWAP1 POP DUP2 DUP2 SUB PUSH1 0x0 DUP4 ADD MSTORE PUSH2 0xA1C3 DUP2 PUSH2 0xA187 JUMP JUMPDEST SWAP1 POP SWAP2 SWAP1 POP JUMP JUMPDEST PUSH1 0x0 DUP2 SWAP1 POP SWAP2 SWAP1 POP JUMP JUMPDEST PUSH1 0x0 PUSH2 0xA1EF PUSH2 0xA1EA PUSH2 0xA1E5 DUP5 PUSH2 0xA1CA JUMP JUMPDEST PUSH2 0x8DA8 JUMP JUMPDEST PUSH2 0x8546 JUMP JUMPDEST SWAP1 POP SWAP2 SWAP1 POP JUMP JUMPDEST PUSH2 0xA1FF DUP2 PUSH2 0xA1D4 JUMP JUMPDEST DUP3 MSTORE POP POP JUMP JUMPDEST PUSH1 0x0 PUSH1 0x80 DUP3 ADD SWAP1 POP PUSH2 0xA21A PUSH1 0x0 DUP4 ADD DUP8 PUSH2 0x8A98 JUMP JUMPDEST PUSH2 0xA227 PUSH1 0x20 DUP4 ADD DUP7 PUSH2 0xA1F6 JUMP JUMPDEST PUSH2 0xA234 PUSH1 0x40 DUP4 ADD DUP6 PUSH2 0x8B2E JUMP JUMPDEST PUSH2 0xA241 PUSH1 0x60 DUP4 ADD DUP5 PUSH2 0x8B2E JUMP JUMPDEST SWAP6 SWAP5 POP POP POP POP POP JUMP JUMPDEST PUSH1 0x0 DUP3 DUP3 MSTORE PUSH1 0x20 DUP3 ADD SWAP1 POP SWAP3 SWAP2 POP POP JUMP JUMPDEST PUSH1 0x0 DUP2 SWAP1 POP SWAP2 SWAP1 POP JUMP JUMPDEST PUSH2 0xA26E DUP2 PUSH2 0x8A86 JUMP JUMPDEST DUP3 MSTORE POP POP JUMP JUMPDEST PUSH1 0x0 PUSH2 0xA280 DUP4 DUP4 PUSH2 0xA265 JUMP JUMPDEST PUSH1 0x20 DUP4 ADD SWAP1 POP SWAP3 SWAP2 POP POP JUMP JUMPDEST PUSH1 0x0 PUSH2 0xA29B PUSH1 0x20 DUP5 ADD DUP5 PUSH2 0x8AD9 JUMP JUMPDEST SWAP1 POP SWAP3 SWAP2 POP POP JUMP JUMPDEST PUSH1 0x0 PUSH1 0x20 DUP3 ADD SWAP1 POP SWAP2 SWAP1 POP JUMP JUMPDEST PUSH1 0x0 PUSH2 0xA2BC DUP4 DUP6 PUSH2 0xA24A JUMP JUMPDEST SWAP4 POP PUSH2 0xA2C7 DUP3 PUSH2 0xA25B JUMP JUMPDEST DUP1 PUSH1 0x0 JUMPDEST DUP6 DUP2 LT ISZERO PUSH2 0xA300 JUMPI PUSH2 0xA2DD DUP3 DUP5 PUSH2 0xA28C JUMP JUMPDEST PUSH2 0xA2E7 DUP9 DUP3 PUSH2 0xA274 JUMP JUMPDEST SWAP8 POP PUSH2 0xA2F2 DUP4 PUSH2 0xA2A3 JUMP JUMPDEST SWAP3 POP POP PUSH1 0x1 DUP2 ADD SWAP1 POP PUSH2 0xA2CB JUMP JUMPDEST POP DUP6 SWAP3 POP POP POP SWAP4 SWAP3 POP POP POP JUMP JUMPDEST PUSH1 0x0 PUSH1 0x40 DUP3 ADD SWAP1 POP DUP2 DUP2 SUB PUSH1 0x0 DUP4 ADD MSTORE PUSH2 0xA328 DUP2 DUP6 DUP8 PUSH2 0xA2B0 JUMP JUMPDEST SWAP1 POP PUSH2 0xA337 PUSH1 0x20 DUP4 ADD DUP5 PUSH2 0x876E JUMP JUMPDEST SWAP5 SWAP4 POP POP POP POP JUMP JUMPDEST PUSH32 0x4552433732313A2063616C6C6572206973206E6F7420746F6B656E206F776E65 PUSH1 0x0 DUP3 ADD MSTORE PUSH32 0x72206F7220617070726F76656400000000000000000000000000000000000000 PUSH1 0x20 DUP3 ADD MSTORE POP JUMP JUMPDEST PUSH1 0x0 PUSH2 0xA39B PUSH1 0x2D DUP4 PUSH2 0x89A3 JUMP JUMPDEST SWAP2 POP PUSH2 0xA3A6 DUP3 PUSH2 0xA33F JUMP JUMPDEST PUSH1 0x40 DUP3 ADD SWAP1 POP SWAP2 SWAP1 POP JUMP JUMPDEST PUSH1 0x0 PUSH1 0x20 DUP3 ADD SWAP1 POP DUP2 DUP2 SUB PUSH1 0x0 DUP4 ADD MSTORE PUSH2 0xA3CA DUP2 PUSH2 0xA38E JUMP JUMPDEST SWAP1 POP SWAP2 SWAP1 POP JUMP JUMPDEST PUSH32 0x4E487B7100000000000000000000000000000000000000000000000000000000 PUSH1 0x0 MSTORE PUSH1 0x12 PUSH1 0x4 MSTORE PUSH1 0x24 PUSH1 0x0 REVERT JUMPDEST PUSH1 0x0 PUSH2 0xA40B DUP3 PUSH2 0x8546 JUMP JUMPDEST SWAP2 POP PUSH2 0xA416 DUP4 PUSH2 0x8546 JUMP JUMPDEST SWAP3 POP DUP3 PUSH2 0xA426 JUMPI PUSH2 0xA425 PUSH2 0xA3D1 JUMP JUMPDEST JUMPDEST DUP3 DUP3 DIV SWAP1 POP SWAP3 SWAP2 POP POP JUMP JUMPDEST PUSH32 0x41726645524337323156313A204E6F742077686974656C697374656420757365 PUSH1 0x0 DUP3 ADD MSTORE PUSH32 0x7200000000000000000000000000000000000000000000000000000000000000 PUSH1 0x20 DUP3 ADD MSTORE POP JUMP JUMPDEST PUSH1 0x0 PUSH2 0xA48D PUSH1 0x21 DUP4 PUSH2 0x89A3 JUMP JUMPDEST SWAP2 POP PUSH2 0xA498 DUP3 PUSH2 0xA431 JUMP JUMPDEST PUSH1 0x40 DUP3 ADD SWAP1 POP SWAP2 SWAP1 POP JUMP JUMPDEST PUSH1 0x0 PUSH1 0x20 DUP3 ADD SWAP1 POP DUP2 DUP2 SUB PUSH1 0x0 DUP4 ADD MSTORE PUSH2 0xA4BC DUP2 PUSH2 0xA480 JUMP JUMPDEST SWAP1 POP SWAP2 SWAP1 POP JUMP JUMPDEST PUSH1 0x0 PUSH1 0x60 DUP3 ADD SWAP1 POP PUSH2 0xA4D8 PUSH1 0x0 DUP4 ADD DUP7 PUSH2 0x8A98 JUMP JUMPDEST PUSH2 0xA4E5 PUSH1 0x20 DUP4 ADD DUP6 PUSH2 0x8B2E JUMP JUMPDEST PUSH2 0xA4F2 PUSH1 0x40 DUP4 ADD DUP5 PUSH2 0x8B2E JUMP JUMPDEST SWAP5 SWAP4 POP POP POP POP JUMP JUMPDEST PUSH32 0x4552433732313A20696E76616C696420746F6B656E2049440000000000000000 PUSH1 0x0 DUP3 ADD MSTORE POP JUMP JUMPDEST PUSH1 0x0 PUSH2 0xA530 PUSH1 0x18 DUP4 PUSH2 0x89A3 JUMP JUMPDEST SWAP2 POP PUSH2 0xA53B DUP3 PUSH2 0xA4FA JUMP JUMPDEST PUSH1 0x20 DUP3 ADD SWAP1 POP SWAP2 SWAP1 POP JUMP JUMPDEST PUSH1 0x0 PUSH1 0x20 DUP3 ADD SWAP1 POP DUP2 DUP2 SUB PUSH1 0x0 DUP4 ADD MSTORE PUSH2 0xA55F DUP2 PUSH2 0xA523 JUMP JUMPDEST SWAP1 POP SWAP2 SWAP1 POP JUMP JUMPDEST PUSH32 0x4552433732313A2061646472657373207A65726F206973206E6F742061207661 PUSH1 0x0 DUP3 ADD MSTORE PUSH32 0x6C6964206F776E65720000000000000000000000000000000000000000000000 PUSH1 0x20 DUP3 ADD MSTORE POP JUMP JUMPDEST PUSH1 0x0 PUSH2 0xA5C2 PUSH1 0x29 DUP4 PUSH2 0x89A3 JUMP JUMPDEST SWAP2 POP PUSH2 0xA5CD DUP3 PUSH2 0xA566 JUMP JUMPDEST PUSH1 0x40 DUP3 ADD SWAP1 POP SWAP2 SWAP1 POP JUMP JUMPDEST PUSH1 0x0 PUSH1 0x20 DUP3 ADD SWAP1 POP DUP2 DUP2 SUB PUSH1 0x0 DUP4 ADD MSTORE PUSH2 0xA5F1 DUP2 PUSH2 0xA5B5 JUMP JUMPDEST SWAP1 POP SWAP2 SWAP1 POP JUMP JUMPDEST PUSH32 0x496E697469616C697A61626C653A20636F6E747261637420697320616C726561 PUSH1 0x0 DUP3 ADD MSTORE PUSH32 0x647920696E697469616C697A6564000000000000000000000000000000000000 PUSH1 0x20 DUP3 ADD MSTORE POP JUMP JUMPDEST PUSH1 0x0 PUSH2 0xA654 PUSH1 0x2E DUP4 PUSH2 0x89A3 JUMP JUMPDEST SWAP2 POP PUSH2 0xA65F DUP3 PUSH2 0xA5F8 JUMP JUMPDEST PUSH1 0x40 DUP3 ADD SWAP1 POP SWAP2 SWAP1 POP JUMP JUMPDEST PUSH1 0x0 PUSH1 0x20 DUP3 ADD SWAP1 POP DUP2 DUP2 SUB PUSH1 0x0 DUP4 ADD MSTORE PUSH2 0xA683 DUP2 PUSH2 0xA647 JUMP JUMPDEST SWAP1 POP SWAP2 SWAP1 POP JUMP JUMPDEST PUSH1 0x0 DUP2 SWAP1 POP SWAP2 SWAP1 POP JUMP JUMPDEST PUSH1 0x0 PUSH1 0xFF DUP3 AND SWAP1 POP SWAP2 SWAP1 POP JUMP JUMPDEST PUSH1 0x0 PUSH2 0xA6BC PUSH2 0xA6B7 PUSH2 0xA6B2 DUP5 PUSH2 0xA68A JUMP JUMPDEST PUSH2 0x8DA8 JUMP JUMPDEST PUSH2 0xA694 JUMP JUMPDEST SWAP1 POP SWAP2 SWAP1 POP JUMP JUMPDEST PUSH2 0xA6CC DUP2 PUSH2 0xA6A1 JUMP JUMPDEST DUP3 MSTORE POP POP JUMP JUMPDEST PUSH1 0x0 PUSH1 0x20 DUP3 ADD SWAP1 POP PUSH2 0xA6E7 PUSH1 0x0 DUP4 ADD DUP5 PUSH2 0xA6C3 JUMP JUMPDEST SWAP3 SWAP2 POP POP JUMP JUMPDEST PUSH1 0x0 DUP2 SWAP1 POP SWAP2 SWAP1 POP JUMP JUMPDEST PUSH1 0x0 PUSH2 0xA712 PUSH2 0xA70D PUSH2 0xA708 DUP5 PUSH2 0xA6ED JUMP JUMPDEST PUSH2 0x8DA8 JUMP JUMPDEST PUSH2 0x8546 JUMP JUMPDEST SWAP1 POP SWAP2 SWAP1 POP JUMP JUMPDEST PUSH2 0xA722 DUP2 PUSH2 0xA6F7 JUMP JUMPDEST DUP3 MSTORE POP POP JUMP JUMPDEST PUSH1 0x0 PUSH1 0x60 DUP3 ADD SWAP1 POP PUSH2 0xA73D PUSH1 0x0 DUP4 ADD DUP7 PUSH2 0x8A98 JUMP JUMPDEST PUSH2 0xA74A PUSH1 0x20 DUP4 ADD DUP6 PUSH2 0x8B2E JUMP JUMPDEST PUSH2 0xA757 PUSH1 0x40 DUP4 ADD DUP5 PUSH2 0xA719 JUMP JUMPDEST SWAP5 SWAP4 POP POP POP POP JUMP JUMPDEST PUSH32 0x41726645524337323156313A204E6F74206C6973746564000000000000000000 PUSH1 0x0 DUP3 ADD MSTORE POP JUMP JUMPDEST PUSH1 0x0 PUSH2 0xA795 PUSH1 0x17 DUP4 PUSH2 0x89A3 JUMP JUMPDEST SWAP2 POP PUSH2 0xA7A0 DUP3 PUSH2 0xA75F JUMP JUMPDEST PUSH1 0x20 DUP3 ADD SWAP1 POP SWAP2 SWAP1 POP JUMP JUMPDEST PUSH1 0x0 PUSH1 0x20 DUP3 ADD SWAP1 POP DUP2 DUP2 SUB PUSH1 0x0 DUP4 ADD MSTORE PUSH2 0xA7C4 DUP2 PUSH2 0xA788 JUMP JUMPDEST SWAP1 POP SWAP2 SWAP1 POP JUMP JUMPDEST PUSH32 0x41726645524337323156313A205072697A6520697320696E636F727265637420 PUSH1 0x0 DUP3 ADD MSTORE PUSH32 0x6F7220696E76616C696400000000000000000000000000000000000000000000 PUSH1 0x20 DUP3 ADD MSTORE POP JUMP JUMPDEST PUSH1 0x0 PUSH2 0xA827 PUSH1 0x2A DUP4 PUSH2 0x89A3 JUMP JUMPDEST SWAP2 POP PUSH2 0xA832 DUP3 PUSH2 0xA7CB JUMP JUMPDEST PUSH1 0x40 DUP3 ADD SWAP1 POP SWAP2 SWAP1 POP JUMP JUMPDEST PUSH1 0x0 PUSH1 0x20 DUP3 ADD SWAP1 POP DUP2 DUP2 SUB PUSH1 0x0 DUP4 ADD MSTORE PUSH2 0xA856 DUP2 PUSH2 0xA81A JUMP JUMPDEST SWAP1 POP SWAP2 SWAP1 POP JUMP JUMPDEST PUSH1 0x0 PUSH2 0xA868 DUP3 PUSH2 0x8546 JUMP JUMPDEST SWAP2 POP PUSH2 0xA873 DUP4 PUSH2 0x8546 JUMP JUMPDEST SWAP3 POP DUP3 DUP3 SUB SWAP1 POP DUP2 DUP2 GT ISZERO PUSH2 0xA88B JUMPI PUSH2 0xA88A PUSH2 0x94FA JUMP JUMPDEST JUMPDEST SWAP3 SWAP2 POP POP JUMP JUMPDEST PUSH1 0x0 DUP2 SLOAD PUSH2 0xA89E DUP2 PUSH2 0x9910 JUMP JUMPDEST PUSH2 0xA8A8 DUP2 DUP7 PUSH2 0x89A3 JUMP JUMPDEST SWAP5 POP PUSH1 0x1 DUP3 AND PUSH1 0x0 DUP2 EQ PUSH2 0xA8C3 JUMPI PUSH1 0x1 DUP2 EQ PUSH2 0xA8D9 JUMPI PUSH2 0xA90C JUMP JUMPDEST PUSH1 0xFF NOT DUP4 AND DUP7 MSTORE DUP2 ISZERO ISZERO PUSH1 0x20 MUL DUP7 ADD SWAP4 POP PUSH2 0xA90C JUMP JUMPDEST PUSH2 0xA8E2 DUP6 PUSH2 0x9941 JUMP JUMPDEST PUSH1 0x0 JUMPDEST DUP4 DUP2 LT ISZERO PUSH2 0xA904 JUMPI DUP2 SLOAD DUP2 DUP10 ADD MSTORE PUSH1 0x1 DUP3 ADD SWAP2 POP PUSH1 0x20 DUP2 ADD SWAP1 POP PUSH2 0xA8E5 JUMP JUMPDEST DUP1 DUP9 ADD SWAP6 POP POP POP JUMPDEST POP POP POP SWAP3 SWAP2 POP POP JUMP JUMPDEST PUSH1 0x0 PUSH1 0xA0 DUP3 ADD SWAP1 POP PUSH2 0xA92A PUSH1 0x0 DUP4 ADD DUP9 PUSH2 0x8A98 JUMP JUMPDEST PUSH2 0xA937 PUSH1 0x20 DUP4 ADD DUP8 PUSH2 0x8A98 JUMP JUMPDEST PUSH2 0xA944 PUSH1 0x40 DUP4 ADD DUP7 PUSH2 0x8B2E JUMP JUMPDEST PUSH2 0xA951 PUSH1 0x60 DUP4 ADD DUP6 PUSH2 0x8B2E JUMP JUMPDEST DUP2 DUP2 SUB PUSH1 0x80 DUP4 ADD MSTORE PUSH2 0xA963 DUP2 DUP5 PUSH2 0xA891 JUMP JUMPDEST SWAP1 POP SWAP7 SWAP6 POP POP POP POP POP POP JUMP JUMPDEST PUSH1 0x0 PUSH1 0x80 DUP3 ADD SWAP1 POP PUSH2 0xA984 PUSH1 0x0 DUP4 ADD DUP8 PUSH2 0x8A98 JUMP JUMPDEST PUSH2 0xA991 PUSH1 0x20 DUP4 ADD DUP7 PUSH2 0x8A98 JUMP JUMPDEST PUSH2 0xA99E PUSH1 0x40 DUP4 ADD DUP6 PUSH2 0x8B2E JUMP JUMPDEST PUSH2 0xA9AB PUSH1 0x60 DUP4 ADD DUP5 PUSH2 0x8B2E JUMP JUMPDEST SWAP6 SWAP5 POP POP POP POP POP JUMP JUMPDEST PUSH32 0x41726645524337323156313A2055524920717565727920666F72206E6F6E6578 PUSH1 0x0 DUP3 ADD MSTORE PUSH32 0x697374656E7420746F6B656E0000000000000000000000000000000000000000 PUSH1 0x20 DUP3 ADD MSTORE POP JUMP JUMPDEST PUSH1 0x0 PUSH2 0xAA10 PUSH1 0x2C DUP4 PUSH2 0x89A3 JUMP JUMPDEST SWAP2 POP PUSH2 0xAA1B DUP3 PUSH2 0xA9B4 JUMP JUMPDEST PUSH1 0x40 DUP3 ADD SWAP1 POP SWAP2 SWAP1 POP JUMP JUMPDEST PUSH1 0x0 PUSH1 0x20 DUP3 ADD SWAP1 POP DUP2 DUP2 SUB PUSH1 0x0 DUP4 ADD MSTORE PUSH2 0xAA3F DUP2 PUSH2 0xAA03 JUMP JUMPDEST SWAP1 POP SWAP2 SWAP1 POP JUMP JUMPDEST PUSH1 0x0 DUP2 SWAP1 POP SWAP3 SWAP2 POP POP JUMP JUMPDEST PUSH1 0x0 DUP2 SLOAD PUSH2 0xAA5E DUP2 PUSH2 0x9910 JUMP JUMPDEST PUSH2 0xAA68 DUP2 DUP7 PUSH2 0xAA46 JUMP JUMPDEST SWAP5 POP PUSH1 0x1 DUP3 AND PUSH1 0x0 DUP2 EQ PUSH2 0xAA83 JUMPI PUSH1 0x1 DUP2 EQ PUSH2 0xAA98 JUMPI PUSH2 0xAACB JUMP JUMPDEST PUSH1 0xFF NOT DUP4 AND DUP7 MSTORE DUP2 ISZERO ISZERO DUP3 MUL DUP7 ADD SWAP4 POP PUSH2 0xAACB JUMP JUMPDEST PUSH2 0xAAA1 DUP6 PUSH2 0x9941 JUMP JUMPDEST PUSH1 0x0 JUMPDEST DUP4 DUP2 LT ISZERO PUSH2 0xAAC3 JUMPI DUP2 SLOAD DUP2 DUP10 ADD MSTORE PUSH1 0x1 DUP3 ADD SWAP2 POP PUSH1 0x20 DUP2 ADD SWAP1 POP PUSH2 0xAAA4 JUMP JUMPDEST DUP4 DUP9 ADD SWAP6 POP POP POP JUMPDEST POP POP POP SWAP3 SWAP2 POP POP JUMP JUMPDEST PUSH1 0x0 PUSH2 0xAADF DUP3 PUSH2 0x8998 JUMP JUMPDEST PUSH2 0xAAE9 DUP2 DUP6 PUSH2 0xAA46 JUMP JUMPDEST SWAP4 POP PUSH2 0xAAF9 DUP2 DUP6 PUSH1 0x20 DUP7 ADD PUSH2 0x89B4 JUMP JUMPDEST DUP1 DUP5 ADD SWAP2 POP POP SWAP3 SWAP2 POP POP JUMP JUMPDEST PUSH1 0x0 PUSH2 0xAB11 DUP3 DUP7 PUSH2 0xAA51 JUMP JUMPDEST SWAP2 POP PUSH2 0xAB1D DUP3 DUP6 PUSH2 0xAAD4 JUMP JUMPDEST SWAP2 POP PUSH2 0xAB29 DUP3 DUP5 PUSH2 0xAA51 JUMP JUMPDEST SWAP2 POP DUP2 SWAP1 POP SWAP5 SWAP4 POP POP POP POP JUMP JUMPDEST PUSH32 0x41726645524337323156313A204E6F74207065726D6974746564000000000000 PUSH1 0x0 DUP3 ADD MSTORE POP JUMP JUMPDEST PUSH1 0x0 PUSH2 0xAB6C PUSH1 0x1A DUP4 PUSH2 0x89A3 JUMP JUMPDEST SWAP2 POP PUSH2 0xAB77 DUP3 PUSH2 0xAB36 JUMP JUMPDEST PUSH1 0x20 DUP3 ADD SWAP1 POP SWAP2 SWAP1 POP JUMP JUMPDEST PUSH1 0x0 PUSH1 0x20 DUP3 ADD SWAP1 POP DUP2 DUP2 SUB PUSH1 0x0 DUP4 ADD MSTORE PUSH2 0xAB9B DUP2 PUSH2 0xAB5F JUMP JUMPDEST SWAP1 POP SWAP2 SWAP1 POP JUMP JUMPDEST PUSH32 0x4F776E61626C653A206E6577206F776E657220697320746865207A65726F2061 PUSH1 0x0 DUP3 ADD MSTORE PUSH32 0x6464726573730000000000000000000000000000000000000000000000000000 PUSH1 0x20 DUP3 ADD MSTORE POP JUMP JUMPDEST PUSH1 0x0 PUSH2 0xABFE PUSH1 0x26 DUP4 PUSH2 0x89A3 JUMP JUMPDEST SWAP2 POP PUSH2 0xAC09 DUP3 PUSH2 0xABA2 JUMP JUMPDEST PUSH1 0x40 DUP3 ADD SWAP1 POP SWAP2 SWAP1 POP JUMP JUMPDEST PUSH1 0x0 PUSH1 0x20 DUP3 ADD SWAP1 POP DUP2 DUP2 SUB PUSH1 0x0 DUP4 ADD MSTORE PUSH2 0xAC2D DUP2 PUSH2 0xABF1 JUMP JUMPDEST SWAP1 POP SWAP2 SWAP1 POP JUMP JUMPDEST PUSH32 0x4F776E61626C653A2063616C6C6572206973206E6F7420746865206F776E6572 PUSH1 0x0 DUP3 ADD MSTORE POP JUMP JUMPDEST PUSH1 0x0 PUSH2 0xAC6A PUSH1 0x20 DUP4 PUSH2 0x89A3 JUMP JUMPDEST SWAP2 POP PUSH2 0xAC75 DUP3 PUSH2 0xAC34 JUMP JUMPDEST PUSH1 0x20 DUP3 ADD SWAP1 POP SWAP2 SWAP1 POP JUMP JUMPDEST PUSH1 0x0 PUSH1 0x20 DUP3 ADD SWAP1 POP DUP2 DUP2 SUB PUSH1 0x0 DUP4 ADD MSTORE PUSH2 0xAC99 DUP2 PUSH2 0xAC5D JUMP JUMPDEST SWAP1 POP SWAP2 SWAP1 POP JUMP JUMPDEST PUSH32 0x5265656E7472616E637947756172643A207265656E7472616E742063616C6C00 PUSH1 0x0 DUP3 ADD MSTORE POP JUMP JUMPDEST PUSH1 0x0 PUSH2 0xACD6 PUSH1 0x1F DUP4 PUSH2 0x89A3 JUMP JUMPDEST SWAP2 POP PUSH2 0xACE1 DUP3 PUSH2 0xACA0 JUMP JUMPDEST PUSH1 0x20 DUP3 ADD SWAP1 POP SWAP2 SWAP1 POP JUMP JUMPDEST PUSH1 0x0 PUSH1 0x20 DUP3 ADD SWAP1 POP DUP2 DUP2 SUB PUSH1 0x0 DUP4 ADD MSTORE PUSH2 0xAD05 DUP2 PUSH2 0xACC9 JUMP JUMPDEST SWAP1 POP SWAP2 SWAP1 POP JUMP JUMPDEST PUSH32 0x4E487B7100000000000000000000000000000000000000000000000000000000 PUSH1 0x0 MSTORE PUSH1 0x21 PUSH1 0x4 MSTORE PUSH1 0x24 PUSH1 0x0 REVERT JUMPDEST PUSH2 0xAD44 DUP2 PUSH2 0x8EDB JUMP JUMPDEST DUP3 MSTORE POP POP JUMP JUMPDEST PUSH1 0x0 PUSH1 0x40 DUP3 ADD SWAP1 POP PUSH2 0xAD5F PUSH1 0x0 DUP4 ADD DUP6 PUSH2 0xAD3B JUMP JUMPDEST DUP2 DUP2 SUB PUSH1 0x20 DUP4 ADD MSTORE PUSH2 0xAD71 DUP2 DUP5 PUSH2 0x95E0 JUMP JUMPDEST SWAP1 POP SWAP4 SWAP3 POP POP POP JUMP JUMPDEST PUSH1 0x0 DUP2 MLOAD SWAP1 POP PUSH2 0xAD89 DUP2 PUSH2 0x8EE5 JUMP JUMPDEST SWAP3 SWAP2 POP POP JUMP JUMPDEST PUSH1 0x0 PUSH1 0x20 DUP3 DUP5 SUB SLT ISZERO PUSH2 0xADA5 JUMPI PUSH2 0xADA4 PUSH2 0x853C JUMP JUMPDEST JUMPDEST PUSH1 0x0 PUSH2 0xADB3 DUP5 DUP3 DUP6 ADD PUSH2 0xAD7A JUMP JUMPDEST SWAP2 POP POP SWAP3 SWAP2 POP POP JUMP JUMPDEST PUSH32 0x4552433732313A206D696E7420746F20746865207A65726F2061646472657373 PUSH1 0x0 DUP3 ADD MSTORE POP JUMP JUMPDEST PUSH1 0x0 PUSH2 0xADF2 PUSH1 0x20 DUP4 PUSH2 0x89A3 JUMP JUMPDEST SWAP2 POP PUSH2 0xADFD DUP3 PUSH2 0xADBC JUMP JUMPDEST PUSH1 0x20 DUP3 ADD SWAP1 POP SWAP2 SWAP1 POP JUMP JUMPDEST PUSH1 0x0 PUSH1 0x20 DUP3 ADD SWAP1 POP DUP2 DUP2 SUB PUSH1 0x0 DUP4 ADD MSTORE PUSH2 0xAE21 DUP2 PUSH2 0xADE5 JUMP JUMPDEST SWAP1 POP SWAP2 SWAP1 POP JUMP JUMPDEST PUSH32 0x4552433732313A20746F6B656E20616C7265616479206D696E74656400000000 PUSH1 0x0 DUP3 ADD MSTORE POP JUMP JUMPDEST PUSH1 0x0 PUSH2 0xAE5E PUSH1 0x1C DUP4 PUSH2 0x89A3 JUMP JUMPDEST SWAP2 POP PUSH2 0xAE69 DUP3 PUSH2 0xAE28 JUMP JUMPDEST PUSH1 0x20 DUP3 ADD SWAP1 POP SWAP2 SWAP1 POP JUMP JUMPDEST PUSH1 0x0 PUSH1 0x20 DUP3 ADD SWAP1 POP DUP2 DUP2 SUB PUSH1 0x0 DUP4 ADD MSTORE PUSH2 0xAE8D DUP2 PUSH2 0xAE51 JUMP JUMPDEST SWAP1 POP SWAP2 SWAP1 POP JUMP JUMPDEST PUSH32 0x4552433732313A207472616E736665722066726F6D20696E636F727265637420 PUSH1 0x0 DUP3 ADD MSTORE PUSH32 0x6F776E6572000000000000000000000000000000000000000000000000000000 PUSH1 0x20 DUP3 ADD MSTORE POP JUMP JUMPDEST PUSH1 0x0 PUSH2 0xAEF0 PUSH1 0x25 DUP4 PUSH2 0x89A3 JUMP JUMPDEST SWAP2 POP PUSH2 0xAEFB DUP3 PUSH2 0xAE94 JUMP JUMPDEST PUSH1 0x40 DUP3 ADD SWAP1 POP SWAP2 SWAP1 POP JUMP JUMPDEST PUSH1 0x0 PUSH1 0x20 DUP3 ADD SWAP1 POP DUP2 DUP2 SUB PUSH1 0x0 DUP4 ADD MSTORE PUSH2 0xAF1F DUP2 PUSH2 0xAEE3 JUMP JUMPDEST SWAP1 POP SWAP2 SWAP1 POP JUMP JUMPDEST PUSH32 0x4552433732313A207472616E7366657220746F20746865207A65726F20616464 PUSH1 0x0 DUP3 ADD MSTORE PUSH32 0x7265737300000000000000000000000000000000000000000000000000000000 PUSH1 0x20 DUP3 ADD MSTORE POP JUMP JUMPDEST PUSH1 0x0 PUSH2 0xAF82 PUSH1 0x24 DUP4 PUSH2 0x89A3 JUMP JUMPDEST SWAP2 POP PUSH2 0xAF8D DUP3 PUSH2 0xAF26 JUMP JUMPDEST PUSH1 0x40 DUP3 ADD SWAP1 POP SWAP2 SWAP1 POP JUMP JUMPDEST PUSH1 0x0 PUSH1 0x20 DUP3 ADD SWAP1 POP DUP2 DUP2 SUB PUSH1 0x0 DUP4 ADD MSTORE PUSH2 0xAFB1 DUP2 PUSH2 0xAF75 JUMP JUMPDEST SWAP1 POP SWAP2 SWAP1 POP JUMP JUMPDEST PUSH32 0x496E697469616C697A61626C653A20636F6E7472616374206973206E6F742069 PUSH1 0x0 DUP3 ADD MSTORE PUSH32 0x6E697469616C697A696E67000000000000000000000000000000000000000000 PUSH1 0x20 DUP3 ADD MSTORE POP JUMP JUMPDEST PUSH1 0x0 PUSH2 0xB014 PUSH1 0x2B DUP4 PUSH2 0x89A3 JUMP JUMPDEST SWAP2 POP PUSH2 0xB01F DUP3 PUSH2 0xAFB8 JUMP JUMPDEST PUSH1 0x40 DUP3 ADD SWAP1 POP SWAP2 SWAP1 POP JUMP JUMPDEST PUSH1 0x0 PUSH1 0x20 DUP3 ADD SWAP1 POP DUP2 DUP2 SUB PUSH1 0x0 DUP4 ADD MSTORE PUSH2 0xB043 DUP2 PUSH2 0xB007 JUMP JUMPDEST SWAP1 POP SWAP2 SWAP1 POP JUMP JUMPDEST PUSH32 0x4552433732313A207472616E7366657220746F206E6F6E204552433732315265 PUSH1 0x0 DUP3 ADD MSTORE PUSH32 0x63656976657220696D706C656D656E7465720000000000000000000000000000 PUSH1 0x20 DUP3 ADD MSTORE POP JUMP JUMPDEST PUSH1 0x0 PUSH2 0xB0A6 PUSH1 0x32 DUP4 PUSH2 0x89A3 JUMP JUMPDEST SWAP2 POP PUSH2 0xB0B1 DUP3 PUSH2 0xB04A JUMP JUMPDEST PUSH1 0x40 DUP3 ADD SWAP1 POP SWAP2 SWAP1 POP JUMP JUMPDEST PUSH1 0x0 PUSH1 0x20 DUP3 ADD SWAP1 POP DUP2 DUP2 SUB PUSH1 0x0 DUP4 ADD MSTORE PUSH2 0xB0D5 DUP2 PUSH2 0xB099 JUMP JUMPDEST SWAP1 POP SWAP2 SWAP1 POP JUMP JUMPDEST PUSH32 0x4552433732313A20617070726F766520746F2063616C6C657200000000000000 PUSH1 0x0 DUP3 ADD MSTORE POP JUMP JUMPDEST PUSH1 0x0 PUSH2 0xB112 PUSH1 0x19 DUP4 PUSH2 0x89A3 JUMP JUMPDEST SWAP2 POP PUSH2 0xB11D DUP3 PUSH2 0xB0DC JUMP JUMPDEST PUSH1 0x20 DUP3 ADD SWAP1 POP SWAP2 SWAP1 POP JUMP JUMPDEST PUSH1 0x0 PUSH1 0x20 DUP3 ADD SWAP1 POP DUP2 DUP2 SUB PUSH1 0x0 DUP4 ADD MSTORE PUSH2 0xB141 DUP2 PUSH2 0xB105 JUMP JUMPDEST SWAP1 POP SWAP2 SWAP1 POP JUMP JUMPDEST PUSH1 0x0 PUSH1 0x80 DUP3 ADD SWAP1 POP PUSH2 0xB15D PUSH1 0x0 DUP4 ADD DUP8 PUSH2 0x8A98 JUMP JUMPDEST PUSH2 0xB16A PUSH1 0x20 DUP4 ADD DUP7 PUSH2 0x8A98 JUMP JUMPDEST PUSH2 0xB177 PUSH1 0x40 DUP4 ADD DUP6 PUSH2 0x8B2E JUMP JUMPDEST DUP2 DUP2 SUB PUSH1 0x60 DUP4 ADD MSTORE PUSH2 0xB189 DUP2 DUP5 PUSH2 0x95E0 JUMP JUMPDEST SWAP1 POP SWAP6 SWAP5 POP POP POP POP POP JUMP JUMPDEST PUSH1 0x0 DUP2 MLOAD SWAP1 POP PUSH2 0xB1A3 DUP2 PUSH2 0x8709 JUMP JUMPDEST SWAP3 SWAP2 POP POP JUMP JUMPDEST PUSH1 0x0 PUSH1 0x20 DUP3 DUP5 SUB SLT ISZERO PUSH2 0xB1BF JUMPI PUSH2 0xB1BE PUSH2 0x853C JUMP JUMPDEST JUMPDEST PUSH1 0x0 PUSH2 0xB1CD DUP5 DUP3 DUP6 ADD PUSH2 0xB194 JUMP JUMPDEST SWAP2 POP POP SWAP3 SWAP2 POP POP JUMP JUMPDEST PUSH2 0xB1DF DUP2 PUSH2 0xA694 JUMP JUMPDEST DUP3 MSTORE POP POP JUMP JUMPDEST PUSH1 0x0 PUSH1 0x80 DUP3 ADD SWAP1 POP PUSH2 0xB1FA PUSH1 0x0 DUP4 ADD DUP8 PUSH2 0xAD3B JUMP JUMPDEST PUSH2 0xB207 PUSH1 0x20 DUP4 ADD DUP7 PUSH2 0xB1D6 JUMP JUMPDEST PUSH2 0xB214 PUSH1 0x40 DUP4 ADD DUP6 PUSH2 0xAD3B JUMP JUMPDEST PUSH2 0xB221 PUSH1 0x60 DUP4 ADD DUP5 PUSH2 0xAD3B JUMP JUMPDEST SWAP6 SWAP5 POP POP POP POP POP JUMP INVALID PUSH9 0x747470733A2F2F6173 PUSH20 0x6574732E616C6C6F792E73706163652F746F6B65 PUSH15 0x2D7572692D73322FA2646970667358 0x22 SLT KECCAK256 LOG2 SHL PUSH7 0xEA3D2CE9D0DDFE PUSH31 0x2241756D98D8B4404FB1F8C23F68349E31EA72E91264736F6C634300081000 CALLER "},"methodIdentifiers":{"ARCAddress()":"6ef1eee4","ConstructTokenAddress()":"35643681","FactoryPools(uint256,uint256)":"1a924fd5","JoepegsMultiple(uint256[])":"10a6d134","JoepegsTokenAddress()":"399b3798","MerchantWallet()":"7dd12d15","NFTtypes(uint256)":"6d998f01","NiozERC20Address()":"cb73bff1","allowedPrinters()":"0c53efe6","approve(address,uint256)":"095ea7b3","balanceOf(address)":"70a08231","buy((uint256,uint256,bytes32),bytes)":"9401c1e4","buyOffChain((uint256,address,uint256,bytes32),bytes)":"be6d6a6f","checkEpochStatus(uint256)":"3a988498","epochDetails(uint256)":"e329cf7b","feeCalculation(uint256)":"2c7d077e","getApproved(uint256)":"081812fc","initialize()":"8129fc1c","isApprovedForAll(address,address)":"e985e9c5","isVerified(bytes)":"c9941806","mintARC()":"93709109","mintARF()":"ecc228ce","mintEggnite()":"13de306a","mintInternalARC(uint256)":"32a5b0aa","mintInternalARF(uint256)":"63a205f7","mintPrinterARF((uint256,uint256,uint256,bytes32),bytes,bool)":"03ecaa95","name()":"06fdde03","owner()":"8da5cb5b","ownerOf(uint256)":"6352211e","renounceOwnership()":"715018a6","safeTransferFrom(address,address,uint256)":"42842e0e","safeTransferFrom(address,address,uint256,bytes)":"b88d4fde","setApprovalForAll(address,bool)":"a22cb465","supportsInterface(bytes4)":"01ffc9a7","symbol()":"95d89b41","tokenCounter()":"d082e381","tokenURI(uint256)":"c87b56dd","transferFrom(address,address,uint256)":"23b872dd","transferOwnership(address)":"f2fde38b","upadateDefaultUri(string,string)":"97c04edb","updateARCPoolDetails(uint256,uint256[],uint256[],uint256[],uint256[])":"001640c2","updateARFPoolDetails(uint256,uint256[],uint256[],uint256[],uint256[])":"61ffc012","updateCounter(uint256,uint256,uint256)":"e561084f","updateEpochDetails(uint256[],uint256[],uint256[])":"7ebededb","updateEpochStatus(uint256[],bool)":"edda7059","updateWallets(address,address,address,address,address,uint256)":"b3af1f26","whitelistARCAddresses(address[],bool)":"1424f936","whitelistARCAlloyTeam(address[],bool)":"c8d5c0e2","whitelistARCReserves(address[],bool)":"9ddb234c","whitelistARFAddresses(address[],bool)":"5d952d25","whitelistARFAlloyTeam(address[],bool)":"db0a4882","whitelistARFReserves(address[],bool)":"a7397c2e","whitelistAddressesEggnite(address[],bool)":"9533d573","whitelistedARCAddress(address)":"d87df9e2","whitelistedARCAlloyTeam(address)":"6eda504e","whitelistedARCReserve(address)":"8e6b86cb","whitelistedARFAddress(address)":"19d17e51","whitelistedARFAlloyTeam(address)":"ec437038","whitelistedARFReserve(address)":"6c7b7f6c","whitelistedAddressEggnite(address)":"c3e50abb"}},"storageLayout":{"storage":[{"astId":152,"contract":"contracts/ARF/ArfERC721V2.sol:ArfERC721V2","label":"_initialized","offset":0,"slot":"0","type":"t_uint8"},{"astId":155,"contract":"contracts/ARF/ArfERC721V2.sol:ArfERC721V2","label":"_initializing","offset":1,"slot":"0","type":"t_bool"},{"astId":1825,"contract":"contracts/ARF/ArfERC721V2.sol:ArfERC721V2","label":"__gap","offset":0,"slot":"1","type":"t_array(t_uint256)50_storage"},{"astId":2488,"contract":"contracts/ARF/ArfERC721V2.sol:ArfERC721V2","label":"__gap","offset":0,"slot":"51","type":"t_array(t_uint256)50_storage"},{"astId":416,"contract":"contracts/ARF/ArfERC721V2.sol:ArfERC721V2","label":"_name","offset":0,"slot":"101","type":"t_string_storage"},{"astId":418,"contract":"contracts/ARF/ArfERC721V2.sol:ArfERC721V2","label":"_symbol","offset":0,"slot":"102","type":"t_string_storage"},{"astId":422,"contract":"contracts/ARF/ArfERC721V2.sol:ArfERC721V2","label":"_owners","offset":0,"slot":"103","type":"t_mapping(t_uint256,t_address)"},{"astId":426,"contract":"contracts/ARF/ArfERC721V2.sol:ArfERC721V2","label":"_balances","offset":0,"slot":"104","type":"t_mapping(t_address,t_uint256)"},{"astId":430,"contract":"contracts/ARF/ArfERC721V2.sol:ArfERC721V2","label":"_tokenApprovals","offset":0,"slot":"105","type":"t_mapping(t_uint256,t_address)"},{"astId":436,"contract":"contracts/ARF/ArfERC721V2.sol:ArfERC721V2","label":"_operatorApprovals","offset":0,"slot":"106","type":"t_mapping(t_address,t_mapping(t_address,t_bool))"},{"astId":1338,"contract":"contracts/ARF/ArfERC721V2.sol:ArfERC721V2","label":"__gap","offset":0,"slot":"107","type":"t_array(t_uint256)44_storage"},{"astId":10,"contract":"contracts/ARF/ArfERC721V2.sol:ArfERC721V2","label":"_owner","offset":0,"slot":"151","type":"t_address"},{"astId":130,"contract":"contracts/ARF/ArfERC721V2.sol:ArfERC721V2","label":"__gap","offset":0,"slot":"152","type":"t_array(t_uint256)49_storage"},{"astId":328,"contract":"contracts/ARF/ArfERC721V2.sol:ArfERC721V2","label":"_status","offset":0,"slot":"201","type":"t_uint256"},{"astId":386,"contract":"contracts/ARF/ArfERC721V2.sol:ArfERC721V2","label":"__gap","offset":0,"slot":"202","type":"t_array(t_uint256)49_storage"},{"astId":3774,"contract":"contracts/ARF/ArfERC721V2.sol:ArfERC721V2","label":"tokenCounter","offset":0,"slot":"251","type":"t_uint256"},{"astId":3776,"contract":"contracts/ARF/ArfERC721V2.sol:ArfERC721V2","label":"baseUri","offset":0,"slot":"252","type":"t_string_storage"},{"astId":3778,"contract":"contracts/ARF/ArfERC721V2.sol:ArfERC721V2","label":"baseExtension","offset":0,"slot":"253","type":"t_string_storage"},{"astId":3792,"contract":"contracts/ARF/ArfERC721V2.sol:ArfERC721V2","label":"epochDetails","offset":0,"slot":"254","type":"t_mapping(t_uint256,t_struct(EpochPool)3787_storage)"},{"astId":3796,"contract":"contracts/ARF/ArfERC721V2.sol:ArfERC721V2","label":"checkEpochStatus","offset":0,"slot":"255","type":"t_mapping(t_uint256,t_bool)"},{"astId":3799,"contract":"contracts/ARF/ArfERC721V2.sol:ArfERC721V2","label":"JoepegsTokenAddress","offset":0,"slot":"256","type":"t_contract(Mintpeg)7799"},{"astId":3802,"contract":"contracts/ARF/ArfERC721V2.sol:ArfERC721V2","label":"ARCAddress","offset":0,"slot":"257","type":"t_contract(Mintpeg)7799"},{"astId":3806,"contract":"contracts/ARF/ArfERC721V2.sol:ArfERC721V2","label":"whitelistedARFAddress","offset":0,"slot":"258","type":"t_mapping(t_address,t_bool)"},{"astId":3810,"contract":"contracts/ARF/ArfERC721V2.sol:ArfERC721V2","label":"whitelistedARCAddress","offset":0,"slot":"259","type":"t_mapping(t_address,t_bool)"},{"astId":3814,"contract":"contracts/ARF/ArfERC721V2.sol:ArfERC721V2","label":"whitelistedAddressEggnite","offset":0,"slot":"260","type":"t_mapping(t_address,t_bool)"},{"astId":3818,"contract":"contracts/ARF/ArfERC721V2.sol:ArfERC721V2","label":"whitelistedARFReserve","offset":0,"slot":"261","type":"t_mapping(t_address,t_bool)"},{"astId":3822,"contract":"contracts/ARF/ArfERC721V2.sol:ArfERC721V2","label":"whitelistedARCReserve","offset":0,"slot":"262","type":"t_mapping(t_address,t_bool)"},{"astId":3826,"contract":"contracts/ARF/ArfERC721V2.sol:ArfERC721V2","label":"whitelistedARFAlloyTeam","offset":0,"slot":"263","type":"t_mapping(t_address,t_bool)"},{"astId":3830,"contract":"contracts/ARF/ArfERC721V2.sol:ArfERC721V2","label":"whitelistedARCAlloyTeam","offset":0,"slot":"264","type":"t_mapping(t_address,t_bool)"},{"astId":3856,"contract":"contracts/ARF/ArfERC721V2.sol:ArfERC721V2","label":"FactoryPools","offset":0,"slot":"265","type":"t_mapping(t_uint256,t_mapping(t_uint256,t_struct(Pools)3849_storage))"},{"astId":3860,"contract":"contracts/ARF/ArfERC721V2.sol:ArfERC721V2","label":"NFTtypes","offset":0,"slot":"266","type":"t_mapping(t_uint256,t_string_storage)"},{"astId":3864,"contract":"contracts/ARF/ArfERC721V2.sol:ArfERC721V2","label":"isVerified","offset":0,"slot":"267","type":"t_mapping(t_bytes_memory_ptr,t_bool)"},{"astId":3866,"contract":"contracts/ARF/ArfERC721V2.sol:ArfERC721V2","label":"allowedPrinters","offset":0,"slot":"268","type":"t_uint256"},{"astId":3869,"contract":"contracts/ARF/ArfERC721V2.sol:ArfERC721V2","label":"NiozERC20Address","offset":0,"slot":"269","type":"t_contract(IERC20Upgradeable)7558"},{"astId":3871,"contract":"contracts/ARF/ArfERC721V2.sol:ArfERC721V2","label":"MerchantWallet","offset":0,"slot":"270","type":"t_address"},{"astId":3899,"contract":"contracts/ARF/ArfERC721V2.sol:ArfERC721V2","label":"ConstructTokenAddress","offset":0,"slot":"271","type":"t_contract(Mintpeg)7799"}],"types":{"t_address":{"encoding":"inplace","label":"address","numberOfBytes":"20"},"t_array(t_uint256)44_storage":{"base":"t_uint256","encoding":"inplace","label":"uint256[44]","numberOfBytes":"1408"},"t_array(t_uint256)49_storage":{"base":"t_uint256","encoding":"inplace","label":"uint256[49]","numberOfBytes":"1568"},"t_array(t_uint256)50_storage":{"base":"t_uint256","encoding":"inplace","label":"uint256[50]","numberOfBytes":"1600"},"t_bool":{"encoding":"inplace","label":"bool","numberOfBytes":"1"},"t_bytes_memory_ptr":{"encoding":"bytes","label":"bytes","numberOfBytes":"32"},"t_contract(IERC20Upgradeable)7558":{"encoding":"inplace","label":"contract IERC20Upgradeable","numberOfBytes":"20"},"t_contract(Mintpeg)7799":{"encoding":"inplace","label":"contract Mintpeg","numberOfBytes":"20"},"t_mapping(t_address,t_bool)":{"encoding":"mapping","key":"t_address","label":"mapping(address => bool)","numberOfBytes":"32","value":"t_bool"},"t_mapping(t_address,t_mapping(t_address,t_bool))":{"encoding":"mapping","key":"t_address","label":"mapping(address => mapping(address => bool))","numberOfBytes":"32","value":"t_mapping(t_address,t_bool)"},"t_mapping(t_address,t_uint256)":{"encoding":"mapping","key":"t_address","label":"mapping(address => uint256)","numberOfBytes":"32","value":"t_uint256"},"t_mapping(t_bytes_memory_ptr,t_bool)":{"encoding":"mapping","key":"t_bytes_memory_ptr","label":"mapping(bytes => bool)","numberOfBytes":"32","value":"t_bool"},"t_mapping(t_uint256,t_address)":{"encoding":"mapping","key":"t_uint256","label":"mapping(uint256 => address)","numberOfBytes":"32","value":"t_address"},"t_mapping(t_uint256,t_bool)":{"encoding":"mapping","key":"t_uint256","label":"mapping(uint256 => bool)","numberOfBytes":"32","value":"t_bool"},"t_mapping(t_uint256,t_mapping(t_uint256,t_struct(Pools)3849_storage))":{"encoding":"mapping","key":"t_uint256","label":"mapping(uint256 => mapping(uint256 => struct ArfERC721V2.Pools))","numberOfBytes":"32","value":"t_mapping(t_uint256,t_struct(Pools)3849_storage)"},"t_mapping(t_uint256,t_string_storage)":{"encoding":"mapping","key":"t_uint256","label":"mapping(uint256 => string)","numberOfBytes":"32","value":"t_string_storage"},"t_mapping(t_uint256,t_struct(EpochPool)3787_storage)":{"encoding":"mapping","key":"t_uint256","label":"mapping(uint256 => struct ArfERC721V2.EpochPool)","numberOfBytes":"32","value":"t_struct(EpochPool)3787_storage"},"t_mapping(t_uint256,t_struct(Pools)3849_storage)":{"encoding":"mapping","key":"t_uint256","label":"mapping(uint256 => struct ArfERC721V2.Pools)","numberOfBytes":"32","value":"t_struct(Pools)3849_storage"},"t_string_storage":{"encoding":"bytes","label":"string","numberOfBytes":"32"},"t_struct(EpochPool)3787_storage":{"encoding":"inplace","label":"struct ArfERC721V2.EpochPool","members":[{"astId":3780,"contract":"contracts/ARF/ArfERC721V2.sol:ArfERC721V2","label":"totalQuantityARF","offset":0,"slot":"0","type":"t_uint256"},{"astId":3782,"contract":"contracts/ARF/ArfERC721V2.sol:ArfERC721V2","label":"quantityCounterARF","offset":0,"slot":"1","type":"t_uint256"},{"astId":3784,"contract":"contracts/ARF/ArfERC721V2.sol:ArfERC721V2","label":"totalQuantityARC","offset":0,"slot":"2","type":"t_uint256"},{"astId":3786,"contract":"contracts/ARF/ArfERC721V2.sol:ArfERC721V2","label":"quantityCounterARC","offset":0,"slot":"3","type":"t_uint256"}],"numberOfBytes":"128"},"t_struct(Pools)3849_storage":{"encoding":"inplace","label":"struct ArfERC721V2.Pools","members":[{"astId":3832,"contract":"contracts/ARF/ArfERC721V2.sol:ArfERC721V2","label":"poolId","offset":0,"slot":"0","type":"t_uint256"},{"astId":3834,"contract":"contracts/ARF/ArfERC721V2.sol:ArfERC721V2","label":"totalQuantityARC","offset":0,"slot":"1","type":"t_uint256"},{"astId":3836,"contract":"contracts/ARF/ArfERC721V2.sol:ArfERC721V2","label":"quantityCounterARC","offset":0,"slot":"2","type":"t_uint256"},{"astId":3838,"contract":"contracts/ARF/ArfERC721V2.sol:ArfERC721V2","label":"NiozPriceARC","offset":0,"slot":"3","type":"t_uint256"},{"astId":3840,"contract":"contracts/ARF/ArfERC721V2.sol:ArfERC721V2","label":"avaxPriceARC","offset":0,"slot":"4","type":"t_uint256"},{"astId":3842,"contract":"contracts/ARF/ArfERC721V2.sol:ArfERC721V2","label":"totalQuantityARF","offset":0,"slot":"5","type":"t_uint256"},{"astId":3844,"contract":"contracts/ARF/ArfERC721V2.sol:ArfERC721V2","label":"quantityCounterARF","offset":0,"slot":"6","type":"t_uint256"},{"astId":3846,"contract":"contracts/ARF/ArfERC721V2.sol:ArfERC721V2","label":"NiozPriceARF","offset":0,"slot":"7","type":"t_uint256"},{"astId":3848,"contract":"contracts/ARF/ArfERC721V2.sol:ArfERC721V2","label":"avaxPriceARF","offset":0,"slot":"8","type":"t_uint256"}],"numberOfBytes":"288"},"t_uint256":{"encoding":"inplace","label":"uint256","numberOfBytes":"32"},"t_uint8":{"encoding":"inplace","label":"uint8","numberOfBytes":"1"}}}}}}