{
  "_format": "hh-sol-artifact-1",
  "contractName": "Mintpeg",
  "sourceName": "contracts/ARF/MintpegInterface.sol",
  "abi": [
    {
      "inputs": [
        {
          "internalType": "address",
          "name": "to",
          "type": "address"
        },
        {
          "internalType": "uint256",
          "name": "tokenId",
          "type": "uint256"
        }
      ],
      "name": "approve",
      "outputs": [],
      "stateMutability": "nonpayable",
      "type": "function"
    },
    {
      "inputs": [
        {
          "internalType": "address",
          "name": "owner",
          "type": "address"
        }
      ],
      "name": "balanceOf",
      "outputs": [
        {
          "internalType": "uint256",
          "name": "balance",
          "type": "uint256"
        }
      ],
      "stateMutability": "view",
      "type": "function"
    },
    {
      "inputs": [
        {
          "internalType": "uint256",
          "name": "_tokenId",
          "type": "uint256"
        }
      ],
      "name": "burn",
      "outputs": [],
      "stateMutability": "nonpayable",
      "type": "function"
    },
    {
      "inputs": [],
      "name": "commissionFee",
      "outputs": [
        {
          "internalType": "uint256",
          "name": "",
          "type": "uint256"
        }
      ],
      "stateMutability": "view",
      "type": "function"
    },
    {
      "inputs": [
        {
          "internalType": "uint256",
          "name": "tokenId",
          "type": "uint256"
        }
      ],
      "name": "getApproved",
      "outputs": [
        {
          "internalType": "address",
          "name": "operator",
          "type": "address"
        }
      ],
      "stateMutability": "view",
      "type": "function"
    },
    {
      "inputs": [
        {
          "internalType": "address",
          "name": "owner",
          "type": "address"
        },
        {
          "internalType": "address",
          "name": "operator",
          "type": "address"
        }
      ],
      "name": "isApprovedForAll",
      "outputs": [
        {
          "internalType": "bool",
          "name": "",
          "type": "bool"
        }
      ],
      "stateMutability": "view",
      "type": "function"
    },
    {
      "inputs": [
        {
          "internalType": "bytes",
          "name": "_signature",
          "type": "bytes"
        }
      ],
      "name": "isVerified",
      "outputs": [
        {
          "internalType": "bool",
          "name": "",
          "type": "bool"
        }
      ],
      "stateMutability": "view",
      "type": "function"
    },
    {
      "inputs": [
        {
          "internalType": "string[]",
          "name": "_tokenURIs",
          "type": "string[]"
        }
      ],
      "name": "mint",
      "outputs": [],
      "stateMutability": "nonpayable",
      "type": "function"
    },
    {
      "inputs": [
        {
          "internalType": "address",
          "name": "_owner",
          "type": "address"
        }
      ],
      "name": "mintARC",
      "outputs": [
        {
          "internalType": "uint256",
          "name": "",
          "type": "uint256"
        }
      ],
      "stateMutability": "nonpayable",
      "type": "function"
    },
    {
      "inputs": [
        {
          "internalType": "uint256",
          "name": "tokenId",
          "type": "uint256"
        }
      ],
      "name": "ownerOf",
      "outputs": [
        {
          "internalType": "address",
          "name": "owner",
          "type": "address"
        }
      ],
      "stateMutability": "view",
      "type": "function"
    },
    {
      "inputs": [
        {
          "internalType": "address",
          "name": "from",
          "type": "address"
        },
        {
          "internalType": "address",
          "name": "to",
          "type": "address"
        },
        {
          "internalType": "uint256",
          "name": "tokenId",
          "type": "uint256"
        }
      ],
      "name": "safeTransferFrom",
      "outputs": [],
      "stateMutability": "nonpayable",
      "type": "function"
    },
    {
      "inputs": [
        {
          "internalType": "address",
          "name": "from",
          "type": "address"
        },
        {
          "internalType": "address",
          "name": "to",
          "type": "address"
        },
        {
          "internalType": "uint256",
          "name": "tokenId",
          "type": "uint256"
        },
        {
          "internalType": "bytes",
          "name": "data",
          "type": "bytes"
        }
      ],
      "name": "safeTransferFrom",
      "outputs": [],
      "stateMutability": "nonpayable",
      "type": "function"
    },
    {
      "inputs": [
        {
          "internalType": "address",
          "name": "operator",
          "type": "address"
        },
        {
          "internalType": "bool",
          "name": "_approved",
          "type": "bool"
        }
      ],
      "name": "setApprovalForAll",
      "outputs": [],
      "stateMutability": "nonpayable",
      "type": "function"
    },
    {
      "inputs": [
        {
          "internalType": "address",
          "name": "from",
          "type": "address"
        },
        {
          "internalType": "address",
          "name": "to",
          "type": "address"
        },
        {
          "internalType": "uint256",
          "name": "tokenId",
          "type": "uint256"
        }
      ],
      "name": "transferFrom",
      "outputs": [],
      "stateMutability": "nonpayable",
      "type": "function"
    }
  ],
  "bytecode": "0x608060405234801561001057600080fd5b50610b9e806100206000396000f3fe608060405234801561001057600080fd5b50600436106100ea5760003560e01c80636352211e1161008c578063a22cb46511610066578063a22cb46514610259578063b88d4fde14610275578063c994180614610291578063e985e9c5146102c1576100ea565b80636352211e146101db5780636fb1eb0c1461020b57806370a0823114610229576100ea565b806342842e0e116100c857806342842e0e1461015757806342966c68146101735780635768f2711461018f57806358f5f8be146101ab576100ea565b8063081812fc146100ef578063095ea7b31461011f57806323b872dd1461013b575b600080fd5b610109600480360381019061010491906104a5565b6102f1565b6040516101169190610513565b60405180910390f35b6101396004803603810190610134919061055a565b61030c565b005b6101556004803603810190610150919061059a565b610324565b005b610171600480360381019061016c919061059a565b61033d565b005b61018d600480360381019061018891906104a5565b610356565b005b6101a960048036038101906101a49190610819565b61036d565b005b6101c560048036038101906101c09190610862565b610384565b6040516101d2919061089e565b60405180910390f35b6101f560048036038101906101f091906104a5565b61039f565b6040516102029190610513565b60405180910390f35b6102136103ba565b604051610220919061089e565b60405180910390f35b610243600480360381019061023e9190610862565b6103d3565b604051610250919061089e565b60405180910390f35b610273600480360381019061026e91906108f1565b6103ee565b005b61028f600480360381019061028a919061098c565b610406565b005b6102ab60048036038101906102a69190610ab5565b610421565b6040516102b89190610b0d565b60405180910390f35b6102db60048036038101906102d69190610b28565b61043c565b6040516102e89190610b0d565b60405180910390f35b600061030767aa9b7c282106023d60c01b610458565b919050565b61032067ef61813b4e0d689660c01b610458565b5050565b61033867eaf943cbf5eb27ea60c01b610458565b505050565b610351675794fa821eb471d560c01b610458565b505050565b61036a678547c9397649d90360c01b610458565b50565b6103816724a847549ade087960c01b610458565b50565b600061039a671d0a27c343cccabf60c01b610458565b919050565b60006103b5676cf42775d8705d2360c01b610458565b919050565b60006103d06728fe6683dcf5200d60c01b610458565b90565b60006103e967517b63df6735334a60c01b610458565b919050565b6104026787e6b028fe7ecca960c01b610458565b5050565b61041a67494de618d89f25ab60c01b610458565b5050505050565b60006104376736a610bdba2eda9760c01b610458565b919050565b600061045267a9eba3d724b5b0a160c01b610458565b92915050565b50565b6000604051905090565b600080fd5b600080fd5b6000819050919050565b6104828161046f565b811461048d57600080fd5b50565b60008135905061049f81610479565b92915050565b6000602082840312156104bb576104ba610465565b5b60006104c984828501610490565b91505092915050565b600073ffffffffffffffffffffffffffffffffffffffff82169050919050565b60006104fd826104d2565b9050919050565b61050d816104f2565b82525050565b60006020820190506105286000830184610504565b92915050565b610537816104f2565b811461054257600080fd5b50565b6000813590506105548161052e565b92915050565b6000806040838503121561057157610570610465565b5b600061057f85828601610545565b925050602061059085828601610490565b9150509250929050565b6000806000606084860312156105b3576105b2610465565b5b60006105c186828701610545565b93505060206105d286828701610545565b92505060406105e386828701610490565b9150509250925092565b600080fd5b6000601f19601f8301169050919050565b7f4e487b7100000000000000000000000000000000000000000000000000000000600052604160045260246000fd5b61063b826105f2565b810181811067ffffffffffffffff8211171561065a57610659610603565b5b80604052505050565b600061066d61045b565b90506106798282610632565b919050565b600067ffffffffffffffff82111561069957610698610603565b5b602082029050602081019050919050565b600080fd5b600080fd5b600067ffffffffffffffff8211156106cf576106ce610603565b5b6106d8826105f2565b9050602081019050919050565b82818337600083830152505050565b6000610707610702846106b4565b610663565b905082815260208101848484011115610723576107226106af565b5b61072e8482856106e5565b509392505050565b600082601f83011261074b5761074a6105ed565b5b813561075b8482602086016106f4565b91505092915050565b60006107776107728461067e565b610663565b9050808382526020820190506020840283018581111561079a576107996106aa565b5b835b818110156107e157803567ffffffffffffffff8111156107bf576107be6105ed565b5b8086016107cc8982610736565b8552602085019450505060208101905061079c565b5050509392505050565b600082601f830112610800576107ff6105ed565b5b8135610810848260208601610764565b91505092915050565b60006020828403121561082f5761082e610465565b5b600082013567ffffffffffffffff81111561084d5761084c61046a565b5b610859848285016107eb565b91505092915050565b60006020828403121561087857610877610465565b5b600061088684828501610545565b91505092915050565b6108988161046f565b82525050565b60006020820190506108b3600083018461088f565b92915050565b60008115159050919050565b6108ce816108b9565b81146108d957600080fd5b50565b6000813590506108eb816108c5565b92915050565b6000806040838503121561090857610907610465565b5b600061091685828601610545565b9250506020610927858286016108dc565b9150509250929050565b600080fd5b60008083601f84011261094c5761094b6105ed565b5b8235905067ffffffffffffffff81111561096957610968610931565b5b602083019150836001820283011115610985576109846106aa565b5b9250929050565b6000806000806000608086880312156109a8576109a7610465565b5b60006109b688828901610545565b95505060206109c788828901610545565b94505060406109d888828901610490565b935050606086013567ffffffffffffffff8111156109f9576109f861046a565b5b610a0588828901610936565b92509250509295509295909350565b600067ffffffffffffffff821115610a2f57610a2e610603565b5b610a38826105f2565b9050602081019050919050565b6000610a58610a5384610a14565b610663565b905082815260208101848484011115610a7457610a736106af565b5b610a7f8482856106e5565b509392505050565b600082601f830112610a9c57610a9b6105ed565b5b8135610aac848260208601610a45565b91505092915050565b600060208284031215610acb57610aca610465565b5b600082013567ffffffffffffffff811115610ae957610ae861046a565b5b610af584828501610a87565b91505092915050565b610b07816108b9565b82525050565b6000602082019050610b226000830184610afe565b92915050565b60008060408385031215610b3f57610b3e610465565b5b6000610b4d85828601610545565b9250506020610b5e85828601610545565b915050925092905056fea26469706673582212201f63848a03e4bf791fa763ebdeabe0889e44d2210bbcc2b20a836ca256eac7f364736f6c63430008100033",
  "linkReferences": {},
  "deployedLinkReferences": {}
}