{
  "_format": "hh-sol-artifact-1",
  "contractName": "Joepegs",
  "sourceName": "contracts/EXTRACONSTRACTS/Joepegs.sol",
  "abi": [
    {
      "anonymous": false,
      "inputs": [
        {
          "indexed": true,
          "internalType": "address",
          "name": "owner",
          "type": "address"
        },
        {
          "indexed": true,
          "internalType": "address",
          "name": "approved",
          "type": "address"
        },
        {
          "indexed": true,
          "internalType": "uint256",
          "name": "tokenId",
          "type": "uint256"
        }
      ],
      "name": "Approval",
      "type": "event"
    },
    {
      "anonymous": false,
      "inputs": [
        {
          "indexed": true,
          "internalType": "address",
          "name": "owner",
          "type": "address"
        },
        {
          "indexed": true,
          "internalType": "address",
          "name": "operator",
          "type": "address"
        },
        {
          "indexed": false,
          "internalType": "bool",
          "name": "approved",
          "type": "bool"
        }
      ],
      "name": "ApprovalForAll",
      "type": "event"
    },
    {
      "anonymous": false,
      "inputs": [
        {
          "indexed": false,
          "internalType": "uint8",
          "name": "version",
          "type": "uint8"
        }
      ],
      "name": "Initialized",
      "type": "event"
    },
    {
      "anonymous": false,
      "inputs": [
        {
          "indexed": true,
          "internalType": "address",
          "name": "previousOwner",
          "type": "address"
        },
        {
          "indexed": true,
          "internalType": "address",
          "name": "newOwner",
          "type": "address"
        }
      ],
      "name": "OwnershipTransferred",
      "type": "event"
    },
    {
      "anonymous": false,
      "inputs": [
        {
          "indexed": true,
          "internalType": "address",
          "name": "from",
          "type": "address"
        },
        {
          "indexed": true,
          "internalType": "address",
          "name": "to",
          "type": "address"
        },
        {
          "indexed": true,
          "internalType": "uint256",
          "name": "tokenId",
          "type": "uint256"
        }
      ],
      "name": "Transfer",
      "type": "event"
    },
    {
      "inputs": [
        {
          "internalType": "address",
          "name": "to",
          "type": "address"
        },
        {
          "internalType": "uint256",
          "name": "tokenId",
          "type": "uint256"
        }
      ],
      "name": "approve",
      "outputs": [],
      "stateMutability": "nonpayable",
      "type": "function"
    },
    {
      "inputs": [
        {
          "internalType": "address",
          "name": "owner",
          "type": "address"
        }
      ],
      "name": "balanceOf",
      "outputs": [
        {
          "internalType": "uint256",
          "name": "",
          "type": "uint256"
        }
      ],
      "stateMutability": "view",
      "type": "function"
    },
    {
      "inputs": [
        {
          "internalType": "uint256",
          "name": "tokenId",
          "type": "uint256"
        }
      ],
      "name": "getApproved",
      "outputs": [
        {
          "internalType": "address",
          "name": "",
          "type": "address"
        }
      ],
      "stateMutability": "view",
      "type": "function"
    },
    {
      "inputs": [],
      "name": "initialize",
      "outputs": [],
      "stateMutability": "nonpayable",
      "type": "function"
    },
    {
      "inputs": [
        {
          "internalType": "address",
          "name": "owner",
          "type": "address"
        },
        {
          "internalType": "address",
          "name": "operator",
          "type": "address"
        }
      ],
      "name": "isApprovedForAll",
      "outputs": [
        {
          "internalType": "bool",
          "name": "",
          "type": "bool"
        }
      ],
      "stateMutability": "view",
      "type": "function"
    },
    {
      "inputs": [],
      "name": "mint",
      "outputs": [
        {
          "internalType": "uint256",
          "name": "",
          "type": "uint256"
        }
      ],
      "stateMutability": "nonpayable",
      "type": "function"
    },
    {
      "inputs": [],
      "name": "name",
      "outputs": [
        {
          "internalType": "string",
          "name": "",
          "type": "string"
        }
      ],
      "stateMutability": "view",
      "type": "function"
    },
    {
      "inputs": [],
      "name": "owner",
      "outputs": [
        {
          "internalType": "address",
          "name": "",
          "type": "address"
        }
      ],
      "stateMutability": "view",
      "type": "function"
    },
    {
      "inputs": [
        {
          "internalType": "uint256",
          "name": "tokenId",
          "type": "uint256"
        }
      ],
      "name": "ownerOf",
      "outputs": [
        {
          "internalType": "address",
          "name": "",
          "type": "address"
        }
      ],
      "stateMutability": "view",
      "type": "function"
    },
    {
      "inputs": [],
      "name": "renounceOwnership",
      "outputs": [],
      "stateMutability": "nonpayable",
      "type": "function"
    },
    {
      "inputs": [
        {
          "internalType": "address",
          "name": "from",
          "type": "address"
        },
        {
          "internalType": "address",
          "name": "to",
          "type": "address"
        },
        {
          "internalType": "uint256",
          "name": "tokenId",
          "type": "uint256"
        }
      ],
      "name": "safeTransferFrom",
      "outputs": [],
      "stateMutability": "nonpayable",
      "type": "function"
    },
    {
      "inputs": [
        {
          "internalType": "address",
          "name": "from",
          "type": "address"
        },
        {
          "internalType": "address",
          "name": "to",
          "type": "address"
        },
        {
          "internalType": "uint256",
          "name": "tokenId",
          "type": "uint256"
        },
        {
          "internalType": "bytes",
          "name": "data",
          "type": "bytes"
        }
      ],
      "name": "safeTransferFrom",
      "outputs": [],
      "stateMutability": "nonpayable",
      "type": "function"
    },
    {
      "inputs": [
        {
          "internalType": "address",
          "name": "operator",
          "type": "address"
        },
        {
          "internalType": "bool",
          "name": "approved",
          "type": "bool"
        }
      ],
      "name": "setApprovalForAll",
      "outputs": [],
      "stateMutability": "nonpayable",
      "type": "function"
    },
    {
      "inputs": [
        {
          "internalType": "bytes4",
          "name": "interfaceId",
          "type": "bytes4"
        }
      ],
      "name": "supportsInterface",
      "outputs": [
        {
          "internalType": "bool",
          "name": "",
          "type": "bool"
        }
      ],
      "stateMutability": "view",
      "type": "function"
    },
    {
      "inputs": [],
      "name": "symbol",
      "outputs": [
        {
          "internalType": "string",
          "name": "",
          "type": "string"
        }
      ],
      "stateMutability": "view",
      "type": "function"
    },
    {
      "inputs": [],
      "name": "tokenCounter",
      "outputs": [
        {
          "internalType": "uint256",
          "name": "",
          "type": "uint256"
        }
      ],
      "stateMutability": "view",
      "type": "function"
    },
    {
      "inputs": [
        {
          "internalType": "uint256",
          "name": "tokenId",
          "type": "uint256"
        }
      ],
      "name": "tokenURI",
      "outputs": [
        {
          "internalType": "string",
          "name": "",
          "type": "string"
        }
      ],
      "stateMutability": "view",
      "type": "function"
    },
    {
      "inputs": [
        {
          "internalType": "address",
          "name": "from",
          "type": "address"
        },
        {
          "internalType": "address",
          "name": "to",
          "type": "address"
        },
        {
          "internalType": "uint256",
          "name": "tokenId",
          "type": "uint256"
        }
      ],
      "name": "transferFrom",
      "outputs": [],
      "stateMutability": "nonpayable",
      "type": "function"
    },
    {
      "inputs": [
        {
          "internalType": "address",
          "name": "newOwner",
          "type": "address"
        }
      ],
      "name": "transferOwnership",
      "outputs": [],
      "stateMutability": "nonpayable",
      "type": "function"
    }
  ],
  "bytecode": "0x608060405234801561001057600080fd5b506130d5806100206000396000f3fe608060405234801561001057600080fd5b50600436106101215760003560e01c8063715018a6116100ad578063b88d4fde11610071578063b88d4fde146102e2578063c87b56dd146102fe578063d082e3811461032e578063e985e9c51461034c578063f2fde38b1461037c57610121565b8063715018a6146102765780638129fc1c146102805780638da5cb5b1461028a57806395d89b41146102a8578063a22cb465146102c657610121565b80631249c58b116100f45780631249c58b146101c057806323b872dd146101de57806342842e0e146101fa5780636352211e1461021657806370a082311461024657610121565b806301ffc9a71461012657806306fdde0314610156578063081812fc14610174578063095ea7b3146101a4575b600080fd5b610140600480360381019061013b9190611e6b565b610398565b60405161014d9190611eb3565b60405180910390f35b61015e61047a565b60405161016b9190611f5e565b60405180910390f35b61018e60048036038101906101899190611fb6565b61050c565b60405161019b9190612024565b60405180910390f35b6101be60048036038101906101b9919061206b565b610552565b005b6101c8610669565b6040516101d591906120ba565b60405180910390f35b6101f860048036038101906101f391906120d5565b610711565b005b610214600480360381019061020f91906120d5565b610771565b005b610230600480360381019061022b9190611fb6565b610791565b60405161023d9190612024565b60405180910390f35b610260600480360381019061025b9190612128565b610817565b60405161026d91906120ba565b60405180910390f35b61027e6108ce565b005b6102886108e2565b005b610292610b20565b60405161029f9190612024565b60405180910390f35b6102b0610b4a565b6040516102bd9190611f5e565b60405180910390f35b6102e060048036038101906102db9190612181565b610bdc565b005b6102fc60048036038101906102f791906122f6565b610bf2565b005b61031860048036038101906103139190611fb6565b610c54565b6040516103259190611f5e565b60405180910390f35b610336610cbc565b60405161034391906120ba565b60405180910390f35b61036660048036038101906103619190612379565b610cc2565b6040516103739190611eb3565b60405180910390f35b61039660048036038101906103919190612128565b610d56565b005b60007f80ac58cd000000000000000000000000000000000000000000000000000000007bffffffffffffffffffffffffffffffffffffffffffffffffffffffff1916827bffffffffffffffffffffffffffffffffffffffffffffffffffffffff1916148061046357507f5b5e139f000000000000000000000000000000000000000000000000000000007bffffffffffffffffffffffffffffffffffffffffffffffffffffffff1916827bffffffffffffffffffffffffffffffffffffffffffffffffffffffff1916145b80610473575061047282610dd9565b5b9050919050565b606060658054610489906123e8565b80601f01602080910402602001604051908101604052809291908181526020018280546104b5906123e8565b80156105025780601f106104d757610100808354040283529160200191610502565b820191906000526020600020905b8154815290600101906020018083116104e557829003601f168201915b5050505050905090565b600061051782610e43565b6069600083815260200190815260200160002060009054906101000a900473ffffffffffffffffffffffffffffffffffffffff169050919050565b600061055d82610791565b90508073ffffffffffffffffffffffffffffffffffffffff168373ffffffffffffffffffffffffffffffffffffffff16036105cd576040517f08c379a00000000000000000000000000000000000000000000000000000000081526004016105c49061248b565b60405180910390fd5b8073ffffffffffffffffffffffffffffffffffffffff166105ec610e8e565b73ffffffffffffffffffffffffffffffffffffffff16148061061b575061061a81610615610e8e565b610cc2565b5b61065a576040517f08c379a00000000000000000000000000000000000000000000000000000000081526004016106519061251d565b60405180910390fd5b6106648383610e96565b505050565b600061067f6735c89e6ed558d27560c01b610f4f565b6106936710baabf2bba3152460c01b610f4f565b600160c960008282546106a6919061256c565b925050819055506106c167347f415a6fba163860c01b610f4f565b6106d567893277e721adf5f360c01b610f4f565b6106e13360c954610f52565b6106f56786bd5df94bdaa31e60c01b610f4f565b61070967d27f4dbc5a37e49e60c01b610f4f565b60c954905090565b61072261071c610e8e565b8261116f565b610761576040517f08c379a000000000000000000000000000000000000000000000000000000000815260040161075890612612565b60405180910390fd5b61076c838383611204565b505050565b61078c83838360405180602001604052806000815250610bf2565b505050565b60008061079d836114fd565b9050600073ffffffffffffffffffffffffffffffffffffffff168173ffffffffffffffffffffffffffffffffffffffff160361080e576040517f08c379a00000000000000000000000000000000000000000000000000000000081526004016108059061267e565b60405180910390fd5b80915050919050565b60008073ffffffffffffffffffffffffffffffffffffffff168273ffffffffffffffffffffffffffffffffffffffff1603610887576040517f08c379a000000000000000000000000000000000000000000000000000000000815260040161087e90612710565b60405180910390fd5b606860008373ffffffffffffffffffffffffffffffffffffffff1673ffffffffffffffffffffffffffffffffffffffff168152602001908152602001600020549050919050565b6108d661153a565b6108e060006115b8565b565b6108f66721413986721d228760c01b610f4f565b60008060019054906101000a900460ff161590508080156109275750600160008054906101000a900460ff1660ff16105b8061095457506109363061167e565b1580156109535750600160008054906101000a900460ff1660ff16145b5b610993576040517f08c379a000000000000000000000000000000000000000000000000000000000815260040161098a906127a2565b60405180910390fd5b60016000806101000a81548160ff021916908360ff16021790555080156109d0576001600060016101000a81548160ff0219169083151502179055505b6109e46766dd23ecafe385ea60c01b610f4f565b6109f8670908e731263cc5f160c01b610f4f565b610a0c67eea126d56c655e2160c01b610f4f565b610a206768b1eb0b7c4a250460c01b610f4f565b610a946040518060400160405280600781526020017f4a6f6570656773000000000000000000000000000000000000000000000000008152506040518060400160405280600781526020017f4a4f4550454753000000000000000000000000000000000000000000000000008152506116a1565b610aa86782e44929df836e4860c01b610f4f565b610abc67aaeb4575b4c0a1f260c01b610f4f565b610ac46116fe565b8015610b1d5760008060016101000a81548160ff0219169083151502179055507f7f26b83ff96e1f2b6a682f133852f6798a09c465da95921460cefb38474024986001604051610b149190612814565b60405180910390a15b50565b6000609760009054906101000a900473ffffffffffffffffffffffffffffffffffffffff16905090565b606060668054610b59906123e8565b80601f0160208091040260200160405190810160405280929190818152602001828054610b85906123e8565b8015610bd25780601f10610ba757610100808354040283529160200191610bd2565b820191906000526020600020905b815481529060010190602001808311610bb557829003601f168201915b5050505050905090565b610bee610be7610e8e565b8383611757565b5050565b610c03610bfd610e8e565b8361116f565b610c42576040517f08c379a0000000000000000000000000000000000000000000000000000000008152600401610c3990612612565b60405180910390fd5b610c4e848484846118c3565b50505050565b6060610c5f82610e43565b6000610c6961191f565b90506000815111610c895760405180602001604052806000815250610cb4565b80610c9384611936565b604051602001610ca492919061286b565b6040516020818303038152906040525b915050919050565b60c95481565b6000606a60008473ffffffffffffffffffffffffffffffffffffffff1673ffffffffffffffffffffffffffffffffffffffff16815260200190815260200160002060008373ffffffffffffffffffffffffffffffffffffffff1673ffffffffffffffffffffffffffffffffffffffff16815260200190815260200160002060009054906101000a900460ff16905092915050565b610d5e61153a565b600073ffffffffffffffffffffffffffffffffffffffff168173ffffffffffffffffffffffffffffffffffffffff1603610dcd576040517f08c379a0000000000000000000000000000000000000000000000000000000008152600401610dc490612901565b60405180910390fd5b610dd6816115b8565b50565b60007f01ffc9a7000000000000000000000000000000000000000000000000000000007bffffffffffffffffffffffffffffffffffffffffffffffffffffffff1916827bffffffffffffffffffffffffffffffffffffffffffffffffffffffff1916149050919050565b610e4c81611a04565b610e8b576040517f08c379a0000000000000000000000000000000000000000000000000000000008152600401610e829061267e565b60405180910390fd5b50565b600033905090565b816069600083815260200190815260200160002060006101000a81548173ffffffffffffffffffffffffffffffffffffffff021916908373ffffffffffffffffffffffffffffffffffffffff160217905550808273ffffffffffffffffffffffffffffffffffffffff16610f0983610791565b73ffffffffffffffffffffffffffffffffffffffff167f8c5be1e5ebec7d5bd14f71427d1e84f3dd0314c0f7b2291e5b200ac8c7c3b92560405160405180910390a45050565b50565b600073ffffffffffffffffffffffffffffffffffffffff168273ffffffffffffffffffffffffffffffffffffffff1603610fc1576040517f08c379a0000000000000000000000000000000000000000000000000000000008152600401610fb89061296d565b60405180910390fd5b610fca81611a04565b1561100a576040517f08c379a0000000000000000000000000000000000000000000000000000000008152600401611001906129d9565b60405180910390fd5b611018600083836001611a45565b61102181611a04565b15611061576040517f08c379a0000000000000000000000000000000000000000000000000000000008152600401611058906129d9565b60405180910390fd5b6001606860008473ffffffffffffffffffffffffffffffffffffffff1673ffffffffffffffffffffffffffffffffffffffff16815260200190815260200160002060008282540192505081905550816067600083815260200190815260200160002060006101000a81548173ffffffffffffffffffffffffffffffffffffffff021916908373ffffffffffffffffffffffffffffffffffffffff160217905550808273ffffffffffffffffffffffffffffffffffffffff16600073ffffffffffffffffffffffffffffffffffffffff167fddf252ad1be2c89b69c2b068fc378daa952ba7f163c4a11628f55a4df523b3ef60405160405180910390a461116b600083836001611a4b565b5050565b60008061117b83610791565b90508073ffffffffffffffffffffffffffffffffffffffff168473ffffffffffffffffffffffffffffffffffffffff1614806111bd57506111bc8185610cc2565b5b806111fb57508373ffffffffffffffffffffffffffffffffffffffff166111e38461050c565b73ffffffffffffffffffffffffffffffffffffffff16145b91505092915050565b8273ffffffffffffffffffffffffffffffffffffffff1661122482610791565b73ffffffffffffffffffffffffffffffffffffffff161461127a576040517f08c379a000000000000000000000000000000000000000000000000000000000815260040161127190612a6b565b60405180910390fd5b600073ffffffffffffffffffffffffffffffffffffffff168273ffffffffffffffffffffffffffffffffffffffff16036112e9576040517f08c379a00000000000000000000000000000000000000000000000000000000081526004016112e090612afd565b60405180910390fd5b6112f68383836001611a45565b8273ffffffffffffffffffffffffffffffffffffffff1661131682610791565b73ffffffffffffffffffffffffffffffffffffffff161461136c576040517f08c379a000000000000000000000000000000000000000000000000000000000815260040161136390612a6b565b60405180910390fd5b6069600082815260200190815260200160002060006101000a81549073ffffffffffffffffffffffffffffffffffffffff02191690556001606860008573ffffffffffffffffffffffffffffffffffffffff1673ffffffffffffffffffffffffffffffffffffffff168152602001908152602001600020600082825403925050819055506001606860008473ffffffffffffffffffffffffffffffffffffffff1673ffffffffffffffffffffffffffffffffffffffff16815260200190815260200160002060008282540192505081905550816067600083815260200190815260200160002060006101000a81548173ffffffffffffffffffffffffffffffffffffffff021916908373ffffffffffffffffffffffffffffffffffffffff160217905550808273ffffffffffffffffffffffffffffffffffffffff168473ffffffffffffffffffffffffffffffffffffffff167fddf252ad1be2c89b69c2b068fc378daa952ba7f163c4a11628f55a4df523b3ef60405160405180910390a46114f88383836001611a4b565b505050565b60006067600083815260200190815260200160002060009054906101000a900473ffffffffffffffffffffffffffffffffffffffff169050919050565b611542610e8e565b73ffffffffffffffffffffffffffffffffffffffff16611560610b20565b73ffffffffffffffffffffffffffffffffffffffff16146115b6576040517f08c379a00000000000000000000000000000000000000000000000000000000081526004016115ad90612b69565b60405180910390fd5b565b6000609760009054906101000a900473ffffffffffffffffffffffffffffffffffffffff16905081609760006101000a81548173ffffffffffffffffffffffffffffffffffffffff021916908373ffffffffffffffffffffffffffffffffffffffff1602179055508173ffffffffffffffffffffffffffffffffffffffff168173ffffffffffffffffffffffffffffffffffffffff167f8be0079c531659141344cd1fd0a4f28419497f9722a3daafe3b4186f6b6457e060405160405180910390a35050565b6000808273ffffffffffffffffffffffffffffffffffffffff163b119050919050565b600060019054906101000a900460ff166116f0576040517f08c379a00000000000000000000000000000000000000000000000000000000081526004016116e790612bfb565b60405180910390fd5b6116fa8282611a51565b5050565b600060019054906101000a900460ff1661174d576040517f08c379a000000000000000000000000000000000000000000000000000000000815260040161174490612bfb565b60405180910390fd5b611755611ac4565b565b8173ffffffffffffffffffffffffffffffffffffffff168373ffffffffffffffffffffffffffffffffffffffff16036117c5576040517f08c379a00000000000000000000000000000000000000000000000000000000081526004016117bc90612c67565b60405180910390fd5b80606a60008573ffffffffffffffffffffffffffffffffffffffff1673ffffffffffffffffffffffffffffffffffffffff16815260200190815260200160002060008473ffffffffffffffffffffffffffffffffffffffff1673ffffffffffffffffffffffffffffffffffffffff16815260200190815260200160002060006101000a81548160ff0219169083151502179055508173ffffffffffffffffffffffffffffffffffffffff168373ffffffffffffffffffffffffffffffffffffffff167f17307eab39ab6107e8899845ad3d59bd9653f200f220920489ca2b5937696c31836040516118b69190611eb3565b60405180910390a3505050565b6118ce848484611204565b6118da84848484611b25565b611919576040517f08c379a000000000000000000000000000000000000000000000000000000000815260040161191090612cf9565b60405180910390fd5b50505050565b606060405180602001604052806000815250905090565b60606000600161194584611cac565b01905060008167ffffffffffffffff811115611964576119636121cb565b5b6040519080825280601f01601f1916602001820160405280156119965781602001600182028036833780820191505090505b509050600082602001820190505b6001156119f9578080600190039150507f3031323334353637383961626364656600000000000000000000000000000000600a86061a8153600a85816119ed576119ec612d19565b5b049450600085036119a4575b819350505050919050565b60008073ffffffffffffffffffffffffffffffffffffffff16611a26836114fd565b73ffffffffffffffffffffffffffffffffffffffff1614159050919050565b50505050565b50505050565b600060019054906101000a900460ff16611aa0576040517f08c379a0000000000000000000000000000000000000000000000000000000008152600401611a9790612bfb565b60405180910390fd5b8160659081611aaf9190612eea565b508060669081611abf9190612eea565b505050565b600060019054906101000a900460ff16611b13576040517f08c379a0000000000000000000000000000000000000000000000000000000008152600401611b0a90612bfb565b60405180910390fd5b611b23611b1e610e8e565b6115b8565b565b6000611b468473ffffffffffffffffffffffffffffffffffffffff1661167e565b15611c9f578373ffffffffffffffffffffffffffffffffffffffff1663150b7a02611b6f610e8e565b8786866040518563ffffffff1660e01b8152600401611b919493929190613011565b6020604051808303816000875af1925050508015611bcd57506040513d601f19601f82011682018060405250810190611bca9190613072565b60015b611c4f573d8060008114611bfd576040519150601f19603f3d011682016040523d82523d6000602084013e611c02565b606091505b506000815103611c47576040517f08c379a0000000000000000000000000000000000000000000000000000000008152600401611c3e90612cf9565b60405180910390fd5b805181602001fd5b63150b7a0260e01b7bffffffffffffffffffffffffffffffffffffffffffffffffffffffff1916817bffffffffffffffffffffffffffffffffffffffffffffffffffffffff191614915050611ca4565b600190505b949350505050565b600080600090507a184f03e93ff9f4daa797ed6e38ed64bf6a1f0100000000000000008310611d0a577a184f03e93ff9f4daa797ed6e38ed64bf6a1f0100000000000000008381611d0057611cff612d19565b5b0492506040810190505b6d04ee2d6d415b85acef81000000008310611d47576d04ee2d6d415b85acef81000000008381611d3d57611d3c612d19565b5b0492506020810190505b662386f26fc100008310611d7657662386f26fc100008381611d6c57611d6b612d19565b5b0492506010810190505b6305f5e1008310611d9f576305f5e1008381611d9557611d94612d19565b5b0492506008810190505b6127108310611dc4576127108381611dba57611db9612d19565b5b0492506004810190505b60648310611de75760648381611ddd57611ddc612d19565b5b0492506002810190505b600a8310611df6576001810190505b80915050919050565b6000604051905090565b600080fd5b600080fd5b60007fffffffff0000000000000000000000000000000000000000000000000000000082169050919050565b611e4881611e13565b8114611e5357600080fd5b50565b600081359050611e6581611e3f565b92915050565b600060208284031215611e8157611e80611e09565b5b6000611e8f84828501611e56565b91505092915050565b60008115159050919050565b611ead81611e98565b82525050565b6000602082019050611ec86000830184611ea4565b92915050565b600081519050919050565b600082825260208201905092915050565b60005b83811015611f08578082015181840152602081019050611eed565b60008484015250505050565b6000601f19601f8301169050919050565b6000611f3082611ece565b611f3a8185611ed9565b9350611f4a818560208601611eea565b611f5381611f14565b840191505092915050565b60006020820190508181036000830152611f788184611f25565b905092915050565b6000819050919050565b611f9381611f80565b8114611f9e57600080fd5b50565b600081359050611fb081611f8a565b92915050565b600060208284031215611fcc57611fcb611e09565b5b6000611fda84828501611fa1565b91505092915050565b600073ffffffffffffffffffffffffffffffffffffffff82169050919050565b600061200e82611fe3565b9050919050565b61201e81612003565b82525050565b60006020820190506120396000830184612015565b92915050565b61204881612003565b811461205357600080fd5b50565b6000813590506120658161203f565b92915050565b6000806040838503121561208257612081611e09565b5b600061209085828601612056565b92505060206120a185828601611fa1565b9150509250929050565b6120b481611f80565b82525050565b60006020820190506120cf60008301846120ab565b92915050565b6000806000606084860312156120ee576120ed611e09565b5b60006120fc86828701612056565b935050602061210d86828701612056565b925050604061211e86828701611fa1565b9150509250925092565b60006020828403121561213e5761213d611e09565b5b600061214c84828501612056565b91505092915050565b61215e81611e98565b811461216957600080fd5b50565b60008135905061217b81612155565b92915050565b6000806040838503121561219857612197611e09565b5b60006121a685828601612056565b92505060206121b78582860161216c565b9150509250929050565b600080fd5b600080fd5b7f4e487b7100000000000000000000000000000000000000000000000000000000600052604160045260246000fd5b61220382611f14565b810181811067ffffffffffffffff82111715612222576122216121cb565b5b80604052505050565b6000612235611dff565b905061224182826121fa565b919050565b600067ffffffffffffffff821115612261576122606121cb565b5b61226a82611f14565b9050602081019050919050565b82818337600083830152505050565b600061229961229484612246565b61222b565b9050828152602081018484840111156122b5576122b46121c6565b5b6122c0848285612277565b509392505050565b600082601f8301126122dd576122dc6121c1565b5b81356122ed848260208601612286565b91505092915050565b600080600080608085870312156123105761230f611e09565b5b600061231e87828801612056565b945050602061232f87828801612056565b935050604061234087828801611fa1565b925050606085013567ffffffffffffffff81111561236157612360611e0e565b5b61236d878288016122c8565b91505092959194509250565b600080604083850312156123905761238f611e09565b5b600061239e85828601612056565b92505060206123af85828601612056565b9150509250929050565b7f4e487b7100000000000000000000000000000000000000000000000000000000600052602260045260246000fd5b6000600282049050600182168061240057607f821691505b602082108103612413576124126123b9565b5b50919050565b7f4552433732313a20617070726f76616c20746f2063757272656e74206f776e6560008201527f7200000000000000000000000000000000000000000000000000000000000000602082015250565b6000612475602183611ed9565b915061248082612419565b604082019050919050565b600060208201905081810360008301526124a481612468565b9050919050565b7f4552433732313a20617070726f76652063616c6c6572206973206e6f7420746f60008201527f6b656e206f776e6572206f7220617070726f76656420666f7220616c6c000000602082015250565b6000612507603d83611ed9565b9150612512826124ab565b604082019050919050565b60006020820190508181036000830152612536816124fa565b9050919050565b7f4e487b7100000000000000000000000000000000000000000000000000000000600052601160045260246000fd5b600061257782611f80565b915061258283611f80565b925082820190508082111561259a5761259961253d565b5b92915050565b7f4552433732313a2063616c6c6572206973206e6f7420746f6b656e206f776e6560008201527f72206f7220617070726f76656400000000000000000000000000000000000000602082015250565b60006125fc602d83611ed9565b9150612607826125a0565b604082019050919050565b6000602082019050818103600083015261262b816125ef565b9050919050565b7f4552433732313a20696e76616c696420746f6b656e2049440000000000000000600082015250565b6000612668601883611ed9565b915061267382612632565b602082019050919050565b600060208201905081810360008301526126978161265b565b9050919050565b7f4552433732313a2061646472657373207a65726f206973206e6f74206120766160008201527f6c6964206f776e65720000000000000000000000000000000000000000000000602082015250565b60006126fa602983611ed9565b91506127058261269e565b604082019050919050565b60006020820190508181036000830152612729816126ed565b9050919050565b7f496e697469616c697a61626c653a20636f6e747261637420697320616c72656160008201527f647920696e697469616c697a6564000000000000000000000000000000000000602082015250565b600061278c602e83611ed9565b915061279782612730565b604082019050919050565b600060208201905081810360008301526127bb8161277f565b9050919050565b6000819050919050565b600060ff82169050919050565b6000819050919050565b60006127fe6127f96127f4846127c2565b6127d9565b6127cc565b9050919050565b61280e816127e3565b82525050565b60006020820190506128296000830184612805565b92915050565b600081905092915050565b600061284582611ece565b61284f818561282f565b935061285f818560208601611eea565b80840191505092915050565b6000612877828561283a565b9150612883828461283a565b91508190509392505050565b7f4f776e61626c653a206e6577206f776e657220697320746865207a65726f206160008201527f6464726573730000000000000000000000000000000000000000000000000000602082015250565b60006128eb602683611ed9565b91506128f68261288f565b604082019050919050565b6000602082019050818103600083015261291a816128de565b9050919050565b7f4552433732313a206d696e7420746f20746865207a65726f2061646472657373600082015250565b6000612957602083611ed9565b915061296282612921565b602082019050919050565b600060208201905081810360008301526129868161294a565b9050919050565b7f4552433732313a20746f6b656e20616c7265616479206d696e74656400000000600082015250565b60006129c3601c83611ed9565b91506129ce8261298d565b602082019050919050565b600060208201905081810360008301526129f2816129b6565b9050919050565b7f4552433732313a207472616e736665722066726f6d20696e636f72726563742060008201527f6f776e6572000000000000000000000000000000000000000000000000000000602082015250565b6000612a55602583611ed9565b9150612a60826129f9565b604082019050919050565b60006020820190508181036000830152612a8481612a48565b9050919050565b7f4552433732313a207472616e7366657220746f20746865207a65726f2061646460008201527f7265737300000000000000000000000000000000000000000000000000000000602082015250565b6000612ae7602483611ed9565b9150612af282612a8b565b604082019050919050565b60006020820190508181036000830152612b1681612ada565b9050919050565b7f4f776e61626c653a2063616c6c6572206973206e6f7420746865206f776e6572600082015250565b6000612b53602083611ed9565b9150612b5e82612b1d565b602082019050919050565b60006020820190508181036000830152612b8281612b46565b9050919050565b7f496e697469616c697a61626c653a20636f6e7472616374206973206e6f74206960008201527f6e697469616c697a696e67000000000000000000000000000000000000000000602082015250565b6000612be5602b83611ed9565b9150612bf082612b89565b604082019050919050565b60006020820190508181036000830152612c1481612bd8565b9050919050565b7f4552433732313a20617070726f766520746f2063616c6c657200000000000000600082015250565b6000612c51601983611ed9565b9150612c5c82612c1b565b602082019050919050565b60006020820190508181036000830152612c8081612c44565b9050919050565b7f4552433732313a207472616e7366657220746f206e6f6e20455243373231526560008201527f63656976657220696d706c656d656e7465720000000000000000000000000000602082015250565b6000612ce3603283611ed9565b9150612cee82612c87565b604082019050919050565b60006020820190508181036000830152612d1281612cd6565b9050919050565b7f4e487b7100000000000000000000000000000000000000000000000000000000600052601260045260246000fd5b60008190508160005260206000209050919050565b60006020601f8301049050919050565b600082821b905092915050565b600060088302612daa7fffffffffffffffffffffffffffffffffffffffffffffffffffffffffffffffff82612d6d565b612db48683612d6d565b95508019841693508086168417925050509392505050565b6000612de7612de2612ddd84611f80565b6127d9565b611f80565b9050919050565b6000819050919050565b612e0183612dcc565b612e15612e0d82612dee565b848454612d7a565b825550505050565b600090565b612e2a612e1d565b612e35818484612df8565b505050565b5b81811015612e5957612e4e600082612e22565b600181019050612e3b565b5050565b601f821115612e9e57612e6f81612d48565b612e7884612d5d565b81016020851015612e87578190505b612e9b612e9385612d5d565b830182612e3a565b50505b505050565b600082821c905092915050565b6000612ec160001984600802612ea3565b1980831691505092915050565b6000612eda8383612eb0565b9150826002028217905092915050565b612ef382611ece565b67ffffffffffffffff811115612f0c57612f0b6121cb565b5b612f1682546123e8565b612f21828285612e5d565b600060209050601f831160018114612f545760008415612f42578287015190505b612f4c8582612ece565b865550612fb4565b601f198416612f6286612d48565b60005b82811015612f8a57848901518255600182019150602085019450602081019050612f65565b86831015612fa75784890151612fa3601f891682612eb0565b8355505b6001600288020188555050505b505050505050565b600081519050919050565b600082825260208201905092915050565b6000612fe382612fbc565b612fed8185612fc7565b9350612ffd818560208601611eea565b61300681611f14565b840191505092915050565b60006080820190506130266000830187612015565b6130336020830186612015565b61304060408301856120ab565b81810360608301526130528184612fd8565b905095945050505050565b60008151905061306c81611e3f565b92915050565b60006020828403121561308857613087611e09565b5b60006130968482850161305d565b9150509291505056fea2646970667358221220d1bc49084a7f85b191dbcc8f81b144c2cb2f02bba7d442115de0cb399f23257e64736f6c63430008100033",
  "linkReferences": {},
  "deployedLinkReferences": {}
}