{
  "_format": "hh-sol-artifact-1",
  "contractName": "Mintpeg",
  "sourceName": "contracts/CONSTRUCT/MintpegInterface.sol",
  "abi": [
    {
      "inputs": [
        {
          "internalType": "address",
          "name": "to",
          "type": "address"
        },
        {
          "internalType": "uint256",
          "name": "tokenId",
          "type": "uint256"
        }
      ],
      "name": "approve",
      "outputs": [],
      "stateMutability": "nonpayable",
      "type": "function"
    },
    {
      "inputs": [
        {
          "internalType": "address",
          "name": "owner",
          "type": "address"
        }
      ],
      "name": "balanceOf",
      "outputs": [
        {
          "internalType": "uint256",
          "name": "balance",
          "type": "uint256"
        }
      ],
      "stateMutability": "view",
      "type": "function"
    },
    {
      "inputs": [
        {
          "internalType": "uint256",
          "name": "_tokenId",
          "type": "uint256"
        }
      ],
      "name": "burn",
      "outputs": [],
      "stateMutability": "nonpayable",
      "type": "function"
    },
    {
      "inputs": [
        {
          "internalType": "uint256[]",
          "name": "_tokenIds",
          "type": "uint256[]"
        },
        {
          "internalType": "string",
          "name": "_nft_type",
          "type": "string"
        }
      ],
      "name": "burnTokens",
      "outputs": [],
      "stateMutability": "nonpayable",
      "type": "function"
    },
    {
      "inputs": [],
      "name": "commissionFee",
      "outputs": [
        {
          "internalType": "uint256",
          "name": "",
          "type": "uint256"
        }
      ],
      "stateMutability": "view",
      "type": "function"
    },
    {
      "inputs": [
        {
          "internalType": "uint256",
          "name": "tokenId",
          "type": "uint256"
        }
      ],
      "name": "getApproved",
      "outputs": [
        {
          "internalType": "address",
          "name": "operator",
          "type": "address"
        }
      ],
      "stateMutability": "view",
      "type": "function"
    },
    {
      "inputs": [
        {
          "internalType": "address",
          "name": "owner",
          "type": "address"
        },
        {
          "internalType": "address",
          "name": "operator",
          "type": "address"
        }
      ],
      "name": "isApprovedForAll",
      "outputs": [
        {
          "internalType": "bool",
          "name": "",
          "type": "bool"
        }
      ],
      "stateMutability": "view",
      "type": "function"
    },
    {
      "inputs": [
        {
          "internalType": "bytes",
          "name": "_signature",
          "type": "bytes"
        }
      ],
      "name": "isVerified",
      "outputs": [
        {
          "internalType": "bool",
          "name": "",
          "type": "bool"
        }
      ],
      "stateMutability": "view",
      "type": "function"
    },
    {
      "inputs": [
        {
          "internalType": "string[]",
          "name": "_tokenURIs",
          "type": "string[]"
        }
      ],
      "name": "mint",
      "outputs": [],
      "stateMutability": "nonpayable",
      "type": "function"
    },
    {
      "inputs": [
        {
          "internalType": "address",
          "name": "_owner",
          "type": "address"
        }
      ],
      "name": "mintARC",
      "outputs": [
        {
          "internalType": "uint256",
          "name": "",
          "type": "uint256"
        }
      ],
      "stateMutability": "nonpayable",
      "type": "function"
    },
    {
      "inputs": [
        {
          "internalType": "uint256",
          "name": "tokenId",
          "type": "uint256"
        }
      ],
      "name": "ownerOf",
      "outputs": [
        {
          "internalType": "address",
          "name": "owner",
          "type": "address"
        }
      ],
      "stateMutability": "view",
      "type": "function"
    },
    {
      "inputs": [
        {
          "internalType": "address",
          "name": "from",
          "type": "address"
        },
        {
          "internalType": "address",
          "name": "to",
          "type": "address"
        },
        {
          "internalType": "uint256",
          "name": "tokenId",
          "type": "uint256"
        }
      ],
      "name": "safeTransferFrom",
      "outputs": [],
      "stateMutability": "nonpayable",
      "type": "function"
    },
    {
      "inputs": [
        {
          "internalType": "address",
          "name": "from",
          "type": "address"
        },
        {
          "internalType": "address",
          "name": "to",
          "type": "address"
        },
        {
          "internalType": "uint256",
          "name": "tokenId",
          "type": "uint256"
        },
        {
          "internalType": "bytes",
          "name": "data",
          "type": "bytes"
        }
      ],
      "name": "safeTransferFrom",
      "outputs": [],
      "stateMutability": "nonpayable",
      "type": "function"
    },
    {
      "inputs": [
        {
          "internalType": "address",
          "name": "operator",
          "type": "address"
        },
        {
          "internalType": "bool",
          "name": "_approved",
          "type": "bool"
        }
      ],
      "name": "setApprovalForAll",
      "outputs": [],
      "stateMutability": "nonpayable",
      "type": "function"
    },
    {
      "inputs": [
        {
          "internalType": "address",
          "name": "from",
          "type": "address"
        },
        {
          "internalType": "address",
          "name": "to",
          "type": "address"
        },
        {
          "internalType": "uint256",
          "name": "tokenId",
          "type": "uint256"
        }
      ],
      "name": "transferFrom",
      "outputs": [],
      "stateMutability": "nonpayable",
      "type": "function"
    }
  ],
  "bytecode": "0x608060405234801561001057600080fd5b50610cb0806100206000396000f3fe608060405234801561001057600080fd5b50600436106100f55760003560e01c80636352211e11610097578063a22cb46511610066578063a22cb46514610280578063b88d4fde1461029c578063c9941806146102b8578063e985e9c5146102e8576100f5565b80636352211e146101e65780636fb1eb0c1461021657806370a082311461023457806399b9c61d14610264576100f5565b806342842e0e116100d357806342842e0e1461016257806342966c681461017e5780635768f2711461019a57806358f5f8be146101b6576100f5565b8063081812fc146100fa578063095ea7b31461012a57806323b872dd14610146575b600080fd5b610114600480360381019061010f91906104e5565b610318565b6040516101219190610553565b60405180910390f35b610144600480360381019061013f919061059a565b610333565b005b610160600480360381019061015b91906105da565b61034b565b005b61017c600480360381019061017791906105da565b610364565b005b610198600480360381019061019391906104e5565b61037d565b005b6101b460048036038101906101af9190610859565b610394565b005b6101d060048036038101906101cb91906108a2565b6103ab565b6040516101dd91906108de565b60405180910390f35b61020060048036038101906101fb91906104e5565b6103c6565b60405161020d9190610553565b60405180910390f35b61021e6103e1565b60405161022b91906108de565b60405180910390f35b61024e600480360381019061024991906108a2565b6103fa565b60405161025b91906108de565b60405180910390f35b61027e60048036038101906102799190610954565b610415565b005b61029a60048036038101906102959190610a08565b61042e565b005b6102b660048036038101906102b19190610a9e565b610446565b005b6102d260048036038101906102cd9190610bc7565b610461565b6040516102df9190610c1f565b60405180910390f35b61030260048036038101906102fd9190610c3a565b61047c565b60405161030f9190610c1f565b60405180910390f35b600061032e67b8607c6c725e97b860c01b610498565b919050565b61034767b6bc05ae3790a88360c01b610498565b5050565b61035f67e0383544a5870e0d60c01b610498565b505050565b61037867f7c58bf62b70b7ff60c01b610498565b505050565b6103916705550101a509820960c01b610498565b50565b6103a867e61d29b257af0c8b60c01b610498565b50565b60006103c16743411785ae46b87a60c01b610498565b919050565b60006103dc67c3d238c684ba7c2960c01b610498565b919050565b60006103f767569288ad3e6366f260c01b610498565b90565b60006104106757d52edfec54a64a60c01b610498565b919050565b61042967be2e3b4fa328c36060c01b610498565b505050565b610442677839d1ca15180fde60c01b610498565b5050565b61045a674131f635d949776560c01b610498565b5050505050565b6000610477672ae75e98a2ca6c2460c01b610498565b919050565b600061049267f3d535ec8aad712360c01b610498565b92915050565b50565b6000604051905090565b600080fd5b600080fd5b6000819050919050565b6104c2816104af565b81146104cd57600080fd5b50565b6000813590506104df816104b9565b92915050565b6000602082840312156104fb576104fa6104a5565b5b6000610509848285016104d0565b91505092915050565b600073ffffffffffffffffffffffffffffffffffffffff82169050919050565b600061053d82610512565b9050919050565b61054d81610532565b82525050565b60006020820190506105686000830184610544565b92915050565b61057781610532565b811461058257600080fd5b50565b6000813590506105948161056e565b92915050565b600080604083850312156105b1576105b06104a5565b5b60006105bf85828601610585565b92505060206105d0858286016104d0565b9150509250929050565b6000806000606084860312156105f3576105f26104a5565b5b600061060186828701610585565b935050602061061286828701610585565b9250506040610623868287016104d0565b9150509250925092565b600080fd5b6000601f19601f8301169050919050565b7f4e487b7100000000000000000000000000000000000000000000000000000000600052604160045260246000fd5b61067b82610632565b810181811067ffffffffffffffff8211171561069a57610699610643565b5b80604052505050565b60006106ad61049b565b90506106b98282610672565b919050565b600067ffffffffffffffff8211156106d9576106d8610643565b5b602082029050602081019050919050565b600080fd5b600080fd5b600067ffffffffffffffff82111561070f5761070e610643565b5b61071882610632565b9050602081019050919050565b82818337600083830152505050565b6000610747610742846106f4565b6106a3565b905082815260208101848484011115610763576107626106ef565b5b61076e848285610725565b509392505050565b600082601f83011261078b5761078a61062d565b5b813561079b848260208601610734565b91505092915050565b60006107b76107b2846106be565b6106a3565b905080838252602082019050602084028301858111156107da576107d96106ea565b5b835b8181101561082157803567ffffffffffffffff8111156107ff576107fe61062d565b5b80860161080c8982610776565b855260208501945050506020810190506107dc565b5050509392505050565b600082601f8301126108405761083f61062d565b5b81356108508482602086016107a4565b91505092915050565b60006020828403121561086f5761086e6104a5565b5b600082013567ffffffffffffffff81111561088d5761088c6104aa565b5b6108998482850161082b565b91505092915050565b6000602082840312156108b8576108b76104a5565b5b60006108c684828501610585565b91505092915050565b6108d8816104af565b82525050565b60006020820190506108f360008301846108cf565b92915050565b600080fd5b60008083601f8401126109145761091361062d565b5b8235905067ffffffffffffffff811115610931576109306108f9565b5b60208301915083602082028301111561094d5761094c6106ea565b5b9250929050565b60008060006040848603121561096d5761096c6104a5565b5b600084013567ffffffffffffffff81111561098b5761098a6104aa565b5b610997868287016108fe565b9350935050602084013567ffffffffffffffff8111156109ba576109b96104aa565b5b6109c686828701610776565b9150509250925092565b60008115159050919050565b6109e5816109d0565b81146109f057600080fd5b50565b600081359050610a02816109dc565b92915050565b60008060408385031215610a1f57610a1e6104a5565b5b6000610a2d85828601610585565b9250506020610a3e858286016109f3565b9150509250929050565b60008083601f840112610a5e57610a5d61062d565b5b8235905067ffffffffffffffff811115610a7b57610a7a6108f9565b5b602083019150836001820283011115610a9757610a966106ea565b5b9250929050565b600080600080600060808688031215610aba57610ab96104a5565b5b6000610ac888828901610585565b9550506020610ad988828901610585565b9450506040610aea888289016104d0565b935050606086013567ffffffffffffffff811115610b0b57610b0a6104aa565b5b610b1788828901610a48565b92509250509295509295909350565b600067ffffffffffffffff821115610b4157610b40610643565b5b610b4a82610632565b9050602081019050919050565b6000610b6a610b6584610b26565b6106a3565b905082815260208101848484011115610b8657610b856106ef565b5b610b91848285610725565b509392505050565b600082601f830112610bae57610bad61062d565b5b8135610bbe848260208601610b57565b91505092915050565b600060208284031215610bdd57610bdc6104a5565b5b600082013567ffffffffffffffff811115610bfb57610bfa6104aa565b5b610c0784828501610b99565b91505092915050565b610c19816109d0565b82525050565b6000602082019050610c346000830184610c10565b92915050565b60008060408385031215610c5157610c506104a5565b5b6000610c5f85828601610585565b9250506020610c7085828601610585565b915050925092905056fea2646970667358221220bd104a44ad213d50e2ac70c9056803ad39b88b626f7595218cb9d144e2b887e864736f6c63430008100033",
  "linkReferences": {},
  "deployedLinkReferences": {}
}