{
  "_format": "hh-sol-artifact-1",
  "contractName": "ERC20Upgradeable",
  "sourceName": "contracts/NIOZ/ERC20Upgradeable.sol",
  "abi": [
    {
      "anonymous": false,
      "inputs": [
        {
          "indexed": true,
          "internalType": "address",
          "name": "owner",
          "type": "address"
        },
        {
          "indexed": true,
          "internalType": "address",
          "name": "spender",
          "type": "address"
        },
        {
          "indexed": false,
          "internalType": "uint256",
          "name": "value",
          "type": "uint256"
        }
      ],
      "name": "Approval",
      "type": "event"
    },
    {
      "anonymous": false,
      "inputs": [
        {
          "indexed": false,
          "internalType": "uint8",
          "name": "version",
          "type": "uint8"
        }
      ],
      "name": "Initialized",
      "type": "event"
    },
    {
      "anonymous": false,
      "inputs": [
        {
          "indexed": true,
          "internalType": "address",
          "name": "from",
          "type": "address"
        },
        {
          "indexed": true,
          "internalType": "address",
          "name": "to",
          "type": "address"
        },
        {
          "indexed": false,
          "internalType": "uint256",
          "name": "value",
          "type": "uint256"
        }
      ],
      "name": "Transfer",
      "type": "event"
    },
    {
      "inputs": [
        {
          "internalType": "address",
          "name": "owner",
          "type": "address"
        },
        {
          "internalType": "address",
          "name": "spender",
          "type": "address"
        }
      ],
      "name": "allowance",
      "outputs": [
        {
          "internalType": "uint256",
          "name": "",
          "type": "uint256"
        }
      ],
      "stateMutability": "view",
      "type": "function"
    },
    {
      "inputs": [
        {
          "internalType": "address",
          "name": "spender",
          "type": "address"
        },
        {
          "internalType": "uint256",
          "name": "amount",
          "type": "uint256"
        }
      ],
      "name": "approve",
      "outputs": [
        {
          "internalType": "bool",
          "name": "",
          "type": "bool"
        }
      ],
      "stateMutability": "nonpayable",
      "type": "function"
    },
    {
      "inputs": [
        {
          "internalType": "address",
          "name": "account",
          "type": "address"
        }
      ],
      "name": "balanceOf",
      "outputs": [
        {
          "internalType": "uint256",
          "name": "",
          "type": "uint256"
        }
      ],
      "stateMutability": "view",
      "type": "function"
    },
    {
      "inputs": [
        {
          "internalType": "address",
          "name": "",
          "type": "address"
        }
      ],
      "name": "blacklistAddresses",
      "outputs": [
        {
          "internalType": "bool",
          "name": "",
          "type": "bool"
        }
      ],
      "stateMutability": "view",
      "type": "function"
    },
    {
      "inputs": [],
      "name": "decimals",
      "outputs": [
        {
          "internalType": "uint8",
          "name": "",
          "type": "uint8"
        }
      ],
      "stateMutability": "view",
      "type": "function"
    },
    {
      "inputs": [
        {
          "internalType": "address",
          "name": "spender",
          "type": "address"
        },
        {
          "internalType": "uint256",
          "name": "subtractedValue",
          "type": "uint256"
        }
      ],
      "name": "decreaseAllowance",
      "outputs": [
        {
          "internalType": "bool",
          "name": "",
          "type": "bool"
        }
      ],
      "stateMutability": "nonpayable",
      "type": "function"
    },
    {
      "inputs": [
        {
          "internalType": "address",
          "name": "spender",
          "type": "address"
        },
        {
          "internalType": "uint256",
          "name": "addedValue",
          "type": "uint256"
        }
      ],
      "name": "increaseAllowance",
      "outputs": [
        {
          "internalType": "bool",
          "name": "",
          "type": "bool"
        }
      ],
      "stateMutability": "nonpayable",
      "type": "function"
    },
    {
      "inputs": [],
      "name": "name",
      "outputs": [
        {
          "internalType": "string",
          "name": "",
          "type": "string"
        }
      ],
      "stateMutability": "view",
      "type": "function"
    },
    {
      "inputs": [],
      "name": "symbol",
      "outputs": [
        {
          "internalType": "string",
          "name": "",
          "type": "string"
        }
      ],
      "stateMutability": "view",
      "type": "function"
    },
    {
      "inputs": [],
      "name": "totalSupply",
      "outputs": [
        {
          "internalType": "uint256",
          "name": "",
          "type": "uint256"
        }
      ],
      "stateMutability": "view",
      "type": "function"
    },
    {
      "inputs": [
        {
          "internalType": "address",
          "name": "to",
          "type": "address"
        },
        {
          "internalType": "uint256",
          "name": "amount",
          "type": "uint256"
        }
      ],
      "name": "transfer",
      "outputs": [
        {
          "internalType": "bool",
          "name": "",
          "type": "bool"
        }
      ],
      "stateMutability": "nonpayable",
      "type": "function"
    },
    {
      "inputs": [
        {
          "internalType": "address",
          "name": "from",
          "type": "address"
        },
        {
          "internalType": "address",
          "name": "to",
          "type": "address"
        },
        {
          "internalType": "uint256",
          "name": "amount",
          "type": "uint256"
        }
      ],
      "name": "transferFrom",
      "outputs": [
        {
          "internalType": "bool",
          "name": "",
          "type": "bool"
        }
      ],
      "stateMutability": "nonpayable",
      "type": "function"
    }
  ],
  "bytecode": "0x608060405234801561001057600080fd5b50611d3f806100206000396000f3fe608060405234801561001057600080fd5b50600436106100b45760003560e01c806370a082311161007157806370a08231146101a35780638e77fe2f146101d357806395d89b4114610203578063a457c2d714610221578063a9059cbb14610251578063dd62ed3e14610281576100b4565b806306fdde03146100b9578063095ea7b3146100d757806318160ddd1461010757806323b872dd14610125578063313ce567146101555780633950935114610173575b600080fd5b6100c16102b1565b6040516100ce91906115b0565b60405180910390f35b6100f160048036038101906100ec919061166b565b61037f565b6040516100fe91906116c6565b60405180910390f35b61010f61042f565b60405161011c91906116f0565b60405180910390f35b61013f600480360381019061013a919061170b565b610475565b60405161014c91906116c6565b60405180910390f35b61015d610559565b60405161016a919061177a565b60405180910390f35b61018d6004803603810190610188919061166b565b61059e565b60405161019a91906116c6565b60405180910390f35b6101bd60048036038101906101b89190611795565b610662565b6040516101ca91906116f0565b60405180910390f35b6101ed60048036038101906101e89190611795565b6106e7565b6040516101fa91906116c6565b60405180910390f35b61020b610707565b60405161021891906115b0565b60405180910390f35b61023b6004803603810190610236919061166b565b6107d5565b60405161024891906116c6565b60405180910390f35b61026b6004803603810190610266919061166b565b610965565b60405161027891906116c6565b60405180910390f35b61029b600480360381019061029691906117c2565b610a15565b6040516102a891906116f0565b60405180910390f35b60606102c76712fcbcea2f54bc9760c01b610ad8565b6102db676bae913c4001d87060c01b610ad8565b6102ef67ee3a671c1a061fd260c01b610ad8565b603680546102fc90611831565b80601f016020809104026020016040519081016040528092919081815260200182805461032890611831565b80156103755780601f1061034a57610100808354040283529160200191610375565b820191906000526020600020905b81548152906001019060200180831161035857829003601f168201915b5050505050905090565b600061039567bf1fca71c165472560c01b610ad8565b6103a967dc616f2f3d90e97e60c01b610ad8565b6103bd67cf0c2b3d0df530ef60c01b610ad8565b60006103c7610adb565b90506103dd67e7c79e7b275ff3a060c01b610ad8565b6103f167a873271e6ad3848160c01b610ad8565b6103fc818585610ae3565b61041067cfe918a45701de5160c01b610ad8565b6104246784a5b39da8a871b260c01b610ad8565b600191505092915050565b600061044567d63183bd5256866d60c01b610ad8565b61045967eb72a745dc8dc8ce60c01b610ad8565b61046d677c85e3c9da63418360c01b610ad8565b603554905090565b600061048b676682a132f458a0f960c01b610ad8565b61049f6744618e53f61c11a060c01b610ad8565b6104b36717b9fb5b9762aa1e60c01b610ad8565b60006104bd610adb565b90506104d3674306b5ee4f89f5f860c01b610ad8565b6104e7670a5a9620d306e56560c01b610ad8565b6104f2858285610d9c565b61050667f46d481eb7c4576060c01b610ad8565b61051a67727d438bc81971bb60c01b610ad8565b610525858585610f45565b61053967d8ada52a3aae0e3160c01b610ad8565b61054d670ba4b43a44f1eb0060c01b610ad8565b60019150509392505050565b600061056f6704b5e613afe656b660c01b610ad8565b610583676e26b852637b4f2e60c01b610ad8565b61059767c6d001af3927838660c01b610ad8565b6012905090565b60006105b467f23e17121efcdd9d60c01b610ad8565b6105c867fe93e3667119fce560c01b610ad8565b6105dc67da5313f878b2a56060c01b610ad8565b60006105e6610adb565b90506105fc67e7c676e32934131960c01b610ad8565b61061067ef7fdafcdbd5899f60c01b610ad8565b61062f8185856106208589610a15565b61062a9190611891565b610ae3565b61064367ba544287eb6b716b60c01b610ad8565b6106576780c1595c0274fbe960c01b610ad8565b600191505092915050565b6000610678674d2512ddc0a5ee0c60c01b610ad8565b61068c67aa8b4ceef303403c60c01b610ad8565b6106a0674f72b00035e4c23660c01b610ad8565b603360008373ffffffffffffffffffffffffffffffffffffffff1673ffffffffffffffffffffffffffffffffffffffff168152602001908152602001600020549050919050565b60386020528060005260406000206000915054906101000a900460ff1681565b606061071d67c2f816634474a7ae60c01b610ad8565b6107316731e2b61681827ad560c01b610ad8565b61074567e95cfbb3a68540c960c01b610ad8565b6037805461075290611831565b80601f016020809104026020016040519081016040528092919081815260200182805461077e90611831565b80156107cb5780601f106107a0576101008083540402835291602001916107cb565b820191906000526020600020905b8154815290600101906020018083116107ae57829003601f168201915b5050505050905090565b60006107eb673f4f718c38c375fe60c01b610ad8565b6107ff67bf3bf3f712daf56360c01b610ad8565b61081367e823d7d6caae29ff60c01b610ad8565b600061081d610adb565b905061083367e576c5b51c8b528060c01b610ad8565b61084767ebe817e0272c9eb660c01b610ad8565b60006108538286610a15565b9050610869676b423680e18fb11660c01b610ad8565b61087d67e51fbd5231ac066760c01b610ad8565b610891676b00924884a2206c60c01b610ad8565b838110156108d4576040517f08c379a00000000000000000000000000000000000000000000000000000000081526004016108cb90611937565b60405180910390fd5b6108e867f2cb39a5978ae8f360c01b610ad8565b6108fc67a42fa0770bab288a60c01b610ad8565b6109106784e7ce63f3ec7b5b60c01b610ad8565b6109246790f03ff30b6be67c60c01b610ad8565b6109318286868403610ae3565b610945671004286e65991a8c60c01b610ad8565b61095967f4340c34f2e122b360c01b610ad8565b60019250505092915050565b600061097b67596e850968ff484160c01b610ad8565b61098f67f604a98374250b6c60c01b610ad8565b6109a367b15dc635d19c2b1e60c01b610ad8565b60006109ad610adb565b90506109c367c40550a8cd4c4c0c60c01b610ad8565b6109d767079b66a8ae9f911860c01b610ad8565b6109e2818585610f45565b6109f6670775d1e7642967d960c01b610ad8565b610a0a672747e83febf57d9f60c01b610ad8565b600191505092915050565b6000610a2b6783a9197de04cb54960c01b610ad8565b610a3f67a2545b1098d8abe060c01b610ad8565b610a536715eb0959fa02365f60c01b610ad8565b603460008473ffffffffffffffffffffffffffffffffffffffff1673ffffffffffffffffffffffffffffffffffffffff16815260200190815260200160002060008373ffffffffffffffffffffffffffffffffffffffff1673ffffffffffffffffffffffffffffffffffffffff16815260200190815260200160002054905092915050565b50565b600033905090565b610af767d145e9f104d95df760c01b610ad8565b610b0b67c5b6c10d3c73b8c060c01b610ad8565b610b1f676adae15a164c1d4160c01b610ad8565b610b3367a27da2e601a0a24060c01b610ad8565b600073ffffffffffffffffffffffffffffffffffffffff168373ffffffffffffffffffffffffffffffffffffffff1603610ba2576040517f08c379a0000000000000000000000000000000000000000000000000000000008152600401610b99906119c9565b60405180910390fd5b610bb66757d26c6d4d17e11860c01b610ad8565b610bca67465a6ade2c65928760c01b610ad8565b610bde6742503d4feced536f60c01b610ad8565b610bf2671b437cd840361fc560c01b610ad8565b600073ffffffffffffffffffffffffffffffffffffffff168273ffffffffffffffffffffffffffffffffffffffff1603610c61576040517f08c379a0000000000000000000000000000000000000000000000000000000008152600401610c5890611a5b565b60405180910390fd5b610c7567c568186ef9c5559a60c01b610ad8565b610c896723a773af8fb0064660c01b610ad8565b80603460008573ffffffffffffffffffffffffffffffffffffffff1673ffffffffffffffffffffffffffffffffffffffff16815260200190815260200160002060008473ffffffffffffffffffffffffffffffffffffffff1673ffffffffffffffffffffffffffffffffffffffff16815260200190815260200160002081905550610d1e67c2d6deca9ed9a07860c01b610ad8565b610d3267ff4c715cd3506d7960c01b610ad8565b8173ffffffffffffffffffffffffffffffffffffffff168373ffffffffffffffffffffffffffffffffffffffff167f8c5be1e5ebec7d5bd14f71427d1e84f3dd0314c0f7b2291e5b200ac8c7c3b92583604051610d8f91906116f0565b60405180910390a3505050565b610db067ac7faee281cc04a660c01b610ad8565b610dc4676594d24c77ea8b3460c01b610ad8565b610dd86737af90778a8e1b8260c01b610ad8565b6000610de48484610a15565b9050610dfa679c31dc6cbb2d934c60c01b610ad8565b610e0e67e0f7da2236a7828960c01b610ad8565b7fffffffffffffffffffffffffffffffffffffffffffffffffffffffffffffffff8114610f2a57610e49676d4f5fce3443a33360c01b610ad8565b610e5d670fedaca48bbd21e560c01b610ad8565b610e71676a7ad3dd80f8ba1260c01b610ad8565b610e85673d21f8026edf20e860c01b610ad8565b81811015610ec8576040517f08c379a0000000000000000000000000000000000000000000000000000000008152600401610ebf90611ac7565b60405180910390fd5b610edc6744cf751e51a7b50a60c01b610ad8565b610ef0676c629072340f8abb60c01b610ad8565b610f0467385b4cde5133eafe60c01b610ad8565b610f1867ce97dbc434defc1e60c01b610ad8565b610f258484848403610ae3565b610f3f565b610f3e6742b25fb67508ca0260c01b610ad8565b5b50505050565b610f59671aebf4c4b494d3c860c01b610ad8565b610f6d67aa50e6f7f3bdb75160c01b610ad8565b610f81677cbc950fdcb9db2760c01b610ad8565b610f9567c9ba652c062c32e060c01b610ad8565b600073ffffffffffffffffffffffffffffffffffffffff168373ffffffffffffffffffffffffffffffffffffffff1603611004576040517f08c379a0000000000000000000000000000000000000000000000000000000008152600401610ffb90611b59565b60405180910390fd5b6110186736e246612345295560c01b610ad8565b61102c67287a47dff4b3f6ce60c01b610ad8565b611040671dd61082f97fe7a560c01b610ad8565b61105467dc4bb6ff329fc11b60c01b610ad8565b600073ffffffffffffffffffffffffffffffffffffffff168273ffffffffffffffffffffffffffffffffffffffff16036110c3576040517f08c379a00000000000000000000000000000000000000000000000000000000081526004016110ba90611beb565b60405180910390fd5b6110d767a3ab49c4af91656f60c01b610ad8565b6110eb67a68e6789e789a54e60c01b610ad8565b6110ff673934735c5ab6d35160c01b610ad8565b61110a8383836113a7565b61111e670125da76cc93db9060c01b610ad8565b611132672df4be57c556fd5c60c01b610ad8565b6000603360008573ffffffffffffffffffffffffffffffffffffffff1673ffffffffffffffffffffffffffffffffffffffff16815260200190815260200160002054905061118a6707b913821b806c5760c01b610ad8565b61119e677d80fc90d662980e60c01b610ad8565b6111b2679668b7b23b47861760c01b610ad8565b818110156111f5576040517f08c379a00000000000000000000000000000000000000000000000000000000081526004016111ec90611c7d565b60405180910390fd5b61120967bf680af0ad68b64d60c01b610ad8565b61121d67c0c447c3e695d31c60c01b610ad8565b61123167ac5fee09f554f40860c01b610ad8565b818103603360008673ffffffffffffffffffffffffffffffffffffffff1673ffffffffffffffffffffffffffffffffffffffff1681526020019081526020016000208190555061128b67508762e43645964060c01b610ad8565b81603360008573ffffffffffffffffffffffffffffffffffffffff1673ffffffffffffffffffffffffffffffffffffffff16815260200190815260200160002060008282546112da9190611891565b925050819055506112f567da7ced7a6ca6724a60c01b610ad8565b6113096731416c661633205a60c01b610ad8565b8273ffffffffffffffffffffffffffffffffffffffff168473ffffffffffffffffffffffffffffffffffffffff167fddf252ad1be2c89b69c2b068fc378daa952ba7f163c4a11628f55a4df523b3ef8460405161136691906116f0565b60405180910390a361138267b27da3bc1e057ceb60c01b610ad8565b61139667fd99199e4eb9e58b60c01b610ad8565b6113a1848484611507565b50505050565b6113bb671c293543700637de60c01b610ad8565b6113cf673e7cbdba8af183df60c01b610ad8565b6113e367028bd28a18c75bc060c01b610ad8565b6113f767c5572567dfe6746f60c01b610ad8565b603860008473ffffffffffffffffffffffffffffffffffffffff1673ffffffffffffffffffffffffffffffffffffffff16815260200190815260200160002060009054906101000a900460ff1615801561149b5750603860008373ffffffffffffffffffffffffffffffffffffffff1673ffffffffffffffffffffffffffffffffffffffff16815260200190815260200160002060009054906101000a900460ff16155b6114da576040517f08c379a00000000000000000000000000000000000000000000000000000000081526004016114d190611ce9565b60405180910390fd5b6114ee67eedd7a1839da019360c01b610ad8565b61150267ddc0bafc2fee306960c01b610ad8565b505050565b61151b670fba1b2ae3b39e6660c01b610ad8565b505050565b600081519050919050565b600082825260208201905092915050565b60005b8381101561155a57808201518184015260208101905061153f565b60008484015250505050565b6000601f19601f8301169050919050565b600061158282611520565b61158c818561152b565b935061159c81856020860161153c565b6115a581611566565b840191505092915050565b600060208201905081810360008301526115ca8184611577565b905092915050565b600080fd5b600073ffffffffffffffffffffffffffffffffffffffff82169050919050565b6000611602826115d7565b9050919050565b611612816115f7565b811461161d57600080fd5b50565b60008135905061162f81611609565b92915050565b6000819050919050565b61164881611635565b811461165357600080fd5b50565b6000813590506116658161163f565b92915050565b60008060408385031215611682576116816115d2565b5b600061169085828601611620565b92505060206116a185828601611656565b9150509250929050565b60008115159050919050565b6116c0816116ab565b82525050565b60006020820190506116db60008301846116b7565b92915050565b6116ea81611635565b82525050565b600060208201905061170560008301846116e1565b92915050565b600080600060608486031215611724576117236115d2565b5b600061173286828701611620565b935050602061174386828701611620565b925050604061175486828701611656565b9150509250925092565b600060ff82169050919050565b6117748161175e565b82525050565b600060208201905061178f600083018461176b565b92915050565b6000602082840312156117ab576117aa6115d2565b5b60006117b984828501611620565b91505092915050565b600080604083850312156117d9576117d86115d2565b5b60006117e785828601611620565b92505060206117f885828601611620565b9150509250929050565b7f4e487b7100000000000000000000000000000000000000000000000000000000600052602260045260246000fd5b6000600282049050600182168061184957607f821691505b60208210810361185c5761185b611802565b5b50919050565b7f4e487b7100000000000000000000000000000000000000000000000000000000600052601160045260246000fd5b600061189c82611635565b91506118a783611635565b92508282019050808211156118bf576118be611862565b5b92915050565b7f45524332303a2064656372656173656420616c6c6f77616e63652062656c6f7760008201527f207a65726f000000000000000000000000000000000000000000000000000000602082015250565b600061192160258361152b565b915061192c826118c5565b604082019050919050565b6000602082019050818103600083015261195081611914565b9050919050565b7f45524332303a20617070726f76652066726f6d20746865207a65726f2061646460008201527f7265737300000000000000000000000000000000000000000000000000000000602082015250565b60006119b360248361152b565b91506119be82611957565b604082019050919050565b600060208201905081810360008301526119e2816119a6565b9050919050565b7f45524332303a20617070726f766520746f20746865207a65726f20616464726560008201527f7373000000000000000000000000000000000000000000000000000000000000602082015250565b6000611a4560228361152b565b9150611a50826119e9565b604082019050919050565b60006020820190508181036000830152611a7481611a38565b9050919050565b7f45524332303a20696e73756666696369656e7420616c6c6f77616e6365000000600082015250565b6000611ab1601d8361152b565b9150611abc82611a7b565b602082019050919050565b60006020820190508181036000830152611ae081611aa4565b9050919050565b7f45524332303a207472616e736665722066726f6d20746865207a65726f20616460008201527f6472657373000000000000000000000000000000000000000000000000000000602082015250565b6000611b4360258361152b565b9150611b4e82611ae7565b604082019050919050565b60006020820190508181036000830152611b7281611b36565b9050919050565b7f45524332303a207472616e7366657220746f20746865207a65726f206164647260008201527f6573730000000000000000000000000000000000000000000000000000000000602082015250565b6000611bd560238361152b565b9150611be082611b79565b604082019050919050565b60006020820190508181036000830152611c0481611bc8565b9050919050565b7f45524332303a207472616e7366657220616d6f756e742065786365656473206260008201527f616c616e63650000000000000000000000000000000000000000000000000000602082015250565b6000611c6760268361152b565b9150611c7282611c0b565b604082019050919050565b60006020820190508181036000830152611c9681611c5a565b9050919050565b7f45524332303a20426c61636b6c69737465642061646472657373000000000000600082015250565b6000611cd3601a8361152b565b9150611cde82611c9d565b602082019050919050565b60006020820190508181036000830152611d0281611cc6565b905091905056fea264697066735822122073c5c1b7c6035736eedf49f282c0d5a390656751bdbdeda66ae046535ebb1ed564736f6c63430008100033",
  "linkReferences": {},
  "deployedLinkReferences": {}
}