{
  "_format": "hh-sol-artifact-1",
  "contractName": "AlloyERC721V1",
  "sourceName": "contracts/ARC/AlloyERC721V1.sol",
  "abi": [
    {
      "anonymous": false,
      "inputs": [
        {
          "indexed": true,
          "internalType": "address",
          "name": "owner",
          "type": "address"
        },
        {
          "indexed": true,
          "internalType": "address",
          "name": "approved",
          "type": "address"
        },
        {
          "indexed": true,
          "internalType": "uint256",
          "name": "tokenId",
          "type": "uint256"
        }
      ],
      "name": "Approval",
      "type": "event"
    },
    {
      "anonymous": false,
      "inputs": [
        {
          "indexed": true,
          "internalType": "address",
          "name": "owner",
          "type": "address"
        },
        {
          "indexed": true,
          "internalType": "address",
          "name": "operator",
          "type": "address"
        },
        {
          "indexed": false,
          "internalType": "bool",
          "name": "approved",
          "type": "bool"
        }
      ],
      "name": "ApprovalForAll",
      "type": "event"
    },
    {
      "anonymous": false,
      "inputs": [
        {
          "indexed": false,
          "internalType": "address",
          "name": "User",
          "type": "address"
        },
        {
          "indexed": false,
          "internalType": "uint256[]",
          "name": "PartIds",
          "type": "uint256[]"
        },
        {
          "indexed": false,
          "internalType": "uint256[]",
          "name": "PartTokenids",
          "type": "uint256[]"
        },
        {
          "indexed": false,
          "internalType": "uint256",
          "name": "UpgradeId",
          "type": "uint256"
        },
        {
          "indexed": false,
          "internalType": "uint256",
          "name": "UpgradeTokenId",
          "type": "uint256"
        },
        {
          "indexed": false,
          "internalType": "string",
          "name": "ConstructType",
          "type": "string"
        }
      ],
      "name": "AssembleParts",
      "type": "event"
    },
    {
      "anonymous": false,
      "inputs": [
        {
          "indexed": false,
          "internalType": "address",
          "name": "User",
          "type": "address"
        },
        {
          "indexed": false,
          "internalType": "uint256",
          "name": "ConstructId",
          "type": "uint256"
        },
        {
          "indexed": false,
          "internalType": "uint256",
          "name": "ConstructTokenId",
          "type": "uint256"
        },
        {
          "indexed": false,
          "internalType": "string",
          "name": "NFTtype",
          "type": "string"
        }
      ],
      "name": "ConstructMinted",
      "type": "event"
    },
    {
      "anonymous": false,
      "inputs": [
        {
          "indexed": false,
          "internalType": "uint8",
          "name": "version",
          "type": "uint8"
        }
      ],
      "name": "Initialized",
      "type": "event"
    },
    {
      "anonymous": false,
      "inputs": [
        {
          "indexed": true,
          "internalType": "address",
          "name": "previousOwner",
          "type": "address"
        },
        {
          "indexed": true,
          "internalType": "address",
          "name": "newOwner",
          "type": "address"
        }
      ],
      "name": "OwnershipTransferred",
      "type": "event"
    },
    {
      "anonymous": false,
      "inputs": [
        {
          "indexed": false,
          "internalType": "address",
          "name": "User",
          "type": "address"
        },
        {
          "indexed": false,
          "internalType": "uint256",
          "name": "PartTokenId",
          "type": "uint256"
        },
        {
          "indexed": false,
          "internalType": "uint256",
          "name": "PartId",
          "type": "uint256"
        },
        {
          "indexed": false,
          "internalType": "uint256",
          "name": "PrinterId",
          "type": "uint256"
        },
        {
          "indexed": false,
          "internalType": "uint256",
          "name": "PrinterTokenId",
          "type": "uint256"
        },
        {
          "indexed": false,
          "internalType": "string",
          "name": "NFTtype",
          "type": "string"
        }
      ],
      "name": "PartBurned",
      "type": "event"
    },
    {
      "anonymous": false,
      "inputs": [
        {
          "indexed": false,
          "internalType": "address",
          "name": "User",
          "type": "address"
        },
        {
          "indexed": false,
          "internalType": "uint256",
          "name": "TokenId",
          "type": "uint256"
        },
        {
          "indexed": false,
          "internalType": "uint256",
          "name": "PartId",
          "type": "uint256"
        },
        {
          "indexed": false,
          "internalType": "string",
          "name": "NFTtype",
          "type": "string"
        }
      ],
      "name": "PartMinted",
      "type": "event"
    },
    {
      "anonymous": false,
      "inputs": [
        {
          "indexed": false,
          "internalType": "address",
          "name": "User",
          "type": "address"
        },
        {
          "indexed": false,
          "internalType": "uint256",
          "name": "PartTokenId",
          "type": "uint256"
        },
        {
          "indexed": false,
          "internalType": "uint256",
          "name": "PartId",
          "type": "uint256"
        },
        {
          "indexed": false,
          "internalType": "uint256",
          "name": "ThreadUpgradeId",
          "type": "uint256"
        },
        {
          "indexed": false,
          "internalType": "uint256",
          "name": "ThreadUpgradeTokenId",
          "type": "uint256"
        },
        {
          "indexed": false,
          "internalType": "string",
          "name": "NFTtype",
          "type": "string"
        }
      ],
      "name": "PartProcessed",
      "type": "event"
    },
    {
      "anonymous": false,
      "inputs": [
        {
          "indexed": false,
          "internalType": "address",
          "name": "User",
          "type": "address"
        },
        {
          "indexed": false,
          "internalType": "uint256[]",
          "name": "TokenIds",
          "type": "uint256[]"
        },
        {
          "indexed": false,
          "internalType": "uint256",
          "name": "EpochId",
          "type": "uint256"
        },
        {
          "indexed": false,
          "internalType": "uint256",
          "name": "PoolId",
          "type": "uint256"
        },
        {
          "indexed": false,
          "internalType": "uint256",
          "name": "AvaxPrice",
          "type": "uint256"
        },
        {
          "indexed": false,
          "internalType": "uint256",
          "name": "NiozPrice",
          "type": "uint256"
        },
        {
          "indexed": false,
          "internalType": "string",
          "name": "NFTtype",
          "type": "string"
        }
      ],
      "name": "PrinterMinted",
      "type": "event"
    },
    {
      "anonymous": false,
      "inputs": [
        {
          "indexed": false,
          "internalType": "address",
          "name": "User",
          "type": "address"
        },
        {
          "indexed": false,
          "internalType": "uint256",
          "name": "PartId",
          "type": "uint256"
        },
        {
          "indexed": false,
          "internalType": "uint256",
          "name": "PartTokenId",
          "type": "uint256"
        },
        {
          "indexed": false,
          "internalType": "string",
          "name": "NFTtype",
          "type": "string"
        }
      ],
      "name": "ProcessedWithOutThread",
      "type": "event"
    },
    {
      "anonymous": false,
      "inputs": [
        {
          "indexed": false,
          "internalType": "address",
          "name": "User",
          "type": "address"
        },
        {
          "indexed": false,
          "internalType": "uint256",
          "name": "ThreadId",
          "type": "uint256"
        },
        {
          "indexed": false,
          "internalType": "uint256",
          "name": "ThreadTokenId",
          "type": "uint256"
        },
        {
          "indexed": false,
          "internalType": "uint256",
          "name": "PartId",
          "type": "uint256"
        },
        {
          "indexed": false,
          "internalType": "uint256",
          "name": "PartTokenId",
          "type": "uint256"
        },
        {
          "indexed": false,
          "internalType": "string",
          "name": "NFTtype",
          "type": "string"
        }
      ],
      "name": "ProcessedWithThread",
      "type": "event"
    },
    {
      "anonymous": false,
      "inputs": [
        {
          "indexed": false,
          "internalType": "address",
          "name": "User",
          "type": "address"
        },
        {
          "indexed": false,
          "internalType": "uint256",
          "name": "PartTokenId",
          "type": "uint256"
        },
        {
          "indexed": false,
          "internalType": "uint256",
          "name": "PartId",
          "type": "uint256"
        },
        {
          "indexed": false,
          "internalType": "uint256",
          "name": "PrinterId",
          "type": "uint256"
        },
        {
          "indexed": false,
          "internalType": "uint256",
          "name": "PrinterTokenId",
          "type": "uint256"
        },
        {
          "indexed": false,
          "internalType": "string",
          "name": "NFTtype",
          "type": "string"
        }
      ],
      "name": "RecycledPart",
      "type": "event"
    },
    {
      "anonymous": false,
      "inputs": [
        {
          "indexed": false,
          "internalType": "address",
          "name": "User",
          "type": "address"
        },
        {
          "indexed": false,
          "internalType": "uint256",
          "name": "Amount",
          "type": "uint256"
        },
        {
          "indexed": false,
          "internalType": "uint256",
          "name": "ConstructId",
          "type": "uint256"
        },
        {
          "indexed": false,
          "internalType": "string",
          "name": "NFTtype",
          "type": "string"
        }
      ],
      "name": "SoldConstruct",
      "type": "event"
    },
    {
      "anonymous": false,
      "inputs": [
        {
          "indexed": false,
          "internalType": "address",
          "name": "User",
          "type": "address"
        },
        {
          "indexed": false,
          "internalType": "uint256",
          "name": "Amount",
          "type": "uint256"
        },
        {
          "indexed": false,
          "internalType": "uint256",
          "name": "ConsumableId",
          "type": "uint256"
        },
        {
          "indexed": false,
          "internalType": "string",
          "name": "NFTtype",
          "type": "string"
        }
      ],
      "name": "SoldConsumable",
      "type": "event"
    },
    {
      "anonymous": false,
      "inputs": [
        {
          "indexed": false,
          "internalType": "address",
          "name": "PreviousOwner",
          "type": "address"
        },
        {
          "indexed": false,
          "internalType": "address",
          "name": "NewOwner",
          "type": "address"
        },
        {
          "indexed": false,
          "internalType": "uint256",
          "name": "Price",
          "type": "uint256"
        },
        {
          "indexed": false,
          "internalType": "uint256",
          "name": "TokenId",
          "type": "uint256"
        },
        {
          "indexed": false,
          "internalType": "string",
          "name": "TokenType",
          "type": "string"
        }
      ],
      "name": "TokenPurchased",
      "type": "event"
    },
    {
      "anonymous": false,
      "inputs": [
        {
          "indexed": true,
          "internalType": "address",
          "name": "from",
          "type": "address"
        },
        {
          "indexed": true,
          "internalType": "address",
          "name": "to",
          "type": "address"
        },
        {
          "indexed": true,
          "internalType": "uint256",
          "name": "tokenId",
          "type": "uint256"
        }
      ],
      "name": "Transfer",
      "type": "event"
    },
    {
      "anonymous": false,
      "inputs": [
        {
          "indexed": false,
          "internalType": "address",
          "name": "User",
          "type": "address"
        },
        {
          "indexed": false,
          "internalType": "uint256",
          "name": "UpgradeId",
          "type": "uint256"
        },
        {
          "indexed": false,
          "internalType": "uint256",
          "name": "UpgradeTokenId",
          "type": "uint256"
        },
        {
          "indexed": false,
          "internalType": "string",
          "name": "NFTtype",
          "type": "string"
        }
      ],
      "name": "UpgradeMinted",
      "type": "event"
    },
    {
      "anonymous": false,
      "inputs": [
        {
          "indexed": false,
          "internalType": "address",
          "name": "User",
          "type": "address"
        },
        {
          "indexed": false,
          "internalType": "uint256",
          "name": "PrinterId",
          "type": "uint256"
        },
        {
          "indexed": false,
          "internalType": "uint256",
          "name": "PrinterTokenId",
          "type": "uint256"
        },
        {
          "indexed": false,
          "internalType": "uint256",
          "name": "UpgradeId",
          "type": "uint256"
        },
        {
          "indexed": false,
          "internalType": "uint256",
          "name": "UpgradeTokenId",
          "type": "uint256"
        }
      ],
      "name": "equipUpgraded",
      "type": "event"
    },
    {
      "inputs": [],
      "name": "ARFtokenAddress",
      "outputs": [
        {
          "internalType": "contract ARFInterface",
          "name": "",
          "type": "address"
        }
      ],
      "stateMutability": "view",
      "type": "function"
    },
    {
      "inputs": [],
      "name": "MerchantWallet",
      "outputs": [
        {
          "internalType": "address",
          "name": "",
          "type": "address"
        }
      ],
      "stateMutability": "view",
      "type": "function"
    },
    {
      "inputs": [
        {
          "internalType": "uint256",
          "name": "",
          "type": "uint256"
        }
      ],
      "name": "NFTtypes",
      "outputs": [
        {
          "internalType": "string",
          "name": "",
          "type": "string"
        }
      ],
      "stateMutability": "view",
      "type": "function"
    },
    {
      "inputs": [],
      "name": "NiozERC20Address",
      "outputs": [
        {
          "internalType": "contract IERC20Upgradeable",
          "name": "",
          "type": "address"
        }
      ],
      "stateMutability": "view",
      "type": "function"
    },
    {
      "inputs": [],
      "name": "allowedPrinters",
      "outputs": [
        {
          "internalType": "uint256",
          "name": "",
          "type": "uint256"
        }
      ],
      "stateMutability": "view",
      "type": "function"
    },
    {
      "inputs": [
        {
          "internalType": "address",
          "name": "to",
          "type": "address"
        },
        {
          "internalType": "uint256",
          "name": "tokenId",
          "type": "uint256"
        }
      ],
      "name": "approve",
      "outputs": [],
      "stateMutability": "nonpayable",
      "type": "function"
    },
    {
      "inputs": [
        {
          "components": [
            {
              "internalType": "uint256[]",
              "name": "partTokenIds",
              "type": "uint256[]"
            },
            {
              "internalType": "uint256[]",
              "name": "partIds",
              "type": "uint256[]"
            },
            {
              "internalType": "uint256",
              "name": "assembleUpgradeId",
              "type": "uint256"
            },
            {
              "internalType": "uint256",
              "name": "assembleUpgradeTokenId",
              "type": "uint256"
            },
            {
              "internalType": "string",
              "name": "constructType",
              "type": "string"
            },
            {
              "internalType": "bytes32",
              "name": "messageHash",
              "type": "bytes32"
            }
          ],
          "internalType": "struct AlloyERC721V1.AssembleStruct",
          "name": "_order",
          "type": "tuple"
        },
        {
          "internalType": "bytes",
          "name": "_signature",
          "type": "bytes"
        }
      ],
      "name": "assembleParts",
      "outputs": [],
      "stateMutability": "nonpayable",
      "type": "function"
    },
    {
      "inputs": [
        {
          "internalType": "address",
          "name": "owner",
          "type": "address"
        }
      ],
      "name": "balanceOf",
      "outputs": [
        {
          "internalType": "uint256",
          "name": "",
          "type": "uint256"
        }
      ],
      "stateMutability": "view",
      "type": "function"
    },
    {
      "inputs": [
        {
          "components": [
            {
              "internalType": "uint256",
              "name": "Id",
              "type": "uint256"
            },
            {
              "internalType": "uint256",
              "name": "amount",
              "type": "uint256"
            },
            {
              "internalType": "bytes32",
              "name": "messageHash",
              "type": "bytes32"
            }
          ],
          "internalType": "struct AlloyERC721V1.SellOrder",
          "name": "_order",
          "type": "tuple"
        },
        {
          "internalType": "bytes",
          "name": "_signature",
          "type": "bytes"
        }
      ],
      "name": "buy",
      "outputs": [],
      "stateMutability": "payable",
      "type": "function"
    },
    {
      "inputs": [],
      "name": "commissionFee",
      "outputs": [
        {
          "internalType": "uint256",
          "name": "",
          "type": "uint256"
        }
      ],
      "stateMutability": "view",
      "type": "function"
    },
    {
      "inputs": [
        {
          "components": [
            {
              "internalType": "uint256",
              "name": "pId",
              "type": "uint256"
            },
            {
              "internalType": "uint256",
              "name": "pTokenId",
              "type": "uint256"
            },
            {
              "internalType": "uint256",
              "name": "uId",
              "type": "uint256"
            },
            {
              "internalType": "uint256",
              "name": "uTokenId",
              "type": "uint256"
            },
            {
              "internalType": "bytes32",
              "name": "messageHash",
              "type": "bytes32"
            }
          ],
          "internalType": "struct AlloyERC721V1.OrderUpgrade",
          "name": "_order",
          "type": "tuple"
        },
        {
          "internalType": "bytes",
          "name": "_signature",
          "type": "bytes"
        }
      ],
      "name": "equipUpgrade",
      "outputs": [],
      "stateMutability": "nonpayable",
      "type": "function"
    },
    {
      "inputs": [
        {
          "internalType": "uint256",
          "name": "tokenId",
          "type": "uint256"
        }
      ],
      "name": "getApproved",
      "outputs": [
        {
          "internalType": "address",
          "name": "",
          "type": "address"
        }
      ],
      "stateMutability": "view",
      "type": "function"
    },
    {
      "inputs": [],
      "name": "initialize",
      "outputs": [],
      "stateMutability": "nonpayable",
      "type": "function"
    },
    {
      "inputs": [
        {
          "internalType": "address",
          "name": "owner",
          "type": "address"
        },
        {
          "internalType": "address",
          "name": "operator",
          "type": "address"
        }
      ],
      "name": "isApprovedForAll",
      "outputs": [
        {
          "internalType": "bool",
          "name": "",
          "type": "bool"
        }
      ],
      "stateMutability": "view",
      "type": "function"
    },
    {
      "inputs": [
        {
          "internalType": "bytes",
          "name": "",
          "type": "bytes"
        }
      ],
      "name": "isVerified",
      "outputs": [
        {
          "internalType": "bool",
          "name": "",
          "type": "bool"
        }
      ],
      "stateMutability": "view",
      "type": "function"
    },
    {
      "inputs": [
        {
          "internalType": "address",
          "name": "_owner",
          "type": "address"
        }
      ],
      "name": "mintARC",
      "outputs": [
        {
          "internalType": "uint256",
          "name": "",
          "type": "uint256"
        }
      ],
      "stateMutability": "nonpayable",
      "type": "function"
    },
    {
      "inputs": [
        {
          "components": [
            {
              "internalType": "uint256",
              "name": "constructId",
              "type": "uint256"
            },
            {
              "internalType": "bytes32",
              "name": "messageHash",
              "type": "bytes32"
            }
          ],
          "internalType": "struct AlloyERC721V1.ConstructOrder",
          "name": "_order",
          "type": "tuple"
        },
        {
          "internalType": "bytes",
          "name": "_signature",
          "type": "bytes"
        }
      ],
      "name": "mintConstruct",
      "outputs": [],
      "stateMutability": "nonpayable",
      "type": "function"
    },
    {
      "inputs": [
        {
          "components": [
            {
              "internalType": "uint256",
              "name": "partId",
              "type": "uint256"
            },
            {
              "internalType": "bytes32",
              "name": "messageHash",
              "type": "bytes32"
            }
          ],
          "internalType": "struct AlloyERC721V1.PartOrder",
          "name": "_order",
          "type": "tuple"
        },
        {
          "internalType": "bytes",
          "name": "_signature",
          "type": "bytes"
        }
      ],
      "name": "mintPart",
      "outputs": [],
      "stateMutability": "nonpayable",
      "type": "function"
    },
    {
      "inputs": [
        {
          "components": [
            {
              "internalType": "uint256",
              "name": "epoch_id",
              "type": "uint256"
            },
            {
              "internalType": "uint256",
              "name": "pool_id",
              "type": "uint256"
            },
            {
              "internalType": "uint256",
              "name": "quantity",
              "type": "uint256"
            },
            {
              "internalType": "bytes32",
              "name": "message_hash",
              "type": "bytes32"
            }
          ],
          "internalType": "struct AlloyERC721V1.Order_Printer",
          "name": "_order",
          "type": "tuple"
        },
        {
          "internalType": "bytes",
          "name": "_signature",
          "type": "bytes"
        }
      ],
      "name": "mintPrinterARC",
      "outputs": [],
      "stateMutability": "payable",
      "type": "function"
    },
    {
      "inputs": [
        {
          "components": [
            {
              "internalType": "uint256",
              "name": "upgradeId",
              "type": "uint256"
            },
            {
              "internalType": "string",
              "name": "upgradeType",
              "type": "string"
            },
            {
              "internalType": "bytes32",
              "name": "messageHash",
              "type": "bytes32"
            }
          ],
          "internalType": "struct AlloyERC721V1.UpgradeOrder",
          "name": "_order",
          "type": "tuple"
        },
        {
          "internalType": "bytes",
          "name": "_signature",
          "type": "bytes"
        }
      ],
      "name": "mintUpgrade",
      "outputs": [],
      "stateMutability": "nonpayable",
      "type": "function"
    },
    {
      "inputs": [],
      "name": "name",
      "outputs": [
        {
          "internalType": "string",
          "name": "",
          "type": "string"
        }
      ],
      "stateMutability": "view",
      "type": "function"
    },
    {
      "inputs": [],
      "name": "owner",
      "outputs": [
        {
          "internalType": "address",
          "name": "",
          "type": "address"
        }
      ],
      "stateMutability": "view",
      "type": "function"
    },
    {
      "inputs": [
        {
          "internalType": "uint256",
          "name": "tokenId",
          "type": "uint256"
        }
      ],
      "name": "ownerOf",
      "outputs": [
        {
          "internalType": "address",
          "name": "",
          "type": "address"
        }
      ],
      "stateMutability": "view",
      "type": "function"
    },
    {
      "inputs": [
        {
          "components": [
            {
              "internalType": "uint256",
              "name": "partId",
              "type": "uint256"
            },
            {
              "internalType": "bool",
              "name": "isThread",
              "type": "bool"
            },
            {
              "internalType": "uint256",
              "name": "threadUpgradeTokenId",
              "type": "uint256"
            },
            {
              "internalType": "uint256",
              "name": "threadUpgradeId",
              "type": "uint256"
            },
            {
              "internalType": "bytes32",
              "name": "messageHash",
              "type": "bytes32"
            }
          ],
          "internalType": "struct AlloyERC721V1.ProcessOrder",
          "name": "_order",
          "type": "tuple"
        },
        {
          "internalType": "bytes",
          "name": "_signature",
          "type": "bytes"
        }
      ],
      "name": "processPart",
      "outputs": [],
      "stateMutability": "nonpayable",
      "type": "function"
    },
    {
      "inputs": [
        {
          "components": [
            {
              "internalType": "uint256",
              "name": "pId",
              "type": "uint256"
            },
            {
              "internalType": "uint256",
              "name": "pTokenId",
              "type": "uint256"
            },
            {
              "internalType": "uint256",
              "name": "uId",
              "type": "uint256"
            },
            {
              "internalType": "uint256",
              "name": "uTokenId",
              "type": "uint256"
            },
            {
              "internalType": "bytes32",
              "name": "messageHash",
              "type": "bytes32"
            }
          ],
          "internalType": "struct AlloyERC721V1.OrderUpgrade",
          "name": "_order",
          "type": "tuple"
        },
        {
          "internalType": "bytes",
          "name": "_signature",
          "type": "bytes"
        }
      ],
      "name": "processPartInventory",
      "outputs": [],
      "stateMutability": "nonpayable",
      "type": "function"
    },
    {
      "inputs": [
        {
          "components": [
            {
              "internalType": "uint256",
              "name": "amount",
              "type": "uint256"
            },
            {
              "internalType": "uint256",
              "name": "partTokenId",
              "type": "uint256"
            },
            {
              "internalType": "uint256",
              "name": "partId",
              "type": "uint256"
            },
            {
              "internalType": "bool",
              "name": "isSendToWallet",
              "type": "bool"
            },
            {
              "internalType": "uint256",
              "name": "printerId",
              "type": "uint256"
            },
            {
              "internalType": "uint256",
              "name": "printerTokenId",
              "type": "uint256"
            },
            {
              "internalType": "bytes32",
              "name": "messageHash",
              "type": "bytes32"
            }
          ],
          "internalType": "struct AlloyERC721V1.Order",
          "name": "_order",
          "type": "tuple"
        },
        {
          "internalType": "bytes",
          "name": "_signature",
          "type": "bytes"
        }
      ],
      "name": "recycleBrokenPart",
      "outputs": [],
      "stateMutability": "nonpayable",
      "type": "function"
    },
    {
      "inputs": [],
      "name": "renounceOwnership",
      "outputs": [],
      "stateMutability": "nonpayable",
      "type": "function"
    },
    {
      "inputs": [
        {
          "internalType": "address",
          "name": "from",
          "type": "address"
        },
        {
          "internalType": "address",
          "name": "to",
          "type": "address"
        },
        {
          "internalType": "uint256",
          "name": "tokenId",
          "type": "uint256"
        }
      ],
      "name": "safeTransferFrom",
      "outputs": [],
      "stateMutability": "nonpayable",
      "type": "function"
    },
    {
      "inputs": [
        {
          "internalType": "address",
          "name": "from",
          "type": "address"
        },
        {
          "internalType": "address",
          "name": "to",
          "type": "address"
        },
        {
          "internalType": "uint256",
          "name": "tokenId",
          "type": "uint256"
        },
        {
          "internalType": "bytes",
          "name": "data",
          "type": "bytes"
        }
      ],
      "name": "safeTransferFrom",
      "outputs": [],
      "stateMutability": "nonpayable",
      "type": "function"
    },
    {
      "inputs": [
        {
          "components": [
            {
              "internalType": "uint256",
              "name": "Id",
              "type": "uint256"
            },
            {
              "internalType": "uint256",
              "name": "amount",
              "type": "uint256"
            },
            {
              "internalType": "bytes32",
              "name": "messageHash",
              "type": "bytes32"
            }
          ],
          "internalType": "struct AlloyERC721V1.SellOrder",
          "name": "_order",
          "type": "tuple"
        },
        {
          "internalType": "bytes",
          "name": "_signature",
          "type": "bytes"
        }
      ],
      "name": "sellAlloyConstruct",
      "outputs": [],
      "stateMutability": "nonpayable",
      "type": "function"
    },
    {
      "inputs": [
        {
          "components": [
            {
              "internalType": "uint256",
              "name": "Id",
              "type": "uint256"
            },
            {
              "internalType": "uint256",
              "name": "amount",
              "type": "uint256"
            },
            {
              "internalType": "bytes32",
              "name": "messageHash",
              "type": "bytes32"
            }
          ],
          "internalType": "struct AlloyERC721V1.SellOrder",
          "name": "_order",
          "type": "tuple"
        },
        {
          "internalType": "bytes",
          "name": "_signature",
          "type": "bytes"
        }
      ],
      "name": "sellConsumable",
      "outputs": [],
      "stateMutability": "nonpayable",
      "type": "function"
    },
    {
      "inputs": [
        {
          "components": [
            {
              "internalType": "uint256",
              "name": "amount",
              "type": "uint256"
            },
            {
              "internalType": "uint256",
              "name": "partTokenId",
              "type": "uint256"
            },
            {
              "internalType": "uint256",
              "name": "partId",
              "type": "uint256"
            },
            {
              "internalType": "bool",
              "name": "isSendToWallet",
              "type": "bool"
            },
            {
              "internalType": "uint256",
              "name": "printerId",
              "type": "uint256"
            },
            {
              "internalType": "uint256",
              "name": "printerTokenId",
              "type": "uint256"
            },
            {
              "internalType": "bytes32",
              "name": "messageHash",
              "type": "bytes32"
            }
          ],
          "internalType": "struct AlloyERC721V1.Order",
          "name": "_order",
          "type": "tuple"
        },
        {
          "internalType": "bytes",
          "name": "_signature",
          "type": "bytes"
        }
      ],
      "name": "sellProcessedPart",
      "outputs": [],
      "stateMutability": "nonpayable",
      "type": "function"
    },
    {
      "inputs": [
        {
          "internalType": "address",
          "name": "operator",
          "type": "address"
        },
        {
          "internalType": "bool",
          "name": "approved",
          "type": "bool"
        }
      ],
      "name": "setApprovalForAll",
      "outputs": [],
      "stateMutability": "nonpayable",
      "type": "function"
    },
    {
      "inputs": [
        {
          "internalType": "bytes4",
          "name": "interfaceId",
          "type": "bytes4"
        }
      ],
      "name": "supportsInterface",
      "outputs": [
        {
          "internalType": "bool",
          "name": "",
          "type": "bool"
        }
      ],
      "stateMutability": "view",
      "type": "function"
    },
    {
      "inputs": [],
      "name": "symbol",
      "outputs": [
        {
          "internalType": "string",
          "name": "",
          "type": "string"
        }
      ],
      "stateMutability": "view",
      "type": "function"
    },
    {
      "inputs": [],
      "name": "tokenCounter",
      "outputs": [
        {
          "internalType": "uint256",
          "name": "",
          "type": "uint256"
        }
      ],
      "stateMutability": "view",
      "type": "function"
    },
    {
      "inputs": [
        {
          "internalType": "uint256",
          "name": "_tokenId",
          "type": "uint256"
        }
      ],
      "name": "tokenURI",
      "outputs": [
        {
          "internalType": "string",
          "name": "",
          "type": "string"
        }
      ],
      "stateMutability": "view",
      "type": "function"
    },
    {
      "inputs": [
        {
          "internalType": "address",
          "name": "from",
          "type": "address"
        },
        {
          "internalType": "address",
          "name": "to",
          "type": "address"
        },
        {
          "internalType": "uint256",
          "name": "tokenId",
          "type": "uint256"
        }
      ],
      "name": "transferFrom",
      "outputs": [],
      "stateMutability": "nonpayable",
      "type": "function"
    },
    {
      "inputs": [
        {
          "internalType": "address",
          "name": "newOwner",
          "type": "address"
        }
      ],
      "name": "transferOwnership",
      "outputs": [],
      "stateMutability": "nonpayable",
      "type": "function"
    },
    {
      "inputs": [
        {
          "internalType": "string",
          "name": "_baseuri",
          "type": "string"
        },
        {
          "internalType": "string",
          "name": "_extension",
          "type": "string"
        }
      ],
      "name": "upadateDefaultUri",
      "outputs": [],
      "stateMutability": "nonpayable",
      "type": "function"
    },
    {
      "inputs": [
        {
          "internalType": "address",
          "name": "_merchant_address",
          "type": "address"
        },
        {
          "internalType": "address",
          "name": "_Nioz_address",
          "type": "address"
        },
        {
          "internalType": "address",
          "name": "_Arf_address",
          "type": "address"
        },
        {
          "internalType": "uint256",
          "name": "_num_allowed",
          "type": "uint256"
        },
        {
          "internalType": "uint256",
          "name": "_fee_percent",
          "type": "uint256"
        }
      ],
      "name": "updateMerchantWalletAndNiozAddress",
      "outputs": [],
      "stateMutability": "nonpayable",
      "type": "function"
    }
  ],
  "bytecode": "0x60806040523480156200001157600080fd5b5061b70680620000226000396000f3fe6080604052600436106102465760003560e01c80637dd12d1511610139578063ba66b54c116100b6578063d082e3811161007a578063d082e38114610858578063e101c2d614610883578063e7431a51146108ac578063e985e9c5146108d5578063f2fde38b14610912578063f7ad1ddb1461093b57610246565b8063ba66b54c14610761578063c588db651461078a578063c87b56dd146107b3578063c9941806146107f0578063cb73bff11461082d57610246565b806395d89b41116100fd57806395d89b411461069257806397c04edb146106bd578063a22cb465146106e6578063b3a45d9b1461070f578063b88d4fde1461073857610246565b80637dd12d15146105e05780638129fc1c1461060b5780638da5cb5b146106225780639401c1e41461064d57806395bb69d71461066957610246565b806342842e0e116101c75780636fb1eb0c1161018b5780636fb1eb0c1461051c5780636fc043811461054757806370a0823114610570578063715018a6146105ad57806379799f0c146105c457610246565b806342842e0e1461041357806358f5f8be1461043c5780636352211e146104795780636899a095146104b65780636d998f01146104df57610246565b80630c53efe61161020e5780630c53efe6146103445780631d5f38361461036f5780631fb627cf1461039857806323b872dd146103c157806339ff9b19146103ea57610246565b806301ffc9a71461024b57806304a4362e1461028857806306fdde03146102b3578063081812fc146102de578063095ea7b31461031b575b600080fd5b34801561025757600080fd5b50610272600480360381019061026d919061864b565b610964565b60405161027f9190618693565b60405180910390f35b34801561029457600080fd5b5061029d610a46565b6040516102aa919061872d565b60405180910390f35b3480156102bf57600080fd5b506102c8610a6d565b6040516102d591906187d8565b60405180910390f35b3480156102ea57600080fd5b5061030560048036038101906103009190618830565b610aff565b604051610312919061887e565b60405180910390f35b34801561032757600080fd5b50610342600480360381019061033d91906188c5565b610b45565b005b34801561035057600080fd5b50610359610c5c565b6040516103669190618914565b60405180910390f35b34801561037b57600080fd5b5061039660048036038101906103919190618b84565b610c63565b005b3480156103a457600080fd5b506103bf60048036038101906103ba9190618c6d565b6114c5565b005b3480156103cd57600080fd5b506103e860048036038101906103e39190618cc9565b611a78565b005b3480156103f657600080fd5b50610411600480360381019061040c9190618d6c565b611ad8565b005b34801561041f57600080fd5b5061043a60048036038101906104359190618cc9565b611e98565b005b34801561044857600080fd5b50610463600480360381019061045e9190618dc8565b611eb8565b6040516104709190618914565b60405180910390f35b34801561048557600080fd5b506104a0600480360381019061049b9190618830565b612093565b6040516104ad919061887e565b60405180910390f35b3480156104c257600080fd5b506104dd60048036038101906104d89190618b84565b612119565b005b3480156104eb57600080fd5b5061050660048036038101906105019190618830565b61297b565b60405161051391906187d8565b60405180910390f35b34801561052857600080fd5b50610531612a1b565b60405161053e9190618914565b60405180910390f35b34801561055357600080fd5b5061056e60048036038101906105699190618e59565b612a22565b005b34801561057c57600080fd5b5061059760048036038101906105929190618dc8565b612dd2565b6040516105a49190618914565b60405180910390f35b3480156105b957600080fd5b506105c2612e89565b005b6105de60048036038101906105d99190618ed9565b612e9d565b005b3480156105ec57600080fd5b506105f561418d565b604051610602919061887e565b60405180910390f35b34801561061757600080fd5b506106206141b3565b005b34801561062e57600080fd5b506106376145e0565b604051610644919061887e565b60405180910390f35b61066760048036038101906106629190618e59565b61460a565b005b34801561067557600080fd5b50610690600480360381019061068b9190618f35565b614b9d565b005b34801561069e57600080fd5b506106a7614d21565b6040516106b491906187d8565b60405180910390f35b3480156106c957600080fd5b506106e460048036038101906106df9190619051565b614db3565b005b3480156106f257600080fd5b5061070d600480360381019061070891906190c9565b614e44565b005b34801561071b57600080fd5b5061073660048036038101906107319190618c6d565b614e5a565b005b34801561074457600080fd5b5061075f600480360381019061075a9190619109565b61540e565b005b34801561076d57600080fd5b50610788600480360381019061078391906191dc565b615470565b005b34801561079657600080fd5b506107b160048036038101906107ac91906192b8565b615830565b005b3480156107bf57600080fd5b506107da60048036038101906107d59190618830565b615bc5565b6040516107e791906187d8565b60405180910390f35b3480156107fc57600080fd5b5061081760048036038101906108129190619330565b615cd1565b6040516108249190618693565b60405180910390f35b34801561083957600080fd5b50610842615d07565b60405161084f919061939a565b60405180910390f35b34801561086457600080fd5b5061086d615d2e565b60405161087a9190618914565b60405180910390f35b34801561088f57600080fd5b506108aa60048036038101906108a59190618e59565b615d34565b005b3480156108b857600080fd5b506108d360048036038101906108ce9190619441565b6160e4565b005b3480156108e157600080fd5b506108fc60048036038101906108f7919061949d565b616678565b6040516109099190618693565b60405180910390f35b34801561091e57600080fd5b5061093960048036038101906109349190618dc8565b61670c565b005b34801561094757600080fd5b50610962600480360381019061095d9190619699565b61678f565b005b60007f80ac58cd000000000000000000000000000000000000000000000000000000007bffffffffffffffffffffffffffffffffffffffffffffffffffffffff1916827bffffffffffffffffffffffffffffffffffffffffffffffffffffffff19161480610a2f57507f5b5e139f000000000000000000000000000000000000000000000000000000007bffffffffffffffffffffffffffffffffffffffffffffffffffffffff1916827bffffffffffffffffffffffffffffffffffffffffffffffffffffffff1916145b80610a3f5750610a3e82616fad565b5b9050919050565b61010460009054906101000a900473ffffffffffffffffffffffffffffffffffffffff1681565b606060658054610a7c90619740565b80601f0160208091040260200160405190810160405280929190818152602001828054610aa890619740565b8015610af55780601f10610aca57610100808354040283529160200191610af5565b820191906000526020600020905b815481529060010190602001808311610ad857829003601f168201915b5050505050905090565b6000610b0a82617017565b6069600083815260200190815260200160002060009054906101000a900473ffffffffffffffffffffffffffffffffffffffff169050919050565b6000610b5082612093565b90508073ffffffffffffffffffffffffffffffffffffffff168373ffffffffffffffffffffffffffffffffffffffff1603610bc0576040517f08c379a0000000000000000000000000000000000000000000000000000000008152600401610bb7906197e3565b60405180910390fd5b8073ffffffffffffffffffffffffffffffffffffffff16610bdf617062565b73ffffffffffffffffffffffffffffffffffffffff161480610c0e5750610c0d81610c08617062565b616678565b5b610c4d576040517f08c379a0000000000000000000000000000000000000000000000000000000008152600401610c4490619875565b60405180910390fd5b610c57838361706a565b505050565b6101015481565b610c776752099d69f589281560c01b617123565b610c8b6701b1eb2a2ae0155860c01b617123565b610c9f670362936e82a7fc0d60c01b617123565b610cb3675faa98cfea47ffc860c01b617123565b610cc9610cbe6145e0565b8360c0015183617126565b8015610cfe575060fe81604051610ce091906198dc565b908152602001604051809103902060009054906101000a900460ff16155b8015610da4575061010260009054906101000a900473ffffffffffffffffffffffffffffffffffffffff1673ffffffffffffffffffffffffffffffffffffffff1663c9941806826040518263ffffffff1660e01b8152600401610d61919061993d565b602060405180830381865afa158015610d7e573d6000803e3d6000fd5b505050506040513d601f19601f82011682018060405250810190610da29190619974565b155b8015610e4a575061010460009054906101000a900473ffffffffffffffffffffffffffffffffffffffff1673ffffffffffffffffffffffffffffffffffffffff1663c9941806826040518263ffffffff1660e01b8152600401610e07919061993d565b602060405180830381865afa158015610e24573d6000803e3d6000fd5b505050506040513d601f19601f82011682018060405250810190610e489190619974565b155b610e89576040517f08c379a0000000000000000000000000000000000000000000000000000000008152600401610e80906199ed565b60405180910390fd5b610e9d679adc35de53ed372760c01b617123565b610eb167bca9d521e866ca0360c01b617123565b610ec567737cf80a83f2297c60c01b617123565b610ed967320491ef4ebdc4fe60c01b617123565b6040518060400160405280600481526020017f50415254000000000000000000000000000000000000000000000000000000008152505160fd6000846020015181526020019081526020016000208054610f3290619740565b905014610f74576040517f08c379a0000000000000000000000000000000000000000000000000000000008152600401610f6b90619a59565b60405180910390fd5b610f8867a99886233d7a9a9c60c01b617123565b610f9c67abce9070c8ee67e860c01b617123565b610fb06784e5c83f03789ee660c01b617123565b610fc467fac23e8d413a0a2660c01b617123565b3373ffffffffffffffffffffffffffffffffffffffff16610fe88360200151612093565b73ffffffffffffffffffffffffffffffffffffffff161461103e576040517f08c379a000000000000000000000000000000000000000000000000000000000815260040161103590619ac5565b60405180910390fd5b611052676e0ddad716c42dda60c01b617123565b61106667b7ec854e326f9b0360c01b617123565b6040518060200160405280600081525060fd60008460200151815260200190815260200160002090816110999190619c87565b506110ae67e89eff6eb9d5bb0360c01b617123565b6110c2675cc8fd440f2e433360c01b617123565b6110cf82602001516172ec565b6110e367e8fda9d44778c0e760c01b617123565b600160fe826040516110f591906198dc565b908152602001604051809103902060006101000a81548160ff02191690831515021790555061112e6750e85647d156303760c01b617123565b61114267737c7e623706ff7e60c01b617123565b8160600151156112215761116067b3afce5a0dce225260c01b617123565b611174670cb0043202712e6160c01b617123565b61118867cba957a9c38f80be60c01b617123565b61010260009054906101000a900473ffffffffffffffffffffffffffffffffffffffff1673ffffffffffffffffffffffffffffffffffffffff166340c10f193384600001516040518363ffffffff1660e01b81526004016111ea929190619d59565b600060405180830381600087803b15801561120457600080fd5b505af1158015611218573d6000803e3d6000fd5b50505050611236565b611235670bb32776f846d2dd60c01b617123565b5b61124a67cbc6680059767fa360c01b617123565b61125e67bea66e7e06f23b3560c01b617123565b81606001516114355761127b675bb8664efc7bd7e260c01b617123565b61128f675826be5947617f8860c01b617123565b6112a367aed3e38b95763dcf60c01b617123565b6112b76722df0f8114c188f060c01b617123565b6040518060400160405280600781526020017f5052494e544552000000000000000000000000000000000000000000000000008152505160fd60008460a001518152602001908152602001600020805461131090619740565b905014611352576040517f08c379a000000000000000000000000000000000000000000000000000000000815260040161134990619dce565b60405180910390fd5b61136667f31e3a3e2f8ffa2d60c01b617123565b61137a6765041ed6e28f50dd60c01b617123565b61138e6798cf0d86295e24b960c01b617123565b6113a2674929b85e9c3c365260c01b617123565b3373ffffffffffffffffffffffffffffffffffffffff166113c68360a00151612093565b73ffffffffffffffffffffffffffffffffffffffff161461141c576040517f08c379a000000000000000000000000000000000000000000000000000000000815260040161141390619ac5565b60405180910390fd5b611430678b6dfe80d965e05460c01b617123565b61144a565b61144967826aaa332daf76d960c01b617123565b5b61145e67eb14f23e5a3b3aa960c01b617123565b61147267d430296ae773eedf60c01b617123565b7f9a4e17aa55e2ce6e7eab7b5cdeed85711ea3a0cc6443ee37e210c1f8e33f9937338360200151846040015185608001518660a001516040516114b9959493929190619e3a565b60405180910390a15050565b6114d967bcf029ae71fa71f760c01b617123565b6114ed679fbadcf782eec9eb60c01b617123565b61150167eea074c520be5bdb60c01b617123565b61151567d471c921a4a930bd60c01b617123565b61152b6115206145e0565b836080015183617126565b8015611560575060fe8160405161154291906198dc565b908152602001604051809103902060009054906101000a900460ff16155b8015611606575061010260009054906101000a900473ffffffffffffffffffffffffffffffffffffffff1673ffffffffffffffffffffffffffffffffffffffff1663c9941806826040518263ffffffff1660e01b81526004016115c3919061993d565b602060405180830381865afa1580156115e0573d6000803e3d6000fd5b505050506040513d601f19601f820116820180604052508101906116049190619974565b155b80156116ac575061010460009054906101000a900473ffffffffffffffffffffffffffffffffffffffff1673ffffffffffffffffffffffffffffffffffffffff1663c9941806826040518263ffffffff1660e01b8152600401611669919061993d565b602060405180830381865afa158015611686573d6000803e3d6000fd5b505050506040513d601f19601f820116820180604052508101906116aa9190619974565b155b6116eb576040517f08c379a00000000000000000000000000000000000000000000000000000000081526004016116e2906199ed565b60405180910390fd5b6116ff67234a327b7b407a5560c01b617123565b611713671dc60784e772630560c01b617123565b61172767ffdabf2bca2da64960c01b617123565b61173b6702fde1dd2ac5788360c01b617123565b3373ffffffffffffffffffffffffffffffffffffffff1661175f8360200151612093565b73ffffffffffffffffffffffffffffffffffffffff16146117b5576040517f08c379a00000000000000000000000000000000000000000000000000000000081526004016117ac90619ac5565b60405180910390fd5b6117c9675b35ade57afb1ba960c01b617123565b6117dd6744fef798e132013960c01b617123565b6117f1679fc0e8f2efb8b37e60c01b617123565b61180567e22836338dea725e60c01b617123565b3373ffffffffffffffffffffffffffffffffffffffff166118298360600151612093565b73ffffffffffffffffffffffffffffffffffffffff161461187f576040517f08c379a000000000000000000000000000000000000000000000000000000000815260040161187690619ac5565b60405180910390fd5b61189367f72c0438d19aa67460c01b617123565b6118a6665faa15a415f0f960c01b617123565b6118ba6784d7b37a836ba26160c01b617123565b6118ce67190ad19961c375b260c01b617123565b6040518060400160405280600781526020017f5052494e544552000000000000000000000000000000000000000000000000008152505160fd600084602001518152602001908152602001600020805461192790619740565b905014611969576040517f08c379a000000000000000000000000000000000000000000000000000000000815260040161196090619dce565b60405180910390fd5b61197d672a99fa236240722960c01b617123565b611991670fdace6ef3b517d660c01b617123565b6119a5672d8596d7a6273ecb60c01b617123565b6119b282606001516172ec565b6119c66797f6138e48c6515b60c01b617123565b600160fe826040516119d891906198dc565b908152602001604051809103902060006101000a81548160ff021916908315150217905550611a1167443870f6e17ba67a60c01b617123565b611a256762ba0345dcf6fd3260c01b617123565b7fdfb095aa815fba719beaa85526420b6f51754b958d9647e5aa82b7b4459884de338360000151846020015185604001518660600151604051611a6c959493929190619ea0565b60405180910390a15050565b611a89611a83617062565b8261743a565b611ac8576040517f08c379a0000000000000000000000000000000000000000000000000000000008152600401611abf90619f65565b60405180910390fd5b611ad38383836174cf565b505050565b611aec674703e2b426c0406660c01b617123565b611b0067aa18c3f3a3ad4dd160c01b617123565b611b14675f70233d9163eec360c01b617123565b611b2867f4b210a31fac04b860c01b617123565b611b3e611b336145e0565b836020015183617126565b8015611b73575060fe81604051611b5591906198dc565b908152602001604051809103902060009054906101000a900460ff16155b8015611c19575061010260009054906101000a900473ffffffffffffffffffffffffffffffffffffffff1673ffffffffffffffffffffffffffffffffffffffff1663c9941806826040518263ffffffff1660e01b8152600401611bd6919061993d565b602060405180830381865afa158015611bf3573d6000803e3d6000fd5b505050506040513d601f19601f82011682018060405250810190611c179190619974565b155b8015611cbf575061010460009054906101000a900473ffffffffffffffffffffffffffffffffffffffff1673ffffffffffffffffffffffffffffffffffffffff1663c9941806826040518263ffffffff1660e01b8152600401611c7c919061993d565b602060405180830381865afa158015611c99573d6000803e3d6000fd5b505050506040513d601f19601f82011682018060405250810190611cbd9190619974565b155b611cfe576040517f08c379a0000000000000000000000000000000000000000000000000000000008152600401611cf5906199ed565b60405180910390fd5b611d1267bf750207c59c68bb60c01b617123565b611d2667c8c573a0faa64ef460c01b617123565b600160fb6000828254611d399190619fb4565b92505081905550611d5467a6386363b517c13760c01b617123565b6040518060400160405280600481526020017f504152540000000000000000000000000000000000000000000000000000000081525060fd600060fb5481526020019081526020016000209081611dab9190619c87565b50611dc0670d36683347be13e560c01b617123565b611dd467d4abde20c5fc636560c01b617123565b611de03360fb546177c8565b611df4672acedb8a142ff84d60c01b617123565b600160fe82604051611e0691906198dc565b908152602001604051809103902060006101000a81548160ff021916908315150217905550611e3f675de0831beb16b67560c01b617123565b611e5367123857b33d173b1a60c01b617123565b7f26616bfbd18a8868f4b9f0c004a6dd5f8c9a3103475c24270f77ecdafe41f68f3360fb548460000151604051611e8c93929190619fe8565b60405180910390a15050565b611eb38383836040518060200160405280600081525061540e565b505050565b6000611ece6703359a8979773dfc60c01b617123565b611ee2672723cfe0932f1f9f60c01b617123565b611ef66749bc9a987e627db260c01b617123565b611f0a67c73ff663a650153060c01b617123565b611f1e67bac320d042ad154760c01b617123565b61010460009054906101000a900473ffffffffffffffffffffffffffffffffffffffff1673ffffffffffffffffffffffffffffffffffffffff163373ffffffffffffffffffffffffffffffffffffffff1614611faf576040517f08c379a0000000000000000000000000000000000000000000000000000000008152600401611fa69061a0a4565b60405180910390fd5b611fc367719adc52f7630e8f60c01b617123565b611fd767e14130cb45e12e8760c01b617123565b611feb67706c055254d541f160c01b617123565b611fff672750c36f6312b2cb60c01b617123565b61201367a497b79a2d3abde160c01b617123565b600160fb60008282546120269190619fb4565b9250508190555061204167a7db3a37faf1473860c01b617123565b612055673960818714c0591860c01b617123565b6120618260fb546177e6565b61207567a5331e55ead92bf260c01b617123565b61208967803b0e1dca648e7960c01b617123565b60fb549050919050565b60008061209f83617a03565b9050600073ffffffffffffffffffffffffffffffffffffffff168173ffffffffffffffffffffffffffffffffffffffff1603612110576040517f08c379a00000000000000000000000000000000000000000000000000000000081526004016121079061a110565b60405180910390fd5b80915050919050565b61212d6710ecb787dc3ad20360c01b617123565b61214167ca0d248e1710e2eb60c01b617123565b612155679e6b6d4bca05ecd960c01b617123565b612169677152e8a35b57401660c01b617123565b61217f6121746145e0565b8360c0015183617126565b80156121b4575060fe8160405161219691906198dc565b908152602001604051809103902060009054906101000a900460ff16155b801561225a575061010260009054906101000a900473ffffffffffffffffffffffffffffffffffffffff1673ffffffffffffffffffffffffffffffffffffffff1663c9941806826040518263ffffffff1660e01b8152600401612217919061993d565b602060405180830381865afa158015612234573d6000803e3d6000fd5b505050506040513d601f19601f820116820180604052508101906122589190619974565b155b8015612300575061010460009054906101000a900473ffffffffffffffffffffffffffffffffffffffff1673ffffffffffffffffffffffffffffffffffffffff1663c9941806826040518263ffffffff1660e01b81526004016122bd919061993d565b602060405180830381865afa1580156122da573d6000803e3d6000fd5b505050506040513d601f19601f820116820180604052508101906122fe9190619974565b155b61233f576040517f08c379a0000000000000000000000000000000000000000000000000000000008152600401612336906199ed565b60405180910390fd5b612353672fe11996e4b29af060c01b617123565b61236767a77228da13018bfd60c01b617123565b61237b67bb3280b9c99d37cd60c01b617123565b61238f679dac9d9fbf5946e460c01b617123565b6040518060400160405280600481526020017f50415254000000000000000000000000000000000000000000000000000000008152505160fd60008460200151815260200190815260200160002080546123e890619740565b90501461242a576040517f08c379a000000000000000000000000000000000000000000000000000000000815260040161242190619a59565b60405180910390fd5b61243e67295cc7c3d636822560c01b617123565b612452673d10e1c48115094c60c01b617123565b6124666769d84fd085cc283960c01b617123565b61247a671ef17732f6b5c34b60c01b617123565b3373ffffffffffffffffffffffffffffffffffffffff1661249e8360200151612093565b73ffffffffffffffffffffffffffffffffffffffff16146124f4576040517f08c379a00000000000000000000000000000000000000000000000000000000081526004016124eb90619ac5565b60405180910390fd5b612508671d1d88cfe305a70f60c01b617123565b61251c67fad5b8dcb02f300060c01b617123565b6040518060200160405280600081525060fd600084602001518152602001908152602001600020908161254f9190619c87565b50612564678d33a60dada5120c60c01b617123565b612578670a69fe3dd88072b260c01b617123565b61258582602001516172ec565b61259967dd571b41d0eefa5860c01b617123565b600160fe826040516125ab91906198dc565b908152602001604051809103902060006101000a81548160ff0219169083151502179055506125e467e40b76bc52a823a260c01b617123565b6125f8677b167de863807bdb60c01b617123565b8160600151156126d75761261667a141ed747608eea360c01b617123565b61262a673d4884d6edde336660c01b617123565b61263e67d9445b27285f073a60c01b617123565b61010260009054906101000a900473ffffffffffffffffffffffffffffffffffffffff1673ffffffffffffffffffffffffffffffffffffffff166340c10f193384600001516040518363ffffffff1660e01b81526004016126a0929190619d59565b600060405180830381600087803b1580156126ba57600080fd5b505af11580156126ce573d6000803e3d6000fd5b505050506126ec565b6126eb67470c1cdf7dc8ecfa60c01b617123565b5b61270067a6f23de96f9b013760c01b617123565b6127146711cdd620ac670e2560c01b617123565b81606001516128eb5761273167c0284ff1ca08b5df60c01b617123565b6127456707fb1fa0131d94f460c01b617123565b61275967bdb754e0bafd687e60c01b617123565b61276d6760c5d1e63028dc0060c01b617123565b6040518060400160405280600781526020017f5052494e544552000000000000000000000000000000000000000000000000008152505160fd60008460a00151815260200190815260200160002080546127c690619740565b905014612808576040517f08c379a00000000000000000000000000000000000000000000000000000000081526004016127ff90619dce565b60405180910390fd5b61281c6786e333c8cd87d65860c01b617123565b61283067d07e69bba7191d5360c01b617123565b6128446762ee6b5b5af9fad660c01b617123565b61285867d54492e3194f41ac60c01b617123565b3373ffffffffffffffffffffffffffffffffffffffff1661287c8360a00151612093565b73ffffffffffffffffffffffffffffffffffffffff16146128d2576040517f08c379a00000000000000000000000000000000000000000000000000000000081526004016128c990619ac5565b60405180910390fd5b6128e66779d73d5b4ba475a660c01b617123565b612900565b6128ff67580bdb065e0cadf160c01b617123565b5b612914676e04706f700cd99060c01b617123565b612928673051d6ccb1a8668060c01b617123565b7f53e8af5b3353f8c3d399c8cff897fd9928fc374d85c9802c61449f0ab4304eb3338360200151846040015185608001518660a0015160405161296f959493929190619e3a565b60405180910390a15050565b60fd602052806000526040600020600091509050805461299a90619740565b80601f01602080910402602001604051908101604052809291908181526020018280546129c690619740565b8015612a135780601f106129e857610100808354040283529160200191612a13565b820191906000526020600020905b8154815290600101906020018083116129f657829003601f168201915b505050505081565b6101035481565b612a3667b21ecfb7fa1f42be60c01b617123565b612a4a67a2611fa2708bf48160c01b617123565b612a5e672e8c70a8a79b14fc60c01b617123565b612a72670b6bad97c9dbb59960c01b617123565b612a88612a7d6145e0565b836040015183617126565b8015612abd575060fe81604051612a9f91906198dc565b908152602001604051809103902060009054906101000a900460ff16155b8015612b63575061010260009054906101000a900473ffffffffffffffffffffffffffffffffffffffff1673ffffffffffffffffffffffffffffffffffffffff1663c9941806826040518263ffffffff1660e01b8152600401612b20919061993d565b602060405180830381865afa158015612b3d573d6000803e3d6000fd5b505050506040513d601f19601f82011682018060405250810190612b619190619974565b155b8015612c09575061010460009054906101000a900473ffffffffffffffffffffffffffffffffffffffff1673ffffffffffffffffffffffffffffffffffffffff1663c9941806826040518263ffffffff1660e01b8152600401612bc6919061993d565b602060405180830381865afa158015612be3573d6000803e3d6000fd5b505050506040513d601f19601f82011682018060405250810190612c079190619974565b155b612c48576040517f08c379a0000000000000000000000000000000000000000000000000000000008152600401612c3f906199ed565b60405180910390fd5b612c5c67801e191fb63b630b60c01b617123565b612c7067dff605232394c34f60c01b617123565b612c84678559d0a16cf9ea1560c01b617123565b61010260009054906101000a900473ffffffffffffffffffffffffffffffffffffffff1673ffffffffffffffffffffffffffffffffffffffff166340c10f193384602001516040518363ffffffff1660e01b8152600401612ce6929190619d59565b600060405180830381600087803b158015612d0057600080fd5b505af1158015612d14573d6000803e3d6000fd5b50505050612d2c67b16855be52732b1d60c01b617123565b600160fe82604051612d3e91906198dc565b908152602001604051809103902060006101000a81548160ff021916908315150217905550612d7767ad179a59accad93460c01b617123565b612d8b67e5bcaf3b08c8037460c01b617123565b7f182a2dc5849b17b73ce7928eb8e0ddc317a5d8f78b8deda6f07e7927833f77443383602001518460000151604051612dc69392919061a17c565b60405180910390a15050565b60008073ffffffffffffffffffffffffffffffffffffffff168273ffffffffffffffffffffffffffffffffffffffff1603612e42576040517f08c379a0000000000000000000000000000000000000000000000000000000008152600401612e399061a238565b60405180910390fd5b606860008373ffffffffffffffffffffffffffffffffffffffff1673ffffffffffffffffffffffffffffffffffffffff168152602001908152602001600020549050919050565b612e91617a40565b612e9b6000617abe565b565b612eb16781929fe38322818160c01b617123565b612eb9617b84565b612ecd67349a561724a7947660c01b617123565b612ee16772d8e6ecd8bddc6160c01b617123565b612ef567840937aa88c0447360c01b617123565b612f09670527981b1cc8eb4d60c01b617123565b612f1d676ddb2a7d295d6daa60c01b617123565b612f33612f286145e0565b836060013583617126565b8015612f68575060fe81604051612f4a91906198dc565b908152602001604051809103902060009054906101000a900460ff16155b801561300e575061010260009054906101000a900473ffffffffffffffffffffffffffffffffffffffff1673ffffffffffffffffffffffffffffffffffffffff1663c9941806826040518263ffffffff1660e01b8152600401612fcb919061993d565b602060405180830381865afa158015612fe8573d6000803e3d6000fd5b505050506040513d601f19601f8201168201806040525081019061300c9190619974565b155b80156130b4575061010460009054906101000a900473ffffffffffffffffffffffffffffffffffffffff1673ffffffffffffffffffffffffffffffffffffffff1663c9941806826040518263ffffffff1660e01b8152600401613071919061993d565b602060405180830381865afa15801561308e573d6000803e3d6000fd5b505050506040513d601f19601f820116820180604052508101906130b29190619974565b155b6130f3576040517f08c379a00000000000000000000000000000000000000000000000000000000081526004016130ea906199ed565b60405180910390fd5b6131076748cf8fbf4328766460c01b617123565b61311b672a00297d309b5c2660c01b617123565b61312f6761591e9377ce9d5e60c01b617123565b61314367c137838ce7162e9660c01b617123565b61010460009054906101000a900473ffffffffffffffffffffffffffffffffffffffff1673ffffffffffffffffffffffffffffffffffffffff16633a98849883600001356040518263ffffffff1660e01b81526004016131a39190618914565b6020604051808303816000875af11580156131c2573d6000803e3d6000fd5b505050506040513d601f19601f820116820180604052508101906131e69190619974565b801561334d5750816040013561010460009054906101000a900473ffffffffffffffffffffffffffffffffffffffff1673ffffffffffffffffffffffffffffffffffffffff1663e329cf7b84600001356040518263ffffffff1660e01b81526004016132529190618914565b6080604051808303816000875af1158015613271573d6000803e3d6000fd5b505050506040513d601f19601f82011682018060405250810190613295919061a2e5565b606001516132a39190619fb4565b61010460009054906101000a900473ffffffffffffffffffffffffffffffffffffffff1673ffffffffffffffffffffffffffffffffffffffff1663e329cf7b84600001356040518263ffffffff1660e01b81526004016133039190618914565b6080604051808303816000875af1158015613322573d6000803e3d6000fd5b505050506040513d601f19601f82011682018060405250810190613346919061a2e5565b6040015110155b80156133eb5750600682600001351480156133785750613377672a117da4a87a970560c01b617bd3565b5b806133bf5750600782600001351480156133a257506133a167cef3a93074bfe13460c01b617bd3565b5b80156133be57506133bd674086959f3dfe138360c01b617bd3565b5b5b806133ea5750600882600001351480156133e957506133e867de049164000f9b7760c01b617bd3565b5b5b5b80156135605750816040013561010460009054906101000a900473ffffffffffffffffffffffffffffffffffffffff1673ffffffffffffffffffffffffffffffffffffffff16631a924fd5846000013585602001356040518363ffffffff1660e01b815260040161345d92919061a312565b610120604051808303816000875af115801561347d573d6000803e3d6000fd5b505050506040513d601f19601f820116820180604052508101906134a1919061a41b565b604001516134af9190619fb4565b61010460009054906101000a900473ffffffffffffffffffffffffffffffffffffffff1673ffffffffffffffffffffffffffffffffffffffff16631a924fd5846000013585602001356040518363ffffffff1660e01b815260040161351592919061a312565b610120604051808303816000875af1158015613535573d6000803e3d6000fd5b505050506040513d601f19601f82011682018060405250810190613559919061a41b565b6020015110155b61359f576040517f08c379a00000000000000000000000000000000000000000000000000000000081526004016135969061a4bb565b60405180910390fd5b6135b3674a722b0d6ab54aa760c01b617123565b6135c767daaee3d83e076ab060c01b617123565b6135db67f4d163d30c1b67e960c01b617123565b6135ef67d8c13871c1553c1c60c01b617123565b34826040013561010460009054906101000a900473ffffffffffffffffffffffffffffffffffffffff1673ffffffffffffffffffffffffffffffffffffffff16631a924fd5856000013586602001356040518363ffffffff1660e01b815260040161365b92919061a312565b610120604051808303816000875af115801561367b573d6000803e3d6000fd5b505050506040513d601f19601f8201168201806040525081019061369f919061a41b565b608001516136ad919061a4db565b146136ed576040517f08c379a00000000000000000000000000000000000000000000000000000000081526004016136e49061a581565b60405180910390fd5b61370167381ce64377f9347160c01b617123565b6137156790e922bd46a79d0960c01b617123565b61372967ec1af0c8d6fcb24d60c01b617123565b606061373f67dfa0e0802a5d0a9f60c01b617123565b61375367989346b6d0c2cb4160c01b617123565b613767672b175114b014644560c01b617123565b61010154836040013511156137b1576040517f08c379a00000000000000000000000000000000000000000000000000000000081526004016137a89061a5ed565b60405180910390fd5b6137c567e4a1e03049b207f460c01b617123565b6137d967e8967fe66296cc8a60c01b617123565b826040013567ffffffffffffffff8111156137f7576137f6618934565b5b6040519080825280602002602001820160405280156138255781602001602082028036833780820191505090505b50905061383c6768e828de9698bb1860c01b617123565b613850674a3b5440590fba1d60c01b617123565b60005b836040013581101561397557613873677b802e4ff116e39b60c01b617123565b600160fb60008282546138869190619fb4565b925050819055506138a16733e78d8e9295268360c01b617123565b6040518060400160405280600781526020017f5052494e5445520000000000000000000000000000000000000000000000000081525060fd600060fb54815260200190815260200160002090816138f89190619c87565b5061390c66c8fa332386dc4460c01b617123565b61392067e01c7db70b395ac460c01b617123565b61392c3360fb546177c8565b61394067623a18e0046f034c60c01b617123565b60fb548282815181106139565761395561a60d565b5b602002602001018181525050808061396d9061a63c565b915050613853565b5061398a67c92d1f6fa921501060c01b617123565b61399e6796ab98b3b3389c0a60c01b617123565b60fc60009054906101000a900473ffffffffffffffffffffffffffffffffffffffff1673ffffffffffffffffffffffffffffffffffffffff166108fc349081150290604051600060405180830381858888f19350505050158015613a06573d6000803e3d6000fd5b50613a1b675d74f4e5b448840a60c01b617123565b613a2f67a4566db42914239e60c01b617123565b600061010460009054906101000a900473ffffffffffffffffffffffffffffffffffffffff1673ffffffffffffffffffffffffffffffffffffffff16631a924fd5856000013586602001356040518363ffffffff1660e01b8152600401613a9792919061a312565b610120604051808303816000875af1158015613ab7573d6000803e3d6000fd5b505050506040513d601f19601f82011682018060405250810190613adb919061a41b565b606001511115613f8757613af96773977fa0bb5693ce60c01b617123565b613b0d6769ee38367c893f7a60c01b617123565b613b216798cdeb665acc456c60c01b617123565b61010260009054906101000a900473ffffffffffffffffffffffffffffffffffffffff1673ffffffffffffffffffffffffffffffffffffffff1663d1660f99333061010460009054906101000a900473ffffffffffffffffffffffffffffffffffffffff1673ffffffffffffffffffffffffffffffffffffffff16631a924fd5886000013589602001356040518363ffffffff1660e01b8152600401613bc892919061a312565b610120604051808303816000875af1158015613be8573d6000803e3d6000fd5b505050506040513d601f19601f82011682018060405250810190613c0c919061a41b565b606001516040518463ffffffff1660e01b8152600401613c2e9392919061a684565b600060405180830381600087803b158015613c4857600080fd5b505af1158015613c5c573d6000803e3d6000fd5b50505050613c7467e9bcfbe6fb41582760c01b617123565b613c886736fb0b88b691c72960c01b617123565b61010260009054906101000a900473ffffffffffffffffffffffffffffffffffffffff1673ffffffffffffffffffffffffffffffffffffffff1663095ea7b360fc60009054906101000a900473ffffffffffffffffffffffffffffffffffffffff1661010460009054906101000a900473ffffffffffffffffffffffffffffffffffffffff1673ffffffffffffffffffffffffffffffffffffffff16631a924fd5876000013588602001356040518363ffffffff1660e01b8152600401613d5092919061a312565b610120604051808303816000875af1158015613d70573d6000803e3d6000fd5b505050506040513d601f19601f82011682018060405250810190613d94919061a41b565b606001516040518363ffffffff1660e01b8152600401613db5929190619d59565b6020604051808303816000875af1158015613dd4573d6000803e3d6000fd5b505050506040513d601f19601f82011682018060405250810190613df89190619974565b50613e0d67741617490b1e1e0160c01b617123565b613e2167575ce75f0440c85960c01b617123565b61010260009054906101000a900473ffffffffffffffffffffffffffffffffffffffff1673ffffffffffffffffffffffffffffffffffffffff1663d1660f993060fc60009054906101000a900473ffffffffffffffffffffffffffffffffffffffff1661010460009054906101000a900473ffffffffffffffffffffffffffffffffffffffff1673ffffffffffffffffffffffffffffffffffffffff16631a924fd5886000013589602001356040518363ffffffff1660e01b8152600401613eea92919061a312565b610120604051808303816000875af1158015613f0a573d6000803e3d6000fd5b505050506040513d601f19601f82011682018060405250810190613f2e919061a41b565b606001516040518463ffffffff1660e01b8152600401613f509392919061a684565b600060405180830381600087803b158015613f6a57600080fd5b505af1158015613f7e573d6000803e3d6000fd5b50505050613f9c565b613f9b670cf479f3d83fd61260c01b617123565b5b613fb0671f0c069b1462fe5b60c01b617123565b613fc46771ff46026385884e60c01b617123565b61010460009054906101000a900473ffffffffffffffffffffffffffffffffffffffff1673ffffffffffffffffffffffffffffffffffffffff1663e561084f8460000135856020013586604001356040518463ffffffff1660e01b81526004016140309392919061a6bb565b600060405180830381600087803b15801561404a57600080fd5b505af115801561405e573d6000803e3d6000fd5b505050506140766772c636f2297cb28160c01b617123565b61408a6742280659d566449a60c01b617123565b7fb7dcb53311ec2ce21c00f65a493f8223b0e0b5d7f237e56804d6275b3b8ab92e3382856000013586602001353461010460009054906101000a900473ffffffffffffffffffffffffffffffffffffffff1673ffffffffffffffffffffffffffffffffffffffff16631a924fd58a600001358b602001356040518363ffffffff1660e01b815260040161411e92919061a312565b610120604051808303816000875af115801561413e573d6000803e3d6000fd5b505050506040513d601f19601f82011682018060405250810190614162919061a41b565b606001516040516141789695949392919061a7fc565b60405180910390a150614189617bde565b5050565b60fc60009054906101000a900473ffffffffffffffffffffffffffffffffffffffff1681565b6141c7678f4358713174fd8360c01b617123565b60008060019054906101000a900460ff161590508080156141f85750600160008054906101000a900460ff1660ff16105b80614225575061420730617be8565b1580156142245750600160008054906101000a900460ff1660ff16145b5b614264576040517f08c379a000000000000000000000000000000000000000000000000000000000815260040161425b9061a8e9565b60405180910390fd5b60016000806101000a81548160ff021916908360ff16021790555080156142a1576001600060016101000a81548160ff0219169083151502179055505b6142b5679b1cf2657f68cc7660c01b617123565b6142c96751c9e1b05a26689060c01b617123565b6142dd67d275808278692f2260c01b617123565b6142f167544724438d5caa1860c01b617123565b6143656040518060400160405280600e81526020017f416c6c6f792053706163652053310000000000000000000000000000000000008152506040518060400160405280600381526020017f4152430000000000000000000000000000000000000000000000000000000000815250617c0b565b61437967be14a1503fff9f7360c01b617123565b61438d67c234e7104f150b2360c01b617123565b614395617c68565b6143a9673bfcbc8e2cdab2da60c01b617123565b6143bd6709a6066792aa337760c01b617123565b6143c5617cc1565b6143d967543d2806bb087f5a60c01b617123565b60405180606001604052806028815260200161b6a96028913960ff90816144009190619c87565b5061441567119970744c8e51d560c01b617123565b6040518060400160405280600f81526020017f2d746f6b656e2d7572692e6a736f6e0000000000000000000000000000000000815250610100908161445a9190619c87565b5061446f67bbcb3798f62ca64460c01b617123565b600060fb8190555061448b67ce228e5e5a36321760c01b617123565b6003610101819055506144a86796626160f07f08b760c01b617123565b737c0aa72dbd7058d0aee8bf99391b827a3af0487861010260006101000a81548173ffffffffffffffffffffffffffffffffffffffff021916908373ffffffffffffffffffffffffffffffffffffffff160217905550614512679282082c9474618860c01b617123565b7325fc99ef8c2be73c303f7e54a0c2da423e48326b60fc60006101000a81548173ffffffffffffffffffffffffffffffffffffffff021916908373ffffffffffffffffffffffffffffffffffffffff16021790555061457b67338694f1cdc45deb60c01b617123565b603c6101038190555080156145dd5760008060016101000a81548160ff0219169083151502179055507f7f26b83ff96e1f2b6a682f133852f6798a09c465da95921460cefb384740249860016040516145d4919061a951565b60405180910390a15b50565b6000609760009054906101000a900473ffffffffffffffffffffffffffffffffffffffff16905090565b61461e67aca53aa87ee374fd60c01b617123565b614626617b84565b61463a6774132914ea0f0e2160c01b617123565b61464e670e803282b351fb8460c01b617123565b61466267adf0fc3ab0dde18960c01b617123565b61467667ad1f9d2a41f3253d60c01b617123565b60006146858360000151612093565b905061469b6782877850b4e2e24c60c01b617123565b6146af677c81441eb33c84e760c01b617123565b6146c3673902012372488d4660c01b617123565b6146d281846040015184617126565b614711576040517f08c379a00000000000000000000000000000000000000000000000000000000081526004016147089061a9b8565b60405180910390fd5b614725670404348d8a4f36b860c01b617123565b614739676af500adb487acbe60c01b617123565b61474d671b26e26950ed15da60c01b617123565b614761672f19a16748c2e26860c01b617123565b34836020015114801561479d575060fe8260405161477f91906198dc565b908152602001604051809103902060009054906101000a900460ff16155b8015614843575061010260009054906101000a900473ffffffffffffffffffffffffffffffffffffffff1673ffffffffffffffffffffffffffffffffffffffff1663c9941806836040518263ffffffff1660e01b8152600401614800919061993d565b602060405180830381865afa15801561481d573d6000803e3d6000fd5b505050506040513d601f19601f820116820180604052508101906148419190619974565b155b80156148e9575061010460009054906101000a900473ffffffffffffffffffffffffffffffffffffffff1673ffffffffffffffffffffffffffffffffffffffff1663c9941806836040518263ffffffff1660e01b81526004016148a6919061993d565b602060405180830381865afa1580156148c3573d6000803e3d6000fd5b505050506040513d601f19601f820116820180604052508101906148e79190619974565b155b614928576040517f08c379a000000000000000000000000000000000000000000000000000000000815260040161491f9061aa4a565b60405180910390fd5b61493c67be0b5a8cc50bc32760c01b617123565b614950671052e7b7235d413560c01b617123565b61496467848f50f2dc3aad0660c01b617123565b6149838133856000015160405180602001604052806000815250617d1a565b61499767cb55c9c6472a7bce60c01b617123565b600160fe836040516149a991906198dc565b908152602001604051809103902060006101000a81548160ff0219169083151502179055506149e26796883d448894f7fe60c01b617123565b6149f667ab9d9224fd5f81c460c01b617123565b6000614a0134617d76565b9050614a1767d64504ffb762e9a360c01b617123565b614a2b672d32aa5d706066cd60c01b617123565b60fc60009054906101000a900473ffffffffffffffffffffffffffffffffffffffff1673ffffffffffffffffffffffffffffffffffffffff166108fc829081150290604051600060405180830381858888f19350505050158015614a93573d6000803e3d6000fd5b50614aa867107f5e7d94185ebf60c01b617123565b614abc6713d0a210c017861f60c01b617123565b8173ffffffffffffffffffffffffffffffffffffffff166108fc8234614ae2919061aa6a565b9081150290604051600060405180830381858888f19350505050158015614b0d573d6000803e3d6000fd5b50614b22676e3734cbdc95d0a360c01b617123565b614b3667e3b703379feddecb60c01b617123565b7f80cf10dac1b681dc583a2a6ab3d1e5279e026d3fb3c9001157fc290c9a1bed69823334876000015160fd60008a600001518152602001908152602001600020604051614b8795949392919061ab22565b60405180910390a15050614b99617bde565b5050565b614bb16706a7cc91e395ebe460c01b617123565b614bb9617a40565b614bcd6774c1e485b42019fc60c01b617123565b614be1675e765ca6b9e7bd1860c01b617123565b614bf567c36f66b14c44f53260c01b617123565b8460fc60006101000a81548173ffffffffffffffffffffffffffffffffffffffff021916908373ffffffffffffffffffffffffffffffffffffffff160217905550614c4a678b4182ae8c451a6660c01b617123565b8361010260006101000a81548173ffffffffffffffffffffffffffffffffffffffff021916908373ffffffffffffffffffffffffffffffffffffffff160217905550614ca06787f9ee89dfc526a760c01b617123565b8261010460006101000a81548173ffffffffffffffffffffffffffffffffffffffff021916908373ffffffffffffffffffffffffffffffffffffffff160217905550614cf6679ad04f7d8878f87260c01b617123565b8161010181905550614d1267dee46f056c97f74160c01b617123565b80610103819055505050505050565b606060668054614d3090619740565b80601f0160208091040260200160405190810160405280929190818152602001828054614d5c90619740565b8015614da95780601f10614d7e57610100808354040283529160200191614da9565b820191906000526020600020905b815481529060010190602001808311614d8c57829003601f168201915b5050505050905090565b614dc767ed0bf1f88fcf22cd60c01b617123565b614dcf617a40565b614de36763f97848470c1b3860c01b617123565b614df7679d149b6af66ab61760c01b617123565b614e0b6785ac88ec962105d060c01b617123565b8160ff9081614e1a9190619c87565b50614e2f6712413c4a4998c6cb60c01b617123565b806101009081614e3f9190619c87565b505050565b614e56614e4f617062565b8383617dc3565b5050565b614e6e674f2bb6889e4927ca60c01b617123565b614e826742d924943c47a41460c01b617123565b614e966782fee76c9dad340460c01b617123565b614eaa67f83f87957d61d3d460c01b617123565b614ec0614eb56145e0565b836080015183617126565b8015614ef5575060fe81604051614ed791906198dc565b908152602001604051809103902060009054906101000a900460ff16155b8015614f9b575061010260009054906101000a900473ffffffffffffffffffffffffffffffffffffffff1673ffffffffffffffffffffffffffffffffffffffff1663c9941806826040518263ffffffff1660e01b8152600401614f58919061993d565b602060405180830381865afa158015614f75573d6000803e3d6000fd5b505050506040513d601f19601f82011682018060405250810190614f999190619974565b155b8015615041575061010460009054906101000a900473ffffffffffffffffffffffffffffffffffffffff1673ffffffffffffffffffffffffffffffffffffffff1663c9941806826040518263ffffffff1660e01b8152600401614ffe919061993d565b602060405180830381865afa15801561501b573d6000803e3d6000fd5b505050506040513d601f19601f8201168201806040525081019061503f9190619974565b155b615080576040517f08c379a0000000000000000000000000000000000000000000000000000000008152600401615077906199ed565b60405180910390fd5b61509467291ee2319e162a2a60c01b617123565b6150a86792d6f8830cfd22f160c01b617123565b6150bc6765843ab85234da5f60c01b617123565b6150d0678cabb0aa7395c33960c01b617123565b3373ffffffffffffffffffffffffffffffffffffffff166150f48360200151612093565b73ffffffffffffffffffffffffffffffffffffffff161461514a576040517f08c379a000000000000000000000000000000000000000000000000000000000815260040161514190619ac5565b60405180910390fd5b61515e678054fd116be4a98260c01b617123565b61517267f8cd47e602aae13760c01b617123565b615186674b6932ef2179009760c01b617123565b61519a674d12dff4eebca58960c01b617123565b3373ffffffffffffffffffffffffffffffffffffffff166151be8360600151612093565b73ffffffffffffffffffffffffffffffffffffffff1614615214576040517f08c379a000000000000000000000000000000000000000000000000000000000815260040161520b90619ac5565b60405180910390fd5b615228679f440152c54c8e5c60c01b617123565b61523c67091e0c10f07248ed60c01b617123565b6152506753098631076beca260c01b617123565b615264677da837a733ce80c860c01b617123565b6040518060400160405280600481526020017f50415254000000000000000000000000000000000000000000000000000000008152505160fd60008460200151815260200190815260200160002080546152bd90619740565b9050146152ff576040517f08c379a00000000000000000000000000000000000000000000000000000000081526004016152f690619a59565b60405180910390fd5b6153136750f7424a8256472e60c01b617123565b61532767f0ca6bbe48b9519660c01b617123565b61533b6704088d84ec878f6b60c01b617123565b61534882606001516172ec565b61535c6767ca1398dd12083560c01b617123565b600160fe8260405161536e91906198dc565b908152602001604051809103902060006101000a81548160ff0219169083151502179055506153a767e9d89382c0d71cbb60c01b617123565b6153bb67195dd12faf00147960c01b617123565b7f07cdbe00dfc34acfba080c51aa492d43a9c193c376076c42165c349172cb0055338360200151846000015185604001518660600151604051615402959493929190619e3a565b60405180910390a15050565b61541f615419617062565b8361743a565b61545e576040517f08c379a000000000000000000000000000000000000000000000000000000000815260040161545590619f65565b60405180910390fd5b61546a84848484617d1a565b50505050565b615484677a12a92ad14d441560c01b617123565b61549867bd130ddb37a4b58860c01b617123565b6154ac670eae40087063835460c01b617123565b6154c0673f9b1c65e9bba5a660c01b617123565b6154d66154cb6145e0565b836020015183617126565b801561550b575060fe816040516154ed91906198dc565b908152602001604051809103902060009054906101000a900460ff16155b80156155b1575061010260009054906101000a900473ffffffffffffffffffffffffffffffffffffffff1673ffffffffffffffffffffffffffffffffffffffff1663c9941806826040518263ffffffff1660e01b815260040161556e919061993d565b602060405180830381865afa15801561558b573d6000803e3d6000fd5b505050506040513d601f19601f820116820180604052508101906155af9190619974565b155b8015615657575061010460009054906101000a900473ffffffffffffffffffffffffffffffffffffffff1673ffffffffffffffffffffffffffffffffffffffff1663c9941806826040518263ffffffff1660e01b8152600401615614919061993d565b602060405180830381865afa158015615631573d6000803e3d6000fd5b505050506040513d601f19601f820116820180604052508101906156559190619974565b155b615696576040517f08c379a000000000000000000000000000000000000000000000000000000000815260040161568d906199ed565b60405180910390fd5b6156aa6710e24d6278382fab60c01b617123565b6156be670b5a0d858424942460c01b617123565b600160fb60008282546156d19190619fb4565b925050819055506156ec6774d365ba463b68db60c01b617123565b6040518060400160405280600981526020017f434f4e535452554354000000000000000000000000000000000000000000000081525060fd600060fb54815260200190815260200160002090816157439190619c87565b5061575867f41671bf38dc407b60c01b617123565b61576c6758632c3398a0683260c01b617123565b6157783360fb546177c8565b61578c67c311d160167d071060c01b617123565b600160fe8260405161579e91906198dc565b908152602001604051809103902060006101000a81548160ff0219169083151502179055506157d767a4e74d45d63c3a6360c01b617123565b6157eb6794ad3f50dd6153b760c01b617123565b7fe7604a06853a01c9d3ee025c9ff0a03d831d3ef8fc8d7fe1632019b84c4f400133836000015160fb546040516158249392919061a17c565b60405180910390a15050565b61584467c7b541c5f90c600b60c01b617123565b61585867c1aa8483beba1e9660c01b617123565b61586c6768784bab28241d1760c01b617123565b615880674c69404768b3e09d60c01b617123565b61589661588b6145e0565b836040015183617126565b80156158cb575060fe816040516158ad91906198dc565b908152602001604051809103902060009054906101000a900460ff16155b8015615971575061010260009054906101000a900473ffffffffffffffffffffffffffffffffffffffff1673ffffffffffffffffffffffffffffffffffffffff1663c9941806826040518263ffffffff1660e01b815260040161592e919061993d565b602060405180830381865afa15801561594b573d6000803e3d6000fd5b505050506040513d601f19601f8201168201806040525081019061596f9190619974565b155b8015615a17575061010460009054906101000a900473ffffffffffffffffffffffffffffffffffffffff1673ffffffffffffffffffffffffffffffffffffffff1663c9941806826040518263ffffffff1660e01b81526004016159d4919061993d565b602060405180830381865afa1580156159f1573d6000803e3d6000fd5b505050506040513d601f19601f82011682018060405250810190615a159190619974565b155b615a56576040517f08c379a0000000000000000000000000000000000000000000000000000000008152600401615a4d906199ed565b60405180910390fd5b615a6a676969d43da42c303b60c01b617123565b615a7e672ed119474641617b60c01b617123565b600160fb6000828254615a919190619fb4565b92505081905550615aac6736c40cce98dad2f460c01b617123565b816020015160fd600060fb5481526020019081526020016000209081615ad29190619c87565b50615ae76728c9f0b1c74dd54760c01b617123565b600160fe82604051615af991906198dc565b908152602001604051809103902060006101000a81548160ff021916908315150217905550615b3267164985ffe50797b260c01b617123565b615b466768299e3c9aae87a460c01b617123565b615b523360fb546177c8565b615b666760d7d5164b0bbf5860c01b617123565b615b7a676b5043917c409bc860c01b617123565b7fb0833f4d5cec259e3de15402eb1328026287467c7af28079051a8f160d0a114933836000015160fb548560200151604051615bb9949392919061ab7c565b60405180910390a15050565b6060615bdb675446f5ce69c4143f60c01b617123565b615bef67d9dd45429b8d2c1c60c01b617123565b615c0367e481e63f6996754660c01b617123565b615c17671dcbf0925154f84b60c01b617123565b615c2082617f2f565b615c5f576040517f08c379a0000000000000000000000000000000000000000000000000000000008152600401615c569061ac3a565b60405180910390fd5b615c736743b659ed105f0dac60c01b617123565b615c87673af26cff1169db1a60c01b617123565b615c9b67714551a45369d74160c01b617123565b60ff615ca683617f70565b610100604051602001615cbb9392919061ad19565b6040516020818303038152906040529050919050565b60fe818051602081018201805184825260208301602085012081835280955050505050506000915054906101000a900460ff1681565b61010260009054906101000a900473ffffffffffffffffffffffffffffffffffffffff1681565b60fb5481565b615d48676e3d3a7cc973839260c01b617123565b615d5c67b81e37812674bf1560c01b617123565b615d7067a3390d5a59651b2d60c01b617123565b615d84676e6b4652a4fac05f60c01b617123565b615d9a615d8f6145e0565b836040015183617126565b8015615dcf575060fe81604051615db191906198dc565b908152602001604051809103902060009054906101000a900460ff16155b8015615e75575061010260009054906101000a900473ffffffffffffffffffffffffffffffffffffffff1673ffffffffffffffffffffffffffffffffffffffff1663c9941806826040518263ffffffff1660e01b8152600401615e32919061993d565b602060405180830381865afa158015615e4f573d6000803e3d6000fd5b505050506040513d601f19601f82011682018060405250810190615e739190619974565b155b8015615f1b575061010460009054906101000a900473ffffffffffffffffffffffffffffffffffffffff1673ffffffffffffffffffffffffffffffffffffffff1663c9941806826040518263ffffffff1660e01b8152600401615ed8919061993d565b602060405180830381865afa158015615ef5573d6000803e3d6000fd5b505050506040513d601f19601f82011682018060405250810190615f199190619974565b155b615f5a576040517f08c379a0000000000000000000000000000000000000000000000000000000008152600401615f51906199ed565b60405180910390fd5b615f6e67ad86447519a6a01b60c01b617123565b615f8267d51e76f45020aff460c01b617123565b615f96677519581133c9742b60c01b617123565b61010260009054906101000a900473ffffffffffffffffffffffffffffffffffffffff1673ffffffffffffffffffffffffffffffffffffffff166340c10f193384602001516040518363ffffffff1660e01b8152600401615ff8929190619d59565b600060405180830381600087803b15801561601257600080fd5b505af1158015616026573d6000803e3d6000fd5b5050505061603e676387df782f996a6c60c01b617123565b600160fe8260405161605091906198dc565b908152602001604051809103902060006101000a81548160ff02191690831515021790555061608967d24e0d77c15d7c6a60c01b617123565b61609d6798fe9330b33f7c3960c01b617123565b7fa25d81097b9b3c755c3fed72446c9d81a9b3dd52c9f3b63c6d2cd6b7a766230233836020015184600001516040516160d89392919061ad96565b60405180910390a15050565b6160f867a3a57250f93e470560c01b617123565b61610c677f316d7a38ab036660c01b617123565b61612067c76ddda156ade4e560c01b617123565b61613467e8f155df73b7a53c60c01b617123565b61614a61613f6145e0565b836080015183617126565b801561617f575060fe8160405161616191906198dc565b908152602001604051809103902060009054906101000a900460ff16155b8015616225575061010260009054906101000a900473ffffffffffffffffffffffffffffffffffffffff1673ffffffffffffffffffffffffffffffffffffffff1663c9941806826040518263ffffffff1660e01b81526004016161e2919061993d565b602060405180830381865afa1580156161ff573d6000803e3d6000fd5b505050506040513d601f19601f820116820180604052508101906162239190619974565b155b80156162cb575061010460009054906101000a900473ffffffffffffffffffffffffffffffffffffffff1673ffffffffffffffffffffffffffffffffffffffff1663c9941806826040518263ffffffff1660e01b8152600401616288919061993d565b602060405180830381865afa1580156162a5573d6000803e3d6000fd5b505050506040513d601f19601f820116820180604052508101906162c99190619974565b155b61630a576040517f08c379a0000000000000000000000000000000000000000000000000000000008152600401616301906199ed565b60405180910390fd5b61631e672de33f4ddb5c299c60c01b617123565b61633267f111e599b0ff972260c01b617123565b600160fb60008282546163459190619fb4565b9250508190555061636067cf2caec36e85785760c01b617123565b61637467832199150b32023460c01b617123565b6163803360fb546177c8565b6163946752feeb983334114560c01b617123565b6040518060400160405280600481526020017f504152540000000000000000000000000000000000000000000000000000000081525060fd600060fb54815260200190815260200160002090816163eb9190619c87565b5061640067920766ad6ab083dd60c01b617123565b600160fe8260405161641291906198dc565b908152602001604051809103902060006101000a81548160ff02191690831515021790555061644b673e0ad39922c3c99160c01b617123565b61645f67d2aa3d5d16c5a88760c01b617123565b8160200151156165f65761647d671a48230dc098c29460c01b617123565b616491677d0822176673086c60c01b617123565b6164a5674a27958558099cf660c01b617123565b6164b96770cce48c0063526b60c01b617123565b3373ffffffffffffffffffffffffffffffffffffffff166164dd8360400151612093565b73ffffffffffffffffffffffffffffffffffffffff1614616533576040517f08c379a000000000000000000000000000000000000000000000000000000000815260040161652a90619ac5565b60405180910390fd5b6165476757cd27b3cbaaee4360c01b617123565b61655b67bf39b1b99dc0e23260c01b617123565b61656f6754c34f7ac9aeebf860c01b617123565b61657c82604001516172ec565b61659067a44cf19a5f79f8f960c01b617123565b6165a467368952e2c1cc3fba60c01b617123565b7fddb4fb341e96905f2958398f07cc0a8ce34e87637deb1616afac1a430d5cbafd3383606001518460400151856000015160fb546040516165e9959493929190619e3a565b60405180910390a1616674565b61660a67d4a510dab8f4e27160c01b617123565b61661e67476285d10770299760c01b617123565b61663267f5aad1610595dc7760c01b617123565b7fb5b31bd9d1c179b86a2f5f35c48f39186d40fcb2be4bc05b841ed90926a4445933836000015160fb5460405161666b93929190619fe8565b60405180910390a15b5050565b6000606a60008473ffffffffffffffffffffffffffffffffffffffff1673ffffffffffffffffffffffffffffffffffffffff16815260200190815260200160002060008373ffffffffffffffffffffffffffffffffffffffff1673ffffffffffffffffffffffffffffffffffffffff16815260200190815260200160002060009054906101000a900460ff16905092915050565b616714617a40565b600073ffffffffffffffffffffffffffffffffffffffff168173ffffffffffffffffffffffffffffffffffffffff1603616783576040517f08c379a000000000000000000000000000000000000000000000000000000000815260040161677a9061ae52565b60405180910390fd5b61678c81617abe565b50565b6167a36718f531a5d31cf9c760c01b617123565b6167b7674d572638eb32534960c01b617123565b6167cb6707df59d547f66a2160c01b617123565b6167df672214ae7fe4a8b9ed60c01b617123565b6167f56167ea6145e0565b8360a0015183617126565b801561682a575060fe8160405161680c91906198dc565b908152602001604051809103902060009054906101000a900460ff16155b80156168d0575061010260009054906101000a900473ffffffffffffffffffffffffffffffffffffffff1673ffffffffffffffffffffffffffffffffffffffff1663c9941806826040518263ffffffff1660e01b815260040161688d919061993d565b602060405180830381865afa1580156168aa573d6000803e3d6000fd5b505050506040513d601f19601f820116820180604052508101906168ce9190619974565b155b8015616976575061010460009054906101000a900473ffffffffffffffffffffffffffffffffffffffff1673ffffffffffffffffffffffffffffffffffffffff1663c9941806826040518263ffffffff1660e01b8152600401616933919061993d565b602060405180830381865afa158015616950573d6000803e3d6000fd5b505050506040513d601f19601f820116820180604052508101906169749190619974565b155b6169b5576040517f08c379a00000000000000000000000000000000000000000000000000000000081526004016169ac906199ed565b60405180910390fd5b6169c9676d8e406e5102e74f60c01b617123565b6169dd67ab9bdca7de26dae660c01b617123565b6169f167832945a8894aed3c60c01b617123565b60005b826000015151811015616cf957616a15672c0395d9292514b260c01b617123565b616a2967708fe0fbc747249160c01b617123565b616a3d67055b76a39a76e79660c01b617123565b3373ffffffffffffffffffffffffffffffffffffffff16616a7b84600001518381518110616a6e57616a6d61a60d565b5b6020026020010151612093565b73ffffffffffffffffffffffffffffffffffffffff1614616ad1576040517f08c379a0000000000000000000000000000000000000000000000000000000008152600401616ac89061aebe565b60405180910390fd5b616ae5672b06e95f2a06963d60c01b617123565b616af967551b2be1460936af60c01b617123565b616b0d6794054d4610cec4ce60c01b617123565b616b2167e676a9b990c25dd960c01b617123565b6040518060400160405280600481526020017f50415254000000000000000000000000000000000000000000000000000000008152505160fd600085600001518481518110616b7357616b7261a60d565b5b602002602001015181526020019081526020016000208054616b9490619740565b905014616bd6576040517f08c379a0000000000000000000000000000000000000000000000000000000008152600401616bcd90619a59565b60405180910390fd5b616bea676c60ae8c2e77861860c01b617123565b616bfe677736ec3162f10d7b60c01b617123565b616c1267a6d95ee5dd8a0f0460c01b617123565b616c3983600001518281518110616c2c57616c2b61a60d565b5b60200260200101516172ec565b616c4d670b48336b154e31ba60c01b617123565b6040518060200160405280600081525060fd600085600001518481518110616c7857616c7761a60d565b5b602002602001015181526020019081526020016000209081616c9a9190619c87565b50616caf67071bc130c05d137160c01b617123565b600160fe83604051616cc191906198dc565b908152602001604051809103902060006101000a81548160ff0219169083151502179055508080616cf19061a63c565b9150506169f4565b50616d0e670b46b866463aa84060c01b617123565b616d2267672571fefd167a8f60c01b617123565b616d3667f054e9e3549e65a960c01b617123565b6040518060400160405280601181526020017f555047524144452d415353454d424c45520000000000000000000000000000008152505160fd6000846060015181526020019081526020016000208054616d8f90619740565b905014616dd1576040517f08c379a0000000000000000000000000000000000000000000000000000000008152600401616dc89061af2a565b60405180910390fd5b616de567a235546a28d83eb160c01b617123565b616df9671259194f68783eb960c01b617123565b616e0d679fee39780888285160c01b617123565b616e21678d397fefefceac6460c01b617123565b3373ffffffffffffffffffffffffffffffffffffffff16616e458360600151612093565b73ffffffffffffffffffffffffffffffffffffffff1614616e9b576040517f08c379a0000000000000000000000000000000000000000000000000000000008152600401616e929061afbc565b60405180910390fd5b616eaf67796f80f3a90f66c760c01b617123565b616ec367aeee1f2f3c0dc52160c01b617123565b616ed767c48c97e5b49941cb60c01b617123565b616ee482606001516172ec565b616ef86762b9d9ae01b39d0760c01b617123565b6040518060200160405280600081525060fd6000846060015181526020019081526020016000209081616f2b9190619c87565b50616f406786bd28b4512b825d60c01b617123565b616f54674e338274c2c9bc9860c01b617123565b7fcabb5a72766c1e9339e2a970aa9c6c7497cb6cc884cdaface487d4abe7c549a53383602001518460000151856040015186606001518760800151604051616fa19695949392919061afdc565b60405180910390a15050565b60007f01ffc9a7000000000000000000000000000000000000000000000000000000007bffffffffffffffffffffffffffffffffffffffffffffffffffffffff1916827bffffffffffffffffffffffffffffffffffffffffffffffffffffffff1916149050919050565b61702081617f2f565b61705f576040517f08c379a00000000000000000000000000000000000000000000000000000000081526004016170569061a110565b60405180910390fd5b50565b600033905090565b816069600083815260200190815260200160002060006101000a81548173ffffffffffffffffffffffffffffffffffffffff021916908373ffffffffffffffffffffffffffffffffffffffff160217905550808273ffffffffffffffffffffffffffffffffffffffff166170dd83612093565b73ffffffffffffffffffffffffffffffffffffffff167f8c5be1e5ebec7d5bd14f71427d1e84f3dd0314c0f7b2291e5b200ac8c7c3b92560405160405180910390a45050565b50565b6000806000617135858561803e565b915091506000600481111561714d5761714c61b052565b5b8160048111156171605761715f61b052565b5b14801561719857508573ffffffffffffffffffffffffffffffffffffffff168273ffffffffffffffffffffffffffffffffffffffff16145b156171a8576001925050506172e5565b6000808773ffffffffffffffffffffffffffffffffffffffff16631626ba7e60e01b88886040516024016171dd92919061b090565b604051602081830303815290604052907bffffffffffffffffffffffffffffffffffffffffffffffffffffffff19166020820180517bffffffffffffffffffffffffffffffffffffffffffffffffffffffff838183161783525050505060405161724791906198dc565b600060405180830381855afa9150503d8060008114617282576040519150601f19603f3d011682016040523d82523d6000602084013e617287565b606091505b509150915081801561729a575060208151145b80156172de5750631626ba7e60e01b7bffffffffffffffffffffffffffffffffffffffffffffffffffffffff1916818060200190518101906172dc919061b0d5565b145b9450505050505b9392505050565b60006172f782612093565b905061730781600084600161808f565b61731082612093565b90506069600083815260200190815260200160002060006101000a81549073ffffffffffffffffffffffffffffffffffffffff02191690556001606860008373ffffffffffffffffffffffffffffffffffffffff1673ffffffffffffffffffffffffffffffffffffffff168152602001908152602001600020600082825403925050819055506067600083815260200190815260200160002060006101000a81549073ffffffffffffffffffffffffffffffffffffffff021916905581600073ffffffffffffffffffffffffffffffffffffffff168273ffffffffffffffffffffffffffffffffffffffff167fddf252ad1be2c89b69c2b068fc378daa952ba7f163c4a11628f55a4df523b3ef60405160405180910390a4617436816000846001618095565b5050565b60008061744683612093565b90508073ffffffffffffffffffffffffffffffffffffffff168473ffffffffffffffffffffffffffffffffffffffff16148061748857506174878185616678565b5b806174c657508373ffffffffffffffffffffffffffffffffffffffff166174ae84610aff565b73ffffffffffffffffffffffffffffffffffffffff16145b91505092915050565b8273ffffffffffffffffffffffffffffffffffffffff166174ef82612093565b73ffffffffffffffffffffffffffffffffffffffff1614617545576040517f08c379a000000000000000000000000000000000000000000000000000000000815260040161753c9061b174565b60405180910390fd5b600073ffffffffffffffffffffffffffffffffffffffff168273ffffffffffffffffffffffffffffffffffffffff16036175b4576040517f08c379a00000000000000000000000000000000000000000000000000000000081526004016175ab9061b206565b60405180910390fd5b6175c1838383600161808f565b8273ffffffffffffffffffffffffffffffffffffffff166175e182612093565b73ffffffffffffffffffffffffffffffffffffffff1614617637576040517f08c379a000000000000000000000000000000000000000000000000000000000815260040161762e9061b174565b60405180910390fd5b6069600082815260200190815260200160002060006101000a81549073ffffffffffffffffffffffffffffffffffffffff02191690556001606860008573ffffffffffffffffffffffffffffffffffffffff1673ffffffffffffffffffffffffffffffffffffffff168152602001908152602001600020600082825403925050819055506001606860008473ffffffffffffffffffffffffffffffffffffffff1673ffffffffffffffffffffffffffffffffffffffff16815260200190815260200160002060008282540192505081905550816067600083815260200190815260200160002060006101000a81548173ffffffffffffffffffffffffffffffffffffffff021916908373ffffffffffffffffffffffffffffffffffffffff160217905550808273ffffffffffffffffffffffffffffffffffffffff168473ffffffffffffffffffffffffffffffffffffffff167fddf252ad1be2c89b69c2b068fc378daa952ba7f163c4a11628f55a4df523b3ef60405160405180910390a46177c38383836001618095565b505050565b6177e282826040518060200160405280600081525061809b565b5050565b600073ffffffffffffffffffffffffffffffffffffffff168273ffffffffffffffffffffffffffffffffffffffff1603617855576040517f08c379a000000000000000000000000000000000000000000000000000000000815260040161784c9061b272565b60405180910390fd5b61785e81617f2f565b1561789e576040517f08c379a00000000000000000000000000000000000000000000000000000000081526004016178959061b2de565b60405180910390fd5b6178ac60008383600161808f565b6178b581617f2f565b156178f5576040517f08c379a00000000000000000000000000000000000000000000000000000000081526004016178ec9061b2de565b60405180910390fd5b6001606860008473ffffffffffffffffffffffffffffffffffffffff1673ffffffffffffffffffffffffffffffffffffffff16815260200190815260200160002060008282540192505081905550816067600083815260200190815260200160002060006101000a81548173ffffffffffffffffffffffffffffffffffffffff021916908373ffffffffffffffffffffffffffffffffffffffff160217905550808273ffffffffffffffffffffffffffffffffffffffff16600073ffffffffffffffffffffffffffffffffffffffff167fddf252ad1be2c89b69c2b068fc378daa952ba7f163c4a11628f55a4df523b3ef60405160405180910390a46179ff600083836001618095565b5050565b60006067600083815260200190815260200160002060009054906101000a900473ffffffffffffffffffffffffffffffffffffffff169050919050565b617a48617062565b73ffffffffffffffffffffffffffffffffffffffff16617a666145e0565b73ffffffffffffffffffffffffffffffffffffffff1614617abc576040517f08c379a0000000000000000000000000000000000000000000000000000000008152600401617ab39061b34a565b60405180910390fd5b565b6000609760009054906101000a900473ffffffffffffffffffffffffffffffffffffffff16905081609760006101000a81548173ffffffffffffffffffffffffffffffffffffffff021916908373ffffffffffffffffffffffffffffffffffffffff1602179055508173ffffffffffffffffffffffffffffffffffffffff168173ffffffffffffffffffffffffffffffffffffffff167f8be0079c531659141344cd1fd0a4f28419497f9722a3daafe3b4186f6b6457e060405160405180910390a35050565b600260c95403617bc9576040517f08c379a0000000000000000000000000000000000000000000000000000000008152600401617bc09061b3b6565b60405180910390fd5b600260c981905550565b600060019050919050565b600160c981905550565b6000808273ffffffffffffffffffffffffffffffffffffffff163b119050919050565b600060019054906101000a900460ff16617c5a576040517f08c379a0000000000000000000000000000000000000000000000000000000008152600401617c519061b448565b60405180910390fd5b617c6482826180f6565b5050565b600060019054906101000a900460ff16617cb7576040517f08c379a0000000000000000000000000000000000000000000000000000000008152600401617cae9061b448565b60405180910390fd5b617cbf618169565b565b600060019054906101000a900460ff16617d10576040517f08c379a0000000000000000000000000000000000000000000000000000000008152600401617d079061b448565b60405180910390fd5b617d186181ca565b565b617d258484846174cf565b617d3184848484618223565b617d70576040517f08c379a0000000000000000000000000000000000000000000000000000000008152600401617d679061b4da565b60405180910390fd5b50505050565b6000617d8c676e7a980ddfe8a98260c01b617123565b617da0677b635f965c83615060c01b617123565b6103e88261010354617db2919061a4db565b617dbc919061b529565b9050919050565b8173ffffffffffffffffffffffffffffffffffffffff168373ffffffffffffffffffffffffffffffffffffffff1603617e31576040517f08c379a0000000000000000000000000000000000000000000000000000000008152600401617e289061b5a6565b60405180910390fd5b80606a60008573ffffffffffffffffffffffffffffffffffffffff1673ffffffffffffffffffffffffffffffffffffffff16815260200190815260200160002060008473ffffffffffffffffffffffffffffffffffffffff1673ffffffffffffffffffffffffffffffffffffffff16815260200190815260200160002060006101000a81548160ff0219169083151502179055508173ffffffffffffffffffffffffffffffffffffffff168373ffffffffffffffffffffffffffffffffffffffff167f17307eab39ab6107e8899845ad3d59bd9653f200f220920489ca2b5937696c3183604051617f229190618693565b60405180910390a3505050565b60008073ffffffffffffffffffffffffffffffffffffffff16617f5183617a03565b73ffffffffffffffffffffffffffffffffffffffff1614159050919050565b606060006001617f7f846183aa565b01905060008167ffffffffffffffff811115617f9e57617f9d618934565b5b6040519080825280601f01601f191660200182016040528015617fd05781602001600182028036833780820191505090505b509050600082602001820190505b600115618033578080600190039150507f3031323334353637383961626364656600000000000000000000000000000000600a86061a8153600a85816180275761802661b4fa565b5b04945060008503617fde575b819350505050919050565b600080604183510361807f5760008060006020860151925060408601519150606086015160001a9050618073878285856184fd565b94509450505050618088565b60006002915091505b9250929050565b50505050565b50505050565b6180a583836177e6565b6180b26000848484618223565b6180f1576040517f08c379a00000000000000000000000000000000000000000000000000000000081526004016180e89061b4da565b60405180910390fd5b505050565b600060019054906101000a900460ff16618145576040517f08c379a000000000000000000000000000000000000000000000000000000000815260040161813c9061b448565b60405180910390fd5b81606590816181549190619c87565b5080606690816181649190619c87565b505050565b600060019054906101000a900460ff166181b8576040517f08c379a00000000000000000000000000000000000000000000000000000000081526004016181af9061b448565b60405180910390fd5b6181c86181c3617062565b617abe565b565b600060019054906101000a900460ff16618219576040517f08c379a00000000000000000000000000000000000000000000000000000000081526004016182109061b448565b60405180910390fd5b600160c981905550565b60006182448473ffffffffffffffffffffffffffffffffffffffff16617be8565b1561839d578373ffffffffffffffffffffffffffffffffffffffff1663150b7a0261826d617062565b8786866040518563ffffffff1660e01b815260040161828f949392919061b5c6565b6020604051808303816000875af19250505080156182cb57506040513d601f19601f820116820180604052508101906182c8919061b627565b60015b61834d573d80600081146182fb576040519150601f19603f3d011682016040523d82523d6000602084013e618300565b606091505b506000815103618345576040517f08c379a000000000000000000000000000000000000000000000000000000000815260040161833c9061b4da565b60405180910390fd5b805181602001fd5b63150b7a0260e01b7bffffffffffffffffffffffffffffffffffffffffffffffffffffffff1916817bffffffffffffffffffffffffffffffffffffffffffffffffffffffff1916149150506183a2565b600190505b949350505050565b600080600090507a184f03e93ff9f4daa797ed6e38ed64bf6a1f0100000000000000008310618408577a184f03e93ff9f4daa797ed6e38ed64bf6a1f01000000000000000083816183fe576183fd61b4fa565b5b0492506040810190505b6d04ee2d6d415b85acef81000000008310618445576d04ee2d6d415b85acef8100000000838161843b5761843a61b4fa565b5b0492506020810190505b662386f26fc10000831061847457662386f26fc10000838161846a5761846961b4fa565b5b0492506010810190505b6305f5e100831061849d576305f5e10083816184935761849261b4fa565b5b0492506008810190505b61271083106184c25761271083816184b8576184b761b4fa565b5b0492506004810190505b606483106184e557606483816184db576184da61b4fa565b5b0492506002810190505b600a83106184f4576001810190505b80915050919050565b6000807f7fffffffffffffffffffffffffffffff5d576e7357a4501ddfe92f46681b20a08360001c11156185385760006003915091506185d6565b60006001878787876040516000815260200160405260405161855d949392919061b663565b6020604051602081039080840390855afa15801561857f573d6000803e3d6000fd5b505050602060405103519050600073ffffffffffffffffffffffffffffffffffffffff168173ffffffffffffffffffffffffffffffffffffffff16036185cd576000600192509250506185d6565b80600092509250505b94509492505050565b6000604051905090565b600080fd5b600080fd5b60007fffffffff0000000000000000000000000000000000000000000000000000000082169050919050565b618628816185f3565b811461863357600080fd5b50565b6000813590506186458161861f565b92915050565b600060208284031215618661576186606185e9565b5b600061866f84828501618636565b91505092915050565b60008115159050919050565b61868d81618678565b82525050565b60006020820190506186a86000830184618684565b92915050565b600073ffffffffffffffffffffffffffffffffffffffff82169050919050565b6000819050919050565b60006186f36186ee6186e9846186ae565b6186ce565b6186ae565b9050919050565b6000618705826186d8565b9050919050565b6000618717826186fa565b9050919050565b6187278161870c565b82525050565b6000602082019050618742600083018461871e565b92915050565b600081519050919050565b600082825260208201905092915050565b60005b83811015618782578082015181840152602081019050618767565b60008484015250505050565b6000601f19601f8301169050919050565b60006187aa82618748565b6187b48185618753565b93506187c4818560208601618764565b6187cd8161878e565b840191505092915050565b600060208201905081810360008301526187f2818461879f565b905092915050565b6000819050919050565b61880d816187fa565b811461881857600080fd5b50565b60008135905061882a81618804565b92915050565b600060208284031215618846576188456185e9565b5b60006188548482850161881b565b91505092915050565b6000618868826186ae565b9050919050565b6188788161885d565b82525050565b6000602082019050618893600083018461886f565b92915050565b6188a28161885d565b81146188ad57600080fd5b50565b6000813590506188bf81618899565b92915050565b600080604083850312156188dc576188db6185e9565b5b60006188ea858286016188b0565b92505060206188fb8582860161881b565b9150509250929050565b61890e816187fa565b82525050565b60006020820190506189296000830184618905565b92915050565b600080fd5b7f4e487b7100000000000000000000000000000000000000000000000000000000600052604160045260246000fd5b61896c8261878e565b810181811067ffffffffffffffff8211171561898b5761898a618934565b5b80604052505050565b600061899e6185df565b90506189aa8282618963565b919050565b600080fd5b6189bd81618678565b81146189c857600080fd5b50565b6000813590506189da816189b4565b92915050565b6000819050919050565b6189f3816189e0565b81146189fe57600080fd5b50565b600081359050618a10816189ea565b92915050565b600060e08284031215618a2c57618a2b61892f565b5b618a3660e0618994565b90506000618a468482850161881b565b6000830152506020618a5a8482850161881b565b6020830152506040618a6e8482850161881b565b6040830152506060618a82848285016189cb565b6060830152506080618a968482850161881b565b60808301525060a0618aaa8482850161881b565b60a08301525060c0618abe84828501618a01565b60c08301525092915050565b600080fd5b600080fd5b600067ffffffffffffffff821115618aef57618aee618934565b5b618af88261878e565b9050602081019050919050565b82818337600083830152505050565b6000618b27618b2284618ad4565b618994565b905082815260208101848484011115618b4357618b42618acf565b5b618b4e848285618b05565b509392505050565b600082601f830112618b6b57618b6a618aca565b5b8135618b7b848260208601618b14565b91505092915050565b6000806101008385031215618b9c57618b9b6185e9565b5b6000618baa85828601618a16565b92505060e083013567ffffffffffffffff811115618bcb57618bca6185ee565b5b618bd785828601618b56565b9150509250929050565b600060a08284031215618bf757618bf661892f565b5b618c0160a0618994565b90506000618c118482850161881b565b6000830152506020618c258482850161881b565b6020830152506040618c398482850161881b565b6040830152506060618c4d8482850161881b565b6060830152506080618c6184828501618a01565b60808301525092915050565b60008060c08385031215618c8457618c836185e9565b5b6000618c9285828601618be1565b92505060a083013567ffffffffffffffff811115618cb357618cb26185ee565b5b618cbf85828601618b56565b9150509250929050565b600080600060608486031215618ce257618ce16185e9565b5b6000618cf0868287016188b0565b9350506020618d01868287016188b0565b9250506040618d128682870161881b565b9150509250925092565b600060408284031215618d3257618d3161892f565b5b618d3c6040618994565b90506000618d4c8482850161881b565b6000830152506020618d6084828501618a01565b60208301525092915050565b60008060608385031215618d8357618d826185e9565b5b6000618d9185828601618d1c565b925050604083013567ffffffffffffffff811115618db257618db16185ee565b5b618dbe85828601618b56565b9150509250929050565b600060208284031215618dde57618ddd6185e9565b5b6000618dec848285016188b0565b91505092915050565b600060608284031215618e0b57618e0a61892f565b5b618e156060618994565b90506000618e258482850161881b565b6000830152506020618e398482850161881b565b6020830152506040618e4d84828501618a01565b60408301525092915050565b60008060808385031215618e7057618e6f6185e9565b5b6000618e7e85828601618df5565b925050606083013567ffffffffffffffff811115618e9f57618e9e6185ee565b5b618eab85828601618b56565b9150509250929050565b600080fd5b600060808284031215618ed057618ecf618eb5565b5b81905092915050565b60008060a08385031215618ef057618eef6185e9565b5b6000618efe85828601618eba565b925050608083013567ffffffffffffffff811115618f1f57618f1e6185ee565b5b618f2b85828601618b56565b9150509250929050565b600080600080600060a08688031215618f5157618f506185e9565b5b6000618f5f888289016188b0565b9550506020618f70888289016188b0565b9450506040618f81888289016188b0565b9350506060618f928882890161881b565b9250506080618fa38882890161881b565b9150509295509295909350565b600067ffffffffffffffff821115618fcb57618fca618934565b5b618fd48261878e565b9050602081019050919050565b6000618ff4618fef84618fb0565b618994565b9050828152602081018484840111156190105761900f618acf565b5b61901b848285618b05565b509392505050565b600082601f83011261903857619037618aca565b5b8135619048848260208601618fe1565b91505092915050565b60008060408385031215619068576190676185e9565b5b600083013567ffffffffffffffff811115619086576190856185ee565b5b61909285828601619023565b925050602083013567ffffffffffffffff8111156190b3576190b26185ee565b5b6190bf85828601619023565b9150509250929050565b600080604083850312156190e0576190df6185e9565b5b60006190ee858286016188b0565b92505060206190ff858286016189cb565b9150509250929050565b60008060008060808587031215619123576191226185e9565b5b6000619131878288016188b0565b9450506020619142878288016188b0565b93505060406191538782880161881b565b925050606085013567ffffffffffffffff811115619174576191736185ee565b5b61918087828801618b56565b91505092959194509250565b6000604082840312156191a2576191a161892f565b5b6191ac6040618994565b905060006191bc8482850161881b565b60008301525060206191d084828501618a01565b60208301525092915050565b600080606083850312156191f3576191f26185e9565b5b60006192018582860161918c565b925050604083013567ffffffffffffffff811115619222576192216185ee565b5b61922e85828601618b56565b9150509250929050565b60006060828403121561924e5761924d61892f565b5b6192586060618994565b905060006192688482850161881b565b600083015250602082013567ffffffffffffffff81111561928c5761928b6189af565b5b61929884828501619023565b60208301525060406192ac84828501618a01565b60408301525092915050565b600080604083850312156192cf576192ce6185e9565b5b600083013567ffffffffffffffff8111156192ed576192ec6185ee565b5b6192f985828601619238565b925050602083013567ffffffffffffffff81111561931a576193196185ee565b5b61932685828601618b56565b9150509250929050565b600060208284031215619346576193456185e9565b5b600082013567ffffffffffffffff811115619364576193636185ee565b5b61937084828501618b56565b91505092915050565b6000619384826186fa565b9050919050565b61939481619379565b82525050565b60006020820190506193af600083018461938b565b92915050565b600060a082840312156193cb576193ca61892f565b5b6193d560a0618994565b905060006193e58482850161881b565b60008301525060206193f9848285016189cb565b602083015250604061940d8482850161881b565b60408301525060606194218482850161881b565b606083015250608061943584828501618a01565b60808301525092915050565b60008060c08385031215619458576194576185e9565b5b6000619466858286016193b5565b92505060a083013567ffffffffffffffff811115619487576194866185ee565b5b61949385828601618b56565b9150509250929050565b600080604083850312156194b4576194b36185e9565b5b60006194c2858286016188b0565b92505060206194d3858286016188b0565b9150509250929050565b600067ffffffffffffffff8211156194f8576194f7618934565b5b602082029050602081019050919050565b600080fd5b600061952161951c846194dd565b618994565b9050808382526020820190506020840283018581111561954457619543619509565b5b835b8181101561956d5780619559888261881b565b845260208401935050602081019050619546565b5050509392505050565b600082601f83011261958c5761958b618aca565b5b813561959c84826020860161950e565b91505092915050565b600060c082840312156195bb576195ba61892f565b5b6195c560c0618994565b9050600082013567ffffffffffffffff8111156195e5576195e46189af565b5b6195f184828501619577565b600083015250602082013567ffffffffffffffff811115619615576196146189af565b5b61962184828501619577565b60208301525060406196358482850161881b565b60408301525060606196498482850161881b565b606083015250608082013567ffffffffffffffff81111561966d5761966c6189af565b5b61967984828501619023565b60808301525060a061968d84828501618a01565b60a08301525092915050565b600080604083850312156196b0576196af6185e9565b5b600083013567ffffffffffffffff8111156196ce576196cd6185ee565b5b6196da858286016195a5565b925050602083013567ffffffffffffffff8111156196fb576196fa6185ee565b5b61970785828601618b56565b9150509250929050565b7f4e487b7100000000000000000000000000000000000000000000000000000000600052602260045260246000fd5b6000600282049050600182168061975857607f821691505b60208210810361976b5761976a619711565b5b50919050565b7f4552433732313a20617070726f76616c20746f2063757272656e74206f776e6560008201527f7200000000000000000000000000000000000000000000000000000000000000602082015250565b60006197cd602183618753565b91506197d882619771565b604082019050919050565b600060208201905081810360008301526197fc816197c0565b9050919050565b7f4552433732313a20617070726f76652063616c6c6572206973206e6f7420746f60008201527f6b656e206f776e6572206f7220617070726f76656420666f7220616c6c000000602082015250565b600061985f603d83618753565b915061986a82619803565b604082019050919050565b6000602082019050818103600083015261988e81619852565b9050919050565b600081519050919050565b600081905092915050565b60006198b682619895565b6198c081856198a0565b93506198d0818560208601618764565b80840191505092915050565b60006198e882846198ab565b915081905092915050565b600082825260208201905092915050565b600061990f82619895565b61991981856198f3565b9350619929818560208601618764565b6199328161878e565b840191505092915050565b600060208201905081810360008301526199578184619904565b905092915050565b60008151905061996e816189b4565b92915050565b60006020828403121561998a576199896185e9565b5b60006199988482850161995f565b91505092915050565b7f416c6c6f794552433732313a204e6f7420616c6c6f7765640000000000000000600082015250565b60006199d7601883618753565b91506199e2826199a1565b602082019050919050565b60006020820190508181036000830152619a06816199ca565b9050919050565b7f416c6c6f794552433732313a204e6f7420612070617274000000000000000000600082015250565b6000619a43601783618753565b9150619a4e82619a0d565b602082019050919050565b60006020820190508181036000830152619a7281619a36565b9050919050565b7f416c6c6f794552433732313a204e6f742061206f776e65720000000000000000600082015250565b6000619aaf601883618753565b9150619aba82619a79565b602082019050919050565b60006020820190508181036000830152619ade81619aa2565b9050919050565b60008190508160005260206000209050919050565b60006020601f8301049050919050565b600082821b905092915050565b600060088302619b477fffffffffffffffffffffffffffffffffffffffffffffffffffffffffffffffff82619b0a565b619b518683619b0a565b95508019841693508086168417925050509392505050565b6000619b84619b7f619b7a846187fa565b6186ce565b6187fa565b9050919050565b6000819050919050565b619b9e83619b69565b619bb2619baa82619b8b565b848454619b17565b825550505050565b600090565b619bc7619bba565b619bd2818484619b95565b505050565b5b81811015619bf657619beb600082619bbf565b600181019050619bd8565b5050565b601f821115619c3b57619c0c81619ae5565b619c1584619afa565b81016020851015619c24578190505b619c38619c3085619afa565b830182619bd7565b50505b505050565b600082821c905092915050565b6000619c5e60001984600802619c40565b1980831691505092915050565b6000619c778383619c4d565b9150826002028217905092915050565b619c9082618748565b67ffffffffffffffff811115619ca957619ca8618934565b5b619cb38254619740565b619cbe828285619bfa565b600060209050601f831160018114619cf15760008415619cdf578287015190505b619ce98582619c6b565b865550619d51565b601f198416619cff86619ae5565b60005b82811015619d2757848901518255600182019150602085019450602081019050619d02565b86831015619d445784890151619d40601f891682619c4d565b8355505b6001600288020188555050505b505050505050565b6000604082019050619d6e600083018561886f565b619d7b6020830184618905565b9392505050565b7f416c6c6f794552433732313a204e6f742061207072696e746572000000000000600082015250565b6000619db8601a83618753565b9150619dc382619d82565b602082019050919050565b60006020820190508181036000830152619de781619dab565b9050919050565b7f5041525400000000000000000000000000000000000000000000000000000000600082015250565b6000619e24600483618753565b9150619e2f82619dee565b602082019050919050565b600060c082019050619e4f600083018861886f565b619e5c6020830187618905565b619e696040830186618905565b619e766060830185618905565b619e836080830184618905565b81810360a0830152619e9481619e17565b90509695505050505050565b600060a082019050619eb5600083018861886f565b619ec26020830187618905565b619ecf6040830186618905565b619edc6060830185618905565b619ee96080830184618905565b9695505050505050565b7f4552433732313a2063616c6c6572206973206e6f7420746f6b656e206f776e6560008201527f72206f7220617070726f76656400000000000000000000000000000000000000602082015250565b6000619f4f602d83618753565b9150619f5a82619ef3565b604082019050919050565b60006020820190508181036000830152619f7e81619f42565b9050919050565b7f4e487b7100000000000000000000000000000000000000000000000000000000600052601160045260246000fd5b6000619fbf826187fa565b9150619fca836187fa565b9250828201905080821115619fe257619fe1619f85565b5b92915050565b6000608082019050619ffd600083018661886f565b61a00a6020830185618905565b61a0176040830184618905565b818103606083015261a02881619e17565b9050949350505050565b7f416c6c6f794552433732313a204f6e6c79204d61737465722063616e2063616c60008201527f6c00000000000000000000000000000000000000000000000000000000000000602082015250565b600061a08e602183618753565b915061a0998261a032565b604082019050919050565b6000602082019050818103600083015261a0bd8161a081565b9050919050565b7f4552433732313a20696e76616c696420746f6b656e2049440000000000000000600082015250565b600061a0fa601883618753565b915061a1058261a0c4565b602082019050919050565b6000602082019050818103600083015261a1298161a0ed565b9050919050565b7f434f4e5354525543540000000000000000000000000000000000000000000000600082015250565b600061a166600983618753565b915061a1718261a130565b602082019050919050565b600060808201905061a191600083018661886f565b61a19e6020830185618905565b61a1ab6040830184618905565b818103606083015261a1bc8161a159565b9050949350505050565b7f4552433732313a2061646472657373207a65726f206973206e6f74206120766160008201527f6c6964206f776e65720000000000000000000000000000000000000000000000602082015250565b600061a222602983618753565b915061a22d8261a1c6565b604082019050919050565b6000602082019050818103600083015261a2518161a215565b9050919050565b60008151905061a26781618804565b92915050565b60006080828403121561a2835761a28261892f565b5b61a28d6080618994565b9050600061a29d8482850161a258565b600083015250602061a2b18482850161a258565b602083015250604061a2c58482850161a258565b604083015250606061a2d98482850161a258565b60608301525092915050565b60006080828403121561a2fb5761a2fa6185e9565b5b600061a3098482850161a26d565b91505092915050565b600060408201905061a3276000830185618905565b61a3346020830184618905565b9392505050565b6000610120828403121561a3525761a35161892f565b5b61a35d610120618994565b9050600061a36d8482850161a258565b600083015250602061a3818482850161a258565b602083015250604061a3958482850161a258565b604083015250606061a3a98482850161a258565b606083015250608061a3bd8482850161a258565b60808301525060a061a3d18482850161a258565b60a08301525060c061a3e58482850161a258565b60c08301525060e061a3f98482850161a258565b60e08301525061010061a40e8482850161a258565b6101008301525092915050565b6000610120828403121561a4325761a4316185e9565b5b600061a4408482850161a33b565b91505092915050565b7f416c6c6f794552433732313a20546869732065706f636820697320636c6f736560008201527f64206f72207072696e746572206973206f7574206f662073746f636b00000000602082015250565b600061a4a5603c83618753565b915061a4b08261a449565b604082019050919050565b6000602082019050818103600083015261a4d48161a498565b9050919050565b600061a4e6826187fa565b915061a4f1836187fa565b9250817fffffffffffffffffffffffffffffffffffffffffffffffffffffffffffffffff048311821515161561a52a5761a529619f85565b5b828202905092915050565b7f416c6c6f794552433732313a20496e76616c6964207072696365000000000000600082015250565b600061a56b601a83618753565b915061a5768261a535565b602082019050919050565b6000602082019050818103600083015261a59a8161a55e565b9050919050565b7f416c6c6f794552433732313a20496e76616c6964207175616e74697479000000600082015250565b600061a5d7601d83618753565b915061a5e28261a5a1565b602082019050919050565b6000602082019050818103600083015261a6068161a5ca565b9050919050565b7f4e487b7100000000000000000000000000000000000000000000000000000000600052603260045260246000fd5b600061a647826187fa565b91507fffffffffffffffffffffffffffffffffffffffffffffffffffffffffffffffff820361a6795761a678619f85565b5b600182019050919050565b600060608201905061a699600083018661886f565b61a6a6602083018561886f565b61a6b36040830184618905565b949350505050565b600060608201905061a6d06000830186618905565b61a6dd6020830185618905565b61a6ea6040830184618905565b949350505050565b600081519050919050565b600082825260208201905092915050565b6000819050602082019050919050565b61a727816187fa565b82525050565b600061a739838361a71e565b60208301905092915050565b6000602082019050919050565b600061a75d8261a6f2565b61a767818561a6fd565b935061a7728361a70e565b8060005b8381101561a7a357815161a78a888261a72d565b975061a7958361a745565b92505060018101905061a776565b5085935050505092915050565b7f5052494e54455200000000000000000000000000000000000000000000000000600082015250565b600061a7e6600783618753565b915061a7f18261a7b0565b602082019050919050565b600060e08201905061a811600083018961886f565b818103602083015261a823818861a752565b905061a8326040830187618905565b61a83f6060830186618905565b61a84c6080830185618905565b61a85960a0830184618905565b81810360c083015261a86a8161a7d9565b9050979650505050505050565b7f496e697469616c697a61626c653a20636f6e747261637420697320616c72656160008201527f647920696e697469616c697a6564000000000000000000000000000000000000602082015250565b600061a8d3602e83618753565b915061a8de8261a877565b604082019050919050565b6000602082019050818103600083015261a9028161a8c6565b9050919050565b6000819050919050565b600060ff82169050919050565b600061a93b61a93661a9318461a909565b6186ce565b61a913565b9050919050565b61a94b8161a920565b82525050565b600060208201905061a966600083018461a942565b92915050565b7f416c6c6f794552433732313a204e6f74206c6973746564000000000000000000600082015250565b600061a9a2601783618753565b915061a9ad8261a96c565b602082019050919050565b6000602082019050818103600083015261a9d18161a995565b9050919050565b7f416c6c6f794552433732313a205072697a6520697320696e636f72726563742060008201527f6f7220696e76616c696400000000000000000000000000000000000000000000602082015250565b600061aa34602a83618753565b915061aa3f8261a9d8565b604082019050919050565b6000602082019050818103600083015261aa638161aa27565b9050919050565b600061aa75826187fa565b915061aa80836187fa565b925082820390508181111561aa985761aa97619f85565b5b92915050565b6000815461aaab81619740565b61aab58186618753565b9450600182166000811461aad0576001811461aae65761ab19565b60ff19831686528115156020028601935061ab19565b61aaef85619ae5565b60005b8381101561ab115781548189015260018201915060208101905061aaf2565b808801955050505b50505092915050565b600060a08201905061ab37600083018861886f565b61ab44602083018761886f565b61ab516040830186618905565b61ab5e6060830185618905565b818103608083015261ab70818461aa9e565b90509695505050505050565b600060808201905061ab91600083018761886f565b61ab9e6020830186618905565b61abab6040830185618905565b818103606083015261abbd818461879f565b905095945050505050565b7f416c6c6f794552433732313a2055524920717565727920666f72206e6f6e657860008201527f697374656e7420746f6b656e0000000000000000000000000000000000000000602082015250565b600061ac24602c83618753565b915061ac2f8261abc8565b604082019050919050565b6000602082019050818103600083015261ac538161ac17565b9050919050565b600081905092915050565b6000815461ac7281619740565b61ac7c818661ac5a565b9450600182166000811461ac97576001811461acac5761acdf565b60ff198316865281151582028601935061acdf565b61acb585619ae5565b60005b8381101561acd75781548189015260018201915060208101905061acb8565b838801955050505b50505092915050565b600061acf382618748565b61acfd818561ac5a565b935061ad0d818560208601618764565b80840191505092915050565b600061ad25828661ac65565b915061ad31828561ace8565b915061ad3d828461ac65565b9150819050949350505050565b7f434f4e53554d41424c4500000000000000000000000000000000000000000000600082015250565b600061ad80600a83618753565b915061ad8b8261ad4a565b602082019050919050565b600060808201905061adab600083018661886f565b61adb86020830185618905565b61adc56040830184618905565b818103606083015261add68161ad73565b9050949350505050565b7f4f776e61626c653a206e6577206f776e657220697320746865207a65726f206160008201527f6464726573730000000000000000000000000000000000000000000000000000602082015250565b600061ae3c602683618753565b915061ae478261ade0565b604082019050919050565b6000602082019050818103600083015261ae6b8161ae2f565b9050919050565b7f416c6c6f794552433732313a204e6f7420612070617274206f776e6572000000600082015250565b600061aea8601d83618753565b915061aeb38261ae72565b602082019050919050565b6000602082019050818103600083015261aed78161ae9b565b9050919050565b7f416c6c6f794552433732313a204e6f74206120617373656d626c657200000000600082015250565b600061af14601c83618753565b915061af1f8261aede565b602082019050919050565b6000602082019050818103600083015261af438161af07565b9050919050565b7f416c6c6f794552433732313a204e6f74206120617373656d626c6572206f776e60008201527f6572000000000000000000000000000000000000000000000000000000000000602082015250565b600061afa6602283618753565b915061afb18261af4a565b604082019050919050565b6000602082019050818103600083015261afd58161af99565b9050919050565b600060c08201905061aff1600083018961886f565b818103602083015261b003818861a752565b9050818103604083015261b017818761a752565b905061b0266060830186618905565b61b0336080830185618905565b81810360a083015261b045818461879f565b9050979650505050505050565b7f4e487b7100000000000000000000000000000000000000000000000000000000600052602160045260246000fd5b61b08a816189e0565b82525050565b600060408201905061b0a5600083018561b081565b818103602083015261b0b78184619904565b90509392505050565b60008151905061b0cf816189ea565b92915050565b60006020828403121561b0eb5761b0ea6185e9565b5b600061b0f98482850161b0c0565b91505092915050565b7f4552433732313a207472616e736665722066726f6d20696e636f72726563742060008201527f6f776e6572000000000000000000000000000000000000000000000000000000602082015250565b600061b15e602583618753565b915061b1698261b102565b604082019050919050565b6000602082019050818103600083015261b18d8161b151565b9050919050565b7f4552433732313a207472616e7366657220746f20746865207a65726f2061646460008201527f7265737300000000000000000000000000000000000000000000000000000000602082015250565b600061b1f0602483618753565b915061b1fb8261b194565b604082019050919050565b6000602082019050818103600083015261b21f8161b1e3565b9050919050565b7f4552433732313a206d696e7420746f20746865207a65726f2061646472657373600082015250565b600061b25c602083618753565b915061b2678261b226565b602082019050919050565b6000602082019050818103600083015261b28b8161b24f565b9050919050565b7f4552433732313a20746f6b656e20616c7265616479206d696e74656400000000600082015250565b600061b2c8601c83618753565b915061b2d38261b292565b602082019050919050565b6000602082019050818103600083015261b2f78161b2bb565b9050919050565b7f4f776e61626c653a2063616c6c6572206973206e6f7420746865206f776e6572600082015250565b600061b334602083618753565b915061b33f8261b2fe565b602082019050919050565b6000602082019050818103600083015261b3638161b327565b9050919050565b7f5265656e7472616e637947756172643a207265656e7472616e742063616c6c00600082015250565b600061b3a0601f83618753565b915061b3ab8261b36a565b602082019050919050565b6000602082019050818103600083015261b3cf8161b393565b9050919050565b7f496e697469616c697a61626c653a20636f6e7472616374206973206e6f74206960008201527f6e697469616c697a696e67000000000000000000000000000000000000000000602082015250565b600061b432602b83618753565b915061b43d8261b3d6565b604082019050919050565b6000602082019050818103600083015261b4618161b425565b9050919050565b7f4552433732313a207472616e7366657220746f206e6f6e20455243373231526560008201527f63656976657220696d706c656d656e7465720000000000000000000000000000602082015250565b600061b4c4603283618753565b915061b4cf8261b468565b604082019050919050565b6000602082019050818103600083015261b4f38161b4b7565b9050919050565b7f4e487b7100000000000000000000000000000000000000000000000000000000600052601260045260246000fd5b600061b534826187fa565b915061b53f836187fa565b92508261b54f5761b54e61b4fa565b5b828204905092915050565b7f4552433732313a20617070726f766520746f2063616c6c657200000000000000600082015250565b600061b590601983618753565b915061b59b8261b55a565b602082019050919050565b6000602082019050818103600083015261b5bf8161b583565b9050919050565b600060808201905061b5db600083018761886f565b61b5e8602083018661886f565b61b5f56040830185618905565b818103606083015261b6078184619904565b905095945050505050565b60008151905061b6218161861f565b92915050565b60006020828403121561b63d5761b63c6185e9565b5b600061b64b8482850161b612565b91505092915050565b61b65d8161a913565b82525050565b600060808201905061b678600083018761b081565b61b685602083018661b654565b61b692604083018561b081565b61b69f606083018461b081565b9594505050505056fe68747470733a2f2f6173736574732e616c6c6f792e73706163652f746f6b656e2d7572692d73312fa26469706673582212206fc9ec8e8ed0e84a54720c83d9d07fa85acda035927edc66ccba87f115020cc364736f6c63430008100033",
  "linkReferences": {},
  "deployedLinkReferences": {}
}