{
  "_format": "hh-sol-artifact-1",
  "contractName": "NiozERC20V2",
  "sourceName": "contracts/NIOZ/NiozERC20V2.sol",
  "abi": [
    {
      "anonymous": false,
      "inputs": [
        {
          "indexed": true,
          "internalType": "address",
          "name": "owner",
          "type": "address"
        },
        {
          "indexed": true,
          "internalType": "address",
          "name": "spender",
          "type": "address"
        },
        {
          "indexed": false,
          "internalType": "uint256",
          "name": "value",
          "type": "uint256"
        }
      ],
      "name": "Approval",
      "type": "event"
    },
    {
      "anonymous": false,
      "inputs": [
        {
          "indexed": false,
          "internalType": "address",
          "name": "User",
          "type": "address"
        },
        {
          "indexed": false,
          "internalType": "uint256",
          "name": "Amount",
          "type": "uint256"
        }
      ],
      "name": "Bought",
      "type": "event"
    },
    {
      "anonymous": false,
      "inputs": [
        {
          "indexed": false,
          "internalType": "address",
          "name": "Address",
          "type": "address"
        },
        {
          "indexed": false,
          "internalType": "uint256",
          "name": "Amount",
          "type": "uint256"
        }
      ],
      "name": "BurnTokens",
      "type": "event"
    },
    {
      "anonymous": false,
      "inputs": [
        {
          "indexed": false,
          "internalType": "address",
          "name": "User",
          "type": "address"
        },
        {
          "indexed": false,
          "internalType": "uint256",
          "name": "Amount",
          "type": "uint256"
        }
      ],
      "name": "Claim",
      "type": "event"
    },
    {
      "anonymous": false,
      "inputs": [
        {
          "indexed": false,
          "internalType": "address",
          "name": "User",
          "type": "address"
        },
        {
          "indexed": false,
          "internalType": "uint256",
          "name": "Amount",
          "type": "uint256"
        }
      ],
      "name": "ExtractionReward",
      "type": "event"
    },
    {
      "anonymous": false,
      "inputs": [
        {
          "indexed": false,
          "internalType": "uint8",
          "name": "version",
          "type": "uint8"
        }
      ],
      "name": "Initialized",
      "type": "event"
    },
    {
      "anonymous": false,
      "inputs": [
        {
          "indexed": false,
          "internalType": "address",
          "name": "Address",
          "type": "address"
        },
        {
          "indexed": false,
          "internalType": "uint256",
          "name": "Amount",
          "type": "uint256"
        },
        {
          "indexed": false,
          "internalType": "uint256",
          "name": "Id",
          "type": "uint256"
        }
      ],
      "name": "MintWeeklyTokens",
      "type": "event"
    },
    {
      "anonymous": false,
      "inputs": [
        {
          "indexed": true,
          "internalType": "address",
          "name": "previousOwner",
          "type": "address"
        },
        {
          "indexed": true,
          "internalType": "address",
          "name": "newOwner",
          "type": "address"
        }
      ],
      "name": "OwnershipTransferred",
      "type": "event"
    },
    {
      "anonymous": false,
      "inputs": [
        {
          "indexed": false,
          "internalType": "address",
          "name": "Owner",
          "type": "address"
        },
        {
          "indexed": false,
          "internalType": "uint256",
          "name": "TokenId",
          "type": "uint256"
        },
        {
          "indexed": false,
          "internalType": "uint256",
          "name": "ArcId",
          "type": "uint256"
        },
        {
          "indexed": false,
          "internalType": "uint256",
          "name": "Amount",
          "type": "uint256"
        }
      ],
      "name": "PrinterRefurbished",
      "type": "event"
    },
    {
      "anonymous": false,
      "inputs": [
        {
          "indexed": false,
          "internalType": "address",
          "name": "User",
          "type": "address"
        },
        {
          "indexed": false,
          "internalType": "uint256",
          "name": "PartId",
          "type": "uint256"
        },
        {
          "indexed": false,
          "internalType": "uint256",
          "name": "Amount",
          "type": "uint256"
        }
      ],
      "name": "Sold",
      "type": "event"
    },
    {
      "anonymous": false,
      "inputs": [
        {
          "indexed": false,
          "internalType": "address",
          "name": "User",
          "type": "address"
        },
        {
          "indexed": false,
          "internalType": "uint256",
          "name": "TokenId",
          "type": "uint256"
        },
        {
          "indexed": false,
          "internalType": "uint256",
          "name": "PrinterId",
          "type": "uint256"
        },
        {
          "indexed": false,
          "internalType": "uint256",
          "name": "Amount",
          "type": "uint256"
        }
      ],
      "name": "Stake",
      "type": "event"
    },
    {
      "anonymous": false,
      "inputs": [
        {
          "indexed": false,
          "internalType": "address",
          "name": "Address",
          "type": "address"
        },
        {
          "indexed": false,
          "internalType": "uint256",
          "name": "Amount",
          "type": "uint256"
        }
      ],
      "name": "StakeInFoundary",
      "type": "event"
    },
    {
      "anonymous": false,
      "inputs": [
        {
          "indexed": true,
          "internalType": "address",
          "name": "from",
          "type": "address"
        },
        {
          "indexed": true,
          "internalType": "address",
          "name": "to",
          "type": "address"
        },
        {
          "indexed": false,
          "internalType": "uint256",
          "name": "value",
          "type": "uint256"
        }
      ],
      "name": "Transfer",
      "type": "event"
    },
    {
      "inputs": [],
      "name": "ARFtokenAddress",
      "outputs": [
        {
          "internalType": "contract IERC721Upgradeable",
          "name": "",
          "type": "address"
        }
      ],
      "stateMutability": "view",
      "type": "function"
    },
    {
      "inputs": [],
      "name": "ConstructTokenAddress",
      "outputs": [
        {
          "internalType": "contract IERC721Upgradeable",
          "name": "",
          "type": "address"
        }
      ],
      "stateMutability": "view",
      "type": "function"
    },
    {
      "inputs": [],
      "name": "ERC721TokenAddress",
      "outputs": [
        {
          "internalType": "contract IERC721Upgradeable",
          "name": "",
          "type": "address"
        }
      ],
      "stateMutability": "view",
      "type": "function"
    },
    {
      "inputs": [],
      "name": "MaxSupply",
      "outputs": [
        {
          "internalType": "uint256",
          "name": "",
          "type": "uint256"
        }
      ],
      "stateMutability": "view",
      "type": "function"
    },
    {
      "inputs": [],
      "name": "MerchantWallet",
      "outputs": [
        {
          "internalType": "address",
          "name": "",
          "type": "address"
        }
      ],
      "stateMutability": "view",
      "type": "function"
    },
    {
      "inputs": [
        {
          "internalType": "uint256",
          "name": "",
          "type": "uint256"
        }
      ],
      "name": "MintData",
      "outputs": [
        {
          "internalType": "uint256",
          "name": "id",
          "type": "uint256"
        },
        {
          "internalType": "address",
          "name": "walletAddress",
          "type": "address"
        },
        {
          "internalType": "uint256",
          "name": "weeklyAmt",
          "type": "uint256"
        },
        {
          "internalType": "uint256",
          "name": "timeDiff",
          "type": "uint256"
        },
        {
          "internalType": "uint256",
          "name": "lastTimestamp",
          "type": "uint256"
        }
      ],
      "stateMutability": "view",
      "type": "function"
    },
    {
      "inputs": [
        {
          "internalType": "address",
          "name": "owner",
          "type": "address"
        },
        {
          "internalType": "address",
          "name": "spender",
          "type": "address"
        }
      ],
      "name": "allowance",
      "outputs": [
        {
          "internalType": "uint256",
          "name": "",
          "type": "uint256"
        }
      ],
      "stateMutability": "view",
      "type": "function"
    },
    {
      "inputs": [
        {
          "internalType": "address",
          "name": "spender",
          "type": "address"
        },
        {
          "internalType": "uint256",
          "name": "amount",
          "type": "uint256"
        }
      ],
      "name": "approve",
      "outputs": [
        {
          "internalType": "bool",
          "name": "",
          "type": "bool"
        }
      ],
      "stateMutability": "nonpayable",
      "type": "function"
    },
    {
      "inputs": [
        {
          "internalType": "address",
          "name": "account",
          "type": "address"
        }
      ],
      "name": "balanceOf",
      "outputs": [
        {
          "internalType": "uint256",
          "name": "",
          "type": "uint256"
        }
      ],
      "stateMutability": "view",
      "type": "function"
    },
    {
      "inputs": [
        {
          "internalType": "address[]",
          "name": "_addresses",
          "type": "address[]"
        },
        {
          "internalType": "bool",
          "name": "_status",
          "type": "bool"
        }
      ],
      "name": "blacklist",
      "outputs": [],
      "stateMutability": "nonpayable",
      "type": "function"
    },
    {
      "inputs": [
        {
          "internalType": "address",
          "name": "",
          "type": "address"
        }
      ],
      "name": "blacklistAddresses",
      "outputs": [
        {
          "internalType": "bool",
          "name": "",
          "type": "bool"
        }
      ],
      "stateMutability": "view",
      "type": "function"
    },
    {
      "inputs": [
        {
          "internalType": "uint256",
          "name": "_amount",
          "type": "uint256"
        }
      ],
      "name": "burnTokens",
      "outputs": [],
      "stateMutability": "nonpayable",
      "type": "function"
    },
    {
      "inputs": [
        {
          "internalType": "address",
          "name": "_address",
          "type": "address"
        },
        {
          "internalType": "uint256",
          "name": "_amount",
          "type": "uint256"
        }
      ],
      "name": "burnTokensAuth",
      "outputs": [],
      "stateMutability": "nonpayable",
      "type": "function"
    },
    {
      "inputs": [
        {
          "components": [
            {
              "internalType": "uint256",
              "name": "amount",
              "type": "uint256"
            },
            {
              "internalType": "bytes32",
              "name": "messageHash",
              "type": "bytes32"
            }
          ],
          "internalType": "struct NiozERC20V2.Reward",
          "name": "_order",
          "type": "tuple"
        },
        {
          "internalType": "bytes",
          "name": "_signature",
          "type": "bytes"
        }
      ],
      "name": "claim",
      "outputs": [],
      "stateMutability": "nonpayable",
      "type": "function"
    },
    {
      "inputs": [],
      "name": "decimals",
      "outputs": [
        {
          "internalType": "uint8",
          "name": "",
          "type": "uint8"
        }
      ],
      "stateMutability": "view",
      "type": "function"
    },
    {
      "inputs": [
        {
          "internalType": "address",
          "name": "spender",
          "type": "address"
        },
        {
          "internalType": "uint256",
          "name": "subtractedValue",
          "type": "uint256"
        }
      ],
      "name": "decreaseAllowance",
      "outputs": [
        {
          "internalType": "bool",
          "name": "",
          "type": "bool"
        }
      ],
      "stateMutability": "nonpayable",
      "type": "function"
    },
    {
      "inputs": [
        {
          "internalType": "address",
          "name": "spender",
          "type": "address"
        },
        {
          "internalType": "uint256",
          "name": "addedValue",
          "type": "uint256"
        }
      ],
      "name": "increaseAllowance",
      "outputs": [
        {
          "internalType": "bool",
          "name": "",
          "type": "bool"
        }
      ],
      "stateMutability": "nonpayable",
      "type": "function"
    },
    {
      "inputs": [],
      "name": "initialize",
      "outputs": [],
      "stateMutability": "nonpayable",
      "type": "function"
    },
    {
      "inputs": [
        {
          "internalType": "uint256",
          "name": "",
          "type": "uint256"
        }
      ],
      "name": "isUnProcessedPartSold",
      "outputs": [
        {
          "internalType": "bool",
          "name": "",
          "type": "bool"
        }
      ],
      "stateMutability": "view",
      "type": "function"
    },
    {
      "inputs": [
        {
          "internalType": "bytes",
          "name": "",
          "type": "bytes"
        }
      ],
      "name": "isVerified",
      "outputs": [
        {
          "internalType": "bool",
          "name": "",
          "type": "bool"
        }
      ],
      "stateMutability": "view",
      "type": "function"
    },
    {
      "inputs": [
        {
          "internalType": "address",
          "name": "_who",
          "type": "address"
        },
        {
          "internalType": "uint256",
          "name": "_amount",
          "type": "uint256"
        }
      ],
      "name": "mint",
      "outputs": [],
      "stateMutability": "nonpayable",
      "type": "function"
    },
    {
      "inputs": [
        {
          "internalType": "uint256",
          "name": "id",
          "type": "uint256"
        }
      ],
      "name": "mintWeeklyTokens",
      "outputs": [],
      "stateMutability": "nonpayable",
      "type": "function"
    },
    {
      "inputs": [],
      "name": "name",
      "outputs": [
        {
          "internalType": "string",
          "name": "",
          "type": "string"
        }
      ],
      "stateMutability": "view",
      "type": "function"
    },
    {
      "inputs": [],
      "name": "owner",
      "outputs": [
        {
          "internalType": "address",
          "name": "",
          "type": "address"
        }
      ],
      "stateMutability": "view",
      "type": "function"
    },
    {
      "inputs": [],
      "name": "pairAddress",
      "outputs": [
        {
          "internalType": "contract IERC20Upgradeable",
          "name": "",
          "type": "address"
        }
      ],
      "stateMutability": "view",
      "type": "function"
    },
    {
      "inputs": [
        {
          "internalType": "bytes32",
          "name": "ethSignedMessageHash",
          "type": "bytes32"
        },
        {
          "internalType": "bytes",
          "name": "signature",
          "type": "bytes"
        }
      ],
      "name": "recoverSigner",
      "outputs": [
        {
          "internalType": "address",
          "name": "",
          "type": "address"
        }
      ],
      "stateMutability": "pure",
      "type": "function"
    },
    {
      "inputs": [
        {
          "components": [
            {
              "internalType": "uint256",
              "name": "id",
              "type": "uint256"
            },
            {
              "internalType": "uint256",
              "name": "tokenId",
              "type": "uint256"
            },
            {
              "internalType": "uint256",
              "name": "amount",
              "type": "uint256"
            },
            {
              "internalType": "bytes32",
              "name": "messageHash",
              "type": "bytes32"
            }
          ],
          "internalType": "struct NiozERC20V2.SellOrder",
          "name": "_order",
          "type": "tuple"
        },
        {
          "internalType": "bytes",
          "name": "_signature",
          "type": "bytes"
        }
      ],
      "name": "refurbished",
      "outputs": [],
      "stateMutability": "nonpayable",
      "type": "function"
    },
    {
      "inputs": [],
      "name": "renounceOwnership",
      "outputs": [],
      "stateMutability": "nonpayable",
      "type": "function"
    },
    {
      "inputs": [
        {
          "internalType": "address",
          "name": "_from",
          "type": "address"
        },
        {
          "internalType": "address",
          "name": "_to",
          "type": "address"
        },
        {
          "internalType": "uint256",
          "name": "_amount",
          "type": "uint256"
        }
      ],
      "name": "safeTransfer",
      "outputs": [],
      "stateMutability": "nonpayable",
      "type": "function"
    },
    {
      "inputs": [
        {
          "components": [
            {
              "internalType": "uint256",
              "name": "amount",
              "type": "uint256"
            },
            {
              "internalType": "uint256",
              "name": "partId",
              "type": "uint256"
            },
            {
              "internalType": "bytes32",
              "name": "messageHash",
              "type": "bytes32"
            }
          ],
          "internalType": "struct NiozERC20V2.Order",
          "name": "_order",
          "type": "tuple"
        },
        {
          "internalType": "bytes",
          "name": "_signature",
          "type": "bytes"
        }
      ],
      "name": "sellUnprocessedPart",
      "outputs": [],
      "stateMutability": "nonpayable",
      "type": "function"
    },
    {
      "inputs": [
        {
          "internalType": "uint256",
          "name": "_tokenId",
          "type": "uint256"
        },
        {
          "internalType": "uint256",
          "name": "_printerId",
          "type": "uint256"
        },
        {
          "internalType": "uint256",
          "name": "_amount",
          "type": "uint256"
        }
      ],
      "name": "stake",
      "outputs": [],
      "stateMutability": "nonpayable",
      "type": "function"
    },
    {
      "inputs": [
        {
          "internalType": "uint256",
          "name": "_amount",
          "type": "uint256"
        }
      ],
      "name": "stakeInFoundary",
      "outputs": [],
      "stateMutability": "nonpayable",
      "type": "function"
    },
    {
      "inputs": [],
      "name": "symbol",
      "outputs": [
        {
          "internalType": "string",
          "name": "",
          "type": "string"
        }
      ],
      "stateMutability": "view",
      "type": "function"
    },
    {
      "inputs": [],
      "name": "tokenPrice",
      "outputs": [
        {
          "internalType": "uint256",
          "name": "",
          "type": "uint256"
        }
      ],
      "stateMutability": "view",
      "type": "function"
    },
    {
      "inputs": [],
      "name": "totalSupply",
      "outputs": [
        {
          "internalType": "uint256",
          "name": "",
          "type": "uint256"
        }
      ],
      "stateMutability": "view",
      "type": "function"
    },
    {
      "inputs": [
        {
          "internalType": "address",
          "name": "to",
          "type": "address"
        },
        {
          "internalType": "uint256",
          "name": "amount",
          "type": "uint256"
        }
      ],
      "name": "transfer",
      "outputs": [
        {
          "internalType": "bool",
          "name": "",
          "type": "bool"
        }
      ],
      "stateMutability": "nonpayable",
      "type": "function"
    },
    {
      "inputs": [
        {
          "internalType": "address",
          "name": "from",
          "type": "address"
        },
        {
          "internalType": "address",
          "name": "to",
          "type": "address"
        },
        {
          "internalType": "uint256",
          "name": "amount",
          "type": "uint256"
        }
      ],
      "name": "transferFrom",
      "outputs": [
        {
          "internalType": "bool",
          "name": "",
          "type": "bool"
        }
      ],
      "stateMutability": "nonpayable",
      "type": "function"
    },
    {
      "inputs": [
        {
          "internalType": "address",
          "name": "newOwner",
          "type": "address"
        }
      ],
      "name": "transferOwnership",
      "outputs": [],
      "stateMutability": "nonpayable",
      "type": "function"
    },
    {
      "inputs": [
        {
          "internalType": "address",
          "name": "_address",
          "type": "address"
        },
        {
          "internalType": "address",
          "name": "_pair_address",
          "type": "address"
        },
        {
          "internalType": "address",
          "name": "_erc721_address",
          "type": "address"
        },
        {
          "internalType": "address",
          "name": "_Arf_address",
          "type": "address"
        },
        {
          "internalType": "address",
          "name": "_construct_address",
          "type": "address"
        }
      ],
      "name": "updateAddresses",
      "outputs": [],
      "stateMutability": "nonpayable",
      "type": "function"
    },
    {
      "inputs": [
        {
          "internalType": "uint256[]",
          "name": "_ids",
          "type": "uint256[]"
        },
        {
          "internalType": "address[]",
          "name": "_address",
          "type": "address[]"
        },
        {
          "internalType": "uint256[]",
          "name": "_weekly_amts",
          "type": "uint256[]"
        },
        {
          "internalType": "uint256[]",
          "name": "_time_diff",
          "type": "uint256[]"
        }
      ],
      "name": "updateMintData",
      "outputs": [],
      "stateMutability": "nonpayable",
      "type": "function"
    },
    {
      "inputs": [
        {
          "internalType": "address[]",
          "name": "_address",
          "type": "address[]"
        }
      ],
      "name": "updatePlatformWallets",
      "outputs": [],
      "stateMutability": "nonpayable",
      "type": "function"
    },
    {
      "inputs": [
        {
          "internalType": "address",
          "name": "_user",
          "type": "address"
        }
      ],
      "name": "viewSharePercent",
      "outputs": [
        {
          "internalType": "address",
          "name": "User",
          "type": "address"
        },
        {
          "internalType": "uint256",
          "name": "TotalSupply",
          "type": "uint256"
        },
        {
          "internalType": "uint256",
          "name": "UserTokenBalance",
          "type": "uint256"
        },
        {
          "internalType": "uint256",
          "name": "SharePercentage",
          "type": "uint256"
        }
      ],
      "stateMutability": "view",
      "type": "function"
    }
  ],
  "bytecode": "0x608060405234801561001057600080fd5b5061791680620000216000396000f3fe608060405234801561001057600080fd5b506004361061025e5760003560e01c8063790d1d4511610146578063a638f2e2116100c3578063c997eb8d11610087578063c997eb8d1461072a578063d1660f9914610746578063dd62ed3e14610762578063f15b40ef14610792578063f2fde38b146107ae578063f76b09e9146107ca5761025e565b8063a638f2e214610672578063a8b089821461068e578063a9059cbb146106ac578063b36c1284146106dc578063c9941806146106fa5761025e565b80638e77fe2f1161010a5780638e77fe2f146105915780639382226c146105c157806395d89b41146105f457806397aba7f914610612578063a457c2d7146106425761025e565b8063790d1d45146105115780637dd12d151461052d5780637ff9b5961461054b5780638129fc1c146105695780638da5cb5b146105735761025e565b806335643681116101df57806340c10f19116101a357806340c10f191461046757806358ed8061146104835780636d1b229d1461049f57806370a08231146104bb578063715018a6146104eb57806376d40744146104f55761025e565b806335643681146103c557806336b15e9c146103e357806339509351146103ff5780633d5afa161461042f5780633e0bb0ae1461044b5761025e565b80631a74af29116102265780631a74af29146103095780631d3a78be1461032557806323b872dd146103435780632e84ee7414610373578063313ce567146103a75761025e565b806304a4362e1461026357806306fdde0314610281578063095ea7b31461029f5780630c3a1e40146102cf57806318160ddd146102eb575b600080fd5b61026b6107fa565b6040516102789190615a73565b60405180910390f35b610289610820565b6040516102969190615b1e565b60405180910390f35b6102b960048036038101906102b49190615bc8565b6108ee565b6040516102c69190615c23565b60405180910390f35b6102e960048036038101906102e49190615c3e565b61099e565b005b6102f3610c0b565b6040516103009190615c7a565b60405180910390f35b610323600480360381019061031e9190615d50565b610c51565b005b61032d610e8d565b60405161033a9190615a73565b60405180910390f35b61035d60048036038101906103589190615e39565b610eb3565b60405161036a9190615c23565b60405180910390f35b61038d60048036038101906103889190615c3e565b610f97565b60405161039e959493929190615e9b565b60405180910390f35b6103af610fed565b6040516103bc9190615f0a565b60405180910390f35b6103cd611032565b6040516103da9190615a73565b60405180910390f35b6103fd60048036038101906103f89190615f25565b611058565b005b61041960048036038101906104149190615bc8565b6111be565b6040516104269190615c23565b60405180910390f35b610449600480360381019061044491906160c6565b611282565b005b61046560048036038101906104609190615bc8565b61163b565b005b610481600480360381019061047c9190615bc8565b6117b1565b005b61049d60048036038101906104989190615c3e565b6119bb565b005b6104b960048036038101906104b49190615c3e565b611a65565b005b6104d560048036038101906104d09190616122565b611baa565b6040516104e29190615c7a565b60405180910390f35b6104f3611c2f565b005b61050f600480360381019061050a91906161ee565b611c43565b005b61052b6004803603810190610526919061624a565b612109565b005b6105356122fd565b60405161054291906162c5565b60405180910390f35b610553612323565b6040516105609190615c7a565b60405180910390f35b610571612329565b005b61057b612aa3565b60405161058891906162c5565b60405180910390f35b6105ab60048036038101906105a69190616122565b612acd565b6040516105b89190615c23565b60405180910390f35b6105db60048036038101906105d69190616122565b612aed565b6040516105eb94939291906162e0565b60405180910390f35b6105fc612e2b565b6040516106099190615b1e565b60405180910390f35b61062c60048036038101906106279190616325565b612ef9565b60405161063991906162c5565b60405180910390f35b61065c60048036038101906106579190615bc8565b6133fe565b6040516106699190615c23565b60405180910390f35b61068c60048036038101906106879190616381565b61358e565b005b610696613797565b6040516106a391906163f5565b60405180910390f35b6106c660048036038101906106c19190615bc8565b6137bd565b6040516106d39190615c23565b60405180910390f35b6106e461386d565b6040516106f19190615c7a565b60405180910390f35b610714600480360381019061070f9190616410565b613873565b6040516107219190615c23565b60405180910390f35b610744600480360381019061073f9190616485565b6138a9565b005b610760600480360381019061075b9190615e39565b613ab2565b005b61077c600480360381019061077791906164e5565b613cf1565b6040516107899190615c7a565b60405180910390f35b6107ac60048036038101906107a7919061659d565b613db4565b005b6107c860048036038101906107c39190616122565b61423f565b005b6107e460048036038101906107df9190615c3e565b6142c2565b6040516107f19190615c23565b60405180910390f35b60a060009054906101000a900473ffffffffffffffffffffffffffffffffffffffff1681565b606061083667f552a8c32271017560c01b6142e2565b61084a67048dfca8d666a31360c01b6142e2565b61085e67d227f20ff73c7fc860c01b6142e2565b6036805461086b90616628565b80601f016020809104026020016040519081016040528092919081815260200182805461089790616628565b80156108e45780601f106108b9576101008083540402835291602001916108e4565b820191906000526020600020905b8154815290600101906020018083116108c757829003601f168201915b5050505050905090565b60006109046704b5e613afe656b660c01b6142e2565b610918676e26b852637b4f2e60c01b6142e2565b61092c67c6d001af3927838660c01b6142e2565b60006109366142e5565b905061094c67d63183bd5256866d60c01b6142e2565b61096067eb72a745dc8dc8ce60c01b6142e2565b61096b8185856142ed565b61097f677c85e3c9da63418360c01b6142e2565b610993674d2512ddc0a5ee0c60c01b6142e2565b600191505092915050565b6109b267bda359ef03e2c9be60c01b6145a6565b6109ba6145a9565b6109ce6726f01ae8415f4e2760c01b6145a6565b6109e2678506238e2e13673360c01b6145a6565b6109f667f657e421fab0926360c01b6145a6565b610a0a67e777262f4a988d1560c01b6145a6565b610a1e67f8d9fc62f194705660c01b6145a6565b42609f600083815260200190815260200160002060030154609f600084815260200190815260200160002060040154610a579190616688565b1115610a98576040517f08c379a0000000000000000000000000000000000000000000000000000000008152600401610a8f90616708565b60405180910390fd5b610aac672fa3c9b6c274786360c01b6145a6565b610ac0675429e7f64a872d7160c01b6145a6565b610ad4675e1359f7aa3e220860c01b6145a6565b610b2a609f600083815260200190815260200160002060010160009054906101000a900473ffffffffffffffffffffffffffffffffffffffff16609f600084815260200190815260200160002060020154614627565b610b3e67f58183184adc9c7460c01b6145a6565b42609f600083815260200190815260200160002060040181905550610b6d6760846fe93255c58c60c01b6145a6565b610b81673c8824b6346844f760c01b6145a6565b7f7f5b1ce5933fb0434392b9ded7d1628124e2c43eda45d46ad675cde2d6b6b226609f600083815260200190815260200160002060010160009054906101000a900473ffffffffffffffffffffffffffffffffffffffff16609f60008481526020019081526020016000206002015483604051610c0093929190616728565b60405180910390a150565b6000610c2167fb3d51ee3210080c60c01b6142e2565b610c356731809c2ec202aee360c01b6142e2565b610c4967b1056caac5701b4e60c01b6142e2565b603554905090565b610c6567b4ba46157179402c60c01b6145a6565b610c6d6145a9565b610c8167c7d70b57fa44822760c01b6145a6565b610c9567703c2c96273410b560c01b6145a6565b610ca967fb1d92116d07e6ef60c01b6145a6565b610cbd6729e929ae318a300960c01b6145a6565b60005b88889050811015610e8257610cdf67b7caeede3ea3a25360c01b6145a6565b610cf2661e8ae306c7266460c01b6145a6565b60006040518060a001604052808b8b85818110610d1257610d1161675f565b5b905060200201358152602001898985818110610d3157610d3061675f565b5b9050602002016020810190610d469190616122565b73ffffffffffffffffffffffffffffffffffffffff168152602001878785818110610d7457610d7361675f565b5b905060200201358152602001858585818110610d9357610d9261675f565b5b905060200201358152602001609f6000858152602001908152602001600020600401548152509050610dcf679c3b058669ee658960c01b6145a6565b80609f60008c8c86818110610de757610de661675f565b5b9050602002013581526020019081526020016000206000820151816000015560208201518160010160006101000a81548173ffffffffffffffffffffffffffffffffffffffff021916908373ffffffffffffffffffffffffffffffffffffffff160217905550604082015181600201556060820151816003015560808201518160040155905050508080610e7a9061678e565b915050610cc0565b505050505050505050565b609b60009054906101000a900473ffffffffffffffffffffffffffffffffffffffff1681565b6000610ec967aa8b4ceef303403c60c01b6142e2565b610edd674f72b00035e4c23660c01b6142e2565b610ef167596e850968ff484160c01b6142e2565b6000610efb6142e5565b9050610f1167f604a98374250b6c60c01b6142e2565b610f2567b15dc635d19c2b1e60c01b6142e2565b610f3085828561488b565b610f4467c40550a8cd4c4c0c60c01b6142e2565b610f5867079b66a8ae9f911860c01b6142e2565b610f63858585614a34565b610f77670775d1e7642967d960c01b6142e2565b610f8b672747e83febf57d9f60c01b6142e2565b60019150509392505050565b609f6020528060005260406000206000915090508060000154908060010160009054906101000a900473ffffffffffffffffffffffffffffffffffffffff16908060020154908060030154908060040154905085565b600061100367fd4c4dfd102ddd0760c01b6142e2565b6110176735f35634068e7a8060c01b6142e2565b61102b6704cfb95bb1096fb460c01b6142e2565b6012905090565b60a260009054906101000a900473ffffffffffffffffffffffffffffffffffffffff1681565b61106c674a8eb46497eb671f60c01b6145a6565b6110746145a9565b6110886721563f5fb541dd5b60c01b6145a6565b61109c678d431b831c2faaf360c01b6145a6565b6110b06739d70855d560dc7d60c01b6145a6565b609e60006110be91906159b6565b6110d26788f756ee2bb8038660c01b6145a6565b6110e667c4f02d41827760b660c01b6145a6565b60005b828290508110156111b95761110867e17e467fbfded94b60c01b6145a6565b61111c67ed55c83de975db4260c01b6145a6565b609e8383838181106111315761113061675f565b5b90506020020160208101906111469190616122565b9080600181540180825580915050600190039060005260206000200160009091909190916101000a81548173ffffffffffffffffffffffffffffffffffffffff021916908373ffffffffffffffffffffffffffffffffffffffff16021790555080806111b19061678e565b9150506110e9565b505050565b60006111d46783a9197de04cb54960c01b6142e2565b6111e867a2545b1098d8abe060c01b6142e2565b6111fc6715eb0959fa02365f60c01b6142e2565b60006112066142e5565b905061121c67bf1fca71c165472560c01b6142e2565b61123067dc616f2f3d90e97e60c01b6142e2565b61124f8185856112408589613cf1565b61124a9190616688565b6142ed565b61126367cf0c2b3d0df530ef60c01b6142e2565b61127767e7c79e7b275ff3a060c01b6142e2565b600191505092915050565b61129667756e6e0855115c9c60c01b6145a6565b6112aa6765eead1ce2fbf7e760c01b6145a6565b6112be672748e94569f8b78060c01b6145a6565b6112d26776b0047296609a0360c01b6145a6565b6112e86112dd612aa3565b836020013583614e96565b801561131d5750609c816040516112ff919061681d565b908152602001604051809103902060009054906101000a900460ff16155b80156113c25750609b60009054906101000a900473ffffffffffffffffffffffffffffffffffffffff1673ffffffffffffffffffffffffffffffffffffffff1663c9941806826040518263ffffffff1660e01b815260040161137f919061687e565b602060405180830381865afa15801561139c573d6000803e3d6000fd5b505050506040513d601f19601f820116820180604052508101906113c091906168b5565b155b8015611467575060a060009054906101000a900473ffffffffffffffffffffffffffffffffffffffff1673ffffffffffffffffffffffffffffffffffffffff1663c9941806826040518263ffffffff1660e01b8152600401611424919061687e565b602060405180830381865afa158015611441573d6000803e3d6000fd5b505050506040513d601f19601f8201168201806040525081019061146591906168b5565b155b6114a6576040517f08c379a000000000000000000000000000000000000000000000000000000000815260040161149d9061692e565b60405180910390fd5b6114ba6714f4762769ff439460c01b6145a6565b6114ce676ef7124e0555782360c01b6145a6565b6114e267367942ea9f54d0ee60c01b6145a6565b6114f667c5877d2510e8c96360c01b6145a6565b600082600001351161153d576040517f08c379a00000000000000000000000000000000000000000000000000000000081526004016115349061699a565b60405180910390fd5b611551675f5a8d0d4a56cd6960c01b6145a6565b61156567b016bd9f7ec30a1660c01b6145a6565b61157967077cf4c8cadf14b160c01b6145a6565b611587338360000135614627565b61159b670a0b2f236611e2b360c01b6145a6565b6001609c826040516115ad919061681d565b908152602001604051809103902060006101000a81548160ff0219169083151502179055506115e667d9e0a5e31215753460c01b6145a6565b6115fa6740c4ca646786baad60c01b6145a6565b7f47cee97cb7acd717b3c0aa1435d004cd5b3c8c57d70dbceb4e4458bbd60e39d433836000013560405161162f9291906169ba565b60405180910390a15050565b61164f6756c8fcf0475ed77860c01b6145a6565b6116576145a9565b61166b67402c669b19bc980960c01b6145a6565b61167f671123880beadb3d8a60c01b6145a6565b611693674e9f63f2d01726e760c01b6145a6565b6116a767f5aaa715f5fa6ba860c01b6145a6565b6116bb67dac16d4040c0318d60c01b6145a6565b806116c583611baa565b1015611706576040517f08c379a00000000000000000000000000000000000000000000000000000000081526004016116fd90616a55565b60405180910390fd5b61171a6707ebc9cedb346edd60c01b6145a6565b61172e672a31f00240a5f6df60c01b6145a6565b6117426799303416ba9feb9b60c01b6145a6565b61174c828261505c565b611760671262ab0f2db476da60c01b6145a6565b61177467b059baedb4cc125660c01b6145a6565b7f388d6102a0230861b4e9646fb5acda1c5ec15d39df2b619d39c25d16a126849082826040516117a59291906169ba565b60405180910390a15050565b6117c567f5248b2ce572723860c01b6145a6565b6117d967a0f066806c6c0bb660c01b6145a6565b6117ed671d414c0a9e9f0d4d60c01b6145a6565b61180167b5b423120e08c8ed60c01b6145a6565b611815676bfc075ff09ea1c960c01b6145a6565b609b60009054906101000a900473ffffffffffffffffffffffffffffffffffffffff1673ffffffffffffffffffffffffffffffffffffffff163373ffffffffffffffffffffffffffffffffffffffff161480156118825750611881670aa34b9dc2c3b8b960c01b6153c4565b5b806118f6575060a260009054906101000a900473ffffffffffffffffffffffffffffffffffffffff1673ffffffffffffffffffffffffffffffffffffffff163373ffffffffffffffffffffffffffffffffffffffff161480156118f557506118f467cd5a22034dbf93b960c01b6153c4565b5b5b611935576040517f08c379a000000000000000000000000000000000000000000000000000000000815260040161192c9061692e565b60405180910390fd5b61194967a4813fd187769fc760c01b6145a6565b61195d6724d99a14c9f8dc1460c01b6145a6565b611971679c230cc11a46615260c01b6145a6565b61198567e83308d83e18f80160c01b6145a6565b61199967b6ec25a6ae6939df60c01b6145a6565b6119ad6796b5754a29edc69c60c01b6145a6565b6119b78282614627565b5050565b6119cf679edad5129aa82c4d60c01b6145a6565b6119e367f3883aadaaa0492260c01b6145a6565b6119f767f939bee64c07317360c01b6145a6565b611a01338261505c565b611a1567ac68d85b9cc85b6460c01b6145a6565b611a29671e1759f8a356722f60c01b6145a6565b7f0a51dd6b87f28d93a5c4bf39be76f7d455a5a2544df19bd5c9ef0559bff4aaed3382604051611a5a9291906169ba565b60405180910390a150565b611a7967c1d42f52fd90a39e60c01b6145a6565b611a8d676b6d5f7b444f3b3660c01b6145a6565b611aa167889e098a8ac456fc60c01b6145a6565b611ab567fa43abd1c67fa89d60c01b6145a6565b80611abf33611baa565b1015611b00576040517f08c379a0000000000000000000000000000000000000000000000000000000008152600401611af790616a55565b60405180910390fd5b611b1467439fd20c4dca462660c01b6145a6565b611b286774181d88b407319b60c01b6145a6565b611b3c6761e5348dde6caa6360c01b6145a6565b611b46338261505c565b611b5a67c811e24fbb0fc53360c01b6145a6565b611b6e6789bf4ba37b2eebb260c01b6145a6565b7f388d6102a0230861b4e9646fb5acda1c5ec15d39df2b619d39c25d16a12684903382604051611b9f9291906169ba565b60405180910390a150565b6000611bc067cf6cfd6f3c7af27460c01b6142e2565b611bd46791415c8f5f91bc2560c01b6142e2565b611be86776ee22d0bae7532060c01b6142e2565b603360008373ffffffffffffffffffffffffffffffffffffffff1673ffffffffffffffffffffffffffffffffffffffff168152602001908152602001600020549050919050565b611c376145a9565b611c4160006153cf565b565b611c576712e3d13b41c408b160c01b6145a6565b611c6b671dc69664c5e3bae060c01b6145a6565b611c7f67f90bf43b12b9cf5560c01b6145a6565b611c9367fad8fa4997c03f7960c01b6145a6565b611ca9611c9e612aa3565b836040015183614e96565b8015611cde5750609c81604051611cc0919061681d565b908152602001604051809103902060009054906101000a900460ff16155b8015611d835750609b60009054906101000a900473ffffffffffffffffffffffffffffffffffffffff1673ffffffffffffffffffffffffffffffffffffffff1663c9941806826040518263ffffffff1660e01b8152600401611d40919061687e565b602060405180830381865afa158015611d5d573d6000803e3d6000fd5b505050506040513d601f19601f82011682018060405250810190611d8191906168b5565b155b8015611e28575060a060009054906101000a900473ffffffffffffffffffffffffffffffffffffffff1673ffffffffffffffffffffffffffffffffffffffff1663c9941806826040518263ffffffff1660e01b8152600401611de5919061687e565b602060405180830381865afa158015611e02573d6000803e3d6000fd5b505050506040513d601f19601f82011682018060405250810190611e2691906168b5565b155b8015611ecd575060a260009054906101000a900473ffffffffffffffffffffffffffffffffffffffff1673ffffffffffffffffffffffffffffffffffffffff1663c9941806826040518263ffffffff1660e01b8152600401611e8a919061687e565b602060405180830381865afa158015611ea7573d6000803e3d6000fd5b505050506040513d601f19601f82011682018060405250810190611ecb91906168b5565b155b611f0c576040517f08c379a0000000000000000000000000000000000000000000000000000000008152600401611f039061692e565b60405180910390fd5b611f20673dd7dd9a31cba50660c01b6145a6565b611f34671219322b9eec205060c01b6145a6565b611f486716d1ab136055d2f360c01b6145a6565b611f5c67bbfb72fb597903f260c01b6145a6565b60a160008360200151815260200190815260200160002060009054906101000a900460ff1615611fc1576040517f08c379a0000000000000000000000000000000000000000000000000000000008152600401611fb890616ac1565b60405180910390fd5b611fd567bc2e49954d413fa860c01b6145a6565b611fe967256ab73a54e9cabd60c01b6145a6565b611ffd6791f5b7833404a31f60c01b6145a6565b61200b338360000151614627565b61201f6743ae92ac6b67749060c01b6145a6565b6001609c82604051612031919061681d565b908152602001604051809103902060006101000a81548160ff02191690831515021790555061206a67d5cb2c2caa176e9a60c01b6145a6565b600160a160008460200151815260200190815260200160002060006101000a81548160ff0219169083151502179055506120ae67496f7a76a07104a960c01b6145a6565b6120c267c3119be041d5d67060c01b6145a6565b7fbac9694ac0daa55169abd117086fe32c89401d9a3b15dd1d34e55e0aa4e47a9d33836020015184600001516040516120fd93929190616728565b60405180910390a15050565b61211d67ae190854c9029bf460c01b6145a6565b6121256145a9565b61213967a5c3dd7c2651fe5860c01b6145a6565b61214d67112acd614854332860c01b6145a6565b6121616731c6acb584ef70b960c01b6145a6565b84609a60006101000a81548173ffffffffffffffffffffffffffffffffffffffff021916908373ffffffffffffffffffffffffffffffffffffffff1602179055506121b667280527145ee28db060c01b6145a6565b8160a060006101000a81548173ffffffffffffffffffffffffffffffffffffffff021916908373ffffffffffffffffffffffffffffffffffffffff16021790555061220b6781e8a808037fa2ec60c01b6145a6565b83609d60006101000a81548173ffffffffffffffffffffffffffffffffffffffff021916908373ffffffffffffffffffffffffffffffffffffffff16021790555061226067905b88dee53e227660c01b6145a6565b82609b60006101000a81548173ffffffffffffffffffffffffffffffffffffffff021916908373ffffffffffffffffffffffffffffffffffffffff1602179055506122b5677652f74882a3755760c01b6145a6565b8060a260006101000a81548173ffffffffffffffffffffffffffffffffffffffff021916908373ffffffffffffffffffffffffffffffffffffffff1602179055505050505050565b609a60009054906101000a900473ffffffffffffffffffffffffffffffffffffffff1681565b60995481565b61233d674d65d60266fd008460c01b6145a6565b60008060019054906101000a900460ff1615905080801561236e5750600160008054906101000a900460ff1660ff16105b8061239b575061237d30615495565b15801561239a5750600160008054906101000a900460ff1660ff16145b5b6123da576040517f08c379a00000000000000000000000000000000000000000000000000000000081526004016123d190616b53565b60405180910390fd5b60016000806101000a81548160ff021916908360ff1602179055508015612417576001600060016101000a81548160ff0219169083151502179055505b61242b6798a9f390d1a507f760c01b6145a6565b61243f67cf23264abcb686c060c01b6145a6565b612453673bf7385ff75b23eb60c01b6145a6565b6124676715c32c9b7de1e39860c01b6145a6565b6124db6040518060400160405280600481526020017f4e696f7a000000000000000000000000000000000000000000000000000000008152506040518060400160405280600481526020017f4e494f5a000000000000000000000000000000000000000000000000000000008152506154b8565b6124ef6762c662898cf1337860c01b6145a6565b6125036734f232aa0d76b32e60c01b6145a6565b61250b615579565b61251f6743ffa3be3944da5c60c01b6145a6565b734f68437579a7077010290e6b713076495fee37e6609a60006101000a81548173ffffffffffffffffffffffffffffffffffffffff021916908373ffffffffffffffffffffffffffffffffffffffff16021790555061258867a0701e06883b1e7160c01b6145a6565b61259c67e5b5aa1ac3983bae60c01b6145a6565b6125b0336991b08e0303c64e000000614627565b6125c4673bd8adba5fba9a4160c01b6145a6565b6125d86795bb3fbe34100f7b60c01b6145a6565b60006040518060800160405280600160ff168152602001600260ff168152602001600360ff168152602001600460ff16815250905061262167f46ab4e959fe491d60c01b6145a6565b61263567c9f0fa8a2bc5dc6f60c01b6145a6565b60006040518060800160405280690a2e0ae4ae547984000069ffffffffffffffffffff1681526020016920940224a0f53a18000069ffffffffffffffffffff1681526020016928bddcbda9018e14000069ffffffffffffffffffff16815260200169145c76ee5b9286c4000069ffffffffffffffffffff1681525090506126c667b5101a98d1d130b560c01b6145a6565b6126da676aa4f5ddcc38935d60c01b6145a6565b6000604051806080016040528062093a8062ffffff16815260200162093a8062ffffff16815260200162093a8062ffffff16815260200162093a8062ffffff168152509050612733672a17fe9ecbcb807a60c01b6145a6565b612747673c0d646c600bb1e460c01b6145a6565b6000604051806080016040528073a18d7c869598d79bc4b9404ccb37d3b88cb9fead73ffffffffffffffffffffffffffffffffffffffff1673ffffffffffffffffffffffffffffffffffffffff1681526020017341d3b7837d84f9992632fe98bfff05ef68c7efc273ffffffffffffffffffffffffffffffffffffffff1673ffffffffffffffffffffffffffffffffffffffff16815260200173bef9bf48c8b3b3c62bab79e3dc7726bf8b1a7bbe73ffffffffffffffffffffffffffffffffffffffff1673ffffffffffffffffffffffffffffffffffffffff1681526020017310de5afcf09f5a150adffd7623bcd0ddef75836073ffffffffffffffffffffffffffffffffffffffff1673ffffffffffffffffffffffffffffffffffffffff16815250905061288067bcf6255c9e6bd69d60c01b6145a6565b61289467bfdd8d06fb9457b960c01b6145a6565b60005b6004811015612a42576128b467bd8fbdc46b340ceb60c01b6145a6565b6128c867b66ec164d7b512c360c01b6145a6565b60006040518060a001604052808784600481106128e8576128e761675f565b5b602002015160ff1681526020018484600481106129085761290761675f565b5b602002015173ffffffffffffffffffffffffffffffffffffffff16815260200186846004811061293b5761293a61675f565b5b602002015169ffffffffffffffffffff1681526020018584600481106129645761296361675f565b5b602002015162ffffff1681526020016000815250905061298e67c5a70c75711d1cd860c01b6145a6565b80609f60008885600481106129a6576129a561675f565b5b602002015160ff1681526020019081526020016000206000820151816000015560208201518160010160006101000a81548173ffffffffffffffffffffffffffffffffffffffff021916908373ffffffffffffffffffffffffffffffffffffffff160217905550604082015181600201556060820151816003015560808201518160040155905050508080612a3a9061678e565b915050612897565b50505050508015612aa05760008060016101000a81548160ff0219169083151502179055507f7f26b83ff96e1f2b6a682f133852f6798a09c465da95921460cefb38474024986001604051612a979190616bae565b60405180910390a15b50565b6000606660009054906101000a900473ffffffffffffffffffffffffffffffffffffffff16905090565b60386020528060005260406000206000915054906101000a900460ff1681565b600080600080612b0767f9dbe6af42133f3c60c01b6145a6565b612b1b67d18d0f12f84ddf2d60c01b6145a6565b612b2f6798dda8666c69753a60c01b6145a6565b6000612b45674bdf2108048afe2360c01b6145a6565b612b5967137cfe15870845ff60c01b6145a6565b60005b609e80549050811015612c7757612b7d678aaade53230620de60c01b6145a6565b609d60009054906101000a900473ffffffffffffffffffffffffffffffffffffffff1673ffffffffffffffffffffffffffffffffffffffff166370a08231609e8381548110612bcf57612bce61675f565b5b9060005260206000200160009054906101000a900473ffffffffffffffffffffffffffffffffffffffff166040518263ffffffff1660e01b8152600401612c1691906162c5565b602060405180830381865afa158015612c33573d6000803e3d6000fd5b505050506040513d601f19601f82011682018060405250810190612c579190616bde565b82612c629190616688565b91508080612c6f9061678e565b915050612b5c565b50612c8c67cd91864c3eab683760c01b6145a6565b859450612ca3672b4eebe5a762376960c01b6145a6565b80609d60009054906101000a900473ffffffffffffffffffffffffffffffffffffffff1673ffffffffffffffffffffffffffffffffffffffff166318160ddd6040518163ffffffff1660e01b8152600401602060405180830381865afa158015612d11573d6000803e3d6000fd5b505050506040513d601f19601f82011682018060405250810190612d359190616bde565b612d3f9190616c0b565b9350612d5567d183c7ae65d3f7c960c01b6145a6565b609d60009054906101000a900473ffffffffffffffffffffffffffffffffffffffff1673ffffffffffffffffffffffffffffffffffffffff166370a08231876040518263ffffffff1660e01b8152600401612db091906162c5565b602060405180830381865afa158015612dcd573d6000803e3d6000fd5b505050506040513d601f19601f82011682018060405250810190612df19190616bde565b9250612e0767be9a0dece3f4ed8d60c01b6145a6565b83620186a084612e179190616c3f565b612e219190616cc8565b9150509193509193565b6060612e41673dc54305972e17ea60c01b6142e2565b612e5567fb9d13dc6e588a5860c01b6142e2565b612e69673be019c921453ff660c01b6142e2565b60378054612e7690616628565b80601f0160208091040260200160405190810160405280929190818152602001828054612ea290616628565b8015612eef5780601f10612ec457610100808354040283529160200191612eef565b820191906000526020600020905b815481529060010190602001808311612ed257829003601f168201915b5050505050905090565b6000612f0f671c4e032218fdad6860c01b6145a6565b612f2367da55c44742b2d13c60c01b6145a6565b612f376758d8c2d1f12aafa060c01b6145a6565b6000612f4d67815954cacebf266260c01b6145a6565b612f616794baeb33f2d1b58960c01b6145a6565b6000612f77672193a5124019e65060c01b6145a6565b612f8b67dbf79fc057b44c0d60c01b6145a6565b6000612fa167ef420600adeb114760c01b6145a6565b612fb567d15d4b38d1176f9c60c01b6145a6565b604185510361315d57612fd267be0da4dc91947cd760c01b6145a6565b612fe6674801c7c5d8c5608a60c01b6145a6565b6020850151925060408501519150606085015160001a905061301267af074c3ac27ae02d60c01b6145a6565b613026671cfff8bcefb9c55160c01b6145a6565b60008160ff16036130625761304567b321521a336ac2d260c01b6145a6565b61305967c6a43e3967e0d4e460c01b6145a6565b601b90506130dc565b61307667282f11f8cfaa5e4060c01b6145a6565b61308a671f41d1a07cba237860c01b6145a6565b60018160ff16036130c6576130a9675dc806461613f2f560c01b6145a6565b6130bd67db0eeed77d7c2b9f60c01b6145a6565b601c90506130db565b6130da67cc66cdaf438e188f60c01b6145a6565b5b5b6130f067f0369bf263300e5c60c01b6145a6565b613104671d5c74141040fa0b60c01b6145a6565b600186828585604051600081526020016040526040516131279493929190616d08565b6020604051602081039080840390855afa158015613149573d6000803e3d6000fd5b5050506020604051035193505050506133f8565b61317167d07c6e683da9122860c01b6145a6565b613185673269ea9462a9da0860c01b6145a6565b60408551036133b4576131a2678104f4ba17ad1cfb60c01b6145a6565b6131b6679159cfe5cec9dcb260c01b6145a6565b6131ca67376fa583f6c083ab60c01b6145a6565b60006131e0678c7cd7a9539ce62360c01b6145a6565b60208601519350604086015190506132026725afd2b7340cba2b60c01b6145a6565b7f7fffffffffffffffffffffffffffffffffffffffffffffffffffffffffffffff60001b8116925061323e67158648ec275fec2660c01b6145a6565b601b60ff8260001c901c6132529190616688565b91506132686725dc4a75e98d897960c01b6145a6565b61327c67bc1beef9d22df05760c01b6145a6565b60008260ff16036132b85761329b67c03271601dd0941d60c01b6145a6565b6132af67b0c2bf782ad56abd60c01b6145a6565b601b9150613332565b6132cc674703cd451082a7ad60c01b6145a6565b6132e067100b674f9f1f18a860c01b6145a6565b60018260ff160361331c576132ff671ef82a7cc87cab0460c01b6145a6565b613313671ce1ae06ddf5167160c01b6145a6565b601c9150613331565b61333067d8529b066d8314fa60c01b6145a6565b5b5b61334667b70dc10f2183bb0360c01b6145a6565b61335a675503cea81563cca860c01b6145a6565b6001878386866040516000815260200160405260405161337d9493929190616d08565b6020604051602081039080840390855afa15801561339f573d6000803e3d6000fd5b505050602060405103519450505050506133f8565b6133c8670444a4de35109f2760c01b6145a6565b6133dc67b6ae4b579723d88d60c01b6145a6565b6133f06752985570b007356460c01b6145a6565b600093505050505b92915050565b600061341467a873271e6ad3848160c01b6142e2565b61342867cfe918a45701de5160c01b6142e2565b61343c6784a5b39da8a871b260c01b6142e2565b60006134466142e5565b905061345c676682a132f458a0f960c01b6142e2565b6134706744618e53f61c11a060c01b6142e2565b600061347c8286613cf1565b90506134926717b9fb5b9762aa1e60c01b6142e2565b6134a6674306b5ee4f89f5f860c01b6142e2565b6134ba670a5a9620d306e56560c01b6142e2565b838110156134fd576040517f08c379a00000000000000000000000000000000000000000000000000000000081526004016134f490616dbf565b60405180910390fd5b61351167f46d481eb7c4576060c01b6142e2565b61352567727d438bc81971bb60c01b6142e2565b61353967d8ada52a3aae0e3160c01b6142e2565b61354d670ba4b43a44f1eb0060c01b6142e2565b61355a82868684036142ed565b61356e67f23e17121efcdd9d60c01b6142e2565b61358267fe93e3667119fce560c01b6142e2565b60019250505092915050565b6135a2676bff5d7e0bc567a660c01b6145a6565b6135b667320858d8c0c22dd860c01b6145a6565b6135ca67d7edb5b8dbdd1dbc60c01b6145a6565b6135de677d0e0c2dde0a736e60c01b6145a6565b3373ffffffffffffffffffffffffffffffffffffffff16609b60009054906101000a900473ffffffffffffffffffffffffffffffffffffffff1673ffffffffffffffffffffffffffffffffffffffff16636352211e856040518263ffffffff1660e01b81526004016136509190615c7a565b602060405180830381865afa15801561366d573d6000803e3d6000fd5b505050506040513d601f19601f820116820180604052508101906136919190616df4565b73ffffffffffffffffffffffffffffffffffffffff16146136e7576040517f08c379a00000000000000000000000000000000000000000000000000000000081526004016136de90616e6d565b60405180910390fd5b6136fb67d7804d589dd13b8760c01b6145a6565b61370f670d36c5c2450e9a3460c01b6145a6565b613723672479e94a63fbf7b460c01b6145a6565b61372d338261505c565b61374167feef54094f49bd5660c01b6145a6565b613755670f8d858fa46072bd60c01b6145a6565b7ff556991011e831bcfac4f406d547e5e32cdd98267efab83935230d5f8d02c4463384848460405161378a94939291906162e0565b60405180910390a1505050565b609d60009054906101000a900473ffffffffffffffffffffffffffffffffffffffff1681565b60006137d3671a059d41d4a80a8760c01b6142e2565b6137e767b300f9590bcfcbd960c01b6142e2565b6137fb67bd32cd2354358d6460c01b6142e2565b60006138056142e5565b905061381b6774b5ef077310842660c01b6142e2565b61382f6712fcbcea2f54bc9760c01b6142e2565b61383a818585614a34565b61384e676bae913c4001d87060c01b6142e2565b61386267ee3a671c1a061fd260c01b6142e2565b600191505092915050565b60985481565b609c818051602081018201805184825260208301602085012081835280955050505050506000915054906101000a900460ff1681565b6138bd67c5e4f2680838f89e60c01b6145a6565b6138c56145a9565b6138d96760bd1763e28a664060c01b6145a6565b6138ed67c4c6f2478bb1823060c01b6145a6565b61390167ba47c270ec6dcafe60c01b6145a6565b613915670eeb4c4f8775d1f960c01b6145a6565b60005b83839050811015613aac576139376746547aaf17db038f60c01b6145a6565b816038600086868581811061394f5761394e61675f565b5b90506020020160208101906139649190616122565b73ffffffffffffffffffffffffffffffffffffffff1673ffffffffffffffffffffffffffffffffffffffff16815260200190815260200160002060006101000a81548160ff0219169083151502179055506139c96799d93d69052b0cf760c01b6145a6565b6139dd67da388933414aab5a60c01b6145a6565b8115613a84576139f7670e438afc83a4734760c01b6145a6565b613a0b67ad36b37643a2de8660c01b6145a6565b613a1f674e9520e47498040360c01b6145a6565b613a7f848483818110613a3557613a3461675f565b5b9050602002016020810190613a4a9190616122565b613a7a868685818110613a6057613a5f61675f565b5b9050602002016020810190613a759190616122565b611baa565b61505c565b613a99565b613a9867f02d7a1927eb1d8b60c01b6145a6565b5b8080613aa49061678e565b915050613918565b50505050565b613ac66760e8f73eda0f934160c01b6145a6565b613ada67a0f066806c6c0bb660c01b6145a6565b613aee671d414c0a9e9f0d4d60c01b6145a6565b613b0267b5b423120e08c8ed60c01b6145a6565b613b16676bfc075ff09ea1c960c01b6145a6565b609b60009054906101000a900473ffffffffffffffffffffffffffffffffffffffff1673ffffffffffffffffffffffffffffffffffffffff163373ffffffffffffffffffffffffffffffffffffffff16148015613b835750613b82670aa34b9dc2c3b8b960c01b6153c4565b5b80613bf7575060a260009054906101000a900473ffffffffffffffffffffffffffffffffffffffff1673ffffffffffffffffffffffffffffffffffffffff163373ffffffffffffffffffffffffffffffffffffffff16148015613bf65750613bf567cd5a22034dbf93b960c01b6153c4565b5b5b613c36576040517f08c379a0000000000000000000000000000000000000000000000000000000008152600401613c2d9061692e565b60405180910390fd5b613c4a67a4813fd187769fc760c01b6145a6565b613c5e6724d99a14c9f8dc1460c01b6145a6565b613c7267350d2e94852dbd3560c01b6145a6565b613c86672f24955a145f648960c01b6145a6565b613c9a6722ab1b68e91caaa860c01b6145a6565b613cae6739ad0dd03f45c0bb60c01b6145a6565b613cb983838361488b565b613ccd67ee5f2d6f9cd6bf3060c01b6145a6565b613ce167be4b27fb23dd1e0160c01b6145a6565b613cec838383614a34565b505050565b6000613d0767c2f816634474a7ae60c01b6142e2565b613d1b6731e2b61681827ad560c01b6142e2565b613d2f67e95cfbb3a68540c960c01b6142e2565b603460008473ffffffffffffffffffffffffffffffffffffffff1673ffffffffffffffffffffffffffffffffffffffff16815260200190815260200160002060008373ffffffffffffffffffffffffffffffffffffffff1673ffffffffffffffffffffffffffffffffffffffff16815260200190815260200160002054905092915050565b613dc867c17398495fb9a7d260c01b6145a6565b613ddc6713f56dc52190169d60c01b6145a6565b613df067aff6c767bd7e271d60c01b6145a6565b613e0467de1d4b8ab257baea60c01b6145a6565b613e1a613e0f612aa3565b836060015183614e96565b8015613e4f5750609c81604051613e31919061681d565b908152602001604051809103902060009054906101000a900460ff16155b8015613ef45750609b60009054906101000a900473ffffffffffffffffffffffffffffffffffffffff1673ffffffffffffffffffffffffffffffffffffffff1663c9941806826040518263ffffffff1660e01b8152600401613eb1919061687e565b602060405180830381865afa158015613ece573d6000803e3d6000fd5b505050506040513d601f19601f82011682018060405250810190613ef291906168b5565b155b8015613f99575060a060009054906101000a900473ffffffffffffffffffffffffffffffffffffffff1673ffffffffffffffffffffffffffffffffffffffff1663c9941806826040518263ffffffff1660e01b8152600401613f56919061687e565b602060405180830381865afa158015613f73573d6000803e3d6000fd5b505050506040513d601f19601f82011682018060405250810190613f9791906168b5565b155b613fd8576040517f08c379a0000000000000000000000000000000000000000000000000000000008152600401613fcf9061692e565b60405180910390fd5b613fec67eff01c9414fe8c7c60c01b6145a6565b61400067218cbc4192e8e09160c01b6145a6565b61401467d997025ba215d2dc60c01b6145a6565b61402867e11a8fee8c764f6860c01b6145a6565b3373ffffffffffffffffffffffffffffffffffffffff16609b60009054906101000a900473ffffffffffffffffffffffffffffffffffffffff1673ffffffffffffffffffffffffffffffffffffffff16636352211e84602001516040518263ffffffff1660e01b815260040161409e9190615c7a565b602060405180830381865afa1580156140bb573d6000803e3d6000fd5b505050506040513d601f19601f820116820180604052508101906140df9190616df4565b73ffffffffffffffffffffffffffffffffffffffff1614614135576040517f08c379a000000000000000000000000000000000000000000000000000000000815260040161412c90616ed9565b60405180910390fd5b61414967f99b4107f4a8fce460c01b6145a6565b61415d673f6917e5c750729b60c01b6145a6565b614171674eefbb1c4f75de0b60c01b6145a6565b61417f33836040015161505c565b61419367ff969efac3715ad460c01b6145a6565b6001609c826040516141a5919061681d565b908152602001604051809103902060006101000a81548160ff0219169083151502179055506141de672ce227762351a70a60c01b6145a6565b6141f267846747d667594c9860c01b6145a6565b7fc02f575e81455b4c23297b24a8d0fa6faa0dfb2913e7e65fb48e286090d99d363383602001518460000151856040015160405161423394939291906162e0565b60405180910390a15050565b6142476145a9565b600073ffffffffffffffffffffffffffffffffffffffff168173ffffffffffffffffffffffffffffffffffffffff16036142b6576040517f08c379a00000000000000000000000000000000000000000000000000000000081526004016142ad90616f6b565b60405180910390fd5b6142bf816153cf565b50565b60a16020528060005260406000206000915054906101000a900460ff1681565b50565b600033905090565b614301674b88d485f6e76b9560c01b6142e2565b6143156793606422f413e36660c01b6142e2565b61432967f61947ad80db280560c01b6142e2565b61433d6783c5c766e31a745b60c01b6142e2565b600073ffffffffffffffffffffffffffffffffffffffff168373ffffffffffffffffffffffffffffffffffffffff16036143ac576040517f08c379a00000000000000000000000000000000000000000000000000000000081526004016143a390616ffd565b60405180910390fd5b6143c067dfb9d976b400069a60c01b6142e2565b6143d467331cf4800ff77f4260c01b6142e2565b6143e86763c9257b187f29b460c01b6142e2565b6143fc677f4953d0e5300eab60c01b6142e2565b600073ffffffffffffffffffffffffffffffffffffffff168273ffffffffffffffffffffffffffffffffffffffff160361446b576040517f08c379a00000000000000000000000000000000000000000000000000000000081526004016144629061708f565b60405180910390fd5b61447f67b61c7d27c32e0b7160c01b6142e2565b6144936776ad9f179cd6468b60c01b6142e2565b80603460008573ffffffffffffffffffffffffffffffffffffffff1673ffffffffffffffffffffffffffffffffffffffff16815260200190815260200160002060008473ffffffffffffffffffffffffffffffffffffffff1673ffffffffffffffffffffffffffffffffffffffff1681526020019081526020016000208190555061452867ea6818da5dd4de0560c01b6142e2565b61453c6753df8f353c68c32560c01b6142e2565b8173ffffffffffffffffffffffffffffffffffffffff168373ffffffffffffffffffffffffffffffffffffffff167f8c5be1e5ebec7d5bd14f71427d1e84f3dd0314c0f7b2291e5b200ac8c7c3b925836040516145999190615c7a565b60405180910390a3505050565b50565b6145b16142e5565b73ffffffffffffffffffffffffffffffffffffffff166145cf612aa3565b73ffffffffffffffffffffffffffffffffffffffff1614614625576040517f08c379a000000000000000000000000000000000000000000000000000000000815260040161461c906170fb565b60405180910390fd5b565b61463b67287a47dff4b3f6ce60c01b6142e2565b61464f671dd61082f97fe7a560c01b6142e2565b61466367dc4bb6ff329fc11b60c01b6142e2565b61467767a3ab49c4af91656f60c01b6142e2565b600073ffffffffffffffffffffffffffffffffffffffff168273ffffffffffffffffffffffffffffffffffffffff16036146e6576040517f08c379a00000000000000000000000000000000000000000000000000000000081526004016146dd90617167565b60405180910390fd5b6146fa67a68e6789e789a54e60c01b6142e2565b61470e673934735c5ab6d35160c01b6142e2565b614722670125da76cc93db9060c01b6142e2565b61472e600083836155d2565b614742672df4be57c556fd5c60c01b6142e2565b80603560008282546147549190616688565b9250508190555061476f6707b913821b806c5760c01b6142e2565b80603360008473ffffffffffffffffffffffffffffffffffffffff1673ffffffffffffffffffffffffffffffffffffffff16815260200190815260200160002060008282546147be9190616688565b925050819055506147d9677d80fc90d662980e60c01b6142e2565b6147ed679668b7b23b47861760c01b6142e2565b8173ffffffffffffffffffffffffffffffffffffffff16600073ffffffffffffffffffffffffffffffffffffffff167fddf252ad1be2c89b69c2b068fc378daa952ba7f163c4a11628f55a4df523b3ef8360405161484b9190615c7a565b60405180910390a361486767bf680af0ad68b64d60c01b6142e2565b61487b67c0c447c3e695d31c60c01b6142e2565b61488760008383615732565b5050565b61489f67321ef60c190ba46760c01b6142e2565b6148b367e4ed714f179da9fd60c01b6142e2565b6148c767d74a59f4e27685ab60c01b6142e2565b60006148d38484613cf1565b90506148e967ecb2651b42ddd16260c01b6142e2565b6148fd67e86535689db8819760c01b6142e2565b7fffffffffffffffffffffffffffffffffffffffffffffffffffffffffffffffff8114614a1957614938671b4116d119fed99060c01b6142e2565b61494c679c14f1482ebd3f0360c01b6142e2565b61496067d145e9f104d95df760c01b6142e2565b61497467c5b6c10d3c73b8c060c01b6142e2565b818110156149b7576040517f08c379a00000000000000000000000000000000000000000000000000000000081526004016149ae906171d3565b60405180910390fd5b6149cb676adae15a164c1d4160c01b6142e2565b6149df67a27da2e601a0a24060c01b6142e2565b6149f36757d26c6d4d17e11860c01b6142e2565b614a0767465a6ade2c65928760c01b6142e2565b614a1484848484036142ed565b614a2e565b614a2d6742503d4feced536f60c01b6142e2565b5b50505050565b614a4867da5313f878b2a56060c01b6142e2565b614a5c67e7c676e32934131960c01b6142e2565b614a7067ef7fdafcdbd5899f60c01b6142e2565b614a8467ba544287eb6b716b60c01b6142e2565b600073ffffffffffffffffffffffffffffffffffffffff168373ffffffffffffffffffffffffffffffffffffffff1603614af3576040517f08c379a0000000000000000000000000000000000000000000000000000000008152600401614aea90617265565b60405180910390fd5b614b076780c1595c0274fbe960c01b6142e2565b614b1b673f4f718c38c375fe60c01b6142e2565b614b2f67bf3bf3f712daf56360c01b6142e2565b614b4367e823d7d6caae29ff60c01b6142e2565b600073ffffffffffffffffffffffffffffffffffffffff168273ffffffffffffffffffffffffffffffffffffffff1603614bb2576040517f08c379a0000000000000000000000000000000000000000000000000000000008152600401614ba9906172f7565b60405180910390fd5b614bc667e576c5b51c8b528060c01b6142e2565b614bda67ebe817e0272c9eb660c01b6142e2565b614bee676b423680e18fb11660c01b6142e2565b614bf98383836155d2565b614c0d67e51fbd5231ac066760c01b6142e2565b614c21676b00924884a2206c60c01b6142e2565b6000603360008573ffffffffffffffffffffffffffffffffffffffff1673ffffffffffffffffffffffffffffffffffffffff168152602001908152602001600020549050614c7967f2cb39a5978ae8f360c01b6142e2565b614c8d67a42fa0770bab288a60c01b6142e2565b614ca16784e7ce63f3ec7b5b60c01b6142e2565b81811015614ce4576040517f08c379a0000000000000000000000000000000000000000000000000000000008152600401614cdb90617389565b60405180910390fd5b614cf86790f03ff30b6be67c60c01b6142e2565b614d0c671004286e65991a8c60c01b6142e2565b614d2067f4340c34f2e122b360c01b6142e2565b818103603360008673ffffffffffffffffffffffffffffffffffffffff1673ffffffffffffffffffffffffffffffffffffffff16815260200190815260200160002081905550614d7a671aebf4c4b494d3c860c01b6142e2565b81603360008573ffffffffffffffffffffffffffffffffffffffff1673ffffffffffffffffffffffffffffffffffffffff1681526020019081526020016000206000828254614dc99190616688565b92505081905550614de467aa50e6f7f3bdb75160c01b6142e2565b614df8677cbc950fdcb9db2760c01b6142e2565b8273ffffffffffffffffffffffffffffffffffffffff168473ffffffffffffffffffffffffffffffffffffffff167fddf252ad1be2c89b69c2b068fc378daa952ba7f163c4a11628f55a4df523b3ef84604051614e559190615c7a565b60405180910390a3614e7167c9ba652c062c32e060c01b6142e2565b614e856736e246612345295560c01b6142e2565b614e90848484615732565b50505050565b6000806000614ea5858561574b565b9150915060006004811115614ebd57614ebc6173a9565b5b816004811115614ed057614ecf6173a9565b5b148015614f0857508573ffffffffffffffffffffffffffffffffffffffff168273ffffffffffffffffffffffffffffffffffffffff16145b15614f1857600192505050615055565b6000808773ffffffffffffffffffffffffffffffffffffffff16631626ba7e60e01b8888604051602401614f4d9291906173d8565b604051602081830303815290604052907bffffffffffffffffffffffffffffffffffffffffffffffffffffffff19166020820180517bffffffffffffffffffffffffffffffffffffffffffffffffffffffff8381831617835250505050604051614fb7919061681d565b600060405180830381855afa9150503d8060008114614ff2576040519150601f19603f3d011682016040523d82523d6000602084013e614ff7565b606091505b509150915081801561500a575060208151145b801561504e5750631626ba7e60e01b7bffffffffffffffffffffffffffffffffffffffffffffffffffffffff19168180602001905181019061504c919061741d565b145b9450505050505b9392505050565b61507067ac5fee09f554f40860c01b6142e2565b61508467508762e43645964060c01b6142e2565b61509867da7ced7a6ca6724a60c01b6142e2565b6150ac6731416c661633205a60c01b6142e2565b600073ffffffffffffffffffffffffffffffffffffffff168273ffffffffffffffffffffffffffffffffffffffff160361511b576040517f08c379a0000000000000000000000000000000000000000000000000000000008152600401615112906174bc565b60405180910390fd5b61512f67b27da3bc1e057ceb60c01b6142e2565b61514367fd99199e4eb9e58b60c01b6142e2565b61515767b21a2f30dff7a92b60c01b6142e2565b615163826000836155d2565b615177674990f874a49a789960c01b6142e2565b61518b677f9c071f12acc5c860c01b6142e2565b6000603360008473ffffffffffffffffffffffffffffffffffffffff1673ffffffffffffffffffffffffffffffffffffffff1681526020019081526020016000205490506151e3678eacfe866e08a9fb60c01b6142e2565b6151f767c23bf79e2dbae3d260c01b6142e2565b61520b678c96478acaffd25960c01b6142e2565b8181101561524e576040517f08c379a00000000000000000000000000000000000000000000000000000000081526004016152459061754e565b60405180910390fd5b6152626733ddf41f383a75ef60c01b6142e2565b61527667bbe2555e4f7fb5c660c01b6142e2565b61528a67481818188c2ccf9460c01b6142e2565b818103603360008573ffffffffffffffffffffffffffffffffffffffff1673ffffffffffffffffffffffffffffffffffffffff168152602001908152602001600020819055506152e46794c7015a06bcaa6060c01b6142e2565b81603560008282546152f69190616c0b565b9250508190555061531167be0ce65cb13c00a760c01b6142e2565b615325673fe0e200aa76a2d260c01b6142e2565b600073ffffffffffffffffffffffffffffffffffffffff168373ffffffffffffffffffffffffffffffffffffffff167fddf252ad1be2c89b69c2b068fc378daa952ba7f163c4a11628f55a4df523b3ef846040516153839190615c7a565b60405180910390a361539f6793dfbc259449a3c660c01b6142e2565b6153b367872296d5a5ff357060c01b6142e2565b6153bf83600084615732565b505050565b600060019050919050565b6000606660009054906101000a900473ffffffffffffffffffffffffffffffffffffffff16905081606660006101000a81548173ffffffffffffffffffffffffffffffffffffffff021916908373ffffffffffffffffffffffffffffffffffffffff1602179055508173ffffffffffffffffffffffffffffffffffffffff168173ffffffffffffffffffffffffffffffffffffffff167f8be0079c531659141344cd1fd0a4f28419497f9722a3daafe3b4186f6b6457e060405160405180910390a35050565b6000808273ffffffffffffffffffffffffffffffffffffffff163b119050919050565b6154cc670f0c6b3d63be556860c01b6142e2565b600060019054906101000a900460ff1661551b576040517f08c379a0000000000000000000000000000000000000000000000000000000008152600401615512906175e0565b60405180910390fd5b61552f677dd271b6e458590d60c01b6142e2565b615543676ab6df4a3012f03960c01b6142e2565b61555767d88968175eaeb08c60c01b6142e2565b61556b673446e87ff6d1569460c01b6142e2565b615575828261579c565b5050565b600060019054906101000a900460ff166155c8576040517f08c379a00000000000000000000000000000000000000000000000000000000081526004016155bf906175e0565b60405180910390fd5b6155d0615873565b565b6155e6671b437cd840361fc560c01b6142e2565b6155fa67c568186ef9c5559a60c01b6142e2565b61560e6723a773af8fb0064660c01b6142e2565b61562267c2d6deca9ed9a07860c01b6142e2565b603860008473ffffffffffffffffffffffffffffffffffffffff1673ffffffffffffffffffffffffffffffffffffffff16815260200190815260200160002060009054906101000a900460ff161580156156c65750603860008373ffffffffffffffffffffffffffffffffffffffff1673ffffffffffffffffffffffffffffffffffffffff16815260200190815260200160002060009054906101000a900460ff16155b615705576040517f08c379a00000000000000000000000000000000000000000000000000000000081526004016156fc9061764c565b60405180910390fd5b61571967ff4c715cd3506d7960c01b6142e2565b61572d67ac7faee281cc04a660c01b6142e2565b505050565b615746676594d24c77ea8b3460c01b6142e2565b505050565b600080604183510361578c5760008060006020860151925060408601519150606086015160001a9050615780878285856158d4565b94509450505050615795565b60006002915091505b9250929050565b6157b06725306d7a08a9c3a460c01b6142e2565b600060019054906101000a900460ff166157ff576040517f08c379a00000000000000000000000000000000000000000000000000000000081526004016157f6906175e0565b60405180910390fd5b61581367a3a58ca4de9d8c9260c01b6142e2565b615827670a5a041356cb553a60c01b6142e2565b61583b67cd304845b6b8164660c01b6142e2565b816036908161584a919061780e565b5061585f672778e1a5aacb726e60c01b6142e2565b806037908161586e919061780e565b505050565b600060019054906101000a900460ff166158c2576040517f08c379a00000000000000000000000000000000000000000000000000000000081526004016158b9906175e0565b60405180910390fd5b6158d26158cd6142e5565b6153cf565b565b6000807f7fffffffffffffffffffffffffffffff5d576e7357a4501ddfe92f46681b20a08360001c111561590f5760006003915091506159ad565b6000600187878787604051600081526020016040526040516159349493929190616d08565b6020604051602081039080840390855afa158015615956573d6000803e3d6000fd5b505050602060405103519050600073ffffffffffffffffffffffffffffffffffffffff168173ffffffffffffffffffffffffffffffffffffffff16036159a4576000600192509250506159ad565b80600092509250505b94509492505050565b50805460008255906000526020600020908101906159d491906159d7565b50565b5b808211156159f05760008160009055506001016159d8565b5090565b600073ffffffffffffffffffffffffffffffffffffffff82169050919050565b6000819050919050565b6000615a39615a34615a2f846159f4565b615a14565b6159f4565b9050919050565b6000615a4b82615a1e565b9050919050565b6000615a5d82615a40565b9050919050565b615a6d81615a52565b82525050565b6000602082019050615a886000830184615a64565b92915050565b600081519050919050565b600082825260208201905092915050565b60005b83811015615ac8578082015181840152602081019050615aad565b60008484015250505050565b6000601f19601f8301169050919050565b6000615af082615a8e565b615afa8185615a99565b9350615b0a818560208601615aaa565b615b1381615ad4565b840191505092915050565b60006020820190508181036000830152615b388184615ae5565b905092915050565b6000604051905090565b600080fd5b600080fd5b6000615b5f826159f4565b9050919050565b615b6f81615b54565b8114615b7a57600080fd5b50565b600081359050615b8c81615b66565b92915050565b6000819050919050565b615ba581615b92565b8114615bb057600080fd5b50565b600081359050615bc281615b9c565b92915050565b60008060408385031215615bdf57615bde615b4a565b5b6000615bed85828601615b7d565b9250506020615bfe85828601615bb3565b9150509250929050565b60008115159050919050565b615c1d81615c08565b82525050565b6000602082019050615c386000830184615c14565b92915050565b600060208284031215615c5457615c53615b4a565b5b6000615c6284828501615bb3565b91505092915050565b615c7481615b92565b82525050565b6000602082019050615c8f6000830184615c6b565b92915050565b600080fd5b600080fd5b600080fd5b60008083601f840112615cba57615cb9615c95565b5b8235905067ffffffffffffffff811115615cd757615cd6615c9a565b5b602083019150836020820283011115615cf357615cf2615c9f565b5b9250929050565b60008083601f840112615d1057615d0f615c95565b5b8235905067ffffffffffffffff811115615d2d57615d2c615c9a565b5b602083019150836020820283011115615d4957615d48615c9f565b5b9250929050565b6000806000806000806000806080898b031215615d7057615d6f615b4a565b5b600089013567ffffffffffffffff811115615d8e57615d8d615b4f565b5b615d9a8b828c01615ca4565b9850985050602089013567ffffffffffffffff811115615dbd57615dbc615b4f565b5b615dc98b828c01615cfa565b9650965050604089013567ffffffffffffffff811115615dec57615deb615b4f565b5b615df88b828c01615ca4565b9450945050606089013567ffffffffffffffff811115615e1b57615e1a615b4f565b5b615e278b828c01615ca4565b92509250509295985092959890939650565b600080600060608486031215615e5257615e51615b4a565b5b6000615e6086828701615b7d565b9350506020615e7186828701615b7d565b9250506040615e8286828701615bb3565b9150509250925092565b615e9581615b54565b82525050565b600060a082019050615eb06000830188615c6b565b615ebd6020830187615e8c565b615eca6040830186615c6b565b615ed76060830185615c6b565b615ee46080830184615c6b565b9695505050505050565b600060ff82169050919050565b615f0481615eee565b82525050565b6000602082019050615f1f6000830184615efb565b92915050565b60008060208385031215615f3c57615f3b615b4a565b5b600083013567ffffffffffffffff811115615f5a57615f59615b4f565b5b615f6685828601615cfa565b92509250509250929050565b600080fd5b600060408284031215615f8d57615f8c615f72565b5b81905092915050565b600080fd5b7f4e487b7100000000000000000000000000000000000000000000000000000000600052604160045260246000fd5b615fd382615ad4565b810181811067ffffffffffffffff82111715615ff257615ff1615f9b565b5b80604052505050565b6000616005615b40565b90506160118282615fca565b919050565b600067ffffffffffffffff82111561603157616030615f9b565b5b61603a82615ad4565b9050602081019050919050565b82818337600083830152505050565b600061606961606484616016565b615ffb565b90508281526020810184848401111561608557616084615f96565b5b616090848285616047565b509392505050565b600082601f8301126160ad576160ac615c95565b5b81356160bd848260208601616056565b91505092915050565b600080606083850312156160dd576160dc615b4a565b5b60006160eb85828601615f77565b925050604083013567ffffffffffffffff81111561610c5761610b615b4f565b5b61611885828601616098565b9150509250929050565b60006020828403121561613857616137615b4a565b5b600061614684828501615b7d565b91505092915050565b600080fd5b6000819050919050565b61616781616154565b811461617257600080fd5b50565b6000813590506161848161615e565b92915050565b6000606082840312156161a05761619f61614f565b5b6161aa6060615ffb565b905060006161ba84828501615bb3565b60008301525060206161ce84828501615bb3565b60208301525060406161e284828501616175565b60408301525092915050565b6000806080838503121561620557616204615b4a565b5b60006162138582860161618a565b925050606083013567ffffffffffffffff81111561623457616233615b4f565b5b61624085828601616098565b9150509250929050565b600080600080600060a0868803121561626657616265615b4a565b5b600061627488828901615b7d565b955050602061628588828901615b7d565b945050604061629688828901615b7d565b93505060606162a788828901615b7d565b92505060806162b888828901615b7d565b9150509295509295909350565b60006020820190506162da6000830184615e8c565b92915050565b60006080820190506162f56000830187615e8c565b6163026020830186615c6b565b61630f6040830185615c6b565b61631c6060830184615c6b565b95945050505050565b6000806040838503121561633c5761633b615b4a565b5b600061634a85828601616175565b925050602083013567ffffffffffffffff81111561636b5761636a615b4f565b5b61637785828601616098565b9150509250929050565b60008060006060848603121561639a57616399615b4a565b5b60006163a886828701615bb3565b93505060206163b986828701615bb3565b92505060406163ca86828701615bb3565b9150509250925092565b60006163df82615a40565b9050919050565b6163ef816163d4565b82525050565b600060208201905061640a60008301846163e6565b92915050565b60006020828403121561642657616425615b4a565b5b600082013567ffffffffffffffff81111561644457616443615b4f565b5b61645084828501616098565b91505092915050565b61646281615c08565b811461646d57600080fd5b50565b60008135905061647f81616459565b92915050565b60008060006040848603121561649e5761649d615b4a565b5b600084013567ffffffffffffffff8111156164bc576164bb615b4f565b5b6164c886828701615cfa565b935093505060206164db86828701616470565b9150509250925092565b600080604083850312156164fc576164fb615b4a565b5b600061650a85828601615b7d565b925050602061651b85828601615b7d565b9150509250929050565b60006080828403121561653b5761653a61614f565b5b6165456080615ffb565b9050600061655584828501615bb3565b600083015250602061656984828501615bb3565b602083015250604061657d84828501615bb3565b604083015250606061659184828501616175565b60608301525092915050565b60008060a083850312156165b4576165b3615b4a565b5b60006165c285828601616525565b925050608083013567ffffffffffffffff8111156165e3576165e2615b4f565b5b6165ef85828601616098565b9150509250929050565b7f4e487b7100000000000000000000000000000000000000000000000000000000600052602260045260246000fd5b6000600282049050600182168061664057607f821691505b602082108103616653576166526165f9565b5b50919050565b7f4e487b7100000000000000000000000000000000000000000000000000000000600052601160045260246000fd5b600061669382615b92565b915061669e83615b92565b92508282019050808211156166b6576166b5616659565b5b92915050565b7f4e696f7a45524332303a2054696d65206973206e6f7420757000000000000000600082015250565b60006166f2601983615a99565b91506166fd826166bc565b602082019050919050565b60006020820190508181036000830152616721816166e5565b9050919050565b600060608201905061673d6000830186615e8c565b61674a6020830185615c6b565b6167576040830184615c6b565b949350505050565b7f4e487b7100000000000000000000000000000000000000000000000000000000600052603260045260246000fd5b600061679982615b92565b91507fffffffffffffffffffffffffffffffffffffffffffffffffffffffffffffffff82036167cb576167ca616659565b5b600182019050919050565b600081519050919050565b600081905092915050565b60006167f7826167d6565b61680181856167e1565b9350616811818560208601615aaa565b80840191505092915050565b600061682982846167ec565b915081905092915050565b600082825260208201905092915050565b6000616850826167d6565b61685a8185616834565b935061686a818560208601615aaa565b61687381615ad4565b840191505092915050565b600060208201905081810360008301526168988184616845565b905092915050565b6000815190506168af81616459565b92915050565b6000602082840312156168cb576168ca615b4a565b5b60006168d9848285016168a0565b91505092915050565b7f4e696f7a45524332303a204e6f7420616c6c6f77656400000000000000000000600082015250565b6000616918601683615a99565b9150616923826168e2565b602082019050919050565b600060208201905081810360008301526169478161690b565b9050919050565b7f4e696f7a45524332303a20416d6f756e74206973207a65726f00000000000000600082015250565b6000616984601983615a99565b915061698f8261694e565b602082019050919050565b600060208201905081810360008301526169b381616977565b9050919050565b60006040820190506169cf6000830185615e8c565b6169dc6020830184615c6b565b9392505050565b7f4e696f7a45524332303a20457863656564732062616c616e636520616d6f756e60008201527f7400000000000000000000000000000000000000000000000000000000000000602082015250565b6000616a3f602183615a99565b9150616a4a826169e3565b604082019050919050565b60006020820190508181036000830152616a6e81616a32565b9050919050565b7f4e696f7a45524332303a20416c726561647920736f6c64000000000000000000600082015250565b6000616aab601783615a99565b9150616ab682616a75565b602082019050919050565b60006020820190508181036000830152616ada81616a9e565b9050919050565b7f496e697469616c697a61626c653a20636f6e747261637420697320616c72656160008201527f647920696e697469616c697a6564000000000000000000000000000000000000602082015250565b6000616b3d602e83615a99565b9150616b4882616ae1565b604082019050919050565b60006020820190508181036000830152616b6c81616b30565b9050919050565b6000819050919050565b6000616b98616b93616b8e84616b73565b615a14565b615eee565b9050919050565b616ba881616b7d565b82525050565b6000602082019050616bc36000830184616b9f565b92915050565b600081519050616bd881615b9c565b92915050565b600060208284031215616bf457616bf3615b4a565b5b6000616c0284828501616bc9565b91505092915050565b6000616c1682615b92565b9150616c2183615b92565b9250828203905081811115616c3957616c38616659565b5b92915050565b6000616c4a82615b92565b9150616c5583615b92565b9250817fffffffffffffffffffffffffffffffffffffffffffffffffffffffffffffffff0483118215151615616c8e57616c8d616659565b5b828202905092915050565b7f4e487b7100000000000000000000000000000000000000000000000000000000600052601260045260246000fd5b6000616cd382615b92565b9150616cde83615b92565b925082616cee57616ced616c99565b5b828204905092915050565b616d0281616154565b82525050565b6000608082019050616d1d6000830187616cf9565b616d2a6020830186615efb565b616d376040830185616cf9565b616d446060830184616cf9565b95945050505050565b7f45524332303a2064656372656173656420616c6c6f77616e63652062656c6f7760008201527f207a65726f000000000000000000000000000000000000000000000000000000602082015250565b6000616da9602583615a99565b9150616db482616d4d565b604082019050919050565b60006020820190508181036000830152616dd881616d9c565b9050919050565b600081519050616dee81615b66565b92915050565b600060208284031215616e0a57616e09615b4a565b5b6000616e1884828501616ddf565b91505092915050565b7f4e696f7a45524332303a204e6f7420616e206f776e6572000000000000000000600082015250565b6000616e57601783615a99565b9150616e6282616e21565b602082019050919050565b60006020820190508181036000830152616e8681616e4a565b9050919050565b7f4e696f7a45524332303a204e6f742061206f776e657200000000000000000000600082015250565b6000616ec3601683615a99565b9150616ece82616e8d565b602082019050919050565b60006020820190508181036000830152616ef281616eb6565b9050919050565b7f4f776e61626c653a206e6577206f776e657220697320746865207a65726f206160008201527f6464726573730000000000000000000000000000000000000000000000000000602082015250565b6000616f55602683615a99565b9150616f6082616ef9565b604082019050919050565b60006020820190508181036000830152616f8481616f48565b9050919050565b7f45524332303a20617070726f76652066726f6d20746865207a65726f2061646460008201527f7265737300000000000000000000000000000000000000000000000000000000602082015250565b6000616fe7602483615a99565b9150616ff282616f8b565b604082019050919050565b6000602082019050818103600083015261701681616fda565b9050919050565b7f45524332303a20617070726f766520746f20746865207a65726f20616464726560008201527f7373000000000000000000000000000000000000000000000000000000000000602082015250565b6000617079602283615a99565b91506170848261701d565b604082019050919050565b600060208201905081810360008301526170a88161706c565b9050919050565b7f4f776e61626c653a2063616c6c6572206973206e6f7420746865206f776e6572600082015250565b60006170e5602083615a99565b91506170f0826170af565b602082019050919050565b60006020820190508181036000830152617114816170d8565b9050919050565b7f45524332303a206d696e7420746f20746865207a65726f206164647265737300600082015250565b6000617151601f83615a99565b915061715c8261711b565b602082019050919050565b6000602082019050818103600083015261718081617144565b9050919050565b7f45524332303a20696e73756666696369656e7420616c6c6f77616e6365000000600082015250565b60006171bd601d83615a99565b91506171c882617187565b602082019050919050565b600060208201905081810360008301526171ec816171b0565b9050919050565b7f45524332303a207472616e736665722066726f6d20746865207a65726f20616460008201527f6472657373000000000000000000000000000000000000000000000000000000602082015250565b600061724f602583615a99565b915061725a826171f3565b604082019050919050565b6000602082019050818103600083015261727e81617242565b9050919050565b7f45524332303a207472616e7366657220746f20746865207a65726f206164647260008201527f6573730000000000000000000000000000000000000000000000000000000000602082015250565b60006172e1602383615a99565b91506172ec82617285565b604082019050919050565b60006020820190508181036000830152617310816172d4565b9050919050565b7f45524332303a207472616e7366657220616d6f756e742065786365656473206260008201527f616c616e63650000000000000000000000000000000000000000000000000000602082015250565b6000617373602683615a99565b915061737e82617317565b604082019050919050565b600060208201905081810360008301526173a281617366565b9050919050565b7f4e487b7100000000000000000000000000000000000000000000000000000000600052602160045260246000fd5b60006040820190506173ed6000830185616cf9565b81810360208301526173ff8184616845565b90509392505050565b6000815190506174178161615e565b92915050565b60006020828403121561743357617432615b4a565b5b600061744184828501617408565b91505092915050565b7f45524332303a206275726e2066726f6d20746865207a65726f2061646472657360008201527f7300000000000000000000000000000000000000000000000000000000000000602082015250565b60006174a6602183615a99565b91506174b18261744a565b604082019050919050565b600060208201905081810360008301526174d581617499565b9050919050565b7f45524332303a206275726e20616d6f756e7420657863656564732062616c616e60008201527f6365000000000000000000000000000000000000000000000000000000000000602082015250565b6000617538602283615a99565b9150617543826174dc565b604082019050919050565b600060208201905081810360008301526175678161752b565b9050919050565b7f496e697469616c697a61626c653a20636f6e7472616374206973206e6f74206960008201527f6e697469616c697a696e67000000000000000000000000000000000000000000602082015250565b60006175ca602b83615a99565b91506175d58261756e565b604082019050919050565b600060208201905081810360008301526175f9816175bd565b9050919050565b7f45524332303a20426c61636b6c69737465642061646472657373000000000000600082015250565b6000617636601a83615a99565b915061764182617600565b602082019050919050565b6000602082019050818103600083015261766581617629565b9050919050565b60008190508160005260206000209050919050565b60006020601f8301049050919050565b600082821b905092915050565b6000600883026176ce7fffffffffffffffffffffffffffffffffffffffffffffffffffffffffffffffff82617691565b6176d88683617691565b95508019841693508086168417925050509392505050565b600061770b61770661770184615b92565b615a14565b615b92565b9050919050565b6000819050919050565b617725836176f0565b61773961773182617712565b84845461769e565b825550505050565b600090565b61774e617741565b61775981848461771c565b505050565b5b8181101561777d57617772600082617746565b60018101905061775f565b5050565b601f8211156177c2576177938161766c565b61779c84617681565b810160208510156177ab578190505b6177bf6177b785617681565b83018261775e565b50505b505050565b600082821c905092915050565b60006177e5600019846008026177c7565b1980831691505092915050565b60006177fe83836177d4565b9150826002028217905092915050565b61781782615a8e565b67ffffffffffffffff8111156178305761782f615f9b565b5b61783a8254616628565b617845828285617781565b600060209050601f8311600181146178785760008415617866578287015190505b61787085826177f2565b8655506178d8565b601f1984166178868661766c565b60005b828110156178ae57848901518255600182019150602085019450602081019050617889565b868310156178cb57848901516178c7601f8916826177d4565b8355505b6001600288020188555050505b50505050505056fea26469706673582212208debf7e65d132b616ec9aa4a45965dc74d5e716144d0cefaa5edd226cbedae1564736f6c63430008100033",
  "linkReferences": {},
  "deployedLinkReferences": {}
}