{
  "_format": "hh-sol-artifact-1",
  "contractName": "ArfERC721V1",
  "sourceName": "contracts/ARF/ArfERC721V1.sol",
  "abi": [
    {
      "anonymous": false,
      "inputs": [
        {
          "indexed": false,
          "internalType": "address",
          "name": "Owner",
          "type": "address"
        },
        {
          "indexed": false,
          "internalType": "uint256",
          "name": "EpochId",
          "type": "uint256"
        },
        {
          "indexed": false,
          "internalType": "uint256",
          "name": "ARC_TokenId",
          "type": "uint256"
        },
        {
          "indexed": false,
          "internalType": "uint256",
          "name": "ARF_TokenId",
          "type": "uint256"
        },
        {
          "indexed": false,
          "internalType": "uint256",
          "name": "JoePeg_TokenId",
          "type": "uint256"
        }
      ],
      "name": "ARC_ARF_Minted",
      "type": "event"
    },
    {
      "anonymous": false,
      "inputs": [
        {
          "indexed": false,
          "internalType": "address",
          "name": "Owner",
          "type": "address"
        },
        {
          "indexed": false,
          "internalType": "uint256",
          "name": "EpochId",
          "type": "uint256"
        },
        {
          "indexed": false,
          "internalType": "uint256[]",
          "name": "ARC_TokenId",
          "type": "uint256[]"
        },
        {
          "indexed": false,
          "internalType": "uint256[]",
          "name": "ARF_TokenId",
          "type": "uint256[]"
        },
        {
          "indexed": false,
          "internalType": "uint256[]",
          "name": "JoePeg_TokenId",
          "type": "uint256[]"
        }
      ],
      "name": "ARC_ARF_Minted_Multiple",
      "type": "event"
    },
    {
      "anonymous": false,
      "inputs": [
        {
          "indexed": false,
          "internalType": "address",
          "name": "Owner",
          "type": "address"
        },
        {
          "indexed": false,
          "internalType": "uint256",
          "name": "TokenId",
          "type": "uint256"
        },
        {
          "indexed": false,
          "internalType": "uint256",
          "name": "EpochId",
          "type": "uint256"
        }
      ],
      "name": "ARC_Internal_Minted",
      "type": "event"
    },
    {
      "anonymous": false,
      "inputs": [
        {
          "indexed": false,
          "internalType": "address",
          "name": "Owner",
          "type": "address"
        },
        {
          "indexed": false,
          "internalType": "uint256",
          "name": "TokenId",
          "type": "uint256"
        },
        {
          "indexed": false,
          "internalType": "uint256",
          "name": "EpochId",
          "type": "uint256"
        }
      ],
      "name": "ARCminted",
      "type": "event"
    },
    {
      "anonymous": false,
      "inputs": [
        {
          "indexed": false,
          "internalType": "address",
          "name": "Owner",
          "type": "address"
        },
        {
          "indexed": false,
          "internalType": "uint256",
          "name": "TokenId",
          "type": "uint256"
        },
        {
          "indexed": false,
          "internalType": "uint256",
          "name": "EpochId",
          "type": "uint256"
        }
      ],
      "name": "ARF_Internal_Minted",
      "type": "event"
    },
    {
      "anonymous": false,
      "inputs": [
        {
          "indexed": false,
          "internalType": "address",
          "name": "Owner",
          "type": "address"
        },
        {
          "indexed": false,
          "internalType": "uint256",
          "name": "TokenId",
          "type": "uint256"
        },
        {
          "indexed": false,
          "internalType": "uint256",
          "name": "EpochId",
          "type": "uint256"
        }
      ],
      "name": "ARFminted",
      "type": "event"
    },
    {
      "anonymous": false,
      "inputs": [
        {
          "indexed": true,
          "internalType": "address",
          "name": "owner",
          "type": "address"
        },
        {
          "indexed": true,
          "internalType": "address",
          "name": "approved",
          "type": "address"
        },
        {
          "indexed": true,
          "internalType": "uint256",
          "name": "tokenId",
          "type": "uint256"
        }
      ],
      "name": "Approval",
      "type": "event"
    },
    {
      "anonymous": false,
      "inputs": [
        {
          "indexed": true,
          "internalType": "address",
          "name": "owner",
          "type": "address"
        },
        {
          "indexed": true,
          "internalType": "address",
          "name": "operator",
          "type": "address"
        },
        {
          "indexed": false,
          "internalType": "bool",
          "name": "approved",
          "type": "bool"
        }
      ],
      "name": "ApprovalForAll",
      "type": "event"
    },
    {
      "anonymous": false,
      "inputs": [
        {
          "indexed": false,
          "internalType": "address",
          "name": "Owner",
          "type": "address"
        },
        {
          "indexed": false,
          "internalType": "uint256",
          "name": "EpochId",
          "type": "uint256"
        },
        {
          "indexed": false,
          "internalType": "uint256",
          "name": "ARC_TokenIds",
          "type": "uint256"
        },
        {
          "indexed": false,
          "internalType": "uint256",
          "name": "ARF_TokenIds",
          "type": "uint256"
        }
      ],
      "name": "Eggnite_Minted",
      "type": "event"
    },
    {
      "anonymous": false,
      "inputs": [
        {
          "indexed": false,
          "internalType": "uint8",
          "name": "version",
          "type": "uint8"
        }
      ],
      "name": "Initialized",
      "type": "event"
    },
    {
      "anonymous": false,
      "inputs": [
        {
          "indexed": true,
          "internalType": "address",
          "name": "previousOwner",
          "type": "address"
        },
        {
          "indexed": true,
          "internalType": "address",
          "name": "newOwner",
          "type": "address"
        }
      ],
      "name": "OwnershipTransferred",
      "type": "event"
    },
    {
      "anonymous": false,
      "inputs": [
        {
          "indexed": false,
          "internalType": "address",
          "name": "User",
          "type": "address"
        },
        {
          "indexed": false,
          "internalType": "uint256[]",
          "name": "TokenIds",
          "type": "uint256[]"
        },
        {
          "indexed": false,
          "internalType": "uint256",
          "name": "EpochId",
          "type": "uint256"
        },
        {
          "indexed": false,
          "internalType": "uint256",
          "name": "PoolId",
          "type": "uint256"
        },
        {
          "indexed": false,
          "internalType": "uint256",
          "name": "AvaxPrice",
          "type": "uint256"
        },
        {
          "indexed": false,
          "internalType": "uint256",
          "name": "NiozPrice",
          "type": "uint256"
        },
        {
          "indexed": false,
          "internalType": "bool",
          "name": "IsLimited",
          "type": "bool"
        },
        {
          "indexed": false,
          "internalType": "string",
          "name": "NFTtype",
          "type": "string"
        }
      ],
      "name": "PrinterMinted",
      "type": "event"
    },
    {
      "anonymous": false,
      "inputs": [
        {
          "indexed": false,
          "internalType": "address",
          "name": "PreviousOwner",
          "type": "address"
        },
        {
          "indexed": false,
          "internalType": "address",
          "name": "NewOwner",
          "type": "address"
        },
        {
          "indexed": false,
          "internalType": "uint256",
          "name": "Price",
          "type": "uint256"
        },
        {
          "indexed": false,
          "internalType": "uint256",
          "name": "TokenId",
          "type": "uint256"
        },
        {
          "indexed": false,
          "internalType": "string",
          "name": "TokenType",
          "type": "string"
        }
      ],
      "name": "TokenPurchased",
      "type": "event"
    },
    {
      "anonymous": false,
      "inputs": [
        {
          "indexed": true,
          "internalType": "address",
          "name": "from",
          "type": "address"
        },
        {
          "indexed": true,
          "internalType": "address",
          "name": "to",
          "type": "address"
        },
        {
          "indexed": true,
          "internalType": "uint256",
          "name": "tokenId",
          "type": "uint256"
        }
      ],
      "name": "Transfer",
      "type": "event"
    },
    {
      "anonymous": false,
      "inputs": [
        {
          "indexed": false,
          "internalType": "address[]",
          "name": "Addresses",
          "type": "address[]"
        },
        {
          "indexed": false,
          "internalType": "bool",
          "name": "Status",
          "type": "bool"
        }
      ],
      "name": "WhitelistedARCAddress",
      "type": "event"
    },
    {
      "anonymous": false,
      "inputs": [
        {
          "indexed": false,
          "internalType": "address[]",
          "name": "Addresses",
          "type": "address[]"
        },
        {
          "indexed": false,
          "internalType": "bool",
          "name": "Status",
          "type": "bool"
        }
      ],
      "name": "WhitelistedARCAlloyTeams",
      "type": "event"
    },
    {
      "anonymous": false,
      "inputs": [
        {
          "indexed": false,
          "internalType": "address[]",
          "name": "Addresses",
          "type": "address[]"
        },
        {
          "indexed": false,
          "internalType": "bool",
          "name": "Status",
          "type": "bool"
        }
      ],
      "name": "WhitelistedARCReserves",
      "type": "event"
    },
    {
      "anonymous": false,
      "inputs": [
        {
          "indexed": false,
          "internalType": "address[]",
          "name": "Addresses",
          "type": "address[]"
        },
        {
          "indexed": false,
          "internalType": "bool",
          "name": "Status",
          "type": "bool"
        }
      ],
      "name": "WhitelistedARFAddress",
      "type": "event"
    },
    {
      "anonymous": false,
      "inputs": [
        {
          "indexed": false,
          "internalType": "address[]",
          "name": "Addresses",
          "type": "address[]"
        },
        {
          "indexed": false,
          "internalType": "bool",
          "name": "Status",
          "type": "bool"
        }
      ],
      "name": "WhitelistedARFAlloyTeams",
      "type": "event"
    },
    {
      "anonymous": false,
      "inputs": [
        {
          "indexed": false,
          "internalType": "address[]",
          "name": "Addresses",
          "type": "address[]"
        },
        {
          "indexed": false,
          "internalType": "bool",
          "name": "Status",
          "type": "bool"
        }
      ],
      "name": "WhitelistedARFReserves",
      "type": "event"
    },
    {
      "anonymous": false,
      "inputs": [
        {
          "indexed": false,
          "internalType": "address[]",
          "name": "Addresses",
          "type": "address[]"
        },
        {
          "indexed": false,
          "internalType": "bool",
          "name": "Status",
          "type": "bool"
        }
      ],
      "name": "WhitelistedAddressEggnite",
      "type": "event"
    },
    {
      "inputs": [],
      "name": "ARCAddress",
      "outputs": [
        {
          "internalType": "contract Mintpeg",
          "name": "",
          "type": "address"
        }
      ],
      "stateMutability": "view",
      "type": "function"
    },
    {
      "inputs": [
        {
          "internalType": "uint256",
          "name": "",
          "type": "uint256"
        },
        {
          "internalType": "uint256",
          "name": "",
          "type": "uint256"
        }
      ],
      "name": "FactoryPools",
      "outputs": [
        {
          "internalType": "uint256",
          "name": "poolId",
          "type": "uint256"
        },
        {
          "internalType": "uint256",
          "name": "totalQuantityARC",
          "type": "uint256"
        },
        {
          "internalType": "uint256",
          "name": "quantityCounterARC",
          "type": "uint256"
        },
        {
          "internalType": "uint256",
          "name": "NiozPriceARC",
          "type": "uint256"
        },
        {
          "internalType": "uint256",
          "name": "avaxPriceARC",
          "type": "uint256"
        },
        {
          "internalType": "uint256",
          "name": "totalQuantityARF",
          "type": "uint256"
        },
        {
          "internalType": "uint256",
          "name": "quantityCounterARF",
          "type": "uint256"
        },
        {
          "internalType": "uint256",
          "name": "NiozPriceARF",
          "type": "uint256"
        },
        {
          "internalType": "uint256",
          "name": "avaxPriceARF",
          "type": "uint256"
        }
      ],
      "stateMutability": "view",
      "type": "function"
    },
    {
      "inputs": [
        {
          "internalType": "uint256",
          "name": "_token_id",
          "type": "uint256"
        }
      ],
      "name": "Joepegs",
      "outputs": [],
      "stateMutability": "nonpayable",
      "type": "function"
    },
    {
      "inputs": [
        {
          "internalType": "uint256[]",
          "name": "_token_id",
          "type": "uint256[]"
        }
      ],
      "name": "JoepegsMultiple",
      "outputs": [],
      "stateMutability": "nonpayable",
      "type": "function"
    },
    {
      "inputs": [],
      "name": "JoepegsTokenAddress",
      "outputs": [
        {
          "internalType": "contract Mintpeg",
          "name": "",
          "type": "address"
        }
      ],
      "stateMutability": "view",
      "type": "function"
    },
    {
      "inputs": [],
      "name": "MerchantWallet",
      "outputs": [
        {
          "internalType": "address",
          "name": "",
          "type": "address"
        }
      ],
      "stateMutability": "view",
      "type": "function"
    },
    {
      "inputs": [
        {
          "internalType": "uint256",
          "name": "",
          "type": "uint256"
        }
      ],
      "name": "NFTtypes",
      "outputs": [
        {
          "internalType": "string",
          "name": "",
          "type": "string"
        }
      ],
      "stateMutability": "view",
      "type": "function"
    },
    {
      "inputs": [],
      "name": "NiozERC20Address",
      "outputs": [
        {
          "internalType": "contract IERC20Upgradeable",
          "name": "",
          "type": "address"
        }
      ],
      "stateMutability": "view",
      "type": "function"
    },
    {
      "inputs": [],
      "name": "allowedPrinters",
      "outputs": [
        {
          "internalType": "uint256",
          "name": "",
          "type": "uint256"
        }
      ],
      "stateMutability": "view",
      "type": "function"
    },
    {
      "inputs": [
        {
          "internalType": "address",
          "name": "to",
          "type": "address"
        },
        {
          "internalType": "uint256",
          "name": "tokenId",
          "type": "uint256"
        }
      ],
      "name": "approve",
      "outputs": [],
      "stateMutability": "nonpayable",
      "type": "function"
    },
    {
      "inputs": [
        {
          "internalType": "address",
          "name": "owner",
          "type": "address"
        }
      ],
      "name": "balanceOf",
      "outputs": [
        {
          "internalType": "uint256",
          "name": "",
          "type": "uint256"
        }
      ],
      "stateMutability": "view",
      "type": "function"
    },
    {
      "inputs": [
        {
          "components": [
            {
              "internalType": "uint256",
              "name": "Id",
              "type": "uint256"
            },
            {
              "internalType": "uint256",
              "name": "amount",
              "type": "uint256"
            },
            {
              "internalType": "bytes32",
              "name": "messageHash",
              "type": "bytes32"
            }
          ],
          "internalType": "struct ArfERC721V1.SellOrder",
          "name": "_order",
          "type": "tuple"
        },
        {
          "internalType": "bytes",
          "name": "_signature",
          "type": "bytes"
        }
      ],
      "name": "buy",
      "outputs": [],
      "stateMutability": "payable",
      "type": "function"
    },
    {
      "inputs": [
        {
          "internalType": "uint256",
          "name": "",
          "type": "uint256"
        }
      ],
      "name": "checkEpochStatus",
      "outputs": [
        {
          "internalType": "bool",
          "name": "",
          "type": "bool"
        }
      ],
      "stateMutability": "view",
      "type": "function"
    },
    {
      "inputs": [
        {
          "internalType": "uint256",
          "name": "",
          "type": "uint256"
        }
      ],
      "name": "epochDetails",
      "outputs": [
        {
          "internalType": "uint256",
          "name": "totalQuantityARF",
          "type": "uint256"
        },
        {
          "internalType": "uint256",
          "name": "quantityCounterARF",
          "type": "uint256"
        },
        {
          "internalType": "uint256",
          "name": "totalQuantityARC",
          "type": "uint256"
        },
        {
          "internalType": "uint256",
          "name": "quantityCounterARC",
          "type": "uint256"
        }
      ],
      "stateMutability": "view",
      "type": "function"
    },
    {
      "inputs": [
        {
          "internalType": "uint256",
          "name": "_total_amount",
          "type": "uint256"
        }
      ],
      "name": "feeCalculation",
      "outputs": [
        {
          "internalType": "uint256",
          "name": "Fee",
          "type": "uint256"
        }
      ],
      "stateMutability": "view",
      "type": "function"
    },
    {
      "inputs": [
        {
          "internalType": "uint256",
          "name": "tokenId",
          "type": "uint256"
        }
      ],
      "name": "getApproved",
      "outputs": [
        {
          "internalType": "address",
          "name": "",
          "type": "address"
        }
      ],
      "stateMutability": "view",
      "type": "function"
    },
    {
      "inputs": [],
      "name": "initialize",
      "outputs": [],
      "stateMutability": "nonpayable",
      "type": "function"
    },
    {
      "inputs": [
        {
          "internalType": "address",
          "name": "owner",
          "type": "address"
        },
        {
          "internalType": "address",
          "name": "operator",
          "type": "address"
        }
      ],
      "name": "isApprovedForAll",
      "outputs": [
        {
          "internalType": "bool",
          "name": "",
          "type": "bool"
        }
      ],
      "stateMutability": "view",
      "type": "function"
    },
    {
      "inputs": [
        {
          "internalType": "bytes",
          "name": "",
          "type": "bytes"
        }
      ],
      "name": "isVerified",
      "outputs": [
        {
          "internalType": "bool",
          "name": "",
          "type": "bool"
        }
      ],
      "stateMutability": "view",
      "type": "function"
    },
    {
      "inputs": [],
      "name": "mintARC",
      "outputs": [],
      "stateMutability": "nonpayable",
      "type": "function"
    },
    {
      "inputs": [],
      "name": "mintARF",
      "outputs": [],
      "stateMutability": "nonpayable",
      "type": "function"
    },
    {
      "inputs": [],
      "name": "mintEggnite",
      "outputs": [],
      "stateMutability": "nonpayable",
      "type": "function"
    },
    {
      "inputs": [
        {
          "internalType": "uint256",
          "name": "epoch_id",
          "type": "uint256"
        }
      ],
      "name": "mintInternalARC",
      "outputs": [],
      "stateMutability": "nonpayable",
      "type": "function"
    },
    {
      "inputs": [
        {
          "internalType": "uint256",
          "name": "epoch_id",
          "type": "uint256"
        }
      ],
      "name": "mintInternalARF",
      "outputs": [],
      "stateMutability": "nonpayable",
      "type": "function"
    },
    {
      "inputs": [
        {
          "components": [
            {
              "internalType": "uint256",
              "name": "epoch_id",
              "type": "uint256"
            },
            {
              "internalType": "uint256",
              "name": "pool_id",
              "type": "uint256"
            },
            {
              "internalType": "uint256",
              "name": "quantity",
              "type": "uint256"
            },
            {
              "internalType": "bytes32",
              "name": "message_hash",
              "type": "bytes32"
            }
          ],
          "internalType": "struct ArfERC721V1.Order",
          "name": "_order",
          "type": "tuple"
        },
        {
          "internalType": "bytes",
          "name": "_signature",
          "type": "bytes"
        },
        {
          "internalType": "bool",
          "name": "isLimited",
          "type": "bool"
        }
      ],
      "name": "mintPrinterARF",
      "outputs": [],
      "stateMutability": "payable",
      "type": "function"
    },
    {
      "inputs": [],
      "name": "name",
      "outputs": [
        {
          "internalType": "string",
          "name": "",
          "type": "string"
        }
      ],
      "stateMutability": "view",
      "type": "function"
    },
    {
      "inputs": [],
      "name": "owner",
      "outputs": [
        {
          "internalType": "address",
          "name": "",
          "type": "address"
        }
      ],
      "stateMutability": "view",
      "type": "function"
    },
    {
      "inputs": [
        {
          "internalType": "uint256",
          "name": "tokenId",
          "type": "uint256"
        }
      ],
      "name": "ownerOf",
      "outputs": [
        {
          "internalType": "address",
          "name": "",
          "type": "address"
        }
      ],
      "stateMutability": "view",
      "type": "function"
    },
    {
      "inputs": [],
      "name": "renounceOwnership",
      "outputs": [],
      "stateMutability": "nonpayable",
      "type": "function"
    },
    {
      "inputs": [
        {
          "internalType": "address",
          "name": "from",
          "type": "address"
        },
        {
          "internalType": "address",
          "name": "to",
          "type": "address"
        },
        {
          "internalType": "uint256",
          "name": "tokenId",
          "type": "uint256"
        }
      ],
      "name": "safeTransferFrom",
      "outputs": [],
      "stateMutability": "nonpayable",
      "type": "function"
    },
    {
      "inputs": [
        {
          "internalType": "address",
          "name": "from",
          "type": "address"
        },
        {
          "internalType": "address",
          "name": "to",
          "type": "address"
        },
        {
          "internalType": "uint256",
          "name": "tokenId",
          "type": "uint256"
        },
        {
          "internalType": "bytes",
          "name": "data",
          "type": "bytes"
        }
      ],
      "name": "safeTransferFrom",
      "outputs": [],
      "stateMutability": "nonpayable",
      "type": "function"
    },
    {
      "inputs": [
        {
          "internalType": "address",
          "name": "operator",
          "type": "address"
        },
        {
          "internalType": "bool",
          "name": "approved",
          "type": "bool"
        }
      ],
      "name": "setApprovalForAll",
      "outputs": [],
      "stateMutability": "nonpayable",
      "type": "function"
    },
    {
      "inputs": [
        {
          "internalType": "bytes4",
          "name": "interfaceId",
          "type": "bytes4"
        }
      ],
      "name": "supportsInterface",
      "outputs": [
        {
          "internalType": "bool",
          "name": "",
          "type": "bool"
        }
      ],
      "stateMutability": "view",
      "type": "function"
    },
    {
      "inputs": [],
      "name": "symbol",
      "outputs": [
        {
          "internalType": "string",
          "name": "",
          "type": "string"
        }
      ],
      "stateMutability": "view",
      "type": "function"
    },
    {
      "inputs": [],
      "name": "tokenCounter",
      "outputs": [
        {
          "internalType": "uint256",
          "name": "",
          "type": "uint256"
        }
      ],
      "stateMutability": "view",
      "type": "function"
    },
    {
      "inputs": [
        {
          "internalType": "uint256",
          "name": "_tokenId",
          "type": "uint256"
        }
      ],
      "name": "tokenURI",
      "outputs": [
        {
          "internalType": "string",
          "name": "",
          "type": "string"
        }
      ],
      "stateMutability": "view",
      "type": "function"
    },
    {
      "inputs": [
        {
          "internalType": "address",
          "name": "from",
          "type": "address"
        },
        {
          "internalType": "address",
          "name": "to",
          "type": "address"
        },
        {
          "internalType": "uint256",
          "name": "tokenId",
          "type": "uint256"
        }
      ],
      "name": "transferFrom",
      "outputs": [],
      "stateMutability": "nonpayable",
      "type": "function"
    },
    {
      "inputs": [
        {
          "internalType": "address",
          "name": "newOwner",
          "type": "address"
        }
      ],
      "name": "transferOwnership",
      "outputs": [],
      "stateMutability": "nonpayable",
      "type": "function"
    },
    {
      "inputs": [
        {
          "internalType": "string",
          "name": "_baseuri",
          "type": "string"
        },
        {
          "internalType": "string",
          "name": "_extension",
          "type": "string"
        }
      ],
      "name": "upadateDefaultUri",
      "outputs": [],
      "stateMutability": "nonpayable",
      "type": "function"
    },
    {
      "inputs": [
        {
          "internalType": "uint256",
          "name": "_epoch_id",
          "type": "uint256"
        },
        {
          "internalType": "uint256[]",
          "name": "_pool_id",
          "type": "uint256[]"
        },
        {
          "internalType": "uint256[]",
          "name": "_quantity_arf",
          "type": "uint256[]"
        },
        {
          "internalType": "uint256[]",
          "name": "_avax_price",
          "type": "uint256[]"
        },
        {
          "internalType": "uint256[]",
          "name": "_Nioz_price",
          "type": "uint256[]"
        }
      ],
      "name": "updateARCPoolDetails",
      "outputs": [],
      "stateMutability": "nonpayable",
      "type": "function"
    },
    {
      "inputs": [
        {
          "internalType": "uint256",
          "name": "_epoch_id",
          "type": "uint256"
        },
        {
          "internalType": "uint256[]",
          "name": "_pool_id",
          "type": "uint256[]"
        },
        {
          "internalType": "uint256[]",
          "name": "_quantity_arf",
          "type": "uint256[]"
        },
        {
          "internalType": "uint256[]",
          "name": "_avax_price",
          "type": "uint256[]"
        },
        {
          "internalType": "uint256[]",
          "name": "_Nioz_price",
          "type": "uint256[]"
        }
      ],
      "name": "updateARFPoolDetails",
      "outputs": [],
      "stateMutability": "nonpayable",
      "type": "function"
    },
    {
      "inputs": [
        {
          "internalType": "uint256",
          "name": "epoch_id",
          "type": "uint256"
        },
        {
          "internalType": "uint256",
          "name": "pool_id",
          "type": "uint256"
        },
        {
          "internalType": "uint256",
          "name": "quantity",
          "type": "uint256"
        }
      ],
      "name": "updateCounter",
      "outputs": [],
      "stateMutability": "nonpayable",
      "type": "function"
    },
    {
      "inputs": [
        {
          "internalType": "uint256[]",
          "name": "_epoch_id",
          "type": "uint256[]"
        },
        {
          "internalType": "uint256[]",
          "name": "_quantity_arc",
          "type": "uint256[]"
        },
        {
          "internalType": "uint256[]",
          "name": "_quantity_arf",
          "type": "uint256[]"
        }
      ],
      "name": "updateEpochDetails",
      "outputs": [],
      "stateMutability": "nonpayable",
      "type": "function"
    },
    {
      "inputs": [
        {
          "internalType": "uint256[]",
          "name": "_epoch_id",
          "type": "uint256[]"
        },
        {
          "internalType": "bool",
          "name": "_status",
          "type": "bool"
        }
      ],
      "name": "updateEpochStatus",
      "outputs": [],
      "stateMutability": "nonpayable",
      "type": "function"
    },
    {
      "inputs": [
        {
          "internalType": "address",
          "name": "_joepeg_address",
          "type": "address"
        },
        {
          "internalType": "address",
          "name": "_arc_address",
          "type": "address"
        },
        {
          "internalType": "address",
          "name": "_merchant_address",
          "type": "address"
        },
        {
          "internalType": "address",
          "name": "_Nioz_address",
          "type": "address"
        },
        {
          "internalType": "uint256",
          "name": "_num_allowed",
          "type": "uint256"
        }
      ],
      "name": "updateWallets",
      "outputs": [],
      "stateMutability": "nonpayable",
      "type": "function"
    },
    {
      "inputs": [
        {
          "internalType": "address[]",
          "name": "_address",
          "type": "address[]"
        },
        {
          "internalType": "bool",
          "name": "_status",
          "type": "bool"
        }
      ],
      "name": "whitelistARCAddresses",
      "outputs": [],
      "stateMutability": "nonpayable",
      "type": "function"
    },
    {
      "inputs": [
        {
          "internalType": "address[]",
          "name": "_address",
          "type": "address[]"
        },
        {
          "internalType": "bool",
          "name": "_status",
          "type": "bool"
        }
      ],
      "name": "whitelistARCAlloyTeam",
      "outputs": [],
      "stateMutability": "nonpayable",
      "type": "function"
    },
    {
      "inputs": [
        {
          "internalType": "address[]",
          "name": "_address",
          "type": "address[]"
        },
        {
          "internalType": "bool",
          "name": "_status",
          "type": "bool"
        }
      ],
      "name": "whitelistARCReserves",
      "outputs": [],
      "stateMutability": "nonpayable",
      "type": "function"
    },
    {
      "inputs": [
        {
          "internalType": "address[]",
          "name": "_address",
          "type": "address[]"
        },
        {
          "internalType": "bool",
          "name": "_status",
          "type": "bool"
        }
      ],
      "name": "whitelistARFAddresses",
      "outputs": [],
      "stateMutability": "nonpayable",
      "type": "function"
    },
    {
      "inputs": [
        {
          "internalType": "address[]",
          "name": "_address",
          "type": "address[]"
        },
        {
          "internalType": "bool",
          "name": "_status",
          "type": "bool"
        }
      ],
      "name": "whitelistARFAlloyTeam",
      "outputs": [],
      "stateMutability": "nonpayable",
      "type": "function"
    },
    {
      "inputs": [
        {
          "internalType": "address[]",
          "name": "_address",
          "type": "address[]"
        },
        {
          "internalType": "bool",
          "name": "_status",
          "type": "bool"
        }
      ],
      "name": "whitelistARFReserves",
      "outputs": [],
      "stateMutability": "nonpayable",
      "type": "function"
    },
    {
      "inputs": [
        {
          "internalType": "address[]",
          "name": "_address",
          "type": "address[]"
        },
        {
          "internalType": "bool",
          "name": "_status",
          "type": "bool"
        }
      ],
      "name": "whitelistAddressesEggnite",
      "outputs": [],
      "stateMutability": "nonpayable",
      "type": "function"
    },
    {
      "inputs": [
        {
          "internalType": "address",
          "name": "",
          "type": "address"
        }
      ],
      "name": "whitelistedARCAddress",
      "outputs": [
        {
          "internalType": "bool",
          "name": "",
          "type": "bool"
        }
      ],
      "stateMutability": "view",
      "type": "function"
    },
    {
      "inputs": [
        {
          "internalType": "address",
          "name": "",
          "type": "address"
        }
      ],
      "name": "whitelistedARCAlloyTeam",
      "outputs": [
        {
          "internalType": "bool",
          "name": "",
          "type": "bool"
        }
      ],
      "stateMutability": "view",
      "type": "function"
    },
    {
      "inputs": [
        {
          "internalType": "address",
          "name": "",
          "type": "address"
        }
      ],
      "name": "whitelistedARCReserve",
      "outputs": [
        {
          "internalType": "bool",
          "name": "",
          "type": "bool"
        }
      ],
      "stateMutability": "view",
      "type": "function"
    },
    {
      "inputs": [
        {
          "internalType": "address",
          "name": "",
          "type": "address"
        }
      ],
      "name": "whitelistedARFAddress",
      "outputs": [
        {
          "internalType": "bool",
          "name": "",
          "type": "bool"
        }
      ],
      "stateMutability": "view",
      "type": "function"
    },
    {
      "inputs": [
        {
          "internalType": "address",
          "name": "",
          "type": "address"
        }
      ],
      "name": "whitelistedARFAlloyTeam",
      "outputs": [
        {
          "internalType": "bool",
          "name": "",
          "type": "bool"
        }
      ],
      "stateMutability": "view",
      "type": "function"
    },
    {
      "inputs": [
        {
          "internalType": "address",
          "name": "",
          "type": "address"
        }
      ],
      "name": "whitelistedARFReserve",
      "outputs": [
        {
          "internalType": "bool",
          "name": "",
          "type": "bool"
        }
      ],
      "stateMutability": "view",
      "type": "function"
    },
    {
      "inputs": [
        {
          "internalType": "address",
          "name": "",
          "type": "address"
        }
      ],
      "name": "whitelistedAddressEggnite",
      "outputs": [
        {
          "internalType": "bool",
          "name": "",
          "type": "bool"
        }
      ],
      "stateMutability": "view",
      "type": "function"
    }
  ],
  "bytecode": "0x60806040523480156200001157600080fd5b5061af9780620000226000396000f3fe60806040526004361061038b5760003560e01c80637ebededb116101dc578063c87b56dd11610102578063dbd419ed116100a0578063ec4370381161006f578063ec43703814610d82578063ecc228ce14610dbf578063edda705914610dd6578063f2fde38b14610dff5761038b565b8063dbd419ed14610cb3578063e329cf7b14610cdc578063e561084f14610d1c578063e985e9c514610d455761038b565b8063cb73bff1116100dc578063cb73bff114610bf7578063d082e38114610c22578063d87df9e214610c4d578063db0a488214610c8a5761038b565b8063c87b56dd14610b54578063c8d5c0e214610b91578063c994180614610bba5761038b565b806395d89b411161017a578063a22cb46511610149578063a22cb46514610a9c578063a7397c2e14610ac5578063b88d4fde14610aee578063c3e50abb14610b175761038b565b806395d89b41146109f657806397c04edb14610a2157806399c37a1f14610a4a5780639ddb234c14610a735761038b565b80638e6b86cb116101b65780638e6b86cb1461095d578063937091091461099a5780639401c1e4146109b15780639533d573146109cd5761038b565b80637ebededb146108f25780638129fc1c1461091b5780638da5cb5b146109325761038b565b806332a5b0aa116102c157806363a205f71161025f5780636ef1eee41161022e5780636ef1eee41461084857806370a0823114610873578063715018a6146108b05780637dd12d15146108c75761038b565b806363a205f7146107685780636c7b7f6c146107915780636d998f01146107ce5780636eda504e1461080b5761038b565b806342842e0e1161029b57806342842e0e146106b05780635d952d25146106d957806361ffc012146107025780636352211e1461072b5761038b565b806332a5b0aa1461061f578063399b3798146106485780633a988498146106735761038b565b806310a6d1341161032e57806319d17e511161030857806319d17e51146105375780631a924fd51461057457806323b872dd146105b95780632c7d077e146105e25761038b565b806310a6d134146104ce57806313de306a146104f75780631424f9361461050e5761038b565b806306fdde031161036a57806306fdde0314610412578063081812fc1461043d578063095ea7b31461047a5780630c53efe6146104a35761038b565b80621640c21461039057806301ffc9a7146103b957806303ecaa95146103f6575b600080fd5b34801561039c57600080fd5b506103b760048036038101906103b29190618434565b610e28565b005b3480156103c557600080fd5b506103e060048036038101906103db9190618588565b61108d565b6040516103ed91906185d0565b60405180910390f35b610410600480360381019061040b919061877c565b61116f565b005b34801561041e57600080fd5b50610427611e37565b604051610434919061886a565b60405180910390f35b34801561044957600080fd5b50610464600480360381019061045f919061888c565b611ec9565b60405161047191906188fa565b60405180910390f35b34801561048657600080fd5b506104a1600480360381019061049c9190618941565b611f0f565b005b3480156104af57600080fd5b506104b8612026565b6040516104c59190618990565b60405180910390f35b3480156104da57600080fd5b506104f560048036038101906104f091906189ab565b61202d565b005b34801561050357600080fd5b5061050c61285f565b005b34801561051a57600080fd5b5061053560048036038101906105309190618a4e565b612cfe565b005b34801561054357600080fd5b5061055e60048036038101906105599190618aae565b612e87565b60405161056b91906185d0565b60405180910390f35b34801561058057600080fd5b5061059b60048036038101906105969190618adb565b612ea8565b6040516105b099989796959493929190618b1b565b60405180910390f35b3480156105c557600080fd5b506105e060048036038101906105db9190618ba8565b612f04565b005b3480156105ee57600080fd5b506106096004803603810190610604919061888c565b612f64565b6040516106169190618990565b60405180910390f35b34801561062b57600080fd5b506106466004803603810190610641919061888c565b61303f565b005b34801561065457600080fd5b5061065d61364e565b60405161066a9190618c5a565b60405180910390f35b34801561067f57600080fd5b5061069a6004803603810190610695919061888c565b613675565b6040516106a791906185d0565b60405180910390f35b3480156106bc57600080fd5b506106d760048036038101906106d29190618ba8565b613695565b005b3480156106e557600080fd5b5061070060048036038101906106fb9190618a4e565b6136b5565b005b34801561070e57600080fd5b5061072960048036038101906107249190618434565b61383e565b005b34801561073757600080fd5b50610752600480360381019061074d919061888c565b613aa3565b60405161075f91906188fa565b60405180910390f35b34801561077457600080fd5b5061078f600480360381019061078a919061888c565b613b29565b005b34801561079d57600080fd5b506107b860048036038101906107b39190618aae565b6140cf565b6040516107c591906185d0565b60405180910390f35b3480156107da57600080fd5b506107f560048036038101906107f0919061888c565b6140f0565b604051610802919061886a565b60405180910390f35b34801561081757600080fd5b50610832600480360381019061082d9190618aae565b614191565b60405161083f91906185d0565b60405180910390f35b34801561085457600080fd5b5061085d6141b2565b60405161086a9190618c5a565b60405180910390f35b34801561087f57600080fd5b5061089a60048036038101906108959190618aae565b6141d9565b6040516108a79190618990565b60405180910390f35b3480156108bc57600080fd5b506108c5614290565b005b3480156108d357600080fd5b506108dc6142a4565b6040516108e991906188fa565b60405180910390f35b3480156108fe57600080fd5b5061091960048036038101906109149190618c75565b6142cb565b005b34801561092757600080fd5b50610930614423565b005b34801561093e57600080fd5b50610947614b40565b60405161095491906188fa565b60405180910390f35b34801561096957600080fd5b50610984600480360381019061097f9190618aae565b614b6a565b60405161099191906185d0565b60405180910390f35b3480156109a657600080fd5b506109af614b8b565b005b6109cb60048036038101906109c69190618dc8565b614f48565b005b3480156109d957600080fd5b506109f460048036038101906109ef9190618a4e565b6154df565b005b348015610a0257600080fd5b50610a0b615668565b604051610a18919061886a565b60405180910390f35b348015610a2d57600080fd5b50610a486004803603810190610a439190618ec5565b6156fa565b005b348015610a5657600080fd5b50610a716004803603810190610a6c9190618f3d565b61578a565b005b348015610a7f57600080fd5b50610a9a6004803603810190610a959190618a4e565b615949565b005b348015610aa857600080fd5b50610ac36004803603810190610abe9190618fb8565b615ad2565b005b348015610ad157600080fd5b50610aec6004803603810190610ae79190618a4e565b615ae8565b005b348015610afa57600080fd5b50610b156004803603810190610b109190618ff8565b615c71565b005b348015610b2357600080fd5b50610b3e6004803603810190610b399190618aae565b615cd3565b604051610b4b91906185d0565b60405180910390f35b348015610b6057600080fd5b50610b7b6004803603810190610b76919061888c565b615cf4565b604051610b88919061886a565b60405180910390f35b348015610b9d57600080fd5b50610bb86004803603810190610bb39190618a4e565b615dff565b005b348015610bc657600080fd5b50610be16004803603810190610bdc919061907b565b615f88565b604051610bee91906185d0565b60405180910390f35b348015610c0357600080fd5b50610c0c615fbf565b604051610c1991906190e5565b60405180910390f35b348015610c2e57600080fd5b50610c37615fe6565b604051610c449190618990565b60405180910390f35b348015610c5957600080fd5b50610c746004803603810190610c6f9190618aae565b615fec565b604051610c8191906185d0565b60405180910390f35b348015610c9657600080fd5b50610cb16004803603810190610cac9190618a4e565b61600d565b005b348015610cbf57600080fd5b50610cda6004803603810190610cd5919061888c565b616196565b005b348015610ce857600080fd5b50610d036004803603810190610cfe919061888c565b6167b8565b604051610d139493929190619100565b60405180910390f35b348015610d2857600080fd5b50610d436004803603810190610d3e9190619145565b6167e8565b005b348015610d5157600080fd5b50610d6c6004803603810190610d679190619198565b616976565b604051610d7991906185d0565b60405180910390f35b348015610d8e57600080fd5b50610da96004803603810190610da49190618aae565b616a0a565b604051610db691906185d0565b60405180910390f35b348015610dcb57600080fd5b50610dd4616a2b565b005b348015610de257600080fd5b50610dfd6004803603810190610df891906191d8565b616d80565b005b348015610e0b57600080fd5b50610e266004803603810190610e219190618aae565b616e6b565b005b610e3c67f460618a769d82f460c01b616eee565b610e44616ef1565b610e5867786236b3a5779d1e60c01b616eee565b610e6c67f589009373053c0d60c01b616eee565b610e80670d95bde4b89a9bf060c01b616eee565b610e9467c15065507d35a7a460c01b616eee565b60005b8888905081101561108157610eb6670b17834eb62453f460c01b616eee565b888882818110610ec957610ec8619238565b5b9050602002013561010960008c815260200190815260200160002060008b8b85818110610ef957610ef8619238565b5b90506020020135815260200190815260200160002060000181905550610f2967fcf8d62d58b9fc3560c01b616eee565b868682818110610f3c57610f3b619238565b5b9050602002013561010960008c815260200190815260200160002060008b8b85818110610f6c57610f6b619238565b5b90506020020135815260200190815260200160002060010181905550610f9c67eae0954207c0a50460c01b616eee565b848482818110610faf57610fae619238565b5b9050602002013561010960008c815260200190815260200160002060008b8b85818110610fdf57610fde619238565b5b9050602002013581526020019081526020016000206004018190555061100f6780f25a8e341ef82a60c01b616eee565b82828281811061102257611021619238565b5b9050602002013561010960008c815260200190815260200160002060008b8b8581811061105257611051619238565b5b90506020020135815260200190815260200160002060030181905550808061107990619296565b915050610e97565b50505050505050505050565b60007f80ac58cd000000000000000000000000000000000000000000000000000000007bffffffffffffffffffffffffffffffffffffffffffffffffffffffff1916827bffffffffffffffffffffffffffffffffffffffffffffffffffffffff1916148061115857507f5b5e139f000000000000000000000000000000000000000000000000000000007bffffffffffffffffffffffffffffffffffffffffffffffffffffffff1916827bffffffffffffffffffffffffffffffffffffffffffffffffffffffff1916145b80611168575061116782616f6f565b5b9050919050565b61118367d69dccebfbf220d960c01b616eee565b61118b616fd9565b61119f6721ffd2181bc9e94b60c01b616eee565b6111b26649bd3b1836b8bd60c01b616eee565b6111c6670fe9d27cfe505b0d60c01b616eee565b6111da67c0889d2932af7e7960c01b616eee565b6111ee67d8ae535435b3aa7460c01b616eee565b6112046111f9614b40565b846060013584617028565b801561123a575061010b8260405161121c9190619325565b908152602001604051809103902060009054906101000a900460ff16155b80156112e0575061010d60009054906101000a900473ffffffffffffffffffffffffffffffffffffffff1673ffffffffffffffffffffffffffffffffffffffff1663c9941806836040518263ffffffff1660e01b815260040161129d9190619386565b602060405180830381865afa1580156112ba573d6000803e3d6000fd5b505050506040513d601f19601f820116820180604052508101906112de91906193bd565b155b8015611386575061010160009054906101000a900473ffffffffffffffffffffffffffffffffffffffff1673ffffffffffffffffffffffffffffffffffffffff1663c9941806836040518263ffffffff1660e01b81526004016113439190619386565b602060405180830381865afa158015611360573d6000803e3d6000fd5b505050506040513d601f19601f8201168201806040525081019061138491906193bd565b155b6113c5576040517f08c379a00000000000000000000000000000000000000000000000000000000081526004016113bc90619436565b60405180910390fd5b6113d9677abb46932096052c60c01b616eee565b6113ed67d79886a16959fe1860c01b616eee565b61140167ba7494dfb877332360c01b616eee565b61141567a965d8c65fd8ba1060c01b616eee565b60ff60008460000135815260200190815260200160002060009054906101000a900460ff1680156114895750826040013560fe6000856000013581526020019081526020016000206001015461146b9190619456565b60fe6000856000013581526020019081526020016000206000015410155b80156115275750600683600001351480156114b457506114b3670cf4910eaa1b3f9e60c01b6171ee565b5b806114fb5750600783600001351480156114de57506114dd6712635277c999b14f60c01b6171ee565b5b80156114fa57506114f9677d0eb805f261f9bc60c01b6171ee565b5b5b80611526575060088360000135148015611525575061152467b76b0d7de96b115d60c01b6171ee565b5b5b5b80156115935750610109600084600001358152602001908152602001600020600084602001358152602001908152602001600020600601546101096000856000013581526020019081526020016000206000856020013581526020019081526020016000206005015410155b6115d2576040517f08c379a00000000000000000000000000000000000000000000000000000000081526004016115c9906194fc565b60405180910390fd5b6115e66751b16e75798a819560c01b616eee565b6115fa67d49eb49266f7bc6f60c01b616eee565b61160e673c8053d67521d5e660c01b616eee565b606061162467bc17a95006fee79a60c01b616eee565b611638676f79deedbc40db7a60c01b616eee565b61164c6788ede41194baef7860c01b616eee565b61010c5484604001351115611696576040517f08c379a000000000000000000000000000000000000000000000000000000000815260040161168d90619568565b60405180910390fd5b6116aa67fedd81b5c7200d5660c01b616eee565b6116be676ec5a4b66b9b913160c01b616eee565b836040013567ffffffffffffffff8111156116dc576116db618625565b5b60405190808252806020026020018201604052801561170a5781602001602082028036833780820191505090505b5090506117216740b662fb05fcbca260c01b616eee565b61173567afdebcfea51ed5c860c01b616eee565b60005b846040013581101561185c5761175867f9a6da5ed974c18560c01b616eee565b600160fb600082825461176b9190619456565b925050819055506117866703ef4a7c9c33677560c01b616eee565b6040518060400160405280600781526020017f5052494e5445520000000000000000000000000000000000000000000000000081525061010a600060fb54815260200190815260200160002090816117de919061978a565b506117f367b3f5cfc9586524b760c01b616eee565b61180767b7879f32a947d1bd60c01b616eee565b6118133360fb546171f9565b61182767742f93212885d6dc60c01b616eee565b60fb5482828151811061183d5761183c619238565b5b602002602001018181525050808061185490619296565b915050611738565b50611871670a9f964f69a3c5a460c01b616eee565b61188567343848ee4cf5126960c01b616eee565b61010e60009054906101000a900473ffffffffffffffffffffffffffffffffffffffff1673ffffffffffffffffffffffffffffffffffffffff166108fc349081150290604051600060405180830381858888f193505050501580156118ee573d6000803e3d6000fd5b5061190367b988e3d26c2536df60c01b616eee565b6119176781962001491ca2d560c01b616eee565b6000610109600086600001358152602001908152602001600020600086602001358152602001908152602001600020600301541115611c7d5761196467fe0f64c70b0713fc60c01b616eee565b61197867b7872ecb2655b90a60c01b616eee565b61198c67322431d1b0f96b7a60c01b616eee565b61010d60009054906101000a900473ffffffffffffffffffffffffffffffffffffffff1673ffffffffffffffffffffffffffffffffffffffff1663d1660f993330610109600089600001358152602001908152602001600020600089602001358152602001908152602001600020600701546040518463ffffffff1660e01b8152600401611a1c9392919061985c565b600060405180830381600087803b158015611a3657600080fd5b505af1158015611a4a573d6000803e3d6000fd5b50505050611a6267e372c9e551e4ac9860c01b616eee565b611a766780bdfd8d72651c7e60c01b616eee565b61010d60009054906101000a900473ffffffffffffffffffffffffffffffffffffffff1673ffffffffffffffffffffffffffffffffffffffff1663095ea7b361010e60009054906101000a900473ffffffffffffffffffffffffffffffffffffffff16610109600088600001358152602001908152602001600020600088602001358152602001908152602001600020600701546040518363ffffffff1660e01b8152600401611b27929190619893565b6020604051808303816000875af1158015611b46573d6000803e3d6000fd5b505050506040513d601f19601f82011682018060405250810190611b6a91906193bd565b50611b7f67e3deabf9e0eb988560c01b616eee565b611b93670255802ac8473ac760c01b616eee565b61010d60009054906101000a900473ffffffffffffffffffffffffffffffffffffffff1673ffffffffffffffffffffffffffffffffffffffff1663d1660f993061010e60009054906101000a900473ffffffffffffffffffffffffffffffffffffffff16610109600089600001358152602001908152602001600020600089602001358152602001908152602001600020600301546040518463ffffffff1660e01b8152600401611c469392919061985c565b600060405180830381600087803b158015611c6057600080fd5b505af1158015611c74573d6000803e3d6000fd5b50505050611c92565b611c916718a8eb7a97c7216a60c01b616eee565b5b611ca6672f044e59dd88473260c01b616eee565b836040013560fe6000866000013581526020019081526020016000206003016000828254611cd49190619456565b92505081905550611cef670d5ea373bb13602760c01b616eee565b83604001356101096000866000013581526020019081526020016000206000866020013581526020019081526020016000206006016000828254611d339190619456565b92505081905550611d4e67d2e1e1f612bf930060c01b616eee565b600161010b84604051611d619190619325565b908152602001604051809103902060006101000a81548160ff021916908315150217905550611d9a67a6fbc027df3c5ffa60c01b616eee565b611dae671612c3b4740b952b60c01b616eee565b7f51648125ce33694873381e0c4ad7f8ef183c08887969bef55995f6feb91f56733382866000013587602001353461010960008b60000135815260200190815260200160002060008b6020013581526020019081526020016000206003015488604051611e2197969594939291906199c6565b60405180910390a150611e32617217565b505050565b606060658054611e46906195b7565b80601f0160208091040260200160405190810160405280929190818152602001828054611e72906195b7565b8015611ebf5780601f10611e9457610100808354040283529160200191611ebf565b820191906000526020600020905b815481529060010190602001808311611ea257829003601f168201915b5050505050905090565b6000611ed482617221565b6069600083815260200190815260200160002060009054906101000a900473ffffffffffffffffffffffffffffffffffffffff169050919050565b6000611f1a82613aa3565b90508073ffffffffffffffffffffffffffffffffffffffff168373ffffffffffffffffffffffffffffffffffffffff1603611f8a576040517f08c379a0000000000000000000000000000000000000000000000000000000008152600401611f8190619ac2565b60405180910390fd5b8073ffffffffffffffffffffffffffffffffffffffff16611fa961726c565b73ffffffffffffffffffffffffffffffffffffffff161480611fd85750611fd781611fd261726c565b616976565b5b612017576040517f08c379a000000000000000000000000000000000000000000000000000000000815260040161200e90619b54565b60405180910390fd5b6120218383617274565b505050565b61010c5481565b61204167d54ed0c4b0eed86860c01b616eee565b612055675ff01bbf809fb61b60c01b616eee565b61206967bd78b2d313f3a8f360c01b616eee565b61207d6725e9a67861b2eaf760c01b616eee565b60ff60006005815260200190815260200160002060009054906101000a900460ff1680156120e7575060fe600060058152602001908152602001600020600001548282905060fe600060058152602001908152602001600020600101546120e49190619456565b11155b801561212f575060fe600060058152602001908152602001600020600201548282905060fe6000600581526020019081526020016000206003015461212c9190619456565b11155b61216e576040517f08c379a000000000000000000000000000000000000000000000000000000000815260040161216590619be6565b60405180910390fd5b61218267af59b59d7c3e894760c01b616eee565b6121966743a1499e679685ce60c01b616eee565b6121aa67d8fe0ffd953296bf60c01b616eee565b60008282905067ffffffffffffffff8111156121c9576121c8618625565b5b6040519080825280602002602001820160405280156121f75781602001602082028036833780820191505090505b50905061220e676567548b4511d78660c01b616eee565b612222675969833f396312d060c01b616eee565b60008383905067ffffffffffffffff81111561224157612240618625565b5b60405190808252806020026020018201604052801561226f5781602001602082028036833780820191505090505b5090506122866760b5fc252d650d2f60c01b616eee565b61229a675ebb725a7c6ca05760c01b616eee565b60005b848490508110156127ee576122bc6785d084d9a21a8d6560c01b616eee565b6122d0674c9d1c45cfdf789a60c01b616eee565b6122e467cec574007f76545a60c01b616eee565b3373ffffffffffffffffffffffffffffffffffffffff1661010060009054906101000a900473ffffffffffffffffffffffffffffffffffffffff1673ffffffffffffffffffffffffffffffffffffffff16636352211e87878581811061234d5761234c619238565b5b905060200201356040518263ffffffff1660e01b81526004016123709190618990565b602060405180830381865afa15801561238d573d6000803e3d6000fd5b505050506040513d601f19601f820116820180604052508101906123b19190619c1b565b73ffffffffffffffffffffffffffffffffffffffff1614612407576040517f08c379a00000000000000000000000000000000000000000000000000000000081526004016123fe90619c94565b60405180910390fd5b61241b67bcc2fa3b8626e1b860c01b616eee565b61242f6787819dd06c0d9ebb60c01b616eee565b61244367ce177d5c1679a6d260c01b616eee565b61010060009054906101000a900473ffffffffffffffffffffffffffffffffffffffff1673ffffffffffffffffffffffffffffffffffffffff166323b872dd333088888681811061249757612496619238565b5b905060200201356040518463ffffffff1660e01b81526004016124bc9392919061985c565b600060405180830381600087803b1580156124d657600080fd5b505af11580156124ea573d6000803e3d6000fd5b5050505061250267a37ca635c642f9cc60c01b616eee565b612516679abd896843babf9a60c01b616eee565b61010060009054906101000a900473ffffffffffffffffffffffffffffffffffffffff1673ffffffffffffffffffffffffffffffffffffffff166342966c6886868481811061256857612567619238565b5b905060200201356040518263ffffffff1660e01b815260040161258b9190618990565b600060405180830381600087803b1580156125a557600080fd5b505af11580156125b9573d6000803e3d6000fd5b505050506125d1674abd6aebf11dd4cd60c01b616eee565b6125e5673997d2a22180fd6760c01b616eee565b600061010160009054906101000a900473ffffffffffffffffffffffffffffffffffffffff1673ffffffffffffffffffffffffffffffffffffffff166358f5f8be336040518263ffffffff1660e01b815260040161264391906188fa565b6020604051808303816000875af1158015612662573d6000803e3d6000fd5b505050506040513d601f19601f820116820180604052508101906126869190619cc9565b905061269c67e951feca18aceb0260c01b616eee565b600160fb60008282546126af9190619456565b925050819055506126ca67f50aafe27bfe489860c01b616eee565b60fb548483815181106126e0576126df619238565b5b60200260200101818152505061270067315ad0a92105131260c01b616eee565b8083838151811061271457612713619238565b5b60200260200101818152505061273467078048ffa71250e160c01b616eee565b6127486733ae5ec13e08007860c01b616eee565b6127543360fb5461732d565b61276867184ff00e4b9d016c60c01b616eee565b600160fe60006005815260200190815260200160002060030160008282546127909190619456565b925050819055506127ab67d8cab32bf3c393bb60c01b616eee565b600160fe60006005815260200190815260200160002060010160008282546127d39190619456565b925050819055505080806127e690619296565b91505061229d565b50612803670fbe163f230eb7d560c01b616eee565b6128176779f6653ecf92ad6960c01b616eee565b7fbed2ea4cc61a5f3d97bf656e6a36da515575612249452e8dbf3d972b675e31433360058385888860405161285196959493929190619d9b565b60405180910390a150505050565b612873679f97fe4343af98dd60c01b616eee565b61288767f67666f056c26b8360c01b616eee565b61289b67d3573d93e9cf7a6b60c01b616eee565b6128af67e1c067e70aae29ac60c01b616eee565b60ff60006004815260200190815260200160002060009054906101000a900460ff16801561290a575060fe6000600481526020019081526020016000206000015460fe60006004815260200190815260200160002060010154105b8015612943575060fe6000600481526020019081526020016000206002015460fe60006004815260200190815260200160002060030154105b612982576040517f08c379a000000000000000000000000000000000000000000000000000000000815260040161297990619be6565b60405180910390fd5b61299667f41ec863ae4f675b60c01b616eee565b6129aa67ab4bd9986bbeaf7b60c01b616eee565b6129be67ca73cce4d92555ba60c01b616eee565b6129d267d1a31d25fb57197e60c01b616eee565b61010460003373ffffffffffffffffffffffffffffffffffffffff1673ffffffffffffffffffffffffffffffffffffffff16815260200190815260200160002060009054906101000a900460ff16612a5f576040517f08c379a0000000000000000000000000000000000000000000000000000000008152600401612a5690619e51565b60405180910390fd5b612a73673fa2aa871a072bb860c01b616eee565b612a8767a064e2c6ffbae65760c01b616eee565b612a9b67bc7261f2c53098c160c01b616eee565b600061010160009054906101000a900473ffffffffffffffffffffffffffffffffffffffff1673ffffffffffffffffffffffffffffffffffffffff166358f5f8be336040518263ffffffff1660e01b8152600401612af991906188fa565b6020604051808303816000875af1158015612b18573d6000803e3d6000fd5b505050506040513d601f19601f82011682018060405250810190612b3c9190619cc9565b9050612b526722d8f2f47f18082f60c01b616eee565b600160fe6000600481526020019081526020016000206003016000828254612b7a9190619456565b92505081905550612b9567f730af9ea19982a360c01b616eee565b600160fb6000828254612ba89190619456565b92505081905550612bc3676c70040a6943c6c760c01b616eee565b612bd767b291df90b2c1702460c01b616eee565b612be33360fb5461732d565b612bf767ac1d77a30a8284d160c01b616eee565b600160fe6000600481526020019081526020016000206001016000828254612c1f9190619456565b92505081905550612c3a67ca1a19723b46477360c01b616eee565b600061010460003373ffffffffffffffffffffffffffffffffffffffff1673ffffffffffffffffffffffffffffffffffffffff16815260200190815260200160002060006101000a81548160ff021916908315150217905550612ca76729553b9eccb98c0260c01b616eee565b612cbb67431e61a83648897660c01b616eee565b7f04523983e24616f78ff12ff843803430d32341b84760bd1fff8bc9b9def153893360048360fb54604051612cf39493929190619eac565b60405180910390a150565b612d126744854b0e47d0464760c01b616eee565b612d1a616ef1565b612d2e67118b433a9ed8259560c01b616eee565b612d426721e779725f5a58b760c01b616eee565b612d566799f08cf498de4ab160c01b616eee565b612d6a67db5f091a953769cb60c01b616eee565b60005b83839050811015612e1e57612d8c67434b6933a91a30bf60c01b616eee565b816101036000868685818110612da557612da4619238565b5b9050602002016020810190612dba9190618aae565b73ffffffffffffffffffffffffffffffffffffffff1673ffffffffffffffffffffffffffffffffffffffff16815260200190815260200160002060006101000a81548160ff0219169083151502179055508080612e1690619296565b915050612d6d565b50612e3367b4a693c965781a8960c01b616eee565b612e4767e2f5f5963b5490f760c01b616eee565b7f4c8368746583e40765156b70aa8a680beb42868327860b5d1fd1bd4a5a0d2a69838383604051612e7a93929190619fb4565b60405180910390a1505050565b6101026020528060005260406000206000915054906101000a900460ff1681565b610109602052816000526040600020602052806000526040600020600091509150508060000154908060010154908060020154908060030154908060040154908060050154908060060154908060070154908060080154905089565b612f15612f0f61726c565b8261754a565b612f54576040517f08c379a0000000000000000000000000000000000000000000000000000000008152600401612f4b9061a058565b60405180910390fd5b612f5f8383836175df565b505050565b6000612f7a67c72120ee343f2f7e60c01b616eee565b612f8e6792213f12a601cab060c01b616eee565b6103e88261010160009054906101000a900473ffffffffffffffffffffffffffffffffffffffff1673ffffffffffffffffffffffffffffffffffffffff16636fb1eb0c6040518163ffffffff1660e01b8152600401602060405180830381865afa158015613000573d6000803e3d6000fd5b505050506040513d601f19601f820116820180604052508101906130249190619cc9565b61302e919061a078565b613038919061a101565b9050919050565b613053674392721d3a09517c60c01b616eee565b61306767c58f84d422d6195960c01b616eee565b61307b67b6b38703172f709160c01b616eee565b61308f6776ca1f63ad47c93b60c01b616eee565b60ff600082815260200190815260200160002060009054906101000a900460ff1680156130e7575060fe60008281526020019081526020016000206002015460fe600083815260200190815260200160002060030154105b8015613136575060018114801561310e575061310d675f0ce45b2be2eeba60c01b6171ee565b5b806131355750600281148015613134575061313367927d0b211dead9b060c01b6171ee565b5b5b5b613175576040517f08c379a000000000000000000000000000000000000000000000000000000000815260040161316c90619be6565b60405180910390fd5b6131896768445bd400e927f560c01b616eee565b61319d676f59affc6b58971060c01b616eee565b6131b167eeca32627adcccb160c01b616eee565b6001810361331c576131cd675f51b375e8880b1b60c01b616eee565b6131e167e1460cb879753d9c60c01b616eee565b6131f5673bf83c19b34608f560c01b616eee565b61320967dc8efeed491b9f8160c01b616eee565b61010660003373ffffffffffffffffffffffffffffffffffffffff1673ffffffffffffffffffffffffffffffffffffffff16815260200190815260200160002060009054906101000a900460ff16613296576040517f08c379a000000000000000000000000000000000000000000000000000000000815260040161328d9061a1a4565b60405180910390fd5b6132aa67aa158785d4f0f55b60c01b616eee565b6132be67f558573ca8cd743760c01b616eee565b600061010660003373ffffffffffffffffffffffffffffffffffffffff1673ffffffffffffffffffffffffffffffffffffffff16815260200190815260200160002060006101000a81548160ff021916908315150217905550613331565b6133306777b237e9a1e7363660c01b616eee565b5b61334567311bf5366b41ccdf60c01b616eee565b61335967a6b0e5b3097ad59c60c01b616eee565b600281036134c457613375678e11ee199827655b60c01b616eee565b61338967d2155d42f22ca71460c01b616eee565b61339d67e2b86c30730c3ff460c01b616eee565b6133b16759fdaa27c8d4002b60c01b616eee565b61010860003373ffffffffffffffffffffffffffffffffffffffff1673ffffffffffffffffffffffffffffffffffffffff16815260200190815260200160002060009054906101000a900460ff1661343e576040517f08c379a00000000000000000000000000000000000000000000000000000000081526004016134359061a1a4565b60405180910390fd5b61345267fbc9fe8bde1b4e9d60c01b616eee565b6134666786fe66b3a9da662660c01b616eee565b600061010860003373ffffffffffffffffffffffffffffffffffffffff1673ffffffffffffffffffffffffffffffffffffffff16815260200190815260200160002060006101000a81548160ff0219169083151502179055506134d9565b6134d867a247bd0fb8312ac560c01b616eee565b5b6134ed67b23d20b7b97266d960c01b616eee565b600160fe600083815260200190815260200160002060030160008282546135149190619456565b9250508190555061352f67e7d0e71a65930cd460c01b616eee565b61354367ea08aae7873af10e60c01b616eee565b600061010160009054906101000a900473ffffffffffffffffffffffffffffffffffffffff1673ffffffffffffffffffffffffffffffffffffffff166358f5f8be336040518263ffffffff1660e01b81526004016135a191906188fa565b6020604051808303816000875af11580156135c0573d6000803e3d6000fd5b505050506040513d601f19601f820116820180604052508101906135e49190619cc9565b90506135fa679843c6589c468f7860c01b616eee565b61360e67f8582806eae0b2c660c01b616eee565b7f2e9e0784b8b9603d5dfcd027dd92455b08d1f69b95710bd5d145c962ad1117da338260036040516136429392919061a1ff565b60405180910390a15050565b61010060009054906101000a900473ffffffffffffffffffffffffffffffffffffffff1681565b60ff6020528060005260406000206000915054906101000a900460ff1681565b6136b083838360405180602001604052806000815250615c71565b505050565b6136c9673c956b48f70d0faa60c01b616eee565b6136d1616ef1565b6136e56703e61469edc3d3e460c01b616eee565b6136f967fd085baba79f961260c01b616eee565b61370d67908fc2d9eeef5c5e60c01b616eee565b613721670f7f4cec91c3ea4660c01b616eee565b60005b838390508110156137d55761374367f832658138a4e9b360c01b616eee565b81610102600086868581811061375c5761375b619238565b5b90506020020160208101906137719190618aae565b73ffffffffffffffffffffffffffffffffffffffff1673ffffffffffffffffffffffffffffffffffffffff16815260200190815260200160002060006101000a81548160ff02191690831515021790555080806137cd90619296565b915050613724565b506137ea67bfb0af0e4e02ef4960c01b616eee565b6137fe67c4eaae399132a49360c01b616eee565b7f074182baf39a64f81a9dfd5c4224b63af9fe2d0c8396bbcf57743387418379e183838360405161383193929190619fb4565b60405180910390a1505050565b61385267ed4bf07ef8b47c9b60c01b616eee565b61385a616ef1565b61386e671db24582f49fcacd60c01b616eee565b61388267f690a090d1caaa7860c01b616eee565b613896677f2a1a4322dc96a960c01b616eee565b6138aa67b670c2aea494e9b360c01b616eee565b60005b88889050811015613a97576138cc67e56834a92bd9340460c01b616eee565b8888828181106138df576138de619238565b5b9050602002013561010960008c815260200190815260200160002060008b8b8581811061390f5761390e619238565b5b9050602002013581526020019081526020016000206000018190555061393f670fdf9ad3562761e160c01b616eee565b86868281811061395257613951619238565b5b9050602002013561010960008c815260200190815260200160002060008b8b8581811061398257613981619238565b5b905060200201358152602001908152602001600020600501819055506139b267327040992019f6f460c01b616eee565b8484828181106139c5576139c4619238565b5b9050602002013561010960008c815260200190815260200160002060008b8b858181106139f5576139f4619238565b5b90506020020135815260200190815260200160002060080181905550613a2567cdcea0038586fef960c01b616eee565b828282818110613a3857613a37619238565b5b9050602002013561010960008c815260200190815260200160002060008b8b85818110613a6857613a67619238565b5b905060200201358152602001908152602001600020600701819055508080613a8f90619296565b9150506138ad565b50505050505050505050565b600080613aaf836178d8565b9050600073ffffffffffffffffffffffffffffffffffffffff168173ffffffffffffffffffffffffffffffffffffffff1603613b20576040517f08c379a0000000000000000000000000000000000000000000000000000000008152600401613b179061a282565b60405180910390fd5b80915050919050565b613b3d6712bbfd4d6d85aab260c01b616eee565b613b51670e3950b4c981d84e60c01b616eee565b613b65673e2e6440212dca2a60c01b616eee565b613b79676e963d20c490b10160c01b616eee565b60ff600082815260200190815260200160002060009054906101000a900460ff168015613bd1575060fe60008281526020019081526020016000206000015460fe600083815260200190815260200160002060010154105b8015613c205750600181148015613bf85750613bf7670d356d4f3ecf3c8560c01b6171ee565b5b80613c1f5750600281148015613c1e5750613c1d670b6fe8c410644e1560c01b6171ee565b5b5b5b613c5f576040517f08c379a0000000000000000000000000000000000000000000000000000000008152600401613c5690619be6565b60405180910390fd5b613c7367b62a10a4fbc1603f60c01b616eee565b613c8767be63da32cf63006860c01b616eee565b613c9b67d582ec5d13fd7ac260c01b616eee565b60018103613e0657613cb767c69353ddc9498c8560c01b616eee565b613ccb6791df62c93424e39360c01b616eee565b613cdf678029f1520fbd7ecd60c01b616eee565b613cf367b170a015440653c860c01b616eee565b61010560003373ffffffffffffffffffffffffffffffffffffffff1673ffffffffffffffffffffffffffffffffffffffff16815260200190815260200160002060009054906101000a900460ff16613d80576040517f08c379a0000000000000000000000000000000000000000000000000000000008152600401613d779061a1a4565b60405180910390fd5b613d9467b94bade82f9504eb60c01b616eee565b613da8678a8dd82d84b4e99460c01b616eee565b600061010560003373ffffffffffffffffffffffffffffffffffffffff1673ffffffffffffffffffffffffffffffffffffffff16815260200190815260200160002060006101000a81548160ff021916908315150217905550613e1b565b613e1a679f0ef110b59b9aac60c01b616eee565b5b613e2f67713c1566ce58958e60c01b616eee565b613e436742fcd0e76ea21d0460c01b616eee565b60028103613fae57613e5f67011b5ed102022d6e60c01b616eee565b613e7367a971cf83971fce5f60c01b616eee565b613e876771032487990b197c60c01b616eee565b613e9b67af5e235229fc0aed60c01b616eee565b61010760003373ffffffffffffffffffffffffffffffffffffffff1673ffffffffffffffffffffffffffffffffffffffff16815260200190815260200160002060009054906101000a900460ff16613f28576040517f08c379a0000000000000000000000000000000000000000000000000000000008152600401613f1f9061a1a4565b60405180910390fd5b613f3c67d0fed0d84053cbc560c01b616eee565b613f50677f509451305a191560c01b616eee565b600061010760003373ffffffffffffffffffffffffffffffffffffffff1673ffffffffffffffffffffffffffffffffffffffff16815260200190815260200160002060006101000a81548160ff021916908315150217905550613fc3565b613fc26763a96d62ff9868f260c01b616eee565b5b613fd76785ca890c57ac9c0860c01b616eee565b600160fe60008381526020019081526020016000206001016000828254613ffe9190619456565b9250508190555061401967ca6fd0d875d8262e60c01b616eee565b600160fb600082825461402c9190619456565b9250508190555061404767efb5cd97ef6ccb9760c01b616eee565b61405b6742a4b1e5c0b5bcea60c01b616eee565b6140673360fb5461732d565b61407b6748d1814212c2955a60c01b616eee565b61408f67b8046fdc5aa7d86360c01b616eee565b7f6b31e785e40ea595c823d38323157461d86f76a74c76faa41190de60912863e73360fb54836040516140c49392919061a2a2565b60405180910390a150565b6101056020528060005260406000206000915054906101000a900460ff1681565b61010a6020528060005260406000206000915090508054614110906195b7565b80601f016020809104026020016040519081016040528092919081815260200182805461413c906195b7565b80156141895780601f1061415e57610100808354040283529160200191614189565b820191906000526020600020905b81548152906001019060200180831161416c57829003601f168201915b505050505081565b6101086020528060005260406000206000915054906101000a900460ff1681565b61010160009054906101000a900473ffffffffffffffffffffffffffffffffffffffff1681565b60008073ffffffffffffffffffffffffffffffffffffffff168273ffffffffffffffffffffffffffffffffffffffff1603614249576040517f08c379a00000000000000000000000000000000000000000000000000000000081526004016142409061a34b565b60405180910390fd5b606860008373ffffffffffffffffffffffffffffffffffffffff1673ffffffffffffffffffffffffffffffffffffffff168152602001908152602001600020549050919050565b614298616ef1565b6142a26000617915565b565b61010e60009054906101000a900473ffffffffffffffffffffffffffffffffffffffff1681565b6142df6761a89911b8947f3d60c01b616eee565b6142e7616ef1565b6142fb67ab41b1c3bf7eef8860c01b616eee565b61430f67209cf4e3411eac7860c01b616eee565b61432367c7dc22656ee70cd360c01b616eee565b614337670b8ce799c94bef5460c01b616eee565b60005b8686905081101561441a5761435967a7c0ddab5e4776ae60c01b616eee565b84848281811061436c5761436b619238565b5b9050602002013560fe600089898581811061438a57614389619238565b5b905060200201358152602001908152602001600020600201819055506143ba67304a7bd072be0b9360c01b616eee565b8282828181106143cd576143cc619238565b5b9050602002013560fe60008989858181106143eb576143ea619238565b5b90506020020135815260200190815260200160002060000181905550808061441290619296565b91505061433a565b50505050505050565b61443767591dfa3058f118c760c01b616eee565b60008060019054906101000a900460ff161590508080156144685750600160008054906101000a900460ff1660ff16105b806144955750614477306179db565b1580156144945750600160008054906101000a900460ff1660ff16145b5b6144d4576040517f08c379a00000000000000000000000000000000000000000000000000000000081526004016144cb9061a3dd565b60405180910390fd5b60016000806101000a81548160ff021916908360ff1602179055508015614511576001600060016101000a81548160ff0219169083151502179055505b61452567a88bb56a07f4831360c01b616eee565b61453967df920a41f9e5ebd960c01b616eee565b61454d67f1489cb10d0991e760c01b616eee565b614561670e76d1286e798f6360c01b616eee565b6145d56040518060400160405280600f81526020017f416c6c6f792053706163652041524600000000000000000000000000000000008152506040518060400160405280600381526020017f41524600000000000000000000000000000000000000000000000000000000008152506179fe565b6145e9677aed3433155f03f160c01b616eee565b6145fd67e04fee68864fef8460c01b616eee565b614605617a5b565b61461967d16cc37b5e77069560c01b616eee565b61462d6701d1ec73cab54f7760c01b616eee565b614635617ab4565b61464967db38d001cbfaa2ea60c01b616eee565b60405180606001604052806028815260200161af3a6028913960fc9081614670919061978a565b50614685670fb51a3b38da0e5060c01b616eee565b6040518060400160405280600f81526020017f2d746f6b656e2d7572692e6a736f6e000000000000000000000000000000000081525060fd90816146c9919061978a565b506146de67a9f72bbc75d639b860c01b616eee565b600060fb819055506146fa6727608a1e03cc022360c01b616eee565b61470e67be28b4f2b9ce161b60c01b616eee565b600060405180610100016040528061022161ffff168152602001606561ffff16815260200160fa61ffff16815260200160fa61ffff1681526020016107d561ffff1681526020016103ea61ffff1681526020016103e961ffff16815260200161019161ffff16815250905061478d67d6132e33c62e24d660c01b616eee565b6147a167591559be2698563b60c01b616eee565b60006040518061010001604052806105e161ffff1681526020016101f961ffff168152602001600061ffff16815260200160fa61ffff1681526020016107d561ffff1681526020016107d461ffff1681526020016107d361ffff1681526020016107d361ffff16815250905061482167164a4a9f0f87a74660c01b616eee565b61483567ca6da0ba8fe550cf60c01b616eee565b60005b60088110156149395761485567cb47f3abeae7247160c01b616eee565b614869670c74dbff4312c02460c01b616eee565b6000604051806080016040528085846008811061488957614888619238565b5b602002015161ffff168152602001600081526020018484600881106148b1576148b0619238565b5b602002015161ffff168152602001600081525090506148da67623a79b77bef25e660c01b616eee565b8060fe60006001856148ec9190619456565b81526020019081526020016000206000820151816000015560208201518160010155604082015181600201556060820151816003015590505050808061493190619296565b915050614838565b5061494e6780e59ace3bee83bd60c01b616eee565b73b8f76ddcbad297a1526f984306732fc6014eb60761010160006101000a81548173ffffffffffffffffffffffffffffffffffffffff021916908373ffffffffffffffffffffffffffffffffffffffff1602179055506149b8677bc5f4bd2c3e957960c01b616eee565b737c0aa72dbd7058d0aee8bf99391b827a3af0487861010d60006101000a81548173ffffffffffffffffffffffffffffffffffffffff021916908373ffffffffffffffffffffffffffffffffffffffff160217905550614a2267bf03c91bdde69f7360c01b616eee565b7301662e113655ea1b7340420cc16fb0ec192b436761010060006101000a81548173ffffffffffffffffffffffffffffffffffffffff021916908373ffffffffffffffffffffffffffffffffffffffff160217905550614a8c673387e21f8af712f360c01b616eee565b7325fc99ef8c2be73c303f7e54a0c2da423e48326b61010e60006101000a81548173ffffffffffffffffffffffffffffffffffffffff021916908373ffffffffffffffffffffffffffffffffffffffff16021790555050508015614b3d5760008060016101000a81548160ff0219169083151502179055507f7f26b83ff96e1f2b6a682f133852f6798a09c465da95921460cefb38474024986001604051614b34919061a445565b60405180910390a15b50565b6000609760009054906101000a900473ffffffffffffffffffffffffffffffffffffffff16905090565b6101066020528060005260406000206000915054906101000a900460ff1681565b614b9f6739b54af754ea541760c01b616eee565b614bb367d6c324a24c00738c60c01b616eee565b614bc7675700a5ba4906de8e60c01b616eee565b614bdb6725d0a691c7d3ad6660c01b616eee565b60ff60006003815260200190815260200160002060009054906101000a900460ff168015614c36575060fe6000600381526020019081526020016000206002015460fe60006003815260200190815260200160002060030154105b614c75576040517f08c379a0000000000000000000000000000000000000000000000000000000008152600401614c6c90619be6565b60405180910390fd5b614c896735c4d3f8192d009b60c01b616eee565b614c9d67f917f95a10f4731060c01b616eee565b614cb1678bcecbdf7813fe3560c01b616eee565b614cc567a2bce9f61135fdd560c01b616eee565b61010360003373ffffffffffffffffffffffffffffffffffffffff1673ffffffffffffffffffffffffffffffffffffffff16815260200190815260200160002060009054906101000a900460ff16614d52576040517f08c379a0000000000000000000000000000000000000000000000000000000008152600401614d499061a1a4565b60405180910390fd5b614d666784449c86ba286da560c01b616eee565b614d7a67a7925301634b5a1460c01b616eee565b600061010360003373ffffffffffffffffffffffffffffffffffffffff1673ffffffffffffffffffffffffffffffffffffffff16815260200190815260200160002060006101000a81548160ff021916908315150217905550614de767f4f2c061950c954360c01b616eee565b600160fe6000600381526020019081526020016000206003016000828254614e0f9190619456565b92505081905550614e2a672fd2705eaf257b1f60c01b616eee565b614e3e675fbb142cd7df73f860c01b616eee565b600061010160009054906101000a900473ffffffffffffffffffffffffffffffffffffffff1673ffffffffffffffffffffffffffffffffffffffff166358f5f8be336040518263ffffffff1660e01b8152600401614e9c91906188fa565b6020604051808303816000875af1158015614ebb573d6000803e3d6000fd5b505050506040513d601f19601f82011682018060405250810190614edf9190619cc9565b9050614ef567a906e20bc1c67c1f60c01b616eee565b614f09670c39d03a4ba9692160c01b616eee565b7f44eb92b6f9778e6790811c1ff3f8535ffb7145fb366595580e36fbd5b35f05c833826003604051614f3d9392919061a1ff565b60405180910390a150565b614f5c6708488f3a248dfe3360c01b616eee565b614f64616fd9565b614f78670348779fa38c838460c01b616eee565b614f8c67ed5833d6e236289b60c01b616eee565b614fa067fb3146ef162a1ba860c01b616eee565b614fb46792fbf7112c41307360c01b616eee565b6000614fc38360000151613aa3565b9050614fd9672abc1fe1715a088060c01b616eee565b614fed673e4c1132f70cbae160c01b616eee565b61500167bfdc9da6395de92b60c01b616eee565b61501081846040015184617028565b8015615046575061010b826040516150289190619325565b908152602001604051809103902060009054906101000a900460ff16155b80156150ec575061010d60009054906101000a900473ffffffffffffffffffffffffffffffffffffffff1673ffffffffffffffffffffffffffffffffffffffff1663c9941806836040518263ffffffff1660e01b81526004016150a99190619386565b602060405180830381865afa1580156150c6573d6000803e3d6000fd5b505050506040513d601f19601f820116820180604052508101906150ea91906193bd565b155b8015615192575061010160009054906101000a900473ffffffffffffffffffffffffffffffffffffffff1673ffffffffffffffffffffffffffffffffffffffff1663c9941806836040518263ffffffff1660e01b815260040161514f9190619386565b602060405180830381865afa15801561516c573d6000803e3d6000fd5b505050506040513d601f19601f8201168201806040525081019061519091906193bd565b155b6151d1576040517f08c379a00000000000000000000000000000000000000000000000000000000081526004016151c89061a4ac565b60405180910390fd5b6151e5670be013c39116904460c01b616eee565b6151f967e6d46f650baebfe160c01b616eee565b61520d67f9ffe3279d187b1860c01b616eee565b615221679d5e02a7a3f982bd60c01b616eee565b34836020015114615267576040517f08c379a000000000000000000000000000000000000000000000000000000000815260040161525e9061a53e565b60405180910390fd5b61527b67541ce97e2bd0883c60c01b616eee565b61528f67ec08aa45d6ecd83060c01b616eee565b6152a36719281514b952cfba60c01b616eee565b6152c28133856000015160405180602001604052806000815250617b0d565b6152d6675ab4a6d742b5130260c01b616eee565b600161010b836040516152e99190619325565b908152602001604051809103902060006101000a81548160ff02191690831515021790555061532267b831c7ff573adb2d60c01b616eee565b615336671ec7cdfca912a24460c01b616eee565b600061534134612f64565b905061535767131c763fe6115c0d60c01b616eee565b61536b673352edbe0a3dfe3360c01b616eee565b61010e60009054906101000a900473ffffffffffffffffffffffffffffffffffffffff1673ffffffffffffffffffffffffffffffffffffffff166108fc829081150290604051600060405180830381858888f193505050501580156153d4573d6000803e3d6000fd5b506153e9671e15d6a86b6cc4b860c01b616eee565b6153fd677e869620ecb3f4cf60c01b616eee565b8173ffffffffffffffffffffffffffffffffffffffff166108fc8234615423919061a55e565b9081150290604051600060405180830381858888f1935050505015801561544e573d6000803e3d6000fd5b5061546367028f3396c694a32960c01b616eee565b615477676d3a6637e55e0e1c60c01b616eee565b7f80cf10dac1b681dc583a2a6ab3d1e5279e026d3fb3c9001157fc290c9a1bed69823334876000015161010a60008a6000015181526020019081526020016000206040516154c995949392919061a616565b60405180910390a150506154db617217565b5050565b6154f3677f74ab51308619c860c01b616eee565b6154fb616ef1565b61550f67ea079e3168c982b860c01b616eee565b61552367f86f20d4d3e9548c60c01b616eee565b61553767fbb3cc83bd7b15fb60c01b616eee565b61554b67f994dcda35d1e23f60c01b616eee565b60005b838390508110156155ff5761556d6714d0f79601deb9a360c01b616eee565b81610104600086868581811061558657615585619238565b5b905060200201602081019061559b9190618aae565b73ffffffffffffffffffffffffffffffffffffffff1673ffffffffffffffffffffffffffffffffffffffff16815260200190815260200160002060006101000a81548160ff02191690831515021790555080806155f790619296565b91505061554e565b506156146787fbdb997e29b66f60c01b616eee565b61562867e1fa2087730f4d3b60c01b616eee565b7f55d7a640169ee4a6157c88413d657e05aeb41f8fa2d6ef0b1cc82997f39c5b5383838360405161565b93929190619fb4565b60405180910390a1505050565b606060668054615677906195b7565b80601f01602080910402602001604051908101604052809291908181526020018280546156a3906195b7565b80156156f05780601f106156c5576101008083540402835291602001916156f0565b820191906000526020600020905b8154815290600101906020018083116156d357829003601f168201915b5050505050905090565b61570e67901747500131537260c01b616eee565b615716616ef1565b61572a67aea5062d1c6ca75560c01b616eee565b61573e67c543bef23adc2f2e60c01b616eee565b61575267abce1497aff8863160c01b616eee565b8160fc9081615761919061978a565b5061577667701d5c41eca3969a60c01b616eee565b8060fd9081615785919061978a565b505050565b61579e67c43a676c7224d52b60c01b616eee565b6157a6616ef1565b6157ba672b2b8fdf0b24f48360c01b616eee565b6157ce67462e5d14d1f4ea3260c01b616eee565b6157e267da5115121d23155960c01b616eee565b8461010060006101000a81548173ffffffffffffffffffffffffffffffffffffffff021916908373ffffffffffffffffffffffffffffffffffffffff160217905550615838676c1b679e1f6914b460c01b616eee565b8361010160006101000a81548173ffffffffffffffffffffffffffffffffffffffff021916908373ffffffffffffffffffffffffffffffffffffffff16021790555061588e676ad2703ed557071c60c01b616eee565b8261010e60006101000a81548173ffffffffffffffffffffffffffffffffffffffff021916908373ffffffffffffffffffffffffffffffffffffffff1602179055506158e467ee2edf41e53f4eb760c01b616eee565b8161010d60006101000a81548173ffffffffffffffffffffffffffffffffffffffff021916908373ffffffffffffffffffffffffffffffffffffffff16021790555061593a67ff44cfd96c88b69460c01b616eee565b8061010c819055505050505050565b61595d67218e6c9ae2c4faf160c01b616eee565b615965616ef1565b615979673ef92b08487a272d60c01b616eee565b61598d6783cafa95c4725d2460c01b616eee565b6159a1672eb5570d09f7075260c01b616eee565b6159b567338a024c9e0add9f60c01b616eee565b60005b83839050811015615a69576159d7675554a9ff927f93ce60c01b616eee565b8161010660008686858181106159f0576159ef619238565b5b9050602002016020810190615a059190618aae565b73ffffffffffffffffffffffffffffffffffffffff1673ffffffffffffffffffffffffffffffffffffffff16815260200190815260200160002060006101000a81548160ff0219169083151502179055508080615a6190619296565b9150506159b8565b50615a7e67a93cc74f1bf7d45b60c01b616eee565b615a9267ac7f9b3390b7546460c01b616eee565b7f26f546175866cdae536ed9010787f6f5bc9992c35f6cc805f0d7992a322f74fc838383604051615ac593929190619fb4565b60405180910390a1505050565b615ae4615add61726c565b8383617b69565b5050565b615afc6798ddc1bf2f5a229760c01b616eee565b615b04616ef1565b615b18674acbacd49859f7d160c01b616eee565b615b2c6715e7c1274004781160c01b616eee565b615b4067ab8a7da5a01be15960c01b616eee565b615b5467bcc11fa6ba6f7b7c60c01b616eee565b60005b83839050811015615c0857615b766791ae95561299c06a60c01b616eee565b816101056000868685818110615b8f57615b8e619238565b5b9050602002016020810190615ba49190618aae565b73ffffffffffffffffffffffffffffffffffffffff1673ffffffffffffffffffffffffffffffffffffffff16815260200190815260200160002060006101000a81548160ff0219169083151502179055508080615c0090619296565b915050615b57565b50615c1d67eaa026bbc8d5aeaf60c01b616eee565b615c31678c428a768ac8275560c01b616eee565b7f103875dca1d7ded84af45916324c49fb7322c1ba16e25088174b6975caa0dfd5838383604051615c6493929190619fb4565b60405180910390a1505050565b615c82615c7c61726c565b8361754a565b615cc1576040517f08c379a0000000000000000000000000000000000000000000000000000000008152600401615cb89061a058565b60405180910390fd5b615ccd84848484617b0d565b50505050565b6101046020528060005260406000206000915054906101000a900460ff1681565b6060615d0a671f33fb83f02bb17c60c01b616eee565b615d1e673e5922addad1bdff60c01b616eee565b615d3267b8b9d188c1b76f9c60c01b616eee565b615d46677f3fbcdcdd1e5ac960c01b616eee565b615d4f82617cd5565b615d8e576040517f08c379a0000000000000000000000000000000000000000000000000000000008152600401615d859061a6e2565b60405180910390fd5b615da267214926546189c64e60c01b616eee565b615db66752eda5902631ea4860c01b616eee565b615dca6781a098a57c65c74c60c01b616eee565b60fc615dd583617d16565b60fd604051602001615de99392919061a7c1565b6040516020818303038152906040529050919050565b615e1367235af732d6b8509860c01b616eee565b615e1b616ef1565b615e2f6747cae03cb23b3cc160c01b616eee565b615e4367e2d3417bae6ebe9d60c01b616eee565b615e576721a28037cdf0afc160c01b616eee565b615e6b67a28bc89519ceacb160c01b616eee565b60005b83839050811015615f1f57615e8d675e3896b8f167ccb760c01b616eee565b816101086000868685818110615ea657615ea5619238565b5b9050602002016020810190615ebb9190618aae565b73ffffffffffffffffffffffffffffffffffffffff1673ffffffffffffffffffffffffffffffffffffffff16815260200190815260200160002060006101000a81548160ff0219169083151502179055508080615f1790619296565b915050615e6e565b50615f3467c2dbe69d3c6f789960c01b616eee565b615f4867d3f63100fd017e3b60c01b616eee565b7f1f04ad3d20df24c03595d847aee0ff273316ea1ed4ff072eb68155a1d5623cb3838383604051615f7b93929190619fb4565b60405180910390a1505050565b61010b818051602081018201805184825260208301602085012081835280955050505050506000915054906101000a900460ff1681565b61010d60009054906101000a900473ffffffffffffffffffffffffffffffffffffffff1681565b60fb5481565b6101036020528060005260406000206000915054906101000a900460ff1681565b616021678616dfa9149cb24660c01b616eee565b616029616ef1565b61603d6764e2f100be5f4ec160c01b616eee565b61605167913810aeab8a698360c01b616eee565b616065670f51fd78388fcab960c01b616eee565b61607967d7859ec68016356460c01b616eee565b60005b8383905081101561612d5761609b67da54696d85768bbd60c01b616eee565b8161010760008686858181106160b4576160b3619238565b5b90506020020160208101906160c99190618aae565b73ffffffffffffffffffffffffffffffffffffffff1673ffffffffffffffffffffffffffffffffffffffff16815260200190815260200160002060006101000a81548160ff021916908315150217905550808061612590619296565b91505061607c565b5061614267f27c42781f07767d60c01b616eee565b6161566740f5a989dd07153c60c01b616eee565b7ff76067476381edc28fa06f8043230469676e53a6027cb3550ecc3d2e7dfb1bbf83838360405161618993929190619fb4565b60405180910390a1505050565b6161aa67f6559d78389b6c2360c01b616eee565b6161be6723e8d5ff67b0e55a60c01b616eee565b6161d267964dfdb7eeae13af60c01b616eee565b6161e6679add2eba3037125260c01b616eee565b60ff60006005815260200190815260200160002060009054906101000a900460ff168015616241575060fe6000600581526020019081526020016000206000015460fe60006005815260200190815260200160002060010154105b801561627a575060fe6000600581526020019081526020016000206002015460fe60006005815260200190815260200160002060030154105b6162b9576040517f08c379a00000000000000000000000000000000000000000000000000000000081526004016162b090619be6565b60405180910390fd5b6162cd678e1d524e8b94b36060c01b616eee565b6162e1678ba47be7221d303260c01b616eee565b6162f567511ba71df545c8a360c01b616eee565b61630967fc7221ac76bc0e1860c01b616eee565b3373ffffffffffffffffffffffffffffffffffffffff1661010060009054906101000a900473ffffffffffffffffffffffffffffffffffffffff1673ffffffffffffffffffffffffffffffffffffffff16636352211e836040518263ffffffff1660e01b815260040161637c9190618990565b602060405180830381865afa158015616399573d6000803e3d6000fd5b505050506040513d601f19601f820116820180604052508101906163bd9190619c1b565b73ffffffffffffffffffffffffffffffffffffffff1614616413576040517f08c379a000000000000000000000000000000000000000000000000000000000815260040161640a90619c94565b60405180910390fd5b6164276711940ee9aa229e0860c01b616eee565b61643b67ce2b41d33146a80060c01b616eee565b61644f672b3978af4c6d650860c01b616eee565b61010060009054906101000a900473ffffffffffffffffffffffffffffffffffffffff1673ffffffffffffffffffffffffffffffffffffffff166323b872dd3330846040518463ffffffff1660e01b81526004016164af9392919061985c565b600060405180830381600087803b1580156164c957600080fd5b505af11580156164dd573d6000803e3d6000fd5b505050506164f56793df6f12517efe9460c01b616eee565b61650967d6663c38d863718260c01b616eee565b61010060009054906101000a900473ffffffffffffffffffffffffffffffffffffffff1673ffffffffffffffffffffffffffffffffffffffff166342966c68826040518263ffffffff1660e01b81526004016165659190618990565b600060405180830381600087803b15801561657f57600080fd5b505af1158015616593573d6000803e3d6000fd5b505050506165ab6701d4bb4cf97271d460c01b616eee565b6165bf672ff0f6e89e2b903660c01b616eee565b600061010160009054906101000a900473ffffffffffffffffffffffffffffffffffffffff1673ffffffffffffffffffffffffffffffffffffffff166358f5f8be336040518263ffffffff1660e01b815260040161661d91906188fa565b6020604051808303816000875af115801561663c573d6000803e3d6000fd5b505050506040513d601f19601f820116820180604052508101906166609190619cc9565b90506166766718533944f3af515760c01b616eee565b600160fb60008282546166899190619456565b925050819055506166a4672b5eff5943a2b50260c01b616eee565b6166b867a7192d10c8ca6a4560c01b616eee565b6166c43360fb5461732d565b6166d86794b6af9525741fd460c01b616eee565b600160fe60006005815260200190815260200160002060030160008282546167009190619456565b9250508190555061671b670527fa02b80c763560c01b616eee565b600160fe60006005815260200190815260200160002060010160008282546167439190619456565b9250508190555061675e67b0bcb073fd75920260c01b616eee565b61677267c04da7a3345547ad60c01b616eee565b7ffd0ee44f1387730342d1e171ee76aa3f3117731c393ed73269b8c4d97ba2f47a3360058360fb54866040516167ac95949392919061a7f2565b60405180910390a15050565b60fe6020528060005260406000206000915090508060000154908060010154908060020154908060030154905084565b6167fc67c1d2e690ac49294c60c01b616eee565b61681067f2d603d5a666626960c01b616eee565b61682467c815271c0681f3dd60c01b616eee565b616838678ec540a8719c32ca60c01b616eee565b61010160009054906101000a900473ffffffffffffffffffffffffffffffffffffffff1673ffffffffffffffffffffffffffffffffffffffff163373ffffffffffffffffffffffffffffffffffffffff16146168c9576040517f08c379a00000000000000000000000000000000000000000000000000000000081526004016168c09061a891565b60405180910390fd5b6168dd67278ce6269740a4a360c01b616eee565b6168f167a89868643c20012660c01b616eee565b8060fe600085815260200190815260200160002060030160008282546169179190619456565b92505081905550616932679ba13efe6acb2d8460c01b616eee565b8061010960008581526020019081526020016000206000848152602001908152602001600020600201600082825461696a9190619456565b92505081905550505050565b6000606a60008473ffffffffffffffffffffffffffffffffffffffff1673ffffffffffffffffffffffffffffffffffffffff16815260200190815260200160002060008373ffffffffffffffffffffffffffffffffffffffff1673ffffffffffffffffffffffffffffffffffffffff16815260200190815260200160002060009054906101000a900460ff16905092915050565b6101076020528060005260406000206000915054906101000a900460ff1681565b616a3f67358f6fa784612be860c01b616eee565b616a53676bc63e84e6fcd27a60c01b616eee565b616a676757c7e26815238a2260c01b616eee565b616a7b6723f00be284121b9f60c01b616eee565b60ff60006003815260200190815260200160002060009054906101000a900460ff168015616ad6575060fe6000600381526020019081526020016000206000015460fe60006003815260200190815260200160002060010154105b616b15576040517f08c379a0000000000000000000000000000000000000000000000000000000008152600401616b0c90619be6565b60405180910390fd5b616b29673f8e7c62dfad284d60c01b616eee565b616b3d67d6a9d7a1ad5baea860c01b616eee565b616b5167f6c94cb94bcbfc5860c01b616eee565b616b65678de59d2ca45dc7df60c01b616eee565b61010260003373ffffffffffffffffffffffffffffffffffffffff1673ffffffffffffffffffffffffffffffffffffffff16815260200190815260200160002060009054906101000a900460ff16616bf2576040517f08c379a0000000000000000000000000000000000000000000000000000000008152600401616be99061a1a4565b60405180910390fd5b616c0667dbd8e76f7d6dbf4f60c01b616eee565b616c1a6771d0bd03d946fd1560c01b616eee565b600061010260003373ffffffffffffffffffffffffffffffffffffffff1673ffffffffffffffffffffffffffffffffffffffff16815260200190815260200160002060006101000a81548160ff021916908315150217905550616c87671dc23acac19eaf8260c01b616eee565b600160fb6000828254616c9a9190619456565b92505081905550616cb567f978d351bf7e5f0960c01b616eee565b616cc9673e72d009e75bbe3360c01b616eee565b616cd53360fb5461732d565b616ce9677a3a5cf74de7926060c01b616eee565b600160fe6000600381526020019081526020016000206001016000828254616d119190619456565b92505081905550616d2c670d827df23f43011360c01b616eee565b616d406741d969e046bd547c60c01b616eee565b7fc4fe32de0c7e52993d2f984dee4a064f2bed825d11dc584cd80d7e5980d463043360fb546003604051616d769392919061a1ff565b60405180910390a1565b616d946789a9fe7407aff20860c01b616eee565b616d9c616ef1565b616db06732115796a01e2f7960c01b616eee565b616dc467eaea0cb0f6319b6660c01b616eee565b616dd86707e0cf0cd1dc632760c01b616eee565b616dec673e2ac98fcabf915860c01b616eee565b60005b83839050811015616e6557616e0e67efaa115d43e1acba60c01b616eee565b8160ff6000868685818110616e2657616e25619238565b5b90506020020135815260200190815260200160002060006101000a81548160ff0219169083151502179055508080616e5d90619296565b915050616def565b50505050565b616e73616ef1565b600073ffffffffffffffffffffffffffffffffffffffff168173ffffffffffffffffffffffffffffffffffffffff1603616ee2576040517f08c379a0000000000000000000000000000000000000000000000000000000008152600401616ed99061a923565b60405180910390fd5b616eeb81617915565b50565b50565b616ef961726c565b73ffffffffffffffffffffffffffffffffffffffff16616f17614b40565b73ffffffffffffffffffffffffffffffffffffffff1614616f6d576040517f08c379a0000000000000000000000000000000000000000000000000000000008152600401616f649061a98f565b60405180910390fd5b565b60007f01ffc9a7000000000000000000000000000000000000000000000000000000007bffffffffffffffffffffffffffffffffffffffffffffffffffffffff1916827bffffffffffffffffffffffffffffffffffffffffffffffffffffffff1916149050919050565b600260c9540361701e576040517f08c379a00000000000000000000000000000000000000000000000000000000081526004016170159061a9fb565b60405180910390fd5b600260c981905550565b60008060006170378585617de4565b915091506000600481111561704f5761704e61aa1b565b5b8160048111156170625761706161aa1b565b5b14801561709a57508573ffffffffffffffffffffffffffffffffffffffff168273ffffffffffffffffffffffffffffffffffffffff16145b156170aa576001925050506171e7565b6000808773ffffffffffffffffffffffffffffffffffffffff16631626ba7e60e01b88886040516024016170df92919061aa59565b604051602081830303815290604052907bffffffffffffffffffffffffffffffffffffffffffffffffffffffff19166020820180517bffffffffffffffffffffffffffffffffffffffffffffffffffffffff83818316178352505050506040516171499190619325565b600060405180830381855afa9150503d8060008114617184576040519150601f19603f3d011682016040523d82523d6000602084013e617189565b606091505b509150915081801561719c575060208151145b80156171e05750631626ba7e60e01b7bffffffffffffffffffffffffffffffffffffffffffffffffffffffff1916818060200190518101906171de919061aa9e565b145b9450505050505b9392505050565b600060019050919050565b617213828260405180602001604052806000815250617e35565b5050565b600160c981905550565b61722a81617cd5565b617269576040517f08c379a00000000000000000000000000000000000000000000000000000000081526004016172609061a282565b60405180910390fd5b50565b600033905090565b816069600083815260200190815260200160002060006101000a81548173ffffffffffffffffffffffffffffffffffffffff021916908373ffffffffffffffffffffffffffffffffffffffff160217905550808273ffffffffffffffffffffffffffffffffffffffff166172e783613aa3565b73ffffffffffffffffffffffffffffffffffffffff167f8c5be1e5ebec7d5bd14f71427d1e84f3dd0314c0f7b2291e5b200ac8c7c3b92560405160405180910390a45050565b600073ffffffffffffffffffffffffffffffffffffffff168273ffffffffffffffffffffffffffffffffffffffff160361739c576040517f08c379a00000000000000000000000000000000000000000000000000000000081526004016173939061ab17565b60405180910390fd5b6173a581617cd5565b156173e5576040517f08c379a00000000000000000000000000000000000000000000000000000000081526004016173dc9061ab83565b60405180910390fd5b6173f3600083836001617e90565b6173fc81617cd5565b1561743c576040517f08c379a00000000000000000000000000000000000000000000000000000000081526004016174339061ab83565b60405180910390fd5b6001606860008473ffffffffffffffffffffffffffffffffffffffff1673ffffffffffffffffffffffffffffffffffffffff16815260200190815260200160002060008282540192505081905550816067600083815260200190815260200160002060006101000a81548173ffffffffffffffffffffffffffffffffffffffff021916908373ffffffffffffffffffffffffffffffffffffffff160217905550808273ffffffffffffffffffffffffffffffffffffffff16600073ffffffffffffffffffffffffffffffffffffffff167fddf252ad1be2c89b69c2b068fc378daa952ba7f163c4a11628f55a4df523b3ef60405160405180910390a4617546600083836001617e96565b5050565b60008061755683613aa3565b90508073ffffffffffffffffffffffffffffffffffffffff168473ffffffffffffffffffffffffffffffffffffffff16148061759857506175978185616976565b5b806175d657508373ffffffffffffffffffffffffffffffffffffffff166175be84611ec9565b73ffffffffffffffffffffffffffffffffffffffff16145b91505092915050565b8273ffffffffffffffffffffffffffffffffffffffff166175ff82613aa3565b73ffffffffffffffffffffffffffffffffffffffff1614617655576040517f08c379a000000000000000000000000000000000000000000000000000000000815260040161764c9061ac15565b60405180910390fd5b600073ffffffffffffffffffffffffffffffffffffffff168273ffffffffffffffffffffffffffffffffffffffff16036176c4576040517f08c379a00000000000000000000000000000000000000000000000000000000081526004016176bb9061aca7565b60405180910390fd5b6176d18383836001617e90565b8273ffffffffffffffffffffffffffffffffffffffff166176f182613aa3565b73ffffffffffffffffffffffffffffffffffffffff1614617747576040517f08c379a000000000000000000000000000000000000000000000000000000000815260040161773e9061ac15565b60405180910390fd5b6069600082815260200190815260200160002060006101000a81549073ffffffffffffffffffffffffffffffffffffffff02191690556001606860008573ffffffffffffffffffffffffffffffffffffffff1673ffffffffffffffffffffffffffffffffffffffff168152602001908152602001600020600082825403925050819055506001606860008473ffffffffffffffffffffffffffffffffffffffff1673ffffffffffffffffffffffffffffffffffffffff16815260200190815260200160002060008282540192505081905550816067600083815260200190815260200160002060006101000a81548173ffffffffffffffffffffffffffffffffffffffff021916908373ffffffffffffffffffffffffffffffffffffffff160217905550808273ffffffffffffffffffffffffffffffffffffffff168473ffffffffffffffffffffffffffffffffffffffff167fddf252ad1be2c89b69c2b068fc378daa952ba7f163c4a11628f55a4df523b3ef60405160405180910390a46178d38383836001617e96565b505050565b60006067600083815260200190815260200160002060009054906101000a900473ffffffffffffffffffffffffffffffffffffffff169050919050565b6000609760009054906101000a900473ffffffffffffffffffffffffffffffffffffffff16905081609760006101000a81548173ffffffffffffffffffffffffffffffffffffffff021916908373ffffffffffffffffffffffffffffffffffffffff1602179055508173ffffffffffffffffffffffffffffffffffffffff168173ffffffffffffffffffffffffffffffffffffffff167f8be0079c531659141344cd1fd0a4f28419497f9722a3daafe3b4186f6b6457e060405160405180910390a35050565b6000808273ffffffffffffffffffffffffffffffffffffffff163b119050919050565b600060019054906101000a900460ff16617a4d576040517f08c379a0000000000000000000000000000000000000000000000000000000008152600401617a449061ad39565b60405180910390fd5b617a578282617e9c565b5050565b600060019054906101000a900460ff16617aaa576040517f08c379a0000000000000000000000000000000000000000000000000000000008152600401617aa19061ad39565b60405180910390fd5b617ab2617f0f565b565b600060019054906101000a900460ff16617b03576040517f08c379a0000000000000000000000000000000000000000000000000000000008152600401617afa9061ad39565b60405180910390fd5b617b0b617f70565b565b617b188484846175df565b617b2484848484617fc9565b617b63576040517f08c379a0000000000000000000000000000000000000000000000000000000008152600401617b5a9061adcb565b60405180910390fd5b50505050565b8173ffffffffffffffffffffffffffffffffffffffff168373ffffffffffffffffffffffffffffffffffffffff1603617bd7576040517f08c379a0000000000000000000000000000000000000000000000000000000008152600401617bce9061ae37565b60405180910390fd5b80606a60008573ffffffffffffffffffffffffffffffffffffffff1673ffffffffffffffffffffffffffffffffffffffff16815260200190815260200160002060008473ffffffffffffffffffffffffffffffffffffffff1673ffffffffffffffffffffffffffffffffffffffff16815260200190815260200160002060006101000a81548160ff0219169083151502179055508173ffffffffffffffffffffffffffffffffffffffff168373ffffffffffffffffffffffffffffffffffffffff167f17307eab39ab6107e8899845ad3d59bd9653f200f220920489ca2b5937696c3183604051617cc891906185d0565b60405180910390a3505050565b60008073ffffffffffffffffffffffffffffffffffffffff16617cf7836178d8565b73ffffffffffffffffffffffffffffffffffffffff1614159050919050565b606060006001617d2584618150565b01905060008167ffffffffffffffff811115617d4457617d43618625565b5b6040519080825280601f01601f191660200182016040528015617d765781602001600182028036833780820191505090505b509050600082602001820190505b600115617dd9578080600190039150507f3031323334353637383961626364656600000000000000000000000000000000600a86061a8153600a8581617dcd57617dcc61a0d2565b5b04945060008503617d84575b819350505050919050565b6000806041835103617e255760008060006020860151925060408601519150606086015160001a9050617e19878285856182a3565b94509450505050617e2e565b60006002915091505b9250929050565b617e3f838361732d565b617e4c6000848484617fc9565b617e8b576040517f08c379a0000000000000000000000000000000000000000000000000000000008152600401617e829061adcb565b60405180910390fd5b505050565b50505050565b50505050565b600060019054906101000a900460ff16617eeb576040517f08c379a0000000000000000000000000000000000000000000000000000000008152600401617ee29061ad39565b60405180910390fd5b8160659081617efa919061978a565b508060669081617f0a919061978a565b505050565b600060019054906101000a900460ff16617f5e576040517f08c379a0000000000000000000000000000000000000000000000000000000008152600401617f559061ad39565b60405180910390fd5b617f6e617f6961726c565b617915565b565b600060019054906101000a900460ff16617fbf576040517f08c379a0000000000000000000000000000000000000000000000000000000008152600401617fb69061ad39565b60405180910390fd5b600160c981905550565b6000617fea8473ffffffffffffffffffffffffffffffffffffffff166179db565b15618143578373ffffffffffffffffffffffffffffffffffffffff1663150b7a0261801361726c565b8786866040518563ffffffff1660e01b8152600401618035949392919061ae57565b6020604051808303816000875af192505050801561807157506040513d601f19601f8201168201806040525081019061806e919061aeb8565b60015b6180f3573d80600081146180a1576040519150601f19603f3d011682016040523d82523d6000602084013e6180a6565b606091505b5060008151036180eb576040517f08c379a00000000000000000000000000000000000000000000000000000000081526004016180e29061adcb565b60405180910390fd5b805181602001fd5b63150b7a0260e01b7bffffffffffffffffffffffffffffffffffffffffffffffffffffffff1916817bffffffffffffffffffffffffffffffffffffffffffffffffffffffff191614915050618148565b600190505b949350505050565b600080600090507a184f03e93ff9f4daa797ed6e38ed64bf6a1f01000000000000000083106181ae577a184f03e93ff9f4daa797ed6e38ed64bf6a1f01000000000000000083816181a4576181a361a0d2565b5b0492506040810190505b6d04ee2d6d415b85acef810000000083106181eb576d04ee2d6d415b85acef810000000083816181e1576181e061a0d2565b5b0492506020810190505b662386f26fc10000831061821a57662386f26fc1000083816182105761820f61a0d2565b5b0492506010810190505b6305f5e1008310618243576305f5e10083816182395761823861a0d2565b5b0492506008810190505b612710831061826857612710838161825e5761825d61a0d2565b5b0492506004810190505b6064831061828b57606483816182815761828061a0d2565b5b0492506002810190505b600a831061829a576001810190505b80915050919050565b6000807f7fffffffffffffffffffffffffffffff5d576e7357a4501ddfe92f46681b20a08360001c11156182de57600060039150915061837c565b600060018787878760405160008152602001604052604051618303949392919061aef4565b6020604051602081039080840390855afa158015618325573d6000803e3d6000fd5b505050602060405103519050600073ffffffffffffffffffffffffffffffffffffffff168173ffffffffffffffffffffffffffffffffffffffff16036183735760006001925092505061837c565b80600092509250505b94509492505050565b6000604051905090565b600080fd5b600080fd5b6000819050919050565b6183ac81618399565b81146183b757600080fd5b50565b6000813590506183c9816183a3565b92915050565b600080fd5b600080fd5b600080fd5b60008083601f8401126183f4576183f36183cf565b5b8235905067ffffffffffffffff811115618411576184106183d4565b5b60208301915083602082028301111561842d5761842c6183d9565b5b9250929050565b600080600080600080600080600060a08a8c0312156184565761845561838f565b5b60006184648c828d016183ba565b99505060208a013567ffffffffffffffff81111561848557618484618394565b5b6184918c828d016183de565b985098505060408a013567ffffffffffffffff8111156184b4576184b3618394565b5b6184c08c828d016183de565b965096505060608a013567ffffffffffffffff8111156184e3576184e2618394565b5b6184ef8c828d016183de565b945094505060808a013567ffffffffffffffff81111561851257618511618394565b5b61851e8c828d016183de565b92509250509295985092959850929598565b60007fffffffff0000000000000000000000000000000000000000000000000000000082169050919050565b61856581618530565b811461857057600080fd5b50565b6000813590506185828161855c565b92915050565b60006020828403121561859e5761859d61838f565b5b60006185ac84828501618573565b91505092915050565b60008115159050919050565b6185ca816185b5565b82525050565b60006020820190506185e560008301846185c1565b92915050565b600080fd5b600060808284031215618606576186056185eb565b5b81905092915050565b600080fd5b6000601f19601f8301169050919050565b7f4e487b7100000000000000000000000000000000000000000000000000000000600052604160045260246000fd5b61865d82618614565b810181811067ffffffffffffffff8211171561867c5761867b618625565b5b80604052505050565b600061868f618385565b905061869b8282618654565b919050565b600067ffffffffffffffff8211156186bb576186ba618625565b5b6186c482618614565b9050602081019050919050565b82818337600083830152505050565b60006186f36186ee846186a0565b618685565b90508281526020810184848401111561870f5761870e61860f565b5b61871a8482856186d1565b509392505050565b600082601f830112618737576187366183cf565b5b81356187478482602086016186e0565b91505092915050565b618759816185b5565b811461876457600080fd5b50565b60008135905061877681618750565b92915050565b600080600060c084860312156187955761879461838f565b5b60006187a3868287016185f0565b935050608084013567ffffffffffffffff8111156187c4576187c3618394565b5b6187d086828701618722565b92505060a06187e186828701618767565b9150509250925092565b600081519050919050565b600082825260208201905092915050565b60005b8381101561882557808201518184015260208101905061880a565b60008484015250505050565b600061883c826187eb565b61884681856187f6565b9350618856818560208601618807565b61885f81618614565b840191505092915050565b600060208201905081810360008301526188848184618831565b905092915050565b6000602082840312156188a2576188a161838f565b5b60006188b0848285016183ba565b91505092915050565b600073ffffffffffffffffffffffffffffffffffffffff82169050919050565b60006188e4826188b9565b9050919050565b6188f4816188d9565b82525050565b600060208201905061890f60008301846188eb565b92915050565b61891e816188d9565b811461892957600080fd5b50565b60008135905061893b81618915565b92915050565b600080604083850312156189585761895761838f565b5b60006189668582860161892c565b9250506020618977858286016183ba565b9150509250929050565b61898a81618399565b82525050565b60006020820190506189a56000830184618981565b92915050565b600080602083850312156189c2576189c161838f565b5b600083013567ffffffffffffffff8111156189e0576189df618394565b5b6189ec858286016183de565b92509250509250929050565b60008083601f840112618a0e57618a0d6183cf565b5b8235905067ffffffffffffffff811115618a2b57618a2a6183d4565b5b602083019150836020820283011115618a4757618a466183d9565b5b9250929050565b600080600060408486031215618a6757618a6661838f565b5b600084013567ffffffffffffffff811115618a8557618a84618394565b5b618a91868287016189f8565b93509350506020618aa486828701618767565b9150509250925092565b600060208284031215618ac457618ac361838f565b5b6000618ad28482850161892c565b91505092915050565b60008060408385031215618af257618af161838f565b5b6000618b00858286016183ba565b9250506020618b11858286016183ba565b9150509250929050565b600061012082019050618b31600083018c618981565b618b3e602083018b618981565b618b4b604083018a618981565b618b586060830189618981565b618b656080830188618981565b618b7260a0830187618981565b618b7f60c0830186618981565b618b8c60e0830185618981565b618b9a610100830184618981565b9a9950505050505050505050565b600080600060608486031215618bc157618bc061838f565b5b6000618bcf8682870161892c565b9350506020618be08682870161892c565b9250506040618bf1868287016183ba565b9150509250925092565b6000819050919050565b6000618c20618c1b618c16846188b9565b618bfb565b6188b9565b9050919050565b6000618c3282618c05565b9050919050565b6000618c4482618c27565b9050919050565b618c5481618c39565b82525050565b6000602082019050618c6f6000830184618c4b565b92915050565b60008060008060008060608789031215618c9257618c9161838f565b5b600087013567ffffffffffffffff811115618cb057618caf618394565b5b618cbc89828a016183de565b9650965050602087013567ffffffffffffffff811115618cdf57618cde618394565b5b618ceb89828a016183de565b9450945050604087013567ffffffffffffffff811115618d0e57618d0d618394565b5b618d1a89828a016183de565b92509250509295509295509295565b600080fd5b6000819050919050565b618d4181618d2e565b8114618d4c57600080fd5b50565b600081359050618d5e81618d38565b92915050565b600060608284031215618d7a57618d79618d29565b5b618d846060618685565b90506000618d94848285016183ba565b6000830152506020618da8848285016183ba565b6020830152506040618dbc84828501618d4f565b60408301525092915050565b60008060808385031215618ddf57618dde61838f565b5b6000618ded85828601618d64565b925050606083013567ffffffffffffffff811115618e0e57618e0d618394565b5b618e1a85828601618722565b9150509250929050565b600067ffffffffffffffff821115618e3f57618e3e618625565b5b618e4882618614565b9050602081019050919050565b6000618e68618e6384618e24565b618685565b905082815260208101848484011115618e8457618e8361860f565b5b618e8f8482856186d1565b509392505050565b600082601f830112618eac57618eab6183cf565b5b8135618ebc848260208601618e55565b91505092915050565b60008060408385031215618edc57618edb61838f565b5b600083013567ffffffffffffffff811115618efa57618ef9618394565b5b618f0685828601618e97565b925050602083013567ffffffffffffffff811115618f2757618f26618394565b5b618f3385828601618e97565b9150509250929050565b600080600080600060a08688031215618f5957618f5861838f565b5b6000618f678882890161892c565b9550506020618f788882890161892c565b9450506040618f898882890161892c565b9350506060618f9a8882890161892c565b9250506080618fab888289016183ba565b9150509295509295909350565b60008060408385031215618fcf57618fce61838f565b5b6000618fdd8582860161892c565b9250506020618fee85828601618767565b9150509250929050565b600080600080608085870312156190125761901161838f565b5b60006190208782880161892c565b94505060206190318782880161892c565b9350506040619042878288016183ba565b925050606085013567ffffffffffffffff81111561906357619062618394565b5b61906f87828801618722565b91505092959194509250565b6000602082840312156190915761909061838f565b5b600082013567ffffffffffffffff8111156190af576190ae618394565b5b6190bb84828501618722565b91505092915050565b60006190cf82618c27565b9050919050565b6190df816190c4565b82525050565b60006020820190506190fa60008301846190d6565b92915050565b60006080820190506191156000830187618981565b6191226020830186618981565b61912f6040830185618981565b61913c6060830184618981565b95945050505050565b60008060006060848603121561915e5761915d61838f565b5b600061916c868287016183ba565b935050602061917d868287016183ba565b925050604061918e868287016183ba565b9150509250925092565b600080604083850312156191af576191ae61838f565b5b60006191bd8582860161892c565b92505060206191ce8582860161892c565b9150509250929050565b6000806000604084860312156191f1576191f061838f565b5b600084013567ffffffffffffffff81111561920f5761920e618394565b5b61921b868287016183de565b9350935050602061922e86828701618767565b9150509250925092565b7f4e487b7100000000000000000000000000000000000000000000000000000000600052603260045260246000fd5b7f4e487b7100000000000000000000000000000000000000000000000000000000600052601160045260246000fd5b60006192a182618399565b91507fffffffffffffffffffffffffffffffffffffffffffffffffffffffffffffffff82036192d3576192d2619267565b5b600182019050919050565b600081519050919050565b600081905092915050565b60006192ff826192de565b61930981856192e9565b9350619319818560208601618807565b80840191505092915050565b600061933182846192f4565b915081905092915050565b600082825260208201905092915050565b6000619358826192de565b619362818561933c565b9350619372818560208601618807565b61937b81618614565b840191505092915050565b600060208201905081810360008301526193a0818461934d565b905092915050565b6000815190506193b781618750565b92915050565b6000602082840312156193d3576193d261838f565b5b60006193e1848285016193a8565b91505092915050565b7f41726645524337323156313a204e6f7420616c6c6f7765640000000000000000600082015250565b60006194206018836187f6565b915061942b826193ea565b602082019050919050565b6000602082019050818103600083015261944f81619413565b9050919050565b600061946182618399565b915061946c83618399565b925082820190508082111561948457619483619267565b5b92915050565b7f41726645524337323156313a20546869732065706f636820697320636c6f736560008201527f64206f72207072696e746572206973206f7574206f662073746f636b00000000602082015250565b60006194e6603c836187f6565b91506194f18261948a565b604082019050919050565b60006020820190508181036000830152619515816194d9565b9050919050565b7f41726645524337323156313a20496e76616c6964207175616e74697479000000600082015250565b6000619552601d836187f6565b915061955d8261951c565b602082019050919050565b6000602082019050818103600083015261958181619545565b9050919050565b7f4e487b7100000000000000000000000000000000000000000000000000000000600052602260045260246000fd5b600060028204905060018216806195cf57607f821691505b6020821081036195e2576195e1619588565b5b50919050565b60008190508160005260206000209050919050565b60006020601f8301049050919050565b600082821b905092915050565b60006008830261964a7fffffffffffffffffffffffffffffffffffffffffffffffffffffffffffffffff8261960d565b619654868361960d565b95508019841693508086168417925050509392505050565b600061968761968261967d84618399565b618bfb565b618399565b9050919050565b6000819050919050565b6196a18361966c565b6196b56196ad8261968e565b84845461961a565b825550505050565b600090565b6196ca6196bd565b6196d5818484619698565b505050565b5b818110156196f9576196ee6000826196c2565b6001810190506196db565b5050565b601f82111561973e5761970f816195e8565b619718846195fd565b81016020851015619727578190505b61973b619733856195fd565b8301826196da565b50505b505050565b600082821c905092915050565b600061976160001984600802619743565b1980831691505092915050565b600061977a8383619750565b9150826002028217905092915050565b619793826187eb565b67ffffffffffffffff8111156197ac576197ab618625565b5b6197b682546195b7565b6197c18282856196fd565b600060209050601f8311600181146197f457600084156197e2578287015190505b6197ec858261976e565b865550619854565b601f198416619802866195e8565b60005b8281101561982a57848901518255600182019150602085019450602081019050619805565b868310156198475784890151619843601f891682619750565b8355505b6001600288020188555050505b505050505050565b600060608201905061987160008301866188eb565b61987e60208301856188eb565b61988b6040830184618981565b949350505050565b60006040820190506198a860008301856188eb565b6198b56020830184618981565b9392505050565b600081519050919050565b600082825260208201905092915050565b6000819050602082019050919050565b6198f181618399565b82525050565b600061990383836198e8565b60208301905092915050565b6000602082019050919050565b6000619927826198bc565b61993181856198c7565b935061993c836198d8565b8060005b8381101561996d57815161995488826198f7565b975061995f8361990f565b925050600181019050619940565b5085935050505092915050565b7f5052494e54455200000000000000000000000000000000000000000000000000600082015250565b60006199b06007836187f6565b91506199bb8261997a565b602082019050919050565b6000610100820190506199dc600083018a6188eb565b81810360208301526199ee818961991c565b90506199fd6040830188618981565b619a0a6060830187618981565b619a176080830186618981565b619a2460a0830185618981565b619a3160c08301846185c1565b81810360e0830152619a42816199a3565b905098975050505050505050565b7f4552433732313a20617070726f76616c20746f2063757272656e74206f776e6560008201527f7200000000000000000000000000000000000000000000000000000000000000602082015250565b6000619aac6021836187f6565b9150619ab782619a50565b604082019050919050565b60006020820190508181036000830152619adb81619a9f565b9050919050565b7f4552433732313a20617070726f76652063616c6c6572206973206e6f7420746f60008201527f6b656e206f776e6572206f7220617070726f76656420666f7220616c6c000000602082015250565b6000619b3e603d836187f6565b9150619b4982619ae2565b604082019050919050565b60006020820190508181036000830152619b6d81619b31565b9050919050565b7f41726645524337323156313a20496e76616c69642065706f6368206964206f7260008201527f206e6f7420656e6f756768207175616e74697479000000000000000000000000602082015250565b6000619bd06034836187f6565b9150619bdb82619b74565b604082019050919050565b60006020820190508181036000830152619bff81619bc3565b9050919050565b600081519050619c1581618915565b92915050565b600060208284031215619c3157619c3061838f565b5b6000619c3f84828501619c06565b91505092915050565b7f4172664552433732313a204e6f742061206f776e657200000000000000000000600082015250565b6000619c7e6016836187f6565b9150619c8982619c48565b602082019050919050565b60006020820190508181036000830152619cad81619c71565b9050919050565b600081519050619cc3816183a3565b92915050565b600060208284031215619cdf57619cde61838f565b5b6000619ced84828501619cb4565b91505092915050565b6000819050919050565b6000619d1b619d16619d1184619cf6565b618bfb565b618399565b9050919050565b619d2b81619d00565b82525050565b600080fd5b82818337505050565b6000619d4b83856198c7565b93507f07ffffffffffffffffffffffffffffffffffffffffffffffffffffffffffffff831115619d7e57619d7d619d31565b5b602083029250619d8f838584619d36565b82840190509392505050565b600060a082019050619db060008301896188eb565b619dbd6020830188619d22565b8181036040830152619dcf818761991c565b90508181036060830152619de3818661991c565b90508181036080830152619df8818486619d3f565b9050979650505050505050565b7f4172664552433732313a204e6f742077686974656c6973746564000000000000600082015250565b6000619e3b601a836187f6565b9150619e4682619e05565b602082019050919050565b60006020820190508181036000830152619e6a81619e2e565b9050919050565b6000819050919050565b6000619e96619e91619e8c84619e71565b618bfb565b618399565b9050919050565b619ea681619e7b565b82525050565b6000608082019050619ec160008301876188eb565b619ece6020830186619e9d565b619edb6040830185618981565b619ee86060830184618981565b95945050505050565b600082825260208201905092915050565b6000819050919050565b619f15816188d9565b82525050565b6000619f278383619f0c565b60208301905092915050565b6000619f42602084018461892c565b905092915050565b6000602082019050919050565b6000619f638385619ef1565b9350619f6e82619f02565b8060005b85811015619fa757619f848284619f33565b619f8e8882619f1b565b9750619f9983619f4a565b925050600181019050619f72565b5085925050509392505050565b60006040820190508181036000830152619fcf818587619f57565b9050619fde60208301846185c1565b949350505050565b7f4552433732313a2063616c6c6572206973206e6f7420746f6b656e206f776e6560008201527f72206f7220617070726f76656400000000000000000000000000000000000000602082015250565b600061a042602d836187f6565b915061a04d82619fe6565b604082019050919050565b6000602082019050818103600083015261a0718161a035565b9050919050565b600061a08382618399565b915061a08e83618399565b9250817fffffffffffffffffffffffffffffffffffffffffffffffffffffffffffffffff048311821515161561a0c75761a0c6619267565b5b828202905092915050565b7f4e487b7100000000000000000000000000000000000000000000000000000000600052601260045260246000fd5b600061a10c82618399565b915061a11783618399565b92508261a1275761a12661a0d2565b5b828204905092915050565b7f41726645524337323156313a204e6f742077686974656c69737465642075736560008201527f7200000000000000000000000000000000000000000000000000000000000000602082015250565b600061a18e6021836187f6565b915061a1998261a132565b604082019050919050565b6000602082019050818103600083015261a1bd8161a181565b9050919050565b6000819050919050565b600061a1e961a1e461a1df8461a1c4565b618bfb565b618399565b9050919050565b61a1f98161a1ce565b82525050565b600060608201905061a21460008301866188eb565b61a2216020830185618981565b61a22e604083018461a1f0565b949350505050565b7f4552433732313a20696e76616c696420746f6b656e2049440000000000000000600082015250565b600061a26c6018836187f6565b915061a2778261a236565b602082019050919050565b6000602082019050818103600083015261a29b8161a25f565b9050919050565b600060608201905061a2b760008301866188eb565b61a2c46020830185618981565b61a2d16040830184618981565b949350505050565b7f4552433732313a2061646472657373207a65726f206973206e6f74206120766160008201527f6c6964206f776e65720000000000000000000000000000000000000000000000602082015250565b600061a3356029836187f6565b915061a3408261a2d9565b604082019050919050565b6000602082019050818103600083015261a3648161a328565b9050919050565b7f496e697469616c697a61626c653a20636f6e747261637420697320616c72656160008201527f647920696e697469616c697a6564000000000000000000000000000000000000602082015250565b600061a3c7602e836187f6565b915061a3d28261a36b565b604082019050919050565b6000602082019050818103600083015261a3f68161a3ba565b9050919050565b6000819050919050565b600060ff82169050919050565b600061a42f61a42a61a4258461a3fd565b618bfb565b61a407565b9050919050565b61a43f8161a414565b82525050565b600060208201905061a45a600083018461a436565b92915050565b7f41726645524337323156313a204e6f74206c6973746564000000000000000000600082015250565b600061a4966017836187f6565b915061a4a18261a460565b602082019050919050565b6000602082019050818103600083015261a4c58161a489565b9050919050565b7f41726645524337323156313a205072697a6520697320696e636f72726563742060008201527f6f7220696e76616c696400000000000000000000000000000000000000000000602082015250565b600061a528602a836187f6565b915061a5338261a4cc565b604082019050919050565b6000602082019050818103600083015261a5578161a51b565b9050919050565b600061a56982618399565b915061a57483618399565b925082820390508181111561a58c5761a58b619267565b5b92915050565b6000815461a59f816195b7565b61a5a981866187f6565b9450600182166000811461a5c4576001811461a5da5761a60d565b60ff19831686528115156020028601935061a60d565b61a5e3856195e8565b60005b8381101561a6055781548189015260018201915060208101905061a5e6565b808801955050505b50505092915050565b600060a08201905061a62b60008301886188eb565b61a63860208301876188eb565b61a6456040830186618981565b61a6526060830185618981565b818103608083015261a664818461a592565b90509695505050505050565b7f41726645524337323156313a2055524920717565727920666f72206e6f6e657860008201527f697374656e7420746f6b656e0000000000000000000000000000000000000000602082015250565b600061a6cc602c836187f6565b915061a6d78261a670565b604082019050919050565b6000602082019050818103600083015261a6fb8161a6bf565b9050919050565b600081905092915050565b6000815461a71a816195b7565b61a724818661a702565b9450600182166000811461a73f576001811461a7545761a787565b60ff198316865281151582028601935061a787565b61a75d856195e8565b60005b8381101561a77f5781548189015260018201915060208101905061a760565b838801955050505b50505092915050565b600061a79b826187eb565b61a7a5818561a702565b935061a7b5818560208601618807565b80840191505092915050565b600061a7cd828661a70d565b915061a7d9828561a790565b915061a7e5828461a70d565b9150819050949350505050565b600060a08201905061a80760008301886188eb565b61a8146020830187619d22565b61a8216040830186618981565b61a82e6060830185618981565b61a83b6080830184618981565b9695505050505050565b7f41726645524337323156313a204e6f74207065726d6974746564000000000000600082015250565b600061a87b601a836187f6565b915061a8868261a845565b602082019050919050565b6000602082019050818103600083015261a8aa8161a86e565b9050919050565b7f4f776e61626c653a206e6577206f776e657220697320746865207a65726f206160008201527f6464726573730000000000000000000000000000000000000000000000000000602082015250565b600061a90d6026836187f6565b915061a9188261a8b1565b604082019050919050565b6000602082019050818103600083015261a93c8161a900565b9050919050565b7f4f776e61626c653a2063616c6c6572206973206e6f7420746865206f776e6572600082015250565b600061a9796020836187f6565b915061a9848261a943565b602082019050919050565b6000602082019050818103600083015261a9a88161a96c565b9050919050565b7f5265656e7472616e637947756172643a207265656e7472616e742063616c6c00600082015250565b600061a9e5601f836187f6565b915061a9f08261a9af565b602082019050919050565b6000602082019050818103600083015261aa148161a9d8565b9050919050565b7f4e487b7100000000000000000000000000000000000000000000000000000000600052602160045260246000fd5b61aa5381618d2e565b82525050565b600060408201905061aa6e600083018561aa4a565b818103602083015261aa80818461934d565b90509392505050565b60008151905061aa9881618d38565b92915050565b60006020828403121561aab45761aab361838f565b5b600061aac28482850161aa89565b91505092915050565b7f4552433732313a206d696e7420746f20746865207a65726f2061646472657373600082015250565b600061ab016020836187f6565b915061ab0c8261aacb565b602082019050919050565b6000602082019050818103600083015261ab308161aaf4565b9050919050565b7f4552433732313a20746f6b656e20616c7265616479206d696e74656400000000600082015250565b600061ab6d601c836187f6565b915061ab788261ab37565b602082019050919050565b6000602082019050818103600083015261ab9c8161ab60565b9050919050565b7f4552433732313a207472616e736665722066726f6d20696e636f72726563742060008201527f6f776e6572000000000000000000000000000000000000000000000000000000602082015250565b600061abff6025836187f6565b915061ac0a8261aba3565b604082019050919050565b6000602082019050818103600083015261ac2e8161abf2565b9050919050565b7f4552433732313a207472616e7366657220746f20746865207a65726f2061646460008201527f7265737300000000000000000000000000000000000000000000000000000000602082015250565b600061ac916024836187f6565b915061ac9c8261ac35565b604082019050919050565b6000602082019050818103600083015261acc08161ac84565b9050919050565b7f496e697469616c697a61626c653a20636f6e7472616374206973206e6f74206960008201527f6e697469616c697a696e67000000000000000000000000000000000000000000602082015250565b600061ad23602b836187f6565b915061ad2e8261acc7565b604082019050919050565b6000602082019050818103600083015261ad528161ad16565b9050919050565b7f4552433732313a207472616e7366657220746f206e6f6e20455243373231526560008201527f63656976657220696d706c656d656e7465720000000000000000000000000000602082015250565b600061adb56032836187f6565b915061adc08261ad59565b604082019050919050565b6000602082019050818103600083015261ade48161ada8565b9050919050565b7f4552433732313a20617070726f766520746f2063616c6c657200000000000000600082015250565b600061ae216019836187f6565b915061ae2c8261adeb565b602082019050919050565b6000602082019050818103600083015261ae508161ae14565b9050919050565b600060808201905061ae6c60008301876188eb565b61ae7960208301866188eb565b61ae866040830185618981565b818103606083015261ae98818461934d565b905095945050505050565b60008151905061aeb28161855c565b92915050565b60006020828403121561aece5761aecd61838f565b5b600061aedc8482850161aea3565b91505092915050565b61aeee8161a407565b82525050565b600060808201905061af09600083018761aa4a565b61af16602083018661aee5565b61af23604083018561aa4a565b61af30606083018461aa4a565b9594505050505056fe68747470733a2f2f6173736574732e616c6c6f792e73706163652f746f6b656e2d7572692d73322fa2646970667358221220adcb8e7933c27f71809713eb78fa3aea01d967381d852059f6c59f7336413f6b64736f6c63430008100033",
  "linkReferences": {},
  "deployedLinkReferences": {}
}