{
  "_format": "hh-sol-artifact-1",
  "contractName": "ConstructERC721V1",
  "sourceName": "contracts/CONSTRUCT/ConstructERC721V1.sol",
  "abi": [
    {
      "anonymous": false,
      "inputs": [
        {
          "indexed": true,
          "internalType": "address",
          "name": "owner",
          "type": "address"
        },
        {
          "indexed": true,
          "internalType": "address",
          "name": "approved",
          "type": "address"
        },
        {
          "indexed": true,
          "internalType": "uint256",
          "name": "tokenId",
          "type": "uint256"
        }
      ],
      "name": "Approval",
      "type": "event"
    },
    {
      "anonymous": false,
      "inputs": [
        {
          "indexed": true,
          "internalType": "address",
          "name": "owner",
          "type": "address"
        },
        {
          "indexed": true,
          "internalType": "address",
          "name": "operator",
          "type": "address"
        },
        {
          "indexed": false,
          "internalType": "bool",
          "name": "approved",
          "type": "bool"
        }
      ],
      "name": "ApprovalForAll",
      "type": "event"
    },
    {
      "anonymous": false,
      "inputs": [
        {
          "indexed": false,
          "internalType": "address",
          "name": "User",
          "type": "address"
        },
        {
          "indexed": false,
          "internalType": "uint256[]",
          "name": "ConstructId",
          "type": "uint256[]"
        },
        {
          "indexed": false,
          "internalType": "uint256[]",
          "name": "ConstructTokenId",
          "type": "uint256[]"
        },
        {
          "indexed": false,
          "internalType": "string",
          "name": "NFTtype",
          "type": "string"
        }
      ],
      "name": "ConstructConverted",
      "type": "event"
    },
    {
      "anonymous": false,
      "inputs": [
        {
          "indexed": false,
          "internalType": "address",
          "name": "User",
          "type": "address"
        },
        {
          "indexed": false,
          "internalType": "uint256",
          "name": "ConstructId",
          "type": "uint256"
        },
        {
          "indexed": false,
          "internalType": "uint256",
          "name": "ConstructTokenId",
          "type": "uint256"
        },
        {
          "indexed": false,
          "internalType": "string",
          "name": "NFTtype",
          "type": "string"
        }
      ],
      "name": "ConstructMinted",
      "type": "event"
    },
    {
      "anonymous": false,
      "inputs": [
        {
          "indexed": false,
          "internalType": "uint8",
          "name": "version",
          "type": "uint8"
        }
      ],
      "name": "Initialized",
      "type": "event"
    },
    {
      "anonymous": false,
      "inputs": [
        {
          "indexed": true,
          "internalType": "address",
          "name": "previousOwner",
          "type": "address"
        },
        {
          "indexed": true,
          "internalType": "address",
          "name": "newOwner",
          "type": "address"
        }
      ],
      "name": "OwnershipTransferred",
      "type": "event"
    },
    {
      "anonymous": false,
      "inputs": [
        {
          "indexed": false,
          "internalType": "address",
          "name": "User",
          "type": "address"
        },
        {
          "indexed": false,
          "internalType": "uint256",
          "name": "Amount",
          "type": "uint256"
        },
        {
          "indexed": false,
          "internalType": "uint256",
          "name": "ConstructId",
          "type": "uint256"
        },
        {
          "indexed": false,
          "internalType": "string",
          "name": "NFTtype",
          "type": "string"
        }
      ],
      "name": "SoldConstruct",
      "type": "event"
    },
    {
      "anonymous": false,
      "inputs": [
        {
          "indexed": false,
          "internalType": "address",
          "name": "PreviousOwner",
          "type": "address"
        },
        {
          "indexed": false,
          "internalType": "address",
          "name": "NewOwner",
          "type": "address"
        },
        {
          "indexed": false,
          "internalType": "uint256",
          "name": "Price",
          "type": "uint256"
        },
        {
          "indexed": false,
          "internalType": "uint256",
          "name": "TokenId",
          "type": "uint256"
        },
        {
          "indexed": false,
          "internalType": "string",
          "name": "TokenType",
          "type": "string"
        }
      ],
      "name": "TokenPurchased",
      "type": "event"
    },
    {
      "anonymous": false,
      "inputs": [
        {
          "indexed": false,
          "internalType": "address",
          "name": "PreviousOwner",
          "type": "address"
        },
        {
          "indexed": false,
          "internalType": "address",
          "name": "NewOwner",
          "type": "address"
        },
        {
          "indexed": false,
          "internalType": "uint256",
          "name": "Price",
          "type": "uint256"
        },
        {
          "indexed": false,
          "internalType": "uint256",
          "name": "TokenId",
          "type": "uint256"
        },
        {
          "indexed": false,
          "internalType": "string",
          "name": "TokenType",
          "type": "string"
        }
      ],
      "name": "TokenPurchasedOffChain",
      "type": "event"
    },
    {
      "anonymous": false,
      "inputs": [
        {
          "indexed": true,
          "internalType": "address",
          "name": "from",
          "type": "address"
        },
        {
          "indexed": true,
          "internalType": "address",
          "name": "to",
          "type": "address"
        },
        {
          "indexed": true,
          "internalType": "uint256",
          "name": "tokenId",
          "type": "uint256"
        }
      ],
      "name": "Transfer",
      "type": "event"
    },
    {
      "inputs": [],
      "name": "ARCAddress",
      "outputs": [
        {
          "internalType": "contract Mintpeg",
          "name": "",
          "type": "address"
        }
      ],
      "stateMutability": "view",
      "type": "function"
    },
    {
      "inputs": [],
      "name": "ARFtokenAddress",
      "outputs": [
        {
          "internalType": "contract Mintpeg",
          "name": "",
          "type": "address"
        }
      ],
      "stateMutability": "view",
      "type": "function"
    },
    {
      "inputs": [],
      "name": "MerchantWallet",
      "outputs": [
        {
          "internalType": "address",
          "name": "",
          "type": "address"
        }
      ],
      "stateMutability": "view",
      "type": "function"
    },
    {
      "inputs": [],
      "name": "NiozERC20Address",
      "outputs": [
        {
          "internalType": "contract IERC20Upgradeable",
          "name": "",
          "type": "address"
        }
      ],
      "stateMutability": "view",
      "type": "function"
    },
    {
      "inputs": [
        {
          "internalType": "address",
          "name": "to",
          "type": "address"
        },
        {
          "internalType": "uint256",
          "name": "tokenId",
          "type": "uint256"
        }
      ],
      "name": "approve",
      "outputs": [],
      "stateMutability": "nonpayable",
      "type": "function"
    },
    {
      "inputs": [
        {
          "internalType": "address",
          "name": "owner",
          "type": "address"
        }
      ],
      "name": "balanceOf",
      "outputs": [
        {
          "internalType": "uint256",
          "name": "",
          "type": "uint256"
        }
      ],
      "stateMutability": "view",
      "type": "function"
    },
    {
      "inputs": [
        {
          "components": [
            {
              "internalType": "uint256",
              "name": "Id",
              "type": "uint256"
            },
            {
              "internalType": "uint256",
              "name": "amount",
              "type": "uint256"
            },
            {
              "internalType": "bytes32",
              "name": "messageHash",
              "type": "bytes32"
            }
          ],
          "internalType": "struct ConstructERC721V1.SellOrder",
          "name": "_order",
          "type": "tuple"
        },
        {
          "internalType": "bytes",
          "name": "_signature",
          "type": "bytes"
        }
      ],
      "name": "buy",
      "outputs": [],
      "stateMutability": "payable",
      "type": "function"
    },
    {
      "inputs": [
        {
          "components": [
            {
              "internalType": "uint256",
              "name": "Id",
              "type": "uint256"
            },
            {
              "internalType": "address",
              "name": "previousOwner",
              "type": "address"
            },
            {
              "internalType": "uint256",
              "name": "amount",
              "type": "uint256"
            },
            {
              "internalType": "bytes32",
              "name": "messageHash",
              "type": "bytes32"
            }
          ],
          "internalType": "struct ConstructERC721V1.SellOrderOffChain",
          "name": "_order",
          "type": "tuple"
        },
        {
          "internalType": "bytes",
          "name": "_signature",
          "type": "bytes"
        }
      ],
      "name": "buyOffChain",
      "outputs": [],
      "stateMutability": "payable",
      "type": "function"
    },
    {
      "inputs": [
        {
          "components": [
            {
              "internalType": "uint256[]",
              "name": "constructIds",
              "type": "uint256[]"
            },
            {
              "internalType": "uint256[]",
              "name": "constructTokenIds",
              "type": "uint256[]"
            },
            {
              "internalType": "bytes32",
              "name": "messageHash",
              "type": "bytes32"
            }
          ],
          "internalType": "struct ConstructERC721V1.ConvertConstruct1",
          "name": "_order",
          "type": "tuple"
        },
        {
          "internalType": "bytes",
          "name": "_signature",
          "type": "bytes"
        }
      ],
      "name": "convertConstruct",
      "outputs": [],
      "stateMutability": "nonpayable",
      "type": "function"
    },
    {
      "inputs": [
        {
          "internalType": "uint256",
          "name": "_total_amount",
          "type": "uint256"
        }
      ],
      "name": "feeCalculation",
      "outputs": [
        {
          "internalType": "uint256",
          "name": "Fee",
          "type": "uint256"
        }
      ],
      "stateMutability": "view",
      "type": "function"
    },
    {
      "inputs": [
        {
          "internalType": "uint256",
          "name": "tokenId",
          "type": "uint256"
        }
      ],
      "name": "getApproved",
      "outputs": [
        {
          "internalType": "address",
          "name": "",
          "type": "address"
        }
      ],
      "stateMutability": "view",
      "type": "function"
    },
    {
      "inputs": [],
      "name": "initialize",
      "outputs": [],
      "stateMutability": "nonpayable",
      "type": "function"
    },
    {
      "inputs": [
        {
          "internalType": "address",
          "name": "owner",
          "type": "address"
        },
        {
          "internalType": "address",
          "name": "operator",
          "type": "address"
        }
      ],
      "name": "isApprovedForAll",
      "outputs": [
        {
          "internalType": "bool",
          "name": "",
          "type": "bool"
        }
      ],
      "stateMutability": "view",
      "type": "function"
    },
    {
      "inputs": [
        {
          "internalType": "uint256",
          "name": "",
          "type": "uint256"
        }
      ],
      "name": "isConstructMintable",
      "outputs": [
        {
          "internalType": "bool",
          "name": "",
          "type": "bool"
        }
      ],
      "stateMutability": "view",
      "type": "function"
    },
    {
      "inputs": [
        {
          "internalType": "uint256",
          "name": "",
          "type": "uint256"
        }
      ],
      "name": "isConstructSold",
      "outputs": [
        {
          "internalType": "bool",
          "name": "",
          "type": "bool"
        }
      ],
      "stateMutability": "view",
      "type": "function"
    },
    {
      "inputs": [
        {
          "internalType": "bytes",
          "name": "",
          "type": "bytes"
        }
      ],
      "name": "isVerified",
      "outputs": [
        {
          "internalType": "bool",
          "name": "",
          "type": "bool"
        }
      ],
      "stateMutability": "view",
      "type": "function"
    },
    {
      "inputs": [
        {
          "components": [
            {
              "internalType": "uint256",
              "name": "constructId",
              "type": "uint256"
            },
            {
              "internalType": "bytes32",
              "name": "messageHash",
              "type": "bytes32"
            }
          ],
          "internalType": "struct ConstructERC721V1.ConstructOrder",
          "name": "_order",
          "type": "tuple"
        },
        {
          "internalType": "bytes",
          "name": "_signature",
          "type": "bytes"
        }
      ],
      "name": "mintConstruct",
      "outputs": [],
      "stateMutability": "nonpayable",
      "type": "function"
    },
    {
      "inputs": [],
      "name": "name",
      "outputs": [
        {
          "internalType": "string",
          "name": "",
          "type": "string"
        }
      ],
      "stateMutability": "view",
      "type": "function"
    },
    {
      "inputs": [],
      "name": "owner",
      "outputs": [
        {
          "internalType": "address",
          "name": "",
          "type": "address"
        }
      ],
      "stateMutability": "view",
      "type": "function"
    },
    {
      "inputs": [
        {
          "internalType": "uint256",
          "name": "tokenId",
          "type": "uint256"
        }
      ],
      "name": "ownerOf",
      "outputs": [
        {
          "internalType": "address",
          "name": "",
          "type": "address"
        }
      ],
      "stateMutability": "view",
      "type": "function"
    },
    {
      "inputs": [],
      "name": "renounceOwnership",
      "outputs": [],
      "stateMutability": "nonpayable",
      "type": "function"
    },
    {
      "inputs": [
        {
          "internalType": "address",
          "name": "from",
          "type": "address"
        },
        {
          "internalType": "address",
          "name": "to",
          "type": "address"
        },
        {
          "internalType": "uint256",
          "name": "tokenId",
          "type": "uint256"
        }
      ],
      "name": "safeTransferFrom",
      "outputs": [],
      "stateMutability": "nonpayable",
      "type": "function"
    },
    {
      "inputs": [
        {
          "internalType": "address",
          "name": "from",
          "type": "address"
        },
        {
          "internalType": "address",
          "name": "to",
          "type": "address"
        },
        {
          "internalType": "uint256",
          "name": "tokenId",
          "type": "uint256"
        },
        {
          "internalType": "bytes",
          "name": "data",
          "type": "bytes"
        }
      ],
      "name": "safeTransferFrom",
      "outputs": [],
      "stateMutability": "nonpayable",
      "type": "function"
    },
    {
      "inputs": [
        {
          "components": [
            {
              "internalType": "uint256",
              "name": "Id",
              "type": "uint256"
            },
            {
              "internalType": "uint256",
              "name": "amount",
              "type": "uint256"
            },
            {
              "internalType": "bytes32",
              "name": "messageHash",
              "type": "bytes32"
            }
          ],
          "internalType": "struct ConstructERC721V1.SellOrder",
          "name": "_order",
          "type": "tuple"
        },
        {
          "internalType": "bytes",
          "name": "_signature",
          "type": "bytes"
        }
      ],
      "name": "sellAlloyConstruct",
      "outputs": [],
      "stateMutability": "nonpayable",
      "type": "function"
    },
    {
      "inputs": [
        {
          "internalType": "address",
          "name": "operator",
          "type": "address"
        },
        {
          "internalType": "bool",
          "name": "approved",
          "type": "bool"
        }
      ],
      "name": "setApprovalForAll",
      "outputs": [],
      "stateMutability": "nonpayable",
      "type": "function"
    },
    {
      "inputs": [
        {
          "internalType": "bytes4",
          "name": "interfaceId",
          "type": "bytes4"
        }
      ],
      "name": "supportsInterface",
      "outputs": [
        {
          "internalType": "bool",
          "name": "",
          "type": "bool"
        }
      ],
      "stateMutability": "view",
      "type": "function"
    },
    {
      "inputs": [],
      "name": "symbol",
      "outputs": [
        {
          "internalType": "string",
          "name": "",
          "type": "string"
        }
      ],
      "stateMutability": "view",
      "type": "function"
    },
    {
      "inputs": [],
      "name": "tokenCounter",
      "outputs": [
        {
          "internalType": "uint256",
          "name": "",
          "type": "uint256"
        }
      ],
      "stateMutability": "view",
      "type": "function"
    },
    {
      "inputs": [
        {
          "internalType": "uint256",
          "name": "_tokenId",
          "type": "uint256"
        }
      ],
      "name": "tokenURI",
      "outputs": [
        {
          "internalType": "string",
          "name": "",
          "type": "string"
        }
      ],
      "stateMutability": "view",
      "type": "function"
    },
    {
      "inputs": [
        {
          "internalType": "address",
          "name": "from",
          "type": "address"
        },
        {
          "internalType": "address",
          "name": "to",
          "type": "address"
        },
        {
          "internalType": "uint256",
          "name": "tokenId",
          "type": "uint256"
        }
      ],
      "name": "transferFrom",
      "outputs": [],
      "stateMutability": "nonpayable",
      "type": "function"
    },
    {
      "inputs": [
        {
          "internalType": "address",
          "name": "newOwner",
          "type": "address"
        }
      ],
      "name": "transferOwnership",
      "outputs": [],
      "stateMutability": "nonpayable",
      "type": "function"
    },
    {
      "inputs": [
        {
          "internalType": "string",
          "name": "_baseuri",
          "type": "string"
        },
        {
          "internalType": "string",
          "name": "_extension",
          "type": "string"
        }
      ],
      "name": "upadateDefaultUri",
      "outputs": [],
      "stateMutability": "nonpayable",
      "type": "function"
    },
    {
      "inputs": [
        {
          "internalType": "address",
          "name": "_arc_address",
          "type": "address"
        },
        {
          "internalType": "address",
          "name": "_merchant_address",
          "type": "address"
        },
        {
          "internalType": "address",
          "name": "_nioz_address",
          "type": "address"
        },
        {
          "internalType": "address",
          "name": "_Arf_address",
          "type": "address"
        }
      ],
      "name": "updateWallets",
      "outputs": [],
      "stateMutability": "nonpayable",
      "type": "function"
    }
  ],
  "bytecode": "0x608060405234801561001057600080fd5b50616d3380620000216000396000f3fe6080604052600436106101ee5760003560e01c80637dd12d151161010d578063ba66b54c116100a0578063cb73bff11161006f578063cb73bff1146106dd578063d082e38114610708578063e985e9c514610733578063f2fde38b14610770578063fcca9f3814610799576101ee565b8063ba66b54c1461061e578063be6d6a6f14610647578063c87b56dd14610663578063c9941806146106a0576101ee565b806395d89b41116100dc57806395d89b411461057857806397c04edb146105a3578063a22cb465146105cc578063b88d4fde146105f5576101ee565b80637dd12d15146104ef5780638129fc1c1461051a5780638da5cb5b146105315780639401c1e41461055c576101ee565b806342842e0e116101855780636fc04381116101545780636fc043811461044957806370a0823114610472578063715018a6146104af578063743e540d146104c6576101ee565b806342842e0e1461038f5780636352211e146103b85780636943f71e146103f55780636ef1eee41461041e576101ee565b8063095ea7b3116101c1578063095ea7b3146102c35780631cfb7a0b146102ec57806323b872dd146103295780632c7d077e14610352576101ee565b806301ffc9a7146101f357806304a4362e1461023057806306fdde031461025b578063081812fc14610286575b600080fd5b3480156101ff57600080fd5b5061021a6004803603810190610215919061496f565b6107d6565b60405161022791906149b7565b60405180910390f35b34801561023c57600080fd5b506102456108b8565b6040516102529190614a51565b60405180910390f35b34801561026757600080fd5b506102706108df565b60405161027d9190614afc565b60405180910390f35b34801561029257600080fd5b506102ad60048036038101906102a89190614b54565b610971565b6040516102ba9190614ba2565b60405180910390f35b3480156102cf57600080fd5b506102ea60048036038101906102e59190614be9565b6109b7565b005b3480156102f857600080fd5b50610313600480360381019061030e9190614b54565b610ace565b60405161032091906149b7565b60405180910390f35b34801561033557600080fd5b50610350600480360381019061034b9190614c29565b610aef565b005b34801561035e57600080fd5b5061037960048036038101906103749190614b54565b610b4f565b6040516103869190614c8b565b60405180910390f35b34801561039b57600080fd5b506103b660048036038101906103b19190614c29565b610c29565b005b3480156103c457600080fd5b506103df60048036038101906103da9190614b54565b610c49565b6040516103ec9190614ba2565b60405180910390f35b34801561040157600080fd5b5061041c60048036038101906104179190614f7f565b610ccf565b005b34801561042a57600080fd5b506104336113f6565b6040516104409190614a51565b60405180910390f35b34801561045557600080fd5b50610470600480360381019061046b919061505b565b61141c565b005b34801561047e57600080fd5b50610499600480360381019061049491906150b7565b6119d5565b6040516104a69190614c8b565b60405180910390f35b3480156104bb57600080fd5b506104c4611a8c565b005b3480156104d257600080fd5b506104ed60048036038101906104e891906150e4565b611aa0565b005b3480156104fb57600080fd5b50610504611c40565b6040516105119190614ba2565b60405180910390f35b34801561052657600080fd5b5061052f611c66565b005b34801561053d57600080fd5b50610546611fee565b6040516105539190614ba2565b60405180910390f35b6105766004803603810190610571919061505b565b612018565b005b34801561058457600080fd5b5061058d612594565b60405161059a9190614afc565b60405180910390f35b3480156105af57600080fd5b506105ca60048036038101906105c591906151ec565b612626565b005b3480156105d857600080fd5b506105f360048036038101906105ee9190615290565b6126b6565b005b34801561060157600080fd5b5061061c600480360381019061061791906152d0565b6126cc565b005b34801561062a57600080fd5b50610645600480360381019061064091906153a3565b61272e565b005b610661600480360381019061065c9190615477565b612c8b565b005b34801561066f57600080fd5b5061068a60048036038101906106859190614b54565b613192565b6040516106979190614afc565b60405180910390f35b3480156106ac57600080fd5b506106c760048036038101906106c291906154d3565b61329d565b6040516106d491906149b7565b60405180910390f35b3480156106e957600080fd5b506106f26132d4565b6040516106ff919061553d565b60405180910390f35b34801561071457600080fd5b5061071d6132fb565b60405161072a9190614c8b565b60405180910390f35b34801561073f57600080fd5b5061075a60048036038101906107559190615558565b613301565b60405161076791906149b7565b60405180910390f35b34801561077c57600080fd5b50610797600480360381019061079291906150b7565b613395565b005b3480156107a557600080fd5b506107c060048036038101906107bb9190614b54565b613418565b6040516107cd91906149b7565b60405180910390f35b60007f80ac58cd000000000000000000000000000000000000000000000000000000007bffffffffffffffffffffffffffffffffffffffffffffffffffffffff1916827bffffffffffffffffffffffffffffffffffffffffffffffffffffffff191614806108a157507f5b5e139f000000000000000000000000000000000000000000000000000000007bffffffffffffffffffffffffffffffffffffffffffffffffffffffff1916827bffffffffffffffffffffffffffffffffffffffffffffffffffffffff1916145b806108b157506108b082613439565b5b9050919050565b61010060009054906101000a900473ffffffffffffffffffffffffffffffffffffffff1681565b6060606580546108ee906155c7565b80601f016020809104026020016040519081016040528092919081815260200182805461091a906155c7565b80156109675780601f1061093c57610100808354040283529160200191610967565b820191906000526020600020905b81548152906001019060200180831161094a57829003601f168201915b5050505050905090565b600061097c826134a3565b6069600083815260200190815260200160002060009054906101000a900473ffffffffffffffffffffffffffffffffffffffff169050919050565b60006109c282610c49565b90508073ffffffffffffffffffffffffffffffffffffffff168373ffffffffffffffffffffffffffffffffffffffff1603610a32576040517f08c379a0000000000000000000000000000000000000000000000000000000008152600401610a299061566a565b60405180910390fd5b8073ffffffffffffffffffffffffffffffffffffffff16610a516134ee565b73ffffffffffffffffffffffffffffffffffffffff161480610a805750610a7f81610a7a6134ee565b613301565b5b610abf576040517f08c379a0000000000000000000000000000000000000000000000000000000008152600401610ab6906156fc565b60405180910390fd5b610ac983836134f6565b505050565b6101046020528060005260406000206000915054906101000a900460ff1681565b610b00610afa6134ee565b826135af565b610b3f576040517f08c379a0000000000000000000000000000000000000000000000000000000008152600401610b369061578e565b60405180910390fd5b610b4a838383613644565b505050565b6000610b6567879575944c1fb4de60c01b61393d565b610b7967fea1701351c6c4d660c01b61393d565b6103e88260ff60009054906101000a900473ffffffffffffffffffffffffffffffffffffffff1673ffffffffffffffffffffffffffffffffffffffff16636fb1eb0c6040518163ffffffff1660e01b8152600401602060405180830381865afa158015610bea573d6000803e3d6000fd5b505050506040513d601f19601f82011682018060405250810190610c0e91906157c3565b610c18919061581f565b610c2291906158a8565b9050919050565b610c44838383604051806020016040528060008152506126cc565b505050565b600080610c5583613940565b9050600073ffffffffffffffffffffffffffffffffffffffff168173ffffffffffffffffffffffffffffffffffffffff1603610cc6576040517f08c379a0000000000000000000000000000000000000000000000000000000008152600401610cbd90615925565b60405180910390fd5b80915050919050565b610ce367858690acb5d620d160c01b61393d565b610ceb61397d565b610cff67097cbceddb93797b60c01b61393d565b610d1367fd2d84df8b9e952b60c01b61393d565b610d2767d689dd620b304eaa60c01b61393d565b610d3b67649a66618565a5ca60c01b61393d565b610d4f67e324d7cf1f73ba8360c01b61393d565b610d65610d5a611fee565b8360400151836139cc565b8015610d9b575061010281604051610d7d919061598c565b908152602001604051809103902060009054906101000a900460ff16155b8015610e41575061010160009054906101000a900473ffffffffffffffffffffffffffffffffffffffff1673ffffffffffffffffffffffffffffffffffffffff1663c9941806826040518263ffffffff1660e01b8152600401610dfe91906159ed565b602060405180830381865afa158015610e1b573d6000803e3d6000fd5b505050506040513d601f19601f82011682018060405250810190610e3f9190615a24565b155b8015610ee7575061010060009054906101000a900473ffffffffffffffffffffffffffffffffffffffff1673ffffffffffffffffffffffffffffffffffffffff1663c9941806826040518263ffffffff1660e01b8152600401610ea491906159ed565b602060405180830381865afa158015610ec1573d6000803e3d6000fd5b505050506040513d601f19601f82011682018060405250810190610ee59190615a24565b155b8015610f8c575060ff60009054906101000a900473ffffffffffffffffffffffffffffffffffffffff1673ffffffffffffffffffffffffffffffffffffffff1663c9941806826040518263ffffffff1660e01b8152600401610f4991906159ed565b602060405180830381865afa158015610f66573d6000803e3d6000fd5b505050506040513d601f19601f82011682018060405250810190610f8a9190615a24565b155b610fcb576040517f08c379a0000000000000000000000000000000000000000000000000000000008152600401610fc290615a9d565b60405180910390fd5b610fdf67b8aaeaeb4c4a0e1160c01b61393d565b610ff367fccd693312cd7b9c60c01b61393d565b610105600061100291906148c5565b61101667cd3a3a9b79dfff9560c01b61393d565b61102a675f295cab12f6c93a60c01b61393d565b60005b82600001515181101561127b5761104e67771ee4c6a78b7f5260c01b61393d565b611062673b1a77edacca600660c01b61393d565b61107667654ba3432792e3b260c01b61393d565b61010460008460000151838151811061109257611091615abd565b5b6020026020010151815260200190815260200160002060009054906101000a900460ff1615801561110057506101036000846000015183815181106110da576110d9615abd565b5b6020026020010151815260200190815260200160002060009054906101000a900460ff16155b61113f576040517f08c379a000000000000000000000000000000000000000000000000000000000815260040161113690615b38565b60405180910390fd5b61115367443fe02cab7fff2560c01b61393d565b61116767a82c2b0e8cf167e860c01b61393d565b600161010360008560000151848151811061118557611184615abd565b5b6020026020010151815260200190815260200160002060006101000a81548160ff0219169083151502179055506111c667ec1ae5c9cbdf008b60c01b61393d565b600160fb60008282546111d99190615b58565b925050819055506111f46716c5efea0b87797360c01b61393d565b61120867816a059b81d2677a60c01b61393d565b6112143360fb54613b92565b6112286748cd4a5b540bc79e60c01b61393d565b61123c67544e302839daedd560c01b61393d565b61010560fb549080600181540180825580915050600190039060005260206000200160009091909190915055808061127390615b8c565b91505061102d565b50611290674fc60882579d474a60c01b61393d565b6112a46765171ed03066909760c01b61393d565b60ff60009054906101000a900473ffffffffffffffffffffffffffffffffffffffff1673ffffffffffffffffffffffffffffffffffffffff166399b9c61d83602001516040518263ffffffff1660e01b81526004016113039190615cde565b600060405180830381600087803b15801561131d57600080fd5b505af1158015611331573d6000803e3d6000fd5b50505050611349678813e55b5bfeb6f260c01b61393d565b60016101028260405161135c919061598c565b908152602001604051809103902060006101000a81548160ff0219169083151502179055506113956757717ab8890afe9260c01b61393d565b6113a967b53061739e8b19e160c01b61393d565b7f4460facd664860c4bb5edaa48402c019a8d10f1c4ac640dd7b3e1dc4c9e6335f3383600001516101056040516113e293929190615de9565b60405180910390a16113f2613bb0565b5050565b60ff60009054906101000a900473ffffffffffffffffffffffffffffffffffffffff1681565b6114306771175f941f2365f860c01b61393d565b61143861397d565b61144c6746c9fdf7f26b461460c01b61393d565b61146067b3d0997e0872971f60c01b61393d565b611474673dc50041d0f0bb4160c01b61393d565b61148867264247568ebd23db60c01b61393d565b61149c67cda1901bbe7ca52260c01b61393d565b6114b26114a7611fee565b8360400151836139cc565b80156114e85750610102816040516114ca919061598c565b908152602001604051809103902060009054906101000a900460ff16155b801561158e575061010160009054906101000a900473ffffffffffffffffffffffffffffffffffffffff1673ffffffffffffffffffffffffffffffffffffffff1663c9941806826040518263ffffffff1660e01b815260040161154b91906159ed565b602060405180830381865afa158015611568573d6000803e3d6000fd5b505050506040513d601f19601f8201168201806040525081019061158c9190615a24565b155b8015611634575061010060009054906101000a900473ffffffffffffffffffffffffffffffffffffffff1673ffffffffffffffffffffffffffffffffffffffff1663c9941806826040518263ffffffff1660e01b81526004016115f191906159ed565b602060405180830381865afa15801561160e573d6000803e3d6000fd5b505050506040513d601f19601f820116820180604052508101906116329190615a24565b155b80156116d9575060ff60009054906101000a900473ffffffffffffffffffffffffffffffffffffffff1673ffffffffffffffffffffffffffffffffffffffff1663c9941806826040518263ffffffff1660e01b815260040161169691906159ed565b602060405180830381865afa1580156116b3573d6000803e3d6000fd5b505050506040513d601f19601f820116820180604052508101906116d79190615a24565b155b611718576040517f08c379a000000000000000000000000000000000000000000000000000000000815260040161170f90615a9d565b60405180910390fd5b61172c6705585376f0dcee5a60c01b61393d565b61174067a19c56036bdebeb360c01b61393d565b611754676eb7d33ba1cab86560c01b61393d565b61176867919bd09c7eebf50160c01b61393d565b61010460008360000151815260200190815260200160002060009054906101000a900460ff161580156117be575061010360008360000151815260200190815260200160002060009054906101000a900460ff16155b6117fd576040517f08c379a00000000000000000000000000000000000000000000000000000000081526004016117f490615b38565b60405180910390fd5b61181167706b1aa484576cca60c01b61393d565b611825672f97e4949bec49d760c01b61393d565b611839674fba04b09c28467660c01b61393d565b61010160009054906101000a900473ffffffffffffffffffffffffffffffffffffffff1673ffffffffffffffffffffffffffffffffffffffff166340c10f193384602001516040518363ffffffff1660e01b815260040161189b929190615e41565b600060405180830381600087803b1580156118b557600080fd5b505af11580156118c9573d6000803e3d6000fd5b505050506118e167f9512ab95cd027d760c01b61393d565b6001610102826040516118f4919061598c565b908152602001604051809103902060006101000a81548160ff02191690831515021790555061192d674c680276d14b4aec60c01b61393d565b600161010460008460000151815260200190815260200160002060006101000a81548160ff0219169083151502179055506119726776519030471a362460c01b61393d565b611986677a76d69b0efc525160c01b61393d565b7f182a2dc5849b17b73ce7928eb8e0ddc317a5d8f78b8deda6f07e7927833f774433836020015184600001516040516119c193929190615e6a565b60405180910390a16119d1613bb0565b5050565b60008073ffffffffffffffffffffffffffffffffffffffff168273ffffffffffffffffffffffffffffffffffffffff1603611a45576040517f08c379a0000000000000000000000000000000000000000000000000000000008152600401611a3c90615f26565b60405180910390fd5b606860008373ffffffffffffffffffffffffffffffffffffffff1673ffffffffffffffffffffffffffffffffffffffff168152602001908152602001600020549050919050565b611a94613bba565b611a9e6000613c38565b565b611ab4678e9c077b44190b6260c01b61393d565b611abc613bba565b611ad067362d6c9876eccba860c01b61393d565b611ae4677cdd45ce329132a060c01b61393d565b611af867eaca844f6d780b8e60c01b61393d565b8360ff60006101000a81548173ffffffffffffffffffffffffffffffffffffffff021916908373ffffffffffffffffffffffffffffffffffffffff160217905550611b4d6791d8698a166dcda960c01b61393d565b8161010160006101000a81548173ffffffffffffffffffffffffffffffffffffffff021916908373ffffffffffffffffffffffffffffffffffffffff160217905550611ba36750cd4abed36f207360c01b61393d565b8260fe60006101000a81548173ffffffffffffffffffffffffffffffffffffffff021916908373ffffffffffffffffffffffffffffffffffffffff160217905550611bf867c439a14c3c4cfb7c60c01b61393d565b8061010060006101000a81548173ffffffffffffffffffffffffffffffffffffffff021916908373ffffffffffffffffffffffffffffffffffffffff16021790555050505050565b60fe60009054906101000a900473ffffffffffffffffffffffffffffffffffffffff1681565b611c7a67306910ac1ee5377860c01b61393d565b60008060019054906101000a900460ff16159050808015611cab5750600160008054906101000a900460ff1660ff16105b80611cd85750611cba30613cfe565b158015611cd75750600160008054906101000a900460ff1660ff16145b5b611d17576040517f08c379a0000000000000000000000000000000000000000000000000000000008152600401611d0e90615fb8565b60405180910390fd5b60016000806101000a81548160ff021916908360ff1602179055508015611d54576001600060016101000a81548160ff0219169083151502179055505b611d6867903756398606d5e160c01b61393d565b611d7c67446454e6db8ff38c60c01b61393d565b611d90670f2d2dbb51f5983960c01b61393d565b611da467dc30a29b9c7100f860c01b61393d565b611e186040518060400160405280601581526020017f416c6c6f7920537061636520436f6e73747275637400000000000000000000008152506040518060400160405280600c81526020017f436f6e7374727563742d54540000000000000000000000000000000000000000815250613d21565b611e2c67dc27138ebab27e5060c01b61393d565b611e4067435f51aad9740cae60c01b61393d565b611e48613d7e565b611e5c67f6fdf30ecceb51f060c01b61393d565b611e7067c998ce4712948fb960c01b61393d565b611e78613dd7565b611e8c671a1d0512f233935d60c01b61393d565b604051806060016040528060288152602001616cd66028913960fc9081611eb3919061617a565b50611ec86760e527681e5260e360c01b61393d565b6040518060400160405280600f81526020017f2d746f6b656e2d7572692e6a736f6e000000000000000000000000000000000081525060fd9081611f0c919061617a565b50611f216767b51bac550613d360c01b61393d565b600060fb81905550611f3d672685189a7bddd15160c01b61393d565b7325fc99ef8c2be73c303f7e54a0c2da423e48326b60fe60006101000a81548173ffffffffffffffffffffffffffffffffffffffff021916908373ffffffffffffffffffffffffffffffffffffffff1602179055508015611feb5760008060016101000a81548160ff0219169083151502179055507f7f26b83ff96e1f2b6a682f133852f6798a09c465da95921460cefb38474024986001604051611fe29190616294565b60405180910390a15b50565b6000609760009054906101000a900473ffffffffffffffffffffffffffffffffffffffff16905090565b61202c67f566226bcfa04dbb60c01b61393d565b61203461397d565b61204867d0d54e15e960ed3360c01b61393d565b61205c67580a4f291efdd44e60c01b61393d565b61207067f8f6900d9161fd8360c01b61393d565b612084675a91b377e70783ed60c01b61393d565b60006120938360000151610c49565b90506120a9674e03096c3f4513e160c01b61393d565b6120bd6744c83a0edd63a15660c01b61393d565b6120d167fa7d940773de88ea60c01b61393d565b6120e0818460400151846139cc565b80156121165750610102826040516120f8919061598c565b908152602001604051809103902060009054906101000a900460ff16155b80156121bc575061010160009054906101000a900473ffffffffffffffffffffffffffffffffffffffff1673ffffffffffffffffffffffffffffffffffffffff1663c9941806836040518263ffffffff1660e01b815260040161217991906159ed565b602060405180830381865afa158015612196573d6000803e3d6000fd5b505050506040513d601f19601f820116820180604052508101906121ba9190615a24565b155b8015612261575060ff60009054906101000a900473ffffffffffffffffffffffffffffffffffffffff1673ffffffffffffffffffffffffffffffffffffffff1663c9941806836040518263ffffffff1660e01b815260040161221e91906159ed565b602060405180830381865afa15801561223b573d6000803e3d6000fd5b505050506040513d601f19601f8201168201806040525081019061225f9190615a24565b155b6122a0576040517f08c379a0000000000000000000000000000000000000000000000000000000008152600401612297906162fb565b60405180910390fd5b6122b4679c5f19bae140eb0f60c01b61393d565b6122c8679e001a7da12eb75f60c01b61393d565b6122dc67ef4f555e48e1b60760c01b61393d565b6122f0677c9d0a7eee850c4460c01b61393d565b34836020015114612336576040517f08c379a000000000000000000000000000000000000000000000000000000000815260040161232d9061638d565b60405180910390fd5b61234a67046927242f69c4ed60c01b61393d565b61235e67142e1a01bc3730f660c01b61393d565b61237267de2697317132979b60c01b61393d565b6123918133856000015160405180602001604052806000815250613e30565b6123a567acb8cd1d9dde3d8760c01b61393d565b6001610102836040516123b8919061598c565b908152602001604051809103902060006101000a81548160ff0219169083151502179055506123f16742c661383357f03260c01b61393d565b61240567228ff3d570bdca3d60c01b61393d565b600061241034610b4f565b9050612426670d6465bbe36da72760c01b61393d565b61243a67aeac0afc8bfcb4bd60c01b61393d565b60fe60009054906101000a900473ffffffffffffffffffffffffffffffffffffffff1673ffffffffffffffffffffffffffffffffffffffff166108fc829081150290604051600060405180830381858888f193505050501580156124a2573d6000803e3d6000fd5b506124b767778c306af50b8ffb60c01b61393d565b6124cb675889af5f8eba611260c01b61393d565b8173ffffffffffffffffffffffffffffffffffffffff166108fc82346124f191906163ad565b9081150290604051600060405180830381858888f1935050505015801561251c573d6000803e3d6000fd5b5061253167932b3363d385b8c460c01b61393d565b612545672ef438c517a8bd6360c01b61393d565b7f80cf10dac1b681dc583a2a6ab3d1e5279e026d3fb3c9001157fc290c9a1bed69823334876000015160405161257e94939291906163e1565b60405180910390a15050612590613bb0565b5050565b6060606680546125a3906155c7565b80601f01602080910402602001604051908101604052809291908181526020018280546125cf906155c7565b801561261c5780601f106125f15761010080835404028352916020019161261c565b820191906000526020600020905b8154815290600101906020018083116125ff57829003601f168201915b5050505050905090565b61263a6780ada2b2bc7cc43060c01b61393d565b612642613bba565b612656673971fa4e500e956e60c01b61393d565b61266a6704ae721835ee69b560c01b61393d565b61267e670c8cfb23aeeb153960c01b61393d565b8160fc908161268d919061617a565b506126a267d68fc770b603efb660c01b61393d565b8060fd90816126b1919061617a565b505050565b6126c86126c16134ee565b8383613e8c565b5050565b6126dd6126d76134ee565b836135af565b61271c576040517f08c379a00000000000000000000000000000000000000000000000000000000081526004016127139061578e565b60405180910390fd5b61272884848484613e30565b50505050565b61274267a79711601946fd3660c01b61393d565b61274a61397d565b61275e675c4ea437230b8fd160c01b61393d565b61277267764c1905ce800f2560c01b61393d565b6127866702cb76585f3c6ce960c01b61393d565b61279a677d8b93b692f9530760c01b61393d565b6127ae67c8aeacf6a31b146c60c01b61393d565b6127c46127b9611fee565b8360200151836139cc565b80156127fa5750610102816040516127dc919061598c565b908152602001604051809103902060009054906101000a900460ff16155b80156128a0575061010160009054906101000a900473ffffffffffffffffffffffffffffffffffffffff1673ffffffffffffffffffffffffffffffffffffffff1663c9941806826040518263ffffffff1660e01b815260040161285d91906159ed565b602060405180830381865afa15801561287a573d6000803e3d6000fd5b505050506040513d601f19601f8201168201806040525081019061289e9190615a24565b155b8015612946575061010060009054906101000a900473ffffffffffffffffffffffffffffffffffffffff1673ffffffffffffffffffffffffffffffffffffffff1663c9941806826040518263ffffffff1660e01b815260040161290391906159ed565b602060405180830381865afa158015612920573d6000803e3d6000fd5b505050506040513d601f19601f820116820180604052508101906129449190615a24565b155b80156129eb575060ff60009054906101000a900473ffffffffffffffffffffffffffffffffffffffff1673ffffffffffffffffffffffffffffffffffffffff1663c9941806826040518263ffffffff1660e01b81526004016129a891906159ed565b602060405180830381865afa1580156129c5573d6000803e3d6000fd5b505050506040513d601f19601f820116820180604052508101906129e99190615a24565b155b612a2a576040517f08c379a0000000000000000000000000000000000000000000000000000000008152600401612a2190615a9d565b60405180910390fd5b612a3e675b379508c4c3d51260c01b61393d565b612a5267768e5911fa54940f60c01b61393d565b612a66670327f3ce21132ad360c01b61393d565b612a7a6795a5eeb2d7f44d4360c01b61393d565b61010460008360000151815260200190815260200160002060009054906101000a900460ff16158015612ad0575061010360008360000151815260200190815260200160002060009054906101000a900460ff16155b612b0f576040517f08c379a0000000000000000000000000000000000000000000000000000000008152600401612b06906164ab565b60405180910390fd5b612b2367bafe26991916f34660c01b61393d565b612b376723ca86b3617f156060c01b61393d565b600160fb6000828254612b4a9190615b58565b92505081905550612b6567e24bfdbfd3f752d560c01b61393d565b612b7967511cf128e73a41e360c01b61393d565b612b853360fb54613b92565b612b9967f3c19e21f90a84a460c01b61393d565b600161010282604051612bac919061598c565b908152602001604051809103902060006101000a81548160ff021916908315150217905550612be56760bd2a8f23b5486f60c01b61393d565b600161010360008460000151815260200190815260200160002060006101000a81548160ff021916908315150217905550612c2a67551f85aacadc7aa560c01b61393d565b612c3e674c39979a720999e160c01b61393d565b7fe7604a06853a01c9d3ee025c9ff0a03d831d3ef8fc8d7fe1632019b84c4f400133836000015160fb54604051612c7793929190615e6a565b60405180910390a1612c87613bb0565b5050565b612c9f6762e9fdd80d52c8e360c01b61393d565b612ca761397d565b612cbb673827179ca77474f460c01b61393d565b612ccf6775c2d74141801ed460c01b61393d565b612ce367df6dd00303bd7baa60c01b61393d565b612cf767e683eaaf5c452bca60c01b61393d565b612d0b67ac2ed282ec7747ae60c01b61393d565b612d1e82602001518360600151836139cc565b8015612d54575061010281604051612d36919061598c565b908152602001604051809103902060009054906101000a900460ff16155b8015612dfa575061010160009054906101000a900473ffffffffffffffffffffffffffffffffffffffff1673ffffffffffffffffffffffffffffffffffffffff1663c9941806826040518263ffffffff1660e01b8152600401612db791906159ed565b602060405180830381865afa158015612dd4573d6000803e3d6000fd5b505050506040513d601f19601f82011682018060405250810190612df89190615a24565b155b8015612e9f575060ff60009054906101000a900473ffffffffffffffffffffffffffffffffffffffff1673ffffffffffffffffffffffffffffffffffffffff1663c9941806826040518263ffffffff1660e01b8152600401612e5c91906159ed565b602060405180830381865afa158015612e79573d6000803e3d6000fd5b505050506040513d601f19601f82011682018060405250810190612e9d9190615a24565b155b612ede576040517f08c379a0000000000000000000000000000000000000000000000000000000008152600401612ed5906162fb565b60405180910390fd5b612ef267bfdbe2f90fd6bb8160c01b61393d565b612f0667764b625fb3aa485860c01b61393d565b612f1a67d0b1eee4808aea1060c01b61393d565b612f2e675fd8ad26e6a4b6b160c01b61393d565b34826040015114612f74576040517f08c379a0000000000000000000000000000000000000000000000000000000008152600401612f6b9061638d565b60405180910390fd5b612f886715aad79d00edafd560c01b61393d565b612f9c67ae0a28820c3b8ea460c01b61393d565b600161010282604051612faf919061598c565b908152602001604051809103902060006101000a81548160ff021916908315150217905550612fe8674f828d65d9a2d0ea60c01b61393d565b612ffc67e0b39b095461d3d360c01b61393d565b600061300734610b4f565b905061301d67ab57b606e14c76e360c01b61393d565b613031675d4ae9a3d95efb4760c01b61393d565b60fe60009054906101000a900473ffffffffffffffffffffffffffffffffffffffff1673ffffffffffffffffffffffffffffffffffffffff166108fc829081150290604051600060405180830381858888f19350505050158015613099573d6000803e3d6000fd5b506130ae67c30f552f64589fa660c01b61393d565b6130c2674a8aaadca7a08ab860c01b61393d565b826020015173ffffffffffffffffffffffffffffffffffffffff166108fc82346130ec91906163ad565b9081150290604051600060405180830381858888f19350505050158015613117573d6000803e3d6000fd5b5061312c674f3f61818bbb408c60c01b61393d565b613140672ee1815e3685368f60c01b61393d565b7f56c6df46197a10df7ec2a7edea1cf7f79fcc3c5e63714f92240b17a4a1ad4b1683602001513334866000015160405161317d94939291906163e1565b60405180910390a15061318e613bb0565b5050565b60606131a8679344570a17b7555960c01b61393d565b6131bc6765392a683eab7c6760c01b61393d565b6131d067ff039c040356fb2b60c01b61393d565b6131e4672e6f186a1a07e1cb60c01b61393d565b6131ed82613ff8565b61322c576040517f08c379a00000000000000000000000000000000000000000000000000000000081526004016132239061653d565b60405180910390fd5b613240678ed9ffe934adcdcc60c01b61393d565b613254678277f95beeb5a5aa60c01b61393d565b613268671d5e55c5863d8d0d60c01b61393d565b60fc61327383614039565b60fd6040516020016132879392919061661c565b6040516020818303038152906040529050919050565b610102818051602081018201805184825260208301602085012081835280955050505050506000915054906101000a900460ff1681565b61010160009054906101000a900473ffffffffffffffffffffffffffffffffffffffff1681565b60fb5481565b6000606a60008473ffffffffffffffffffffffffffffffffffffffff1673ffffffffffffffffffffffffffffffffffffffff16815260200190815260200160002060008373ffffffffffffffffffffffffffffffffffffffff1673ffffffffffffffffffffffffffffffffffffffff16815260200190815260200160002060009054906101000a900460ff16905092915050565b61339d613bba565b600073ffffffffffffffffffffffffffffffffffffffff168173ffffffffffffffffffffffffffffffffffffffff160361340c576040517f08c379a0000000000000000000000000000000000000000000000000000000008152600401613403906166bf565b60405180910390fd5b61341581613c38565b50565b6101036020528060005260406000206000915054906101000a900460ff1681565b60007f01ffc9a7000000000000000000000000000000000000000000000000000000007bffffffffffffffffffffffffffffffffffffffffffffffffffffffff1916827bffffffffffffffffffffffffffffffffffffffffffffffffffffffff1916149050919050565b6134ac81613ff8565b6134eb576040517f08c379a00000000000000000000000000000000000000000000000000000000081526004016134e290615925565b60405180910390fd5b50565b600033905090565b816069600083815260200190815260200160002060006101000a81548173ffffffffffffffffffffffffffffffffffffffff021916908373ffffffffffffffffffffffffffffffffffffffff160217905550808273ffffffffffffffffffffffffffffffffffffffff1661356983610c49565b73ffffffffffffffffffffffffffffffffffffffff167f8c5be1e5ebec7d5bd14f71427d1e84f3dd0314c0f7b2291e5b200ac8c7c3b92560405160405180910390a45050565b6000806135bb83610c49565b90508073ffffffffffffffffffffffffffffffffffffffff168473ffffffffffffffffffffffffffffffffffffffff1614806135fd57506135fc8185613301565b5b8061363b57508373ffffffffffffffffffffffffffffffffffffffff1661362384610971565b73ffffffffffffffffffffffffffffffffffffffff16145b91505092915050565b8273ffffffffffffffffffffffffffffffffffffffff1661366482610c49565b73ffffffffffffffffffffffffffffffffffffffff16146136ba576040517f08c379a00000000000000000000000000000000000000000000000000000000081526004016136b190616751565b60405180910390fd5b600073ffffffffffffffffffffffffffffffffffffffff168273ffffffffffffffffffffffffffffffffffffffff1603613729576040517f08c379a0000000000000000000000000000000000000000000000000000000008152600401613720906167e3565b60405180910390fd5b6137368383836001614107565b8273ffffffffffffffffffffffffffffffffffffffff1661375682610c49565b73ffffffffffffffffffffffffffffffffffffffff16146137ac576040517f08c379a00000000000000000000000000000000000000000000000000000000081526004016137a390616751565b60405180910390fd5b6069600082815260200190815260200160002060006101000a81549073ffffffffffffffffffffffffffffffffffffffff02191690556001606860008573ffffffffffffffffffffffffffffffffffffffff1673ffffffffffffffffffffffffffffffffffffffff168152602001908152602001600020600082825403925050819055506001606860008473ffffffffffffffffffffffffffffffffffffffff1673ffffffffffffffffffffffffffffffffffffffff16815260200190815260200160002060008282540192505081905550816067600083815260200190815260200160002060006101000a81548173ffffffffffffffffffffffffffffffffffffffff021916908373ffffffffffffffffffffffffffffffffffffffff160217905550808273ffffffffffffffffffffffffffffffffffffffff168473ffffffffffffffffffffffffffffffffffffffff167fddf252ad1be2c89b69c2b068fc378daa952ba7f163c4a11628f55a4df523b3ef60405160405180910390a4613938838383600161410d565b505050565b50565b60006067600083815260200190815260200160002060009054906101000a900473ffffffffffffffffffffffffffffffffffffffff169050919050565b600260c954036139c2576040517f08c379a00000000000000000000000000000000000000000000000000000000081526004016139b99061684f565b60405180910390fd5b600260c981905550565b60008060006139db8585614113565b91509150600060048111156139f3576139f261686f565b5b816004811115613a0657613a0561686f565b5b148015613a3e57508573ffffffffffffffffffffffffffffffffffffffff168273ffffffffffffffffffffffffffffffffffffffff16145b15613a4e57600192505050613b8b565b6000808773ffffffffffffffffffffffffffffffffffffffff16631626ba7e60e01b8888604051602401613a839291906168ad565b604051602081830303815290604052907bffffffffffffffffffffffffffffffffffffffffffffffffffffffff19166020820180517bffffffffffffffffffffffffffffffffffffffffffffffffffffffff8381831617835250505050604051613aed919061598c565b600060405180830381855afa9150503d8060008114613b28576040519150601f19603f3d011682016040523d82523d6000602084013e613b2d565b606091505b5091509150818015613b40575060208151145b8015613b845750631626ba7e60e01b7bffffffffffffffffffffffffffffffffffffffffffffffffffffffff191681806020019051810190613b8291906168f2565b145b9450505050505b9392505050565b613bac828260405180602001604052806000815250614164565b5050565b600160c981905550565b613bc26134ee565b73ffffffffffffffffffffffffffffffffffffffff16613be0611fee565b73ffffffffffffffffffffffffffffffffffffffff1614613c36576040517f08c379a0000000000000000000000000000000000000000000000000000000008152600401613c2d9061696b565b60405180910390fd5b565b6000609760009054906101000a900473ffffffffffffffffffffffffffffffffffffffff16905081609760006101000a81548173ffffffffffffffffffffffffffffffffffffffff021916908373ffffffffffffffffffffffffffffffffffffffff1602179055508173ffffffffffffffffffffffffffffffffffffffff168173ffffffffffffffffffffffffffffffffffffffff167f8be0079c531659141344cd1fd0a4f28419497f9722a3daafe3b4186f6b6457e060405160405180910390a35050565b6000808273ffffffffffffffffffffffffffffffffffffffff163b119050919050565b600060019054906101000a900460ff16613d70576040517f08c379a0000000000000000000000000000000000000000000000000000000008152600401613d67906169fd565b60405180910390fd5b613d7a82826141bf565b5050565b600060019054906101000a900460ff16613dcd576040517f08c379a0000000000000000000000000000000000000000000000000000000008152600401613dc4906169fd565b60405180910390fd5b613dd5614232565b565b600060019054906101000a900460ff16613e26576040517f08c379a0000000000000000000000000000000000000000000000000000000008152600401613e1d906169fd565b60405180910390fd5b613e2e614293565b565b613e3b848484613644565b613e47848484846142ec565b613e86576040517f08c379a0000000000000000000000000000000000000000000000000000000008152600401613e7d90616a8f565b60405180910390fd5b50505050565b8173ffffffffffffffffffffffffffffffffffffffff168373ffffffffffffffffffffffffffffffffffffffff1603613efa576040517f08c379a0000000000000000000000000000000000000000000000000000000008152600401613ef190616afb565b60405180910390fd5b80606a60008573ffffffffffffffffffffffffffffffffffffffff1673ffffffffffffffffffffffffffffffffffffffff16815260200190815260200160002060008473ffffffffffffffffffffffffffffffffffffffff1673ffffffffffffffffffffffffffffffffffffffff16815260200190815260200160002060006101000a81548160ff0219169083151502179055508173ffffffffffffffffffffffffffffffffffffffff168373ffffffffffffffffffffffffffffffffffffffff167f17307eab39ab6107e8899845ad3d59bd9653f200f220920489ca2b5937696c3183604051613feb91906149b7565b60405180910390a3505050565b60008073ffffffffffffffffffffffffffffffffffffffff1661401a83613940565b73ffffffffffffffffffffffffffffffffffffffff1614159050919050565b60606000600161404884614473565b01905060008167ffffffffffffffff81111561406757614066614cab565b5b6040519080825280601f01601f1916602001820160405280156140995781602001600182028036833780820191505090505b509050600082602001820190505b6001156140fc578080600190039150507f3031323334353637383961626364656600000000000000000000000000000000600a86061a8153600a85816140f0576140ef615879565b5b049450600085036140a7575b819350505050919050565b50505050565b50505050565b60008060418351036141545760008060006020860151925060408601519150606086015160001a9050614148878285856145c6565b9450945050505061415d565b60006002915091505b9250929050565b61416e83836146a8565b61417b60008484846142ec565b6141ba576040517f08c379a00000000000000000000000000000000000000000000000000000000081526004016141b190616a8f565b60405180910390fd5b505050565b600060019054906101000a900460ff1661420e576040517f08c379a0000000000000000000000000000000000000000000000000000000008152600401614205906169fd565b60405180910390fd5b816065908161421d919061617a565b50806066908161422d919061617a565b505050565b600060019054906101000a900460ff16614281576040517f08c379a0000000000000000000000000000000000000000000000000000000008152600401614278906169fd565b60405180910390fd5b61429161428c6134ee565b613c38565b565b600060019054906101000a900460ff166142e2576040517f08c379a00000000000000000000000000000000000000000000000000000000081526004016142d9906169fd565b60405180910390fd5b600160c981905550565b600061430d8473ffffffffffffffffffffffffffffffffffffffff16613cfe565b15614466578373ffffffffffffffffffffffffffffffffffffffff1663150b7a026143366134ee565b8786866040518563ffffffff1660e01b81526004016143589493929190616b1b565b6020604051808303816000875af192505050801561439457506040513d601f19601f820116820180604052508101906143919190616b7c565b60015b614416573d80600081146143c4576040519150601f19603f3d011682016040523d82523d6000602084013e6143c9565b606091505b50600081510361440e576040517f08c379a000000000000000000000000000000000000000000000000000000000815260040161440590616a8f565b60405180910390fd5b805181602001fd5b63150b7a0260e01b7bffffffffffffffffffffffffffffffffffffffffffffffffffffffff1916817bffffffffffffffffffffffffffffffffffffffffffffffffffffffff19161491505061446b565b600190505b949350505050565b600080600090507a184f03e93ff9f4daa797ed6e38ed64bf6a1f01000000000000000083106144d1577a184f03e93ff9f4daa797ed6e38ed64bf6a1f01000000000000000083816144c7576144c6615879565b5b0492506040810190505b6d04ee2d6d415b85acef8100000000831061450e576d04ee2d6d415b85acef8100000000838161450457614503615879565b5b0492506020810190505b662386f26fc10000831061453d57662386f26fc10000838161453357614532615879565b5b0492506010810190505b6305f5e1008310614566576305f5e100838161455c5761455b615879565b5b0492506008810190505b612710831061458b57612710838161458157614580615879565b5b0492506004810190505b606483106145ae57606483816145a4576145a3615879565b5b0492506002810190505b600a83106145bd576001810190505b80915050919050565b6000807f7fffffffffffffffffffffffffffffff5d576e7357a4501ddfe92f46681b20a08360001c111561460157600060039150915061469f565b6000600187878787604051600081526020016040526040516146269493929190616bb8565b6020604051602081039080840390855afa158015614648573d6000803e3d6000fd5b505050602060405103519050600073ffffffffffffffffffffffffffffffffffffffff168173ffffffffffffffffffffffffffffffffffffffff16036146965760006001925092505061469f565b80600092509250505b94509492505050565b600073ffffffffffffffffffffffffffffffffffffffff168273ffffffffffffffffffffffffffffffffffffffff1603614717576040517f08c379a000000000000000000000000000000000000000000000000000000000815260040161470e90616c49565b60405180910390fd5b61472081613ff8565b15614760576040517f08c379a000000000000000000000000000000000000000000000000000000000815260040161475790616cb5565b60405180910390fd5b61476e600083836001614107565b61477781613ff8565b156147b7576040517f08c379a00000000000000000000000000000000000000000000000000000000081526004016147ae90616cb5565b60405180910390fd5b6001606860008473ffffffffffffffffffffffffffffffffffffffff1673ffffffffffffffffffffffffffffffffffffffff16815260200190815260200160002060008282540192505081905550816067600083815260200190815260200160002060006101000a81548173ffffffffffffffffffffffffffffffffffffffff021916908373ffffffffffffffffffffffffffffffffffffffff160217905550808273ffffffffffffffffffffffffffffffffffffffff16600073ffffffffffffffffffffffffffffffffffffffff167fddf252ad1be2c89b69c2b068fc378daa952ba7f163c4a11628f55a4df523b3ef60405160405180910390a46148c160008383600161410d565b5050565b50805460008255906000526020600020908101906148e391906148e6565b50565b5b808211156148ff5760008160009055506001016148e7565b5090565b6000604051905090565b600080fd5b600080fd5b60007fffffffff0000000000000000000000000000000000000000000000000000000082169050919050565b61494c81614917565b811461495757600080fd5b50565b60008135905061496981614943565b92915050565b6000602082840312156149855761498461490d565b5b60006149938482850161495a565b91505092915050565b60008115159050919050565b6149b18161499c565b82525050565b60006020820190506149cc60008301846149a8565b92915050565b600073ffffffffffffffffffffffffffffffffffffffff82169050919050565b6000819050919050565b6000614a17614a12614a0d846149d2565b6149f2565b6149d2565b9050919050565b6000614a29826149fc565b9050919050565b6000614a3b82614a1e565b9050919050565b614a4b81614a30565b82525050565b6000602082019050614a666000830184614a42565b92915050565b600081519050919050565b600082825260208201905092915050565b60005b83811015614aa6578082015181840152602081019050614a8b565b60008484015250505050565b6000601f19601f8301169050919050565b6000614ace82614a6c565b614ad88185614a77565b9350614ae8818560208601614a88565b614af181614ab2565b840191505092915050565b60006020820190508181036000830152614b168184614ac3565b905092915050565b6000819050919050565b614b3181614b1e565b8114614b3c57600080fd5b50565b600081359050614b4e81614b28565b92915050565b600060208284031215614b6a57614b6961490d565b5b6000614b7884828501614b3f565b91505092915050565b6000614b8c826149d2565b9050919050565b614b9c81614b81565b82525050565b6000602082019050614bb76000830184614b93565b92915050565b614bc681614b81565b8114614bd157600080fd5b50565b600081359050614be381614bbd565b92915050565b60008060408385031215614c0057614bff61490d565b5b6000614c0e85828601614bd4565b9250506020614c1f85828601614b3f565b9150509250929050565b600080600060608486031215614c4257614c4161490d565b5b6000614c5086828701614bd4565b9350506020614c6186828701614bd4565b9250506040614c7286828701614b3f565b9150509250925092565b614c8581614b1e565b82525050565b6000602082019050614ca06000830184614c7c565b92915050565b600080fd5b7f4e487b7100000000000000000000000000000000000000000000000000000000600052604160045260246000fd5b614ce382614ab2565b810181811067ffffffffffffffff82111715614d0257614d01614cab565b5b80604052505050565b6000614d15614903565b9050614d218282614cda565b919050565b600080fd5b600080fd5b600067ffffffffffffffff821115614d4b57614d4a614cab565b5b602082029050602081019050919050565b600080fd5b6000614d74614d6f84614d30565b614d0b565b90508083825260208201905060208402830185811115614d9757614d96614d5c565b5b835b81811015614dc05780614dac8882614b3f565b845260208401935050602081019050614d99565b5050509392505050565b600082601f830112614ddf57614dde614d2b565b5b8135614def848260208601614d61565b91505092915050565b6000819050919050565b614e0b81614df8565b8114614e1657600080fd5b50565b600081359050614e2881614e02565b92915050565b600060608284031215614e4457614e43614ca6565b5b614e4e6060614d0b565b9050600082013567ffffffffffffffff811115614e6e57614e6d614d26565b5b614e7a84828501614dca565b600083015250602082013567ffffffffffffffff811115614e9e57614e9d614d26565b5b614eaa84828501614dca565b6020830152506040614ebe84828501614e19565b60408301525092915050565b600080fd5b600067ffffffffffffffff821115614eea57614ee9614cab565b5b614ef382614ab2565b9050602081019050919050565b82818337600083830152505050565b6000614f22614f1d84614ecf565b614d0b565b905082815260208101848484011115614f3e57614f3d614eca565b5b614f49848285614f00565b509392505050565b600082601f830112614f6657614f65614d2b565b5b8135614f76848260208601614f0f565b91505092915050565b60008060408385031215614f9657614f9561490d565b5b600083013567ffffffffffffffff811115614fb457614fb3614912565b5b614fc085828601614e2e565b925050602083013567ffffffffffffffff811115614fe157614fe0614912565b5b614fed85828601614f51565b9150509250929050565b60006060828403121561500d5761500c614ca6565b5b6150176060614d0b565b9050600061502784828501614b3f565b600083015250602061503b84828501614b3f565b602083015250604061504f84828501614e19565b60408301525092915050565b600080608083850312156150725761507161490d565b5b600061508085828601614ff7565b925050606083013567ffffffffffffffff8111156150a1576150a0614912565b5b6150ad85828601614f51565b9150509250929050565b6000602082840312156150cd576150cc61490d565b5b60006150db84828501614bd4565b91505092915050565b600080600080608085870312156150fe576150fd61490d565b5b600061510c87828801614bd4565b945050602061511d87828801614bd4565b935050604061512e87828801614bd4565b925050606061513f87828801614bd4565b91505092959194509250565b600067ffffffffffffffff82111561516657615165614cab565b5b61516f82614ab2565b9050602081019050919050565b600061518f61518a8461514b565b614d0b565b9050828152602081018484840111156151ab576151aa614eca565b5b6151b6848285614f00565b509392505050565b600082601f8301126151d3576151d2614d2b565b5b81356151e384826020860161517c565b91505092915050565b600080604083850312156152035761520261490d565b5b600083013567ffffffffffffffff81111561522157615220614912565b5b61522d858286016151be565b925050602083013567ffffffffffffffff81111561524e5761524d614912565b5b61525a858286016151be565b9150509250929050565b61526d8161499c565b811461527857600080fd5b50565b60008135905061528a81615264565b92915050565b600080604083850312156152a7576152a661490d565b5b60006152b585828601614bd4565b92505060206152c68582860161527b565b9150509250929050565b600080600080608085870312156152ea576152e961490d565b5b60006152f887828801614bd4565b945050602061530987828801614bd4565b935050604061531a87828801614b3f565b925050606085013567ffffffffffffffff81111561533b5761533a614912565b5b61534787828801614f51565b91505092959194509250565b60006040828403121561536957615368614ca6565b5b6153736040614d0b565b9050600061538384828501614b3f565b600083015250602061539784828501614e19565b60208301525092915050565b600080606083850312156153ba576153b961490d565b5b60006153c885828601615353565b925050604083013567ffffffffffffffff8111156153e9576153e8614912565b5b6153f585828601614f51565b9150509250929050565b60006080828403121561541557615414614ca6565b5b61541f6080614d0b565b9050600061542f84828501614b3f565b600083015250602061544384828501614bd4565b602083015250604061545784828501614b3f565b604083015250606061546b84828501614e19565b60608301525092915050565b60008060a0838503121561548e5761548d61490d565b5b600061549c858286016153ff565b925050608083013567ffffffffffffffff8111156154bd576154bc614912565b5b6154c985828601614f51565b9150509250929050565b6000602082840312156154e9576154e861490d565b5b600082013567ffffffffffffffff81111561550757615506614912565b5b61551384828501614f51565b91505092915050565b600061552782614a1e565b9050919050565b6155378161551c565b82525050565b6000602082019050615552600083018461552e565b92915050565b6000806040838503121561556f5761556e61490d565b5b600061557d85828601614bd4565b925050602061558e85828601614bd4565b9150509250929050565b7f4e487b7100000000000000000000000000000000000000000000000000000000600052602260045260246000fd5b600060028204905060018216806155df57607f821691505b6020821081036155f2576155f1615598565b5b50919050565b7f4552433732313a20617070726f76616c20746f2063757272656e74206f776e6560008201527f7200000000000000000000000000000000000000000000000000000000000000602082015250565b6000615654602183614a77565b915061565f826155f8565b604082019050919050565b6000602082019050818103600083015261568381615647565b9050919050565b7f4552433732313a20617070726f76652063616c6c6572206973206e6f7420746f60008201527f6b656e206f776e6572206f7220617070726f76656420666f7220616c6c000000602082015250565b60006156e6603d83614a77565b91506156f18261568a565b604082019050919050565b60006020820190508181036000830152615715816156d9565b9050919050565b7f4552433732313a2063616c6c6572206973206e6f7420746f6b656e206f776e6560008201527f72206f7220617070726f76656400000000000000000000000000000000000000602082015250565b6000615778602d83614a77565b91506157838261571c565b604082019050919050565b600060208201905081810360008301526157a78161576b565b9050919050565b6000815190506157bd81614b28565b92915050565b6000602082840312156157d9576157d861490d565b5b60006157e7848285016157ae565b91505092915050565b7f4e487b7100000000000000000000000000000000000000000000000000000000600052601160045260246000fd5b600061582a82614b1e565b915061583583614b1e565b9250817fffffffffffffffffffffffffffffffffffffffffffffffffffffffffffffffff048311821515161561586e5761586d6157f0565b5b828202905092915050565b7f4e487b7100000000000000000000000000000000000000000000000000000000600052601260045260246000fd5b60006158b382614b1e565b91506158be83614b1e565b9250826158ce576158cd615879565b5b828204905092915050565b7f4552433732313a20696e76616c696420746f6b656e2049440000000000000000600082015250565b600061590f601883614a77565b915061591a826158d9565b602082019050919050565b6000602082019050818103600083015261593e81615902565b9050919050565b600081519050919050565b600081905092915050565b600061596682615945565b6159708185615950565b9350615980818560208601614a88565b80840191505092915050565b6000615998828461595b565b915081905092915050565b600082825260208201905092915050565b60006159bf82615945565b6159c981856159a3565b93506159d9818560208601614a88565b6159e281614ab2565b840191505092915050565b60006020820190508181036000830152615a0781846159b4565b905092915050565b600081519050615a1e81615264565b92915050565b600060208284031215615a3a57615a3961490d565b5b6000615a4884828501615a0f565b91505092915050565b7f436f6e7374727563744552433732313a204e6f7420616c6c6f77656400000000600082015250565b6000615a87601c83614a77565b9150615a9282615a51565b602082019050919050565b60006020820190508181036000830152615ab681615a7a565b9050919050565b7f4e487b7100000000000000000000000000000000000000000000000000000000600052603260045260246000fd5b7f436f6e7374727563744552433732313a20416c726561647920736f6c64000000600082015250565b6000615b22601d83614a77565b9150615b2d82615aec565b602082019050919050565b60006020820190508181036000830152615b5181615b15565b9050919050565b6000615b6382614b1e565b9150615b6e83614b1e565b9250828201905080821115615b8657615b856157f0565b5b92915050565b6000615b9782614b1e565b91507fffffffffffffffffffffffffffffffffffffffffffffffffffffffffffffffff8203615bc957615bc86157f0565b5b600182019050919050565b600081519050919050565b600082825260208201905092915050565b6000819050602082019050919050565b615c0981614b1e565b82525050565b6000615c1b8383615c00565b60208301905092915050565b6000602082019050919050565b6000615c3f82615bd4565b615c498185615bdf565b9350615c5483615bf0565b8060005b83811015615c85578151615c6c8882615c0f565b9750615c7783615c27565b925050600181019050615c58565b5085935050505092915050565b7f434f4e5354525543540000000000000000000000000000000000000000000000600082015250565b6000615cc8600983614a77565b9150615cd382615c92565b602082019050919050565b60006040820190508181036000830152615cf88184615c34565b90508181036020830152615d0b81615cbb565b905092915050565b600081549050919050565b60008190508160005260206000209050919050565b60008160001c9050919050565b6000819050919050565b6000615d5d615d5883615d33565b615d40565b9050919050565b6000615d708254615d4a565b9050919050565b6000600182019050919050565b6000615d8f82615d13565b615d998185615bdf565b9350615da483615d1e565b8060005b83811015615ddc57615db982615d64565b615dc38882615c0f565b9750615dce83615d77565b925050600181019050615da8565b5085935050505092915050565b6000608082019050615dfe6000830186614b93565b8181036020830152615e108185615c34565b90508181036040830152615e248184615d84565b90508181036060830152615e3781615cbb565b9050949350505050565b6000604082019050615e566000830185614b93565b615e636020830184614c7c565b9392505050565b6000608082019050615e7f6000830186614b93565b615e8c6020830185614c7c565b615e996040830184614c7c565b8181036060830152615eaa81615cbb565b9050949350505050565b7f4552433732313a2061646472657373207a65726f206973206e6f74206120766160008201527f6c6964206f776e65720000000000000000000000000000000000000000000000602082015250565b6000615f10602983614a77565b9150615f1b82615eb4565b604082019050919050565b60006020820190508181036000830152615f3f81615f03565b9050919050565b7f496e697469616c697a61626c653a20636f6e747261637420697320616c72656160008201527f647920696e697469616c697a6564000000000000000000000000000000000000602082015250565b6000615fa2602e83614a77565b9150615fad82615f46565b604082019050919050565b60006020820190508181036000830152615fd181615f95565b9050919050565b60008190508160005260206000209050919050565b60006020601f8301049050919050565b600082821b905092915050565b60006008830261603a7fffffffffffffffffffffffffffffffffffffffffffffffffffffffffffffffff82615ffd565b6160448683615ffd565b95508019841693508086168417925050509392505050565b600061607761607261606d84614b1e565b6149f2565b614b1e565b9050919050565b6000819050919050565b6160918361605c565b6160a561609d8261607e565b84845461600a565b825550505050565b600090565b6160ba6160ad565b6160c5818484616088565b505050565b5b818110156160e9576160de6000826160b2565b6001810190506160cb565b5050565b601f82111561612e576160ff81615fd8565b61610884615fed565b81016020851015616117578190505b61612b61612385615fed565b8301826160ca565b50505b505050565b600082821c905092915050565b600061615160001984600802616133565b1980831691505092915050565b600061616a8383616140565b9150826002028217905092915050565b61618382614a6c565b67ffffffffffffffff81111561619c5761619b614cab565b5b6161a682546155c7565b6161b18282856160ed565b600060209050601f8311600181146161e457600084156161d2578287015190505b6161dc858261615e565b865550616244565b601f1984166161f286615fd8565b60005b8281101561621a578489015182556001820191506020850194506020810190506161f5565b868310156162375784890151616233601f891682616140565b8355505b6001600288020188555050505b505050505050565b6000819050919050565b600060ff82169050919050565b600061627e6162796162748461624c565b6149f2565b616256565b9050919050565b61628e81616263565b82525050565b60006020820190506162a96000830184616285565b92915050565b7f436f6e7374727563744552433732313a204e6f74206c69737465640000000000600082015250565b60006162e5601b83614a77565b91506162f0826162af565b602082019050919050565b60006020820190508181036000830152616314816162d8565b9050919050565b7f436f6e7374727563744552433732313a205072697a6520697320696e636f727260008201527f656374206f7220696e76616c6964000000000000000000000000000000000000602082015250565b6000616377602e83614a77565b91506163828261631b565b604082019050919050565b600060208201905081810360008301526163a68161636a565b9050919050565b60006163b882614b1e565b91506163c383614b1e565b92508282039050818111156163db576163da6157f0565b5b92915050565b600060a0820190506163f66000830187614b93565b6164036020830186614b93565b6164106040830185614c7c565b61641d6060830184614c7c565b818103608083015261642e81615cbb565b905095945050505050565b7f436f6e7374727563744552433732313a20416c726561647920736f6c64206f7260008201527f206d696e746564206f72204f4646000000000000000000000000000000000000602082015250565b6000616495602e83614a77565b91506164a082616439565b604082019050919050565b600060208201905081810360008301526164c481616488565b9050919050565b7f436f6e7374727563744552433732313a2055524920717565727920666f72206e60008201527f6f6e6578697374656e7420746f6b656e00000000000000000000000000000000602082015250565b6000616527603083614a77565b9150616532826164cb565b604082019050919050565b600060208201905081810360008301526165568161651a565b9050919050565b600081905092915050565b60008154616575816155c7565b61657f818661655d565b9450600182166000811461659a57600181146165af576165e2565b60ff19831686528115158202860193506165e2565b6165b885615fd8565b60005b838110156165da578154818901526001820191506020810190506165bb565b838801955050505b50505092915050565b60006165f682614a6c565b616600818561655d565b9350616610818560208601614a88565b80840191505092915050565b60006166288286616568565b915061663482856165eb565b91506166408284616568565b9150819050949350505050565b7f4f776e61626c653a206e6577206f776e657220697320746865207a65726f206160008201527f6464726573730000000000000000000000000000000000000000000000000000602082015250565b60006166a9602683614a77565b91506166b48261664d565b604082019050919050565b600060208201905081810360008301526166d88161669c565b9050919050565b7f4552433732313a207472616e736665722066726f6d20696e636f72726563742060008201527f6f776e6572000000000000000000000000000000000000000000000000000000602082015250565b600061673b602583614a77565b9150616746826166df565b604082019050919050565b6000602082019050818103600083015261676a8161672e565b9050919050565b7f4552433732313a207472616e7366657220746f20746865207a65726f2061646460008201527f7265737300000000000000000000000000000000000000000000000000000000602082015250565b60006167cd602483614a77565b91506167d882616771565b604082019050919050565b600060208201905081810360008301526167fc816167c0565b9050919050565b7f5265656e7472616e637947756172643a207265656e7472616e742063616c6c00600082015250565b6000616839601f83614a77565b915061684482616803565b602082019050919050565b600060208201905081810360008301526168688161682c565b9050919050565b7f4e487b7100000000000000000000000000000000000000000000000000000000600052602160045260246000fd5b6168a781614df8565b82525050565b60006040820190506168c2600083018561689e565b81810360208301526168d481846159b4565b90509392505050565b6000815190506168ec81614e02565b92915050565b6000602082840312156169085761690761490d565b5b6000616916848285016168dd565b91505092915050565b7f4f776e61626c653a2063616c6c6572206973206e6f7420746865206f776e6572600082015250565b6000616955602083614a77565b91506169608261691f565b602082019050919050565b6000602082019050818103600083015261698481616948565b9050919050565b7f496e697469616c697a61626c653a20636f6e7472616374206973206e6f74206960008201527f6e697469616c697a696e67000000000000000000000000000000000000000000602082015250565b60006169e7602b83614a77565b91506169f28261698b565b604082019050919050565b60006020820190508181036000830152616a16816169da565b9050919050565b7f4552433732313a207472616e7366657220746f206e6f6e20455243373231526560008201527f63656976657220696d706c656d656e7465720000000000000000000000000000602082015250565b6000616a79603283614a77565b9150616a8482616a1d565b604082019050919050565b60006020820190508181036000830152616aa881616a6c565b9050919050565b7f4552433732313a20617070726f766520746f2063616c6c657200000000000000600082015250565b6000616ae5601983614a77565b9150616af082616aaf565b602082019050919050565b60006020820190508181036000830152616b1481616ad8565b9050919050565b6000608082019050616b306000830187614b93565b616b3d6020830186614b93565b616b4a6040830185614c7c565b8181036060830152616b5c81846159b4565b905095945050505050565b600081519050616b7681614943565b92915050565b600060208284031215616b9257616b9161490d565b5b6000616ba084828501616b67565b91505092915050565b616bb281616256565b82525050565b6000608082019050616bcd600083018761689e565b616bda6020830186616ba9565b616be7604083018561689e565b616bf4606083018461689e565b95945050505050565b7f4552433732313a206d696e7420746f20746865207a65726f2061646472657373600082015250565b6000616c33602083614a77565b9150616c3e82616bfd565b602082019050919050565b60006020820190508181036000830152616c6281616c26565b9050919050565b7f4552433732313a20746f6b656e20616c7265616479206d696e74656400000000600082015250565b6000616c9f601c83614a77565b9150616caa82616c69565b602082019050919050565b60006020820190508181036000830152616cce81616c92565b905091905056fe68747470733a2f2f6173736574732e616c6c6f792e73706163652f746f6b656e2d7572692d73322fa2646970667358221220a2c1bff3145815a03142970dc96069c4cdff9c5ad8288371a26a6047b75a5d1364736f6c63430008100033",
  "linkReferences": {},
  "deployedLinkReferences": {}
}